{
	"challeng/my_contract/c.sol": {
		"TokenRelease": {
			"abi": [
				{
					"inputs": [],
					"stateMutability": "nonpayable",
					"type": "constructor"
				},
				{
					"inputs": [
						{
							"internalType": "address",
							"name": "newOwner",
							"type": "address"
						}
					],
					"name": "changeOwner",
					"outputs": [],
					"stateMutability": "nonpayable",
					"type": "function"
				},
				{
					"inputs": [],
					"name": "decimals",
					"outputs": [
						{
							"internalType": "uint256",
							"name": "",
							"type": "uint256"
						}
					],
					"stateMutability": "view",
					"type": "function"
				},
				{
					"inputs": [],
					"name": "getContractAddrss",
					"outputs": [
						{
							"internalType": "address",
							"name": "",
							"type": "address"
						}
					],
					"stateMutability": "view",
					"type": "function"
				},
				{
					"inputs": [],
					"name": "getCurrentReleaseTokenAmount",
					"outputs": [
						{
							"internalType": "uint256",
							"name": "",
							"type": "uint256"
						}
					],
					"stateMutability": "view",
					"type": "function"
				},
				{
					"inputs": [],
					"name": "getFirstReleaseTime",
					"outputs": [
						{
							"internalType": "uint256",
							"name": "",
							"type": "uint256"
						}
					],
					"stateMutability": "view",
					"type": "function"
				},
				{
					"inputs": [],
					"name": "getNumberOfTimesToHalve",
					"outputs": [
						{
							"internalType": "uint256",
							"name": "",
							"type": "uint256"
						}
					],
					"stateMutability": "view",
					"type": "function"
				},
				{
					"inputs": [],
					"name": "getReleasesCount",
					"outputs": [
						{
							"internalType": "uint256",
							"name": "",
							"type": "uint256"
						}
					],
					"stateMutability": "view",
					"type": "function"
				},
				{
					"inputs": [],
					"name": "getTimestamp",
					"outputs": [
						{
							"internalType": "uint256",
							"name": "",
							"type": "uint256"
						}
					],
					"stateMutability": "view",
					"type": "function"
				},
				{
					"inputs": [],
					"name": "getTotalReleased",
					"outputs": [
						{
							"internalType": "uint256",
							"name": "",
							"type": "uint256"
						}
					],
					"stateMutability": "view",
					"type": "function"
				},
				{
					"inputs": [],
					"name": "lastReleaseTime",
					"outputs": [
						{
							"internalType": "uint256",
							"name": "",
							"type": "uint256"
						}
					],
					"stateMutability": "view",
					"type": "function"
				},
				{
					"inputs": [
						{
							"internalType": "address[]",
							"name": "recipients",
							"type": "address[]"
						},
						{
							"internalType": "uint256[]",
							"name": "values",
							"type": "uint256[]"
						}
					],
					"name": "release",
					"outputs": [],
					"stateMutability": "nonpayable",
					"type": "function"
				},
				{
					"inputs": [
						{
							"internalType": "string[]",
							"name": "themeId",
							"type": "string[]"
						},
						{
							"internalType": "uint256[]",
							"name": "values",
							"type": "uint256[]"
						}
					],
					"name": "sendMasterToken",
					"outputs": [],
					"stateMutability": "nonpayable",
					"type": "function"
				},
				{
					"inputs": [
						{
							"internalType": "address",
							"name": "contractAddrss",
							"type": "address"
						}
					],
					"name": "setChallengContract",
					"outputs": [],
					"stateMutability": "nonpayable",
					"type": "function"
				},
				{
					"inputs": [
						{
							"internalType": "uint256",
							"name": "firstReleaseTime",
							"type": "uint256"
						}
					],
					"name": "setFirstReleaseTime",
					"outputs": [],
					"stateMutability": "nonpayable",
					"type": "function"
				},
				{
					"inputs": [
						{
							"internalType": "address",
							"name": "receivingAddress",
							"type": "address"
						}
					],
					"name": "setReceivingAddress",
					"outputs": [],
					"stateMutability": "nonpayable",
					"type": "function"
				},
				{
					"inputs": [
						{
							"internalType": "address",
							"name": "tokenAddress",
							"type": "address"
						}
					],
					"name": "setTokenAddress",
					"outputs": [],
					"stateMutability": "nonpayable",
					"type": "function"
				},
				{
					"inputs": [],
					"name": "token",
					"outputs": [
						{
							"internalType": "contract IERC20",
							"name": "",
							"type": "address"
						}
					],
					"stateMutability": "view",
					"type": "function"
				},
				{
					"inputs": [],
					"name": "tokenBalance",
					"outputs": [
						{
							"internalType": "uint256",
							"name": "",
							"type": "uint256"
						}
					],
					"stateMutability": "view",
					"type": "function"
				}
			],
			"devdoc": {
				"details": "The Ownable contract has an owner address, and provides basic authorization control functions, this simplifies the implementation of \"user permissions\".",
				"kind": "dev",
				"methods": {
					"token()": {
						"details": "Returns the token being held."
					}
				},
				"title": "Ownable",
				"version": 1
			},
			"evm": {
				"assembly": "    /* \"challeng/my_contract/c.sol\":19474:27492  contract TokenRelease   {... */\n  mstore(0x40, 0x80)\n    /* \"challeng/my_contract/c.sol\":20339:20341  18 */\n  0x12\n    /* \"challeng/my_contract/c.sol\":20311:20341  uint256 private _decimals = 18 */\n  0x04\n  sstore\n    /* \"challeng/my_contract/c.sol\":20570:20579  _decimals */\n  sload(0x04)\n    /* \"challeng/my_contract/c.sol\":20564:20566  10 */\n  0x0a\n    /* \"challeng/my_contract/c.sol\":20564:20579  10 ** _decimals */\n  tag_1\n  swap2\n  swap1\n  tag_2\n  jump\t// in\ntag_1:\n    /* \"challeng/my_contract/c.sol\":20557:20561  7200 */\n  0x1c20\n    /* \"challeng/my_contract/c.sol\":20557:20579  7200 * 10 ** _decimals */\n  tag_3\n  swap2\n  swap1\n  tag_4\n  jump\t// in\ntag_3:\n    /* \"challeng/my_contract/c.sol\":20524:20579  uint256 private _releaseAmount = 7200 * 10 ** _decimals */\n  0x08\n  sstore\n    /* \"challeng/my_contract/c.sol\":20689:20709  1 * 60 * 60 * 24 * 3 */\n  0x03f480\n    /* \"challeng/my_contract/c.sol\":20660:20709  uint256 private _halfCycle = 1 * 60 * 60 * 24 * 3 */\n  0x09\n  sstore\n    /* \"challeng/my_contract/c.sol\":20790:20799  1* 60 * 5 */\n  0x012c\n    /* \"challeng/my_contract/c.sol\":20756:20799  uint256 private _releaseInterval =1* 60 * 5 */\n  0x0a\n  sstore\n    /* \"challeng/my_contract/c.sol\":20882:20883  0 */\n  0x00\n    /* \"challeng/my_contract/c.sol\":20849:20883  uint256 private _releasesCount = 0 */\n  0x0b\n  sstore\n    /* \"challeng/my_contract/c.sol\":20934:20996  constructor() {... */\n  callvalue\n  dup1\n  iszero\n  tag_5\n  jumpi\n  0x00\n  dup1\n  revert\ntag_5:\n  pop\n    /* \"challeng/my_contract/c.sol\":20968:20978  msg.sender */\n  caller\n    /* \"challeng/my_contract/c.sol\":20959:20965  _owner */\n  0x07\n  0x00\n    /* \"challeng/my_contract/c.sol\":20959:20978  _owner = msg.sender */\n  0x0100\n  exp\n  dup2\n  sload\n  dup2\n  0xffffffffffffffffffffffffffffffffffffffff\n  mul\n  not\n  and\n  swap1\n  dup4\n  0xffffffffffffffffffffffffffffffffffffffff\n  and\n  mul\n  or\n  swap1\n  sstore\n  pop\n    /* \"challeng/my_contract/c.sol\":19474:27492  contract TokenRelease   {... */\n  jump(tag_8)\n    /* \"#utility.yul\":7:187   */\ntag_9:\n    /* \"#utility.yul\":55:132   */\n  0x4e487b7100000000000000000000000000000000000000000000000000000000\n    /* \"#utility.yul\":52:53   */\n  0x00\n    /* \"#utility.yul\":45:133   */\n  mstore\n    /* \"#utility.yul\":152:156   */\n  0x11\n    /* \"#utility.yul\":149:150   */\n  0x04\n    /* \"#utility.yul\":142:157   */\n  mstore\n    /* \"#utility.yul\":176:180   */\n  0x24\n    /* \"#utility.yul\":173:174   */\n  0x00\n    /* \"#utility.yul\":166:181   */\n  revert\n    /* \"#utility.yul\":193:295   */\ntag_10:\n    /* \"#utility.yul\":235:243   */\n  0x00\n    /* \"#utility.yul\":282:287   */\n  dup2\n    /* \"#utility.yul\":279:280   */\n  0x01\n    /* \"#utility.yul\":275:288   */\n  shr\n    /* \"#utility.yul\":254:288   */\n  swap1\n  pop\n    /* \"#utility.yul\":193:295   */\n  swap2\n  swap1\n  pop\n  jump\t// out\n    /* \"#utility.yul\":301:1149   */\ntag_11:\n    /* \"#utility.yul\":362:367   */\n  0x00\n    /* \"#utility.yul\":369:373   */\n  dup1\n    /* \"#utility.yul\":393:399   */\n  dup3\n    /* \"#utility.yul\":384:399   */\n  swap2\n  pop\n    /* \"#utility.yul\":417:422   */\n  dup4\n    /* \"#utility.yul\":408:422   */\n  swap1\n  pop\n    /* \"#utility.yul\":431:1143   */\ntag_18:\n    /* \"#utility.yul\":452:453   */\n  0x01\n    /* \"#utility.yul\":442:450   */\n  dup6\n    /* \"#utility.yul\":439:454   */\n  gt\n    /* \"#utility.yul\":431:1143   */\n  iszero\n  tag_20\n  jumpi\n    /* \"#utility.yul\":547:551   */\n  dup1\n    /* \"#utility.yul\":542:545   */\n  dup7\n    /* \"#utility.yul\":538:552   */\n  div\n    /* \"#utility.yul\":532:536   */\n  dup2\n    /* \"#utility.yul\":529:553   */\n  gt\n    /* \"#utility.yul\":526:576   */\n  iszero\n  tag_21\n  jumpi\n    /* \"#utility.yul\":556:574   */\n  tag_22\n  tag_9\n  jump\t// in\ntag_22:\n    /* \"#utility.yul\":526:576   */\ntag_21:\n    /* \"#utility.yul\":606:607   */\n  0x01\n    /* \"#utility.yul\":596:604   */\n  dup6\n    /* \"#utility.yul\":592:608   */\n  and\n    /* \"#utility.yul\":589:1040   */\n  iszero\n  tag_23\n  jumpi\n    /* \"#utility.yul\":1021:1025   */\n  dup1\n    /* \"#utility.yul\":1014:1019   */\n  dup3\n    /* \"#utility.yul\":1010:1026   */\n  mul\n    /* \"#utility.yul\":1001:1026   */\n  swap2\n  pop\n    /* \"#utility.yul\":589:1040   */\ntag_23:\n    /* \"#utility.yul\":1071:1075   */\n  dup1\n    /* \"#utility.yul\":1065:1069   */\n  dup2\n    /* \"#utility.yul\":1061:1076   */\n  mul\n    /* \"#utility.yul\":1053:1076   */\n  swap1\n  pop\n    /* \"#utility.yul\":1101:1133   */\n  tag_24\n    /* \"#utility.yul\":1124:1132   */\n  dup6\n    /* \"#utility.yul\":1101:1133   */\n  tag_10\n  jump\t// in\ntag_24:\n    /* \"#utility.yul\":1089:1133   */\n  swap5\n  pop\n    /* \"#utility.yul\":431:1143   */\n  jump(tag_18)\ntag_20:\n    /* \"#utility.yul\":301:1149   */\n  swap5\n  pop\n  swap5\n  swap3\n  pop\n  pop\n  pop\n  jump\t// out\n    /* \"#utility.yul\":1155:2228   */\ntag_12:\n    /* \"#utility.yul\":1209:1214   */\n  0x00\n    /* \"#utility.yul\":1400:1408   */\n  dup3\n    /* \"#utility.yul\":1390:1430   */\n  tag_26\n  jumpi\n    /* \"#utility.yul\":1421:1422   */\n  0x01\n    /* \"#utility.yul\":1412:1422   */\n  swap1\n  pop\n    /* \"#utility.yul\":1423:1428   */\n  jump(tag_25)\n    /* \"#utility.yul\":1390:1430   */\ntag_26:\n    /* \"#utility.yul\":1449:1453   */\n  dup2\n    /* \"#utility.yul\":1439:1475   */\n  tag_27\n  jumpi\n    /* \"#utility.yul\":1466:1467   */\n  0x00\n    /* \"#utility.yul\":1457:1467   */\n  swap1\n  pop\n    /* \"#utility.yul\":1468:1473   */\n  jump(tag_25)\n    /* \"#utility.yul\":1439:1475   */\ntag_27:\n    /* \"#utility.yul\":1535:1539   */\n  dup2\n    /* \"#utility.yul\":1583:1584   */\n  0x01\n    /* \"#utility.yul\":1578:1605   */\n  dup2\n  eq\n  tag_29\n  jumpi\n    /* \"#utility.yul\":1619:1620   */\n  0x02\n    /* \"#utility.yul\":1614:1805   */\n  dup2\n  eq\n  tag_30\n  jumpi\n    /* \"#utility.yul\":1528:1805   */\n  jump(tag_28)\n    /* \"#utility.yul\":1578:1605   */\ntag_29:\n    /* \"#utility.yul\":1596:1597   */\n  0x01\n    /* \"#utility.yul\":1587:1597   */\n  swap2\n  pop\n    /* \"#utility.yul\":1598:1603   */\n  pop\n  jump(tag_25)\n    /* \"#utility.yul\":1614:1805   */\ntag_30:\n    /* \"#utility.yul\":1659:1662   */\n  0xff\n    /* \"#utility.yul\":1649:1657   */\n  dup5\n    /* \"#utility.yul\":1646:1663   */\n  gt\n    /* \"#utility.yul\":1643:1686   */\n  iszero\n  tag_31\n  jumpi\n    /* \"#utility.yul\":1666:1684   */\n  tag_32\n  tag_9\n  jump\t// in\ntag_32:\n    /* \"#utility.yul\":1643:1686   */\ntag_31:\n    /* \"#utility.yul\":1715:1723   */\n  dup4\n    /* \"#utility.yul\":1712:1713   */\n  0x02\n    /* \"#utility.yul\":1708:1724   */\n  exp\n    /* \"#utility.yul\":1699:1724   */\n  swap2\n  pop\n    /* \"#utility.yul\":1750:1753   */\n  dup5\n    /* \"#utility.yul\":1743:1748   */\n  dup3\n    /* \"#utility.yul\":1740:1754   */\n  gt\n    /* \"#utility.yul\":1737:1777   */\n  iszero\n  tag_33\n  jumpi\n    /* \"#utility.yul\":1757:1775   */\n  tag_34\n  tag_9\n  jump\t// in\ntag_34:\n    /* \"#utility.yul\":1737:1777   */\ntag_33:\n    /* \"#utility.yul\":1790:1795   */\n  pop\n  jump(tag_25)\n    /* \"#utility.yul\":1528:1805   */\ntag_28:\n  pop\n    /* \"#utility.yul\":1914:1916   */\n  0x20\n    /* \"#utility.yul\":1904:1912   */\n  dup4\n    /* \"#utility.yul\":1901:1917   */\n  lt\n    /* \"#utility.yul\":1895:1898   */\n  0x0133\n    /* \"#utility.yul\":1889:1893   */\n  dup4\n    /* \"#utility.yul\":1886:1899   */\n  lt\n    /* \"#utility.yul\":1882:1918   */\n  and\n    /* \"#utility.yul\":1864:1866   */\n  0x4e\n    /* \"#utility.yul\":1854:1862   */\n  dup5\n    /* \"#utility.yul\":1851:1867   */\n  lt\n    /* \"#utility.yul\":1846:1848   */\n  0x0b\n    /* \"#utility.yul\":1840:1844   */\n  dup5\n    /* \"#utility.yul\":1837:1849   */\n  lt\n    /* \"#utility.yul\":1833:1868   */\n  and\n    /* \"#utility.yul\":1817:1928   */\n  or\n    /* \"#utility.yul\":1814:2060   */\n  iszero\n  tag_35\n  jumpi\n    /* \"#utility.yul\":1970:1978   */\n  dup3\n    /* \"#utility.yul\":1964:1968   */\n  dup3\n    /* \"#utility.yul\":1960:1979   */\n  exp\n    /* \"#utility.yul\":1951:1979   */\n  swap1\n  pop\n    /* \"#utility.yul\":2005:2008   */\n  dup4\n    /* \"#utility.yul\":1998:2003   */\n  dup2\n    /* \"#utility.yul\":1995:2009   */\n  gt\n    /* \"#utility.yul\":1992:2032   */\n  iszero\n  tag_36\n  jumpi\n    /* \"#utility.yul\":2012:2030   */\n  tag_37\n  tag_9\n  jump\t// in\ntag_37:\n    /* \"#utility.yul\":1992:2032   */\ntag_36:\n    /* \"#utility.yul\":2045:2050   */\n  jump(tag_25)\n    /* \"#utility.yul\":1814:2060   */\ntag_35:\n    /* \"#utility.yul\":2085:2127   */\n  tag_38\n    /* \"#utility.yul\":2123:2126   */\n  dup5\n    /* \"#utility.yul\":2113:2121   */\n  dup5\n    /* \"#utility.yul\":2107:2111   */\n  dup5\n    /* \"#utility.yul\":2104:2105   */\n  0x01\n    /* \"#utility.yul\":2085:2127   */\n  tag_11\n  jump\t// in\ntag_38:\n    /* \"#utility.yul\":2070:2127   */\n  swap3\n  pop\n  swap1\n  pop\n    /* \"#utility.yul\":2159:2163   */\n  dup2\n    /* \"#utility.yul\":2154:2157   */\n  dup5\n    /* \"#utility.yul\":2150:2164   */\n  div\n    /* \"#utility.yul\":2143:2148   */\n  dup2\n    /* \"#utility.yul\":2140:2165   */\n  gt\n    /* \"#utility.yul\":2137:2188   */\n  iszero\n  tag_39\n  jumpi\n    /* \"#utility.yul\":2168:2186   */\n  tag_40\n  tag_9\n  jump\t// in\ntag_40:\n    /* \"#utility.yul\":2137:2188   */\ntag_39:\n    /* \"#utility.yul\":2217:2221   */\n  dup2\n    /* \"#utility.yul\":2210:2215   */\n  dup2\n    /* \"#utility.yul\":2206:2222   */\n  mul\n    /* \"#utility.yul\":2197:2222   */\n  swap1\n  pop\n    /* \"#utility.yul\":1155:2228   */\ntag_25:\n  swap4\n  swap3\n  pop\n  pop\n  pop\n  jump\t// out\n    /* \"#utility.yul\":2234:2311   */\ntag_13:\n    /* \"#utility.yul\":2271:2278   */\n  0x00\n    /* \"#utility.yul\":2300:2305   */\n  dup2\n    /* \"#utility.yul\":2289:2305   */\n  swap1\n  pop\n    /* \"#utility.yul\":2234:2311   */\n  swap2\n  swap1\n  pop\n  jump\t// out\n    /* \"#utility.yul\":2317:2602   */\ntag_2:\n    /* \"#utility.yul\":2377:2382   */\n  0x00\n    /* \"#utility.yul\":2401:2424   */\n  tag_43\n    /* \"#utility.yul\":2419:2423   */\n  dup3\n    /* \"#utility.yul\":2401:2424   */\n  tag_13\n  jump\t// in\ntag_43:\n    /* \"#utility.yul\":2393:2424   */\n  swap2\n  pop\n    /* \"#utility.yul\":2445:2472   */\n  tag_44\n    /* \"#utility.yul\":2463:2471   */\n  dup4\n    /* \"#utility.yul\":2445:2472   */\n  tag_13\n  jump\t// in\ntag_44:\n    /* \"#utility.yul\":2433:2472   */\n  swap3\n  pop\n    /* \"#utility.yul\":2491:2595   */\n  tag_45\n    /* \"#utility.yul\":2528:2594   */\n  0xffffffffffffffffffffffffffffffffffffffffffffffffffffffffffffffff\n    /* \"#utility.yul\":2518:2526   */\n  dup5\n    /* \"#utility.yul\":2512:2516   */\n  dup5\n    /* \"#utility.yul\":2491:2595   */\n  tag_12\n  jump\t// in\ntag_45:\n    /* \"#utility.yul\":2482:2595   */\n  swap1\n  pop\n    /* \"#utility.yul\":2317:2602   */\n  swap3\n  swap2\n  pop\n  pop\n  jump\t// out\n    /* \"#utility.yul\":2608:3018   */\ntag_4:\n    /* \"#utility.yul\":2648:2655   */\n  0x00\n    /* \"#utility.yul\":2671:2691   */\n  tag_47\n    /* \"#utility.yul\":2689:2690   */\n  dup3\n    /* \"#utility.yul\":2671:2691   */\n  tag_13\n  jump\t// in\ntag_47:\n    /* \"#utility.yul\":2666:2691   */\n  swap2\n  pop\n    /* \"#utility.yul\":2705:2725   */\n  tag_48\n    /* \"#utility.yul\":2723:2724   */\n  dup4\n    /* \"#utility.yul\":2705:2725   */\n  tag_13\n  jump\t// in\ntag_48:\n    /* \"#utility.yul\":2700:2725   */\n  swap3\n  pop\n    /* \"#utility.yul\":2760:2761   */\n  dup3\n    /* \"#utility.yul\":2757:2758   */\n  dup3\n    /* \"#utility.yul\":2753:2762   */\n  mul\n    /* \"#utility.yul\":2782:2812   */\n  tag_49\n    /* \"#utility.yul\":2800:2811   */\n  dup2\n    /* \"#utility.yul\":2782:2812   */\n  tag_13\n  jump\t// in\ntag_49:\n    /* \"#utility.yul\":2771:2812   */\n  swap2\n  pop\n    /* \"#utility.yul\":2961:2962   */\n  dup3\n    /* \"#utility.yul\":2952:2959   */\n  dup3\n    /* \"#utility.yul\":2948:2963   */\n  div\n    /* \"#utility.yul\":2945:2946   */\n  dup5\n    /* \"#utility.yul\":2942:2964   */\n  eq\n    /* \"#utility.yul\":2922:2923   */\n  dup4\n    /* \"#utility.yul\":2915:2924   */\n  iszero\n    /* \"#utility.yul\":2895:2978   */\n  or\n    /* \"#utility.yul\":2872:3011   */\n  tag_50\n  jumpi\n    /* \"#utility.yul\":2991:3009   */\n  tag_51\n  tag_9\n  jump\t// in\ntag_51:\n    /* \"#utility.yul\":2872:3011   */\ntag_50:\n    /* \"#utility.yul\":2656:3018   */\n  pop\n    /* \"#utility.yul\":2608:3018   */\n  swap3\n  swap2\n  pop\n  pop\n  jump\t// out\n    /* \"challeng/my_contract/c.sol\":19474:27492  contract TokenRelease   {... */\ntag_8:\n  dataSize(sub_0)\n  dup1\n  dataOffset(sub_0)\n  0x00\n  codecopy\n  0x00\n  return\nstop\n\nsub_0: assembly {\n        /* \"challeng/my_contract/c.sol\":19474:27492  contract TokenRelease   {... */\n      mstore(0x40, 0x80)\n      callvalue\n      dup1\n      iszero\n      tag_1\n      jumpi\n      0x00\n      dup1\n      revert\n    tag_1:\n      pop\n      jumpi(tag_2, lt(calldatasize, 0x04))\n      shr(0xe0, calldataload(0x00))\n      dup1\n      0x4b14c0ef\n      gt\n      tag_21\n      jumpi\n      dup1\n      0xa6f9dae1\n      gt\n      tag_22\n      jumpi\n      dup1\n      0xa6f9dae1\n      eq\n      tag_16\n      jumpi\n      dup1\n      0xc3af57f0\n      eq\n      tag_17\n      jumpi\n      dup1\n      0xc52c31fa\n      eq\n      tag_18\n      jumpi\n      dup1\n      0xdfaf734a\n      eq\n      tag_19\n      jumpi\n      dup1\n      0xfc0c546a\n      eq\n      tag_20\n      jumpi\n      jump(tag_2)\n    tag_22:\n      dup1\n      0x4b14c0ef\n      eq\n      tag_12\n      jumpi\n      dup1\n      0x5aeca126\n      eq\n      tag_13\n      jumpi\n      dup1\n      0x804a8376\n      eq\n      tag_14\n      jumpi\n      dup1\n      0x9e1a4d19\n      eq\n      tag_15\n      jumpi\n      jump(tag_2)\n    tag_21:\n      dup1\n      0x26a4e8d2\n      gt\n      tag_23\n      jumpi\n      dup1\n      0x26a4e8d2\n      eq\n      tag_7\n      jumpi\n      dup1\n      0x2a5f669a\n      eq\n      tag_8\n      jumpi\n      dup1\n      0x313ce567\n      eq\n      tag_9\n      jumpi\n      dup1\n      0x4496f183\n      eq\n      tag_10\n      jumpi\n      dup1\n      0x47a58626\n      eq\n      tag_11\n      jumpi\n      jump(tag_2)\n    tag_23:\n      dup1\n      0x0a48eba4\n      eq\n      tag_3\n      jumpi\n      dup1\n      0x107531d8\n      eq\n      tag_4\n      jumpi\n      dup1\n      0x119f2590\n      eq\n      tag_5\n      jumpi\n      dup1\n      0x188ec356\n      eq\n      tag_6\n      jumpi\n    tag_2:\n      0x00\n      dup1\n      revert\n        /* \"challeng/my_contract/c.sol\":23126:23633  function getCurrentReleaseTokenAmount() public view virtual returns (uint256) {... */\n    tag_3:\n      tag_24\n      tag_25\n      jump\t// in\n    tag_24:\n      mload(0x40)\n      tag_26\n      swap2\n      swap1\n      tag_27\n      jump\t// in\n    tag_26:\n      mload(0x40)\n      dup1\n      swap2\n      sub\n      swap1\n      return\n        /* \"challeng/my_contract/c.sol\":22517:22626  function getFirstReleaseTime() public view virtual returns (uint256) {... */\n    tag_4:\n      tag_28\n      tag_29\n      jump\t// in\n    tag_28:\n      mload(0x40)\n      tag_30\n      swap2\n      swap1\n      tag_27\n      jump\t// in\n    tag_30:\n      mload(0x40)\n      dup1\n      swap2\n      sub\n      swap1\n      return\n        /* \"challeng/my_contract/c.sol\":21459:21603  function setReceivingAddress(address receivingAddress) public virtual onlyOwner {... */\n    tag_5:\n      tag_31\n      0x04\n      dup1\n      calldatasize\n      sub\n      dup2\n      add\n      swap1\n      tag_32\n      swap2\n      swap1\n      tag_33\n      jump\t// in\n    tag_32:\n      tag_34\n      jump\t// in\n    tag_31:\n      stop\n        /* \"challeng/my_contract/c.sol\":25771:25874  function getTimestamp() public view virtual returns (uint256) {... */\n    tag_6:\n      tag_35\n      tag_36\n      jump\t// in\n    tag_35:\n      mload(0x40)\n      tag_37\n      swap2\n      swap1\n      tag_27\n      jump\t// in\n    tag_37:\n      mload(0x40)\n      dup1\n      swap2\n      sub\n      swap1\n      return\n        /* \"challeng/my_contract/c.sol\":21266:21389  function setTokenAddress(address tokenAddress ) public virtual   onlyOwner {... */\n    tag_7:\n      tag_38\n      0x04\n      dup1\n      calldatasize\n      sub\n      dup2\n      add\n      swap1\n      tag_39\n      swap2\n      swap1\n      tag_33\n      jump\t// in\n    tag_39:\n      tag_40\n      jump\t// in\n    tag_38:\n      stop\n        /* \"challeng/my_contract/c.sol\":24202:25470  function sendMasterToken(string[] memory themeId,uint256[] memory values) public  onlyOwner    (){... */\n    tag_8:\n      tag_41\n      0x04\n      dup1\n      calldatasize\n      sub\n      dup2\n      add\n      swap1\n      tag_42\n      swap2\n      swap1\n      tag_43\n      jump\t// in\n    tag_42:\n      tag_44\n      jump\t// in\n    tag_41:\n      stop\n        /* \"challeng/my_contract/c.sol\":22182:22275  function decimals() public view virtual returns (uint256) {... */\n    tag_9:\n      tag_45\n      tag_46\n      jump\t// in\n    tag_45:\n      mload(0x40)\n      tag_47\n      swap2\n      swap1\n      tag_27\n      jump\t// in\n    tag_47:\n      mload(0x40)\n      dup1\n      swap2\n      sub\n      swap1\n      return\n        /* \"challeng/my_contract/c.sol\":25882:27489  function release(address[] calldata recipients, uint256[] calldata values) public virtual {... */\n    tag_10:\n      tag_48\n      0x04\n      dup1\n      calldatasize\n      sub\n      dup2\n      add\n      swap1\n      tag_49\n      swap2\n      swap1\n      tag_50\n      jump\t// in\n    tag_49:\n      tag_51\n      jump\t// in\n    tag_48:\n      stop\n        /* \"challeng/my_contract/c.sol\":25665:25763  function getContractAddrss() public view returns(address){... */\n    tag_11:\n      tag_52\n      tag_53\n      jump\t// in\n    tag_52:\n      mload(0x40)\n      tag_54\n      swap2\n      swap1\n      tag_55\n      jump\t// in\n    tag_54:\n      mload(0x40)\n      dup1\n      swap2\n      sub\n      swap1\n      return\n        /* \"challeng/my_contract/c.sol\":22286:22392  function getTotalReleased() public view virtual returns (uint256) {... */\n    tag_12:\n      tag_56\n      tag_57\n      jump\t// in\n    tag_56:\n      mload(0x40)\n      tag_58\n      swap2\n      swap1\n      tag_27\n      jump\t// in\n    tag_58:\n      mload(0x40)\n      dup1\n      swap2\n      sub\n      swap1\n      return\n        /* \"challeng/my_contract/c.sol\":21665:21801  function setFirstReleaseTime(uint256 firstReleaseTime ) public virtual onlyOwner {... */\n    tag_13:\n      tag_59\n      0x04\n      dup1\n      calldatasize\n      sub\n      dup2\n      add\n      swap1\n      tag_60\n      swap2\n      swap1\n      tag_61\n      jump\t// in\n    tag_60:\n      tag_62\n      jump\t// in\n    tag_59:\n      stop\n        /* \"challeng/my_contract/c.sol\":23738:24098  function getNumberOfTimesToHalve() public view virtual returns (uint256) {... */\n    tag_14:\n      tag_63\n      tag_64\n      jump\t// in\n    tag_63:\n      mload(0x40)\n      tag_65\n      swap2\n      swap1\n      tag_27\n      jump\t// in\n    tag_65:\n      mload(0x40)\n      dup1\n      swap2\n      sub\n      swap1\n      return\n        /* \"challeng/my_contract/c.sol\":22634:22867  function tokenBalance() public view virtual returns (uint256) {... */\n    tag_15:\n      tag_66\n      tag_67\n      jump\t// in\n    tag_66:\n      mload(0x40)\n      tag_68\n      swap2\n      swap1\n      tag_27\n      jump\t// in\n    tag_68:\n      mload(0x40)\n      dup1\n      swap2\n      sub\n      swap1\n      return\n        /* \"challeng/my_contract/c.sol\":21809:21901  function changeOwner(address newOwner) public onlyOwner {... */\n    tag_16:\n      tag_69\n      0x04\n      dup1\n      calldatasize\n      sub\n      dup2\n      add\n      swap1\n      tag_70\n      swap2\n      swap1\n      tag_33\n      jump\t// in\n    tag_70:\n      tag_71\n      jump\t// in\n    tag_69:\n      stop\n        /* \"challeng/my_contract/c.sol\":22403:22509  function getReleasesCount() public view virtual returns (uint256) {... */\n    tag_17:\n      tag_72\n      tag_73\n      jump\t// in\n    tag_72:\n      mload(0x40)\n      tag_74\n      swap2\n      swap1\n      tag_27\n      jump\t// in\n    tag_74:\n      mload(0x40)\n      dup1\n      swap2\n      sub\n      swap1\n      return\n        /* \"challeng/my_contract/c.sol\":25510:25621  function setChallengContract(address contractAddrss) public {... */\n    tag_18:\n      tag_75\n      0x04\n      dup1\n      calldatasize\n      sub\n      dup2\n      add\n      swap1\n      tag_76\n      swap2\n      swap1\n      tag_33\n      jump\t// in\n    tag_76:\n      tag_77\n      jump\t// in\n    tag_75:\n      stop\n        /* \"challeng/my_contract/c.sol\":22067:22174  function lastReleaseTime() public view virtual returns (uint256) {... */\n    tag_19:\n      tag_78\n      tag_79\n      jump\t// in\n    tag_78:\n      mload(0x40)\n      tag_80\n      swap2\n      swap1\n      tag_27\n      jump\t// in\n    tag_80:\n      mload(0x40)\n      dup1\n      swap2\n      sub\n      swap1\n      return\n        /* \"challeng/my_contract/c.sol\":21972:22058  function token() public view virtual returns (IERC20) {... */\n    tag_20:\n      tag_81\n      tag_82\n      jump\t// in\n    tag_81:\n      mload(0x40)\n      tag_83\n      swap2\n      swap1\n      tag_84\n      jump\t// in\n    tag_83:\n      mload(0x40)\n      dup1\n      swap2\n      sub\n      swap1\n      return\n        /* \"challeng/my_contract/c.sol\":23126:23633  function getCurrentReleaseTokenAmount() public view virtual returns (uint256) {... */\n    tag_25:\n        /* \"challeng/my_contract/c.sol\":23195:23202  uint256 */\n      0x00\n        /* \"challeng/my_contract/c.sol\":23215:23229  uint256 amount */\n      dup1\n        /* \"challeng/my_contract/c.sol\":23232:23246  _releaseAmount */\n      sload(0x08)\n        /* \"challeng/my_contract/c.sol\":23215:23246  uint256 amount = _releaseAmount */\n      swap1\n      pop\n        /* \"challeng/my_contract/c.sol\":23286:23314  uint256 numberOfTimesToHalve */\n      0x00\n        /* \"challeng/my_contract/c.sol\":23317:23342  getNumberOfTimesToHalve() */\n      tag_86\n        /* \"challeng/my_contract/c.sol\":23317:23340  getNumberOfTimesToHalve */\n      tag_64\n        /* \"challeng/my_contract/c.sol\":23317:23342  getNumberOfTimesToHalve() */\n      jump\t// in\n    tag_86:\n        /* \"challeng/my_contract/c.sol\":23286:23342  uint256 numberOfTimesToHalve = getNumberOfTimesToHalve() */\n      swap1\n      pop\n        /* \"challeng/my_contract/c.sol\":23470:23471  0 */\n      0x00\n        /* \"challeng/my_contract/c.sol\":23448:23468  numberOfTimesToHalve */\n      dup2\n        /* \"challeng/my_contract/c.sol\":23448:23471  numberOfTimesToHalve >0 */\n      gt\n        /* \"challeng/my_contract/c.sol\":23445:23602  if(numberOfTimesToHalve >0){... */\n      iszero\n      tag_87\n      jumpi\n        /* \"challeng/my_contract/c.sol\":23502:23529  numberOfTimesToHalve.add(1) */\n      tag_88\n        /* \"challeng/my_contract/c.sol\":23527:23528  1 */\n      0x01\n        /* \"challeng/my_contract/c.sol\":23502:23522  numberOfTimesToHalve */\n      dup3\n        /* \"challeng/my_contract/c.sol\":23502:23526  numberOfTimesToHalve.add */\n      tag_89\n      swap1\n        /* \"challeng/my_contract/c.sol\":23502:23529  numberOfTimesToHalve.add(1) */\n      swap2\n      swap1\n      0xffffffff\n      and\n      jump\t// in\n    tag_88:\n        /* \"challeng/my_contract/c.sol\":23493:23499  amount */\n      dup3\n        /* \"challeng/my_contract/c.sol\":23493:23529  amount / numberOfTimesToHalve.add(1) */\n      tag_90\n      swap2\n      swap1\n      tag_91\n      jump\t// in\n    tag_90:\n        /* \"challeng/my_contract/c.sol\":23484:23529  amount = amount / numberOfTimesToHalve.add(1) */\n      swap2\n      pop\n        /* \"challeng/my_contract/c.sol\":23445:23602  if(numberOfTimesToHalve >0){... */\n    tag_87:\n        /* \"challeng/my_contract/c.sol\":23619:23625  amount */\n      dup2\n        /* \"challeng/my_contract/c.sol\":23612:23625  return amount */\n      swap3\n      pop\n      pop\n      pop\n        /* \"challeng/my_contract/c.sol\":23126:23633  function getCurrentReleaseTokenAmount() public view virtual returns (uint256) {... */\n      swap1\n      jump\t// out\n        /* \"challeng/my_contract/c.sol\":22517:22626  function getFirstReleaseTime() public view virtual returns (uint256) {... */\n    tag_29:\n        /* \"challeng/my_contract/c.sol\":22577:22584  uint256 */\n      0x00\n        /* \"challeng/my_contract/c.sol\":22604:22618  _releasesCount */\n      sload(0x0b)\n        /* \"challeng/my_contract/c.sol\":22597:22618  return _releasesCount */\n      swap1\n      pop\n        /* \"challeng/my_contract/c.sol\":22517:22626  function getFirstReleaseTime() public view virtual returns (uint256) {... */\n      swap1\n      jump\t// out\n        /* \"challeng/my_contract/c.sol\":21459:21603  function setReceivingAddress(address receivingAddress) public virtual onlyOwner {... */\n    tag_34:\n        /* \"challeng/my_contract/c.sol\":21145:21151  _owner */\n      0x07\n      0x00\n      swap1\n      sload\n      swap1\n      0x0100\n      exp\n      swap1\n      div\n      0xffffffffffffffffffffffffffffffffffffffff\n      and\n        /* \"challeng/my_contract/c.sol\":21131:21151  msg.sender == _owner */\n      0xffffffffffffffffffffffffffffffffffffffff\n      and\n        /* \"challeng/my_contract/c.sol\":21131:21141  msg.sender */\n      caller\n        /* \"challeng/my_contract/c.sol\":21131:21151  msg.sender == _owner */\n      0xffffffffffffffffffffffffffffffffffffffff\n      and\n      eq\n        /* \"challeng/my_contract/c.sol\":21123:21152  require(msg.sender == _owner) */\n      tag_94\n      jumpi\n      0x00\n      dup1\n      revert\n    tag_94:\n        /* \"challeng/my_contract/c.sol\":21578:21594  receivingAddress */\n      dup1\n        /* \"challeng/my_contract/c.sol\":21550:21567  _receivingAddress */\n      0x02\n      0x00\n        /* \"challeng/my_contract/c.sol\":21550:21595  _receivingAddress = address(receivingAddress) */\n      0x0100\n      exp\n      dup2\n      sload\n      dup2\n      0xffffffffffffffffffffffffffffffffffffffff\n      mul\n      not\n      and\n      swap1\n      dup4\n      0xffffffffffffffffffffffffffffffffffffffff\n      and\n      mul\n      or\n      swap1\n      sstore\n      pop\n        /* \"challeng/my_contract/c.sol\":21459:21603  function setReceivingAddress(address receivingAddress) public virtual onlyOwner {... */\n      pop\n      jump\t// out\n        /* \"challeng/my_contract/c.sol\":25771:25874  function getTimestamp() public view virtual returns (uint256) {... */\n    tag_36:\n        /* \"challeng/my_contract/c.sol\":25824:25831  uint256 */\n      0x00\n        /* \"challeng/my_contract/c.sol\":25851:25866  block.timestamp */\n      timestamp\n        /* \"challeng/my_contract/c.sol\":25844:25866  return block.timestamp */\n      swap1\n      pop\n        /* \"challeng/my_contract/c.sol\":25771:25874  function getTimestamp() public view virtual returns (uint256) {... */\n      swap1\n      jump\t// out\n        /* \"challeng/my_contract/c.sol\":21266:21389  function setTokenAddress(address tokenAddress ) public virtual   onlyOwner {... */\n    tag_40:\n        /* \"challeng/my_contract/c.sol\":21145:21151  _owner */\n      0x07\n      0x00\n      swap1\n      sload\n      swap1\n      0x0100\n      exp\n      swap1\n      div\n      0xffffffffffffffffffffffffffffffffffffffff\n      and\n        /* \"challeng/my_contract/c.sol\":21131:21151  msg.sender == _owner */\n      0xffffffffffffffffffffffffffffffffffffffff\n      and\n        /* \"challeng/my_contract/c.sol\":21131:21141  msg.sender */\n      caller\n        /* \"challeng/my_contract/c.sol\":21131:21151  msg.sender == _owner */\n      0xffffffffffffffffffffffffffffffffffffffff\n      and\n      eq\n        /* \"challeng/my_contract/c.sol\":21123:21152  require(msg.sender == _owner) */\n      tag_98\n      jumpi\n      0x00\n      dup1\n      revert\n    tag_98:\n        /* \"challeng/my_contract/c.sol\":21368:21380  tokenAddress */\n      dup1\n        /* \"challeng/my_contract/c.sol\":21352:21358  _token */\n      0x00\n      dup1\n        /* \"challeng/my_contract/c.sol\":21352:21381  _token = IERC20(tokenAddress) */\n      0x0100\n      exp\n      dup2\n      sload\n      dup2\n      0xffffffffffffffffffffffffffffffffffffffff\n      mul\n      not\n      and\n      swap1\n      dup4\n      0xffffffffffffffffffffffffffffffffffffffff\n      and\n      mul\n      or\n      swap1\n      sstore\n      pop\n        /* \"challeng/my_contract/c.sol\":21266:21389  function setTokenAddress(address tokenAddress ) public virtual   onlyOwner {... */\n      pop\n      jump\t// out\n        /* \"challeng/my_contract/c.sol\":24202:25470  function sendMasterToken(string[] memory themeId,uint256[] memory values) public  onlyOwner    (){... */\n    tag_44:\n        /* \"challeng/my_contract/c.sol\":21145:21151  _owner */\n      0x07\n      0x00\n      swap1\n      sload\n      swap1\n      0x0100\n      exp\n      swap1\n      div\n      0xffffffffffffffffffffffffffffffffffffffff\n      and\n        /* \"challeng/my_contract/c.sol\":21131:21151  msg.sender == _owner */\n      0xffffffffffffffffffffffffffffffffffffffff\n      and\n        /* \"challeng/my_contract/c.sol\":21131:21141  msg.sender */\n      caller\n        /* \"challeng/my_contract/c.sol\":21131:21151  msg.sender == _owner */\n      0xffffffffffffffffffffffffffffffffffffffff\n      and\n      eq\n        /* \"challeng/my_contract/c.sol\":21123:21152  require(msg.sender == _owner) */\n      tag_101\n      jumpi\n      0x00\n      dup1\n      revert\n    tag_101:\n        /* \"challeng/my_contract/c.sol\":24336:24342  values */\n      dup1\n        /* \"challeng/my_contract/c.sol\":24336:24349  values.length */\n      mload\n        /* \"challeng/my_contract/c.sol\":24318:24325  themeId */\n      dup3\n        /* \"challeng/my_contract/c.sol\":24318:24332  themeId.length */\n      mload\n        /* \"challeng/my_contract/c.sol\":24318:24349  themeId.length == values.length */\n      eq\n        /* \"challeng/my_contract/c.sol\":24310:24430  require(themeId.length == values.length,\"Please check the data, the news ID and distribution quantity are inconsistent\") */\n      tag_103\n      jumpi\n      mload(0x40)\n      0x08c379a000000000000000000000000000000000000000000000000000000000\n      dup2\n      mstore\n      0x04\n      add\n      tag_104\n      swap1\n      tag_105\n      jump\t// in\n    tag_104:\n      mload(0x40)\n      dup1\n      swap2\n      sub\n      swap1\n      revert\n    tag_103:\n        /* \"challeng/my_contract/c.sol\":24477:24478  0 */\n      0x00\n        /* \"challeng/my_contract/c.sol\":24449:24479  address(token()) != address(0) */\n      0xffffffffffffffffffffffffffffffffffffffff\n      and\n        /* \"challeng/my_contract/c.sol\":24457:24464  token() */\n      tag_106\n        /* \"challeng/my_contract/c.sol\":24457:24462  token */\n      tag_82\n        /* \"challeng/my_contract/c.sol\":24457:24464  token() */\n      jump\t// in\n    tag_106:\n        /* \"challeng/my_contract/c.sol\":24449:24479  address(token()) != address(0) */\n      0xffffffffffffffffffffffffffffffffffffffff\n      and\n      sub\n        /* \"challeng/my_contract/c.sol\":24441:24516  require(address(token()) != address(0) , \"Release: need set Token Address\") */\n      tag_107\n      jumpi\n      mload(0x40)\n      0x08c379a000000000000000000000000000000000000000000000000000000000\n      dup2\n      mstore\n      0x04\n      add\n      tag_108\n      swap1\n      tag_109\n      jump\t// in\n    tag_108:\n      mload(0x40)\n      dup1\n      swap2\n      sub\n      swap1\n      revert\n    tag_107:\n        /* \"challeng/my_contract/c.sol\":24575:24576  0 */\n      0x00\n        /* \"challeng/my_contract/c.sol\":24535:24577  address(getContractAddrss()) != address(0) */\n      0xffffffffffffffffffffffffffffffffffffffff\n      and\n        /* \"challeng/my_contract/c.sol\":24543:24562  getContractAddrss() */\n      tag_110\n        /* \"challeng/my_contract/c.sol\":24543:24560  getContractAddrss */\n      tag_53\n        /* \"challeng/my_contract/c.sol\":24543:24562  getContractAddrss() */\n      jump\t// in\n    tag_110:\n        /* \"challeng/my_contract/c.sol\":24535:24577  address(getContractAddrss()) != address(0) */\n      0xffffffffffffffffffffffffffffffffffffffff\n      and\n      sub\n        /* \"challeng/my_contract/c.sol\":24527:24626  require(address(getContractAddrss()) != address(0) , \"Release: need set Challeng Contract Address\") */\n      tag_111\n      jumpi\n      mload(0x40)\n      0x08c379a000000000000000000000000000000000000000000000000000000000\n      dup2\n      mstore\n      0x04\n      add\n      tag_112\n      swap1\n      tag_113\n      jump\t// in\n    tag_112:\n      mload(0x40)\n      dup1\n      swap2\n      sub\n      swap1\n      revert\n    tag_111:\n        /* \"challeng/my_contract/c.sol\":24639:24656  uint256 sendTotal */\n      0x00\n        /* \"challeng/my_contract/c.sol\":24675:24684  uint256 i */\n      dup1\n        /* \"challeng/my_contract/c.sol\":24671:24767  for(uint256 i=0;i<values.length;i++){... */\n    tag_114:\n        /* \"challeng/my_contract/c.sol\":24689:24695  values */\n      dup3\n        /* \"challeng/my_contract/c.sol\":24689:24702  values.length */\n      mload\n        /* \"challeng/my_contract/c.sol\":24687:24688  i */\n      dup2\n        /* \"challeng/my_contract/c.sol\":24687:24702  i<values.length */\n      lt\n        /* \"challeng/my_contract/c.sol\":24671:24767  for(uint256 i=0;i<values.length;i++){... */\n      iszero\n      tag_115\n      jumpi\n        /* \"challeng/my_contract/c.sol\":24746:24752  values */\n      dup3\n        /* \"challeng/my_contract/c.sol\":24753:24754  i */\n      dup2\n        /* \"challeng/my_contract/c.sol\":24746:24755  values[i] */\n      dup2\n      mload\n      dup2\n      lt\n      tag_117\n      jumpi\n      tag_118\n      tag_119\n      jump\t// in\n    tag_118:\n    tag_117:\n      0x20\n      mul\n      0x20\n      add\n      add\n      mload\n        /* \"challeng/my_contract/c.sol\":24734:24743  sendTotal */\n      dup3\n        /* \"challeng/my_contract/c.sol\":24734:24755  sendTotal + values[i] */\n      tag_120\n      swap2\n      swap1\n      tag_121\n      jump\t// in\n    tag_120:\n        /* \"challeng/my_contract/c.sol\":24722:24755  sendTotal = sendTotal + values[i] */\n      swap2\n      pop\n        /* \"challeng/my_contract/c.sol\":24703:24706  i++ */\n      dup1\n      dup1\n      tag_122\n      swap1\n      tag_123\n      jump\t// in\n    tag_122:\n      swap2\n      pop\n      pop\n        /* \"challeng/my_contract/c.sol\":24671:24767  for(uint256 i=0;i<values.length;i++){... */\n      jump(tag_114)\n    tag_115:\n      pop\n        /* \"challeng/my_contract/c.sol\":24805:24814  sendTotal */\n      dup1\n        /* \"challeng/my_contract/c.sol\":24787:24801  tokenBalance() */\n      tag_124\n        /* \"challeng/my_contract/c.sol\":24787:24799  tokenBalance */\n      tag_67\n        /* \"challeng/my_contract/c.sol\":24787:24801  tokenBalance() */\n      jump\t// in\n    tag_124:\n        /* \"challeng/my_contract/c.sol\":24787:24814  tokenBalance() >= sendTotal */\n      lt\n      iszero\n        /* \"challeng/my_contract/c.sol\":24779:24881  require(tokenBalance() >= sendTotal , \"Release: Insufficient total amount available for distribution\") */\n      tag_125\n      jumpi\n      mload(0x40)\n      0x08c379a000000000000000000000000000000000000000000000000000000000\n      dup2\n      mstore\n      0x04\n      add\n      tag_126\n      swap1\n      tag_127\n      jump\t// in\n    tag_126:\n      mload(0x40)\n      dup1\n      swap2\n      sub\n      swap1\n      revert\n    tag_125:\n        /* \"challeng/my_contract/c.sol\":24894:24927  ChallengContract challengContract */\n      0x00\n        /* \"challeng/my_contract/c.sol\":24947:24966  getContractAddrss() */\n      tag_128\n        /* \"challeng/my_contract/c.sol\":24947:24964  getContractAddrss */\n      tag_53\n        /* \"challeng/my_contract/c.sol\":24947:24966  getContractAddrss() */\n      jump\t// in\n    tag_128:\n        /* \"challeng/my_contract/c.sol\":24894:24967  ChallengContract challengContract = ChallengContract(getContractAddrss()) */\n      swap1\n      pop\n        /* \"challeng/my_contract/c.sol\":24982:24991  uint256 i */\n      0x00\n        /* \"challeng/my_contract/c.sol\":24978:25456  for(uint256 i=0;i<themeId.length;i++){... */\n    tag_129:\n        /* \"challeng/my_contract/c.sol\":24996:25003  themeId */\n      dup5\n        /* \"challeng/my_contract/c.sol\":24996:25010  themeId.length */\n      mload\n        /* \"challeng/my_contract/c.sol\":24994:24995  i */\n      dup2\n        /* \"challeng/my_contract/c.sol\":24994:25010  i<themeId.length */\n      lt\n        /* \"challeng/my_contract/c.sol\":24978:25456  for(uint256 i=0;i<themeId.length;i++){... */\n      iszero\n      tag_130\n      jumpi\n        /* \"challeng/my_contract/c.sol\":25030:25069  ChallengContract.Theme memory themeInfo */\n      0x00\n        /* \"challeng/my_contract/c.sol\":25074:25090  challengContract */\n      dup3\n        /* \"challeng/my_contract/c.sol\":25074:25112  challengContract.getTotalRewardByTheme */\n      0xffffffffffffffffffffffffffffffffffffffff\n      and\n      0x6441f9d0\n        /* \"challeng/my_contract/c.sol\":25113:25120  themeId */\n      dup8\n        /* \"challeng/my_contract/c.sol\":25121:25122  i */\n      dup5\n        /* \"challeng/my_contract/c.sol\":25113:25123  themeId[i] */\n      dup2\n      mload\n      dup2\n      lt\n      tag_132\n      jumpi\n      tag_133\n      tag_119\n      jump\t// in\n    tag_133:\n    tag_132:\n      0x20\n      mul\n      0x20\n      add\n      add\n      mload\n        /* \"challeng/my_contract/c.sol\":25074:25124  challengContract.getTotalRewardByTheme(themeId[i]) */\n      mload(0x40)\n      dup3\n      0xffffffff\n      and\n      0xe0\n      shl\n      dup2\n      mstore\n      0x04\n      add\n      tag_134\n      swap2\n      swap1\n      tag_135\n      jump\t// in\n    tag_134:\n      0x00\n      mload(0x40)\n      dup1\n      dup4\n      sub\n      dup2\n      dup7\n      gas\n      staticcall\n      iszero\n      dup1\n      iszero\n      tag_137\n      jumpi\n      returndatasize\n      0x00\n      dup1\n      returndatacopy\n      revert(0x00, returndatasize)\n    tag_137:\n      pop\n      pop\n      pop\n      pop\n      mload(0x40)\n      returndatasize\n      0x00\n      dup3\n      returndatacopy\n      returndatasize\n      not(0x1f)\n      0x1f\n      dup3\n      add\n      and\n      dup3\n      add\n      dup1\n      0x40\n      mstore\n      pop\n      dup2\n      add\n      swap1\n      tag_138\n      swap2\n      swap1\n      tag_139\n      jump\t// in\n    tag_138:\n        /* \"challeng/my_contract/c.sol\":25030:25124  ChallengContract.Theme memory themeInfo  =  challengContract.getTotalRewardByTheme(themeId[i]) */\n      swap1\n      pop\n        /* \"challeng/my_contract/c.sol\":25139:25161  address receiveAddress */\n      0x00\n        /* \"challeng/my_contract/c.sol\":25165:25174  themeInfo */\n      dup2\n        /* \"challeng/my_contract/c.sol\":25165:25185  themeInfo.originator */\n      0x20\n      add\n      mload\n        /* \"challeng/my_contract/c.sol\":25139:25185  address receiveAddress =  themeInfo.originator */\n      swap1\n      pop\n        /* \"challeng/my_contract/c.sol\":25200:25221  uint256 receiveAmount */\n      0x00\n        /* \"challeng/my_contract/c.sol\":25225:25231  values */\n      dup7\n        /* \"challeng/my_contract/c.sol\":25232:25233  i */\n      dup5\n        /* \"challeng/my_contract/c.sol\":25225:25234  values[i] */\n      dup2\n      mload\n      dup2\n      lt\n      tag_140\n      jumpi\n      tag_141\n      tag_119\n      jump\t// in\n    tag_141:\n    tag_140:\n      0x20\n      mul\n      0x20\n      add\n      add\n      mload\n        /* \"challeng/my_contract/c.sol\":25200:25234  uint256 receiveAmount =  values[i] */\n      swap1\n      pop\n        /* \"challeng/my_contract/c.sol\":25287:25288  0 */\n      0x00\n        /* \"challeng/my_contract/c.sol\":25252:25289  address(receiveAddress) != address(0) */\n      0xffffffffffffffffffffffffffffffffffffffff\n      and\n        /* \"challeng/my_contract/c.sol\":25260:25274  receiveAddress */\n      dup3\n        /* \"challeng/my_contract/c.sol\":25252:25289  address(receiveAddress) != address(0) */\n      0xffffffffffffffffffffffffffffffffffffffff\n      and\n      eq\n        /* \"challeng/my_contract/c.sol\":25249:25445  if(address(receiveAddress) != address(0)){... */\n      tag_142\n      jumpi\n        /* \"challeng/my_contract/c.sol\":25378:25429  token().safeTransfer(receiveAddress, receiveAmount) */\n      tag_143\n        /* \"challeng/my_contract/c.sol\":25399:25413  receiveAddress */\n      dup3\n        /* \"challeng/my_contract/c.sol\":25415:25428  receiveAmount */\n      dup3\n        /* \"challeng/my_contract/c.sol\":25378:25385  token() */\n      tag_144\n        /* \"challeng/my_contract/c.sol\":25378:25383  token */\n      tag_82\n        /* \"challeng/my_contract/c.sol\":25378:25385  token() */\n      jump\t// in\n    tag_144:\n        /* \"challeng/my_contract/c.sol\":25378:25398  token().safeTransfer */\n      0xffffffffffffffffffffffffffffffffffffffff\n      and\n      tag_145\n      swap1\n        /* \"challeng/my_contract/c.sol\":25378:25429  token().safeTransfer(receiveAddress, receiveAmount) */\n      swap3\n      swap2\n      swap1\n      0xffffffff\n      and\n      jump\t// in\n    tag_143:\n        /* \"challeng/my_contract/c.sol\":25249:25445  if(address(receiveAddress) != address(0)){... */\n    tag_142:\n        /* \"challeng/my_contract/c.sol\":25015:25456  {... */\n      pop\n      pop\n      pop\n        /* \"challeng/my_contract/c.sol\":25011:25014  i++ */\n      dup1\n      dup1\n      tag_146\n      swap1\n      tag_123\n      jump\t// in\n    tag_146:\n      swap2\n      pop\n      pop\n        /* \"challeng/my_contract/c.sol\":24978:25456  for(uint256 i=0;i<themeId.length;i++){... */\n      jump(tag_129)\n    tag_130:\n      pop\n        /* \"challeng/my_contract/c.sol\":24299:25470  {... */\n      pop\n      pop\n        /* \"challeng/my_contract/c.sol\":24202:25470  function sendMasterToken(string[] memory themeId,uint256[] memory values) public  onlyOwner    (){... */\n      pop\n      pop\n      jump\t// out\n        /* \"challeng/my_contract/c.sol\":22182:22275  function decimals() public view virtual returns (uint256) {... */\n    tag_46:\n        /* \"challeng/my_contract/c.sol\":22231:22238  uint256 */\n      0x00\n        /* \"challeng/my_contract/c.sol\":22258:22267  _decimals */\n      sload(0x04)\n        /* \"challeng/my_contract/c.sol\":22251:22267  return _decimals */\n      swap1\n      pop\n        /* \"challeng/my_contract/c.sol\":22182:22275  function decimals() public view virtual returns (uint256) {... */\n      swap1\n      jump\t// out\n        /* \"challeng/my_contract/c.sol\":25882:27489  function release(address[] calldata recipients, uint256[] calldata values) public virtual {... */\n    tag_51:\n        /* \"challeng/my_contract/c.sol\":25983:26002  uint256 releaseTime */\n      0x00\n        /* \"challeng/my_contract/c.sol\":26006:26063  _firstReleaseTime.add(_releasesCount * _releaseInterval ) */\n      tag_149\n        /* \"challeng/my_contract/c.sol\":26045:26061  _releaseInterval */\n      sload(0x0a)\n        /* \"challeng/my_contract/c.sol\":26028:26042  _releasesCount */\n      sload(0x0b)\n        /* \"challeng/my_contract/c.sol\":26028:26061  _releasesCount * _releaseInterval */\n      tag_150\n      swap2\n      swap1\n      tag_151\n      jump\t// in\n    tag_150:\n        /* \"challeng/my_contract/c.sol\":26006:26023  _firstReleaseTime */\n      sload(0x06)\n        /* \"challeng/my_contract/c.sol\":26006:26027  _firstReleaseTime.add */\n      tag_89\n      swap1\n        /* \"challeng/my_contract/c.sol\":26006:26063  _firstReleaseTime.add(_releasesCount * _releaseInterval ) */\n      swap2\n      swap1\n      0xffffffff\n      and\n      jump\t// in\n    tag_149:\n        /* \"challeng/my_contract/c.sol\":25983:26063  uint256 releaseTime =  _firstReleaseTime.add(_releasesCount * _releaseInterval ) */\n      swap1\n      pop\n        /* \"challeng/my_contract/c.sol\":26089:26103  uint256 amount */\n      0x00\n        /* \"challeng/my_contract/c.sol\":26106:26136  getCurrentReleaseTokenAmount() */\n      tag_152\n        /* \"challeng/my_contract/c.sol\":26106:26134  getCurrentReleaseTokenAmount */\n      tag_25\n        /* \"challeng/my_contract/c.sol\":26106:26136  getCurrentReleaseTokenAmount() */\n      jump\t// in\n    tag_152:\n        /* \"challeng/my_contract/c.sol\":26089:26136  uint256 amount = getCurrentReleaseTokenAmount() */\n      swap1\n      pop\n        /* \"challeng/my_contract/c.sol\":26243:26244  0 */\n      0x00\n        /* \"challeng/my_contract/c.sol\":26223:26240  _firstReleaseTime */\n      sload(0x06)\n        /* \"challeng/my_contract/c.sol\":26223:26244  _firstReleaseTime > 0 */\n      gt\n        /* \"challeng/my_contract/c.sol\":26215:26285  require(_firstReleaseTime > 0, \"Release: need set First Release Time\") */\n      tag_153\n      jumpi\n      mload(0x40)\n      0x08c379a000000000000000000000000000000000000000000000000000000000\n      dup2\n      mstore\n      0x04\n      add\n      tag_154\n      swap1\n      tag_155\n      jump\t// in\n    tag_154:\n      mload(0x40)\n      dup1\n      swap2\n      sub\n      swap1\n      revert\n    tag_153:\n        /* \"challeng/my_contract/c.sol\":26341:26342  0 */\n      0x00\n        /* \"challeng/my_contract/c.sol\":26304:26343  address(_receivingAddress) !=address(0) */\n      0xffffffffffffffffffffffffffffffffffffffff\n      and\n        /* \"challeng/my_contract/c.sol\":26312:26329  _receivingAddress */\n      0x02\n      0x00\n      swap1\n      sload\n      swap1\n      0x0100\n      exp\n      swap1\n      div\n      0xffffffffffffffffffffffffffffffffffffffff\n      and\n        /* \"challeng/my_contract/c.sol\":26304:26343  address(_receivingAddress) !=address(0) */\n      0xffffffffffffffffffffffffffffffffffffffff\n      and\n      sub\n        /* \"challeng/my_contract/c.sol\":26296:26384  require(address(_receivingAddress) !=address(0) , \"Release: need set Receiving Address\") */\n      tag_156\n      jumpi\n      mload(0x40)\n      0x08c379a000000000000000000000000000000000000000000000000000000000\n      dup2\n      mstore\n      0x04\n      add\n      tag_157\n      swap1\n      tag_158\n      jump\t// in\n    tag_157:\n      mload(0x40)\n      dup1\n      swap2\n      sub\n      swap1\n      revert\n    tag_156:\n        /* \"challeng/my_contract/c.sol\":26430:26431  0 */\n      0x00\n        /* \"challeng/my_contract/c.sol\":26403:26432  address(_token) != address(0) */\n      0xffffffffffffffffffffffffffffffffffffffff\n      and\n        /* \"challeng/my_contract/c.sol\":26411:26417  _token */\n      0x00\n      dup1\n      sload\n      swap1\n      0x0100\n      exp\n      swap1\n      div\n      0xffffffffffffffffffffffffffffffffffffffff\n      and\n        /* \"challeng/my_contract/c.sol\":26403:26432  address(_token) != address(0) */\n      0xffffffffffffffffffffffffffffffffffffffff\n      and\n      sub\n        /* \"challeng/my_contract/c.sol\":26395:26469  require(address(_token) != address(0) , \"Release: need set Token Address\") */\n      tag_159\n      jumpi\n      mload(0x40)\n      0x08c379a000000000000000000000000000000000000000000000000000000000\n      dup2\n      mstore\n      0x04\n      add\n      tag_160\n      swap1\n      tag_109\n      jump\t// in\n    tag_160:\n      mload(0x40)\n      dup1\n      swap2\n      sub\n      swap1\n      revert\n    tag_159:\n        /* \"challeng/my_contract/c.sol\":26507:26518  releaseTime */\n      dup2\n        /* \"challeng/my_contract/c.sol\":26488:26503  block.timestamp */\n      timestamp\n        /* \"challeng/my_contract/c.sol\":26488:26518  block.timestamp >= releaseTime */\n      lt\n      iszero\n        /* \"challeng/my_contract/c.sol\":26480:26567  require(block.timestamp >= releaseTime, \"Release: current time is before release time\") */\n      tag_161\n      jumpi\n      mload(0x40)\n      0x08c379a000000000000000000000000000000000000000000000000000000000\n      dup2\n      mstore\n      0x04\n      add\n      tag_162\n      swap1\n      tag_163\n      jump\t// in\n    tag_162:\n      mload(0x40)\n      dup1\n      swap2\n      sub\n      swap1\n      revert\n    tag_161:\n        /* \"challeng/my_contract/c.sol\":26680:26691  releaseTime */\n      dup2\n        /* \"challeng/my_contract/c.sol\":26661:26677  _lastReleaseTime */\n      0x03\n        /* \"challeng/my_contract/c.sol\":26661:26691  _lastReleaseTime = releaseTime */\n      dup2\n      swap1\n      sstore\n      pop\n        /* \"challeng/my_contract/c.sol\":26719:26745  _totalReleased.add(amount) */\n      tag_164\n        /* \"challeng/my_contract/c.sol\":26738:26744  amount */\n      dup2\n        /* \"challeng/my_contract/c.sol\":26719:26733  _totalReleased */\n      sload(0x05)\n        /* \"challeng/my_contract/c.sol\":26719:26737  _totalReleased.add */\n      tag_89\n      swap1\n        /* \"challeng/my_contract/c.sol\":26719:26745  _totalReleased.add(amount) */\n      swap2\n      swap1\n      0xffffffff\n      and\n      jump\t// in\n    tag_164:\n        /* \"challeng/my_contract/c.sol\":26702:26716  _totalReleased */\n      0x05\n        /* \"challeng/my_contract/c.sol\":26702:26745  _totalReleased = _totalReleased.add(amount) */\n      dup2\n      swap1\n      sstore\n      pop\n        /* \"challeng/my_contract/c.sol\":26895:26914  uint256 totalAmount */\n      0x00\n        /* \"challeng/my_contract/c.sol\":26944:26953  uint256 i */\n      dup1\n        /* \"challeng/my_contract/c.sol\":26939:27157  for (uint256 i = 0; i < recipients.length; i++){... */\n    tag_165:\n        /* \"challeng/my_contract/c.sol\":26963:26973  recipients */\n      dup8\n      dup8\n        /* \"challeng/my_contract/c.sol\":26963:26980  recipients.length */\n      swap1\n      pop\n        /* \"challeng/my_contract/c.sol\":26959:26960  i */\n      dup2\n        /* \"challeng/my_contract/c.sol\":26959:26980  i < recipients.length */\n      lt\n        /* \"challeng/my_contract/c.sol\":26939:27157  for (uint256 i = 0; i < recipients.length; i++){... */\n      iszero\n      tag_166\n      jumpi\n        /* \"challeng/my_contract/c.sol\":27001:27047  token().safeTransfer(recipients[i], values[i]) */\n      tag_168\n        /* \"challeng/my_contract/c.sol\":27022:27032  recipients */\n      dup9\n      dup9\n        /* \"challeng/my_contract/c.sol\":27033:27034  i */\n      dup4\n        /* \"challeng/my_contract/c.sol\":27022:27035  recipients[i] */\n      dup2\n      dup2\n      lt\n      tag_169\n      jumpi\n      tag_170\n      tag_119\n      jump\t// in\n    tag_170:\n    tag_169:\n      swap1\n      pop\n      0x20\n      mul\n      add\n      0x20\n      dup2\n      add\n      swap1\n      tag_171\n      swap2\n      swap1\n      tag_33\n      jump\t// in\n    tag_171:\n        /* \"challeng/my_contract/c.sol\":27037:27043  values */\n      dup8\n      dup8\n        /* \"challeng/my_contract/c.sol\":27044:27045  i */\n      dup5\n        /* \"challeng/my_contract/c.sol\":27037:27046  values[i] */\n      dup2\n      dup2\n      lt\n      tag_172\n      jumpi\n      tag_173\n      tag_119\n      jump\t// in\n    tag_173:\n    tag_172:\n      swap1\n      pop\n      0x20\n      mul\n      add\n      calldataload\n        /* \"challeng/my_contract/c.sol\":27001:27008  token() */\n      tag_174\n        /* \"challeng/my_contract/c.sol\":27001:27006  token */\n      tag_82\n        /* \"challeng/my_contract/c.sol\":27001:27008  token() */\n      jump\t// in\n    tag_174:\n        /* \"challeng/my_contract/c.sol\":27001:27021  token().safeTransfer */\n      0xffffffffffffffffffffffffffffffffffffffff\n      and\n      tag_145\n      swap1\n        /* \"challeng/my_contract/c.sol\":27001:27047  token().safeTransfer(recipients[i], values[i]) */\n      swap3\n      swap2\n      swap1\n      0xffffffff\n      and\n      jump\t// in\n    tag_168:\n        /* \"challeng/my_contract/c.sol\":27119:27145  totalAmount.add(values[i]) */\n      tag_175\n        /* \"challeng/my_contract/c.sol\":27135:27141  values */\n      dup7\n      dup7\n        /* \"challeng/my_contract/c.sol\":27142:27143  i */\n      dup4\n        /* \"challeng/my_contract/c.sol\":27135:27144  values[i] */\n      dup2\n      dup2\n      lt\n      tag_176\n      jumpi\n      tag_177\n      tag_119\n      jump\t// in\n    tag_177:\n    tag_176:\n      swap1\n      pop\n      0x20\n      mul\n      add\n      calldataload\n        /* \"challeng/my_contract/c.sol\":27119:27130  totalAmount */\n      dup4\n        /* \"challeng/my_contract/c.sol\":27119:27134  totalAmount.add */\n      tag_89\n      swap1\n        /* \"challeng/my_contract/c.sol\":27119:27145  totalAmount.add(values[i]) */\n      swap2\n      swap1\n      0xffffffff\n      and\n      jump\t// in\n    tag_175:\n        /* \"challeng/my_contract/c.sol\":27105:27145  totalAmount = totalAmount.add(values[i]) */\n      swap2\n      pop\n        /* \"challeng/my_contract/c.sol\":26982:26985  i++ */\n      dup1\n      dup1\n      tag_178\n      swap1\n      tag_123\n      jump\t// in\n    tag_178:\n      swap2\n      pop\n      pop\n        /* \"challeng/my_contract/c.sol\":26939:27157  for (uint256 i = 0; i < recipients.length; i++){... */\n      jump(tag_165)\n    tag_166:\n      pop\n        /* \"challeng/my_contract/c.sol\":27185:27196  totalAmount */\n      dup1\n        /* \"challeng/my_contract/c.sol\":27175:27181  amount */\n      dup3\n        /* \"challeng/my_contract/c.sol\":27175:27196  amount >= totalAmount */\n      lt\n      iszero\n        /* \"challeng/my_contract/c.sol\":27167:27258  require(amount >= totalAmount , \"The number of air drops exceeds the daily release amount\") */\n      tag_179\n      jumpi\n      mload(0x40)\n      0x08c379a000000000000000000000000000000000000000000000000000000000\n      dup2\n      mstore\n      0x04\n      add\n      tag_180\n      swap1\n      tag_181\n      jump\t// in\n    tag_180:\n      mload(0x40)\n      dup1\n      swap2\n      sub\n      swap1\n      revert\n    tag_179:\n        /* \"challeng/my_contract/c.sol\":27299:27300  0 */\n      0x00\n        /* \"challeng/my_contract/c.sol\":27274:27297  amount.sub(totalAmount) */\n      tag_182\n        /* \"challeng/my_contract/c.sol\":27285:27296  totalAmount */\n      dup3\n        /* \"challeng/my_contract/c.sol\":27274:27280  amount */\n      dup5\n        /* \"challeng/my_contract/c.sol\":27274:27284  amount.sub */\n      tag_183\n      swap1\n        /* \"challeng/my_contract/c.sol\":27274:27297  amount.sub(totalAmount) */\n      swap2\n      swap1\n      0xffffffff\n      and\n      jump\t// in\n    tag_182:\n        /* \"challeng/my_contract/c.sol\":27274:27300  amount.sub(totalAmount) >0 */\n      gt\n        /* \"challeng/my_contract/c.sol\":27271:27395  if(amount.sub(totalAmount) >0 ){... */\n      iszero\n      tag_184\n      jumpi\n        /* \"challeng/my_contract/c.sol\":27317:27381  token().safeTransfer(_receivingAddress, amount.sub(totalAmount)) */\n      tag_185\n        /* \"challeng/my_contract/c.sol\":27338:27355  _receivingAddress */\n      0x02\n      0x00\n      swap1\n      sload\n      swap1\n      0x0100\n      exp\n      swap1\n      div\n      0xffffffffffffffffffffffffffffffffffffffff\n      and\n        /* \"challeng/my_contract/c.sol\":27357:27380  amount.sub(totalAmount) */\n      tag_186\n        /* \"challeng/my_contract/c.sol\":27368:27379  totalAmount */\n      dup4\n        /* \"challeng/my_contract/c.sol\":27357:27363  amount */\n      dup6\n        /* \"challeng/my_contract/c.sol\":27357:27367  amount.sub */\n      tag_183\n      swap1\n        /* \"challeng/my_contract/c.sol\":27357:27380  amount.sub(totalAmount) */\n      swap2\n      swap1\n      0xffffffff\n      and\n      jump\t// in\n    tag_186:\n        /* \"challeng/my_contract/c.sol\":27317:27324  token() */\n      tag_187\n        /* \"challeng/my_contract/c.sol\":27317:27322  token */\n      tag_82\n        /* \"challeng/my_contract/c.sol\":27317:27324  token() */\n      jump\t// in\n    tag_187:\n        /* \"challeng/my_contract/c.sol\":27317:27337  token().safeTransfer */\n      0xffffffffffffffffffffffffffffffffffffffff\n      and\n      tag_145\n      swap1\n        /* \"challeng/my_contract/c.sol\":27317:27381  token().safeTransfer(_receivingAddress, amount.sub(totalAmount)) */\n      swap3\n      swap2\n      swap1\n      0xffffffff\n      and\n      jump\t// in\n    tag_185:\n        /* \"challeng/my_contract/c.sol\":27271:27395  if(amount.sub(totalAmount) >0 ){... */\n    tag_184:\n        /* \"challeng/my_contract/c.sol\":27424:27445  _releasesCount.add(1) */\n      tag_188\n        /* \"challeng/my_contract/c.sol\":27443:27444  1 */\n      0x01\n        /* \"challeng/my_contract/c.sol\":27424:27438  _releasesCount */\n      sload(0x0b)\n        /* \"challeng/my_contract/c.sol\":27424:27442  _releasesCount.add */\n      tag_89\n      swap1\n        /* \"challeng/my_contract/c.sol\":27424:27445  _releasesCount.add(1) */\n      swap2\n      swap1\n      0xffffffff\n      and\n      jump\t// in\n    tag_188:\n        /* \"challeng/my_contract/c.sol\":27407:27421  _releasesCount */\n      0x0b\n        /* \"challeng/my_contract/c.sol\":27407:27445  _releasesCount = _releasesCount.add(1) */\n      dup2\n      swap1\n      sstore\n      pop\n        /* \"challeng/my_contract/c.sol\":25972:27489  {... */\n      pop\n      pop\n      pop\n        /* \"challeng/my_contract/c.sol\":25882:27489  function release(address[] calldata recipients, uint256[] calldata values) public virtual {... */\n      pop\n      pop\n      pop\n      pop\n      jump\t// out\n        /* \"challeng/my_contract/c.sol\":25665:25763  function getContractAddrss() public view returns(address){... */\n    tag_53:\n        /* \"challeng/my_contract/c.sol\":25714:25721  address */\n      0x00\n        /* \"challeng/my_contract/c.sol\":25740:25755  _contractAddrss */\n      0x01\n      0x00\n      swap1\n      sload\n      swap1\n      0x0100\n      exp\n      swap1\n      div\n      0xffffffffffffffffffffffffffffffffffffffff\n      and\n        /* \"challeng/my_contract/c.sol\":25733:25755  return _contractAddrss */\n      swap1\n      pop\n        /* \"challeng/my_contract/c.sol\":25665:25763  function getContractAddrss() public view returns(address){... */\n      swap1\n      jump\t// out\n        /* \"challeng/my_contract/c.sol\":22286:22392  function getTotalReleased() public view virtual returns (uint256) {... */\n    tag_57:\n        /* \"challeng/my_contract/c.sol\":22343:22350  uint256 */\n      0x00\n        /* \"challeng/my_contract/c.sol\":22370:22384  _totalReleased */\n      sload(0x05)\n        /* \"challeng/my_contract/c.sol\":22363:22384  return _totalReleased */\n      swap1\n      pop\n        /* \"challeng/my_contract/c.sol\":22286:22392  function getTotalReleased() public view virtual returns (uint256) {... */\n      swap1\n      jump\t// out\n        /* \"challeng/my_contract/c.sol\":21665:21801  function setFirstReleaseTime(uint256 firstReleaseTime ) public virtual onlyOwner {... */\n    tag_62:\n        /* \"challeng/my_contract/c.sol\":21145:21151  _owner */\n      0x07\n      0x00\n      swap1\n      sload\n      swap1\n      0x0100\n      exp\n      swap1\n      div\n      0xffffffffffffffffffffffffffffffffffffffff\n      and\n        /* \"challeng/my_contract/c.sol\":21131:21151  msg.sender == _owner */\n      0xffffffffffffffffffffffffffffffffffffffff\n      and\n        /* \"challeng/my_contract/c.sol\":21131:21141  msg.sender */\n      caller\n        /* \"challeng/my_contract/c.sol\":21131:21151  msg.sender == _owner */\n      0xffffffffffffffffffffffffffffffffffffffff\n      and\n      eq\n        /* \"challeng/my_contract/c.sol\":21123:21152  require(msg.sender == _owner) */\n      tag_192\n      jumpi\n      0x00\n      dup1\n      revert\n    tag_192:\n        /* \"challeng/my_contract/c.sol\":21777:21793  firstReleaseTime */\n      dup1\n        /* \"challeng/my_contract/c.sol\":21757:21774  _firstReleaseTime */\n      0x06\n        /* \"challeng/my_contract/c.sol\":21757:21793  _firstReleaseTime = firstReleaseTime */\n      dup2\n      swap1\n      sstore\n      pop\n        /* \"challeng/my_contract/c.sol\":21665:21801  function setFirstReleaseTime(uint256 firstReleaseTime ) public virtual onlyOwner {... */\n      pop\n      jump\t// out\n        /* \"challeng/my_contract/c.sol\":23738:24098  function getNumberOfTimesToHalve() public view virtual returns (uint256) {... */\n    tag_64:\n        /* \"challeng/my_contract/c.sol\":23802:23809  uint256 */\n      0x00\n        /* \"challeng/my_contract/c.sol\":23843:23844  0 */\n      dup1\n        /* \"challeng/my_contract/c.sol\":23825:23842  _firstReleaseTime */\n      sload(0x06)\n        /* \"challeng/my_contract/c.sol\":23825:23844  _firstReleaseTime>0 */\n      gt\n        /* \"challeng/my_contract/c.sol\":23822:24091  if(_firstReleaseTime>0){... */\n      iszero\n      tag_195\n      jumpi\n        /* \"challeng/my_contract/c.sol\":23860:23888  uint256 numberOfTimesToHalve */\n      0x00\n        /* \"challeng/my_contract/c.sol\":23892:23948  (block.timestamp.sub(_firstReleaseTime)).div(_halfCycle) */\n      tag_196\n        /* \"challeng/my_contract/c.sol\":23937:23947  _halfCycle */\n      sload(0x09)\n        /* \"challeng/my_contract/c.sol\":23893:23931  block.timestamp.sub(_firstReleaseTime) */\n      tag_197\n        /* \"challeng/my_contract/c.sol\":23913:23930  _firstReleaseTime */\n      sload(0x06)\n        /* \"challeng/my_contract/c.sol\":23893:23908  block.timestamp */\n      timestamp\n        /* \"challeng/my_contract/c.sol\":23893:23912  block.timestamp.sub */\n      tag_183\n      swap1\n        /* \"challeng/my_contract/c.sol\":23893:23931  block.timestamp.sub(_firstReleaseTime) */\n      swap2\n      swap1\n      0xffffffff\n      and\n      jump\t// in\n    tag_197:\n        /* \"challeng/my_contract/c.sol\":23892:23936  (block.timestamp.sub(_firstReleaseTime)).div */\n      tag_198\n      swap1\n        /* \"challeng/my_contract/c.sol\":23892:23948  (block.timestamp.sub(_firstReleaseTime)).div(_halfCycle) */\n      swap2\n      swap1\n      0xffffffff\n      and\n      jump\t// in\n    tag_196:\n        /* \"challeng/my_contract/c.sol\":23860:23948  uint256 numberOfTimesToHalve =  (block.timestamp.sub(_firstReleaseTime)).div(_halfCycle) */\n      swap1\n      pop\n        /* \"challeng/my_contract/c.sol\":24009:24029  numberOfTimesToHalve */\n      dup1\n        /* \"challeng/my_contract/c.sol\":24002:24029  return numberOfTimesToHalve */\n      swap2\n      pop\n      pop\n      jump(tag_194)\n        /* \"challeng/my_contract/c.sol\":23822:24091  if(_firstReleaseTime>0){... */\n    tag_195:\n        /* \"challeng/my_contract/c.sol\":24078:24079  0 */\n      0x00\n        /* \"challeng/my_contract/c.sol\":24071:24079  return 0 */\n      swap1\n      pop\n        /* \"challeng/my_contract/c.sol\":23738:24098  function getNumberOfTimesToHalve() public view virtual returns (uint256) {... */\n    tag_194:\n      swap1\n      jump\t// out\n        /* \"challeng/my_contract/c.sol\":22634:22867  function tokenBalance() public view virtual returns (uint256) {... */\n    tag_67:\n        /* \"challeng/my_contract/c.sol\":22687:22694  uint256 */\n      0x00\n        /* \"challeng/my_contract/c.sol\":22738:22739  0 */\n      dup1\n        /* \"challeng/my_contract/c.sol\":22710:22740  address(token()) == address(0) */\n      0xffffffffffffffffffffffffffffffffffffffff\n      and\n        /* \"challeng/my_contract/c.sol\":22718:22725  token() */\n      tag_201\n        /* \"challeng/my_contract/c.sol\":22718:22723  token */\n      tag_82\n        /* \"challeng/my_contract/c.sol\":22718:22725  token() */\n      jump\t// in\n    tag_201:\n        /* \"challeng/my_contract/c.sol\":22710:22740  address(token()) == address(0) */\n      0xffffffffffffffffffffffffffffffffffffffff\n      and\n      sub\n        /* \"challeng/my_contract/c.sol\":22707:22776  if(address(token()) == address(0)){... */\n      tag_202\n      jumpi\n        /* \"challeng/my_contract/c.sol\":22763:22764  0 */\n      0x00\n        /* \"challeng/my_contract/c.sol\":22756:22764  return 0 */\n      swap1\n      pop\n      jump(tag_200)\n        /* \"challeng/my_contract/c.sol\":22707:22776  if(address(token()) == address(0)){... */\n    tag_202:\n        /* \"challeng/my_contract/c.sol\":22786:22800  uint256 amount */\n      0x00\n        /* \"challeng/my_contract/c.sol\":22803:22810  token() */\n      tag_203\n        /* \"challeng/my_contract/c.sol\":22803:22808  token */\n      tag_82\n        /* \"challeng/my_contract/c.sol\":22803:22810  token() */\n      jump\t// in\n    tag_203:\n        /* \"challeng/my_contract/c.sol\":22803:22820  token().balanceOf */\n      0xffffffffffffffffffffffffffffffffffffffff\n      and\n      0x70a08231\n        /* \"challeng/my_contract/c.sol\":22829:22833  this */\n      address\n        /* \"challeng/my_contract/c.sol\":22803:22835  token().balanceOf(address(this)) */\n      mload(0x40)\n      dup3\n      0xffffffff\n      and\n      0xe0\n      shl\n      dup2\n      mstore\n      0x04\n      add\n      tag_204\n      swap2\n      swap1\n      tag_55\n      jump\t// in\n    tag_204:\n      0x20\n      mload(0x40)\n      dup1\n      dup4\n      sub\n      dup2\n      dup7\n      gas\n      staticcall\n      iszero\n      dup1\n      iszero\n      tag_206\n      jumpi\n      returndatasize\n      0x00\n      dup1\n      returndatacopy\n      revert(0x00, returndatasize)\n    tag_206:\n      pop\n      pop\n      pop\n      pop\n      mload(0x40)\n      returndatasize\n      not(0x1f)\n      0x1f\n      dup3\n      add\n      and\n      dup3\n      add\n      dup1\n      0x40\n      mstore\n      pop\n      dup2\n      add\n      swap1\n      tag_207\n      swap2\n      swap1\n      tag_208\n      jump\t// in\n    tag_207:\n        /* \"challeng/my_contract/c.sol\":22786:22835  uint256 amount = token().balanceOf(address(this)) */\n      swap1\n      pop\n        /* \"challeng/my_contract/c.sol\":22853:22859  amount */\n      dup1\n        /* \"challeng/my_contract/c.sol\":22846:22859  return amount */\n      swap2\n      pop\n      pop\n        /* \"challeng/my_contract/c.sol\":22634:22867  function tokenBalance() public view virtual returns (uint256) {... */\n    tag_200:\n      swap1\n      jump\t// out\n        /* \"challeng/my_contract/c.sol\":21809:21901  function changeOwner(address newOwner) public onlyOwner {... */\n    tag_71:\n        /* \"challeng/my_contract/c.sol\":21145:21151  _owner */\n      0x07\n      0x00\n      swap1\n      sload\n      swap1\n      0x0100\n      exp\n      swap1\n      div\n      0xffffffffffffffffffffffffffffffffffffffff\n      and\n        /* \"challeng/my_contract/c.sol\":21131:21151  msg.sender == _owner */\n      0xffffffffffffffffffffffffffffffffffffffff\n      and\n        /* \"challeng/my_contract/c.sol\":21131:21141  msg.sender */\n      caller\n        /* \"challeng/my_contract/c.sol\":21131:21151  msg.sender == _owner */\n      0xffffffffffffffffffffffffffffffffffffffff\n      and\n      eq\n        /* \"challeng/my_contract/c.sol\":21123:21152  require(msg.sender == _owner) */\n      tag_210\n      jumpi\n      0x00\n      dup1\n      revert\n    tag_210:\n        /* \"challeng/my_contract/c.sol\":21885:21893  newOwner */\n      dup1\n        /* \"challeng/my_contract/c.sol\":21876:21882  _owner */\n      0x07\n      0x00\n        /* \"challeng/my_contract/c.sol\":21876:21893  _owner = newOwner */\n      0x0100\n      exp\n      dup2\n      sload\n      dup2\n      0xffffffffffffffffffffffffffffffffffffffff\n      mul\n      not\n      and\n      swap1\n      dup4\n      0xffffffffffffffffffffffffffffffffffffffff\n      and\n      mul\n      or\n      swap1\n      sstore\n      pop\n        /* \"challeng/my_contract/c.sol\":21809:21901  function changeOwner(address newOwner) public onlyOwner {... */\n      pop\n      jump\t// out\n        /* \"challeng/my_contract/c.sol\":22403:22509  function getReleasesCount() public view virtual returns (uint256) {... */\n    tag_73:\n        /* \"challeng/my_contract/c.sol\":22460:22467  uint256 */\n      0x00\n        /* \"challeng/my_contract/c.sol\":22487:22501  _releasesCount */\n      sload(0x0b)\n        /* \"challeng/my_contract/c.sol\":22480:22501  return _releasesCount */\n      swap1\n      pop\n        /* \"challeng/my_contract/c.sol\":22403:22509  function getReleasesCount() public view virtual returns (uint256) {... */\n      swap1\n      jump\t// out\n        /* \"challeng/my_contract/c.sol\":25510:25621  function setChallengContract(address contractAddrss) public {... */\n    tag_77:\n        /* \"challeng/my_contract/c.sol\":25599:25613  contractAddrss */\n      dup1\n        /* \"challeng/my_contract/c.sol\":25581:25596  _contractAddrss */\n      0x01\n      0x00\n        /* \"challeng/my_contract/c.sol\":25581:25613  _contractAddrss = contractAddrss */\n      0x0100\n      exp\n      dup2\n      sload\n      dup2\n      0xffffffffffffffffffffffffffffffffffffffff\n      mul\n      not\n      and\n      swap1\n      dup4\n      0xffffffffffffffffffffffffffffffffffffffff\n      and\n      mul\n      or\n      swap1\n      sstore\n      pop\n        /* \"challeng/my_contract/c.sol\":25510:25621  function setChallengContract(address contractAddrss) public {... */\n      pop\n      jump\t// out\n        /* \"challeng/my_contract/c.sol\":22067:22174  function lastReleaseTime() public view virtual returns (uint256) {... */\n    tag_79:\n        /* \"challeng/my_contract/c.sol\":22123:22130  uint256 */\n      0x00\n        /* \"challeng/my_contract/c.sol\":22150:22166  _lastReleaseTime */\n      sload(0x03)\n        /* \"challeng/my_contract/c.sol\":22143:22166  return _lastReleaseTime */\n      swap1\n      pop\n        /* \"challeng/my_contract/c.sol\":22067:22174  function lastReleaseTime() public view virtual returns (uint256) {... */\n      swap1\n      jump\t// out\n        /* \"challeng/my_contract/c.sol\":21972:22058  function token() public view virtual returns (IERC20) {... */\n    tag_82:\n        /* \"challeng/my_contract/c.sol\":22018:22024  IERC20 */\n      0x00\n        /* \"challeng/my_contract/c.sol\":22044:22050  _token */\n      dup1\n      0x00\n      swap1\n      sload\n      swap1\n      0x0100\n      exp\n      swap1\n      div\n      0xffffffffffffffffffffffffffffffffffffffff\n      and\n        /* \"challeng/my_contract/c.sol\":22037:22050  return _token */\n      swap1\n      pop\n        /* \"challeng/my_contract/c.sol\":21972:22058  function token() public view virtual returns (IERC20) {... */\n      swap1\n      jump\t// out\n        /* \"challeng/my_contract/c.sol\":3816:3997  function add(uint256 a, uint256 b) internal pure returns (uint256) {... */\n    tag_89:\n        /* \"challeng/my_contract/c.sol\":3874:3881  uint256 */\n      0x00\n        /* \"challeng/my_contract/c.sol\":3894:3903  uint256 c */\n      dup1\n        /* \"challeng/my_contract/c.sol\":3910:3911  b */\n      dup3\n        /* \"challeng/my_contract/c.sol\":3906:3907  a */\n      dup5\n        /* \"challeng/my_contract/c.sol\":3906:3911  a + b */\n      tag_217\n      swap2\n      swap1\n      tag_121\n      jump\t// in\n    tag_217:\n        /* \"challeng/my_contract/c.sol\":3894:3911  uint256 c = a + b */\n      swap1\n      pop\n        /* \"challeng/my_contract/c.sol\":3935:3936  a */\n      dup4\n        /* \"challeng/my_contract/c.sol\":3930:3931  c */\n      dup2\n        /* \"challeng/my_contract/c.sol\":3930:3936  c >= a */\n      lt\n      iszero\n        /* \"challeng/my_contract/c.sol\":3922:3968  require(c >= a, \"SafeMath: addition overflow\") */\n      tag_218\n      jumpi\n      mload(0x40)\n      0x08c379a000000000000000000000000000000000000000000000000000000000\n      dup2\n      mstore\n      0x04\n      add\n      tag_219\n      swap1\n      tag_220\n      jump\t// in\n    tag_219:\n      mload(0x40)\n      dup1\n      swap2\n      sub\n      swap1\n      revert\n    tag_218:\n        /* \"challeng/my_contract/c.sol\":3988:3989  c */\n      dup1\n        /* \"challeng/my_contract/c.sol\":3981:3989  return c */\n      swap2\n      pop\n      pop\n        /* \"challeng/my_contract/c.sol\":3816:3997  function add(uint256 a, uint256 b) internal pure returns (uint256) {... */\n      swap3\n      swap2\n      pop\n      pop\n      jump\t// out\n        /* \"challeng/my_contract/c.sol\":15975:16186  function safeTransfer(... */\n    tag_145:\n        /* \"challeng/my_contract/c.sol\":16092:16178  _callOptionalReturn(token, abi.encodeWithSelector(token.transfer.selector, to, value)) */\n      tag_222\n        /* \"challeng/my_contract/c.sol\":16112:16117  token */\n      dup4\n        /* \"challeng/my_contract/c.sol\":16142:16165  token.transfer.selector */\n      shl(0xe0, 0xa9059cbb)\n        /* \"challeng/my_contract/c.sol\":16167:16169  to */\n      dup5\n        /* \"challeng/my_contract/c.sol\":16171:16176  value */\n      dup5\n        /* \"challeng/my_contract/c.sol\":16119:16177  abi.encodeWithSelector(token.transfer.selector, to, value) */\n      add(0x24, mload(0x40))\n      tag_223\n      swap3\n      swap2\n      swap1\n      tag_224\n      jump\t// in\n    tag_223:\n      mload(0x40)\n      0x20\n      dup2\n      dup4\n      sub\n      sub\n      dup2\n      mstore\n      swap1\n      0x40\n      mstore\n      swap1\n      not(0xffffffffffffffffffffffffffffffffffffffffffffffffffffffff)\n      and\n      0x20\n      dup3\n      add\n      dup1\n      mload\n      0xffffffffffffffffffffffffffffffffffffffffffffffffffffffff\n      dup4\n      dup2\n      dup4\n      and\n      or\n      dup4\n      mstore\n      pop\n      pop\n      pop\n      pop\n        /* \"challeng/my_contract/c.sol\":16092:16111  _callOptionalReturn */\n      tag_225\n        /* \"challeng/my_contract/c.sol\":16092:16178  _callOptionalReturn(token, abi.encodeWithSelector(token.transfer.selector, to, value)) */\n      jump\t// in\n    tag_222:\n        /* \"challeng/my_contract/c.sol\":15975:16186  function safeTransfer(... */\n      pop\n      pop\n      pop\n      jump\t// out\n        /* \"challeng/my_contract/c.sol\":4280:4416  function sub(uint256 a, uint256 b) internal pure returns (uint256) {... */\n    tag_183:\n        /* \"challeng/my_contract/c.sol\":4338:4345  uint256 */\n      0x00\n        /* \"challeng/my_contract/c.sol\":4365:4408  sub(a, b, \"SafeMath: subtraction overflow\") */\n      tag_227\n        /* \"challeng/my_contract/c.sol\":4369:4370  a */\n      dup4\n        /* \"challeng/my_contract/c.sol\":4372:4373  b */\n      dup4\n        /* \"challeng/my_contract/c.sol\":4365:4408  sub(a, b, \"SafeMath: subtraction overflow\") */\n      mload(0x40)\n      dup1\n      0x40\n      add\n      0x40\n      mstore\n      dup1\n      0x1e\n      dup2\n      mstore\n      0x20\n      add\n      0x536166654d6174683a207375627472616374696f6e206f766572666c6f770000\n      dup2\n      mstore\n      pop\n        /* \"challeng/my_contract/c.sol\":4365:4368  sub */\n      tag_228\n        /* \"challeng/my_contract/c.sol\":4365:4408  sub(a, b, \"SafeMath: subtraction overflow\") */\n      jump\t// in\n    tag_227:\n        /* \"challeng/my_contract/c.sol\":4358:4408  return sub(a, b, \"SafeMath: subtraction overflow\") */\n      swap1\n      pop\n        /* \"challeng/my_contract/c.sol\":4280:4416  function sub(uint256 a, uint256 b) internal pure returns (uint256) {... */\n      swap3\n      swap2\n      pop\n      pop\n      jump\t// out\n        /* \"challeng/my_contract/c.sol\":6151:6283  function div(uint256 a, uint256 b) internal pure returns (uint256) {... */\n    tag_198:\n        /* \"challeng/my_contract/c.sol\":6209:6216  uint256 */\n      0x00\n        /* \"challeng/my_contract/c.sol\":6236:6275  div(a, b, \"SafeMath: division by zero\") */\n      tag_230\n        /* \"challeng/my_contract/c.sol\":6240:6241  a */\n      dup4\n        /* \"challeng/my_contract/c.sol\":6243:6244  b */\n      dup4\n        /* \"challeng/my_contract/c.sol\":6236:6275  div(a, b, \"SafeMath: division by zero\") */\n      mload(0x40)\n      dup1\n      0x40\n      add\n      0x40\n      mstore\n      dup1\n      0x1a\n      dup2\n      mstore\n      0x20\n      add\n      0x536166654d6174683a206469766973696f6e206279207a65726f000000000000\n      dup2\n      mstore\n      pop\n        /* \"challeng/my_contract/c.sol\":6236:6239  div */\n      tag_231\n        /* \"challeng/my_contract/c.sol\":6236:6275  div(a, b, \"SafeMath: division by zero\") */\n      jump\t// in\n    tag_230:\n        /* \"challeng/my_contract/c.sol\":6229:6275  return div(a, b, \"SafeMath: division by zero\") */\n      swap1\n      pop\n        /* \"challeng/my_contract/c.sol\":6151:6283  function div(uint256 a, uint256 b) internal pure returns (uint256) {... */\n      swap3\n      swap2\n      pop\n      pop\n      jump\t// out\n        /* \"challeng/my_contract/c.sol\":18548:19264  function _callOptionalReturn(IERC20 token, bytes memory data) private {... */\n    tag_225:\n        /* \"challeng/my_contract/c.sol\":18972:18995  bytes memory returndata */\n      0x00\n        /* \"challeng/my_contract/c.sol\":18998:19067  address(token).functionCall(data, \"SafeERC20: low-level call failed\") */\n      tag_233\n        /* \"challeng/my_contract/c.sol\":19026:19030  data */\n      dup3\n        /* \"challeng/my_contract/c.sol\":18998:19067  address(token).functionCall(data, \"SafeERC20: low-level call failed\") */\n      mload(0x40)\n      dup1\n      0x40\n      add\n      0x40\n      mstore\n      dup1\n      0x20\n      dup2\n      mstore\n      0x20\n      add\n      0x5361666545524332303a206c6f772d6c6576656c2063616c6c206661696c6564\n      dup2\n      mstore\n      pop\n        /* \"challeng/my_contract/c.sol\":19006:19011  token */\n      dup6\n        /* \"challeng/my_contract/c.sol\":18998:19025  address(token).functionCall */\n      0xffffffffffffffffffffffffffffffffffffffff\n      and\n      tag_234\n      swap1\n        /* \"challeng/my_contract/c.sol\":18998:19067  address(token).functionCall(data, \"SafeERC20: low-level call failed\") */\n      swap3\n      swap2\n      swap1\n      0xffffffff\n      and\n      jump\t// in\n    tag_233:\n        /* \"challeng/my_contract/c.sol\":18972:19067  bytes memory returndata = address(token).functionCall(data, \"SafeERC20: low-level call failed\") */\n      swap1\n      pop\n        /* \"challeng/my_contract/c.sol\":19102:19103  0 */\n      0x00\n        /* \"challeng/my_contract/c.sol\":19082:19092  returndata */\n      dup2\n        /* \"challeng/my_contract/c.sol\":19082:19099  returndata.length */\n      mload\n        /* \"challeng/my_contract/c.sol\":19082:19103  returndata.length > 0 */\n      gt\n        /* \"challeng/my_contract/c.sol\":19078:19257  if (returndata.length > 0) {... */\n      iszero\n      tag_235\n      jumpi\n        /* \"challeng/my_contract/c.sol\":19179:19189  returndata */\n      dup1\n        /* \"challeng/my_contract/c.sol\":19168:19198  abi.decode(returndata, (bool)) */\n      dup1\n      0x20\n      add\n      swap1\n      mload\n      dup2\n      add\n      swap1\n      tag_236\n      swap2\n      swap1\n      tag_237\n      jump\t// in\n    tag_236:\n        /* \"challeng/my_contract/c.sol\":19160:19245  require(abi.decode(returndata, (bool)), \"SafeERC20: ERC20 operation did not succeed\") */\n      tag_238\n      jumpi\n      mload(0x40)\n      0x08c379a000000000000000000000000000000000000000000000000000000000\n      dup2\n      mstore\n      0x04\n      add\n      tag_239\n      swap1\n      tag_240\n      jump\t// in\n    tag_239:\n      mload(0x40)\n      dup1\n      swap2\n      sub\n      swap1\n      revert\n    tag_238:\n        /* \"challeng/my_contract/c.sol\":19078:19257  if (returndata.length > 0) {... */\n    tag_235:\n        /* \"challeng/my_contract/c.sol\":18618:19264  {... */\n      pop\n        /* \"challeng/my_contract/c.sol\":18548:19264  function _callOptionalReturn(IERC20 token, bytes memory data) private {... */\n      pop\n      pop\n      jump\t// out\n        /* \"challeng/my_contract/c.sol\":4719:4945  function sub(... */\n    tag_228:\n        /* \"challeng/my_contract/c.sol\":4839:4846  uint256 */\n      0x00\n        /* \"challeng/my_contract/c.sol\":4872:4873  a */\n      dup4\n        /* \"challeng/my_contract/c.sol\":4867:4868  b */\n      dup4\n        /* \"challeng/my_contract/c.sol\":4867:4873  b <= a */\n      gt\n      iszero\n        /* \"challeng/my_contract/c.sol\":4875:4887  errorMessage */\n      dup3\n        /* \"challeng/my_contract/c.sol\":4859:4888  require(b <= a, errorMessage) */\n      swap1\n      tag_242\n      jumpi\n      mload(0x40)\n      0x08c379a000000000000000000000000000000000000000000000000000000000\n      dup2\n      mstore\n      0x04\n      add\n      tag_243\n      swap2\n      swap1\n      tag_135\n      jump\t// in\n    tag_243:\n      mload(0x40)\n      dup1\n      swap2\n      sub\n      swap1\n      revert\n    tag_242:\n      pop\n        /* \"challeng/my_contract/c.sol\":4899:4908  uint256 c */\n      0x00\n        /* \"challeng/my_contract/c.sol\":4915:4916  b */\n      dup4\n        /* \"challeng/my_contract/c.sol\":4911:4912  a */\n      dup6\n        /* \"challeng/my_contract/c.sol\":4911:4916  a - b */\n      tag_244\n      swap2\n      swap1\n      tag_245\n      jump\t// in\n    tag_244:\n        /* \"challeng/my_contract/c.sol\":4899:4916  uint256 c = a - b */\n      swap1\n      pop\n        /* \"challeng/my_contract/c.sol\":4936:4937  c */\n      dup1\n        /* \"challeng/my_contract/c.sol\":4929:4937  return c */\n      swap2\n      pop\n      pop\n        /* \"challeng/my_contract/c.sol\":4719:4945  function sub(... */\n      swap4\n      swap3\n      pop\n      pop\n      pop\n      jump\t// out\n        /* \"challeng/my_contract/c.sol\":6779:7091  function div(... */\n    tag_231:\n        /* \"challeng/my_contract/c.sol\":6899:6906  uint256 */\n      0x00\n        /* \"challeng/my_contract/c.sol\":6931:6932  0 */\n      dup1\n        /* \"challeng/my_contract/c.sol\":6927:6928  b */\n      dup4\n        /* \"challeng/my_contract/c.sol\":6927:6932  b > 0 */\n      gt\n        /* \"challeng/my_contract/c.sol\":6934:6946  errorMessage */\n      dup3\n        /* \"challeng/my_contract/c.sol\":6919:6947  require(b > 0, errorMessage) */\n      swap1\n      tag_247\n      jumpi\n      mload(0x40)\n      0x08c379a000000000000000000000000000000000000000000000000000000000\n      dup2\n      mstore\n      0x04\n      add\n      tag_248\n      swap2\n      swap1\n      tag_135\n      jump\t// in\n    tag_248:\n      mload(0x40)\n      dup1\n      swap2\n      sub\n      swap1\n      revert\n    tag_247:\n      pop\n        /* \"challeng/my_contract/c.sol\":6958:6967  uint256 c */\n      0x00\n        /* \"challeng/my_contract/c.sol\":6974:6975  b */\n      dup4\n        /* \"challeng/my_contract/c.sol\":6970:6971  a */\n      dup6\n        /* \"challeng/my_contract/c.sol\":6970:6975  a / b */\n      tag_249\n      swap2\n      swap1\n      tag_91\n      jump\t// in\n    tag_249:\n        /* \"challeng/my_contract/c.sol\":6958:6975  uint256 c = a / b */\n      swap1\n      pop\n        /* \"challeng/my_contract/c.sol\":7082:7083  c */\n      dup1\n        /* \"challeng/my_contract/c.sol\":7075:7083  return c */\n      swap2\n      pop\n      pop\n        /* \"challeng/my_contract/c.sol\":6779:7091  function div(... */\n      swap4\n      swap3\n      pop\n      pop\n      pop\n      jump\t// out\n        /* \"challeng/my_contract/c.sol\":10922:11151  function functionCall(... */\n    tag_234:\n        /* \"challeng/my_contract/c.sol\":11059:11071  bytes memory */\n      0x60\n        /* \"challeng/my_contract/c.sol\":11091:11143  functionCallWithValue(target, data, 0, errorMessage) */\n      tag_251\n        /* \"challeng/my_contract/c.sol\":11113:11119  target */\n      dup5\n        /* \"challeng/my_contract/c.sol\":11121:11125  data */\n      dup5\n        /* \"challeng/my_contract/c.sol\":11127:11128  0 */\n      0x00\n        /* \"challeng/my_contract/c.sol\":11130:11142  errorMessage */\n      dup6\n        /* \"challeng/my_contract/c.sol\":11091:11112  functionCallWithValue */\n      tag_252\n        /* \"challeng/my_contract/c.sol\":11091:11143  functionCallWithValue(target, data, 0, errorMessage) */\n      jump\t// in\n    tag_251:\n        /* \"challeng/my_contract/c.sol\":11084:11143  return functionCallWithValue(target, data, 0, errorMessage) */\n      swap1\n      pop\n        /* \"challeng/my_contract/c.sol\":10922:11151  function functionCall(... */\n      swap4\n      swap3\n      pop\n      pop\n      pop\n      jump\t// out\n        /* \"challeng/my_contract/c.sol\":12042:12552  function functionCallWithValue(... */\n    tag_252:\n        /* \"challeng/my_contract/c.sol\":12212:12224  bytes memory */\n      0x60\n        /* \"challeng/my_contract/c.sol\":12270:12275  value */\n      dup3\n        /* \"challeng/my_contract/c.sol\":12245:12266  address(this).balance */\n      selfbalance\n        /* \"challeng/my_contract/c.sol\":12245:12275  address(this).balance >= value */\n      lt\n      iszero\n        /* \"challeng/my_contract/c.sol\":12237:12318  require(address(this).balance >= value, \"Address: insufficient balance for call\") */\n      tag_254\n      jumpi\n      mload(0x40)\n      0x08c379a000000000000000000000000000000000000000000000000000000000\n      dup2\n      mstore\n      0x04\n      add\n      tag_255\n      swap1\n      tag_256\n      jump\t// in\n    tag_255:\n      mload(0x40)\n      dup1\n      swap2\n      sub\n      swap1\n      revert\n    tag_254:\n        /* \"challeng/my_contract/c.sol\":12337:12355  isContract(target) */\n      tag_257\n        /* \"challeng/my_contract/c.sol\":12348:12354  target */\n      dup6\n        /* \"challeng/my_contract/c.sol\":12337:12347  isContract */\n      tag_258\n        /* \"challeng/my_contract/c.sol\":12337:12355  isContract(target) */\n      jump\t// in\n    tag_257:\n        /* \"challeng/my_contract/c.sol\":12329:12389  require(isContract(target), \"Address: call to non-contract\") */\n      tag_259\n      jumpi\n      mload(0x40)\n      0x08c379a000000000000000000000000000000000000000000000000000000000\n      dup2\n      mstore\n      0x04\n      add\n      tag_260\n      swap1\n      tag_261\n      jump\t// in\n    tag_260:\n      mload(0x40)\n      dup1\n      swap2\n      sub\n      swap1\n      revert\n    tag_259:\n        /* \"challeng/my_contract/c.sol\":12403:12415  bool success */\n      0x00\n        /* \"challeng/my_contract/c.sol\":12417:12440  bytes memory returndata */\n      dup1\n        /* \"challeng/my_contract/c.sol\":12444:12450  target */\n      dup7\n        /* \"challeng/my_contract/c.sol\":12444:12455  target.call */\n      0xffffffffffffffffffffffffffffffffffffffff\n      and\n        /* \"challeng/my_contract/c.sol\":12463:12468  value */\n      dup6\n        /* \"challeng/my_contract/c.sol\":12470:12474  data */\n      dup8\n        /* \"challeng/my_contract/c.sol\":12444:12475  target.call{value: value}(data) */\n      mload(0x40)\n      tag_262\n      swap2\n      swap1\n      tag_263\n      jump\t// in\n    tag_262:\n      0x00\n      mload(0x40)\n      dup1\n      dup4\n      sub\n      dup2\n      dup6\n      dup8\n      gas\n      call\n      swap3\n      pop\n      pop\n      pop\n      returndatasize\n      dup1\n      0x00\n      dup2\n      eq\n      tag_266\n      jumpi\n      mload(0x40)\n      swap2\n      pop\n      and(add(returndatasize, 0x3f), not(0x1f))\n      dup3\n      add\n      0x40\n      mstore\n      returndatasize\n      dup3\n      mstore\n      returndatasize\n      0x00\n      0x20\n      dup5\n      add\n      returndatacopy\n      jump(tag_265)\n    tag_266:\n      0x60\n      swap2\n      pop\n    tag_265:\n      pop\n        /* \"challeng/my_contract/c.sol\":12402:12475  (bool success, bytes memory returndata) = target.call{value: value}(data) */\n      swap2\n      pop\n      swap2\n      pop\n        /* \"challeng/my_contract/c.sol\":12493:12544  verifyCallResult(success, returndata, errorMessage) */\n      tag_267\n        /* \"challeng/my_contract/c.sol\":12510:12517  success */\n      dup3\n        /* \"challeng/my_contract/c.sol\":12519:12529  returndata */\n      dup3\n        /* \"challeng/my_contract/c.sol\":12531:12543  errorMessage */\n      dup7\n        /* \"challeng/my_contract/c.sol\":12493:12509  verifyCallResult */\n      tag_268\n        /* \"challeng/my_contract/c.sol\":12493:12544  verifyCallResult(success, returndata, errorMessage) */\n      jump\t// in\n    tag_267:\n        /* \"challeng/my_contract/c.sol\":12486:12544  return verifyCallResult(success, returndata, errorMessage) */\n      swap3\n      pop\n      pop\n      pop\n        /* \"challeng/my_contract/c.sol\":12042:12552  function functionCallWithValue(... */\n      swap5\n      swap4\n      pop\n      pop\n      pop\n      pop\n      jump\t// out\n        /* \"challeng/my_contract/c.sol\":8177:8503  function isContract(address account) internal view returns (bool) {... */\n    tag_258:\n        /* \"challeng/my_contract/c.sol\":8237:8241  bool */\n      0x00\n        /* \"challeng/my_contract/c.sol\":8494:8495  0 */\n      dup1\n        /* \"challeng/my_contract/c.sol\":8472:8479  account */\n      dup3\n        /* \"challeng/my_contract/c.sol\":8472:8491  account.code.length */\n      0xffffffffffffffffffffffffffffffffffffffff\n      and\n      extcodesize\n        /* \"challeng/my_contract/c.sol\":8472:8495  account.code.length > 0 */\n      gt\n        /* \"challeng/my_contract/c.sol\":8465:8495  return account.code.length > 0 */\n      swap1\n      pop\n        /* \"challeng/my_contract/c.sol\":8177:8503  function isContract(address account) internal view returns (bool) {... */\n      swap2\n      swap1\n      pop\n      jump\t// out\n        /* \"challeng/my_contract/c.sol\":14728:15440  function verifyCallResult(... */\n    tag_268:\n        /* \"challeng/my_contract/c.sol\":14878:14890  bytes memory */\n      0x60\n        /* \"challeng/my_contract/c.sol\":14907:14914  success */\n      dup4\n        /* \"challeng/my_contract/c.sol\":14903:15433  if (success) {... */\n      iszero\n      tag_271\n      jumpi\n        /* \"challeng/my_contract/c.sol\":14938:14948  returndata */\n      dup3\n        /* \"challeng/my_contract/c.sol\":14931:14948  return returndata */\n      swap1\n      pop\n      jump(tag_270)\n        /* \"challeng/my_contract/c.sol\":14903:15433  if (success) {... */\n    tag_271:\n        /* \"challeng/my_contract/c.sol\":15072:15073  0 */\n      0x00\n        /* \"challeng/my_contract/c.sol\":15052:15062  returndata */\n      dup4\n        /* \"challeng/my_contract/c.sol\":15052:15069  returndata.length */\n      mload\n        /* \"challeng/my_contract/c.sol\":15052:15073  returndata.length > 0 */\n      gt\n        /* \"challeng/my_contract/c.sol\":15048:15422  if (returndata.length > 0) {... */\n      iszero\n      tag_273\n      jumpi\n        /* \"challeng/my_contract/c.sol\":15250:15260  returndata */\n      dup3\n        /* \"challeng/my_contract/c.sol\":15244:15261  mload(returndata) */\n      mload\n        /* \"challeng/my_contract/c.sol\":15311:15326  returndata_size */\n      dup1\n        /* \"challeng/my_contract/c.sol\":15298:15308  returndata */\n      dup5\n        /* \"challeng/my_contract/c.sol\":15294:15296  32 */\n      0x20\n        /* \"challeng/my_contract/c.sol\":15290:15309  add(32, returndata) */\n      add\n        /* \"challeng/my_contract/c.sol\":15283:15327  revert(add(32, returndata), returndata_size) */\n      revert\n        /* \"challeng/my_contract/c.sol\":15048:15422  if (returndata.length > 0) {... */\n    tag_273:\n        /* \"challeng/my_contract/c.sol\":15393:15405  errorMessage */\n      dup2\n        /* \"challeng/my_contract/c.sol\":15386:15406  revert(errorMessage) */\n      mload(0x40)\n      0x08c379a000000000000000000000000000000000000000000000000000000000\n      dup2\n      mstore\n      0x04\n      add\n      tag_275\n      swap2\n      swap1\n      tag_135\n      jump\t// in\n    tag_275:\n      mload(0x40)\n      dup1\n      swap2\n      sub\n      swap1\n      revert\n        /* \"challeng/my_contract/c.sol\":14728:15440  function verifyCallResult(... */\n    tag_270:\n      swap4\n      swap3\n      pop\n      pop\n      pop\n      jump\t// out\n        /* \"#utility.yul\":7:84   */\n    tag_276:\n        /* \"#utility.yul\":44:51   */\n      0x00\n        /* \"#utility.yul\":73:78   */\n      dup2\n        /* \"#utility.yul\":62:78   */\n      swap1\n      pop\n        /* \"#utility.yul\":7:84   */\n      swap2\n      swap1\n      pop\n      jump\t// out\n        /* \"#utility.yul\":90:208   */\n    tag_277:\n        /* \"#utility.yul\":177:201   */\n      tag_359\n        /* \"#utility.yul\":195:200   */\n      dup2\n        /* \"#utility.yul\":177:201   */\n      tag_276\n      jump\t// in\n    tag_359:\n        /* \"#utility.yul\":172:175   */\n      dup3\n        /* \"#utility.yul\":165:202   */\n      mstore\n        /* \"#utility.yul\":90:208   */\n      pop\n      pop\n      jump\t// out\n        /* \"#utility.yul\":214:436   */\n    tag_27:\n        /* \"#utility.yul\":307:311   */\n      0x00\n        /* \"#utility.yul\":345:347   */\n      0x20\n        /* \"#utility.yul\":334:343   */\n      dup3\n        /* \"#utility.yul\":330:348   */\n      add\n        /* \"#utility.yul\":322:348   */\n      swap1\n      pop\n        /* \"#utility.yul\":358:429   */\n      tag_361\n        /* \"#utility.yul\":426:427   */\n      0x00\n        /* \"#utility.yul\":415:424   */\n      dup4\n        /* \"#utility.yul\":411:428   */\n      add\n        /* \"#utility.yul\":402:408   */\n      dup5\n        /* \"#utility.yul\":358:429   */\n      tag_277\n      jump\t// in\n    tag_361:\n        /* \"#utility.yul\":214:436   */\n      swap3\n      swap2\n      pop\n      pop\n      jump\t// out\n        /* \"#utility.yul\":442:517   */\n    tag_278:\n        /* \"#utility.yul\":475:481   */\n      0x00\n        /* \"#utility.yul\":508:510   */\n      0x40\n        /* \"#utility.yul\":502:511   */\n      mload\n        /* \"#utility.yul\":492:511   */\n      swap1\n      pop\n        /* \"#utility.yul\":442:517   */\n      swap1\n      jump\t// out\n        /* \"#utility.yul\":523:640   */\n    tag_279:\n        /* \"#utility.yul\":632:633   */\n      0x00\n        /* \"#utility.yul\":629:630   */\n      dup1\n        /* \"#utility.yul\":622:634   */\n      revert\n        /* \"#utility.yul\":646:763   */\n    tag_280:\n        /* \"#utility.yul\":755:756   */\n      0x00\n        /* \"#utility.yul\":752:753   */\n      dup1\n        /* \"#utility.yul\":745:757   */\n      revert\n        /* \"#utility.yul\":769:895   */\n    tag_281:\n        /* \"#utility.yul\":806:813   */\n      0x00\n        /* \"#utility.yul\":846:888   */\n      0xffffffffffffffffffffffffffffffffffffffff\n        /* \"#utility.yul\":839:844   */\n      dup3\n        /* \"#utility.yul\":835:889   */\n      and\n        /* \"#utility.yul\":824:889   */\n      swap1\n      pop\n        /* \"#utility.yul\":769:895   */\n      swap2\n      swap1\n      pop\n      jump\t// out\n        /* \"#utility.yul\":901:997   */\n    tag_282:\n        /* \"#utility.yul\":938:945   */\n      0x00\n        /* \"#utility.yul\":967:991   */\n      tag_367\n        /* \"#utility.yul\":985:990   */\n      dup3\n        /* \"#utility.yul\":967:991   */\n      tag_281\n      jump\t// in\n    tag_367:\n        /* \"#utility.yul\":956:991   */\n      swap1\n      pop\n        /* \"#utility.yul\":901:997   */\n      swap2\n      swap1\n      pop\n      jump\t// out\n        /* \"#utility.yul\":1003:1125   */\n    tag_283:\n        /* \"#utility.yul\":1076:1100   */\n      tag_369\n        /* \"#utility.yul\":1094:1099   */\n      dup2\n        /* \"#utility.yul\":1076:1100   */\n      tag_282\n      jump\t// in\n    tag_369:\n        /* \"#utility.yul\":1069:1074   */\n      dup2\n        /* \"#utility.yul\":1066:1101   */\n      eq\n        /* \"#utility.yul\":1056:1119   */\n      tag_370\n      jumpi\n        /* \"#utility.yul\":1115:1116   */\n      0x00\n        /* \"#utility.yul\":1112:1113   */\n      dup1\n        /* \"#utility.yul\":1105:1117   */\n      revert\n        /* \"#utility.yul\":1056:1119   */\n    tag_370:\n        /* \"#utility.yul\":1003:1125   */\n      pop\n      jump\t// out\n        /* \"#utility.yul\":1131:1270   */\n    tag_284:\n        /* \"#utility.yul\":1177:1182   */\n      0x00\n        /* \"#utility.yul\":1215:1221   */\n      dup2\n        /* \"#utility.yul\":1202:1222   */\n      calldataload\n        /* \"#utility.yul\":1193:1222   */\n      swap1\n      pop\n        /* \"#utility.yul\":1231:1264   */\n      tag_372\n        /* \"#utility.yul\":1258:1263   */\n      dup2\n        /* \"#utility.yul\":1231:1264   */\n      tag_283\n      jump\t// in\n    tag_372:\n        /* \"#utility.yul\":1131:1270   */\n      swap3\n      swap2\n      pop\n      pop\n      jump\t// out\n        /* \"#utility.yul\":1276:1605   */\n    tag_33:\n        /* \"#utility.yul\":1335:1341   */\n      0x00\n        /* \"#utility.yul\":1384:1386   */\n      0x20\n        /* \"#utility.yul\":1372:1381   */\n      dup3\n        /* \"#utility.yul\":1363:1370   */\n      dup5\n        /* \"#utility.yul\":1359:1382   */\n      sub\n        /* \"#utility.yul\":1355:1387   */\n      slt\n        /* \"#utility.yul\":1352:1471   */\n      iszero\n      tag_374\n      jumpi\n        /* \"#utility.yul\":1390:1469   */\n      tag_375\n      tag_279\n      jump\t// in\n    tag_375:\n        /* \"#utility.yul\":1352:1471   */\n    tag_374:\n        /* \"#utility.yul\":1510:1511   */\n      0x00\n        /* \"#utility.yul\":1535:1588   */\n      tag_376\n        /* \"#utility.yul\":1580:1587   */\n      dup5\n        /* \"#utility.yul\":1571:1577   */\n      dup3\n        /* \"#utility.yul\":1560:1569   */\n      dup6\n        /* \"#utility.yul\":1556:1578   */\n      add\n        /* \"#utility.yul\":1535:1588   */\n      tag_284\n      jump\t// in\n    tag_376:\n        /* \"#utility.yul\":1525:1588   */\n      swap2\n      pop\n        /* \"#utility.yul\":1481:1598   */\n      pop\n        /* \"#utility.yul\":1276:1605   */\n      swap3\n      swap2\n      pop\n      pop\n      jump\t// out\n        /* \"#utility.yul\":1611:1728   */\n    tag_285:\n        /* \"#utility.yul\":1720:1721   */\n      0x00\n        /* \"#utility.yul\":1717:1718   */\n      dup1\n        /* \"#utility.yul\":1710:1722   */\n      revert\n        /* \"#utility.yul\":1734:1836   */\n    tag_286:\n        /* \"#utility.yul\":1775:1781   */\n      0x00\n        /* \"#utility.yul\":1826:1828   */\n      0x1f\n        /* \"#utility.yul\":1822:1829   */\n      not\n        /* \"#utility.yul\":1817:1819   */\n      0x1f\n        /* \"#utility.yul\":1810:1815   */\n      dup4\n        /* \"#utility.yul\":1806:1820   */\n      add\n        /* \"#utility.yul\":1802:1830   */\n      and\n        /* \"#utility.yul\":1792:1830   */\n      swap1\n      pop\n        /* \"#utility.yul\":1734:1836   */\n      swap2\n      swap1\n      pop\n      jump\t// out\n        /* \"#utility.yul\":1842:2022   */\n    tag_287:\n        /* \"#utility.yul\":1890:1967   */\n      0x4e487b7100000000000000000000000000000000000000000000000000000000\n        /* \"#utility.yul\":1887:1888   */\n      0x00\n        /* \"#utility.yul\":1880:1968   */\n      mstore\n        /* \"#utility.yul\":1987:1991   */\n      0x41\n        /* \"#utility.yul\":1984:1985   */\n      0x04\n        /* \"#utility.yul\":1977:1992   */\n      mstore\n        /* \"#utility.yul\":2011:2015   */\n      0x24\n        /* \"#utility.yul\":2008:2009   */\n      0x00\n        /* \"#utility.yul\":2001:2016   */\n      revert\n        /* \"#utility.yul\":2028:2309   */\n    tag_288:\n        /* \"#utility.yul\":2111:2138   */\n      tag_381\n        /* \"#utility.yul\":2133:2137   */\n      dup3\n        /* \"#utility.yul\":2111:2138   */\n      tag_286\n      jump\t// in\n    tag_381:\n        /* \"#utility.yul\":2103:2109   */\n      dup2\n        /* \"#utility.yul\":2099:2139   */\n      add\n        /* \"#utility.yul\":2241:2247   */\n      dup2\n        /* \"#utility.yul\":2229:2239   */\n      dup2\n        /* \"#utility.yul\":2226:2248   */\n      lt\n        /* \"#utility.yul\":2205:2223   */\n      0xffffffffffffffff\n        /* \"#utility.yul\":2193:2203   */\n      dup3\n        /* \"#utility.yul\":2190:2224   */\n      gt\n        /* \"#utility.yul\":2187:2249   */\n      or\n        /* \"#utility.yul\":2184:2272   */\n      iszero\n      tag_382\n      jumpi\n        /* \"#utility.yul\":2252:2270   */\n      tag_383\n      tag_287\n      jump\t// in\n    tag_383:\n        /* \"#utility.yul\":2184:2272   */\n    tag_382:\n        /* \"#utility.yul\":2292:2302   */\n      dup1\n        /* \"#utility.yul\":2288:2290   */\n      0x40\n        /* \"#utility.yul\":2281:2303   */\n      mstore\n        /* \"#utility.yul\":2071:2309   */\n      pop\n        /* \"#utility.yul\":2028:2309   */\n      pop\n      pop\n      jump\t// out\n        /* \"#utility.yul\":2315:2444   */\n    tag_289:\n        /* \"#utility.yul\":2349:2355   */\n      0x00\n        /* \"#utility.yul\":2376:2396   */\n      tag_385\n      tag_278\n      jump\t// in\n    tag_385:\n        /* \"#utility.yul\":2366:2396   */\n      swap1\n      pop\n        /* \"#utility.yul\":2405:2438   */\n      tag_386\n        /* \"#utility.yul\":2433:2437   */\n      dup3\n        /* \"#utility.yul\":2425:2431   */\n      dup3\n        /* \"#utility.yul\":2405:2438   */\n      tag_288\n      jump\t// in\n    tag_386:\n        /* \"#utility.yul\":2315:2444   */\n      swap2\n      swap1\n      pop\n      jump\t// out\n        /* \"#utility.yul\":2450:2771   */\n    tag_290:\n        /* \"#utility.yul\":2537:2541   */\n      0x00\n        /* \"#utility.yul\":2627:2645   */\n      0xffffffffffffffff\n        /* \"#utility.yul\":2619:2625   */\n      dup3\n        /* \"#utility.yul\":2616:2646   */\n      gt\n        /* \"#utility.yul\":2613:2669   */\n      iszero\n      tag_388\n      jumpi\n        /* \"#utility.yul\":2649:2667   */\n      tag_389\n      tag_287\n      jump\t// in\n    tag_389:\n        /* \"#utility.yul\":2613:2669   */\n    tag_388:\n        /* \"#utility.yul\":2699:2703   */\n      0x20\n        /* \"#utility.yul\":2691:2697   */\n      dup3\n        /* \"#utility.yul\":2687:2704   */\n      mul\n        /* \"#utility.yul\":2679:2704   */\n      swap1\n      pop\n        /* \"#utility.yul\":2759:2763   */\n      0x20\n        /* \"#utility.yul\":2753:2757   */\n      dup2\n        /* \"#utility.yul\":2749:2764   */\n      add\n        /* \"#utility.yul\":2741:2764   */\n      swap1\n      pop\n        /* \"#utility.yul\":2450:2771   */\n      swap2\n      swap1\n      pop\n      jump\t// out\n        /* \"#utility.yul\":2777:2894   */\n    tag_291:\n        /* \"#utility.yul\":2886:2887   */\n      0x00\n        /* \"#utility.yul\":2883:2884   */\n      dup1\n        /* \"#utility.yul\":2876:2888   */\n      revert\n        /* \"#utility.yul\":2900:3017   */\n    tag_292:\n        /* \"#utility.yul\":3009:3010   */\n      0x00\n        /* \"#utility.yul\":3006:3007   */\n      dup1\n        /* \"#utility.yul\":2999:3011   */\n      revert\n        /* \"#utility.yul\":3023:3331   */\n    tag_293:\n        /* \"#utility.yul\":3085:3089   */\n      0x00\n        /* \"#utility.yul\":3175:3193   */\n      0xffffffffffffffff\n        /* \"#utility.yul\":3167:3173   */\n      dup3\n        /* \"#utility.yul\":3164:3194   */\n      gt\n        /* \"#utility.yul\":3161:3217   */\n      iszero\n      tag_393\n      jumpi\n        /* \"#utility.yul\":3197:3215   */\n      tag_394\n      tag_287\n      jump\t// in\n    tag_394:\n        /* \"#utility.yul\":3161:3217   */\n    tag_393:\n        /* \"#utility.yul\":3235:3264   */\n      tag_395\n        /* \"#utility.yul\":3257:3263   */\n      dup3\n        /* \"#utility.yul\":3235:3264   */\n      tag_286\n      jump\t// in\n    tag_395:\n        /* \"#utility.yul\":3227:3264   */\n      swap1\n      pop\n        /* \"#utility.yul\":3319:3323   */\n      0x20\n        /* \"#utility.yul\":3313:3317   */\n      dup2\n        /* \"#utility.yul\":3309:3324   */\n      add\n        /* \"#utility.yul\":3301:3324   */\n      swap1\n      pop\n        /* \"#utility.yul\":3023:3331   */\n      swap2\n      swap1\n      pop\n      jump\t// out\n        /* \"#utility.yul\":3337:3483   */\n    tag_294:\n        /* \"#utility.yul\":3434:3440   */\n      dup3\n        /* \"#utility.yul\":3429:3432   */\n      dup2\n        /* \"#utility.yul\":3424:3427   */\n      dup4\n        /* \"#utility.yul\":3411:3441   */\n      calldatacopy\n        /* \"#utility.yul\":3475:3476   */\n      0x00\n        /* \"#utility.yul\":3466:3472   */\n      dup4\n        /* \"#utility.yul\":3461:3464   */\n      dup4\n        /* \"#utility.yul\":3457:3473   */\n      add\n        /* \"#utility.yul\":3450:3477   */\n      mstore\n        /* \"#utility.yul\":3337:3483   */\n      pop\n      pop\n      pop\n      jump\t// out\n        /* \"#utility.yul\":3489:3914   */\n    tag_295:\n        /* \"#utility.yul\":3567:3572   */\n      0x00\n        /* \"#utility.yul\":3592:3658   */\n      tag_398\n        /* \"#utility.yul\":3608:3657   */\n      tag_399\n        /* \"#utility.yul\":3650:3656   */\n      dup5\n        /* \"#utility.yul\":3608:3657   */\n      tag_293\n      jump\t// in\n    tag_399:\n        /* \"#utility.yul\":3592:3658   */\n      tag_289\n      jump\t// in\n    tag_398:\n        /* \"#utility.yul\":3583:3658   */\n      swap1\n      pop\n        /* \"#utility.yul\":3681:3687   */\n      dup3\n        /* \"#utility.yul\":3674:3679   */\n      dup2\n        /* \"#utility.yul\":3667:3688   */\n      mstore\n        /* \"#utility.yul\":3719:3723   */\n      0x20\n        /* \"#utility.yul\":3712:3717   */\n      dup2\n        /* \"#utility.yul\":3708:3724   */\n      add\n        /* \"#utility.yul\":3757:3760   */\n      dup5\n        /* \"#utility.yul\":3748:3754   */\n      dup5\n        /* \"#utility.yul\":3743:3746   */\n      dup5\n        /* \"#utility.yul\":3739:3755   */\n      add\n        /* \"#utility.yul\":3736:3761   */\n      gt\n        /* \"#utility.yul\":3733:3845   */\n      iszero\n      tag_400\n      jumpi\n        /* \"#utility.yul\":3764:3843   */\n      tag_401\n      tag_292\n      jump\t// in\n    tag_401:\n        /* \"#utility.yul\":3733:3845   */\n    tag_400:\n        /* \"#utility.yul\":3854:3908   */\n      tag_402\n        /* \"#utility.yul\":3901:3907   */\n      dup5\n        /* \"#utility.yul\":3896:3899   */\n      dup3\n        /* \"#utility.yul\":3891:3894   */\n      dup6\n        /* \"#utility.yul\":3854:3908   */\n      tag_294\n      jump\t// in\n    tag_402:\n        /* \"#utility.yul\":3573:3914   */\n      pop\n        /* \"#utility.yul\":3489:3914   */\n      swap4\n      swap3\n      pop\n      pop\n      pop\n      jump\t// out\n        /* \"#utility.yul\":3934:4274   */\n    tag_296:\n        /* \"#utility.yul\":3990:3995   */\n      0x00\n        /* \"#utility.yul\":4039:4042   */\n      dup3\n        /* \"#utility.yul\":4032:4036   */\n      0x1f\n        /* \"#utility.yul\":4024:4030   */\n      dup4\n        /* \"#utility.yul\":4020:4037   */\n      add\n        /* \"#utility.yul\":4016:4043   */\n      slt\n        /* \"#utility.yul\":4006:4128   */\n      tag_404\n      jumpi\n        /* \"#utility.yul\":4047:4126   */\n      tag_405\n      tag_285\n      jump\t// in\n    tag_405:\n        /* \"#utility.yul\":4006:4128   */\n    tag_404:\n        /* \"#utility.yul\":4164:4170   */\n      dup2\n        /* \"#utility.yul\":4151:4171   */\n      calldataload\n        /* \"#utility.yul\":4189:4268   */\n      tag_406\n        /* \"#utility.yul\":4264:4267   */\n      dup5\n        /* \"#utility.yul\":4256:4262   */\n      dup3\n        /* \"#utility.yul\":4249:4253   */\n      0x20\n        /* \"#utility.yul\":4241:4247   */\n      dup7\n        /* \"#utility.yul\":4237:4254   */\n      add\n        /* \"#utility.yul\":4189:4268   */\n      tag_295\n      jump\t// in\n    tag_406:\n        /* \"#utility.yul\":4180:4268   */\n      swap2\n      pop\n        /* \"#utility.yul\":3996:4274   */\n      pop\n        /* \"#utility.yul\":3934:4274   */\n      swap3\n      swap2\n      pop\n      pop\n      jump\t// out\n        /* \"#utility.yul\":4296:5241   */\n    tag_297:\n        /* \"#utility.yul\":4402:4407   */\n      0x00\n        /* \"#utility.yul\":4427:4518   */\n      tag_408\n        /* \"#utility.yul\":4443:4517   */\n      tag_409\n        /* \"#utility.yul\":4510:4516   */\n      dup5\n        /* \"#utility.yul\":4443:4517   */\n      tag_290\n      jump\t// in\n    tag_409:\n        /* \"#utility.yul\":4427:4518   */\n      tag_289\n      jump\t// in\n    tag_408:\n        /* \"#utility.yul\":4418:4518   */\n      swap1\n      pop\n        /* \"#utility.yul\":4538:4543   */\n      dup1\n        /* \"#utility.yul\":4567:4573   */\n      dup4\n        /* \"#utility.yul\":4560:4565   */\n      dup3\n        /* \"#utility.yul\":4553:4574   */\n      mstore\n        /* \"#utility.yul\":4601:4605   */\n      0x20\n        /* \"#utility.yul\":4594:4599   */\n      dup3\n        /* \"#utility.yul\":4590:4606   */\n      add\n        /* \"#utility.yul\":4583:4606   */\n      swap1\n      pop\n        /* \"#utility.yul\":4654:4658   */\n      0x20\n        /* \"#utility.yul\":4646:4652   */\n      dup5\n        /* \"#utility.yul\":4642:4659   */\n      mul\n        /* \"#utility.yul\":4634:4640   */\n      dup4\n        /* \"#utility.yul\":4630:4660   */\n      add\n        /* \"#utility.yul\":4683:4686   */\n      dup6\n        /* \"#utility.yul\":4675:4681   */\n      dup2\n        /* \"#utility.yul\":4672:4687   */\n      gt\n        /* \"#utility.yul\":4669:4791   */\n      iszero\n      tag_410\n      jumpi\n        /* \"#utility.yul\":4702:4781   */\n      tag_411\n      tag_291\n      jump\t// in\n    tag_411:\n        /* \"#utility.yul\":4669:4791   */\n    tag_410:\n        /* \"#utility.yul\":4817:4823   */\n      dup4\n        /* \"#utility.yul\":4800:5235   */\n    tag_412:\n        /* \"#utility.yul\":4834:4840   */\n      dup2\n        /* \"#utility.yul\":4829:4832   */\n      dup2\n        /* \"#utility.yul\":4826:4841   */\n      lt\n        /* \"#utility.yul\":4800:5235   */\n      iszero\n      tag_414\n      jumpi\n        /* \"#utility.yul\":4923:4926   */\n      dup1\n        /* \"#utility.yul\":4910:4927   */\n      calldataload\n        /* \"#utility.yul\":4959:4977   */\n      0xffffffffffffffff\n        /* \"#utility.yul\":4946:4957   */\n      dup2\n        /* \"#utility.yul\":4943:4978   */\n      gt\n        /* \"#utility.yul\":4940:5062   */\n      iszero\n      tag_415\n      jumpi\n        /* \"#utility.yul\":4981:5060   */\n      tag_416\n      tag_285\n      jump\t// in\n    tag_416:\n        /* \"#utility.yul\":4940:5062   */\n    tag_415:\n        /* \"#utility.yul\":5105:5116   */\n      dup1\n        /* \"#utility.yul\":5097:5103   */\n      dup7\n        /* \"#utility.yul\":5093:5117   */\n      add\n        /* \"#utility.yul\":5143:5190   */\n      tag_417\n        /* \"#utility.yul\":5186:5189   */\n      dup10\n        /* \"#utility.yul\":5174:5184   */\n      dup3\n        /* \"#utility.yul\":5143:5190   */\n      tag_296\n      jump\t// in\n    tag_417:\n        /* \"#utility.yul\":5138:5141   */\n      dup6\n        /* \"#utility.yul\":5131:5191   */\n      mstore\n        /* \"#utility.yul\":5220:5224   */\n      0x20\n        /* \"#utility.yul\":5215:5218   */\n      dup6\n        /* \"#utility.yul\":5211:5225   */\n      add\n        /* \"#utility.yul\":5204:5225   */\n      swap5\n      pop\n        /* \"#utility.yul\":4876:5235   */\n      pop\n      pop\n        /* \"#utility.yul\":4860:4864   */\n      0x20\n        /* \"#utility.yul\":4855:4858   */\n      dup2\n        /* \"#utility.yul\":4851:4865   */\n      add\n        /* \"#utility.yul\":4844:4865   */\n      swap1\n      pop\n        /* \"#utility.yul\":4800:5235   */\n      jump(tag_412)\n    tag_414:\n        /* \"#utility.yul\":4804:4825   */\n      pop\n        /* \"#utility.yul\":4408:5241   */\n      pop\n      pop\n        /* \"#utility.yul\":4296:5241   */\n      swap4\n      swap3\n      pop\n      pop\n      pop\n      jump\t// out\n        /* \"#utility.yul\":5263:5653   */\n    tag_298:\n        /* \"#utility.yul\":5344:5349   */\n      0x00\n        /* \"#utility.yul\":5393:5396   */\n      dup3\n        /* \"#utility.yul\":5386:5390   */\n      0x1f\n        /* \"#utility.yul\":5378:5384   */\n      dup4\n        /* \"#utility.yul\":5374:5391   */\n      add\n        /* \"#utility.yul\":5370:5397   */\n      slt\n        /* \"#utility.yul\":5360:5482   */\n      tag_419\n      jumpi\n        /* \"#utility.yul\":5401:5480   */\n      tag_420\n      tag_285\n      jump\t// in\n    tag_420:\n        /* \"#utility.yul\":5360:5482   */\n    tag_419:\n        /* \"#utility.yul\":5518:5524   */\n      dup2\n        /* \"#utility.yul\":5505:5525   */\n      calldataload\n        /* \"#utility.yul\":5543:5647   */\n      tag_421\n        /* \"#utility.yul\":5643:5646   */\n      dup5\n        /* \"#utility.yul\":5635:5641   */\n      dup3\n        /* \"#utility.yul\":5628:5632   */\n      0x20\n        /* \"#utility.yul\":5620:5626   */\n      dup7\n        /* \"#utility.yul\":5616:5633   */\n      add\n        /* \"#utility.yul\":5543:5647   */\n      tag_297\n      jump\t// in\n    tag_421:\n        /* \"#utility.yul\":5534:5647   */\n      swap2\n      pop\n        /* \"#utility.yul\":5350:5653   */\n      pop\n        /* \"#utility.yul\":5263:5653   */\n      swap3\n      swap2\n      pop\n      pop\n      jump\t// out\n        /* \"#utility.yul\":5659:5970   */\n    tag_299:\n        /* \"#utility.yul\":5736:5740   */\n      0x00\n        /* \"#utility.yul\":5826:5844   */\n      0xffffffffffffffff\n        /* \"#utility.yul\":5818:5824   */\n      dup3\n        /* \"#utility.yul\":5815:5845   */\n      gt\n        /* \"#utility.yul\":5812:5868   */\n      iszero\n      tag_423\n      jumpi\n        /* \"#utility.yul\":5848:5866   */\n      tag_424\n      tag_287\n      jump\t// in\n    tag_424:\n        /* \"#utility.yul\":5812:5868   */\n    tag_423:\n        /* \"#utility.yul\":5898:5902   */\n      0x20\n        /* \"#utility.yul\":5890:5896   */\n      dup3\n        /* \"#utility.yul\":5886:5903   */\n      mul\n        /* \"#utility.yul\":5878:5903   */\n      swap1\n      pop\n        /* \"#utility.yul\":5958:5962   */\n      0x20\n        /* \"#utility.yul\":5952:5956   */\n      dup2\n        /* \"#utility.yul\":5948:5963   */\n      add\n        /* \"#utility.yul\":5940:5963   */\n      swap1\n      pop\n        /* \"#utility.yul\":5659:5970   */\n      swap2\n      swap1\n      pop\n      jump\t// out\n        /* \"#utility.yul\":5976:6098   */\n    tag_300:\n        /* \"#utility.yul\":6049:6073   */\n      tag_426\n        /* \"#utility.yul\":6067:6072   */\n      dup2\n        /* \"#utility.yul\":6049:6073   */\n      tag_276\n      jump\t// in\n    tag_426:\n        /* \"#utility.yul\":6042:6047   */\n      dup2\n        /* \"#utility.yul\":6039:6074   */\n      eq\n        /* \"#utility.yul\":6029:6092   */\n      tag_427\n      jumpi\n        /* \"#utility.yul\":6088:6089   */\n      0x00\n        /* \"#utility.yul\":6085:6086   */\n      dup1\n        /* \"#utility.yul\":6078:6090   */\n      revert\n        /* \"#utility.yul\":6029:6092   */\n    tag_427:\n        /* \"#utility.yul\":5976:6098   */\n      pop\n      jump\t// out\n        /* \"#utility.yul\":6104:6243   */\n    tag_301:\n        /* \"#utility.yul\":6150:6155   */\n      0x00\n        /* \"#utility.yul\":6188:6194   */\n      dup2\n        /* \"#utility.yul\":6175:6195   */\n      calldataload\n        /* \"#utility.yul\":6166:6195   */\n      swap1\n      pop\n        /* \"#utility.yul\":6204:6237   */\n      tag_429\n        /* \"#utility.yul\":6231:6236   */\n      dup2\n        /* \"#utility.yul\":6204:6237   */\n      tag_300\n      jump\t// in\n    tag_429:\n        /* \"#utility.yul\":6104:6243   */\n      swap3\n      swap2\n      pop\n      pop\n      jump\t// out\n        /* \"#utility.yul\":6266:6976   */\n    tag_302:\n        /* \"#utility.yul\":6362:6367   */\n      0x00\n        /* \"#utility.yul\":6387:6468   */\n      tag_431\n        /* \"#utility.yul\":6403:6467   */\n      tag_432\n        /* \"#utility.yul\":6460:6466   */\n      dup5\n        /* \"#utility.yul\":6403:6467   */\n      tag_299\n      jump\t// in\n    tag_432:\n        /* \"#utility.yul\":6387:6468   */\n      tag_289\n      jump\t// in\n    tag_431:\n        /* \"#utility.yul\":6378:6468   */\n      swap1\n      pop\n        /* \"#utility.yul\":6488:6493   */\n      dup1\n        /* \"#utility.yul\":6517:6523   */\n      dup4\n        /* \"#utility.yul\":6510:6515   */\n      dup3\n        /* \"#utility.yul\":6503:6524   */\n      mstore\n        /* \"#utility.yul\":6551:6555   */\n      0x20\n        /* \"#utility.yul\":6544:6549   */\n      dup3\n        /* \"#utility.yul\":6540:6556   */\n      add\n        /* \"#utility.yul\":6533:6556   */\n      swap1\n      pop\n        /* \"#utility.yul\":6604:6608   */\n      0x20\n        /* \"#utility.yul\":6596:6602   */\n      dup5\n        /* \"#utility.yul\":6592:6609   */\n      mul\n        /* \"#utility.yul\":6584:6590   */\n      dup4\n        /* \"#utility.yul\":6580:6610   */\n      add\n        /* \"#utility.yul\":6633:6636   */\n      dup6\n        /* \"#utility.yul\":6625:6631   */\n      dup2\n        /* \"#utility.yul\":6622:6637   */\n      gt\n        /* \"#utility.yul\":6619:6741   */\n      iszero\n      tag_433\n      jumpi\n        /* \"#utility.yul\":6652:6731   */\n      tag_434\n      tag_291\n      jump\t// in\n    tag_434:\n        /* \"#utility.yul\":6619:6741   */\n    tag_433:\n        /* \"#utility.yul\":6767:6773   */\n      dup4\n        /* \"#utility.yul\":6750:6970   */\n    tag_435:\n        /* \"#utility.yul\":6784:6790   */\n      dup2\n        /* \"#utility.yul\":6779:6782   */\n      dup2\n        /* \"#utility.yul\":6776:6791   */\n      lt\n        /* \"#utility.yul\":6750:6970   */\n      iszero\n      tag_437\n      jumpi\n        /* \"#utility.yul\":6859:6862   */\n      dup1\n        /* \"#utility.yul\":6888:6925   */\n      tag_438\n        /* \"#utility.yul\":6921:6924   */\n      dup9\n        /* \"#utility.yul\":6909:6919   */\n      dup3\n        /* \"#utility.yul\":6888:6925   */\n      tag_301\n      jump\t// in\n    tag_438:\n        /* \"#utility.yul\":6883:6886   */\n      dup5\n        /* \"#utility.yul\":6876:6926   */\n      mstore\n        /* \"#utility.yul\":6955:6959   */\n      0x20\n        /* \"#utility.yul\":6950:6953   */\n      dup5\n        /* \"#utility.yul\":6946:6960   */\n      add\n        /* \"#utility.yul\":6939:6960   */\n      swap4\n      pop\n        /* \"#utility.yul\":6826:6970   */\n      pop\n        /* \"#utility.yul\":6810:6814   */\n      0x20\n        /* \"#utility.yul\":6805:6808   */\n      dup2\n        /* \"#utility.yul\":6801:6815   */\n      add\n        /* \"#utility.yul\":6794:6815   */\n      swap1\n      pop\n        /* \"#utility.yul\":6750:6970   */\n      jump(tag_435)\n    tag_437:\n        /* \"#utility.yul\":6754:6775   */\n      pop\n        /* \"#utility.yul\":6368:6976   */\n      pop\n      pop\n        /* \"#utility.yul\":6266:6976   */\n      swap4\n      swap3\n      pop\n      pop\n      pop\n      jump\t// out\n        /* \"#utility.yul\":6999:7369   */\n    tag_303:\n        /* \"#utility.yul\":7070:7075   */\n      0x00\n        /* \"#utility.yul\":7119:7122   */\n      dup3\n        /* \"#utility.yul\":7112:7116   */\n      0x1f\n        /* \"#utility.yul\":7104:7110   */\n      dup4\n        /* \"#utility.yul\":7100:7117   */\n      add\n        /* \"#utility.yul\":7096:7123   */\n      slt\n        /* \"#utility.yul\":7086:7208   */\n      tag_440\n      jumpi\n        /* \"#utility.yul\":7127:7206   */\n      tag_441\n      tag_285\n      jump\t// in\n    tag_441:\n        /* \"#utility.yul\":7086:7208   */\n    tag_440:\n        /* \"#utility.yul\":7244:7250   */\n      dup2\n        /* \"#utility.yul\":7231:7251   */\n      calldataload\n        /* \"#utility.yul\":7269:7363   */\n      tag_442\n        /* \"#utility.yul\":7359:7362   */\n      dup5\n        /* \"#utility.yul\":7351:7357   */\n      dup3\n        /* \"#utility.yul\":7344:7348   */\n      0x20\n        /* \"#utility.yul\":7336:7342   */\n      dup7\n        /* \"#utility.yul\":7332:7349   */\n      add\n        /* \"#utility.yul\":7269:7363   */\n      tag_302\n      jump\t// in\n    tag_442:\n        /* \"#utility.yul\":7260:7363   */\n      swap2\n      pop\n        /* \"#utility.yul\":7076:7369   */\n      pop\n        /* \"#utility.yul\":6999:7369   */\n      swap3\n      swap2\n      pop\n      pop\n      jump\t// out\n        /* \"#utility.yul\":7375:8289   */\n    tag_43:\n        /* \"#utility.yul\":7503:7509   */\n      0x00\n        /* \"#utility.yul\":7511:7517   */\n      dup1\n        /* \"#utility.yul\":7560:7562   */\n      0x40\n        /* \"#utility.yul\":7548:7557   */\n      dup4\n        /* \"#utility.yul\":7539:7546   */\n      dup6\n        /* \"#utility.yul\":7535:7558   */\n      sub\n        /* \"#utility.yul\":7531:7563   */\n      slt\n        /* \"#utility.yul\":7528:7647   */\n      iszero\n      tag_444\n      jumpi\n        /* \"#utility.yul\":7566:7645   */\n      tag_445\n      tag_279\n      jump\t// in\n    tag_445:\n        /* \"#utility.yul\":7528:7647   */\n    tag_444:\n        /* \"#utility.yul\":7714:7715   */\n      0x00\n        /* \"#utility.yul\":7703:7712   */\n      dup4\n        /* \"#utility.yul\":7699:7716   */\n      add\n        /* \"#utility.yul\":7686:7717   */\n      calldataload\n        /* \"#utility.yul\":7744:7762   */\n      0xffffffffffffffff\n        /* \"#utility.yul\":7736:7742   */\n      dup2\n        /* \"#utility.yul\":7733:7763   */\n      gt\n        /* \"#utility.yul\":7730:7847   */\n      iszero\n      tag_446\n      jumpi\n        /* \"#utility.yul\":7766:7845   */\n      tag_447\n      tag_280\n      jump\t// in\n    tag_447:\n        /* \"#utility.yul\":7730:7847   */\n    tag_446:\n        /* \"#utility.yul\":7871:7959   */\n      tag_448\n        /* \"#utility.yul\":7951:7958   */\n      dup6\n        /* \"#utility.yul\":7942:7948   */\n      dup3\n        /* \"#utility.yul\":7931:7940   */\n      dup7\n        /* \"#utility.yul\":7927:7949   */\n      add\n        /* \"#utility.yul\":7871:7959   */\n      tag_298\n      jump\t// in\n    tag_448:\n        /* \"#utility.yul\":7861:7959   */\n      swap3\n      pop\n        /* \"#utility.yul\":7657:7969   */\n      pop\n        /* \"#utility.yul\":8036:8038   */\n      0x20\n        /* \"#utility.yul\":8025:8034   */\n      dup4\n        /* \"#utility.yul\":8021:8039   */\n      add\n        /* \"#utility.yul\":8008:8040   */\n      calldataload\n        /* \"#utility.yul\":8067:8085   */\n      0xffffffffffffffff\n        /* \"#utility.yul\":8059:8065   */\n      dup2\n        /* \"#utility.yul\":8056:8086   */\n      gt\n        /* \"#utility.yul\":8053:8170   */\n      iszero\n      tag_449\n      jumpi\n        /* \"#utility.yul\":8089:8168   */\n      tag_450\n      tag_280\n      jump\t// in\n    tag_450:\n        /* \"#utility.yul\":8053:8170   */\n    tag_449:\n        /* \"#utility.yul\":8194:8272   */\n      tag_451\n        /* \"#utility.yul\":8264:8271   */\n      dup6\n        /* \"#utility.yul\":8255:8261   */\n      dup3\n        /* \"#utility.yul\":8244:8253   */\n      dup7\n        /* \"#utility.yul\":8240:8262   */\n      add\n        /* \"#utility.yul\":8194:8272   */\n      tag_303\n      jump\t// in\n    tag_451:\n        /* \"#utility.yul\":8184:8272   */\n      swap2\n      pop\n        /* \"#utility.yul\":7979:8282   */\n      pop\n        /* \"#utility.yul\":7375:8289   */\n      swap3\n      pop\n      swap3\n      swap1\n      pop\n      jump\t// out\n        /* \"#utility.yul\":8295:8412   */\n    tag_304:\n        /* \"#utility.yul\":8404:8405   */\n      0x00\n        /* \"#utility.yul\":8401:8402   */\n      dup1\n        /* \"#utility.yul\":8394:8406   */\n      revert\n        /* \"#utility.yul\":8435:9003   */\n    tag_305:\n        /* \"#utility.yul\":8508:8516   */\n      0x00\n        /* \"#utility.yul\":8518:8524   */\n      dup1\n        /* \"#utility.yul\":8568:8571   */\n      dup4\n        /* \"#utility.yul\":8561:8565   */\n      0x1f\n        /* \"#utility.yul\":8553:8559   */\n      dup5\n        /* \"#utility.yul\":8549:8566   */\n      add\n        /* \"#utility.yul\":8545:8572   */\n      slt\n        /* \"#utility.yul\":8535:8657   */\n      tag_454\n      jumpi\n        /* \"#utility.yul\":8576:8655   */\n      tag_455\n      tag_285\n      jump\t// in\n    tag_455:\n        /* \"#utility.yul\":8535:8657   */\n    tag_454:\n        /* \"#utility.yul\":8689:8695   */\n      dup3\n        /* \"#utility.yul\":8676:8696   */\n      calldataload\n        /* \"#utility.yul\":8666:8696   */\n      swap1\n      pop\n        /* \"#utility.yul\":8719:8737   */\n      0xffffffffffffffff\n        /* \"#utility.yul\":8711:8717   */\n      dup2\n        /* \"#utility.yul\":8708:8738   */\n      gt\n        /* \"#utility.yul\":8705:8822   */\n      iszero\n      tag_456\n      jumpi\n        /* \"#utility.yul\":8741:8820   */\n      tag_457\n      tag_304\n      jump\t// in\n    tag_457:\n        /* \"#utility.yul\":8705:8822   */\n    tag_456:\n        /* \"#utility.yul\":8855:8859   */\n      0x20\n        /* \"#utility.yul\":8847:8853   */\n      dup4\n        /* \"#utility.yul\":8843:8860   */\n      add\n        /* \"#utility.yul\":8831:8860   */\n      swap2\n      pop\n        /* \"#utility.yul\":8909:8912   */\n      dup4\n        /* \"#utility.yul\":8901:8905   */\n      0x20\n        /* \"#utility.yul\":8893:8899   */\n      dup3\n        /* \"#utility.yul\":8889:8906   */\n      mul\n        /* \"#utility.yul\":8879:8887   */\n      dup4\n        /* \"#utility.yul\":8875:8907   */\n      add\n        /* \"#utility.yul\":8872:8913   */\n      gt\n        /* \"#utility.yul\":8869:8997   */\n      iszero\n      tag_458\n      jumpi\n        /* \"#utility.yul\":8916:8995   */\n      tag_459\n      tag_291\n      jump\t// in\n    tag_459:\n        /* \"#utility.yul\":8869:8997   */\n    tag_458:\n        /* \"#utility.yul\":8435:9003   */\n      swap3\n      pop\n      swap3\n      swap1\n      pop\n      jump\t// out\n        /* \"#utility.yul\":9026:9594   */\n    tag_306:\n        /* \"#utility.yul\":9099:9107   */\n      0x00\n        /* \"#utility.yul\":9109:9115   */\n      dup1\n        /* \"#utility.yul\":9159:9162   */\n      dup4\n        /* \"#utility.yul\":9152:9156   */\n      0x1f\n        /* \"#utility.yul\":9144:9150   */\n      dup5\n        /* \"#utility.yul\":9140:9157   */\n      add\n        /* \"#utility.yul\":9136:9163   */\n      slt\n        /* \"#utility.yul\":9126:9248   */\n      tag_461\n      jumpi\n        /* \"#utility.yul\":9167:9246   */\n      tag_462\n      tag_285\n      jump\t// in\n    tag_462:\n        /* \"#utility.yul\":9126:9248   */\n    tag_461:\n        /* \"#utility.yul\":9280:9286   */\n      dup3\n        /* \"#utility.yul\":9267:9287   */\n      calldataload\n        /* \"#utility.yul\":9257:9287   */\n      swap1\n      pop\n        /* \"#utility.yul\":9310:9328   */\n      0xffffffffffffffff\n        /* \"#utility.yul\":9302:9308   */\n      dup2\n        /* \"#utility.yul\":9299:9329   */\n      gt\n        /* \"#utility.yul\":9296:9413   */\n      iszero\n      tag_463\n      jumpi\n        /* \"#utility.yul\":9332:9411   */\n      tag_464\n      tag_304\n      jump\t// in\n    tag_464:\n        /* \"#utility.yul\":9296:9413   */\n    tag_463:\n        /* \"#utility.yul\":9446:9450   */\n      0x20\n        /* \"#utility.yul\":9438:9444   */\n      dup4\n        /* \"#utility.yul\":9434:9451   */\n      add\n        /* \"#utility.yul\":9422:9451   */\n      swap2\n      pop\n        /* \"#utility.yul\":9500:9503   */\n      dup4\n        /* \"#utility.yul\":9492:9496   */\n      0x20\n        /* \"#utility.yul\":9484:9490   */\n      dup3\n        /* \"#utility.yul\":9480:9497   */\n      mul\n        /* \"#utility.yul\":9470:9478   */\n      dup4\n        /* \"#utility.yul\":9466:9498   */\n      add\n        /* \"#utility.yul\":9463:9504   */\n      gt\n        /* \"#utility.yul\":9460:9588   */\n      iszero\n      tag_465\n      jumpi\n        /* \"#utility.yul\":9507:9586   */\n      tag_466\n      tag_291\n      jump\t// in\n    tag_466:\n        /* \"#utility.yul\":9460:9588   */\n    tag_465:\n        /* \"#utility.yul\":9026:9594   */\n      swap3\n      pop\n      swap3\n      swap1\n      pop\n      jump\t// out\n        /* \"#utility.yul\":9600:10534   */\n    tag_50:\n        /* \"#utility.yul\":9722:9728   */\n      0x00\n        /* \"#utility.yul\":9730:9736   */\n      dup1\n        /* \"#utility.yul\":9738:9744   */\n      0x00\n        /* \"#utility.yul\":9746:9752   */\n      dup1\n        /* \"#utility.yul\":9795:9797   */\n      0x40\n        /* \"#utility.yul\":9783:9792   */\n      dup6\n        /* \"#utility.yul\":9774:9781   */\n      dup8\n        /* \"#utility.yul\":9770:9793   */\n      sub\n        /* \"#utility.yul\":9766:9798   */\n      slt\n        /* \"#utility.yul\":9763:9882   */\n      iszero\n      tag_468\n      jumpi\n        /* \"#utility.yul\":9801:9880   */\n      tag_469\n      tag_279\n      jump\t// in\n    tag_469:\n        /* \"#utility.yul\":9763:9882   */\n    tag_468:\n        /* \"#utility.yul\":9949:9950   */\n      0x00\n        /* \"#utility.yul\":9938:9947   */\n      dup6\n        /* \"#utility.yul\":9934:9951   */\n      add\n        /* \"#utility.yul\":9921:9952   */\n      calldataload\n        /* \"#utility.yul\":9979:9997   */\n      0xffffffffffffffff\n        /* \"#utility.yul\":9971:9977   */\n      dup2\n        /* \"#utility.yul\":9968:9998   */\n      gt\n        /* \"#utility.yul\":9965:10082   */\n      iszero\n      tag_470\n      jumpi\n        /* \"#utility.yul\":10001:10080   */\n      tag_471\n      tag_280\n      jump\t// in\n    tag_471:\n        /* \"#utility.yul\":9965:10082   */\n    tag_470:\n        /* \"#utility.yul\":10114:10194   */\n      tag_472\n        /* \"#utility.yul\":10186:10193   */\n      dup8\n        /* \"#utility.yul\":10177:10183   */\n      dup3\n        /* \"#utility.yul\":10166:10175   */\n      dup9\n        /* \"#utility.yul\":10162:10184   */\n      add\n        /* \"#utility.yul\":10114:10194   */\n      tag_305\n      jump\t// in\n    tag_472:\n        /* \"#utility.yul\":10096:10194   */\n      swap5\n      pop\n      swap5\n      pop\n        /* \"#utility.yul\":9892:10204   */\n      pop\n        /* \"#utility.yul\":10271:10273   */\n      0x20\n        /* \"#utility.yul\":10260:10269   */\n      dup6\n        /* \"#utility.yul\":10256:10274   */\n      add\n        /* \"#utility.yul\":10243:10275   */\n      calldataload\n        /* \"#utility.yul\":10302:10320   */\n      0xffffffffffffffff\n        /* \"#utility.yul\":10294:10300   */\n      dup2\n        /* \"#utility.yul\":10291:10321   */\n      gt\n        /* \"#utility.yul\":10288:10405   */\n      iszero\n      tag_473\n      jumpi\n        /* \"#utility.yul\":10324:10403   */\n      tag_474\n      tag_280\n      jump\t// in\n    tag_474:\n        /* \"#utility.yul\":10288:10405   */\n    tag_473:\n        /* \"#utility.yul\":10437:10517   */\n      tag_475\n        /* \"#utility.yul\":10509:10516   */\n      dup8\n        /* \"#utility.yul\":10500:10506   */\n      dup3\n        /* \"#utility.yul\":10489:10498   */\n      dup9\n        /* \"#utility.yul\":10485:10507   */\n      add\n        /* \"#utility.yul\":10437:10517   */\n      tag_306\n      jump\t// in\n    tag_475:\n        /* \"#utility.yul\":10419:10517   */\n      swap3\n      pop\n      swap3\n      pop\n        /* \"#utility.yul\":10214:10527   */\n      pop\n        /* \"#utility.yul\":9600:10534   */\n      swap3\n      swap6\n      swap2\n      swap5\n      pop\n      swap3\n      pop\n      jump\t// out\n        /* \"#utility.yul\":10540:10658   */\n    tag_307:\n        /* \"#utility.yul\":10627:10651   */\n      tag_477\n        /* \"#utility.yul\":10645:10650   */\n      dup2\n        /* \"#utility.yul\":10627:10651   */\n      tag_282\n      jump\t// in\n    tag_477:\n        /* \"#utility.yul\":10622:10625   */\n      dup3\n        /* \"#utility.yul\":10615:10652   */\n      mstore\n        /* \"#utility.yul\":10540:10658   */\n      pop\n      pop\n      jump\t// out\n        /* \"#utility.yul\":10664:10886   */\n    tag_55:\n        /* \"#utility.yul\":10757:10761   */\n      0x00\n        /* \"#utility.yul\":10795:10797   */\n      0x20\n        /* \"#utility.yul\":10784:10793   */\n      dup3\n        /* \"#utility.yul\":10780:10798   */\n      add\n        /* \"#utility.yul\":10772:10798   */\n      swap1\n      pop\n        /* \"#utility.yul\":10808:10879   */\n      tag_479\n        /* \"#utility.yul\":10876:10877   */\n      0x00\n        /* \"#utility.yul\":10865:10874   */\n      dup4\n        /* \"#utility.yul\":10861:10878   */\n      add\n        /* \"#utility.yul\":10852:10858   */\n      dup5\n        /* \"#utility.yul\":10808:10879   */\n      tag_307\n      jump\t// in\n    tag_479:\n        /* \"#utility.yul\":10664:10886   */\n      swap3\n      swap2\n      pop\n      pop\n      jump\t// out\n        /* \"#utility.yul\":10892:11221   */\n    tag_61:\n        /* \"#utility.yul\":10951:10957   */\n      0x00\n        /* \"#utility.yul\":11000:11002   */\n      0x20\n        /* \"#utility.yul\":10988:10997   */\n      dup3\n        /* \"#utility.yul\":10979:10986   */\n      dup5\n        /* \"#utility.yul\":10975:10998   */\n      sub\n        /* \"#utility.yul\":10971:11003   */\n      slt\n        /* \"#utility.yul\":10968:11087   */\n      iszero\n      tag_481\n      jumpi\n        /* \"#utility.yul\":11006:11085   */\n      tag_482\n      tag_279\n      jump\t// in\n    tag_482:\n        /* \"#utility.yul\":10968:11087   */\n    tag_481:\n        /* \"#utility.yul\":11126:11127   */\n      0x00\n        /* \"#utility.yul\":11151:11204   */\n      tag_483\n        /* \"#utility.yul\":11196:11203   */\n      dup5\n        /* \"#utility.yul\":11187:11193   */\n      dup3\n        /* \"#utility.yul\":11176:11185   */\n      dup6\n        /* \"#utility.yul\":11172:11194   */\n      add\n        /* \"#utility.yul\":11151:11204   */\n      tag_301\n      jump\t// in\n    tag_483:\n        /* \"#utility.yul\":11141:11204   */\n      swap2\n      pop\n        /* \"#utility.yul\":11097:11214   */\n      pop\n        /* \"#utility.yul\":10892:11221   */\n      swap3\n      swap2\n      pop\n      pop\n      jump\t// out\n        /* \"#utility.yul\":11227:11287   */\n    tag_308:\n        /* \"#utility.yul\":11255:11258   */\n      0x00\n        /* \"#utility.yul\":11276:11281   */\n      dup2\n        /* \"#utility.yul\":11269:11281   */\n      swap1\n      pop\n        /* \"#utility.yul\":11227:11287   */\n      swap2\n      swap1\n      pop\n      jump\t// out\n        /* \"#utility.yul\":11293:11435   */\n    tag_309:\n        /* \"#utility.yul\":11343:11352   */\n      0x00\n        /* \"#utility.yul\":11376:11429   */\n      tag_486\n        /* \"#utility.yul\":11394:11428   */\n      tag_487\n        /* \"#utility.yul\":11403:11427   */\n      tag_488\n        /* \"#utility.yul\":11421:11426   */\n      dup5\n        /* \"#utility.yul\":11403:11427   */\n      tag_281\n      jump\t// in\n    tag_488:\n        /* \"#utility.yul\":11394:11428   */\n      tag_308\n      jump\t// in\n    tag_487:\n        /* \"#utility.yul\":11376:11429   */\n      tag_281\n      jump\t// in\n    tag_486:\n        /* \"#utility.yul\":11363:11429   */\n      swap1\n      pop\n        /* \"#utility.yul\":11293:11435   */\n      swap2\n      swap1\n      pop\n      jump\t// out\n        /* \"#utility.yul\":11441:11567   */\n    tag_310:\n        /* \"#utility.yul\":11491:11500   */\n      0x00\n        /* \"#utility.yul\":11524:11561   */\n      tag_490\n        /* \"#utility.yul\":11555:11560   */\n      dup3\n        /* \"#utility.yul\":11524:11561   */\n      tag_309\n      jump\t// in\n    tag_490:\n        /* \"#utility.yul\":11511:11561   */\n      swap1\n      pop\n        /* \"#utility.yul\":11441:11567   */\n      swap2\n      swap1\n      pop\n      jump\t// out\n        /* \"#utility.yul\":11573:11713   */\n    tag_311:\n        /* \"#utility.yul\":11637:11646   */\n      0x00\n        /* \"#utility.yul\":11670:11707   */\n      tag_492\n        /* \"#utility.yul\":11701:11706   */\n      dup3\n        /* \"#utility.yul\":11670:11707   */\n      tag_310\n      jump\t// in\n    tag_492:\n        /* \"#utility.yul\":11657:11707   */\n      swap1\n      pop\n        /* \"#utility.yul\":11573:11713   */\n      swap2\n      swap1\n      pop\n      jump\t// out\n        /* \"#utility.yul\":11719:11878   */\n    tag_312:\n        /* \"#utility.yul\":11820:11871   */\n      tag_494\n        /* \"#utility.yul\":11865:11870   */\n      dup2\n        /* \"#utility.yul\":11820:11871   */\n      tag_311\n      jump\t// in\n    tag_494:\n        /* \"#utility.yul\":11815:11818   */\n      dup3\n        /* \"#utility.yul\":11808:11872   */\n      mstore\n        /* \"#utility.yul\":11719:11878   */\n      pop\n      pop\n      jump\t// out\n        /* \"#utility.yul\":11884:12134   */\n    tag_84:\n        /* \"#utility.yul\":11991:11995   */\n      0x00\n        /* \"#utility.yul\":12029:12031   */\n      0x20\n        /* \"#utility.yul\":12018:12027   */\n      dup3\n        /* \"#utility.yul\":12014:12032   */\n      add\n        /* \"#utility.yul\":12006:12032   */\n      swap1\n      pop\n        /* \"#utility.yul\":12042:12127   */\n      tag_496\n        /* \"#utility.yul\":12124:12125   */\n      0x00\n        /* \"#utility.yul\":12113:12122   */\n      dup4\n        /* \"#utility.yul\":12109:12126   */\n      add\n        /* \"#utility.yul\":12100:12106   */\n      dup5\n        /* \"#utility.yul\":12042:12127   */\n      tag_312\n      jump\t// in\n    tag_496:\n        /* \"#utility.yul\":11884:12134   */\n      swap3\n      swap2\n      pop\n      pop\n      jump\t// out\n        /* \"#utility.yul\":12140:12320   */\n    tag_313:\n        /* \"#utility.yul\":12188:12265   */\n      0x4e487b7100000000000000000000000000000000000000000000000000000000\n        /* \"#utility.yul\":12185:12186   */\n      0x00\n        /* \"#utility.yul\":12178:12266   */\n      mstore\n        /* \"#utility.yul\":12285:12289   */\n      0x12\n        /* \"#utility.yul\":12282:12283   */\n      0x04\n        /* \"#utility.yul\":12275:12290   */\n      mstore\n        /* \"#utility.yul\":12309:12313   */\n      0x24\n        /* \"#utility.yul\":12306:12307   */\n      0x00\n        /* \"#utility.yul\":12299:12314   */\n      revert\n        /* \"#utility.yul\":12326:12506   */\n    tag_314:\n        /* \"#utility.yul\":12374:12451   */\n      0x4e487b7100000000000000000000000000000000000000000000000000000000\n        /* \"#utility.yul\":12371:12372   */\n      0x00\n        /* \"#utility.yul\":12364:12452   */\n      mstore\n        /* \"#utility.yul\":12471:12475   */\n      0x11\n        /* \"#utility.yul\":12468:12469   */\n      0x04\n        /* \"#utility.yul\":12461:12476   */\n      mstore\n        /* \"#utility.yul\":12495:12499   */\n      0x24\n        /* \"#utility.yul\":12492:12493   */\n      0x00\n        /* \"#utility.yul\":12485:12500   */\n      revert\n        /* \"#utility.yul\":12512:12697   */\n    tag_91:\n        /* \"#utility.yul\":12552:12553   */\n      0x00\n        /* \"#utility.yul\":12569:12589   */\n      tag_500\n        /* \"#utility.yul\":12587:12588   */\n      dup3\n        /* \"#utility.yul\":12569:12589   */\n      tag_276\n      jump\t// in\n    tag_500:\n        /* \"#utility.yul\":12564:12589   */\n      swap2\n      pop\n        /* \"#utility.yul\":12603:12623   */\n      tag_501\n        /* \"#utility.yul\":12621:12622   */\n      dup4\n        /* \"#utility.yul\":12603:12623   */\n      tag_276\n      jump\t// in\n    tag_501:\n        /* \"#utility.yul\":12598:12623   */\n      swap3\n      pop\n        /* \"#utility.yul\":12642:12643   */\n      dup3\n        /* \"#utility.yul\":12632:12667   */\n      tag_502\n      jumpi\n        /* \"#utility.yul\":12647:12665   */\n      tag_503\n      tag_313\n      jump\t// in\n    tag_503:\n        /* \"#utility.yul\":12632:12667   */\n    tag_502:\n        /* \"#utility.yul\":12689:12690   */\n      dup3\n        /* \"#utility.yul\":12686:12687   */\n      dup3\n        /* \"#utility.yul\":12682:12691   */\n      div\n        /* \"#utility.yul\":12677:12691   */\n      swap1\n      pop\n        /* \"#utility.yul\":12512:12697   */\n      swap3\n      swap2\n      pop\n      pop\n      jump\t// out\n        /* \"#utility.yul\":12703:12872   */\n    tag_315:\n        /* \"#utility.yul\":12787:12798   */\n      0x00\n        /* \"#utility.yul\":12821:12827   */\n      dup3\n        /* \"#utility.yul\":12816:12819   */\n      dup3\n        /* \"#utility.yul\":12809:12828   */\n      mstore\n        /* \"#utility.yul\":12861:12865   */\n      0x20\n        /* \"#utility.yul\":12856:12859   */\n      dup3\n        /* \"#utility.yul\":12852:12866   */\n      add\n        /* \"#utility.yul\":12837:12866   */\n      swap1\n      pop\n        /* \"#utility.yul\":12703:12872   */\n      swap3\n      swap2\n      pop\n      pop\n      jump\t// out\n        /* \"#utility.yul\":12878:13179   */\n    tag_316:\n        /* \"#utility.yul\":13018:13052   */\n      0x506c6561736520636865636b2074686520646174612c20746865206e65777320\n        /* \"#utility.yul\":13014:13015   */\n      0x00\n        /* \"#utility.yul\":13006:13012   */\n      dup3\n        /* \"#utility.yul\":13002:13016   */\n      add\n        /* \"#utility.yul\":12995:13053   */\n      mstore\n        /* \"#utility.yul\":13087:13121   */\n      0x494420616e6420646973747269627574696f6e207175616e7469747920617265\n        /* \"#utility.yul\":13082:13084   */\n      0x20\n        /* \"#utility.yul\":13074:13080   */\n      dup3\n        /* \"#utility.yul\":13070:13085   */\n      add\n        /* \"#utility.yul\":13063:13122   */\n      mstore\n        /* \"#utility.yul\":13156:13171   */\n      0x20696e636f6e73697374656e7400000000000000000000000000000000000000\n        /* \"#utility.yul\":13151:13153   */\n      0x40\n        /* \"#utility.yul\":13143:13149   */\n      dup3\n        /* \"#utility.yul\":13139:13154   */\n      add\n        /* \"#utility.yul\":13132:13172   */\n      mstore\n        /* \"#utility.yul\":12878:13179   */\n      pop\n      jump\t// out\n        /* \"#utility.yul\":13185:13551   */\n    tag_317:\n        /* \"#utility.yul\":13327:13330   */\n      0x00\n        /* \"#utility.yul\":13348:13415   */\n      tag_507\n        /* \"#utility.yul\":13412:13414   */\n      0x4d\n        /* \"#utility.yul\":13407:13410   */\n      dup4\n        /* \"#utility.yul\":13348:13415   */\n      tag_315\n      jump\t// in\n    tag_507:\n        /* \"#utility.yul\":13341:13415   */\n      swap2\n      pop\n        /* \"#utility.yul\":13424:13517   */\n      tag_508\n        /* \"#utility.yul\":13513:13516   */\n      dup3\n        /* \"#utility.yul\":13424:13517   */\n      tag_316\n      jump\t// in\n    tag_508:\n        /* \"#utility.yul\":13542:13544   */\n      0x60\n        /* \"#utility.yul\":13537:13540   */\n      dup3\n        /* \"#utility.yul\":13533:13545   */\n      add\n        /* \"#utility.yul\":13526:13545   */\n      swap1\n      pop\n        /* \"#utility.yul\":13185:13551   */\n      swap2\n      swap1\n      pop\n      jump\t// out\n        /* \"#utility.yul\":13557:13976   */\n    tag_105:\n        /* \"#utility.yul\":13723:13727   */\n      0x00\n        /* \"#utility.yul\":13761:13763   */\n      0x20\n        /* \"#utility.yul\":13750:13759   */\n      dup3\n        /* \"#utility.yul\":13746:13764   */\n      add\n        /* \"#utility.yul\":13738:13764   */\n      swap1\n      pop\n        /* \"#utility.yul\":13810:13819   */\n      dup2\n        /* \"#utility.yul\":13804:13808   */\n      dup2\n        /* \"#utility.yul\":13800:13820   */\n      sub\n        /* \"#utility.yul\":13796:13797   */\n      0x00\n        /* \"#utility.yul\":13785:13794   */\n      dup4\n        /* \"#utility.yul\":13781:13798   */\n      add\n        /* \"#utility.yul\":13774:13821   */\n      mstore\n        /* \"#utility.yul\":13838:13969   */\n      tag_510\n        /* \"#utility.yul\":13964:13968   */\n      dup2\n        /* \"#utility.yul\":13838:13969   */\n      tag_317\n      jump\t// in\n    tag_510:\n        /* \"#utility.yul\":13830:13969   */\n      swap1\n      pop\n        /* \"#utility.yul\":13557:13976   */\n      swap2\n      swap1\n      pop\n      jump\t// out\n        /* \"#utility.yul\":13982:14163   */\n    tag_318:\n        /* \"#utility.yul\":14122:14155   */\n      0x52656c656173653a206e6565642073657420546f6b656e204164647265737300\n        /* \"#utility.yul\":14118:14119   */\n      0x00\n        /* \"#utility.yul\":14110:14116   */\n      dup3\n        /* \"#utility.yul\":14106:14120   */\n      add\n        /* \"#utility.yul\":14099:14156   */\n      mstore\n        /* \"#utility.yul\":13982:14163   */\n      pop\n      jump\t// out\n        /* \"#utility.yul\":14169:14535   */\n    tag_319:\n        /* \"#utility.yul\":14311:14314   */\n      0x00\n        /* \"#utility.yul\":14332:14399   */\n      tag_513\n        /* \"#utility.yul\":14396:14398   */\n      0x1f\n        /* \"#utility.yul\":14391:14394   */\n      dup4\n        /* \"#utility.yul\":14332:14399   */\n      tag_315\n      jump\t// in\n    tag_513:\n        /* \"#utility.yul\":14325:14399   */\n      swap2\n      pop\n        /* \"#utility.yul\":14408:14501   */\n      tag_514\n        /* \"#utility.yul\":14497:14500   */\n      dup3\n        /* \"#utility.yul\":14408:14501   */\n      tag_318\n      jump\t// in\n    tag_514:\n        /* \"#utility.yul\":14526:14528   */\n      0x20\n        /* \"#utility.yul\":14521:14524   */\n      dup3\n        /* \"#utility.yul\":14517:14529   */\n      add\n        /* \"#utility.yul\":14510:14529   */\n      swap1\n      pop\n        /* \"#utility.yul\":14169:14535   */\n      swap2\n      swap1\n      pop\n      jump\t// out\n        /* \"#utility.yul\":14541:14960   */\n    tag_109:\n        /* \"#utility.yul\":14707:14711   */\n      0x00\n        /* \"#utility.yul\":14745:14747   */\n      0x20\n        /* \"#utility.yul\":14734:14743   */\n      dup3\n        /* \"#utility.yul\":14730:14748   */\n      add\n        /* \"#utility.yul\":14722:14748   */\n      swap1\n      pop\n        /* \"#utility.yul\":14794:14803   */\n      dup2\n        /* \"#utility.yul\":14788:14792   */\n      dup2\n        /* \"#utility.yul\":14784:14804   */\n      sub\n        /* \"#utility.yul\":14780:14781   */\n      0x00\n        /* \"#utility.yul\":14769:14778   */\n      dup4\n        /* \"#utility.yul\":14765:14782   */\n      add\n        /* \"#utility.yul\":14758:14805   */\n      mstore\n        /* \"#utility.yul\":14822:14953   */\n      tag_516\n        /* \"#utility.yul\":14948:14952   */\n      dup2\n        /* \"#utility.yul\":14822:14953   */\n      tag_319\n      jump\t// in\n    tag_516:\n        /* \"#utility.yul\":14814:14953   */\n      swap1\n      pop\n        /* \"#utility.yul\":14541:14960   */\n      swap2\n      swap1\n      pop\n      jump\t// out\n        /* \"#utility.yul\":14966:15196   */\n    tag_320:\n        /* \"#utility.yul\":15106:15140   */\n      0x52656c656173653a206e65656420736574204368616c6c656e6720436f6e7472\n        /* \"#utility.yul\":15102:15103   */\n      0x00\n        /* \"#utility.yul\":15094:15100   */\n      dup3\n        /* \"#utility.yul\":15090:15104   */\n      add\n        /* \"#utility.yul\":15083:15141   */\n      mstore\n        /* \"#utility.yul\":15175:15188   */\n      0x6163742041646472657373000000000000000000000000000000000000000000\n        /* \"#utility.yul\":15170:15172   */\n      0x20\n        /* \"#utility.yul\":15162:15168   */\n      dup3\n        /* \"#utility.yul\":15158:15173   */\n      add\n        /* \"#utility.yul\":15151:15189   */\n      mstore\n        /* \"#utility.yul\":14966:15196   */\n      pop\n      jump\t// out\n        /* \"#utility.yul\":15202:15568   */\n    tag_321:\n        /* \"#utility.yul\":15344:15347   */\n      0x00\n        /* \"#utility.yul\":15365:15432   */\n      tag_519\n        /* \"#utility.yul\":15429:15431   */\n      0x2b\n        /* \"#utility.yul\":15424:15427   */\n      dup4\n        /* \"#utility.yul\":15365:15432   */\n      tag_315\n      jump\t// in\n    tag_519:\n        /* \"#utility.yul\":15358:15432   */\n      swap2\n      pop\n        /* \"#utility.yul\":15441:15534   */\n      tag_520\n        /* \"#utility.yul\":15530:15533   */\n      dup3\n        /* \"#utility.yul\":15441:15534   */\n      tag_320\n      jump\t// in\n    tag_520:\n        /* \"#utility.yul\":15559:15561   */\n      0x40\n        /* \"#utility.yul\":15554:15557   */\n      dup3\n        /* \"#utility.yul\":15550:15562   */\n      add\n        /* \"#utility.yul\":15543:15562   */\n      swap1\n      pop\n        /* \"#utility.yul\":15202:15568   */\n      swap2\n      swap1\n      pop\n      jump\t// out\n        /* \"#utility.yul\":15574:15993   */\n    tag_113:\n        /* \"#utility.yul\":15740:15744   */\n      0x00\n        /* \"#utility.yul\":15778:15780   */\n      0x20\n        /* \"#utility.yul\":15767:15776   */\n      dup3\n        /* \"#utility.yul\":15763:15781   */\n      add\n        /* \"#utility.yul\":15755:15781   */\n      swap1\n      pop\n        /* \"#utility.yul\":15827:15836   */\n      dup2\n        /* \"#utility.yul\":15821:15825   */\n      dup2\n        /* \"#utility.yul\":15817:15837   */\n      sub\n        /* \"#utility.yul\":15813:15814   */\n      0x00\n        /* \"#utility.yul\":15802:15811   */\n      dup4\n        /* \"#utility.yul\":15798:15815   */\n      add\n        /* \"#utility.yul\":15791:15838   */\n      mstore\n        /* \"#utility.yul\":15855:15986   */\n      tag_522\n        /* \"#utility.yul\":15981:15985   */\n      dup2\n        /* \"#utility.yul\":15855:15986   */\n      tag_321\n      jump\t// in\n    tag_522:\n        /* \"#utility.yul\":15847:15986   */\n      swap1\n      pop\n        /* \"#utility.yul\":15574:15993   */\n      swap2\n      swap1\n      pop\n      jump\t// out\n        /* \"#utility.yul\":15999:16179   */\n    tag_119:\n        /* \"#utility.yul\":16047:16124   */\n      0x4e487b7100000000000000000000000000000000000000000000000000000000\n        /* \"#utility.yul\":16044:16045   */\n      0x00\n        /* \"#utility.yul\":16037:16125   */\n      mstore\n        /* \"#utility.yul\":16144:16148   */\n      0x32\n        /* \"#utility.yul\":16141:16142   */\n      0x04\n        /* \"#utility.yul\":16134:16149   */\n      mstore\n        /* \"#utility.yul\":16168:16172   */\n      0x24\n        /* \"#utility.yul\":16165:16166   */\n      0x00\n        /* \"#utility.yul\":16158:16173   */\n      revert\n        /* \"#utility.yul\":16185:16376   */\n    tag_121:\n        /* \"#utility.yul\":16225:16228   */\n      0x00\n        /* \"#utility.yul\":16244:16264   */\n      tag_525\n        /* \"#utility.yul\":16262:16263   */\n      dup3\n        /* \"#utility.yul\":16244:16264   */\n      tag_276\n      jump\t// in\n    tag_525:\n        /* \"#utility.yul\":16239:16264   */\n      swap2\n      pop\n        /* \"#utility.yul\":16278:16298   */\n      tag_526\n        /* \"#utility.yul\":16296:16297   */\n      dup4\n        /* \"#utility.yul\":16278:16298   */\n      tag_276\n      jump\t// in\n    tag_526:\n        /* \"#utility.yul\":16273:16298   */\n      swap3\n      pop\n        /* \"#utility.yul\":16321:16322   */\n      dup3\n        /* \"#utility.yul\":16318:16319   */\n      dup3\n        /* \"#utility.yul\":16314:16323   */\n      add\n        /* \"#utility.yul\":16307:16323   */\n      swap1\n      pop\n        /* \"#utility.yul\":16342:16345   */\n      dup1\n        /* \"#utility.yul\":16339:16340   */\n      dup3\n        /* \"#utility.yul\":16336:16346   */\n      gt\n        /* \"#utility.yul\":16333:16369   */\n      iszero\n      tag_527\n      jumpi\n        /* \"#utility.yul\":16349:16367   */\n      tag_528\n      tag_314\n      jump\t// in\n    tag_528:\n        /* \"#utility.yul\":16333:16369   */\n    tag_527:\n        /* \"#utility.yul\":16185:16376   */\n      swap3\n      swap2\n      pop\n      pop\n      jump\t// out\n        /* \"#utility.yul\":16382:16615   */\n    tag_123:\n        /* \"#utility.yul\":16421:16424   */\n      0x00\n        /* \"#utility.yul\":16444:16468   */\n      tag_530\n        /* \"#utility.yul\":16462:16467   */\n      dup3\n        /* \"#utility.yul\":16444:16468   */\n      tag_276\n      jump\t// in\n    tag_530:\n        /* \"#utility.yul\":16435:16468   */\n      swap2\n      pop\n        /* \"#utility.yul\":16490:16556   */\n      0xffffffffffffffffffffffffffffffffffffffffffffffffffffffffffffffff\n        /* \"#utility.yul\":16483:16488   */\n      dup3\n        /* \"#utility.yul\":16480:16557   */\n      sub\n        /* \"#utility.yul\":16477:16580   */\n      tag_531\n      jumpi\n        /* \"#utility.yul\":16560:16578   */\n      tag_532\n      tag_314\n      jump\t// in\n    tag_532:\n        /* \"#utility.yul\":16477:16580   */\n    tag_531:\n        /* \"#utility.yul\":16607:16608   */\n      0x01\n        /* \"#utility.yul\":16600:16605   */\n      dup3\n        /* \"#utility.yul\":16596:16609   */\n      add\n        /* \"#utility.yul\":16589:16609   */\n      swap1\n      pop\n        /* \"#utility.yul\":16382:16615   */\n      swap2\n      swap1\n      pop\n      jump\t// out\n        /* \"#utility.yul\":16621:16869   */\n    tag_322:\n        /* \"#utility.yul\":16761:16795   */\n      0x52656c656173653a20496e73756666696369656e7420746f74616c20616d6f75\n        /* \"#utility.yul\":16757:16758   */\n      0x00\n        /* \"#utility.yul\":16749:16755   */\n      dup3\n        /* \"#utility.yul\":16745:16759   */\n      add\n        /* \"#utility.yul\":16738:16796   */\n      mstore\n        /* \"#utility.yul\":16830:16861   */\n      0x6e7420617661696c61626c6520666f7220646973747269627574696f6e000000\n        /* \"#utility.yul\":16825:16827   */\n      0x20\n        /* \"#utility.yul\":16817:16823   */\n      dup3\n        /* \"#utility.yul\":16813:16828   */\n      add\n        /* \"#utility.yul\":16806:16862   */\n      mstore\n        /* \"#utility.yul\":16621:16869   */\n      pop\n      jump\t// out\n        /* \"#utility.yul\":16875:17241   */\n    tag_323:\n        /* \"#utility.yul\":17017:17020   */\n      0x00\n        /* \"#utility.yul\":17038:17105   */\n      tag_535\n        /* \"#utility.yul\":17102:17104   */\n      0x3d\n        /* \"#utility.yul\":17097:17100   */\n      dup4\n        /* \"#utility.yul\":17038:17105   */\n      tag_315\n      jump\t// in\n    tag_535:\n        /* \"#utility.yul\":17031:17105   */\n      swap2\n      pop\n        /* \"#utility.yul\":17114:17207   */\n      tag_536\n        /* \"#utility.yul\":17203:17206   */\n      dup3\n        /* \"#utility.yul\":17114:17207   */\n      tag_322\n      jump\t// in\n    tag_536:\n        /* \"#utility.yul\":17232:17234   */\n      0x40\n        /* \"#utility.yul\":17227:17230   */\n      dup3\n        /* \"#utility.yul\":17223:17235   */\n      add\n        /* \"#utility.yul\":17216:17235   */\n      swap1\n      pop\n        /* \"#utility.yul\":16875:17241   */\n      swap2\n      swap1\n      pop\n      jump\t// out\n        /* \"#utility.yul\":17247:17666   */\n    tag_127:\n        /* \"#utility.yul\":17413:17417   */\n      0x00\n        /* \"#utility.yul\":17451:17453   */\n      0x20\n        /* \"#utility.yul\":17440:17449   */\n      dup3\n        /* \"#utility.yul\":17436:17454   */\n      add\n        /* \"#utility.yul\":17428:17454   */\n      swap1\n      pop\n        /* \"#utility.yul\":17500:17509   */\n      dup2\n        /* \"#utility.yul\":17494:17498   */\n      dup2\n        /* \"#utility.yul\":17490:17510   */\n      sub\n        /* \"#utility.yul\":17486:17487   */\n      0x00\n        /* \"#utility.yul\":17475:17484   */\n      dup4\n        /* \"#utility.yul\":17471:17488   */\n      add\n        /* \"#utility.yul\":17464:17511   */\n      mstore\n        /* \"#utility.yul\":17528:17659   */\n      tag_538\n        /* \"#utility.yul\":17654:17658   */\n      dup2\n        /* \"#utility.yul\":17528:17659   */\n      tag_323\n      jump\t// in\n    tag_538:\n        /* \"#utility.yul\":17520:17659   */\n      swap1\n      pop\n        /* \"#utility.yul\":17247:17666   */\n      swap2\n      swap1\n      pop\n      jump\t// out\n        /* \"#utility.yul\":17672:17771   */\n    tag_324:\n        /* \"#utility.yul\":17724:17730   */\n      0x00\n        /* \"#utility.yul\":17758:17763   */\n      dup2\n        /* \"#utility.yul\":17752:17764   */\n      mload\n        /* \"#utility.yul\":17742:17764   */\n      swap1\n      pop\n        /* \"#utility.yul\":17672:17771   */\n      swap2\n      swap1\n      pop\n      jump\t// out\n        /* \"#utility.yul\":17777:18023   */\n    tag_325:\n        /* \"#utility.yul\":17858:17859   */\n      0x00\n        /* \"#utility.yul\":17868:17981   */\n    tag_541:\n        /* \"#utility.yul\":17882:17888   */\n      dup4\n        /* \"#utility.yul\":17879:17880   */\n      dup2\n        /* \"#utility.yul\":17876:17889   */\n      lt\n        /* \"#utility.yul\":17868:17981   */\n      iszero\n      tag_543\n      jumpi\n        /* \"#utility.yul\":17967:17968   */\n      dup1\n        /* \"#utility.yul\":17962:17965   */\n      dup3\n        /* \"#utility.yul\":17958:17969   */\n      add\n        /* \"#utility.yul\":17952:17970   */\n      mload\n        /* \"#utility.yul\":17948:17949   */\n      dup2\n        /* \"#utility.yul\":17943:17946   */\n      dup5\n        /* \"#utility.yul\":17939:17950   */\n      add\n        /* \"#utility.yul\":17932:17971   */\n      mstore\n        /* \"#utility.yul\":17904:17906   */\n      0x20\n        /* \"#utility.yul\":17901:17902   */\n      dup2\n        /* \"#utility.yul\":17897:17907   */\n      add\n        /* \"#utility.yul\":17892:17907   */\n      swap1\n      pop\n        /* \"#utility.yul\":17868:17981   */\n      jump(tag_541)\n    tag_543:\n        /* \"#utility.yul\":18015:18016   */\n      0x00\n        /* \"#utility.yul\":18006:18012   */\n      dup5\n        /* \"#utility.yul\":18001:18004   */\n      dup5\n        /* \"#utility.yul\":17997:18013   */\n      add\n        /* \"#utility.yul\":17990:18017   */\n      mstore\n        /* \"#utility.yul\":17839:18023   */\n      pop\n        /* \"#utility.yul\":17777:18023   */\n      pop\n      pop\n      pop\n      jump\t// out\n        /* \"#utility.yul\":18029:18406   */\n    tag_326:\n        /* \"#utility.yul\":18117:18120   */\n      0x00\n        /* \"#utility.yul\":18145:18184   */\n      tag_545\n        /* \"#utility.yul\":18178:18183   */\n      dup3\n        /* \"#utility.yul\":18145:18184   */\n      tag_324\n      jump\t// in\n    tag_545:\n        /* \"#utility.yul\":18200:18271   */\n      tag_546\n        /* \"#utility.yul\":18264:18270   */\n      dup2\n        /* \"#utility.yul\":18259:18262   */\n      dup6\n        /* \"#utility.yul\":18200:18271   */\n      tag_315\n      jump\t// in\n    tag_546:\n        /* \"#utility.yul\":18193:18271   */\n      swap4\n      pop\n        /* \"#utility.yul\":18280:18345   */\n      tag_547\n        /* \"#utility.yul\":18338:18344   */\n      dup2\n        /* \"#utility.yul\":18333:18336   */\n      dup6\n        /* \"#utility.yul\":18326:18330   */\n      0x20\n        /* \"#utility.yul\":18319:18324   */\n      dup7\n        /* \"#utility.yul\":18315:18331   */\n      add\n        /* \"#utility.yul\":18280:18345   */\n      tag_325\n      jump\t// in\n    tag_547:\n        /* \"#utility.yul\":18370:18399   */\n      tag_548\n        /* \"#utility.yul\":18392:18398   */\n      dup2\n        /* \"#utility.yul\":18370:18399   */\n      tag_286\n      jump\t// in\n    tag_548:\n        /* \"#utility.yul\":18365:18368   */\n      dup5\n        /* \"#utility.yul\":18361:18400   */\n      add\n        /* \"#utility.yul\":18354:18400   */\n      swap2\n      pop\n        /* \"#utility.yul\":18121:18406   */\n      pop\n        /* \"#utility.yul\":18029:18406   */\n      swap3\n      swap2\n      pop\n      pop\n      jump\t// out\n        /* \"#utility.yul\":18412:18725   */\n    tag_135:\n        /* \"#utility.yul\":18525:18529   */\n      0x00\n        /* \"#utility.yul\":18563:18565   */\n      0x20\n        /* \"#utility.yul\":18552:18561   */\n      dup3\n        /* \"#utility.yul\":18548:18566   */\n      add\n        /* \"#utility.yul\":18540:18566   */\n      swap1\n      pop\n        /* \"#utility.yul\":18612:18621   */\n      dup2\n        /* \"#utility.yul\":18606:18610   */\n      dup2\n        /* \"#utility.yul\":18602:18622   */\n      sub\n        /* \"#utility.yul\":18598:18599   */\n      0x00\n        /* \"#utility.yul\":18587:18596   */\n      dup4\n        /* \"#utility.yul\":18583:18600   */\n      add\n        /* \"#utility.yul\":18576:18623   */\n      mstore\n        /* \"#utility.yul\":18640:18718   */\n      tag_550\n        /* \"#utility.yul\":18713:18717   */\n      dup2\n        /* \"#utility.yul\":18704:18710   */\n      dup5\n        /* \"#utility.yul\":18640:18718   */\n      tag_326\n      jump\t// in\n    tag_550:\n        /* \"#utility.yul\":18632:18718   */\n      swap1\n      pop\n        /* \"#utility.yul\":18412:18725   */\n      swap3\n      swap2\n      pop\n      pop\n      jump\t// out\n        /* \"#utility.yul\":18731:18848   */\n    tag_327:\n        /* \"#utility.yul\":18840:18841   */\n      0x00\n        /* \"#utility.yul\":18837:18838   */\n      dup1\n        /* \"#utility.yul\":18830:18842   */\n      revert\n        /* \"#utility.yul\":18854:18971   */\n    tag_328:\n        /* \"#utility.yul\":18963:18964   */\n      0x00\n        /* \"#utility.yul\":18960:18961   */\n      dup1\n        /* \"#utility.yul\":18953:18965   */\n      revert\n        /* \"#utility.yul\":18977:19411   */\n    tag_329:\n        /* \"#utility.yul\":19066:19071   */\n      0x00\n        /* \"#utility.yul\":19091:19157   */\n      tag_554\n        /* \"#utility.yul\":19107:19156   */\n      tag_555\n        /* \"#utility.yul\":19149:19155   */\n      dup5\n        /* \"#utility.yul\":19107:19156   */\n      tag_293\n      jump\t// in\n    tag_555:\n        /* \"#utility.yul\":19091:19157   */\n      tag_289\n      jump\t// in\n    tag_554:\n        /* \"#utility.yul\":19082:19157   */\n      swap1\n      pop\n        /* \"#utility.yul\":19180:19186   */\n      dup3\n        /* \"#utility.yul\":19173:19178   */\n      dup2\n        /* \"#utility.yul\":19166:19187   */\n      mstore\n        /* \"#utility.yul\":19218:19222   */\n      0x20\n        /* \"#utility.yul\":19211:19216   */\n      dup2\n        /* \"#utility.yul\":19207:19223   */\n      add\n        /* \"#utility.yul\":19256:19259   */\n      dup5\n        /* \"#utility.yul\":19247:19253   */\n      dup5\n        /* \"#utility.yul\":19242:19245   */\n      dup5\n        /* \"#utility.yul\":19238:19254   */\n      add\n        /* \"#utility.yul\":19235:19260   */\n      gt\n        /* \"#utility.yul\":19232:19344   */\n      iszero\n      tag_556\n      jumpi\n        /* \"#utility.yul\":19263:19342   */\n      tag_557\n      tag_292\n      jump\t// in\n    tag_557:\n        /* \"#utility.yul\":19232:19344   */\n    tag_556:\n        /* \"#utility.yul\":19353:19405   */\n      tag_558\n        /* \"#utility.yul\":19398:19404   */\n      dup5\n        /* \"#utility.yul\":19393:19396   */\n      dup3\n        /* \"#utility.yul\":19388:19391   */\n      dup6\n        /* \"#utility.yul\":19353:19405   */\n      tag_325\n      jump\t// in\n    tag_558:\n        /* \"#utility.yul\":19072:19411   */\n      pop\n        /* \"#utility.yul\":18977:19411   */\n      swap4\n      swap3\n      pop\n      pop\n      pop\n      jump\t// out\n        /* \"#utility.yul\":19431:19786   */\n    tag_330:\n        /* \"#utility.yul\":19498:19503   */\n      0x00\n        /* \"#utility.yul\":19547:19550   */\n      dup3\n        /* \"#utility.yul\":19540:19544   */\n      0x1f\n        /* \"#utility.yul\":19532:19538   */\n      dup4\n        /* \"#utility.yul\":19528:19545   */\n      add\n        /* \"#utility.yul\":19524:19551   */\n      slt\n        /* \"#utility.yul\":19514:19636   */\n      tag_560\n      jumpi\n        /* \"#utility.yul\":19555:19634   */\n      tag_561\n      tag_285\n      jump\t// in\n    tag_561:\n        /* \"#utility.yul\":19514:19636   */\n    tag_560:\n        /* \"#utility.yul\":19665:19671   */\n      dup2\n        /* \"#utility.yul\":19659:19672   */\n      mload\n        /* \"#utility.yul\":19690:19780   */\n      tag_562\n        /* \"#utility.yul\":19776:19779   */\n      dup5\n        /* \"#utility.yul\":19768:19774   */\n      dup3\n        /* \"#utility.yul\":19761:19765   */\n      0x20\n        /* \"#utility.yul\":19753:19759   */\n      dup7\n        /* \"#utility.yul\":19749:19766   */\n      add\n        /* \"#utility.yul\":19690:19780   */\n      tag_329\n      jump\t// in\n    tag_562:\n        /* \"#utility.yul\":19681:19780   */\n      swap2\n      pop\n        /* \"#utility.yul\":19504:19786   */\n      pop\n        /* \"#utility.yul\":19431:19786   */\n      swap3\n      swap2\n      pop\n      pop\n      jump\t// out\n        /* \"#utility.yul\":19792:19935   */\n    tag_331:\n        /* \"#utility.yul\":19849:19854   */\n      0x00\n        /* \"#utility.yul\":19880:19886   */\n      dup2\n        /* \"#utility.yul\":19874:19887   */\n      mload\n        /* \"#utility.yul\":19865:19887   */\n      swap1\n      pop\n        /* \"#utility.yul\":19896:19929   */\n      tag_564\n        /* \"#utility.yul\":19923:19928   */\n      dup2\n        /* \"#utility.yul\":19896:19929   */\n      tag_283\n      jump\t// in\n    tag_564:\n        /* \"#utility.yul\":19792:19935   */\n      swap3\n      swap2\n      pop\n      pop\n      jump\t// out\n        /* \"#utility.yul\":19941:20084   */\n    tag_332:\n        /* \"#utility.yul\":19998:20003   */\n      0x00\n        /* \"#utility.yul\":20029:20035   */\n      dup2\n        /* \"#utility.yul\":20023:20036   */\n      mload\n        /* \"#utility.yul\":20014:20036   */\n      swap1\n      pop\n        /* \"#utility.yul\":20045:20078   */\n      tag_566\n        /* \"#utility.yul\":20072:20077   */\n      dup2\n        /* \"#utility.yul\":20045:20078   */\n      tag_300\n      jump\t// in\n    tag_566:\n        /* \"#utility.yul\":19941:20084   */\n      swap3\n      swap2\n      pop\n      pop\n      jump\t// out\n        /* \"#utility.yul\":20090:20180   */\n    tag_333:\n        /* \"#utility.yul\":20124:20131   */\n      0x00\n        /* \"#utility.yul\":20167:20172   */\n      dup2\n        /* \"#utility.yul\":20160:20173   */\n      iszero\n        /* \"#utility.yul\":20153:20174   */\n      iszero\n        /* \"#utility.yul\":20142:20174   */\n      swap1\n      pop\n        /* \"#utility.yul\":20090:20180   */\n      swap2\n      swap1\n      pop\n      jump\t// out\n        /* \"#utility.yul\":20186:20302   */\n    tag_334:\n        /* \"#utility.yul\":20256:20277   */\n      tag_569\n        /* \"#utility.yul\":20271:20276   */\n      dup2\n        /* \"#utility.yul\":20256:20277   */\n      tag_333\n      jump\t// in\n    tag_569:\n        /* \"#utility.yul\":20249:20254   */\n      dup2\n        /* \"#utility.yul\":20246:20278   */\n      eq\n        /* \"#utility.yul\":20236:20296   */\n      tag_570\n      jumpi\n        /* \"#utility.yul\":20292:20293   */\n      0x00\n        /* \"#utility.yul\":20289:20290   */\n      dup1\n        /* \"#utility.yul\":20282:20294   */\n      revert\n        /* \"#utility.yul\":20236:20296   */\n    tag_570:\n        /* \"#utility.yul\":20186:20302   */\n      pop\n      jump\t// out\n        /* \"#utility.yul\":20308:20445   */\n    tag_335:\n        /* \"#utility.yul\":20362:20367   */\n      0x00\n        /* \"#utility.yul\":20393:20399   */\n      dup2\n        /* \"#utility.yul\":20387:20400   */\n      mload\n        /* \"#utility.yul\":20378:20400   */\n      swap1\n      pop\n        /* \"#utility.yul\":20409:20439   */\n      tag_572\n        /* \"#utility.yul\":20433:20438   */\n      dup2\n        /* \"#utility.yul\":20409:20439   */\n      tag_334\n      jump\t// in\n    tag_572:\n        /* \"#utility.yul\":20308:20445   */\n      swap3\n      swap2\n      pop\n      pop\n      jump\t// out\n        /* \"#utility.yul\":20488:23033   */\n    tag_336:\n        /* \"#utility.yul\":20569:20574   */\n      0x00\n        /* \"#utility.yul\":20613:20619   */\n      0x0180\n        /* \"#utility.yul\":20601:20610   */\n      dup3\n        /* \"#utility.yul\":20596:20599   */\n      dup5\n        /* \"#utility.yul\":20592:20611   */\n      sub\n        /* \"#utility.yul\":20588:20620   */\n      slt\n        /* \"#utility.yul\":20585:20704   */\n      iszero\n      tag_574\n      jumpi\n        /* \"#utility.yul\":20623:20702   */\n      tag_575\n      tag_327\n      jump\t// in\n    tag_575:\n        /* \"#utility.yul\":20585:20704   */\n    tag_574:\n        /* \"#utility.yul\":20722:20745   */\n      tag_576\n        /* \"#utility.yul\":20738:20744   */\n      0x0180\n        /* \"#utility.yul\":20722:20745   */\n      tag_289\n      jump\t// in\n    tag_576:\n        /* \"#utility.yul\":20713:20745   */\n      swap1\n      pop\n        /* \"#utility.yul\":20826:20827   */\n      0x00\n        /* \"#utility.yul\":20815:20824   */\n      dup3\n        /* \"#utility.yul\":20811:20828   */\n      add\n        /* \"#utility.yul\":20805:20829   */\n      mload\n        /* \"#utility.yul\":20856:20874   */\n      0xffffffffffffffff\n        /* \"#utility.yul\":20848:20854   */\n      dup2\n        /* \"#utility.yul\":20845:20875   */\n      gt\n        /* \"#utility.yul\":20842:20959   */\n      iszero\n      tag_577\n      jumpi\n        /* \"#utility.yul\":20878:20957   */\n      tag_578\n      tag_328\n      jump\t// in\n    tag_578:\n        /* \"#utility.yul\":20842:20959   */\n    tag_577:\n        /* \"#utility.yul\":20998:21068   */\n      tag_579\n        /* \"#utility.yul\":21064:21067   */\n      dup5\n        /* \"#utility.yul\":21055:21061   */\n      dup3\n        /* \"#utility.yul\":21044:21053   */\n      dup6\n        /* \"#utility.yul\":21040:21062   */\n      add\n        /* \"#utility.yul\":20998:21068   */\n      tag_330\n      jump\t// in\n    tag_579:\n        /* \"#utility.yul\":20991:20995   */\n      0x00\n        /* \"#utility.yul\":20984:20989   */\n      dup4\n        /* \"#utility.yul\":20980:20996   */\n      add\n        /* \"#utility.yul\":20973:21069   */\n      mstore\n        /* \"#utility.yul\":20755:21080   */\n      pop\n        /* \"#utility.yul\":21145:21147   */\n      0x20\n        /* \"#utility.yul\":21186:21246   */\n      tag_580\n        /* \"#utility.yul\":21242:21245   */\n      dup5\n        /* \"#utility.yul\":21233:21239   */\n      dup3\n        /* \"#utility.yul\":21222:21231   */\n      dup6\n        /* \"#utility.yul\":21218:21240   */\n      add\n        /* \"#utility.yul\":21186:21246   */\n      tag_331\n      jump\t// in\n    tag_580:\n        /* \"#utility.yul\":21179:21183   */\n      0x20\n        /* \"#utility.yul\":21172:21177   */\n      dup4\n        /* \"#utility.yul\":21168:21184   */\n      add\n        /* \"#utility.yul\":21161:21247   */\n      mstore\n        /* \"#utility.yul\":21090:21258   */\n      pop\n        /* \"#utility.yul\":21319:21321   */\n      0x40\n        /* \"#utility.yul\":21360:21420   */\n      tag_581\n        /* \"#utility.yul\":21416:21419   */\n      dup5\n        /* \"#utility.yul\":21407:21413   */\n      dup3\n        /* \"#utility.yul\":21396:21405   */\n      dup6\n        /* \"#utility.yul\":21392:21414   */\n      add\n        /* \"#utility.yul\":21360:21420   */\n      tag_332\n      jump\t// in\n    tag_581:\n        /* \"#utility.yul\":21353:21357   */\n      0x40\n        /* \"#utility.yul\":21346:21351   */\n      dup4\n        /* \"#utility.yul\":21342:21358   */\n      add\n        /* \"#utility.yul\":21335:21421   */\n      mstore\n        /* \"#utility.yul\":21268:21432   */\n      pop\n        /* \"#utility.yul\":21501:21503   */\n      0x60\n        /* \"#utility.yul\":21542:21602   */\n      tag_582\n        /* \"#utility.yul\":21598:21601   */\n      dup5\n        /* \"#utility.yul\":21589:21595   */\n      dup3\n        /* \"#utility.yul\":21578:21587   */\n      dup6\n        /* \"#utility.yul\":21574:21596   */\n      add\n        /* \"#utility.yul\":21542:21602   */\n      tag_332\n      jump\t// in\n    tag_582:\n        /* \"#utility.yul\":21535:21539   */\n      0x60\n        /* \"#utility.yul\":21528:21533   */\n      dup4\n        /* \"#utility.yul\":21524:21540   */\n      add\n        /* \"#utility.yul\":21517:21603   */\n      mstore\n        /* \"#utility.yul\":21442:21614   */\n      pop\n        /* \"#utility.yul\":21679:21682   */\n      0x80\n        /* \"#utility.yul\":21721:21778   */\n      tag_583\n        /* \"#utility.yul\":21774:21777   */\n      dup5\n        /* \"#utility.yul\":21765:21771   */\n      dup3\n        /* \"#utility.yul\":21754:21763   */\n      dup6\n        /* \"#utility.yul\":21750:21772   */\n      add\n        /* \"#utility.yul\":21721:21778   */\n      tag_335\n      jump\t// in\n    tag_583:\n        /* \"#utility.yul\":21714:21718   */\n      0x80\n        /* \"#utility.yul\":21707:21712   */\n      dup4\n        /* \"#utility.yul\":21703:21719   */\n      add\n        /* \"#utility.yul\":21696:21779   */\n      mstore\n        /* \"#utility.yul\":21624:21790   */\n      pop\n        /* \"#utility.yul\":21854:21857   */\n      0xa0\n        /* \"#utility.yul\":21896:21953   */\n      tag_584\n        /* \"#utility.yul\":21949:21952   */\n      dup5\n        /* \"#utility.yul\":21940:21946   */\n      dup3\n        /* \"#utility.yul\":21929:21938   */\n      dup6\n        /* \"#utility.yul\":21925:21947   */\n      add\n        /* \"#utility.yul\":21896:21953   */\n      tag_335\n      jump\t// in\n    tag_584:\n        /* \"#utility.yul\":21889:21893   */\n      0xa0\n        /* \"#utility.yul\":21882:21887   */\n      dup4\n        /* \"#utility.yul\":21878:21894   */\n      add\n        /* \"#utility.yul\":21871:21954   */\n      mstore\n        /* \"#utility.yul\":21800:21965   */\n      pop\n        /* \"#utility.yul\":22026:22029   */\n      0xc0\n        /* \"#utility.yul\":22068:22125   */\n      tag_585\n        /* \"#utility.yul\":22121:22124   */\n      dup5\n        /* \"#utility.yul\":22112:22118   */\n      dup3\n        /* \"#utility.yul\":22101:22110   */\n      dup6\n        /* \"#utility.yul\":22097:22119   */\n      add\n        /* \"#utility.yul\":22068:22125   */\n      tag_335\n      jump\t// in\n    tag_585:\n        /* \"#utility.yul\":22061:22065   */\n      0xc0\n        /* \"#utility.yul\":22054:22059   */\n      dup4\n        /* \"#utility.yul\":22050:22066   */\n      add\n        /* \"#utility.yul\":22043:22126   */\n      mstore\n        /* \"#utility.yul\":21975:22137   */\n      pop\n        /* \"#utility.yul\":22206:22209   */\n      0xe0\n        /* \"#utility.yul\":22248:22308   */\n      tag_586\n        /* \"#utility.yul\":22304:22307   */\n      dup5\n        /* \"#utility.yul\":22295:22301   */\n      dup3\n        /* \"#utility.yul\":22284:22293   */\n      dup6\n        /* \"#utility.yul\":22280:22302   */\n      add\n        /* \"#utility.yul\":22248:22308   */\n      tag_332\n      jump\t// in\n    tag_586:\n        /* \"#utility.yul\":22241:22245   */\n      0xe0\n        /* \"#utility.yul\":22234:22239   */\n      dup4\n        /* \"#utility.yul\":22230:22246   */\n      add\n        /* \"#utility.yul\":22223:22309   */\n      mstore\n        /* \"#utility.yul\":22147:22320   */\n      pop\n        /* \"#utility.yul\":22385:22388   */\n      0x0100\n        /* \"#utility.yul\":22429:22486   */\n      tag_587\n        /* \"#utility.yul\":22482:22485   */\n      dup5\n        /* \"#utility.yul\":22473:22479   */\n      dup3\n        /* \"#utility.yul\":22462:22471   */\n      dup6\n        /* \"#utility.yul\":22458:22480   */\n      add\n        /* \"#utility.yul\":22429:22486   */\n      tag_335\n      jump\t// in\n    tag_587:\n        /* \"#utility.yul\":22420:22426   */\n      0x0100\n        /* \"#utility.yul\":22413:22418   */\n      dup4\n        /* \"#utility.yul\":22409:22427   */\n      add\n        /* \"#utility.yul\":22402:22487   */\n      mstore\n        /* \"#utility.yul\":22330:22498   */\n      pop\n        /* \"#utility.yul\":22559:22562   */\n      0x0120\n        /* \"#utility.yul\":22603:22663   */\n      tag_588\n        /* \"#utility.yul\":22659:22662   */\n      dup5\n        /* \"#utility.yul\":22650:22656   */\n      dup3\n        /* \"#utility.yul\":22639:22648   */\n      dup6\n        /* \"#utility.yul\":22635:22657   */\n      add\n        /* \"#utility.yul\":22603:22663   */\n      tag_332\n      jump\t// in\n    tag_588:\n        /* \"#utility.yul\":22594:22600   */\n      0x0120\n        /* \"#utility.yul\":22587:22592   */\n      dup4\n        /* \"#utility.yul\":22583:22601   */\n      add\n        /* \"#utility.yul\":22576:22664   */\n      mstore\n        /* \"#utility.yul\":22508:22675   */\n      pop\n        /* \"#utility.yul\":22734:22737   */\n      0x0140\n        /* \"#utility.yul\":22778:22838   */\n      tag_589\n        /* \"#utility.yul\":22834:22837   */\n      dup5\n        /* \"#utility.yul\":22825:22831   */\n      dup3\n        /* \"#utility.yul\":22814:22823   */\n      dup6\n        /* \"#utility.yul\":22810:22832   */\n      add\n        /* \"#utility.yul\":22778:22838   */\n      tag_332\n      jump\t// in\n    tag_589:\n        /* \"#utility.yul\":22769:22775   */\n      0x0140\n        /* \"#utility.yul\":22762:22767   */\n      dup4\n        /* \"#utility.yul\":22758:22776   */\n      add\n        /* \"#utility.yul\":22751:22839   */\n      mstore\n        /* \"#utility.yul\":22685:22850   */\n      pop\n        /* \"#utility.yul\":22910:22913   */\n      0x0160\n        /* \"#utility.yul\":22954:23014   */\n      tag_590\n        /* \"#utility.yul\":23010:23013   */\n      dup5\n        /* \"#utility.yul\":23001:23007   */\n      dup3\n        /* \"#utility.yul\":22990:22999   */\n      dup6\n        /* \"#utility.yul\":22986:23008   */\n      add\n        /* \"#utility.yul\":22954:23014   */\n      tag_332\n      jump\t// in\n    tag_590:\n        /* \"#utility.yul\":22945:22951   */\n      0x0160\n        /* \"#utility.yul\":22938:22943   */\n      dup4\n        /* \"#utility.yul\":22934:22952   */\n      add\n        /* \"#utility.yul\":22927:23015   */\n      mstore\n        /* \"#utility.yul\":22860:23026   */\n      pop\n        /* \"#utility.yul\":20488:23033   */\n      swap3\n      swap2\n      pop\n      pop\n      jump\t// out\n        /* \"#utility.yul\":23039:23585   */\n    tag_139:\n        /* \"#utility.yul\":23130:23136   */\n      0x00\n        /* \"#utility.yul\":23179:23181   */\n      0x20\n        /* \"#utility.yul\":23167:23176   */\n      dup3\n        /* \"#utility.yul\":23158:23165   */\n      dup5\n        /* \"#utility.yul\":23154:23177   */\n      sub\n        /* \"#utility.yul\":23150:23182   */\n      slt\n        /* \"#utility.yul\":23147:23266   */\n      iszero\n      tag_592\n      jumpi\n        /* \"#utility.yul\":23185:23264   */\n      tag_593\n      tag_279\n      jump\t// in\n    tag_593:\n        /* \"#utility.yul\":23147:23266   */\n    tag_592:\n        /* \"#utility.yul\":23326:23327   */\n      0x00\n        /* \"#utility.yul\":23315:23324   */\n      dup3\n        /* \"#utility.yul\":23311:23328   */\n      add\n        /* \"#utility.yul\":23305:23329   */\n      mload\n        /* \"#utility.yul\":23356:23374   */\n      0xffffffffffffffff\n        /* \"#utility.yul\":23348:23354   */\n      dup2\n        /* \"#utility.yul\":23345:23375   */\n      gt\n        /* \"#utility.yul\":23342:23459   */\n      iszero\n      tag_594\n      jumpi\n        /* \"#utility.yul\":23378:23457   */\n      tag_595\n      tag_280\n      jump\t// in\n    tag_595:\n        /* \"#utility.yul\":23342:23459   */\n    tag_594:\n        /* \"#utility.yul\":23483:23568   */\n      tag_596\n        /* \"#utility.yul\":23560:23567   */\n      dup5\n        /* \"#utility.yul\":23551:23557   */\n      dup3\n        /* \"#utility.yul\":23540:23549   */\n      dup6\n        /* \"#utility.yul\":23536:23558   */\n      add\n        /* \"#utility.yul\":23483:23568   */\n      tag_336\n      jump\t// in\n    tag_596:\n        /* \"#utility.yul\":23473:23568   */\n      swap2\n      pop\n        /* \"#utility.yul\":23276:23578   */\n      pop\n        /* \"#utility.yul\":23039:23585   */\n      swap3\n      swap2\n      pop\n      pop\n      jump\t// out\n        /* \"#utility.yul\":23591:24001   */\n    tag_151:\n        /* \"#utility.yul\":23631:23638   */\n      0x00\n        /* \"#utility.yul\":23654:23674   */\n      tag_598\n        /* \"#utility.yul\":23672:23673   */\n      dup3\n        /* \"#utility.yul\":23654:23674   */\n      tag_276\n      jump\t// in\n    tag_598:\n        /* \"#utility.yul\":23649:23674   */\n      swap2\n      pop\n        /* \"#utility.yul\":23688:23708   */\n      tag_599\n        /* \"#utility.yul\":23706:23707   */\n      dup4\n        /* \"#utility.yul\":23688:23708   */\n      tag_276\n      jump\t// in\n    tag_599:\n        /* \"#utility.yul\":23683:23708   */\n      swap3\n      pop\n        /* \"#utility.yul\":23743:23744   */\n      dup3\n        /* \"#utility.yul\":23740:23741   */\n      dup3\n        /* \"#utility.yul\":23736:23745   */\n      mul\n        /* \"#utility.yul\":23765:23795   */\n      tag_600\n        /* \"#utility.yul\":23783:23794   */\n      dup2\n        /* \"#utility.yul\":23765:23795   */\n      tag_276\n      jump\t// in\n    tag_600:\n        /* \"#utility.yul\":23754:23795   */\n      swap2\n      pop\n        /* \"#utility.yul\":23944:23945   */\n      dup3\n        /* \"#utility.yul\":23935:23942   */\n      dup3\n        /* \"#utility.yul\":23931:23946   */\n      div\n        /* \"#utility.yul\":23928:23929   */\n      dup5\n        /* \"#utility.yul\":23925:23947   */\n      eq\n        /* \"#utility.yul\":23905:23906   */\n      dup4\n        /* \"#utility.yul\":23898:23907   */\n      iszero\n        /* \"#utility.yul\":23878:23961   */\n      or\n        /* \"#utility.yul\":23855:23994   */\n      tag_601\n      jumpi\n        /* \"#utility.yul\":23974:23992   */\n      tag_602\n      tag_314\n      jump\t// in\n    tag_602:\n        /* \"#utility.yul\":23855:23994   */\n    tag_601:\n        /* \"#utility.yul\":23639:24001   */\n      pop\n        /* \"#utility.yul\":23591:24001   */\n      swap3\n      swap2\n      pop\n      pop\n      jump\t// out\n        /* \"#utility.yul\":24007:24230   */\n    tag_337:\n        /* \"#utility.yul\":24147:24181   */\n      0x52656c656173653a206e656564207365742046697273742052656c6561736520\n        /* \"#utility.yul\":24143:24144   */\n      0x00\n        /* \"#utility.yul\":24135:24141   */\n      dup3\n        /* \"#utility.yul\":24131:24145   */\n      add\n        /* \"#utility.yul\":24124:24182   */\n      mstore\n        /* \"#utility.yul\":24216:24222   */\n      0x54696d6500000000000000000000000000000000000000000000000000000000\n        /* \"#utility.yul\":24211:24213   */\n      0x20\n        /* \"#utility.yul\":24203:24209   */\n      dup3\n        /* \"#utility.yul\":24199:24214   */\n      add\n        /* \"#utility.yul\":24192:24223   */\n      mstore\n        /* \"#utility.yul\":24007:24230   */\n      pop\n      jump\t// out\n        /* \"#utility.yul\":24236:24602   */\n    tag_338:\n        /* \"#utility.yul\":24378:24381   */\n      0x00\n        /* \"#utility.yul\":24399:24466   */\n      tag_605\n        /* \"#utility.yul\":24463:24465   */\n      0x24\n        /* \"#utility.yul\":24458:24461   */\n      dup4\n        /* \"#utility.yul\":24399:24466   */\n      tag_315\n      jump\t// in\n    tag_605:\n        /* \"#utility.yul\":24392:24466   */\n      swap2\n      pop\n        /* \"#utility.yul\":24475:24568   */\n      tag_606\n        /* \"#utility.yul\":24564:24567   */\n      dup3\n        /* \"#utility.yul\":24475:24568   */\n      tag_337\n      jump\t// in\n    tag_606:\n        /* \"#utility.yul\":24593:24595   */\n      0x40\n        /* \"#utility.yul\":24588:24591   */\n      dup3\n        /* \"#utility.yul\":24584:24596   */\n      add\n        /* \"#utility.yul\":24577:24596   */\n      swap1\n      pop\n        /* \"#utility.yul\":24236:24602   */\n      swap2\n      swap1\n      pop\n      jump\t// out\n        /* \"#utility.yul\":24608:25027   */\n    tag_155:\n        /* \"#utility.yul\":24774:24778   */\n      0x00\n        /* \"#utility.yul\":24812:24814   */\n      0x20\n        /* \"#utility.yul\":24801:24810   */\n      dup3\n        /* \"#utility.yul\":24797:24815   */\n      add\n        /* \"#utility.yul\":24789:24815   */\n      swap1\n      pop\n        /* \"#utility.yul\":24861:24870   */\n      dup2\n        /* \"#utility.yul\":24855:24859   */\n      dup2\n        /* \"#utility.yul\":24851:24871   */\n      sub\n        /* \"#utility.yul\":24847:24848   */\n      0x00\n        /* \"#utility.yul\":24836:24845   */\n      dup4\n        /* \"#utility.yul\":24832:24849   */\n      add\n        /* \"#utility.yul\":24825:24872   */\n      mstore\n        /* \"#utility.yul\":24889:25020   */\n      tag_608\n        /* \"#utility.yul\":25015:25019   */\n      dup2\n        /* \"#utility.yul\":24889:25020   */\n      tag_338\n      jump\t// in\n    tag_608:\n        /* \"#utility.yul\":24881:25020   */\n      swap1\n      pop\n        /* \"#utility.yul\":24608:25027   */\n      swap2\n      swap1\n      pop\n      jump\t// out\n        /* \"#utility.yul\":25033:25255   */\n    tag_339:\n        /* \"#utility.yul\":25173:25207   */\n      0x52656c656173653a206e6565642073657420526563656976696e672041646472\n        /* \"#utility.yul\":25169:25170   */\n      0x00\n        /* \"#utility.yul\":25161:25167   */\n      dup3\n        /* \"#utility.yul\":25157:25171   */\n      add\n        /* \"#utility.yul\":25150:25208   */\n      mstore\n        /* \"#utility.yul\":25242:25247   */\n      0x6573730000000000000000000000000000000000000000000000000000000000\n        /* \"#utility.yul\":25237:25239   */\n      0x20\n        /* \"#utility.yul\":25229:25235   */\n      dup3\n        /* \"#utility.yul\":25225:25240   */\n      add\n        /* \"#utility.yul\":25218:25248   */\n      mstore\n        /* \"#utility.yul\":25033:25255   */\n      pop\n      jump\t// out\n        /* \"#utility.yul\":25261:25627   */\n    tag_340:\n        /* \"#utility.yul\":25403:25406   */\n      0x00\n        /* \"#utility.yul\":25424:25491   */\n      tag_611\n        /* \"#utility.yul\":25488:25490   */\n      0x23\n        /* \"#utility.yul\":25483:25486   */\n      dup4\n        /* \"#utility.yul\":25424:25491   */\n      tag_315\n      jump\t// in\n    tag_611:\n        /* \"#utility.yul\":25417:25491   */\n      swap2\n      pop\n        /* \"#utility.yul\":25500:25593   */\n      tag_612\n        /* \"#utility.yul\":25589:25592   */\n      dup3\n        /* \"#utility.yul\":25500:25593   */\n      tag_339\n      jump\t// in\n    tag_612:\n        /* \"#utility.yul\":25618:25620   */\n      0x40\n        /* \"#utility.yul\":25613:25616   */\n      dup3\n        /* \"#utility.yul\":25609:25621   */\n      add\n        /* \"#utility.yul\":25602:25621   */\n      swap1\n      pop\n        /* \"#utility.yul\":25261:25627   */\n      swap2\n      swap1\n      pop\n      jump\t// out\n        /* \"#utility.yul\":25633:26052   */\n    tag_158:\n        /* \"#utility.yul\":25799:25803   */\n      0x00\n        /* \"#utility.yul\":25837:25839   */\n      0x20\n        /* \"#utility.yul\":25826:25835   */\n      dup3\n        /* \"#utility.yul\":25822:25840   */\n      add\n        /* \"#utility.yul\":25814:25840   */\n      swap1\n      pop\n        /* \"#utility.yul\":25886:25895   */\n      dup2\n        /* \"#utility.yul\":25880:25884   */\n      dup2\n        /* \"#utility.yul\":25876:25896   */\n      sub\n        /* \"#utility.yul\":25872:25873   */\n      0x00\n        /* \"#utility.yul\":25861:25870   */\n      dup4\n        /* \"#utility.yul\":25857:25874   */\n      add\n        /* \"#utility.yul\":25850:25897   */\n      mstore\n        /* \"#utility.yul\":25914:26045   */\n      tag_614\n        /* \"#utility.yul\":26040:26044   */\n      dup2\n        /* \"#utility.yul\":25914:26045   */\n      tag_340\n      jump\t// in\n    tag_614:\n        /* \"#utility.yul\":25906:26045   */\n      swap1\n      pop\n        /* \"#utility.yul\":25633:26052   */\n      swap2\n      swap1\n      pop\n      jump\t// out\n        /* \"#utility.yul\":26058:26289   */\n    tag_341:\n        /* \"#utility.yul\":26198:26232   */\n      0x52656c656173653a2063757272656e742074696d65206973206265666f726520\n        /* \"#utility.yul\":26194:26195   */\n      0x00\n        /* \"#utility.yul\":26186:26192   */\n      dup3\n        /* \"#utility.yul\":26182:26196   */\n      add\n        /* \"#utility.yul\":26175:26233   */\n      mstore\n        /* \"#utility.yul\":26267:26281   */\n      0x72656c656173652074696d650000000000000000000000000000000000000000\n        /* \"#utility.yul\":26262:26264   */\n      0x20\n        /* \"#utility.yul\":26254:26260   */\n      dup3\n        /* \"#utility.yul\":26250:26265   */\n      add\n        /* \"#utility.yul\":26243:26282   */\n      mstore\n        /* \"#utility.yul\":26058:26289   */\n      pop\n      jump\t// out\n        /* \"#utility.yul\":26295:26661   */\n    tag_342:\n        /* \"#utility.yul\":26437:26440   */\n      0x00\n        /* \"#utility.yul\":26458:26525   */\n      tag_617\n        /* \"#utility.yul\":26522:26524   */\n      0x2c\n        /* \"#utility.yul\":26517:26520   */\n      dup4\n        /* \"#utility.yul\":26458:26525   */\n      tag_315\n      jump\t// in\n    tag_617:\n        /* \"#utility.yul\":26451:26525   */\n      swap2\n      pop\n        /* \"#utility.yul\":26534:26627   */\n      tag_618\n        /* \"#utility.yul\":26623:26626   */\n      dup3\n        /* \"#utility.yul\":26534:26627   */\n      tag_341\n      jump\t// in\n    tag_618:\n        /* \"#utility.yul\":26652:26654   */\n      0x40\n        /* \"#utility.yul\":26647:26650   */\n      dup3\n        /* \"#utility.yul\":26643:26655   */\n      add\n        /* \"#utility.yul\":26636:26655   */\n      swap1\n      pop\n        /* \"#utility.yul\":26295:26661   */\n      swap2\n      swap1\n      pop\n      jump\t// out\n        /* \"#utility.yul\":26667:27086   */\n    tag_163:\n        /* \"#utility.yul\":26833:26837   */\n      0x00\n        /* \"#utility.yul\":26871:26873   */\n      0x20\n        /* \"#utility.yul\":26860:26869   */\n      dup3\n        /* \"#utility.yul\":26856:26874   */\n      add\n        /* \"#utility.yul\":26848:26874   */\n      swap1\n      pop\n        /* \"#utility.yul\":26920:26929   */\n      dup2\n        /* \"#utility.yul\":26914:26918   */\n      dup2\n        /* \"#utility.yul\":26910:26930   */\n      sub\n        /* \"#utility.yul\":26906:26907   */\n      0x00\n        /* \"#utility.yul\":26895:26904   */\n      dup4\n        /* \"#utility.yul\":26891:26908   */\n      add\n        /* \"#utility.yul\":26884:26931   */\n      mstore\n        /* \"#utility.yul\":26948:27079   */\n      tag_620\n        /* \"#utility.yul\":27074:27078   */\n      dup2\n        /* \"#utility.yul\":26948:27079   */\n      tag_342\n      jump\t// in\n    tag_620:\n        /* \"#utility.yul\":26940:27079   */\n      swap1\n      pop\n        /* \"#utility.yul\":26667:27086   */\n      swap2\n      swap1\n      pop\n      jump\t// out\n        /* \"#utility.yul\":27092:27335   */\n    tag_343:\n        /* \"#utility.yul\":27232:27266   */\n      0x546865206e756d626572206f66206169722064726f7073206578636565647320\n        /* \"#utility.yul\":27228:27229   */\n      0x00\n        /* \"#utility.yul\":27220:27226   */\n      dup3\n        /* \"#utility.yul\":27216:27230   */\n      add\n        /* \"#utility.yul\":27209:27267   */\n      mstore\n        /* \"#utility.yul\":27301:27327   */\n      0x746865206461696c792072656c6561736520616d6f756e740000000000000000\n        /* \"#utility.yul\":27296:27298   */\n      0x20\n        /* \"#utility.yul\":27288:27294   */\n      dup3\n        /* \"#utility.yul\":27284:27299   */\n      add\n        /* \"#utility.yul\":27277:27328   */\n      mstore\n        /* \"#utility.yul\":27092:27335   */\n      pop\n      jump\t// out\n        /* \"#utility.yul\":27341:27707   */\n    tag_344:\n        /* \"#utility.yul\":27483:27486   */\n      0x00\n        /* \"#utility.yul\":27504:27571   */\n      tag_623\n        /* \"#utility.yul\":27568:27570   */\n      0x38\n        /* \"#utility.yul\":27563:27566   */\n      dup4\n        /* \"#utility.yul\":27504:27571   */\n      tag_315\n      jump\t// in\n    tag_623:\n        /* \"#utility.yul\":27497:27571   */\n      swap2\n      pop\n        /* \"#utility.yul\":27580:27673   */\n      tag_624\n        /* \"#utility.yul\":27669:27672   */\n      dup3\n        /* \"#utility.yul\":27580:27673   */\n      tag_343\n      jump\t// in\n    tag_624:\n        /* \"#utility.yul\":27698:27700   */\n      0x40\n        /* \"#utility.yul\":27693:27696   */\n      dup3\n        /* \"#utility.yul\":27689:27701   */\n      add\n        /* \"#utility.yul\":27682:27701   */\n      swap1\n      pop\n        /* \"#utility.yul\":27341:27707   */\n      swap2\n      swap1\n      pop\n      jump\t// out\n        /* \"#utility.yul\":27713:28132   */\n    tag_181:\n        /* \"#utility.yul\":27879:27883   */\n      0x00\n        /* \"#utility.yul\":27917:27919   */\n      0x20\n        /* \"#utility.yul\":27906:27915   */\n      dup3\n        /* \"#utility.yul\":27902:27920   */\n      add\n        /* \"#utility.yul\":27894:27920   */\n      swap1\n      pop\n        /* \"#utility.yul\":27966:27975   */\n      dup2\n        /* \"#utility.yul\":27960:27964   */\n      dup2\n        /* \"#utility.yul\":27956:27976   */\n      sub\n        /* \"#utility.yul\":27952:27953   */\n      0x00\n        /* \"#utility.yul\":27941:27950   */\n      dup4\n        /* \"#utility.yul\":27937:27954   */\n      add\n        /* \"#utility.yul\":27930:27977   */\n      mstore\n        /* \"#utility.yul\":27994:28125   */\n      tag_626\n        /* \"#utility.yul\":28120:28124   */\n      dup2\n        /* \"#utility.yul\":27994:28125   */\n      tag_344\n      jump\t// in\n    tag_626:\n        /* \"#utility.yul\":27986:28125   */\n      swap1\n      pop\n        /* \"#utility.yul\":27713:28132   */\n      swap2\n      swap1\n      pop\n      jump\t// out\n        /* \"#utility.yul\":28138:28489   */\n    tag_208:\n        /* \"#utility.yul\":28208:28214   */\n      0x00\n        /* \"#utility.yul\":28257:28259   */\n      0x20\n        /* \"#utility.yul\":28245:28254   */\n      dup3\n        /* \"#utility.yul\":28236:28243   */\n      dup5\n        /* \"#utility.yul\":28232:28255   */\n      sub\n        /* \"#utility.yul\":28228:28260   */\n      slt\n        /* \"#utility.yul\":28225:28344   */\n      iszero\n      tag_628\n      jumpi\n        /* \"#utility.yul\":28263:28342   */\n      tag_629\n      tag_279\n      jump\t// in\n    tag_629:\n        /* \"#utility.yul\":28225:28344   */\n    tag_628:\n        /* \"#utility.yul\":28383:28384   */\n      0x00\n        /* \"#utility.yul\":28408:28472   */\n      tag_630\n        /* \"#utility.yul\":28464:28471   */\n      dup5\n        /* \"#utility.yul\":28455:28461   */\n      dup3\n        /* \"#utility.yul\":28444:28453   */\n      dup6\n        /* \"#utility.yul\":28440:28462   */\n      add\n        /* \"#utility.yul\":28408:28472   */\n      tag_332\n      jump\t// in\n    tag_630:\n        /* \"#utility.yul\":28398:28472   */\n      swap2\n      pop\n        /* \"#utility.yul\":28354:28482   */\n      pop\n        /* \"#utility.yul\":28138:28489   */\n      swap3\n      swap2\n      pop\n      pop\n      jump\t// out\n        /* \"#utility.yul\":28495:28672   */\n    tag_345:\n        /* \"#utility.yul\":28635:28664   */\n      0x536166654d6174683a206164646974696f6e206f766572666c6f770000000000\n        /* \"#utility.yul\":28631:28632   */\n      0x00\n        /* \"#utility.yul\":28623:28629   */\n      dup3\n        /* \"#utility.yul\":28619:28633   */\n      add\n        /* \"#utility.yul\":28612:28665   */\n      mstore\n        /* \"#utility.yul\":28495:28672   */\n      pop\n      jump\t// out\n        /* \"#utility.yul\":28678:29044   */\n    tag_346:\n        /* \"#utility.yul\":28820:28823   */\n      0x00\n        /* \"#utility.yul\":28841:28908   */\n      tag_633\n        /* \"#utility.yul\":28905:28907   */\n      0x1b\n        /* \"#utility.yul\":28900:28903   */\n      dup4\n        /* \"#utility.yul\":28841:28908   */\n      tag_315\n      jump\t// in\n    tag_633:\n        /* \"#utility.yul\":28834:28908   */\n      swap2\n      pop\n        /* \"#utility.yul\":28917:29010   */\n      tag_634\n        /* \"#utility.yul\":29006:29009   */\n      dup3\n        /* \"#utility.yul\":28917:29010   */\n      tag_345\n      jump\t// in\n    tag_634:\n        /* \"#utility.yul\":29035:29037   */\n      0x20\n        /* \"#utility.yul\":29030:29033   */\n      dup3\n        /* \"#utility.yul\":29026:29038   */\n      add\n        /* \"#utility.yul\":29019:29038   */\n      swap1\n      pop\n        /* \"#utility.yul\":28678:29044   */\n      swap2\n      swap1\n      pop\n      jump\t// out\n        /* \"#utility.yul\":29050:29469   */\n    tag_220:\n        /* \"#utility.yul\":29216:29220   */\n      0x00\n        /* \"#utility.yul\":29254:29256   */\n      0x20\n        /* \"#utility.yul\":29243:29252   */\n      dup3\n        /* \"#utility.yul\":29239:29257   */\n      add\n        /* \"#utility.yul\":29231:29257   */\n      swap1\n      pop\n        /* \"#utility.yul\":29303:29312   */\n      dup2\n        /* \"#utility.yul\":29297:29301   */\n      dup2\n        /* \"#utility.yul\":29293:29313   */\n      sub\n        /* \"#utility.yul\":29289:29290   */\n      0x00\n        /* \"#utility.yul\":29278:29287   */\n      dup4\n        /* \"#utility.yul\":29274:29291   */\n      add\n        /* \"#utility.yul\":29267:29314   */\n      mstore\n        /* \"#utility.yul\":29331:29462   */\n      tag_636\n        /* \"#utility.yul\":29457:29461   */\n      dup2\n        /* \"#utility.yul\":29331:29462   */\n      tag_346\n      jump\t// in\n    tag_636:\n        /* \"#utility.yul\":29323:29462   */\n      swap1\n      pop\n        /* \"#utility.yul\":29050:29469   */\n      swap2\n      swap1\n      pop\n      jump\t// out\n        /* \"#utility.yul\":29475:29807   */\n    tag_224:\n        /* \"#utility.yul\":29596:29600   */\n      0x00\n        /* \"#utility.yul\":29634:29636   */\n      0x40\n        /* \"#utility.yul\":29623:29632   */\n      dup3\n        /* \"#utility.yul\":29619:29637   */\n      add\n        /* \"#utility.yul\":29611:29637   */\n      swap1\n      pop\n        /* \"#utility.yul\":29647:29718   */\n      tag_638\n        /* \"#utility.yul\":29715:29716   */\n      0x00\n        /* \"#utility.yul\":29704:29713   */\n      dup4\n        /* \"#utility.yul\":29700:29717   */\n      add\n        /* \"#utility.yul\":29691:29697   */\n      dup6\n        /* \"#utility.yul\":29647:29718   */\n      tag_307\n      jump\t// in\n    tag_638:\n        /* \"#utility.yul\":29728:29800   */\n      tag_639\n        /* \"#utility.yul\":29796:29798   */\n      0x20\n        /* \"#utility.yul\":29785:29794   */\n      dup4\n        /* \"#utility.yul\":29781:29799   */\n      add\n        /* \"#utility.yul\":29772:29778   */\n      dup5\n        /* \"#utility.yul\":29728:29800   */\n      tag_277\n      jump\t// in\n    tag_639:\n        /* \"#utility.yul\":29475:29807   */\n      swap4\n      swap3\n      pop\n      pop\n      pop\n      jump\t// out\n        /* \"#utility.yul\":29813:30158   */\n    tag_237:\n        /* \"#utility.yul\":29880:29886   */\n      0x00\n        /* \"#utility.yul\":29929:29931   */\n      0x20\n        /* \"#utility.yul\":29917:29926   */\n      dup3\n        /* \"#utility.yul\":29908:29915   */\n      dup5\n        /* \"#utility.yul\":29904:29927   */\n      sub\n        /* \"#utility.yul\":29900:29932   */\n      slt\n        /* \"#utility.yul\":29897:30016   */\n      iszero\n      tag_641\n      jumpi\n        /* \"#utility.yul\":29935:30014   */\n      tag_642\n      tag_279\n      jump\t// in\n    tag_642:\n        /* \"#utility.yul\":29897:30016   */\n    tag_641:\n        /* \"#utility.yul\":30055:30056   */\n      0x00\n        /* \"#utility.yul\":30080:30141   */\n      tag_643\n        /* \"#utility.yul\":30133:30140   */\n      dup5\n        /* \"#utility.yul\":30124:30130   */\n      dup3\n        /* \"#utility.yul\":30113:30122   */\n      dup6\n        /* \"#utility.yul\":30109:30131   */\n      add\n        /* \"#utility.yul\":30080:30141   */\n      tag_335\n      jump\t// in\n    tag_643:\n        /* \"#utility.yul\":30070:30141   */\n      swap2\n      pop\n        /* \"#utility.yul\":30026:30151   */\n      pop\n        /* \"#utility.yul\":29813:30158   */\n      swap3\n      swap2\n      pop\n      pop\n      jump\t// out\n        /* \"#utility.yul\":30164:30393   */\n    tag_347:\n        /* \"#utility.yul\":30304:30338   */\n      0x5361666545524332303a204552433230206f7065726174696f6e20646964206e\n        /* \"#utility.yul\":30300:30301   */\n      0x00\n        /* \"#utility.yul\":30292:30298   */\n      dup3\n        /* \"#utility.yul\":30288:30302   */\n      add\n        /* \"#utility.yul\":30281:30339   */\n      mstore\n        /* \"#utility.yul\":30373:30385   */\n      0x6f74207375636365656400000000000000000000000000000000000000000000\n        /* \"#utility.yul\":30368:30370   */\n      0x20\n        /* \"#utility.yul\":30360:30366   */\n      dup3\n        /* \"#utility.yul\":30356:30371   */\n      add\n        /* \"#utility.yul\":30349:30386   */\n      mstore\n        /* \"#utility.yul\":30164:30393   */\n      pop\n      jump\t// out\n        /* \"#utility.yul\":30399:30765   */\n    tag_348:\n        /* \"#utility.yul\":30541:30544   */\n      0x00\n        /* \"#utility.yul\":30562:30629   */\n      tag_646\n        /* \"#utility.yul\":30626:30628   */\n      0x2a\n        /* \"#utility.yul\":30621:30624   */\n      dup4\n        /* \"#utility.yul\":30562:30629   */\n      tag_315\n      jump\t// in\n    tag_646:\n        /* \"#utility.yul\":30555:30629   */\n      swap2\n      pop\n        /* \"#utility.yul\":30638:30731   */\n      tag_647\n        /* \"#utility.yul\":30727:30730   */\n      dup3\n        /* \"#utility.yul\":30638:30731   */\n      tag_347\n      jump\t// in\n    tag_647:\n        /* \"#utility.yul\":30756:30758   */\n      0x40\n        /* \"#utility.yul\":30751:30754   */\n      dup3\n        /* \"#utility.yul\":30747:30759   */\n      add\n        /* \"#utility.yul\":30740:30759   */\n      swap1\n      pop\n        /* \"#utility.yul\":30399:30765   */\n      swap2\n      swap1\n      pop\n      jump\t// out\n        /* \"#utility.yul\":30771:31190   */\n    tag_240:\n        /* \"#utility.yul\":30937:30941   */\n      0x00\n        /* \"#utility.yul\":30975:30977   */\n      0x20\n        /* \"#utility.yul\":30964:30973   */\n      dup3\n        /* \"#utility.yul\":30960:30978   */\n      add\n        /* \"#utility.yul\":30952:30978   */\n      swap1\n      pop\n        /* \"#utility.yul\":31024:31033   */\n      dup2\n        /* \"#utility.yul\":31018:31022   */\n      dup2\n        /* \"#utility.yul\":31014:31034   */\n      sub\n        /* \"#utility.yul\":31010:31011   */\n      0x00\n        /* \"#utility.yul\":30999:31008   */\n      dup4\n        /* \"#utility.yul\":30995:31012   */\n      add\n        /* \"#utility.yul\":30988:31035   */\n      mstore\n        /* \"#utility.yul\":31052:31183   */\n      tag_649\n        /* \"#utility.yul\":31178:31182   */\n      dup2\n        /* \"#utility.yul\":31052:31183   */\n      tag_348\n      jump\t// in\n    tag_649:\n        /* \"#utility.yul\":31044:31183   */\n      swap1\n      pop\n        /* \"#utility.yul\":30771:31190   */\n      swap2\n      swap1\n      pop\n      jump\t// out\n        /* \"#utility.yul\":31196:31390   */\n    tag_245:\n        /* \"#utility.yul\":31236:31240   */\n      0x00\n        /* \"#utility.yul\":31256:31276   */\n      tag_651\n        /* \"#utility.yul\":31274:31275   */\n      dup3\n        /* \"#utility.yul\":31256:31276   */\n      tag_276\n      jump\t// in\n    tag_651:\n        /* \"#utility.yul\":31251:31276   */\n      swap2\n      pop\n        /* \"#utility.yul\":31290:31310   */\n      tag_652\n        /* \"#utility.yul\":31308:31309   */\n      dup4\n        /* \"#utility.yul\":31290:31310   */\n      tag_276\n      jump\t// in\n    tag_652:\n        /* \"#utility.yul\":31285:31310   */\n      swap3\n      pop\n        /* \"#utility.yul\":31334:31335   */\n      dup3\n        /* \"#utility.yul\":31331:31332   */\n      dup3\n        /* \"#utility.yul\":31327:31336   */\n      sub\n        /* \"#utility.yul\":31319:31336   */\n      swap1\n      pop\n        /* \"#utility.yul\":31358:31359   */\n      dup2\n        /* \"#utility.yul\":31352:31356   */\n      dup2\n        /* \"#utility.yul\":31349:31360   */\n      gt\n        /* \"#utility.yul\":31346:31383   */\n      iszero\n      tag_653\n      jumpi\n        /* \"#utility.yul\":31363:31381   */\n      tag_654\n      tag_314\n      jump\t// in\n    tag_654:\n        /* \"#utility.yul\":31346:31383   */\n    tag_653:\n        /* \"#utility.yul\":31196:31390   */\n      swap3\n      swap2\n      pop\n      pop\n      jump\t// out\n        /* \"#utility.yul\":31396:31621   */\n    tag_349:\n        /* \"#utility.yul\":31536:31570   */\n      0x416464726573733a20696e73756666696369656e742062616c616e636520666f\n        /* \"#utility.yul\":31532:31533   */\n      0x00\n        /* \"#utility.yul\":31524:31530   */\n      dup3\n        /* \"#utility.yul\":31520:31534   */\n      add\n        /* \"#utility.yul\":31513:31571   */\n      mstore\n        /* \"#utility.yul\":31605:31613   */\n      0x722063616c6c0000000000000000000000000000000000000000000000000000\n        /* \"#utility.yul\":31600:31602   */\n      0x20\n        /* \"#utility.yul\":31592:31598   */\n      dup3\n        /* \"#utility.yul\":31588:31603   */\n      add\n        /* \"#utility.yul\":31581:31614   */\n      mstore\n        /* \"#utility.yul\":31396:31621   */\n      pop\n      jump\t// out\n        /* \"#utility.yul\":31627:31993   */\n    tag_350:\n        /* \"#utility.yul\":31769:31772   */\n      0x00\n        /* \"#utility.yul\":31790:31857   */\n      tag_657\n        /* \"#utility.yul\":31854:31856   */\n      0x26\n        /* \"#utility.yul\":31849:31852   */\n      dup4\n        /* \"#utility.yul\":31790:31857   */\n      tag_315\n      jump\t// in\n    tag_657:\n        /* \"#utility.yul\":31783:31857   */\n      swap2\n      pop\n        /* \"#utility.yul\":31866:31959   */\n      tag_658\n        /* \"#utility.yul\":31955:31958   */\n      dup3\n        /* \"#utility.yul\":31866:31959   */\n      tag_349\n      jump\t// in\n    tag_658:\n        /* \"#utility.yul\":31984:31986   */\n      0x40\n        /* \"#utility.yul\":31979:31982   */\n      dup3\n        /* \"#utility.yul\":31975:31987   */\n      add\n        /* \"#utility.yul\":31968:31987   */\n      swap1\n      pop\n        /* \"#utility.yul\":31627:31993   */\n      swap2\n      swap1\n      pop\n      jump\t// out\n        /* \"#utility.yul\":31999:32418   */\n    tag_256:\n        /* \"#utility.yul\":32165:32169   */\n      0x00\n        /* \"#utility.yul\":32203:32205   */\n      0x20\n        /* \"#utility.yul\":32192:32201   */\n      dup3\n        /* \"#utility.yul\":32188:32206   */\n      add\n        /* \"#utility.yul\":32180:32206   */\n      swap1\n      pop\n        /* \"#utility.yul\":32252:32261   */\n      dup2\n        /* \"#utility.yul\":32246:32250   */\n      dup2\n        /* \"#utility.yul\":32242:32262   */\n      sub\n        /* \"#utility.yul\":32238:32239   */\n      0x00\n        /* \"#utility.yul\":32227:32236   */\n      dup4\n        /* \"#utility.yul\":32223:32240   */\n      add\n        /* \"#utility.yul\":32216:32263   */\n      mstore\n        /* \"#utility.yul\":32280:32411   */\n      tag_660\n        /* \"#utility.yul\":32406:32410   */\n      dup2\n        /* \"#utility.yul\":32280:32411   */\n      tag_350\n      jump\t// in\n    tag_660:\n        /* \"#utility.yul\":32272:32411   */\n      swap1\n      pop\n        /* \"#utility.yul\":31999:32418   */\n      swap2\n      swap1\n      pop\n      jump\t// out\n        /* \"#utility.yul\":32424:32603   */\n    tag_351:\n        /* \"#utility.yul\":32564:32595   */\n      0x416464726573733a2063616c6c20746f206e6f6e2d636f6e7472616374000000\n        /* \"#utility.yul\":32560:32561   */\n      0x00\n        /* \"#utility.yul\":32552:32558   */\n      dup3\n        /* \"#utility.yul\":32548:32562   */\n      add\n        /* \"#utility.yul\":32541:32596   */\n      mstore\n        /* \"#utility.yul\":32424:32603   */\n      pop\n      jump\t// out\n        /* \"#utility.yul\":32609:32975   */\n    tag_352:\n        /* \"#utility.yul\":32751:32754   */\n      0x00\n        /* \"#utility.yul\":32772:32839   */\n      tag_663\n        /* \"#utility.yul\":32836:32838   */\n      0x1d\n        /* \"#utility.yul\":32831:32834   */\n      dup4\n        /* \"#utility.yul\":32772:32839   */\n      tag_315\n      jump\t// in\n    tag_663:\n        /* \"#utility.yul\":32765:32839   */\n      swap2\n      pop\n        /* \"#utility.yul\":32848:32941   */\n      tag_664\n        /* \"#utility.yul\":32937:32940   */\n      dup3\n        /* \"#utility.yul\":32848:32941   */\n      tag_351\n      jump\t// in\n    tag_664:\n        /* \"#utility.yul\":32966:32968   */\n      0x20\n        /* \"#utility.yul\":32961:32964   */\n      dup3\n        /* \"#utility.yul\":32957:32969   */\n      add\n        /* \"#utility.yul\":32950:32969   */\n      swap1\n      pop\n        /* \"#utility.yul\":32609:32975   */\n      swap2\n      swap1\n      pop\n      jump\t// out\n        /* \"#utility.yul\":32981:33400   */\n    tag_261:\n        /* \"#utility.yul\":33147:33151   */\n      0x00\n        /* \"#utility.yul\":33185:33187   */\n      0x20\n        /* \"#utility.yul\":33174:33183   */\n      dup3\n        /* \"#utility.yul\":33170:33188   */\n      add\n        /* \"#utility.yul\":33162:33188   */\n      swap1\n      pop\n        /* \"#utility.yul\":33234:33243   */\n      dup2\n        /* \"#utility.yul\":33228:33232   */\n      dup2\n        /* \"#utility.yul\":33224:33244   */\n      sub\n        /* \"#utility.yul\":33220:33221   */\n      0x00\n        /* \"#utility.yul\":33209:33218   */\n      dup4\n        /* \"#utility.yul\":33205:33222   */\n      add\n        /* \"#utility.yul\":33198:33245   */\n      mstore\n        /* \"#utility.yul\":33262:33393   */\n      tag_666\n        /* \"#utility.yul\":33388:33392   */\n      dup2\n        /* \"#utility.yul\":33262:33393   */\n      tag_352\n      jump\t// in\n    tag_666:\n        /* \"#utility.yul\":33254:33393   */\n      swap1\n      pop\n        /* \"#utility.yul\":32981:33400   */\n      swap2\n      swap1\n      pop\n      jump\t// out\n        /* \"#utility.yul\":33406:33504   */\n    tag_353:\n        /* \"#utility.yul\":33457:33463   */\n      0x00\n        /* \"#utility.yul\":33491:33496   */\n      dup2\n        /* \"#utility.yul\":33485:33497   */\n      mload\n        /* \"#utility.yul\":33475:33497   */\n      swap1\n      pop\n        /* \"#utility.yul\":33406:33504   */\n      swap2\n      swap1\n      pop\n      jump\t// out\n        /* \"#utility.yul\":33510:33657   */\n    tag_354:\n        /* \"#utility.yul\":33611:33622   */\n      0x00\n        /* \"#utility.yul\":33648:33651   */\n      dup2\n        /* \"#utility.yul\":33633:33651   */\n      swap1\n      pop\n        /* \"#utility.yul\":33510:33657   */\n      swap3\n      swap2\n      pop\n      pop\n      jump\t// out\n        /* \"#utility.yul\":33663:34049   */\n    tag_355:\n        /* \"#utility.yul\":33767:33770   */\n      0x00\n        /* \"#utility.yul\":33795:33833   */\n      tag_670\n        /* \"#utility.yul\":33827:33832   */\n      dup3\n        /* \"#utility.yul\":33795:33833   */\n      tag_353\n      jump\t// in\n    tag_670:\n        /* \"#utility.yul\":33849:33937   */\n      tag_671\n        /* \"#utility.yul\":33930:33936   */\n      dup2\n        /* \"#utility.yul\":33925:33928   */\n      dup6\n        /* \"#utility.yul\":33849:33937   */\n      tag_354\n      jump\t// in\n    tag_671:\n        /* \"#utility.yul\":33842:33937   */\n      swap4\n      pop\n        /* \"#utility.yul\":33946:34011   */\n      tag_672\n        /* \"#utility.yul\":34004:34010   */\n      dup2\n        /* \"#utility.yul\":33999:34002   */\n      dup6\n        /* \"#utility.yul\":33992:33996   */\n      0x20\n        /* \"#utility.yul\":33985:33990   */\n      dup7\n        /* \"#utility.yul\":33981:33997   */\n      add\n        /* \"#utility.yul\":33946:34011   */\n      tag_325\n      jump\t// in\n    tag_672:\n        /* \"#utility.yul\":34036:34042   */\n      dup1\n        /* \"#utility.yul\":34031:34034   */\n      dup5\n        /* \"#utility.yul\":34027:34043   */\n      add\n        /* \"#utility.yul\":34020:34043   */\n      swap2\n      pop\n        /* \"#utility.yul\":33771:34049   */\n      pop\n        /* \"#utility.yul\":33663:34049   */\n      swap3\n      swap2\n      pop\n      pop\n      jump\t// out\n        /* \"#utility.yul\":34055:34326   */\n    tag_263:\n        /* \"#utility.yul\":34185:34188   */\n      0x00\n        /* \"#utility.yul\":34207:34300   */\n      tag_674\n        /* \"#utility.yul\":34296:34299   */\n      dup3\n        /* \"#utility.yul\":34287:34293   */\n      dup5\n        /* \"#utility.yul\":34207:34300   */\n      tag_355\n      jump\t// in\n    tag_674:\n        /* \"#utility.yul\":34200:34300   */\n      swap2\n      pop\n        /* \"#utility.yul\":34317:34320   */\n      dup2\n        /* \"#utility.yul\":34310:34320   */\n      swap1\n      pop\n        /* \"#utility.yul\":34055:34326   */\n      swap3\n      swap2\n      pop\n      pop\n      jump\t// out\n\n    auxdata: 0xa2646970667358221220bc6dcc8abc468e2745873e1c094a5d4b199788f4649650e2ba8a3375d32fea8e64736f6c63430008130033\n}\n",
				"bytecode": {
					"linkReferences": {},
					"object": "60806040526012600455600454600a6200001a919062000220565b611c2062000029919062000271565b6008556203f48060095561012c600a556000600b553480156200004b57600080fd5b5033600760006101000a81548173ffffffffffffffffffffffffffffffffffffffff021916908373ffffffffffffffffffffffffffffffffffffffff160217905550620002bc565b7f4e487b7100000000000000000000000000000000000000000000000000000000600052601160045260246000fd5b60008160011c9050919050565b6000808291508390505b60018511156200012157808604811115620000f957620000f862000093565b5b6001851615620001095780820291505b80810290506200011985620000c2565b9450620000d9565b94509492505050565b6000826200013c57600190506200020f565b816200014c57600090506200020f565b81600181146200016557600281146200017057620001a6565b60019150506200020f565b60ff84111562000185576200018462000093565b5b8360020a9150848211156200019f576200019e62000093565b5b506200020f565b5060208310610133831016604e8410600b8410161715620001e05782820a905083811115620001da57620001d962000093565b5b6200020f565b620001ef8484846001620000cf565b9250905081840481111562000209576200020862000093565b5b81810290505b9392505050565b6000819050919050565b60006200022d8262000216565b91506200023a8362000216565b9250620002697fffffffffffffffffffffffffffffffffffffffffffffffffffffffffffffffff84846200012a565b905092915050565b60006200027e8262000216565b91506200028b8362000216565b92508282026200029b8162000216565b91508282048414831517620002b557620002b462000093565b5b5092915050565b61263f80620002cc6000396000f3fe608060405234801561001057600080fd5b50600436106101165760003560e01c80634b14c0ef116100a2578063a6f9dae111610071578063a6f9dae114610297578063c3af57f0146102b3578063c52c31fa146102d1578063dfaf734a146102ed578063fc0c546a1461030b57610116565b80634b14c0ef146102215780635aeca1261461023f578063804a83761461025b5780639e1a4d191461027957610116565b806326a4e8d2116100e957806326a4e8d2146101915780632a5f669a146101ad578063313ce567146101c95780634496f183146101e757806347a586261461020357610116565b80630a48eba41461011b578063107531d814610139578063119f259014610157578063188ec35614610173575b600080fd5b610123610329565b6040516101309190611398565b60405180910390f35b610141610370565b60405161014e9190611398565b60405180910390f35b610171600480360381019061016c9190611425565b61037a565b005b61017b610418565b6040516101889190611398565b60405180910390f35b6101ab60048036038101906101a69190611425565b610420565b005b6101c760048036038101906101c2919061176d565b6104bd565b005b6101d161083b565b6040516101de9190611398565b60405180910390f35b61020160048036038101906101fc9190611896565b610845565b005b61020b610bf0565b6040516102189190611926565b60405180910390f35b610229610c1a565b6040516102369190611398565b60405180910390f35b61025960048036038101906102549190611941565b610c24565b005b610263610c88565b6040516102709190611398565b60405180910390f35b610281610cd2565b60405161028e9190611398565b60405180910390f35b6102b160048036038101906102ac9190611425565b610da4565b005b6102bb610e42565b6040516102c89190611398565b60405180910390f35b6102eb60048036038101906102e69190611425565b610e4c565b005b6102f5610e90565b6040516103029190611398565b60405180910390f35b610313610e9a565b60405161032091906119cd565b60405180910390f35b6000806008549050600061033b610c88565b905060008111156103685761035a600182610ec390919063ffffffff16565b826103659190611a46565b91505b819250505090565b6000600b54905090565b600760009054906101000a900473ffffffffffffffffffffffffffffffffffffffff1673ffffffffffffffffffffffffffffffffffffffff163373ffffffffffffffffffffffffffffffffffffffff16146103d457600080fd5b80600260006101000a81548173ffffffffffffffffffffffffffffffffffffffff021916908373ffffffffffffffffffffffffffffffffffffffff16021790555050565b600042905090565b600760009054906101000a900473ffffffffffffffffffffffffffffffffffffffff1673ffffffffffffffffffffffffffffffffffffffff163373ffffffffffffffffffffffffffffffffffffffff161461047a57600080fd5b806000806101000a81548173ffffffffffffffffffffffffffffffffffffffff021916908373ffffffffffffffffffffffffffffffffffffffff16021790555050565b600760009054906101000a900473ffffffffffffffffffffffffffffffffffffffff1673ffffffffffffffffffffffffffffffffffffffff163373ffffffffffffffffffffffffffffffffffffffff161461051757600080fd5b805182511461055b576040517f08c379a000000000000000000000000000000000000000000000000000000000815260040161055290611b20565b60405180910390fd5b600073ffffffffffffffffffffffffffffffffffffffff1661057b610e9a565b73ffffffffffffffffffffffffffffffffffffffff16036105d1576040517f08c379a00000000000000000000000000000000000000000000000000000000081526004016105c890611b8c565b60405180910390fd5b600073ffffffffffffffffffffffffffffffffffffffff166105f1610bf0565b73ffffffffffffffffffffffffffffffffffffffff1603610647576040517f08c379a000000000000000000000000000000000000000000000000000000000815260040161063e90611c1e565b60405180910390fd5b6000805b825181101561068f5782818151811061066757610666611c3e565b5b60200260200101518261067a9190611c6d565b9150808061068790611ca1565b91505061064b565b5080610699610cd2565b10156106da576040517f08c379a00000000000000000000000000000000000000000000000000000000081526004016106d190611d5b565b60405180910390fd5b60006106e4610bf0565b905060005b84518110156108345760008273ffffffffffffffffffffffffffffffffffffffff16636441f9d087848151811061072357610722611c3e565b5b60200260200101516040518263ffffffff1660e01b81526004016107479190611de9565b600060405180830381865afa158015610764573d6000803e3d6000fd5b505050506040513d6000823e3d601f19601f8201168201806040525081019061078d9190612025565b905060008160200151905060008684815181106107ad576107ac611c3e565b5b60200260200101519050600073ffffffffffffffffffffffffffffffffffffffff168273ffffffffffffffffffffffffffffffffffffffff161461081e5761081d82826107f8610e9a565b73ffffffffffffffffffffffffffffffffffffffff16610f219092919063ffffffff16565b5b505050808061082c90611ca1565b9150506106e9565b5050505050565b6000600454905090565b600061086b600a54600b5461085a919061206e565b600654610ec390919063ffffffff16565b90506000610877610329565b90506000600654116108be576040517f08c379a00000000000000000000000000000000000000000000000000000000081526004016108b590612122565b60405180910390fd5b600073ffffffffffffffffffffffffffffffffffffffff16600260009054906101000a900473ffffffffffffffffffffffffffffffffffffffff1673ffffffffffffffffffffffffffffffffffffffff160361094f576040517f08c379a0000000000000000000000000000000000000000000000000000000008152600401610946906121b4565b60405180910390fd5b600073ffffffffffffffffffffffffffffffffffffffff1660008054906101000a900473ffffffffffffffffffffffffffffffffffffffff1673ffffffffffffffffffffffffffffffffffffffff16036109de576040517f08c379a00000000000000000000000000000000000000000000000000000000081526004016109d590611b8c565b60405180910390fd5b81421015610a21576040517f08c379a0000000000000000000000000000000000000000000000000000000008152600401610a1890612246565b60405180910390fd5b81600381905550610a3d81600554610ec390919063ffffffff16565b6005819055506000805b87879050811015610b0557610ac4888883818110610a6857610a67611c3e565b5b9050602002016020810190610a7d9190611425565b878784818110610a9057610a8f611c3e565b5b90506020020135610a9f610e9a565b73ffffffffffffffffffffffffffffffffffffffff16610f219092919063ffffffff16565b610af0868683818110610ada57610ad9611c3e565b5b9050602002013583610ec390919063ffffffff16565b91508080610afd90611ca1565b915050610a47565b5080821015610b49576040517f08c379a0000000000000000000000000000000000000000000000000000000008152600401610b40906122d8565b60405180910390fd5b6000610b5e8284610fa790919063ffffffff16565b1115610bcb57610bca600260009054906101000a900473ffffffffffffffffffffffffffffffffffffffff16610b9d8385610fa790919063ffffffff16565b610ba5610e9a565b73ffffffffffffffffffffffffffffffffffffffff16610f219092919063ffffffff16565b5b610be16001600b54610ec390919063ffffffff16565b600b8190555050505050505050565b6000600160009054906101000a900473ffffffffffffffffffffffffffffffffffffffff16905090565b6000600554905090565b600760009054906101000a900473ffffffffffffffffffffffffffffffffffffffff1673ffffffffffffffffffffffffffffffffffffffff163373ffffffffffffffffffffffffffffffffffffffff1614610c7e57600080fd5b8060068190555050565b6000806006541115610cca576000610cbf600954610cb160065442610fa790919063ffffffff16565b610ff190919063ffffffff16565b905080915050610ccf565b600090505b90565b60008073ffffffffffffffffffffffffffffffffffffffff16610cf3610e9a565b73ffffffffffffffffffffffffffffffffffffffff1603610d175760009050610da1565b6000610d21610e9a565b73ffffffffffffffffffffffffffffffffffffffff166370a08231306040518263ffffffff1660e01b8152600401610d599190611926565b602060405180830381865afa158015610d76573d6000803e3d6000fd5b505050506040513d601f19601f82011682018060405250810190610d9a91906122f8565b9050809150505b90565b600760009054906101000a900473ffffffffffffffffffffffffffffffffffffffff1673ffffffffffffffffffffffffffffffffffffffff163373ffffffffffffffffffffffffffffffffffffffff1614610dfe57600080fd5b80600760006101000a81548173ffffffffffffffffffffffffffffffffffffffff021916908373ffffffffffffffffffffffffffffffffffffffff16021790555050565b6000600b54905090565b80600160006101000a81548173ffffffffffffffffffffffffffffffffffffffff021916908373ffffffffffffffffffffffffffffffffffffffff16021790555050565b6000600354905090565b60008060009054906101000a900473ffffffffffffffffffffffffffffffffffffffff16905090565b6000808284610ed29190611c6d565b905083811015610f17576040517f08c379a0000000000000000000000000000000000000000000000000000000008152600401610f0e90612371565b60405180910390fd5b8091505092915050565b610fa28363a9059cbb60e01b8484604051602401610f40929190612391565b604051602081830303815290604052907bffffffffffffffffffffffffffffffffffffffffffffffffffffffff19166020820180517bffffffffffffffffffffffffffffffffffffffffffffffffffffffff838183161783525050505061103b565b505050565b6000610fe983836040518060400160405280601e81526020017f536166654d6174683a207375627472616374696f6e206f766572666c6f770000815250611102565b905092915050565b600061103383836040518060400160405280601a81526020017f536166654d6174683a206469766973696f6e206279207a65726f000000000000815250611166565b905092915050565b600061109d826040518060400160405280602081526020017f5361666545524332303a206c6f772d6c6576656c2063616c6c206661696c65648152508573ffffffffffffffffffffffffffffffffffffffff166111c99092919063ffffffff16565b90506000815111156110fd57808060200190518101906110bd91906123ba565b6110fc576040517f08c379a00000000000000000000000000000000000000000000000000000000081526004016110f390612459565b60405180910390fd5b5b505050565b600083831115829061114a576040517f08c379a00000000000000000000000000000000000000000000000000000000081526004016111419190611de9565b60405180910390fd5b50600083856111599190612479565b9050809150509392505050565b600080831182906111ad576040517f08c379a00000000000000000000000000000000000000000000000000000000081526004016111a49190611de9565b60405180910390fd5b50600083856111bc9190611a46565b9050809150509392505050565b60606111d884846000856111e1565b90509392505050565b606082471015611226576040517f08c379a000000000000000000000000000000000000000000000000000000000815260040161121d9061251f565b60405180910390fd5b61122f856112f5565b61126e576040517f08c379a00000000000000000000000000000000000000000000000000000000081526004016112659061258b565b60405180910390fd5b6000808673ffffffffffffffffffffffffffffffffffffffff16858760405161129791906125f2565b60006040518083038185875af1925050503d80600081146112d4576040519150601f19603f3d011682016040523d82523d6000602084013e6112d9565b606091505b50915091506112e9828286611318565b92505050949350505050565b6000808273ffffffffffffffffffffffffffffffffffffffff163b119050919050565b6060831561132857829050611378565b60008351111561133b5782518084602001fd5b816040517f08c379a000000000000000000000000000000000000000000000000000000000815260040161136f9190611de9565b60405180910390fd5b9392505050565b6000819050919050565b6113928161137f565b82525050565b60006020820190506113ad6000830184611389565b92915050565b6000604051905090565b600080fd5b600080fd5b600073ffffffffffffffffffffffffffffffffffffffff82169050919050565b60006113f2826113c7565b9050919050565b611402816113e7565b811461140d57600080fd5b50565b60008135905061141f816113f9565b92915050565b60006020828403121561143b5761143a6113bd565b5b600061144984828501611410565b91505092915050565b600080fd5b6000601f19601f8301169050919050565b7f4e487b7100000000000000000000000000000000000000000000000000000000600052604160045260246000fd5b6114a082611457565b810181811067ffffffffffffffff821117156114bf576114be611468565b5b80604052505050565b60006114d26113b3565b90506114de8282611497565b919050565b600067ffffffffffffffff8211156114fe576114fd611468565b5b602082029050602081019050919050565b600080fd5b600080fd5b600067ffffffffffffffff82111561153457611533611468565b5b61153d82611457565b9050602081019050919050565b82818337600083830152505050565b600061156c61156784611519565b6114c8565b90508281526020810184848401111561158857611587611514565b5b61159384828561154a565b509392505050565b600082601f8301126115b0576115af611452565b5b81356115c0848260208601611559565b91505092915050565b60006115dc6115d7846114e3565b6114c8565b905080838252602082019050602084028301858111156115ff576115fe61150f565b5b835b8181101561164657803567ffffffffffffffff81111561162457611623611452565b5b808601611631898261159b565b85526020850194505050602081019050611601565b5050509392505050565b600082601f83011261166557611664611452565b5b81356116758482602086016115c9565b91505092915050565b600067ffffffffffffffff82111561169957611698611468565b5b602082029050602081019050919050565b6116b38161137f565b81146116be57600080fd5b50565b6000813590506116d0816116aa565b92915050565b60006116e96116e48461167e565b6114c8565b9050808382526020820190506020840283018581111561170c5761170b61150f565b5b835b81811015611735578061172188826116c1565b84526020840193505060208101905061170e565b5050509392505050565b600082601f83011261175457611753611452565b5b81356117648482602086016116d6565b91505092915050565b60008060408385031215611784576117836113bd565b5b600083013567ffffffffffffffff8111156117a2576117a16113c2565b5b6117ae85828601611650565b925050602083013567ffffffffffffffff8111156117cf576117ce6113c2565b5b6117db8582860161173f565b9150509250929050565b600080fd5b60008083601f840112611800576117ff611452565b5b8235905067ffffffffffffffff81111561181d5761181c6117e5565b5b6020830191508360208202830111156118395761183861150f565b5b9250929050565b60008083601f84011261185657611855611452565b5b8235905067ffffffffffffffff811115611873576118726117e5565b5b60208301915083602082028301111561188f5761188e61150f565b5b9250929050565b600080600080604085870312156118b0576118af6113bd565b5b600085013567ffffffffffffffff8111156118ce576118cd6113c2565b5b6118da878288016117ea565b9450945050602085013567ffffffffffffffff8111156118fd576118fc6113c2565b5b61190987828801611840565b925092505092959194509250565b611920816113e7565b82525050565b600060208201905061193b6000830184611917565b92915050565b600060208284031215611957576119566113bd565b5b6000611965848285016116c1565b91505092915050565b6000819050919050565b600061199361198e611989846113c7565b61196e565b6113c7565b9050919050565b60006119a582611978565b9050919050565b60006119b78261199a565b9050919050565b6119c7816119ac565b82525050565b60006020820190506119e260008301846119be565b92915050565b7f4e487b7100000000000000000000000000000000000000000000000000000000600052601260045260246000fd5b7f4e487b7100000000000000000000000000000000000000000000000000000000600052601160045260246000fd5b6000611a518261137f565b9150611a5c8361137f565b925082611a6c57611a6b6119e8565b5b828204905092915050565b600082825260208201905092915050565b7f506c6561736520636865636b2074686520646174612c20746865206e6577732060008201527f494420616e6420646973747269627574696f6e207175616e746974792061726560208201527f20696e636f6e73697374656e7400000000000000000000000000000000000000604082015250565b6000611b0a604d83611a77565b9150611b1582611a88565b606082019050919050565b60006020820190508181036000830152611b3981611afd565b9050919050565b7f52656c656173653a206e6565642073657420546f6b656e204164647265737300600082015250565b6000611b76601f83611a77565b9150611b8182611b40565b602082019050919050565b60006020820190508181036000830152611ba581611b69565b9050919050565b7f52656c656173653a206e65656420736574204368616c6c656e6720436f6e747260008201527f6163742041646472657373000000000000000000000000000000000000000000602082015250565b6000611c08602b83611a77565b9150611c1382611bac565b604082019050919050565b60006020820190508181036000830152611c3781611bfb565b9050919050565b7f4e487b7100000000000000000000000000000000000000000000000000000000600052603260045260246000fd5b6000611c788261137f565b9150611c838361137f565b9250828201905080821115611c9b57611c9a611a17565b5b92915050565b6000611cac8261137f565b91507fffffffffffffffffffffffffffffffffffffffffffffffffffffffffffffffff8203611cde57611cdd611a17565b5b600182019050919050565b7f52656c656173653a20496e73756666696369656e7420746f74616c20616d6f7560008201527f6e7420617661696c61626c6520666f7220646973747269627574696f6e000000602082015250565b6000611d45603d83611a77565b9150611d5082611ce9565b604082019050919050565b60006020820190508181036000830152611d7481611d38565b9050919050565b600081519050919050565b60005b83811015611da4578082015181840152602081019050611d89565b60008484015250505050565b6000611dbb82611d7b565b611dc58185611a77565b9350611dd5818560208601611d86565b611dde81611457565b840191505092915050565b60006020820190508181036000830152611e038184611db0565b905092915050565b600080fd5b600080fd5b6000611e28611e2384611519565b6114c8565b905082815260208101848484011115611e4457611e43611514565b5b611e4f848285611d86565b509392505050565b600082601f830112611e6c57611e6b611452565b5b8151611e7c848260208601611e15565b91505092915050565b600081519050611e94816113f9565b92915050565b600081519050611ea9816116aa565b92915050565b60008115159050919050565b611ec481611eaf565b8114611ecf57600080fd5b50565b600081519050611ee181611ebb565b92915050565b60006101808284031215611efe57611efd611e0b565b5b611f096101806114c8565b9050600082015167ffffffffffffffff811115611f2957611f28611e10565b5b611f3584828501611e57565b6000830152506020611f4984828501611e85565b6020830152506040611f5d84828501611e9a565b6040830152506060611f7184828501611e9a565b6060830152506080611f8584828501611ed2565b60808301525060a0611f9984828501611ed2565b60a08301525060c0611fad84828501611ed2565b60c08301525060e0611fc184828501611e9a565b60e083015250610100611fd684828501611ed2565b61010083015250610120611fec84828501611e9a565b6101208301525061014061200284828501611e9a565b6101408301525061016061201884828501611e9a565b6101608301525092915050565b60006020828403121561203b5761203a6113bd565b5b600082015167ffffffffffffffff811115612059576120586113c2565b5b61206584828501611ee7565b91505092915050565b60006120798261137f565b91506120848361137f565b92508282026120928161137f565b915082820484148315176120a9576120a8611a17565b5b5092915050565b7f52656c656173653a206e656564207365742046697273742052656c656173652060008201527f54696d6500000000000000000000000000000000000000000000000000000000602082015250565b600061210c602483611a77565b9150612117826120b0565b604082019050919050565b6000602082019050818103600083015261213b816120ff565b9050919050565b7f52656c656173653a206e6565642073657420526563656976696e67204164647260008201527f6573730000000000000000000000000000000000000000000000000000000000602082015250565b600061219e602383611a77565b91506121a982612142565b604082019050919050565b600060208201905081810360008301526121cd81612191565b9050919050565b7f52656c656173653a2063757272656e742074696d65206973206265666f72652060008201527f72656c656173652074696d650000000000000000000000000000000000000000602082015250565b6000612230602c83611a77565b915061223b826121d4565b604082019050919050565b6000602082019050818103600083015261225f81612223565b9050919050565b7f546865206e756d626572206f66206169722064726f707320657863656564732060008201527f746865206461696c792072656c6561736520616d6f756e740000000000000000602082015250565b60006122c2603883611a77565b91506122cd82612266565b604082019050919050565b600060208201905081810360008301526122f1816122b5565b9050919050565b60006020828403121561230e5761230d6113bd565b5b600061231c84828501611e9a565b91505092915050565b7f536166654d6174683a206164646974696f6e206f766572666c6f770000000000600082015250565b600061235b601b83611a77565b915061236682612325565b602082019050919050565b6000602082019050818103600083015261238a8161234e565b9050919050565b60006040820190506123a66000830185611917565b6123b36020830184611389565b9392505050565b6000602082840312156123d0576123cf6113bd565b5b60006123de84828501611ed2565b91505092915050565b7f5361666545524332303a204552433230206f7065726174696f6e20646964206e60008201527f6f74207375636365656400000000000000000000000000000000000000000000602082015250565b6000612443602a83611a77565b915061244e826123e7565b604082019050919050565b6000602082019050818103600083015261247281612436565b9050919050565b60006124848261137f565b915061248f8361137f565b92508282039050818111156124a7576124a6611a17565b5b92915050565b7f416464726573733a20696e73756666696369656e742062616c616e636520666f60008201527f722063616c6c0000000000000000000000000000000000000000000000000000602082015250565b6000612509602683611a77565b9150612514826124ad565b604082019050919050565b60006020820190508181036000830152612538816124fc565b9050919050565b7f416464726573733a2063616c6c20746f206e6f6e2d636f6e7472616374000000600082015250565b6000612575601d83611a77565b91506125808261253f565b602082019050919050565b600060208201905081810360008301526125a481612568565b9050919050565b600081519050919050565b600081905092915050565b60006125cc826125ab565b6125d681856125b6565b93506125e6818560208601611d86565b80840191505092915050565b60006125fe82846125c1565b91508190509291505056fea2646970667358221220bc6dcc8abc468e2745873e1c094a5d4b199788f4649650e2ba8a3375d32fea8e64736f6c63430008130033",
					"opcodes": "PUSH1 0x80 PUSH1 0x40 MSTORE PUSH1 0x12 PUSH1 0x4 SSTORE PUSH1 0x4 SLOAD PUSH1 0xA PUSH3 0x1A SWAP2 SWAP1 PUSH3 0x220 JUMP JUMPDEST PUSH2 0x1C20 PUSH3 0x29 SWAP2 SWAP1 PUSH3 0x271 JUMP JUMPDEST PUSH1 0x8 SSTORE PUSH3 0x3F480 PUSH1 0x9 SSTORE PUSH2 0x12C PUSH1 0xA SSTORE PUSH1 0x0 PUSH1 0xB SSTORE CALLVALUE DUP1 ISZERO PUSH3 0x4B JUMPI PUSH1 0x0 DUP1 REVERT JUMPDEST POP CALLER PUSH1 0x7 PUSH1 0x0 PUSH2 0x100 EXP DUP2 SLOAD DUP2 PUSH20 0xFFFFFFFFFFFFFFFFFFFFFFFFFFFFFFFFFFFFFFFF MUL NOT AND SWAP1 DUP4 PUSH20 0xFFFFFFFFFFFFFFFFFFFFFFFFFFFFFFFFFFFFFFFF AND MUL OR SWAP1 SSTORE POP PUSH3 0x2BC JUMP JUMPDEST PUSH32 0x4E487B7100000000000000000000000000000000000000000000000000000000 PUSH1 0x0 MSTORE PUSH1 0x11 PUSH1 0x4 MSTORE PUSH1 0x24 PUSH1 0x0 REVERT JUMPDEST PUSH1 0x0 DUP2 PUSH1 0x1 SHR SWAP1 POP SWAP2 SWAP1 POP JUMP JUMPDEST PUSH1 0x0 DUP1 DUP3 SWAP2 POP DUP4 SWAP1 POP JUMPDEST PUSH1 0x1 DUP6 GT ISZERO PUSH3 0x121 JUMPI DUP1 DUP7 DIV DUP2 GT ISZERO PUSH3 0xF9 JUMPI PUSH3 0xF8 PUSH3 0x93 JUMP JUMPDEST JUMPDEST PUSH1 0x1 DUP6 AND ISZERO PUSH3 0x109 JUMPI DUP1 DUP3 MUL SWAP2 POP JUMPDEST DUP1 DUP2 MUL SWAP1 POP PUSH3 0x119 DUP6 PUSH3 0xC2 JUMP JUMPDEST SWAP5 POP PUSH3 0xD9 JUMP JUMPDEST SWAP5 POP SWAP5 SWAP3 POP POP POP JUMP JUMPDEST PUSH1 0x0 DUP3 PUSH3 0x13C JUMPI PUSH1 0x1 SWAP1 POP PUSH3 0x20F JUMP JUMPDEST DUP2 PUSH3 0x14C JUMPI PUSH1 0x0 SWAP1 POP PUSH3 0x20F JUMP JUMPDEST DUP2 PUSH1 0x1 DUP2 EQ PUSH3 0x165 JUMPI PUSH1 0x2 DUP2 EQ PUSH3 0x170 JUMPI PUSH3 0x1A6 JUMP JUMPDEST PUSH1 0x1 SWAP2 POP POP PUSH3 0x20F JUMP JUMPDEST PUSH1 0xFF DUP5 GT ISZERO PUSH3 0x185 JUMPI PUSH3 0x184 PUSH3 0x93 JUMP JUMPDEST JUMPDEST DUP4 PUSH1 0x2 EXP SWAP2 POP DUP5 DUP3 GT ISZERO PUSH3 0x19F JUMPI PUSH3 0x19E PUSH3 0x93 JUMP JUMPDEST JUMPDEST POP PUSH3 0x20F JUMP JUMPDEST POP PUSH1 0x20 DUP4 LT PUSH2 0x133 DUP4 LT AND PUSH1 0x4E DUP5 LT PUSH1 0xB DUP5 LT AND OR ISZERO PUSH3 0x1E0 JUMPI DUP3 DUP3 EXP SWAP1 POP DUP4 DUP2 GT ISZERO PUSH3 0x1DA JUMPI PUSH3 0x1D9 PUSH3 0x93 JUMP JUMPDEST JUMPDEST PUSH3 0x20F JUMP JUMPDEST PUSH3 0x1EF DUP5 DUP5 DUP5 PUSH1 0x1 PUSH3 0xCF JUMP JUMPDEST SWAP3 POP SWAP1 POP DUP2 DUP5 DIV DUP2 GT ISZERO PUSH3 0x209 JUMPI PUSH3 0x208 PUSH3 0x93 JUMP JUMPDEST JUMPDEST DUP2 DUP2 MUL SWAP1 POP JUMPDEST SWAP4 SWAP3 POP POP POP JUMP JUMPDEST PUSH1 0x0 DUP2 SWAP1 POP SWAP2 SWAP1 POP JUMP JUMPDEST PUSH1 0x0 PUSH3 0x22D DUP3 PUSH3 0x216 JUMP JUMPDEST SWAP2 POP PUSH3 0x23A DUP4 PUSH3 0x216 JUMP JUMPDEST SWAP3 POP PUSH3 0x269 PUSH32 0xFFFFFFFFFFFFFFFFFFFFFFFFFFFFFFFFFFFFFFFFFFFFFFFFFFFFFFFFFFFFFFFF DUP5 DUP5 PUSH3 0x12A JUMP JUMPDEST SWAP1 POP SWAP3 SWAP2 POP POP JUMP JUMPDEST PUSH1 0x0 PUSH3 0x27E DUP3 PUSH3 0x216 JUMP JUMPDEST SWAP2 POP PUSH3 0x28B DUP4 PUSH3 0x216 JUMP JUMPDEST SWAP3 POP DUP3 DUP3 MUL PUSH3 0x29B DUP2 PUSH3 0x216 JUMP JUMPDEST SWAP2 POP DUP3 DUP3 DIV DUP5 EQ DUP4 ISZERO OR PUSH3 0x2B5 JUMPI PUSH3 0x2B4 PUSH3 0x93 JUMP JUMPDEST JUMPDEST POP SWAP3 SWAP2 POP POP JUMP JUMPDEST PUSH2 0x263F DUP1 PUSH3 0x2CC PUSH1 0x0 CODECOPY PUSH1 0x0 RETURN INVALID PUSH1 0x80 PUSH1 0x40 MSTORE CALLVALUE DUP1 ISZERO PUSH2 0x10 JUMPI PUSH1 0x0 DUP1 REVERT JUMPDEST POP PUSH1 0x4 CALLDATASIZE LT PUSH2 0x116 JUMPI PUSH1 0x0 CALLDATALOAD PUSH1 0xE0 SHR DUP1 PUSH4 0x4B14C0EF GT PUSH2 0xA2 JUMPI DUP1 PUSH4 0xA6F9DAE1 GT PUSH2 0x71 JUMPI DUP1 PUSH4 0xA6F9DAE1 EQ PUSH2 0x297 JUMPI DUP1 PUSH4 0xC3AF57F0 EQ PUSH2 0x2B3 JUMPI DUP1 PUSH4 0xC52C31FA EQ PUSH2 0x2D1 JUMPI DUP1 PUSH4 0xDFAF734A EQ PUSH2 0x2ED JUMPI DUP1 PUSH4 0xFC0C546A EQ PUSH2 0x30B JUMPI PUSH2 0x116 JUMP JUMPDEST DUP1 PUSH4 0x4B14C0EF EQ PUSH2 0x221 JUMPI DUP1 PUSH4 0x5AECA126 EQ PUSH2 0x23F JUMPI DUP1 PUSH4 0x804A8376 EQ PUSH2 0x25B JUMPI DUP1 PUSH4 0x9E1A4D19 EQ PUSH2 0x279 JUMPI PUSH2 0x116 JUMP JUMPDEST DUP1 PUSH4 0x26A4E8D2 GT PUSH2 0xE9 JUMPI DUP1 PUSH4 0x26A4E8D2 EQ PUSH2 0x191 JUMPI DUP1 PUSH4 0x2A5F669A EQ PUSH2 0x1AD JUMPI DUP1 PUSH4 0x313CE567 EQ PUSH2 0x1C9 JUMPI DUP1 PUSH4 0x4496F183 EQ PUSH2 0x1E7 JUMPI DUP1 PUSH4 0x47A58626 EQ PUSH2 0x203 JUMPI PUSH2 0x116 JUMP JUMPDEST DUP1 PUSH4 0xA48EBA4 EQ PUSH2 0x11B JUMPI DUP1 PUSH4 0x107531D8 EQ PUSH2 0x139 JUMPI DUP1 PUSH4 0x119F2590 EQ PUSH2 0x157 JUMPI DUP1 PUSH4 0x188EC356 EQ PUSH2 0x173 JUMPI JUMPDEST PUSH1 0x0 DUP1 REVERT JUMPDEST PUSH2 0x123 PUSH2 0x329 JUMP JUMPDEST PUSH1 0x40 MLOAD PUSH2 0x130 SWAP2 SWAP1 PUSH2 0x1398 JUMP JUMPDEST PUSH1 0x40 MLOAD DUP1 SWAP2 SUB SWAP1 RETURN JUMPDEST PUSH2 0x141 PUSH2 0x370 JUMP JUMPDEST PUSH1 0x40 MLOAD PUSH2 0x14E SWAP2 SWAP1 PUSH2 0x1398 JUMP JUMPDEST PUSH1 0x40 MLOAD DUP1 SWAP2 SUB SWAP1 RETURN JUMPDEST PUSH2 0x171 PUSH1 0x4 DUP1 CALLDATASIZE SUB DUP2 ADD SWAP1 PUSH2 0x16C SWAP2 SWAP1 PUSH2 0x1425 JUMP JUMPDEST PUSH2 0x37A JUMP JUMPDEST STOP JUMPDEST PUSH2 0x17B PUSH2 0x418 JUMP JUMPDEST PUSH1 0x40 MLOAD PUSH2 0x188 SWAP2 SWAP1 PUSH2 0x1398 JUMP JUMPDEST PUSH1 0x40 MLOAD DUP1 SWAP2 SUB SWAP1 RETURN JUMPDEST PUSH2 0x1AB PUSH1 0x4 DUP1 CALLDATASIZE SUB DUP2 ADD SWAP1 PUSH2 0x1A6 SWAP2 SWAP1 PUSH2 0x1425 JUMP JUMPDEST PUSH2 0x420 JUMP JUMPDEST STOP JUMPDEST PUSH2 0x1C7 PUSH1 0x4 DUP1 CALLDATASIZE SUB DUP2 ADD SWAP1 PUSH2 0x1C2 SWAP2 SWAP1 PUSH2 0x176D JUMP JUMPDEST PUSH2 0x4BD JUMP JUMPDEST STOP JUMPDEST PUSH2 0x1D1 PUSH2 0x83B JUMP JUMPDEST PUSH1 0x40 MLOAD PUSH2 0x1DE SWAP2 SWAP1 PUSH2 0x1398 JUMP JUMPDEST PUSH1 0x40 MLOAD DUP1 SWAP2 SUB SWAP1 RETURN JUMPDEST PUSH2 0x201 PUSH1 0x4 DUP1 CALLDATASIZE SUB DUP2 ADD SWAP1 PUSH2 0x1FC SWAP2 SWAP1 PUSH2 0x1896 JUMP JUMPDEST PUSH2 0x845 JUMP JUMPDEST STOP JUMPDEST PUSH2 0x20B PUSH2 0xBF0 JUMP JUMPDEST PUSH1 0x40 MLOAD PUSH2 0x218 SWAP2 SWAP1 PUSH2 0x1926 JUMP JUMPDEST PUSH1 0x40 MLOAD DUP1 SWAP2 SUB SWAP1 RETURN JUMPDEST PUSH2 0x229 PUSH2 0xC1A JUMP JUMPDEST PUSH1 0x40 MLOAD PUSH2 0x236 SWAP2 SWAP1 PUSH2 0x1398 JUMP JUMPDEST PUSH1 0x40 MLOAD DUP1 SWAP2 SUB SWAP1 RETURN JUMPDEST PUSH2 0x259 PUSH1 0x4 DUP1 CALLDATASIZE SUB DUP2 ADD SWAP1 PUSH2 0x254 SWAP2 SWAP1 PUSH2 0x1941 JUMP JUMPDEST PUSH2 0xC24 JUMP JUMPDEST STOP JUMPDEST PUSH2 0x263 PUSH2 0xC88 JUMP JUMPDEST PUSH1 0x40 MLOAD PUSH2 0x270 SWAP2 SWAP1 PUSH2 0x1398 JUMP JUMPDEST PUSH1 0x40 MLOAD DUP1 SWAP2 SUB SWAP1 RETURN JUMPDEST PUSH2 0x281 PUSH2 0xCD2 JUMP JUMPDEST PUSH1 0x40 MLOAD PUSH2 0x28E SWAP2 SWAP1 PUSH2 0x1398 JUMP JUMPDEST PUSH1 0x40 MLOAD DUP1 SWAP2 SUB SWAP1 RETURN JUMPDEST PUSH2 0x2B1 PUSH1 0x4 DUP1 CALLDATASIZE SUB DUP2 ADD SWAP1 PUSH2 0x2AC SWAP2 SWAP1 PUSH2 0x1425 JUMP JUMPDEST PUSH2 0xDA4 JUMP JUMPDEST STOP JUMPDEST PUSH2 0x2BB PUSH2 0xE42 JUMP JUMPDEST PUSH1 0x40 MLOAD PUSH2 0x2C8 SWAP2 SWAP1 PUSH2 0x1398 JUMP JUMPDEST PUSH1 0x40 MLOAD DUP1 SWAP2 SUB SWAP1 RETURN JUMPDEST PUSH2 0x2EB PUSH1 0x4 DUP1 CALLDATASIZE SUB DUP2 ADD SWAP1 PUSH2 0x2E6 SWAP2 SWAP1 PUSH2 0x1425 JUMP JUMPDEST PUSH2 0xE4C JUMP JUMPDEST STOP JUMPDEST PUSH2 0x2F5 PUSH2 0xE90 JUMP JUMPDEST PUSH1 0x40 MLOAD PUSH2 0x302 SWAP2 SWAP1 PUSH2 0x1398 JUMP JUMPDEST PUSH1 0x40 MLOAD DUP1 SWAP2 SUB SWAP1 RETURN JUMPDEST PUSH2 0x313 PUSH2 0xE9A JUMP JUMPDEST PUSH1 0x40 MLOAD PUSH2 0x320 SWAP2 SWAP1 PUSH2 0x19CD JUMP JUMPDEST PUSH1 0x40 MLOAD DUP1 SWAP2 SUB SWAP1 RETURN JUMPDEST PUSH1 0x0 DUP1 PUSH1 0x8 SLOAD SWAP1 POP PUSH1 0x0 PUSH2 0x33B PUSH2 0xC88 JUMP JUMPDEST SWAP1 POP PUSH1 0x0 DUP2 GT ISZERO PUSH2 0x368 JUMPI PUSH2 0x35A PUSH1 0x1 DUP3 PUSH2 0xEC3 SWAP1 SWAP2 SWAP1 PUSH4 0xFFFFFFFF AND JUMP JUMPDEST DUP3 PUSH2 0x365 SWAP2 SWAP1 PUSH2 0x1A46 JUMP JUMPDEST SWAP2 POP JUMPDEST DUP2 SWAP3 POP POP POP SWAP1 JUMP JUMPDEST PUSH1 0x0 PUSH1 0xB SLOAD SWAP1 POP SWAP1 JUMP JUMPDEST PUSH1 0x7 PUSH1 0x0 SWAP1 SLOAD SWAP1 PUSH2 0x100 EXP SWAP1 DIV PUSH20 0xFFFFFFFFFFFFFFFFFFFFFFFFFFFFFFFFFFFFFFFF AND PUSH20 0xFFFFFFFFFFFFFFFFFFFFFFFFFFFFFFFFFFFFFFFF AND CALLER PUSH20 0xFFFFFFFFFFFFFFFFFFFFFFFFFFFFFFFFFFFFFFFF AND EQ PUSH2 0x3D4 JUMPI PUSH1 0x0 DUP1 REVERT JUMPDEST DUP1 PUSH1 0x2 PUSH1 0x0 PUSH2 0x100 EXP DUP2 SLOAD DUP2 PUSH20 0xFFFFFFFFFFFFFFFFFFFFFFFFFFFFFFFFFFFFFFFF MUL NOT AND SWAP1 DUP4 PUSH20 0xFFFFFFFFFFFFFFFFFFFFFFFFFFFFFFFFFFFFFFFF AND MUL OR SWAP1 SSTORE POP POP JUMP JUMPDEST PUSH1 0x0 TIMESTAMP SWAP1 POP SWAP1 JUMP JUMPDEST PUSH1 0x7 PUSH1 0x0 SWAP1 SLOAD SWAP1 PUSH2 0x100 EXP SWAP1 DIV PUSH20 0xFFFFFFFFFFFFFFFFFFFFFFFFFFFFFFFFFFFFFFFF AND PUSH20 0xFFFFFFFFFFFFFFFFFFFFFFFFFFFFFFFFFFFFFFFF AND CALLER PUSH20 0xFFFFFFFFFFFFFFFFFFFFFFFFFFFFFFFFFFFFFFFF AND EQ PUSH2 0x47A JUMPI PUSH1 0x0 DUP1 REVERT JUMPDEST DUP1 PUSH1 0x0 DUP1 PUSH2 0x100 EXP DUP2 SLOAD DUP2 PUSH20 0xFFFFFFFFFFFFFFFFFFFFFFFFFFFFFFFFFFFFFFFF MUL NOT AND SWAP1 DUP4 PUSH20 0xFFFFFFFFFFFFFFFFFFFFFFFFFFFFFFFFFFFFFFFF AND MUL OR SWAP1 SSTORE POP POP JUMP JUMPDEST PUSH1 0x7 PUSH1 0x0 SWAP1 SLOAD SWAP1 PUSH2 0x100 EXP SWAP1 DIV PUSH20 0xFFFFFFFFFFFFFFFFFFFFFFFFFFFFFFFFFFFFFFFF AND PUSH20 0xFFFFFFFFFFFFFFFFFFFFFFFFFFFFFFFFFFFFFFFF AND CALLER PUSH20 0xFFFFFFFFFFFFFFFFFFFFFFFFFFFFFFFFFFFFFFFF AND EQ PUSH2 0x517 JUMPI PUSH1 0x0 DUP1 REVERT JUMPDEST DUP1 MLOAD DUP3 MLOAD EQ PUSH2 0x55B JUMPI PUSH1 0x40 MLOAD PUSH32 0x8C379A000000000000000000000000000000000000000000000000000000000 DUP2 MSTORE PUSH1 0x4 ADD PUSH2 0x552 SWAP1 PUSH2 0x1B20 JUMP JUMPDEST PUSH1 0x40 MLOAD DUP1 SWAP2 SUB SWAP1 REVERT JUMPDEST PUSH1 0x0 PUSH20 0xFFFFFFFFFFFFFFFFFFFFFFFFFFFFFFFFFFFFFFFF AND PUSH2 0x57B PUSH2 0xE9A JUMP JUMPDEST PUSH20 0xFFFFFFFFFFFFFFFFFFFFFFFFFFFFFFFFFFFFFFFF AND SUB PUSH2 0x5D1 JUMPI PUSH1 0x40 MLOAD PUSH32 0x8C379A000000000000000000000000000000000000000000000000000000000 DUP2 MSTORE PUSH1 0x4 ADD PUSH2 0x5C8 SWAP1 PUSH2 0x1B8C JUMP JUMPDEST PUSH1 0x40 MLOAD DUP1 SWAP2 SUB SWAP1 REVERT JUMPDEST PUSH1 0x0 PUSH20 0xFFFFFFFFFFFFFFFFFFFFFFFFFFFFFFFFFFFFFFFF AND PUSH2 0x5F1 PUSH2 0xBF0 JUMP JUMPDEST PUSH20 0xFFFFFFFFFFFFFFFFFFFFFFFFFFFFFFFFFFFFFFFF AND SUB PUSH2 0x647 JUMPI PUSH1 0x40 MLOAD PUSH32 0x8C379A000000000000000000000000000000000000000000000000000000000 DUP2 MSTORE PUSH1 0x4 ADD PUSH2 0x63E SWAP1 PUSH2 0x1C1E JUMP JUMPDEST PUSH1 0x40 MLOAD DUP1 SWAP2 SUB SWAP1 REVERT JUMPDEST PUSH1 0x0 DUP1 JUMPDEST DUP3 MLOAD DUP2 LT ISZERO PUSH2 0x68F JUMPI DUP3 DUP2 DUP2 MLOAD DUP2 LT PUSH2 0x667 JUMPI PUSH2 0x666 PUSH2 0x1C3E JUMP JUMPDEST JUMPDEST PUSH1 0x20 MUL PUSH1 0x20 ADD ADD MLOAD DUP3 PUSH2 0x67A SWAP2 SWAP1 PUSH2 0x1C6D JUMP JUMPDEST SWAP2 POP DUP1 DUP1 PUSH2 0x687 SWAP1 PUSH2 0x1CA1 JUMP JUMPDEST SWAP2 POP POP PUSH2 0x64B JUMP JUMPDEST POP DUP1 PUSH2 0x699 PUSH2 0xCD2 JUMP JUMPDEST LT ISZERO PUSH2 0x6DA JUMPI PUSH1 0x40 MLOAD PUSH32 0x8C379A000000000000000000000000000000000000000000000000000000000 DUP2 MSTORE PUSH1 0x4 ADD PUSH2 0x6D1 SWAP1 PUSH2 0x1D5B JUMP JUMPDEST PUSH1 0x40 MLOAD DUP1 SWAP2 SUB SWAP1 REVERT JUMPDEST PUSH1 0x0 PUSH2 0x6E4 PUSH2 0xBF0 JUMP JUMPDEST SWAP1 POP PUSH1 0x0 JUMPDEST DUP5 MLOAD DUP2 LT ISZERO PUSH2 0x834 JUMPI PUSH1 0x0 DUP3 PUSH20 0xFFFFFFFFFFFFFFFFFFFFFFFFFFFFFFFFFFFFFFFF AND PUSH4 0x6441F9D0 DUP8 DUP5 DUP2 MLOAD DUP2 LT PUSH2 0x723 JUMPI PUSH2 0x722 PUSH2 0x1C3E JUMP JUMPDEST JUMPDEST PUSH1 0x20 MUL PUSH1 0x20 ADD ADD MLOAD PUSH1 0x40 MLOAD DUP3 PUSH4 0xFFFFFFFF AND PUSH1 0xE0 SHL DUP2 MSTORE PUSH1 0x4 ADD PUSH2 0x747 SWAP2 SWAP1 PUSH2 0x1DE9 JUMP JUMPDEST PUSH1 0x0 PUSH1 0x40 MLOAD DUP1 DUP4 SUB DUP2 DUP7 GAS STATICCALL ISZERO DUP1 ISZERO PUSH2 0x764 JUMPI RETURNDATASIZE PUSH1 0x0 DUP1 RETURNDATACOPY RETURNDATASIZE PUSH1 0x0 REVERT JUMPDEST POP POP POP POP PUSH1 0x40 MLOAD RETURNDATASIZE PUSH1 0x0 DUP3 RETURNDATACOPY RETURNDATASIZE PUSH1 0x1F NOT PUSH1 0x1F DUP3 ADD AND DUP3 ADD DUP1 PUSH1 0x40 MSTORE POP DUP2 ADD SWAP1 PUSH2 0x78D SWAP2 SWAP1 PUSH2 0x2025 JUMP JUMPDEST SWAP1 POP PUSH1 0x0 DUP2 PUSH1 0x20 ADD MLOAD SWAP1 POP PUSH1 0x0 DUP7 DUP5 DUP2 MLOAD DUP2 LT PUSH2 0x7AD JUMPI PUSH2 0x7AC PUSH2 0x1C3E JUMP JUMPDEST JUMPDEST PUSH1 0x20 MUL PUSH1 0x20 ADD ADD MLOAD SWAP1 POP PUSH1 0x0 PUSH20 0xFFFFFFFFFFFFFFFFFFFFFFFFFFFFFFFFFFFFFFFF AND DUP3 PUSH20 0xFFFFFFFFFFFFFFFFFFFFFFFFFFFFFFFFFFFFFFFF AND EQ PUSH2 0x81E JUMPI PUSH2 0x81D DUP3 DUP3 PUSH2 0x7F8 PUSH2 0xE9A JUMP JUMPDEST PUSH20 0xFFFFFFFFFFFFFFFFFFFFFFFFFFFFFFFFFFFFFFFF AND PUSH2 0xF21 SWAP1 SWAP3 SWAP2 SWAP1 PUSH4 0xFFFFFFFF AND JUMP JUMPDEST JUMPDEST POP POP POP DUP1 DUP1 PUSH2 0x82C SWAP1 PUSH2 0x1CA1 JUMP JUMPDEST SWAP2 POP POP PUSH2 0x6E9 JUMP JUMPDEST POP POP POP POP POP JUMP JUMPDEST PUSH1 0x0 PUSH1 0x4 SLOAD SWAP1 POP SWAP1 JUMP JUMPDEST PUSH1 0x0 PUSH2 0x86B PUSH1 0xA SLOAD PUSH1 0xB SLOAD PUSH2 0x85A SWAP2 SWAP1 PUSH2 0x206E JUMP JUMPDEST PUSH1 0x6 SLOAD PUSH2 0xEC3 SWAP1 SWAP2 SWAP1 PUSH4 0xFFFFFFFF AND JUMP JUMPDEST SWAP1 POP PUSH1 0x0 PUSH2 0x877 PUSH2 0x329 JUMP JUMPDEST SWAP1 POP PUSH1 0x0 PUSH1 0x6 SLOAD GT PUSH2 0x8BE JUMPI PUSH1 0x40 MLOAD PUSH32 0x8C379A000000000000000000000000000000000000000000000000000000000 DUP2 MSTORE PUSH1 0x4 ADD PUSH2 0x8B5 SWAP1 PUSH2 0x2122 JUMP JUMPDEST PUSH1 0x40 MLOAD DUP1 SWAP2 SUB SWAP1 REVERT JUMPDEST PUSH1 0x0 PUSH20 0xFFFFFFFFFFFFFFFFFFFFFFFFFFFFFFFFFFFFFFFF AND PUSH1 0x2 PUSH1 0x0 SWAP1 SLOAD SWAP1 PUSH2 0x100 EXP SWAP1 DIV PUSH20 0xFFFFFFFFFFFFFFFFFFFFFFFFFFFFFFFFFFFFFFFF AND PUSH20 0xFFFFFFFFFFFFFFFFFFFFFFFFFFFFFFFFFFFFFFFF AND SUB PUSH2 0x94F JUMPI PUSH1 0x40 MLOAD PUSH32 0x8C379A000000000000000000000000000000000000000000000000000000000 DUP2 MSTORE PUSH1 0x4 ADD PUSH2 0x946 SWAP1 PUSH2 0x21B4 JUMP JUMPDEST PUSH1 0x40 MLOAD DUP1 SWAP2 SUB SWAP1 REVERT JUMPDEST PUSH1 0x0 PUSH20 0xFFFFFFFFFFFFFFFFFFFFFFFFFFFFFFFFFFFFFFFF AND PUSH1 0x0 DUP1 SLOAD SWAP1 PUSH2 0x100 EXP SWAP1 DIV PUSH20 0xFFFFFFFFFFFFFFFFFFFFFFFFFFFFFFFFFFFFFFFF AND PUSH20 0xFFFFFFFFFFFFFFFFFFFFFFFFFFFFFFFFFFFFFFFF AND SUB PUSH2 0x9DE JUMPI PUSH1 0x40 MLOAD PUSH32 0x8C379A000000000000000000000000000000000000000000000000000000000 DUP2 MSTORE PUSH1 0x4 ADD PUSH2 0x9D5 SWAP1 PUSH2 0x1B8C JUMP JUMPDEST PUSH1 0x40 MLOAD DUP1 SWAP2 SUB SWAP1 REVERT JUMPDEST DUP2 TIMESTAMP LT ISZERO PUSH2 0xA21 JUMPI PUSH1 0x40 MLOAD PUSH32 0x8C379A000000000000000000000000000000000000000000000000000000000 DUP2 MSTORE PUSH1 0x4 ADD PUSH2 0xA18 SWAP1 PUSH2 0x2246 JUMP JUMPDEST PUSH1 0x40 MLOAD DUP1 SWAP2 SUB SWAP1 REVERT JUMPDEST DUP2 PUSH1 0x3 DUP2 SWAP1 SSTORE POP PUSH2 0xA3D DUP2 PUSH1 0x5 SLOAD PUSH2 0xEC3 SWAP1 SWAP2 SWAP1 PUSH4 0xFFFFFFFF AND JUMP JUMPDEST PUSH1 0x5 DUP2 SWAP1 SSTORE POP PUSH1 0x0 DUP1 JUMPDEST DUP8 DUP8 SWAP1 POP DUP2 LT ISZERO PUSH2 0xB05 JUMPI PUSH2 0xAC4 DUP9 DUP9 DUP4 DUP2 DUP2 LT PUSH2 0xA68 JUMPI PUSH2 0xA67 PUSH2 0x1C3E JUMP JUMPDEST JUMPDEST SWAP1 POP PUSH1 0x20 MUL ADD PUSH1 0x20 DUP2 ADD SWAP1 PUSH2 0xA7D SWAP2 SWAP1 PUSH2 0x1425 JUMP JUMPDEST DUP8 DUP8 DUP5 DUP2 DUP2 LT PUSH2 0xA90 JUMPI PUSH2 0xA8F PUSH2 0x1C3E JUMP JUMPDEST JUMPDEST SWAP1 POP PUSH1 0x20 MUL ADD CALLDATALOAD PUSH2 0xA9F PUSH2 0xE9A JUMP JUMPDEST PUSH20 0xFFFFFFFFFFFFFFFFFFFFFFFFFFFFFFFFFFFFFFFF AND PUSH2 0xF21 SWAP1 SWAP3 SWAP2 SWAP1 PUSH4 0xFFFFFFFF AND JUMP JUMPDEST PUSH2 0xAF0 DUP7 DUP7 DUP4 DUP2 DUP2 LT PUSH2 0xADA JUMPI PUSH2 0xAD9 PUSH2 0x1C3E JUMP JUMPDEST JUMPDEST SWAP1 POP PUSH1 0x20 MUL ADD CALLDATALOAD DUP4 PUSH2 0xEC3 SWAP1 SWAP2 SWAP1 PUSH4 0xFFFFFFFF AND JUMP JUMPDEST SWAP2 POP DUP1 DUP1 PUSH2 0xAFD SWAP1 PUSH2 0x1CA1 JUMP JUMPDEST SWAP2 POP POP PUSH2 0xA47 JUMP JUMPDEST POP DUP1 DUP3 LT ISZERO PUSH2 0xB49 JUMPI PUSH1 0x40 MLOAD PUSH32 0x8C379A000000000000000000000000000000000000000000000000000000000 DUP2 MSTORE PUSH1 0x4 ADD PUSH2 0xB40 SWAP1 PUSH2 0x22D8 JUMP JUMPDEST PUSH1 0x40 MLOAD DUP1 SWAP2 SUB SWAP1 REVERT JUMPDEST PUSH1 0x0 PUSH2 0xB5E DUP3 DUP5 PUSH2 0xFA7 SWAP1 SWAP2 SWAP1 PUSH4 0xFFFFFFFF AND JUMP JUMPDEST GT ISZERO PUSH2 0xBCB JUMPI PUSH2 0xBCA PUSH1 0x2 PUSH1 0x0 SWAP1 SLOAD SWAP1 PUSH2 0x100 EXP SWAP1 DIV PUSH20 0xFFFFFFFFFFFFFFFFFFFFFFFFFFFFFFFFFFFFFFFF AND PUSH2 0xB9D DUP4 DUP6 PUSH2 0xFA7 SWAP1 SWAP2 SWAP1 PUSH4 0xFFFFFFFF AND JUMP JUMPDEST PUSH2 0xBA5 PUSH2 0xE9A JUMP JUMPDEST PUSH20 0xFFFFFFFFFFFFFFFFFFFFFFFFFFFFFFFFFFFFFFFF AND PUSH2 0xF21 SWAP1 SWAP3 SWAP2 SWAP1 PUSH4 0xFFFFFFFF AND JUMP JUMPDEST JUMPDEST PUSH2 0xBE1 PUSH1 0x1 PUSH1 0xB SLOAD PUSH2 0xEC3 SWAP1 SWAP2 SWAP1 PUSH4 0xFFFFFFFF AND JUMP JUMPDEST PUSH1 0xB DUP2 SWAP1 SSTORE POP POP POP POP POP POP POP POP JUMP JUMPDEST PUSH1 0x0 PUSH1 0x1 PUSH1 0x0 SWAP1 SLOAD SWAP1 PUSH2 0x100 EXP SWAP1 DIV PUSH20 0xFFFFFFFFFFFFFFFFFFFFFFFFFFFFFFFFFFFFFFFF AND SWAP1 POP SWAP1 JUMP JUMPDEST PUSH1 0x0 PUSH1 0x5 SLOAD SWAP1 POP SWAP1 JUMP JUMPDEST PUSH1 0x7 PUSH1 0x0 SWAP1 SLOAD SWAP1 PUSH2 0x100 EXP SWAP1 DIV PUSH20 0xFFFFFFFFFFFFFFFFFFFFFFFFFFFFFFFFFFFFFFFF AND PUSH20 0xFFFFFFFFFFFFFFFFFFFFFFFFFFFFFFFFFFFFFFFF AND CALLER PUSH20 0xFFFFFFFFFFFFFFFFFFFFFFFFFFFFFFFFFFFFFFFF AND EQ PUSH2 0xC7E JUMPI PUSH1 0x0 DUP1 REVERT JUMPDEST DUP1 PUSH1 0x6 DUP2 SWAP1 SSTORE POP POP JUMP JUMPDEST PUSH1 0x0 DUP1 PUSH1 0x6 SLOAD GT ISZERO PUSH2 0xCCA JUMPI PUSH1 0x0 PUSH2 0xCBF PUSH1 0x9 SLOAD PUSH2 0xCB1 PUSH1 0x6 SLOAD TIMESTAMP PUSH2 0xFA7 SWAP1 SWAP2 SWAP1 PUSH4 0xFFFFFFFF AND JUMP JUMPDEST PUSH2 0xFF1 SWAP1 SWAP2 SWAP1 PUSH4 0xFFFFFFFF AND JUMP JUMPDEST SWAP1 POP DUP1 SWAP2 POP POP PUSH2 0xCCF JUMP JUMPDEST PUSH1 0x0 SWAP1 POP JUMPDEST SWAP1 JUMP JUMPDEST PUSH1 0x0 DUP1 PUSH20 0xFFFFFFFFFFFFFFFFFFFFFFFFFFFFFFFFFFFFFFFF AND PUSH2 0xCF3 PUSH2 0xE9A JUMP JUMPDEST PUSH20 0xFFFFFFFFFFFFFFFFFFFFFFFFFFFFFFFFFFFFFFFF AND SUB PUSH2 0xD17 JUMPI PUSH1 0x0 SWAP1 POP PUSH2 0xDA1 JUMP JUMPDEST PUSH1 0x0 PUSH2 0xD21 PUSH2 0xE9A JUMP JUMPDEST PUSH20 0xFFFFFFFFFFFFFFFFFFFFFFFFFFFFFFFFFFFFFFFF AND PUSH4 0x70A08231 ADDRESS PUSH1 0x40 MLOAD DUP3 PUSH4 0xFFFFFFFF AND PUSH1 0xE0 SHL DUP2 MSTORE PUSH1 0x4 ADD PUSH2 0xD59 SWAP2 SWAP1 PUSH2 0x1926 JUMP JUMPDEST PUSH1 0x20 PUSH1 0x40 MLOAD DUP1 DUP4 SUB DUP2 DUP7 GAS STATICCALL ISZERO DUP1 ISZERO PUSH2 0xD76 JUMPI RETURNDATASIZE PUSH1 0x0 DUP1 RETURNDATACOPY RETURNDATASIZE PUSH1 0x0 REVERT JUMPDEST POP POP POP POP PUSH1 0x40 MLOAD RETURNDATASIZE PUSH1 0x1F NOT PUSH1 0x1F DUP3 ADD AND DUP3 ADD DUP1 PUSH1 0x40 MSTORE POP DUP2 ADD SWAP1 PUSH2 0xD9A SWAP2 SWAP1 PUSH2 0x22F8 JUMP JUMPDEST SWAP1 POP DUP1 SWAP2 POP POP JUMPDEST SWAP1 JUMP JUMPDEST PUSH1 0x7 PUSH1 0x0 SWAP1 SLOAD SWAP1 PUSH2 0x100 EXP SWAP1 DIV PUSH20 0xFFFFFFFFFFFFFFFFFFFFFFFFFFFFFFFFFFFFFFFF AND PUSH20 0xFFFFFFFFFFFFFFFFFFFFFFFFFFFFFFFFFFFFFFFF AND CALLER PUSH20 0xFFFFFFFFFFFFFFFFFFFFFFFFFFFFFFFFFFFFFFFF AND EQ PUSH2 0xDFE JUMPI PUSH1 0x0 DUP1 REVERT JUMPDEST DUP1 PUSH1 0x7 PUSH1 0x0 PUSH2 0x100 EXP DUP2 SLOAD DUP2 PUSH20 0xFFFFFFFFFFFFFFFFFFFFFFFFFFFFFFFFFFFFFFFF MUL NOT AND SWAP1 DUP4 PUSH20 0xFFFFFFFFFFFFFFFFFFFFFFFFFFFFFFFFFFFFFFFF AND MUL OR SWAP1 SSTORE POP POP JUMP JUMPDEST PUSH1 0x0 PUSH1 0xB SLOAD SWAP1 POP SWAP1 JUMP JUMPDEST DUP1 PUSH1 0x1 PUSH1 0x0 PUSH2 0x100 EXP DUP2 SLOAD DUP2 PUSH20 0xFFFFFFFFFFFFFFFFFFFFFFFFFFFFFFFFFFFFFFFF MUL NOT AND SWAP1 DUP4 PUSH20 0xFFFFFFFFFFFFFFFFFFFFFFFFFFFFFFFFFFFFFFFF AND MUL OR SWAP1 SSTORE POP POP JUMP JUMPDEST PUSH1 0x0 PUSH1 0x3 SLOAD SWAP1 POP SWAP1 JUMP JUMPDEST PUSH1 0x0 DUP1 PUSH1 0x0 SWAP1 SLOAD SWAP1 PUSH2 0x100 EXP SWAP1 DIV PUSH20 0xFFFFFFFFFFFFFFFFFFFFFFFFFFFFFFFFFFFFFFFF AND SWAP1 POP SWAP1 JUMP JUMPDEST PUSH1 0x0 DUP1 DUP3 DUP5 PUSH2 0xED2 SWAP2 SWAP1 PUSH2 0x1C6D JUMP JUMPDEST SWAP1 POP DUP4 DUP2 LT ISZERO PUSH2 0xF17 JUMPI PUSH1 0x40 MLOAD PUSH32 0x8C379A000000000000000000000000000000000000000000000000000000000 DUP2 MSTORE PUSH1 0x4 ADD PUSH2 0xF0E SWAP1 PUSH2 0x2371 JUMP JUMPDEST PUSH1 0x40 MLOAD DUP1 SWAP2 SUB SWAP1 REVERT JUMPDEST DUP1 SWAP2 POP POP SWAP3 SWAP2 POP POP JUMP JUMPDEST PUSH2 0xFA2 DUP4 PUSH4 0xA9059CBB PUSH1 0xE0 SHL DUP5 DUP5 PUSH1 0x40 MLOAD PUSH1 0x24 ADD PUSH2 0xF40 SWAP3 SWAP2 SWAP1 PUSH2 0x2391 JUMP JUMPDEST PUSH1 0x40 MLOAD PUSH1 0x20 DUP2 DUP4 SUB SUB DUP2 MSTORE SWAP1 PUSH1 0x40 MSTORE SWAP1 PUSH28 0xFFFFFFFFFFFFFFFFFFFFFFFFFFFFFFFFFFFFFFFFFFFFFFFFFFFFFFFF NOT AND PUSH1 0x20 DUP3 ADD DUP1 MLOAD PUSH28 0xFFFFFFFFFFFFFFFFFFFFFFFFFFFFFFFFFFFFFFFFFFFFFFFFFFFFFFFF DUP4 DUP2 DUP4 AND OR DUP4 MSTORE POP POP POP POP PUSH2 0x103B JUMP JUMPDEST POP POP POP JUMP JUMPDEST PUSH1 0x0 PUSH2 0xFE9 DUP4 DUP4 PUSH1 0x40 MLOAD DUP1 PUSH1 0x40 ADD PUSH1 0x40 MSTORE DUP1 PUSH1 0x1E DUP2 MSTORE PUSH1 0x20 ADD PUSH32 0x536166654D6174683A207375627472616374696F6E206F766572666C6F770000 DUP2 MSTORE POP PUSH2 0x1102 JUMP JUMPDEST SWAP1 POP SWAP3 SWAP2 POP POP JUMP JUMPDEST PUSH1 0x0 PUSH2 0x1033 DUP4 DUP4 PUSH1 0x40 MLOAD DUP1 PUSH1 0x40 ADD PUSH1 0x40 MSTORE DUP1 PUSH1 0x1A DUP2 MSTORE PUSH1 0x20 ADD PUSH32 0x536166654D6174683A206469766973696F6E206279207A65726F000000000000 DUP2 MSTORE POP PUSH2 0x1166 JUMP JUMPDEST SWAP1 POP SWAP3 SWAP2 POP POP JUMP JUMPDEST PUSH1 0x0 PUSH2 0x109D DUP3 PUSH1 0x40 MLOAD DUP1 PUSH1 0x40 ADD PUSH1 0x40 MSTORE DUP1 PUSH1 0x20 DUP2 MSTORE PUSH1 0x20 ADD PUSH32 0x5361666545524332303A206C6F772D6C6576656C2063616C6C206661696C6564 DUP2 MSTORE POP DUP6 PUSH20 0xFFFFFFFFFFFFFFFFFFFFFFFFFFFFFFFFFFFFFFFF AND PUSH2 0x11C9 SWAP1 SWAP3 SWAP2 SWAP1 PUSH4 0xFFFFFFFF AND JUMP JUMPDEST SWAP1 POP PUSH1 0x0 DUP2 MLOAD GT ISZERO PUSH2 0x10FD JUMPI DUP1 DUP1 PUSH1 0x20 ADD SWAP1 MLOAD DUP2 ADD SWAP1 PUSH2 0x10BD SWAP2 SWAP1 PUSH2 0x23BA JUMP JUMPDEST PUSH2 0x10FC JUMPI PUSH1 0x40 MLOAD PUSH32 0x8C379A000000000000000000000000000000000000000000000000000000000 DUP2 MSTORE PUSH1 0x4 ADD PUSH2 0x10F3 SWAP1 PUSH2 0x2459 JUMP JUMPDEST PUSH1 0x40 MLOAD DUP1 SWAP2 SUB SWAP1 REVERT JUMPDEST JUMPDEST POP POP POP JUMP JUMPDEST PUSH1 0x0 DUP4 DUP4 GT ISZERO DUP3 SWAP1 PUSH2 0x114A JUMPI PUSH1 0x40 MLOAD PUSH32 0x8C379A000000000000000000000000000000000000000000000000000000000 DUP2 MSTORE PUSH1 0x4 ADD PUSH2 0x1141 SWAP2 SWAP1 PUSH2 0x1DE9 JUMP JUMPDEST PUSH1 0x40 MLOAD DUP1 SWAP2 SUB SWAP1 REVERT JUMPDEST POP PUSH1 0x0 DUP4 DUP6 PUSH2 0x1159 SWAP2 SWAP1 PUSH2 0x2479 JUMP JUMPDEST SWAP1 POP DUP1 SWAP2 POP POP SWAP4 SWAP3 POP POP POP JUMP JUMPDEST PUSH1 0x0 DUP1 DUP4 GT DUP3 SWAP1 PUSH2 0x11AD JUMPI PUSH1 0x40 MLOAD PUSH32 0x8C379A000000000000000000000000000000000000000000000000000000000 DUP2 MSTORE PUSH1 0x4 ADD PUSH2 0x11A4 SWAP2 SWAP1 PUSH2 0x1DE9 JUMP JUMPDEST PUSH1 0x40 MLOAD DUP1 SWAP2 SUB SWAP1 REVERT JUMPDEST POP PUSH1 0x0 DUP4 DUP6 PUSH2 0x11BC SWAP2 SWAP1 PUSH2 0x1A46 JUMP JUMPDEST SWAP1 POP DUP1 SWAP2 POP POP SWAP4 SWAP3 POP POP POP JUMP JUMPDEST PUSH1 0x60 PUSH2 0x11D8 DUP5 DUP5 PUSH1 0x0 DUP6 PUSH2 0x11E1 JUMP JUMPDEST SWAP1 POP SWAP4 SWAP3 POP POP POP JUMP JUMPDEST PUSH1 0x60 DUP3 SELFBALANCE LT ISZERO PUSH2 0x1226 JUMPI PUSH1 0x40 MLOAD PUSH32 0x8C379A000000000000000000000000000000000000000000000000000000000 DUP2 MSTORE PUSH1 0x4 ADD PUSH2 0x121D SWAP1 PUSH2 0x251F JUMP JUMPDEST PUSH1 0x40 MLOAD DUP1 SWAP2 SUB SWAP1 REVERT JUMPDEST PUSH2 0x122F DUP6 PUSH2 0x12F5 JUMP JUMPDEST PUSH2 0x126E JUMPI PUSH1 0x40 MLOAD PUSH32 0x8C379A000000000000000000000000000000000000000000000000000000000 DUP2 MSTORE PUSH1 0x4 ADD PUSH2 0x1265 SWAP1 PUSH2 0x258B JUMP JUMPDEST PUSH1 0x40 MLOAD DUP1 SWAP2 SUB SWAP1 REVERT JUMPDEST PUSH1 0x0 DUP1 DUP7 PUSH20 0xFFFFFFFFFFFFFFFFFFFFFFFFFFFFFFFFFFFFFFFF AND DUP6 DUP8 PUSH1 0x40 MLOAD PUSH2 0x1297 SWAP2 SWAP1 PUSH2 0x25F2 JUMP JUMPDEST PUSH1 0x0 PUSH1 0x40 MLOAD DUP1 DUP4 SUB DUP2 DUP6 DUP8 GAS CALL SWAP3 POP POP POP RETURNDATASIZE DUP1 PUSH1 0x0 DUP2 EQ PUSH2 0x12D4 JUMPI PUSH1 0x40 MLOAD SWAP2 POP PUSH1 0x1F NOT PUSH1 0x3F RETURNDATASIZE ADD AND DUP3 ADD PUSH1 0x40 MSTORE RETURNDATASIZE DUP3 MSTORE RETURNDATASIZE PUSH1 0x0 PUSH1 0x20 DUP5 ADD RETURNDATACOPY PUSH2 0x12D9 JUMP JUMPDEST PUSH1 0x60 SWAP2 POP JUMPDEST POP SWAP2 POP SWAP2 POP PUSH2 0x12E9 DUP3 DUP3 DUP7 PUSH2 0x1318 JUMP JUMPDEST SWAP3 POP POP POP SWAP5 SWAP4 POP POP POP POP JUMP JUMPDEST PUSH1 0x0 DUP1 DUP3 PUSH20 0xFFFFFFFFFFFFFFFFFFFFFFFFFFFFFFFFFFFFFFFF AND EXTCODESIZE GT SWAP1 POP SWAP2 SWAP1 POP JUMP JUMPDEST PUSH1 0x60 DUP4 ISZERO PUSH2 0x1328 JUMPI DUP3 SWAP1 POP PUSH2 0x1378 JUMP JUMPDEST PUSH1 0x0 DUP4 MLOAD GT ISZERO PUSH2 0x133B JUMPI DUP3 MLOAD DUP1 DUP5 PUSH1 0x20 ADD REVERT JUMPDEST DUP2 PUSH1 0x40 MLOAD PUSH32 0x8C379A000000000000000000000000000000000000000000000000000000000 DUP2 MSTORE PUSH1 0x4 ADD PUSH2 0x136F SWAP2 SWAP1 PUSH2 0x1DE9 JUMP JUMPDEST PUSH1 0x40 MLOAD DUP1 SWAP2 SUB SWAP1 REVERT JUMPDEST SWAP4 SWAP3 POP POP POP JUMP JUMPDEST PUSH1 0x0 DUP2 SWAP1 POP SWAP2 SWAP1 POP JUMP JUMPDEST PUSH2 0x1392 DUP2 PUSH2 0x137F JUMP JUMPDEST DUP3 MSTORE POP POP JUMP JUMPDEST PUSH1 0x0 PUSH1 0x20 DUP3 ADD SWAP1 POP PUSH2 0x13AD PUSH1 0x0 DUP4 ADD DUP5 PUSH2 0x1389 JUMP JUMPDEST SWAP3 SWAP2 POP POP JUMP JUMPDEST PUSH1 0x0 PUSH1 0x40 MLOAD SWAP1 POP SWAP1 JUMP JUMPDEST PUSH1 0x0 DUP1 REVERT JUMPDEST PUSH1 0x0 DUP1 REVERT JUMPDEST PUSH1 0x0 PUSH20 0xFFFFFFFFFFFFFFFFFFFFFFFFFFFFFFFFFFFFFFFF DUP3 AND SWAP1 POP SWAP2 SWAP1 POP JUMP JUMPDEST PUSH1 0x0 PUSH2 0x13F2 DUP3 PUSH2 0x13C7 JUMP JUMPDEST SWAP1 POP SWAP2 SWAP1 POP JUMP JUMPDEST PUSH2 0x1402 DUP2 PUSH2 0x13E7 JUMP JUMPDEST DUP2 EQ PUSH2 0x140D JUMPI PUSH1 0x0 DUP1 REVERT JUMPDEST POP JUMP JUMPDEST PUSH1 0x0 DUP2 CALLDATALOAD SWAP1 POP PUSH2 0x141F DUP2 PUSH2 0x13F9 JUMP JUMPDEST SWAP3 SWAP2 POP POP JUMP JUMPDEST PUSH1 0x0 PUSH1 0x20 DUP3 DUP5 SUB SLT ISZERO PUSH2 0x143B JUMPI PUSH2 0x143A PUSH2 0x13BD JUMP JUMPDEST JUMPDEST PUSH1 0x0 PUSH2 0x1449 DUP5 DUP3 DUP6 ADD PUSH2 0x1410 JUMP JUMPDEST SWAP2 POP POP SWAP3 SWAP2 POP POP JUMP JUMPDEST PUSH1 0x0 DUP1 REVERT JUMPDEST PUSH1 0x0 PUSH1 0x1F NOT PUSH1 0x1F DUP4 ADD AND SWAP1 POP SWAP2 SWAP1 POP JUMP JUMPDEST PUSH32 0x4E487B7100000000000000000000000000000000000000000000000000000000 PUSH1 0x0 MSTORE PUSH1 0x41 PUSH1 0x4 MSTORE PUSH1 0x24 PUSH1 0x0 REVERT JUMPDEST PUSH2 0x14A0 DUP3 PUSH2 0x1457 JUMP JUMPDEST DUP2 ADD DUP2 DUP2 LT PUSH8 0xFFFFFFFFFFFFFFFF DUP3 GT OR ISZERO PUSH2 0x14BF JUMPI PUSH2 0x14BE PUSH2 0x1468 JUMP JUMPDEST JUMPDEST DUP1 PUSH1 0x40 MSTORE POP POP POP JUMP JUMPDEST PUSH1 0x0 PUSH2 0x14D2 PUSH2 0x13B3 JUMP JUMPDEST SWAP1 POP PUSH2 0x14DE DUP3 DUP3 PUSH2 0x1497 JUMP JUMPDEST SWAP2 SWAP1 POP JUMP JUMPDEST PUSH1 0x0 PUSH8 0xFFFFFFFFFFFFFFFF DUP3 GT ISZERO PUSH2 0x14FE JUMPI PUSH2 0x14FD PUSH2 0x1468 JUMP JUMPDEST JUMPDEST PUSH1 0x20 DUP3 MUL SWAP1 POP PUSH1 0x20 DUP2 ADD SWAP1 POP SWAP2 SWAP1 POP JUMP JUMPDEST PUSH1 0x0 DUP1 REVERT JUMPDEST PUSH1 0x0 DUP1 REVERT JUMPDEST PUSH1 0x0 PUSH8 0xFFFFFFFFFFFFFFFF DUP3 GT ISZERO PUSH2 0x1534 JUMPI PUSH2 0x1533 PUSH2 0x1468 JUMP JUMPDEST JUMPDEST PUSH2 0x153D DUP3 PUSH2 0x1457 JUMP JUMPDEST SWAP1 POP PUSH1 0x20 DUP2 ADD SWAP1 POP SWAP2 SWAP1 POP JUMP JUMPDEST DUP3 DUP2 DUP4 CALLDATACOPY PUSH1 0x0 DUP4 DUP4 ADD MSTORE POP POP POP JUMP JUMPDEST PUSH1 0x0 PUSH2 0x156C PUSH2 0x1567 DUP5 PUSH2 0x1519 JUMP JUMPDEST PUSH2 0x14C8 JUMP JUMPDEST SWAP1 POP DUP3 DUP2 MSTORE PUSH1 0x20 DUP2 ADD DUP5 DUP5 DUP5 ADD GT ISZERO PUSH2 0x1588 JUMPI PUSH2 0x1587 PUSH2 0x1514 JUMP JUMPDEST JUMPDEST PUSH2 0x1593 DUP5 DUP3 DUP6 PUSH2 0x154A JUMP JUMPDEST POP SWAP4 SWAP3 POP POP POP JUMP JUMPDEST PUSH1 0x0 DUP3 PUSH1 0x1F DUP4 ADD SLT PUSH2 0x15B0 JUMPI PUSH2 0x15AF PUSH2 0x1452 JUMP JUMPDEST JUMPDEST DUP2 CALLDATALOAD PUSH2 0x15C0 DUP5 DUP3 PUSH1 0x20 DUP7 ADD PUSH2 0x1559 JUMP JUMPDEST SWAP2 POP POP SWAP3 SWAP2 POP POP JUMP JUMPDEST PUSH1 0x0 PUSH2 0x15DC PUSH2 0x15D7 DUP5 PUSH2 0x14E3 JUMP JUMPDEST PUSH2 0x14C8 JUMP JUMPDEST SWAP1 POP DUP1 DUP4 DUP3 MSTORE PUSH1 0x20 DUP3 ADD SWAP1 POP PUSH1 0x20 DUP5 MUL DUP4 ADD DUP6 DUP2 GT ISZERO PUSH2 0x15FF JUMPI PUSH2 0x15FE PUSH2 0x150F JUMP JUMPDEST JUMPDEST DUP4 JUMPDEST DUP2 DUP2 LT ISZERO PUSH2 0x1646 JUMPI DUP1 CALLDATALOAD PUSH8 0xFFFFFFFFFFFFFFFF DUP2 GT ISZERO PUSH2 0x1624 JUMPI PUSH2 0x1623 PUSH2 0x1452 JUMP JUMPDEST JUMPDEST DUP1 DUP7 ADD PUSH2 0x1631 DUP10 DUP3 PUSH2 0x159B JUMP JUMPDEST DUP6 MSTORE PUSH1 0x20 DUP6 ADD SWAP5 POP POP POP PUSH1 0x20 DUP2 ADD SWAP1 POP PUSH2 0x1601 JUMP JUMPDEST POP POP POP SWAP4 SWAP3 POP POP POP JUMP JUMPDEST PUSH1 0x0 DUP3 PUSH1 0x1F DUP4 ADD SLT PUSH2 0x1665 JUMPI PUSH2 0x1664 PUSH2 0x1452 JUMP JUMPDEST JUMPDEST DUP2 CALLDATALOAD PUSH2 0x1675 DUP5 DUP3 PUSH1 0x20 DUP7 ADD PUSH2 0x15C9 JUMP JUMPDEST SWAP2 POP POP SWAP3 SWAP2 POP POP JUMP JUMPDEST PUSH1 0x0 PUSH8 0xFFFFFFFFFFFFFFFF DUP3 GT ISZERO PUSH2 0x1699 JUMPI PUSH2 0x1698 PUSH2 0x1468 JUMP JUMPDEST JUMPDEST PUSH1 0x20 DUP3 MUL SWAP1 POP PUSH1 0x20 DUP2 ADD SWAP1 POP SWAP2 SWAP1 POP JUMP JUMPDEST PUSH2 0x16B3 DUP2 PUSH2 0x137F JUMP JUMPDEST DUP2 EQ PUSH2 0x16BE JUMPI PUSH1 0x0 DUP1 REVERT JUMPDEST POP JUMP JUMPDEST PUSH1 0x0 DUP2 CALLDATALOAD SWAP1 POP PUSH2 0x16D0 DUP2 PUSH2 0x16AA JUMP JUMPDEST SWAP3 SWAP2 POP POP JUMP JUMPDEST PUSH1 0x0 PUSH2 0x16E9 PUSH2 0x16E4 DUP5 PUSH2 0x167E JUMP JUMPDEST PUSH2 0x14C8 JUMP JUMPDEST SWAP1 POP DUP1 DUP4 DUP3 MSTORE PUSH1 0x20 DUP3 ADD SWAP1 POP PUSH1 0x20 DUP5 MUL DUP4 ADD DUP6 DUP2 GT ISZERO PUSH2 0x170C JUMPI PUSH2 0x170B PUSH2 0x150F JUMP JUMPDEST JUMPDEST DUP4 JUMPDEST DUP2 DUP2 LT ISZERO PUSH2 0x1735 JUMPI DUP1 PUSH2 0x1721 DUP9 DUP3 PUSH2 0x16C1 JUMP JUMPDEST DUP5 MSTORE PUSH1 0x20 DUP5 ADD SWAP4 POP POP PUSH1 0x20 DUP2 ADD SWAP1 POP PUSH2 0x170E JUMP JUMPDEST POP POP POP SWAP4 SWAP3 POP POP POP JUMP JUMPDEST PUSH1 0x0 DUP3 PUSH1 0x1F DUP4 ADD SLT PUSH2 0x1754 JUMPI PUSH2 0x1753 PUSH2 0x1452 JUMP JUMPDEST JUMPDEST DUP2 CALLDATALOAD PUSH2 0x1764 DUP5 DUP3 PUSH1 0x20 DUP7 ADD PUSH2 0x16D6 JUMP JUMPDEST SWAP2 POP POP SWAP3 SWAP2 POP POP JUMP JUMPDEST PUSH1 0x0 DUP1 PUSH1 0x40 DUP4 DUP6 SUB SLT ISZERO PUSH2 0x1784 JUMPI PUSH2 0x1783 PUSH2 0x13BD JUMP JUMPDEST JUMPDEST PUSH1 0x0 DUP4 ADD CALLDATALOAD PUSH8 0xFFFFFFFFFFFFFFFF DUP2 GT ISZERO PUSH2 0x17A2 JUMPI PUSH2 0x17A1 PUSH2 0x13C2 JUMP JUMPDEST JUMPDEST PUSH2 0x17AE DUP6 DUP3 DUP7 ADD PUSH2 0x1650 JUMP JUMPDEST SWAP3 POP POP PUSH1 0x20 DUP4 ADD CALLDATALOAD PUSH8 0xFFFFFFFFFFFFFFFF DUP2 GT ISZERO PUSH2 0x17CF JUMPI PUSH2 0x17CE PUSH2 0x13C2 JUMP JUMPDEST JUMPDEST PUSH2 0x17DB DUP6 DUP3 DUP7 ADD PUSH2 0x173F JUMP JUMPDEST SWAP2 POP POP SWAP3 POP SWAP3 SWAP1 POP JUMP JUMPDEST PUSH1 0x0 DUP1 REVERT JUMPDEST PUSH1 0x0 DUP1 DUP4 PUSH1 0x1F DUP5 ADD SLT PUSH2 0x1800 JUMPI PUSH2 0x17FF PUSH2 0x1452 JUMP JUMPDEST JUMPDEST DUP3 CALLDATALOAD SWAP1 POP PUSH8 0xFFFFFFFFFFFFFFFF DUP2 GT ISZERO PUSH2 0x181D JUMPI PUSH2 0x181C PUSH2 0x17E5 JUMP JUMPDEST JUMPDEST PUSH1 0x20 DUP4 ADD SWAP2 POP DUP4 PUSH1 0x20 DUP3 MUL DUP4 ADD GT ISZERO PUSH2 0x1839 JUMPI PUSH2 0x1838 PUSH2 0x150F JUMP JUMPDEST JUMPDEST SWAP3 POP SWAP3 SWAP1 POP JUMP JUMPDEST PUSH1 0x0 DUP1 DUP4 PUSH1 0x1F DUP5 ADD SLT PUSH2 0x1856 JUMPI PUSH2 0x1855 PUSH2 0x1452 JUMP JUMPDEST JUMPDEST DUP3 CALLDATALOAD SWAP1 POP PUSH8 0xFFFFFFFFFFFFFFFF DUP2 GT ISZERO PUSH2 0x1873 JUMPI PUSH2 0x1872 PUSH2 0x17E5 JUMP JUMPDEST JUMPDEST PUSH1 0x20 DUP4 ADD SWAP2 POP DUP4 PUSH1 0x20 DUP3 MUL DUP4 ADD GT ISZERO PUSH2 0x188F JUMPI PUSH2 0x188E PUSH2 0x150F JUMP JUMPDEST JUMPDEST SWAP3 POP SWAP3 SWAP1 POP JUMP JUMPDEST PUSH1 0x0 DUP1 PUSH1 0x0 DUP1 PUSH1 0x40 DUP6 DUP8 SUB SLT ISZERO PUSH2 0x18B0 JUMPI PUSH2 0x18AF PUSH2 0x13BD JUMP JUMPDEST JUMPDEST PUSH1 0x0 DUP6 ADD CALLDATALOAD PUSH8 0xFFFFFFFFFFFFFFFF DUP2 GT ISZERO PUSH2 0x18CE JUMPI PUSH2 0x18CD PUSH2 0x13C2 JUMP JUMPDEST JUMPDEST PUSH2 0x18DA DUP8 DUP3 DUP9 ADD PUSH2 0x17EA JUMP JUMPDEST SWAP5 POP SWAP5 POP POP PUSH1 0x20 DUP6 ADD CALLDATALOAD PUSH8 0xFFFFFFFFFFFFFFFF DUP2 GT ISZERO PUSH2 0x18FD JUMPI PUSH2 0x18FC PUSH2 0x13C2 JUMP JUMPDEST JUMPDEST PUSH2 0x1909 DUP8 DUP3 DUP9 ADD PUSH2 0x1840 JUMP JUMPDEST SWAP3 POP SWAP3 POP POP SWAP3 SWAP6 SWAP2 SWAP5 POP SWAP3 POP JUMP JUMPDEST PUSH2 0x1920 DUP2 PUSH2 0x13E7 JUMP JUMPDEST DUP3 MSTORE POP POP JUMP JUMPDEST PUSH1 0x0 PUSH1 0x20 DUP3 ADD SWAP1 POP PUSH2 0x193B PUSH1 0x0 DUP4 ADD DUP5 PUSH2 0x1917 JUMP JUMPDEST SWAP3 SWAP2 POP POP JUMP JUMPDEST PUSH1 0x0 PUSH1 0x20 DUP3 DUP5 SUB SLT ISZERO PUSH2 0x1957 JUMPI PUSH2 0x1956 PUSH2 0x13BD JUMP JUMPDEST JUMPDEST PUSH1 0x0 PUSH2 0x1965 DUP5 DUP3 DUP6 ADD PUSH2 0x16C1 JUMP JUMPDEST SWAP2 POP POP SWAP3 SWAP2 POP POP JUMP JUMPDEST PUSH1 0x0 DUP2 SWAP1 POP SWAP2 SWAP1 POP JUMP JUMPDEST PUSH1 0x0 PUSH2 0x1993 PUSH2 0x198E PUSH2 0x1989 DUP5 PUSH2 0x13C7 JUMP JUMPDEST PUSH2 0x196E JUMP JUMPDEST PUSH2 0x13C7 JUMP JUMPDEST SWAP1 POP SWAP2 SWAP1 POP JUMP JUMPDEST PUSH1 0x0 PUSH2 0x19A5 DUP3 PUSH2 0x1978 JUMP JUMPDEST SWAP1 POP SWAP2 SWAP1 POP JUMP JUMPDEST PUSH1 0x0 PUSH2 0x19B7 DUP3 PUSH2 0x199A JUMP JUMPDEST SWAP1 POP SWAP2 SWAP1 POP JUMP JUMPDEST PUSH2 0x19C7 DUP2 PUSH2 0x19AC JUMP JUMPDEST DUP3 MSTORE POP POP JUMP JUMPDEST PUSH1 0x0 PUSH1 0x20 DUP3 ADD SWAP1 POP PUSH2 0x19E2 PUSH1 0x0 DUP4 ADD DUP5 PUSH2 0x19BE JUMP JUMPDEST SWAP3 SWAP2 POP POP JUMP JUMPDEST PUSH32 0x4E487B7100000000000000000000000000000000000000000000000000000000 PUSH1 0x0 MSTORE PUSH1 0x12 PUSH1 0x4 MSTORE PUSH1 0x24 PUSH1 0x0 REVERT JUMPDEST PUSH32 0x4E487B7100000000000000000000000000000000000000000000000000000000 PUSH1 0x0 MSTORE PUSH1 0x11 PUSH1 0x4 MSTORE PUSH1 0x24 PUSH1 0x0 REVERT JUMPDEST PUSH1 0x0 PUSH2 0x1A51 DUP3 PUSH2 0x137F JUMP JUMPDEST SWAP2 POP PUSH2 0x1A5C DUP4 PUSH2 0x137F JUMP JUMPDEST SWAP3 POP DUP3 PUSH2 0x1A6C JUMPI PUSH2 0x1A6B PUSH2 0x19E8 JUMP JUMPDEST JUMPDEST DUP3 DUP3 DIV SWAP1 POP SWAP3 SWAP2 POP POP JUMP JUMPDEST PUSH1 0x0 DUP3 DUP3 MSTORE PUSH1 0x20 DUP3 ADD SWAP1 POP SWAP3 SWAP2 POP POP JUMP JUMPDEST PUSH32 0x506C6561736520636865636B2074686520646174612C20746865206E65777320 PUSH1 0x0 DUP3 ADD MSTORE PUSH32 0x494420616E6420646973747269627574696F6E207175616E7469747920617265 PUSH1 0x20 DUP3 ADD MSTORE PUSH32 0x20696E636F6E73697374656E7400000000000000000000000000000000000000 PUSH1 0x40 DUP3 ADD MSTORE POP JUMP JUMPDEST PUSH1 0x0 PUSH2 0x1B0A PUSH1 0x4D DUP4 PUSH2 0x1A77 JUMP JUMPDEST SWAP2 POP PUSH2 0x1B15 DUP3 PUSH2 0x1A88 JUMP JUMPDEST PUSH1 0x60 DUP3 ADD SWAP1 POP SWAP2 SWAP1 POP JUMP JUMPDEST PUSH1 0x0 PUSH1 0x20 DUP3 ADD SWAP1 POP DUP2 DUP2 SUB PUSH1 0x0 DUP4 ADD MSTORE PUSH2 0x1B39 DUP2 PUSH2 0x1AFD JUMP JUMPDEST SWAP1 POP SWAP2 SWAP1 POP JUMP JUMPDEST PUSH32 0x52656C656173653A206E6565642073657420546F6B656E204164647265737300 PUSH1 0x0 DUP3 ADD MSTORE POP JUMP JUMPDEST PUSH1 0x0 PUSH2 0x1B76 PUSH1 0x1F DUP4 PUSH2 0x1A77 JUMP JUMPDEST SWAP2 POP PUSH2 0x1B81 DUP3 PUSH2 0x1B40 JUMP JUMPDEST PUSH1 0x20 DUP3 ADD SWAP1 POP SWAP2 SWAP1 POP JUMP JUMPDEST PUSH1 0x0 PUSH1 0x20 DUP3 ADD SWAP1 POP DUP2 DUP2 SUB PUSH1 0x0 DUP4 ADD MSTORE PUSH2 0x1BA5 DUP2 PUSH2 0x1B69 JUMP JUMPDEST SWAP1 POP SWAP2 SWAP1 POP JUMP JUMPDEST PUSH32 0x52656C656173653A206E65656420736574204368616C6C656E6720436F6E7472 PUSH1 0x0 DUP3 ADD MSTORE PUSH32 0x6163742041646472657373000000000000000000000000000000000000000000 PUSH1 0x20 DUP3 ADD MSTORE POP JUMP JUMPDEST PUSH1 0x0 PUSH2 0x1C08 PUSH1 0x2B DUP4 PUSH2 0x1A77 JUMP JUMPDEST SWAP2 POP PUSH2 0x1C13 DUP3 PUSH2 0x1BAC JUMP JUMPDEST PUSH1 0x40 DUP3 ADD SWAP1 POP SWAP2 SWAP1 POP JUMP JUMPDEST PUSH1 0x0 PUSH1 0x20 DUP3 ADD SWAP1 POP DUP2 DUP2 SUB PUSH1 0x0 DUP4 ADD MSTORE PUSH2 0x1C37 DUP2 PUSH2 0x1BFB JUMP JUMPDEST SWAP1 POP SWAP2 SWAP1 POP JUMP JUMPDEST PUSH32 0x4E487B7100000000000000000000000000000000000000000000000000000000 PUSH1 0x0 MSTORE PUSH1 0x32 PUSH1 0x4 MSTORE PUSH1 0x24 PUSH1 0x0 REVERT JUMPDEST PUSH1 0x0 PUSH2 0x1C78 DUP3 PUSH2 0x137F JUMP JUMPDEST SWAP2 POP PUSH2 0x1C83 DUP4 PUSH2 0x137F JUMP JUMPDEST SWAP3 POP DUP3 DUP3 ADD SWAP1 POP DUP1 DUP3 GT ISZERO PUSH2 0x1C9B JUMPI PUSH2 0x1C9A PUSH2 0x1A17 JUMP JUMPDEST JUMPDEST SWAP3 SWAP2 POP POP JUMP JUMPDEST PUSH1 0x0 PUSH2 0x1CAC DUP3 PUSH2 0x137F JUMP JUMPDEST SWAP2 POP PUSH32 0xFFFFFFFFFFFFFFFFFFFFFFFFFFFFFFFFFFFFFFFFFFFFFFFFFFFFFFFFFFFFFFFF DUP3 SUB PUSH2 0x1CDE JUMPI PUSH2 0x1CDD PUSH2 0x1A17 JUMP JUMPDEST JUMPDEST PUSH1 0x1 DUP3 ADD SWAP1 POP SWAP2 SWAP1 POP JUMP JUMPDEST PUSH32 0x52656C656173653A20496E73756666696369656E7420746F74616C20616D6F75 PUSH1 0x0 DUP3 ADD MSTORE PUSH32 0x6E7420617661696C61626C6520666F7220646973747269627574696F6E000000 PUSH1 0x20 DUP3 ADD MSTORE POP JUMP JUMPDEST PUSH1 0x0 PUSH2 0x1D45 PUSH1 0x3D DUP4 PUSH2 0x1A77 JUMP JUMPDEST SWAP2 POP PUSH2 0x1D50 DUP3 PUSH2 0x1CE9 JUMP JUMPDEST PUSH1 0x40 DUP3 ADD SWAP1 POP SWAP2 SWAP1 POP JUMP JUMPDEST PUSH1 0x0 PUSH1 0x20 DUP3 ADD SWAP1 POP DUP2 DUP2 SUB PUSH1 0x0 DUP4 ADD MSTORE PUSH2 0x1D74 DUP2 PUSH2 0x1D38 JUMP JUMPDEST SWAP1 POP SWAP2 SWAP1 POP JUMP JUMPDEST PUSH1 0x0 DUP2 MLOAD SWAP1 POP SWAP2 SWAP1 POP JUMP JUMPDEST PUSH1 0x0 JUMPDEST DUP4 DUP2 LT ISZERO PUSH2 0x1DA4 JUMPI DUP1 DUP3 ADD MLOAD DUP2 DUP5 ADD MSTORE PUSH1 0x20 DUP2 ADD SWAP1 POP PUSH2 0x1D89 JUMP JUMPDEST PUSH1 0x0 DUP5 DUP5 ADD MSTORE POP POP POP POP JUMP JUMPDEST PUSH1 0x0 PUSH2 0x1DBB DUP3 PUSH2 0x1D7B JUMP JUMPDEST PUSH2 0x1DC5 DUP2 DUP6 PUSH2 0x1A77 JUMP JUMPDEST SWAP4 POP PUSH2 0x1DD5 DUP2 DUP6 PUSH1 0x20 DUP7 ADD PUSH2 0x1D86 JUMP JUMPDEST PUSH2 0x1DDE DUP2 PUSH2 0x1457 JUMP JUMPDEST DUP5 ADD SWAP2 POP POP SWAP3 SWAP2 POP POP JUMP JUMPDEST PUSH1 0x0 PUSH1 0x20 DUP3 ADD SWAP1 POP DUP2 DUP2 SUB PUSH1 0x0 DUP4 ADD MSTORE PUSH2 0x1E03 DUP2 DUP5 PUSH2 0x1DB0 JUMP JUMPDEST SWAP1 POP SWAP3 SWAP2 POP POP JUMP JUMPDEST PUSH1 0x0 DUP1 REVERT JUMPDEST PUSH1 0x0 DUP1 REVERT JUMPDEST PUSH1 0x0 PUSH2 0x1E28 PUSH2 0x1E23 DUP5 PUSH2 0x1519 JUMP JUMPDEST PUSH2 0x14C8 JUMP JUMPDEST SWAP1 POP DUP3 DUP2 MSTORE PUSH1 0x20 DUP2 ADD DUP5 DUP5 DUP5 ADD GT ISZERO PUSH2 0x1E44 JUMPI PUSH2 0x1E43 PUSH2 0x1514 JUMP JUMPDEST JUMPDEST PUSH2 0x1E4F DUP5 DUP3 DUP6 PUSH2 0x1D86 JUMP JUMPDEST POP SWAP4 SWAP3 POP POP POP JUMP JUMPDEST PUSH1 0x0 DUP3 PUSH1 0x1F DUP4 ADD SLT PUSH2 0x1E6C JUMPI PUSH2 0x1E6B PUSH2 0x1452 JUMP JUMPDEST JUMPDEST DUP2 MLOAD PUSH2 0x1E7C DUP5 DUP3 PUSH1 0x20 DUP7 ADD PUSH2 0x1E15 JUMP JUMPDEST SWAP2 POP POP SWAP3 SWAP2 POP POP JUMP JUMPDEST PUSH1 0x0 DUP2 MLOAD SWAP1 POP PUSH2 0x1E94 DUP2 PUSH2 0x13F9 JUMP JUMPDEST SWAP3 SWAP2 POP POP JUMP JUMPDEST PUSH1 0x0 DUP2 MLOAD SWAP1 POP PUSH2 0x1EA9 DUP2 PUSH2 0x16AA JUMP JUMPDEST SWAP3 SWAP2 POP POP JUMP JUMPDEST PUSH1 0x0 DUP2 ISZERO ISZERO SWAP1 POP SWAP2 SWAP1 POP JUMP JUMPDEST PUSH2 0x1EC4 DUP2 PUSH2 0x1EAF JUMP JUMPDEST DUP2 EQ PUSH2 0x1ECF JUMPI PUSH1 0x0 DUP1 REVERT JUMPDEST POP JUMP JUMPDEST PUSH1 0x0 DUP2 MLOAD SWAP1 POP PUSH2 0x1EE1 DUP2 PUSH2 0x1EBB JUMP JUMPDEST SWAP3 SWAP2 POP POP JUMP JUMPDEST PUSH1 0x0 PUSH2 0x180 DUP3 DUP5 SUB SLT ISZERO PUSH2 0x1EFE JUMPI PUSH2 0x1EFD PUSH2 0x1E0B JUMP JUMPDEST JUMPDEST PUSH2 0x1F09 PUSH2 0x180 PUSH2 0x14C8 JUMP JUMPDEST SWAP1 POP PUSH1 0x0 DUP3 ADD MLOAD PUSH8 0xFFFFFFFFFFFFFFFF DUP2 GT ISZERO PUSH2 0x1F29 JUMPI PUSH2 0x1F28 PUSH2 0x1E10 JUMP JUMPDEST JUMPDEST PUSH2 0x1F35 DUP5 DUP3 DUP6 ADD PUSH2 0x1E57 JUMP JUMPDEST PUSH1 0x0 DUP4 ADD MSTORE POP PUSH1 0x20 PUSH2 0x1F49 DUP5 DUP3 DUP6 ADD PUSH2 0x1E85 JUMP JUMPDEST PUSH1 0x20 DUP4 ADD MSTORE POP PUSH1 0x40 PUSH2 0x1F5D DUP5 DUP3 DUP6 ADD PUSH2 0x1E9A JUMP JUMPDEST PUSH1 0x40 DUP4 ADD MSTORE POP PUSH1 0x60 PUSH2 0x1F71 DUP5 DUP3 DUP6 ADD PUSH2 0x1E9A JUMP JUMPDEST PUSH1 0x60 DUP4 ADD MSTORE POP PUSH1 0x80 PUSH2 0x1F85 DUP5 DUP3 DUP6 ADD PUSH2 0x1ED2 JUMP JUMPDEST PUSH1 0x80 DUP4 ADD MSTORE POP PUSH1 0xA0 PUSH2 0x1F99 DUP5 DUP3 DUP6 ADD PUSH2 0x1ED2 JUMP JUMPDEST PUSH1 0xA0 DUP4 ADD MSTORE POP PUSH1 0xC0 PUSH2 0x1FAD DUP5 DUP3 DUP6 ADD PUSH2 0x1ED2 JUMP JUMPDEST PUSH1 0xC0 DUP4 ADD MSTORE POP PUSH1 0xE0 PUSH2 0x1FC1 DUP5 DUP3 DUP6 ADD PUSH2 0x1E9A JUMP JUMPDEST PUSH1 0xE0 DUP4 ADD MSTORE POP PUSH2 0x100 PUSH2 0x1FD6 DUP5 DUP3 DUP6 ADD PUSH2 0x1ED2 JUMP JUMPDEST PUSH2 0x100 DUP4 ADD MSTORE POP PUSH2 0x120 PUSH2 0x1FEC DUP5 DUP3 DUP6 ADD PUSH2 0x1E9A JUMP JUMPDEST PUSH2 0x120 DUP4 ADD MSTORE POP PUSH2 0x140 PUSH2 0x2002 DUP5 DUP3 DUP6 ADD PUSH2 0x1E9A JUMP JUMPDEST PUSH2 0x140 DUP4 ADD MSTORE POP PUSH2 0x160 PUSH2 0x2018 DUP5 DUP3 DUP6 ADD PUSH2 0x1E9A JUMP JUMPDEST PUSH2 0x160 DUP4 ADD MSTORE POP SWAP3 SWAP2 POP POP JUMP JUMPDEST PUSH1 0x0 PUSH1 0x20 DUP3 DUP5 SUB SLT ISZERO PUSH2 0x203B JUMPI PUSH2 0x203A PUSH2 0x13BD JUMP JUMPDEST JUMPDEST PUSH1 0x0 DUP3 ADD MLOAD PUSH8 0xFFFFFFFFFFFFFFFF DUP2 GT ISZERO PUSH2 0x2059 JUMPI PUSH2 0x2058 PUSH2 0x13C2 JUMP JUMPDEST JUMPDEST PUSH2 0x2065 DUP5 DUP3 DUP6 ADD PUSH2 0x1EE7 JUMP JUMPDEST SWAP2 POP POP SWAP3 SWAP2 POP POP JUMP JUMPDEST PUSH1 0x0 PUSH2 0x2079 DUP3 PUSH2 0x137F JUMP JUMPDEST SWAP2 POP PUSH2 0x2084 DUP4 PUSH2 0x137F JUMP JUMPDEST SWAP3 POP DUP3 DUP3 MUL PUSH2 0x2092 DUP2 PUSH2 0x137F JUMP JUMPDEST SWAP2 POP DUP3 DUP3 DIV DUP5 EQ DUP4 ISZERO OR PUSH2 0x20A9 JUMPI PUSH2 0x20A8 PUSH2 0x1A17 JUMP JUMPDEST JUMPDEST POP SWAP3 SWAP2 POP POP JUMP JUMPDEST PUSH32 0x52656C656173653A206E656564207365742046697273742052656C6561736520 PUSH1 0x0 DUP3 ADD MSTORE PUSH32 0x54696D6500000000000000000000000000000000000000000000000000000000 PUSH1 0x20 DUP3 ADD MSTORE POP JUMP JUMPDEST PUSH1 0x0 PUSH2 0x210C PUSH1 0x24 DUP4 PUSH2 0x1A77 JUMP JUMPDEST SWAP2 POP PUSH2 0x2117 DUP3 PUSH2 0x20B0 JUMP JUMPDEST PUSH1 0x40 DUP3 ADD SWAP1 POP SWAP2 SWAP1 POP JUMP JUMPDEST PUSH1 0x0 PUSH1 0x20 DUP3 ADD SWAP1 POP DUP2 DUP2 SUB PUSH1 0x0 DUP4 ADD MSTORE PUSH2 0x213B DUP2 PUSH2 0x20FF JUMP JUMPDEST SWAP1 POP SWAP2 SWAP1 POP JUMP JUMPDEST PUSH32 0x52656C656173653A206E6565642073657420526563656976696E672041646472 PUSH1 0x0 DUP3 ADD MSTORE PUSH32 0x6573730000000000000000000000000000000000000000000000000000000000 PUSH1 0x20 DUP3 ADD MSTORE POP JUMP JUMPDEST PUSH1 0x0 PUSH2 0x219E PUSH1 0x23 DUP4 PUSH2 0x1A77 JUMP JUMPDEST SWAP2 POP PUSH2 0x21A9 DUP3 PUSH2 0x2142 JUMP JUMPDEST PUSH1 0x40 DUP3 ADD SWAP1 POP SWAP2 SWAP1 POP JUMP JUMPDEST PUSH1 0x0 PUSH1 0x20 DUP3 ADD SWAP1 POP DUP2 DUP2 SUB PUSH1 0x0 DUP4 ADD MSTORE PUSH2 0x21CD DUP2 PUSH2 0x2191 JUMP JUMPDEST SWAP1 POP SWAP2 SWAP1 POP JUMP JUMPDEST PUSH32 0x52656C656173653A2063757272656E742074696D65206973206265666F726520 PUSH1 0x0 DUP3 ADD MSTORE PUSH32 0x72656C656173652074696D650000000000000000000000000000000000000000 PUSH1 0x20 DUP3 ADD MSTORE POP JUMP JUMPDEST PUSH1 0x0 PUSH2 0x2230 PUSH1 0x2C DUP4 PUSH2 0x1A77 JUMP JUMPDEST SWAP2 POP PUSH2 0x223B DUP3 PUSH2 0x21D4 JUMP JUMPDEST PUSH1 0x40 DUP3 ADD SWAP1 POP SWAP2 SWAP1 POP JUMP JUMPDEST PUSH1 0x0 PUSH1 0x20 DUP3 ADD SWAP1 POP DUP2 DUP2 SUB PUSH1 0x0 DUP4 ADD MSTORE PUSH2 0x225F DUP2 PUSH2 0x2223 JUMP JUMPDEST SWAP1 POP SWAP2 SWAP1 POP JUMP JUMPDEST PUSH32 0x546865206E756D626572206F66206169722064726F7073206578636565647320 PUSH1 0x0 DUP3 ADD MSTORE PUSH32 0x746865206461696C792072656C6561736520616D6F756E740000000000000000 PUSH1 0x20 DUP3 ADD MSTORE POP JUMP JUMPDEST PUSH1 0x0 PUSH2 0x22C2 PUSH1 0x38 DUP4 PUSH2 0x1A77 JUMP JUMPDEST SWAP2 POP PUSH2 0x22CD DUP3 PUSH2 0x2266 JUMP JUMPDEST PUSH1 0x40 DUP3 ADD SWAP1 POP SWAP2 SWAP1 POP JUMP JUMPDEST PUSH1 0x0 PUSH1 0x20 DUP3 ADD SWAP1 POP DUP2 DUP2 SUB PUSH1 0x0 DUP4 ADD MSTORE PUSH2 0x22F1 DUP2 PUSH2 0x22B5 JUMP JUMPDEST SWAP1 POP SWAP2 SWAP1 POP JUMP JUMPDEST PUSH1 0x0 PUSH1 0x20 DUP3 DUP5 SUB SLT ISZERO PUSH2 0x230E JUMPI PUSH2 0x230D PUSH2 0x13BD JUMP JUMPDEST JUMPDEST PUSH1 0x0 PUSH2 0x231C DUP5 DUP3 DUP6 ADD PUSH2 0x1E9A JUMP JUMPDEST SWAP2 POP POP SWAP3 SWAP2 POP POP JUMP JUMPDEST PUSH32 0x536166654D6174683A206164646974696F6E206F766572666C6F770000000000 PUSH1 0x0 DUP3 ADD MSTORE POP JUMP JUMPDEST PUSH1 0x0 PUSH2 0x235B PUSH1 0x1B DUP4 PUSH2 0x1A77 JUMP JUMPDEST SWAP2 POP PUSH2 0x2366 DUP3 PUSH2 0x2325 JUMP JUMPDEST PUSH1 0x20 DUP3 ADD SWAP1 POP SWAP2 SWAP1 POP JUMP JUMPDEST PUSH1 0x0 PUSH1 0x20 DUP3 ADD SWAP1 POP DUP2 DUP2 SUB PUSH1 0x0 DUP4 ADD MSTORE PUSH2 0x238A DUP2 PUSH2 0x234E JUMP JUMPDEST SWAP1 POP SWAP2 SWAP1 POP JUMP JUMPDEST PUSH1 0x0 PUSH1 0x40 DUP3 ADD SWAP1 POP PUSH2 0x23A6 PUSH1 0x0 DUP4 ADD DUP6 PUSH2 0x1917 JUMP JUMPDEST PUSH2 0x23B3 PUSH1 0x20 DUP4 ADD DUP5 PUSH2 0x1389 JUMP JUMPDEST SWAP4 SWAP3 POP POP POP JUMP JUMPDEST PUSH1 0x0 PUSH1 0x20 DUP3 DUP5 SUB SLT ISZERO PUSH2 0x23D0 JUMPI PUSH2 0x23CF PUSH2 0x13BD JUMP JUMPDEST JUMPDEST PUSH1 0x0 PUSH2 0x23DE DUP5 DUP3 DUP6 ADD PUSH2 0x1ED2 JUMP JUMPDEST SWAP2 POP POP SWAP3 SWAP2 POP POP JUMP JUMPDEST PUSH32 0x5361666545524332303A204552433230206F7065726174696F6E20646964206E PUSH1 0x0 DUP3 ADD MSTORE PUSH32 0x6F74207375636365656400000000000000000000000000000000000000000000 PUSH1 0x20 DUP3 ADD MSTORE POP JUMP JUMPDEST PUSH1 0x0 PUSH2 0x2443 PUSH1 0x2A DUP4 PUSH2 0x1A77 JUMP JUMPDEST SWAP2 POP PUSH2 0x244E DUP3 PUSH2 0x23E7 JUMP JUMPDEST PUSH1 0x40 DUP3 ADD SWAP1 POP SWAP2 SWAP1 POP JUMP JUMPDEST PUSH1 0x0 PUSH1 0x20 DUP3 ADD SWAP1 POP DUP2 DUP2 SUB PUSH1 0x0 DUP4 ADD MSTORE PUSH2 0x2472 DUP2 PUSH2 0x2436 JUMP JUMPDEST SWAP1 POP SWAP2 SWAP1 POP JUMP JUMPDEST PUSH1 0x0 PUSH2 0x2484 DUP3 PUSH2 0x137F JUMP JUMPDEST SWAP2 POP PUSH2 0x248F DUP4 PUSH2 0x137F JUMP JUMPDEST SWAP3 POP DUP3 DUP3 SUB SWAP1 POP DUP2 DUP2 GT ISZERO PUSH2 0x24A7 JUMPI PUSH2 0x24A6 PUSH2 0x1A17 JUMP JUMPDEST JUMPDEST SWAP3 SWAP2 POP POP JUMP JUMPDEST PUSH32 0x416464726573733A20696E73756666696369656E742062616C616E636520666F PUSH1 0x0 DUP3 ADD MSTORE PUSH32 0x722063616C6C0000000000000000000000000000000000000000000000000000 PUSH1 0x20 DUP3 ADD MSTORE POP JUMP JUMPDEST PUSH1 0x0 PUSH2 0x2509 PUSH1 0x26 DUP4 PUSH2 0x1A77 JUMP JUMPDEST SWAP2 POP PUSH2 0x2514 DUP3 PUSH2 0x24AD JUMP JUMPDEST PUSH1 0x40 DUP3 ADD SWAP1 POP SWAP2 SWAP1 POP JUMP JUMPDEST PUSH1 0x0 PUSH1 0x20 DUP3 ADD SWAP1 POP DUP2 DUP2 SUB PUSH1 0x0 DUP4 ADD MSTORE PUSH2 0x2538 DUP2 PUSH2 0x24FC JUMP JUMPDEST SWAP1 POP SWAP2 SWAP1 POP JUMP JUMPDEST PUSH32 0x416464726573733A2063616C6C20746F206E6F6E2D636F6E7472616374000000 PUSH1 0x0 DUP3 ADD MSTORE POP JUMP JUMPDEST PUSH1 0x0 PUSH2 0x2575 PUSH1 0x1D DUP4 PUSH2 0x1A77 JUMP JUMPDEST SWAP2 POP PUSH2 0x2580 DUP3 PUSH2 0x253F JUMP JUMPDEST PUSH1 0x20 DUP3 ADD SWAP1 POP SWAP2 SWAP1 POP JUMP JUMPDEST PUSH1 0x0 PUSH1 0x20 DUP3 ADD SWAP1 POP DUP2 DUP2 SUB PUSH1 0x0 DUP4 ADD MSTORE PUSH2 0x25A4 DUP2 PUSH2 0x2568 JUMP JUMPDEST SWAP1 POP SWAP2 SWAP1 POP JUMP JUMPDEST PUSH1 0x0 DUP2 MLOAD SWAP1 POP SWAP2 SWAP1 POP JUMP JUMPDEST PUSH1 0x0 DUP2 SWAP1 POP SWAP3 SWAP2 POP POP JUMP JUMPDEST PUSH1 0x0 PUSH2 0x25CC DUP3 PUSH2 0x25AB JUMP JUMPDEST PUSH2 0x25D6 DUP2 DUP6 PUSH2 0x25B6 JUMP JUMPDEST SWAP4 POP PUSH2 0x25E6 DUP2 DUP6 PUSH1 0x20 DUP7 ADD PUSH2 0x1D86 JUMP JUMPDEST DUP1 DUP5 ADD SWAP2 POP POP SWAP3 SWAP2 POP POP JUMP JUMPDEST PUSH1 0x0 PUSH2 0x25FE DUP3 DUP5 PUSH2 0x25C1 JUMP JUMPDEST SWAP2 POP DUP2 SWAP1 POP SWAP3 SWAP2 POP POP JUMP INVALID LOG2 PUSH5 0x6970667358 0x22 SLT KECCAK256 0xBC PUSH14 0xCC8ABC468E2745873E1C094A5D4B NOT SWAP8 DUP9 DELEGATECALL PUSH5 0x9650E2BA8A CALLER PUSH22 0xD32FEA8E64736F6C6343000813003300000000000000 "
				},
				"gasEstimates": {
					"creation": {
						"codeDepositCost": "1958200",
						"executionCost": "infinite",
						"totalCost": "infinite"
					},
					"external": {
						"changeOwner(address)": "26914",
						"decimals()": "2504",
						"getContractAddrss()": "2633",
						"getCurrentReleaseTokenAmount()": "infinite",
						"getFirstReleaseTime()": "2483",
						"getNumberOfTimesToHalve()": "infinite",
						"getReleasesCount()": "2481",
						"getTimestamp()": "426",
						"getTotalReleased()": "2460",
						"lastReleaseTime()": "2525",
						"release(address[],uint256[])": "infinite",
						"sendMasterToken(string[],uint256[])": "infinite",
						"setChallengContract(address)": "24788",
						"setFirstReleaseTime(uint256)": "24735",
						"setReceivingAddress(address)": "26960",
						"setTokenAddress(address)": "26915",
						"token()": "infinite",
						"tokenBalance()": "infinite"
					}
				},
				"methodIdentifiers": {
					"changeOwner(address)": "a6f9dae1",
					"decimals()": "313ce567",
					"getContractAddrss()": "47a58626",
					"getCurrentReleaseTokenAmount()": "0a48eba4",
					"getFirstReleaseTime()": "107531d8",
					"getNumberOfTimesToHalve()": "804a8376",
					"getReleasesCount()": "c3af57f0",
					"getTimestamp()": "188ec356",
					"getTotalReleased()": "4b14c0ef",
					"lastReleaseTime()": "dfaf734a",
					"release(address[],uint256[])": "4496f183",
					"sendMasterToken(string[],uint256[])": "2a5f669a",
					"setChallengContract(address)": "c52c31fa",
					"setFirstReleaseTime(uint256)": "5aeca126",
					"setReceivingAddress(address)": "119f2590",
					"setTokenAddress(address)": "26a4e8d2",
					"token()": "fc0c546a",
					"tokenBalance()": "9e1a4d19"
				}
			},
			"storageLayout": {
				"storage": [
					{
						"astId": 785,
						"contract": "challeng/my_contract/c.sol:TokenRelease",
						"label": "_token",
						"offset": 0,
						"slot": "0",
						"type": "t_contract(IERC20)109"
					},
					{
						"astId": 812,
						"contract": "challeng/my_contract/c.sol:TokenRelease",
						"label": "_contractAddrss",
						"offset": 0,
						"slot": "1",
						"type": "t_address"
					},
					{
						"astId": 814,
						"contract": "challeng/my_contract/c.sol:TokenRelease",
						"label": "_receivingAddress",
						"offset": 0,
						"slot": "2",
						"type": "t_address"
					},
					{
						"astId": 816,
						"contract": "challeng/my_contract/c.sol:TokenRelease",
						"label": "_lastReleaseTime",
						"offset": 0,
						"slot": "3",
						"type": "t_uint256"
					},
					{
						"astId": 819,
						"contract": "challeng/my_contract/c.sol:TokenRelease",
						"label": "_decimals",
						"offset": 0,
						"slot": "4",
						"type": "t_uint256"
					},
					{
						"astId": 821,
						"contract": "challeng/my_contract/c.sol:TokenRelease",
						"label": "_totalReleased",
						"offset": 0,
						"slot": "5",
						"type": "t_uint256"
					},
					{
						"astId": 823,
						"contract": "challeng/my_contract/c.sol:TokenRelease",
						"label": "_firstReleaseTime",
						"offset": 0,
						"slot": "6",
						"type": "t_uint256"
					},
					{
						"astId": 825,
						"contract": "challeng/my_contract/c.sol:TokenRelease",
						"label": "_owner",
						"offset": 0,
						"slot": "7",
						"type": "t_address"
					},
					{
						"astId": 832,
						"contract": "challeng/my_contract/c.sol:TokenRelease",
						"label": "_releaseAmount",
						"offset": 0,
						"slot": "8",
						"type": "t_uint256"
					},
					{
						"astId": 843,
						"contract": "challeng/my_contract/c.sol:TokenRelease",
						"label": "_halfCycle",
						"offset": 0,
						"slot": "9",
						"type": "t_uint256"
					},
					{
						"astId": 850,
						"contract": "challeng/my_contract/c.sol:TokenRelease",
						"label": "_releaseInterval",
						"offset": 0,
						"slot": "10",
						"type": "t_uint256"
					},
					{
						"astId": 853,
						"contract": "challeng/my_contract/c.sol:TokenRelease",
						"label": "_releasesCount",
						"offset": 0,
						"slot": "11",
						"type": "t_uint256"
					}
				],
				"types": {
					"t_address": {
						"encoding": "inplace",
						"label": "address",
						"numberOfBytes": "20"
					},
					"t_contract(IERC20)109": {
						"encoding": "inplace",
						"label": "contract IERC20",
						"numberOfBytes": "20"
					},
					"t_uint256": {
						"encoding": "inplace",
						"label": "uint256",
						"numberOfBytes": "32"
					}
				}
			},
			"userdoc": {
				"kind": "user",
				"methods": {},
				"version": 1
			}
		}
	}
}