{
	"my_contract/10.Rewards.sol": {
		"OracleRewards": {
			"abi": [
				{
					"inputs": [],
					"stateMutability": "nonpayable",
					"type": "constructor"
				},
				{
					"inputs": [
						{
							"internalType": "address",
							"name": "newOwner",
							"type": "address"
						}
					],
					"name": "changeOwner",
					"outputs": [],
					"stateMutability": "nonpayable",
					"type": "function"
				},
				{
					"inputs": [],
					"name": "decimals",
					"outputs": [
						{
							"internalType": "uint256",
							"name": "",
							"type": "uint256"
						}
					],
					"stateMutability": "view",
					"type": "function"
				},
				{
					"inputs": [
						{
							"internalType": "address[]",
							"name": "recipients",
							"type": "address[]"
						},
						{
							"internalType": "uint256[]",
							"name": "values",
							"type": "uint256[]"
						}
					],
					"name": "distributionToSpecify",
					"outputs": [],
					"stateMutability": "nonpayable",
					"type": "function"
				},
				{
					"inputs": [],
					"name": "getTotalReleased",
					"outputs": [
						{
							"internalType": "uint256",
							"name": "",
							"type": "uint256"
						}
					],
					"stateMutability": "view",
					"type": "function"
				},
				{
					"inputs": [
						{
							"internalType": "address",
							"name": "tokenAddress",
							"type": "address"
						}
					],
					"name": "setTokenAddress",
					"outputs": [],
					"stateMutability": "nonpayable",
					"type": "function"
				},
				{
					"inputs": [],
					"name": "token",
					"outputs": [
						{
							"internalType": "contract IERC20",
							"name": "",
							"type": "address"
						}
					],
					"stateMutability": "view",
					"type": "function"
				},
				{
					"inputs": [],
					"name": "tokenBalance",
					"outputs": [
						{
							"internalType": "uint256",
							"name": "",
							"type": "uint256"
						}
					],
					"stateMutability": "view",
					"type": "function"
				}
			],
			"devdoc": {
				"details": "The Ownable contract has an owner address, and provides basic authorization control functions, this simplifies the implementation of \"user permissions\".",
				"kind": "dev",
				"methods": {
					"token()": {
						"details": "Returns the token being held."
					}
				},
				"title": "Ownable",
				"version": 1
			},
			"evm": {
				"assembly": "    /* \"my_contract/10.Rewards.sol\":18814:21340  contract OracleRewards   {... */\n  mstore(0x40, 0x80)\n    /* \"my_contract/10.Rewards.sol\":19029:19031  18 */\n  0x12\n    /* \"my_contract/10.Rewards.sol\":19001:19031  uint256 private _decimals = 18 */\n  0x01\n  sstore\n    /* \"my_contract/10.Rewards.sol\":19159:19211  constructor() {... */\n  callvalue\n  dup1\n  iszero\n  tag_1\n  jumpi\n  0x00\n  dup1\n  revert\ntag_1:\n  pop\n    /* \"my_contract/10.Rewards.sol\":19193:19203  msg.sender */\n  caller\n    /* \"my_contract/10.Rewards.sol\":19184:19190  _owner */\n  0x03\n  0x00\n    /* \"my_contract/10.Rewards.sol\":19184:19203  _owner = msg.sender */\n  0x0100\n  exp\n  dup2\n  sload\n  dup2\n  0xffffffffffffffffffffffffffffffffffffffff\n  mul\n  not\n  and\n  swap1\n  dup4\n  0xffffffffffffffffffffffffffffffffffffffff\n  and\n  mul\n  or\n  swap1\n  sstore\n  pop\n    /* \"my_contract/10.Rewards.sol\":18814:21340  contract OracleRewards   {... */\n  dataSize(sub_0)\n  dup1\n  dataOffset(sub_0)\n  0x00\n  codecopy\n  0x00\n  return\nstop\n\nsub_0: assembly {\n        /* \"my_contract/10.Rewards.sol\":18814:21340  contract OracleRewards   {... */\n      mstore(0x40, 0x80)\n      callvalue\n      dup1\n      iszero\n      tag_1\n      jumpi\n      0x00\n      dup1\n      revert\n    tag_1:\n      pop\n      jumpi(tag_2, lt(calldatasize, 0x04))\n      shr(0xe0, calldataload(0x00))\n      dup1\n      0x5459b8a3\n      gt\n      tag_10\n      jumpi\n      dup1\n      0x5459b8a3\n      eq\n      tag_6\n      jumpi\n      dup1\n      0x9e1a4d19\n      eq\n      tag_7\n      jumpi\n      dup1\n      0xa6f9dae1\n      eq\n      tag_8\n      jumpi\n      dup1\n      0xfc0c546a\n      eq\n      tag_9\n      jumpi\n      jump(tag_2)\n    tag_10:\n      dup1\n      0x26a4e8d2\n      eq\n      tag_3\n      jumpi\n      dup1\n      0x313ce567\n      eq\n      tag_4\n      jumpi\n      dup1\n      0x4b14c0ef\n      eq\n      tag_5\n      jumpi\n    tag_2:\n      0x00\n      dup1\n      revert\n        /* \"my_contract/10.Rewards.sol\":19481:19604  function setTokenAddress(address tokenAddress ) public virtual   onlyOwner {... */\n    tag_3:\n      tag_11\n      0x04\n      dup1\n      calldatasize\n      sub\n      dup2\n      add\n      swap1\n      tag_12\n      swap2\n      swap1\n      tag_13\n      jump\t// in\n    tag_12:\n      tag_14\n      jump\t// in\n    tag_11:\n      stop\n        /* \"my_contract/10.Rewards.sol\":19878:19971  function decimals() public view virtual returns (uint256) {... */\n    tag_4:\n      tag_15\n      tag_16\n      jump\t// in\n    tag_15:\n      mload(0x40)\n      tag_17\n      swap2\n      swap1\n      tag_18\n      jump\t// in\n    tag_17:\n      mload(0x40)\n      dup1\n      swap2\n      sub\n      swap1\n      return\n        /* \"my_contract/10.Rewards.sol\":19982:20088  function getTotalReleased() public view virtual returns (uint256) {... */\n    tag_5:\n      tag_19\n      tag_20\n      jump\t// in\n    tag_19:\n      mload(0x40)\n      tag_21\n      swap2\n      swap1\n      tag_18\n      jump\t// in\n    tag_21:\n      mload(0x40)\n      dup1\n      swap2\n      sub\n      swap1\n      return\n        /* \"my_contract/10.Rewards.sol\":20374:21337  function  distributionToSpecify(address[] calldata recipients, uint256[] calldata values) public virtual onlyOwner {... */\n    tag_6:\n      tag_22\n      0x04\n      dup1\n      calldatasize\n      sub\n      dup2\n      add\n      swap1\n      tag_23\n      swap2\n      swap1\n      tag_24\n      jump\t// in\n    tag_23:\n      tag_25\n      jump\t// in\n    tag_22:\n      stop\n        /* \"my_contract/10.Rewards.sol\":20100:20333  function tokenBalance() public view virtual returns (uint256) {... */\n    tag_7:\n      tag_26\n      tag_27\n      jump\t// in\n    tag_26:\n      mload(0x40)\n      tag_28\n      swap2\n      swap1\n      tag_18\n      jump\t// in\n    tag_28:\n      mload(0x40)\n      dup1\n      swap2\n      sub\n      swap1\n      return\n        /* \"my_contract/10.Rewards.sol\":19618:19710  function changeOwner(address newOwner) public onlyOwner {... */\n    tag_8:\n      tag_29\n      0x04\n      dup1\n      calldatasize\n      sub\n      dup2\n      add\n      swap1\n      tag_30\n      swap2\n      swap1\n      tag_13\n      jump\t// in\n    tag_30:\n      tag_31\n      jump\t// in\n    tag_29:\n      stop\n        /* \"my_contract/10.Rewards.sol\":19781:19867  function token() public view virtual returns (IERC20) {... */\n    tag_9:\n      tag_32\n      tag_33\n      jump\t// in\n    tag_32:\n      mload(0x40)\n      tag_34\n      swap2\n      swap1\n      tag_35\n      jump\t// in\n    tag_34:\n      mload(0x40)\n      dup1\n      swap2\n      sub\n      swap1\n      return\n        /* \"my_contract/10.Rewards.sol\":19481:19604  function setTokenAddress(address tokenAddress ) public virtual   onlyOwner {... */\n    tag_14:\n        /* \"my_contract/10.Rewards.sol\":19360:19366  _owner */\n      0x03\n      0x00\n      swap1\n      sload\n      swap1\n      0x0100\n      exp\n      swap1\n      div\n      0xffffffffffffffffffffffffffffffffffffffff\n      and\n        /* \"my_contract/10.Rewards.sol\":19346:19366  msg.sender == _owner */\n      0xffffffffffffffffffffffffffffffffffffffff\n      and\n        /* \"my_contract/10.Rewards.sol\":19346:19356  msg.sender */\n      caller\n        /* \"my_contract/10.Rewards.sol\":19346:19366  msg.sender == _owner */\n      0xffffffffffffffffffffffffffffffffffffffff\n      and\n      eq\n        /* \"my_contract/10.Rewards.sol\":19338:19367  require(msg.sender == _owner) */\n      tag_37\n      jumpi\n      0x00\n      dup1\n      revert\n    tag_37:\n        /* \"my_contract/10.Rewards.sol\":19583:19595  tokenAddress */\n      dup1\n        /* \"my_contract/10.Rewards.sol\":19567:19573  _token */\n      0x00\n      dup1\n        /* \"my_contract/10.Rewards.sol\":19567:19596  _token = IERC20(tokenAddress) */\n      0x0100\n      exp\n      dup2\n      sload\n      dup2\n      0xffffffffffffffffffffffffffffffffffffffff\n      mul\n      not\n      and\n      swap1\n      dup4\n      0xffffffffffffffffffffffffffffffffffffffff\n      and\n      mul\n      or\n      swap1\n      sstore\n      pop\n        /* \"my_contract/10.Rewards.sol\":19481:19604  function setTokenAddress(address tokenAddress ) public virtual   onlyOwner {... */\n      pop\n      jump\t// out\n        /* \"my_contract/10.Rewards.sol\":19878:19971  function decimals() public view virtual returns (uint256) {... */\n    tag_16:\n        /* \"my_contract/10.Rewards.sol\":19927:19934  uint256 */\n      0x00\n        /* \"my_contract/10.Rewards.sol\":19954:19963  _decimals */\n      sload(0x01)\n        /* \"my_contract/10.Rewards.sol\":19947:19963  return _decimals */\n      swap1\n      pop\n        /* \"my_contract/10.Rewards.sol\":19878:19971  function decimals() public view virtual returns (uint256) {... */\n      swap1\n      jump\t// out\n        /* \"my_contract/10.Rewards.sol\":19982:20088  function getTotalReleased() public view virtual returns (uint256) {... */\n    tag_20:\n        /* \"my_contract/10.Rewards.sol\":20039:20046  uint256 */\n      0x00\n        /* \"my_contract/10.Rewards.sol\":20066:20080  _totalReleased */\n      sload(0x02)\n        /* \"my_contract/10.Rewards.sol\":20059:20080  return _totalReleased */\n      swap1\n      pop\n        /* \"my_contract/10.Rewards.sol\":19982:20088  function getTotalReleased() public view virtual returns (uint256) {... */\n      swap1\n      jump\t// out\n        /* \"my_contract/10.Rewards.sol\":20374:21337  function  distributionToSpecify(address[] calldata recipients, uint256[] calldata values) public virtual onlyOwner {... */\n    tag_25:\n        /* \"my_contract/10.Rewards.sol\":19360:19366  _owner */\n      0x03\n      0x00\n      swap1\n      sload\n      swap1\n      0x0100\n      exp\n      swap1\n      div\n      0xffffffffffffffffffffffffffffffffffffffff\n      and\n        /* \"my_contract/10.Rewards.sol\":19346:19366  msg.sender == _owner */\n      0xffffffffffffffffffffffffffffffffffffffff\n      and\n        /* \"my_contract/10.Rewards.sol\":19346:19356  msg.sender */\n      caller\n        /* \"my_contract/10.Rewards.sol\":19346:19366  msg.sender == _owner */\n      0xffffffffffffffffffffffffffffffffffffffff\n      and\n      eq\n        /* \"my_contract/10.Rewards.sol\":19338:19367  require(msg.sender == _owner) */\n      tag_42\n      jumpi\n      0x00\n      dup1\n      revert\n    tag_42:\n        /* \"my_contract/10.Rewards.sol\":20543:20544  0 */\n      0x00\n        /* \"my_contract/10.Rewards.sol\":20516:20545  address(_token) != address(0) */\n      0xffffffffffffffffffffffffffffffffffffffff\n      and\n        /* \"my_contract/10.Rewards.sol\":20524:20530  _token */\n      0x00\n      dup1\n      sload\n      swap1\n      0x0100\n      exp\n      swap1\n      div\n      0xffffffffffffffffffffffffffffffffffffffff\n      and\n        /* \"my_contract/10.Rewards.sol\":20516:20545  address(_token) != address(0) */\n      0xffffffffffffffffffffffffffffffffffffffff\n      and\n      sub\n        /* \"my_contract/10.Rewards.sol\":20508:20582  require(address(_token) != address(0) , \"Release: need set Token Address\") */\n      tag_44\n      jumpi\n      mload(0x40)\n      0x08c379a000000000000000000000000000000000000000000000000000000000\n      dup2\n      mstore\n      0x04\n      add\n      tag_45\n      swap1\n      tag_46\n      jump\t// in\n    tag_45:\n      mload(0x40)\n      dup1\n      swap2\n      sub\n      swap1\n      revert\n    tag_44:\n        /* \"my_contract/10.Rewards.sol\":20622:20628  values */\n      dup2\n      dup2\n        /* \"my_contract/10.Rewards.sol\":20622:20635  values.length */\n      swap1\n      pop\n        /* \"my_contract/10.Rewards.sol\":20601:20611  recipients */\n      dup5\n      dup5\n        /* \"my_contract/10.Rewards.sol\":20601:20618  recipients.length */\n      swap1\n      pop\n        /* \"my_contract/10.Rewards.sol\":20601:20635  recipients.length == values.length */\n      eq\n        /* \"my_contract/10.Rewards.sol\":20593:20716  require(recipients.length == values.length,\"Please check the data, the news ID and distribution quantity are inconsistent\") */\n      tag_47\n      jumpi\n      mload(0x40)\n      0x08c379a000000000000000000000000000000000000000000000000000000000\n      dup2\n      mstore\n      0x04\n      add\n      tag_48\n      swap1\n      tag_49\n      jump\t// in\n    tag_48:\n      mload(0x40)\n      dup1\n      swap2\n      sub\n      swap1\n      revert\n    tag_47:\n        /* \"my_contract/10.Rewards.sol\":20727:20746  uint256 totalAmount */\n      0x00\n        /* \"my_contract/10.Rewards.sol\":20766:20775  uint256 i */\n      dup1\n        /* \"my_contract/10.Rewards.sol\":20761:20875  for (uint256 i = 0; i < recipients.length; i++){... */\n    tag_50:\n        /* \"my_contract/10.Rewards.sol\":20785:20795  recipients */\n      dup6\n      dup6\n        /* \"my_contract/10.Rewards.sol\":20785:20802  recipients.length */\n      swap1\n      pop\n        /* \"my_contract/10.Rewards.sol\":20781:20782  i */\n      dup2\n        /* \"my_contract/10.Rewards.sol\":20781:20802  i < recipients.length */\n      lt\n        /* \"my_contract/10.Rewards.sol\":20761:20875  for (uint256 i = 0; i < recipients.length; i++){... */\n      iszero\n      tag_51\n      jumpi\n        /* \"my_contract/10.Rewards.sol\":20837:20863  totalAmount.add(values[i]) */\n      tag_53\n        /* \"my_contract/10.Rewards.sol\":20853:20859  values */\n      dup5\n      dup5\n        /* \"my_contract/10.Rewards.sol\":20860:20861  i */\n      dup4\n        /* \"my_contract/10.Rewards.sol\":20853:20862  values[i] */\n      dup2\n      dup2\n      lt\n      tag_54\n      jumpi\n      tag_55\n      tag_56\n      jump\t// in\n    tag_55:\n    tag_54:\n      swap1\n      pop\n      0x20\n      mul\n      add\n      calldataload\n        /* \"my_contract/10.Rewards.sol\":20837:20848  totalAmount */\n      dup4\n        /* \"my_contract/10.Rewards.sol\":20837:20852  totalAmount.add */\n      tag_57\n      swap1\n        /* \"my_contract/10.Rewards.sol\":20837:20863  totalAmount.add(values[i]) */\n      swap2\n      swap1\n      0xffffffff\n      and\n      jump\t// in\n    tag_53:\n        /* \"my_contract/10.Rewards.sol\":20823:20863  totalAmount = totalAmount.add(values[i]) */\n      swap2\n      pop\n        /* \"my_contract/10.Rewards.sol\":20804:20807  i++ */\n      dup1\n      dup1\n      tag_58\n      swap1\n      tag_59\n      jump\t// in\n    tag_58:\n      swap2\n      pop\n      pop\n        /* \"my_contract/10.Rewards.sol\":20761:20875  for (uint256 i = 0; i < recipients.length; i++){... */\n      jump(tag_50)\n    tag_51:\n      pop\n        /* \"my_contract/10.Rewards.sol\":20911:20922  totalAmount */\n      dup1\n        /* \"my_contract/10.Rewards.sol\":20893:20907  tokenBalance() */\n      tag_60\n        /* \"my_contract/10.Rewards.sol\":20893:20905  tokenBalance */\n      tag_27\n        /* \"my_contract/10.Rewards.sol\":20893:20907  tokenBalance() */\n      jump\t// in\n    tag_60:\n        /* \"my_contract/10.Rewards.sol\":20893:20922  tokenBalance() >= totalAmount */\n      lt\n      iszero\n        /* \"my_contract/10.Rewards.sol\":20885:20984  require(tokenBalance() >= totalAmount , \"The number of air drops exceeds the daily release amount\") */\n      tag_61\n      jumpi\n      mload(0x40)\n      0x08c379a000000000000000000000000000000000000000000000000000000000\n      dup2\n      mstore\n      0x04\n      add\n      tag_62\n      swap1\n      tag_63\n      jump\t// in\n    tag_62:\n      mload(0x40)\n      dup1\n      swap2\n      sub\n      swap1\n      revert\n    tag_61:\n        /* \"my_contract/10.Rewards.sol\":21008:21017  uint256 i */\n      0x00\n        /* \"my_contract/10.Rewards.sol\":21003:21330  for (uint256 i = 0; i < recipients.length; i++){... */\n    tag_64:\n        /* \"my_contract/10.Rewards.sol\":21027:21037  recipients */\n      dup6\n      dup6\n        /* \"my_contract/10.Rewards.sol\":21027:21044  recipients.length */\n      swap1\n      pop\n        /* \"my_contract/10.Rewards.sol\":21023:21024  i */\n      dup2\n        /* \"my_contract/10.Rewards.sol\":21023:21044  i < recipients.length */\n      lt\n        /* \"my_contract/10.Rewards.sol\":21003:21330  for (uint256 i = 0; i < recipients.length; i++){... */\n      iszero\n      tag_65\n      jumpi\n        /* \"my_contract/10.Rewards.sol\":21172:21235  token().safeTransferFrom(address(this),recipients[i],values[i]) */\n      tag_67\n        /* \"my_contract/10.Rewards.sol\":21205:21209  this */\n      address\n        /* \"my_contract/10.Rewards.sol\":21211:21221  recipients */\n      dup8\n      dup8\n        /* \"my_contract/10.Rewards.sol\":21222:21223  i */\n      dup5\n        /* \"my_contract/10.Rewards.sol\":21211:21224  recipients[i] */\n      dup2\n      dup2\n      lt\n      tag_68\n      jumpi\n      tag_69\n      tag_56\n      jump\t// in\n    tag_69:\n    tag_68:\n      swap1\n      pop\n      0x20\n      mul\n      add\n      0x20\n      dup2\n      add\n      swap1\n      tag_70\n      swap2\n      swap1\n      tag_13\n      jump\t// in\n    tag_70:\n        /* \"my_contract/10.Rewards.sol\":21225:21231  values */\n      dup7\n      dup7\n        /* \"my_contract/10.Rewards.sol\":21232:21233  i */\n      dup6\n        /* \"my_contract/10.Rewards.sol\":21225:21234  values[i] */\n      dup2\n      dup2\n      lt\n      tag_71\n      jumpi\n      tag_72\n      tag_56\n      jump\t// in\n    tag_72:\n    tag_71:\n      swap1\n      pop\n      0x20\n      mul\n      add\n      calldataload\n        /* \"my_contract/10.Rewards.sol\":21172:21179  token() */\n      tag_73\n        /* \"my_contract/10.Rewards.sol\":21172:21177  token */\n      tag_33\n        /* \"my_contract/10.Rewards.sol\":21172:21179  token() */\n      jump\t// in\n    tag_73:\n        /* \"my_contract/10.Rewards.sol\":21172:21196  token().safeTransferFrom */\n      0xffffffffffffffffffffffffffffffffffffffff\n      and\n      tag_74\n      swap1\n        /* \"my_contract/10.Rewards.sol\":21172:21235  token().safeTransferFrom(address(this),recipients[i],values[i]) */\n      swap4\n      swap3\n      swap2\n      swap1\n      0xffffffff\n      and\n      jump\t// in\n    tag_67:\n        /* \"my_contract/10.Rewards.sol\":21309:21315  values */\n      dup4\n      dup4\n        /* \"my_contract/10.Rewards.sol\":21316:21317  i */\n      dup3\n        /* \"my_contract/10.Rewards.sol\":21309:21318  values[i] */\n      dup2\n      dup2\n      lt\n      tag_75\n      jumpi\n      tag_76\n      tag_56\n      jump\t// in\n    tag_76:\n    tag_75:\n      swap1\n      pop\n      0x20\n      mul\n      add\n      calldataload\n        /* \"my_contract/10.Rewards.sol\":21292:21306  _totalReleased */\n      sload(0x02)\n        /* \"my_contract/10.Rewards.sol\":21292:21318  _totalReleased + values[i] */\n      tag_77\n      swap2\n      swap1\n      tag_78\n      jump\t// in\n    tag_77:\n        /* \"my_contract/10.Rewards.sol\":21275:21289  _totalReleased */\n      0x02\n        /* \"my_contract/10.Rewards.sol\":21275:21318  _totalReleased = _totalReleased + values[i] */\n      dup2\n      swap1\n      sstore\n      pop\n        /* \"my_contract/10.Rewards.sol\":21046:21049  i++ */\n      dup1\n      dup1\n      tag_79\n      swap1\n      tag_59\n      jump\t// in\n    tag_79:\n      swap2\n      pop\n      pop\n        /* \"my_contract/10.Rewards.sol\":21003:21330  for (uint256 i = 0; i < recipients.length; i++){... */\n      jump(tag_64)\n    tag_65:\n      pop\n        /* \"my_contract/10.Rewards.sol\":20489:21337  {... */\n      pop\n        /* \"my_contract/10.Rewards.sol\":20374:21337  function  distributionToSpecify(address[] calldata recipients, uint256[] calldata values) public virtual onlyOwner {... */\n      pop\n      pop\n      pop\n      pop\n      jump\t// out\n        /* \"my_contract/10.Rewards.sol\":20100:20333  function tokenBalance() public view virtual returns (uint256) {... */\n    tag_27:\n        /* \"my_contract/10.Rewards.sol\":20153:20160  uint256 */\n      0x00\n        /* \"my_contract/10.Rewards.sol\":20204:20205  0 */\n      dup1\n        /* \"my_contract/10.Rewards.sol\":20176:20206  address(token()) == address(0) */\n      0xffffffffffffffffffffffffffffffffffffffff\n      and\n        /* \"my_contract/10.Rewards.sol\":20184:20191  token() */\n      tag_81\n        /* \"my_contract/10.Rewards.sol\":20184:20189  token */\n      tag_33\n        /* \"my_contract/10.Rewards.sol\":20184:20191  token() */\n      jump\t// in\n    tag_81:\n        /* \"my_contract/10.Rewards.sol\":20176:20206  address(token()) == address(0) */\n      0xffffffffffffffffffffffffffffffffffffffff\n      and\n      sub\n        /* \"my_contract/10.Rewards.sol\":20173:20242  if(address(token()) == address(0)){... */\n      tag_82\n      jumpi\n        /* \"my_contract/10.Rewards.sol\":20229:20230  0 */\n      0x00\n        /* \"my_contract/10.Rewards.sol\":20222:20230  return 0 */\n      swap1\n      pop\n      jump(tag_80)\n        /* \"my_contract/10.Rewards.sol\":20173:20242  if(address(token()) == address(0)){... */\n    tag_82:\n        /* \"my_contract/10.Rewards.sol\":20252:20266  uint256 amount */\n      0x00\n        /* \"my_contract/10.Rewards.sol\":20269:20276  token() */\n      tag_83\n        /* \"my_contract/10.Rewards.sol\":20269:20274  token */\n      tag_33\n        /* \"my_contract/10.Rewards.sol\":20269:20276  token() */\n      jump\t// in\n    tag_83:\n        /* \"my_contract/10.Rewards.sol\":20269:20286  token().balanceOf */\n      0xffffffffffffffffffffffffffffffffffffffff\n      and\n      0x70a08231\n        /* \"my_contract/10.Rewards.sol\":20295:20299  this */\n      address\n        /* \"my_contract/10.Rewards.sol\":20269:20301  token().balanceOf(address(this)) */\n      mload(0x40)\n      dup3\n      0xffffffff\n      and\n      0xe0\n      shl\n      dup2\n      mstore\n      0x04\n      add\n      tag_84\n      swap2\n      swap1\n      tag_85\n      jump\t// in\n    tag_84:\n      0x20\n      mload(0x40)\n      dup1\n      dup4\n      sub\n      dup2\n      dup7\n      gas\n      staticcall\n      iszero\n      dup1\n      iszero\n      tag_87\n      jumpi\n      returndatasize\n      0x00\n      dup1\n      returndatacopy\n      revert(0x00, returndatasize)\n    tag_87:\n      pop\n      pop\n      pop\n      pop\n      mload(0x40)\n      returndatasize\n      not(0x1f)\n      0x1f\n      dup3\n      add\n      and\n      dup3\n      add\n      dup1\n      0x40\n      mstore\n      pop\n      dup2\n      add\n      swap1\n      tag_88\n      swap2\n      swap1\n      tag_89\n      jump\t// in\n    tag_88:\n        /* \"my_contract/10.Rewards.sol\":20252:20301  uint256 amount = token().balanceOf(address(this)) */\n      swap1\n      pop\n        /* \"my_contract/10.Rewards.sol\":20319:20325  amount */\n      dup1\n        /* \"my_contract/10.Rewards.sol\":20312:20325  return amount */\n      swap2\n      pop\n      pop\n        /* \"my_contract/10.Rewards.sol\":20100:20333  function tokenBalance() public view virtual returns (uint256) {... */\n    tag_80:\n      swap1\n      jump\t// out\n        /* \"my_contract/10.Rewards.sol\":19618:19710  function changeOwner(address newOwner) public onlyOwner {... */\n    tag_31:\n        /* \"my_contract/10.Rewards.sol\":19360:19366  _owner */\n      0x03\n      0x00\n      swap1\n      sload\n      swap1\n      0x0100\n      exp\n      swap1\n      div\n      0xffffffffffffffffffffffffffffffffffffffff\n      and\n        /* \"my_contract/10.Rewards.sol\":19346:19366  msg.sender == _owner */\n      0xffffffffffffffffffffffffffffffffffffffff\n      and\n        /* \"my_contract/10.Rewards.sol\":19346:19356  msg.sender */\n      caller\n        /* \"my_contract/10.Rewards.sol\":19346:19366  msg.sender == _owner */\n      0xffffffffffffffffffffffffffffffffffffffff\n      and\n      eq\n        /* \"my_contract/10.Rewards.sol\":19338:19367  require(msg.sender == _owner) */\n      tag_91\n      jumpi\n      0x00\n      dup1\n      revert\n    tag_91:\n        /* \"my_contract/10.Rewards.sol\":19694:19702  newOwner */\n      dup1\n        /* \"my_contract/10.Rewards.sol\":19685:19691  _owner */\n      0x03\n      0x00\n        /* \"my_contract/10.Rewards.sol\":19685:19702  _owner = newOwner */\n      0x0100\n      exp\n      dup2\n      sload\n      dup2\n      0xffffffffffffffffffffffffffffffffffffffff\n      mul\n      not\n      and\n      swap1\n      dup4\n      0xffffffffffffffffffffffffffffffffffffffff\n      and\n      mul\n      or\n      swap1\n      sstore\n      pop\n        /* \"my_contract/10.Rewards.sol\":19618:19710  function changeOwner(address newOwner) public onlyOwner {... */\n      pop\n      jump\t// out\n        /* \"my_contract/10.Rewards.sol\":19781:19867  function token() public view virtual returns (IERC20) {... */\n    tag_33:\n        /* \"my_contract/10.Rewards.sol\":19827:19833  IERC20 */\n      0x00\n        /* \"my_contract/10.Rewards.sol\":19853:19859  _token */\n      dup1\n      0x00\n      swap1\n      sload\n      swap1\n      0x0100\n      exp\n      swap1\n      div\n      0xffffffffffffffffffffffffffffffffffffffff\n      and\n        /* \"my_contract/10.Rewards.sol\":19846:19859  return _token */\n      swap1\n      pop\n        /* \"my_contract/10.Rewards.sol\":19781:19867  function token() public view virtual returns (IERC20) {... */\n      swap1\n      jump\t// out\n        /* \"my_contract/10.Rewards.sol\":3156:3337  function add(uint256 a, uint256 b) internal pure returns (uint256) {... */\n    tag_57:\n        /* \"my_contract/10.Rewards.sol\":3214:3221  uint256 */\n      0x00\n        /* \"my_contract/10.Rewards.sol\":3234:3243  uint256 c */\n      dup1\n        /* \"my_contract/10.Rewards.sol\":3250:3251  b */\n      dup3\n        /* \"my_contract/10.Rewards.sol\":3246:3247  a */\n      dup5\n        /* \"my_contract/10.Rewards.sol\":3246:3251  a + b */\n      tag_95\n      swap2\n      swap1\n      tag_78\n      jump\t// in\n    tag_95:\n        /* \"my_contract/10.Rewards.sol\":3234:3251  uint256 c = a + b */\n      swap1\n      pop\n        /* \"my_contract/10.Rewards.sol\":3275:3276  a */\n      dup4\n        /* \"my_contract/10.Rewards.sol\":3270:3271  c */\n      dup2\n        /* \"my_contract/10.Rewards.sol\":3270:3276  c >= a */\n      lt\n      iszero\n        /* \"my_contract/10.Rewards.sol\":3262:3308  require(c >= a, \"SafeMath: addition overflow\") */\n      tag_96\n      jumpi\n      mload(0x40)\n      0x08c379a000000000000000000000000000000000000000000000000000000000\n      dup2\n      mstore\n      0x04\n      add\n      tag_97\n      swap1\n      tag_98\n      jump\t// in\n    tag_97:\n      mload(0x40)\n      dup1\n      swap2\n      sub\n      swap1\n      revert\n    tag_96:\n        /* \"my_contract/10.Rewards.sol\":3328:3329  c */\n      dup1\n        /* \"my_contract/10.Rewards.sol\":3321:3329  return c */\n      swap2\n      pop\n      pop\n        /* \"my_contract/10.Rewards.sol\":3156:3337  function add(uint256 a, uint256 b) internal pure returns (uint256) {... */\n      swap3\n      swap2\n      pop\n      pop\n      jump\t// out\n        /* \"my_contract/10.Rewards.sol\":15534:15782  function safeTransferFrom(... */\n    tag_74:\n        /* \"my_contract/10.Rewards.sol\":15678:15774  _callOptionalReturn(token, abi.encodeWithSelector(token.transferFrom.selector, from, to, value)) */\n      tag_100\n        /* \"my_contract/10.Rewards.sol\":15698:15703  token */\n      dup5\n        /* \"my_contract/10.Rewards.sol\":15728:15755  token.transferFrom.selector */\n      shl(0xe0, 0x23b872dd)\n        /* \"my_contract/10.Rewards.sol\":15757:15761  from */\n      dup6\n        /* \"my_contract/10.Rewards.sol\":15763:15765  to */\n      dup6\n        /* \"my_contract/10.Rewards.sol\":15767:15772  value */\n      dup6\n        /* \"my_contract/10.Rewards.sol\":15705:15773  abi.encodeWithSelector(token.transferFrom.selector, from, to, value) */\n      add(0x24, mload(0x40))\n      tag_101\n      swap4\n      swap3\n      swap2\n      swap1\n      tag_102\n      jump\t// in\n    tag_101:\n      mload(0x40)\n      0x20\n      dup2\n      dup4\n      sub\n      sub\n      dup2\n      mstore\n      swap1\n      0x40\n      mstore\n      swap1\n      not(0xffffffffffffffffffffffffffffffffffffffffffffffffffffffff)\n      and\n      0x20\n      dup3\n      add\n      dup1\n      mload\n      0xffffffffffffffffffffffffffffffffffffffffffffffffffffffff\n      dup4\n      dup2\n      dup4\n      and\n      or\n      dup4\n      mstore\n      pop\n      pop\n      pop\n      pop\n        /* \"my_contract/10.Rewards.sol\":15678:15697  _callOptionalReturn */\n      tag_103\n        /* \"my_contract/10.Rewards.sol\":15678:15774  _callOptionalReturn(token, abi.encodeWithSelector(token.transferFrom.selector, from, to, value)) */\n      jump\t// in\n    tag_100:\n        /* \"my_contract/10.Rewards.sol\":15534:15782  function safeTransferFrom(... */\n      pop\n      pop\n      pop\n      pop\n      jump\t// out\n        /* \"my_contract/10.Rewards.sol\":17888:18604  function _callOptionalReturn(IERC20 token, bytes memory data) private {... */\n    tag_103:\n        /* \"my_contract/10.Rewards.sol\":18312:18335  bytes memory returndata */\n      0x00\n        /* \"my_contract/10.Rewards.sol\":18338:18407  address(token).functionCall(data, \"SafeERC20: low-level call failed\") */\n      tag_105\n        /* \"my_contract/10.Rewards.sol\":18366:18370  data */\n      dup3\n        /* \"my_contract/10.Rewards.sol\":18338:18407  address(token).functionCall(data, \"SafeERC20: low-level call failed\") */\n      mload(0x40)\n      dup1\n      0x40\n      add\n      0x40\n      mstore\n      dup1\n      0x20\n      dup2\n      mstore\n      0x20\n      add\n      0x5361666545524332303a206c6f772d6c6576656c2063616c6c206661696c6564\n      dup2\n      mstore\n      pop\n        /* \"my_contract/10.Rewards.sol\":18346:18351  token */\n      dup6\n        /* \"my_contract/10.Rewards.sol\":18338:18365  address(token).functionCall */\n      0xffffffffffffffffffffffffffffffffffffffff\n      and\n      tag_106\n      swap1\n        /* \"my_contract/10.Rewards.sol\":18338:18407  address(token).functionCall(data, \"SafeERC20: low-level call failed\") */\n      swap3\n      swap2\n      swap1\n      0xffffffff\n      and\n      jump\t// in\n    tag_105:\n        /* \"my_contract/10.Rewards.sol\":18312:18407  bytes memory returndata = address(token).functionCall(data, \"SafeERC20: low-level call failed\") */\n      swap1\n      pop\n        /* \"my_contract/10.Rewards.sol\":18442:18443  0 */\n      0x00\n        /* \"my_contract/10.Rewards.sol\":18422:18432  returndata */\n      dup2\n        /* \"my_contract/10.Rewards.sol\":18422:18439  returndata.length */\n      mload\n        /* \"my_contract/10.Rewards.sol\":18422:18443  returndata.length > 0 */\n      gt\n        /* \"my_contract/10.Rewards.sol\":18418:18597  if (returndata.length > 0) {... */\n      iszero\n      tag_107\n      jumpi\n        /* \"my_contract/10.Rewards.sol\":18519:18529  returndata */\n      dup1\n        /* \"my_contract/10.Rewards.sol\":18508:18538  abi.decode(returndata, (bool)) */\n      dup1\n      0x20\n      add\n      swap1\n      mload\n      dup2\n      add\n      swap1\n      tag_108\n      swap2\n      swap1\n      tag_109\n      jump\t// in\n    tag_108:\n        /* \"my_contract/10.Rewards.sol\":18500:18585  require(abi.decode(returndata, (bool)), \"SafeERC20: ERC20 operation did not succeed\") */\n      tag_110\n      jumpi\n      mload(0x40)\n      0x08c379a000000000000000000000000000000000000000000000000000000000\n      dup2\n      mstore\n      0x04\n      add\n      tag_111\n      swap1\n      tag_112\n      jump\t// in\n    tag_111:\n      mload(0x40)\n      dup1\n      swap2\n      sub\n      swap1\n      revert\n    tag_110:\n        /* \"my_contract/10.Rewards.sol\":18418:18597  if (returndata.length > 0) {... */\n    tag_107:\n        /* \"my_contract/10.Rewards.sol\":17958:18604  {... */\n      pop\n        /* \"my_contract/10.Rewards.sol\":17888:18604  function _callOptionalReturn(IERC20 token, bytes memory data) private {... */\n      pop\n      pop\n      jump\t// out\n        /* \"my_contract/10.Rewards.sol\":10262:10491  function functionCall(... */\n    tag_106:\n        /* \"my_contract/10.Rewards.sol\":10399:10411  bytes memory */\n      0x60\n        /* \"my_contract/10.Rewards.sol\":10431:10483  functionCallWithValue(target, data, 0, errorMessage) */\n      tag_114\n        /* \"my_contract/10.Rewards.sol\":10453:10459  target */\n      dup5\n        /* \"my_contract/10.Rewards.sol\":10461:10465  data */\n      dup5\n        /* \"my_contract/10.Rewards.sol\":10467:10468  0 */\n      0x00\n        /* \"my_contract/10.Rewards.sol\":10470:10482  errorMessage */\n      dup6\n        /* \"my_contract/10.Rewards.sol\":10431:10452  functionCallWithValue */\n      tag_115\n        /* \"my_contract/10.Rewards.sol\":10431:10483  functionCallWithValue(target, data, 0, errorMessage) */\n      jump\t// in\n    tag_114:\n        /* \"my_contract/10.Rewards.sol\":10424:10483  return functionCallWithValue(target, data, 0, errorMessage) */\n      swap1\n      pop\n        /* \"my_contract/10.Rewards.sol\":10262:10491  function functionCall(... */\n      swap4\n      swap3\n      pop\n      pop\n      pop\n      jump\t// out\n        /* \"my_contract/10.Rewards.sol\":11382:11892  function functionCallWithValue(... */\n    tag_115:\n        /* \"my_contract/10.Rewards.sol\":11552:11564  bytes memory */\n      0x60\n        /* \"my_contract/10.Rewards.sol\":11610:11615  value */\n      dup3\n        /* \"my_contract/10.Rewards.sol\":11585:11606  address(this).balance */\n      selfbalance\n        /* \"my_contract/10.Rewards.sol\":11585:11615  address(this).balance >= value */\n      lt\n      iszero\n        /* \"my_contract/10.Rewards.sol\":11577:11658  require(address(this).balance >= value, \"Address: insufficient balance for call\") */\n      tag_117\n      jumpi\n      mload(0x40)\n      0x08c379a000000000000000000000000000000000000000000000000000000000\n      dup2\n      mstore\n      0x04\n      add\n      tag_118\n      swap1\n      tag_119\n      jump\t// in\n    tag_118:\n      mload(0x40)\n      dup1\n      swap2\n      sub\n      swap1\n      revert\n    tag_117:\n        /* \"my_contract/10.Rewards.sol\":11677:11695  isContract(target) */\n      tag_120\n        /* \"my_contract/10.Rewards.sol\":11688:11694  target */\n      dup6\n        /* \"my_contract/10.Rewards.sol\":11677:11687  isContract */\n      tag_121\n        /* \"my_contract/10.Rewards.sol\":11677:11695  isContract(target) */\n      jump\t// in\n    tag_120:\n        /* \"my_contract/10.Rewards.sol\":11669:11729  require(isContract(target), \"Address: call to non-contract\") */\n      tag_122\n      jumpi\n      mload(0x40)\n      0x08c379a000000000000000000000000000000000000000000000000000000000\n      dup2\n      mstore\n      0x04\n      add\n      tag_123\n      swap1\n      tag_124\n      jump\t// in\n    tag_123:\n      mload(0x40)\n      dup1\n      swap2\n      sub\n      swap1\n      revert\n    tag_122:\n        /* \"my_contract/10.Rewards.sol\":11743:11755  bool success */\n      0x00\n        /* \"my_contract/10.Rewards.sol\":11757:11780  bytes memory returndata */\n      dup1\n        /* \"my_contract/10.Rewards.sol\":11784:11790  target */\n      dup7\n        /* \"my_contract/10.Rewards.sol\":11784:11795  target.call */\n      0xffffffffffffffffffffffffffffffffffffffff\n      and\n        /* \"my_contract/10.Rewards.sol\":11803:11808  value */\n      dup6\n        /* \"my_contract/10.Rewards.sol\":11810:11814  data */\n      dup8\n        /* \"my_contract/10.Rewards.sol\":11784:11815  target.call{value: value}(data) */\n      mload(0x40)\n      tag_125\n      swap2\n      swap1\n      tag_126\n      jump\t// in\n    tag_125:\n      0x00\n      mload(0x40)\n      dup1\n      dup4\n      sub\n      dup2\n      dup6\n      dup8\n      gas\n      call\n      swap3\n      pop\n      pop\n      pop\n      returndatasize\n      dup1\n      0x00\n      dup2\n      eq\n      tag_129\n      jumpi\n      mload(0x40)\n      swap2\n      pop\n      and(add(returndatasize, 0x3f), not(0x1f))\n      dup3\n      add\n      0x40\n      mstore\n      returndatasize\n      dup3\n      mstore\n      returndatasize\n      0x00\n      0x20\n      dup5\n      add\n      returndatacopy\n      jump(tag_128)\n    tag_129:\n      0x60\n      swap2\n      pop\n    tag_128:\n      pop\n        /* \"my_contract/10.Rewards.sol\":11742:11815  (bool success, bytes memory returndata) = target.call{value: value}(data) */\n      swap2\n      pop\n      swap2\n      pop\n        /* \"my_contract/10.Rewards.sol\":11833:11884  verifyCallResult(success, returndata, errorMessage) */\n      tag_130\n        /* \"my_contract/10.Rewards.sol\":11850:11857  success */\n      dup3\n        /* \"my_contract/10.Rewards.sol\":11859:11869  returndata */\n      dup3\n        /* \"my_contract/10.Rewards.sol\":11871:11883  errorMessage */\n      dup7\n        /* \"my_contract/10.Rewards.sol\":11833:11849  verifyCallResult */\n      tag_131\n        /* \"my_contract/10.Rewards.sol\":11833:11884  verifyCallResult(success, returndata, errorMessage) */\n      jump\t// in\n    tag_130:\n        /* \"my_contract/10.Rewards.sol\":11826:11884  return verifyCallResult(success, returndata, errorMessage) */\n      swap3\n      pop\n      pop\n      pop\n        /* \"my_contract/10.Rewards.sol\":11382:11892  function functionCallWithValue(... */\n      swap5\n      swap4\n      pop\n      pop\n      pop\n      pop\n      jump\t// out\n        /* \"my_contract/10.Rewards.sol\":7517:7843  function isContract(address account) internal view returns (bool) {... */\n    tag_121:\n        /* \"my_contract/10.Rewards.sol\":7577:7581  bool */\n      0x00\n        /* \"my_contract/10.Rewards.sol\":7834:7835  0 */\n      dup1\n        /* \"my_contract/10.Rewards.sol\":7812:7819  account */\n      dup3\n        /* \"my_contract/10.Rewards.sol\":7812:7831  account.code.length */\n      0xffffffffffffffffffffffffffffffffffffffff\n      and\n      extcodesize\n        /* \"my_contract/10.Rewards.sol\":7812:7835  account.code.length > 0 */\n      gt\n        /* \"my_contract/10.Rewards.sol\":7805:7835  return account.code.length > 0 */\n      swap1\n      pop\n        /* \"my_contract/10.Rewards.sol\":7517:7843  function isContract(address account) internal view returns (bool) {... */\n      swap2\n      swap1\n      pop\n      jump\t// out\n        /* \"my_contract/10.Rewards.sol\":14068:14780  function verifyCallResult(... */\n    tag_131:\n        /* \"my_contract/10.Rewards.sol\":14218:14230  bytes memory */\n      0x60\n        /* \"my_contract/10.Rewards.sol\":14247:14254  success */\n      dup4\n        /* \"my_contract/10.Rewards.sol\":14243:14773  if (success) {... */\n      iszero\n      tag_134\n      jumpi\n        /* \"my_contract/10.Rewards.sol\":14278:14288  returndata */\n      dup3\n        /* \"my_contract/10.Rewards.sol\":14271:14288  return returndata */\n      swap1\n      pop\n      jump(tag_133)\n        /* \"my_contract/10.Rewards.sol\":14243:14773  if (success) {... */\n    tag_134:\n        /* \"my_contract/10.Rewards.sol\":14412:14413  0 */\n      0x00\n        /* \"my_contract/10.Rewards.sol\":14392:14402  returndata */\n      dup4\n        /* \"my_contract/10.Rewards.sol\":14392:14409  returndata.length */\n      mload\n        /* \"my_contract/10.Rewards.sol\":14392:14413  returndata.length > 0 */\n      gt\n        /* \"my_contract/10.Rewards.sol\":14388:14762  if (returndata.length > 0) {... */\n      iszero\n      tag_136\n      jumpi\n        /* \"my_contract/10.Rewards.sol\":14590:14600  returndata */\n      dup3\n        /* \"my_contract/10.Rewards.sol\":14584:14601  mload(returndata) */\n      mload\n        /* \"my_contract/10.Rewards.sol\":14651:14666  returndata_size */\n      dup1\n        /* \"my_contract/10.Rewards.sol\":14638:14648  returndata */\n      dup5\n        /* \"my_contract/10.Rewards.sol\":14634:14636  32 */\n      0x20\n        /* \"my_contract/10.Rewards.sol\":14630:14649  add(32, returndata) */\n      add\n        /* \"my_contract/10.Rewards.sol\":14623:14667  revert(add(32, returndata), returndata_size) */\n      revert\n        /* \"my_contract/10.Rewards.sol\":14388:14762  if (returndata.length > 0) {... */\n    tag_136:\n        /* \"my_contract/10.Rewards.sol\":14733:14745  errorMessage */\n      dup2\n        /* \"my_contract/10.Rewards.sol\":14726:14746  revert(errorMessage) */\n      mload(0x40)\n      0x08c379a000000000000000000000000000000000000000000000000000000000\n      dup2\n      mstore\n      0x04\n      add\n      tag_138\n      swap2\n      swap1\n      tag_139\n      jump\t// in\n    tag_138:\n      mload(0x40)\n      dup1\n      swap2\n      sub\n      swap1\n      revert\n        /* \"my_contract/10.Rewards.sol\":14068:14780  function verifyCallResult(... */\n    tag_133:\n      swap4\n      swap3\n      pop\n      pop\n      pop\n      jump\t// out\n        /* \"#utility.yul\":88:205   */\n    tag_141:\n        /* \"#utility.yul\":197:198   */\n      0x00\n        /* \"#utility.yul\":194:195   */\n      dup1\n        /* \"#utility.yul\":187:199   */\n      revert\n        /* \"#utility.yul\":211:328   */\n    tag_142:\n        /* \"#utility.yul\":320:321   */\n      0x00\n        /* \"#utility.yul\":317:318   */\n      dup1\n        /* \"#utility.yul\":310:322   */\n      revert\n        /* \"#utility.yul\":334:460   */\n    tag_143:\n        /* \"#utility.yul\":371:378   */\n      0x00\n        /* \"#utility.yul\":411:453   */\n      0xffffffffffffffffffffffffffffffffffffffff\n        /* \"#utility.yul\":404:409   */\n      dup3\n        /* \"#utility.yul\":400:454   */\n      and\n        /* \"#utility.yul\":389:454   */\n      swap1\n      pop\n        /* \"#utility.yul\":334:460   */\n      swap2\n      swap1\n      pop\n      jump\t// out\n        /* \"#utility.yul\":466:562   */\n    tag_144:\n        /* \"#utility.yul\":503:510   */\n      0x00\n        /* \"#utility.yul\":532:556   */\n      tag_194\n        /* \"#utility.yul\":550:555   */\n      dup3\n        /* \"#utility.yul\":532:556   */\n      tag_143\n      jump\t// in\n    tag_194:\n        /* \"#utility.yul\":521:556   */\n      swap1\n      pop\n        /* \"#utility.yul\":466:562   */\n      swap2\n      swap1\n      pop\n      jump\t// out\n        /* \"#utility.yul\":568:690   */\n    tag_145:\n        /* \"#utility.yul\":641:665   */\n      tag_196\n        /* \"#utility.yul\":659:664   */\n      dup2\n        /* \"#utility.yul\":641:665   */\n      tag_144\n      jump\t// in\n    tag_196:\n        /* \"#utility.yul\":634:639   */\n      dup2\n        /* \"#utility.yul\":631:666   */\n      eq\n        /* \"#utility.yul\":621:684   */\n      tag_197\n      jumpi\n        /* \"#utility.yul\":680:681   */\n      0x00\n        /* \"#utility.yul\":677:678   */\n      dup1\n        /* \"#utility.yul\":670:682   */\n      revert\n        /* \"#utility.yul\":621:684   */\n    tag_197:\n        /* \"#utility.yul\":568:690   */\n      pop\n      jump\t// out\n        /* \"#utility.yul\":696:835   */\n    tag_146:\n        /* \"#utility.yul\":742:747   */\n      0x00\n        /* \"#utility.yul\":780:786   */\n      dup2\n        /* \"#utility.yul\":767:787   */\n      calldataload\n        /* \"#utility.yul\":758:787   */\n      swap1\n      pop\n        /* \"#utility.yul\":796:829   */\n      tag_199\n        /* \"#utility.yul\":823:828   */\n      dup2\n        /* \"#utility.yul\":796:829   */\n      tag_145\n      jump\t// in\n    tag_199:\n        /* \"#utility.yul\":696:835   */\n      swap3\n      swap2\n      pop\n      pop\n      jump\t// out\n        /* \"#utility.yul\":841:1170   */\n    tag_13:\n        /* \"#utility.yul\":900:906   */\n      0x00\n        /* \"#utility.yul\":949:951   */\n      0x20\n        /* \"#utility.yul\":937:946   */\n      dup3\n        /* \"#utility.yul\":928:935   */\n      dup5\n        /* \"#utility.yul\":924:947   */\n      sub\n        /* \"#utility.yul\":920:952   */\n      slt\n        /* \"#utility.yul\":917:1036   */\n      iszero\n      tag_201\n      jumpi\n        /* \"#utility.yul\":955:1034   */\n      tag_202\n      tag_141\n      jump\t// in\n    tag_202:\n        /* \"#utility.yul\":917:1036   */\n    tag_201:\n        /* \"#utility.yul\":1075:1076   */\n      0x00\n        /* \"#utility.yul\":1100:1153   */\n      tag_203\n        /* \"#utility.yul\":1145:1152   */\n      dup5\n        /* \"#utility.yul\":1136:1142   */\n      dup3\n        /* \"#utility.yul\":1125:1134   */\n      dup6\n        /* \"#utility.yul\":1121:1143   */\n      add\n        /* \"#utility.yul\":1100:1153   */\n      tag_146\n      jump\t// in\n    tag_203:\n        /* \"#utility.yul\":1090:1153   */\n      swap2\n      pop\n        /* \"#utility.yul\":1046:1163   */\n      pop\n        /* \"#utility.yul\":841:1170   */\n      swap3\n      swap2\n      pop\n      pop\n      jump\t// out\n        /* \"#utility.yul\":1176:1253   */\n    tag_147:\n        /* \"#utility.yul\":1213:1220   */\n      0x00\n        /* \"#utility.yul\":1242:1247   */\n      dup2\n        /* \"#utility.yul\":1231:1247   */\n      swap1\n      pop\n        /* \"#utility.yul\":1176:1253   */\n      swap2\n      swap1\n      pop\n      jump\t// out\n        /* \"#utility.yul\":1259:1377   */\n    tag_148:\n        /* \"#utility.yul\":1346:1370   */\n      tag_206\n        /* \"#utility.yul\":1364:1369   */\n      dup2\n        /* \"#utility.yul\":1346:1370   */\n      tag_147\n      jump\t// in\n    tag_206:\n        /* \"#utility.yul\":1341:1344   */\n      dup3\n        /* \"#utility.yul\":1334:1371   */\n      mstore\n        /* \"#utility.yul\":1259:1377   */\n      pop\n      pop\n      jump\t// out\n        /* \"#utility.yul\":1383:1605   */\n    tag_18:\n        /* \"#utility.yul\":1476:1480   */\n      0x00\n        /* \"#utility.yul\":1514:1516   */\n      0x20\n        /* \"#utility.yul\":1503:1512   */\n      dup3\n        /* \"#utility.yul\":1499:1517   */\n      add\n        /* \"#utility.yul\":1491:1517   */\n      swap1\n      pop\n        /* \"#utility.yul\":1527:1598   */\n      tag_208\n        /* \"#utility.yul\":1595:1596   */\n      0x00\n        /* \"#utility.yul\":1584:1593   */\n      dup4\n        /* \"#utility.yul\":1580:1597   */\n      add\n        /* \"#utility.yul\":1571:1577   */\n      dup5\n        /* \"#utility.yul\":1527:1598   */\n      tag_148\n      jump\t// in\n    tag_208:\n        /* \"#utility.yul\":1383:1605   */\n      swap3\n      swap2\n      pop\n      pop\n      jump\t// out\n        /* \"#utility.yul\":1611:1728   */\n    tag_149:\n        /* \"#utility.yul\":1720:1721   */\n      0x00\n        /* \"#utility.yul\":1717:1718   */\n      dup1\n        /* \"#utility.yul\":1710:1722   */\n      revert\n        /* \"#utility.yul\":1734:1851   */\n    tag_150:\n        /* \"#utility.yul\":1843:1844   */\n      0x00\n        /* \"#utility.yul\":1840:1841   */\n      dup1\n        /* \"#utility.yul\":1833:1845   */\n      revert\n        /* \"#utility.yul\":1857:1974   */\n    tag_151:\n        /* \"#utility.yul\":1966:1967   */\n      0x00\n        /* \"#utility.yul\":1963:1964   */\n      dup1\n        /* \"#utility.yul\":1956:1968   */\n      revert\n        /* \"#utility.yul\":1997:2565   */\n    tag_152:\n        /* \"#utility.yul\":2070:2078   */\n      0x00\n        /* \"#utility.yul\":2080:2086   */\n      dup1\n        /* \"#utility.yul\":2130:2133   */\n      dup4\n        /* \"#utility.yul\":2123:2127   */\n      0x1f\n        /* \"#utility.yul\":2115:2121   */\n      dup5\n        /* \"#utility.yul\":2111:2128   */\n      add\n        /* \"#utility.yul\":2107:2134   */\n      slt\n        /* \"#utility.yul\":2097:2219   */\n      tag_213\n      jumpi\n        /* \"#utility.yul\":2138:2217   */\n      tag_214\n      tag_149\n      jump\t// in\n    tag_214:\n        /* \"#utility.yul\":2097:2219   */\n    tag_213:\n        /* \"#utility.yul\":2251:2257   */\n      dup3\n        /* \"#utility.yul\":2238:2258   */\n      calldataload\n        /* \"#utility.yul\":2228:2258   */\n      swap1\n      pop\n        /* \"#utility.yul\":2281:2299   */\n      0xffffffffffffffff\n        /* \"#utility.yul\":2273:2279   */\n      dup2\n        /* \"#utility.yul\":2270:2300   */\n      gt\n        /* \"#utility.yul\":2267:2384   */\n      iszero\n      tag_215\n      jumpi\n        /* \"#utility.yul\":2303:2382   */\n      tag_216\n      tag_150\n      jump\t// in\n    tag_216:\n        /* \"#utility.yul\":2267:2384   */\n    tag_215:\n        /* \"#utility.yul\":2417:2421   */\n      0x20\n        /* \"#utility.yul\":2409:2415   */\n      dup4\n        /* \"#utility.yul\":2405:2422   */\n      add\n        /* \"#utility.yul\":2393:2422   */\n      swap2\n      pop\n        /* \"#utility.yul\":2471:2474   */\n      dup4\n        /* \"#utility.yul\":2463:2467   */\n      0x20\n        /* \"#utility.yul\":2455:2461   */\n      dup3\n        /* \"#utility.yul\":2451:2468   */\n      mul\n        /* \"#utility.yul\":2441:2449   */\n      dup4\n        /* \"#utility.yul\":2437:2469   */\n      add\n        /* \"#utility.yul\":2434:2475   */\n      gt\n        /* \"#utility.yul\":2431:2559   */\n      iszero\n      tag_217\n      jumpi\n        /* \"#utility.yul\":2478:2557   */\n      tag_218\n      tag_151\n      jump\t// in\n    tag_218:\n        /* \"#utility.yul\":2431:2559   */\n    tag_217:\n        /* \"#utility.yul\":1997:2565   */\n      swap3\n      pop\n      swap3\n      swap1\n      pop\n      jump\t// out\n        /* \"#utility.yul\":2588:3156   */\n    tag_153:\n        /* \"#utility.yul\":2661:2669   */\n      0x00\n        /* \"#utility.yul\":2671:2677   */\n      dup1\n        /* \"#utility.yul\":2721:2724   */\n      dup4\n        /* \"#utility.yul\":2714:2718   */\n      0x1f\n        /* \"#utility.yul\":2706:2712   */\n      dup5\n        /* \"#utility.yul\":2702:2719   */\n      add\n        /* \"#utility.yul\":2698:2725   */\n      slt\n        /* \"#utility.yul\":2688:2810   */\n      tag_220\n      jumpi\n        /* \"#utility.yul\":2729:2808   */\n      tag_221\n      tag_149\n      jump\t// in\n    tag_221:\n        /* \"#utility.yul\":2688:2810   */\n    tag_220:\n        /* \"#utility.yul\":2842:2848   */\n      dup3\n        /* \"#utility.yul\":2829:2849   */\n      calldataload\n        /* \"#utility.yul\":2819:2849   */\n      swap1\n      pop\n        /* \"#utility.yul\":2872:2890   */\n      0xffffffffffffffff\n        /* \"#utility.yul\":2864:2870   */\n      dup2\n        /* \"#utility.yul\":2861:2891   */\n      gt\n        /* \"#utility.yul\":2858:2975   */\n      iszero\n      tag_222\n      jumpi\n        /* \"#utility.yul\":2894:2973   */\n      tag_223\n      tag_150\n      jump\t// in\n    tag_223:\n        /* \"#utility.yul\":2858:2975   */\n    tag_222:\n        /* \"#utility.yul\":3008:3012   */\n      0x20\n        /* \"#utility.yul\":3000:3006   */\n      dup4\n        /* \"#utility.yul\":2996:3013   */\n      add\n        /* \"#utility.yul\":2984:3013   */\n      swap2\n      pop\n        /* \"#utility.yul\":3062:3065   */\n      dup4\n        /* \"#utility.yul\":3054:3058   */\n      0x20\n        /* \"#utility.yul\":3046:3052   */\n      dup3\n        /* \"#utility.yul\":3042:3059   */\n      mul\n        /* \"#utility.yul\":3032:3040   */\n      dup4\n        /* \"#utility.yul\":3028:3060   */\n      add\n        /* \"#utility.yul\":3025:3066   */\n      gt\n        /* \"#utility.yul\":3022:3150   */\n      iszero\n      tag_224\n      jumpi\n        /* \"#utility.yul\":3069:3148   */\n      tag_225\n      tag_151\n      jump\t// in\n    tag_225:\n        /* \"#utility.yul\":3022:3150   */\n    tag_224:\n        /* \"#utility.yul\":2588:3156   */\n      swap3\n      pop\n      swap3\n      swap1\n      pop\n      jump\t// out\n        /* \"#utility.yul\":3162:4096   */\n    tag_24:\n        /* \"#utility.yul\":3284:3290   */\n      0x00\n        /* \"#utility.yul\":3292:3298   */\n      dup1\n        /* \"#utility.yul\":3300:3306   */\n      0x00\n        /* \"#utility.yul\":3308:3314   */\n      dup1\n        /* \"#utility.yul\":3357:3359   */\n      0x40\n        /* \"#utility.yul\":3345:3354   */\n      dup6\n        /* \"#utility.yul\":3336:3343   */\n      dup8\n        /* \"#utility.yul\":3332:3355   */\n      sub\n        /* \"#utility.yul\":3328:3360   */\n      slt\n        /* \"#utility.yul\":3325:3444   */\n      iszero\n      tag_227\n      jumpi\n        /* \"#utility.yul\":3363:3442   */\n      tag_228\n      tag_141\n      jump\t// in\n    tag_228:\n        /* \"#utility.yul\":3325:3444   */\n    tag_227:\n        /* \"#utility.yul\":3511:3512   */\n      0x00\n        /* \"#utility.yul\":3500:3509   */\n      dup6\n        /* \"#utility.yul\":3496:3513   */\n      add\n        /* \"#utility.yul\":3483:3514   */\n      calldataload\n        /* \"#utility.yul\":3541:3559   */\n      0xffffffffffffffff\n        /* \"#utility.yul\":3533:3539   */\n      dup2\n        /* \"#utility.yul\":3530:3560   */\n      gt\n        /* \"#utility.yul\":3527:3644   */\n      iszero\n      tag_229\n      jumpi\n        /* \"#utility.yul\":3563:3642   */\n      tag_230\n      tag_142\n      jump\t// in\n    tag_230:\n        /* \"#utility.yul\":3527:3644   */\n    tag_229:\n        /* \"#utility.yul\":3676:3756   */\n      tag_231\n        /* \"#utility.yul\":3748:3755   */\n      dup8\n        /* \"#utility.yul\":3739:3745   */\n      dup3\n        /* \"#utility.yul\":3728:3737   */\n      dup9\n        /* \"#utility.yul\":3724:3746   */\n      add\n        /* \"#utility.yul\":3676:3756   */\n      tag_152\n      jump\t// in\n    tag_231:\n        /* \"#utility.yul\":3658:3756   */\n      swap5\n      pop\n      swap5\n      pop\n        /* \"#utility.yul\":3454:3766   */\n      pop\n        /* \"#utility.yul\":3833:3835   */\n      0x20\n        /* \"#utility.yul\":3822:3831   */\n      dup6\n        /* \"#utility.yul\":3818:3836   */\n      add\n        /* \"#utility.yul\":3805:3837   */\n      calldataload\n        /* \"#utility.yul\":3864:3882   */\n      0xffffffffffffffff\n        /* \"#utility.yul\":3856:3862   */\n      dup2\n        /* \"#utility.yul\":3853:3883   */\n      gt\n        /* \"#utility.yul\":3850:3967   */\n      iszero\n      tag_232\n      jumpi\n        /* \"#utility.yul\":3886:3965   */\n      tag_233\n      tag_142\n      jump\t// in\n    tag_233:\n        /* \"#utility.yul\":3850:3967   */\n    tag_232:\n        /* \"#utility.yul\":3999:4079   */\n      tag_234\n        /* \"#utility.yul\":4071:4078   */\n      dup8\n        /* \"#utility.yul\":4062:4068   */\n      dup3\n        /* \"#utility.yul\":4051:4060   */\n      dup9\n        /* \"#utility.yul\":4047:4069   */\n      add\n        /* \"#utility.yul\":3999:4079   */\n      tag_153\n      jump\t// in\n    tag_234:\n        /* \"#utility.yul\":3981:4079   */\n      swap3\n      pop\n      swap3\n      pop\n        /* \"#utility.yul\":3776:4089   */\n      pop\n        /* \"#utility.yul\":3162:4096   */\n      swap3\n      swap6\n      swap2\n      swap5\n      pop\n      swap3\n      pop\n      jump\t// out\n        /* \"#utility.yul\":4102:4162   */\n    tag_154:\n        /* \"#utility.yul\":4130:4133   */\n      0x00\n        /* \"#utility.yul\":4151:4156   */\n      dup2\n        /* \"#utility.yul\":4144:4156   */\n      swap1\n      pop\n        /* \"#utility.yul\":4102:4162   */\n      swap2\n      swap1\n      pop\n      jump\t// out\n        /* \"#utility.yul\":4168:4310   */\n    tag_155:\n        /* \"#utility.yul\":4218:4227   */\n      0x00\n        /* \"#utility.yul\":4251:4304   */\n      tag_237\n        /* \"#utility.yul\":4269:4303   */\n      tag_238\n        /* \"#utility.yul\":4278:4302   */\n      tag_239\n        /* \"#utility.yul\":4296:4301   */\n      dup5\n        /* \"#utility.yul\":4278:4302   */\n      tag_143\n      jump\t// in\n    tag_239:\n        /* \"#utility.yul\":4269:4303   */\n      tag_154\n      jump\t// in\n    tag_238:\n        /* \"#utility.yul\":4251:4304   */\n      tag_143\n      jump\t// in\n    tag_237:\n        /* \"#utility.yul\":4238:4304   */\n      swap1\n      pop\n        /* \"#utility.yul\":4168:4310   */\n      swap2\n      swap1\n      pop\n      jump\t// out\n        /* \"#utility.yul\":4316:4442   */\n    tag_156:\n        /* \"#utility.yul\":4366:4375   */\n      0x00\n        /* \"#utility.yul\":4399:4436   */\n      tag_241\n        /* \"#utility.yul\":4430:4435   */\n      dup3\n        /* \"#utility.yul\":4399:4436   */\n      tag_155\n      jump\t// in\n    tag_241:\n        /* \"#utility.yul\":4386:4436   */\n      swap1\n      pop\n        /* \"#utility.yul\":4316:4442   */\n      swap2\n      swap1\n      pop\n      jump\t// out\n        /* \"#utility.yul\":4448:4587   */\n    tag_157:\n        /* \"#utility.yul\":4511:4520   */\n      0x00\n        /* \"#utility.yul\":4544:4581   */\n      tag_243\n        /* \"#utility.yul\":4575:4580   */\n      dup3\n        /* \"#utility.yul\":4544:4581   */\n      tag_156\n      jump\t// in\n    tag_243:\n        /* \"#utility.yul\":4531:4581   */\n      swap1\n      pop\n        /* \"#utility.yul\":4448:4587   */\n      swap2\n      swap1\n      pop\n      jump\t// out\n        /* \"#utility.yul\":4593:4750   */\n    tag_158:\n        /* \"#utility.yul\":4693:4743   */\n      tag_245\n        /* \"#utility.yul\":4737:4742   */\n      dup2\n        /* \"#utility.yul\":4693:4743   */\n      tag_157\n      jump\t// in\n    tag_245:\n        /* \"#utility.yul\":4688:4691   */\n      dup3\n        /* \"#utility.yul\":4681:4744   */\n      mstore\n        /* \"#utility.yul\":4593:4750   */\n      pop\n      pop\n      jump\t// out\n        /* \"#utility.yul\":4756:5004   */\n    tag_35:\n        /* \"#utility.yul\":4862:4866   */\n      0x00\n        /* \"#utility.yul\":4900:4902   */\n      0x20\n        /* \"#utility.yul\":4889:4898   */\n      dup3\n        /* \"#utility.yul\":4885:4903   */\n      add\n        /* \"#utility.yul\":4877:4903   */\n      swap1\n      pop\n        /* \"#utility.yul\":4913:4997   */\n      tag_247\n        /* \"#utility.yul\":4994:4995   */\n      0x00\n        /* \"#utility.yul\":4983:4992   */\n      dup4\n        /* \"#utility.yul\":4979:4996   */\n      add\n        /* \"#utility.yul\":4970:4976   */\n      dup5\n        /* \"#utility.yul\":4913:4997   */\n      tag_158\n      jump\t// in\n    tag_247:\n        /* \"#utility.yul\":4756:5004   */\n      swap3\n      swap2\n      pop\n      pop\n      jump\t// out\n        /* \"#utility.yul\":5010:5179   */\n    tag_159:\n        /* \"#utility.yul\":5094:5105   */\n      0x00\n        /* \"#utility.yul\":5128:5134   */\n      dup3\n        /* \"#utility.yul\":5123:5126   */\n      dup3\n        /* \"#utility.yul\":5116:5135   */\n      mstore\n        /* \"#utility.yul\":5168:5172   */\n      0x20\n        /* \"#utility.yul\":5163:5166   */\n      dup3\n        /* \"#utility.yul\":5159:5173   */\n      add\n        /* \"#utility.yul\":5144:5173   */\n      swap1\n      pop\n        /* \"#utility.yul\":5010:5179   */\n      swap3\n      swap2\n      pop\n      pop\n      jump\t// out\n        /* \"#utility.yul\":5185:5366   */\n    tag_160:\n        /* \"#utility.yul\":5325:5358   */\n      0x52656c656173653a206e6565642073657420546f6b656e204164647265737300\n        /* \"#utility.yul\":5321:5322   */\n      0x00\n        /* \"#utility.yul\":5313:5319   */\n      dup3\n        /* \"#utility.yul\":5309:5323   */\n      add\n        /* \"#utility.yul\":5302:5359   */\n      mstore\n        /* \"#utility.yul\":5185:5366   */\n      pop\n      jump\t// out\n        /* \"#utility.yul\":5372:5738   */\n    tag_161:\n        /* \"#utility.yul\":5514:5517   */\n      0x00\n        /* \"#utility.yul\":5535:5602   */\n      tag_251\n        /* \"#utility.yul\":5599:5601   */\n      0x1f\n        /* \"#utility.yul\":5594:5597   */\n      dup4\n        /* \"#utility.yul\":5535:5602   */\n      tag_159\n      jump\t// in\n    tag_251:\n        /* \"#utility.yul\":5528:5602   */\n      swap2\n      pop\n        /* \"#utility.yul\":5611:5704   */\n      tag_252\n        /* \"#utility.yul\":5700:5703   */\n      dup3\n        /* \"#utility.yul\":5611:5704   */\n      tag_160\n      jump\t// in\n    tag_252:\n        /* \"#utility.yul\":5729:5731   */\n      0x20\n        /* \"#utility.yul\":5724:5727   */\n      dup3\n        /* \"#utility.yul\":5720:5732   */\n      add\n        /* \"#utility.yul\":5713:5732   */\n      swap1\n      pop\n        /* \"#utility.yul\":5372:5738   */\n      swap2\n      swap1\n      pop\n      jump\t// out\n        /* \"#utility.yul\":5744:6163   */\n    tag_46:\n        /* \"#utility.yul\":5910:5914   */\n      0x00\n        /* \"#utility.yul\":5948:5950   */\n      0x20\n        /* \"#utility.yul\":5937:5946   */\n      dup3\n        /* \"#utility.yul\":5933:5951   */\n      add\n        /* \"#utility.yul\":5925:5951   */\n      swap1\n      pop\n        /* \"#utility.yul\":5997:6006   */\n      dup2\n        /* \"#utility.yul\":5991:5995   */\n      dup2\n        /* \"#utility.yul\":5987:6007   */\n      sub\n        /* \"#utility.yul\":5983:5984   */\n      0x00\n        /* \"#utility.yul\":5972:5981   */\n      dup4\n        /* \"#utility.yul\":5968:5985   */\n      add\n        /* \"#utility.yul\":5961:6008   */\n      mstore\n        /* \"#utility.yul\":6025:6156   */\n      tag_254\n        /* \"#utility.yul\":6151:6155   */\n      dup2\n        /* \"#utility.yul\":6025:6156   */\n      tag_161\n      jump\t// in\n    tag_254:\n        /* \"#utility.yul\":6017:6156   */\n      swap1\n      pop\n        /* \"#utility.yul\":5744:6163   */\n      swap2\n      swap1\n      pop\n      jump\t// out\n        /* \"#utility.yul\":6169:6470   */\n    tag_162:\n        /* \"#utility.yul\":6309:6343   */\n      0x506c6561736520636865636b2074686520646174612c20746865206e65777320\n        /* \"#utility.yul\":6305:6306   */\n      0x00\n        /* \"#utility.yul\":6297:6303   */\n      dup3\n        /* \"#utility.yul\":6293:6307   */\n      add\n        /* \"#utility.yul\":6286:6344   */\n      mstore\n        /* \"#utility.yul\":6378:6412   */\n      0x494420616e6420646973747269627574696f6e207175616e7469747920617265\n        /* \"#utility.yul\":6373:6375   */\n      0x20\n        /* \"#utility.yul\":6365:6371   */\n      dup3\n        /* \"#utility.yul\":6361:6376   */\n      add\n        /* \"#utility.yul\":6354:6413   */\n      mstore\n        /* \"#utility.yul\":6447:6462   */\n      0x20696e636f6e73697374656e7400000000000000000000000000000000000000\n        /* \"#utility.yul\":6442:6444   */\n      0x40\n        /* \"#utility.yul\":6434:6440   */\n      dup3\n        /* \"#utility.yul\":6430:6445   */\n      add\n        /* \"#utility.yul\":6423:6463   */\n      mstore\n        /* \"#utility.yul\":6169:6470   */\n      pop\n      jump\t// out\n        /* \"#utility.yul\":6476:6842   */\n    tag_163:\n        /* \"#utility.yul\":6618:6621   */\n      0x00\n        /* \"#utility.yul\":6639:6706   */\n      tag_257\n        /* \"#utility.yul\":6703:6705   */\n      0x4d\n        /* \"#utility.yul\":6698:6701   */\n      dup4\n        /* \"#utility.yul\":6639:6706   */\n      tag_159\n      jump\t// in\n    tag_257:\n        /* \"#utility.yul\":6632:6706   */\n      swap2\n      pop\n        /* \"#utility.yul\":6715:6808   */\n      tag_258\n        /* \"#utility.yul\":6804:6807   */\n      dup3\n        /* \"#utility.yul\":6715:6808   */\n      tag_162\n      jump\t// in\n    tag_258:\n        /* \"#utility.yul\":6833:6835   */\n      0x60\n        /* \"#utility.yul\":6828:6831   */\n      dup3\n        /* \"#utility.yul\":6824:6836   */\n      add\n        /* \"#utility.yul\":6817:6836   */\n      swap1\n      pop\n        /* \"#utility.yul\":6476:6842   */\n      swap2\n      swap1\n      pop\n      jump\t// out\n        /* \"#utility.yul\":6848:7267   */\n    tag_49:\n        /* \"#utility.yul\":7014:7018   */\n      0x00\n        /* \"#utility.yul\":7052:7054   */\n      0x20\n        /* \"#utility.yul\":7041:7050   */\n      dup3\n        /* \"#utility.yul\":7037:7055   */\n      add\n        /* \"#utility.yul\":7029:7055   */\n      swap1\n      pop\n        /* \"#utility.yul\":7101:7110   */\n      dup2\n        /* \"#utility.yul\":7095:7099   */\n      dup2\n        /* \"#utility.yul\":7091:7111   */\n      sub\n        /* \"#utility.yul\":7087:7088   */\n      0x00\n        /* \"#utility.yul\":7076:7085   */\n      dup4\n        /* \"#utility.yul\":7072:7089   */\n      add\n        /* \"#utility.yul\":7065:7112   */\n      mstore\n        /* \"#utility.yul\":7129:7260   */\n      tag_260\n        /* \"#utility.yul\":7255:7259   */\n      dup2\n        /* \"#utility.yul\":7129:7260   */\n      tag_163\n      jump\t// in\n    tag_260:\n        /* \"#utility.yul\":7121:7260   */\n      swap1\n      pop\n        /* \"#utility.yul\":6848:7267   */\n      swap2\n      swap1\n      pop\n      jump\t// out\n        /* \"#utility.yul\":7273:7453   */\n    tag_56:\n        /* \"#utility.yul\":7321:7398   */\n      0x4e487b7100000000000000000000000000000000000000000000000000000000\n        /* \"#utility.yul\":7318:7319   */\n      0x00\n        /* \"#utility.yul\":7311:7399   */\n      mstore\n        /* \"#utility.yul\":7418:7422   */\n      0x32\n        /* \"#utility.yul\":7415:7416   */\n      0x04\n        /* \"#utility.yul\":7408:7423   */\n      mstore\n        /* \"#utility.yul\":7442:7446   */\n      0x24\n        /* \"#utility.yul\":7439:7440   */\n      0x00\n        /* \"#utility.yul\":7432:7447   */\n      revert\n        /* \"#utility.yul\":7459:7639   */\n    tag_164:\n        /* \"#utility.yul\":7507:7584   */\n      0x4e487b7100000000000000000000000000000000000000000000000000000000\n        /* \"#utility.yul\":7504:7505   */\n      0x00\n        /* \"#utility.yul\":7497:7585   */\n      mstore\n        /* \"#utility.yul\":7604:7608   */\n      0x11\n        /* \"#utility.yul\":7601:7602   */\n      0x04\n        /* \"#utility.yul\":7594:7609   */\n      mstore\n        /* \"#utility.yul\":7628:7632   */\n      0x24\n        /* \"#utility.yul\":7625:7626   */\n      0x00\n        /* \"#utility.yul\":7618:7633   */\n      revert\n        /* \"#utility.yul\":7645:7878   */\n    tag_59:\n        /* \"#utility.yul\":7684:7687   */\n      0x00\n        /* \"#utility.yul\":7707:7731   */\n      tag_264\n        /* \"#utility.yul\":7725:7730   */\n      dup3\n        /* \"#utility.yul\":7707:7731   */\n      tag_147\n      jump\t// in\n    tag_264:\n        /* \"#utility.yul\":7698:7731   */\n      swap2\n      pop\n        /* \"#utility.yul\":7753:7819   */\n      0xffffffffffffffffffffffffffffffffffffffffffffffffffffffffffffffff\n        /* \"#utility.yul\":7746:7751   */\n      dup3\n        /* \"#utility.yul\":7743:7820   */\n      sub\n        /* \"#utility.yul\":7740:7843   */\n      tag_265\n      jumpi\n        /* \"#utility.yul\":7823:7841   */\n      tag_266\n      tag_164\n      jump\t// in\n    tag_266:\n        /* \"#utility.yul\":7740:7843   */\n    tag_265:\n        /* \"#utility.yul\":7870:7871   */\n      0x01\n        /* \"#utility.yul\":7863:7868   */\n      dup3\n        /* \"#utility.yul\":7859:7872   */\n      add\n        /* \"#utility.yul\":7852:7872   */\n      swap1\n      pop\n        /* \"#utility.yul\":7645:7878   */\n      swap2\n      swap1\n      pop\n      jump\t// out\n        /* \"#utility.yul\":7884:8127   */\n    tag_165:\n        /* \"#utility.yul\":8024:8058   */\n      0x546865206e756d626572206f66206169722064726f7073206578636565647320\n        /* \"#utility.yul\":8020:8021   */\n      0x00\n        /* \"#utility.yul\":8012:8018   */\n      dup3\n        /* \"#utility.yul\":8008:8022   */\n      add\n        /* \"#utility.yul\":8001:8059   */\n      mstore\n        /* \"#utility.yul\":8093:8119   */\n      0x746865206461696c792072656c6561736520616d6f756e740000000000000000\n        /* \"#utility.yul\":8088:8090   */\n      0x20\n        /* \"#utility.yul\":8080:8086   */\n      dup3\n        /* \"#utility.yul\":8076:8091   */\n      add\n        /* \"#utility.yul\":8069:8120   */\n      mstore\n        /* \"#utility.yul\":7884:8127   */\n      pop\n      jump\t// out\n        /* \"#utility.yul\":8133:8499   */\n    tag_166:\n        /* \"#utility.yul\":8275:8278   */\n      0x00\n        /* \"#utility.yul\":8296:8363   */\n      tag_269\n        /* \"#utility.yul\":8360:8362   */\n      0x38\n        /* \"#utility.yul\":8355:8358   */\n      dup4\n        /* \"#utility.yul\":8296:8363   */\n      tag_159\n      jump\t// in\n    tag_269:\n        /* \"#utility.yul\":8289:8363   */\n      swap2\n      pop\n        /* \"#utility.yul\":8372:8465   */\n      tag_270\n        /* \"#utility.yul\":8461:8464   */\n      dup3\n        /* \"#utility.yul\":8372:8465   */\n      tag_165\n      jump\t// in\n    tag_270:\n        /* \"#utility.yul\":8490:8492   */\n      0x40\n        /* \"#utility.yul\":8485:8488   */\n      dup3\n        /* \"#utility.yul\":8481:8493   */\n      add\n        /* \"#utility.yul\":8474:8493   */\n      swap1\n      pop\n        /* \"#utility.yul\":8133:8499   */\n      swap2\n      swap1\n      pop\n      jump\t// out\n        /* \"#utility.yul\":8505:8924   */\n    tag_63:\n        /* \"#utility.yul\":8671:8675   */\n      0x00\n        /* \"#utility.yul\":8709:8711   */\n      0x20\n        /* \"#utility.yul\":8698:8707   */\n      dup3\n        /* \"#utility.yul\":8694:8712   */\n      add\n        /* \"#utility.yul\":8686:8712   */\n      swap1\n      pop\n        /* \"#utility.yul\":8758:8767   */\n      dup2\n        /* \"#utility.yul\":8752:8756   */\n      dup2\n        /* \"#utility.yul\":8748:8768   */\n      sub\n        /* \"#utility.yul\":8744:8745   */\n      0x00\n        /* \"#utility.yul\":8733:8742   */\n      dup4\n        /* \"#utility.yul\":8729:8746   */\n      add\n        /* \"#utility.yul\":8722:8769   */\n      mstore\n        /* \"#utility.yul\":8786:8917   */\n      tag_272\n        /* \"#utility.yul\":8912:8916   */\n      dup2\n        /* \"#utility.yul\":8786:8917   */\n      tag_166\n      jump\t// in\n    tag_272:\n        /* \"#utility.yul\":8778:8917   */\n      swap1\n      pop\n        /* \"#utility.yul\":8505:8924   */\n      swap2\n      swap1\n      pop\n      jump\t// out\n        /* \"#utility.yul\":8930:9121   */\n    tag_78:\n        /* \"#utility.yul\":8970:8973   */\n      0x00\n        /* \"#utility.yul\":8989:9009   */\n      tag_274\n        /* \"#utility.yul\":9007:9008   */\n      dup3\n        /* \"#utility.yul\":8989:9009   */\n      tag_147\n      jump\t// in\n    tag_274:\n        /* \"#utility.yul\":8984:9009   */\n      swap2\n      pop\n        /* \"#utility.yul\":9023:9043   */\n      tag_275\n        /* \"#utility.yul\":9041:9042   */\n      dup4\n        /* \"#utility.yul\":9023:9043   */\n      tag_147\n      jump\t// in\n    tag_275:\n        /* \"#utility.yul\":9018:9043   */\n      swap3\n      pop\n        /* \"#utility.yul\":9066:9067   */\n      dup3\n        /* \"#utility.yul\":9063:9064   */\n      dup3\n        /* \"#utility.yul\":9059:9068   */\n      add\n        /* \"#utility.yul\":9052:9068   */\n      swap1\n      pop\n        /* \"#utility.yul\":9087:9090   */\n      dup1\n        /* \"#utility.yul\":9084:9085   */\n      dup3\n        /* \"#utility.yul\":9081:9091   */\n      gt\n        /* \"#utility.yul\":9078:9114   */\n      iszero\n      tag_276\n      jumpi\n        /* \"#utility.yul\":9094:9112   */\n      tag_277\n      tag_164\n      jump\t// in\n    tag_277:\n        /* \"#utility.yul\":9078:9114   */\n    tag_276:\n        /* \"#utility.yul\":8930:9121   */\n      swap3\n      swap2\n      pop\n      pop\n      jump\t// out\n        /* \"#utility.yul\":9127:9245   */\n    tag_167:\n        /* \"#utility.yul\":9214:9238   */\n      tag_279\n        /* \"#utility.yul\":9232:9237   */\n      dup2\n        /* \"#utility.yul\":9214:9238   */\n      tag_144\n      jump\t// in\n    tag_279:\n        /* \"#utility.yul\":9209:9212   */\n      dup3\n        /* \"#utility.yul\":9202:9239   */\n      mstore\n        /* \"#utility.yul\":9127:9245   */\n      pop\n      pop\n      jump\t// out\n        /* \"#utility.yul\":9251:9473   */\n    tag_85:\n        /* \"#utility.yul\":9344:9348   */\n      0x00\n        /* \"#utility.yul\":9382:9384   */\n      0x20\n        /* \"#utility.yul\":9371:9380   */\n      dup3\n        /* \"#utility.yul\":9367:9385   */\n      add\n        /* \"#utility.yul\":9359:9385   */\n      swap1\n      pop\n        /* \"#utility.yul\":9395:9466   */\n      tag_281\n        /* \"#utility.yul\":9463:9464   */\n      0x00\n        /* \"#utility.yul\":9452:9461   */\n      dup4\n        /* \"#utility.yul\":9448:9465   */\n      add\n        /* \"#utility.yul\":9439:9445   */\n      dup5\n        /* \"#utility.yul\":9395:9466   */\n      tag_167\n      jump\t// in\n    tag_281:\n        /* \"#utility.yul\":9251:9473   */\n      swap3\n      swap2\n      pop\n      pop\n      jump\t// out\n        /* \"#utility.yul\":9479:9601   */\n    tag_168:\n        /* \"#utility.yul\":9552:9576   */\n      tag_283\n        /* \"#utility.yul\":9570:9575   */\n      dup2\n        /* \"#utility.yul\":9552:9576   */\n      tag_147\n      jump\t// in\n    tag_283:\n        /* \"#utility.yul\":9545:9550   */\n      dup2\n        /* \"#utility.yul\":9542:9577   */\n      eq\n        /* \"#utility.yul\":9532:9595   */\n      tag_284\n      jumpi\n        /* \"#utility.yul\":9591:9592   */\n      0x00\n        /* \"#utility.yul\":9588:9589   */\n      dup1\n        /* \"#utility.yul\":9581:9593   */\n      revert\n        /* \"#utility.yul\":9532:9595   */\n    tag_284:\n        /* \"#utility.yul\":9479:9601   */\n      pop\n      jump\t// out\n        /* \"#utility.yul\":9607:9750   */\n    tag_169:\n        /* \"#utility.yul\":9664:9669   */\n      0x00\n        /* \"#utility.yul\":9695:9701   */\n      dup2\n        /* \"#utility.yul\":9689:9702   */\n      mload\n        /* \"#utility.yul\":9680:9702   */\n      swap1\n      pop\n        /* \"#utility.yul\":9711:9744   */\n      tag_286\n        /* \"#utility.yul\":9738:9743   */\n      dup2\n        /* \"#utility.yul\":9711:9744   */\n      tag_168\n      jump\t// in\n    tag_286:\n        /* \"#utility.yul\":9607:9750   */\n      swap3\n      swap2\n      pop\n      pop\n      jump\t// out\n        /* \"#utility.yul\":9756:10107   */\n    tag_89:\n        /* \"#utility.yul\":9826:9832   */\n      0x00\n        /* \"#utility.yul\":9875:9877   */\n      0x20\n        /* \"#utility.yul\":9863:9872   */\n      dup3\n        /* \"#utility.yul\":9854:9861   */\n      dup5\n        /* \"#utility.yul\":9850:9873   */\n      sub\n        /* \"#utility.yul\":9846:9878   */\n      slt\n        /* \"#utility.yul\":9843:9962   */\n      iszero\n      tag_288\n      jumpi\n        /* \"#utility.yul\":9881:9960   */\n      tag_289\n      tag_141\n      jump\t// in\n    tag_289:\n        /* \"#utility.yul\":9843:9962   */\n    tag_288:\n        /* \"#utility.yul\":10001:10002   */\n      0x00\n        /* \"#utility.yul\":10026:10090   */\n      tag_290\n        /* \"#utility.yul\":10082:10089   */\n      dup5\n        /* \"#utility.yul\":10073:10079   */\n      dup3\n        /* \"#utility.yul\":10062:10071   */\n      dup6\n        /* \"#utility.yul\":10058:10080   */\n      add\n        /* \"#utility.yul\":10026:10090   */\n      tag_169\n      jump\t// in\n    tag_290:\n        /* \"#utility.yul\":10016:10090   */\n      swap2\n      pop\n        /* \"#utility.yul\":9972:10100   */\n      pop\n        /* \"#utility.yul\":9756:10107   */\n      swap3\n      swap2\n      pop\n      pop\n      jump\t// out\n        /* \"#utility.yul\":10113:10290   */\n    tag_170:\n        /* \"#utility.yul\":10253:10282   */\n      0x536166654d6174683a206164646974696f6e206f766572666c6f770000000000\n        /* \"#utility.yul\":10249:10250   */\n      0x00\n        /* \"#utility.yul\":10241:10247   */\n      dup3\n        /* \"#utility.yul\":10237:10251   */\n      add\n        /* \"#utility.yul\":10230:10283   */\n      mstore\n        /* \"#utility.yul\":10113:10290   */\n      pop\n      jump\t// out\n        /* \"#utility.yul\":10296:10662   */\n    tag_171:\n        /* \"#utility.yul\":10438:10441   */\n      0x00\n        /* \"#utility.yul\":10459:10526   */\n      tag_293\n        /* \"#utility.yul\":10523:10525   */\n      0x1b\n        /* \"#utility.yul\":10518:10521   */\n      dup4\n        /* \"#utility.yul\":10459:10526   */\n      tag_159\n      jump\t// in\n    tag_293:\n        /* \"#utility.yul\":10452:10526   */\n      swap2\n      pop\n        /* \"#utility.yul\":10535:10628   */\n      tag_294\n        /* \"#utility.yul\":10624:10627   */\n      dup3\n        /* \"#utility.yul\":10535:10628   */\n      tag_170\n      jump\t// in\n    tag_294:\n        /* \"#utility.yul\":10653:10655   */\n      0x20\n        /* \"#utility.yul\":10648:10651   */\n      dup3\n        /* \"#utility.yul\":10644:10656   */\n      add\n        /* \"#utility.yul\":10637:10656   */\n      swap1\n      pop\n        /* \"#utility.yul\":10296:10662   */\n      swap2\n      swap1\n      pop\n      jump\t// out\n        /* \"#utility.yul\":10668:11087   */\n    tag_98:\n        /* \"#utility.yul\":10834:10838   */\n      0x00\n        /* \"#utility.yul\":10872:10874   */\n      0x20\n        /* \"#utility.yul\":10861:10870   */\n      dup3\n        /* \"#utility.yul\":10857:10875   */\n      add\n        /* \"#utility.yul\":10849:10875   */\n      swap1\n      pop\n        /* \"#utility.yul\":10921:10930   */\n      dup2\n        /* \"#utility.yul\":10915:10919   */\n      dup2\n        /* \"#utility.yul\":10911:10931   */\n      sub\n        /* \"#utility.yul\":10907:10908   */\n      0x00\n        /* \"#utility.yul\":10896:10905   */\n      dup4\n        /* \"#utility.yul\":10892:10909   */\n      add\n        /* \"#utility.yul\":10885:10932   */\n      mstore\n        /* \"#utility.yul\":10949:11080   */\n      tag_296\n        /* \"#utility.yul\":11075:11079   */\n      dup2\n        /* \"#utility.yul\":10949:11080   */\n      tag_171\n      jump\t// in\n    tag_296:\n        /* \"#utility.yul\":10941:11080   */\n      swap1\n      pop\n        /* \"#utility.yul\":10668:11087   */\n      swap2\n      swap1\n      pop\n      jump\t// out\n        /* \"#utility.yul\":11093:11535   */\n    tag_102:\n        /* \"#utility.yul\":11242:11246   */\n      0x00\n        /* \"#utility.yul\":11280:11282   */\n      0x60\n        /* \"#utility.yul\":11269:11278   */\n      dup3\n        /* \"#utility.yul\":11265:11283   */\n      add\n        /* \"#utility.yul\":11257:11283   */\n      swap1\n      pop\n        /* \"#utility.yul\":11293:11364   */\n      tag_298\n        /* \"#utility.yul\":11361:11362   */\n      0x00\n        /* \"#utility.yul\":11350:11359   */\n      dup4\n        /* \"#utility.yul\":11346:11363   */\n      add\n        /* \"#utility.yul\":11337:11343   */\n      dup7\n        /* \"#utility.yul\":11293:11364   */\n      tag_167\n      jump\t// in\n    tag_298:\n        /* \"#utility.yul\":11374:11446   */\n      tag_299\n        /* \"#utility.yul\":11442:11444   */\n      0x20\n        /* \"#utility.yul\":11431:11440   */\n      dup4\n        /* \"#utility.yul\":11427:11445   */\n      add\n        /* \"#utility.yul\":11418:11424   */\n      dup6\n        /* \"#utility.yul\":11374:11446   */\n      tag_167\n      jump\t// in\n    tag_299:\n        /* \"#utility.yul\":11456:11528   */\n      tag_300\n        /* \"#utility.yul\":11524:11526   */\n      0x40\n        /* \"#utility.yul\":11513:11522   */\n      dup4\n        /* \"#utility.yul\":11509:11527   */\n      add\n        /* \"#utility.yul\":11500:11506   */\n      dup5\n        /* \"#utility.yul\":11456:11528   */\n      tag_148\n      jump\t// in\n    tag_300:\n        /* \"#utility.yul\":11093:11535   */\n      swap5\n      swap4\n      pop\n      pop\n      pop\n      pop\n      jump\t// out\n        /* \"#utility.yul\":11541:11631   */\n    tag_172:\n        /* \"#utility.yul\":11575:11582   */\n      0x00\n        /* \"#utility.yul\":11618:11623   */\n      dup2\n        /* \"#utility.yul\":11611:11624   */\n      iszero\n        /* \"#utility.yul\":11604:11625   */\n      iszero\n        /* \"#utility.yul\":11593:11625   */\n      swap1\n      pop\n        /* \"#utility.yul\":11541:11631   */\n      swap2\n      swap1\n      pop\n      jump\t// out\n        /* \"#utility.yul\":11637:11753   */\n    tag_173:\n        /* \"#utility.yul\":11707:11728   */\n      tag_303\n        /* \"#utility.yul\":11722:11727   */\n      dup2\n        /* \"#utility.yul\":11707:11728   */\n      tag_172\n      jump\t// in\n    tag_303:\n        /* \"#utility.yul\":11700:11705   */\n      dup2\n        /* \"#utility.yul\":11697:11729   */\n      eq\n        /* \"#utility.yul\":11687:11747   */\n      tag_304\n      jumpi\n        /* \"#utility.yul\":11743:11744   */\n      0x00\n        /* \"#utility.yul\":11740:11741   */\n      dup1\n        /* \"#utility.yul\":11733:11745   */\n      revert\n        /* \"#utility.yul\":11687:11747   */\n    tag_304:\n        /* \"#utility.yul\":11637:11753   */\n      pop\n      jump\t// out\n        /* \"#utility.yul\":11759:11896   */\n    tag_174:\n        /* \"#utility.yul\":11813:11818   */\n      0x00\n        /* \"#utility.yul\":11844:11850   */\n      dup2\n        /* \"#utility.yul\":11838:11851   */\n      mload\n        /* \"#utility.yul\":11829:11851   */\n      swap1\n      pop\n        /* \"#utility.yul\":11860:11890   */\n      tag_306\n        /* \"#utility.yul\":11884:11889   */\n      dup2\n        /* \"#utility.yul\":11860:11890   */\n      tag_173\n      jump\t// in\n    tag_306:\n        /* \"#utility.yul\":11759:11896   */\n      swap3\n      swap2\n      pop\n      pop\n      jump\t// out\n        /* \"#utility.yul\":11902:12247   */\n    tag_109:\n        /* \"#utility.yul\":11969:11975   */\n      0x00\n        /* \"#utility.yul\":12018:12020   */\n      0x20\n        /* \"#utility.yul\":12006:12015   */\n      dup3\n        /* \"#utility.yul\":11997:12004   */\n      dup5\n        /* \"#utility.yul\":11993:12016   */\n      sub\n        /* \"#utility.yul\":11989:12021   */\n      slt\n        /* \"#utility.yul\":11986:12105   */\n      iszero\n      tag_308\n      jumpi\n        /* \"#utility.yul\":12024:12103   */\n      tag_309\n      tag_141\n      jump\t// in\n    tag_309:\n        /* \"#utility.yul\":11986:12105   */\n    tag_308:\n        /* \"#utility.yul\":12144:12145   */\n      0x00\n        /* \"#utility.yul\":12169:12230   */\n      tag_310\n        /* \"#utility.yul\":12222:12229   */\n      dup5\n        /* \"#utility.yul\":12213:12219   */\n      dup3\n        /* \"#utility.yul\":12202:12211   */\n      dup6\n        /* \"#utility.yul\":12198:12220   */\n      add\n        /* \"#utility.yul\":12169:12230   */\n      tag_174\n      jump\t// in\n    tag_310:\n        /* \"#utility.yul\":12159:12230   */\n      swap2\n      pop\n        /* \"#utility.yul\":12115:12240   */\n      pop\n        /* \"#utility.yul\":11902:12247   */\n      swap3\n      swap2\n      pop\n      pop\n      jump\t// out\n        /* \"#utility.yul\":12253:12482   */\n    tag_175:\n        /* \"#utility.yul\":12393:12427   */\n      0x5361666545524332303a204552433230206f7065726174696f6e20646964206e\n        /* \"#utility.yul\":12389:12390   */\n      0x00\n        /* \"#utility.yul\":12381:12387   */\n      dup3\n        /* \"#utility.yul\":12377:12391   */\n      add\n        /* \"#utility.yul\":12370:12428   */\n      mstore\n        /* \"#utility.yul\":12462:12474   */\n      0x6f74207375636365656400000000000000000000000000000000000000000000\n        /* \"#utility.yul\":12457:12459   */\n      0x20\n        /* \"#utility.yul\":12449:12455   */\n      dup3\n        /* \"#utility.yul\":12445:12460   */\n      add\n        /* \"#utility.yul\":12438:12475   */\n      mstore\n        /* \"#utility.yul\":12253:12482   */\n      pop\n      jump\t// out\n        /* \"#utility.yul\":12488:12854   */\n    tag_176:\n        /* \"#utility.yul\":12630:12633   */\n      0x00\n        /* \"#utility.yul\":12651:12718   */\n      tag_313\n        /* \"#utility.yul\":12715:12717   */\n      0x2a\n        /* \"#utility.yul\":12710:12713   */\n      dup4\n        /* \"#utility.yul\":12651:12718   */\n      tag_159\n      jump\t// in\n    tag_313:\n        /* \"#utility.yul\":12644:12718   */\n      swap2\n      pop\n        /* \"#utility.yul\":12727:12820   */\n      tag_314\n        /* \"#utility.yul\":12816:12819   */\n      dup3\n        /* \"#utility.yul\":12727:12820   */\n      tag_175\n      jump\t// in\n    tag_314:\n        /* \"#utility.yul\":12845:12847   */\n      0x40\n        /* \"#utility.yul\":12840:12843   */\n      dup3\n        /* \"#utility.yul\":12836:12848   */\n      add\n        /* \"#utility.yul\":12829:12848   */\n      swap1\n      pop\n        /* \"#utility.yul\":12488:12854   */\n      swap2\n      swap1\n      pop\n      jump\t// out\n        /* \"#utility.yul\":12860:13279   */\n    tag_112:\n        /* \"#utility.yul\":13026:13030   */\n      0x00\n        /* \"#utility.yul\":13064:13066   */\n      0x20\n        /* \"#utility.yul\":13053:13062   */\n      dup3\n        /* \"#utility.yul\":13049:13067   */\n      add\n        /* \"#utility.yul\":13041:13067   */\n      swap1\n      pop\n        /* \"#utility.yul\":13113:13122   */\n      dup2\n        /* \"#utility.yul\":13107:13111   */\n      dup2\n        /* \"#utility.yul\":13103:13123   */\n      sub\n        /* \"#utility.yul\":13099:13100   */\n      0x00\n        /* \"#utility.yul\":13088:13097   */\n      dup4\n        /* \"#utility.yul\":13084:13101   */\n      add\n        /* \"#utility.yul\":13077:13124   */\n      mstore\n        /* \"#utility.yul\":13141:13272   */\n      tag_316\n        /* \"#utility.yul\":13267:13271   */\n      dup2\n        /* \"#utility.yul\":13141:13272   */\n      tag_176\n      jump\t// in\n    tag_316:\n        /* \"#utility.yul\":13133:13272   */\n      swap1\n      pop\n        /* \"#utility.yul\":12860:13279   */\n      swap2\n      swap1\n      pop\n      jump\t// out\n        /* \"#utility.yul\":13285:13510   */\n    tag_177:\n        /* \"#utility.yul\":13425:13459   */\n      0x416464726573733a20696e73756666696369656e742062616c616e636520666f\n        /* \"#utility.yul\":13421:13422   */\n      0x00\n        /* \"#utility.yul\":13413:13419   */\n      dup3\n        /* \"#utility.yul\":13409:13423   */\n      add\n        /* \"#utility.yul\":13402:13460   */\n      mstore\n        /* \"#utility.yul\":13494:13502   */\n      0x722063616c6c0000000000000000000000000000000000000000000000000000\n        /* \"#utility.yul\":13489:13491   */\n      0x20\n        /* \"#utility.yul\":13481:13487   */\n      dup3\n        /* \"#utility.yul\":13477:13492   */\n      add\n        /* \"#utility.yul\":13470:13503   */\n      mstore\n        /* \"#utility.yul\":13285:13510   */\n      pop\n      jump\t// out\n        /* \"#utility.yul\":13516:13882   */\n    tag_178:\n        /* \"#utility.yul\":13658:13661   */\n      0x00\n        /* \"#utility.yul\":13679:13746   */\n      tag_319\n        /* \"#utility.yul\":13743:13745   */\n      0x26\n        /* \"#utility.yul\":13738:13741   */\n      dup4\n        /* \"#utility.yul\":13679:13746   */\n      tag_159\n      jump\t// in\n    tag_319:\n        /* \"#utility.yul\":13672:13746   */\n      swap2\n      pop\n        /* \"#utility.yul\":13755:13848   */\n      tag_320\n        /* \"#utility.yul\":13844:13847   */\n      dup3\n        /* \"#utility.yul\":13755:13848   */\n      tag_177\n      jump\t// in\n    tag_320:\n        /* \"#utility.yul\":13873:13875   */\n      0x40\n        /* \"#utility.yul\":13868:13871   */\n      dup3\n        /* \"#utility.yul\":13864:13876   */\n      add\n        /* \"#utility.yul\":13857:13876   */\n      swap1\n      pop\n        /* \"#utility.yul\":13516:13882   */\n      swap2\n      swap1\n      pop\n      jump\t// out\n        /* \"#utility.yul\":13888:14307   */\n    tag_119:\n        /* \"#utility.yul\":14054:14058   */\n      0x00\n        /* \"#utility.yul\":14092:14094   */\n      0x20\n        /* \"#utility.yul\":14081:14090   */\n      dup3\n        /* \"#utility.yul\":14077:14095   */\n      add\n        /* \"#utility.yul\":14069:14095   */\n      swap1\n      pop\n        /* \"#utility.yul\":14141:14150   */\n      dup2\n        /* \"#utility.yul\":14135:14139   */\n      dup2\n        /* \"#utility.yul\":14131:14151   */\n      sub\n        /* \"#utility.yul\":14127:14128   */\n      0x00\n        /* \"#utility.yul\":14116:14125   */\n      dup4\n        /* \"#utility.yul\":14112:14129   */\n      add\n        /* \"#utility.yul\":14105:14152   */\n      mstore\n        /* \"#utility.yul\":14169:14300   */\n      tag_322\n        /* \"#utility.yul\":14295:14299   */\n      dup2\n        /* \"#utility.yul\":14169:14300   */\n      tag_178\n      jump\t// in\n    tag_322:\n        /* \"#utility.yul\":14161:14300   */\n      swap1\n      pop\n        /* \"#utility.yul\":13888:14307   */\n      swap2\n      swap1\n      pop\n      jump\t// out\n        /* \"#utility.yul\":14313:14492   */\n    tag_179:\n        /* \"#utility.yul\":14453:14484   */\n      0x416464726573733a2063616c6c20746f206e6f6e2d636f6e7472616374000000\n        /* \"#utility.yul\":14449:14450   */\n      0x00\n        /* \"#utility.yul\":14441:14447   */\n      dup3\n        /* \"#utility.yul\":14437:14451   */\n      add\n        /* \"#utility.yul\":14430:14485   */\n      mstore\n        /* \"#utility.yul\":14313:14492   */\n      pop\n      jump\t// out\n        /* \"#utility.yul\":14498:14864   */\n    tag_180:\n        /* \"#utility.yul\":14640:14643   */\n      0x00\n        /* \"#utility.yul\":14661:14728   */\n      tag_325\n        /* \"#utility.yul\":14725:14727   */\n      0x1d\n        /* \"#utility.yul\":14720:14723   */\n      dup4\n        /* \"#utility.yul\":14661:14728   */\n      tag_159\n      jump\t// in\n    tag_325:\n        /* \"#utility.yul\":14654:14728   */\n      swap2\n      pop\n        /* \"#utility.yul\":14737:14830   */\n      tag_326\n        /* \"#utility.yul\":14826:14829   */\n      dup3\n        /* \"#utility.yul\":14737:14830   */\n      tag_179\n      jump\t// in\n    tag_326:\n        /* \"#utility.yul\":14855:14857   */\n      0x20\n        /* \"#utility.yul\":14850:14853   */\n      dup3\n        /* \"#utility.yul\":14846:14858   */\n      add\n        /* \"#utility.yul\":14839:14858   */\n      swap1\n      pop\n        /* \"#utility.yul\":14498:14864   */\n      swap2\n      swap1\n      pop\n      jump\t// out\n        /* \"#utility.yul\":14870:15289   */\n    tag_124:\n        /* \"#utility.yul\":15036:15040   */\n      0x00\n        /* \"#utility.yul\":15074:15076   */\n      0x20\n        /* \"#utility.yul\":15063:15072   */\n      dup3\n        /* \"#utility.yul\":15059:15077   */\n      add\n        /* \"#utility.yul\":15051:15077   */\n      swap1\n      pop\n        /* \"#utility.yul\":15123:15132   */\n      dup2\n        /* \"#utility.yul\":15117:15121   */\n      dup2\n        /* \"#utility.yul\":15113:15133   */\n      sub\n        /* \"#utility.yul\":15109:15110   */\n      0x00\n        /* \"#utility.yul\":15098:15107   */\n      dup4\n        /* \"#utility.yul\":15094:15111   */\n      add\n        /* \"#utility.yul\":15087:15134   */\n      mstore\n        /* \"#utility.yul\":15151:15282   */\n      tag_328\n        /* \"#utility.yul\":15277:15281   */\n      dup2\n        /* \"#utility.yul\":15151:15282   */\n      tag_180\n      jump\t// in\n    tag_328:\n        /* \"#utility.yul\":15143:15282   */\n      swap1\n      pop\n        /* \"#utility.yul\":14870:15289   */\n      swap2\n      swap1\n      pop\n      jump\t// out\n        /* \"#utility.yul\":15295:15393   */\n    tag_181:\n        /* \"#utility.yul\":15346:15352   */\n      0x00\n        /* \"#utility.yul\":15380:15385   */\n      dup2\n        /* \"#utility.yul\":15374:15386   */\n      mload\n        /* \"#utility.yul\":15364:15386   */\n      swap1\n      pop\n        /* \"#utility.yul\":15295:15393   */\n      swap2\n      swap1\n      pop\n      jump\t// out\n        /* \"#utility.yul\":15399:15546   */\n    tag_182:\n        /* \"#utility.yul\":15500:15511   */\n      0x00\n        /* \"#utility.yul\":15537:15540   */\n      dup2\n        /* \"#utility.yul\":15522:15540   */\n      swap1\n      pop\n        /* \"#utility.yul\":15399:15546   */\n      swap3\n      swap2\n      pop\n      pop\n      jump\t// out\n        /* \"#utility.yul\":15552:15798   */\n    tag_183:\n        /* \"#utility.yul\":15633:15634   */\n      0x00\n        /* \"#utility.yul\":15643:15756   */\n    tag_332:\n        /* \"#utility.yul\":15657:15663   */\n      dup4\n        /* \"#utility.yul\":15654:15655   */\n      dup2\n        /* \"#utility.yul\":15651:15664   */\n      lt\n        /* \"#utility.yul\":15643:15756   */\n      iszero\n      tag_334\n      jumpi\n        /* \"#utility.yul\":15742:15743   */\n      dup1\n        /* \"#utility.yul\":15737:15740   */\n      dup3\n        /* \"#utility.yul\":15733:15744   */\n      add\n        /* \"#utility.yul\":15727:15745   */\n      mload\n        /* \"#utility.yul\":15723:15724   */\n      dup2\n        /* \"#utility.yul\":15718:15721   */\n      dup5\n        /* \"#utility.yul\":15714:15725   */\n      add\n        /* \"#utility.yul\":15707:15746   */\n      mstore\n        /* \"#utility.yul\":15679:15681   */\n      0x20\n        /* \"#utility.yul\":15676:15677   */\n      dup2\n        /* \"#utility.yul\":15672:15682   */\n      add\n        /* \"#utility.yul\":15667:15682   */\n      swap1\n      pop\n        /* \"#utility.yul\":15643:15756   */\n      jump(tag_332)\n    tag_334:\n        /* \"#utility.yul\":15790:15791   */\n      0x00\n        /* \"#utility.yul\":15781:15787   */\n      dup5\n        /* \"#utility.yul\":15776:15779   */\n      dup5\n        /* \"#utility.yul\":15772:15788   */\n      add\n        /* \"#utility.yul\":15765:15792   */\n      mstore\n        /* \"#utility.yul\":15614:15798   */\n      pop\n        /* \"#utility.yul\":15552:15798   */\n      pop\n      pop\n      pop\n      jump\t// out\n        /* \"#utility.yul\":15804:16190   */\n    tag_184:\n        /* \"#utility.yul\":15908:15911   */\n      0x00\n        /* \"#utility.yul\":15936:15974   */\n      tag_336\n        /* \"#utility.yul\":15968:15973   */\n      dup3\n        /* \"#utility.yul\":15936:15974   */\n      tag_181\n      jump\t// in\n    tag_336:\n        /* \"#utility.yul\":15990:16078   */\n      tag_337\n        /* \"#utility.yul\":16071:16077   */\n      dup2\n        /* \"#utility.yul\":16066:16069   */\n      dup6\n        /* \"#utility.yul\":15990:16078   */\n      tag_182\n      jump\t// in\n    tag_337:\n        /* \"#utility.yul\":15983:16078   */\n      swap4\n      pop\n        /* \"#utility.yul\":16087:16152   */\n      tag_338\n        /* \"#utility.yul\":16145:16151   */\n      dup2\n        /* \"#utility.yul\":16140:16143   */\n      dup6\n        /* \"#utility.yul\":16133:16137   */\n      0x20\n        /* \"#utility.yul\":16126:16131   */\n      dup7\n        /* \"#utility.yul\":16122:16138   */\n      add\n        /* \"#utility.yul\":16087:16152   */\n      tag_183\n      jump\t// in\n    tag_338:\n        /* \"#utility.yul\":16177:16183   */\n      dup1\n        /* \"#utility.yul\":16172:16175   */\n      dup5\n        /* \"#utility.yul\":16168:16184   */\n      add\n        /* \"#utility.yul\":16161:16184   */\n      swap2\n      pop\n        /* \"#utility.yul\":15912:16190   */\n      pop\n        /* \"#utility.yul\":15804:16190   */\n      swap3\n      swap2\n      pop\n      pop\n      jump\t// out\n        /* \"#utility.yul\":16196:16467   */\n    tag_126:\n        /* \"#utility.yul\":16326:16329   */\n      0x00\n        /* \"#utility.yul\":16348:16441   */\n      tag_340\n        /* \"#utility.yul\":16437:16440   */\n      dup3\n        /* \"#utility.yul\":16428:16434   */\n      dup5\n        /* \"#utility.yul\":16348:16441   */\n      tag_184\n      jump\t// in\n    tag_340:\n        /* \"#utility.yul\":16341:16441   */\n      swap2\n      pop\n        /* \"#utility.yul\":16458:16461   */\n      dup2\n        /* \"#utility.yul\":16451:16461   */\n      swap1\n      pop\n        /* \"#utility.yul\":16196:16467   */\n      swap3\n      swap2\n      pop\n      pop\n      jump\t// out\n        /* \"#utility.yul\":16473:16572   */\n    tag_185:\n        /* \"#utility.yul\":16525:16531   */\n      0x00\n        /* \"#utility.yul\":16559:16564   */\n      dup2\n        /* \"#utility.yul\":16553:16565   */\n      mload\n        /* \"#utility.yul\":16543:16565   */\n      swap1\n      pop\n        /* \"#utility.yul\":16473:16572   */\n      swap2\n      swap1\n      pop\n      jump\t// out\n        /* \"#utility.yul\":16578:16680   */\n    tag_186:\n        /* \"#utility.yul\":16619:16625   */\n      0x00\n        /* \"#utility.yul\":16670:16672   */\n      0x1f\n        /* \"#utility.yul\":16666:16673   */\n      not\n        /* \"#utility.yul\":16661:16663   */\n      0x1f\n        /* \"#utility.yul\":16654:16659   */\n      dup4\n        /* \"#utility.yul\":16650:16664   */\n      add\n        /* \"#utility.yul\":16646:16674   */\n      and\n        /* \"#utility.yul\":16636:16674   */\n      swap1\n      pop\n        /* \"#utility.yul\":16578:16680   */\n      swap2\n      swap1\n      pop\n      jump\t// out\n        /* \"#utility.yul\":16686:17063   */\n    tag_187:\n        /* \"#utility.yul\":16774:16777   */\n      0x00\n        /* \"#utility.yul\":16802:16841   */\n      tag_344\n        /* \"#utility.yul\":16835:16840   */\n      dup3\n        /* \"#utility.yul\":16802:16841   */\n      tag_185\n      jump\t// in\n    tag_344:\n        /* \"#utility.yul\":16857:16928   */\n      tag_345\n        /* \"#utility.yul\":16921:16927   */\n      dup2\n        /* \"#utility.yul\":16916:16919   */\n      dup6\n        /* \"#utility.yul\":16857:16928   */\n      tag_159\n      jump\t// in\n    tag_345:\n        /* \"#utility.yul\":16850:16928   */\n      swap4\n      pop\n        /* \"#utility.yul\":16937:17002   */\n      tag_346\n        /* \"#utility.yul\":16995:17001   */\n      dup2\n        /* \"#utility.yul\":16990:16993   */\n      dup6\n        /* \"#utility.yul\":16983:16987   */\n      0x20\n        /* \"#utility.yul\":16976:16981   */\n      dup7\n        /* \"#utility.yul\":16972:16988   */\n      add\n        /* \"#utility.yul\":16937:17002   */\n      tag_183\n      jump\t// in\n    tag_346:\n        /* \"#utility.yul\":17027:17056   */\n      tag_347\n        /* \"#utility.yul\":17049:17055   */\n      dup2\n        /* \"#utility.yul\":17027:17056   */\n      tag_186\n      jump\t// in\n    tag_347:\n        /* \"#utility.yul\":17022:17025   */\n      dup5\n        /* \"#utility.yul\":17018:17057   */\n      add\n        /* \"#utility.yul\":17011:17057   */\n      swap2\n      pop\n        /* \"#utility.yul\":16778:17063   */\n      pop\n        /* \"#utility.yul\":16686:17063   */\n      swap3\n      swap2\n      pop\n      pop\n      jump\t// out\n        /* \"#utility.yul\":17069:17382   */\n    tag_139:\n        /* \"#utility.yul\":17182:17186   */\n      0x00\n        /* \"#utility.yul\":17220:17222   */\n      0x20\n        /* \"#utility.yul\":17209:17218   */\n      dup3\n        /* \"#utility.yul\":17205:17223   */\n      add\n        /* \"#utility.yul\":17197:17223   */\n      swap1\n      pop\n        /* \"#utility.yul\":17269:17278   */\n      dup2\n        /* \"#utility.yul\":17263:17267   */\n      dup2\n        /* \"#utility.yul\":17259:17279   */\n      sub\n        /* \"#utility.yul\":17255:17256   */\n      0x00\n        /* \"#utility.yul\":17244:17253   */\n      dup4\n        /* \"#utility.yul\":17240:17257   */\n      add\n        /* \"#utility.yul\":17233:17280   */\n      mstore\n        /* \"#utility.yul\":17297:17375   */\n      tag_349\n        /* \"#utility.yul\":17370:17374   */\n      dup2\n        /* \"#utility.yul\":17361:17367   */\n      dup5\n        /* \"#utility.yul\":17297:17375   */\n      tag_187\n      jump\t// in\n    tag_349:\n        /* \"#utility.yul\":17289:17375   */\n      swap1\n      pop\n        /* \"#utility.yul\":17069:17382   */\n      swap3\n      swap2\n      pop\n      pop\n      jump\t// out\n\n    auxdata: 0xa2646970667358221220e31680dc1ec090cdeb9ec66e71c0f689141f3fe6bafbdf54fd5295fc1685466864736f6c63430008130033\n}\n",
				"bytecode": {
					"linkReferences": {},
					"object": "6080604052601260015534801561001557600080fd5b5033600360006101000a81548173ffffffffffffffffffffffffffffffffffffffff021916908373ffffffffffffffffffffffffffffffffffffffff160217905550611302806100666000396000f3fe608060405234801561001057600080fd5b506004361061007d5760003560e01c80635459b8a31161005b5780635459b8a3146100da5780639e1a4d19146100f6578063a6f9dae114610114578063fc0c546a146101305761007d565b806326a4e8d214610082578063313ce5671461009e5780634b14c0ef146100bc575b600080fd5b61009c600480360381019061009791906109fa565b61014e565b005b6100a66101eb565b6040516100b39190610a40565b60405180910390f35b6100c46101f5565b6040516100d19190610a40565b60405180910390f35b6100f460048036038101906100ef9190610b16565b6101ff565b005b6100fe610495565b60405161010b9190610a40565b60405180910390f35b61012e600480360381019061012991906109fa565b610567565b005b610138610605565b6040516101459190610bf6565b60405180910390f35b600360009054906101000a900473ffffffffffffffffffffffffffffffffffffffff1673ffffffffffffffffffffffffffffffffffffffff163373ffffffffffffffffffffffffffffffffffffffff16146101a857600080fd5b806000806101000a81548173ffffffffffffffffffffffffffffffffffffffff021916908373ffffffffffffffffffffffffffffffffffffffff16021790555050565b6000600154905090565b6000600254905090565b600360009054906101000a900473ffffffffffffffffffffffffffffffffffffffff1673ffffffffffffffffffffffffffffffffffffffff163373ffffffffffffffffffffffffffffffffffffffff161461025957600080fd5b600073ffffffffffffffffffffffffffffffffffffffff1660008054906101000a900473ffffffffffffffffffffffffffffffffffffffff1673ffffffffffffffffffffffffffffffffffffffff16036102e8576040517f08c379a00000000000000000000000000000000000000000000000000000000081526004016102df90610c6e565b60405180910390fd5b818190508484905014610330576040517f08c379a000000000000000000000000000000000000000000000000000000000815260040161032790610d26565b60405180910390fd5b6000805b858590508110156103805761036b84848381811061035557610354610d46565b5b905060200201358361062e90919063ffffffff16565b9150808061037890610da4565b915050610334565b508061038a610495565b10156103cb576040517f08c379a00000000000000000000000000000000000000000000000000000000081526004016103c290610e5e565b60405180910390fd5b60005b8585905081101561048d5761044d308787848181106103f0576103ef610d46565b5b905060200201602081019061040591906109fa565b86868581811061041857610417610d46565b5b90506020020135610427610605565b73ffffffffffffffffffffffffffffffffffffffff1661068c909392919063ffffffff16565b8383828181106104605761045f610d46565b5b905060200201356002546104749190610e7e565b600281905550808061048590610da4565b9150506103ce565b505050505050565b60008073ffffffffffffffffffffffffffffffffffffffff166104b6610605565b73ffffffffffffffffffffffffffffffffffffffff16036104da5760009050610564565b60006104e4610605565b73ffffffffffffffffffffffffffffffffffffffff166370a08231306040518263ffffffff1660e01b815260040161051c9190610ec1565b602060405180830381865afa158015610539573d6000803e3d6000fd5b505050506040513d601f19601f8201168201806040525081019061055d9190610f08565b9050809150505b90565b600360009054906101000a900473ffffffffffffffffffffffffffffffffffffffff1673ffffffffffffffffffffffffffffffffffffffff163373ffffffffffffffffffffffffffffffffffffffff16146105c157600080fd5b80600360006101000a81548173ffffffffffffffffffffffffffffffffffffffff021916908373ffffffffffffffffffffffffffffffffffffffff16021790555050565b60008060009054906101000a900473ffffffffffffffffffffffffffffffffffffffff16905090565b600080828461063d9190610e7e565b905083811015610682576040517f08c379a000000000000000000000000000000000000000000000000000000000815260040161067990610f81565b60405180910390fd5b8091505092915050565b61070f846323b872dd60e01b8585856040516024016106ad93929190610fa1565b604051602081830303815290604052907bffffffffffffffffffffffffffffffffffffffffffffffffffffffff19166020820180517bffffffffffffffffffffffffffffffffffffffffffffffffffffffff8381831617835250505050610715565b50505050565b6000610777826040518060400160405280602081526020017f5361666545524332303a206c6f772d6c6576656c2063616c6c206661696c65648152508573ffffffffffffffffffffffffffffffffffffffff166107dc9092919063ffffffff16565b90506000815111156107d757808060200190518101906107979190611010565b6107d6576040517f08c379a00000000000000000000000000000000000000000000000000000000081526004016107cd906110af565b60405180910390fd5b5b505050565b60606107eb84846000856107f4565b90509392505050565b606082471015610839576040517f08c379a000000000000000000000000000000000000000000000000000000000815260040161083090611141565b60405180910390fd5b61084285610908565b610881576040517f08c379a0000000000000000000000000000000000000000000000000000000008152600401610878906111ad565b60405180910390fd5b6000808673ffffffffffffffffffffffffffffffffffffffff1685876040516108aa919061123e565b60006040518083038185875af1925050503d80600081146108e7576040519150601f19603f3d011682016040523d82523d6000602084013e6108ec565b606091505b50915091506108fc82828661092b565b92505050949350505050565b6000808273ffffffffffffffffffffffffffffffffffffffff163b119050919050565b6060831561093b5782905061098b565b60008351111561094e5782518084602001fd5b816040517f08c379a000000000000000000000000000000000000000000000000000000000815260040161098291906112aa565b60405180910390fd5b9392505050565b600080fd5b600080fd5b600073ffffffffffffffffffffffffffffffffffffffff82169050919050565b60006109c78261099c565b9050919050565b6109d7816109bc565b81146109e257600080fd5b50565b6000813590506109f4816109ce565b92915050565b600060208284031215610a1057610a0f610992565b5b6000610a1e848285016109e5565b91505092915050565b6000819050919050565b610a3a81610a27565b82525050565b6000602082019050610a556000830184610a31565b92915050565b600080fd5b600080fd5b600080fd5b60008083601f840112610a8057610a7f610a5b565b5b8235905067ffffffffffffffff811115610a9d57610a9c610a60565b5b602083019150836020820283011115610ab957610ab8610a65565b5b9250929050565b60008083601f840112610ad657610ad5610a5b565b5b8235905067ffffffffffffffff811115610af357610af2610a60565b5b602083019150836020820283011115610b0f57610b0e610a65565b5b9250929050565b60008060008060408587031215610b3057610b2f610992565b5b600085013567ffffffffffffffff811115610b4e57610b4d610997565b5b610b5a87828801610a6a565b9450945050602085013567ffffffffffffffff811115610b7d57610b7c610997565b5b610b8987828801610ac0565b925092505092959194509250565b6000819050919050565b6000610bbc610bb7610bb28461099c565b610b97565b61099c565b9050919050565b6000610bce82610ba1565b9050919050565b6000610be082610bc3565b9050919050565b610bf081610bd5565b82525050565b6000602082019050610c0b6000830184610be7565b92915050565b600082825260208201905092915050565b7f52656c656173653a206e6565642073657420546f6b656e204164647265737300600082015250565b6000610c58601f83610c11565b9150610c6382610c22565b602082019050919050565b60006020820190508181036000830152610c8781610c4b565b9050919050565b7f506c6561736520636865636b2074686520646174612c20746865206e6577732060008201527f494420616e6420646973747269627574696f6e207175616e746974792061726560208201527f20696e636f6e73697374656e7400000000000000000000000000000000000000604082015250565b6000610d10604d83610c11565b9150610d1b82610c8e565b606082019050919050565b60006020820190508181036000830152610d3f81610d03565b9050919050565b7f4e487b7100000000000000000000000000000000000000000000000000000000600052603260045260246000fd5b7f4e487b7100000000000000000000000000000000000000000000000000000000600052601160045260246000fd5b6000610daf82610a27565b91507fffffffffffffffffffffffffffffffffffffffffffffffffffffffffffffffff8203610de157610de0610d75565b5b600182019050919050565b7f546865206e756d626572206f66206169722064726f707320657863656564732060008201527f746865206461696c792072656c6561736520616d6f756e740000000000000000602082015250565b6000610e48603883610c11565b9150610e5382610dec565b604082019050919050565b60006020820190508181036000830152610e7781610e3b565b9050919050565b6000610e8982610a27565b9150610e9483610a27565b9250828201905080821115610eac57610eab610d75565b5b92915050565b610ebb816109bc565b82525050565b6000602082019050610ed66000830184610eb2565b92915050565b610ee581610a27565b8114610ef057600080fd5b50565b600081519050610f0281610edc565b92915050565b600060208284031215610f1e57610f1d610992565b5b6000610f2c84828501610ef3565b91505092915050565b7f536166654d6174683a206164646974696f6e206f766572666c6f770000000000600082015250565b6000610f6b601b83610c11565b9150610f7682610f35565b602082019050919050565b60006020820190508181036000830152610f9a81610f5e565b9050919050565b6000606082019050610fb66000830186610eb2565b610fc36020830185610eb2565b610fd06040830184610a31565b949350505050565b60008115159050919050565b610fed81610fd8565b8114610ff857600080fd5b50565b60008151905061100a81610fe4565b92915050565b60006020828403121561102657611025610992565b5b600061103484828501610ffb565b91505092915050565b7f5361666545524332303a204552433230206f7065726174696f6e20646964206e60008201527f6f74207375636365656400000000000000000000000000000000000000000000602082015250565b6000611099602a83610c11565b91506110a48261103d565b604082019050919050565b600060208201905081810360008301526110c88161108c565b9050919050565b7f416464726573733a20696e73756666696369656e742062616c616e636520666f60008201527f722063616c6c0000000000000000000000000000000000000000000000000000602082015250565b600061112b602683610c11565b9150611136826110cf565b604082019050919050565b6000602082019050818103600083015261115a8161111e565b9050919050565b7f416464726573733a2063616c6c20746f206e6f6e2d636f6e7472616374000000600082015250565b6000611197601d83610c11565b91506111a282611161565b602082019050919050565b600060208201905081810360008301526111c68161118a565b9050919050565b600081519050919050565b600081905092915050565b60005b838110156112015780820151818401526020810190506111e6565b60008484015250505050565b6000611218826111cd565b61122281856111d8565b93506112328185602086016111e3565b80840191505092915050565b600061124a828461120d565b915081905092915050565b600081519050919050565b6000601f19601f8301169050919050565b600061127c82611255565b6112868185610c11565b93506112968185602086016111e3565b61129f81611260565b840191505092915050565b600060208201905081810360008301526112c48184611271565b90509291505056fea2646970667358221220e31680dc1ec090cdeb9ec66e71c0f689141f3fe6bafbdf54fd5295fc1685466864736f6c63430008130033",
					"opcodes": "PUSH1 0x80 PUSH1 0x40 MSTORE PUSH1 0x12 PUSH1 0x1 SSTORE CALLVALUE DUP1 ISZERO PUSH2 0x15 JUMPI PUSH1 0x0 DUP1 REVERT JUMPDEST POP CALLER PUSH1 0x3 PUSH1 0x0 PUSH2 0x100 EXP DUP2 SLOAD DUP2 PUSH20 0xFFFFFFFFFFFFFFFFFFFFFFFFFFFFFFFFFFFFFFFF MUL NOT AND SWAP1 DUP4 PUSH20 0xFFFFFFFFFFFFFFFFFFFFFFFFFFFFFFFFFFFFFFFF AND MUL OR SWAP1 SSTORE POP PUSH2 0x1302 DUP1 PUSH2 0x66 PUSH1 0x0 CODECOPY PUSH1 0x0 RETURN INVALID PUSH1 0x80 PUSH1 0x40 MSTORE CALLVALUE DUP1 ISZERO PUSH2 0x10 JUMPI PUSH1 0x0 DUP1 REVERT JUMPDEST POP PUSH1 0x4 CALLDATASIZE LT PUSH2 0x7D JUMPI PUSH1 0x0 CALLDATALOAD PUSH1 0xE0 SHR DUP1 PUSH4 0x5459B8A3 GT PUSH2 0x5B JUMPI DUP1 PUSH4 0x5459B8A3 EQ PUSH2 0xDA JUMPI DUP1 PUSH4 0x9E1A4D19 EQ PUSH2 0xF6 JUMPI DUP1 PUSH4 0xA6F9DAE1 EQ PUSH2 0x114 JUMPI DUP1 PUSH4 0xFC0C546A EQ PUSH2 0x130 JUMPI PUSH2 0x7D JUMP JUMPDEST DUP1 PUSH4 0x26A4E8D2 EQ PUSH2 0x82 JUMPI DUP1 PUSH4 0x313CE567 EQ PUSH2 0x9E JUMPI DUP1 PUSH4 0x4B14C0EF EQ PUSH2 0xBC JUMPI JUMPDEST PUSH1 0x0 DUP1 REVERT JUMPDEST PUSH2 0x9C PUSH1 0x4 DUP1 CALLDATASIZE SUB DUP2 ADD SWAP1 PUSH2 0x97 SWAP2 SWAP1 PUSH2 0x9FA JUMP JUMPDEST PUSH2 0x14E JUMP JUMPDEST STOP JUMPDEST PUSH2 0xA6 PUSH2 0x1EB JUMP JUMPDEST PUSH1 0x40 MLOAD PUSH2 0xB3 SWAP2 SWAP1 PUSH2 0xA40 JUMP JUMPDEST PUSH1 0x40 MLOAD DUP1 SWAP2 SUB SWAP1 RETURN JUMPDEST PUSH2 0xC4 PUSH2 0x1F5 JUMP JUMPDEST PUSH1 0x40 MLOAD PUSH2 0xD1 SWAP2 SWAP1 PUSH2 0xA40 JUMP JUMPDEST PUSH1 0x40 MLOAD DUP1 SWAP2 SUB SWAP1 RETURN JUMPDEST PUSH2 0xF4 PUSH1 0x4 DUP1 CALLDATASIZE SUB DUP2 ADD SWAP1 PUSH2 0xEF SWAP2 SWAP1 PUSH2 0xB16 JUMP JUMPDEST PUSH2 0x1FF JUMP JUMPDEST STOP JUMPDEST PUSH2 0xFE PUSH2 0x495 JUMP JUMPDEST PUSH1 0x40 MLOAD PUSH2 0x10B SWAP2 SWAP1 PUSH2 0xA40 JUMP JUMPDEST PUSH1 0x40 MLOAD DUP1 SWAP2 SUB SWAP1 RETURN JUMPDEST PUSH2 0x12E PUSH1 0x4 DUP1 CALLDATASIZE SUB DUP2 ADD SWAP1 PUSH2 0x129 SWAP2 SWAP1 PUSH2 0x9FA JUMP JUMPDEST PUSH2 0x567 JUMP JUMPDEST STOP JUMPDEST PUSH2 0x138 PUSH2 0x605 JUMP JUMPDEST PUSH1 0x40 MLOAD PUSH2 0x145 SWAP2 SWAP1 PUSH2 0xBF6 JUMP JUMPDEST PUSH1 0x40 MLOAD DUP1 SWAP2 SUB SWAP1 RETURN JUMPDEST PUSH1 0x3 PUSH1 0x0 SWAP1 SLOAD SWAP1 PUSH2 0x100 EXP SWAP1 DIV PUSH20 0xFFFFFFFFFFFFFFFFFFFFFFFFFFFFFFFFFFFFFFFF AND PUSH20 0xFFFFFFFFFFFFFFFFFFFFFFFFFFFFFFFFFFFFFFFF AND CALLER PUSH20 0xFFFFFFFFFFFFFFFFFFFFFFFFFFFFFFFFFFFFFFFF AND EQ PUSH2 0x1A8 JUMPI PUSH1 0x0 DUP1 REVERT JUMPDEST DUP1 PUSH1 0x0 DUP1 PUSH2 0x100 EXP DUP2 SLOAD DUP2 PUSH20 0xFFFFFFFFFFFFFFFFFFFFFFFFFFFFFFFFFFFFFFFF MUL NOT AND SWAP1 DUP4 PUSH20 0xFFFFFFFFFFFFFFFFFFFFFFFFFFFFFFFFFFFFFFFF AND MUL OR SWAP1 SSTORE POP POP JUMP JUMPDEST PUSH1 0x0 PUSH1 0x1 SLOAD SWAP1 POP SWAP1 JUMP JUMPDEST PUSH1 0x0 PUSH1 0x2 SLOAD SWAP1 POP SWAP1 JUMP JUMPDEST PUSH1 0x3 PUSH1 0x0 SWAP1 SLOAD SWAP1 PUSH2 0x100 EXP SWAP1 DIV PUSH20 0xFFFFFFFFFFFFFFFFFFFFFFFFFFFFFFFFFFFFFFFF AND PUSH20 0xFFFFFFFFFFFFFFFFFFFFFFFFFFFFFFFFFFFFFFFF AND CALLER PUSH20 0xFFFFFFFFFFFFFFFFFFFFFFFFFFFFFFFFFFFFFFFF AND EQ PUSH2 0x259 JUMPI PUSH1 0x0 DUP1 REVERT JUMPDEST PUSH1 0x0 PUSH20 0xFFFFFFFFFFFFFFFFFFFFFFFFFFFFFFFFFFFFFFFF AND PUSH1 0x0 DUP1 SLOAD SWAP1 PUSH2 0x100 EXP SWAP1 DIV PUSH20 0xFFFFFFFFFFFFFFFFFFFFFFFFFFFFFFFFFFFFFFFF AND PUSH20 0xFFFFFFFFFFFFFFFFFFFFFFFFFFFFFFFFFFFFFFFF AND SUB PUSH2 0x2E8 JUMPI PUSH1 0x40 MLOAD PUSH32 0x8C379A000000000000000000000000000000000000000000000000000000000 DUP2 MSTORE PUSH1 0x4 ADD PUSH2 0x2DF SWAP1 PUSH2 0xC6E JUMP JUMPDEST PUSH1 0x40 MLOAD DUP1 SWAP2 SUB SWAP1 REVERT JUMPDEST DUP2 DUP2 SWAP1 POP DUP5 DUP5 SWAP1 POP EQ PUSH2 0x330 JUMPI PUSH1 0x40 MLOAD PUSH32 0x8C379A000000000000000000000000000000000000000000000000000000000 DUP2 MSTORE PUSH1 0x4 ADD PUSH2 0x327 SWAP1 PUSH2 0xD26 JUMP JUMPDEST PUSH1 0x40 MLOAD DUP1 SWAP2 SUB SWAP1 REVERT JUMPDEST PUSH1 0x0 DUP1 JUMPDEST DUP6 DUP6 SWAP1 POP DUP2 LT ISZERO PUSH2 0x380 JUMPI PUSH2 0x36B DUP5 DUP5 DUP4 DUP2 DUP2 LT PUSH2 0x355 JUMPI PUSH2 0x354 PUSH2 0xD46 JUMP JUMPDEST JUMPDEST SWAP1 POP PUSH1 0x20 MUL ADD CALLDATALOAD DUP4 PUSH2 0x62E SWAP1 SWAP2 SWAP1 PUSH4 0xFFFFFFFF AND JUMP JUMPDEST SWAP2 POP DUP1 DUP1 PUSH2 0x378 SWAP1 PUSH2 0xDA4 JUMP JUMPDEST SWAP2 POP POP PUSH2 0x334 JUMP JUMPDEST POP DUP1 PUSH2 0x38A PUSH2 0x495 JUMP JUMPDEST LT ISZERO PUSH2 0x3CB JUMPI PUSH1 0x40 MLOAD PUSH32 0x8C379A000000000000000000000000000000000000000000000000000000000 DUP2 MSTORE PUSH1 0x4 ADD PUSH2 0x3C2 SWAP1 PUSH2 0xE5E JUMP JUMPDEST PUSH1 0x40 MLOAD DUP1 SWAP2 SUB SWAP1 REVERT JUMPDEST PUSH1 0x0 JUMPDEST DUP6 DUP6 SWAP1 POP DUP2 LT ISZERO PUSH2 0x48D JUMPI PUSH2 0x44D ADDRESS DUP8 DUP8 DUP5 DUP2 DUP2 LT PUSH2 0x3F0 JUMPI PUSH2 0x3EF PUSH2 0xD46 JUMP JUMPDEST JUMPDEST SWAP1 POP PUSH1 0x20 MUL ADD PUSH1 0x20 DUP2 ADD SWAP1 PUSH2 0x405 SWAP2 SWAP1 PUSH2 0x9FA JUMP JUMPDEST DUP7 DUP7 DUP6 DUP2 DUP2 LT PUSH2 0x418 JUMPI PUSH2 0x417 PUSH2 0xD46 JUMP JUMPDEST JUMPDEST SWAP1 POP PUSH1 0x20 MUL ADD CALLDATALOAD PUSH2 0x427 PUSH2 0x605 JUMP JUMPDEST PUSH20 0xFFFFFFFFFFFFFFFFFFFFFFFFFFFFFFFFFFFFFFFF AND PUSH2 0x68C SWAP1 SWAP4 SWAP3 SWAP2 SWAP1 PUSH4 0xFFFFFFFF AND JUMP JUMPDEST DUP4 DUP4 DUP3 DUP2 DUP2 LT PUSH2 0x460 JUMPI PUSH2 0x45F PUSH2 0xD46 JUMP JUMPDEST JUMPDEST SWAP1 POP PUSH1 0x20 MUL ADD CALLDATALOAD PUSH1 0x2 SLOAD PUSH2 0x474 SWAP2 SWAP1 PUSH2 0xE7E JUMP JUMPDEST PUSH1 0x2 DUP2 SWAP1 SSTORE POP DUP1 DUP1 PUSH2 0x485 SWAP1 PUSH2 0xDA4 JUMP JUMPDEST SWAP2 POP POP PUSH2 0x3CE JUMP JUMPDEST POP POP POP POP POP POP JUMP JUMPDEST PUSH1 0x0 DUP1 PUSH20 0xFFFFFFFFFFFFFFFFFFFFFFFFFFFFFFFFFFFFFFFF AND PUSH2 0x4B6 PUSH2 0x605 JUMP JUMPDEST PUSH20 0xFFFFFFFFFFFFFFFFFFFFFFFFFFFFFFFFFFFFFFFF AND SUB PUSH2 0x4DA JUMPI PUSH1 0x0 SWAP1 POP PUSH2 0x564 JUMP JUMPDEST PUSH1 0x0 PUSH2 0x4E4 PUSH2 0x605 JUMP JUMPDEST PUSH20 0xFFFFFFFFFFFFFFFFFFFFFFFFFFFFFFFFFFFFFFFF AND PUSH4 0x70A08231 ADDRESS PUSH1 0x40 MLOAD DUP3 PUSH4 0xFFFFFFFF AND PUSH1 0xE0 SHL DUP2 MSTORE PUSH1 0x4 ADD PUSH2 0x51C SWAP2 SWAP1 PUSH2 0xEC1 JUMP JUMPDEST PUSH1 0x20 PUSH1 0x40 MLOAD DUP1 DUP4 SUB DUP2 DUP7 GAS STATICCALL ISZERO DUP1 ISZERO PUSH2 0x539 JUMPI RETURNDATASIZE PUSH1 0x0 DUP1 RETURNDATACOPY RETURNDATASIZE PUSH1 0x0 REVERT JUMPDEST POP POP POP POP PUSH1 0x40 MLOAD RETURNDATASIZE PUSH1 0x1F NOT PUSH1 0x1F DUP3 ADD AND DUP3 ADD DUP1 PUSH1 0x40 MSTORE POP DUP2 ADD SWAP1 PUSH2 0x55D SWAP2 SWAP1 PUSH2 0xF08 JUMP JUMPDEST SWAP1 POP DUP1 SWAP2 POP POP JUMPDEST SWAP1 JUMP JUMPDEST PUSH1 0x3 PUSH1 0x0 SWAP1 SLOAD SWAP1 PUSH2 0x100 EXP SWAP1 DIV PUSH20 0xFFFFFFFFFFFFFFFFFFFFFFFFFFFFFFFFFFFFFFFF AND PUSH20 0xFFFFFFFFFFFFFFFFFFFFFFFFFFFFFFFFFFFFFFFF AND CALLER PUSH20 0xFFFFFFFFFFFFFFFFFFFFFFFFFFFFFFFFFFFFFFFF AND EQ PUSH2 0x5C1 JUMPI PUSH1 0x0 DUP1 REVERT JUMPDEST DUP1 PUSH1 0x3 PUSH1 0x0 PUSH2 0x100 EXP DUP2 SLOAD DUP2 PUSH20 0xFFFFFFFFFFFFFFFFFFFFFFFFFFFFFFFFFFFFFFFF MUL NOT AND SWAP1 DUP4 PUSH20 0xFFFFFFFFFFFFFFFFFFFFFFFFFFFFFFFFFFFFFFFF AND MUL OR SWAP1 SSTORE POP POP JUMP JUMPDEST PUSH1 0x0 DUP1 PUSH1 0x0 SWAP1 SLOAD SWAP1 PUSH2 0x100 EXP SWAP1 DIV PUSH20 0xFFFFFFFFFFFFFFFFFFFFFFFFFFFFFFFFFFFFFFFF AND SWAP1 POP SWAP1 JUMP JUMPDEST PUSH1 0x0 DUP1 DUP3 DUP5 PUSH2 0x63D SWAP2 SWAP1 PUSH2 0xE7E JUMP JUMPDEST SWAP1 POP DUP4 DUP2 LT ISZERO PUSH2 0x682 JUMPI PUSH1 0x40 MLOAD PUSH32 0x8C379A000000000000000000000000000000000000000000000000000000000 DUP2 MSTORE PUSH1 0x4 ADD PUSH2 0x679 SWAP1 PUSH2 0xF81 JUMP JUMPDEST PUSH1 0x40 MLOAD DUP1 SWAP2 SUB SWAP1 REVERT JUMPDEST DUP1 SWAP2 POP POP SWAP3 SWAP2 POP POP JUMP JUMPDEST PUSH2 0x70F DUP5 PUSH4 0x23B872DD PUSH1 0xE0 SHL DUP6 DUP6 DUP6 PUSH1 0x40 MLOAD PUSH1 0x24 ADD PUSH2 0x6AD SWAP4 SWAP3 SWAP2 SWAP1 PUSH2 0xFA1 JUMP JUMPDEST PUSH1 0x40 MLOAD PUSH1 0x20 DUP2 DUP4 SUB SUB DUP2 MSTORE SWAP1 PUSH1 0x40 MSTORE SWAP1 PUSH28 0xFFFFFFFFFFFFFFFFFFFFFFFFFFFFFFFFFFFFFFFFFFFFFFFFFFFFFFFF NOT AND PUSH1 0x20 DUP3 ADD DUP1 MLOAD PUSH28 0xFFFFFFFFFFFFFFFFFFFFFFFFFFFFFFFFFFFFFFFFFFFFFFFFFFFFFFFF DUP4 DUP2 DUP4 AND OR DUP4 MSTORE POP POP POP POP PUSH2 0x715 JUMP JUMPDEST POP POP POP POP JUMP JUMPDEST PUSH1 0x0 PUSH2 0x777 DUP3 PUSH1 0x40 MLOAD DUP1 PUSH1 0x40 ADD PUSH1 0x40 MSTORE DUP1 PUSH1 0x20 DUP2 MSTORE PUSH1 0x20 ADD PUSH32 0x5361666545524332303A206C6F772D6C6576656C2063616C6C206661696C6564 DUP2 MSTORE POP DUP6 PUSH20 0xFFFFFFFFFFFFFFFFFFFFFFFFFFFFFFFFFFFFFFFF AND PUSH2 0x7DC SWAP1 SWAP3 SWAP2 SWAP1 PUSH4 0xFFFFFFFF AND JUMP JUMPDEST SWAP1 POP PUSH1 0x0 DUP2 MLOAD GT ISZERO PUSH2 0x7D7 JUMPI DUP1 DUP1 PUSH1 0x20 ADD SWAP1 MLOAD DUP2 ADD SWAP1 PUSH2 0x797 SWAP2 SWAP1 PUSH2 0x1010 JUMP JUMPDEST PUSH2 0x7D6 JUMPI PUSH1 0x40 MLOAD PUSH32 0x8C379A000000000000000000000000000000000000000000000000000000000 DUP2 MSTORE PUSH1 0x4 ADD PUSH2 0x7CD SWAP1 PUSH2 0x10AF JUMP JUMPDEST PUSH1 0x40 MLOAD DUP1 SWAP2 SUB SWAP1 REVERT JUMPDEST JUMPDEST POP POP POP JUMP JUMPDEST PUSH1 0x60 PUSH2 0x7EB DUP5 DUP5 PUSH1 0x0 DUP6 PUSH2 0x7F4 JUMP JUMPDEST SWAP1 POP SWAP4 SWAP3 POP POP POP JUMP JUMPDEST PUSH1 0x60 DUP3 SELFBALANCE LT ISZERO PUSH2 0x839 JUMPI PUSH1 0x40 MLOAD PUSH32 0x8C379A000000000000000000000000000000000000000000000000000000000 DUP2 MSTORE PUSH1 0x4 ADD PUSH2 0x830 SWAP1 PUSH2 0x1141 JUMP JUMPDEST PUSH1 0x40 MLOAD DUP1 SWAP2 SUB SWAP1 REVERT JUMPDEST PUSH2 0x842 DUP6 PUSH2 0x908 JUMP JUMPDEST PUSH2 0x881 JUMPI PUSH1 0x40 MLOAD PUSH32 0x8C379A000000000000000000000000000000000000000000000000000000000 DUP2 MSTORE PUSH1 0x4 ADD PUSH2 0x878 SWAP1 PUSH2 0x11AD JUMP JUMPDEST PUSH1 0x40 MLOAD DUP1 SWAP2 SUB SWAP1 REVERT JUMPDEST PUSH1 0x0 DUP1 DUP7 PUSH20 0xFFFFFFFFFFFFFFFFFFFFFFFFFFFFFFFFFFFFFFFF AND DUP6 DUP8 PUSH1 0x40 MLOAD PUSH2 0x8AA SWAP2 SWAP1 PUSH2 0x123E JUMP JUMPDEST PUSH1 0x0 PUSH1 0x40 MLOAD DUP1 DUP4 SUB DUP2 DUP6 DUP8 GAS CALL SWAP3 POP POP POP RETURNDATASIZE DUP1 PUSH1 0x0 DUP2 EQ PUSH2 0x8E7 JUMPI PUSH1 0x40 MLOAD SWAP2 POP PUSH1 0x1F NOT PUSH1 0x3F RETURNDATASIZE ADD AND DUP3 ADD PUSH1 0x40 MSTORE RETURNDATASIZE DUP3 MSTORE RETURNDATASIZE PUSH1 0x0 PUSH1 0x20 DUP5 ADD RETURNDATACOPY PUSH2 0x8EC JUMP JUMPDEST PUSH1 0x60 SWAP2 POP JUMPDEST POP SWAP2 POP SWAP2 POP PUSH2 0x8FC DUP3 DUP3 DUP7 PUSH2 0x92B JUMP JUMPDEST SWAP3 POP POP POP SWAP5 SWAP4 POP POP POP POP JUMP JUMPDEST PUSH1 0x0 DUP1 DUP3 PUSH20 0xFFFFFFFFFFFFFFFFFFFFFFFFFFFFFFFFFFFFFFFF AND EXTCODESIZE GT SWAP1 POP SWAP2 SWAP1 POP JUMP JUMPDEST PUSH1 0x60 DUP4 ISZERO PUSH2 0x93B JUMPI DUP3 SWAP1 POP PUSH2 0x98B JUMP JUMPDEST PUSH1 0x0 DUP4 MLOAD GT ISZERO PUSH2 0x94E JUMPI DUP3 MLOAD DUP1 DUP5 PUSH1 0x20 ADD REVERT JUMPDEST DUP2 PUSH1 0x40 MLOAD PUSH32 0x8C379A000000000000000000000000000000000000000000000000000000000 DUP2 MSTORE PUSH1 0x4 ADD PUSH2 0x982 SWAP2 SWAP1 PUSH2 0x12AA JUMP JUMPDEST PUSH1 0x40 MLOAD DUP1 SWAP2 SUB SWAP1 REVERT JUMPDEST SWAP4 SWAP3 POP POP POP JUMP JUMPDEST PUSH1 0x0 DUP1 REVERT JUMPDEST PUSH1 0x0 DUP1 REVERT JUMPDEST PUSH1 0x0 PUSH20 0xFFFFFFFFFFFFFFFFFFFFFFFFFFFFFFFFFFFFFFFF DUP3 AND SWAP1 POP SWAP2 SWAP1 POP JUMP JUMPDEST PUSH1 0x0 PUSH2 0x9C7 DUP3 PUSH2 0x99C JUMP JUMPDEST SWAP1 POP SWAP2 SWAP1 POP JUMP JUMPDEST PUSH2 0x9D7 DUP2 PUSH2 0x9BC JUMP JUMPDEST DUP2 EQ PUSH2 0x9E2 JUMPI PUSH1 0x0 DUP1 REVERT JUMPDEST POP JUMP JUMPDEST PUSH1 0x0 DUP2 CALLDATALOAD SWAP1 POP PUSH2 0x9F4 DUP2 PUSH2 0x9CE JUMP JUMPDEST SWAP3 SWAP2 POP POP JUMP JUMPDEST PUSH1 0x0 PUSH1 0x20 DUP3 DUP5 SUB SLT ISZERO PUSH2 0xA10 JUMPI PUSH2 0xA0F PUSH2 0x992 JUMP JUMPDEST JUMPDEST PUSH1 0x0 PUSH2 0xA1E DUP5 DUP3 DUP6 ADD PUSH2 0x9E5 JUMP JUMPDEST SWAP2 POP POP SWAP3 SWAP2 POP POP JUMP JUMPDEST PUSH1 0x0 DUP2 SWAP1 POP SWAP2 SWAP1 POP JUMP JUMPDEST PUSH2 0xA3A DUP2 PUSH2 0xA27 JUMP JUMPDEST DUP3 MSTORE POP POP JUMP JUMPDEST PUSH1 0x0 PUSH1 0x20 DUP3 ADD SWAP1 POP PUSH2 0xA55 PUSH1 0x0 DUP4 ADD DUP5 PUSH2 0xA31 JUMP JUMPDEST SWAP3 SWAP2 POP POP JUMP JUMPDEST PUSH1 0x0 DUP1 REVERT JUMPDEST PUSH1 0x0 DUP1 REVERT JUMPDEST PUSH1 0x0 DUP1 REVERT JUMPDEST PUSH1 0x0 DUP1 DUP4 PUSH1 0x1F DUP5 ADD SLT PUSH2 0xA80 JUMPI PUSH2 0xA7F PUSH2 0xA5B JUMP JUMPDEST JUMPDEST DUP3 CALLDATALOAD SWAP1 POP PUSH8 0xFFFFFFFFFFFFFFFF DUP2 GT ISZERO PUSH2 0xA9D JUMPI PUSH2 0xA9C PUSH2 0xA60 JUMP JUMPDEST JUMPDEST PUSH1 0x20 DUP4 ADD SWAP2 POP DUP4 PUSH1 0x20 DUP3 MUL DUP4 ADD GT ISZERO PUSH2 0xAB9 JUMPI PUSH2 0xAB8 PUSH2 0xA65 JUMP JUMPDEST JUMPDEST SWAP3 POP SWAP3 SWAP1 POP JUMP JUMPDEST PUSH1 0x0 DUP1 DUP4 PUSH1 0x1F DUP5 ADD SLT PUSH2 0xAD6 JUMPI PUSH2 0xAD5 PUSH2 0xA5B JUMP JUMPDEST JUMPDEST DUP3 CALLDATALOAD SWAP1 POP PUSH8 0xFFFFFFFFFFFFFFFF DUP2 GT ISZERO PUSH2 0xAF3 JUMPI PUSH2 0xAF2 PUSH2 0xA60 JUMP JUMPDEST JUMPDEST PUSH1 0x20 DUP4 ADD SWAP2 POP DUP4 PUSH1 0x20 DUP3 MUL DUP4 ADD GT ISZERO PUSH2 0xB0F JUMPI PUSH2 0xB0E PUSH2 0xA65 JUMP JUMPDEST JUMPDEST SWAP3 POP SWAP3 SWAP1 POP JUMP JUMPDEST PUSH1 0x0 DUP1 PUSH1 0x0 DUP1 PUSH1 0x40 DUP6 DUP8 SUB SLT ISZERO PUSH2 0xB30 JUMPI PUSH2 0xB2F PUSH2 0x992 JUMP JUMPDEST JUMPDEST PUSH1 0x0 DUP6 ADD CALLDATALOAD PUSH8 0xFFFFFFFFFFFFFFFF DUP2 GT ISZERO PUSH2 0xB4E JUMPI PUSH2 0xB4D PUSH2 0x997 JUMP JUMPDEST JUMPDEST PUSH2 0xB5A DUP8 DUP3 DUP9 ADD PUSH2 0xA6A JUMP JUMPDEST SWAP5 POP SWAP5 POP POP PUSH1 0x20 DUP6 ADD CALLDATALOAD PUSH8 0xFFFFFFFFFFFFFFFF DUP2 GT ISZERO PUSH2 0xB7D JUMPI PUSH2 0xB7C PUSH2 0x997 JUMP JUMPDEST JUMPDEST PUSH2 0xB89 DUP8 DUP3 DUP9 ADD PUSH2 0xAC0 JUMP JUMPDEST SWAP3 POP SWAP3 POP POP SWAP3 SWAP6 SWAP2 SWAP5 POP SWAP3 POP JUMP JUMPDEST PUSH1 0x0 DUP2 SWAP1 POP SWAP2 SWAP1 POP JUMP JUMPDEST PUSH1 0x0 PUSH2 0xBBC PUSH2 0xBB7 PUSH2 0xBB2 DUP5 PUSH2 0x99C JUMP JUMPDEST PUSH2 0xB97 JUMP JUMPDEST PUSH2 0x99C JUMP JUMPDEST SWAP1 POP SWAP2 SWAP1 POP JUMP JUMPDEST PUSH1 0x0 PUSH2 0xBCE DUP3 PUSH2 0xBA1 JUMP JUMPDEST SWAP1 POP SWAP2 SWAP1 POP JUMP JUMPDEST PUSH1 0x0 PUSH2 0xBE0 DUP3 PUSH2 0xBC3 JUMP JUMPDEST SWAP1 POP SWAP2 SWAP1 POP JUMP JUMPDEST PUSH2 0xBF0 DUP2 PUSH2 0xBD5 JUMP JUMPDEST DUP3 MSTORE POP POP JUMP JUMPDEST PUSH1 0x0 PUSH1 0x20 DUP3 ADD SWAP1 POP PUSH2 0xC0B PUSH1 0x0 DUP4 ADD DUP5 PUSH2 0xBE7 JUMP JUMPDEST SWAP3 SWAP2 POP POP JUMP JUMPDEST PUSH1 0x0 DUP3 DUP3 MSTORE PUSH1 0x20 DUP3 ADD SWAP1 POP SWAP3 SWAP2 POP POP JUMP JUMPDEST PUSH32 0x52656C656173653A206E6565642073657420546F6B656E204164647265737300 PUSH1 0x0 DUP3 ADD MSTORE POP JUMP JUMPDEST PUSH1 0x0 PUSH2 0xC58 PUSH1 0x1F DUP4 PUSH2 0xC11 JUMP JUMPDEST SWAP2 POP PUSH2 0xC63 DUP3 PUSH2 0xC22 JUMP JUMPDEST PUSH1 0x20 DUP3 ADD SWAP1 POP SWAP2 SWAP1 POP JUMP JUMPDEST PUSH1 0x0 PUSH1 0x20 DUP3 ADD SWAP1 POP DUP2 DUP2 SUB PUSH1 0x0 DUP4 ADD MSTORE PUSH2 0xC87 DUP2 PUSH2 0xC4B JUMP JUMPDEST SWAP1 POP SWAP2 SWAP1 POP JUMP JUMPDEST PUSH32 0x506C6561736520636865636B2074686520646174612C20746865206E65777320 PUSH1 0x0 DUP3 ADD MSTORE PUSH32 0x494420616E6420646973747269627574696F6E207175616E7469747920617265 PUSH1 0x20 DUP3 ADD MSTORE PUSH32 0x20696E636F6E73697374656E7400000000000000000000000000000000000000 PUSH1 0x40 DUP3 ADD MSTORE POP JUMP JUMPDEST PUSH1 0x0 PUSH2 0xD10 PUSH1 0x4D DUP4 PUSH2 0xC11 JUMP JUMPDEST SWAP2 POP PUSH2 0xD1B DUP3 PUSH2 0xC8E JUMP JUMPDEST PUSH1 0x60 DUP3 ADD SWAP1 POP SWAP2 SWAP1 POP JUMP JUMPDEST PUSH1 0x0 PUSH1 0x20 DUP3 ADD SWAP1 POP DUP2 DUP2 SUB PUSH1 0x0 DUP4 ADD MSTORE PUSH2 0xD3F DUP2 PUSH2 0xD03 JUMP JUMPDEST SWAP1 POP SWAP2 SWAP1 POP JUMP JUMPDEST PUSH32 0x4E487B7100000000000000000000000000000000000000000000000000000000 PUSH1 0x0 MSTORE PUSH1 0x32 PUSH1 0x4 MSTORE PUSH1 0x24 PUSH1 0x0 REVERT JUMPDEST PUSH32 0x4E487B7100000000000000000000000000000000000000000000000000000000 PUSH1 0x0 MSTORE PUSH1 0x11 PUSH1 0x4 MSTORE PUSH1 0x24 PUSH1 0x0 REVERT JUMPDEST PUSH1 0x0 PUSH2 0xDAF DUP3 PUSH2 0xA27 JUMP JUMPDEST SWAP2 POP PUSH32 0xFFFFFFFFFFFFFFFFFFFFFFFFFFFFFFFFFFFFFFFFFFFFFFFFFFFFFFFFFFFFFFFF DUP3 SUB PUSH2 0xDE1 JUMPI PUSH2 0xDE0 PUSH2 0xD75 JUMP JUMPDEST JUMPDEST PUSH1 0x1 DUP3 ADD SWAP1 POP SWAP2 SWAP1 POP JUMP JUMPDEST PUSH32 0x546865206E756D626572206F66206169722064726F7073206578636565647320 PUSH1 0x0 DUP3 ADD MSTORE PUSH32 0x746865206461696C792072656C6561736520616D6F756E740000000000000000 PUSH1 0x20 DUP3 ADD MSTORE POP JUMP JUMPDEST PUSH1 0x0 PUSH2 0xE48 PUSH1 0x38 DUP4 PUSH2 0xC11 JUMP JUMPDEST SWAP2 POP PUSH2 0xE53 DUP3 PUSH2 0xDEC JUMP JUMPDEST PUSH1 0x40 DUP3 ADD SWAP1 POP SWAP2 SWAP1 POP JUMP JUMPDEST PUSH1 0x0 PUSH1 0x20 DUP3 ADD SWAP1 POP DUP2 DUP2 SUB PUSH1 0x0 DUP4 ADD MSTORE PUSH2 0xE77 DUP2 PUSH2 0xE3B JUMP JUMPDEST SWAP1 POP SWAP2 SWAP1 POP JUMP JUMPDEST PUSH1 0x0 PUSH2 0xE89 DUP3 PUSH2 0xA27 JUMP JUMPDEST SWAP2 POP PUSH2 0xE94 DUP4 PUSH2 0xA27 JUMP JUMPDEST SWAP3 POP DUP3 DUP3 ADD SWAP1 POP DUP1 DUP3 GT ISZERO PUSH2 0xEAC JUMPI PUSH2 0xEAB PUSH2 0xD75 JUMP JUMPDEST JUMPDEST SWAP3 SWAP2 POP POP JUMP JUMPDEST PUSH2 0xEBB DUP2 PUSH2 0x9BC JUMP JUMPDEST DUP3 MSTORE POP POP JUMP JUMPDEST PUSH1 0x0 PUSH1 0x20 DUP3 ADD SWAP1 POP PUSH2 0xED6 PUSH1 0x0 DUP4 ADD DUP5 PUSH2 0xEB2 JUMP JUMPDEST SWAP3 SWAP2 POP POP JUMP JUMPDEST PUSH2 0xEE5 DUP2 PUSH2 0xA27 JUMP JUMPDEST DUP2 EQ PUSH2 0xEF0 JUMPI PUSH1 0x0 DUP1 REVERT JUMPDEST POP JUMP JUMPDEST PUSH1 0x0 DUP2 MLOAD SWAP1 POP PUSH2 0xF02 DUP2 PUSH2 0xEDC JUMP JUMPDEST SWAP3 SWAP2 POP POP JUMP JUMPDEST PUSH1 0x0 PUSH1 0x20 DUP3 DUP5 SUB SLT ISZERO PUSH2 0xF1E JUMPI PUSH2 0xF1D PUSH2 0x992 JUMP JUMPDEST JUMPDEST PUSH1 0x0 PUSH2 0xF2C DUP5 DUP3 DUP6 ADD PUSH2 0xEF3 JUMP JUMPDEST SWAP2 POP POP SWAP3 SWAP2 POP POP JUMP JUMPDEST PUSH32 0x536166654D6174683A206164646974696F6E206F766572666C6F770000000000 PUSH1 0x0 DUP3 ADD MSTORE POP JUMP JUMPDEST PUSH1 0x0 PUSH2 0xF6B PUSH1 0x1B DUP4 PUSH2 0xC11 JUMP JUMPDEST SWAP2 POP PUSH2 0xF76 DUP3 PUSH2 0xF35 JUMP JUMPDEST PUSH1 0x20 DUP3 ADD SWAP1 POP SWAP2 SWAP1 POP JUMP JUMPDEST PUSH1 0x0 PUSH1 0x20 DUP3 ADD SWAP1 POP DUP2 DUP2 SUB PUSH1 0x0 DUP4 ADD MSTORE PUSH2 0xF9A DUP2 PUSH2 0xF5E JUMP JUMPDEST SWAP1 POP SWAP2 SWAP1 POP JUMP JUMPDEST PUSH1 0x0 PUSH1 0x60 DUP3 ADD SWAP1 POP PUSH2 0xFB6 PUSH1 0x0 DUP4 ADD DUP7 PUSH2 0xEB2 JUMP JUMPDEST PUSH2 0xFC3 PUSH1 0x20 DUP4 ADD DUP6 PUSH2 0xEB2 JUMP JUMPDEST PUSH2 0xFD0 PUSH1 0x40 DUP4 ADD DUP5 PUSH2 0xA31 JUMP JUMPDEST SWAP5 SWAP4 POP POP POP POP JUMP JUMPDEST PUSH1 0x0 DUP2 ISZERO ISZERO SWAP1 POP SWAP2 SWAP1 POP JUMP JUMPDEST PUSH2 0xFED DUP2 PUSH2 0xFD8 JUMP JUMPDEST DUP2 EQ PUSH2 0xFF8 JUMPI PUSH1 0x0 DUP1 REVERT JUMPDEST POP JUMP JUMPDEST PUSH1 0x0 DUP2 MLOAD SWAP1 POP PUSH2 0x100A DUP2 PUSH2 0xFE4 JUMP JUMPDEST SWAP3 SWAP2 POP POP JUMP JUMPDEST PUSH1 0x0 PUSH1 0x20 DUP3 DUP5 SUB SLT ISZERO PUSH2 0x1026 JUMPI PUSH2 0x1025 PUSH2 0x992 JUMP JUMPDEST JUMPDEST PUSH1 0x0 PUSH2 0x1034 DUP5 DUP3 DUP6 ADD PUSH2 0xFFB JUMP JUMPDEST SWAP2 POP POP SWAP3 SWAP2 POP POP JUMP JUMPDEST PUSH32 0x5361666545524332303A204552433230206F7065726174696F6E20646964206E PUSH1 0x0 DUP3 ADD MSTORE PUSH32 0x6F74207375636365656400000000000000000000000000000000000000000000 PUSH1 0x20 DUP3 ADD MSTORE POP JUMP JUMPDEST PUSH1 0x0 PUSH2 0x1099 PUSH1 0x2A DUP4 PUSH2 0xC11 JUMP JUMPDEST SWAP2 POP PUSH2 0x10A4 DUP3 PUSH2 0x103D JUMP JUMPDEST PUSH1 0x40 DUP3 ADD SWAP1 POP SWAP2 SWAP1 POP JUMP JUMPDEST PUSH1 0x0 PUSH1 0x20 DUP3 ADD SWAP1 POP DUP2 DUP2 SUB PUSH1 0x0 DUP4 ADD MSTORE PUSH2 0x10C8 DUP2 PUSH2 0x108C JUMP JUMPDEST SWAP1 POP SWAP2 SWAP1 POP JUMP JUMPDEST PUSH32 0x416464726573733A20696E73756666696369656E742062616C616E636520666F PUSH1 0x0 DUP3 ADD MSTORE PUSH32 0x722063616C6C0000000000000000000000000000000000000000000000000000 PUSH1 0x20 DUP3 ADD MSTORE POP JUMP JUMPDEST PUSH1 0x0 PUSH2 0x112B PUSH1 0x26 DUP4 PUSH2 0xC11 JUMP JUMPDEST SWAP2 POP PUSH2 0x1136 DUP3 PUSH2 0x10CF JUMP JUMPDEST PUSH1 0x40 DUP3 ADD SWAP1 POP SWAP2 SWAP1 POP JUMP JUMPDEST PUSH1 0x0 PUSH1 0x20 DUP3 ADD SWAP1 POP DUP2 DUP2 SUB PUSH1 0x0 DUP4 ADD MSTORE PUSH2 0x115A DUP2 PUSH2 0x111E JUMP JUMPDEST SWAP1 POP SWAP2 SWAP1 POP JUMP JUMPDEST PUSH32 0x416464726573733A2063616C6C20746F206E6F6E2D636F6E7472616374000000 PUSH1 0x0 DUP3 ADD MSTORE POP JUMP JUMPDEST PUSH1 0x0 PUSH2 0x1197 PUSH1 0x1D DUP4 PUSH2 0xC11 JUMP JUMPDEST SWAP2 POP PUSH2 0x11A2 DUP3 PUSH2 0x1161 JUMP JUMPDEST PUSH1 0x20 DUP3 ADD SWAP1 POP SWAP2 SWAP1 POP JUMP JUMPDEST PUSH1 0x0 PUSH1 0x20 DUP3 ADD SWAP1 POP DUP2 DUP2 SUB PUSH1 0x0 DUP4 ADD MSTORE PUSH2 0x11C6 DUP2 PUSH2 0x118A JUMP JUMPDEST SWAP1 POP SWAP2 SWAP1 POP JUMP JUMPDEST PUSH1 0x0 DUP2 MLOAD SWAP1 POP SWAP2 SWAP1 POP JUMP JUMPDEST PUSH1 0x0 DUP2 SWAP1 POP SWAP3 SWAP2 POP POP JUMP JUMPDEST PUSH1 0x0 JUMPDEST DUP4 DUP2 LT ISZERO PUSH2 0x1201 JUMPI DUP1 DUP3 ADD MLOAD DUP2 DUP5 ADD MSTORE PUSH1 0x20 DUP2 ADD SWAP1 POP PUSH2 0x11E6 JUMP JUMPDEST PUSH1 0x0 DUP5 DUP5 ADD MSTORE POP POP POP POP JUMP JUMPDEST PUSH1 0x0 PUSH2 0x1218 DUP3 PUSH2 0x11CD JUMP JUMPDEST PUSH2 0x1222 DUP2 DUP6 PUSH2 0x11D8 JUMP JUMPDEST SWAP4 POP PUSH2 0x1232 DUP2 DUP6 PUSH1 0x20 DUP7 ADD PUSH2 0x11E3 JUMP JUMPDEST DUP1 DUP5 ADD SWAP2 POP POP SWAP3 SWAP2 POP POP JUMP JUMPDEST PUSH1 0x0 PUSH2 0x124A DUP3 DUP5 PUSH2 0x120D JUMP JUMPDEST SWAP2 POP DUP2 SWAP1 POP SWAP3 SWAP2 POP POP JUMP JUMPDEST PUSH1 0x0 DUP2 MLOAD SWAP1 POP SWAP2 SWAP1 POP JUMP JUMPDEST PUSH1 0x0 PUSH1 0x1F NOT PUSH1 0x1F DUP4 ADD AND SWAP1 POP SWAP2 SWAP1 POP JUMP JUMPDEST PUSH1 0x0 PUSH2 0x127C DUP3 PUSH2 0x1255 JUMP JUMPDEST PUSH2 0x1286 DUP2 DUP6 PUSH2 0xC11 JUMP JUMPDEST SWAP4 POP PUSH2 0x1296 DUP2 DUP6 PUSH1 0x20 DUP7 ADD PUSH2 0x11E3 JUMP JUMPDEST PUSH2 0x129F DUP2 PUSH2 0x1260 JUMP JUMPDEST DUP5 ADD SWAP2 POP POP SWAP3 SWAP2 POP POP JUMP JUMPDEST PUSH1 0x0 PUSH1 0x20 DUP3 ADD SWAP1 POP DUP2 DUP2 SUB PUSH1 0x0 DUP4 ADD MSTORE PUSH2 0x12C4 DUP2 DUP5 PUSH2 0x1271 JUMP JUMPDEST SWAP1 POP SWAP3 SWAP2 POP POP JUMP INVALID LOG2 PUSH5 0x6970667358 0x22 SLT KECCAK256 0xE3 AND DUP1 0xDC 0x1E 0xC0 SWAP1 0xCD 0xEB SWAP15 0xC6 PUSH15 0x71C0F689141F3FE6BAFBDF54FD5295 0xFC AND DUP6 CHAINID PUSH9 0x64736F6C6343000813 STOP CALLER "
				},
				"gasEstimates": {
					"creation": {
						"codeDepositCost": "973200",
						"executionCost": "47386",
						"totalCost": "1020586"
					},
					"external": {
						"changeOwner(address)": "26936",
						"decimals()": "2460",
						"distributionToSpecify(address[],uint256[])": "infinite",
						"getTotalReleased()": "2482",
						"setTokenAddress(address)": "26893",
						"token()": "infinite",
						"tokenBalance()": "infinite"
					}
				},
				"methodIdentifiers": {
					"changeOwner(address)": "a6f9dae1",
					"decimals()": "313ce567",
					"distributionToSpecify(address[],uint256[])": "5459b8a3",
					"getTotalReleased()": "4b14c0ef",
					"setTokenAddress(address)": "26a4e8d2",
					"token()": "fc0c546a",
					"tokenBalance()": "9e1a4d19"
				}
			},
			"storageLayout": {
				"storage": [
					{
						"astId": 751,
						"contract": "my_contract/10.Rewards.sol:OracleRewards",
						"label": "_token",
						"offset": 0,
						"slot": "0",
						"type": "t_contract(IERC20)75"
					},
					{
						"astId": 754,
						"contract": "my_contract/10.Rewards.sol:OracleRewards",
						"label": "_decimals",
						"offset": 0,
						"slot": "1",
						"type": "t_uint256"
					},
					{
						"astId": 756,
						"contract": "my_contract/10.Rewards.sol:OracleRewards",
						"label": "_totalReleased",
						"offset": 0,
						"slot": "2",
						"type": "t_uint256"
					},
					{
						"astId": 758,
						"contract": "my_contract/10.Rewards.sol:OracleRewards",
						"label": "_owner",
						"offset": 0,
						"slot": "3",
						"type": "t_address"
					}
				],
				"types": {
					"t_address": {
						"encoding": "inplace",
						"label": "address",
						"numberOfBytes": "20"
					},
					"t_contract(IERC20)75": {
						"encoding": "inplace",
						"label": "contract IERC20",
						"numberOfBytes": "20"
					},
					"t_uint256": {
						"encoding": "inplace",
						"label": "uint256",
						"numberOfBytes": "32"
					}
				}
			},
			"userdoc": {
				"kind": "user",
				"methods": {},
				"version": 1
			}
		}
	}
}