{
	"challeng/my_contract/masterPool.sol": {
		"MasterPool": {
			"abi": [
				{
					"inputs": [],
					"stateMutability": "nonpayable",
					"type": "constructor"
				},
				{
					"inputs": [
						{
							"internalType": "address",
							"name": "newOwner",
							"type": "address"
						}
					],
					"name": "changeOwner",
					"outputs": [],
					"stateMutability": "nonpayable",
					"type": "function"
				},
				{
					"inputs": [],
					"name": "decimals",
					"outputs": [
						{
							"internalType": "uint256",
							"name": "",
							"type": "uint256"
						}
					],
					"stateMutability": "view",
					"type": "function"
				},
				{
					"inputs": [
						{
							"internalType": "address[]",
							"name": "recipients",
							"type": "address[]"
						},
						{
							"internalType": "uint256[]",
							"name": "values",
							"type": "uint256[]"
						}
					],
					"name": "distributionToSpecify",
					"outputs": [],
					"stateMutability": "nonpayable",
					"type": "function"
				},
				{
					"inputs": [],
					"name": "getContractAddrss",
					"outputs": [
						{
							"internalType": "address",
							"name": "",
							"type": "address"
						}
					],
					"stateMutability": "view",
					"type": "function"
				},
				{
					"inputs": [],
					"name": "getLockContractAddress",
					"outputs": [
						{
							"internalType": "address",
							"name": "",
							"type": "address"
						}
					],
					"stateMutability": "view",
					"type": "function"
				},
				{
					"inputs": [],
					"name": "getTimestamp",
					"outputs": [
						{
							"internalType": "uint256",
							"name": "",
							"type": "uint256"
						}
					],
					"stateMutability": "view",
					"type": "function"
				},
				{
					"inputs": [],
					"name": "getTotalReleased",
					"outputs": [
						{
							"internalType": "uint256",
							"name": "",
							"type": "uint256"
						}
					],
					"stateMutability": "view",
					"type": "function"
				},
				{
					"inputs": [
						{
							"internalType": "string[]",
							"name": "themeId",
							"type": "string[]"
						},
						{
							"internalType": "uint256[]",
							"name": "values",
							"type": "uint256[]"
						}
					],
					"name": "sendMasterTokenLock",
					"outputs": [],
					"stateMutability": "nonpayable",
					"type": "function"
				},
				{
					"inputs": [
						{
							"internalType": "address",
							"name": "contractAddrss",
							"type": "address"
						}
					],
					"name": "setChallengContract",
					"outputs": [],
					"stateMutability": "nonpayable",
					"type": "function"
				},
				{
					"inputs": [
						{
							"internalType": "address",
							"name": "lockContractAddress",
							"type": "address"
						}
					],
					"name": "setLockContractAddress",
					"outputs": [],
					"stateMutability": "nonpayable",
					"type": "function"
				},
				{
					"inputs": [
						{
							"internalType": "address",
							"name": "tokenAddress",
							"type": "address"
						}
					],
					"name": "setTokenAddress",
					"outputs": [],
					"stateMutability": "nonpayable",
					"type": "function"
				},
				{
					"inputs": [],
					"name": "token",
					"outputs": [
						{
							"internalType": "contract IERC20",
							"name": "",
							"type": "address"
						}
					],
					"stateMutability": "view",
					"type": "function"
				},
				{
					"inputs": [],
					"name": "tokenBalance",
					"outputs": [
						{
							"internalType": "uint256",
							"name": "",
							"type": "uint256"
						}
					],
					"stateMutability": "view",
					"type": "function"
				}
			],
			"devdoc": {
				"details": "The Ownable contract has an owner address, and provides basic authorization control functions, this simplifies the implementation of \"user permissions\".",
				"kind": "dev",
				"methods": {
					"token()": {
						"details": "Returns the token being held."
					}
				},
				"title": "Ownable",
				"version": 1
			},
			"evm": {
				"assembly": "    /* \"challeng/my_contract/masterPool.sol\":19520:24280  contract MasterPool   {... */\n  mstore(0x40, 0x80)\n    /* \"challeng/my_contract/masterPool.sol\":19847:19849  18 */\n  0x12\n    /* \"challeng/my_contract/masterPool.sol\":19819:19849  uint256 private _decimals = 18 */\n  0x03\n  sstore\n    /* \"challeng/my_contract/masterPool.sol\":19979:20041  constructor() {... */\n  callvalue\n  dup1\n  iszero\n  tag_1\n  jumpi\n  0x00\n  dup1\n  revert\ntag_1:\n  pop\n    /* \"challeng/my_contract/masterPool.sol\":20013:20023  msg.sender */\n  caller\n    /* \"challeng/my_contract/masterPool.sol\":20004:20010  _owner */\n  0x05\n  0x00\n    /* \"challeng/my_contract/masterPool.sol\":20004:20023  _owner = msg.sender */\n  0x0100\n  exp\n  dup2\n  sload\n  dup2\n  0xffffffffffffffffffffffffffffffffffffffff\n  mul\n  not\n  and\n  swap1\n  dup4\n  0xffffffffffffffffffffffffffffffffffffffff\n  and\n  mul\n  or\n  swap1\n  sstore\n  pop\n    /* \"challeng/my_contract/masterPool.sol\":19520:24280  contract MasterPool   {... */\n  dataSize(sub_0)\n  dup1\n  dataOffset(sub_0)\n  0x00\n  codecopy\n  0x00\n  return\nstop\n\nsub_0: assembly {\n        /* \"challeng/my_contract/masterPool.sol\":19520:24280  contract MasterPool   {... */\n      mstore(0x40, 0x80)\n      callvalue\n      dup1\n      iszero\n      tag_1\n      jumpi\n      0x00\n      dup1\n      revert\n    tag_1:\n      pop\n      jumpi(tag_2, lt(calldatasize, 0x04))\n      shr(0xe0, calldataload(0x00))\n      dup1\n      0x5459b8a3\n      gt\n      tag_16\n      jumpi\n      dup1\n      0xa6f9dae1\n      gt\n      tag_17\n      jumpi\n      dup1\n      0xa6f9dae1\n      eq\n      tag_12\n      jumpi\n      dup1\n      0xc4529e37\n      eq\n      tag_13\n      jumpi\n      dup1\n      0xc52c31fa\n      eq\n      tag_14\n      jumpi\n      dup1\n      0xfc0c546a\n      eq\n      tag_15\n      jumpi\n      jump(tag_2)\n    tag_17:\n      dup1\n      0x5459b8a3\n      eq\n      tag_9\n      jumpi\n      dup1\n      0x9e1a4d19\n      eq\n      tag_10\n      jumpi\n      dup1\n      0xa39865e7\n      eq\n      tag_11\n      jumpi\n      jump(tag_2)\n    tag_16:\n      dup1\n      0x0af8668f\n      eq\n      tag_3\n      jumpi\n      dup1\n      0x188ec356\n      eq\n      tag_4\n      jumpi\n      dup1\n      0x26a4e8d2\n      eq\n      tag_5\n      jumpi\n      dup1\n      0x313ce567\n      eq\n      tag_6\n      jumpi\n      dup1\n      0x47a58626\n      eq\n      tag_7\n      jumpi\n      dup1\n      0x4b14c0ef\n      eq\n      tag_8\n      jumpi\n    tag_2:\n      0x00\n      dup1\n      revert\n        /* \"challeng/my_contract/masterPool.sol\":22024:23316  function sendMasterTokenLock(string[] memory themeId,uint256[] memory values) public  onlyOwner  (){... */\n    tag_3:\n      tag_18\n      0x04\n      dup1\n      calldatasize\n      sub\n      dup2\n      add\n      swap1\n      tag_19\n      swap2\n      swap1\n      tag_20\n      jump\t// in\n    tag_19:\n      tag_21\n      jump\t// in\n    tag_18:\n      stop\n        /* \"challeng/my_contract/masterPool.sol\":21794:21897  function getTimestamp() public view virtual returns (uint256) {... */\n    tag_4:\n      tag_22\n      tag_23\n      jump\t// in\n    tag_22:\n      mload(0x40)\n      tag_24\n      swap2\n      swap1\n      tag_25\n      jump\t// in\n    tag_24:\n      mload(0x40)\n      dup1\n      swap2\n      sub\n      swap1\n      return\n        /* \"challeng/my_contract/masterPool.sol\":20311:20434  function setTokenAddress(address tokenAddress ) public virtual   onlyOwner {... */\n    tag_5:\n      tag_26\n      0x04\n      dup1\n      calldatasize\n      sub\n      dup2\n      add\n      swap1\n      tag_27\n      swap2\n      swap1\n      tag_28\n      jump\t// in\n    tag_27:\n      tag_29\n      jump\t// in\n    tag_26:\n      stop\n        /* \"challeng/my_contract/masterPool.sol\":20715:20808  function decimals() public view virtual returns (uint256) {... */\n    tag_6:\n      tag_30\n      tag_31\n      jump\t// in\n    tag_30:\n      mload(0x40)\n      tag_32\n      swap2\n      swap1\n      tag_25\n      jump\t// in\n    tag_32:\n      mload(0x40)\n      dup1\n      swap2\n      sub\n      swap1\n      return\n        /* \"challeng/my_contract/masterPool.sol\":21367:21465  function getContractAddrss() public view returns(address){... */\n    tag_7:\n      tag_33\n      tag_34\n      jump\t// in\n    tag_33:\n      mload(0x40)\n      tag_35\n      swap2\n      swap1\n      tag_36\n      jump\t// in\n    tag_35:\n      mload(0x40)\n      dup1\n      swap2\n      sub\n      swap1\n      return\n        /* \"challeng/my_contract/masterPool.sol\":20819:20925  function getTotalReleased() public view virtual returns (uint256) {... */\n    tag_8:\n      tag_37\n      tag_38\n      jump\t// in\n    tag_37:\n      mload(0x40)\n      tag_39\n      swap2\n      swap1\n      tag_25\n      jump\t// in\n    tag_39:\n      mload(0x40)\n      dup1\n      swap2\n      sub\n      swap1\n      return\n        /* \"challeng/my_contract/masterPool.sol\":23355:24269  function  distributionToSpecify(address[] calldata recipients, uint256[] calldata values) public virtual {... */\n    tag_9:\n      tag_40\n      0x04\n      dup1\n      calldatasize\n      sub\n      dup2\n      add\n      swap1\n      tag_41\n      swap2\n      swap1\n      tag_42\n      jump\t// in\n    tag_41:\n      tag_43\n      jump\t// in\n    tag_40:\n      stop\n        /* \"challeng/my_contract/masterPool.sol\":20937:21170  function tokenBalance() public view virtual returns (uint256) {... */\n    tag_10:\n      tag_44\n      tag_45\n      jump\t// in\n    tag_44:\n      mload(0x40)\n      tag_46\n      swap2\n      swap1\n      tag_25\n      jump\t// in\n    tag_46:\n      mload(0x40)\n      dup1\n      swap2\n      sub\n      swap1\n      return\n        /* \"challeng/my_contract/masterPool.sol\":21678:21786  function getLockContractAddress() public view returns(address){... */\n    tag_11:\n      tag_47\n      tag_48\n      jump\t// in\n    tag_47:\n      mload(0x40)\n      tag_49\n      swap2\n      swap1\n      tag_36\n      jump\t// in\n    tag_49:\n      mload(0x40)\n      dup1\n      swap2\n      sub\n      swap1\n      return\n        /* \"challeng/my_contract/masterPool.sol\":20452:20544  function changeOwner(address newOwner) public onlyOwner {... */\n    tag_12:\n      tag_50\n      0x04\n      dup1\n      calldatasize\n      sub\n      dup2\n      add\n      swap1\n      tag_51\n      swap2\n      swap1\n      tag_28\n      jump\t// in\n    tag_51:\n      tag_52\n      jump\t// in\n    tag_50:\n      stop\n        /* \"challeng/my_contract/masterPool.sol\":21505:21634  function setLockContractAddress(address lockContractAddress) public {... */\n    tag_13:\n      tag_53\n      0x04\n      dup1\n      calldatasize\n      sub\n      dup2\n      add\n      swap1\n      tag_54\n      swap2\n      swap1\n      tag_28\n      jump\t// in\n    tag_54:\n      tag_55\n      jump\t// in\n    tag_53:\n      stop\n        /* \"challeng/my_contract/masterPool.sol\":21212:21323  function setChallengContract(address contractAddrss) public {... */\n    tag_14:\n      tag_56\n      0x04\n      dup1\n      calldatasize\n      sub\n      dup2\n      add\n      swap1\n      tag_57\n      swap2\n      swap1\n      tag_28\n      jump\t// in\n    tag_57:\n      tag_58\n      jump\t// in\n    tag_56:\n      stop\n        /* \"challeng/my_contract/masterPool.sol\":20615:20701  function token() public view virtual returns (IERC20) {... */\n    tag_15:\n      tag_59\n      tag_60\n      jump\t// in\n    tag_59:\n      mload(0x40)\n      tag_61\n      swap2\n      swap1\n      tag_62\n      jump\t// in\n    tag_61:\n      mload(0x40)\n      dup1\n      swap2\n      sub\n      swap1\n      return\n        /* \"challeng/my_contract/masterPool.sol\":22024:23316  function sendMasterTokenLock(string[] memory themeId,uint256[] memory values) public  onlyOwner  (){... */\n    tag_21:\n        /* \"challeng/my_contract/masterPool.sol\":20190:20196  _owner */\n      0x05\n      0x00\n      swap1\n      sload\n      swap1\n      0x0100\n      exp\n      swap1\n      div\n      0xffffffffffffffffffffffffffffffffffffffff\n      and\n        /* \"challeng/my_contract/masterPool.sol\":20176:20196  msg.sender == _owner */\n      0xffffffffffffffffffffffffffffffffffffffff\n      and\n        /* \"challeng/my_contract/masterPool.sol\":20176:20186  msg.sender */\n      caller\n        /* \"challeng/my_contract/masterPool.sol\":20176:20196  msg.sender == _owner */\n      0xffffffffffffffffffffffffffffffffffffffff\n      and\n      eq\n        /* \"challeng/my_contract/masterPool.sol\":20168:20197  require(msg.sender == _owner) */\n      tag_64\n      jumpi\n      0x00\n      dup1\n      revert\n    tag_64:\n        /* \"challeng/my_contract/masterPool.sol\":22160:22166  values */\n      dup1\n        /* \"challeng/my_contract/masterPool.sol\":22160:22173  values.length */\n      mload\n        /* \"challeng/my_contract/masterPool.sol\":22142:22149  themeId */\n      dup3\n        /* \"challeng/my_contract/masterPool.sol\":22142:22156  themeId.length */\n      mload\n        /* \"challeng/my_contract/masterPool.sol\":22142:22173  themeId.length == values.length */\n      eq\n        /* \"challeng/my_contract/masterPool.sol\":22134:22254  require(themeId.length == values.length,\"Please check the data, the news ID and distribution quantity are inconsistent\") */\n      tag_66\n      jumpi\n      mload(0x40)\n      0x08c379a000000000000000000000000000000000000000000000000000000000\n      dup2\n      mstore\n      0x04\n      add\n      tag_67\n      swap1\n      tag_68\n      jump\t// in\n    tag_67:\n      mload(0x40)\n      dup1\n      swap2\n      sub\n      swap1\n      revert\n    tag_66:\n        /* \"challeng/my_contract/masterPool.sol\":22301:22302  0 */\n      0x00\n        /* \"challeng/my_contract/masterPool.sol\":22273:22303  address(token()) != address(0) */\n      0xffffffffffffffffffffffffffffffffffffffff\n      and\n        /* \"challeng/my_contract/masterPool.sol\":22281:22288  token() */\n      tag_69\n        /* \"challeng/my_contract/masterPool.sol\":22281:22286  token */\n      tag_60\n        /* \"challeng/my_contract/masterPool.sol\":22281:22288  token() */\n      jump\t// in\n    tag_69:\n        /* \"challeng/my_contract/masterPool.sol\":22273:22303  address(token()) != address(0) */\n      0xffffffffffffffffffffffffffffffffffffffff\n      and\n      sub\n        /* \"challeng/my_contract/masterPool.sol\":22265:22340  require(address(token()) != address(0) , \"Release: need set Token Address\") */\n      tag_70\n      jumpi\n      mload(0x40)\n      0x08c379a000000000000000000000000000000000000000000000000000000000\n      dup2\n      mstore\n      0x04\n      add\n      tag_71\n      swap1\n      tag_72\n      jump\t// in\n    tag_71:\n      mload(0x40)\n      dup1\n      swap2\n      sub\n      swap1\n      revert\n    tag_70:\n        /* \"challeng/my_contract/masterPool.sol\":22399:22400  0 */\n      0x00\n        /* \"challeng/my_contract/masterPool.sol\":22359:22401  address(getContractAddrss()) != address(0) */\n      0xffffffffffffffffffffffffffffffffffffffff\n      and\n        /* \"challeng/my_contract/masterPool.sol\":22367:22386  getContractAddrss() */\n      tag_73\n        /* \"challeng/my_contract/masterPool.sol\":22367:22384  getContractAddrss */\n      tag_34\n        /* \"challeng/my_contract/masterPool.sol\":22367:22386  getContractAddrss() */\n      jump\t// in\n    tag_73:\n        /* \"challeng/my_contract/masterPool.sol\":22359:22401  address(getContractAddrss()) != address(0) */\n      0xffffffffffffffffffffffffffffffffffffffff\n      and\n      sub\n        /* \"challeng/my_contract/masterPool.sol\":22351:22450  require(address(getContractAddrss()) != address(0) , \"Release: need set Challeng Contract Address\") */\n      tag_74\n      jumpi\n      mload(0x40)\n      0x08c379a000000000000000000000000000000000000000000000000000000000\n      dup2\n      mstore\n      0x04\n      add\n      tag_75\n      swap1\n      tag_76\n      jump\t// in\n    tag_75:\n      mload(0x40)\n      dup1\n      swap2\n      sub\n      swap1\n      revert\n    tag_74:\n        /* \"challeng/my_contract/masterPool.sol\":22463:22480  uint256 sendTotal */\n      0x00\n        /* \"challeng/my_contract/masterPool.sol\":22499:22508  uint256 i */\n      dup1\n        /* \"challeng/my_contract/masterPool.sol\":22495:22591  for(uint256 i=0;i<values.length;i++){... */\n    tag_77:\n        /* \"challeng/my_contract/masterPool.sol\":22513:22519  values */\n      dup3\n        /* \"challeng/my_contract/masterPool.sol\":22513:22526  values.length */\n      mload\n        /* \"challeng/my_contract/masterPool.sol\":22511:22512  i */\n      dup2\n        /* \"challeng/my_contract/masterPool.sol\":22511:22526  i<values.length */\n      lt\n        /* \"challeng/my_contract/masterPool.sol\":22495:22591  for(uint256 i=0;i<values.length;i++){... */\n      iszero\n      tag_78\n      jumpi\n        /* \"challeng/my_contract/masterPool.sol\":22570:22576  values */\n      dup3\n        /* \"challeng/my_contract/masterPool.sol\":22577:22578  i */\n      dup2\n        /* \"challeng/my_contract/masterPool.sol\":22570:22579  values[i] */\n      dup2\n      mload\n      dup2\n      lt\n      tag_80\n      jumpi\n      tag_81\n      tag_82\n      jump\t// in\n    tag_81:\n    tag_80:\n      0x20\n      mul\n      0x20\n      add\n      add\n      mload\n        /* \"challeng/my_contract/masterPool.sol\":22558:22567  sendTotal */\n      dup3\n        /* \"challeng/my_contract/masterPool.sol\":22558:22579  sendTotal + values[i] */\n      tag_83\n      swap2\n      swap1\n      tag_84\n      jump\t// in\n    tag_83:\n        /* \"challeng/my_contract/masterPool.sol\":22546:22579  sendTotal = sendTotal + values[i] */\n      swap2\n      pop\n        /* \"challeng/my_contract/masterPool.sol\":22527:22530  i++ */\n      dup1\n      dup1\n      tag_85\n      swap1\n      tag_86\n      jump\t// in\n    tag_85:\n      swap2\n      pop\n      pop\n        /* \"challeng/my_contract/masterPool.sol\":22495:22591  for(uint256 i=0;i<values.length;i++){... */\n      jump(tag_77)\n    tag_78:\n      pop\n        /* \"challeng/my_contract/masterPool.sol\":22629:22638  sendTotal */\n      dup1\n        /* \"challeng/my_contract/masterPool.sol\":22611:22625  tokenBalance() */\n      tag_87\n        /* \"challeng/my_contract/masterPool.sol\":22611:22623  tokenBalance */\n      tag_45\n        /* \"challeng/my_contract/masterPool.sol\":22611:22625  tokenBalance() */\n      jump\t// in\n    tag_87:\n        /* \"challeng/my_contract/masterPool.sol\":22611:22638  tokenBalance() >= sendTotal */\n      lt\n      iszero\n        /* \"challeng/my_contract/masterPool.sol\":22603:22705  require(tokenBalance() >= sendTotal , \"Release: Insufficient total amount available for distribution\") */\n      tag_88\n      jumpi\n      mload(0x40)\n      0x08c379a000000000000000000000000000000000000000000000000000000000\n      dup2\n      mstore\n      0x04\n      add\n      tag_89\n      swap1\n      tag_90\n      jump\t// in\n    tag_89:\n      mload(0x40)\n      dup1\n      swap2\n      sub\n      swap1\n      revert\n    tag_88:\n        /* \"challeng/my_contract/masterPool.sol\":22718:22751  ChallengContract challengContract */\n      0x00\n        /* \"challeng/my_contract/masterPool.sol\":22771:22790  getContractAddrss() */\n      tag_91\n        /* \"challeng/my_contract/masterPool.sol\":22771:22788  getContractAddrss */\n      tag_34\n        /* \"challeng/my_contract/masterPool.sol\":22771:22790  getContractAddrss() */\n      jump\t// in\n    tag_91:\n        /* \"challeng/my_contract/masterPool.sol\":22718:22791  ChallengContract challengContract = ChallengContract(getContractAddrss()) */\n      swap1\n      pop\n        /* \"challeng/my_contract/masterPool.sol\":22806:22815  uint256 i */\n      0x00\n        /* \"challeng/my_contract/masterPool.sol\":22802:23309  for(uint256 i=0;i<themeId.length;i++){... */\n    tag_92:\n        /* \"challeng/my_contract/masterPool.sol\":22820:22827  themeId */\n      dup5\n        /* \"challeng/my_contract/masterPool.sol\":22820:22834  themeId.length */\n      mload\n        /* \"challeng/my_contract/masterPool.sol\":22818:22819  i */\n      dup2\n        /* \"challeng/my_contract/masterPool.sol\":22818:22834  i<themeId.length */\n      lt\n        /* \"challeng/my_contract/masterPool.sol\":22802:23309  for(uint256 i=0;i<themeId.length;i++){... */\n      iszero\n      tag_93\n      jumpi\n        /* \"challeng/my_contract/masterPool.sol\":22854:22893  ChallengContract.Theme memory themeInfo */\n      0x00\n        /* \"challeng/my_contract/masterPool.sol\":22898:22914  challengContract */\n      dup3\n        /* \"challeng/my_contract/masterPool.sol\":22898:22936  challengContract.getTotalRewardByTheme */\n      0xffffffffffffffffffffffffffffffffffffffff\n      and\n      0x6441f9d0\n        /* \"challeng/my_contract/masterPool.sol\":22937:22944  themeId */\n      dup8\n        /* \"challeng/my_contract/masterPool.sol\":22945:22946  i */\n      dup5\n        /* \"challeng/my_contract/masterPool.sol\":22937:22947  themeId[i] */\n      dup2\n      mload\n      dup2\n      lt\n      tag_95\n      jumpi\n      tag_96\n      tag_82\n      jump\t// in\n    tag_96:\n    tag_95:\n      0x20\n      mul\n      0x20\n      add\n      add\n      mload\n        /* \"challeng/my_contract/masterPool.sol\":22898:22948  challengContract.getTotalRewardByTheme(themeId[i]) */\n      mload(0x40)\n      dup3\n      0xffffffff\n      and\n      0xe0\n      shl\n      dup2\n      mstore\n      0x04\n      add\n      tag_97\n      swap2\n      swap1\n      tag_98\n      jump\t// in\n    tag_97:\n      0x00\n      mload(0x40)\n      dup1\n      dup4\n      sub\n      dup2\n      dup7\n      gas\n      staticcall\n      iszero\n      dup1\n      iszero\n      tag_100\n      jumpi\n      returndatasize\n      0x00\n      dup1\n      returndatacopy\n      revert(0x00, returndatasize)\n    tag_100:\n      pop\n      pop\n      pop\n      pop\n      mload(0x40)\n      returndatasize\n      0x00\n      dup3\n      returndatacopy\n      returndatasize\n      not(0x1f)\n      0x1f\n      dup3\n      add\n      and\n      dup3\n      add\n      dup1\n      0x40\n      mstore\n      pop\n      dup2\n      add\n      swap1\n      tag_101\n      swap2\n      swap1\n      tag_102\n      jump\t// in\n    tag_101:\n        /* \"challeng/my_contract/masterPool.sol\":22854:22948  ChallengContract.Theme memory themeInfo  =  challengContract.getTotalRewardByTheme(themeId[i]) */\n      swap1\n      pop\n        /* \"challeng/my_contract/masterPool.sol\":22963:22985  address receiveAddress */\n      0x00\n        /* \"challeng/my_contract/masterPool.sol\":22989:22998  themeInfo */\n      dup2\n        /* \"challeng/my_contract/masterPool.sol\":22989:23009  themeInfo.originator */\n      0x20\n      add\n      mload\n        /* \"challeng/my_contract/masterPool.sol\":22963:23009  address receiveAddress =  themeInfo.originator */\n      swap1\n      pop\n        /* \"challeng/my_contract/masterPool.sol\":23024:23045  uint256 receiveAmount */\n      0x00\n        /* \"challeng/my_contract/masterPool.sol\":23049:23055  values */\n      dup7\n        /* \"challeng/my_contract/masterPool.sol\":23056:23057  i */\n      dup5\n        /* \"challeng/my_contract/masterPool.sol\":23049:23058  values[i] */\n      dup2\n      mload\n      dup2\n      lt\n      tag_103\n      jumpi\n      tag_104\n      tag_82\n      jump\t// in\n    tag_104:\n    tag_103:\n      0x20\n      mul\n      0x20\n      add\n      add\n      mload\n        /* \"challeng/my_contract/masterPool.sol\":23024:23058  uint256 receiveAmount =  values[i] */\n      swap1\n      pop\n        /* \"challeng/my_contract/masterPool.sol\":23111:23112  0 */\n      0x00\n        /* \"challeng/my_contract/masterPool.sol\":23076:23113  address(receiveAddress) != address(0) */\n      0xffffffffffffffffffffffffffffffffffffffff\n      and\n        /* \"challeng/my_contract/masterPool.sol\":23084:23098  receiveAddress */\n      dup3\n        /* \"challeng/my_contract/masterPool.sol\":23076:23113  address(receiveAddress) != address(0) */\n      0xffffffffffffffffffffffffffffffffffffffff\n      and\n      eq\n        /* \"challeng/my_contract/masterPool.sol\":23073:23298  if(address(receiveAddress) != address(0)){... */\n      tag_105\n      jumpi\n        /* \"challeng/my_contract/masterPool.sol\":23133:23216  token().safeTransferFrom(address(this),address(_lockContractAddress),receiveAmount) */\n      tag_106\n        /* \"challeng/my_contract/masterPool.sol\":23166:23170  this */\n      address\n        /* \"challeng/my_contract/masterPool.sol\":23180:23200  _lockContractAddress */\n      0x02\n      0x00\n      swap1\n      sload\n      swap1\n      0x0100\n      exp\n      swap1\n      div\n      0xffffffffffffffffffffffffffffffffffffffff\n      and\n        /* \"challeng/my_contract/masterPool.sol\":23202:23215  receiveAmount */\n      dup4\n        /* \"challeng/my_contract/masterPool.sol\":23133:23140  token() */\n      tag_107\n        /* \"challeng/my_contract/masterPool.sol\":23133:23138  token */\n      tag_60\n        /* \"challeng/my_contract/masterPool.sol\":23133:23140  token() */\n      jump\t// in\n    tag_107:\n        /* \"challeng/my_contract/masterPool.sol\":23133:23157  token().safeTransferFrom */\n      0xffffffffffffffffffffffffffffffffffffffff\n      and\n      tag_108\n      swap1\n        /* \"challeng/my_contract/masterPool.sol\":23133:23216  token().safeTransferFrom(address(this),address(_lockContractAddress),receiveAmount) */\n      swap4\n      swap3\n      swap2\n      swap1\n      0xffffffff\n      and\n      jump\t// in\n    tag_106:\n        /* \"challeng/my_contract/masterPool.sol\":23269:23282  receiveAmount */\n      dup1\n        /* \"challeng/my_contract/masterPool.sol\":23252:23266  _totalReleased */\n      sload(0x04)\n        /* \"challeng/my_contract/masterPool.sol\":23252:23282  _totalReleased + receiveAmount */\n      tag_109\n      swap2\n      swap1\n      tag_84\n      jump\t// in\n    tag_109:\n        /* \"challeng/my_contract/masterPool.sol\":23235:23249  _totalReleased */\n      0x04\n        /* \"challeng/my_contract/masterPool.sol\":23235:23282  _totalReleased = _totalReleased + receiveAmount */\n      dup2\n      swap1\n      sstore\n      pop\n        /* \"challeng/my_contract/masterPool.sol\":23073:23298  if(address(receiveAddress) != address(0)){... */\n    tag_105:\n        /* \"challeng/my_contract/masterPool.sol\":22839:23309  {... */\n      pop\n      pop\n      pop\n        /* \"challeng/my_contract/masterPool.sol\":22835:22838  i++ */\n      dup1\n      dup1\n      tag_110\n      swap1\n      tag_86\n      jump\t// in\n    tag_110:\n      swap2\n      pop\n      pop\n        /* \"challeng/my_contract/masterPool.sol\":22802:23309  for(uint256 i=0;i<themeId.length;i++){... */\n      jump(tag_92)\n    tag_93:\n      pop\n        /* \"challeng/my_contract/masterPool.sol\":22123:23316  {... */\n      pop\n      pop\n        /* \"challeng/my_contract/masterPool.sol\":22024:23316  function sendMasterTokenLock(string[] memory themeId,uint256[] memory values) public  onlyOwner  (){... */\n      pop\n      pop\n      jump\t// out\n        /* \"challeng/my_contract/masterPool.sol\":21794:21897  function getTimestamp() public view virtual returns (uint256) {... */\n    tag_23:\n        /* \"challeng/my_contract/masterPool.sol\":21847:21854  uint256 */\n      0x00\n        /* \"challeng/my_contract/masterPool.sol\":21874:21889  block.timestamp */\n      timestamp\n        /* \"challeng/my_contract/masterPool.sol\":21867:21889  return block.timestamp */\n      swap1\n      pop\n        /* \"challeng/my_contract/masterPool.sol\":21794:21897  function getTimestamp() public view virtual returns (uint256) {... */\n      swap1\n      jump\t// out\n        /* \"challeng/my_contract/masterPool.sol\":20311:20434  function setTokenAddress(address tokenAddress ) public virtual   onlyOwner {... */\n    tag_29:\n        /* \"challeng/my_contract/masterPool.sol\":20190:20196  _owner */\n      0x05\n      0x00\n      swap1\n      sload\n      swap1\n      0x0100\n      exp\n      swap1\n      div\n      0xffffffffffffffffffffffffffffffffffffffff\n      and\n        /* \"challeng/my_contract/masterPool.sol\":20176:20196  msg.sender == _owner */\n      0xffffffffffffffffffffffffffffffffffffffff\n      and\n        /* \"challeng/my_contract/masterPool.sol\":20176:20186  msg.sender */\n      caller\n        /* \"challeng/my_contract/masterPool.sol\":20176:20196  msg.sender == _owner */\n      0xffffffffffffffffffffffffffffffffffffffff\n      and\n      eq\n        /* \"challeng/my_contract/masterPool.sol\":20168:20197  require(msg.sender == _owner) */\n      tag_113\n      jumpi\n      0x00\n      dup1\n      revert\n    tag_113:\n        /* \"challeng/my_contract/masterPool.sol\":20413:20425  tokenAddress */\n      dup1\n        /* \"challeng/my_contract/masterPool.sol\":20397:20403  _token */\n      0x00\n      dup1\n        /* \"challeng/my_contract/masterPool.sol\":20397:20426  _token = IERC20(tokenAddress) */\n      0x0100\n      exp\n      dup2\n      sload\n      dup2\n      0xffffffffffffffffffffffffffffffffffffffff\n      mul\n      not\n      and\n      swap1\n      dup4\n      0xffffffffffffffffffffffffffffffffffffffff\n      and\n      mul\n      or\n      swap1\n      sstore\n      pop\n        /* \"challeng/my_contract/masterPool.sol\":20311:20434  function setTokenAddress(address tokenAddress ) public virtual   onlyOwner {... */\n      pop\n      jump\t// out\n        /* \"challeng/my_contract/masterPool.sol\":20715:20808  function decimals() public view virtual returns (uint256) {... */\n    tag_31:\n        /* \"challeng/my_contract/masterPool.sol\":20764:20771  uint256 */\n      0x00\n        /* \"challeng/my_contract/masterPool.sol\":20791:20800  _decimals */\n      sload(0x03)\n        /* \"challeng/my_contract/masterPool.sol\":20784:20800  return _decimals */\n      swap1\n      pop\n        /* \"challeng/my_contract/masterPool.sol\":20715:20808  function decimals() public view virtual returns (uint256) {... */\n      swap1\n      jump\t// out\n        /* \"challeng/my_contract/masterPool.sol\":21367:21465  function getContractAddrss() public view returns(address){... */\n    tag_34:\n        /* \"challeng/my_contract/masterPool.sol\":21416:21423  address */\n      0x00\n        /* \"challeng/my_contract/masterPool.sol\":21442:21457  _contractAddrss */\n      0x01\n      0x00\n      swap1\n      sload\n      swap1\n      0x0100\n      exp\n      swap1\n      div\n      0xffffffffffffffffffffffffffffffffffffffff\n      and\n        /* \"challeng/my_contract/masterPool.sol\":21435:21457  return _contractAddrss */\n      swap1\n      pop\n        /* \"challeng/my_contract/masterPool.sol\":21367:21465  function getContractAddrss() public view returns(address){... */\n      swap1\n      jump\t// out\n        /* \"challeng/my_contract/masterPool.sol\":20819:20925  function getTotalReleased() public view virtual returns (uint256) {... */\n    tag_38:\n        /* \"challeng/my_contract/masterPool.sol\":20876:20883  uint256 */\n      0x00\n        /* \"challeng/my_contract/masterPool.sol\":20903:20917  _totalReleased */\n      sload(0x04)\n        /* \"challeng/my_contract/masterPool.sol\":20896:20917  return _totalReleased */\n      swap1\n      pop\n        /* \"challeng/my_contract/masterPool.sol\":20819:20925  function getTotalReleased() public view virtual returns (uint256) {... */\n      swap1\n      jump\t// out\n        /* \"challeng/my_contract/masterPool.sol\":23355:24269  function  distributionToSpecify(address[] calldata recipients, uint256[] calldata values) public virtual {... */\n    tag_43:\n        /* \"challeng/my_contract/masterPool.sol\":23572:23573  0 */\n      0x00\n        /* \"challeng/my_contract/masterPool.sol\":23545:23574  address(_token) != address(0) */\n      0xffffffffffffffffffffffffffffffffffffffff\n      and\n        /* \"challeng/my_contract/masterPool.sol\":23553:23559  _token */\n      0x00\n      dup1\n      sload\n      swap1\n      0x0100\n      exp\n      swap1\n      div\n      0xffffffffffffffffffffffffffffffffffffffff\n      and\n        /* \"challeng/my_contract/masterPool.sol\":23545:23574  address(_token) != address(0) */\n      0xffffffffffffffffffffffffffffffffffffffff\n      and\n      sub\n        /* \"challeng/my_contract/masterPool.sol\":23537:23611  require(address(_token) != address(0) , \"Release: need set Token Address\") */\n      tag_119\n      jumpi\n      mload(0x40)\n      0x08c379a000000000000000000000000000000000000000000000000000000000\n      dup2\n      mstore\n      0x04\n      add\n      tag_120\n      swap1\n      tag_72\n      jump\t// in\n    tag_120:\n      mload(0x40)\n      dup1\n      swap2\n      sub\n      swap1\n      revert\n    tag_119:\n        /* \"challeng/my_contract/masterPool.sol\":23651:23657  values */\n      dup2\n      dup2\n        /* \"challeng/my_contract/masterPool.sol\":23651:23664  values.length */\n      swap1\n      pop\n        /* \"challeng/my_contract/masterPool.sol\":23630:23640  recipients */\n      dup5\n      dup5\n        /* \"challeng/my_contract/masterPool.sol\":23630:23647  recipients.length */\n      swap1\n      pop\n        /* \"challeng/my_contract/masterPool.sol\":23630:23664  recipients.length == values.length */\n      eq\n        /* \"challeng/my_contract/masterPool.sol\":23622:23745  require(recipients.length == values.length,\"Please check the data, the news ID and distribution quantity are inconsistent\") */\n      tag_121\n      jumpi\n      mload(0x40)\n      0x08c379a000000000000000000000000000000000000000000000000000000000\n      dup2\n      mstore\n      0x04\n      add\n      tag_122\n      swap1\n      tag_68\n      jump\t// in\n    tag_122:\n      mload(0x40)\n      dup1\n      swap2\n      sub\n      swap1\n      revert\n    tag_121:\n        /* \"challeng/my_contract/masterPool.sol\":23758:23777  uint256 totalAmount */\n      0x00\n        /* \"challeng/my_contract/masterPool.sol\":23799:23808  uint256 i */\n      dup1\n        /* \"challeng/my_contract/masterPool.sol\":23794:23922  for (uint256 i = 0; i < recipients.length; i++){... */\n    tag_123:\n        /* \"challeng/my_contract/masterPool.sol\":23818:23828  recipients */\n      dup6\n      dup6\n        /* \"challeng/my_contract/masterPool.sol\":23818:23835  recipients.length */\n      swap1\n      pop\n        /* \"challeng/my_contract/masterPool.sol\":23814:23815  i */\n      dup2\n        /* \"challeng/my_contract/masterPool.sol\":23814:23835  i < recipients.length */\n      lt\n        /* \"challeng/my_contract/masterPool.sol\":23794:23922  for (uint256 i = 0; i < recipients.length; i++){... */\n      iszero\n      tag_124\n      jumpi\n        /* \"challeng/my_contract/masterPool.sol\":23884:23910  totalAmount.add(values[i]) */\n      tag_126\n        /* \"challeng/my_contract/masterPool.sol\":23900:23906  values */\n      dup5\n      dup5\n        /* \"challeng/my_contract/masterPool.sol\":23907:23908  i */\n      dup4\n        /* \"challeng/my_contract/masterPool.sol\":23900:23909  values[i] */\n      dup2\n      dup2\n      lt\n      tag_127\n      jumpi\n      tag_128\n      tag_82\n      jump\t// in\n    tag_128:\n    tag_127:\n      swap1\n      pop\n      0x20\n      mul\n      add\n      calldataload\n        /* \"challeng/my_contract/masterPool.sol\":23884:23895  totalAmount */\n      dup4\n        /* \"challeng/my_contract/masterPool.sol\":23884:23899  totalAmount.add */\n      tag_129\n      swap1\n        /* \"challeng/my_contract/masterPool.sol\":23884:23910  totalAmount.add(values[i]) */\n      swap2\n      swap1\n      0xffffffff\n      and\n      jump\t// in\n    tag_126:\n        /* \"challeng/my_contract/masterPool.sol\":23870:23910  totalAmount = totalAmount.add(values[i]) */\n      swap2\n      pop\n        /* \"challeng/my_contract/masterPool.sol\":23837:23840  i++ */\n      dup1\n      dup1\n      tag_130\n      swap1\n      tag_86\n      jump\t// in\n    tag_130:\n      swap2\n      pop\n      pop\n        /* \"challeng/my_contract/masterPool.sol\":23794:23922  for (uint256 i = 0; i < recipients.length; i++){... */\n      jump(tag_123)\n    tag_124:\n      pop\n        /* \"challeng/my_contract/masterPool.sol\":23958:23969  totalAmount */\n      dup1\n        /* \"challeng/my_contract/masterPool.sol\":23940:23954  tokenBalance() */\n      tag_131\n        /* \"challeng/my_contract/masterPool.sol\":23940:23952  tokenBalance */\n      tag_45\n        /* \"challeng/my_contract/masterPool.sol\":23940:23954  tokenBalance() */\n      jump\t// in\n    tag_131:\n        /* \"challeng/my_contract/masterPool.sol\":23940:23969  tokenBalance() >= totalAmount */\n      lt\n      iszero\n        /* \"challeng/my_contract/masterPool.sol\":23932:24031  require(tokenBalance() >= totalAmount , \"The number of air drops exceeds the daily release amount\") */\n      tag_132\n      jumpi\n      mload(0x40)\n      0x08c379a000000000000000000000000000000000000000000000000000000000\n      dup2\n      mstore\n      0x04\n      add\n      tag_133\n      swap1\n      tag_134\n      jump\t// in\n    tag_133:\n      mload(0x40)\n      dup1\n      swap2\n      sub\n      swap1\n      revert\n    tag_132:\n        /* \"challeng/my_contract/masterPool.sol\":24049:24058  uint256 i */\n      0x00\n        /* \"challeng/my_contract/masterPool.sol\":24044:24262  for (uint256 i = 0; i < recipients.length; i++){... */\n    tag_135:\n        /* \"challeng/my_contract/masterPool.sol\":24068:24078  recipients */\n      dup6\n      dup6\n        /* \"challeng/my_contract/masterPool.sol\":24068:24085  recipients.length */\n      swap1\n      pop\n        /* \"challeng/my_contract/masterPool.sol\":24064:24065  i */\n      dup2\n        /* \"challeng/my_contract/masterPool.sol\":24064:24085  i < recipients.length */\n      lt\n        /* \"challeng/my_contract/masterPool.sol\":24044:24262  for (uint256 i = 0; i < recipients.length; i++){... */\n      iszero\n      tag_136\n      jumpi\n        /* \"challeng/my_contract/masterPool.sol\":24106:24169  token().safeTransferFrom(address(this),recipients[i],values[i]) */\n      tag_138\n        /* \"challeng/my_contract/masterPool.sol\":24139:24143  this */\n      address\n        /* \"challeng/my_contract/masterPool.sol\":24145:24155  recipients */\n      dup8\n      dup8\n        /* \"challeng/my_contract/masterPool.sol\":24156:24157  i */\n      dup5\n        /* \"challeng/my_contract/masterPool.sol\":24145:24158  recipients[i] */\n      dup2\n      dup2\n      lt\n      tag_139\n      jumpi\n      tag_140\n      tag_82\n      jump\t// in\n    tag_140:\n    tag_139:\n      swap1\n      pop\n      0x20\n      mul\n      add\n      0x20\n      dup2\n      add\n      swap1\n      tag_141\n      swap2\n      swap1\n      tag_28\n      jump\t// in\n    tag_141:\n        /* \"challeng/my_contract/masterPool.sol\":24159:24165  values */\n      dup7\n      dup7\n        /* \"challeng/my_contract/masterPool.sol\":24166:24167  i */\n      dup6\n        /* \"challeng/my_contract/masterPool.sol\":24159:24168  values[i] */\n      dup2\n      dup2\n      lt\n      tag_142\n      jumpi\n      tag_143\n      tag_82\n      jump\t// in\n    tag_143:\n    tag_142:\n      swap1\n      pop\n      0x20\n      mul\n      add\n      calldataload\n        /* \"challeng/my_contract/masterPool.sol\":24106:24113  token() */\n      tag_144\n        /* \"challeng/my_contract/masterPool.sol\":24106:24111  token */\n      tag_60\n        /* \"challeng/my_contract/masterPool.sol\":24106:24113  token() */\n      jump\t// in\n    tag_144:\n        /* \"challeng/my_contract/masterPool.sol\":24106:24130  token().safeTransferFrom */\n      0xffffffffffffffffffffffffffffffffffffffff\n      and\n      tag_108\n      swap1\n        /* \"challeng/my_contract/masterPool.sol\":24106:24169  token().safeTransferFrom(address(this),recipients[i],values[i]) */\n      swap4\n      swap3\n      swap2\n      swap1\n      0xffffffff\n      and\n      jump\t// in\n    tag_138:\n        /* \"challeng/my_contract/masterPool.sol\":24241:24247  values */\n      dup4\n      dup4\n        /* \"challeng/my_contract/masterPool.sol\":24248:24249  i */\n      dup3\n        /* \"challeng/my_contract/masterPool.sol\":24241:24250  values[i] */\n      dup2\n      dup2\n      lt\n      tag_145\n      jumpi\n      tag_146\n      tag_82\n      jump\t// in\n    tag_146:\n    tag_145:\n      swap1\n      pop\n      0x20\n      mul\n      add\n      calldataload\n        /* \"challeng/my_contract/masterPool.sol\":24224:24238  _totalReleased */\n      sload(0x04)\n        /* \"challeng/my_contract/masterPool.sol\":24224:24250  _totalReleased + values[i] */\n      tag_147\n      swap2\n      swap1\n      tag_84\n      jump\t// in\n    tag_147:\n        /* \"challeng/my_contract/masterPool.sol\":24207:24221  _totalReleased */\n      0x04\n        /* \"challeng/my_contract/masterPool.sol\":24207:24250  _totalReleased = _totalReleased + values[i] */\n      dup2\n      swap1\n      sstore\n      pop\n        /* \"challeng/my_contract/masterPool.sol\":24087:24090  i++ */\n      dup1\n      dup1\n      tag_148\n      swap1\n      tag_86\n      jump\t// in\n    tag_148:\n      swap2\n      pop\n      pop\n        /* \"challeng/my_contract/masterPool.sol\":24044:24262  for (uint256 i = 0; i < recipients.length; i++){... */\n      jump(tag_135)\n    tag_136:\n      pop\n        /* \"challeng/my_contract/masterPool.sol\":23460:24269  {... */\n      pop\n        /* \"challeng/my_contract/masterPool.sol\":23355:24269  function  distributionToSpecify(address[] calldata recipients, uint256[] calldata values) public virtual {... */\n      pop\n      pop\n      pop\n      pop\n      jump\t// out\n        /* \"challeng/my_contract/masterPool.sol\":20937:21170  function tokenBalance() public view virtual returns (uint256) {... */\n    tag_45:\n        /* \"challeng/my_contract/masterPool.sol\":20990:20997  uint256 */\n      0x00\n        /* \"challeng/my_contract/masterPool.sol\":21041:21042  0 */\n      dup1\n        /* \"challeng/my_contract/masterPool.sol\":21013:21043  address(token()) == address(0) */\n      0xffffffffffffffffffffffffffffffffffffffff\n      and\n        /* \"challeng/my_contract/masterPool.sol\":21021:21028  token() */\n      tag_150\n        /* \"challeng/my_contract/masterPool.sol\":21021:21026  token */\n      tag_60\n        /* \"challeng/my_contract/masterPool.sol\":21021:21028  token() */\n      jump\t// in\n    tag_150:\n        /* \"challeng/my_contract/masterPool.sol\":21013:21043  address(token()) == address(0) */\n      0xffffffffffffffffffffffffffffffffffffffff\n      and\n      sub\n        /* \"challeng/my_contract/masterPool.sol\":21010:21079  if(address(token()) == address(0)){... */\n      tag_151\n      jumpi\n        /* \"challeng/my_contract/masterPool.sol\":21066:21067  0 */\n      0x00\n        /* \"challeng/my_contract/masterPool.sol\":21059:21067  return 0 */\n      swap1\n      pop\n      jump(tag_149)\n        /* \"challeng/my_contract/masterPool.sol\":21010:21079  if(address(token()) == address(0)){... */\n    tag_151:\n        /* \"challeng/my_contract/masterPool.sol\":21089:21103  uint256 amount */\n      0x00\n        /* \"challeng/my_contract/masterPool.sol\":21106:21113  token() */\n      tag_152\n        /* \"challeng/my_contract/masterPool.sol\":21106:21111  token */\n      tag_60\n        /* \"challeng/my_contract/masterPool.sol\":21106:21113  token() */\n      jump\t// in\n    tag_152:\n        /* \"challeng/my_contract/masterPool.sol\":21106:21123  token().balanceOf */\n      0xffffffffffffffffffffffffffffffffffffffff\n      and\n      0x70a08231\n        /* \"challeng/my_contract/masterPool.sol\":21132:21136  this */\n      address\n        /* \"challeng/my_contract/masterPool.sol\":21106:21138  token().balanceOf(address(this)) */\n      mload(0x40)\n      dup3\n      0xffffffff\n      and\n      0xe0\n      shl\n      dup2\n      mstore\n      0x04\n      add\n      tag_153\n      swap2\n      swap1\n      tag_36\n      jump\t// in\n    tag_153:\n      0x20\n      mload(0x40)\n      dup1\n      dup4\n      sub\n      dup2\n      dup7\n      gas\n      staticcall\n      iszero\n      dup1\n      iszero\n      tag_155\n      jumpi\n      returndatasize\n      0x00\n      dup1\n      returndatacopy\n      revert(0x00, returndatasize)\n    tag_155:\n      pop\n      pop\n      pop\n      pop\n      mload(0x40)\n      returndatasize\n      not(0x1f)\n      0x1f\n      dup3\n      add\n      and\n      dup3\n      add\n      dup1\n      0x40\n      mstore\n      pop\n      dup2\n      add\n      swap1\n      tag_156\n      swap2\n      swap1\n      tag_157\n      jump\t// in\n    tag_156:\n        /* \"challeng/my_contract/masterPool.sol\":21089:21138  uint256 amount = token().balanceOf(address(this)) */\n      swap1\n      pop\n        /* \"challeng/my_contract/masterPool.sol\":21156:21162  amount */\n      dup1\n        /* \"challeng/my_contract/masterPool.sol\":21149:21162  return amount */\n      swap2\n      pop\n      pop\n        /* \"challeng/my_contract/masterPool.sol\":20937:21170  function tokenBalance() public view virtual returns (uint256) {... */\n    tag_149:\n      swap1\n      jump\t// out\n        /* \"challeng/my_contract/masterPool.sol\":21678:21786  function getLockContractAddress() public view returns(address){... */\n    tag_48:\n        /* \"challeng/my_contract/masterPool.sol\":21732:21739  address */\n      0x00\n        /* \"challeng/my_contract/masterPool.sol\":21758:21778  _lockContractAddress */\n      0x02\n      0x00\n      swap1\n      sload\n      swap1\n      0x0100\n      exp\n      swap1\n      div\n      0xffffffffffffffffffffffffffffffffffffffff\n      and\n        /* \"challeng/my_contract/masterPool.sol\":21751:21778  return _lockContractAddress */\n      swap1\n      pop\n        /* \"challeng/my_contract/masterPool.sol\":21678:21786  function getLockContractAddress() public view returns(address){... */\n      swap1\n      jump\t// out\n        /* \"challeng/my_contract/masterPool.sol\":20452:20544  function changeOwner(address newOwner) public onlyOwner {... */\n    tag_52:\n        /* \"challeng/my_contract/masterPool.sol\":20190:20196  _owner */\n      0x05\n      0x00\n      swap1\n      sload\n      swap1\n      0x0100\n      exp\n      swap1\n      div\n      0xffffffffffffffffffffffffffffffffffffffff\n      and\n        /* \"challeng/my_contract/masterPool.sol\":20176:20196  msg.sender == _owner */\n      0xffffffffffffffffffffffffffffffffffffffff\n      and\n        /* \"challeng/my_contract/masterPool.sol\":20176:20186  msg.sender */\n      caller\n        /* \"challeng/my_contract/masterPool.sol\":20176:20196  msg.sender == _owner */\n      0xffffffffffffffffffffffffffffffffffffffff\n      and\n      eq\n        /* \"challeng/my_contract/masterPool.sol\":20168:20197  require(msg.sender == _owner) */\n      tag_160\n      jumpi\n      0x00\n      dup1\n      revert\n    tag_160:\n        /* \"challeng/my_contract/masterPool.sol\":20528:20536  newOwner */\n      dup1\n        /* \"challeng/my_contract/masterPool.sol\":20519:20525  _owner */\n      0x05\n      0x00\n        /* \"challeng/my_contract/masterPool.sol\":20519:20536  _owner = newOwner */\n      0x0100\n      exp\n      dup2\n      sload\n      dup2\n      0xffffffffffffffffffffffffffffffffffffffff\n      mul\n      not\n      and\n      swap1\n      dup4\n      0xffffffffffffffffffffffffffffffffffffffff\n      and\n      mul\n      or\n      swap1\n      sstore\n      pop\n        /* \"challeng/my_contract/masterPool.sol\":20452:20544  function changeOwner(address newOwner) public onlyOwner {... */\n      pop\n      jump\t// out\n        /* \"challeng/my_contract/masterPool.sol\":21505:21634  function setLockContractAddress(address lockContractAddress) public {... */\n    tag_55:\n        /* \"challeng/my_contract/masterPool.sol\":21607:21626  lockContractAddress */\n      dup1\n        /* \"challeng/my_contract/masterPool.sol\":21584:21604  _lockContractAddress */\n      0x02\n      0x00\n        /* \"challeng/my_contract/masterPool.sol\":21584:21626  _lockContractAddress = lockContractAddress */\n      0x0100\n      exp\n      dup2\n      sload\n      dup2\n      0xffffffffffffffffffffffffffffffffffffffff\n      mul\n      not\n      and\n      swap1\n      dup4\n      0xffffffffffffffffffffffffffffffffffffffff\n      and\n      mul\n      or\n      swap1\n      sstore\n      pop\n        /* \"challeng/my_contract/masterPool.sol\":21505:21634  function setLockContractAddress(address lockContractAddress) public {... */\n      pop\n      jump\t// out\n        /* \"challeng/my_contract/masterPool.sol\":21212:21323  function setChallengContract(address contractAddrss) public {... */\n    tag_58:\n        /* \"challeng/my_contract/masterPool.sol\":21301:21315  contractAddrss */\n      dup1\n        /* \"challeng/my_contract/masterPool.sol\":21283:21298  _contractAddrss */\n      0x01\n      0x00\n        /* \"challeng/my_contract/masterPool.sol\":21283:21315  _contractAddrss = contractAddrss */\n      0x0100\n      exp\n      dup2\n      sload\n      dup2\n      0xffffffffffffffffffffffffffffffffffffffff\n      mul\n      not\n      and\n      swap1\n      dup4\n      0xffffffffffffffffffffffffffffffffffffffff\n      and\n      mul\n      or\n      swap1\n      sstore\n      pop\n        /* \"challeng/my_contract/masterPool.sol\":21212:21323  function setChallengContract(address contractAddrss) public {... */\n      pop\n      jump\t// out\n        /* \"challeng/my_contract/masterPool.sol\":20615:20701  function token() public view virtual returns (IERC20) {... */\n    tag_60:\n        /* \"challeng/my_contract/masterPool.sol\":20661:20667  IERC20 */\n      0x00\n        /* \"challeng/my_contract/masterPool.sol\":20687:20693  _token */\n      dup1\n      0x00\n      swap1\n      sload\n      swap1\n      0x0100\n      exp\n      swap1\n      div\n      0xffffffffffffffffffffffffffffffffffffffff\n      and\n        /* \"challeng/my_contract/masterPool.sol\":20680:20693  return _token */\n      swap1\n      pop\n        /* \"challeng/my_contract/masterPool.sol\":20615:20701  function token() public view virtual returns (IERC20) {... */\n      swap1\n      jump\t// out\n        /* \"challeng/my_contract/masterPool.sol\":16240:16488  function safeTransferFrom(... */\n    tag_108:\n        /* \"challeng/my_contract/masterPool.sol\":16384:16480  _callOptionalReturn(token, abi.encodeWithSelector(token.transferFrom.selector, from, to, value)) */\n      tag_166\n        /* \"challeng/my_contract/masterPool.sol\":16404:16409  token */\n      dup5\n        /* \"challeng/my_contract/masterPool.sol\":16434:16461  token.transferFrom.selector */\n      shl(0xe0, 0x23b872dd)\n        /* \"challeng/my_contract/masterPool.sol\":16463:16467  from */\n      dup6\n        /* \"challeng/my_contract/masterPool.sol\":16469:16471  to */\n      dup6\n        /* \"challeng/my_contract/masterPool.sol\":16473:16478  value */\n      dup6\n        /* \"challeng/my_contract/masterPool.sol\":16411:16479  abi.encodeWithSelector(token.transferFrom.selector, from, to, value) */\n      add(0x24, mload(0x40))\n      tag_167\n      swap4\n      swap3\n      swap2\n      swap1\n      tag_168\n      jump\t// in\n    tag_167:\n      mload(0x40)\n      0x20\n      dup2\n      dup4\n      sub\n      sub\n      dup2\n      mstore\n      swap1\n      0x40\n      mstore\n      swap1\n      not(0xffffffffffffffffffffffffffffffffffffffffffffffffffffffff)\n      and\n      0x20\n      dup3\n      add\n      dup1\n      mload\n      0xffffffffffffffffffffffffffffffffffffffffffffffffffffffff\n      dup4\n      dup2\n      dup4\n      and\n      or\n      dup4\n      mstore\n      pop\n      pop\n      pop\n      pop\n        /* \"challeng/my_contract/masterPool.sol\":16384:16403  _callOptionalReturn */\n      tag_169\n        /* \"challeng/my_contract/masterPool.sol\":16384:16480  _callOptionalReturn(token, abi.encodeWithSelector(token.transferFrom.selector, from, to, value)) */\n      jump\t// in\n    tag_166:\n        /* \"challeng/my_contract/masterPool.sol\":16240:16488  function safeTransferFrom(... */\n      pop\n      pop\n      pop\n      pop\n      jump\t// out\n        /* \"challeng/my_contract/masterPool.sol\":3862:4043  function add(uint256 a, uint256 b) internal pure returns (uint256) {... */\n    tag_129:\n        /* \"challeng/my_contract/masterPool.sol\":3920:3927  uint256 */\n      0x00\n        /* \"challeng/my_contract/masterPool.sol\":3940:3949  uint256 c */\n      dup1\n        /* \"challeng/my_contract/masterPool.sol\":3956:3957  b */\n      dup3\n        /* \"challeng/my_contract/masterPool.sol\":3952:3953  a */\n      dup5\n        /* \"challeng/my_contract/masterPool.sol\":3952:3957  a + b */\n      tag_171\n      swap2\n      swap1\n      tag_84\n      jump\t// in\n    tag_171:\n        /* \"challeng/my_contract/masterPool.sol\":3940:3957  uint256 c = a + b */\n      swap1\n      pop\n        /* \"challeng/my_contract/masterPool.sol\":3981:3982  a */\n      dup4\n        /* \"challeng/my_contract/masterPool.sol\":3976:3977  c */\n      dup2\n        /* \"challeng/my_contract/masterPool.sol\":3976:3982  c >= a */\n      lt\n      iszero\n        /* \"challeng/my_contract/masterPool.sol\":3968:4014  require(c >= a, \"SafeMath: addition overflow\") */\n      tag_172\n      jumpi\n      mload(0x40)\n      0x08c379a000000000000000000000000000000000000000000000000000000000\n      dup2\n      mstore\n      0x04\n      add\n      tag_173\n      swap1\n      tag_174\n      jump\t// in\n    tag_173:\n      mload(0x40)\n      dup1\n      swap2\n      sub\n      swap1\n      revert\n    tag_172:\n        /* \"challeng/my_contract/masterPool.sol\":4034:4035  c */\n      dup1\n        /* \"challeng/my_contract/masterPool.sol\":4027:4035  return c */\n      swap2\n      pop\n      pop\n        /* \"challeng/my_contract/masterPool.sol\":3862:4043  function add(uint256 a, uint256 b) internal pure returns (uint256) {... */\n      swap3\n      swap2\n      pop\n      pop\n      jump\t// out\n        /* \"challeng/my_contract/masterPool.sol\":18594:19310  function _callOptionalReturn(IERC20 token, bytes memory data) private {... */\n    tag_169:\n        /* \"challeng/my_contract/masterPool.sol\":19018:19041  bytes memory returndata */\n      0x00\n        /* \"challeng/my_contract/masterPool.sol\":19044:19113  address(token).functionCall(data, \"SafeERC20: low-level call failed\") */\n      tag_176\n        /* \"challeng/my_contract/masterPool.sol\":19072:19076  data */\n      dup3\n        /* \"challeng/my_contract/masterPool.sol\":19044:19113  address(token).functionCall(data, \"SafeERC20: low-level call failed\") */\n      mload(0x40)\n      dup1\n      0x40\n      add\n      0x40\n      mstore\n      dup1\n      0x20\n      dup2\n      mstore\n      0x20\n      add\n      0x5361666545524332303a206c6f772d6c6576656c2063616c6c206661696c6564\n      dup2\n      mstore\n      pop\n        /* \"challeng/my_contract/masterPool.sol\":19052:19057  token */\n      dup6\n        /* \"challeng/my_contract/masterPool.sol\":19044:19071  address(token).functionCall */\n      0xffffffffffffffffffffffffffffffffffffffff\n      and\n      tag_177\n      swap1\n        /* \"challeng/my_contract/masterPool.sol\":19044:19113  address(token).functionCall(data, \"SafeERC20: low-level call failed\") */\n      swap3\n      swap2\n      swap1\n      0xffffffff\n      and\n      jump\t// in\n    tag_176:\n        /* \"challeng/my_contract/masterPool.sol\":19018:19113  bytes memory returndata = address(token).functionCall(data, \"SafeERC20: low-level call failed\") */\n      swap1\n      pop\n        /* \"challeng/my_contract/masterPool.sol\":19148:19149  0 */\n      0x00\n        /* \"challeng/my_contract/masterPool.sol\":19128:19138  returndata */\n      dup2\n        /* \"challeng/my_contract/masterPool.sol\":19128:19145  returndata.length */\n      mload\n        /* \"challeng/my_contract/masterPool.sol\":19128:19149  returndata.length > 0 */\n      gt\n        /* \"challeng/my_contract/masterPool.sol\":19124:19303  if (returndata.length > 0) {... */\n      iszero\n      tag_178\n      jumpi\n        /* \"challeng/my_contract/masterPool.sol\":19225:19235  returndata */\n      dup1\n        /* \"challeng/my_contract/masterPool.sol\":19214:19244  abi.decode(returndata, (bool)) */\n      dup1\n      0x20\n      add\n      swap1\n      mload\n      dup2\n      add\n      swap1\n      tag_179\n      swap2\n      swap1\n      tag_180\n      jump\t// in\n    tag_179:\n        /* \"challeng/my_contract/masterPool.sol\":19206:19291  require(abi.decode(returndata, (bool)), \"SafeERC20: ERC20 operation did not succeed\") */\n      tag_181\n      jumpi\n      mload(0x40)\n      0x08c379a000000000000000000000000000000000000000000000000000000000\n      dup2\n      mstore\n      0x04\n      add\n      tag_182\n      swap1\n      tag_183\n      jump\t// in\n    tag_182:\n      mload(0x40)\n      dup1\n      swap2\n      sub\n      swap1\n      revert\n    tag_181:\n        /* \"challeng/my_contract/masterPool.sol\":19124:19303  if (returndata.length > 0) {... */\n    tag_178:\n        /* \"challeng/my_contract/masterPool.sol\":18664:19310  {... */\n      pop\n        /* \"challeng/my_contract/masterPool.sol\":18594:19310  function _callOptionalReturn(IERC20 token, bytes memory data) private {... */\n      pop\n      pop\n      jump\t// out\n        /* \"challeng/my_contract/masterPool.sol\":10968:11197  function functionCall(... */\n    tag_177:\n        /* \"challeng/my_contract/masterPool.sol\":11105:11117  bytes memory */\n      0x60\n        /* \"challeng/my_contract/masterPool.sol\":11137:11189  functionCallWithValue(target, data, 0, errorMessage) */\n      tag_185\n        /* \"challeng/my_contract/masterPool.sol\":11159:11165  target */\n      dup5\n        /* \"challeng/my_contract/masterPool.sol\":11167:11171  data */\n      dup5\n        /* \"challeng/my_contract/masterPool.sol\":11173:11174  0 */\n      0x00\n        /* \"challeng/my_contract/masterPool.sol\":11176:11188  errorMessage */\n      dup6\n        /* \"challeng/my_contract/masterPool.sol\":11137:11158  functionCallWithValue */\n      tag_186\n        /* \"challeng/my_contract/masterPool.sol\":11137:11189  functionCallWithValue(target, data, 0, errorMessage) */\n      jump\t// in\n    tag_185:\n        /* \"challeng/my_contract/masterPool.sol\":11130:11189  return functionCallWithValue(target, data, 0, errorMessage) */\n      swap1\n      pop\n        /* \"challeng/my_contract/masterPool.sol\":10968:11197  function functionCall(... */\n      swap4\n      swap3\n      pop\n      pop\n      pop\n      jump\t// out\n        /* \"challeng/my_contract/masterPool.sol\":12088:12598  function functionCallWithValue(... */\n    tag_186:\n        /* \"challeng/my_contract/masterPool.sol\":12258:12270  bytes memory */\n      0x60\n        /* \"challeng/my_contract/masterPool.sol\":12316:12321  value */\n      dup3\n        /* \"challeng/my_contract/masterPool.sol\":12291:12312  address(this).balance */\n      selfbalance\n        /* \"challeng/my_contract/masterPool.sol\":12291:12321  address(this).balance >= value */\n      lt\n      iszero\n        /* \"challeng/my_contract/masterPool.sol\":12283:12364  require(address(this).balance >= value, \"Address: insufficient balance for call\") */\n      tag_188\n      jumpi\n      mload(0x40)\n      0x08c379a000000000000000000000000000000000000000000000000000000000\n      dup2\n      mstore\n      0x04\n      add\n      tag_189\n      swap1\n      tag_190\n      jump\t// in\n    tag_189:\n      mload(0x40)\n      dup1\n      swap2\n      sub\n      swap1\n      revert\n    tag_188:\n        /* \"challeng/my_contract/masterPool.sol\":12383:12401  isContract(target) */\n      tag_191\n        /* \"challeng/my_contract/masterPool.sol\":12394:12400  target */\n      dup6\n        /* \"challeng/my_contract/masterPool.sol\":12383:12393  isContract */\n      tag_192\n        /* \"challeng/my_contract/masterPool.sol\":12383:12401  isContract(target) */\n      jump\t// in\n    tag_191:\n        /* \"challeng/my_contract/masterPool.sol\":12375:12435  require(isContract(target), \"Address: call to non-contract\") */\n      tag_193\n      jumpi\n      mload(0x40)\n      0x08c379a000000000000000000000000000000000000000000000000000000000\n      dup2\n      mstore\n      0x04\n      add\n      tag_194\n      swap1\n      tag_195\n      jump\t// in\n    tag_194:\n      mload(0x40)\n      dup1\n      swap2\n      sub\n      swap1\n      revert\n    tag_193:\n        /* \"challeng/my_contract/masterPool.sol\":12449:12461  bool success */\n      0x00\n        /* \"challeng/my_contract/masterPool.sol\":12463:12486  bytes memory returndata */\n      dup1\n        /* \"challeng/my_contract/masterPool.sol\":12490:12496  target */\n      dup7\n        /* \"challeng/my_contract/masterPool.sol\":12490:12501  target.call */\n      0xffffffffffffffffffffffffffffffffffffffff\n      and\n        /* \"challeng/my_contract/masterPool.sol\":12509:12514  value */\n      dup6\n        /* \"challeng/my_contract/masterPool.sol\":12516:12520  data */\n      dup8\n        /* \"challeng/my_contract/masterPool.sol\":12490:12521  target.call{value: value}(data) */\n      mload(0x40)\n      tag_196\n      swap2\n      swap1\n      tag_197\n      jump\t// in\n    tag_196:\n      0x00\n      mload(0x40)\n      dup1\n      dup4\n      sub\n      dup2\n      dup6\n      dup8\n      gas\n      call\n      swap3\n      pop\n      pop\n      pop\n      returndatasize\n      dup1\n      0x00\n      dup2\n      eq\n      tag_200\n      jumpi\n      mload(0x40)\n      swap2\n      pop\n      and(add(returndatasize, 0x3f), not(0x1f))\n      dup3\n      add\n      0x40\n      mstore\n      returndatasize\n      dup3\n      mstore\n      returndatasize\n      0x00\n      0x20\n      dup5\n      add\n      returndatacopy\n      jump(tag_199)\n    tag_200:\n      0x60\n      swap2\n      pop\n    tag_199:\n      pop\n        /* \"challeng/my_contract/masterPool.sol\":12448:12521  (bool success, bytes memory returndata) = target.call{value: value}(data) */\n      swap2\n      pop\n      swap2\n      pop\n        /* \"challeng/my_contract/masterPool.sol\":12539:12590  verifyCallResult(success, returndata, errorMessage) */\n      tag_201\n        /* \"challeng/my_contract/masterPool.sol\":12556:12563  success */\n      dup3\n        /* \"challeng/my_contract/masterPool.sol\":12565:12575  returndata */\n      dup3\n        /* \"challeng/my_contract/masterPool.sol\":12577:12589  errorMessage */\n      dup7\n        /* \"challeng/my_contract/masterPool.sol\":12539:12555  verifyCallResult */\n      tag_202\n        /* \"challeng/my_contract/masterPool.sol\":12539:12590  verifyCallResult(success, returndata, errorMessage) */\n      jump\t// in\n    tag_201:\n        /* \"challeng/my_contract/masterPool.sol\":12532:12590  return verifyCallResult(success, returndata, errorMessage) */\n      swap3\n      pop\n      pop\n      pop\n        /* \"challeng/my_contract/masterPool.sol\":12088:12598  function functionCallWithValue(... */\n      swap5\n      swap4\n      pop\n      pop\n      pop\n      pop\n      jump\t// out\n        /* \"challeng/my_contract/masterPool.sol\":8223:8549  function isContract(address account) internal view returns (bool) {... */\n    tag_192:\n        /* \"challeng/my_contract/masterPool.sol\":8283:8287  bool */\n      0x00\n        /* \"challeng/my_contract/masterPool.sol\":8540:8541  0 */\n      dup1\n        /* \"challeng/my_contract/masterPool.sol\":8518:8525  account */\n      dup3\n        /* \"challeng/my_contract/masterPool.sol\":8518:8537  account.code.length */\n      0xffffffffffffffffffffffffffffffffffffffff\n      and\n      extcodesize\n        /* \"challeng/my_contract/masterPool.sol\":8518:8541  account.code.length > 0 */\n      gt\n        /* \"challeng/my_contract/masterPool.sol\":8511:8541  return account.code.length > 0 */\n      swap1\n      pop\n        /* \"challeng/my_contract/masterPool.sol\":8223:8549  function isContract(address account) internal view returns (bool) {... */\n      swap2\n      swap1\n      pop\n      jump\t// out\n        /* \"challeng/my_contract/masterPool.sol\":14774:15486  function verifyCallResult(... */\n    tag_202:\n        /* \"challeng/my_contract/masterPool.sol\":14924:14936  bytes memory */\n      0x60\n        /* \"challeng/my_contract/masterPool.sol\":14953:14960  success */\n      dup4\n        /* \"challeng/my_contract/masterPool.sol\":14949:15479  if (success) {... */\n      iszero\n      tag_205\n      jumpi\n        /* \"challeng/my_contract/masterPool.sol\":14984:14994  returndata */\n      dup3\n        /* \"challeng/my_contract/masterPool.sol\":14977:14994  return returndata */\n      swap1\n      pop\n      jump(tag_204)\n        /* \"challeng/my_contract/masterPool.sol\":14949:15479  if (success) {... */\n    tag_205:\n        /* \"challeng/my_contract/masterPool.sol\":15118:15119  0 */\n      0x00\n        /* \"challeng/my_contract/masterPool.sol\":15098:15108  returndata */\n      dup4\n        /* \"challeng/my_contract/masterPool.sol\":15098:15115  returndata.length */\n      mload\n        /* \"challeng/my_contract/masterPool.sol\":15098:15119  returndata.length > 0 */\n      gt\n        /* \"challeng/my_contract/masterPool.sol\":15094:15468  if (returndata.length > 0) {... */\n      iszero\n      tag_207\n      jumpi\n        /* \"challeng/my_contract/masterPool.sol\":15296:15306  returndata */\n      dup3\n        /* \"challeng/my_contract/masterPool.sol\":15290:15307  mload(returndata) */\n      mload\n        /* \"challeng/my_contract/masterPool.sol\":15357:15372  returndata_size */\n      dup1\n        /* \"challeng/my_contract/masterPool.sol\":15344:15354  returndata */\n      dup5\n        /* \"challeng/my_contract/masterPool.sol\":15340:15342  32 */\n      0x20\n        /* \"challeng/my_contract/masterPool.sol\":15336:15355  add(32, returndata) */\n      add\n        /* \"challeng/my_contract/masterPool.sol\":15329:15373  revert(add(32, returndata), returndata_size) */\n      revert\n        /* \"challeng/my_contract/masterPool.sol\":15094:15468  if (returndata.length > 0) {... */\n    tag_207:\n        /* \"challeng/my_contract/masterPool.sol\":15439:15451  errorMessage */\n      dup2\n        /* \"challeng/my_contract/masterPool.sol\":15432:15452  revert(errorMessage) */\n      mload(0x40)\n      0x08c379a000000000000000000000000000000000000000000000000000000000\n      dup2\n      mstore\n      0x04\n      add\n      tag_209\n      swap2\n      swap1\n      tag_98\n      jump\t// in\n    tag_209:\n      mload(0x40)\n      dup1\n      swap2\n      sub\n      swap1\n      revert\n        /* \"challeng/my_contract/masterPool.sol\":14774:15486  function verifyCallResult(... */\n    tag_204:\n      swap4\n      swap3\n      pop\n      pop\n      pop\n      jump\t// out\n        /* \"#utility.yul\":7:82   */\n    tag_210:\n        /* \"#utility.yul\":40:46   */\n      0x00\n        /* \"#utility.yul\":73:75   */\n      0x40\n        /* \"#utility.yul\":67:76   */\n      mload\n        /* \"#utility.yul\":57:76   */\n      swap1\n      pop\n        /* \"#utility.yul\":7:82   */\n      swap1\n      jump\t// out\n        /* \"#utility.yul\":88:205   */\n    tag_211:\n        /* \"#utility.yul\":197:198   */\n      0x00\n        /* \"#utility.yul\":194:195   */\n      dup1\n        /* \"#utility.yul\":187:199   */\n      revert\n        /* \"#utility.yul\":211:328   */\n    tag_212:\n        /* \"#utility.yul\":320:321   */\n      0x00\n        /* \"#utility.yul\":317:318   */\n      dup1\n        /* \"#utility.yul\":310:322   */\n      revert\n        /* \"#utility.yul\":334:451   */\n    tag_213:\n        /* \"#utility.yul\":443:444   */\n      0x00\n        /* \"#utility.yul\":440:441   */\n      dup1\n        /* \"#utility.yul\":433:445   */\n      revert\n        /* \"#utility.yul\":457:559   */\n    tag_214:\n        /* \"#utility.yul\":498:504   */\n      0x00\n        /* \"#utility.yul\":549:551   */\n      0x1f\n        /* \"#utility.yul\":545:552   */\n      not\n        /* \"#utility.yul\":540:542   */\n      0x1f\n        /* \"#utility.yul\":533:538   */\n      dup4\n        /* \"#utility.yul\":529:543   */\n      add\n        /* \"#utility.yul\":525:553   */\n      and\n        /* \"#utility.yul\":515:553   */\n      swap1\n      pop\n        /* \"#utility.yul\":457:559   */\n      swap2\n      swap1\n      pop\n      jump\t// out\n        /* \"#utility.yul\":565:745   */\n    tag_215:\n        /* \"#utility.yul\":613:690   */\n      0x4e487b7100000000000000000000000000000000000000000000000000000000\n        /* \"#utility.yul\":610:611   */\n      0x00\n        /* \"#utility.yul\":603:691   */\n      mstore\n        /* \"#utility.yul\":710:714   */\n      0x41\n        /* \"#utility.yul\":707:708   */\n      0x04\n        /* \"#utility.yul\":700:715   */\n      mstore\n        /* \"#utility.yul\":734:738   */\n      0x24\n        /* \"#utility.yul\":731:732   */\n      0x00\n        /* \"#utility.yul\":724:739   */\n      revert\n        /* \"#utility.yul\":751:1032   */\n    tag_216:\n        /* \"#utility.yul\":834:861   */\n      tag_291\n        /* \"#utility.yul\":856:860   */\n      dup3\n        /* \"#utility.yul\":834:861   */\n      tag_214\n      jump\t// in\n    tag_291:\n        /* \"#utility.yul\":826:832   */\n      dup2\n        /* \"#utility.yul\":822:862   */\n      add\n        /* \"#utility.yul\":964:970   */\n      dup2\n        /* \"#utility.yul\":952:962   */\n      dup2\n        /* \"#utility.yul\":949:971   */\n      lt\n        /* \"#utility.yul\":928:946   */\n      0xffffffffffffffff\n        /* \"#utility.yul\":916:926   */\n      dup3\n        /* \"#utility.yul\":913:947   */\n      gt\n        /* \"#utility.yul\":910:972   */\n      or\n        /* \"#utility.yul\":907:995   */\n      iszero\n      tag_292\n      jumpi\n        /* \"#utility.yul\":975:993   */\n      tag_293\n      tag_215\n      jump\t// in\n    tag_293:\n        /* \"#utility.yul\":907:995   */\n    tag_292:\n        /* \"#utility.yul\":1015:1025   */\n      dup1\n        /* \"#utility.yul\":1011:1013   */\n      0x40\n        /* \"#utility.yul\":1004:1026   */\n      mstore\n        /* \"#utility.yul\":794:1032   */\n      pop\n        /* \"#utility.yul\":751:1032   */\n      pop\n      pop\n      jump\t// out\n        /* \"#utility.yul\":1038:1167   */\n    tag_217:\n        /* \"#utility.yul\":1072:1078   */\n      0x00\n        /* \"#utility.yul\":1099:1119   */\n      tag_295\n      tag_210\n      jump\t// in\n    tag_295:\n        /* \"#utility.yul\":1089:1119   */\n      swap1\n      pop\n        /* \"#utility.yul\":1128:1161   */\n      tag_296\n        /* \"#utility.yul\":1156:1160   */\n      dup3\n        /* \"#utility.yul\":1148:1154   */\n      dup3\n        /* \"#utility.yul\":1128:1161   */\n      tag_216\n      jump\t// in\n    tag_296:\n        /* \"#utility.yul\":1038:1167   */\n      swap2\n      swap1\n      pop\n      jump\t// out\n        /* \"#utility.yul\":1173:1494   */\n    tag_218:\n        /* \"#utility.yul\":1260:1264   */\n      0x00\n        /* \"#utility.yul\":1350:1368   */\n      0xffffffffffffffff\n        /* \"#utility.yul\":1342:1348   */\n      dup3\n        /* \"#utility.yul\":1339:1369   */\n      gt\n        /* \"#utility.yul\":1336:1392   */\n      iszero\n      tag_298\n      jumpi\n        /* \"#utility.yul\":1372:1390   */\n      tag_299\n      tag_215\n      jump\t// in\n    tag_299:\n        /* \"#utility.yul\":1336:1392   */\n    tag_298:\n        /* \"#utility.yul\":1422:1426   */\n      0x20\n        /* \"#utility.yul\":1414:1420   */\n      dup3\n        /* \"#utility.yul\":1410:1427   */\n      mul\n        /* \"#utility.yul\":1402:1427   */\n      swap1\n      pop\n        /* \"#utility.yul\":1482:1486   */\n      0x20\n        /* \"#utility.yul\":1476:1480   */\n      dup2\n        /* \"#utility.yul\":1472:1487   */\n      add\n        /* \"#utility.yul\":1464:1487   */\n      swap1\n      pop\n        /* \"#utility.yul\":1173:1494   */\n      swap2\n      swap1\n      pop\n      jump\t// out\n        /* \"#utility.yul\":1500:1617   */\n    tag_219:\n        /* \"#utility.yul\":1609:1610   */\n      0x00\n        /* \"#utility.yul\":1606:1607   */\n      dup1\n        /* \"#utility.yul\":1599:1611   */\n      revert\n        /* \"#utility.yul\":1623:1740   */\n    tag_220:\n        /* \"#utility.yul\":1732:1733   */\n      0x00\n        /* \"#utility.yul\":1729:1730   */\n      dup1\n        /* \"#utility.yul\":1722:1734   */\n      revert\n        /* \"#utility.yul\":1746:2054   */\n    tag_221:\n        /* \"#utility.yul\":1808:1812   */\n      0x00\n        /* \"#utility.yul\":1898:1916   */\n      0xffffffffffffffff\n        /* \"#utility.yul\":1890:1896   */\n      dup3\n        /* \"#utility.yul\":1887:1917   */\n      gt\n        /* \"#utility.yul\":1884:1940   */\n      iszero\n      tag_303\n      jumpi\n        /* \"#utility.yul\":1920:1938   */\n      tag_304\n      tag_215\n      jump\t// in\n    tag_304:\n        /* \"#utility.yul\":1884:1940   */\n    tag_303:\n        /* \"#utility.yul\":1958:1987   */\n      tag_305\n        /* \"#utility.yul\":1980:1986   */\n      dup3\n        /* \"#utility.yul\":1958:1987   */\n      tag_214\n      jump\t// in\n    tag_305:\n        /* \"#utility.yul\":1950:1987   */\n      swap1\n      pop\n        /* \"#utility.yul\":2042:2046   */\n      0x20\n        /* \"#utility.yul\":2036:2040   */\n      dup2\n        /* \"#utility.yul\":2032:2047   */\n      add\n        /* \"#utility.yul\":2024:2047   */\n      swap1\n      pop\n        /* \"#utility.yul\":1746:2054   */\n      swap2\n      swap1\n      pop\n      jump\t// out\n        /* \"#utility.yul\":2060:2206   */\n    tag_222:\n        /* \"#utility.yul\":2157:2163   */\n      dup3\n        /* \"#utility.yul\":2152:2155   */\n      dup2\n        /* \"#utility.yul\":2147:2150   */\n      dup4\n        /* \"#utility.yul\":2134:2164   */\n      calldatacopy\n        /* \"#utility.yul\":2198:2199   */\n      0x00\n        /* \"#utility.yul\":2189:2195   */\n      dup4\n        /* \"#utility.yul\":2184:2187   */\n      dup4\n        /* \"#utility.yul\":2180:2196   */\n      add\n        /* \"#utility.yul\":2173:2200   */\n      mstore\n        /* \"#utility.yul\":2060:2206   */\n      pop\n      pop\n      pop\n      jump\t// out\n        /* \"#utility.yul\":2212:2637   */\n    tag_223:\n        /* \"#utility.yul\":2290:2295   */\n      0x00\n        /* \"#utility.yul\":2315:2381   */\n      tag_308\n        /* \"#utility.yul\":2331:2380   */\n      tag_309\n        /* \"#utility.yul\":2373:2379   */\n      dup5\n        /* \"#utility.yul\":2331:2380   */\n      tag_221\n      jump\t// in\n    tag_309:\n        /* \"#utility.yul\":2315:2381   */\n      tag_217\n      jump\t// in\n    tag_308:\n        /* \"#utility.yul\":2306:2381   */\n      swap1\n      pop\n        /* \"#utility.yul\":2404:2410   */\n      dup3\n        /* \"#utility.yul\":2397:2402   */\n      dup2\n        /* \"#utility.yul\":2390:2411   */\n      mstore\n        /* \"#utility.yul\":2442:2446   */\n      0x20\n        /* \"#utility.yul\":2435:2440   */\n      dup2\n        /* \"#utility.yul\":2431:2447   */\n      add\n        /* \"#utility.yul\":2480:2483   */\n      dup5\n        /* \"#utility.yul\":2471:2477   */\n      dup5\n        /* \"#utility.yul\":2466:2469   */\n      dup5\n        /* \"#utility.yul\":2462:2478   */\n      add\n        /* \"#utility.yul\":2459:2484   */\n      gt\n        /* \"#utility.yul\":2456:2568   */\n      iszero\n      tag_310\n      jumpi\n        /* \"#utility.yul\":2487:2566   */\n      tag_311\n      tag_220\n      jump\t// in\n    tag_311:\n        /* \"#utility.yul\":2456:2568   */\n    tag_310:\n        /* \"#utility.yul\":2577:2631   */\n      tag_312\n        /* \"#utility.yul\":2624:2630   */\n      dup5\n        /* \"#utility.yul\":2619:2622   */\n      dup3\n        /* \"#utility.yul\":2614:2617   */\n      dup6\n        /* \"#utility.yul\":2577:2631   */\n      tag_222\n      jump\t// in\n    tag_312:\n        /* \"#utility.yul\":2296:2637   */\n      pop\n        /* \"#utility.yul\":2212:2637   */\n      swap4\n      swap3\n      pop\n      pop\n      pop\n      jump\t// out\n        /* \"#utility.yul\":2657:2997   */\n    tag_224:\n        /* \"#utility.yul\":2713:2718   */\n      0x00\n        /* \"#utility.yul\":2762:2765   */\n      dup3\n        /* \"#utility.yul\":2755:2759   */\n      0x1f\n        /* \"#utility.yul\":2747:2753   */\n      dup4\n        /* \"#utility.yul\":2743:2760   */\n      add\n        /* \"#utility.yul\":2739:2766   */\n      slt\n        /* \"#utility.yul\":2729:2851   */\n      tag_314\n      jumpi\n        /* \"#utility.yul\":2770:2849   */\n      tag_315\n      tag_213\n      jump\t// in\n    tag_315:\n        /* \"#utility.yul\":2729:2851   */\n    tag_314:\n        /* \"#utility.yul\":2887:2893   */\n      dup2\n        /* \"#utility.yul\":2874:2894   */\n      calldataload\n        /* \"#utility.yul\":2912:2991   */\n      tag_316\n        /* \"#utility.yul\":2987:2990   */\n      dup5\n        /* \"#utility.yul\":2979:2985   */\n      dup3\n        /* \"#utility.yul\":2972:2976   */\n      0x20\n        /* \"#utility.yul\":2964:2970   */\n      dup7\n        /* \"#utility.yul\":2960:2977   */\n      add\n        /* \"#utility.yul\":2912:2991   */\n      tag_223\n      jump\t// in\n    tag_316:\n        /* \"#utility.yul\":2903:2991   */\n      swap2\n      pop\n        /* \"#utility.yul\":2719:2997   */\n      pop\n        /* \"#utility.yul\":2657:2997   */\n      swap3\n      swap2\n      pop\n      pop\n      jump\t// out\n        /* \"#utility.yul\":3019:3964   */\n    tag_225:\n        /* \"#utility.yul\":3125:3130   */\n      0x00\n        /* \"#utility.yul\":3150:3241   */\n      tag_318\n        /* \"#utility.yul\":3166:3240   */\n      tag_319\n        /* \"#utility.yul\":3233:3239   */\n      dup5\n        /* \"#utility.yul\":3166:3240   */\n      tag_218\n      jump\t// in\n    tag_319:\n        /* \"#utility.yul\":3150:3241   */\n      tag_217\n      jump\t// in\n    tag_318:\n        /* \"#utility.yul\":3141:3241   */\n      swap1\n      pop\n        /* \"#utility.yul\":3261:3266   */\n      dup1\n        /* \"#utility.yul\":3290:3296   */\n      dup4\n        /* \"#utility.yul\":3283:3288   */\n      dup3\n        /* \"#utility.yul\":3276:3297   */\n      mstore\n        /* \"#utility.yul\":3324:3328   */\n      0x20\n        /* \"#utility.yul\":3317:3322   */\n      dup3\n        /* \"#utility.yul\":3313:3329   */\n      add\n        /* \"#utility.yul\":3306:3329   */\n      swap1\n      pop\n        /* \"#utility.yul\":3377:3381   */\n      0x20\n        /* \"#utility.yul\":3369:3375   */\n      dup5\n        /* \"#utility.yul\":3365:3382   */\n      mul\n        /* \"#utility.yul\":3357:3363   */\n      dup4\n        /* \"#utility.yul\":3353:3383   */\n      add\n        /* \"#utility.yul\":3406:3409   */\n      dup6\n        /* \"#utility.yul\":3398:3404   */\n      dup2\n        /* \"#utility.yul\":3395:3410   */\n      gt\n        /* \"#utility.yul\":3392:3514   */\n      iszero\n      tag_320\n      jumpi\n        /* \"#utility.yul\":3425:3504   */\n      tag_321\n      tag_219\n      jump\t// in\n    tag_321:\n        /* \"#utility.yul\":3392:3514   */\n    tag_320:\n        /* \"#utility.yul\":3540:3546   */\n      dup4\n        /* \"#utility.yul\":3523:3958   */\n    tag_322:\n        /* \"#utility.yul\":3557:3563   */\n      dup2\n        /* \"#utility.yul\":3552:3555   */\n      dup2\n        /* \"#utility.yul\":3549:3564   */\n      lt\n        /* \"#utility.yul\":3523:3958   */\n      iszero\n      tag_324\n      jumpi\n        /* \"#utility.yul\":3646:3649   */\n      dup1\n        /* \"#utility.yul\":3633:3650   */\n      calldataload\n        /* \"#utility.yul\":3682:3700   */\n      0xffffffffffffffff\n        /* \"#utility.yul\":3669:3680   */\n      dup2\n        /* \"#utility.yul\":3666:3701   */\n      gt\n        /* \"#utility.yul\":3663:3785   */\n      iszero\n      tag_325\n      jumpi\n        /* \"#utility.yul\":3704:3783   */\n      tag_326\n      tag_213\n      jump\t// in\n    tag_326:\n        /* \"#utility.yul\":3663:3785   */\n    tag_325:\n        /* \"#utility.yul\":3828:3839   */\n      dup1\n        /* \"#utility.yul\":3820:3826   */\n      dup7\n        /* \"#utility.yul\":3816:3840   */\n      add\n        /* \"#utility.yul\":3866:3913   */\n      tag_327\n        /* \"#utility.yul\":3909:3912   */\n      dup10\n        /* \"#utility.yul\":3897:3907   */\n      dup3\n        /* \"#utility.yul\":3866:3913   */\n      tag_224\n      jump\t// in\n    tag_327:\n        /* \"#utility.yul\":3861:3864   */\n      dup6\n        /* \"#utility.yul\":3854:3914   */\n      mstore\n        /* \"#utility.yul\":3943:3947   */\n      0x20\n        /* \"#utility.yul\":3938:3941   */\n      dup6\n        /* \"#utility.yul\":3934:3948   */\n      add\n        /* \"#utility.yul\":3927:3948   */\n      swap5\n      pop\n        /* \"#utility.yul\":3599:3958   */\n      pop\n      pop\n        /* \"#utility.yul\":3583:3587   */\n      0x20\n        /* \"#utility.yul\":3578:3581   */\n      dup2\n        /* \"#utility.yul\":3574:3588   */\n      add\n        /* \"#utility.yul\":3567:3588   */\n      swap1\n      pop\n        /* \"#utility.yul\":3523:3958   */\n      jump(tag_322)\n    tag_324:\n        /* \"#utility.yul\":3527:3548   */\n      pop\n        /* \"#utility.yul\":3131:3964   */\n      pop\n      pop\n        /* \"#utility.yul\":3019:3964   */\n      swap4\n      swap3\n      pop\n      pop\n      pop\n      jump\t// out\n        /* \"#utility.yul\":3986:4376   */\n    tag_226:\n        /* \"#utility.yul\":4067:4072   */\n      0x00\n        /* \"#utility.yul\":4116:4119   */\n      dup3\n        /* \"#utility.yul\":4109:4113   */\n      0x1f\n        /* \"#utility.yul\":4101:4107   */\n      dup4\n        /* \"#utility.yul\":4097:4114   */\n      add\n        /* \"#utility.yul\":4093:4120   */\n      slt\n        /* \"#utility.yul\":4083:4205   */\n      tag_329\n      jumpi\n        /* \"#utility.yul\":4124:4203   */\n      tag_330\n      tag_213\n      jump\t// in\n    tag_330:\n        /* \"#utility.yul\":4083:4205   */\n    tag_329:\n        /* \"#utility.yul\":4241:4247   */\n      dup2\n        /* \"#utility.yul\":4228:4248   */\n      calldataload\n        /* \"#utility.yul\":4266:4370   */\n      tag_331\n        /* \"#utility.yul\":4366:4369   */\n      dup5\n        /* \"#utility.yul\":4358:4364   */\n      dup3\n        /* \"#utility.yul\":4351:4355   */\n      0x20\n        /* \"#utility.yul\":4343:4349   */\n      dup7\n        /* \"#utility.yul\":4339:4356   */\n      add\n        /* \"#utility.yul\":4266:4370   */\n      tag_225\n      jump\t// in\n    tag_331:\n        /* \"#utility.yul\":4257:4370   */\n      swap2\n      pop\n        /* \"#utility.yul\":4073:4376   */\n      pop\n        /* \"#utility.yul\":3986:4376   */\n      swap3\n      swap2\n      pop\n      pop\n      jump\t// out\n        /* \"#utility.yul\":4382:4693   */\n    tag_227:\n        /* \"#utility.yul\":4459:4463   */\n      0x00\n        /* \"#utility.yul\":4549:4567   */\n      0xffffffffffffffff\n        /* \"#utility.yul\":4541:4547   */\n      dup3\n        /* \"#utility.yul\":4538:4568   */\n      gt\n        /* \"#utility.yul\":4535:4591   */\n      iszero\n      tag_333\n      jumpi\n        /* \"#utility.yul\":4571:4589   */\n      tag_334\n      tag_215\n      jump\t// in\n    tag_334:\n        /* \"#utility.yul\":4535:4591   */\n    tag_333:\n        /* \"#utility.yul\":4621:4625   */\n      0x20\n        /* \"#utility.yul\":4613:4619   */\n      dup3\n        /* \"#utility.yul\":4609:4626   */\n      mul\n        /* \"#utility.yul\":4601:4626   */\n      swap1\n      pop\n        /* \"#utility.yul\":4681:4685   */\n      0x20\n        /* \"#utility.yul\":4675:4679   */\n      dup2\n        /* \"#utility.yul\":4671:4686   */\n      add\n        /* \"#utility.yul\":4663:4686   */\n      swap1\n      pop\n        /* \"#utility.yul\":4382:4693   */\n      swap2\n      swap1\n      pop\n      jump\t// out\n        /* \"#utility.yul\":4699:4776   */\n    tag_228:\n        /* \"#utility.yul\":4736:4743   */\n      0x00\n        /* \"#utility.yul\":4765:4770   */\n      dup2\n        /* \"#utility.yul\":4754:4770   */\n      swap1\n      pop\n        /* \"#utility.yul\":4699:4776   */\n      swap2\n      swap1\n      pop\n      jump\t// out\n        /* \"#utility.yul\":4782:4904   */\n    tag_229:\n        /* \"#utility.yul\":4855:4879   */\n      tag_337\n        /* \"#utility.yul\":4873:4878   */\n      dup2\n        /* \"#utility.yul\":4855:4879   */\n      tag_228\n      jump\t// in\n    tag_337:\n        /* \"#utility.yul\":4848:4853   */\n      dup2\n        /* \"#utility.yul\":4845:4880   */\n      eq\n        /* \"#utility.yul\":4835:4898   */\n      tag_338\n      jumpi\n        /* \"#utility.yul\":4894:4895   */\n      0x00\n        /* \"#utility.yul\":4891:4892   */\n      dup1\n        /* \"#utility.yul\":4884:4896   */\n      revert\n        /* \"#utility.yul\":4835:4898   */\n    tag_338:\n        /* \"#utility.yul\":4782:4904   */\n      pop\n      jump\t// out\n        /* \"#utility.yul\":4910:5049   */\n    tag_230:\n        /* \"#utility.yul\":4956:4961   */\n      0x00\n        /* \"#utility.yul\":4994:5000   */\n      dup2\n        /* \"#utility.yul\":4981:5001   */\n      calldataload\n        /* \"#utility.yul\":4972:5001   */\n      swap1\n      pop\n        /* \"#utility.yul\":5010:5043   */\n      tag_340\n        /* \"#utility.yul\":5037:5042   */\n      dup2\n        /* \"#utility.yul\":5010:5043   */\n      tag_229\n      jump\t// in\n    tag_340:\n        /* \"#utility.yul\":4910:5049   */\n      swap3\n      swap2\n      pop\n      pop\n      jump\t// out\n        /* \"#utility.yul\":5072:5782   */\n    tag_231:\n        /* \"#utility.yul\":5168:5173   */\n      0x00\n        /* \"#utility.yul\":5193:5274   */\n      tag_342\n        /* \"#utility.yul\":5209:5273   */\n      tag_343\n        /* \"#utility.yul\":5266:5272   */\n      dup5\n        /* \"#utility.yul\":5209:5273   */\n      tag_227\n      jump\t// in\n    tag_343:\n        /* \"#utility.yul\":5193:5274   */\n      tag_217\n      jump\t// in\n    tag_342:\n        /* \"#utility.yul\":5184:5274   */\n      swap1\n      pop\n        /* \"#utility.yul\":5294:5299   */\n      dup1\n        /* \"#utility.yul\":5323:5329   */\n      dup4\n        /* \"#utility.yul\":5316:5321   */\n      dup3\n        /* \"#utility.yul\":5309:5330   */\n      mstore\n        /* \"#utility.yul\":5357:5361   */\n      0x20\n        /* \"#utility.yul\":5350:5355   */\n      dup3\n        /* \"#utility.yul\":5346:5362   */\n      add\n        /* \"#utility.yul\":5339:5362   */\n      swap1\n      pop\n        /* \"#utility.yul\":5410:5414   */\n      0x20\n        /* \"#utility.yul\":5402:5408   */\n      dup5\n        /* \"#utility.yul\":5398:5415   */\n      mul\n        /* \"#utility.yul\":5390:5396   */\n      dup4\n        /* \"#utility.yul\":5386:5416   */\n      add\n        /* \"#utility.yul\":5439:5442   */\n      dup6\n        /* \"#utility.yul\":5431:5437   */\n      dup2\n        /* \"#utility.yul\":5428:5443   */\n      gt\n        /* \"#utility.yul\":5425:5547   */\n      iszero\n      tag_344\n      jumpi\n        /* \"#utility.yul\":5458:5537   */\n      tag_345\n      tag_219\n      jump\t// in\n    tag_345:\n        /* \"#utility.yul\":5425:5547   */\n    tag_344:\n        /* \"#utility.yul\":5573:5579   */\n      dup4\n        /* \"#utility.yul\":5556:5776   */\n    tag_346:\n        /* \"#utility.yul\":5590:5596   */\n      dup2\n        /* \"#utility.yul\":5585:5588   */\n      dup2\n        /* \"#utility.yul\":5582:5597   */\n      lt\n        /* \"#utility.yul\":5556:5776   */\n      iszero\n      tag_348\n      jumpi\n        /* \"#utility.yul\":5665:5668   */\n      dup1\n        /* \"#utility.yul\":5694:5731   */\n      tag_349\n        /* \"#utility.yul\":5727:5730   */\n      dup9\n        /* \"#utility.yul\":5715:5725   */\n      dup3\n        /* \"#utility.yul\":5694:5731   */\n      tag_230\n      jump\t// in\n    tag_349:\n        /* \"#utility.yul\":5689:5692   */\n      dup5\n        /* \"#utility.yul\":5682:5732   */\n      mstore\n        /* \"#utility.yul\":5761:5765   */\n      0x20\n        /* \"#utility.yul\":5756:5759   */\n      dup5\n        /* \"#utility.yul\":5752:5766   */\n      add\n        /* \"#utility.yul\":5745:5766   */\n      swap4\n      pop\n        /* \"#utility.yul\":5632:5776   */\n      pop\n        /* \"#utility.yul\":5616:5620   */\n      0x20\n        /* \"#utility.yul\":5611:5614   */\n      dup2\n        /* \"#utility.yul\":5607:5621   */\n      add\n        /* \"#utility.yul\":5600:5621   */\n      swap1\n      pop\n        /* \"#utility.yul\":5556:5776   */\n      jump(tag_346)\n    tag_348:\n        /* \"#utility.yul\":5560:5581   */\n      pop\n        /* \"#utility.yul\":5174:5782   */\n      pop\n      pop\n        /* \"#utility.yul\":5072:5782   */\n      swap4\n      swap3\n      pop\n      pop\n      pop\n      jump\t// out\n        /* \"#utility.yul\":5805:6175   */\n    tag_232:\n        /* \"#utility.yul\":5876:5881   */\n      0x00\n        /* \"#utility.yul\":5925:5928   */\n      dup3\n        /* \"#utility.yul\":5918:5922   */\n      0x1f\n        /* \"#utility.yul\":5910:5916   */\n      dup4\n        /* \"#utility.yul\":5906:5923   */\n      add\n        /* \"#utility.yul\":5902:5929   */\n      slt\n        /* \"#utility.yul\":5892:6014   */\n      tag_351\n      jumpi\n        /* \"#utility.yul\":5933:6012   */\n      tag_352\n      tag_213\n      jump\t// in\n    tag_352:\n        /* \"#utility.yul\":5892:6014   */\n    tag_351:\n        /* \"#utility.yul\":6050:6056   */\n      dup2\n        /* \"#utility.yul\":6037:6057   */\n      calldataload\n        /* \"#utility.yul\":6075:6169   */\n      tag_353\n        /* \"#utility.yul\":6165:6168   */\n      dup5\n        /* \"#utility.yul\":6157:6163   */\n      dup3\n        /* \"#utility.yul\":6150:6154   */\n      0x20\n        /* \"#utility.yul\":6142:6148   */\n      dup7\n        /* \"#utility.yul\":6138:6155   */\n      add\n        /* \"#utility.yul\":6075:6169   */\n      tag_231\n      jump\t// in\n    tag_353:\n        /* \"#utility.yul\":6066:6169   */\n      swap2\n      pop\n        /* \"#utility.yul\":5882:6175   */\n      pop\n        /* \"#utility.yul\":5805:6175   */\n      swap3\n      swap2\n      pop\n      pop\n      jump\t// out\n        /* \"#utility.yul\":6181:7095   */\n    tag_20:\n        /* \"#utility.yul\":6309:6315   */\n      0x00\n        /* \"#utility.yul\":6317:6323   */\n      dup1\n        /* \"#utility.yul\":6366:6368   */\n      0x40\n        /* \"#utility.yul\":6354:6363   */\n      dup4\n        /* \"#utility.yul\":6345:6352   */\n      dup6\n        /* \"#utility.yul\":6341:6364   */\n      sub\n        /* \"#utility.yul\":6337:6369   */\n      slt\n        /* \"#utility.yul\":6334:6453   */\n      iszero\n      tag_355\n      jumpi\n        /* \"#utility.yul\":6372:6451   */\n      tag_356\n      tag_211\n      jump\t// in\n    tag_356:\n        /* \"#utility.yul\":6334:6453   */\n    tag_355:\n        /* \"#utility.yul\":6520:6521   */\n      0x00\n        /* \"#utility.yul\":6509:6518   */\n      dup4\n        /* \"#utility.yul\":6505:6522   */\n      add\n        /* \"#utility.yul\":6492:6523   */\n      calldataload\n        /* \"#utility.yul\":6550:6568   */\n      0xffffffffffffffff\n        /* \"#utility.yul\":6542:6548   */\n      dup2\n        /* \"#utility.yul\":6539:6569   */\n      gt\n        /* \"#utility.yul\":6536:6653   */\n      iszero\n      tag_357\n      jumpi\n        /* \"#utility.yul\":6572:6651   */\n      tag_358\n      tag_212\n      jump\t// in\n    tag_358:\n        /* \"#utility.yul\":6536:6653   */\n    tag_357:\n        /* \"#utility.yul\":6677:6765   */\n      tag_359\n        /* \"#utility.yul\":6757:6764   */\n      dup6\n        /* \"#utility.yul\":6748:6754   */\n      dup3\n        /* \"#utility.yul\":6737:6746   */\n      dup7\n        /* \"#utility.yul\":6733:6755   */\n      add\n        /* \"#utility.yul\":6677:6765   */\n      tag_226\n      jump\t// in\n    tag_359:\n        /* \"#utility.yul\":6667:6765   */\n      swap3\n      pop\n        /* \"#utility.yul\":6463:6775   */\n      pop\n        /* \"#utility.yul\":6842:6844   */\n      0x20\n        /* \"#utility.yul\":6831:6840   */\n      dup4\n        /* \"#utility.yul\":6827:6845   */\n      add\n        /* \"#utility.yul\":6814:6846   */\n      calldataload\n        /* \"#utility.yul\":6873:6891   */\n      0xffffffffffffffff\n        /* \"#utility.yul\":6865:6871   */\n      dup2\n        /* \"#utility.yul\":6862:6892   */\n      gt\n        /* \"#utility.yul\":6859:6976   */\n      iszero\n      tag_360\n      jumpi\n        /* \"#utility.yul\":6895:6974   */\n      tag_361\n      tag_212\n      jump\t// in\n    tag_361:\n        /* \"#utility.yul\":6859:6976   */\n    tag_360:\n        /* \"#utility.yul\":7000:7078   */\n      tag_362\n        /* \"#utility.yul\":7070:7077   */\n      dup6\n        /* \"#utility.yul\":7061:7067   */\n      dup3\n        /* \"#utility.yul\":7050:7059   */\n      dup7\n        /* \"#utility.yul\":7046:7068   */\n      add\n        /* \"#utility.yul\":7000:7078   */\n      tag_232\n      jump\t// in\n    tag_362:\n        /* \"#utility.yul\":6990:7078   */\n      swap2\n      pop\n        /* \"#utility.yul\":6785:7088   */\n      pop\n        /* \"#utility.yul\":6181:7095   */\n      swap3\n      pop\n      swap3\n      swap1\n      pop\n      jump\t// out\n        /* \"#utility.yul\":7101:7219   */\n    tag_233:\n        /* \"#utility.yul\":7188:7212   */\n      tag_364\n        /* \"#utility.yul\":7206:7211   */\n      dup2\n        /* \"#utility.yul\":7188:7212   */\n      tag_228\n      jump\t// in\n    tag_364:\n        /* \"#utility.yul\":7183:7186   */\n      dup3\n        /* \"#utility.yul\":7176:7213   */\n      mstore\n        /* \"#utility.yul\":7101:7219   */\n      pop\n      pop\n      jump\t// out\n        /* \"#utility.yul\":7225:7447   */\n    tag_25:\n        /* \"#utility.yul\":7318:7322   */\n      0x00\n        /* \"#utility.yul\":7356:7358   */\n      0x20\n        /* \"#utility.yul\":7345:7354   */\n      dup3\n        /* \"#utility.yul\":7341:7359   */\n      add\n        /* \"#utility.yul\":7333:7359   */\n      swap1\n      pop\n        /* \"#utility.yul\":7369:7440   */\n      tag_366\n        /* \"#utility.yul\":7437:7438   */\n      0x00\n        /* \"#utility.yul\":7426:7435   */\n      dup4\n        /* \"#utility.yul\":7422:7439   */\n      add\n        /* \"#utility.yul\":7413:7419   */\n      dup5\n        /* \"#utility.yul\":7369:7440   */\n      tag_233\n      jump\t// in\n    tag_366:\n        /* \"#utility.yul\":7225:7447   */\n      swap3\n      swap2\n      pop\n      pop\n      jump\t// out\n        /* \"#utility.yul\":7453:7579   */\n    tag_234:\n        /* \"#utility.yul\":7490:7497   */\n      0x00\n        /* \"#utility.yul\":7530:7572   */\n      0xffffffffffffffffffffffffffffffffffffffff\n        /* \"#utility.yul\":7523:7528   */\n      dup3\n        /* \"#utility.yul\":7519:7573   */\n      and\n        /* \"#utility.yul\":7508:7573   */\n      swap1\n      pop\n        /* \"#utility.yul\":7453:7579   */\n      swap2\n      swap1\n      pop\n      jump\t// out\n        /* \"#utility.yul\":7585:7681   */\n    tag_235:\n        /* \"#utility.yul\":7622:7629   */\n      0x00\n        /* \"#utility.yul\":7651:7675   */\n      tag_369\n        /* \"#utility.yul\":7669:7674   */\n      dup3\n        /* \"#utility.yul\":7651:7675   */\n      tag_234\n      jump\t// in\n    tag_369:\n        /* \"#utility.yul\":7640:7675   */\n      swap1\n      pop\n        /* \"#utility.yul\":7585:7681   */\n      swap2\n      swap1\n      pop\n      jump\t// out\n        /* \"#utility.yul\":7687:7809   */\n    tag_236:\n        /* \"#utility.yul\":7760:7784   */\n      tag_371\n        /* \"#utility.yul\":7778:7783   */\n      dup2\n        /* \"#utility.yul\":7760:7784   */\n      tag_235\n      jump\t// in\n    tag_371:\n        /* \"#utility.yul\":7753:7758   */\n      dup2\n        /* \"#utility.yul\":7750:7785   */\n      eq\n        /* \"#utility.yul\":7740:7803   */\n      tag_372\n      jumpi\n        /* \"#utility.yul\":7799:7800   */\n      0x00\n        /* \"#utility.yul\":7796:7797   */\n      dup1\n        /* \"#utility.yul\":7789:7801   */\n      revert\n        /* \"#utility.yul\":7740:7803   */\n    tag_372:\n        /* \"#utility.yul\":7687:7809   */\n      pop\n      jump\t// out\n        /* \"#utility.yul\":7815:7954   */\n    tag_237:\n        /* \"#utility.yul\":7861:7866   */\n      0x00\n        /* \"#utility.yul\":7899:7905   */\n      dup2\n        /* \"#utility.yul\":7886:7906   */\n      calldataload\n        /* \"#utility.yul\":7877:7906   */\n      swap1\n      pop\n        /* \"#utility.yul\":7915:7948   */\n      tag_374\n        /* \"#utility.yul\":7942:7947   */\n      dup2\n        /* \"#utility.yul\":7915:7948   */\n      tag_236\n      jump\t// in\n    tag_374:\n        /* \"#utility.yul\":7815:7954   */\n      swap3\n      swap2\n      pop\n      pop\n      jump\t// out\n        /* \"#utility.yul\":7960:8289   */\n    tag_28:\n        /* \"#utility.yul\":8019:8025   */\n      0x00\n        /* \"#utility.yul\":8068:8070   */\n      0x20\n        /* \"#utility.yul\":8056:8065   */\n      dup3\n        /* \"#utility.yul\":8047:8054   */\n      dup5\n        /* \"#utility.yul\":8043:8066   */\n      sub\n        /* \"#utility.yul\":8039:8071   */\n      slt\n        /* \"#utility.yul\":8036:8155   */\n      iszero\n      tag_376\n      jumpi\n        /* \"#utility.yul\":8074:8153   */\n      tag_377\n      tag_211\n      jump\t// in\n    tag_377:\n        /* \"#utility.yul\":8036:8155   */\n    tag_376:\n        /* \"#utility.yul\":8194:8195   */\n      0x00\n        /* \"#utility.yul\":8219:8272   */\n      tag_378\n        /* \"#utility.yul\":8264:8271   */\n      dup5\n        /* \"#utility.yul\":8255:8261   */\n      dup3\n        /* \"#utility.yul\":8244:8253   */\n      dup6\n        /* \"#utility.yul\":8240:8262   */\n      add\n        /* \"#utility.yul\":8219:8272   */\n      tag_237\n      jump\t// in\n    tag_378:\n        /* \"#utility.yul\":8209:8272   */\n      swap2\n      pop\n        /* \"#utility.yul\":8165:8282   */\n      pop\n        /* \"#utility.yul\":7960:8289   */\n      swap3\n      swap2\n      pop\n      pop\n      jump\t// out\n        /* \"#utility.yul\":8295:8413   */\n    tag_238:\n        /* \"#utility.yul\":8382:8406   */\n      tag_380\n        /* \"#utility.yul\":8400:8405   */\n      dup2\n        /* \"#utility.yul\":8382:8406   */\n      tag_235\n      jump\t// in\n    tag_380:\n        /* \"#utility.yul\":8377:8380   */\n      dup3\n        /* \"#utility.yul\":8370:8407   */\n      mstore\n        /* \"#utility.yul\":8295:8413   */\n      pop\n      pop\n      jump\t// out\n        /* \"#utility.yul\":8419:8641   */\n    tag_36:\n        /* \"#utility.yul\":8512:8516   */\n      0x00\n        /* \"#utility.yul\":8550:8552   */\n      0x20\n        /* \"#utility.yul\":8539:8548   */\n      dup3\n        /* \"#utility.yul\":8535:8553   */\n      add\n        /* \"#utility.yul\":8527:8553   */\n      swap1\n      pop\n        /* \"#utility.yul\":8563:8634   */\n      tag_382\n        /* \"#utility.yul\":8631:8632   */\n      0x00\n        /* \"#utility.yul\":8620:8629   */\n      dup4\n        /* \"#utility.yul\":8616:8633   */\n      add\n        /* \"#utility.yul\":8607:8613   */\n      dup5\n        /* \"#utility.yul\":8563:8634   */\n      tag_238\n      jump\t// in\n    tag_382:\n        /* \"#utility.yul\":8419:8641   */\n      swap3\n      swap2\n      pop\n      pop\n      jump\t// out\n        /* \"#utility.yul\":8647:8764   */\n    tag_239:\n        /* \"#utility.yul\":8756:8757   */\n      0x00\n        /* \"#utility.yul\":8753:8754   */\n      dup1\n        /* \"#utility.yul\":8746:8758   */\n      revert\n        /* \"#utility.yul\":8787:9355   */\n    tag_240:\n        /* \"#utility.yul\":8860:8868   */\n      0x00\n        /* \"#utility.yul\":8870:8876   */\n      dup1\n        /* \"#utility.yul\":8920:8923   */\n      dup4\n        /* \"#utility.yul\":8913:8917   */\n      0x1f\n        /* \"#utility.yul\":8905:8911   */\n      dup5\n        /* \"#utility.yul\":8901:8918   */\n      add\n        /* \"#utility.yul\":8897:8924   */\n      slt\n        /* \"#utility.yul\":8887:9009   */\n      tag_385\n      jumpi\n        /* \"#utility.yul\":8928:9007   */\n      tag_386\n      tag_213\n      jump\t// in\n    tag_386:\n        /* \"#utility.yul\":8887:9009   */\n    tag_385:\n        /* \"#utility.yul\":9041:9047   */\n      dup3\n        /* \"#utility.yul\":9028:9048   */\n      calldataload\n        /* \"#utility.yul\":9018:9048   */\n      swap1\n      pop\n        /* \"#utility.yul\":9071:9089   */\n      0xffffffffffffffff\n        /* \"#utility.yul\":9063:9069   */\n      dup2\n        /* \"#utility.yul\":9060:9090   */\n      gt\n        /* \"#utility.yul\":9057:9174   */\n      iszero\n      tag_387\n      jumpi\n        /* \"#utility.yul\":9093:9172   */\n      tag_388\n      tag_239\n      jump\t// in\n    tag_388:\n        /* \"#utility.yul\":9057:9174   */\n    tag_387:\n        /* \"#utility.yul\":9207:9211   */\n      0x20\n        /* \"#utility.yul\":9199:9205   */\n      dup4\n        /* \"#utility.yul\":9195:9212   */\n      add\n        /* \"#utility.yul\":9183:9212   */\n      swap2\n      pop\n        /* \"#utility.yul\":9261:9264   */\n      dup4\n        /* \"#utility.yul\":9253:9257   */\n      0x20\n        /* \"#utility.yul\":9245:9251   */\n      dup3\n        /* \"#utility.yul\":9241:9258   */\n      mul\n        /* \"#utility.yul\":9231:9239   */\n      dup4\n        /* \"#utility.yul\":9227:9259   */\n      add\n        /* \"#utility.yul\":9224:9265   */\n      gt\n        /* \"#utility.yul\":9221:9349   */\n      iszero\n      tag_389\n      jumpi\n        /* \"#utility.yul\":9268:9347   */\n      tag_390\n      tag_219\n      jump\t// in\n    tag_390:\n        /* \"#utility.yul\":9221:9349   */\n    tag_389:\n        /* \"#utility.yul\":8787:9355   */\n      swap3\n      pop\n      swap3\n      swap1\n      pop\n      jump\t// out\n        /* \"#utility.yul\":9378:9946   */\n    tag_241:\n        /* \"#utility.yul\":9451:9459   */\n      0x00\n        /* \"#utility.yul\":9461:9467   */\n      dup1\n        /* \"#utility.yul\":9511:9514   */\n      dup4\n        /* \"#utility.yul\":9504:9508   */\n      0x1f\n        /* \"#utility.yul\":9496:9502   */\n      dup5\n        /* \"#utility.yul\":9492:9509   */\n      add\n        /* \"#utility.yul\":9488:9515   */\n      slt\n        /* \"#utility.yul\":9478:9600   */\n      tag_392\n      jumpi\n        /* \"#utility.yul\":9519:9598   */\n      tag_393\n      tag_213\n      jump\t// in\n    tag_393:\n        /* \"#utility.yul\":9478:9600   */\n    tag_392:\n        /* \"#utility.yul\":9632:9638   */\n      dup3\n        /* \"#utility.yul\":9619:9639   */\n      calldataload\n        /* \"#utility.yul\":9609:9639   */\n      swap1\n      pop\n        /* \"#utility.yul\":9662:9680   */\n      0xffffffffffffffff\n        /* \"#utility.yul\":9654:9660   */\n      dup2\n        /* \"#utility.yul\":9651:9681   */\n      gt\n        /* \"#utility.yul\":9648:9765   */\n      iszero\n      tag_394\n      jumpi\n        /* \"#utility.yul\":9684:9763   */\n      tag_395\n      tag_239\n      jump\t// in\n    tag_395:\n        /* \"#utility.yul\":9648:9765   */\n    tag_394:\n        /* \"#utility.yul\":9798:9802   */\n      0x20\n        /* \"#utility.yul\":9790:9796   */\n      dup4\n        /* \"#utility.yul\":9786:9803   */\n      add\n        /* \"#utility.yul\":9774:9803   */\n      swap2\n      pop\n        /* \"#utility.yul\":9852:9855   */\n      dup4\n        /* \"#utility.yul\":9844:9848   */\n      0x20\n        /* \"#utility.yul\":9836:9842   */\n      dup3\n        /* \"#utility.yul\":9832:9849   */\n      mul\n        /* \"#utility.yul\":9822:9830   */\n      dup4\n        /* \"#utility.yul\":9818:9850   */\n      add\n        /* \"#utility.yul\":9815:9856   */\n      gt\n        /* \"#utility.yul\":9812:9940   */\n      iszero\n      tag_396\n      jumpi\n        /* \"#utility.yul\":9859:9938   */\n      tag_397\n      tag_219\n      jump\t// in\n    tag_397:\n        /* \"#utility.yul\":9812:9940   */\n    tag_396:\n        /* \"#utility.yul\":9378:9946   */\n      swap3\n      pop\n      swap3\n      swap1\n      pop\n      jump\t// out\n        /* \"#utility.yul\":9952:10886   */\n    tag_42:\n        /* \"#utility.yul\":10074:10080   */\n      0x00\n        /* \"#utility.yul\":10082:10088   */\n      dup1\n        /* \"#utility.yul\":10090:10096   */\n      0x00\n        /* \"#utility.yul\":10098:10104   */\n      dup1\n        /* \"#utility.yul\":10147:10149   */\n      0x40\n        /* \"#utility.yul\":10135:10144   */\n      dup6\n        /* \"#utility.yul\":10126:10133   */\n      dup8\n        /* \"#utility.yul\":10122:10145   */\n      sub\n        /* \"#utility.yul\":10118:10150   */\n      slt\n        /* \"#utility.yul\":10115:10234   */\n      iszero\n      tag_399\n      jumpi\n        /* \"#utility.yul\":10153:10232   */\n      tag_400\n      tag_211\n      jump\t// in\n    tag_400:\n        /* \"#utility.yul\":10115:10234   */\n    tag_399:\n        /* \"#utility.yul\":10301:10302   */\n      0x00\n        /* \"#utility.yul\":10290:10299   */\n      dup6\n        /* \"#utility.yul\":10286:10303   */\n      add\n        /* \"#utility.yul\":10273:10304   */\n      calldataload\n        /* \"#utility.yul\":10331:10349   */\n      0xffffffffffffffff\n        /* \"#utility.yul\":10323:10329   */\n      dup2\n        /* \"#utility.yul\":10320:10350   */\n      gt\n        /* \"#utility.yul\":10317:10434   */\n      iszero\n      tag_401\n      jumpi\n        /* \"#utility.yul\":10353:10432   */\n      tag_402\n      tag_212\n      jump\t// in\n    tag_402:\n        /* \"#utility.yul\":10317:10434   */\n    tag_401:\n        /* \"#utility.yul\":10466:10546   */\n      tag_403\n        /* \"#utility.yul\":10538:10545   */\n      dup8\n        /* \"#utility.yul\":10529:10535   */\n      dup3\n        /* \"#utility.yul\":10518:10527   */\n      dup9\n        /* \"#utility.yul\":10514:10536   */\n      add\n        /* \"#utility.yul\":10466:10546   */\n      tag_240\n      jump\t// in\n    tag_403:\n        /* \"#utility.yul\":10448:10546   */\n      swap5\n      pop\n      swap5\n      pop\n        /* \"#utility.yul\":10244:10556   */\n      pop\n        /* \"#utility.yul\":10623:10625   */\n      0x20\n        /* \"#utility.yul\":10612:10621   */\n      dup6\n        /* \"#utility.yul\":10608:10626   */\n      add\n        /* \"#utility.yul\":10595:10627   */\n      calldataload\n        /* \"#utility.yul\":10654:10672   */\n      0xffffffffffffffff\n        /* \"#utility.yul\":10646:10652   */\n      dup2\n        /* \"#utility.yul\":10643:10673   */\n      gt\n        /* \"#utility.yul\":10640:10757   */\n      iszero\n      tag_404\n      jumpi\n        /* \"#utility.yul\":10676:10755   */\n      tag_405\n      tag_212\n      jump\t// in\n    tag_405:\n        /* \"#utility.yul\":10640:10757   */\n    tag_404:\n        /* \"#utility.yul\":10789:10869   */\n      tag_406\n        /* \"#utility.yul\":10861:10868   */\n      dup8\n        /* \"#utility.yul\":10852:10858   */\n      dup3\n        /* \"#utility.yul\":10841:10850   */\n      dup9\n        /* \"#utility.yul\":10837:10859   */\n      add\n        /* \"#utility.yul\":10789:10869   */\n      tag_241\n      jump\t// in\n    tag_406:\n        /* \"#utility.yul\":10771:10869   */\n      swap3\n      pop\n      swap3\n      pop\n        /* \"#utility.yul\":10566:10879   */\n      pop\n        /* \"#utility.yul\":9952:10886   */\n      swap3\n      swap6\n      swap2\n      swap5\n      pop\n      swap3\n      pop\n      jump\t// out\n        /* \"#utility.yul\":10892:10952   */\n    tag_242:\n        /* \"#utility.yul\":10920:10923   */\n      0x00\n        /* \"#utility.yul\":10941:10946   */\n      dup2\n        /* \"#utility.yul\":10934:10946   */\n      swap1\n      pop\n        /* \"#utility.yul\":10892:10952   */\n      swap2\n      swap1\n      pop\n      jump\t// out\n        /* \"#utility.yul\":10958:11100   */\n    tag_243:\n        /* \"#utility.yul\":11008:11017   */\n      0x00\n        /* \"#utility.yul\":11041:11094   */\n      tag_409\n        /* \"#utility.yul\":11059:11093   */\n      tag_410\n        /* \"#utility.yul\":11068:11092   */\n      tag_411\n        /* \"#utility.yul\":11086:11091   */\n      dup5\n        /* \"#utility.yul\":11068:11092   */\n      tag_234\n      jump\t// in\n    tag_411:\n        /* \"#utility.yul\":11059:11093   */\n      tag_242\n      jump\t// in\n    tag_410:\n        /* \"#utility.yul\":11041:11094   */\n      tag_234\n      jump\t// in\n    tag_409:\n        /* \"#utility.yul\":11028:11094   */\n      swap1\n      pop\n        /* \"#utility.yul\":10958:11100   */\n      swap2\n      swap1\n      pop\n      jump\t// out\n        /* \"#utility.yul\":11106:11232   */\n    tag_244:\n        /* \"#utility.yul\":11156:11165   */\n      0x00\n        /* \"#utility.yul\":11189:11226   */\n      tag_413\n        /* \"#utility.yul\":11220:11225   */\n      dup3\n        /* \"#utility.yul\":11189:11226   */\n      tag_243\n      jump\t// in\n    tag_413:\n        /* \"#utility.yul\":11176:11226   */\n      swap1\n      pop\n        /* \"#utility.yul\":11106:11232   */\n      swap2\n      swap1\n      pop\n      jump\t// out\n        /* \"#utility.yul\":11238:11378   */\n    tag_245:\n        /* \"#utility.yul\":11302:11311   */\n      0x00\n        /* \"#utility.yul\":11335:11372   */\n      tag_415\n        /* \"#utility.yul\":11366:11371   */\n      dup3\n        /* \"#utility.yul\":11335:11372   */\n      tag_244\n      jump\t// in\n    tag_415:\n        /* \"#utility.yul\":11322:11372   */\n      swap1\n      pop\n        /* \"#utility.yul\":11238:11378   */\n      swap2\n      swap1\n      pop\n      jump\t// out\n        /* \"#utility.yul\":11384:11543   */\n    tag_246:\n        /* \"#utility.yul\":11485:11536   */\n      tag_417\n        /* \"#utility.yul\":11530:11535   */\n      dup2\n        /* \"#utility.yul\":11485:11536   */\n      tag_245\n      jump\t// in\n    tag_417:\n        /* \"#utility.yul\":11480:11483   */\n      dup3\n        /* \"#utility.yul\":11473:11537   */\n      mstore\n        /* \"#utility.yul\":11384:11543   */\n      pop\n      pop\n      jump\t// out\n        /* \"#utility.yul\":11549:11799   */\n    tag_62:\n        /* \"#utility.yul\":11656:11660   */\n      0x00\n        /* \"#utility.yul\":11694:11696   */\n      0x20\n        /* \"#utility.yul\":11683:11692   */\n      dup3\n        /* \"#utility.yul\":11679:11697   */\n      add\n        /* \"#utility.yul\":11671:11697   */\n      swap1\n      pop\n        /* \"#utility.yul\":11707:11792   */\n      tag_419\n        /* \"#utility.yul\":11789:11790   */\n      0x00\n        /* \"#utility.yul\":11778:11787   */\n      dup4\n        /* \"#utility.yul\":11774:11791   */\n      add\n        /* \"#utility.yul\":11765:11771   */\n      dup5\n        /* \"#utility.yul\":11707:11792   */\n      tag_246\n      jump\t// in\n    tag_419:\n        /* \"#utility.yul\":11549:11799   */\n      swap3\n      swap2\n      pop\n      pop\n      jump\t// out\n        /* \"#utility.yul\":11805:11974   */\n    tag_247:\n        /* \"#utility.yul\":11889:11900   */\n      0x00\n        /* \"#utility.yul\":11923:11929   */\n      dup3\n        /* \"#utility.yul\":11918:11921   */\n      dup3\n        /* \"#utility.yul\":11911:11930   */\n      mstore\n        /* \"#utility.yul\":11963:11967   */\n      0x20\n        /* \"#utility.yul\":11958:11961   */\n      dup3\n        /* \"#utility.yul\":11954:11968   */\n      add\n        /* \"#utility.yul\":11939:11968   */\n      swap1\n      pop\n        /* \"#utility.yul\":11805:11974   */\n      swap3\n      swap2\n      pop\n      pop\n      jump\t// out\n        /* \"#utility.yul\":11980:12281   */\n    tag_248:\n        /* \"#utility.yul\":12120:12154   */\n      0x506c6561736520636865636b2074686520646174612c20746865206e65777320\n        /* \"#utility.yul\":12116:12117   */\n      0x00\n        /* \"#utility.yul\":12108:12114   */\n      dup3\n        /* \"#utility.yul\":12104:12118   */\n      add\n        /* \"#utility.yul\":12097:12155   */\n      mstore\n        /* \"#utility.yul\":12189:12223   */\n      0x494420616e6420646973747269627574696f6e207175616e7469747920617265\n        /* \"#utility.yul\":12184:12186   */\n      0x20\n        /* \"#utility.yul\":12176:12182   */\n      dup3\n        /* \"#utility.yul\":12172:12187   */\n      add\n        /* \"#utility.yul\":12165:12224   */\n      mstore\n        /* \"#utility.yul\":12258:12273   */\n      0x20696e636f6e73697374656e7400000000000000000000000000000000000000\n        /* \"#utility.yul\":12253:12255   */\n      0x40\n        /* \"#utility.yul\":12245:12251   */\n      dup3\n        /* \"#utility.yul\":12241:12256   */\n      add\n        /* \"#utility.yul\":12234:12274   */\n      mstore\n        /* \"#utility.yul\":11980:12281   */\n      pop\n      jump\t// out\n        /* \"#utility.yul\":12287:12653   */\n    tag_249:\n        /* \"#utility.yul\":12429:12432   */\n      0x00\n        /* \"#utility.yul\":12450:12517   */\n      tag_423\n        /* \"#utility.yul\":12514:12516   */\n      0x4d\n        /* \"#utility.yul\":12509:12512   */\n      dup4\n        /* \"#utility.yul\":12450:12517   */\n      tag_247\n      jump\t// in\n    tag_423:\n        /* \"#utility.yul\":12443:12517   */\n      swap2\n      pop\n        /* \"#utility.yul\":12526:12619   */\n      tag_424\n        /* \"#utility.yul\":12615:12618   */\n      dup3\n        /* \"#utility.yul\":12526:12619   */\n      tag_248\n      jump\t// in\n    tag_424:\n        /* \"#utility.yul\":12644:12646   */\n      0x60\n        /* \"#utility.yul\":12639:12642   */\n      dup3\n        /* \"#utility.yul\":12635:12647   */\n      add\n        /* \"#utility.yul\":12628:12647   */\n      swap1\n      pop\n        /* \"#utility.yul\":12287:12653   */\n      swap2\n      swap1\n      pop\n      jump\t// out\n        /* \"#utility.yul\":12659:13078   */\n    tag_68:\n        /* \"#utility.yul\":12825:12829   */\n      0x00\n        /* \"#utility.yul\":12863:12865   */\n      0x20\n        /* \"#utility.yul\":12852:12861   */\n      dup3\n        /* \"#utility.yul\":12848:12866   */\n      add\n        /* \"#utility.yul\":12840:12866   */\n      swap1\n      pop\n        /* \"#utility.yul\":12912:12921   */\n      dup2\n        /* \"#utility.yul\":12906:12910   */\n      dup2\n        /* \"#utility.yul\":12902:12922   */\n      sub\n        /* \"#utility.yul\":12898:12899   */\n      0x00\n        /* \"#utility.yul\":12887:12896   */\n      dup4\n        /* \"#utility.yul\":12883:12900   */\n      add\n        /* \"#utility.yul\":12876:12923   */\n      mstore\n        /* \"#utility.yul\":12940:13071   */\n      tag_426\n        /* \"#utility.yul\":13066:13070   */\n      dup2\n        /* \"#utility.yul\":12940:13071   */\n      tag_249\n      jump\t// in\n    tag_426:\n        /* \"#utility.yul\":12932:13071   */\n      swap1\n      pop\n        /* \"#utility.yul\":12659:13078   */\n      swap2\n      swap1\n      pop\n      jump\t// out\n        /* \"#utility.yul\":13084:13265   */\n    tag_250:\n        /* \"#utility.yul\":13224:13257   */\n      0x52656c656173653a206e6565642073657420546f6b656e204164647265737300\n        /* \"#utility.yul\":13220:13221   */\n      0x00\n        /* \"#utility.yul\":13212:13218   */\n      dup3\n        /* \"#utility.yul\":13208:13222   */\n      add\n        /* \"#utility.yul\":13201:13258   */\n      mstore\n        /* \"#utility.yul\":13084:13265   */\n      pop\n      jump\t// out\n        /* \"#utility.yul\":13271:13637   */\n    tag_251:\n        /* \"#utility.yul\":13413:13416   */\n      0x00\n        /* \"#utility.yul\":13434:13501   */\n      tag_429\n        /* \"#utility.yul\":13498:13500   */\n      0x1f\n        /* \"#utility.yul\":13493:13496   */\n      dup4\n        /* \"#utility.yul\":13434:13501   */\n      tag_247\n      jump\t// in\n    tag_429:\n        /* \"#utility.yul\":13427:13501   */\n      swap2\n      pop\n        /* \"#utility.yul\":13510:13603   */\n      tag_430\n        /* \"#utility.yul\":13599:13602   */\n      dup3\n        /* \"#utility.yul\":13510:13603   */\n      tag_250\n      jump\t// in\n    tag_430:\n        /* \"#utility.yul\":13628:13630   */\n      0x20\n        /* \"#utility.yul\":13623:13626   */\n      dup3\n        /* \"#utility.yul\":13619:13631   */\n      add\n        /* \"#utility.yul\":13612:13631   */\n      swap1\n      pop\n        /* \"#utility.yul\":13271:13637   */\n      swap2\n      swap1\n      pop\n      jump\t// out\n        /* \"#utility.yul\":13643:14062   */\n    tag_72:\n        /* \"#utility.yul\":13809:13813   */\n      0x00\n        /* \"#utility.yul\":13847:13849   */\n      0x20\n        /* \"#utility.yul\":13836:13845   */\n      dup3\n        /* \"#utility.yul\":13832:13850   */\n      add\n        /* \"#utility.yul\":13824:13850   */\n      swap1\n      pop\n        /* \"#utility.yul\":13896:13905   */\n      dup2\n        /* \"#utility.yul\":13890:13894   */\n      dup2\n        /* \"#utility.yul\":13886:13906   */\n      sub\n        /* \"#utility.yul\":13882:13883   */\n      0x00\n        /* \"#utility.yul\":13871:13880   */\n      dup4\n        /* \"#utility.yul\":13867:13884   */\n      add\n        /* \"#utility.yul\":13860:13907   */\n      mstore\n        /* \"#utility.yul\":13924:14055   */\n      tag_432\n        /* \"#utility.yul\":14050:14054   */\n      dup2\n        /* \"#utility.yul\":13924:14055   */\n      tag_251\n      jump\t// in\n    tag_432:\n        /* \"#utility.yul\":13916:14055   */\n      swap1\n      pop\n        /* \"#utility.yul\":13643:14062   */\n      swap2\n      swap1\n      pop\n      jump\t// out\n        /* \"#utility.yul\":14068:14298   */\n    tag_252:\n        /* \"#utility.yul\":14208:14242   */\n      0x52656c656173653a206e65656420736574204368616c6c656e6720436f6e7472\n        /* \"#utility.yul\":14204:14205   */\n      0x00\n        /* \"#utility.yul\":14196:14202   */\n      dup3\n        /* \"#utility.yul\":14192:14206   */\n      add\n        /* \"#utility.yul\":14185:14243   */\n      mstore\n        /* \"#utility.yul\":14277:14290   */\n      0x6163742041646472657373000000000000000000000000000000000000000000\n        /* \"#utility.yul\":14272:14274   */\n      0x20\n        /* \"#utility.yul\":14264:14270   */\n      dup3\n        /* \"#utility.yul\":14260:14275   */\n      add\n        /* \"#utility.yul\":14253:14291   */\n      mstore\n        /* \"#utility.yul\":14068:14298   */\n      pop\n      jump\t// out\n        /* \"#utility.yul\":14304:14670   */\n    tag_253:\n        /* \"#utility.yul\":14446:14449   */\n      0x00\n        /* \"#utility.yul\":14467:14534   */\n      tag_435\n        /* \"#utility.yul\":14531:14533   */\n      0x2b\n        /* \"#utility.yul\":14526:14529   */\n      dup4\n        /* \"#utility.yul\":14467:14534   */\n      tag_247\n      jump\t// in\n    tag_435:\n        /* \"#utility.yul\":14460:14534   */\n      swap2\n      pop\n        /* \"#utility.yul\":14543:14636   */\n      tag_436\n        /* \"#utility.yul\":14632:14635   */\n      dup3\n        /* \"#utility.yul\":14543:14636   */\n      tag_252\n      jump\t// in\n    tag_436:\n        /* \"#utility.yul\":14661:14663   */\n      0x40\n        /* \"#utility.yul\":14656:14659   */\n      dup3\n        /* \"#utility.yul\":14652:14664   */\n      add\n        /* \"#utility.yul\":14645:14664   */\n      swap1\n      pop\n        /* \"#utility.yul\":14304:14670   */\n      swap2\n      swap1\n      pop\n      jump\t// out\n        /* \"#utility.yul\":14676:15095   */\n    tag_76:\n        /* \"#utility.yul\":14842:14846   */\n      0x00\n        /* \"#utility.yul\":14880:14882   */\n      0x20\n        /* \"#utility.yul\":14869:14878   */\n      dup3\n        /* \"#utility.yul\":14865:14883   */\n      add\n        /* \"#utility.yul\":14857:14883   */\n      swap1\n      pop\n        /* \"#utility.yul\":14929:14938   */\n      dup2\n        /* \"#utility.yul\":14923:14927   */\n      dup2\n        /* \"#utility.yul\":14919:14939   */\n      sub\n        /* \"#utility.yul\":14915:14916   */\n      0x00\n        /* \"#utility.yul\":14904:14913   */\n      dup4\n        /* \"#utility.yul\":14900:14917   */\n      add\n        /* \"#utility.yul\":14893:14940   */\n      mstore\n        /* \"#utility.yul\":14957:15088   */\n      tag_438\n        /* \"#utility.yul\":15083:15087   */\n      dup2\n        /* \"#utility.yul\":14957:15088   */\n      tag_253\n      jump\t// in\n    tag_438:\n        /* \"#utility.yul\":14949:15088   */\n      swap1\n      pop\n        /* \"#utility.yul\":14676:15095   */\n      swap2\n      swap1\n      pop\n      jump\t// out\n        /* \"#utility.yul\":15101:15281   */\n    tag_82:\n        /* \"#utility.yul\":15149:15226   */\n      0x4e487b7100000000000000000000000000000000000000000000000000000000\n        /* \"#utility.yul\":15146:15147   */\n      0x00\n        /* \"#utility.yul\":15139:15227   */\n      mstore\n        /* \"#utility.yul\":15246:15250   */\n      0x32\n        /* \"#utility.yul\":15243:15244   */\n      0x04\n        /* \"#utility.yul\":15236:15251   */\n      mstore\n        /* \"#utility.yul\":15270:15274   */\n      0x24\n        /* \"#utility.yul\":15267:15268   */\n      0x00\n        /* \"#utility.yul\":15260:15275   */\n      revert\n        /* \"#utility.yul\":15287:15467   */\n    tag_254:\n        /* \"#utility.yul\":15335:15412   */\n      0x4e487b7100000000000000000000000000000000000000000000000000000000\n        /* \"#utility.yul\":15332:15333   */\n      0x00\n        /* \"#utility.yul\":15325:15413   */\n      mstore\n        /* \"#utility.yul\":15432:15436   */\n      0x11\n        /* \"#utility.yul\":15429:15430   */\n      0x04\n        /* \"#utility.yul\":15422:15437   */\n      mstore\n        /* \"#utility.yul\":15456:15460   */\n      0x24\n        /* \"#utility.yul\":15453:15454   */\n      0x00\n        /* \"#utility.yul\":15446:15461   */\n      revert\n        /* \"#utility.yul\":15473:15664   */\n    tag_84:\n        /* \"#utility.yul\":15513:15516   */\n      0x00\n        /* \"#utility.yul\":15532:15552   */\n      tag_442\n        /* \"#utility.yul\":15550:15551   */\n      dup3\n        /* \"#utility.yul\":15532:15552   */\n      tag_228\n      jump\t// in\n    tag_442:\n        /* \"#utility.yul\":15527:15552   */\n      swap2\n      pop\n        /* \"#utility.yul\":15566:15586   */\n      tag_443\n        /* \"#utility.yul\":15584:15585   */\n      dup4\n        /* \"#utility.yul\":15566:15586   */\n      tag_228\n      jump\t// in\n    tag_443:\n        /* \"#utility.yul\":15561:15586   */\n      swap3\n      pop\n        /* \"#utility.yul\":15609:15610   */\n      dup3\n        /* \"#utility.yul\":15606:15607   */\n      dup3\n        /* \"#utility.yul\":15602:15611   */\n      add\n        /* \"#utility.yul\":15595:15611   */\n      swap1\n      pop\n        /* \"#utility.yul\":15630:15633   */\n      dup1\n        /* \"#utility.yul\":15627:15628   */\n      dup3\n        /* \"#utility.yul\":15624:15634   */\n      gt\n        /* \"#utility.yul\":15621:15657   */\n      iszero\n      tag_444\n      jumpi\n        /* \"#utility.yul\":15637:15655   */\n      tag_445\n      tag_254\n      jump\t// in\n    tag_445:\n        /* \"#utility.yul\":15621:15657   */\n    tag_444:\n        /* \"#utility.yul\":15473:15664   */\n      swap3\n      swap2\n      pop\n      pop\n      jump\t// out\n        /* \"#utility.yul\":15670:15903   */\n    tag_86:\n        /* \"#utility.yul\":15709:15712   */\n      0x00\n        /* \"#utility.yul\":15732:15756   */\n      tag_447\n        /* \"#utility.yul\":15750:15755   */\n      dup3\n        /* \"#utility.yul\":15732:15756   */\n      tag_228\n      jump\t// in\n    tag_447:\n        /* \"#utility.yul\":15723:15756   */\n      swap2\n      pop\n        /* \"#utility.yul\":15778:15844   */\n      0xffffffffffffffffffffffffffffffffffffffffffffffffffffffffffffffff\n        /* \"#utility.yul\":15771:15776   */\n      dup3\n        /* \"#utility.yul\":15768:15845   */\n      sub\n        /* \"#utility.yul\":15765:15868   */\n      tag_448\n      jumpi\n        /* \"#utility.yul\":15848:15866   */\n      tag_449\n      tag_254\n      jump\t// in\n    tag_449:\n        /* \"#utility.yul\":15765:15868   */\n    tag_448:\n        /* \"#utility.yul\":15895:15896   */\n      0x01\n        /* \"#utility.yul\":15888:15893   */\n      dup3\n        /* \"#utility.yul\":15884:15897   */\n      add\n        /* \"#utility.yul\":15877:15897   */\n      swap1\n      pop\n        /* \"#utility.yul\":15670:15903   */\n      swap2\n      swap1\n      pop\n      jump\t// out\n        /* \"#utility.yul\":15909:16157   */\n    tag_255:\n        /* \"#utility.yul\":16049:16083   */\n      0x52656c656173653a20496e73756666696369656e7420746f74616c20616d6f75\n        /* \"#utility.yul\":16045:16046   */\n      0x00\n        /* \"#utility.yul\":16037:16043   */\n      dup3\n        /* \"#utility.yul\":16033:16047   */\n      add\n        /* \"#utility.yul\":16026:16084   */\n      mstore\n        /* \"#utility.yul\":16118:16149   */\n      0x6e7420617661696c61626c6520666f7220646973747269627574696f6e000000\n        /* \"#utility.yul\":16113:16115   */\n      0x20\n        /* \"#utility.yul\":16105:16111   */\n      dup3\n        /* \"#utility.yul\":16101:16116   */\n      add\n        /* \"#utility.yul\":16094:16150   */\n      mstore\n        /* \"#utility.yul\":15909:16157   */\n      pop\n      jump\t// out\n        /* \"#utility.yul\":16163:16529   */\n    tag_256:\n        /* \"#utility.yul\":16305:16308   */\n      0x00\n        /* \"#utility.yul\":16326:16393   */\n      tag_452\n        /* \"#utility.yul\":16390:16392   */\n      0x3d\n        /* \"#utility.yul\":16385:16388   */\n      dup4\n        /* \"#utility.yul\":16326:16393   */\n      tag_247\n      jump\t// in\n    tag_452:\n        /* \"#utility.yul\":16319:16393   */\n      swap2\n      pop\n        /* \"#utility.yul\":16402:16495   */\n      tag_453\n        /* \"#utility.yul\":16491:16494   */\n      dup3\n        /* \"#utility.yul\":16402:16495   */\n      tag_255\n      jump\t// in\n    tag_453:\n        /* \"#utility.yul\":16520:16522   */\n      0x40\n        /* \"#utility.yul\":16515:16518   */\n      dup3\n        /* \"#utility.yul\":16511:16523   */\n      add\n        /* \"#utility.yul\":16504:16523   */\n      swap1\n      pop\n        /* \"#utility.yul\":16163:16529   */\n      swap2\n      swap1\n      pop\n      jump\t// out\n        /* \"#utility.yul\":16535:16954   */\n    tag_90:\n        /* \"#utility.yul\":16701:16705   */\n      0x00\n        /* \"#utility.yul\":16739:16741   */\n      0x20\n        /* \"#utility.yul\":16728:16737   */\n      dup3\n        /* \"#utility.yul\":16724:16742   */\n      add\n        /* \"#utility.yul\":16716:16742   */\n      swap1\n      pop\n        /* \"#utility.yul\":16788:16797   */\n      dup2\n        /* \"#utility.yul\":16782:16786   */\n      dup2\n        /* \"#utility.yul\":16778:16798   */\n      sub\n        /* \"#utility.yul\":16774:16775   */\n      0x00\n        /* \"#utility.yul\":16763:16772   */\n      dup4\n        /* \"#utility.yul\":16759:16776   */\n      add\n        /* \"#utility.yul\":16752:16799   */\n      mstore\n        /* \"#utility.yul\":16816:16947   */\n      tag_455\n        /* \"#utility.yul\":16942:16946   */\n      dup2\n        /* \"#utility.yul\":16816:16947   */\n      tag_256\n      jump\t// in\n    tag_455:\n        /* \"#utility.yul\":16808:16947   */\n      swap1\n      pop\n        /* \"#utility.yul\":16535:16954   */\n      swap2\n      swap1\n      pop\n      jump\t// out\n        /* \"#utility.yul\":16960:17059   */\n    tag_257:\n        /* \"#utility.yul\":17012:17018   */\n      0x00\n        /* \"#utility.yul\":17046:17051   */\n      dup2\n        /* \"#utility.yul\":17040:17052   */\n      mload\n        /* \"#utility.yul\":17030:17052   */\n      swap1\n      pop\n        /* \"#utility.yul\":16960:17059   */\n      swap2\n      swap1\n      pop\n      jump\t// out\n        /* \"#utility.yul\":17065:17311   */\n    tag_258:\n        /* \"#utility.yul\":17146:17147   */\n      0x00\n        /* \"#utility.yul\":17156:17269   */\n    tag_458:\n        /* \"#utility.yul\":17170:17176   */\n      dup4\n        /* \"#utility.yul\":17167:17168   */\n      dup2\n        /* \"#utility.yul\":17164:17177   */\n      lt\n        /* \"#utility.yul\":17156:17269   */\n      iszero\n      tag_460\n      jumpi\n        /* \"#utility.yul\":17255:17256   */\n      dup1\n        /* \"#utility.yul\":17250:17253   */\n      dup3\n        /* \"#utility.yul\":17246:17257   */\n      add\n        /* \"#utility.yul\":17240:17258   */\n      mload\n        /* \"#utility.yul\":17236:17237   */\n      dup2\n        /* \"#utility.yul\":17231:17234   */\n      dup5\n        /* \"#utility.yul\":17227:17238   */\n      add\n        /* \"#utility.yul\":17220:17259   */\n      mstore\n        /* \"#utility.yul\":17192:17194   */\n      0x20\n        /* \"#utility.yul\":17189:17190   */\n      dup2\n        /* \"#utility.yul\":17185:17195   */\n      add\n        /* \"#utility.yul\":17180:17195   */\n      swap1\n      pop\n        /* \"#utility.yul\":17156:17269   */\n      jump(tag_458)\n    tag_460:\n        /* \"#utility.yul\":17303:17304   */\n      0x00\n        /* \"#utility.yul\":17294:17300   */\n      dup5\n        /* \"#utility.yul\":17289:17292   */\n      dup5\n        /* \"#utility.yul\":17285:17301   */\n      add\n        /* \"#utility.yul\":17278:17305   */\n      mstore\n        /* \"#utility.yul\":17127:17311   */\n      pop\n        /* \"#utility.yul\":17065:17311   */\n      pop\n      pop\n      pop\n      jump\t// out\n        /* \"#utility.yul\":17317:17694   */\n    tag_259:\n        /* \"#utility.yul\":17405:17408   */\n      0x00\n        /* \"#utility.yul\":17433:17472   */\n      tag_462\n        /* \"#utility.yul\":17466:17471   */\n      dup3\n        /* \"#utility.yul\":17433:17472   */\n      tag_257\n      jump\t// in\n    tag_462:\n        /* \"#utility.yul\":17488:17559   */\n      tag_463\n        /* \"#utility.yul\":17552:17558   */\n      dup2\n        /* \"#utility.yul\":17547:17550   */\n      dup6\n        /* \"#utility.yul\":17488:17559   */\n      tag_247\n      jump\t// in\n    tag_463:\n        /* \"#utility.yul\":17481:17559   */\n      swap4\n      pop\n        /* \"#utility.yul\":17568:17633   */\n      tag_464\n        /* \"#utility.yul\":17626:17632   */\n      dup2\n        /* \"#utility.yul\":17621:17624   */\n      dup6\n        /* \"#utility.yul\":17614:17618   */\n      0x20\n        /* \"#utility.yul\":17607:17612   */\n      dup7\n        /* \"#utility.yul\":17603:17619   */\n      add\n        /* \"#utility.yul\":17568:17633   */\n      tag_258\n      jump\t// in\n    tag_464:\n        /* \"#utility.yul\":17658:17687   */\n      tag_465\n        /* \"#utility.yul\":17680:17686   */\n      dup2\n        /* \"#utility.yul\":17658:17687   */\n      tag_214\n      jump\t// in\n    tag_465:\n        /* \"#utility.yul\":17653:17656   */\n      dup5\n        /* \"#utility.yul\":17649:17688   */\n      add\n        /* \"#utility.yul\":17642:17688   */\n      swap2\n      pop\n        /* \"#utility.yul\":17409:17694   */\n      pop\n        /* \"#utility.yul\":17317:17694   */\n      swap3\n      swap2\n      pop\n      pop\n      jump\t// out\n        /* \"#utility.yul\":17700:18013   */\n    tag_98:\n        /* \"#utility.yul\":17813:17817   */\n      0x00\n        /* \"#utility.yul\":17851:17853   */\n      0x20\n        /* \"#utility.yul\":17840:17849   */\n      dup3\n        /* \"#utility.yul\":17836:17854   */\n      add\n        /* \"#utility.yul\":17828:17854   */\n      swap1\n      pop\n        /* \"#utility.yul\":17900:17909   */\n      dup2\n        /* \"#utility.yul\":17894:17898   */\n      dup2\n        /* \"#utility.yul\":17890:17910   */\n      sub\n        /* \"#utility.yul\":17886:17887   */\n      0x00\n        /* \"#utility.yul\":17875:17884   */\n      dup4\n        /* \"#utility.yul\":17871:17888   */\n      add\n        /* \"#utility.yul\":17864:17911   */\n      mstore\n        /* \"#utility.yul\":17928:18006   */\n      tag_467\n        /* \"#utility.yul\":18001:18005   */\n      dup2\n        /* \"#utility.yul\":17992:17998   */\n      dup5\n        /* \"#utility.yul\":17928:18006   */\n      tag_259\n      jump\t// in\n    tag_467:\n        /* \"#utility.yul\":17920:18006   */\n      swap1\n      pop\n        /* \"#utility.yul\":17700:18013   */\n      swap3\n      swap2\n      pop\n      pop\n      jump\t// out\n        /* \"#utility.yul\":18019:18136   */\n    tag_260:\n        /* \"#utility.yul\":18128:18129   */\n      0x00\n        /* \"#utility.yul\":18125:18126   */\n      dup1\n        /* \"#utility.yul\":18118:18130   */\n      revert\n        /* \"#utility.yul\":18142:18259   */\n    tag_261:\n        /* \"#utility.yul\":18251:18252   */\n      0x00\n        /* \"#utility.yul\":18248:18249   */\n      dup1\n        /* \"#utility.yul\":18241:18253   */\n      revert\n        /* \"#utility.yul\":18265:18699   */\n    tag_262:\n        /* \"#utility.yul\":18354:18359   */\n      0x00\n        /* \"#utility.yul\":18379:18445   */\n      tag_471\n        /* \"#utility.yul\":18395:18444   */\n      tag_472\n        /* \"#utility.yul\":18437:18443   */\n      dup5\n        /* \"#utility.yul\":18395:18444   */\n      tag_221\n      jump\t// in\n    tag_472:\n        /* \"#utility.yul\":18379:18445   */\n      tag_217\n      jump\t// in\n    tag_471:\n        /* \"#utility.yul\":18370:18445   */\n      swap1\n      pop\n        /* \"#utility.yul\":18468:18474   */\n      dup3\n        /* \"#utility.yul\":18461:18466   */\n      dup2\n        /* \"#utility.yul\":18454:18475   */\n      mstore\n        /* \"#utility.yul\":18506:18510   */\n      0x20\n        /* \"#utility.yul\":18499:18504   */\n      dup2\n        /* \"#utility.yul\":18495:18511   */\n      add\n        /* \"#utility.yul\":18544:18547   */\n      dup5\n        /* \"#utility.yul\":18535:18541   */\n      dup5\n        /* \"#utility.yul\":18530:18533   */\n      dup5\n        /* \"#utility.yul\":18526:18542   */\n      add\n        /* \"#utility.yul\":18523:18548   */\n      gt\n        /* \"#utility.yul\":18520:18632   */\n      iszero\n      tag_473\n      jumpi\n        /* \"#utility.yul\":18551:18630   */\n      tag_474\n      tag_220\n      jump\t// in\n    tag_474:\n        /* \"#utility.yul\":18520:18632   */\n    tag_473:\n        /* \"#utility.yul\":18641:18693   */\n      tag_475\n        /* \"#utility.yul\":18686:18692   */\n      dup5\n        /* \"#utility.yul\":18681:18684   */\n      dup3\n        /* \"#utility.yul\":18676:18679   */\n      dup6\n        /* \"#utility.yul\":18641:18693   */\n      tag_258\n      jump\t// in\n    tag_475:\n        /* \"#utility.yul\":18360:18699   */\n      pop\n        /* \"#utility.yul\":18265:18699   */\n      swap4\n      swap3\n      pop\n      pop\n      pop\n      jump\t// out\n        /* \"#utility.yul\":18719:19074   */\n    tag_263:\n        /* \"#utility.yul\":18786:18791   */\n      0x00\n        /* \"#utility.yul\":18835:18838   */\n      dup3\n        /* \"#utility.yul\":18828:18832   */\n      0x1f\n        /* \"#utility.yul\":18820:18826   */\n      dup4\n        /* \"#utility.yul\":18816:18833   */\n      add\n        /* \"#utility.yul\":18812:18839   */\n      slt\n        /* \"#utility.yul\":18802:18924   */\n      tag_477\n      jumpi\n        /* \"#utility.yul\":18843:18922   */\n      tag_478\n      tag_213\n      jump\t// in\n    tag_478:\n        /* \"#utility.yul\":18802:18924   */\n    tag_477:\n        /* \"#utility.yul\":18953:18959   */\n      dup2\n        /* \"#utility.yul\":18947:18960   */\n      mload\n        /* \"#utility.yul\":18978:19068   */\n      tag_479\n        /* \"#utility.yul\":19064:19067   */\n      dup5\n        /* \"#utility.yul\":19056:19062   */\n      dup3\n        /* \"#utility.yul\":19049:19053   */\n      0x20\n        /* \"#utility.yul\":19041:19047   */\n      dup7\n        /* \"#utility.yul\":19037:19054   */\n      add\n        /* \"#utility.yul\":18978:19068   */\n      tag_262\n      jump\t// in\n    tag_479:\n        /* \"#utility.yul\":18969:19068   */\n      swap2\n      pop\n        /* \"#utility.yul\":18792:19074   */\n      pop\n        /* \"#utility.yul\":18719:19074   */\n      swap3\n      swap2\n      pop\n      pop\n      jump\t// out\n        /* \"#utility.yul\":19080:19223   */\n    tag_264:\n        /* \"#utility.yul\":19137:19142   */\n      0x00\n        /* \"#utility.yul\":19168:19174   */\n      dup2\n        /* \"#utility.yul\":19162:19175   */\n      mload\n        /* \"#utility.yul\":19153:19175   */\n      swap1\n      pop\n        /* \"#utility.yul\":19184:19217   */\n      tag_481\n        /* \"#utility.yul\":19211:19216   */\n      dup2\n        /* \"#utility.yul\":19184:19217   */\n      tag_236\n      jump\t// in\n    tag_481:\n        /* \"#utility.yul\":19080:19223   */\n      swap3\n      swap2\n      pop\n      pop\n      jump\t// out\n        /* \"#utility.yul\":19229:19372   */\n    tag_265:\n        /* \"#utility.yul\":19286:19291   */\n      0x00\n        /* \"#utility.yul\":19317:19323   */\n      dup2\n        /* \"#utility.yul\":19311:19324   */\n      mload\n        /* \"#utility.yul\":19302:19324   */\n      swap1\n      pop\n        /* \"#utility.yul\":19333:19366   */\n      tag_483\n        /* \"#utility.yul\":19360:19365   */\n      dup2\n        /* \"#utility.yul\":19333:19366   */\n      tag_229\n      jump\t// in\n    tag_483:\n        /* \"#utility.yul\":19229:19372   */\n      swap3\n      swap2\n      pop\n      pop\n      jump\t// out\n        /* \"#utility.yul\":19378:19468   */\n    tag_266:\n        /* \"#utility.yul\":19412:19419   */\n      0x00\n        /* \"#utility.yul\":19455:19460   */\n      dup2\n        /* \"#utility.yul\":19448:19461   */\n      iszero\n        /* \"#utility.yul\":19441:19462   */\n      iszero\n        /* \"#utility.yul\":19430:19462   */\n      swap1\n      pop\n        /* \"#utility.yul\":19378:19468   */\n      swap2\n      swap1\n      pop\n      jump\t// out\n        /* \"#utility.yul\":19474:19590   */\n    tag_267:\n        /* \"#utility.yul\":19544:19565   */\n      tag_486\n        /* \"#utility.yul\":19559:19564   */\n      dup2\n        /* \"#utility.yul\":19544:19565   */\n      tag_266\n      jump\t// in\n    tag_486:\n        /* \"#utility.yul\":19537:19542   */\n      dup2\n        /* \"#utility.yul\":19534:19566   */\n      eq\n        /* \"#utility.yul\":19524:19584   */\n      tag_487\n      jumpi\n        /* \"#utility.yul\":19580:19581   */\n      0x00\n        /* \"#utility.yul\":19577:19578   */\n      dup1\n        /* \"#utility.yul\":19570:19582   */\n      revert\n        /* \"#utility.yul\":19524:19584   */\n    tag_487:\n        /* \"#utility.yul\":19474:19590   */\n      pop\n      jump\t// out\n        /* \"#utility.yul\":19596:19733   */\n    tag_268:\n        /* \"#utility.yul\":19650:19655   */\n      0x00\n        /* \"#utility.yul\":19681:19687   */\n      dup2\n        /* \"#utility.yul\":19675:19688   */\n      mload\n        /* \"#utility.yul\":19666:19688   */\n      swap1\n      pop\n        /* \"#utility.yul\":19697:19727   */\n      tag_489\n        /* \"#utility.yul\":19721:19726   */\n      dup2\n        /* \"#utility.yul\":19697:19727   */\n      tag_267\n      jump\t// in\n    tag_489:\n        /* \"#utility.yul\":19596:19733   */\n      swap3\n      swap2\n      pop\n      pop\n      jump\t// out\n        /* \"#utility.yul\":19776:22321   */\n    tag_269:\n        /* \"#utility.yul\":19857:19862   */\n      0x00\n        /* \"#utility.yul\":19901:19907   */\n      0x0180\n        /* \"#utility.yul\":19889:19898   */\n      dup3\n        /* \"#utility.yul\":19884:19887   */\n      dup5\n        /* \"#utility.yul\":19880:19899   */\n      sub\n        /* \"#utility.yul\":19876:19908   */\n      slt\n        /* \"#utility.yul\":19873:19992   */\n      iszero\n      tag_491\n      jumpi\n        /* \"#utility.yul\":19911:19990   */\n      tag_492\n      tag_260\n      jump\t// in\n    tag_492:\n        /* \"#utility.yul\":19873:19992   */\n    tag_491:\n        /* \"#utility.yul\":20010:20033   */\n      tag_493\n        /* \"#utility.yul\":20026:20032   */\n      0x0180\n        /* \"#utility.yul\":20010:20033   */\n      tag_217\n      jump\t// in\n    tag_493:\n        /* \"#utility.yul\":20001:20033   */\n      swap1\n      pop\n        /* \"#utility.yul\":20114:20115   */\n      0x00\n        /* \"#utility.yul\":20103:20112   */\n      dup3\n        /* \"#utility.yul\":20099:20116   */\n      add\n        /* \"#utility.yul\":20093:20117   */\n      mload\n        /* \"#utility.yul\":20144:20162   */\n      0xffffffffffffffff\n        /* \"#utility.yul\":20136:20142   */\n      dup2\n        /* \"#utility.yul\":20133:20163   */\n      gt\n        /* \"#utility.yul\":20130:20247   */\n      iszero\n      tag_494\n      jumpi\n        /* \"#utility.yul\":20166:20245   */\n      tag_495\n      tag_261\n      jump\t// in\n    tag_495:\n        /* \"#utility.yul\":20130:20247   */\n    tag_494:\n        /* \"#utility.yul\":20286:20356   */\n      tag_496\n        /* \"#utility.yul\":20352:20355   */\n      dup5\n        /* \"#utility.yul\":20343:20349   */\n      dup3\n        /* \"#utility.yul\":20332:20341   */\n      dup6\n        /* \"#utility.yul\":20328:20350   */\n      add\n        /* \"#utility.yul\":20286:20356   */\n      tag_263\n      jump\t// in\n    tag_496:\n        /* \"#utility.yul\":20279:20283   */\n      0x00\n        /* \"#utility.yul\":20272:20277   */\n      dup4\n        /* \"#utility.yul\":20268:20284   */\n      add\n        /* \"#utility.yul\":20261:20357   */\n      mstore\n        /* \"#utility.yul\":20043:20368   */\n      pop\n        /* \"#utility.yul\":20433:20435   */\n      0x20\n        /* \"#utility.yul\":20474:20534   */\n      tag_497\n        /* \"#utility.yul\":20530:20533   */\n      dup5\n        /* \"#utility.yul\":20521:20527   */\n      dup3\n        /* \"#utility.yul\":20510:20519   */\n      dup6\n        /* \"#utility.yul\":20506:20528   */\n      add\n        /* \"#utility.yul\":20474:20534   */\n      tag_264\n      jump\t// in\n    tag_497:\n        /* \"#utility.yul\":20467:20471   */\n      0x20\n        /* \"#utility.yul\":20460:20465   */\n      dup4\n        /* \"#utility.yul\":20456:20472   */\n      add\n        /* \"#utility.yul\":20449:20535   */\n      mstore\n        /* \"#utility.yul\":20378:20546   */\n      pop\n        /* \"#utility.yul\":20607:20609   */\n      0x40\n        /* \"#utility.yul\":20648:20708   */\n      tag_498\n        /* \"#utility.yul\":20704:20707   */\n      dup5\n        /* \"#utility.yul\":20695:20701   */\n      dup3\n        /* \"#utility.yul\":20684:20693   */\n      dup6\n        /* \"#utility.yul\":20680:20702   */\n      add\n        /* \"#utility.yul\":20648:20708   */\n      tag_265\n      jump\t// in\n    tag_498:\n        /* \"#utility.yul\":20641:20645   */\n      0x40\n        /* \"#utility.yul\":20634:20639   */\n      dup4\n        /* \"#utility.yul\":20630:20646   */\n      add\n        /* \"#utility.yul\":20623:20709   */\n      mstore\n        /* \"#utility.yul\":20556:20720   */\n      pop\n        /* \"#utility.yul\":20789:20791   */\n      0x60\n        /* \"#utility.yul\":20830:20890   */\n      tag_499\n        /* \"#utility.yul\":20886:20889   */\n      dup5\n        /* \"#utility.yul\":20877:20883   */\n      dup3\n        /* \"#utility.yul\":20866:20875   */\n      dup6\n        /* \"#utility.yul\":20862:20884   */\n      add\n        /* \"#utility.yul\":20830:20890   */\n      tag_265\n      jump\t// in\n    tag_499:\n        /* \"#utility.yul\":20823:20827   */\n      0x60\n        /* \"#utility.yul\":20816:20821   */\n      dup4\n        /* \"#utility.yul\":20812:20828   */\n      add\n        /* \"#utility.yul\":20805:20891   */\n      mstore\n        /* \"#utility.yul\":20730:20902   */\n      pop\n        /* \"#utility.yul\":20967:20970   */\n      0x80\n        /* \"#utility.yul\":21009:21066   */\n      tag_500\n        /* \"#utility.yul\":21062:21065   */\n      dup5\n        /* \"#utility.yul\":21053:21059   */\n      dup3\n        /* \"#utility.yul\":21042:21051   */\n      dup6\n        /* \"#utility.yul\":21038:21060   */\n      add\n        /* \"#utility.yul\":21009:21066   */\n      tag_268\n      jump\t// in\n    tag_500:\n        /* \"#utility.yul\":21002:21006   */\n      0x80\n        /* \"#utility.yul\":20995:21000   */\n      dup4\n        /* \"#utility.yul\":20991:21007   */\n      add\n        /* \"#utility.yul\":20984:21067   */\n      mstore\n        /* \"#utility.yul\":20912:21078   */\n      pop\n        /* \"#utility.yul\":21142:21145   */\n      0xa0\n        /* \"#utility.yul\":21184:21241   */\n      tag_501\n        /* \"#utility.yul\":21237:21240   */\n      dup5\n        /* \"#utility.yul\":21228:21234   */\n      dup3\n        /* \"#utility.yul\":21217:21226   */\n      dup6\n        /* \"#utility.yul\":21213:21235   */\n      add\n        /* \"#utility.yul\":21184:21241   */\n      tag_268\n      jump\t// in\n    tag_501:\n        /* \"#utility.yul\":21177:21181   */\n      0xa0\n        /* \"#utility.yul\":21170:21175   */\n      dup4\n        /* \"#utility.yul\":21166:21182   */\n      add\n        /* \"#utility.yul\":21159:21242   */\n      mstore\n        /* \"#utility.yul\":21088:21253   */\n      pop\n        /* \"#utility.yul\":21314:21317   */\n      0xc0\n        /* \"#utility.yul\":21356:21413   */\n      tag_502\n        /* \"#utility.yul\":21409:21412   */\n      dup5\n        /* \"#utility.yul\":21400:21406   */\n      dup3\n        /* \"#utility.yul\":21389:21398   */\n      dup6\n        /* \"#utility.yul\":21385:21407   */\n      add\n        /* \"#utility.yul\":21356:21413   */\n      tag_268\n      jump\t// in\n    tag_502:\n        /* \"#utility.yul\":21349:21353   */\n      0xc0\n        /* \"#utility.yul\":21342:21347   */\n      dup4\n        /* \"#utility.yul\":21338:21354   */\n      add\n        /* \"#utility.yul\":21331:21414   */\n      mstore\n        /* \"#utility.yul\":21263:21425   */\n      pop\n        /* \"#utility.yul\":21494:21497   */\n      0xe0\n        /* \"#utility.yul\":21536:21596   */\n      tag_503\n        /* \"#utility.yul\":21592:21595   */\n      dup5\n        /* \"#utility.yul\":21583:21589   */\n      dup3\n        /* \"#utility.yul\":21572:21581   */\n      dup6\n        /* \"#utility.yul\":21568:21590   */\n      add\n        /* \"#utility.yul\":21536:21596   */\n      tag_265\n      jump\t// in\n    tag_503:\n        /* \"#utility.yul\":21529:21533   */\n      0xe0\n        /* \"#utility.yul\":21522:21527   */\n      dup4\n        /* \"#utility.yul\":21518:21534   */\n      add\n        /* \"#utility.yul\":21511:21597   */\n      mstore\n        /* \"#utility.yul\":21435:21608   */\n      pop\n        /* \"#utility.yul\":21673:21676   */\n      0x0100\n        /* \"#utility.yul\":21717:21774   */\n      tag_504\n        /* \"#utility.yul\":21770:21773   */\n      dup5\n        /* \"#utility.yul\":21761:21767   */\n      dup3\n        /* \"#utility.yul\":21750:21759   */\n      dup6\n        /* \"#utility.yul\":21746:21768   */\n      add\n        /* \"#utility.yul\":21717:21774   */\n      tag_268\n      jump\t// in\n    tag_504:\n        /* \"#utility.yul\":21708:21714   */\n      0x0100\n        /* \"#utility.yul\":21701:21706   */\n      dup4\n        /* \"#utility.yul\":21697:21715   */\n      add\n        /* \"#utility.yul\":21690:21775   */\n      mstore\n        /* \"#utility.yul\":21618:21786   */\n      pop\n        /* \"#utility.yul\":21847:21850   */\n      0x0120\n        /* \"#utility.yul\":21891:21951   */\n      tag_505\n        /* \"#utility.yul\":21947:21950   */\n      dup5\n        /* \"#utility.yul\":21938:21944   */\n      dup3\n        /* \"#utility.yul\":21927:21936   */\n      dup6\n        /* \"#utility.yul\":21923:21945   */\n      add\n        /* \"#utility.yul\":21891:21951   */\n      tag_265\n      jump\t// in\n    tag_505:\n        /* \"#utility.yul\":21882:21888   */\n      0x0120\n        /* \"#utility.yul\":21875:21880   */\n      dup4\n        /* \"#utility.yul\":21871:21889   */\n      add\n        /* \"#utility.yul\":21864:21952   */\n      mstore\n        /* \"#utility.yul\":21796:21963   */\n      pop\n        /* \"#utility.yul\":22022:22025   */\n      0x0140\n        /* \"#utility.yul\":22066:22126   */\n      tag_506\n        /* \"#utility.yul\":22122:22125   */\n      dup5\n        /* \"#utility.yul\":22113:22119   */\n      dup3\n        /* \"#utility.yul\":22102:22111   */\n      dup6\n        /* \"#utility.yul\":22098:22120   */\n      add\n        /* \"#utility.yul\":22066:22126   */\n      tag_265\n      jump\t// in\n    tag_506:\n        /* \"#utility.yul\":22057:22063   */\n      0x0140\n        /* \"#utility.yul\":22050:22055   */\n      dup4\n        /* \"#utility.yul\":22046:22064   */\n      add\n        /* \"#utility.yul\":22039:22127   */\n      mstore\n        /* \"#utility.yul\":21973:22138   */\n      pop\n        /* \"#utility.yul\":22198:22201   */\n      0x0160\n        /* \"#utility.yul\":22242:22302   */\n      tag_507\n        /* \"#utility.yul\":22298:22301   */\n      dup5\n        /* \"#utility.yul\":22289:22295   */\n      dup3\n        /* \"#utility.yul\":22278:22287   */\n      dup6\n        /* \"#utility.yul\":22274:22296   */\n      add\n        /* \"#utility.yul\":22242:22302   */\n      tag_265\n      jump\t// in\n    tag_507:\n        /* \"#utility.yul\":22233:22239   */\n      0x0160\n        /* \"#utility.yul\":22226:22231   */\n      dup4\n        /* \"#utility.yul\":22222:22240   */\n      add\n        /* \"#utility.yul\":22215:22303   */\n      mstore\n        /* \"#utility.yul\":22148:22314   */\n      pop\n        /* \"#utility.yul\":19776:22321   */\n      swap3\n      swap2\n      pop\n      pop\n      jump\t// out\n        /* \"#utility.yul\":22327:22873   */\n    tag_102:\n        /* \"#utility.yul\":22418:22424   */\n      0x00\n        /* \"#utility.yul\":22467:22469   */\n      0x20\n        /* \"#utility.yul\":22455:22464   */\n      dup3\n        /* \"#utility.yul\":22446:22453   */\n      dup5\n        /* \"#utility.yul\":22442:22465   */\n      sub\n        /* \"#utility.yul\":22438:22470   */\n      slt\n        /* \"#utility.yul\":22435:22554   */\n      iszero\n      tag_509\n      jumpi\n        /* \"#utility.yul\":22473:22552   */\n      tag_510\n      tag_211\n      jump\t// in\n    tag_510:\n        /* \"#utility.yul\":22435:22554   */\n    tag_509:\n        /* \"#utility.yul\":22614:22615   */\n      0x00\n        /* \"#utility.yul\":22603:22612   */\n      dup3\n        /* \"#utility.yul\":22599:22616   */\n      add\n        /* \"#utility.yul\":22593:22617   */\n      mload\n        /* \"#utility.yul\":22644:22662   */\n      0xffffffffffffffff\n        /* \"#utility.yul\":22636:22642   */\n      dup2\n        /* \"#utility.yul\":22633:22663   */\n      gt\n        /* \"#utility.yul\":22630:22747   */\n      iszero\n      tag_511\n      jumpi\n        /* \"#utility.yul\":22666:22745   */\n      tag_512\n      tag_212\n      jump\t// in\n    tag_512:\n        /* \"#utility.yul\":22630:22747   */\n    tag_511:\n        /* \"#utility.yul\":22771:22856   */\n      tag_513\n        /* \"#utility.yul\":22848:22855   */\n      dup5\n        /* \"#utility.yul\":22839:22845   */\n      dup3\n        /* \"#utility.yul\":22828:22837   */\n      dup6\n        /* \"#utility.yul\":22824:22846   */\n      add\n        /* \"#utility.yul\":22771:22856   */\n      tag_269\n      jump\t// in\n    tag_513:\n        /* \"#utility.yul\":22761:22856   */\n      swap2\n      pop\n        /* \"#utility.yul\":22564:22866   */\n      pop\n        /* \"#utility.yul\":22327:22873   */\n      swap3\n      swap2\n      pop\n      pop\n      jump\t// out\n        /* \"#utility.yul\":22879:23122   */\n    tag_270:\n        /* \"#utility.yul\":23019:23053   */\n      0x546865206e756d626572206f66206169722064726f7073206578636565647320\n        /* \"#utility.yul\":23015:23016   */\n      0x00\n        /* \"#utility.yul\":23007:23013   */\n      dup3\n        /* \"#utility.yul\":23003:23017   */\n      add\n        /* \"#utility.yul\":22996:23054   */\n      mstore\n        /* \"#utility.yul\":23088:23114   */\n      0x746865206461696c792072656c6561736520616d6f756e740000000000000000\n        /* \"#utility.yul\":23083:23085   */\n      0x20\n        /* \"#utility.yul\":23075:23081   */\n      dup3\n        /* \"#utility.yul\":23071:23086   */\n      add\n        /* \"#utility.yul\":23064:23115   */\n      mstore\n        /* \"#utility.yul\":22879:23122   */\n      pop\n      jump\t// out\n        /* \"#utility.yul\":23128:23494   */\n    tag_271:\n        /* \"#utility.yul\":23270:23273   */\n      0x00\n        /* \"#utility.yul\":23291:23358   */\n      tag_516\n        /* \"#utility.yul\":23355:23357   */\n      0x38\n        /* \"#utility.yul\":23350:23353   */\n      dup4\n        /* \"#utility.yul\":23291:23358   */\n      tag_247\n      jump\t// in\n    tag_516:\n        /* \"#utility.yul\":23284:23358   */\n      swap2\n      pop\n        /* \"#utility.yul\":23367:23460   */\n      tag_517\n        /* \"#utility.yul\":23456:23459   */\n      dup3\n        /* \"#utility.yul\":23367:23460   */\n      tag_270\n      jump\t// in\n    tag_517:\n        /* \"#utility.yul\":23485:23487   */\n      0x40\n        /* \"#utility.yul\":23480:23483   */\n      dup3\n        /* \"#utility.yul\":23476:23488   */\n      add\n        /* \"#utility.yul\":23469:23488   */\n      swap1\n      pop\n        /* \"#utility.yul\":23128:23494   */\n      swap2\n      swap1\n      pop\n      jump\t// out\n        /* \"#utility.yul\":23500:23919   */\n    tag_134:\n        /* \"#utility.yul\":23666:23670   */\n      0x00\n        /* \"#utility.yul\":23704:23706   */\n      0x20\n        /* \"#utility.yul\":23693:23702   */\n      dup3\n        /* \"#utility.yul\":23689:23707   */\n      add\n        /* \"#utility.yul\":23681:23707   */\n      swap1\n      pop\n        /* \"#utility.yul\":23753:23762   */\n      dup2\n        /* \"#utility.yul\":23747:23751   */\n      dup2\n        /* \"#utility.yul\":23743:23763   */\n      sub\n        /* \"#utility.yul\":23739:23740   */\n      0x00\n        /* \"#utility.yul\":23728:23737   */\n      dup4\n        /* \"#utility.yul\":23724:23741   */\n      add\n        /* \"#utility.yul\":23717:23764   */\n      mstore\n        /* \"#utility.yul\":23781:23912   */\n      tag_519\n        /* \"#utility.yul\":23907:23911   */\n      dup2\n        /* \"#utility.yul\":23781:23912   */\n      tag_271\n      jump\t// in\n    tag_519:\n        /* \"#utility.yul\":23773:23912   */\n      swap1\n      pop\n        /* \"#utility.yul\":23500:23919   */\n      swap2\n      swap1\n      pop\n      jump\t// out\n        /* \"#utility.yul\":23925:24276   */\n    tag_157:\n        /* \"#utility.yul\":23995:24001   */\n      0x00\n        /* \"#utility.yul\":24044:24046   */\n      0x20\n        /* \"#utility.yul\":24032:24041   */\n      dup3\n        /* \"#utility.yul\":24023:24030   */\n      dup5\n        /* \"#utility.yul\":24019:24042   */\n      sub\n        /* \"#utility.yul\":24015:24047   */\n      slt\n        /* \"#utility.yul\":24012:24131   */\n      iszero\n      tag_521\n      jumpi\n        /* \"#utility.yul\":24050:24129   */\n      tag_522\n      tag_211\n      jump\t// in\n    tag_522:\n        /* \"#utility.yul\":24012:24131   */\n    tag_521:\n        /* \"#utility.yul\":24170:24171   */\n      0x00\n        /* \"#utility.yul\":24195:24259   */\n      tag_523\n        /* \"#utility.yul\":24251:24258   */\n      dup5\n        /* \"#utility.yul\":24242:24248   */\n      dup3\n        /* \"#utility.yul\":24231:24240   */\n      dup6\n        /* \"#utility.yul\":24227:24249   */\n      add\n        /* \"#utility.yul\":24195:24259   */\n      tag_265\n      jump\t// in\n    tag_523:\n        /* \"#utility.yul\":24185:24259   */\n      swap2\n      pop\n        /* \"#utility.yul\":24141:24269   */\n      pop\n        /* \"#utility.yul\":23925:24276   */\n      swap3\n      swap2\n      pop\n      pop\n      jump\t// out\n        /* \"#utility.yul\":24282:24724   */\n    tag_168:\n        /* \"#utility.yul\":24431:24435   */\n      0x00\n        /* \"#utility.yul\":24469:24471   */\n      0x60\n        /* \"#utility.yul\":24458:24467   */\n      dup3\n        /* \"#utility.yul\":24454:24472   */\n      add\n        /* \"#utility.yul\":24446:24472   */\n      swap1\n      pop\n        /* \"#utility.yul\":24482:24553   */\n      tag_525\n        /* \"#utility.yul\":24550:24551   */\n      0x00\n        /* \"#utility.yul\":24539:24548   */\n      dup4\n        /* \"#utility.yul\":24535:24552   */\n      add\n        /* \"#utility.yul\":24526:24532   */\n      dup7\n        /* \"#utility.yul\":24482:24553   */\n      tag_238\n      jump\t// in\n    tag_525:\n        /* \"#utility.yul\":24563:24635   */\n      tag_526\n        /* \"#utility.yul\":24631:24633   */\n      0x20\n        /* \"#utility.yul\":24620:24629   */\n      dup4\n        /* \"#utility.yul\":24616:24634   */\n      add\n        /* \"#utility.yul\":24607:24613   */\n      dup6\n        /* \"#utility.yul\":24563:24635   */\n      tag_238\n      jump\t// in\n    tag_526:\n        /* \"#utility.yul\":24645:24717   */\n      tag_527\n        /* \"#utility.yul\":24713:24715   */\n      0x40\n        /* \"#utility.yul\":24702:24711   */\n      dup4\n        /* \"#utility.yul\":24698:24716   */\n      add\n        /* \"#utility.yul\":24689:24695   */\n      dup5\n        /* \"#utility.yul\":24645:24717   */\n      tag_233\n      jump\t// in\n    tag_527:\n        /* \"#utility.yul\":24282:24724   */\n      swap5\n      swap4\n      pop\n      pop\n      pop\n      pop\n      jump\t// out\n        /* \"#utility.yul\":24730:24907   */\n    tag_272:\n        /* \"#utility.yul\":24870:24899   */\n      0x536166654d6174683a206164646974696f6e206f766572666c6f770000000000\n        /* \"#utility.yul\":24866:24867   */\n      0x00\n        /* \"#utility.yul\":24858:24864   */\n      dup3\n        /* \"#utility.yul\":24854:24868   */\n      add\n        /* \"#utility.yul\":24847:24900   */\n      mstore\n        /* \"#utility.yul\":24730:24907   */\n      pop\n      jump\t// out\n        /* \"#utility.yul\":24913:25279   */\n    tag_273:\n        /* \"#utility.yul\":25055:25058   */\n      0x00\n        /* \"#utility.yul\":25076:25143   */\n      tag_530\n        /* \"#utility.yul\":25140:25142   */\n      0x1b\n        /* \"#utility.yul\":25135:25138   */\n      dup4\n        /* \"#utility.yul\":25076:25143   */\n      tag_247\n      jump\t// in\n    tag_530:\n        /* \"#utility.yul\":25069:25143   */\n      swap2\n      pop\n        /* \"#utility.yul\":25152:25245   */\n      tag_531\n        /* \"#utility.yul\":25241:25244   */\n      dup3\n        /* \"#utility.yul\":25152:25245   */\n      tag_272\n      jump\t// in\n    tag_531:\n        /* \"#utility.yul\":25270:25272   */\n      0x20\n        /* \"#utility.yul\":25265:25268   */\n      dup3\n        /* \"#utility.yul\":25261:25273   */\n      add\n        /* \"#utility.yul\":25254:25273   */\n      swap1\n      pop\n        /* \"#utility.yul\":24913:25279   */\n      swap2\n      swap1\n      pop\n      jump\t// out\n        /* \"#utility.yul\":25285:25704   */\n    tag_174:\n        /* \"#utility.yul\":25451:25455   */\n      0x00\n        /* \"#utility.yul\":25489:25491   */\n      0x20\n        /* \"#utility.yul\":25478:25487   */\n      dup3\n        /* \"#utility.yul\":25474:25492   */\n      add\n        /* \"#utility.yul\":25466:25492   */\n      swap1\n      pop\n        /* \"#utility.yul\":25538:25547   */\n      dup2\n        /* \"#utility.yul\":25532:25536   */\n      dup2\n        /* \"#utility.yul\":25528:25548   */\n      sub\n        /* \"#utility.yul\":25524:25525   */\n      0x00\n        /* \"#utility.yul\":25513:25522   */\n      dup4\n        /* \"#utility.yul\":25509:25526   */\n      add\n        /* \"#utility.yul\":25502:25549   */\n      mstore\n        /* \"#utility.yul\":25566:25697   */\n      tag_533\n        /* \"#utility.yul\":25692:25696   */\n      dup2\n        /* \"#utility.yul\":25566:25697   */\n      tag_273\n      jump\t// in\n    tag_533:\n        /* \"#utility.yul\":25558:25697   */\n      swap1\n      pop\n        /* \"#utility.yul\":25285:25704   */\n      swap2\n      swap1\n      pop\n      jump\t// out\n        /* \"#utility.yul\":25710:26055   */\n    tag_180:\n        /* \"#utility.yul\":25777:25783   */\n      0x00\n        /* \"#utility.yul\":25826:25828   */\n      0x20\n        /* \"#utility.yul\":25814:25823   */\n      dup3\n        /* \"#utility.yul\":25805:25812   */\n      dup5\n        /* \"#utility.yul\":25801:25824   */\n      sub\n        /* \"#utility.yul\":25797:25829   */\n      slt\n        /* \"#utility.yul\":25794:25913   */\n      iszero\n      tag_535\n      jumpi\n        /* \"#utility.yul\":25832:25911   */\n      tag_536\n      tag_211\n      jump\t// in\n    tag_536:\n        /* \"#utility.yul\":25794:25913   */\n    tag_535:\n        /* \"#utility.yul\":25952:25953   */\n      0x00\n        /* \"#utility.yul\":25977:26038   */\n      tag_537\n        /* \"#utility.yul\":26030:26037   */\n      dup5\n        /* \"#utility.yul\":26021:26027   */\n      dup3\n        /* \"#utility.yul\":26010:26019   */\n      dup6\n        /* \"#utility.yul\":26006:26028   */\n      add\n        /* \"#utility.yul\":25977:26038   */\n      tag_268\n      jump\t// in\n    tag_537:\n        /* \"#utility.yul\":25967:26038   */\n      swap2\n      pop\n        /* \"#utility.yul\":25923:26048   */\n      pop\n        /* \"#utility.yul\":25710:26055   */\n      swap3\n      swap2\n      pop\n      pop\n      jump\t// out\n        /* \"#utility.yul\":26061:26290   */\n    tag_274:\n        /* \"#utility.yul\":26201:26235   */\n      0x5361666545524332303a204552433230206f7065726174696f6e20646964206e\n        /* \"#utility.yul\":26197:26198   */\n      0x00\n        /* \"#utility.yul\":26189:26195   */\n      dup3\n        /* \"#utility.yul\":26185:26199   */\n      add\n        /* \"#utility.yul\":26178:26236   */\n      mstore\n        /* \"#utility.yul\":26270:26282   */\n      0x6f74207375636365656400000000000000000000000000000000000000000000\n        /* \"#utility.yul\":26265:26267   */\n      0x20\n        /* \"#utility.yul\":26257:26263   */\n      dup3\n        /* \"#utility.yul\":26253:26268   */\n      add\n        /* \"#utility.yul\":26246:26283   */\n      mstore\n        /* \"#utility.yul\":26061:26290   */\n      pop\n      jump\t// out\n        /* \"#utility.yul\":26296:26662   */\n    tag_275:\n        /* \"#utility.yul\":26438:26441   */\n      0x00\n        /* \"#utility.yul\":26459:26526   */\n      tag_540\n        /* \"#utility.yul\":26523:26525   */\n      0x2a\n        /* \"#utility.yul\":26518:26521   */\n      dup4\n        /* \"#utility.yul\":26459:26526   */\n      tag_247\n      jump\t// in\n    tag_540:\n        /* \"#utility.yul\":26452:26526   */\n      swap2\n      pop\n        /* \"#utility.yul\":26535:26628   */\n      tag_541\n        /* \"#utility.yul\":26624:26627   */\n      dup3\n        /* \"#utility.yul\":26535:26628   */\n      tag_274\n      jump\t// in\n    tag_541:\n        /* \"#utility.yul\":26653:26655   */\n      0x40\n        /* \"#utility.yul\":26648:26651   */\n      dup3\n        /* \"#utility.yul\":26644:26656   */\n      add\n        /* \"#utility.yul\":26637:26656   */\n      swap1\n      pop\n        /* \"#utility.yul\":26296:26662   */\n      swap2\n      swap1\n      pop\n      jump\t// out\n        /* \"#utility.yul\":26668:27087   */\n    tag_183:\n        /* \"#utility.yul\":26834:26838   */\n      0x00\n        /* \"#utility.yul\":26872:26874   */\n      0x20\n        /* \"#utility.yul\":26861:26870   */\n      dup3\n        /* \"#utility.yul\":26857:26875   */\n      add\n        /* \"#utility.yul\":26849:26875   */\n      swap1\n      pop\n        /* \"#utility.yul\":26921:26930   */\n      dup2\n        /* \"#utility.yul\":26915:26919   */\n      dup2\n        /* \"#utility.yul\":26911:26931   */\n      sub\n        /* \"#utility.yul\":26907:26908   */\n      0x00\n        /* \"#utility.yul\":26896:26905   */\n      dup4\n        /* \"#utility.yul\":26892:26909   */\n      add\n        /* \"#utility.yul\":26885:26932   */\n      mstore\n        /* \"#utility.yul\":26949:27080   */\n      tag_543\n        /* \"#utility.yul\":27075:27079   */\n      dup2\n        /* \"#utility.yul\":26949:27080   */\n      tag_275\n      jump\t// in\n    tag_543:\n        /* \"#utility.yul\":26941:27080   */\n      swap1\n      pop\n        /* \"#utility.yul\":26668:27087   */\n      swap2\n      swap1\n      pop\n      jump\t// out\n        /* \"#utility.yul\":27093:27318   */\n    tag_276:\n        /* \"#utility.yul\":27233:27267   */\n      0x416464726573733a20696e73756666696369656e742062616c616e636520666f\n        /* \"#utility.yul\":27229:27230   */\n      0x00\n        /* \"#utility.yul\":27221:27227   */\n      dup3\n        /* \"#utility.yul\":27217:27231   */\n      add\n        /* \"#utility.yul\":27210:27268   */\n      mstore\n        /* \"#utility.yul\":27302:27310   */\n      0x722063616c6c0000000000000000000000000000000000000000000000000000\n        /* \"#utility.yul\":27297:27299   */\n      0x20\n        /* \"#utility.yul\":27289:27295   */\n      dup3\n        /* \"#utility.yul\":27285:27300   */\n      add\n        /* \"#utility.yul\":27278:27311   */\n      mstore\n        /* \"#utility.yul\":27093:27318   */\n      pop\n      jump\t// out\n        /* \"#utility.yul\":27324:27690   */\n    tag_277:\n        /* \"#utility.yul\":27466:27469   */\n      0x00\n        /* \"#utility.yul\":27487:27554   */\n      tag_546\n        /* \"#utility.yul\":27551:27553   */\n      0x26\n        /* \"#utility.yul\":27546:27549   */\n      dup4\n        /* \"#utility.yul\":27487:27554   */\n      tag_247\n      jump\t// in\n    tag_546:\n        /* \"#utility.yul\":27480:27554   */\n      swap2\n      pop\n        /* \"#utility.yul\":27563:27656   */\n      tag_547\n        /* \"#utility.yul\":27652:27655   */\n      dup3\n        /* \"#utility.yul\":27563:27656   */\n      tag_276\n      jump\t// in\n    tag_547:\n        /* \"#utility.yul\":27681:27683   */\n      0x40\n        /* \"#utility.yul\":27676:27679   */\n      dup3\n        /* \"#utility.yul\":27672:27684   */\n      add\n        /* \"#utility.yul\":27665:27684   */\n      swap1\n      pop\n        /* \"#utility.yul\":27324:27690   */\n      swap2\n      swap1\n      pop\n      jump\t// out\n        /* \"#utility.yul\":27696:28115   */\n    tag_190:\n        /* \"#utility.yul\":27862:27866   */\n      0x00\n        /* \"#utility.yul\":27900:27902   */\n      0x20\n        /* \"#utility.yul\":27889:27898   */\n      dup3\n        /* \"#utility.yul\":27885:27903   */\n      add\n        /* \"#utility.yul\":27877:27903   */\n      swap1\n      pop\n        /* \"#utility.yul\":27949:27958   */\n      dup2\n        /* \"#utility.yul\":27943:27947   */\n      dup2\n        /* \"#utility.yul\":27939:27959   */\n      sub\n        /* \"#utility.yul\":27935:27936   */\n      0x00\n        /* \"#utility.yul\":27924:27933   */\n      dup4\n        /* \"#utility.yul\":27920:27937   */\n      add\n        /* \"#utility.yul\":27913:27960   */\n      mstore\n        /* \"#utility.yul\":27977:28108   */\n      tag_549\n        /* \"#utility.yul\":28103:28107   */\n      dup2\n        /* \"#utility.yul\":27977:28108   */\n      tag_277\n      jump\t// in\n    tag_549:\n        /* \"#utility.yul\":27969:28108   */\n      swap1\n      pop\n        /* \"#utility.yul\":27696:28115   */\n      swap2\n      swap1\n      pop\n      jump\t// out\n        /* \"#utility.yul\":28121:28300   */\n    tag_278:\n        /* \"#utility.yul\":28261:28292   */\n      0x416464726573733a2063616c6c20746f206e6f6e2d636f6e7472616374000000\n        /* \"#utility.yul\":28257:28258   */\n      0x00\n        /* \"#utility.yul\":28249:28255   */\n      dup3\n        /* \"#utility.yul\":28245:28259   */\n      add\n        /* \"#utility.yul\":28238:28293   */\n      mstore\n        /* \"#utility.yul\":28121:28300   */\n      pop\n      jump\t// out\n        /* \"#utility.yul\":28306:28672   */\n    tag_279:\n        /* \"#utility.yul\":28448:28451   */\n      0x00\n        /* \"#utility.yul\":28469:28536   */\n      tag_552\n        /* \"#utility.yul\":28533:28535   */\n      0x1d\n        /* \"#utility.yul\":28528:28531   */\n      dup4\n        /* \"#utility.yul\":28469:28536   */\n      tag_247\n      jump\t// in\n    tag_552:\n        /* \"#utility.yul\":28462:28536   */\n      swap2\n      pop\n        /* \"#utility.yul\":28545:28638   */\n      tag_553\n        /* \"#utility.yul\":28634:28637   */\n      dup3\n        /* \"#utility.yul\":28545:28638   */\n      tag_278\n      jump\t// in\n    tag_553:\n        /* \"#utility.yul\":28663:28665   */\n      0x20\n        /* \"#utility.yul\":28658:28661   */\n      dup3\n        /* \"#utility.yul\":28654:28666   */\n      add\n        /* \"#utility.yul\":28647:28666   */\n      swap1\n      pop\n        /* \"#utility.yul\":28306:28672   */\n      swap2\n      swap1\n      pop\n      jump\t// out\n        /* \"#utility.yul\":28678:29097   */\n    tag_195:\n        /* \"#utility.yul\":28844:28848   */\n      0x00\n        /* \"#utility.yul\":28882:28884   */\n      0x20\n        /* \"#utility.yul\":28871:28880   */\n      dup3\n        /* \"#utility.yul\":28867:28885   */\n      add\n        /* \"#utility.yul\":28859:28885   */\n      swap1\n      pop\n        /* \"#utility.yul\":28931:28940   */\n      dup2\n        /* \"#utility.yul\":28925:28929   */\n      dup2\n        /* \"#utility.yul\":28921:28941   */\n      sub\n        /* \"#utility.yul\":28917:28918   */\n      0x00\n        /* \"#utility.yul\":28906:28915   */\n      dup4\n        /* \"#utility.yul\":28902:28919   */\n      add\n        /* \"#utility.yul\":28895:28942   */\n      mstore\n        /* \"#utility.yul\":28959:29090   */\n      tag_555\n        /* \"#utility.yul\":29085:29089   */\n      dup2\n        /* \"#utility.yul\":28959:29090   */\n      tag_279\n      jump\t// in\n    tag_555:\n        /* \"#utility.yul\":28951:29090   */\n      swap1\n      pop\n        /* \"#utility.yul\":28678:29097   */\n      swap2\n      swap1\n      pop\n      jump\t// out\n        /* \"#utility.yul\":29103:29201   */\n    tag_280:\n        /* \"#utility.yul\":29154:29160   */\n      0x00\n        /* \"#utility.yul\":29188:29193   */\n      dup2\n        /* \"#utility.yul\":29182:29194   */\n      mload\n        /* \"#utility.yul\":29172:29194   */\n      swap1\n      pop\n        /* \"#utility.yul\":29103:29201   */\n      swap2\n      swap1\n      pop\n      jump\t// out\n        /* \"#utility.yul\":29207:29354   */\n    tag_281:\n        /* \"#utility.yul\":29308:29319   */\n      0x00\n        /* \"#utility.yul\":29345:29348   */\n      dup2\n        /* \"#utility.yul\":29330:29348   */\n      swap1\n      pop\n        /* \"#utility.yul\":29207:29354   */\n      swap3\n      swap2\n      pop\n      pop\n      jump\t// out\n        /* \"#utility.yul\":29360:29746   */\n    tag_282:\n        /* \"#utility.yul\":29464:29467   */\n      0x00\n        /* \"#utility.yul\":29492:29530   */\n      tag_559\n        /* \"#utility.yul\":29524:29529   */\n      dup3\n        /* \"#utility.yul\":29492:29530   */\n      tag_280\n      jump\t// in\n    tag_559:\n        /* \"#utility.yul\":29546:29634   */\n      tag_560\n        /* \"#utility.yul\":29627:29633   */\n      dup2\n        /* \"#utility.yul\":29622:29625   */\n      dup6\n        /* \"#utility.yul\":29546:29634   */\n      tag_281\n      jump\t// in\n    tag_560:\n        /* \"#utility.yul\":29539:29634   */\n      swap4\n      pop\n        /* \"#utility.yul\":29643:29708   */\n      tag_561\n        /* \"#utility.yul\":29701:29707   */\n      dup2\n        /* \"#utility.yul\":29696:29699   */\n      dup6\n        /* \"#utility.yul\":29689:29693   */\n      0x20\n        /* \"#utility.yul\":29682:29687   */\n      dup7\n        /* \"#utility.yul\":29678:29694   */\n      add\n        /* \"#utility.yul\":29643:29708   */\n      tag_258\n      jump\t// in\n    tag_561:\n        /* \"#utility.yul\":29733:29739   */\n      dup1\n        /* \"#utility.yul\":29728:29731   */\n      dup5\n        /* \"#utility.yul\":29724:29740   */\n      add\n        /* \"#utility.yul\":29717:29740   */\n      swap2\n      pop\n        /* \"#utility.yul\":29468:29746   */\n      pop\n        /* \"#utility.yul\":29360:29746   */\n      swap3\n      swap2\n      pop\n      pop\n      jump\t// out\n        /* \"#utility.yul\":29752:30023   */\n    tag_197:\n        /* \"#utility.yul\":29882:29885   */\n      0x00\n        /* \"#utility.yul\":29904:29997   */\n      tag_563\n        /* \"#utility.yul\":29993:29996   */\n      dup3\n        /* \"#utility.yul\":29984:29990   */\n      dup5\n        /* \"#utility.yul\":29904:29997   */\n      tag_282\n      jump\t// in\n    tag_563:\n        /* \"#utility.yul\":29897:29997   */\n      swap2\n      pop\n        /* \"#utility.yul\":30014:30017   */\n      dup2\n        /* \"#utility.yul\":30007:30017   */\n      swap1\n      pop\n        /* \"#utility.yul\":29752:30023   */\n      swap3\n      swap2\n      pop\n      pop\n      jump\t// out\n\n    auxdata: 0xa2646970667358221220a3fca010d1f9f7ab5c7dfbb19192ccee8b8b4d6d333af71cf12367cb280fd3eb64736f6c63430008130033\n}\n",
				"bytecode": {
					"linkReferences": {},
					"object": "6080604052601260035534801561001557600080fd5b5033600560006101000a81548173ffffffffffffffffffffffffffffffffffffffff021916908373ffffffffffffffffffffffffffffffffffffffff160217905550611ee7806100666000396000f3fe608060405234801561001057600080fd5b50600436106100cf5760003560e01c80635459b8a31161008c578063a6f9dae111610066578063a6f9dae1146101dc578063c4529e37146101f8578063c52c31fa14610214578063fc0c546a14610230576100cf565b80635459b8a3146101845780639e1a4d19146101a0578063a39865e7146101be576100cf565b80630af8668f146100d4578063188ec356146100f057806326a4e8d21461010e578063313ce5671461012a57806347a58626146101485780634b14c0ef14610166575b600080fd5b6100ee60048036038101906100e9919061120b565b61024e565b005b6100f8610604565b6040516101059190611292565b60405180910390f35b6101286004803603810190610123919061130b565b61060c565b005b6101326106a9565b60405161013f9190611292565b60405180910390f35b6101506106b3565b60405161015d9190611347565b60405180910390f35b61016e6106dd565b60405161017b9190611292565b60405180910390f35b61019e60048036038101906101999190611413565b6106e7565b005b6101a8610923565b6040516101b59190611292565b60405180910390f35b6101c66109f5565b6040516101d39190611347565b60405180910390f35b6101f660048036038101906101f1919061130b565b610a1f565b005b610212600480360381019061020d919061130b565b610abd565b005b61022e6004803603810190610229919061130b565b610b01565b005b610238610b45565b60405161024591906114f3565b60405180910390f35b600560009054906101000a900473ffffffffffffffffffffffffffffffffffffffff1673ffffffffffffffffffffffffffffffffffffffff163373ffffffffffffffffffffffffffffffffffffffff16146102a857600080fd5b80518251146102ec576040517f08c379a00000000000000000000000000000000000000000000000000000000081526004016102e3906115b7565b60405180910390fd5b600073ffffffffffffffffffffffffffffffffffffffff1661030c610b45565b73ffffffffffffffffffffffffffffffffffffffff1603610362576040517f08c379a000000000000000000000000000000000000000000000000000000000815260040161035990611623565b60405180910390fd5b600073ffffffffffffffffffffffffffffffffffffffff166103826106b3565b73ffffffffffffffffffffffffffffffffffffffff16036103d8576040517f08c379a00000000000000000000000000000000000000000000000000000000081526004016103cf906116b5565b60405180910390fd5b6000805b8251811015610420578281815181106103f8576103f76116d5565b5b60200260200101518261040b9190611733565b9150808061041890611767565b9150506103dc565b508061042a610923565b101561046b576040517f08c379a000000000000000000000000000000000000000000000000000000000815260040161046290611821565b60405180910390fd5b60006104756106b3565b905060005b84518110156105fd5760008273ffffffffffffffffffffffffffffffffffffffff16636441f9d08784815181106104b4576104b36116d5565b5b60200260200101516040518263ffffffff1660e01b81526004016104d891906118af565b600060405180830381865afa1580156104f5573d6000803e3d6000fd5b505050506040513d6000823e3d601f19601f8201168201806040525081019061051e9190611aeb565b9050600081602001519050600086848151811061053e5761053d6116d5565b5b60200260200101519050600073ffffffffffffffffffffffffffffffffffffffff168273ffffffffffffffffffffffffffffffffffffffff16146105e7576105d230600260009054906101000a900473ffffffffffffffffffffffffffffffffffffffff16836105ac610b45565b73ffffffffffffffffffffffffffffffffffffffff16610b6e909392919063ffffffff16565b806004546105e09190611733565b6004819055505b50505080806105f590611767565b91505061047a565b5050505050565b600042905090565b600560009054906101000a900473ffffffffffffffffffffffffffffffffffffffff1673ffffffffffffffffffffffffffffffffffffffff163373ffffffffffffffffffffffffffffffffffffffff161461066657600080fd5b806000806101000a81548173ffffffffffffffffffffffffffffffffffffffff021916908373ffffffffffffffffffffffffffffffffffffffff16021790555050565b6000600354905090565b6000600160009054906101000a900473ffffffffffffffffffffffffffffffffffffffff16905090565b6000600454905090565b600073ffffffffffffffffffffffffffffffffffffffff1660008054906101000a900473ffffffffffffffffffffffffffffffffffffffff1673ffffffffffffffffffffffffffffffffffffffff1603610776576040517f08c379a000000000000000000000000000000000000000000000000000000000815260040161076d90611623565b60405180910390fd5b8181905084849050146107be576040517f08c379a00000000000000000000000000000000000000000000000000000000081526004016107b5906115b7565b60405180910390fd5b6000805b8585905081101561080e576107f98484838181106107e3576107e26116d5565b5b9050602002013583610bf790919063ffffffff16565b9150808061080690611767565b9150506107c2565b5080610818610923565b1015610859576040517f08c379a000000000000000000000000000000000000000000000000000000000815260040161085090611ba6565b60405180910390fd5b60005b8585905081101561091b576108db3087878481811061087e5761087d6116d5565b5b9050602002016020810190610893919061130b565b8686858181106108a6576108a56116d5565b5b905060200201356108b5610b45565b73ffffffffffffffffffffffffffffffffffffffff16610b6e909392919063ffffffff16565b8383828181106108ee576108ed6116d5565b5b905060200201356004546109029190611733565b600481905550808061091390611767565b91505061085c565b505050505050565b60008073ffffffffffffffffffffffffffffffffffffffff16610944610b45565b73ffffffffffffffffffffffffffffffffffffffff160361096857600090506109f2565b6000610972610b45565b73ffffffffffffffffffffffffffffffffffffffff166370a08231306040518263ffffffff1660e01b81526004016109aa9190611347565b602060405180830381865afa1580156109c7573d6000803e3d6000fd5b505050506040513d601f19601f820116820180604052508101906109eb9190611bc6565b9050809150505b90565b6000600260009054906101000a900473ffffffffffffffffffffffffffffffffffffffff16905090565b600560009054906101000a900473ffffffffffffffffffffffffffffffffffffffff1673ffffffffffffffffffffffffffffffffffffffff163373ffffffffffffffffffffffffffffffffffffffff1614610a7957600080fd5b80600560006101000a81548173ffffffffffffffffffffffffffffffffffffffff021916908373ffffffffffffffffffffffffffffffffffffffff16021790555050565b80600260006101000a81548173ffffffffffffffffffffffffffffffffffffffff021916908373ffffffffffffffffffffffffffffffffffffffff16021790555050565b80600160006101000a81548173ffffffffffffffffffffffffffffffffffffffff021916908373ffffffffffffffffffffffffffffffffffffffff16021790555050565b60008060009054906101000a900473ffffffffffffffffffffffffffffffffffffffff16905090565b610bf1846323b872dd60e01b858585604051602401610b8f93929190611bf3565b604051602081830303815290604052907bffffffffffffffffffffffffffffffffffffffffffffffffffffffff19166020820180517bffffffffffffffffffffffffffffffffffffffffffffffffffffffff8381831617835250505050610c55565b50505050565b6000808284610c069190611733565b905083811015610c4b576040517f08c379a0000000000000000000000000000000000000000000000000000000008152600401610c4290611c76565b60405180910390fd5b8091505092915050565b6000610cb7826040518060400160405280602081526020017f5361666545524332303a206c6f772d6c6576656c2063616c6c206661696c65648152508573ffffffffffffffffffffffffffffffffffffffff16610d1c9092919063ffffffff16565b9050600081511115610d175780806020019051810190610cd79190611c96565b610d16576040517f08c379a0000000000000000000000000000000000000000000000000000000008152600401610d0d90611d35565b60405180910390fd5b5b505050565b6060610d2b8484600085610d34565b90509392505050565b606082471015610d79576040517f08c379a0000000000000000000000000000000000000000000000000000000008152600401610d7090611dc7565b60405180910390fd5b610d8285610e48565b610dc1576040517f08c379a0000000000000000000000000000000000000000000000000000000008152600401610db890611e33565b60405180910390fd5b6000808673ffffffffffffffffffffffffffffffffffffffff168587604051610dea9190611e9a565b60006040518083038185875af1925050503d8060008114610e27576040519150601f19603f3d011682016040523d82523d6000602084013e610e2c565b606091505b5091509150610e3c828286610e6b565b92505050949350505050565b6000808273ffffffffffffffffffffffffffffffffffffffff163b119050919050565b60608315610e7b57829050610ecb565b600083511115610e8e5782518084602001fd5b816040517f08c379a0000000000000000000000000000000000000000000000000000000008152600401610ec291906118af565b60405180910390fd5b9392505050565b6000604051905090565b600080fd5b600080fd5b600080fd5b6000601f19601f8301169050919050565b7f4e487b7100000000000000000000000000000000000000000000000000000000600052604160045260246000fd5b610f3482610eeb565b810181811067ffffffffffffffff82111715610f5357610f52610efc565b5b80604052505050565b6000610f66610ed2565b9050610f728282610f2b565b919050565b600067ffffffffffffffff821115610f9257610f91610efc565b5b602082029050602081019050919050565b600080fd5b600080fd5b600067ffffffffffffffff821115610fc857610fc7610efc565b5b610fd182610eeb565b9050602081019050919050565b82818337600083830152505050565b6000611000610ffb84610fad565b610f5c565b90508281526020810184848401111561101c5761101b610fa8565b5b611027848285610fde565b509392505050565b600082601f83011261104457611043610ee6565b5b8135611054848260208601610fed565b91505092915050565b600061107061106b84610f77565b610f5c565b9050808382526020820190506020840283018581111561109357611092610fa3565b5b835b818110156110da57803567ffffffffffffffff8111156110b8576110b7610ee6565b5b8086016110c5898261102f565b85526020850194505050602081019050611095565b5050509392505050565b600082601f8301126110f9576110f8610ee6565b5b813561110984826020860161105d565b91505092915050565b600067ffffffffffffffff82111561112d5761112c610efc565b5b602082029050602081019050919050565b6000819050919050565b6111518161113e565b811461115c57600080fd5b50565b60008135905061116e81611148565b92915050565b600061118761118284611112565b610f5c565b905080838252602082019050602084028301858111156111aa576111a9610fa3565b5b835b818110156111d357806111bf888261115f565b8452602084019350506020810190506111ac565b5050509392505050565b600082601f8301126111f2576111f1610ee6565b5b8135611202848260208601611174565b91505092915050565b6000806040838503121561122257611221610edc565b5b600083013567ffffffffffffffff8111156112405761123f610ee1565b5b61124c858286016110e4565b925050602083013567ffffffffffffffff81111561126d5761126c610ee1565b5b611279858286016111dd565b9150509250929050565b61128c8161113e565b82525050565b60006020820190506112a76000830184611283565b92915050565b600073ffffffffffffffffffffffffffffffffffffffff82169050919050565b60006112d8826112ad565b9050919050565b6112e8816112cd565b81146112f357600080fd5b50565b600081359050611305816112df565b92915050565b60006020828403121561132157611320610edc565b5b600061132f848285016112f6565b91505092915050565b611341816112cd565b82525050565b600060208201905061135c6000830184611338565b92915050565b600080fd5b60008083601f84011261137d5761137c610ee6565b5b8235905067ffffffffffffffff81111561139a57611399611362565b5b6020830191508360208202830111156113b6576113b5610fa3565b5b9250929050565b60008083601f8401126113d3576113d2610ee6565b5b8235905067ffffffffffffffff8111156113f0576113ef611362565b5b60208301915083602082028301111561140c5761140b610fa3565b5b9250929050565b6000806000806040858703121561142d5761142c610edc565b5b600085013567ffffffffffffffff81111561144b5761144a610ee1565b5b61145787828801611367565b9450945050602085013567ffffffffffffffff81111561147a57611479610ee1565b5b611486878288016113bd565b925092505092959194509250565b6000819050919050565b60006114b96114b46114af846112ad565b611494565b6112ad565b9050919050565b60006114cb8261149e565b9050919050565b60006114dd826114c0565b9050919050565b6114ed816114d2565b82525050565b600060208201905061150860008301846114e4565b92915050565b600082825260208201905092915050565b7f506c6561736520636865636b2074686520646174612c20746865206e6577732060008201527f494420616e6420646973747269627574696f6e207175616e746974792061726560208201527f20696e636f6e73697374656e7400000000000000000000000000000000000000604082015250565b60006115a1604d8361150e565b91506115ac8261151f565b606082019050919050565b600060208201905081810360008301526115d081611594565b9050919050565b7f52656c656173653a206e6565642073657420546f6b656e204164647265737300600082015250565b600061160d601f8361150e565b9150611618826115d7565b602082019050919050565b6000602082019050818103600083015261163c81611600565b9050919050565b7f52656c656173653a206e65656420736574204368616c6c656e6720436f6e747260008201527f6163742041646472657373000000000000000000000000000000000000000000602082015250565b600061169f602b8361150e565b91506116aa82611643565b604082019050919050565b600060208201905081810360008301526116ce81611692565b9050919050565b7f4e487b7100000000000000000000000000000000000000000000000000000000600052603260045260246000fd5b7f4e487b7100000000000000000000000000000000000000000000000000000000600052601160045260246000fd5b600061173e8261113e565b91506117498361113e565b925082820190508082111561176157611760611704565b5b92915050565b60006117728261113e565b91507fffffffffffffffffffffffffffffffffffffffffffffffffffffffffffffffff82036117a4576117a3611704565b5b600182019050919050565b7f52656c656173653a20496e73756666696369656e7420746f74616c20616d6f7560008201527f6e7420617661696c61626c6520666f7220646973747269627574696f6e000000602082015250565b600061180b603d8361150e565b9150611816826117af565b604082019050919050565b6000602082019050818103600083015261183a816117fe565b9050919050565b600081519050919050565b60005b8381101561186a57808201518184015260208101905061184f565b60008484015250505050565b600061188182611841565b61188b818561150e565b935061189b81856020860161184c565b6118a481610eeb565b840191505092915050565b600060208201905081810360008301526118c98184611876565b905092915050565b600080fd5b600080fd5b60006118ee6118e984610fad565b610f5c565b90508281526020810184848401111561190a57611909610fa8565b5b61191584828561184c565b509392505050565b600082601f83011261193257611931610ee6565b5b81516119428482602086016118db565b91505092915050565b60008151905061195a816112df565b92915050565b60008151905061196f81611148565b92915050565b60008115159050919050565b61198a81611975565b811461199557600080fd5b50565b6000815190506119a781611981565b92915050565b600061018082840312156119c4576119c36118d1565b5b6119cf610180610f5c565b9050600082015167ffffffffffffffff8111156119ef576119ee6118d6565b5b6119fb8482850161191d565b6000830152506020611a0f8482850161194b565b6020830152506040611a2384828501611960565b6040830152506060611a3784828501611960565b6060830152506080611a4b84828501611998565b60808301525060a0611a5f84828501611998565b60a08301525060c0611a7384828501611998565b60c08301525060e0611a8784828501611960565b60e083015250610100611a9c84828501611998565b61010083015250610120611ab284828501611960565b61012083015250610140611ac884828501611960565b61014083015250610160611ade84828501611960565b6101608301525092915050565b600060208284031215611b0157611b00610edc565b5b600082015167ffffffffffffffff811115611b1f57611b1e610ee1565b5b611b2b848285016119ad565b91505092915050565b7f546865206e756d626572206f66206169722064726f707320657863656564732060008201527f746865206461696c792072656c6561736520616d6f756e740000000000000000602082015250565b6000611b9060388361150e565b9150611b9b82611b34565b604082019050919050565b60006020820190508181036000830152611bbf81611b83565b9050919050565b600060208284031215611bdc57611bdb610edc565b5b6000611bea84828501611960565b91505092915050565b6000606082019050611c086000830186611338565b611c156020830185611338565b611c226040830184611283565b949350505050565b7f536166654d6174683a206164646974696f6e206f766572666c6f770000000000600082015250565b6000611c60601b8361150e565b9150611c6b82611c2a565b602082019050919050565b60006020820190508181036000830152611c8f81611c53565b9050919050565b600060208284031215611cac57611cab610edc565b5b6000611cba84828501611998565b91505092915050565b7f5361666545524332303a204552433230206f7065726174696f6e20646964206e60008201527f6f74207375636365656400000000000000000000000000000000000000000000602082015250565b6000611d1f602a8361150e565b9150611d2a82611cc3565b604082019050919050565b60006020820190508181036000830152611d4e81611d12565b9050919050565b7f416464726573733a20696e73756666696369656e742062616c616e636520666f60008201527f722063616c6c0000000000000000000000000000000000000000000000000000602082015250565b6000611db160268361150e565b9150611dbc82611d55565b604082019050919050565b60006020820190508181036000830152611de081611da4565b9050919050565b7f416464726573733a2063616c6c20746f206e6f6e2d636f6e7472616374000000600082015250565b6000611e1d601d8361150e565b9150611e2882611de7565b602082019050919050565b60006020820190508181036000830152611e4c81611e10565b9050919050565b600081519050919050565b600081905092915050565b6000611e7482611e53565b611e7e8185611e5e565b9350611e8e81856020860161184c565b80840191505092915050565b6000611ea68284611e69565b91508190509291505056fea2646970667358221220a3fca010d1f9f7ab5c7dfbb19192ccee8b8b4d6d333af71cf12367cb280fd3eb64736f6c63430008130033",
					"opcodes": "PUSH1 0x80 PUSH1 0x40 MSTORE PUSH1 0x12 PUSH1 0x3 SSTORE CALLVALUE DUP1 ISZERO PUSH2 0x15 JUMPI PUSH1 0x0 DUP1 REVERT JUMPDEST POP CALLER PUSH1 0x5 PUSH1 0x0 PUSH2 0x100 EXP DUP2 SLOAD DUP2 PUSH20 0xFFFFFFFFFFFFFFFFFFFFFFFFFFFFFFFFFFFFFFFF MUL NOT AND SWAP1 DUP4 PUSH20 0xFFFFFFFFFFFFFFFFFFFFFFFFFFFFFFFFFFFFFFFF AND MUL OR SWAP1 SSTORE POP PUSH2 0x1EE7 DUP1 PUSH2 0x66 PUSH1 0x0 CODECOPY PUSH1 0x0 RETURN INVALID PUSH1 0x80 PUSH1 0x40 MSTORE CALLVALUE DUP1 ISZERO PUSH2 0x10 JUMPI PUSH1 0x0 DUP1 REVERT JUMPDEST POP PUSH1 0x4 CALLDATASIZE LT PUSH2 0xCF JUMPI PUSH1 0x0 CALLDATALOAD PUSH1 0xE0 SHR DUP1 PUSH4 0x5459B8A3 GT PUSH2 0x8C JUMPI DUP1 PUSH4 0xA6F9DAE1 GT PUSH2 0x66 JUMPI DUP1 PUSH4 0xA6F9DAE1 EQ PUSH2 0x1DC JUMPI DUP1 PUSH4 0xC4529E37 EQ PUSH2 0x1F8 JUMPI DUP1 PUSH4 0xC52C31FA EQ PUSH2 0x214 JUMPI DUP1 PUSH4 0xFC0C546A EQ PUSH2 0x230 JUMPI PUSH2 0xCF JUMP JUMPDEST DUP1 PUSH4 0x5459B8A3 EQ PUSH2 0x184 JUMPI DUP1 PUSH4 0x9E1A4D19 EQ PUSH2 0x1A0 JUMPI DUP1 PUSH4 0xA39865E7 EQ PUSH2 0x1BE JUMPI PUSH2 0xCF JUMP JUMPDEST DUP1 PUSH4 0xAF8668F EQ PUSH2 0xD4 JUMPI DUP1 PUSH4 0x188EC356 EQ PUSH2 0xF0 JUMPI DUP1 PUSH4 0x26A4E8D2 EQ PUSH2 0x10E JUMPI DUP1 PUSH4 0x313CE567 EQ PUSH2 0x12A JUMPI DUP1 PUSH4 0x47A58626 EQ PUSH2 0x148 JUMPI DUP1 PUSH4 0x4B14C0EF EQ PUSH2 0x166 JUMPI JUMPDEST PUSH1 0x0 DUP1 REVERT JUMPDEST PUSH2 0xEE PUSH1 0x4 DUP1 CALLDATASIZE SUB DUP2 ADD SWAP1 PUSH2 0xE9 SWAP2 SWAP1 PUSH2 0x120B JUMP JUMPDEST PUSH2 0x24E JUMP JUMPDEST STOP JUMPDEST PUSH2 0xF8 PUSH2 0x604 JUMP JUMPDEST PUSH1 0x40 MLOAD PUSH2 0x105 SWAP2 SWAP1 PUSH2 0x1292 JUMP JUMPDEST PUSH1 0x40 MLOAD DUP1 SWAP2 SUB SWAP1 RETURN JUMPDEST PUSH2 0x128 PUSH1 0x4 DUP1 CALLDATASIZE SUB DUP2 ADD SWAP1 PUSH2 0x123 SWAP2 SWAP1 PUSH2 0x130B JUMP JUMPDEST PUSH2 0x60C JUMP JUMPDEST STOP JUMPDEST PUSH2 0x132 PUSH2 0x6A9 JUMP JUMPDEST PUSH1 0x40 MLOAD PUSH2 0x13F SWAP2 SWAP1 PUSH2 0x1292 JUMP JUMPDEST PUSH1 0x40 MLOAD DUP1 SWAP2 SUB SWAP1 RETURN JUMPDEST PUSH2 0x150 PUSH2 0x6B3 JUMP JUMPDEST PUSH1 0x40 MLOAD PUSH2 0x15D SWAP2 SWAP1 PUSH2 0x1347 JUMP JUMPDEST PUSH1 0x40 MLOAD DUP1 SWAP2 SUB SWAP1 RETURN JUMPDEST PUSH2 0x16E PUSH2 0x6DD JUMP JUMPDEST PUSH1 0x40 MLOAD PUSH2 0x17B SWAP2 SWAP1 PUSH2 0x1292 JUMP JUMPDEST PUSH1 0x40 MLOAD DUP1 SWAP2 SUB SWAP1 RETURN JUMPDEST PUSH2 0x19E PUSH1 0x4 DUP1 CALLDATASIZE SUB DUP2 ADD SWAP1 PUSH2 0x199 SWAP2 SWAP1 PUSH2 0x1413 JUMP JUMPDEST PUSH2 0x6E7 JUMP JUMPDEST STOP JUMPDEST PUSH2 0x1A8 PUSH2 0x923 JUMP JUMPDEST PUSH1 0x40 MLOAD PUSH2 0x1B5 SWAP2 SWAP1 PUSH2 0x1292 JUMP JUMPDEST PUSH1 0x40 MLOAD DUP1 SWAP2 SUB SWAP1 RETURN JUMPDEST PUSH2 0x1C6 PUSH2 0x9F5 JUMP JUMPDEST PUSH1 0x40 MLOAD PUSH2 0x1D3 SWAP2 SWAP1 PUSH2 0x1347 JUMP JUMPDEST PUSH1 0x40 MLOAD DUP1 SWAP2 SUB SWAP1 RETURN JUMPDEST PUSH2 0x1F6 PUSH1 0x4 DUP1 CALLDATASIZE SUB DUP2 ADD SWAP1 PUSH2 0x1F1 SWAP2 SWAP1 PUSH2 0x130B JUMP JUMPDEST PUSH2 0xA1F JUMP JUMPDEST STOP JUMPDEST PUSH2 0x212 PUSH1 0x4 DUP1 CALLDATASIZE SUB DUP2 ADD SWAP1 PUSH2 0x20D SWAP2 SWAP1 PUSH2 0x130B JUMP JUMPDEST PUSH2 0xABD JUMP JUMPDEST STOP JUMPDEST PUSH2 0x22E PUSH1 0x4 DUP1 CALLDATASIZE SUB DUP2 ADD SWAP1 PUSH2 0x229 SWAP2 SWAP1 PUSH2 0x130B JUMP JUMPDEST PUSH2 0xB01 JUMP JUMPDEST STOP JUMPDEST PUSH2 0x238 PUSH2 0xB45 JUMP JUMPDEST PUSH1 0x40 MLOAD PUSH2 0x245 SWAP2 SWAP1 PUSH2 0x14F3 JUMP JUMPDEST PUSH1 0x40 MLOAD DUP1 SWAP2 SUB SWAP1 RETURN JUMPDEST PUSH1 0x5 PUSH1 0x0 SWAP1 SLOAD SWAP1 PUSH2 0x100 EXP SWAP1 DIV PUSH20 0xFFFFFFFFFFFFFFFFFFFFFFFFFFFFFFFFFFFFFFFF AND PUSH20 0xFFFFFFFFFFFFFFFFFFFFFFFFFFFFFFFFFFFFFFFF AND CALLER PUSH20 0xFFFFFFFFFFFFFFFFFFFFFFFFFFFFFFFFFFFFFFFF AND EQ PUSH2 0x2A8 JUMPI PUSH1 0x0 DUP1 REVERT JUMPDEST DUP1 MLOAD DUP3 MLOAD EQ PUSH2 0x2EC JUMPI PUSH1 0x40 MLOAD PUSH32 0x8C379A000000000000000000000000000000000000000000000000000000000 DUP2 MSTORE PUSH1 0x4 ADD PUSH2 0x2E3 SWAP1 PUSH2 0x15B7 JUMP JUMPDEST PUSH1 0x40 MLOAD DUP1 SWAP2 SUB SWAP1 REVERT JUMPDEST PUSH1 0x0 PUSH20 0xFFFFFFFFFFFFFFFFFFFFFFFFFFFFFFFFFFFFFFFF AND PUSH2 0x30C PUSH2 0xB45 JUMP JUMPDEST PUSH20 0xFFFFFFFFFFFFFFFFFFFFFFFFFFFFFFFFFFFFFFFF AND SUB PUSH2 0x362 JUMPI PUSH1 0x40 MLOAD PUSH32 0x8C379A000000000000000000000000000000000000000000000000000000000 DUP2 MSTORE PUSH1 0x4 ADD PUSH2 0x359 SWAP1 PUSH2 0x1623 JUMP JUMPDEST PUSH1 0x40 MLOAD DUP1 SWAP2 SUB SWAP1 REVERT JUMPDEST PUSH1 0x0 PUSH20 0xFFFFFFFFFFFFFFFFFFFFFFFFFFFFFFFFFFFFFFFF AND PUSH2 0x382 PUSH2 0x6B3 JUMP JUMPDEST PUSH20 0xFFFFFFFFFFFFFFFFFFFFFFFFFFFFFFFFFFFFFFFF AND SUB PUSH2 0x3D8 JUMPI PUSH1 0x40 MLOAD PUSH32 0x8C379A000000000000000000000000000000000000000000000000000000000 DUP2 MSTORE PUSH1 0x4 ADD PUSH2 0x3CF SWAP1 PUSH2 0x16B5 JUMP JUMPDEST PUSH1 0x40 MLOAD DUP1 SWAP2 SUB SWAP1 REVERT JUMPDEST PUSH1 0x0 DUP1 JUMPDEST DUP3 MLOAD DUP2 LT ISZERO PUSH2 0x420 JUMPI DUP3 DUP2 DUP2 MLOAD DUP2 LT PUSH2 0x3F8 JUMPI PUSH2 0x3F7 PUSH2 0x16D5 JUMP JUMPDEST JUMPDEST PUSH1 0x20 MUL PUSH1 0x20 ADD ADD MLOAD DUP3 PUSH2 0x40B SWAP2 SWAP1 PUSH2 0x1733 JUMP JUMPDEST SWAP2 POP DUP1 DUP1 PUSH2 0x418 SWAP1 PUSH2 0x1767 JUMP JUMPDEST SWAP2 POP POP PUSH2 0x3DC JUMP JUMPDEST POP DUP1 PUSH2 0x42A PUSH2 0x923 JUMP JUMPDEST LT ISZERO PUSH2 0x46B JUMPI PUSH1 0x40 MLOAD PUSH32 0x8C379A000000000000000000000000000000000000000000000000000000000 DUP2 MSTORE PUSH1 0x4 ADD PUSH2 0x462 SWAP1 PUSH2 0x1821 JUMP JUMPDEST PUSH1 0x40 MLOAD DUP1 SWAP2 SUB SWAP1 REVERT JUMPDEST PUSH1 0x0 PUSH2 0x475 PUSH2 0x6B3 JUMP JUMPDEST SWAP1 POP PUSH1 0x0 JUMPDEST DUP5 MLOAD DUP2 LT ISZERO PUSH2 0x5FD JUMPI PUSH1 0x0 DUP3 PUSH20 0xFFFFFFFFFFFFFFFFFFFFFFFFFFFFFFFFFFFFFFFF AND PUSH4 0x6441F9D0 DUP8 DUP5 DUP2 MLOAD DUP2 LT PUSH2 0x4B4 JUMPI PUSH2 0x4B3 PUSH2 0x16D5 JUMP JUMPDEST JUMPDEST PUSH1 0x20 MUL PUSH1 0x20 ADD ADD MLOAD PUSH1 0x40 MLOAD DUP3 PUSH4 0xFFFFFFFF AND PUSH1 0xE0 SHL DUP2 MSTORE PUSH1 0x4 ADD PUSH2 0x4D8 SWAP2 SWAP1 PUSH2 0x18AF JUMP JUMPDEST PUSH1 0x0 PUSH1 0x40 MLOAD DUP1 DUP4 SUB DUP2 DUP7 GAS STATICCALL ISZERO DUP1 ISZERO PUSH2 0x4F5 JUMPI RETURNDATASIZE PUSH1 0x0 DUP1 RETURNDATACOPY RETURNDATASIZE PUSH1 0x0 REVERT JUMPDEST POP POP POP POP PUSH1 0x40 MLOAD RETURNDATASIZE PUSH1 0x0 DUP3 RETURNDATACOPY RETURNDATASIZE PUSH1 0x1F NOT PUSH1 0x1F DUP3 ADD AND DUP3 ADD DUP1 PUSH1 0x40 MSTORE POP DUP2 ADD SWAP1 PUSH2 0x51E SWAP2 SWAP1 PUSH2 0x1AEB JUMP JUMPDEST SWAP1 POP PUSH1 0x0 DUP2 PUSH1 0x20 ADD MLOAD SWAP1 POP PUSH1 0x0 DUP7 DUP5 DUP2 MLOAD DUP2 LT PUSH2 0x53E JUMPI PUSH2 0x53D PUSH2 0x16D5 JUMP JUMPDEST JUMPDEST PUSH1 0x20 MUL PUSH1 0x20 ADD ADD MLOAD SWAP1 POP PUSH1 0x0 PUSH20 0xFFFFFFFFFFFFFFFFFFFFFFFFFFFFFFFFFFFFFFFF AND DUP3 PUSH20 0xFFFFFFFFFFFFFFFFFFFFFFFFFFFFFFFFFFFFFFFF AND EQ PUSH2 0x5E7 JUMPI PUSH2 0x5D2 ADDRESS PUSH1 0x2 PUSH1 0x0 SWAP1 SLOAD SWAP1 PUSH2 0x100 EXP SWAP1 DIV PUSH20 0xFFFFFFFFFFFFFFFFFFFFFFFFFFFFFFFFFFFFFFFF AND DUP4 PUSH2 0x5AC PUSH2 0xB45 JUMP JUMPDEST PUSH20 0xFFFFFFFFFFFFFFFFFFFFFFFFFFFFFFFFFFFFFFFF AND PUSH2 0xB6E SWAP1 SWAP4 SWAP3 SWAP2 SWAP1 PUSH4 0xFFFFFFFF AND JUMP JUMPDEST DUP1 PUSH1 0x4 SLOAD PUSH2 0x5E0 SWAP2 SWAP1 PUSH2 0x1733 JUMP JUMPDEST PUSH1 0x4 DUP2 SWAP1 SSTORE POP JUMPDEST POP POP POP DUP1 DUP1 PUSH2 0x5F5 SWAP1 PUSH2 0x1767 JUMP JUMPDEST SWAP2 POP POP PUSH2 0x47A JUMP JUMPDEST POP POP POP POP POP JUMP JUMPDEST PUSH1 0x0 TIMESTAMP SWAP1 POP SWAP1 JUMP JUMPDEST PUSH1 0x5 PUSH1 0x0 SWAP1 SLOAD SWAP1 PUSH2 0x100 EXP SWAP1 DIV PUSH20 0xFFFFFFFFFFFFFFFFFFFFFFFFFFFFFFFFFFFFFFFF AND PUSH20 0xFFFFFFFFFFFFFFFFFFFFFFFFFFFFFFFFFFFFFFFF AND CALLER PUSH20 0xFFFFFFFFFFFFFFFFFFFFFFFFFFFFFFFFFFFFFFFF AND EQ PUSH2 0x666 JUMPI PUSH1 0x0 DUP1 REVERT JUMPDEST DUP1 PUSH1 0x0 DUP1 PUSH2 0x100 EXP DUP2 SLOAD DUP2 PUSH20 0xFFFFFFFFFFFFFFFFFFFFFFFFFFFFFFFFFFFFFFFF MUL NOT AND SWAP1 DUP4 PUSH20 0xFFFFFFFFFFFFFFFFFFFFFFFFFFFFFFFFFFFFFFFF AND MUL OR SWAP1 SSTORE POP POP JUMP JUMPDEST PUSH1 0x0 PUSH1 0x3 SLOAD SWAP1 POP SWAP1 JUMP JUMPDEST PUSH1 0x0 PUSH1 0x1 PUSH1 0x0 SWAP1 SLOAD SWAP1 PUSH2 0x100 EXP SWAP1 DIV PUSH20 0xFFFFFFFFFFFFFFFFFFFFFFFFFFFFFFFFFFFFFFFF AND SWAP1 POP SWAP1 JUMP JUMPDEST PUSH1 0x0 PUSH1 0x4 SLOAD SWAP1 POP SWAP1 JUMP JUMPDEST PUSH1 0x0 PUSH20 0xFFFFFFFFFFFFFFFFFFFFFFFFFFFFFFFFFFFFFFFF AND PUSH1 0x0 DUP1 SLOAD SWAP1 PUSH2 0x100 EXP SWAP1 DIV PUSH20 0xFFFFFFFFFFFFFFFFFFFFFFFFFFFFFFFFFFFFFFFF AND PUSH20 0xFFFFFFFFFFFFFFFFFFFFFFFFFFFFFFFFFFFFFFFF AND SUB PUSH2 0x776 JUMPI PUSH1 0x40 MLOAD PUSH32 0x8C379A000000000000000000000000000000000000000000000000000000000 DUP2 MSTORE PUSH1 0x4 ADD PUSH2 0x76D SWAP1 PUSH2 0x1623 JUMP JUMPDEST PUSH1 0x40 MLOAD DUP1 SWAP2 SUB SWAP1 REVERT JUMPDEST DUP2 DUP2 SWAP1 POP DUP5 DUP5 SWAP1 POP EQ PUSH2 0x7BE JUMPI PUSH1 0x40 MLOAD PUSH32 0x8C379A000000000000000000000000000000000000000000000000000000000 DUP2 MSTORE PUSH1 0x4 ADD PUSH2 0x7B5 SWAP1 PUSH2 0x15B7 JUMP JUMPDEST PUSH1 0x40 MLOAD DUP1 SWAP2 SUB SWAP1 REVERT JUMPDEST PUSH1 0x0 DUP1 JUMPDEST DUP6 DUP6 SWAP1 POP DUP2 LT ISZERO PUSH2 0x80E JUMPI PUSH2 0x7F9 DUP5 DUP5 DUP4 DUP2 DUP2 LT PUSH2 0x7E3 JUMPI PUSH2 0x7E2 PUSH2 0x16D5 JUMP JUMPDEST JUMPDEST SWAP1 POP PUSH1 0x20 MUL ADD CALLDATALOAD DUP4 PUSH2 0xBF7 SWAP1 SWAP2 SWAP1 PUSH4 0xFFFFFFFF AND JUMP JUMPDEST SWAP2 POP DUP1 DUP1 PUSH2 0x806 SWAP1 PUSH2 0x1767 JUMP JUMPDEST SWAP2 POP POP PUSH2 0x7C2 JUMP JUMPDEST POP DUP1 PUSH2 0x818 PUSH2 0x923 JUMP JUMPDEST LT ISZERO PUSH2 0x859 JUMPI PUSH1 0x40 MLOAD PUSH32 0x8C379A000000000000000000000000000000000000000000000000000000000 DUP2 MSTORE PUSH1 0x4 ADD PUSH2 0x850 SWAP1 PUSH2 0x1BA6 JUMP JUMPDEST PUSH1 0x40 MLOAD DUP1 SWAP2 SUB SWAP1 REVERT JUMPDEST PUSH1 0x0 JUMPDEST DUP6 DUP6 SWAP1 POP DUP2 LT ISZERO PUSH2 0x91B JUMPI PUSH2 0x8DB ADDRESS DUP8 DUP8 DUP5 DUP2 DUP2 LT PUSH2 0x87E JUMPI PUSH2 0x87D PUSH2 0x16D5 JUMP JUMPDEST JUMPDEST SWAP1 POP PUSH1 0x20 MUL ADD PUSH1 0x20 DUP2 ADD SWAP1 PUSH2 0x893 SWAP2 SWAP1 PUSH2 0x130B JUMP JUMPDEST DUP7 DUP7 DUP6 DUP2 DUP2 LT PUSH2 0x8A6 JUMPI PUSH2 0x8A5 PUSH2 0x16D5 JUMP JUMPDEST JUMPDEST SWAP1 POP PUSH1 0x20 MUL ADD CALLDATALOAD PUSH2 0x8B5 PUSH2 0xB45 JUMP JUMPDEST PUSH20 0xFFFFFFFFFFFFFFFFFFFFFFFFFFFFFFFFFFFFFFFF AND PUSH2 0xB6E SWAP1 SWAP4 SWAP3 SWAP2 SWAP1 PUSH4 0xFFFFFFFF AND JUMP JUMPDEST DUP4 DUP4 DUP3 DUP2 DUP2 LT PUSH2 0x8EE JUMPI PUSH2 0x8ED PUSH2 0x16D5 JUMP JUMPDEST JUMPDEST SWAP1 POP PUSH1 0x20 MUL ADD CALLDATALOAD PUSH1 0x4 SLOAD PUSH2 0x902 SWAP2 SWAP1 PUSH2 0x1733 JUMP JUMPDEST PUSH1 0x4 DUP2 SWAP1 SSTORE POP DUP1 DUP1 PUSH2 0x913 SWAP1 PUSH2 0x1767 JUMP JUMPDEST SWAP2 POP POP PUSH2 0x85C JUMP JUMPDEST POP POP POP POP POP POP JUMP JUMPDEST PUSH1 0x0 DUP1 PUSH20 0xFFFFFFFFFFFFFFFFFFFFFFFFFFFFFFFFFFFFFFFF AND PUSH2 0x944 PUSH2 0xB45 JUMP JUMPDEST PUSH20 0xFFFFFFFFFFFFFFFFFFFFFFFFFFFFFFFFFFFFFFFF AND SUB PUSH2 0x968 JUMPI PUSH1 0x0 SWAP1 POP PUSH2 0x9F2 JUMP JUMPDEST PUSH1 0x0 PUSH2 0x972 PUSH2 0xB45 JUMP JUMPDEST PUSH20 0xFFFFFFFFFFFFFFFFFFFFFFFFFFFFFFFFFFFFFFFF AND PUSH4 0x70A08231 ADDRESS PUSH1 0x40 MLOAD DUP3 PUSH4 0xFFFFFFFF AND PUSH1 0xE0 SHL DUP2 MSTORE PUSH1 0x4 ADD PUSH2 0x9AA SWAP2 SWAP1 PUSH2 0x1347 JUMP JUMPDEST PUSH1 0x20 PUSH1 0x40 MLOAD DUP1 DUP4 SUB DUP2 DUP7 GAS STATICCALL ISZERO DUP1 ISZERO PUSH2 0x9C7 JUMPI RETURNDATASIZE PUSH1 0x0 DUP1 RETURNDATACOPY RETURNDATASIZE PUSH1 0x0 REVERT JUMPDEST POP POP POP POP PUSH1 0x40 MLOAD RETURNDATASIZE PUSH1 0x1F NOT PUSH1 0x1F DUP3 ADD AND DUP3 ADD DUP1 PUSH1 0x40 MSTORE POP DUP2 ADD SWAP1 PUSH2 0x9EB SWAP2 SWAP1 PUSH2 0x1BC6 JUMP JUMPDEST SWAP1 POP DUP1 SWAP2 POP POP JUMPDEST SWAP1 JUMP JUMPDEST PUSH1 0x0 PUSH1 0x2 PUSH1 0x0 SWAP1 SLOAD SWAP1 PUSH2 0x100 EXP SWAP1 DIV PUSH20 0xFFFFFFFFFFFFFFFFFFFFFFFFFFFFFFFFFFFFFFFF AND SWAP1 POP SWAP1 JUMP JUMPDEST PUSH1 0x5 PUSH1 0x0 SWAP1 SLOAD SWAP1 PUSH2 0x100 EXP SWAP1 DIV PUSH20 0xFFFFFFFFFFFFFFFFFFFFFFFFFFFFFFFFFFFFFFFF AND PUSH20 0xFFFFFFFFFFFFFFFFFFFFFFFFFFFFFFFFFFFFFFFF AND CALLER PUSH20 0xFFFFFFFFFFFFFFFFFFFFFFFFFFFFFFFFFFFFFFFF AND EQ PUSH2 0xA79 JUMPI PUSH1 0x0 DUP1 REVERT JUMPDEST DUP1 PUSH1 0x5 PUSH1 0x0 PUSH2 0x100 EXP DUP2 SLOAD DUP2 PUSH20 0xFFFFFFFFFFFFFFFFFFFFFFFFFFFFFFFFFFFFFFFF MUL NOT AND SWAP1 DUP4 PUSH20 0xFFFFFFFFFFFFFFFFFFFFFFFFFFFFFFFFFFFFFFFF AND MUL OR SWAP1 SSTORE POP POP JUMP JUMPDEST DUP1 PUSH1 0x2 PUSH1 0x0 PUSH2 0x100 EXP DUP2 SLOAD DUP2 PUSH20 0xFFFFFFFFFFFFFFFFFFFFFFFFFFFFFFFFFFFFFFFF MUL NOT AND SWAP1 DUP4 PUSH20 0xFFFFFFFFFFFFFFFFFFFFFFFFFFFFFFFFFFFFFFFF AND MUL OR SWAP1 SSTORE POP POP JUMP JUMPDEST DUP1 PUSH1 0x1 PUSH1 0x0 PUSH2 0x100 EXP DUP2 SLOAD DUP2 PUSH20 0xFFFFFFFFFFFFFFFFFFFFFFFFFFFFFFFFFFFFFFFF MUL NOT AND SWAP1 DUP4 PUSH20 0xFFFFFFFFFFFFFFFFFFFFFFFFFFFFFFFFFFFFFFFF AND MUL OR SWAP1 SSTORE POP POP JUMP JUMPDEST PUSH1 0x0 DUP1 PUSH1 0x0 SWAP1 SLOAD SWAP1 PUSH2 0x100 EXP SWAP1 DIV PUSH20 0xFFFFFFFFFFFFFFFFFFFFFFFFFFFFFFFFFFFFFFFF AND SWAP1 POP SWAP1 JUMP JUMPDEST PUSH2 0xBF1 DUP5 PUSH4 0x23B872DD PUSH1 0xE0 SHL DUP6 DUP6 DUP6 PUSH1 0x40 MLOAD PUSH1 0x24 ADD PUSH2 0xB8F SWAP4 SWAP3 SWAP2 SWAP1 PUSH2 0x1BF3 JUMP JUMPDEST PUSH1 0x40 MLOAD PUSH1 0x20 DUP2 DUP4 SUB SUB DUP2 MSTORE SWAP1 PUSH1 0x40 MSTORE SWAP1 PUSH28 0xFFFFFFFFFFFFFFFFFFFFFFFFFFFFFFFFFFFFFFFFFFFFFFFFFFFFFFFF NOT AND PUSH1 0x20 DUP3 ADD DUP1 MLOAD PUSH28 0xFFFFFFFFFFFFFFFFFFFFFFFFFFFFFFFFFFFFFFFFFFFFFFFFFFFFFFFF DUP4 DUP2 DUP4 AND OR DUP4 MSTORE POP POP POP POP PUSH2 0xC55 JUMP JUMPDEST POP POP POP POP JUMP JUMPDEST PUSH1 0x0 DUP1 DUP3 DUP5 PUSH2 0xC06 SWAP2 SWAP1 PUSH2 0x1733 JUMP JUMPDEST SWAP1 POP DUP4 DUP2 LT ISZERO PUSH2 0xC4B JUMPI PUSH1 0x40 MLOAD PUSH32 0x8C379A000000000000000000000000000000000000000000000000000000000 DUP2 MSTORE PUSH1 0x4 ADD PUSH2 0xC42 SWAP1 PUSH2 0x1C76 JUMP JUMPDEST PUSH1 0x40 MLOAD DUP1 SWAP2 SUB SWAP1 REVERT JUMPDEST DUP1 SWAP2 POP POP SWAP3 SWAP2 POP POP JUMP JUMPDEST PUSH1 0x0 PUSH2 0xCB7 DUP3 PUSH1 0x40 MLOAD DUP1 PUSH1 0x40 ADD PUSH1 0x40 MSTORE DUP1 PUSH1 0x20 DUP2 MSTORE PUSH1 0x20 ADD PUSH32 0x5361666545524332303A206C6F772D6C6576656C2063616C6C206661696C6564 DUP2 MSTORE POP DUP6 PUSH20 0xFFFFFFFFFFFFFFFFFFFFFFFFFFFFFFFFFFFFFFFF AND PUSH2 0xD1C SWAP1 SWAP3 SWAP2 SWAP1 PUSH4 0xFFFFFFFF AND JUMP JUMPDEST SWAP1 POP PUSH1 0x0 DUP2 MLOAD GT ISZERO PUSH2 0xD17 JUMPI DUP1 DUP1 PUSH1 0x20 ADD SWAP1 MLOAD DUP2 ADD SWAP1 PUSH2 0xCD7 SWAP2 SWAP1 PUSH2 0x1C96 JUMP JUMPDEST PUSH2 0xD16 JUMPI PUSH1 0x40 MLOAD PUSH32 0x8C379A000000000000000000000000000000000000000000000000000000000 DUP2 MSTORE PUSH1 0x4 ADD PUSH2 0xD0D SWAP1 PUSH2 0x1D35 JUMP JUMPDEST PUSH1 0x40 MLOAD DUP1 SWAP2 SUB SWAP1 REVERT JUMPDEST JUMPDEST POP POP POP JUMP JUMPDEST PUSH1 0x60 PUSH2 0xD2B DUP5 DUP5 PUSH1 0x0 DUP6 PUSH2 0xD34 JUMP JUMPDEST SWAP1 POP SWAP4 SWAP3 POP POP POP JUMP JUMPDEST PUSH1 0x60 DUP3 SELFBALANCE LT ISZERO PUSH2 0xD79 JUMPI PUSH1 0x40 MLOAD PUSH32 0x8C379A000000000000000000000000000000000000000000000000000000000 DUP2 MSTORE PUSH1 0x4 ADD PUSH2 0xD70 SWAP1 PUSH2 0x1DC7 JUMP JUMPDEST PUSH1 0x40 MLOAD DUP1 SWAP2 SUB SWAP1 REVERT JUMPDEST PUSH2 0xD82 DUP6 PUSH2 0xE48 JUMP JUMPDEST PUSH2 0xDC1 JUMPI PUSH1 0x40 MLOAD PUSH32 0x8C379A000000000000000000000000000000000000000000000000000000000 DUP2 MSTORE PUSH1 0x4 ADD PUSH2 0xDB8 SWAP1 PUSH2 0x1E33 JUMP JUMPDEST PUSH1 0x40 MLOAD DUP1 SWAP2 SUB SWAP1 REVERT JUMPDEST PUSH1 0x0 DUP1 DUP7 PUSH20 0xFFFFFFFFFFFFFFFFFFFFFFFFFFFFFFFFFFFFFFFF AND DUP6 DUP8 PUSH1 0x40 MLOAD PUSH2 0xDEA SWAP2 SWAP1 PUSH2 0x1E9A JUMP JUMPDEST PUSH1 0x0 PUSH1 0x40 MLOAD DUP1 DUP4 SUB DUP2 DUP6 DUP8 GAS CALL SWAP3 POP POP POP RETURNDATASIZE DUP1 PUSH1 0x0 DUP2 EQ PUSH2 0xE27 JUMPI PUSH1 0x40 MLOAD SWAP2 POP PUSH1 0x1F NOT PUSH1 0x3F RETURNDATASIZE ADD AND DUP3 ADD PUSH1 0x40 MSTORE RETURNDATASIZE DUP3 MSTORE RETURNDATASIZE PUSH1 0x0 PUSH1 0x20 DUP5 ADD RETURNDATACOPY PUSH2 0xE2C JUMP JUMPDEST PUSH1 0x60 SWAP2 POP JUMPDEST POP SWAP2 POP SWAP2 POP PUSH2 0xE3C DUP3 DUP3 DUP7 PUSH2 0xE6B JUMP JUMPDEST SWAP3 POP POP POP SWAP5 SWAP4 POP POP POP POP JUMP JUMPDEST PUSH1 0x0 DUP1 DUP3 PUSH20 0xFFFFFFFFFFFFFFFFFFFFFFFFFFFFFFFFFFFFFFFF AND EXTCODESIZE GT SWAP1 POP SWAP2 SWAP1 POP JUMP JUMPDEST PUSH1 0x60 DUP4 ISZERO PUSH2 0xE7B JUMPI DUP3 SWAP1 POP PUSH2 0xECB JUMP JUMPDEST PUSH1 0x0 DUP4 MLOAD GT ISZERO PUSH2 0xE8E JUMPI DUP3 MLOAD DUP1 DUP5 PUSH1 0x20 ADD REVERT JUMPDEST DUP2 PUSH1 0x40 MLOAD PUSH32 0x8C379A000000000000000000000000000000000000000000000000000000000 DUP2 MSTORE PUSH1 0x4 ADD PUSH2 0xEC2 SWAP2 SWAP1 PUSH2 0x18AF JUMP JUMPDEST PUSH1 0x40 MLOAD DUP1 SWAP2 SUB SWAP1 REVERT JUMPDEST SWAP4 SWAP3 POP POP POP JUMP JUMPDEST PUSH1 0x0 PUSH1 0x40 MLOAD SWAP1 POP SWAP1 JUMP JUMPDEST PUSH1 0x0 DUP1 REVERT JUMPDEST PUSH1 0x0 DUP1 REVERT JUMPDEST PUSH1 0x0 DUP1 REVERT JUMPDEST PUSH1 0x0 PUSH1 0x1F NOT PUSH1 0x1F DUP4 ADD AND SWAP1 POP SWAP2 SWAP1 POP JUMP JUMPDEST PUSH32 0x4E487B7100000000000000000000000000000000000000000000000000000000 PUSH1 0x0 MSTORE PUSH1 0x41 PUSH1 0x4 MSTORE PUSH1 0x24 PUSH1 0x0 REVERT JUMPDEST PUSH2 0xF34 DUP3 PUSH2 0xEEB JUMP JUMPDEST DUP2 ADD DUP2 DUP2 LT PUSH8 0xFFFFFFFFFFFFFFFF DUP3 GT OR ISZERO PUSH2 0xF53 JUMPI PUSH2 0xF52 PUSH2 0xEFC JUMP JUMPDEST JUMPDEST DUP1 PUSH1 0x40 MSTORE POP POP POP JUMP JUMPDEST PUSH1 0x0 PUSH2 0xF66 PUSH2 0xED2 JUMP JUMPDEST SWAP1 POP PUSH2 0xF72 DUP3 DUP3 PUSH2 0xF2B JUMP JUMPDEST SWAP2 SWAP1 POP JUMP JUMPDEST PUSH1 0x0 PUSH8 0xFFFFFFFFFFFFFFFF DUP3 GT ISZERO PUSH2 0xF92 JUMPI PUSH2 0xF91 PUSH2 0xEFC JUMP JUMPDEST JUMPDEST PUSH1 0x20 DUP3 MUL SWAP1 POP PUSH1 0x20 DUP2 ADD SWAP1 POP SWAP2 SWAP1 POP JUMP JUMPDEST PUSH1 0x0 DUP1 REVERT JUMPDEST PUSH1 0x0 DUP1 REVERT JUMPDEST PUSH1 0x0 PUSH8 0xFFFFFFFFFFFFFFFF DUP3 GT ISZERO PUSH2 0xFC8 JUMPI PUSH2 0xFC7 PUSH2 0xEFC JUMP JUMPDEST JUMPDEST PUSH2 0xFD1 DUP3 PUSH2 0xEEB JUMP JUMPDEST SWAP1 POP PUSH1 0x20 DUP2 ADD SWAP1 POP SWAP2 SWAP1 POP JUMP JUMPDEST DUP3 DUP2 DUP4 CALLDATACOPY PUSH1 0x0 DUP4 DUP4 ADD MSTORE POP POP POP JUMP JUMPDEST PUSH1 0x0 PUSH2 0x1000 PUSH2 0xFFB DUP5 PUSH2 0xFAD JUMP JUMPDEST PUSH2 0xF5C JUMP JUMPDEST SWAP1 POP DUP3 DUP2 MSTORE PUSH1 0x20 DUP2 ADD DUP5 DUP5 DUP5 ADD GT ISZERO PUSH2 0x101C JUMPI PUSH2 0x101B PUSH2 0xFA8 JUMP JUMPDEST JUMPDEST PUSH2 0x1027 DUP5 DUP3 DUP6 PUSH2 0xFDE JUMP JUMPDEST POP SWAP4 SWAP3 POP POP POP JUMP JUMPDEST PUSH1 0x0 DUP3 PUSH1 0x1F DUP4 ADD SLT PUSH2 0x1044 JUMPI PUSH2 0x1043 PUSH2 0xEE6 JUMP JUMPDEST JUMPDEST DUP2 CALLDATALOAD PUSH2 0x1054 DUP5 DUP3 PUSH1 0x20 DUP7 ADD PUSH2 0xFED JUMP JUMPDEST SWAP2 POP POP SWAP3 SWAP2 POP POP JUMP JUMPDEST PUSH1 0x0 PUSH2 0x1070 PUSH2 0x106B DUP5 PUSH2 0xF77 JUMP JUMPDEST PUSH2 0xF5C JUMP JUMPDEST SWAP1 POP DUP1 DUP4 DUP3 MSTORE PUSH1 0x20 DUP3 ADD SWAP1 POP PUSH1 0x20 DUP5 MUL DUP4 ADD DUP6 DUP2 GT ISZERO PUSH2 0x1093 JUMPI PUSH2 0x1092 PUSH2 0xFA3 JUMP JUMPDEST JUMPDEST DUP4 JUMPDEST DUP2 DUP2 LT ISZERO PUSH2 0x10DA JUMPI DUP1 CALLDATALOAD PUSH8 0xFFFFFFFFFFFFFFFF DUP2 GT ISZERO PUSH2 0x10B8 JUMPI PUSH2 0x10B7 PUSH2 0xEE6 JUMP JUMPDEST JUMPDEST DUP1 DUP7 ADD PUSH2 0x10C5 DUP10 DUP3 PUSH2 0x102F JUMP JUMPDEST DUP6 MSTORE PUSH1 0x20 DUP6 ADD SWAP5 POP POP POP PUSH1 0x20 DUP2 ADD SWAP1 POP PUSH2 0x1095 JUMP JUMPDEST POP POP POP SWAP4 SWAP3 POP POP POP JUMP JUMPDEST PUSH1 0x0 DUP3 PUSH1 0x1F DUP4 ADD SLT PUSH2 0x10F9 JUMPI PUSH2 0x10F8 PUSH2 0xEE6 JUMP JUMPDEST JUMPDEST DUP2 CALLDATALOAD PUSH2 0x1109 DUP5 DUP3 PUSH1 0x20 DUP7 ADD PUSH2 0x105D JUMP JUMPDEST SWAP2 POP POP SWAP3 SWAP2 POP POP JUMP JUMPDEST PUSH1 0x0 PUSH8 0xFFFFFFFFFFFFFFFF DUP3 GT ISZERO PUSH2 0x112D JUMPI PUSH2 0x112C PUSH2 0xEFC JUMP JUMPDEST JUMPDEST PUSH1 0x20 DUP3 MUL SWAP1 POP PUSH1 0x20 DUP2 ADD SWAP1 POP SWAP2 SWAP1 POP JUMP JUMPDEST PUSH1 0x0 DUP2 SWAP1 POP SWAP2 SWAP1 POP JUMP JUMPDEST PUSH2 0x1151 DUP2 PUSH2 0x113E JUMP JUMPDEST DUP2 EQ PUSH2 0x115C JUMPI PUSH1 0x0 DUP1 REVERT JUMPDEST POP JUMP JUMPDEST PUSH1 0x0 DUP2 CALLDATALOAD SWAP1 POP PUSH2 0x116E DUP2 PUSH2 0x1148 JUMP JUMPDEST SWAP3 SWAP2 POP POP JUMP JUMPDEST PUSH1 0x0 PUSH2 0x1187 PUSH2 0x1182 DUP5 PUSH2 0x1112 JUMP JUMPDEST PUSH2 0xF5C JUMP JUMPDEST SWAP1 POP DUP1 DUP4 DUP3 MSTORE PUSH1 0x20 DUP3 ADD SWAP1 POP PUSH1 0x20 DUP5 MUL DUP4 ADD DUP6 DUP2 GT ISZERO PUSH2 0x11AA JUMPI PUSH2 0x11A9 PUSH2 0xFA3 JUMP JUMPDEST JUMPDEST DUP4 JUMPDEST DUP2 DUP2 LT ISZERO PUSH2 0x11D3 JUMPI DUP1 PUSH2 0x11BF DUP9 DUP3 PUSH2 0x115F JUMP JUMPDEST DUP5 MSTORE PUSH1 0x20 DUP5 ADD SWAP4 POP POP PUSH1 0x20 DUP2 ADD SWAP1 POP PUSH2 0x11AC JUMP JUMPDEST POP POP POP SWAP4 SWAP3 POP POP POP JUMP JUMPDEST PUSH1 0x0 DUP3 PUSH1 0x1F DUP4 ADD SLT PUSH2 0x11F2 JUMPI PUSH2 0x11F1 PUSH2 0xEE6 JUMP JUMPDEST JUMPDEST DUP2 CALLDATALOAD PUSH2 0x1202 DUP5 DUP3 PUSH1 0x20 DUP7 ADD PUSH2 0x1174 JUMP JUMPDEST SWAP2 POP POP SWAP3 SWAP2 POP POP JUMP JUMPDEST PUSH1 0x0 DUP1 PUSH1 0x40 DUP4 DUP6 SUB SLT ISZERO PUSH2 0x1222 JUMPI PUSH2 0x1221 PUSH2 0xEDC JUMP JUMPDEST JUMPDEST PUSH1 0x0 DUP4 ADD CALLDATALOAD PUSH8 0xFFFFFFFFFFFFFFFF DUP2 GT ISZERO PUSH2 0x1240 JUMPI PUSH2 0x123F PUSH2 0xEE1 JUMP JUMPDEST JUMPDEST PUSH2 0x124C DUP6 DUP3 DUP7 ADD PUSH2 0x10E4 JUMP JUMPDEST SWAP3 POP POP PUSH1 0x20 DUP4 ADD CALLDATALOAD PUSH8 0xFFFFFFFFFFFFFFFF DUP2 GT ISZERO PUSH2 0x126D JUMPI PUSH2 0x126C PUSH2 0xEE1 JUMP JUMPDEST JUMPDEST PUSH2 0x1279 DUP6 DUP3 DUP7 ADD PUSH2 0x11DD JUMP JUMPDEST SWAP2 POP POP SWAP3 POP SWAP3 SWAP1 POP JUMP JUMPDEST PUSH2 0x128C DUP2 PUSH2 0x113E JUMP JUMPDEST DUP3 MSTORE POP POP JUMP JUMPDEST PUSH1 0x0 PUSH1 0x20 DUP3 ADD SWAP1 POP PUSH2 0x12A7 PUSH1 0x0 DUP4 ADD DUP5 PUSH2 0x1283 JUMP JUMPDEST SWAP3 SWAP2 POP POP JUMP JUMPDEST PUSH1 0x0 PUSH20 0xFFFFFFFFFFFFFFFFFFFFFFFFFFFFFFFFFFFFFFFF DUP3 AND SWAP1 POP SWAP2 SWAP1 POP JUMP JUMPDEST PUSH1 0x0 PUSH2 0x12D8 DUP3 PUSH2 0x12AD JUMP JUMPDEST SWAP1 POP SWAP2 SWAP1 POP JUMP JUMPDEST PUSH2 0x12E8 DUP2 PUSH2 0x12CD JUMP JUMPDEST DUP2 EQ PUSH2 0x12F3 JUMPI PUSH1 0x0 DUP1 REVERT JUMPDEST POP JUMP JUMPDEST PUSH1 0x0 DUP2 CALLDATALOAD SWAP1 POP PUSH2 0x1305 DUP2 PUSH2 0x12DF JUMP JUMPDEST SWAP3 SWAP2 POP POP JUMP JUMPDEST PUSH1 0x0 PUSH1 0x20 DUP3 DUP5 SUB SLT ISZERO PUSH2 0x1321 JUMPI PUSH2 0x1320 PUSH2 0xEDC JUMP JUMPDEST JUMPDEST PUSH1 0x0 PUSH2 0x132F DUP5 DUP3 DUP6 ADD PUSH2 0x12F6 JUMP JUMPDEST SWAP2 POP POP SWAP3 SWAP2 POP POP JUMP JUMPDEST PUSH2 0x1341 DUP2 PUSH2 0x12CD JUMP JUMPDEST DUP3 MSTORE POP POP JUMP JUMPDEST PUSH1 0x0 PUSH1 0x20 DUP3 ADD SWAP1 POP PUSH2 0x135C PUSH1 0x0 DUP4 ADD DUP5 PUSH2 0x1338 JUMP JUMPDEST SWAP3 SWAP2 POP POP JUMP JUMPDEST PUSH1 0x0 DUP1 REVERT JUMPDEST PUSH1 0x0 DUP1 DUP4 PUSH1 0x1F DUP5 ADD SLT PUSH2 0x137D JUMPI PUSH2 0x137C PUSH2 0xEE6 JUMP JUMPDEST JUMPDEST DUP3 CALLDATALOAD SWAP1 POP PUSH8 0xFFFFFFFFFFFFFFFF DUP2 GT ISZERO PUSH2 0x139A JUMPI PUSH2 0x1399 PUSH2 0x1362 JUMP JUMPDEST JUMPDEST PUSH1 0x20 DUP4 ADD SWAP2 POP DUP4 PUSH1 0x20 DUP3 MUL DUP4 ADD GT ISZERO PUSH2 0x13B6 JUMPI PUSH2 0x13B5 PUSH2 0xFA3 JUMP JUMPDEST JUMPDEST SWAP3 POP SWAP3 SWAP1 POP JUMP JUMPDEST PUSH1 0x0 DUP1 DUP4 PUSH1 0x1F DUP5 ADD SLT PUSH2 0x13D3 JUMPI PUSH2 0x13D2 PUSH2 0xEE6 JUMP JUMPDEST JUMPDEST DUP3 CALLDATALOAD SWAP1 POP PUSH8 0xFFFFFFFFFFFFFFFF DUP2 GT ISZERO PUSH2 0x13F0 JUMPI PUSH2 0x13EF PUSH2 0x1362 JUMP JUMPDEST JUMPDEST PUSH1 0x20 DUP4 ADD SWAP2 POP DUP4 PUSH1 0x20 DUP3 MUL DUP4 ADD GT ISZERO PUSH2 0x140C JUMPI PUSH2 0x140B PUSH2 0xFA3 JUMP JUMPDEST JUMPDEST SWAP3 POP SWAP3 SWAP1 POP JUMP JUMPDEST PUSH1 0x0 DUP1 PUSH1 0x0 DUP1 PUSH1 0x40 DUP6 DUP8 SUB SLT ISZERO PUSH2 0x142D JUMPI PUSH2 0x142C PUSH2 0xEDC JUMP JUMPDEST JUMPDEST PUSH1 0x0 DUP6 ADD CALLDATALOAD PUSH8 0xFFFFFFFFFFFFFFFF DUP2 GT ISZERO PUSH2 0x144B JUMPI PUSH2 0x144A PUSH2 0xEE1 JUMP JUMPDEST JUMPDEST PUSH2 0x1457 DUP8 DUP3 DUP9 ADD PUSH2 0x1367 JUMP JUMPDEST SWAP5 POP SWAP5 POP POP PUSH1 0x20 DUP6 ADD CALLDATALOAD PUSH8 0xFFFFFFFFFFFFFFFF DUP2 GT ISZERO PUSH2 0x147A JUMPI PUSH2 0x1479 PUSH2 0xEE1 JUMP JUMPDEST JUMPDEST PUSH2 0x1486 DUP8 DUP3 DUP9 ADD PUSH2 0x13BD JUMP JUMPDEST SWAP3 POP SWAP3 POP POP SWAP3 SWAP6 SWAP2 SWAP5 POP SWAP3 POP JUMP JUMPDEST PUSH1 0x0 DUP2 SWAP1 POP SWAP2 SWAP1 POP JUMP JUMPDEST PUSH1 0x0 PUSH2 0x14B9 PUSH2 0x14B4 PUSH2 0x14AF DUP5 PUSH2 0x12AD JUMP JUMPDEST PUSH2 0x1494 JUMP JUMPDEST PUSH2 0x12AD JUMP JUMPDEST SWAP1 POP SWAP2 SWAP1 POP JUMP JUMPDEST PUSH1 0x0 PUSH2 0x14CB DUP3 PUSH2 0x149E JUMP JUMPDEST SWAP1 POP SWAP2 SWAP1 POP JUMP JUMPDEST PUSH1 0x0 PUSH2 0x14DD DUP3 PUSH2 0x14C0 JUMP JUMPDEST SWAP1 POP SWAP2 SWAP1 POP JUMP JUMPDEST PUSH2 0x14ED DUP2 PUSH2 0x14D2 JUMP JUMPDEST DUP3 MSTORE POP POP JUMP JUMPDEST PUSH1 0x0 PUSH1 0x20 DUP3 ADD SWAP1 POP PUSH2 0x1508 PUSH1 0x0 DUP4 ADD DUP5 PUSH2 0x14E4 JUMP JUMPDEST SWAP3 SWAP2 POP POP JUMP JUMPDEST PUSH1 0x0 DUP3 DUP3 MSTORE PUSH1 0x20 DUP3 ADD SWAP1 POP SWAP3 SWAP2 POP POP JUMP JUMPDEST PUSH32 0x506C6561736520636865636B2074686520646174612C20746865206E65777320 PUSH1 0x0 DUP3 ADD MSTORE PUSH32 0x494420616E6420646973747269627574696F6E207175616E7469747920617265 PUSH1 0x20 DUP3 ADD MSTORE PUSH32 0x20696E636F6E73697374656E7400000000000000000000000000000000000000 PUSH1 0x40 DUP3 ADD MSTORE POP JUMP JUMPDEST PUSH1 0x0 PUSH2 0x15A1 PUSH1 0x4D DUP4 PUSH2 0x150E JUMP JUMPDEST SWAP2 POP PUSH2 0x15AC DUP3 PUSH2 0x151F JUMP JUMPDEST PUSH1 0x60 DUP3 ADD SWAP1 POP SWAP2 SWAP1 POP JUMP JUMPDEST PUSH1 0x0 PUSH1 0x20 DUP3 ADD SWAP1 POP DUP2 DUP2 SUB PUSH1 0x0 DUP4 ADD MSTORE PUSH2 0x15D0 DUP2 PUSH2 0x1594 JUMP JUMPDEST SWAP1 POP SWAP2 SWAP1 POP JUMP JUMPDEST PUSH32 0x52656C656173653A206E6565642073657420546F6B656E204164647265737300 PUSH1 0x0 DUP3 ADD MSTORE POP JUMP JUMPDEST PUSH1 0x0 PUSH2 0x160D PUSH1 0x1F DUP4 PUSH2 0x150E JUMP JUMPDEST SWAP2 POP PUSH2 0x1618 DUP3 PUSH2 0x15D7 JUMP JUMPDEST PUSH1 0x20 DUP3 ADD SWAP1 POP SWAP2 SWAP1 POP JUMP JUMPDEST PUSH1 0x0 PUSH1 0x20 DUP3 ADD SWAP1 POP DUP2 DUP2 SUB PUSH1 0x0 DUP4 ADD MSTORE PUSH2 0x163C DUP2 PUSH2 0x1600 JUMP JUMPDEST SWAP1 POP SWAP2 SWAP1 POP JUMP JUMPDEST PUSH32 0x52656C656173653A206E65656420736574204368616C6C656E6720436F6E7472 PUSH1 0x0 DUP3 ADD MSTORE PUSH32 0x6163742041646472657373000000000000000000000000000000000000000000 PUSH1 0x20 DUP3 ADD MSTORE POP JUMP JUMPDEST PUSH1 0x0 PUSH2 0x169F PUSH1 0x2B DUP4 PUSH2 0x150E JUMP JUMPDEST SWAP2 POP PUSH2 0x16AA DUP3 PUSH2 0x1643 JUMP JUMPDEST PUSH1 0x40 DUP3 ADD SWAP1 POP SWAP2 SWAP1 POP JUMP JUMPDEST PUSH1 0x0 PUSH1 0x20 DUP3 ADD SWAP1 POP DUP2 DUP2 SUB PUSH1 0x0 DUP4 ADD MSTORE PUSH2 0x16CE DUP2 PUSH2 0x1692 JUMP JUMPDEST SWAP1 POP SWAP2 SWAP1 POP JUMP JUMPDEST PUSH32 0x4E487B7100000000000000000000000000000000000000000000000000000000 PUSH1 0x0 MSTORE PUSH1 0x32 PUSH1 0x4 MSTORE PUSH1 0x24 PUSH1 0x0 REVERT JUMPDEST PUSH32 0x4E487B7100000000000000000000000000000000000000000000000000000000 PUSH1 0x0 MSTORE PUSH1 0x11 PUSH1 0x4 MSTORE PUSH1 0x24 PUSH1 0x0 REVERT JUMPDEST PUSH1 0x0 PUSH2 0x173E DUP3 PUSH2 0x113E JUMP JUMPDEST SWAP2 POP PUSH2 0x1749 DUP4 PUSH2 0x113E JUMP JUMPDEST SWAP3 POP DUP3 DUP3 ADD SWAP1 POP DUP1 DUP3 GT ISZERO PUSH2 0x1761 JUMPI PUSH2 0x1760 PUSH2 0x1704 JUMP JUMPDEST JUMPDEST SWAP3 SWAP2 POP POP JUMP JUMPDEST PUSH1 0x0 PUSH2 0x1772 DUP3 PUSH2 0x113E JUMP JUMPDEST SWAP2 POP PUSH32 0xFFFFFFFFFFFFFFFFFFFFFFFFFFFFFFFFFFFFFFFFFFFFFFFFFFFFFFFFFFFFFFFF DUP3 SUB PUSH2 0x17A4 JUMPI PUSH2 0x17A3 PUSH2 0x1704 JUMP JUMPDEST JUMPDEST PUSH1 0x1 DUP3 ADD SWAP1 POP SWAP2 SWAP1 POP JUMP JUMPDEST PUSH32 0x52656C656173653A20496E73756666696369656E7420746F74616C20616D6F75 PUSH1 0x0 DUP3 ADD MSTORE PUSH32 0x6E7420617661696C61626C6520666F7220646973747269627574696F6E000000 PUSH1 0x20 DUP3 ADD MSTORE POP JUMP JUMPDEST PUSH1 0x0 PUSH2 0x180B PUSH1 0x3D DUP4 PUSH2 0x150E JUMP JUMPDEST SWAP2 POP PUSH2 0x1816 DUP3 PUSH2 0x17AF JUMP JUMPDEST PUSH1 0x40 DUP3 ADD SWAP1 POP SWAP2 SWAP1 POP JUMP JUMPDEST PUSH1 0x0 PUSH1 0x20 DUP3 ADD SWAP1 POP DUP2 DUP2 SUB PUSH1 0x0 DUP4 ADD MSTORE PUSH2 0x183A DUP2 PUSH2 0x17FE JUMP JUMPDEST SWAP1 POP SWAP2 SWAP1 POP JUMP JUMPDEST PUSH1 0x0 DUP2 MLOAD SWAP1 POP SWAP2 SWAP1 POP JUMP JUMPDEST PUSH1 0x0 JUMPDEST DUP4 DUP2 LT ISZERO PUSH2 0x186A JUMPI DUP1 DUP3 ADD MLOAD DUP2 DUP5 ADD MSTORE PUSH1 0x20 DUP2 ADD SWAP1 POP PUSH2 0x184F JUMP JUMPDEST PUSH1 0x0 DUP5 DUP5 ADD MSTORE POP POP POP POP JUMP JUMPDEST PUSH1 0x0 PUSH2 0x1881 DUP3 PUSH2 0x1841 JUMP JUMPDEST PUSH2 0x188B DUP2 DUP6 PUSH2 0x150E JUMP JUMPDEST SWAP4 POP PUSH2 0x189B DUP2 DUP6 PUSH1 0x20 DUP7 ADD PUSH2 0x184C JUMP JUMPDEST PUSH2 0x18A4 DUP2 PUSH2 0xEEB JUMP JUMPDEST DUP5 ADD SWAP2 POP POP SWAP3 SWAP2 POP POP JUMP JUMPDEST PUSH1 0x0 PUSH1 0x20 DUP3 ADD SWAP1 POP DUP2 DUP2 SUB PUSH1 0x0 DUP4 ADD MSTORE PUSH2 0x18C9 DUP2 DUP5 PUSH2 0x1876 JUMP JUMPDEST SWAP1 POP SWAP3 SWAP2 POP POP JUMP JUMPDEST PUSH1 0x0 DUP1 REVERT JUMPDEST PUSH1 0x0 DUP1 REVERT JUMPDEST PUSH1 0x0 PUSH2 0x18EE PUSH2 0x18E9 DUP5 PUSH2 0xFAD JUMP JUMPDEST PUSH2 0xF5C JUMP JUMPDEST SWAP1 POP DUP3 DUP2 MSTORE PUSH1 0x20 DUP2 ADD DUP5 DUP5 DUP5 ADD GT ISZERO PUSH2 0x190A JUMPI PUSH2 0x1909 PUSH2 0xFA8 JUMP JUMPDEST JUMPDEST PUSH2 0x1915 DUP5 DUP3 DUP6 PUSH2 0x184C JUMP JUMPDEST POP SWAP4 SWAP3 POP POP POP JUMP JUMPDEST PUSH1 0x0 DUP3 PUSH1 0x1F DUP4 ADD SLT PUSH2 0x1932 JUMPI PUSH2 0x1931 PUSH2 0xEE6 JUMP JUMPDEST JUMPDEST DUP2 MLOAD PUSH2 0x1942 DUP5 DUP3 PUSH1 0x20 DUP7 ADD PUSH2 0x18DB JUMP JUMPDEST SWAP2 POP POP SWAP3 SWAP2 POP POP JUMP JUMPDEST PUSH1 0x0 DUP2 MLOAD SWAP1 POP PUSH2 0x195A DUP2 PUSH2 0x12DF JUMP JUMPDEST SWAP3 SWAP2 POP POP JUMP JUMPDEST PUSH1 0x0 DUP2 MLOAD SWAP1 POP PUSH2 0x196F DUP2 PUSH2 0x1148 JUMP JUMPDEST SWAP3 SWAP2 POP POP JUMP JUMPDEST PUSH1 0x0 DUP2 ISZERO ISZERO SWAP1 POP SWAP2 SWAP1 POP JUMP JUMPDEST PUSH2 0x198A DUP2 PUSH2 0x1975 JUMP JUMPDEST DUP2 EQ PUSH2 0x1995 JUMPI PUSH1 0x0 DUP1 REVERT JUMPDEST POP JUMP JUMPDEST PUSH1 0x0 DUP2 MLOAD SWAP1 POP PUSH2 0x19A7 DUP2 PUSH2 0x1981 JUMP JUMPDEST SWAP3 SWAP2 POP POP JUMP JUMPDEST PUSH1 0x0 PUSH2 0x180 DUP3 DUP5 SUB SLT ISZERO PUSH2 0x19C4 JUMPI PUSH2 0x19C3 PUSH2 0x18D1 JUMP JUMPDEST JUMPDEST PUSH2 0x19CF PUSH2 0x180 PUSH2 0xF5C JUMP JUMPDEST SWAP1 POP PUSH1 0x0 DUP3 ADD MLOAD PUSH8 0xFFFFFFFFFFFFFFFF DUP2 GT ISZERO PUSH2 0x19EF JUMPI PUSH2 0x19EE PUSH2 0x18D6 JUMP JUMPDEST JUMPDEST PUSH2 0x19FB DUP5 DUP3 DUP6 ADD PUSH2 0x191D JUMP JUMPDEST PUSH1 0x0 DUP4 ADD MSTORE POP PUSH1 0x20 PUSH2 0x1A0F DUP5 DUP3 DUP6 ADD PUSH2 0x194B JUMP JUMPDEST PUSH1 0x20 DUP4 ADD MSTORE POP PUSH1 0x40 PUSH2 0x1A23 DUP5 DUP3 DUP6 ADD PUSH2 0x1960 JUMP JUMPDEST PUSH1 0x40 DUP4 ADD MSTORE POP PUSH1 0x60 PUSH2 0x1A37 DUP5 DUP3 DUP6 ADD PUSH2 0x1960 JUMP JUMPDEST PUSH1 0x60 DUP4 ADD MSTORE POP PUSH1 0x80 PUSH2 0x1A4B DUP5 DUP3 DUP6 ADD PUSH2 0x1998 JUMP JUMPDEST PUSH1 0x80 DUP4 ADD MSTORE POP PUSH1 0xA0 PUSH2 0x1A5F DUP5 DUP3 DUP6 ADD PUSH2 0x1998 JUMP JUMPDEST PUSH1 0xA0 DUP4 ADD MSTORE POP PUSH1 0xC0 PUSH2 0x1A73 DUP5 DUP3 DUP6 ADD PUSH2 0x1998 JUMP JUMPDEST PUSH1 0xC0 DUP4 ADD MSTORE POP PUSH1 0xE0 PUSH2 0x1A87 DUP5 DUP3 DUP6 ADD PUSH2 0x1960 JUMP JUMPDEST PUSH1 0xE0 DUP4 ADD MSTORE POP PUSH2 0x100 PUSH2 0x1A9C DUP5 DUP3 DUP6 ADD PUSH2 0x1998 JUMP JUMPDEST PUSH2 0x100 DUP4 ADD MSTORE POP PUSH2 0x120 PUSH2 0x1AB2 DUP5 DUP3 DUP6 ADD PUSH2 0x1960 JUMP JUMPDEST PUSH2 0x120 DUP4 ADD MSTORE POP PUSH2 0x140 PUSH2 0x1AC8 DUP5 DUP3 DUP6 ADD PUSH2 0x1960 JUMP JUMPDEST PUSH2 0x140 DUP4 ADD MSTORE POP PUSH2 0x160 PUSH2 0x1ADE DUP5 DUP3 DUP6 ADD PUSH2 0x1960 JUMP JUMPDEST PUSH2 0x160 DUP4 ADD MSTORE POP SWAP3 SWAP2 POP POP JUMP JUMPDEST PUSH1 0x0 PUSH1 0x20 DUP3 DUP5 SUB SLT ISZERO PUSH2 0x1B01 JUMPI PUSH2 0x1B00 PUSH2 0xEDC JUMP JUMPDEST JUMPDEST PUSH1 0x0 DUP3 ADD MLOAD PUSH8 0xFFFFFFFFFFFFFFFF DUP2 GT ISZERO PUSH2 0x1B1F JUMPI PUSH2 0x1B1E PUSH2 0xEE1 JUMP JUMPDEST JUMPDEST PUSH2 0x1B2B DUP5 DUP3 DUP6 ADD PUSH2 0x19AD JUMP JUMPDEST SWAP2 POP POP SWAP3 SWAP2 POP POP JUMP JUMPDEST PUSH32 0x546865206E756D626572206F66206169722064726F7073206578636565647320 PUSH1 0x0 DUP3 ADD MSTORE PUSH32 0x746865206461696C792072656C6561736520616D6F756E740000000000000000 PUSH1 0x20 DUP3 ADD MSTORE POP JUMP JUMPDEST PUSH1 0x0 PUSH2 0x1B90 PUSH1 0x38 DUP4 PUSH2 0x150E JUMP JUMPDEST SWAP2 POP PUSH2 0x1B9B DUP3 PUSH2 0x1B34 JUMP JUMPDEST PUSH1 0x40 DUP3 ADD SWAP1 POP SWAP2 SWAP1 POP JUMP JUMPDEST PUSH1 0x0 PUSH1 0x20 DUP3 ADD SWAP1 POP DUP2 DUP2 SUB PUSH1 0x0 DUP4 ADD MSTORE PUSH2 0x1BBF DUP2 PUSH2 0x1B83 JUMP JUMPDEST SWAP1 POP SWAP2 SWAP1 POP JUMP JUMPDEST PUSH1 0x0 PUSH1 0x20 DUP3 DUP5 SUB SLT ISZERO PUSH2 0x1BDC JUMPI PUSH2 0x1BDB PUSH2 0xEDC JUMP JUMPDEST JUMPDEST PUSH1 0x0 PUSH2 0x1BEA DUP5 DUP3 DUP6 ADD PUSH2 0x1960 JUMP JUMPDEST SWAP2 POP POP SWAP3 SWAP2 POP POP JUMP JUMPDEST PUSH1 0x0 PUSH1 0x60 DUP3 ADD SWAP1 POP PUSH2 0x1C08 PUSH1 0x0 DUP4 ADD DUP7 PUSH2 0x1338 JUMP JUMPDEST PUSH2 0x1C15 PUSH1 0x20 DUP4 ADD DUP6 PUSH2 0x1338 JUMP JUMPDEST PUSH2 0x1C22 PUSH1 0x40 DUP4 ADD DUP5 PUSH2 0x1283 JUMP JUMPDEST SWAP5 SWAP4 POP POP POP POP JUMP JUMPDEST PUSH32 0x536166654D6174683A206164646974696F6E206F766572666C6F770000000000 PUSH1 0x0 DUP3 ADD MSTORE POP JUMP JUMPDEST PUSH1 0x0 PUSH2 0x1C60 PUSH1 0x1B DUP4 PUSH2 0x150E JUMP JUMPDEST SWAP2 POP PUSH2 0x1C6B DUP3 PUSH2 0x1C2A JUMP JUMPDEST PUSH1 0x20 DUP3 ADD SWAP1 POP SWAP2 SWAP1 POP JUMP JUMPDEST PUSH1 0x0 PUSH1 0x20 DUP3 ADD SWAP1 POP DUP2 DUP2 SUB PUSH1 0x0 DUP4 ADD MSTORE PUSH2 0x1C8F DUP2 PUSH2 0x1C53 JUMP JUMPDEST SWAP1 POP SWAP2 SWAP1 POP JUMP JUMPDEST PUSH1 0x0 PUSH1 0x20 DUP3 DUP5 SUB SLT ISZERO PUSH2 0x1CAC JUMPI PUSH2 0x1CAB PUSH2 0xEDC JUMP JUMPDEST JUMPDEST PUSH1 0x0 PUSH2 0x1CBA DUP5 DUP3 DUP6 ADD PUSH2 0x1998 JUMP JUMPDEST SWAP2 POP POP SWAP3 SWAP2 POP POP JUMP JUMPDEST PUSH32 0x5361666545524332303A204552433230206F7065726174696F6E20646964206E PUSH1 0x0 DUP3 ADD MSTORE PUSH32 0x6F74207375636365656400000000000000000000000000000000000000000000 PUSH1 0x20 DUP3 ADD MSTORE POP JUMP JUMPDEST PUSH1 0x0 PUSH2 0x1D1F PUSH1 0x2A DUP4 PUSH2 0x150E JUMP JUMPDEST SWAP2 POP PUSH2 0x1D2A DUP3 PUSH2 0x1CC3 JUMP JUMPDEST PUSH1 0x40 DUP3 ADD SWAP1 POP SWAP2 SWAP1 POP JUMP JUMPDEST PUSH1 0x0 PUSH1 0x20 DUP3 ADD SWAP1 POP DUP2 DUP2 SUB PUSH1 0x0 DUP4 ADD MSTORE PUSH2 0x1D4E DUP2 PUSH2 0x1D12 JUMP JUMPDEST SWAP1 POP SWAP2 SWAP1 POP JUMP JUMPDEST PUSH32 0x416464726573733A20696E73756666696369656E742062616C616E636520666F PUSH1 0x0 DUP3 ADD MSTORE PUSH32 0x722063616C6C0000000000000000000000000000000000000000000000000000 PUSH1 0x20 DUP3 ADD MSTORE POP JUMP JUMPDEST PUSH1 0x0 PUSH2 0x1DB1 PUSH1 0x26 DUP4 PUSH2 0x150E JUMP JUMPDEST SWAP2 POP PUSH2 0x1DBC DUP3 PUSH2 0x1D55 JUMP JUMPDEST PUSH1 0x40 DUP3 ADD SWAP1 POP SWAP2 SWAP1 POP JUMP JUMPDEST PUSH1 0x0 PUSH1 0x20 DUP3 ADD SWAP1 POP DUP2 DUP2 SUB PUSH1 0x0 DUP4 ADD MSTORE PUSH2 0x1DE0 DUP2 PUSH2 0x1DA4 JUMP JUMPDEST SWAP1 POP SWAP2 SWAP1 POP JUMP JUMPDEST PUSH32 0x416464726573733A2063616C6C20746F206E6F6E2D636F6E7472616374000000 PUSH1 0x0 DUP3 ADD MSTORE POP JUMP JUMPDEST PUSH1 0x0 PUSH2 0x1E1D PUSH1 0x1D DUP4 PUSH2 0x150E JUMP JUMPDEST SWAP2 POP PUSH2 0x1E28 DUP3 PUSH2 0x1DE7 JUMP JUMPDEST PUSH1 0x20 DUP3 ADD SWAP1 POP SWAP2 SWAP1 POP JUMP JUMPDEST PUSH1 0x0 PUSH1 0x20 DUP3 ADD SWAP1 POP DUP2 DUP2 SUB PUSH1 0x0 DUP4 ADD MSTORE PUSH2 0x1E4C DUP2 PUSH2 0x1E10 JUMP JUMPDEST SWAP1 POP SWAP2 SWAP1 POP JUMP JUMPDEST PUSH1 0x0 DUP2 MLOAD SWAP1 POP SWAP2 SWAP1 POP JUMP JUMPDEST PUSH1 0x0 DUP2 SWAP1 POP SWAP3 SWAP2 POP POP JUMP JUMPDEST PUSH1 0x0 PUSH2 0x1E74 DUP3 PUSH2 0x1E53 JUMP JUMPDEST PUSH2 0x1E7E DUP2 DUP6 PUSH2 0x1E5E JUMP JUMPDEST SWAP4 POP PUSH2 0x1E8E DUP2 DUP6 PUSH1 0x20 DUP7 ADD PUSH2 0x184C JUMP JUMPDEST DUP1 DUP5 ADD SWAP2 POP POP SWAP3 SWAP2 POP POP JUMP JUMPDEST PUSH1 0x0 PUSH2 0x1EA6 DUP3 DUP5 PUSH2 0x1E69 JUMP JUMPDEST SWAP2 POP DUP2 SWAP1 POP SWAP3 SWAP2 POP POP JUMP INVALID LOG2 PUSH5 0x6970667358 0x22 SLT KECCAK256 LOG3 0xFC LOG0 LT 0xD1 0xF9 0xF7 0xAB 0x5C PUSH30 0xFBB19192CCEE8B8B4D6D333AF71CF12367CB280FD3EB64736F6C63430008 SGT STOP CALLER "
				},
				"gasEstimates": {
					"creation": {
						"codeDepositCost": "1582200",
						"executionCost": "48031",
						"totalCost": "1630231"
					},
					"external": {
						"changeOwner(address)": "26914",
						"decimals()": "2504",
						"distributionToSpecify(address[],uint256[])": "infinite",
						"getContractAddrss()": "2611",
						"getLockContractAddress()": "2589",
						"getTimestamp()": "359",
						"getTotalReleased()": "2548",
						"sendMasterTokenLock(string[],uint256[])": "infinite",
						"setChallengContract(address)": "24788",
						"setLockContractAddress(address)": "24766",
						"setTokenAddress(address)": "26937",
						"token()": "infinite",
						"tokenBalance()": "infinite"
					}
				},
				"methodIdentifiers": {
					"changeOwner(address)": "a6f9dae1",
					"decimals()": "313ce567",
					"distributionToSpecify(address[],uint256[])": "5459b8a3",
					"getContractAddrss()": "47a58626",
					"getLockContractAddress()": "a39865e7",
					"getTimestamp()": "188ec356",
					"getTotalReleased()": "4b14c0ef",
					"sendMasterTokenLock(string[],uint256[])": "0af8668f",
					"setChallengContract(address)": "c52c31fa",
					"setLockContractAddress(address)": "c4529e37",
					"setTokenAddress(address)": "26a4e8d2",
					"token()": "fc0c546a",
					"tokenBalance()": "9e1a4d19"
				}
			},
			"storageLayout": {
				"storage": [
					{
						"astId": 785,
						"contract": "challeng/my_contract/masterPool.sol:MasterPool",
						"label": "_token",
						"offset": 0,
						"slot": "0",
						"type": "t_contract(IERC20)109"
					},
					{
						"astId": 787,
						"contract": "challeng/my_contract/masterPool.sol:MasterPool",
						"label": "_contractAddrss",
						"offset": 0,
						"slot": "1",
						"type": "t_address"
					},
					{
						"astId": 789,
						"contract": "challeng/my_contract/masterPool.sol:MasterPool",
						"label": "_lockContractAddress",
						"offset": 0,
						"slot": "2",
						"type": "t_address"
					},
					{
						"astId": 792,
						"contract": "challeng/my_contract/masterPool.sol:MasterPool",
						"label": "_decimals",
						"offset": 0,
						"slot": "3",
						"type": "t_uint256"
					},
					{
						"astId": 794,
						"contract": "challeng/my_contract/masterPool.sol:MasterPool",
						"label": "_totalReleased",
						"offset": 0,
						"slot": "4",
						"type": "t_uint256"
					},
					{
						"astId": 796,
						"contract": "challeng/my_contract/masterPool.sol:MasterPool",
						"label": "_owner",
						"offset": 0,
						"slot": "5",
						"type": "t_address"
					}
				],
				"types": {
					"t_address": {
						"encoding": "inplace",
						"label": "address",
						"numberOfBytes": "20"
					},
					"t_contract(IERC20)109": {
						"encoding": "inplace",
						"label": "contract IERC20",
						"numberOfBytes": "20"
					},
					"t_uint256": {
						"encoding": "inplace",
						"label": "uint256",
						"numberOfBytes": "32"
					}
				}
			},
			"userdoc": {
				"kind": "user",
				"methods": {},
				"version": 1
			}
		}
	}
}