{
	"my_contract/6.funPool.sol": {
		"FunPool": {
			"abi": [
				{
					"inputs": [],
					"stateMutability": "nonpayable",
					"type": "constructor"
				},
				{
					"inputs": [
						{
							"internalType": "address",
							"name": "newOwner",
							"type": "address"
						}
					],
					"name": "changeOwner",
					"outputs": [],
					"stateMutability": "nonpayable",
					"type": "function"
				},
				{
					"inputs": [],
					"name": "decimals",
					"outputs": [
						{
							"internalType": "uint256",
							"name": "",
							"type": "uint256"
						}
					],
					"stateMutability": "view",
					"type": "function"
				},
				{
					"inputs": [
						{
							"internalType": "address[]",
							"name": "recipients",
							"type": "address[]"
						},
						{
							"internalType": "uint256[]",
							"name": "values",
							"type": "uint256[]"
						}
					],
					"name": "distributionToSpecify",
					"outputs": [],
					"stateMutability": "nonpayable",
					"type": "function"
				},
				{
					"inputs": [],
					"name": "getTotalReleased",
					"outputs": [
						{
							"internalType": "uint256",
							"name": "",
							"type": "uint256"
						}
					],
					"stateMutability": "view",
					"type": "function"
				},
				{
					"inputs": [
						{
							"internalType": "address",
							"name": "tokenAddress",
							"type": "address"
						}
					],
					"name": "setTokenAddress",
					"outputs": [],
					"stateMutability": "nonpayable",
					"type": "function"
				},
				{
					"inputs": [],
					"name": "token",
					"outputs": [
						{
							"internalType": "contract IERC20",
							"name": "",
							"type": "address"
						}
					],
					"stateMutability": "view",
					"type": "function"
				},
				{
					"inputs": [],
					"name": "tokenBalance",
					"outputs": [
						{
							"internalType": "uint256",
							"name": "",
							"type": "uint256"
						}
					],
					"stateMutability": "view",
					"type": "function"
				}
			],
			"devdoc": {
				"details": "The Ownable contract has an owner address, and provides basic authorization control functions, this simplifies the implementation of \"user permissions\".",
				"kind": "dev",
				"methods": {
					"token()": {
						"details": "Returns the token being held."
					}
				},
				"title": "Ownable",
				"version": 1
			},
			"evm": {
				"assembly": "    /* \"my_contract/6.funPool.sol\":18814:21394  contract FunPool   {... */\n  mstore(0x40, 0x80)\n    /* \"my_contract/6.funPool.sol\":19023:19025  18 */\n  0x12\n    /* \"my_contract/6.funPool.sol\":18995:19025  uint256 private _decimals = 18 */\n  0x01\n  sstore\n    /* \"my_contract/6.funPool.sol\":19153:19205  constructor() {... */\n  callvalue\n  dup1\n  iszero\n  tag_1\n  jumpi\n  0x00\n  dup1\n  revert\ntag_1:\n  pop\n    /* \"my_contract/6.funPool.sol\":19187:19197  msg.sender */\n  caller\n    /* \"my_contract/6.funPool.sol\":19178:19184  _owner */\n  0x03\n  0x00\n    /* \"my_contract/6.funPool.sol\":19178:19197  _owner = msg.sender */\n  0x0100\n  exp\n  dup2\n  sload\n  dup2\n  0xffffffffffffffffffffffffffffffffffffffff\n  mul\n  not\n  and\n  swap1\n  dup4\n  0xffffffffffffffffffffffffffffffffffffffff\n  and\n  mul\n  or\n  swap1\n  sstore\n  pop\n    /* \"my_contract/6.funPool.sol\":18814:21394  contract FunPool   {... */\n  dataSize(sub_0)\n  dup1\n  dataOffset(sub_0)\n  0x00\n  codecopy\n  0x00\n  return\nstop\n\nsub_0: assembly {\n        /* \"my_contract/6.funPool.sol\":18814:21394  contract FunPool   {... */\n      mstore(0x40, 0x80)\n      callvalue\n      dup1\n      iszero\n      tag_1\n      jumpi\n      0x00\n      dup1\n      revert\n    tag_1:\n      pop\n      jumpi(tag_2, lt(calldatasize, 0x04))\n      shr(0xe0, calldataload(0x00))\n      dup1\n      0x5459b8a3\n      gt\n      tag_10\n      jumpi\n      dup1\n      0x5459b8a3\n      eq\n      tag_6\n      jumpi\n      dup1\n      0x9e1a4d19\n      eq\n      tag_7\n      jumpi\n      dup1\n      0xa6f9dae1\n      eq\n      tag_8\n      jumpi\n      dup1\n      0xfc0c546a\n      eq\n      tag_9\n      jumpi\n      jump(tag_2)\n    tag_10:\n      dup1\n      0x26a4e8d2\n      eq\n      tag_3\n      jumpi\n      dup1\n      0x313ce567\n      eq\n      tag_4\n      jumpi\n      dup1\n      0x4b14c0ef\n      eq\n      tag_5\n      jumpi\n    tag_2:\n      0x00\n      dup1\n      revert\n        /* \"my_contract/6.funPool.sol\":19475:19598  function setTokenAddress(address tokenAddress ) public virtual   onlyOwner {... */\n    tag_3:\n      tag_11\n      0x04\n      dup1\n      calldatasize\n      sub\n      dup2\n      add\n      swap1\n      tag_12\n      swap2\n      swap1\n      tag_13\n      jump\t// in\n    tag_12:\n      tag_14\n      jump\t// in\n    tag_11:\n      stop\n        /* \"my_contract/6.funPool.sol\":19872:19965  function decimals() public view virtual returns (uint256) {... */\n    tag_4:\n      tag_15\n      tag_16\n      jump\t// in\n    tag_15:\n      mload(0x40)\n      tag_17\n      swap2\n      swap1\n      tag_18\n      jump\t// in\n    tag_17:\n      mload(0x40)\n      dup1\n      swap2\n      sub\n      swap1\n      return\n        /* \"my_contract/6.funPool.sol\":19976:20082  function getTotalReleased() public view virtual returns (uint256) {... */\n    tag_5:\n      tag_19\n      tag_20\n      jump\t// in\n    tag_19:\n      mload(0x40)\n      tag_21\n      swap2\n      swap1\n      tag_18\n      jump\t// in\n    tag_21:\n      mload(0x40)\n      dup1\n      swap2\n      sub\n      swap1\n      return\n        /* \"my_contract/6.funPool.sol\":20368:21391  function  distributionToSpecify(address[] calldata recipients, uint256[] calldata values) public virtual onlyOwner {... */\n    tag_6:\n      tag_22\n      0x04\n      dup1\n      calldatasize\n      sub\n      dup2\n      add\n      swap1\n      tag_23\n      swap2\n      swap1\n      tag_24\n      jump\t// in\n    tag_23:\n      tag_25\n      jump\t// in\n    tag_22:\n      stop\n        /* \"my_contract/6.funPool.sol\":20094:20327  function tokenBalance() public view virtual returns (uint256) {... */\n    tag_7:\n      tag_26\n      tag_27\n      jump\t// in\n    tag_26:\n      mload(0x40)\n      tag_28\n      swap2\n      swap1\n      tag_18\n      jump\t// in\n    tag_28:\n      mload(0x40)\n      dup1\n      swap2\n      sub\n      swap1\n      return\n        /* \"my_contract/6.funPool.sol\":19612:19704  function changeOwner(address newOwner) public onlyOwner {... */\n    tag_8:\n      tag_29\n      0x04\n      dup1\n      calldatasize\n      sub\n      dup2\n      add\n      swap1\n      tag_30\n      swap2\n      swap1\n      tag_13\n      jump\t// in\n    tag_30:\n      tag_31\n      jump\t// in\n    tag_29:\n      stop\n        /* \"my_contract/6.funPool.sol\":19775:19861  function token() public view virtual returns (IERC20) {... */\n    tag_9:\n      tag_32\n      tag_33\n      jump\t// in\n    tag_32:\n      mload(0x40)\n      tag_34\n      swap2\n      swap1\n      tag_35\n      jump\t// in\n    tag_34:\n      mload(0x40)\n      dup1\n      swap2\n      sub\n      swap1\n      return\n        /* \"my_contract/6.funPool.sol\":19475:19598  function setTokenAddress(address tokenAddress ) public virtual   onlyOwner {... */\n    tag_14:\n        /* \"my_contract/6.funPool.sol\":19354:19360  _owner */\n      0x03\n      0x00\n      swap1\n      sload\n      swap1\n      0x0100\n      exp\n      swap1\n      div\n      0xffffffffffffffffffffffffffffffffffffffff\n      and\n        /* \"my_contract/6.funPool.sol\":19340:19360  msg.sender == _owner */\n      0xffffffffffffffffffffffffffffffffffffffff\n      and\n        /* \"my_contract/6.funPool.sol\":19340:19350  msg.sender */\n      caller\n        /* \"my_contract/6.funPool.sol\":19340:19360  msg.sender == _owner */\n      0xffffffffffffffffffffffffffffffffffffffff\n      and\n      eq\n        /* \"my_contract/6.funPool.sol\":19332:19361  require(msg.sender == _owner) */\n      tag_37\n      jumpi\n      0x00\n      dup1\n      revert\n    tag_37:\n        /* \"my_contract/6.funPool.sol\":19577:19589  tokenAddress */\n      dup1\n        /* \"my_contract/6.funPool.sol\":19561:19567  _token */\n      0x00\n      dup1\n        /* \"my_contract/6.funPool.sol\":19561:19590  _token = IERC20(tokenAddress) */\n      0x0100\n      exp\n      dup2\n      sload\n      dup2\n      0xffffffffffffffffffffffffffffffffffffffff\n      mul\n      not\n      and\n      swap1\n      dup4\n      0xffffffffffffffffffffffffffffffffffffffff\n      and\n      mul\n      or\n      swap1\n      sstore\n      pop\n        /* \"my_contract/6.funPool.sol\":19475:19598  function setTokenAddress(address tokenAddress ) public virtual   onlyOwner {... */\n      pop\n      jump\t// out\n        /* \"my_contract/6.funPool.sol\":19872:19965  function decimals() public view virtual returns (uint256) {... */\n    tag_16:\n        /* \"my_contract/6.funPool.sol\":19921:19928  uint256 */\n      0x00\n        /* \"my_contract/6.funPool.sol\":19948:19957  _decimals */\n      sload(0x01)\n        /* \"my_contract/6.funPool.sol\":19941:19957  return _decimals */\n      swap1\n      pop\n        /* \"my_contract/6.funPool.sol\":19872:19965  function decimals() public view virtual returns (uint256) {... */\n      swap1\n      jump\t// out\n        /* \"my_contract/6.funPool.sol\":19976:20082  function getTotalReleased() public view virtual returns (uint256) {... */\n    tag_20:\n        /* \"my_contract/6.funPool.sol\":20033:20040  uint256 */\n      0x00\n        /* \"my_contract/6.funPool.sol\":20060:20074  _totalReleased */\n      sload(0x02)\n        /* \"my_contract/6.funPool.sol\":20053:20074  return _totalReleased */\n      swap1\n      pop\n        /* \"my_contract/6.funPool.sol\":19976:20082  function getTotalReleased() public view virtual returns (uint256) {... */\n      swap1\n      jump\t// out\n        /* \"my_contract/6.funPool.sol\":20368:21391  function  distributionToSpecify(address[] calldata recipients, uint256[] calldata values) public virtual onlyOwner {... */\n    tag_25:\n        /* \"my_contract/6.funPool.sol\":19354:19360  _owner */\n      0x03\n      0x00\n      swap1\n      sload\n      swap1\n      0x0100\n      exp\n      swap1\n      div\n      0xffffffffffffffffffffffffffffffffffffffff\n      and\n        /* \"my_contract/6.funPool.sol\":19340:19360  msg.sender == _owner */\n      0xffffffffffffffffffffffffffffffffffffffff\n      and\n        /* \"my_contract/6.funPool.sol\":19340:19350  msg.sender */\n      caller\n        /* \"my_contract/6.funPool.sol\":19340:19360  msg.sender == _owner */\n      0xffffffffffffffffffffffffffffffffffffffff\n      and\n      eq\n        /* \"my_contract/6.funPool.sol\":19332:19361  require(msg.sender == _owner) */\n      tag_42\n      jumpi\n      0x00\n      dup1\n      revert\n    tag_42:\n        /* \"my_contract/6.funPool.sol\":20537:20538  0 */\n      0x00\n        /* \"my_contract/6.funPool.sol\":20510:20539  address(_token) != address(0) */\n      0xffffffffffffffffffffffffffffffffffffffff\n      and\n        /* \"my_contract/6.funPool.sol\":20518:20524  _token */\n      0x00\n      dup1\n      sload\n      swap1\n      0x0100\n      exp\n      swap1\n      div\n      0xffffffffffffffffffffffffffffffffffffffff\n      and\n        /* \"my_contract/6.funPool.sol\":20510:20539  address(_token) != address(0) */\n      0xffffffffffffffffffffffffffffffffffffffff\n      and\n      sub\n        /* \"my_contract/6.funPool.sol\":20502:20576  require(address(_token) != address(0) , \"Release: need set Token Address\") */\n      tag_44\n      jumpi\n      mload(0x40)\n      0x08c379a000000000000000000000000000000000000000000000000000000000\n      dup2\n      mstore\n      0x04\n      add\n      tag_45\n      swap1\n      tag_46\n      jump\t// in\n    tag_45:\n      mload(0x40)\n      dup1\n      swap2\n      sub\n      swap1\n      revert\n    tag_44:\n        /* \"my_contract/6.funPool.sol\":20616:20622  values */\n      dup2\n      dup2\n        /* \"my_contract/6.funPool.sol\":20616:20629  values.length */\n      swap1\n      pop\n        /* \"my_contract/6.funPool.sol\":20595:20605  recipients */\n      dup5\n      dup5\n        /* \"my_contract/6.funPool.sol\":20595:20612  recipients.length */\n      swap1\n      pop\n        /* \"my_contract/6.funPool.sol\":20595:20629  recipients.length == values.length */\n      eq\n        /* \"my_contract/6.funPool.sol\":20587:20710  require(recipients.length == values.length,\"Please check the data, the news ID and distribution quantity are inconsistent\") */\n      tag_47\n      jumpi\n      mload(0x40)\n      0x08c379a000000000000000000000000000000000000000000000000000000000\n      dup2\n      mstore\n      0x04\n      add\n      tag_48\n      swap1\n      tag_49\n      jump\t// in\n    tag_48:\n      mload(0x40)\n      dup1\n      swap2\n      sub\n      swap1\n      revert\n    tag_47:\n        /* \"my_contract/6.funPool.sol\":20721:20740  uint256 totalAmount */\n      0x00\n        /* \"my_contract/6.funPool.sol\":20760:20769  uint256 i */\n      dup1\n        /* \"my_contract/6.funPool.sol\":20755:20869  for (uint256 i = 0; i < recipients.length; i++){... */\n    tag_50:\n        /* \"my_contract/6.funPool.sol\":20779:20789  recipients */\n      dup6\n      dup6\n        /* \"my_contract/6.funPool.sol\":20779:20796  recipients.length */\n      swap1\n      pop\n        /* \"my_contract/6.funPool.sol\":20775:20776  i */\n      dup2\n        /* \"my_contract/6.funPool.sol\":20775:20796  i < recipients.length */\n      lt\n        /* \"my_contract/6.funPool.sol\":20755:20869  for (uint256 i = 0; i < recipients.length; i++){... */\n      iszero\n      tag_51\n      jumpi\n        /* \"my_contract/6.funPool.sol\":20831:20857  totalAmount.add(values[i]) */\n      tag_53\n        /* \"my_contract/6.funPool.sol\":20847:20853  values */\n      dup5\n      dup5\n        /* \"my_contract/6.funPool.sol\":20854:20855  i */\n      dup4\n        /* \"my_contract/6.funPool.sol\":20847:20856  values[i] */\n      dup2\n      dup2\n      lt\n      tag_54\n      jumpi\n      tag_55\n      tag_56\n      jump\t// in\n    tag_55:\n    tag_54:\n      swap1\n      pop\n      0x20\n      mul\n      add\n      calldataload\n        /* \"my_contract/6.funPool.sol\":20831:20842  totalAmount */\n      dup4\n        /* \"my_contract/6.funPool.sol\":20831:20846  totalAmount.add */\n      tag_57\n      swap1\n        /* \"my_contract/6.funPool.sol\":20831:20857  totalAmount.add(values[i]) */\n      swap2\n      swap1\n      0xffffffff\n      and\n      jump\t// in\n    tag_53:\n        /* \"my_contract/6.funPool.sol\":20817:20857  totalAmount = totalAmount.add(values[i]) */\n      swap2\n      pop\n        /* \"my_contract/6.funPool.sol\":20798:20801  i++ */\n      dup1\n      dup1\n      tag_58\n      swap1\n      tag_59\n      jump\t// in\n    tag_58:\n      swap2\n      pop\n      pop\n        /* \"my_contract/6.funPool.sol\":20755:20869  for (uint256 i = 0; i < recipients.length; i++){... */\n      jump(tag_50)\n    tag_51:\n      pop\n        /* \"my_contract/6.funPool.sol\":20905:20916  totalAmount */\n      dup1\n        /* \"my_contract/6.funPool.sol\":20887:20901  tokenBalance() */\n      tag_60\n        /* \"my_contract/6.funPool.sol\":20887:20899  tokenBalance */\n      tag_27\n        /* \"my_contract/6.funPool.sol\":20887:20901  tokenBalance() */\n      jump\t// in\n    tag_60:\n        /* \"my_contract/6.funPool.sol\":20887:20916  tokenBalance() >= totalAmount */\n      lt\n      iszero\n        /* \"my_contract/6.funPool.sol\":20879:20978  require(tokenBalance() >= totalAmount , \"The number of air drops exceeds the daily release amount\") */\n      tag_61\n      jumpi\n      mload(0x40)\n      0x08c379a000000000000000000000000000000000000000000000000000000000\n      dup2\n      mstore\n      0x04\n      add\n      tag_62\n      swap1\n      tag_63\n      jump\t// in\n    tag_62:\n      mload(0x40)\n      dup1\n      swap2\n      sub\n      swap1\n      revert\n    tag_61:\n        /* \"my_contract/6.funPool.sol\":21002:21011  uint256 i */\n      0x00\n        /* \"my_contract/6.funPool.sol\":20997:21384  for (uint256 i = 0; i < recipients.length; i++){... */\n    tag_64:\n        /* \"my_contract/6.funPool.sol\":21021:21031  recipients */\n      dup6\n      dup6\n        /* \"my_contract/6.funPool.sol\":21021:21038  recipients.length */\n      swap1\n      pop\n        /* \"my_contract/6.funPool.sol\":21017:21018  i */\n      dup2\n        /* \"my_contract/6.funPool.sol\":21017:21038  i < recipients.length */\n      lt\n        /* \"my_contract/6.funPool.sol\":20997:21384  for (uint256 i = 0; i < recipients.length; i++){... */\n      iszero\n      tag_65\n      jumpi\n        /* \"my_contract/6.funPool.sol\":21269:21314  token().safeTransfer(recipients[i],values[i]) */\n      tag_67\n        /* \"my_contract/6.funPool.sol\":21290:21300  recipients */\n      dup7\n      dup7\n        /* \"my_contract/6.funPool.sol\":21301:21302  i */\n      dup4\n        /* \"my_contract/6.funPool.sol\":21290:21303  recipients[i] */\n      dup2\n      dup2\n      lt\n      tag_68\n      jumpi\n      tag_69\n      tag_56\n      jump\t// in\n    tag_69:\n    tag_68:\n      swap1\n      pop\n      0x20\n      mul\n      add\n      0x20\n      dup2\n      add\n      swap1\n      tag_70\n      swap2\n      swap1\n      tag_13\n      jump\t// in\n    tag_70:\n        /* \"my_contract/6.funPool.sol\":21304:21310  values */\n      dup6\n      dup6\n        /* \"my_contract/6.funPool.sol\":21311:21312  i */\n      dup5\n        /* \"my_contract/6.funPool.sol\":21304:21313  values[i] */\n      dup2\n      dup2\n      lt\n      tag_71\n      jumpi\n      tag_72\n      tag_56\n      jump\t// in\n    tag_72:\n    tag_71:\n      swap1\n      pop\n      0x20\n      mul\n      add\n      calldataload\n        /* \"my_contract/6.funPool.sol\":21269:21276  token() */\n      tag_73\n        /* \"my_contract/6.funPool.sol\":21269:21274  token */\n      tag_33\n        /* \"my_contract/6.funPool.sol\":21269:21276  token() */\n      jump\t// in\n    tag_73:\n        /* \"my_contract/6.funPool.sol\":21269:21289  token().safeTransfer */\n      0xffffffffffffffffffffffffffffffffffffffff\n      and\n      tag_74\n      swap1\n        /* \"my_contract/6.funPool.sol\":21269:21314  token().safeTransfer(recipients[i],values[i]) */\n      swap3\n      swap2\n      swap1\n      0xffffffff\n      and\n      jump\t// in\n    tag_67:\n        /* \"my_contract/6.funPool.sol\":21363:21369  values */\n      dup4\n      dup4\n        /* \"my_contract/6.funPool.sol\":21370:21371  i */\n      dup3\n        /* \"my_contract/6.funPool.sol\":21363:21372  values[i] */\n      dup2\n      dup2\n      lt\n      tag_75\n      jumpi\n      tag_76\n      tag_56\n      jump\t// in\n    tag_76:\n    tag_75:\n      swap1\n      pop\n      0x20\n      mul\n      add\n      calldataload\n        /* \"my_contract/6.funPool.sol\":21346:21360  _totalReleased */\n      sload(0x02)\n        /* \"my_contract/6.funPool.sol\":21346:21372  _totalReleased + values[i] */\n      tag_77\n      swap2\n      swap1\n      tag_78\n      jump\t// in\n    tag_77:\n        /* \"my_contract/6.funPool.sol\":21329:21343  _totalReleased */\n      0x02\n        /* \"my_contract/6.funPool.sol\":21329:21372  _totalReleased = _totalReleased + values[i] */\n      dup2\n      swap1\n      sstore\n      pop\n        /* \"my_contract/6.funPool.sol\":21040:21043  i++ */\n      dup1\n      dup1\n      tag_79\n      swap1\n      tag_59\n      jump\t// in\n    tag_79:\n      swap2\n      pop\n      pop\n        /* \"my_contract/6.funPool.sol\":20997:21384  for (uint256 i = 0; i < recipients.length; i++){... */\n      jump(tag_64)\n    tag_65:\n      pop\n        /* \"my_contract/6.funPool.sol\":20483:21391  {... */\n      pop\n        /* \"my_contract/6.funPool.sol\":20368:21391  function  distributionToSpecify(address[] calldata recipients, uint256[] calldata values) public virtual onlyOwner {... */\n      pop\n      pop\n      pop\n      pop\n      jump\t// out\n        /* \"my_contract/6.funPool.sol\":20094:20327  function tokenBalance() public view virtual returns (uint256) {... */\n    tag_27:\n        /* \"my_contract/6.funPool.sol\":20147:20154  uint256 */\n      0x00\n        /* \"my_contract/6.funPool.sol\":20198:20199  0 */\n      dup1\n        /* \"my_contract/6.funPool.sol\":20170:20200  address(token()) == address(0) */\n      0xffffffffffffffffffffffffffffffffffffffff\n      and\n        /* \"my_contract/6.funPool.sol\":20178:20185  token() */\n      tag_81\n        /* \"my_contract/6.funPool.sol\":20178:20183  token */\n      tag_33\n        /* \"my_contract/6.funPool.sol\":20178:20185  token() */\n      jump\t// in\n    tag_81:\n        /* \"my_contract/6.funPool.sol\":20170:20200  address(token()) == address(0) */\n      0xffffffffffffffffffffffffffffffffffffffff\n      and\n      sub\n        /* \"my_contract/6.funPool.sol\":20167:20236  if(address(token()) == address(0)){... */\n      tag_82\n      jumpi\n        /* \"my_contract/6.funPool.sol\":20223:20224  0 */\n      0x00\n        /* \"my_contract/6.funPool.sol\":20216:20224  return 0 */\n      swap1\n      pop\n      jump(tag_80)\n        /* \"my_contract/6.funPool.sol\":20167:20236  if(address(token()) == address(0)){... */\n    tag_82:\n        /* \"my_contract/6.funPool.sol\":20246:20260  uint256 amount */\n      0x00\n        /* \"my_contract/6.funPool.sol\":20263:20270  token() */\n      tag_83\n        /* \"my_contract/6.funPool.sol\":20263:20268  token */\n      tag_33\n        /* \"my_contract/6.funPool.sol\":20263:20270  token() */\n      jump\t// in\n    tag_83:\n        /* \"my_contract/6.funPool.sol\":20263:20280  token().balanceOf */\n      0xffffffffffffffffffffffffffffffffffffffff\n      and\n      0x70a08231\n        /* \"my_contract/6.funPool.sol\":20289:20293  this */\n      address\n        /* \"my_contract/6.funPool.sol\":20263:20295  token().balanceOf(address(this)) */\n      mload(0x40)\n      dup3\n      0xffffffff\n      and\n      0xe0\n      shl\n      dup2\n      mstore\n      0x04\n      add\n      tag_84\n      swap2\n      swap1\n      tag_85\n      jump\t// in\n    tag_84:\n      0x20\n      mload(0x40)\n      dup1\n      dup4\n      sub\n      dup2\n      dup7\n      gas\n      staticcall\n      iszero\n      dup1\n      iszero\n      tag_87\n      jumpi\n      returndatasize\n      0x00\n      dup1\n      returndatacopy\n      revert(0x00, returndatasize)\n    tag_87:\n      pop\n      pop\n      pop\n      pop\n      mload(0x40)\n      returndatasize\n      not(0x1f)\n      0x1f\n      dup3\n      add\n      and\n      dup3\n      add\n      dup1\n      0x40\n      mstore\n      pop\n      dup2\n      add\n      swap1\n      tag_88\n      swap2\n      swap1\n      tag_89\n      jump\t// in\n    tag_88:\n        /* \"my_contract/6.funPool.sol\":20246:20295  uint256 amount = token().balanceOf(address(this)) */\n      swap1\n      pop\n        /* \"my_contract/6.funPool.sol\":20313:20319  amount */\n      dup1\n        /* \"my_contract/6.funPool.sol\":20306:20319  return amount */\n      swap2\n      pop\n      pop\n        /* \"my_contract/6.funPool.sol\":20094:20327  function tokenBalance() public view virtual returns (uint256) {... */\n    tag_80:\n      swap1\n      jump\t// out\n        /* \"my_contract/6.funPool.sol\":19612:19704  function changeOwner(address newOwner) public onlyOwner {... */\n    tag_31:\n        /* \"my_contract/6.funPool.sol\":19354:19360  _owner */\n      0x03\n      0x00\n      swap1\n      sload\n      swap1\n      0x0100\n      exp\n      swap1\n      div\n      0xffffffffffffffffffffffffffffffffffffffff\n      and\n        /* \"my_contract/6.funPool.sol\":19340:19360  msg.sender == _owner */\n      0xffffffffffffffffffffffffffffffffffffffff\n      and\n        /* \"my_contract/6.funPool.sol\":19340:19350  msg.sender */\n      caller\n        /* \"my_contract/6.funPool.sol\":19340:19360  msg.sender == _owner */\n      0xffffffffffffffffffffffffffffffffffffffff\n      and\n      eq\n        /* \"my_contract/6.funPool.sol\":19332:19361  require(msg.sender == _owner) */\n      tag_91\n      jumpi\n      0x00\n      dup1\n      revert\n    tag_91:\n        /* \"my_contract/6.funPool.sol\":19688:19696  newOwner */\n      dup1\n        /* \"my_contract/6.funPool.sol\":19679:19685  _owner */\n      0x03\n      0x00\n        /* \"my_contract/6.funPool.sol\":19679:19696  _owner = newOwner */\n      0x0100\n      exp\n      dup2\n      sload\n      dup2\n      0xffffffffffffffffffffffffffffffffffffffff\n      mul\n      not\n      and\n      swap1\n      dup4\n      0xffffffffffffffffffffffffffffffffffffffff\n      and\n      mul\n      or\n      swap1\n      sstore\n      pop\n        /* \"my_contract/6.funPool.sol\":19612:19704  function changeOwner(address newOwner) public onlyOwner {... */\n      pop\n      jump\t// out\n        /* \"my_contract/6.funPool.sol\":19775:19861  function token() public view virtual returns (IERC20) {... */\n    tag_33:\n        /* \"my_contract/6.funPool.sol\":19821:19827  IERC20 */\n      0x00\n        /* \"my_contract/6.funPool.sol\":19847:19853  _token */\n      dup1\n      0x00\n      swap1\n      sload\n      swap1\n      0x0100\n      exp\n      swap1\n      div\n      0xffffffffffffffffffffffffffffffffffffffff\n      and\n        /* \"my_contract/6.funPool.sol\":19840:19853  return _token */\n      swap1\n      pop\n        /* \"my_contract/6.funPool.sol\":19775:19861  function token() public view virtual returns (IERC20) {... */\n      swap1\n      jump\t// out\n        /* \"my_contract/6.funPool.sol\":3156:3337  function add(uint256 a, uint256 b) internal pure returns (uint256) {... */\n    tag_57:\n        /* \"my_contract/6.funPool.sol\":3214:3221  uint256 */\n      0x00\n        /* \"my_contract/6.funPool.sol\":3234:3243  uint256 c */\n      dup1\n        /* \"my_contract/6.funPool.sol\":3250:3251  b */\n      dup3\n        /* \"my_contract/6.funPool.sol\":3246:3247  a */\n      dup5\n        /* \"my_contract/6.funPool.sol\":3246:3251  a + b */\n      tag_95\n      swap2\n      swap1\n      tag_78\n      jump\t// in\n    tag_95:\n        /* \"my_contract/6.funPool.sol\":3234:3251  uint256 c = a + b */\n      swap1\n      pop\n        /* \"my_contract/6.funPool.sol\":3275:3276  a */\n      dup4\n        /* \"my_contract/6.funPool.sol\":3270:3271  c */\n      dup2\n        /* \"my_contract/6.funPool.sol\":3270:3276  c >= a */\n      lt\n      iszero\n        /* \"my_contract/6.funPool.sol\":3262:3308  require(c >= a, \"SafeMath: addition overflow\") */\n      tag_96\n      jumpi\n      mload(0x40)\n      0x08c379a000000000000000000000000000000000000000000000000000000000\n      dup2\n      mstore\n      0x04\n      add\n      tag_97\n      swap1\n      tag_98\n      jump\t// in\n    tag_97:\n      mload(0x40)\n      dup1\n      swap2\n      sub\n      swap1\n      revert\n    tag_96:\n        /* \"my_contract/6.funPool.sol\":3328:3329  c */\n      dup1\n        /* \"my_contract/6.funPool.sol\":3321:3329  return c */\n      swap2\n      pop\n      pop\n        /* \"my_contract/6.funPool.sol\":3156:3337  function add(uint256 a, uint256 b) internal pure returns (uint256) {... */\n      swap3\n      swap2\n      pop\n      pop\n      jump\t// out\n        /* \"my_contract/6.funPool.sol\":15315:15526  function safeTransfer(... */\n    tag_74:\n        /* \"my_contract/6.funPool.sol\":15432:15518  _callOptionalReturn(token, abi.encodeWithSelector(token.transfer.selector, to, value)) */\n      tag_100\n        /* \"my_contract/6.funPool.sol\":15452:15457  token */\n      dup4\n        /* \"my_contract/6.funPool.sol\":15482:15505  token.transfer.selector */\n      shl(0xe0, 0xa9059cbb)\n        /* \"my_contract/6.funPool.sol\":15507:15509  to */\n      dup5\n        /* \"my_contract/6.funPool.sol\":15511:15516  value */\n      dup5\n        /* \"my_contract/6.funPool.sol\":15459:15517  abi.encodeWithSelector(token.transfer.selector, to, value) */\n      add(0x24, mload(0x40))\n      tag_101\n      swap3\n      swap2\n      swap1\n      tag_102\n      jump\t// in\n    tag_101:\n      mload(0x40)\n      0x20\n      dup2\n      dup4\n      sub\n      sub\n      dup2\n      mstore\n      swap1\n      0x40\n      mstore\n      swap1\n      not(0xffffffffffffffffffffffffffffffffffffffffffffffffffffffff)\n      and\n      0x20\n      dup3\n      add\n      dup1\n      mload\n      0xffffffffffffffffffffffffffffffffffffffffffffffffffffffff\n      dup4\n      dup2\n      dup4\n      and\n      or\n      dup4\n      mstore\n      pop\n      pop\n      pop\n      pop\n        /* \"my_contract/6.funPool.sol\":15432:15451  _callOptionalReturn */\n      tag_103\n        /* \"my_contract/6.funPool.sol\":15432:15518  _callOptionalReturn(token, abi.encodeWithSelector(token.transfer.selector, to, value)) */\n      jump\t// in\n    tag_100:\n        /* \"my_contract/6.funPool.sol\":15315:15526  function safeTransfer(... */\n      pop\n      pop\n      pop\n      jump\t// out\n        /* \"my_contract/6.funPool.sol\":17888:18604  function _callOptionalReturn(IERC20 token, bytes memory data) private {... */\n    tag_103:\n        /* \"my_contract/6.funPool.sol\":18312:18335  bytes memory returndata */\n      0x00\n        /* \"my_contract/6.funPool.sol\":18338:18407  address(token).functionCall(data, \"SafeERC20: low-level call failed\") */\n      tag_105\n        /* \"my_contract/6.funPool.sol\":18366:18370  data */\n      dup3\n        /* \"my_contract/6.funPool.sol\":18338:18407  address(token).functionCall(data, \"SafeERC20: low-level call failed\") */\n      mload(0x40)\n      dup1\n      0x40\n      add\n      0x40\n      mstore\n      dup1\n      0x20\n      dup2\n      mstore\n      0x20\n      add\n      0x5361666545524332303a206c6f772d6c6576656c2063616c6c206661696c6564\n      dup2\n      mstore\n      pop\n        /* \"my_contract/6.funPool.sol\":18346:18351  token */\n      dup6\n        /* \"my_contract/6.funPool.sol\":18338:18365  address(token).functionCall */\n      0xffffffffffffffffffffffffffffffffffffffff\n      and\n      tag_106\n      swap1\n        /* \"my_contract/6.funPool.sol\":18338:18407  address(token).functionCall(data, \"SafeERC20: low-level call failed\") */\n      swap3\n      swap2\n      swap1\n      0xffffffff\n      and\n      jump\t// in\n    tag_105:\n        /* \"my_contract/6.funPool.sol\":18312:18407  bytes memory returndata = address(token).functionCall(data, \"SafeERC20: low-level call failed\") */\n      swap1\n      pop\n        /* \"my_contract/6.funPool.sol\":18442:18443  0 */\n      0x00\n        /* \"my_contract/6.funPool.sol\":18422:18432  returndata */\n      dup2\n        /* \"my_contract/6.funPool.sol\":18422:18439  returndata.length */\n      mload\n        /* \"my_contract/6.funPool.sol\":18422:18443  returndata.length > 0 */\n      gt\n        /* \"my_contract/6.funPool.sol\":18418:18597  if (returndata.length > 0) {... */\n      iszero\n      tag_107\n      jumpi\n        /* \"my_contract/6.funPool.sol\":18519:18529  returndata */\n      dup1\n        /* \"my_contract/6.funPool.sol\":18508:18538  abi.decode(returndata, (bool)) */\n      dup1\n      0x20\n      add\n      swap1\n      mload\n      dup2\n      add\n      swap1\n      tag_108\n      swap2\n      swap1\n      tag_109\n      jump\t// in\n    tag_108:\n        /* \"my_contract/6.funPool.sol\":18500:18585  require(abi.decode(returndata, (bool)), \"SafeERC20: ERC20 operation did not succeed\") */\n      tag_110\n      jumpi\n      mload(0x40)\n      0x08c379a000000000000000000000000000000000000000000000000000000000\n      dup2\n      mstore\n      0x04\n      add\n      tag_111\n      swap1\n      tag_112\n      jump\t// in\n    tag_111:\n      mload(0x40)\n      dup1\n      swap2\n      sub\n      swap1\n      revert\n    tag_110:\n        /* \"my_contract/6.funPool.sol\":18418:18597  if (returndata.length > 0) {... */\n    tag_107:\n        /* \"my_contract/6.funPool.sol\":17958:18604  {... */\n      pop\n        /* \"my_contract/6.funPool.sol\":17888:18604  function _callOptionalReturn(IERC20 token, bytes memory data) private {... */\n      pop\n      pop\n      jump\t// out\n        /* \"my_contract/6.funPool.sol\":10262:10491  function functionCall(... */\n    tag_106:\n        /* \"my_contract/6.funPool.sol\":10399:10411  bytes memory */\n      0x60\n        /* \"my_contract/6.funPool.sol\":10431:10483  functionCallWithValue(target, data, 0, errorMessage) */\n      tag_114\n        /* \"my_contract/6.funPool.sol\":10453:10459  target */\n      dup5\n        /* \"my_contract/6.funPool.sol\":10461:10465  data */\n      dup5\n        /* \"my_contract/6.funPool.sol\":10467:10468  0 */\n      0x00\n        /* \"my_contract/6.funPool.sol\":10470:10482  errorMessage */\n      dup6\n        /* \"my_contract/6.funPool.sol\":10431:10452  functionCallWithValue */\n      tag_115\n        /* \"my_contract/6.funPool.sol\":10431:10483  functionCallWithValue(target, data, 0, errorMessage) */\n      jump\t// in\n    tag_114:\n        /* \"my_contract/6.funPool.sol\":10424:10483  return functionCallWithValue(target, data, 0, errorMessage) */\n      swap1\n      pop\n        /* \"my_contract/6.funPool.sol\":10262:10491  function functionCall(... */\n      swap4\n      swap3\n      pop\n      pop\n      pop\n      jump\t// out\n        /* \"my_contract/6.funPool.sol\":11382:11892  function functionCallWithValue(... */\n    tag_115:\n        /* \"my_contract/6.funPool.sol\":11552:11564  bytes memory */\n      0x60\n        /* \"my_contract/6.funPool.sol\":11610:11615  value */\n      dup3\n        /* \"my_contract/6.funPool.sol\":11585:11606  address(this).balance */\n      selfbalance\n        /* \"my_contract/6.funPool.sol\":11585:11615  address(this).balance >= value */\n      lt\n      iszero\n        /* \"my_contract/6.funPool.sol\":11577:11658  require(address(this).balance >= value, \"Address: insufficient balance for call\") */\n      tag_117\n      jumpi\n      mload(0x40)\n      0x08c379a000000000000000000000000000000000000000000000000000000000\n      dup2\n      mstore\n      0x04\n      add\n      tag_118\n      swap1\n      tag_119\n      jump\t// in\n    tag_118:\n      mload(0x40)\n      dup1\n      swap2\n      sub\n      swap1\n      revert\n    tag_117:\n        /* \"my_contract/6.funPool.sol\":11677:11695  isContract(target) */\n      tag_120\n        /* \"my_contract/6.funPool.sol\":11688:11694  target */\n      dup6\n        /* \"my_contract/6.funPool.sol\":11677:11687  isContract */\n      tag_121\n        /* \"my_contract/6.funPool.sol\":11677:11695  isContract(target) */\n      jump\t// in\n    tag_120:\n        /* \"my_contract/6.funPool.sol\":11669:11729  require(isContract(target), \"Address: call to non-contract\") */\n      tag_122\n      jumpi\n      mload(0x40)\n      0x08c379a000000000000000000000000000000000000000000000000000000000\n      dup2\n      mstore\n      0x04\n      add\n      tag_123\n      swap1\n      tag_124\n      jump\t// in\n    tag_123:\n      mload(0x40)\n      dup1\n      swap2\n      sub\n      swap1\n      revert\n    tag_122:\n        /* \"my_contract/6.funPool.sol\":11743:11755  bool success */\n      0x00\n        /* \"my_contract/6.funPool.sol\":11757:11780  bytes memory returndata */\n      dup1\n        /* \"my_contract/6.funPool.sol\":11784:11790  target */\n      dup7\n        /* \"my_contract/6.funPool.sol\":11784:11795  target.call */\n      0xffffffffffffffffffffffffffffffffffffffff\n      and\n        /* \"my_contract/6.funPool.sol\":11803:11808  value */\n      dup6\n        /* \"my_contract/6.funPool.sol\":11810:11814  data */\n      dup8\n        /* \"my_contract/6.funPool.sol\":11784:11815  target.call{value: value}(data) */\n      mload(0x40)\n      tag_125\n      swap2\n      swap1\n      tag_126\n      jump\t// in\n    tag_125:\n      0x00\n      mload(0x40)\n      dup1\n      dup4\n      sub\n      dup2\n      dup6\n      dup8\n      gas\n      call\n      swap3\n      pop\n      pop\n      pop\n      returndatasize\n      dup1\n      0x00\n      dup2\n      eq\n      tag_129\n      jumpi\n      mload(0x40)\n      swap2\n      pop\n      and(add(returndatasize, 0x3f), not(0x1f))\n      dup3\n      add\n      0x40\n      mstore\n      returndatasize\n      dup3\n      mstore\n      returndatasize\n      0x00\n      0x20\n      dup5\n      add\n      returndatacopy\n      jump(tag_128)\n    tag_129:\n      0x60\n      swap2\n      pop\n    tag_128:\n      pop\n        /* \"my_contract/6.funPool.sol\":11742:11815  (bool success, bytes memory returndata) = target.call{value: value}(data) */\n      swap2\n      pop\n      swap2\n      pop\n        /* \"my_contract/6.funPool.sol\":11833:11884  verifyCallResult(success, returndata, errorMessage) */\n      tag_130\n        /* \"my_contract/6.funPool.sol\":11850:11857  success */\n      dup3\n        /* \"my_contract/6.funPool.sol\":11859:11869  returndata */\n      dup3\n        /* \"my_contract/6.funPool.sol\":11871:11883  errorMessage */\n      dup7\n        /* \"my_contract/6.funPool.sol\":11833:11849  verifyCallResult */\n      tag_131\n        /* \"my_contract/6.funPool.sol\":11833:11884  verifyCallResult(success, returndata, errorMessage) */\n      jump\t// in\n    tag_130:\n        /* \"my_contract/6.funPool.sol\":11826:11884  return verifyCallResult(success, returndata, errorMessage) */\n      swap3\n      pop\n      pop\n      pop\n        /* \"my_contract/6.funPool.sol\":11382:11892  function functionCallWithValue(... */\n      swap5\n      swap4\n      pop\n      pop\n      pop\n      pop\n      jump\t// out\n        /* \"my_contract/6.funPool.sol\":7517:7843  function isContract(address account) internal view returns (bool) {... */\n    tag_121:\n        /* \"my_contract/6.funPool.sol\":7577:7581  bool */\n      0x00\n        /* \"my_contract/6.funPool.sol\":7834:7835  0 */\n      dup1\n        /* \"my_contract/6.funPool.sol\":7812:7819  account */\n      dup3\n        /* \"my_contract/6.funPool.sol\":7812:7831  account.code.length */\n      0xffffffffffffffffffffffffffffffffffffffff\n      and\n      extcodesize\n        /* \"my_contract/6.funPool.sol\":7812:7835  account.code.length > 0 */\n      gt\n        /* \"my_contract/6.funPool.sol\":7805:7835  return account.code.length > 0 */\n      swap1\n      pop\n        /* \"my_contract/6.funPool.sol\":7517:7843  function isContract(address account) internal view returns (bool) {... */\n      swap2\n      swap1\n      pop\n      jump\t// out\n        /* \"my_contract/6.funPool.sol\":14068:14780  function verifyCallResult(... */\n    tag_131:\n        /* \"my_contract/6.funPool.sol\":14218:14230  bytes memory */\n      0x60\n        /* \"my_contract/6.funPool.sol\":14247:14254  success */\n      dup4\n        /* \"my_contract/6.funPool.sol\":14243:14773  if (success) {... */\n      iszero\n      tag_134\n      jumpi\n        /* \"my_contract/6.funPool.sol\":14278:14288  returndata */\n      dup3\n        /* \"my_contract/6.funPool.sol\":14271:14288  return returndata */\n      swap1\n      pop\n      jump(tag_133)\n        /* \"my_contract/6.funPool.sol\":14243:14773  if (success) {... */\n    tag_134:\n        /* \"my_contract/6.funPool.sol\":14412:14413  0 */\n      0x00\n        /* \"my_contract/6.funPool.sol\":14392:14402  returndata */\n      dup4\n        /* \"my_contract/6.funPool.sol\":14392:14409  returndata.length */\n      mload\n        /* \"my_contract/6.funPool.sol\":14392:14413  returndata.length > 0 */\n      gt\n        /* \"my_contract/6.funPool.sol\":14388:14762  if (returndata.length > 0) {... */\n      iszero\n      tag_136\n      jumpi\n        /* \"my_contract/6.funPool.sol\":14590:14600  returndata */\n      dup3\n        /* \"my_contract/6.funPool.sol\":14584:14601  mload(returndata) */\n      mload\n        /* \"my_contract/6.funPool.sol\":14651:14666  returndata_size */\n      dup1\n        /* \"my_contract/6.funPool.sol\":14638:14648  returndata */\n      dup5\n        /* \"my_contract/6.funPool.sol\":14634:14636  32 */\n      0x20\n        /* \"my_contract/6.funPool.sol\":14630:14649  add(32, returndata) */\n      add\n        /* \"my_contract/6.funPool.sol\":14623:14667  revert(add(32, returndata), returndata_size) */\n      revert\n        /* \"my_contract/6.funPool.sol\":14388:14762  if (returndata.length > 0) {... */\n    tag_136:\n        /* \"my_contract/6.funPool.sol\":14733:14745  errorMessage */\n      dup2\n        /* \"my_contract/6.funPool.sol\":14726:14746  revert(errorMessage) */\n      mload(0x40)\n      0x08c379a000000000000000000000000000000000000000000000000000000000\n      dup2\n      mstore\n      0x04\n      add\n      tag_138\n      swap2\n      swap1\n      tag_139\n      jump\t// in\n    tag_138:\n      mload(0x40)\n      dup1\n      swap2\n      sub\n      swap1\n      revert\n        /* \"my_contract/6.funPool.sol\":14068:14780  function verifyCallResult(... */\n    tag_133:\n      swap4\n      swap3\n      pop\n      pop\n      pop\n      jump\t// out\n        /* \"#utility.yul\":88:205   */\n    tag_141:\n        /* \"#utility.yul\":197:198   */\n      0x00\n        /* \"#utility.yul\":194:195   */\n      dup1\n        /* \"#utility.yul\":187:199   */\n      revert\n        /* \"#utility.yul\":211:328   */\n    tag_142:\n        /* \"#utility.yul\":320:321   */\n      0x00\n        /* \"#utility.yul\":317:318   */\n      dup1\n        /* \"#utility.yul\":310:322   */\n      revert\n        /* \"#utility.yul\":334:460   */\n    tag_143:\n        /* \"#utility.yul\":371:378   */\n      0x00\n        /* \"#utility.yul\":411:453   */\n      0xffffffffffffffffffffffffffffffffffffffff\n        /* \"#utility.yul\":404:409   */\n      dup3\n        /* \"#utility.yul\":400:454   */\n      and\n        /* \"#utility.yul\":389:454   */\n      swap1\n      pop\n        /* \"#utility.yul\":334:460   */\n      swap2\n      swap1\n      pop\n      jump\t// out\n        /* \"#utility.yul\":466:562   */\n    tag_144:\n        /* \"#utility.yul\":503:510   */\n      0x00\n        /* \"#utility.yul\":532:556   */\n      tag_194\n        /* \"#utility.yul\":550:555   */\n      dup3\n        /* \"#utility.yul\":532:556   */\n      tag_143\n      jump\t// in\n    tag_194:\n        /* \"#utility.yul\":521:556   */\n      swap1\n      pop\n        /* \"#utility.yul\":466:562   */\n      swap2\n      swap1\n      pop\n      jump\t// out\n        /* \"#utility.yul\":568:690   */\n    tag_145:\n        /* \"#utility.yul\":641:665   */\n      tag_196\n        /* \"#utility.yul\":659:664   */\n      dup2\n        /* \"#utility.yul\":641:665   */\n      tag_144\n      jump\t// in\n    tag_196:\n        /* \"#utility.yul\":634:639   */\n      dup2\n        /* \"#utility.yul\":631:666   */\n      eq\n        /* \"#utility.yul\":621:684   */\n      tag_197\n      jumpi\n        /* \"#utility.yul\":680:681   */\n      0x00\n        /* \"#utility.yul\":677:678   */\n      dup1\n        /* \"#utility.yul\":670:682   */\n      revert\n        /* \"#utility.yul\":621:684   */\n    tag_197:\n        /* \"#utility.yul\":568:690   */\n      pop\n      jump\t// out\n        /* \"#utility.yul\":696:835   */\n    tag_146:\n        /* \"#utility.yul\":742:747   */\n      0x00\n        /* \"#utility.yul\":780:786   */\n      dup2\n        /* \"#utility.yul\":767:787   */\n      calldataload\n        /* \"#utility.yul\":758:787   */\n      swap1\n      pop\n        /* \"#utility.yul\":796:829   */\n      tag_199\n        /* \"#utility.yul\":823:828   */\n      dup2\n        /* \"#utility.yul\":796:829   */\n      tag_145\n      jump\t// in\n    tag_199:\n        /* \"#utility.yul\":696:835   */\n      swap3\n      swap2\n      pop\n      pop\n      jump\t// out\n        /* \"#utility.yul\":841:1170   */\n    tag_13:\n        /* \"#utility.yul\":900:906   */\n      0x00\n        /* \"#utility.yul\":949:951   */\n      0x20\n        /* \"#utility.yul\":937:946   */\n      dup3\n        /* \"#utility.yul\":928:935   */\n      dup5\n        /* \"#utility.yul\":924:947   */\n      sub\n        /* \"#utility.yul\":920:952   */\n      slt\n        /* \"#utility.yul\":917:1036   */\n      iszero\n      tag_201\n      jumpi\n        /* \"#utility.yul\":955:1034   */\n      tag_202\n      tag_141\n      jump\t// in\n    tag_202:\n        /* \"#utility.yul\":917:1036   */\n    tag_201:\n        /* \"#utility.yul\":1075:1076   */\n      0x00\n        /* \"#utility.yul\":1100:1153   */\n      tag_203\n        /* \"#utility.yul\":1145:1152   */\n      dup5\n        /* \"#utility.yul\":1136:1142   */\n      dup3\n        /* \"#utility.yul\":1125:1134   */\n      dup6\n        /* \"#utility.yul\":1121:1143   */\n      add\n        /* \"#utility.yul\":1100:1153   */\n      tag_146\n      jump\t// in\n    tag_203:\n        /* \"#utility.yul\":1090:1153   */\n      swap2\n      pop\n        /* \"#utility.yul\":1046:1163   */\n      pop\n        /* \"#utility.yul\":841:1170   */\n      swap3\n      swap2\n      pop\n      pop\n      jump\t// out\n        /* \"#utility.yul\":1176:1253   */\n    tag_147:\n        /* \"#utility.yul\":1213:1220   */\n      0x00\n        /* \"#utility.yul\":1242:1247   */\n      dup2\n        /* \"#utility.yul\":1231:1247   */\n      swap1\n      pop\n        /* \"#utility.yul\":1176:1253   */\n      swap2\n      swap1\n      pop\n      jump\t// out\n        /* \"#utility.yul\":1259:1377   */\n    tag_148:\n        /* \"#utility.yul\":1346:1370   */\n      tag_206\n        /* \"#utility.yul\":1364:1369   */\n      dup2\n        /* \"#utility.yul\":1346:1370   */\n      tag_147\n      jump\t// in\n    tag_206:\n        /* \"#utility.yul\":1341:1344   */\n      dup3\n        /* \"#utility.yul\":1334:1371   */\n      mstore\n        /* \"#utility.yul\":1259:1377   */\n      pop\n      pop\n      jump\t// out\n        /* \"#utility.yul\":1383:1605   */\n    tag_18:\n        /* \"#utility.yul\":1476:1480   */\n      0x00\n        /* \"#utility.yul\":1514:1516   */\n      0x20\n        /* \"#utility.yul\":1503:1512   */\n      dup3\n        /* \"#utility.yul\":1499:1517   */\n      add\n        /* \"#utility.yul\":1491:1517   */\n      swap1\n      pop\n        /* \"#utility.yul\":1527:1598   */\n      tag_208\n        /* \"#utility.yul\":1595:1596   */\n      0x00\n        /* \"#utility.yul\":1584:1593   */\n      dup4\n        /* \"#utility.yul\":1580:1597   */\n      add\n        /* \"#utility.yul\":1571:1577   */\n      dup5\n        /* \"#utility.yul\":1527:1598   */\n      tag_148\n      jump\t// in\n    tag_208:\n        /* \"#utility.yul\":1383:1605   */\n      swap3\n      swap2\n      pop\n      pop\n      jump\t// out\n        /* \"#utility.yul\":1611:1728   */\n    tag_149:\n        /* \"#utility.yul\":1720:1721   */\n      0x00\n        /* \"#utility.yul\":1717:1718   */\n      dup1\n        /* \"#utility.yul\":1710:1722   */\n      revert\n        /* \"#utility.yul\":1734:1851   */\n    tag_150:\n        /* \"#utility.yul\":1843:1844   */\n      0x00\n        /* \"#utility.yul\":1840:1841   */\n      dup1\n        /* \"#utility.yul\":1833:1845   */\n      revert\n        /* \"#utility.yul\":1857:1974   */\n    tag_151:\n        /* \"#utility.yul\":1966:1967   */\n      0x00\n        /* \"#utility.yul\":1963:1964   */\n      dup1\n        /* \"#utility.yul\":1956:1968   */\n      revert\n        /* \"#utility.yul\":1997:2565   */\n    tag_152:\n        /* \"#utility.yul\":2070:2078   */\n      0x00\n        /* \"#utility.yul\":2080:2086   */\n      dup1\n        /* \"#utility.yul\":2130:2133   */\n      dup4\n        /* \"#utility.yul\":2123:2127   */\n      0x1f\n        /* \"#utility.yul\":2115:2121   */\n      dup5\n        /* \"#utility.yul\":2111:2128   */\n      add\n        /* \"#utility.yul\":2107:2134   */\n      slt\n        /* \"#utility.yul\":2097:2219   */\n      tag_213\n      jumpi\n        /* \"#utility.yul\":2138:2217   */\n      tag_214\n      tag_149\n      jump\t// in\n    tag_214:\n        /* \"#utility.yul\":2097:2219   */\n    tag_213:\n        /* \"#utility.yul\":2251:2257   */\n      dup3\n        /* \"#utility.yul\":2238:2258   */\n      calldataload\n        /* \"#utility.yul\":2228:2258   */\n      swap1\n      pop\n        /* \"#utility.yul\":2281:2299   */\n      0xffffffffffffffff\n        /* \"#utility.yul\":2273:2279   */\n      dup2\n        /* \"#utility.yul\":2270:2300   */\n      gt\n        /* \"#utility.yul\":2267:2384   */\n      iszero\n      tag_215\n      jumpi\n        /* \"#utility.yul\":2303:2382   */\n      tag_216\n      tag_150\n      jump\t// in\n    tag_216:\n        /* \"#utility.yul\":2267:2384   */\n    tag_215:\n        /* \"#utility.yul\":2417:2421   */\n      0x20\n        /* \"#utility.yul\":2409:2415   */\n      dup4\n        /* \"#utility.yul\":2405:2422   */\n      add\n        /* \"#utility.yul\":2393:2422   */\n      swap2\n      pop\n        /* \"#utility.yul\":2471:2474   */\n      dup4\n        /* \"#utility.yul\":2463:2467   */\n      0x20\n        /* \"#utility.yul\":2455:2461   */\n      dup3\n        /* \"#utility.yul\":2451:2468   */\n      mul\n        /* \"#utility.yul\":2441:2449   */\n      dup4\n        /* \"#utility.yul\":2437:2469   */\n      add\n        /* \"#utility.yul\":2434:2475   */\n      gt\n        /* \"#utility.yul\":2431:2559   */\n      iszero\n      tag_217\n      jumpi\n        /* \"#utility.yul\":2478:2557   */\n      tag_218\n      tag_151\n      jump\t// in\n    tag_218:\n        /* \"#utility.yul\":2431:2559   */\n    tag_217:\n        /* \"#utility.yul\":1997:2565   */\n      swap3\n      pop\n      swap3\n      swap1\n      pop\n      jump\t// out\n        /* \"#utility.yul\":2588:3156   */\n    tag_153:\n        /* \"#utility.yul\":2661:2669   */\n      0x00\n        /* \"#utility.yul\":2671:2677   */\n      dup1\n        /* \"#utility.yul\":2721:2724   */\n      dup4\n        /* \"#utility.yul\":2714:2718   */\n      0x1f\n        /* \"#utility.yul\":2706:2712   */\n      dup5\n        /* \"#utility.yul\":2702:2719   */\n      add\n        /* \"#utility.yul\":2698:2725   */\n      slt\n        /* \"#utility.yul\":2688:2810   */\n      tag_220\n      jumpi\n        /* \"#utility.yul\":2729:2808   */\n      tag_221\n      tag_149\n      jump\t// in\n    tag_221:\n        /* \"#utility.yul\":2688:2810   */\n    tag_220:\n        /* \"#utility.yul\":2842:2848   */\n      dup3\n        /* \"#utility.yul\":2829:2849   */\n      calldataload\n        /* \"#utility.yul\":2819:2849   */\n      swap1\n      pop\n        /* \"#utility.yul\":2872:2890   */\n      0xffffffffffffffff\n        /* \"#utility.yul\":2864:2870   */\n      dup2\n        /* \"#utility.yul\":2861:2891   */\n      gt\n        /* \"#utility.yul\":2858:2975   */\n      iszero\n      tag_222\n      jumpi\n        /* \"#utility.yul\":2894:2973   */\n      tag_223\n      tag_150\n      jump\t// in\n    tag_223:\n        /* \"#utility.yul\":2858:2975   */\n    tag_222:\n        /* \"#utility.yul\":3008:3012   */\n      0x20\n        /* \"#utility.yul\":3000:3006   */\n      dup4\n        /* \"#utility.yul\":2996:3013   */\n      add\n        /* \"#utility.yul\":2984:3013   */\n      swap2\n      pop\n        /* \"#utility.yul\":3062:3065   */\n      dup4\n        /* \"#utility.yul\":3054:3058   */\n      0x20\n        /* \"#utility.yul\":3046:3052   */\n      dup3\n        /* \"#utility.yul\":3042:3059   */\n      mul\n        /* \"#utility.yul\":3032:3040   */\n      dup4\n        /* \"#utility.yul\":3028:3060   */\n      add\n        /* \"#utility.yul\":3025:3066   */\n      gt\n        /* \"#utility.yul\":3022:3150   */\n      iszero\n      tag_224\n      jumpi\n        /* \"#utility.yul\":3069:3148   */\n      tag_225\n      tag_151\n      jump\t// in\n    tag_225:\n        /* \"#utility.yul\":3022:3150   */\n    tag_224:\n        /* \"#utility.yul\":2588:3156   */\n      swap3\n      pop\n      swap3\n      swap1\n      pop\n      jump\t// out\n        /* \"#utility.yul\":3162:4096   */\n    tag_24:\n        /* \"#utility.yul\":3284:3290   */\n      0x00\n        /* \"#utility.yul\":3292:3298   */\n      dup1\n        /* \"#utility.yul\":3300:3306   */\n      0x00\n        /* \"#utility.yul\":3308:3314   */\n      dup1\n        /* \"#utility.yul\":3357:3359   */\n      0x40\n        /* \"#utility.yul\":3345:3354   */\n      dup6\n        /* \"#utility.yul\":3336:3343   */\n      dup8\n        /* \"#utility.yul\":3332:3355   */\n      sub\n        /* \"#utility.yul\":3328:3360   */\n      slt\n        /* \"#utility.yul\":3325:3444   */\n      iszero\n      tag_227\n      jumpi\n        /* \"#utility.yul\":3363:3442   */\n      tag_228\n      tag_141\n      jump\t// in\n    tag_228:\n        /* \"#utility.yul\":3325:3444   */\n    tag_227:\n        /* \"#utility.yul\":3511:3512   */\n      0x00\n        /* \"#utility.yul\":3500:3509   */\n      dup6\n        /* \"#utility.yul\":3496:3513   */\n      add\n        /* \"#utility.yul\":3483:3514   */\n      calldataload\n        /* \"#utility.yul\":3541:3559   */\n      0xffffffffffffffff\n        /* \"#utility.yul\":3533:3539   */\n      dup2\n        /* \"#utility.yul\":3530:3560   */\n      gt\n        /* \"#utility.yul\":3527:3644   */\n      iszero\n      tag_229\n      jumpi\n        /* \"#utility.yul\":3563:3642   */\n      tag_230\n      tag_142\n      jump\t// in\n    tag_230:\n        /* \"#utility.yul\":3527:3644   */\n    tag_229:\n        /* \"#utility.yul\":3676:3756   */\n      tag_231\n        /* \"#utility.yul\":3748:3755   */\n      dup8\n        /* \"#utility.yul\":3739:3745   */\n      dup3\n        /* \"#utility.yul\":3728:3737   */\n      dup9\n        /* \"#utility.yul\":3724:3746   */\n      add\n        /* \"#utility.yul\":3676:3756   */\n      tag_152\n      jump\t// in\n    tag_231:\n        /* \"#utility.yul\":3658:3756   */\n      swap5\n      pop\n      swap5\n      pop\n        /* \"#utility.yul\":3454:3766   */\n      pop\n        /* \"#utility.yul\":3833:3835   */\n      0x20\n        /* \"#utility.yul\":3822:3831   */\n      dup6\n        /* \"#utility.yul\":3818:3836   */\n      add\n        /* \"#utility.yul\":3805:3837   */\n      calldataload\n        /* \"#utility.yul\":3864:3882   */\n      0xffffffffffffffff\n        /* \"#utility.yul\":3856:3862   */\n      dup2\n        /* \"#utility.yul\":3853:3883   */\n      gt\n        /* \"#utility.yul\":3850:3967   */\n      iszero\n      tag_232\n      jumpi\n        /* \"#utility.yul\":3886:3965   */\n      tag_233\n      tag_142\n      jump\t// in\n    tag_233:\n        /* \"#utility.yul\":3850:3967   */\n    tag_232:\n        /* \"#utility.yul\":3999:4079   */\n      tag_234\n        /* \"#utility.yul\":4071:4078   */\n      dup8\n        /* \"#utility.yul\":4062:4068   */\n      dup3\n        /* \"#utility.yul\":4051:4060   */\n      dup9\n        /* \"#utility.yul\":4047:4069   */\n      add\n        /* \"#utility.yul\":3999:4079   */\n      tag_153\n      jump\t// in\n    tag_234:\n        /* \"#utility.yul\":3981:4079   */\n      swap3\n      pop\n      swap3\n      pop\n        /* \"#utility.yul\":3776:4089   */\n      pop\n        /* \"#utility.yul\":3162:4096   */\n      swap3\n      swap6\n      swap2\n      swap5\n      pop\n      swap3\n      pop\n      jump\t// out\n        /* \"#utility.yul\":4102:4162   */\n    tag_154:\n        /* \"#utility.yul\":4130:4133   */\n      0x00\n        /* \"#utility.yul\":4151:4156   */\n      dup2\n        /* \"#utility.yul\":4144:4156   */\n      swap1\n      pop\n        /* \"#utility.yul\":4102:4162   */\n      swap2\n      swap1\n      pop\n      jump\t// out\n        /* \"#utility.yul\":4168:4310   */\n    tag_155:\n        /* \"#utility.yul\":4218:4227   */\n      0x00\n        /* \"#utility.yul\":4251:4304   */\n      tag_237\n        /* \"#utility.yul\":4269:4303   */\n      tag_238\n        /* \"#utility.yul\":4278:4302   */\n      tag_239\n        /* \"#utility.yul\":4296:4301   */\n      dup5\n        /* \"#utility.yul\":4278:4302   */\n      tag_143\n      jump\t// in\n    tag_239:\n        /* \"#utility.yul\":4269:4303   */\n      tag_154\n      jump\t// in\n    tag_238:\n        /* \"#utility.yul\":4251:4304   */\n      tag_143\n      jump\t// in\n    tag_237:\n        /* \"#utility.yul\":4238:4304   */\n      swap1\n      pop\n        /* \"#utility.yul\":4168:4310   */\n      swap2\n      swap1\n      pop\n      jump\t// out\n        /* \"#utility.yul\":4316:4442   */\n    tag_156:\n        /* \"#utility.yul\":4366:4375   */\n      0x00\n        /* \"#utility.yul\":4399:4436   */\n      tag_241\n        /* \"#utility.yul\":4430:4435   */\n      dup3\n        /* \"#utility.yul\":4399:4436   */\n      tag_155\n      jump\t// in\n    tag_241:\n        /* \"#utility.yul\":4386:4436   */\n      swap1\n      pop\n        /* \"#utility.yul\":4316:4442   */\n      swap2\n      swap1\n      pop\n      jump\t// out\n        /* \"#utility.yul\":4448:4587   */\n    tag_157:\n        /* \"#utility.yul\":4511:4520   */\n      0x00\n        /* \"#utility.yul\":4544:4581   */\n      tag_243\n        /* \"#utility.yul\":4575:4580   */\n      dup3\n        /* \"#utility.yul\":4544:4581   */\n      tag_156\n      jump\t// in\n    tag_243:\n        /* \"#utility.yul\":4531:4581   */\n      swap1\n      pop\n        /* \"#utility.yul\":4448:4587   */\n      swap2\n      swap1\n      pop\n      jump\t// out\n        /* \"#utility.yul\":4593:4750   */\n    tag_158:\n        /* \"#utility.yul\":4693:4743   */\n      tag_245\n        /* \"#utility.yul\":4737:4742   */\n      dup2\n        /* \"#utility.yul\":4693:4743   */\n      tag_157\n      jump\t// in\n    tag_245:\n        /* \"#utility.yul\":4688:4691   */\n      dup3\n        /* \"#utility.yul\":4681:4744   */\n      mstore\n        /* \"#utility.yul\":4593:4750   */\n      pop\n      pop\n      jump\t// out\n        /* \"#utility.yul\":4756:5004   */\n    tag_35:\n        /* \"#utility.yul\":4862:4866   */\n      0x00\n        /* \"#utility.yul\":4900:4902   */\n      0x20\n        /* \"#utility.yul\":4889:4898   */\n      dup3\n        /* \"#utility.yul\":4885:4903   */\n      add\n        /* \"#utility.yul\":4877:4903   */\n      swap1\n      pop\n        /* \"#utility.yul\":4913:4997   */\n      tag_247\n        /* \"#utility.yul\":4994:4995   */\n      0x00\n        /* \"#utility.yul\":4983:4992   */\n      dup4\n        /* \"#utility.yul\":4979:4996   */\n      add\n        /* \"#utility.yul\":4970:4976   */\n      dup5\n        /* \"#utility.yul\":4913:4997   */\n      tag_158\n      jump\t// in\n    tag_247:\n        /* \"#utility.yul\":4756:5004   */\n      swap3\n      swap2\n      pop\n      pop\n      jump\t// out\n        /* \"#utility.yul\":5010:5179   */\n    tag_159:\n        /* \"#utility.yul\":5094:5105   */\n      0x00\n        /* \"#utility.yul\":5128:5134   */\n      dup3\n        /* \"#utility.yul\":5123:5126   */\n      dup3\n        /* \"#utility.yul\":5116:5135   */\n      mstore\n        /* \"#utility.yul\":5168:5172   */\n      0x20\n        /* \"#utility.yul\":5163:5166   */\n      dup3\n        /* \"#utility.yul\":5159:5173   */\n      add\n        /* \"#utility.yul\":5144:5173   */\n      swap1\n      pop\n        /* \"#utility.yul\":5010:5179   */\n      swap3\n      swap2\n      pop\n      pop\n      jump\t// out\n        /* \"#utility.yul\":5185:5366   */\n    tag_160:\n        /* \"#utility.yul\":5325:5358   */\n      0x52656c656173653a206e6565642073657420546f6b656e204164647265737300\n        /* \"#utility.yul\":5321:5322   */\n      0x00\n        /* \"#utility.yul\":5313:5319   */\n      dup3\n        /* \"#utility.yul\":5309:5323   */\n      add\n        /* \"#utility.yul\":5302:5359   */\n      mstore\n        /* \"#utility.yul\":5185:5366   */\n      pop\n      jump\t// out\n        /* \"#utility.yul\":5372:5738   */\n    tag_161:\n        /* \"#utility.yul\":5514:5517   */\n      0x00\n        /* \"#utility.yul\":5535:5602   */\n      tag_251\n        /* \"#utility.yul\":5599:5601   */\n      0x1f\n        /* \"#utility.yul\":5594:5597   */\n      dup4\n        /* \"#utility.yul\":5535:5602   */\n      tag_159\n      jump\t// in\n    tag_251:\n        /* \"#utility.yul\":5528:5602   */\n      swap2\n      pop\n        /* \"#utility.yul\":5611:5704   */\n      tag_252\n        /* \"#utility.yul\":5700:5703   */\n      dup3\n        /* \"#utility.yul\":5611:5704   */\n      tag_160\n      jump\t// in\n    tag_252:\n        /* \"#utility.yul\":5729:5731   */\n      0x20\n        /* \"#utility.yul\":5724:5727   */\n      dup3\n        /* \"#utility.yul\":5720:5732   */\n      add\n        /* \"#utility.yul\":5713:5732   */\n      swap1\n      pop\n        /* \"#utility.yul\":5372:5738   */\n      swap2\n      swap1\n      pop\n      jump\t// out\n        /* \"#utility.yul\":5744:6163   */\n    tag_46:\n        /* \"#utility.yul\":5910:5914   */\n      0x00\n        /* \"#utility.yul\":5948:5950   */\n      0x20\n        /* \"#utility.yul\":5937:5946   */\n      dup3\n        /* \"#utility.yul\":5933:5951   */\n      add\n        /* \"#utility.yul\":5925:5951   */\n      swap1\n      pop\n        /* \"#utility.yul\":5997:6006   */\n      dup2\n        /* \"#utility.yul\":5991:5995   */\n      dup2\n        /* \"#utility.yul\":5987:6007   */\n      sub\n        /* \"#utility.yul\":5983:5984   */\n      0x00\n        /* \"#utility.yul\":5972:5981   */\n      dup4\n        /* \"#utility.yul\":5968:5985   */\n      add\n        /* \"#utility.yul\":5961:6008   */\n      mstore\n        /* \"#utility.yul\":6025:6156   */\n      tag_254\n        /* \"#utility.yul\":6151:6155   */\n      dup2\n        /* \"#utility.yul\":6025:6156   */\n      tag_161\n      jump\t// in\n    tag_254:\n        /* \"#utility.yul\":6017:6156   */\n      swap1\n      pop\n        /* \"#utility.yul\":5744:6163   */\n      swap2\n      swap1\n      pop\n      jump\t// out\n        /* \"#utility.yul\":6169:6470   */\n    tag_162:\n        /* \"#utility.yul\":6309:6343   */\n      0x506c6561736520636865636b2074686520646174612c20746865206e65777320\n        /* \"#utility.yul\":6305:6306   */\n      0x00\n        /* \"#utility.yul\":6297:6303   */\n      dup3\n        /* \"#utility.yul\":6293:6307   */\n      add\n        /* \"#utility.yul\":6286:6344   */\n      mstore\n        /* \"#utility.yul\":6378:6412   */\n      0x494420616e6420646973747269627574696f6e207175616e7469747920617265\n        /* \"#utility.yul\":6373:6375   */\n      0x20\n        /* \"#utility.yul\":6365:6371   */\n      dup3\n        /* \"#utility.yul\":6361:6376   */\n      add\n        /* \"#utility.yul\":6354:6413   */\n      mstore\n        /* \"#utility.yul\":6447:6462   */\n      0x20696e636f6e73697374656e7400000000000000000000000000000000000000\n        /* \"#utility.yul\":6442:6444   */\n      0x40\n        /* \"#utility.yul\":6434:6440   */\n      dup3\n        /* \"#utility.yul\":6430:6445   */\n      add\n        /* \"#utility.yul\":6423:6463   */\n      mstore\n        /* \"#utility.yul\":6169:6470   */\n      pop\n      jump\t// out\n        /* \"#utility.yul\":6476:6842   */\n    tag_163:\n        /* \"#utility.yul\":6618:6621   */\n      0x00\n        /* \"#utility.yul\":6639:6706   */\n      tag_257\n        /* \"#utility.yul\":6703:6705   */\n      0x4d\n        /* \"#utility.yul\":6698:6701   */\n      dup4\n        /* \"#utility.yul\":6639:6706   */\n      tag_159\n      jump\t// in\n    tag_257:\n        /* \"#utility.yul\":6632:6706   */\n      swap2\n      pop\n        /* \"#utility.yul\":6715:6808   */\n      tag_258\n        /* \"#utility.yul\":6804:6807   */\n      dup3\n        /* \"#utility.yul\":6715:6808   */\n      tag_162\n      jump\t// in\n    tag_258:\n        /* \"#utility.yul\":6833:6835   */\n      0x60\n        /* \"#utility.yul\":6828:6831   */\n      dup3\n        /* \"#utility.yul\":6824:6836   */\n      add\n        /* \"#utility.yul\":6817:6836   */\n      swap1\n      pop\n        /* \"#utility.yul\":6476:6842   */\n      swap2\n      swap1\n      pop\n      jump\t// out\n        /* \"#utility.yul\":6848:7267   */\n    tag_49:\n        /* \"#utility.yul\":7014:7018   */\n      0x00\n        /* \"#utility.yul\":7052:7054   */\n      0x20\n        /* \"#utility.yul\":7041:7050   */\n      dup3\n        /* \"#utility.yul\":7037:7055   */\n      add\n        /* \"#utility.yul\":7029:7055   */\n      swap1\n      pop\n        /* \"#utility.yul\":7101:7110   */\n      dup2\n        /* \"#utility.yul\":7095:7099   */\n      dup2\n        /* \"#utility.yul\":7091:7111   */\n      sub\n        /* \"#utility.yul\":7087:7088   */\n      0x00\n        /* \"#utility.yul\":7076:7085   */\n      dup4\n        /* \"#utility.yul\":7072:7089   */\n      add\n        /* \"#utility.yul\":7065:7112   */\n      mstore\n        /* \"#utility.yul\":7129:7260   */\n      tag_260\n        /* \"#utility.yul\":7255:7259   */\n      dup2\n        /* \"#utility.yul\":7129:7260   */\n      tag_163\n      jump\t// in\n    tag_260:\n        /* \"#utility.yul\":7121:7260   */\n      swap1\n      pop\n        /* \"#utility.yul\":6848:7267   */\n      swap2\n      swap1\n      pop\n      jump\t// out\n        /* \"#utility.yul\":7273:7453   */\n    tag_56:\n        /* \"#utility.yul\":7321:7398   */\n      0x4e487b7100000000000000000000000000000000000000000000000000000000\n        /* \"#utility.yul\":7318:7319   */\n      0x00\n        /* \"#utility.yul\":7311:7399   */\n      mstore\n        /* \"#utility.yul\":7418:7422   */\n      0x32\n        /* \"#utility.yul\":7415:7416   */\n      0x04\n        /* \"#utility.yul\":7408:7423   */\n      mstore\n        /* \"#utility.yul\":7442:7446   */\n      0x24\n        /* \"#utility.yul\":7439:7440   */\n      0x00\n        /* \"#utility.yul\":7432:7447   */\n      revert\n        /* \"#utility.yul\":7459:7639   */\n    tag_164:\n        /* \"#utility.yul\":7507:7584   */\n      0x4e487b7100000000000000000000000000000000000000000000000000000000\n        /* \"#utility.yul\":7504:7505   */\n      0x00\n        /* \"#utility.yul\":7497:7585   */\n      mstore\n        /* \"#utility.yul\":7604:7608   */\n      0x11\n        /* \"#utility.yul\":7601:7602   */\n      0x04\n        /* \"#utility.yul\":7594:7609   */\n      mstore\n        /* \"#utility.yul\":7628:7632   */\n      0x24\n        /* \"#utility.yul\":7625:7626   */\n      0x00\n        /* \"#utility.yul\":7618:7633   */\n      revert\n        /* \"#utility.yul\":7645:7878   */\n    tag_59:\n        /* \"#utility.yul\":7684:7687   */\n      0x00\n        /* \"#utility.yul\":7707:7731   */\n      tag_264\n        /* \"#utility.yul\":7725:7730   */\n      dup3\n        /* \"#utility.yul\":7707:7731   */\n      tag_147\n      jump\t// in\n    tag_264:\n        /* \"#utility.yul\":7698:7731   */\n      swap2\n      pop\n        /* \"#utility.yul\":7753:7819   */\n      0xffffffffffffffffffffffffffffffffffffffffffffffffffffffffffffffff\n        /* \"#utility.yul\":7746:7751   */\n      dup3\n        /* \"#utility.yul\":7743:7820   */\n      sub\n        /* \"#utility.yul\":7740:7843   */\n      tag_265\n      jumpi\n        /* \"#utility.yul\":7823:7841   */\n      tag_266\n      tag_164\n      jump\t// in\n    tag_266:\n        /* \"#utility.yul\":7740:7843   */\n    tag_265:\n        /* \"#utility.yul\":7870:7871   */\n      0x01\n        /* \"#utility.yul\":7863:7868   */\n      dup3\n        /* \"#utility.yul\":7859:7872   */\n      add\n        /* \"#utility.yul\":7852:7872   */\n      swap1\n      pop\n        /* \"#utility.yul\":7645:7878   */\n      swap2\n      swap1\n      pop\n      jump\t// out\n        /* \"#utility.yul\":7884:8127   */\n    tag_165:\n        /* \"#utility.yul\":8024:8058   */\n      0x546865206e756d626572206f66206169722064726f7073206578636565647320\n        /* \"#utility.yul\":8020:8021   */\n      0x00\n        /* \"#utility.yul\":8012:8018   */\n      dup3\n        /* \"#utility.yul\":8008:8022   */\n      add\n        /* \"#utility.yul\":8001:8059   */\n      mstore\n        /* \"#utility.yul\":8093:8119   */\n      0x746865206461696c792072656c6561736520616d6f756e740000000000000000\n        /* \"#utility.yul\":8088:8090   */\n      0x20\n        /* \"#utility.yul\":8080:8086   */\n      dup3\n        /* \"#utility.yul\":8076:8091   */\n      add\n        /* \"#utility.yul\":8069:8120   */\n      mstore\n        /* \"#utility.yul\":7884:8127   */\n      pop\n      jump\t// out\n        /* \"#utility.yul\":8133:8499   */\n    tag_166:\n        /* \"#utility.yul\":8275:8278   */\n      0x00\n        /* \"#utility.yul\":8296:8363   */\n      tag_269\n        /* \"#utility.yul\":8360:8362   */\n      0x38\n        /* \"#utility.yul\":8355:8358   */\n      dup4\n        /* \"#utility.yul\":8296:8363   */\n      tag_159\n      jump\t// in\n    tag_269:\n        /* \"#utility.yul\":8289:8363   */\n      swap2\n      pop\n        /* \"#utility.yul\":8372:8465   */\n      tag_270\n        /* \"#utility.yul\":8461:8464   */\n      dup3\n        /* \"#utility.yul\":8372:8465   */\n      tag_165\n      jump\t// in\n    tag_270:\n        /* \"#utility.yul\":8490:8492   */\n      0x40\n        /* \"#utility.yul\":8485:8488   */\n      dup3\n        /* \"#utility.yul\":8481:8493   */\n      add\n        /* \"#utility.yul\":8474:8493   */\n      swap1\n      pop\n        /* \"#utility.yul\":8133:8499   */\n      swap2\n      swap1\n      pop\n      jump\t// out\n        /* \"#utility.yul\":8505:8924   */\n    tag_63:\n        /* \"#utility.yul\":8671:8675   */\n      0x00\n        /* \"#utility.yul\":8709:8711   */\n      0x20\n        /* \"#utility.yul\":8698:8707   */\n      dup3\n        /* \"#utility.yul\":8694:8712   */\n      add\n        /* \"#utility.yul\":8686:8712   */\n      swap1\n      pop\n        /* \"#utility.yul\":8758:8767   */\n      dup2\n        /* \"#utility.yul\":8752:8756   */\n      dup2\n        /* \"#utility.yul\":8748:8768   */\n      sub\n        /* \"#utility.yul\":8744:8745   */\n      0x00\n        /* \"#utility.yul\":8733:8742   */\n      dup4\n        /* \"#utility.yul\":8729:8746   */\n      add\n        /* \"#utility.yul\":8722:8769   */\n      mstore\n        /* \"#utility.yul\":8786:8917   */\n      tag_272\n        /* \"#utility.yul\":8912:8916   */\n      dup2\n        /* \"#utility.yul\":8786:8917   */\n      tag_166\n      jump\t// in\n    tag_272:\n        /* \"#utility.yul\":8778:8917   */\n      swap1\n      pop\n        /* \"#utility.yul\":8505:8924   */\n      swap2\n      swap1\n      pop\n      jump\t// out\n        /* \"#utility.yul\":8930:9121   */\n    tag_78:\n        /* \"#utility.yul\":8970:8973   */\n      0x00\n        /* \"#utility.yul\":8989:9009   */\n      tag_274\n        /* \"#utility.yul\":9007:9008   */\n      dup3\n        /* \"#utility.yul\":8989:9009   */\n      tag_147\n      jump\t// in\n    tag_274:\n        /* \"#utility.yul\":8984:9009   */\n      swap2\n      pop\n        /* \"#utility.yul\":9023:9043   */\n      tag_275\n        /* \"#utility.yul\":9041:9042   */\n      dup4\n        /* \"#utility.yul\":9023:9043   */\n      tag_147\n      jump\t// in\n    tag_275:\n        /* \"#utility.yul\":9018:9043   */\n      swap3\n      pop\n        /* \"#utility.yul\":9066:9067   */\n      dup3\n        /* \"#utility.yul\":9063:9064   */\n      dup3\n        /* \"#utility.yul\":9059:9068   */\n      add\n        /* \"#utility.yul\":9052:9068   */\n      swap1\n      pop\n        /* \"#utility.yul\":9087:9090   */\n      dup1\n        /* \"#utility.yul\":9084:9085   */\n      dup3\n        /* \"#utility.yul\":9081:9091   */\n      gt\n        /* \"#utility.yul\":9078:9114   */\n      iszero\n      tag_276\n      jumpi\n        /* \"#utility.yul\":9094:9112   */\n      tag_277\n      tag_164\n      jump\t// in\n    tag_277:\n        /* \"#utility.yul\":9078:9114   */\n    tag_276:\n        /* \"#utility.yul\":8930:9121   */\n      swap3\n      swap2\n      pop\n      pop\n      jump\t// out\n        /* \"#utility.yul\":9127:9245   */\n    tag_167:\n        /* \"#utility.yul\":9214:9238   */\n      tag_279\n        /* \"#utility.yul\":9232:9237   */\n      dup2\n        /* \"#utility.yul\":9214:9238   */\n      tag_144\n      jump\t// in\n    tag_279:\n        /* \"#utility.yul\":9209:9212   */\n      dup3\n        /* \"#utility.yul\":9202:9239   */\n      mstore\n        /* \"#utility.yul\":9127:9245   */\n      pop\n      pop\n      jump\t// out\n        /* \"#utility.yul\":9251:9473   */\n    tag_85:\n        /* \"#utility.yul\":9344:9348   */\n      0x00\n        /* \"#utility.yul\":9382:9384   */\n      0x20\n        /* \"#utility.yul\":9371:9380   */\n      dup3\n        /* \"#utility.yul\":9367:9385   */\n      add\n        /* \"#utility.yul\":9359:9385   */\n      swap1\n      pop\n        /* \"#utility.yul\":9395:9466   */\n      tag_281\n        /* \"#utility.yul\":9463:9464   */\n      0x00\n        /* \"#utility.yul\":9452:9461   */\n      dup4\n        /* \"#utility.yul\":9448:9465   */\n      add\n        /* \"#utility.yul\":9439:9445   */\n      dup5\n        /* \"#utility.yul\":9395:9466   */\n      tag_167\n      jump\t// in\n    tag_281:\n        /* \"#utility.yul\":9251:9473   */\n      swap3\n      swap2\n      pop\n      pop\n      jump\t// out\n        /* \"#utility.yul\":9479:9601   */\n    tag_168:\n        /* \"#utility.yul\":9552:9576   */\n      tag_283\n        /* \"#utility.yul\":9570:9575   */\n      dup2\n        /* \"#utility.yul\":9552:9576   */\n      tag_147\n      jump\t// in\n    tag_283:\n        /* \"#utility.yul\":9545:9550   */\n      dup2\n        /* \"#utility.yul\":9542:9577   */\n      eq\n        /* \"#utility.yul\":9532:9595   */\n      tag_284\n      jumpi\n        /* \"#utility.yul\":9591:9592   */\n      0x00\n        /* \"#utility.yul\":9588:9589   */\n      dup1\n        /* \"#utility.yul\":9581:9593   */\n      revert\n        /* \"#utility.yul\":9532:9595   */\n    tag_284:\n        /* \"#utility.yul\":9479:9601   */\n      pop\n      jump\t// out\n        /* \"#utility.yul\":9607:9750   */\n    tag_169:\n        /* \"#utility.yul\":9664:9669   */\n      0x00\n        /* \"#utility.yul\":9695:9701   */\n      dup2\n        /* \"#utility.yul\":9689:9702   */\n      mload\n        /* \"#utility.yul\":9680:9702   */\n      swap1\n      pop\n        /* \"#utility.yul\":9711:9744   */\n      tag_286\n        /* \"#utility.yul\":9738:9743   */\n      dup2\n        /* \"#utility.yul\":9711:9744   */\n      tag_168\n      jump\t// in\n    tag_286:\n        /* \"#utility.yul\":9607:9750   */\n      swap3\n      swap2\n      pop\n      pop\n      jump\t// out\n        /* \"#utility.yul\":9756:10107   */\n    tag_89:\n        /* \"#utility.yul\":9826:9832   */\n      0x00\n        /* \"#utility.yul\":9875:9877   */\n      0x20\n        /* \"#utility.yul\":9863:9872   */\n      dup3\n        /* \"#utility.yul\":9854:9861   */\n      dup5\n        /* \"#utility.yul\":9850:9873   */\n      sub\n        /* \"#utility.yul\":9846:9878   */\n      slt\n        /* \"#utility.yul\":9843:9962   */\n      iszero\n      tag_288\n      jumpi\n        /* \"#utility.yul\":9881:9960   */\n      tag_289\n      tag_141\n      jump\t// in\n    tag_289:\n        /* \"#utility.yul\":9843:9962   */\n    tag_288:\n        /* \"#utility.yul\":10001:10002   */\n      0x00\n        /* \"#utility.yul\":10026:10090   */\n      tag_290\n        /* \"#utility.yul\":10082:10089   */\n      dup5\n        /* \"#utility.yul\":10073:10079   */\n      dup3\n        /* \"#utility.yul\":10062:10071   */\n      dup6\n        /* \"#utility.yul\":10058:10080   */\n      add\n        /* \"#utility.yul\":10026:10090   */\n      tag_169\n      jump\t// in\n    tag_290:\n        /* \"#utility.yul\":10016:10090   */\n      swap2\n      pop\n        /* \"#utility.yul\":9972:10100   */\n      pop\n        /* \"#utility.yul\":9756:10107   */\n      swap3\n      swap2\n      pop\n      pop\n      jump\t// out\n        /* \"#utility.yul\":10113:10290   */\n    tag_170:\n        /* \"#utility.yul\":10253:10282   */\n      0x536166654d6174683a206164646974696f6e206f766572666c6f770000000000\n        /* \"#utility.yul\":10249:10250   */\n      0x00\n        /* \"#utility.yul\":10241:10247   */\n      dup3\n        /* \"#utility.yul\":10237:10251   */\n      add\n        /* \"#utility.yul\":10230:10283   */\n      mstore\n        /* \"#utility.yul\":10113:10290   */\n      pop\n      jump\t// out\n        /* \"#utility.yul\":10296:10662   */\n    tag_171:\n        /* \"#utility.yul\":10438:10441   */\n      0x00\n        /* \"#utility.yul\":10459:10526   */\n      tag_293\n        /* \"#utility.yul\":10523:10525   */\n      0x1b\n        /* \"#utility.yul\":10518:10521   */\n      dup4\n        /* \"#utility.yul\":10459:10526   */\n      tag_159\n      jump\t// in\n    tag_293:\n        /* \"#utility.yul\":10452:10526   */\n      swap2\n      pop\n        /* \"#utility.yul\":10535:10628   */\n      tag_294\n        /* \"#utility.yul\":10624:10627   */\n      dup3\n        /* \"#utility.yul\":10535:10628   */\n      tag_170\n      jump\t// in\n    tag_294:\n        /* \"#utility.yul\":10653:10655   */\n      0x20\n        /* \"#utility.yul\":10648:10651   */\n      dup3\n        /* \"#utility.yul\":10644:10656   */\n      add\n        /* \"#utility.yul\":10637:10656   */\n      swap1\n      pop\n        /* \"#utility.yul\":10296:10662   */\n      swap2\n      swap1\n      pop\n      jump\t// out\n        /* \"#utility.yul\":10668:11087   */\n    tag_98:\n        /* \"#utility.yul\":10834:10838   */\n      0x00\n        /* \"#utility.yul\":10872:10874   */\n      0x20\n        /* \"#utility.yul\":10861:10870   */\n      dup3\n        /* \"#utility.yul\":10857:10875   */\n      add\n        /* \"#utility.yul\":10849:10875   */\n      swap1\n      pop\n        /* \"#utility.yul\":10921:10930   */\n      dup2\n        /* \"#utility.yul\":10915:10919   */\n      dup2\n        /* \"#utility.yul\":10911:10931   */\n      sub\n        /* \"#utility.yul\":10907:10908   */\n      0x00\n        /* \"#utility.yul\":10896:10905   */\n      dup4\n        /* \"#utility.yul\":10892:10909   */\n      add\n        /* \"#utility.yul\":10885:10932   */\n      mstore\n        /* \"#utility.yul\":10949:11080   */\n      tag_296\n        /* \"#utility.yul\":11075:11079   */\n      dup2\n        /* \"#utility.yul\":10949:11080   */\n      tag_171\n      jump\t// in\n    tag_296:\n        /* \"#utility.yul\":10941:11080   */\n      swap1\n      pop\n        /* \"#utility.yul\":10668:11087   */\n      swap2\n      swap1\n      pop\n      jump\t// out\n        /* \"#utility.yul\":11093:11425   */\n    tag_102:\n        /* \"#utility.yul\":11214:11218   */\n      0x00\n        /* \"#utility.yul\":11252:11254   */\n      0x40\n        /* \"#utility.yul\":11241:11250   */\n      dup3\n        /* \"#utility.yul\":11237:11255   */\n      add\n        /* \"#utility.yul\":11229:11255   */\n      swap1\n      pop\n        /* \"#utility.yul\":11265:11336   */\n      tag_298\n        /* \"#utility.yul\":11333:11334   */\n      0x00\n        /* \"#utility.yul\":11322:11331   */\n      dup4\n        /* \"#utility.yul\":11318:11335   */\n      add\n        /* \"#utility.yul\":11309:11315   */\n      dup6\n        /* \"#utility.yul\":11265:11336   */\n      tag_167\n      jump\t// in\n    tag_298:\n        /* \"#utility.yul\":11346:11418   */\n      tag_299\n        /* \"#utility.yul\":11414:11416   */\n      0x20\n        /* \"#utility.yul\":11403:11412   */\n      dup4\n        /* \"#utility.yul\":11399:11417   */\n      add\n        /* \"#utility.yul\":11390:11396   */\n      dup5\n        /* \"#utility.yul\":11346:11418   */\n      tag_148\n      jump\t// in\n    tag_299:\n        /* \"#utility.yul\":11093:11425   */\n      swap4\n      swap3\n      pop\n      pop\n      pop\n      jump\t// out\n        /* \"#utility.yul\":11431:11521   */\n    tag_172:\n        /* \"#utility.yul\":11465:11472   */\n      0x00\n        /* \"#utility.yul\":11508:11513   */\n      dup2\n        /* \"#utility.yul\":11501:11514   */\n      iszero\n        /* \"#utility.yul\":11494:11515   */\n      iszero\n        /* \"#utility.yul\":11483:11515   */\n      swap1\n      pop\n        /* \"#utility.yul\":11431:11521   */\n      swap2\n      swap1\n      pop\n      jump\t// out\n        /* \"#utility.yul\":11527:11643   */\n    tag_173:\n        /* \"#utility.yul\":11597:11618   */\n      tag_302\n        /* \"#utility.yul\":11612:11617   */\n      dup2\n        /* \"#utility.yul\":11597:11618   */\n      tag_172\n      jump\t// in\n    tag_302:\n        /* \"#utility.yul\":11590:11595   */\n      dup2\n        /* \"#utility.yul\":11587:11619   */\n      eq\n        /* \"#utility.yul\":11577:11637   */\n      tag_303\n      jumpi\n        /* \"#utility.yul\":11633:11634   */\n      0x00\n        /* \"#utility.yul\":11630:11631   */\n      dup1\n        /* \"#utility.yul\":11623:11635   */\n      revert\n        /* \"#utility.yul\":11577:11637   */\n    tag_303:\n        /* \"#utility.yul\":11527:11643   */\n      pop\n      jump\t// out\n        /* \"#utility.yul\":11649:11786   */\n    tag_174:\n        /* \"#utility.yul\":11703:11708   */\n      0x00\n        /* \"#utility.yul\":11734:11740   */\n      dup2\n        /* \"#utility.yul\":11728:11741   */\n      mload\n        /* \"#utility.yul\":11719:11741   */\n      swap1\n      pop\n        /* \"#utility.yul\":11750:11780   */\n      tag_305\n        /* \"#utility.yul\":11774:11779   */\n      dup2\n        /* \"#utility.yul\":11750:11780   */\n      tag_173\n      jump\t// in\n    tag_305:\n        /* \"#utility.yul\":11649:11786   */\n      swap3\n      swap2\n      pop\n      pop\n      jump\t// out\n        /* \"#utility.yul\":11792:12137   */\n    tag_109:\n        /* \"#utility.yul\":11859:11865   */\n      0x00\n        /* \"#utility.yul\":11908:11910   */\n      0x20\n        /* \"#utility.yul\":11896:11905   */\n      dup3\n        /* \"#utility.yul\":11887:11894   */\n      dup5\n        /* \"#utility.yul\":11883:11906   */\n      sub\n        /* \"#utility.yul\":11879:11911   */\n      slt\n        /* \"#utility.yul\":11876:11995   */\n      iszero\n      tag_307\n      jumpi\n        /* \"#utility.yul\":11914:11993   */\n      tag_308\n      tag_141\n      jump\t// in\n    tag_308:\n        /* \"#utility.yul\":11876:11995   */\n    tag_307:\n        /* \"#utility.yul\":12034:12035   */\n      0x00\n        /* \"#utility.yul\":12059:12120   */\n      tag_309\n        /* \"#utility.yul\":12112:12119   */\n      dup5\n        /* \"#utility.yul\":12103:12109   */\n      dup3\n        /* \"#utility.yul\":12092:12101   */\n      dup6\n        /* \"#utility.yul\":12088:12110   */\n      add\n        /* \"#utility.yul\":12059:12120   */\n      tag_174\n      jump\t// in\n    tag_309:\n        /* \"#utility.yul\":12049:12120   */\n      swap2\n      pop\n        /* \"#utility.yul\":12005:12130   */\n      pop\n        /* \"#utility.yul\":11792:12137   */\n      swap3\n      swap2\n      pop\n      pop\n      jump\t// out\n        /* \"#utility.yul\":12143:12372   */\n    tag_175:\n        /* \"#utility.yul\":12283:12317   */\n      0x5361666545524332303a204552433230206f7065726174696f6e20646964206e\n        /* \"#utility.yul\":12279:12280   */\n      0x00\n        /* \"#utility.yul\":12271:12277   */\n      dup3\n        /* \"#utility.yul\":12267:12281   */\n      add\n        /* \"#utility.yul\":12260:12318   */\n      mstore\n        /* \"#utility.yul\":12352:12364   */\n      0x6f74207375636365656400000000000000000000000000000000000000000000\n        /* \"#utility.yul\":12347:12349   */\n      0x20\n        /* \"#utility.yul\":12339:12345   */\n      dup3\n        /* \"#utility.yul\":12335:12350   */\n      add\n        /* \"#utility.yul\":12328:12365   */\n      mstore\n        /* \"#utility.yul\":12143:12372   */\n      pop\n      jump\t// out\n        /* \"#utility.yul\":12378:12744   */\n    tag_176:\n        /* \"#utility.yul\":12520:12523   */\n      0x00\n        /* \"#utility.yul\":12541:12608   */\n      tag_312\n        /* \"#utility.yul\":12605:12607   */\n      0x2a\n        /* \"#utility.yul\":12600:12603   */\n      dup4\n        /* \"#utility.yul\":12541:12608   */\n      tag_159\n      jump\t// in\n    tag_312:\n        /* \"#utility.yul\":12534:12608   */\n      swap2\n      pop\n        /* \"#utility.yul\":12617:12710   */\n      tag_313\n        /* \"#utility.yul\":12706:12709   */\n      dup3\n        /* \"#utility.yul\":12617:12710   */\n      tag_175\n      jump\t// in\n    tag_313:\n        /* \"#utility.yul\":12735:12737   */\n      0x40\n        /* \"#utility.yul\":12730:12733   */\n      dup3\n        /* \"#utility.yul\":12726:12738   */\n      add\n        /* \"#utility.yul\":12719:12738   */\n      swap1\n      pop\n        /* \"#utility.yul\":12378:12744   */\n      swap2\n      swap1\n      pop\n      jump\t// out\n        /* \"#utility.yul\":12750:13169   */\n    tag_112:\n        /* \"#utility.yul\":12916:12920   */\n      0x00\n        /* \"#utility.yul\":12954:12956   */\n      0x20\n        /* \"#utility.yul\":12943:12952   */\n      dup3\n        /* \"#utility.yul\":12939:12957   */\n      add\n        /* \"#utility.yul\":12931:12957   */\n      swap1\n      pop\n        /* \"#utility.yul\":13003:13012   */\n      dup2\n        /* \"#utility.yul\":12997:13001   */\n      dup2\n        /* \"#utility.yul\":12993:13013   */\n      sub\n        /* \"#utility.yul\":12989:12990   */\n      0x00\n        /* \"#utility.yul\":12978:12987   */\n      dup4\n        /* \"#utility.yul\":12974:12991   */\n      add\n        /* \"#utility.yul\":12967:13014   */\n      mstore\n        /* \"#utility.yul\":13031:13162   */\n      tag_315\n        /* \"#utility.yul\":13157:13161   */\n      dup2\n        /* \"#utility.yul\":13031:13162   */\n      tag_176\n      jump\t// in\n    tag_315:\n        /* \"#utility.yul\":13023:13162   */\n      swap1\n      pop\n        /* \"#utility.yul\":12750:13169   */\n      swap2\n      swap1\n      pop\n      jump\t// out\n        /* \"#utility.yul\":13175:13400   */\n    tag_177:\n        /* \"#utility.yul\":13315:13349   */\n      0x416464726573733a20696e73756666696369656e742062616c616e636520666f\n        /* \"#utility.yul\":13311:13312   */\n      0x00\n        /* \"#utility.yul\":13303:13309   */\n      dup3\n        /* \"#utility.yul\":13299:13313   */\n      add\n        /* \"#utility.yul\":13292:13350   */\n      mstore\n        /* \"#utility.yul\":13384:13392   */\n      0x722063616c6c0000000000000000000000000000000000000000000000000000\n        /* \"#utility.yul\":13379:13381   */\n      0x20\n        /* \"#utility.yul\":13371:13377   */\n      dup3\n        /* \"#utility.yul\":13367:13382   */\n      add\n        /* \"#utility.yul\":13360:13393   */\n      mstore\n        /* \"#utility.yul\":13175:13400   */\n      pop\n      jump\t// out\n        /* \"#utility.yul\":13406:13772   */\n    tag_178:\n        /* \"#utility.yul\":13548:13551   */\n      0x00\n        /* \"#utility.yul\":13569:13636   */\n      tag_318\n        /* \"#utility.yul\":13633:13635   */\n      0x26\n        /* \"#utility.yul\":13628:13631   */\n      dup4\n        /* \"#utility.yul\":13569:13636   */\n      tag_159\n      jump\t// in\n    tag_318:\n        /* \"#utility.yul\":13562:13636   */\n      swap2\n      pop\n        /* \"#utility.yul\":13645:13738   */\n      tag_319\n        /* \"#utility.yul\":13734:13737   */\n      dup3\n        /* \"#utility.yul\":13645:13738   */\n      tag_177\n      jump\t// in\n    tag_319:\n        /* \"#utility.yul\":13763:13765   */\n      0x40\n        /* \"#utility.yul\":13758:13761   */\n      dup3\n        /* \"#utility.yul\":13754:13766   */\n      add\n        /* \"#utility.yul\":13747:13766   */\n      swap1\n      pop\n        /* \"#utility.yul\":13406:13772   */\n      swap2\n      swap1\n      pop\n      jump\t// out\n        /* \"#utility.yul\":13778:14197   */\n    tag_119:\n        /* \"#utility.yul\":13944:13948   */\n      0x00\n        /* \"#utility.yul\":13982:13984   */\n      0x20\n        /* \"#utility.yul\":13971:13980   */\n      dup3\n        /* \"#utility.yul\":13967:13985   */\n      add\n        /* \"#utility.yul\":13959:13985   */\n      swap1\n      pop\n        /* \"#utility.yul\":14031:14040   */\n      dup2\n        /* \"#utility.yul\":14025:14029   */\n      dup2\n        /* \"#utility.yul\":14021:14041   */\n      sub\n        /* \"#utility.yul\":14017:14018   */\n      0x00\n        /* \"#utility.yul\":14006:14015   */\n      dup4\n        /* \"#utility.yul\":14002:14019   */\n      add\n        /* \"#utility.yul\":13995:14042   */\n      mstore\n        /* \"#utility.yul\":14059:14190   */\n      tag_321\n        /* \"#utility.yul\":14185:14189   */\n      dup2\n        /* \"#utility.yul\":14059:14190   */\n      tag_178\n      jump\t// in\n    tag_321:\n        /* \"#utility.yul\":14051:14190   */\n      swap1\n      pop\n        /* \"#utility.yul\":13778:14197   */\n      swap2\n      swap1\n      pop\n      jump\t// out\n        /* \"#utility.yul\":14203:14382   */\n    tag_179:\n        /* \"#utility.yul\":14343:14374   */\n      0x416464726573733a2063616c6c20746f206e6f6e2d636f6e7472616374000000\n        /* \"#utility.yul\":14339:14340   */\n      0x00\n        /* \"#utility.yul\":14331:14337   */\n      dup3\n        /* \"#utility.yul\":14327:14341   */\n      add\n        /* \"#utility.yul\":14320:14375   */\n      mstore\n        /* \"#utility.yul\":14203:14382   */\n      pop\n      jump\t// out\n        /* \"#utility.yul\":14388:14754   */\n    tag_180:\n        /* \"#utility.yul\":14530:14533   */\n      0x00\n        /* \"#utility.yul\":14551:14618   */\n      tag_324\n        /* \"#utility.yul\":14615:14617   */\n      0x1d\n        /* \"#utility.yul\":14610:14613   */\n      dup4\n        /* \"#utility.yul\":14551:14618   */\n      tag_159\n      jump\t// in\n    tag_324:\n        /* \"#utility.yul\":14544:14618   */\n      swap2\n      pop\n        /* \"#utility.yul\":14627:14720   */\n      tag_325\n        /* \"#utility.yul\":14716:14719   */\n      dup3\n        /* \"#utility.yul\":14627:14720   */\n      tag_179\n      jump\t// in\n    tag_325:\n        /* \"#utility.yul\":14745:14747   */\n      0x20\n        /* \"#utility.yul\":14740:14743   */\n      dup3\n        /* \"#utility.yul\":14736:14748   */\n      add\n        /* \"#utility.yul\":14729:14748   */\n      swap1\n      pop\n        /* \"#utility.yul\":14388:14754   */\n      swap2\n      swap1\n      pop\n      jump\t// out\n        /* \"#utility.yul\":14760:15179   */\n    tag_124:\n        /* \"#utility.yul\":14926:14930   */\n      0x00\n        /* \"#utility.yul\":14964:14966   */\n      0x20\n        /* \"#utility.yul\":14953:14962   */\n      dup3\n        /* \"#utility.yul\":14949:14967   */\n      add\n        /* \"#utility.yul\":14941:14967   */\n      swap1\n      pop\n        /* \"#utility.yul\":15013:15022   */\n      dup2\n        /* \"#utility.yul\":15007:15011   */\n      dup2\n        /* \"#utility.yul\":15003:15023   */\n      sub\n        /* \"#utility.yul\":14999:15000   */\n      0x00\n        /* \"#utility.yul\":14988:14997   */\n      dup4\n        /* \"#utility.yul\":14984:15001   */\n      add\n        /* \"#utility.yul\":14977:15024   */\n      mstore\n        /* \"#utility.yul\":15041:15172   */\n      tag_327\n        /* \"#utility.yul\":15167:15171   */\n      dup2\n        /* \"#utility.yul\":15041:15172   */\n      tag_180\n      jump\t// in\n    tag_327:\n        /* \"#utility.yul\":15033:15172   */\n      swap1\n      pop\n        /* \"#utility.yul\":14760:15179   */\n      swap2\n      swap1\n      pop\n      jump\t// out\n        /* \"#utility.yul\":15185:15283   */\n    tag_181:\n        /* \"#utility.yul\":15236:15242   */\n      0x00\n        /* \"#utility.yul\":15270:15275   */\n      dup2\n        /* \"#utility.yul\":15264:15276   */\n      mload\n        /* \"#utility.yul\":15254:15276   */\n      swap1\n      pop\n        /* \"#utility.yul\":15185:15283   */\n      swap2\n      swap1\n      pop\n      jump\t// out\n        /* \"#utility.yul\":15289:15436   */\n    tag_182:\n        /* \"#utility.yul\":15390:15401   */\n      0x00\n        /* \"#utility.yul\":15427:15430   */\n      dup2\n        /* \"#utility.yul\":15412:15430   */\n      swap1\n      pop\n        /* \"#utility.yul\":15289:15436   */\n      swap3\n      swap2\n      pop\n      pop\n      jump\t// out\n        /* \"#utility.yul\":15442:15688   */\n    tag_183:\n        /* \"#utility.yul\":15523:15524   */\n      0x00\n        /* \"#utility.yul\":15533:15646   */\n    tag_331:\n        /* \"#utility.yul\":15547:15553   */\n      dup4\n        /* \"#utility.yul\":15544:15545   */\n      dup2\n        /* \"#utility.yul\":15541:15554   */\n      lt\n        /* \"#utility.yul\":15533:15646   */\n      iszero\n      tag_333\n      jumpi\n        /* \"#utility.yul\":15632:15633   */\n      dup1\n        /* \"#utility.yul\":15627:15630   */\n      dup3\n        /* \"#utility.yul\":15623:15634   */\n      add\n        /* \"#utility.yul\":15617:15635   */\n      mload\n        /* \"#utility.yul\":15613:15614   */\n      dup2\n        /* \"#utility.yul\":15608:15611   */\n      dup5\n        /* \"#utility.yul\":15604:15615   */\n      add\n        /* \"#utility.yul\":15597:15636   */\n      mstore\n        /* \"#utility.yul\":15569:15571   */\n      0x20\n        /* \"#utility.yul\":15566:15567   */\n      dup2\n        /* \"#utility.yul\":15562:15572   */\n      add\n        /* \"#utility.yul\":15557:15572   */\n      swap1\n      pop\n        /* \"#utility.yul\":15533:15646   */\n      jump(tag_331)\n    tag_333:\n        /* \"#utility.yul\":15680:15681   */\n      0x00\n        /* \"#utility.yul\":15671:15677   */\n      dup5\n        /* \"#utility.yul\":15666:15669   */\n      dup5\n        /* \"#utility.yul\":15662:15678   */\n      add\n        /* \"#utility.yul\":15655:15682   */\n      mstore\n        /* \"#utility.yul\":15504:15688   */\n      pop\n        /* \"#utility.yul\":15442:15688   */\n      pop\n      pop\n      pop\n      jump\t// out\n        /* \"#utility.yul\":15694:16080   */\n    tag_184:\n        /* \"#utility.yul\":15798:15801   */\n      0x00\n        /* \"#utility.yul\":15826:15864   */\n      tag_335\n        /* \"#utility.yul\":15858:15863   */\n      dup3\n        /* \"#utility.yul\":15826:15864   */\n      tag_181\n      jump\t// in\n    tag_335:\n        /* \"#utility.yul\":15880:15968   */\n      tag_336\n        /* \"#utility.yul\":15961:15967   */\n      dup2\n        /* \"#utility.yul\":15956:15959   */\n      dup6\n        /* \"#utility.yul\":15880:15968   */\n      tag_182\n      jump\t// in\n    tag_336:\n        /* \"#utility.yul\":15873:15968   */\n      swap4\n      pop\n        /* \"#utility.yul\":15977:16042   */\n      tag_337\n        /* \"#utility.yul\":16035:16041   */\n      dup2\n        /* \"#utility.yul\":16030:16033   */\n      dup6\n        /* \"#utility.yul\":16023:16027   */\n      0x20\n        /* \"#utility.yul\":16016:16021   */\n      dup7\n        /* \"#utility.yul\":16012:16028   */\n      add\n        /* \"#utility.yul\":15977:16042   */\n      tag_183\n      jump\t// in\n    tag_337:\n        /* \"#utility.yul\":16067:16073   */\n      dup1\n        /* \"#utility.yul\":16062:16065   */\n      dup5\n        /* \"#utility.yul\":16058:16074   */\n      add\n        /* \"#utility.yul\":16051:16074   */\n      swap2\n      pop\n        /* \"#utility.yul\":15802:16080   */\n      pop\n        /* \"#utility.yul\":15694:16080   */\n      swap3\n      swap2\n      pop\n      pop\n      jump\t// out\n        /* \"#utility.yul\":16086:16357   */\n    tag_126:\n        /* \"#utility.yul\":16216:16219   */\n      0x00\n        /* \"#utility.yul\":16238:16331   */\n      tag_339\n        /* \"#utility.yul\":16327:16330   */\n      dup3\n        /* \"#utility.yul\":16318:16324   */\n      dup5\n        /* \"#utility.yul\":16238:16331   */\n      tag_184\n      jump\t// in\n    tag_339:\n        /* \"#utility.yul\":16231:16331   */\n      swap2\n      pop\n        /* \"#utility.yul\":16348:16351   */\n      dup2\n        /* \"#utility.yul\":16341:16351   */\n      swap1\n      pop\n        /* \"#utility.yul\":16086:16357   */\n      swap3\n      swap2\n      pop\n      pop\n      jump\t// out\n        /* \"#utility.yul\":16363:16462   */\n    tag_185:\n        /* \"#utility.yul\":16415:16421   */\n      0x00\n        /* \"#utility.yul\":16449:16454   */\n      dup2\n        /* \"#utility.yul\":16443:16455   */\n      mload\n        /* \"#utility.yul\":16433:16455   */\n      swap1\n      pop\n        /* \"#utility.yul\":16363:16462   */\n      swap2\n      swap1\n      pop\n      jump\t// out\n        /* \"#utility.yul\":16468:16570   */\n    tag_186:\n        /* \"#utility.yul\":16509:16515   */\n      0x00\n        /* \"#utility.yul\":16560:16562   */\n      0x1f\n        /* \"#utility.yul\":16556:16563   */\n      not\n        /* \"#utility.yul\":16551:16553   */\n      0x1f\n        /* \"#utility.yul\":16544:16549   */\n      dup4\n        /* \"#utility.yul\":16540:16554   */\n      add\n        /* \"#utility.yul\":16536:16564   */\n      and\n        /* \"#utility.yul\":16526:16564   */\n      swap1\n      pop\n        /* \"#utility.yul\":16468:16570   */\n      swap2\n      swap1\n      pop\n      jump\t// out\n        /* \"#utility.yul\":16576:16953   */\n    tag_187:\n        /* \"#utility.yul\":16664:16667   */\n      0x00\n        /* \"#utility.yul\":16692:16731   */\n      tag_343\n        /* \"#utility.yul\":16725:16730   */\n      dup3\n        /* \"#utility.yul\":16692:16731   */\n      tag_185\n      jump\t// in\n    tag_343:\n        /* \"#utility.yul\":16747:16818   */\n      tag_344\n        /* \"#utility.yul\":16811:16817   */\n      dup2\n        /* \"#utility.yul\":16806:16809   */\n      dup6\n        /* \"#utility.yul\":16747:16818   */\n      tag_159\n      jump\t// in\n    tag_344:\n        /* \"#utility.yul\":16740:16818   */\n      swap4\n      pop\n        /* \"#utility.yul\":16827:16892   */\n      tag_345\n        /* \"#utility.yul\":16885:16891   */\n      dup2\n        /* \"#utility.yul\":16880:16883   */\n      dup6\n        /* \"#utility.yul\":16873:16877   */\n      0x20\n        /* \"#utility.yul\":16866:16871   */\n      dup7\n        /* \"#utility.yul\":16862:16878   */\n      add\n        /* \"#utility.yul\":16827:16892   */\n      tag_183\n      jump\t// in\n    tag_345:\n        /* \"#utility.yul\":16917:16946   */\n      tag_346\n        /* \"#utility.yul\":16939:16945   */\n      dup2\n        /* \"#utility.yul\":16917:16946   */\n      tag_186\n      jump\t// in\n    tag_346:\n        /* \"#utility.yul\":16912:16915   */\n      dup5\n        /* \"#utility.yul\":16908:16947   */\n      add\n        /* \"#utility.yul\":16901:16947   */\n      swap2\n      pop\n        /* \"#utility.yul\":16668:16953   */\n      pop\n        /* \"#utility.yul\":16576:16953   */\n      swap3\n      swap2\n      pop\n      pop\n      jump\t// out\n        /* \"#utility.yul\":16959:17272   */\n    tag_139:\n        /* \"#utility.yul\":17072:17076   */\n      0x00\n        /* \"#utility.yul\":17110:17112   */\n      0x20\n        /* \"#utility.yul\":17099:17108   */\n      dup3\n        /* \"#utility.yul\":17095:17113   */\n      add\n        /* \"#utility.yul\":17087:17113   */\n      swap1\n      pop\n        /* \"#utility.yul\":17159:17168   */\n      dup2\n        /* \"#utility.yul\":17153:17157   */\n      dup2\n        /* \"#utility.yul\":17149:17169   */\n      sub\n        /* \"#utility.yul\":17145:17146   */\n      0x00\n        /* \"#utility.yul\":17134:17143   */\n      dup4\n        /* \"#utility.yul\":17130:17147   */\n      add\n        /* \"#utility.yul\":17123:17170   */\n      mstore\n        /* \"#utility.yul\":17187:17265   */\n      tag_348\n        /* \"#utility.yul\":17260:17264   */\n      dup2\n        /* \"#utility.yul\":17251:17257   */\n      dup5\n        /* \"#utility.yul\":17187:17265   */\n      tag_187\n      jump\t// in\n    tag_348:\n        /* \"#utility.yul\":17179:17265   */\n      swap1\n      pop\n        /* \"#utility.yul\":16959:17272   */\n      swap3\n      swap2\n      pop\n      pop\n      jump\t// out\n\n    auxdata: 0xa2646970667358221220b47d9141ef88719e6376433e78c8b9ea3453ae0fad900f74a232767b135acd7b64736f6c63430008130033\n}\n",
				"bytecode": {
					"linkReferences": {},
					"object": "6080604052601260015534801561001557600080fd5b5033600360006101000a81548173ffffffffffffffffffffffffffffffffffffffff021916908373ffffffffffffffffffffffffffffffffffffffff1602179055506112ef806100666000396000f3fe608060405234801561001057600080fd5b506004361061007d5760003560e01c80635459b8a31161005b5780635459b8a3146100da5780639e1a4d19146100f6578063a6f9dae114610114578063fc0c546a146101305761007d565b806326a4e8d214610082578063313ce5671461009e5780634b14c0ef146100bc575b600080fd5b61009c600480360381019061009791906109f5565b61014e565b005b6100a66101eb565b6040516100b39190610a3b565b60405180910390f35b6100c46101f5565b6040516100d19190610a3b565b60405180910390f35b6100f460048036038101906100ef9190610b11565b6101ff565b005b6100fe610493565b60405161010b9190610a3b565b60405180910390f35b61012e600480360381019061012991906109f5565b610565565b005b610138610603565b6040516101459190610bf1565b60405180910390f35b600360009054906101000a900473ffffffffffffffffffffffffffffffffffffffff1673ffffffffffffffffffffffffffffffffffffffff163373ffffffffffffffffffffffffffffffffffffffff16146101a857600080fd5b806000806101000a81548173ffffffffffffffffffffffffffffffffffffffff021916908373ffffffffffffffffffffffffffffffffffffffff16021790555050565b6000600154905090565b6000600254905090565b600360009054906101000a900473ffffffffffffffffffffffffffffffffffffffff1673ffffffffffffffffffffffffffffffffffffffff163373ffffffffffffffffffffffffffffffffffffffff161461025957600080fd5b600073ffffffffffffffffffffffffffffffffffffffff1660008054906101000a900473ffffffffffffffffffffffffffffffffffffffff1673ffffffffffffffffffffffffffffffffffffffff16036102e8576040517f08c379a00000000000000000000000000000000000000000000000000000000081526004016102df90610c69565b60405180910390fd5b818190508484905014610330576040517f08c379a000000000000000000000000000000000000000000000000000000000815260040161032790610d21565b60405180910390fd5b6000805b858590508110156103805761036b84848381811061035557610354610d41565b5b905060200201358361062c90919063ffffffff16565b9150808061037890610d9f565b915050610334565b508061038a610493565b10156103cb576040517f08c379a00000000000000000000000000000000000000000000000000000000081526004016103c290610e59565b60405180910390fd5b60005b8585905081101561048b5761044b8686838181106103ef576103ee610d41565b5b905060200201602081019061040491906109f5565b85858481811061041757610416610d41565b5b90506020020135610426610603565b73ffffffffffffffffffffffffffffffffffffffff1661068a9092919063ffffffff16565b83838281811061045e5761045d610d41565b5b905060200201356002546104729190610e79565b600281905550808061048390610d9f565b9150506103ce565b505050505050565b60008073ffffffffffffffffffffffffffffffffffffffff166104b4610603565b73ffffffffffffffffffffffffffffffffffffffff16036104d85760009050610562565b60006104e2610603565b73ffffffffffffffffffffffffffffffffffffffff166370a08231306040518263ffffffff1660e01b815260040161051a9190610ebc565b602060405180830381865afa158015610537573d6000803e3d6000fd5b505050506040513d601f19601f8201168201806040525081019061055b9190610f03565b9050809150505b90565b600360009054906101000a900473ffffffffffffffffffffffffffffffffffffffff1673ffffffffffffffffffffffffffffffffffffffff163373ffffffffffffffffffffffffffffffffffffffff16146105bf57600080fd5b80600360006101000a81548173ffffffffffffffffffffffffffffffffffffffff021916908373ffffffffffffffffffffffffffffffffffffffff16021790555050565b60008060009054906101000a900473ffffffffffffffffffffffffffffffffffffffff16905090565b600080828461063b9190610e79565b905083811015610680576040517f08c379a000000000000000000000000000000000000000000000000000000000815260040161067790610f7c565b60405180910390fd5b8091505092915050565b61070b8363a9059cbb60e01b84846040516024016106a9929190610f9c565b604051602081830303815290604052907bffffffffffffffffffffffffffffffffffffffffffffffffffffffff19166020820180517bffffffffffffffffffffffffffffffffffffffffffffffffffffffff8381831617835250505050610710565b505050565b6000610772826040518060400160405280602081526020017f5361666545524332303a206c6f772d6c6576656c2063616c6c206661696c65648152508573ffffffffffffffffffffffffffffffffffffffff166107d79092919063ffffffff16565b90506000815111156107d257808060200190518101906107929190610ffd565b6107d1576040517f08c379a00000000000000000000000000000000000000000000000000000000081526004016107c89061109c565b60405180910390fd5b5b505050565b60606107e684846000856107ef565b90509392505050565b606082471015610834576040517f08c379a000000000000000000000000000000000000000000000000000000000815260040161082b9061112e565b60405180910390fd5b61083d85610903565b61087c576040517f08c379a00000000000000000000000000000000000000000000000000000000081526004016108739061119a565b60405180910390fd5b6000808673ffffffffffffffffffffffffffffffffffffffff1685876040516108a5919061122b565b60006040518083038185875af1925050503d80600081146108e2576040519150601f19603f3d011682016040523d82523d6000602084013e6108e7565b606091505b50915091506108f7828286610926565b92505050949350505050565b6000808273ffffffffffffffffffffffffffffffffffffffff163b119050919050565b6060831561093657829050610986565b6000835111156109495782518084602001fd5b816040517f08c379a000000000000000000000000000000000000000000000000000000000815260040161097d9190611297565b60405180910390fd5b9392505050565b600080fd5b600080fd5b600073ffffffffffffffffffffffffffffffffffffffff82169050919050565b60006109c282610997565b9050919050565b6109d2816109b7565b81146109dd57600080fd5b50565b6000813590506109ef816109c9565b92915050565b600060208284031215610a0b57610a0a61098d565b5b6000610a19848285016109e0565b91505092915050565b6000819050919050565b610a3581610a22565b82525050565b6000602082019050610a506000830184610a2c565b92915050565b600080fd5b600080fd5b600080fd5b60008083601f840112610a7b57610a7a610a56565b5b8235905067ffffffffffffffff811115610a9857610a97610a5b565b5b602083019150836020820283011115610ab457610ab3610a60565b5b9250929050565b60008083601f840112610ad157610ad0610a56565b5b8235905067ffffffffffffffff811115610aee57610aed610a5b565b5b602083019150836020820283011115610b0a57610b09610a60565b5b9250929050565b60008060008060408587031215610b2b57610b2a61098d565b5b600085013567ffffffffffffffff811115610b4957610b48610992565b5b610b5587828801610a65565b9450945050602085013567ffffffffffffffff811115610b7857610b77610992565b5b610b8487828801610abb565b925092505092959194509250565b6000819050919050565b6000610bb7610bb2610bad84610997565b610b92565b610997565b9050919050565b6000610bc982610b9c565b9050919050565b6000610bdb82610bbe565b9050919050565b610beb81610bd0565b82525050565b6000602082019050610c066000830184610be2565b92915050565b600082825260208201905092915050565b7f52656c656173653a206e6565642073657420546f6b656e204164647265737300600082015250565b6000610c53601f83610c0c565b9150610c5e82610c1d565b602082019050919050565b60006020820190508181036000830152610c8281610c46565b9050919050565b7f506c6561736520636865636b2074686520646174612c20746865206e6577732060008201527f494420616e6420646973747269627574696f6e207175616e746974792061726560208201527f20696e636f6e73697374656e7400000000000000000000000000000000000000604082015250565b6000610d0b604d83610c0c565b9150610d1682610c89565b606082019050919050565b60006020820190508181036000830152610d3a81610cfe565b9050919050565b7f4e487b7100000000000000000000000000000000000000000000000000000000600052603260045260246000fd5b7f4e487b7100000000000000000000000000000000000000000000000000000000600052601160045260246000fd5b6000610daa82610a22565b91507fffffffffffffffffffffffffffffffffffffffffffffffffffffffffffffffff8203610ddc57610ddb610d70565b5b600182019050919050565b7f546865206e756d626572206f66206169722064726f707320657863656564732060008201527f746865206461696c792072656c6561736520616d6f756e740000000000000000602082015250565b6000610e43603883610c0c565b9150610e4e82610de7565b604082019050919050565b60006020820190508181036000830152610e7281610e36565b9050919050565b6000610e8482610a22565b9150610e8f83610a22565b9250828201905080821115610ea757610ea6610d70565b5b92915050565b610eb6816109b7565b82525050565b6000602082019050610ed16000830184610ead565b92915050565b610ee081610a22565b8114610eeb57600080fd5b50565b600081519050610efd81610ed7565b92915050565b600060208284031215610f1957610f1861098d565b5b6000610f2784828501610eee565b91505092915050565b7f536166654d6174683a206164646974696f6e206f766572666c6f770000000000600082015250565b6000610f66601b83610c0c565b9150610f7182610f30565b602082019050919050565b60006020820190508181036000830152610f9581610f59565b9050919050565b6000604082019050610fb16000830185610ead565b610fbe6020830184610a2c565b9392505050565b60008115159050919050565b610fda81610fc5565b8114610fe557600080fd5b50565b600081519050610ff781610fd1565b92915050565b6000602082840312156110135761101261098d565b5b600061102184828501610fe8565b91505092915050565b7f5361666545524332303a204552433230206f7065726174696f6e20646964206e60008201527f6f74207375636365656400000000000000000000000000000000000000000000602082015250565b6000611086602a83610c0c565b91506110918261102a565b604082019050919050565b600060208201905081810360008301526110b581611079565b9050919050565b7f416464726573733a20696e73756666696369656e742062616c616e636520666f60008201527f722063616c6c0000000000000000000000000000000000000000000000000000602082015250565b6000611118602683610c0c565b9150611123826110bc565b604082019050919050565b600060208201905081810360008301526111478161110b565b9050919050565b7f416464726573733a2063616c6c20746f206e6f6e2d636f6e7472616374000000600082015250565b6000611184601d83610c0c565b915061118f8261114e565b602082019050919050565b600060208201905081810360008301526111b381611177565b9050919050565b600081519050919050565b600081905092915050565b60005b838110156111ee5780820151818401526020810190506111d3565b60008484015250505050565b6000611205826111ba565b61120f81856111c5565b935061121f8185602086016111d0565b80840191505092915050565b600061123782846111fa565b915081905092915050565b600081519050919050565b6000601f19601f8301169050919050565b600061126982611242565b6112738185610c0c565b93506112838185602086016111d0565b61128c8161124d565b840191505092915050565b600060208201905081810360008301526112b1818461125e565b90509291505056fea2646970667358221220b47d9141ef88719e6376433e78c8b9ea3453ae0fad900f74a232767b135acd7b64736f6c63430008130033",
					"opcodes": "PUSH1 0x80 PUSH1 0x40 MSTORE PUSH1 0x12 PUSH1 0x1 SSTORE CALLVALUE DUP1 ISZERO PUSH2 0x15 JUMPI PUSH1 0x0 DUP1 REVERT JUMPDEST POP CALLER PUSH1 0x3 PUSH1 0x0 PUSH2 0x100 EXP DUP2 SLOAD DUP2 PUSH20 0xFFFFFFFFFFFFFFFFFFFFFFFFFFFFFFFFFFFFFFFF MUL NOT AND SWAP1 DUP4 PUSH20 0xFFFFFFFFFFFFFFFFFFFFFFFFFFFFFFFFFFFFFFFF AND MUL OR SWAP1 SSTORE POP PUSH2 0x12EF DUP1 PUSH2 0x66 PUSH1 0x0 CODECOPY PUSH1 0x0 RETURN INVALID PUSH1 0x80 PUSH1 0x40 MSTORE CALLVALUE DUP1 ISZERO PUSH2 0x10 JUMPI PUSH1 0x0 DUP1 REVERT JUMPDEST POP PUSH1 0x4 CALLDATASIZE LT PUSH2 0x7D JUMPI PUSH1 0x0 CALLDATALOAD PUSH1 0xE0 SHR DUP1 PUSH4 0x5459B8A3 GT PUSH2 0x5B JUMPI DUP1 PUSH4 0x5459B8A3 EQ PUSH2 0xDA JUMPI DUP1 PUSH4 0x9E1A4D19 EQ PUSH2 0xF6 JUMPI DUP1 PUSH4 0xA6F9DAE1 EQ PUSH2 0x114 JUMPI DUP1 PUSH4 0xFC0C546A EQ PUSH2 0x130 JUMPI PUSH2 0x7D JUMP JUMPDEST DUP1 PUSH4 0x26A4E8D2 EQ PUSH2 0x82 JUMPI DUP1 PUSH4 0x313CE567 EQ PUSH2 0x9E JUMPI DUP1 PUSH4 0x4B14C0EF EQ PUSH2 0xBC JUMPI JUMPDEST PUSH1 0x0 DUP1 REVERT JUMPDEST PUSH2 0x9C PUSH1 0x4 DUP1 CALLDATASIZE SUB DUP2 ADD SWAP1 PUSH2 0x97 SWAP2 SWAP1 PUSH2 0x9F5 JUMP JUMPDEST PUSH2 0x14E JUMP JUMPDEST STOP JUMPDEST PUSH2 0xA6 PUSH2 0x1EB JUMP JUMPDEST PUSH1 0x40 MLOAD PUSH2 0xB3 SWAP2 SWAP1 PUSH2 0xA3B JUMP JUMPDEST PUSH1 0x40 MLOAD DUP1 SWAP2 SUB SWAP1 RETURN JUMPDEST PUSH2 0xC4 PUSH2 0x1F5 JUMP JUMPDEST PUSH1 0x40 MLOAD PUSH2 0xD1 SWAP2 SWAP1 PUSH2 0xA3B JUMP JUMPDEST PUSH1 0x40 MLOAD DUP1 SWAP2 SUB SWAP1 RETURN JUMPDEST PUSH2 0xF4 PUSH1 0x4 DUP1 CALLDATASIZE SUB DUP2 ADD SWAP1 PUSH2 0xEF SWAP2 SWAP1 PUSH2 0xB11 JUMP JUMPDEST PUSH2 0x1FF JUMP JUMPDEST STOP JUMPDEST PUSH2 0xFE PUSH2 0x493 JUMP JUMPDEST PUSH1 0x40 MLOAD PUSH2 0x10B SWAP2 SWAP1 PUSH2 0xA3B JUMP JUMPDEST PUSH1 0x40 MLOAD DUP1 SWAP2 SUB SWAP1 RETURN JUMPDEST PUSH2 0x12E PUSH1 0x4 DUP1 CALLDATASIZE SUB DUP2 ADD SWAP1 PUSH2 0x129 SWAP2 SWAP1 PUSH2 0x9F5 JUMP JUMPDEST PUSH2 0x565 JUMP JUMPDEST STOP JUMPDEST PUSH2 0x138 PUSH2 0x603 JUMP JUMPDEST PUSH1 0x40 MLOAD PUSH2 0x145 SWAP2 SWAP1 PUSH2 0xBF1 JUMP JUMPDEST PUSH1 0x40 MLOAD DUP1 SWAP2 SUB SWAP1 RETURN JUMPDEST PUSH1 0x3 PUSH1 0x0 SWAP1 SLOAD SWAP1 PUSH2 0x100 EXP SWAP1 DIV PUSH20 0xFFFFFFFFFFFFFFFFFFFFFFFFFFFFFFFFFFFFFFFF AND PUSH20 0xFFFFFFFFFFFFFFFFFFFFFFFFFFFFFFFFFFFFFFFF AND CALLER PUSH20 0xFFFFFFFFFFFFFFFFFFFFFFFFFFFFFFFFFFFFFFFF AND EQ PUSH2 0x1A8 JUMPI PUSH1 0x0 DUP1 REVERT JUMPDEST DUP1 PUSH1 0x0 DUP1 PUSH2 0x100 EXP DUP2 SLOAD DUP2 PUSH20 0xFFFFFFFFFFFFFFFFFFFFFFFFFFFFFFFFFFFFFFFF MUL NOT AND SWAP1 DUP4 PUSH20 0xFFFFFFFFFFFFFFFFFFFFFFFFFFFFFFFFFFFFFFFF AND MUL OR SWAP1 SSTORE POP POP JUMP JUMPDEST PUSH1 0x0 PUSH1 0x1 SLOAD SWAP1 POP SWAP1 JUMP JUMPDEST PUSH1 0x0 PUSH1 0x2 SLOAD SWAP1 POP SWAP1 JUMP JUMPDEST PUSH1 0x3 PUSH1 0x0 SWAP1 SLOAD SWAP1 PUSH2 0x100 EXP SWAP1 DIV PUSH20 0xFFFFFFFFFFFFFFFFFFFFFFFFFFFFFFFFFFFFFFFF AND PUSH20 0xFFFFFFFFFFFFFFFFFFFFFFFFFFFFFFFFFFFFFFFF AND CALLER PUSH20 0xFFFFFFFFFFFFFFFFFFFFFFFFFFFFFFFFFFFFFFFF AND EQ PUSH2 0x259 JUMPI PUSH1 0x0 DUP1 REVERT JUMPDEST PUSH1 0x0 PUSH20 0xFFFFFFFFFFFFFFFFFFFFFFFFFFFFFFFFFFFFFFFF AND PUSH1 0x0 DUP1 SLOAD SWAP1 PUSH2 0x100 EXP SWAP1 DIV PUSH20 0xFFFFFFFFFFFFFFFFFFFFFFFFFFFFFFFFFFFFFFFF AND PUSH20 0xFFFFFFFFFFFFFFFFFFFFFFFFFFFFFFFFFFFFFFFF AND SUB PUSH2 0x2E8 JUMPI PUSH1 0x40 MLOAD PUSH32 0x8C379A000000000000000000000000000000000000000000000000000000000 DUP2 MSTORE PUSH1 0x4 ADD PUSH2 0x2DF SWAP1 PUSH2 0xC69 JUMP JUMPDEST PUSH1 0x40 MLOAD DUP1 SWAP2 SUB SWAP1 REVERT JUMPDEST DUP2 DUP2 SWAP1 POP DUP5 DUP5 SWAP1 POP EQ PUSH2 0x330 JUMPI PUSH1 0x40 MLOAD PUSH32 0x8C379A000000000000000000000000000000000000000000000000000000000 DUP2 MSTORE PUSH1 0x4 ADD PUSH2 0x327 SWAP1 PUSH2 0xD21 JUMP JUMPDEST PUSH1 0x40 MLOAD DUP1 SWAP2 SUB SWAP1 REVERT JUMPDEST PUSH1 0x0 DUP1 JUMPDEST DUP6 DUP6 SWAP1 POP DUP2 LT ISZERO PUSH2 0x380 JUMPI PUSH2 0x36B DUP5 DUP5 DUP4 DUP2 DUP2 LT PUSH2 0x355 JUMPI PUSH2 0x354 PUSH2 0xD41 JUMP JUMPDEST JUMPDEST SWAP1 POP PUSH1 0x20 MUL ADD CALLDATALOAD DUP4 PUSH2 0x62C SWAP1 SWAP2 SWAP1 PUSH4 0xFFFFFFFF AND JUMP JUMPDEST SWAP2 POP DUP1 DUP1 PUSH2 0x378 SWAP1 PUSH2 0xD9F JUMP JUMPDEST SWAP2 POP POP PUSH2 0x334 JUMP JUMPDEST POP DUP1 PUSH2 0x38A PUSH2 0x493 JUMP JUMPDEST LT ISZERO PUSH2 0x3CB JUMPI PUSH1 0x40 MLOAD PUSH32 0x8C379A000000000000000000000000000000000000000000000000000000000 DUP2 MSTORE PUSH1 0x4 ADD PUSH2 0x3C2 SWAP1 PUSH2 0xE59 JUMP JUMPDEST PUSH1 0x40 MLOAD DUP1 SWAP2 SUB SWAP1 REVERT JUMPDEST PUSH1 0x0 JUMPDEST DUP6 DUP6 SWAP1 POP DUP2 LT ISZERO PUSH2 0x48B JUMPI PUSH2 0x44B DUP7 DUP7 DUP4 DUP2 DUP2 LT PUSH2 0x3EF JUMPI PUSH2 0x3EE PUSH2 0xD41 JUMP JUMPDEST JUMPDEST SWAP1 POP PUSH1 0x20 MUL ADD PUSH1 0x20 DUP2 ADD SWAP1 PUSH2 0x404 SWAP2 SWAP1 PUSH2 0x9F5 JUMP JUMPDEST DUP6 DUP6 DUP5 DUP2 DUP2 LT PUSH2 0x417 JUMPI PUSH2 0x416 PUSH2 0xD41 JUMP JUMPDEST JUMPDEST SWAP1 POP PUSH1 0x20 MUL ADD CALLDATALOAD PUSH2 0x426 PUSH2 0x603 JUMP JUMPDEST PUSH20 0xFFFFFFFFFFFFFFFFFFFFFFFFFFFFFFFFFFFFFFFF AND PUSH2 0x68A SWAP1 SWAP3 SWAP2 SWAP1 PUSH4 0xFFFFFFFF AND JUMP JUMPDEST DUP4 DUP4 DUP3 DUP2 DUP2 LT PUSH2 0x45E JUMPI PUSH2 0x45D PUSH2 0xD41 JUMP JUMPDEST JUMPDEST SWAP1 POP PUSH1 0x20 MUL ADD CALLDATALOAD PUSH1 0x2 SLOAD PUSH2 0x472 SWAP2 SWAP1 PUSH2 0xE79 JUMP JUMPDEST PUSH1 0x2 DUP2 SWAP1 SSTORE POP DUP1 DUP1 PUSH2 0x483 SWAP1 PUSH2 0xD9F JUMP JUMPDEST SWAP2 POP POP PUSH2 0x3CE JUMP JUMPDEST POP POP POP POP POP POP JUMP JUMPDEST PUSH1 0x0 DUP1 PUSH20 0xFFFFFFFFFFFFFFFFFFFFFFFFFFFFFFFFFFFFFFFF AND PUSH2 0x4B4 PUSH2 0x603 JUMP JUMPDEST PUSH20 0xFFFFFFFFFFFFFFFFFFFFFFFFFFFFFFFFFFFFFFFF AND SUB PUSH2 0x4D8 JUMPI PUSH1 0x0 SWAP1 POP PUSH2 0x562 JUMP JUMPDEST PUSH1 0x0 PUSH2 0x4E2 PUSH2 0x603 JUMP JUMPDEST PUSH20 0xFFFFFFFFFFFFFFFFFFFFFFFFFFFFFFFFFFFFFFFF AND PUSH4 0x70A08231 ADDRESS PUSH1 0x40 MLOAD DUP3 PUSH4 0xFFFFFFFF AND PUSH1 0xE0 SHL DUP2 MSTORE PUSH1 0x4 ADD PUSH2 0x51A SWAP2 SWAP1 PUSH2 0xEBC JUMP JUMPDEST PUSH1 0x20 PUSH1 0x40 MLOAD DUP1 DUP4 SUB DUP2 DUP7 GAS STATICCALL ISZERO DUP1 ISZERO PUSH2 0x537 JUMPI RETURNDATASIZE PUSH1 0x0 DUP1 RETURNDATACOPY RETURNDATASIZE PUSH1 0x0 REVERT JUMPDEST POP POP POP POP PUSH1 0x40 MLOAD RETURNDATASIZE PUSH1 0x1F NOT PUSH1 0x1F DUP3 ADD AND DUP3 ADD DUP1 PUSH1 0x40 MSTORE POP DUP2 ADD SWAP1 PUSH2 0x55B SWAP2 SWAP1 PUSH2 0xF03 JUMP JUMPDEST SWAP1 POP DUP1 SWAP2 POP POP JUMPDEST SWAP1 JUMP JUMPDEST PUSH1 0x3 PUSH1 0x0 SWAP1 SLOAD SWAP1 PUSH2 0x100 EXP SWAP1 DIV PUSH20 0xFFFFFFFFFFFFFFFFFFFFFFFFFFFFFFFFFFFFFFFF AND PUSH20 0xFFFFFFFFFFFFFFFFFFFFFFFFFFFFFFFFFFFFFFFF AND CALLER PUSH20 0xFFFFFFFFFFFFFFFFFFFFFFFFFFFFFFFFFFFFFFFF AND EQ PUSH2 0x5BF JUMPI PUSH1 0x0 DUP1 REVERT JUMPDEST DUP1 PUSH1 0x3 PUSH1 0x0 PUSH2 0x100 EXP DUP2 SLOAD DUP2 PUSH20 0xFFFFFFFFFFFFFFFFFFFFFFFFFFFFFFFFFFFFFFFF MUL NOT AND SWAP1 DUP4 PUSH20 0xFFFFFFFFFFFFFFFFFFFFFFFFFFFFFFFFFFFFFFFF AND MUL OR SWAP1 SSTORE POP POP JUMP JUMPDEST PUSH1 0x0 DUP1 PUSH1 0x0 SWAP1 SLOAD SWAP1 PUSH2 0x100 EXP SWAP1 DIV PUSH20 0xFFFFFFFFFFFFFFFFFFFFFFFFFFFFFFFFFFFFFFFF AND SWAP1 POP SWAP1 JUMP JUMPDEST PUSH1 0x0 DUP1 DUP3 DUP5 PUSH2 0x63B SWAP2 SWAP1 PUSH2 0xE79 JUMP JUMPDEST SWAP1 POP DUP4 DUP2 LT ISZERO PUSH2 0x680 JUMPI PUSH1 0x40 MLOAD PUSH32 0x8C379A000000000000000000000000000000000000000000000000000000000 DUP2 MSTORE PUSH1 0x4 ADD PUSH2 0x677 SWAP1 PUSH2 0xF7C JUMP JUMPDEST PUSH1 0x40 MLOAD DUP1 SWAP2 SUB SWAP1 REVERT JUMPDEST DUP1 SWAP2 POP POP SWAP3 SWAP2 POP POP JUMP JUMPDEST PUSH2 0x70B DUP4 PUSH4 0xA9059CBB PUSH1 0xE0 SHL DUP5 DUP5 PUSH1 0x40 MLOAD PUSH1 0x24 ADD PUSH2 0x6A9 SWAP3 SWAP2 SWAP1 PUSH2 0xF9C JUMP JUMPDEST PUSH1 0x40 MLOAD PUSH1 0x20 DUP2 DUP4 SUB SUB DUP2 MSTORE SWAP1 PUSH1 0x40 MSTORE SWAP1 PUSH28 0xFFFFFFFFFFFFFFFFFFFFFFFFFFFFFFFFFFFFFFFFFFFFFFFFFFFFFFFF NOT AND PUSH1 0x20 DUP3 ADD DUP1 MLOAD PUSH28 0xFFFFFFFFFFFFFFFFFFFFFFFFFFFFFFFFFFFFFFFFFFFFFFFFFFFFFFFF DUP4 DUP2 DUP4 AND OR DUP4 MSTORE POP POP POP POP PUSH2 0x710 JUMP JUMPDEST POP POP POP JUMP JUMPDEST PUSH1 0x0 PUSH2 0x772 DUP3 PUSH1 0x40 MLOAD DUP1 PUSH1 0x40 ADD PUSH1 0x40 MSTORE DUP1 PUSH1 0x20 DUP2 MSTORE PUSH1 0x20 ADD PUSH32 0x5361666545524332303A206C6F772D6C6576656C2063616C6C206661696C6564 DUP2 MSTORE POP DUP6 PUSH20 0xFFFFFFFFFFFFFFFFFFFFFFFFFFFFFFFFFFFFFFFF AND PUSH2 0x7D7 SWAP1 SWAP3 SWAP2 SWAP1 PUSH4 0xFFFFFFFF AND JUMP JUMPDEST SWAP1 POP PUSH1 0x0 DUP2 MLOAD GT ISZERO PUSH2 0x7D2 JUMPI DUP1 DUP1 PUSH1 0x20 ADD SWAP1 MLOAD DUP2 ADD SWAP1 PUSH2 0x792 SWAP2 SWAP1 PUSH2 0xFFD JUMP JUMPDEST PUSH2 0x7D1 JUMPI PUSH1 0x40 MLOAD PUSH32 0x8C379A000000000000000000000000000000000000000000000000000000000 DUP2 MSTORE PUSH1 0x4 ADD PUSH2 0x7C8 SWAP1 PUSH2 0x109C JUMP JUMPDEST PUSH1 0x40 MLOAD DUP1 SWAP2 SUB SWAP1 REVERT JUMPDEST JUMPDEST POP POP POP JUMP JUMPDEST PUSH1 0x60 PUSH2 0x7E6 DUP5 DUP5 PUSH1 0x0 DUP6 PUSH2 0x7EF JUMP JUMPDEST SWAP1 POP SWAP4 SWAP3 POP POP POP JUMP JUMPDEST PUSH1 0x60 DUP3 SELFBALANCE LT ISZERO PUSH2 0x834 JUMPI PUSH1 0x40 MLOAD PUSH32 0x8C379A000000000000000000000000000000000000000000000000000000000 DUP2 MSTORE PUSH1 0x4 ADD PUSH2 0x82B SWAP1 PUSH2 0x112E JUMP JUMPDEST PUSH1 0x40 MLOAD DUP1 SWAP2 SUB SWAP1 REVERT JUMPDEST PUSH2 0x83D DUP6 PUSH2 0x903 JUMP JUMPDEST PUSH2 0x87C JUMPI PUSH1 0x40 MLOAD PUSH32 0x8C379A000000000000000000000000000000000000000000000000000000000 DUP2 MSTORE PUSH1 0x4 ADD PUSH2 0x873 SWAP1 PUSH2 0x119A JUMP JUMPDEST PUSH1 0x40 MLOAD DUP1 SWAP2 SUB SWAP1 REVERT JUMPDEST PUSH1 0x0 DUP1 DUP7 PUSH20 0xFFFFFFFFFFFFFFFFFFFFFFFFFFFFFFFFFFFFFFFF AND DUP6 DUP8 PUSH1 0x40 MLOAD PUSH2 0x8A5 SWAP2 SWAP1 PUSH2 0x122B JUMP JUMPDEST PUSH1 0x0 PUSH1 0x40 MLOAD DUP1 DUP4 SUB DUP2 DUP6 DUP8 GAS CALL SWAP3 POP POP POP RETURNDATASIZE DUP1 PUSH1 0x0 DUP2 EQ PUSH2 0x8E2 JUMPI PUSH1 0x40 MLOAD SWAP2 POP PUSH1 0x1F NOT PUSH1 0x3F RETURNDATASIZE ADD AND DUP3 ADD PUSH1 0x40 MSTORE RETURNDATASIZE DUP3 MSTORE RETURNDATASIZE PUSH1 0x0 PUSH1 0x20 DUP5 ADD RETURNDATACOPY PUSH2 0x8E7 JUMP JUMPDEST PUSH1 0x60 SWAP2 POP JUMPDEST POP SWAP2 POP SWAP2 POP PUSH2 0x8F7 DUP3 DUP3 DUP7 PUSH2 0x926 JUMP JUMPDEST SWAP3 POP POP POP SWAP5 SWAP4 POP POP POP POP JUMP JUMPDEST PUSH1 0x0 DUP1 DUP3 PUSH20 0xFFFFFFFFFFFFFFFFFFFFFFFFFFFFFFFFFFFFFFFF AND EXTCODESIZE GT SWAP1 POP SWAP2 SWAP1 POP JUMP JUMPDEST PUSH1 0x60 DUP4 ISZERO PUSH2 0x936 JUMPI DUP3 SWAP1 POP PUSH2 0x986 JUMP JUMPDEST PUSH1 0x0 DUP4 MLOAD GT ISZERO PUSH2 0x949 JUMPI DUP3 MLOAD DUP1 DUP5 PUSH1 0x20 ADD REVERT JUMPDEST DUP2 PUSH1 0x40 MLOAD PUSH32 0x8C379A000000000000000000000000000000000000000000000000000000000 DUP2 MSTORE PUSH1 0x4 ADD PUSH2 0x97D SWAP2 SWAP1 PUSH2 0x1297 JUMP JUMPDEST PUSH1 0x40 MLOAD DUP1 SWAP2 SUB SWAP1 REVERT JUMPDEST SWAP4 SWAP3 POP POP POP JUMP JUMPDEST PUSH1 0x0 DUP1 REVERT JUMPDEST PUSH1 0x0 DUP1 REVERT JUMPDEST PUSH1 0x0 PUSH20 0xFFFFFFFFFFFFFFFFFFFFFFFFFFFFFFFFFFFFFFFF DUP3 AND SWAP1 POP SWAP2 SWAP1 POP JUMP JUMPDEST PUSH1 0x0 PUSH2 0x9C2 DUP3 PUSH2 0x997 JUMP JUMPDEST SWAP1 POP SWAP2 SWAP1 POP JUMP JUMPDEST PUSH2 0x9D2 DUP2 PUSH2 0x9B7 JUMP JUMPDEST DUP2 EQ PUSH2 0x9DD JUMPI PUSH1 0x0 DUP1 REVERT JUMPDEST POP JUMP JUMPDEST PUSH1 0x0 DUP2 CALLDATALOAD SWAP1 POP PUSH2 0x9EF DUP2 PUSH2 0x9C9 JUMP JUMPDEST SWAP3 SWAP2 POP POP JUMP JUMPDEST PUSH1 0x0 PUSH1 0x20 DUP3 DUP5 SUB SLT ISZERO PUSH2 0xA0B JUMPI PUSH2 0xA0A PUSH2 0x98D JUMP JUMPDEST JUMPDEST PUSH1 0x0 PUSH2 0xA19 DUP5 DUP3 DUP6 ADD PUSH2 0x9E0 JUMP JUMPDEST SWAP2 POP POP SWAP3 SWAP2 POP POP JUMP JUMPDEST PUSH1 0x0 DUP2 SWAP1 POP SWAP2 SWAP1 POP JUMP JUMPDEST PUSH2 0xA35 DUP2 PUSH2 0xA22 JUMP JUMPDEST DUP3 MSTORE POP POP JUMP JUMPDEST PUSH1 0x0 PUSH1 0x20 DUP3 ADD SWAP1 POP PUSH2 0xA50 PUSH1 0x0 DUP4 ADD DUP5 PUSH2 0xA2C JUMP JUMPDEST SWAP3 SWAP2 POP POP JUMP JUMPDEST PUSH1 0x0 DUP1 REVERT JUMPDEST PUSH1 0x0 DUP1 REVERT JUMPDEST PUSH1 0x0 DUP1 REVERT JUMPDEST PUSH1 0x0 DUP1 DUP4 PUSH1 0x1F DUP5 ADD SLT PUSH2 0xA7B JUMPI PUSH2 0xA7A PUSH2 0xA56 JUMP JUMPDEST JUMPDEST DUP3 CALLDATALOAD SWAP1 POP PUSH8 0xFFFFFFFFFFFFFFFF DUP2 GT ISZERO PUSH2 0xA98 JUMPI PUSH2 0xA97 PUSH2 0xA5B JUMP JUMPDEST JUMPDEST PUSH1 0x20 DUP4 ADD SWAP2 POP DUP4 PUSH1 0x20 DUP3 MUL DUP4 ADD GT ISZERO PUSH2 0xAB4 JUMPI PUSH2 0xAB3 PUSH2 0xA60 JUMP JUMPDEST JUMPDEST SWAP3 POP SWAP3 SWAP1 POP JUMP JUMPDEST PUSH1 0x0 DUP1 DUP4 PUSH1 0x1F DUP5 ADD SLT PUSH2 0xAD1 JUMPI PUSH2 0xAD0 PUSH2 0xA56 JUMP JUMPDEST JUMPDEST DUP3 CALLDATALOAD SWAP1 POP PUSH8 0xFFFFFFFFFFFFFFFF DUP2 GT ISZERO PUSH2 0xAEE JUMPI PUSH2 0xAED PUSH2 0xA5B JUMP JUMPDEST JUMPDEST PUSH1 0x20 DUP4 ADD SWAP2 POP DUP4 PUSH1 0x20 DUP3 MUL DUP4 ADD GT ISZERO PUSH2 0xB0A JUMPI PUSH2 0xB09 PUSH2 0xA60 JUMP JUMPDEST JUMPDEST SWAP3 POP SWAP3 SWAP1 POP JUMP JUMPDEST PUSH1 0x0 DUP1 PUSH1 0x0 DUP1 PUSH1 0x40 DUP6 DUP8 SUB SLT ISZERO PUSH2 0xB2B JUMPI PUSH2 0xB2A PUSH2 0x98D JUMP JUMPDEST JUMPDEST PUSH1 0x0 DUP6 ADD CALLDATALOAD PUSH8 0xFFFFFFFFFFFFFFFF DUP2 GT ISZERO PUSH2 0xB49 JUMPI PUSH2 0xB48 PUSH2 0x992 JUMP JUMPDEST JUMPDEST PUSH2 0xB55 DUP8 DUP3 DUP9 ADD PUSH2 0xA65 JUMP JUMPDEST SWAP5 POP SWAP5 POP POP PUSH1 0x20 DUP6 ADD CALLDATALOAD PUSH8 0xFFFFFFFFFFFFFFFF DUP2 GT ISZERO PUSH2 0xB78 JUMPI PUSH2 0xB77 PUSH2 0x992 JUMP JUMPDEST JUMPDEST PUSH2 0xB84 DUP8 DUP3 DUP9 ADD PUSH2 0xABB JUMP JUMPDEST SWAP3 POP SWAP3 POP POP SWAP3 SWAP6 SWAP2 SWAP5 POP SWAP3 POP JUMP JUMPDEST PUSH1 0x0 DUP2 SWAP1 POP SWAP2 SWAP1 POP JUMP JUMPDEST PUSH1 0x0 PUSH2 0xBB7 PUSH2 0xBB2 PUSH2 0xBAD DUP5 PUSH2 0x997 JUMP JUMPDEST PUSH2 0xB92 JUMP JUMPDEST PUSH2 0x997 JUMP JUMPDEST SWAP1 POP SWAP2 SWAP1 POP JUMP JUMPDEST PUSH1 0x0 PUSH2 0xBC9 DUP3 PUSH2 0xB9C JUMP JUMPDEST SWAP1 POP SWAP2 SWAP1 POP JUMP JUMPDEST PUSH1 0x0 PUSH2 0xBDB DUP3 PUSH2 0xBBE JUMP JUMPDEST SWAP1 POP SWAP2 SWAP1 POP JUMP JUMPDEST PUSH2 0xBEB DUP2 PUSH2 0xBD0 JUMP JUMPDEST DUP3 MSTORE POP POP JUMP JUMPDEST PUSH1 0x0 PUSH1 0x20 DUP3 ADD SWAP1 POP PUSH2 0xC06 PUSH1 0x0 DUP4 ADD DUP5 PUSH2 0xBE2 JUMP JUMPDEST SWAP3 SWAP2 POP POP JUMP JUMPDEST PUSH1 0x0 DUP3 DUP3 MSTORE PUSH1 0x20 DUP3 ADD SWAP1 POP SWAP3 SWAP2 POP POP JUMP JUMPDEST PUSH32 0x52656C656173653A206E6565642073657420546F6B656E204164647265737300 PUSH1 0x0 DUP3 ADD MSTORE POP JUMP JUMPDEST PUSH1 0x0 PUSH2 0xC53 PUSH1 0x1F DUP4 PUSH2 0xC0C JUMP JUMPDEST SWAP2 POP PUSH2 0xC5E DUP3 PUSH2 0xC1D JUMP JUMPDEST PUSH1 0x20 DUP3 ADD SWAP1 POP SWAP2 SWAP1 POP JUMP JUMPDEST PUSH1 0x0 PUSH1 0x20 DUP3 ADD SWAP1 POP DUP2 DUP2 SUB PUSH1 0x0 DUP4 ADD MSTORE PUSH2 0xC82 DUP2 PUSH2 0xC46 JUMP JUMPDEST SWAP1 POP SWAP2 SWAP1 POP JUMP JUMPDEST PUSH32 0x506C6561736520636865636B2074686520646174612C20746865206E65777320 PUSH1 0x0 DUP3 ADD MSTORE PUSH32 0x494420616E6420646973747269627574696F6E207175616E7469747920617265 PUSH1 0x20 DUP3 ADD MSTORE PUSH32 0x20696E636F6E73697374656E7400000000000000000000000000000000000000 PUSH1 0x40 DUP3 ADD MSTORE POP JUMP JUMPDEST PUSH1 0x0 PUSH2 0xD0B PUSH1 0x4D DUP4 PUSH2 0xC0C JUMP JUMPDEST SWAP2 POP PUSH2 0xD16 DUP3 PUSH2 0xC89 JUMP JUMPDEST PUSH1 0x60 DUP3 ADD SWAP1 POP SWAP2 SWAP1 POP JUMP JUMPDEST PUSH1 0x0 PUSH1 0x20 DUP3 ADD SWAP1 POP DUP2 DUP2 SUB PUSH1 0x0 DUP4 ADD MSTORE PUSH2 0xD3A DUP2 PUSH2 0xCFE JUMP JUMPDEST SWAP1 POP SWAP2 SWAP1 POP JUMP JUMPDEST PUSH32 0x4E487B7100000000000000000000000000000000000000000000000000000000 PUSH1 0x0 MSTORE PUSH1 0x32 PUSH1 0x4 MSTORE PUSH1 0x24 PUSH1 0x0 REVERT JUMPDEST PUSH32 0x4E487B7100000000000000000000000000000000000000000000000000000000 PUSH1 0x0 MSTORE PUSH1 0x11 PUSH1 0x4 MSTORE PUSH1 0x24 PUSH1 0x0 REVERT JUMPDEST PUSH1 0x0 PUSH2 0xDAA DUP3 PUSH2 0xA22 JUMP JUMPDEST SWAP2 POP PUSH32 0xFFFFFFFFFFFFFFFFFFFFFFFFFFFFFFFFFFFFFFFFFFFFFFFFFFFFFFFFFFFFFFFF DUP3 SUB PUSH2 0xDDC JUMPI PUSH2 0xDDB PUSH2 0xD70 JUMP JUMPDEST JUMPDEST PUSH1 0x1 DUP3 ADD SWAP1 POP SWAP2 SWAP1 POP JUMP JUMPDEST PUSH32 0x546865206E756D626572206F66206169722064726F7073206578636565647320 PUSH1 0x0 DUP3 ADD MSTORE PUSH32 0x746865206461696C792072656C6561736520616D6F756E740000000000000000 PUSH1 0x20 DUP3 ADD MSTORE POP JUMP JUMPDEST PUSH1 0x0 PUSH2 0xE43 PUSH1 0x38 DUP4 PUSH2 0xC0C JUMP JUMPDEST SWAP2 POP PUSH2 0xE4E DUP3 PUSH2 0xDE7 JUMP JUMPDEST PUSH1 0x40 DUP3 ADD SWAP1 POP SWAP2 SWAP1 POP JUMP JUMPDEST PUSH1 0x0 PUSH1 0x20 DUP3 ADD SWAP1 POP DUP2 DUP2 SUB PUSH1 0x0 DUP4 ADD MSTORE PUSH2 0xE72 DUP2 PUSH2 0xE36 JUMP JUMPDEST SWAP1 POP SWAP2 SWAP1 POP JUMP JUMPDEST PUSH1 0x0 PUSH2 0xE84 DUP3 PUSH2 0xA22 JUMP JUMPDEST SWAP2 POP PUSH2 0xE8F DUP4 PUSH2 0xA22 JUMP JUMPDEST SWAP3 POP DUP3 DUP3 ADD SWAP1 POP DUP1 DUP3 GT ISZERO PUSH2 0xEA7 JUMPI PUSH2 0xEA6 PUSH2 0xD70 JUMP JUMPDEST JUMPDEST SWAP3 SWAP2 POP POP JUMP JUMPDEST PUSH2 0xEB6 DUP2 PUSH2 0x9B7 JUMP JUMPDEST DUP3 MSTORE POP POP JUMP JUMPDEST PUSH1 0x0 PUSH1 0x20 DUP3 ADD SWAP1 POP PUSH2 0xED1 PUSH1 0x0 DUP4 ADD DUP5 PUSH2 0xEAD JUMP JUMPDEST SWAP3 SWAP2 POP POP JUMP JUMPDEST PUSH2 0xEE0 DUP2 PUSH2 0xA22 JUMP JUMPDEST DUP2 EQ PUSH2 0xEEB JUMPI PUSH1 0x0 DUP1 REVERT JUMPDEST POP JUMP JUMPDEST PUSH1 0x0 DUP2 MLOAD SWAP1 POP PUSH2 0xEFD DUP2 PUSH2 0xED7 JUMP JUMPDEST SWAP3 SWAP2 POP POP JUMP JUMPDEST PUSH1 0x0 PUSH1 0x20 DUP3 DUP5 SUB SLT ISZERO PUSH2 0xF19 JUMPI PUSH2 0xF18 PUSH2 0x98D JUMP JUMPDEST JUMPDEST PUSH1 0x0 PUSH2 0xF27 DUP5 DUP3 DUP6 ADD PUSH2 0xEEE JUMP JUMPDEST SWAP2 POP POP SWAP3 SWAP2 POP POP JUMP JUMPDEST PUSH32 0x536166654D6174683A206164646974696F6E206F766572666C6F770000000000 PUSH1 0x0 DUP3 ADD MSTORE POP JUMP JUMPDEST PUSH1 0x0 PUSH2 0xF66 PUSH1 0x1B DUP4 PUSH2 0xC0C JUMP JUMPDEST SWAP2 POP PUSH2 0xF71 DUP3 PUSH2 0xF30 JUMP JUMPDEST PUSH1 0x20 DUP3 ADD SWAP1 POP SWAP2 SWAP1 POP JUMP JUMPDEST PUSH1 0x0 PUSH1 0x20 DUP3 ADD SWAP1 POP DUP2 DUP2 SUB PUSH1 0x0 DUP4 ADD MSTORE PUSH2 0xF95 DUP2 PUSH2 0xF59 JUMP JUMPDEST SWAP1 POP SWAP2 SWAP1 POP JUMP JUMPDEST PUSH1 0x0 PUSH1 0x40 DUP3 ADD SWAP1 POP PUSH2 0xFB1 PUSH1 0x0 DUP4 ADD DUP6 PUSH2 0xEAD JUMP JUMPDEST PUSH2 0xFBE PUSH1 0x20 DUP4 ADD DUP5 PUSH2 0xA2C JUMP JUMPDEST SWAP4 SWAP3 POP POP POP JUMP JUMPDEST PUSH1 0x0 DUP2 ISZERO ISZERO SWAP1 POP SWAP2 SWAP1 POP JUMP JUMPDEST PUSH2 0xFDA DUP2 PUSH2 0xFC5 JUMP JUMPDEST DUP2 EQ PUSH2 0xFE5 JUMPI PUSH1 0x0 DUP1 REVERT JUMPDEST POP JUMP JUMPDEST PUSH1 0x0 DUP2 MLOAD SWAP1 POP PUSH2 0xFF7 DUP2 PUSH2 0xFD1 JUMP JUMPDEST SWAP3 SWAP2 POP POP JUMP JUMPDEST PUSH1 0x0 PUSH1 0x20 DUP3 DUP5 SUB SLT ISZERO PUSH2 0x1013 JUMPI PUSH2 0x1012 PUSH2 0x98D JUMP JUMPDEST JUMPDEST PUSH1 0x0 PUSH2 0x1021 DUP5 DUP3 DUP6 ADD PUSH2 0xFE8 JUMP JUMPDEST SWAP2 POP POP SWAP3 SWAP2 POP POP JUMP JUMPDEST PUSH32 0x5361666545524332303A204552433230206F7065726174696F6E20646964206E PUSH1 0x0 DUP3 ADD MSTORE PUSH32 0x6F74207375636365656400000000000000000000000000000000000000000000 PUSH1 0x20 DUP3 ADD MSTORE POP JUMP JUMPDEST PUSH1 0x0 PUSH2 0x1086 PUSH1 0x2A DUP4 PUSH2 0xC0C JUMP JUMPDEST SWAP2 POP PUSH2 0x1091 DUP3 PUSH2 0x102A JUMP JUMPDEST PUSH1 0x40 DUP3 ADD SWAP1 POP SWAP2 SWAP1 POP JUMP JUMPDEST PUSH1 0x0 PUSH1 0x20 DUP3 ADD SWAP1 POP DUP2 DUP2 SUB PUSH1 0x0 DUP4 ADD MSTORE PUSH2 0x10B5 DUP2 PUSH2 0x1079 JUMP JUMPDEST SWAP1 POP SWAP2 SWAP1 POP JUMP JUMPDEST PUSH32 0x416464726573733A20696E73756666696369656E742062616C616E636520666F PUSH1 0x0 DUP3 ADD MSTORE PUSH32 0x722063616C6C0000000000000000000000000000000000000000000000000000 PUSH1 0x20 DUP3 ADD MSTORE POP JUMP JUMPDEST PUSH1 0x0 PUSH2 0x1118 PUSH1 0x26 DUP4 PUSH2 0xC0C JUMP JUMPDEST SWAP2 POP PUSH2 0x1123 DUP3 PUSH2 0x10BC JUMP JUMPDEST PUSH1 0x40 DUP3 ADD SWAP1 POP SWAP2 SWAP1 POP JUMP JUMPDEST PUSH1 0x0 PUSH1 0x20 DUP3 ADD SWAP1 POP DUP2 DUP2 SUB PUSH1 0x0 DUP4 ADD MSTORE PUSH2 0x1147 DUP2 PUSH2 0x110B JUMP JUMPDEST SWAP1 POP SWAP2 SWAP1 POP JUMP JUMPDEST PUSH32 0x416464726573733A2063616C6C20746F206E6F6E2D636F6E7472616374000000 PUSH1 0x0 DUP3 ADD MSTORE POP JUMP JUMPDEST PUSH1 0x0 PUSH2 0x1184 PUSH1 0x1D DUP4 PUSH2 0xC0C JUMP JUMPDEST SWAP2 POP PUSH2 0x118F DUP3 PUSH2 0x114E JUMP JUMPDEST PUSH1 0x20 DUP3 ADD SWAP1 POP SWAP2 SWAP1 POP JUMP JUMPDEST PUSH1 0x0 PUSH1 0x20 DUP3 ADD SWAP1 POP DUP2 DUP2 SUB PUSH1 0x0 DUP4 ADD MSTORE PUSH2 0x11B3 DUP2 PUSH2 0x1177 JUMP JUMPDEST SWAP1 POP SWAP2 SWAP1 POP JUMP JUMPDEST PUSH1 0x0 DUP2 MLOAD SWAP1 POP SWAP2 SWAP1 POP JUMP JUMPDEST PUSH1 0x0 DUP2 SWAP1 POP SWAP3 SWAP2 POP POP JUMP JUMPDEST PUSH1 0x0 JUMPDEST DUP4 DUP2 LT ISZERO PUSH2 0x11EE JUMPI DUP1 DUP3 ADD MLOAD DUP2 DUP5 ADD MSTORE PUSH1 0x20 DUP2 ADD SWAP1 POP PUSH2 0x11D3 JUMP JUMPDEST PUSH1 0x0 DUP5 DUP5 ADD MSTORE POP POP POP POP JUMP JUMPDEST PUSH1 0x0 PUSH2 0x1205 DUP3 PUSH2 0x11BA JUMP JUMPDEST PUSH2 0x120F DUP2 DUP6 PUSH2 0x11C5 JUMP JUMPDEST SWAP4 POP PUSH2 0x121F DUP2 DUP6 PUSH1 0x20 DUP7 ADD PUSH2 0x11D0 JUMP JUMPDEST DUP1 DUP5 ADD SWAP2 POP POP SWAP3 SWAP2 POP POP JUMP JUMPDEST PUSH1 0x0 PUSH2 0x1237 DUP3 DUP5 PUSH2 0x11FA JUMP JUMPDEST SWAP2 POP DUP2 SWAP1 POP SWAP3 SWAP2 POP POP JUMP JUMPDEST PUSH1 0x0 DUP2 MLOAD SWAP1 POP SWAP2 SWAP1 POP JUMP JUMPDEST PUSH1 0x0 PUSH1 0x1F NOT PUSH1 0x1F DUP4 ADD AND SWAP1 POP SWAP2 SWAP1 POP JUMP JUMPDEST PUSH1 0x0 PUSH2 0x1269 DUP3 PUSH2 0x1242 JUMP JUMPDEST PUSH2 0x1273 DUP2 DUP6 PUSH2 0xC0C JUMP JUMPDEST SWAP4 POP PUSH2 0x1283 DUP2 DUP6 PUSH1 0x20 DUP7 ADD PUSH2 0x11D0 JUMP JUMPDEST PUSH2 0x128C DUP2 PUSH2 0x124D JUMP JUMPDEST DUP5 ADD SWAP2 POP POP SWAP3 SWAP2 POP POP JUMP JUMPDEST PUSH1 0x0 PUSH1 0x20 DUP3 ADD SWAP1 POP DUP2 DUP2 SUB PUSH1 0x0 DUP4 ADD MSTORE PUSH2 0x12B1 DUP2 DUP5 PUSH2 0x125E JUMP JUMPDEST SWAP1 POP SWAP3 SWAP2 POP POP JUMP INVALID LOG2 PUSH5 0x6970667358 0x22 SLT KECCAK256 0xB4 PUSH30 0x9141EF88719E6376433E78C8B9EA3453AE0FAD900F74A232767B135ACD7B PUSH5 0x736F6C6343 STOP ADDMOD SGT STOP CALLER "
				},
				"gasEstimates": {
					"creation": {
						"codeDepositCost": "969400",
						"executionCost": "47380",
						"totalCost": "1016780"
					},
					"external": {
						"changeOwner(address)": "26936",
						"decimals()": "2460",
						"distributionToSpecify(address[],uint256[])": "infinite",
						"getTotalReleased()": "2482",
						"setTokenAddress(address)": "26893",
						"token()": "infinite",
						"tokenBalance()": "infinite"
					}
				},
				"methodIdentifiers": {
					"changeOwner(address)": "a6f9dae1",
					"decimals()": "313ce567",
					"distributionToSpecify(address[],uint256[])": "5459b8a3",
					"getTotalReleased()": "4b14c0ef",
					"setTokenAddress(address)": "26a4e8d2",
					"token()": "fc0c546a",
					"tokenBalance()": "9e1a4d19"
				}
			},
			"storageLayout": {
				"storage": [
					{
						"astId": 751,
						"contract": "my_contract/6.funPool.sol:FunPool",
						"label": "_token",
						"offset": 0,
						"slot": "0",
						"type": "t_contract(IERC20)75"
					},
					{
						"astId": 754,
						"contract": "my_contract/6.funPool.sol:FunPool",
						"label": "_decimals",
						"offset": 0,
						"slot": "1",
						"type": "t_uint256"
					},
					{
						"astId": 756,
						"contract": "my_contract/6.funPool.sol:FunPool",
						"label": "_totalReleased",
						"offset": 0,
						"slot": "2",
						"type": "t_uint256"
					},
					{
						"astId": 758,
						"contract": "my_contract/6.funPool.sol:FunPool",
						"label": "_owner",
						"offset": 0,
						"slot": "3",
						"type": "t_address"
					}
				],
				"types": {
					"t_address": {
						"encoding": "inplace",
						"label": "address",
						"numberOfBytes": "20"
					},
					"t_contract(IERC20)75": {
						"encoding": "inplace",
						"label": "contract IERC20",
						"numberOfBytes": "20"
					},
					"t_uint256": {
						"encoding": "inplace",
						"label": "uint256",
						"numberOfBytes": "32"
					}
				}
			},
			"userdoc": {
				"kind": "user",
				"methods": {},
				"version": 1
			}
		}
	}
}