{
	"challeng/my_contract/distribution.sol": {
		"Distribution": {
			"abi": [
				{
					"inputs": [],
					"stateMutability": "nonpayable",
					"type": "constructor"
				},
				{
					"inputs": [
						{
							"internalType": "address",
							"name": "newOwner",
							"type": "address"
						}
					],
					"name": "changeOwner",
					"outputs": [],
					"stateMutability": "nonpayable",
					"type": "function"
				},
				{
					"inputs": [],
					"name": "decimals",
					"outputs": [
						{
							"internalType": "uint256",
							"name": "",
							"type": "uint256"
						}
					],
					"stateMutability": "view",
					"type": "function"
				},
				{
					"inputs": [],
					"name": "distributionToChannelRewardsAddress",
					"outputs": [],
					"stateMutability": "nonpayable",
					"type": "function"
				},
				{
					"inputs": [],
					"name": "distributionToFunPoolAddress",
					"outputs": [],
					"stateMutability": "nonpayable",
					"type": "function"
				},
				{
					"inputs": [
						{
							"internalType": "address[]",
							"name": "recipients",
							"type": "address[]"
						},
						{
							"internalType": "uint256[]",
							"name": "values",
							"type": "uint256[]"
						}
					],
					"name": "distributionToSpecify",
					"outputs": [],
					"stateMutability": "nonpayable",
					"type": "function"
				},
				{
					"inputs": [],
					"name": "getChannelRewardsAddress",
					"outputs": [
						{
							"internalType": "address",
							"name": "",
							"type": "address"
						}
					],
					"stateMutability": "view",
					"type": "function"
				},
				{
					"inputs": [],
					"name": "getContractAddrss",
					"outputs": [
						{
							"internalType": "address",
							"name": "",
							"type": "address"
						}
					],
					"stateMutability": "view",
					"type": "function"
				},
				{
					"inputs": [],
					"name": "getFunPoolAddress",
					"outputs": [
						{
							"internalType": "address",
							"name": "",
							"type": "address"
						}
					],
					"stateMutability": "view",
					"type": "function"
				},
				{
					"inputs": [],
					"name": "getLockContractAddress",
					"outputs": [
						{
							"internalType": "address",
							"name": "",
							"type": "address"
						}
					],
					"stateMutability": "view",
					"type": "function"
				},
				{
					"inputs": [],
					"name": "getReleaseContractAddress",
					"outputs": [
						{
							"internalType": "address",
							"name": "",
							"type": "address"
						}
					],
					"stateMutability": "view",
					"type": "function"
				},
				{
					"inputs": [],
					"name": "getTimestamp",
					"outputs": [
						{
							"internalType": "uint256",
							"name": "",
							"type": "uint256"
						}
					],
					"stateMutability": "view",
					"type": "function"
				},
				{
					"inputs": [],
					"name": "getTotalReleased",
					"outputs": [
						{
							"internalType": "uint256",
							"name": "",
							"type": "uint256"
						}
					],
					"stateMutability": "view",
					"type": "function"
				},
				{
					"inputs": [
						{
							"internalType": "string[]",
							"name": "themeId",
							"type": "string[]"
						},
						{
							"internalType": "uint256[]",
							"name": "values",
							"type": "uint256[]"
						}
					],
					"name": "sendMasterToken",
					"outputs": [],
					"stateMutability": "nonpayable",
					"type": "function"
				},
				{
					"inputs": [
						{
							"internalType": "string[]",
							"name": "themeId",
							"type": "string[]"
						},
						{
							"internalType": "uint256[]",
							"name": "values",
							"type": "uint256[]"
						}
					],
					"name": "sendMasterTokenLock",
					"outputs": [],
					"stateMutability": "nonpayable",
					"type": "function"
				},
				{
					"inputs": [
						{
							"internalType": "address",
							"name": "contractAddrss",
							"type": "address"
						}
					],
					"name": "setChallengContract",
					"outputs": [],
					"stateMutability": "nonpayable",
					"type": "function"
				},
				{
					"inputs": [
						{
							"internalType": "address",
							"name": "channelRewardsAddress",
							"type": "address"
						}
					],
					"name": "setChannelRewardsAddress",
					"outputs": [],
					"stateMutability": "nonpayable",
					"type": "function"
				},
				{
					"inputs": [
						{
							"internalType": "address",
							"name": "funPoolAddress",
							"type": "address"
						}
					],
					"name": "setFunPoolAddress",
					"outputs": [],
					"stateMutability": "nonpayable",
					"type": "function"
				},
				{
					"inputs": [
						{
							"internalType": "address",
							"name": "lockContractAddress",
							"type": "address"
						}
					],
					"name": "setLockContractAddress",
					"outputs": [],
					"stateMutability": "nonpayable",
					"type": "function"
				},
				{
					"inputs": [
						{
							"internalType": "address",
							"name": "receivingAddress",
							"type": "address"
						}
					],
					"name": "setReceivingAddress",
					"outputs": [],
					"stateMutability": "nonpayable",
					"type": "function"
				},
				{
					"inputs": [
						{
							"internalType": "address",
							"name": "releaseContractAddress",
							"type": "address"
						}
					],
					"name": "setReleaseContractAddress",
					"outputs": [],
					"stateMutability": "nonpayable",
					"type": "function"
				},
				{
					"inputs": [
						{
							"internalType": "address",
							"name": "tokenAddress",
							"type": "address"
						}
					],
					"name": "setTokenAddress",
					"outputs": [],
					"stateMutability": "nonpayable",
					"type": "function"
				},
				{
					"inputs": [],
					"name": "token",
					"outputs": [
						{
							"internalType": "contract IERC20",
							"name": "",
							"type": "address"
						}
					],
					"stateMutability": "view",
					"type": "function"
				},
				{
					"inputs": [],
					"name": "tokenBalance",
					"outputs": [
						{
							"internalType": "uint256",
							"name": "",
							"type": "uint256"
						}
					],
					"stateMutability": "view",
					"type": "function"
				}
			],
			"devdoc": {
				"details": "The Ownable contract has an owner address, and provides basic authorization control functions, this simplifies the implementation of \"user permissions\".",
				"kind": "dev",
				"methods": {
					"token()": {
						"details": "Returns the token being held."
					}
				},
				"title": "Ownable",
				"version": 1
			},
			"evm": {
				"assembly": "    /* \"challeng/my_contract/distribution.sol\":19703:29318  contract Distribution   {... */\n  mstore(0x40, 0x80)\n    /* \"challeng/my_contract/distribution.sol\":20233:20234  5 */\n  0x05\n    /* \"challeng/my_contract/distribution.sol\":20202:20234  uint256 private funPoolScale = 5 */\n  0x06\n  sstore\n    /* \"challeng/my_contract/distribution.sol\":20305:20306  5 */\n  0x05\n    /* \"challeng/my_contract/distribution.sol\":20267:20306  uint256 private channelRewardsScale = 5 */\n  0x07\n  sstore\n    /* \"challeng/my_contract/distribution.sol\":20414:20416  18 */\n  0x12\n    /* \"challeng/my_contract/distribution.sol\":20386:20416  uint256 private _decimals = 18 */\n  0x09\n  sstore\n    /* \"challeng/my_contract/distribution.sol\":20546:20608  constructor() {... */\n  callvalue\n  dup1\n  iszero\n  tag_1\n  jumpi\n  0x00\n  dup1\n  revert\ntag_1:\n  pop\n    /* \"challeng/my_contract/distribution.sol\":20580:20590  msg.sender */\n  caller\n    /* \"challeng/my_contract/distribution.sol\":20571:20577  _owner */\n  0x0b\n  0x00\n    /* \"challeng/my_contract/distribution.sol\":20571:20590  _owner = msg.sender */\n  0x0100\n  exp\n  dup2\n  sload\n  dup2\n  0xffffffffffffffffffffffffffffffffffffffff\n  mul\n  not\n  and\n  swap1\n  dup4\n  0xffffffffffffffffffffffffffffffffffffffff\n  and\n  mul\n  or\n  swap1\n  sstore\n  pop\n    /* \"challeng/my_contract/distribution.sol\":19703:29318  contract Distribution   {... */\n  dataSize(sub_0)\n  dup1\n  dataOffset(sub_0)\n  0x00\n  codecopy\n  0x00\n  return\nstop\n\nsub_0: assembly {\n        /* \"challeng/my_contract/distribution.sol\":19703:29318  contract Distribution   {... */\n      mstore(0x40, 0x80)\n      callvalue\n      dup1\n      iszero\n      tag_1\n      jumpi\n      0x00\n      dup1\n      revert\n    tag_1:\n      pop\n      jumpi(tag_2, lt(calldatasize, 0x04))\n      shr(0xe0, calldataload(0x00))\n      dup1\n      0x9e1a4d19\n      gt\n      tag_26\n      jumpi\n      dup1\n      0xbbf20774\n      gt\n      tag_27\n      jumpi\n      dup1\n      0xbbf20774\n      eq\n      tag_20\n      jumpi\n      dup1\n      0xc1723009\n      eq\n      tag_21\n      jumpi\n      dup1\n      0xc4529e37\n      eq\n      tag_22\n      jumpi\n      dup1\n      0xc52c31fa\n      eq\n      tag_23\n      jumpi\n      dup1\n      0xfba825fe\n      eq\n      tag_24\n      jumpi\n      dup1\n      0xfc0c546a\n      eq\n      tag_25\n      jumpi\n      jump(tag_2)\n    tag_27:\n      dup1\n      0x9e1a4d19\n      eq\n      tag_14\n      jumpi\n      dup1\n      0xa39865e7\n      eq\n      tag_15\n      jumpi\n      dup1\n      0xa6f9dae1\n      eq\n      tag_16\n      jumpi\n      dup1\n      0xaa807ba4\n      eq\n      tag_17\n      jumpi\n      dup1\n      0xb8c11803\n      eq\n      tag_18\n      jumpi\n      dup1\n      0xbb7fa2e6\n      eq\n      tag_19\n      jumpi\n      jump(tag_2)\n    tag_26:\n      dup1\n      0x2a5f669a\n      gt\n      tag_28\n      jumpi\n      dup1\n      0x2a5f669a\n      eq\n      tag_8\n      jumpi\n      dup1\n      0x313ce567\n      eq\n      tag_9\n      jumpi\n      dup1\n      0x3c0e473c\n      eq\n      tag_10\n      jumpi\n      dup1\n      0x47a58626\n      eq\n      tag_11\n      jumpi\n      dup1\n      0x4b14c0ef\n      eq\n      tag_12\n      jumpi\n      dup1\n      0x5459b8a3\n      eq\n      tag_13\n      jumpi\n      jump(tag_2)\n    tag_28:\n      dup1\n      0x0af8668f\n      eq\n      tag_3\n      jumpi\n      dup1\n      0x119f2590\n      eq\n      tag_4\n      jumpi\n      dup1\n      0x159eea95\n      eq\n      tag_5\n      jumpi\n      dup1\n      0x188ec356\n      eq\n      tag_6\n      jumpi\n      dup1\n      0x26a4e8d2\n      eq\n      tag_7\n      jumpi\n    tag_2:\n      0x00\n      dup1\n      revert\n        /* \"challeng/my_contract/distribution.sol\":23806:25098  function sendMasterTokenLock(string[] memory themeId,uint256[] memory values) public  onlyOwner  (){... */\n    tag_3:\n      tag_29\n      0x04\n      dup1\n      calldatasize\n      sub\n      dup2\n      add\n      swap1\n      tag_30\n      swap2\n      swap1\n      tag_31\n      jump\t// in\n    tag_30:\n      tag_32\n      jump\t// in\n    tag_29:\n      stop\n        /* \"challeng/my_contract/distribution.sol\":21071:21215  function setReceivingAddress(address receivingAddress) public virtual onlyOwner {... */\n    tag_4:\n      tag_33\n      0x04\n      dup1\n      calldatasize\n      sub\n      dup2\n      add\n      swap1\n      tag_34\n      swap2\n      swap1\n      tag_35\n      jump\t// in\n    tag_34:\n      tag_36\n      jump\t// in\n    tag_33:\n      stop\n        /* \"challeng/my_contract/distribution.sol\":26541:27300  function distributionToFunPoolAddress() public {... */\n    tag_5:\n      tag_37\n      tag_38\n      jump\t// in\n    tag_37:\n      stop\n        /* \"challeng/my_contract/distribution.sol\":23576:23679  function getTimestamp() public view virtual returns (uint256) {... */\n    tag_6:\n      tag_39\n      tag_40\n      jump\t// in\n    tag_39:\n      mload(0x40)\n      tag_41\n      swap2\n      swap1\n      tag_42\n      jump\t// in\n    tag_41:\n      mload(0x40)\n      dup1\n      swap2\n      sub\n      swap1\n      return\n        /* \"challeng/my_contract/distribution.sol\":20878:21001  function setTokenAddress(address tokenAddress ) public virtual   onlyOwner {... */\n    tag_7:\n      tag_43\n      0x04\n      dup1\n      calldatasize\n      sub\n      dup2\n      add\n      swap1\n      tag_44\n      swap2\n      swap1\n      tag_35\n      jump\t// in\n    tag_44:\n      tag_45\n      jump\t// in\n    tag_43:\n      stop\n        /* \"challeng/my_contract/distribution.sol\":25199:26487  function sendMasterToken(string[] memory themeId,uint256[] memory values) public  onlyOwner  (){... */\n    tag_8:\n      tag_46\n      0x04\n      dup1\n      calldatasize\n      sub\n      dup2\n      add\n      swap1\n      tag_47\n      swap2\n      swap1\n      tag_31\n      jump\t// in\n    tag_47:\n      tag_48\n      jump\t// in\n    tag_46:\n      stop\n        /* \"challeng/my_contract/distribution.sol\":21491:21584  function decimals() public view virtual returns (uint256) {... */\n    tag_9:\n      tag_49\n      tag_50\n      jump\t// in\n    tag_49:\n      mload(0x40)\n      tag_51\n      swap2\n      swap1\n      tag_42\n      jump\t// in\n    tag_51:\n      mload(0x40)\n      dup1\n      swap2\n      sub\n      swap1\n      return\n        /* \"challeng/my_contract/distribution.sol\":23115:23227  function getChannelRewardsAddress() public view returns(address){... */\n    tag_10:\n      tag_52\n      tag_53\n      jump\t// in\n    tag_52:\n      mload(0x40)\n      tag_54\n      swap2\n      swap1\n      tag_55\n      jump\t// in\n    tag_54:\n      mload(0x40)\n      dup1\n      swap2\n      sub\n      swap1\n      return\n        /* \"challeng/my_contract/distribution.sol\":22164:22262  function getContractAddrss() public view returns(address){... */\n    tag_11:\n      tag_56\n      tag_57\n      jump\t// in\n    tag_56:\n      mload(0x40)\n      tag_58\n      swap2\n      swap1\n      tag_55\n      jump\t// in\n    tag_58:\n      mload(0x40)\n      dup1\n      swap2\n      sub\n      swap1\n      return\n        /* \"challeng/my_contract/distribution.sol\":21595:21701  function getTotalReleased() public view virtual returns (uint256) {... */\n    tag_12:\n      tag_59\n      tag_60\n      jump\t// in\n    tag_59:\n      mload(0x40)\n      tag_61\n      swap2\n      swap1\n      tag_42\n      jump\t// in\n    tag_61:\n      mload(0x40)\n      dup1\n      swap2\n      sub\n      swap1\n      return\n        /* \"challeng/my_contract/distribution.sol\":28196:29313  function  distributionToSpecify(address[] calldata recipients, uint256[] calldata values) public virtual {... */\n    tag_13:\n      tag_62\n      0x04\n      dup1\n      calldatasize\n      sub\n      dup2\n      add\n      swap1\n      tag_63\n      swap2\n      swap1\n      tag_64\n      jump\t// in\n    tag_63:\n      tag_65\n      jump\t// in\n    tag_62:\n      stop\n        /* \"challeng/my_contract/distribution.sol\":21721:21954  function tokenBalance() public view virtual returns (uint256) {... */\n    tag_14:\n      tag_66\n      tag_67\n      jump\t// in\n    tag_66:\n      mload(0x40)\n      tag_68\n      swap2\n      swap1\n      tag_42\n      jump\t// in\n    tag_68:\n      mload(0x40)\n      dup1\n      swap2\n      sub\n      swap1\n      return\n        /* \"challeng/my_contract/distribution.sol\":22475:22583  function getLockContractAddress() public view returns(address){... */\n    tag_15:\n      tag_69\n      tag_70\n      jump\t// in\n    tag_69:\n      mload(0x40)\n      tag_71\n      swap2\n      swap1\n      tag_55\n      jump\t// in\n    tag_71:\n      mload(0x40)\n      dup1\n      swap2\n      sub\n      swap1\n      return\n        /* \"challeng/my_contract/distribution.sol\":21228:21320  function changeOwner(address newOwner) public onlyOwner {... */\n    tag_16:\n      tag_72\n      0x04\n      dup1\n      calldatasize\n      sub\n      dup2\n      add\n      swap1\n      tag_73\n      swap2\n      swap1\n      tag_35\n      jump\t// in\n    tag_73:\n      tag_74\n      jump\t// in\n    tag_72:\n      stop\n        /* \"challeng/my_contract/distribution.sol\":22628:22737  function setFunPoolAddress(address funPoolAddress) public {... */\n    tag_17:\n      tag_75\n      0x04\n      dup1\n      calldatasize\n      sub\n      dup2\n      add\n      swap1\n      tag_76\n      swap2\n      swap1\n      tag_35\n      jump\t// in\n    tag_76:\n      tag_77\n      jump\t// in\n    tag_75:\n      stop\n        /* \"challeng/my_contract/distribution.sol\":23454:23568  function getReleaseContractAddress() public view returns(address){... */\n    tag_18:\n      tag_78\n      tag_79\n      jump\t// in\n    tag_78:\n      mload(0x40)\n      tag_80\n      swap2\n      swap1\n      tag_55\n      jump\t// in\n    tag_80:\n      mload(0x40)\n      dup1\n      swap2\n      sub\n      swap1\n      return\n        /* \"challeng/my_contract/distribution.sol\":27354:28159  function distributionToChannelRewardsAddress() public {... */\n    tag_19:\n      tag_81\n      tag_82\n      jump\t// in\n    tag_81:\n      stop\n        /* \"challeng/my_contract/distribution.sol\":22928:23065  function setChannelRewardsAddress(address channelRewardsAddress) public {... */\n    tag_20:\n      tag_83\n      0x04\n      dup1\n      calldatasize\n      sub\n      dup2\n      add\n      swap1\n      tag_84\n      swap2\n      swap1\n      tag_35\n      jump\t// in\n    tag_84:\n      tag_85\n      jump\t// in\n    tag_83:\n      stop\n        /* \"challeng/my_contract/distribution.sol\":22784:22882  function getFunPoolAddress() public view returns(address){... */\n    tag_21:\n      tag_86\n      tag_87\n      jump\t// in\n    tag_86:\n      mload(0x40)\n      tag_88\n      swap2\n      swap1\n      tag_55\n      jump\t// in\n    tag_88:\n      mload(0x40)\n      dup1\n      swap2\n      sub\n      swap1\n      return\n        /* \"challeng/my_contract/distribution.sol\":22302:22431  function setLockContractAddress(address lockContractAddress) public {... */\n    tag_22:\n      tag_89\n      0x04\n      dup1\n      calldatasize\n      sub\n      dup2\n      add\n      swap1\n      tag_90\n      swap2\n      swap1\n      tag_35\n      jump\t// in\n    tag_90:\n      tag_91\n      jump\t// in\n    tag_89:\n      stop\n        /* \"challeng/my_contract/distribution.sol\":22009:22120  function setChallengContract(address contractAddrss) public {... */\n    tag_23:\n      tag_92\n      0x04\n      dup1\n      calldatasize\n      sub\n      dup2\n      add\n      swap1\n      tag_93\n      swap2\n      swap1\n      tag_35\n      jump\t// in\n    tag_93:\n      tag_94\n      jump\t// in\n    tag_92:\n      stop\n        /* \"challeng/my_contract/distribution.sol\":23269:23410  function setReleaseContractAddress(address releaseContractAddress) public {... */\n    tag_24:\n      tag_95\n      0x04\n      dup1\n      calldatasize\n      sub\n      dup2\n      add\n      swap1\n      tag_96\n      swap2\n      swap1\n      tag_35\n      jump\t// in\n    tag_96:\n      tag_97\n      jump\t// in\n    tag_95:\n      stop\n        /* \"challeng/my_contract/distribution.sol\":21391:21477  function token() public view virtual returns (IERC20) {... */\n    tag_25:\n      tag_98\n      tag_99\n      jump\t// in\n    tag_98:\n      mload(0x40)\n      tag_100\n      swap2\n      swap1\n      tag_101\n      jump\t// in\n    tag_100:\n      mload(0x40)\n      dup1\n      swap2\n      sub\n      swap1\n      return\n        /* \"challeng/my_contract/distribution.sol\":23806:25098  function sendMasterTokenLock(string[] memory themeId,uint256[] memory values) public  onlyOwner  (){... */\n    tag_32:\n        /* \"challeng/my_contract/distribution.sol\":20757:20763  _owner */\n      0x0b\n      0x00\n      swap1\n      sload\n      swap1\n      0x0100\n      exp\n      swap1\n      div\n      0xffffffffffffffffffffffffffffffffffffffff\n      and\n        /* \"challeng/my_contract/distribution.sol\":20743:20763  msg.sender == _owner */\n      0xffffffffffffffffffffffffffffffffffffffff\n      and\n        /* \"challeng/my_contract/distribution.sol\":20743:20753  msg.sender */\n      caller\n        /* \"challeng/my_contract/distribution.sol\":20743:20763  msg.sender == _owner */\n      0xffffffffffffffffffffffffffffffffffffffff\n      and\n      eq\n        /* \"challeng/my_contract/distribution.sol\":20735:20764  require(msg.sender == _owner) */\n      tag_103\n      jumpi\n      0x00\n      dup1\n      revert\n    tag_103:\n        /* \"challeng/my_contract/distribution.sol\":23942:23948  values */\n      dup1\n        /* \"challeng/my_contract/distribution.sol\":23942:23955  values.length */\n      mload\n        /* \"challeng/my_contract/distribution.sol\":23924:23931  themeId */\n      dup3\n        /* \"challeng/my_contract/distribution.sol\":23924:23938  themeId.length */\n      mload\n        /* \"challeng/my_contract/distribution.sol\":23924:23955  themeId.length == values.length */\n      eq\n        /* \"challeng/my_contract/distribution.sol\":23916:24036  require(themeId.length == values.length,\"Please check the data, the news ID and distribution quantity are inconsistent\") */\n      tag_105\n      jumpi\n      mload(0x40)\n      0x08c379a000000000000000000000000000000000000000000000000000000000\n      dup2\n      mstore\n      0x04\n      add\n      tag_106\n      swap1\n      tag_107\n      jump\t// in\n    tag_106:\n      mload(0x40)\n      dup1\n      swap2\n      sub\n      swap1\n      revert\n    tag_105:\n        /* \"challeng/my_contract/distribution.sol\":24083:24084  0 */\n      0x00\n        /* \"challeng/my_contract/distribution.sol\":24055:24085  address(token()) != address(0) */\n      0xffffffffffffffffffffffffffffffffffffffff\n      and\n        /* \"challeng/my_contract/distribution.sol\":24063:24070  token() */\n      tag_108\n        /* \"challeng/my_contract/distribution.sol\":24063:24068  token */\n      tag_99\n        /* \"challeng/my_contract/distribution.sol\":24063:24070  token() */\n      jump\t// in\n    tag_108:\n        /* \"challeng/my_contract/distribution.sol\":24055:24085  address(token()) != address(0) */\n      0xffffffffffffffffffffffffffffffffffffffff\n      and\n      sub\n        /* \"challeng/my_contract/distribution.sol\":24047:24122  require(address(token()) != address(0) , \"Release: need set Token Address\") */\n      tag_109\n      jumpi\n      mload(0x40)\n      0x08c379a000000000000000000000000000000000000000000000000000000000\n      dup2\n      mstore\n      0x04\n      add\n      tag_110\n      swap1\n      tag_111\n      jump\t// in\n    tag_110:\n      mload(0x40)\n      dup1\n      swap2\n      sub\n      swap1\n      revert\n    tag_109:\n        /* \"challeng/my_contract/distribution.sol\":24181:24182  0 */\n      0x00\n        /* \"challeng/my_contract/distribution.sol\":24141:24183  address(getContractAddrss()) != address(0) */\n      0xffffffffffffffffffffffffffffffffffffffff\n      and\n        /* \"challeng/my_contract/distribution.sol\":24149:24168  getContractAddrss() */\n      tag_112\n        /* \"challeng/my_contract/distribution.sol\":24149:24166  getContractAddrss */\n      tag_57\n        /* \"challeng/my_contract/distribution.sol\":24149:24168  getContractAddrss() */\n      jump\t// in\n    tag_112:\n        /* \"challeng/my_contract/distribution.sol\":24141:24183  address(getContractAddrss()) != address(0) */\n      0xffffffffffffffffffffffffffffffffffffffff\n      and\n      sub\n        /* \"challeng/my_contract/distribution.sol\":24133:24232  require(address(getContractAddrss()) != address(0) , \"Release: need set Challeng Contract Address\") */\n      tag_113\n      jumpi\n      mload(0x40)\n      0x08c379a000000000000000000000000000000000000000000000000000000000\n      dup2\n      mstore\n      0x04\n      add\n      tag_114\n      swap1\n      tag_115\n      jump\t// in\n    tag_114:\n      mload(0x40)\n      dup1\n      swap2\n      sub\n      swap1\n      revert\n    tag_113:\n        /* \"challeng/my_contract/distribution.sol\":24245:24262  uint256 sendTotal */\n      0x00\n        /* \"challeng/my_contract/distribution.sol\":24281:24290  uint256 i */\n      dup1\n        /* \"challeng/my_contract/distribution.sol\":24277:24373  for(uint256 i=0;i<values.length;i++){... */\n    tag_116:\n        /* \"challeng/my_contract/distribution.sol\":24295:24301  values */\n      dup3\n        /* \"challeng/my_contract/distribution.sol\":24295:24308  values.length */\n      mload\n        /* \"challeng/my_contract/distribution.sol\":24293:24294  i */\n      dup2\n        /* \"challeng/my_contract/distribution.sol\":24293:24308  i<values.length */\n      lt\n        /* \"challeng/my_contract/distribution.sol\":24277:24373  for(uint256 i=0;i<values.length;i++){... */\n      iszero\n      tag_117\n      jumpi\n        /* \"challeng/my_contract/distribution.sol\":24352:24358  values */\n      dup3\n        /* \"challeng/my_contract/distribution.sol\":24359:24360  i */\n      dup2\n        /* \"challeng/my_contract/distribution.sol\":24352:24361  values[i] */\n      dup2\n      mload\n      dup2\n      lt\n      tag_119\n      jumpi\n      tag_120\n      tag_121\n      jump\t// in\n    tag_120:\n    tag_119:\n      0x20\n      mul\n      0x20\n      add\n      add\n      mload\n        /* \"challeng/my_contract/distribution.sol\":24340:24349  sendTotal */\n      dup3\n        /* \"challeng/my_contract/distribution.sol\":24340:24361  sendTotal + values[i] */\n      tag_122\n      swap2\n      swap1\n      tag_123\n      jump\t// in\n    tag_122:\n        /* \"challeng/my_contract/distribution.sol\":24328:24361  sendTotal = sendTotal + values[i] */\n      swap2\n      pop\n        /* \"challeng/my_contract/distribution.sol\":24309:24312  i++ */\n      dup1\n      dup1\n      tag_124\n      swap1\n      tag_125\n      jump\t// in\n    tag_124:\n      swap2\n      pop\n      pop\n        /* \"challeng/my_contract/distribution.sol\":24277:24373  for(uint256 i=0;i<values.length;i++){... */\n      jump(tag_116)\n    tag_117:\n      pop\n        /* \"challeng/my_contract/distribution.sol\":24411:24420  sendTotal */\n      dup1\n        /* \"challeng/my_contract/distribution.sol\":24393:24407  tokenBalance() */\n      tag_126\n        /* \"challeng/my_contract/distribution.sol\":24393:24405  tokenBalance */\n      tag_67\n        /* \"challeng/my_contract/distribution.sol\":24393:24407  tokenBalance() */\n      jump\t// in\n    tag_126:\n        /* \"challeng/my_contract/distribution.sol\":24393:24420  tokenBalance() >= sendTotal */\n      lt\n      iszero\n        /* \"challeng/my_contract/distribution.sol\":24385:24487  require(tokenBalance() >= sendTotal , \"Release: Insufficient total amount available for distribution\") */\n      tag_127\n      jumpi\n      mload(0x40)\n      0x08c379a000000000000000000000000000000000000000000000000000000000\n      dup2\n      mstore\n      0x04\n      add\n      tag_128\n      swap1\n      tag_129\n      jump\t// in\n    tag_128:\n      mload(0x40)\n      dup1\n      swap2\n      sub\n      swap1\n      revert\n    tag_127:\n        /* \"challeng/my_contract/distribution.sol\":24500:24533  ChallengContract challengContract */\n      0x00\n        /* \"challeng/my_contract/distribution.sol\":24553:24572  getContractAddrss() */\n      tag_130\n        /* \"challeng/my_contract/distribution.sol\":24553:24570  getContractAddrss */\n      tag_57\n        /* \"challeng/my_contract/distribution.sol\":24553:24572  getContractAddrss() */\n      jump\t// in\n    tag_130:\n        /* \"challeng/my_contract/distribution.sol\":24500:24573  ChallengContract challengContract = ChallengContract(getContractAddrss()) */\n      swap1\n      pop\n        /* \"challeng/my_contract/distribution.sol\":24588:24597  uint256 i */\n      0x00\n        /* \"challeng/my_contract/distribution.sol\":24584:25091  for(uint256 i=0;i<themeId.length;i++){... */\n    tag_131:\n        /* \"challeng/my_contract/distribution.sol\":24602:24609  themeId */\n      dup5\n        /* \"challeng/my_contract/distribution.sol\":24602:24616  themeId.length */\n      mload\n        /* \"challeng/my_contract/distribution.sol\":24600:24601  i */\n      dup2\n        /* \"challeng/my_contract/distribution.sol\":24600:24616  i<themeId.length */\n      lt\n        /* \"challeng/my_contract/distribution.sol\":24584:25091  for(uint256 i=0;i<themeId.length;i++){... */\n      iszero\n      tag_132\n      jumpi\n        /* \"challeng/my_contract/distribution.sol\":24636:24675  ChallengContract.Theme memory themeInfo */\n      0x00\n        /* \"challeng/my_contract/distribution.sol\":24680:24696  challengContract */\n      dup3\n        /* \"challeng/my_contract/distribution.sol\":24680:24718  challengContract.getTotalRewardByTheme */\n      0xffffffffffffffffffffffffffffffffffffffff\n      and\n      0x6441f9d0\n        /* \"challeng/my_contract/distribution.sol\":24719:24726  themeId */\n      dup8\n        /* \"challeng/my_contract/distribution.sol\":24727:24728  i */\n      dup5\n        /* \"challeng/my_contract/distribution.sol\":24719:24729  themeId[i] */\n      dup2\n      mload\n      dup2\n      lt\n      tag_134\n      jumpi\n      tag_135\n      tag_121\n      jump\t// in\n    tag_135:\n    tag_134:\n      0x20\n      mul\n      0x20\n      add\n      add\n      mload\n        /* \"challeng/my_contract/distribution.sol\":24680:24730  challengContract.getTotalRewardByTheme(themeId[i]) */\n      mload(0x40)\n      dup3\n      0xffffffff\n      and\n      0xe0\n      shl\n      dup2\n      mstore\n      0x04\n      add\n      tag_136\n      swap2\n      swap1\n      tag_137\n      jump\t// in\n    tag_136:\n      0x00\n      mload(0x40)\n      dup1\n      dup4\n      sub\n      dup2\n      dup7\n      gas\n      staticcall\n      iszero\n      dup1\n      iszero\n      tag_139\n      jumpi\n      returndatasize\n      0x00\n      dup1\n      returndatacopy\n      revert(0x00, returndatasize)\n    tag_139:\n      pop\n      pop\n      pop\n      pop\n      mload(0x40)\n      returndatasize\n      0x00\n      dup3\n      returndatacopy\n      returndatasize\n      not(0x1f)\n      0x1f\n      dup3\n      add\n      and\n      dup3\n      add\n      dup1\n      0x40\n      mstore\n      pop\n      dup2\n      add\n      swap1\n      tag_140\n      swap2\n      swap1\n      tag_141\n      jump\t// in\n    tag_140:\n        /* \"challeng/my_contract/distribution.sol\":24636:24730  ChallengContract.Theme memory themeInfo  =  challengContract.getTotalRewardByTheme(themeId[i]) */\n      swap1\n      pop\n        /* \"challeng/my_contract/distribution.sol\":24745:24767  address receiveAddress */\n      0x00\n        /* \"challeng/my_contract/distribution.sol\":24771:24780  themeInfo */\n      dup2\n        /* \"challeng/my_contract/distribution.sol\":24771:24791  themeInfo.originator */\n      0x20\n      add\n      mload\n        /* \"challeng/my_contract/distribution.sol\":24745:24791  address receiveAddress =  themeInfo.originator */\n      swap1\n      pop\n        /* \"challeng/my_contract/distribution.sol\":24806:24827  uint256 receiveAmount */\n      0x00\n        /* \"challeng/my_contract/distribution.sol\":24831:24837  values */\n      dup7\n        /* \"challeng/my_contract/distribution.sol\":24838:24839  i */\n      dup5\n        /* \"challeng/my_contract/distribution.sol\":24831:24840  values[i] */\n      dup2\n      mload\n      dup2\n      lt\n      tag_142\n      jumpi\n      tag_143\n      tag_121\n      jump\t// in\n    tag_143:\n    tag_142:\n      0x20\n      mul\n      0x20\n      add\n      add\n      mload\n        /* \"challeng/my_contract/distribution.sol\":24806:24840  uint256 receiveAmount =  values[i] */\n      swap1\n      pop\n        /* \"challeng/my_contract/distribution.sol\":24893:24894  0 */\n      0x00\n        /* \"challeng/my_contract/distribution.sol\":24858:24895  address(receiveAddress) != address(0) */\n      0xffffffffffffffffffffffffffffffffffffffff\n      and\n        /* \"challeng/my_contract/distribution.sol\":24866:24880  receiveAddress */\n      dup3\n        /* \"challeng/my_contract/distribution.sol\":24858:24895  address(receiveAddress) != address(0) */\n      0xffffffffffffffffffffffffffffffffffffffff\n      and\n      eq\n        /* \"challeng/my_contract/distribution.sol\":24855:25080  if(address(receiveAddress) != address(0)){... */\n      tag_144\n      jumpi\n        /* \"challeng/my_contract/distribution.sol\":24915:24998  token().safeTransferFrom(address(this),address(_lockContractAddress),receiveAmount) */\n      tag_145\n        /* \"challeng/my_contract/distribution.sol\":24948:24952  this */\n      address\n        /* \"challeng/my_contract/distribution.sol\":24962:24982  _lockContractAddress */\n      0x03\n      0x00\n      swap1\n      sload\n      swap1\n      0x0100\n      exp\n      swap1\n      div\n      0xffffffffffffffffffffffffffffffffffffffff\n      and\n        /* \"challeng/my_contract/distribution.sol\":24984:24997  receiveAmount */\n      dup4\n        /* \"challeng/my_contract/distribution.sol\":24915:24922  token() */\n      tag_146\n        /* \"challeng/my_contract/distribution.sol\":24915:24920  token */\n      tag_99\n        /* \"challeng/my_contract/distribution.sol\":24915:24922  token() */\n      jump\t// in\n    tag_146:\n        /* \"challeng/my_contract/distribution.sol\":24915:24939  token().safeTransferFrom */\n      0xffffffffffffffffffffffffffffffffffffffff\n      and\n      tag_147\n      swap1\n        /* \"challeng/my_contract/distribution.sol\":24915:24998  token().safeTransferFrom(address(this),address(_lockContractAddress),receiveAmount) */\n      swap4\n      swap3\n      swap2\n      swap1\n      0xffffffff\n      and\n      jump\t// in\n    tag_145:\n        /* \"challeng/my_contract/distribution.sol\":25051:25064  receiveAmount */\n      dup1\n        /* \"challeng/my_contract/distribution.sol\":25034:25048  _totalReleased */\n      sload(0x0a)\n        /* \"challeng/my_contract/distribution.sol\":25034:25064  _totalReleased + receiveAmount */\n      tag_148\n      swap2\n      swap1\n      tag_123\n      jump\t// in\n    tag_148:\n        /* \"challeng/my_contract/distribution.sol\":25017:25031  _totalReleased */\n      0x0a\n        /* \"challeng/my_contract/distribution.sol\":25017:25064  _totalReleased = _totalReleased + receiveAmount */\n      dup2\n      swap1\n      sstore\n      pop\n        /* \"challeng/my_contract/distribution.sol\":24855:25080  if(address(receiveAddress) != address(0)){... */\n    tag_144:\n        /* \"challeng/my_contract/distribution.sol\":24621:25091  {... */\n      pop\n      pop\n      pop\n        /* \"challeng/my_contract/distribution.sol\":24617:24620  i++ */\n      dup1\n      dup1\n      tag_149\n      swap1\n      tag_125\n      jump\t// in\n    tag_149:\n      swap2\n      pop\n      pop\n        /* \"challeng/my_contract/distribution.sol\":24584:25091  for(uint256 i=0;i<themeId.length;i++){... */\n      jump(tag_131)\n    tag_132:\n      pop\n        /* \"challeng/my_contract/distribution.sol\":23905:25098  {... */\n      pop\n      pop\n        /* \"challeng/my_contract/distribution.sol\":23806:25098  function sendMasterTokenLock(string[] memory themeId,uint256[] memory values) public  onlyOwner  (){... */\n      pop\n      pop\n      jump\t// out\n        /* \"challeng/my_contract/distribution.sol\":21071:21215  function setReceivingAddress(address receivingAddress) public virtual onlyOwner {... */\n    tag_36:\n        /* \"challeng/my_contract/distribution.sol\":20757:20763  _owner */\n      0x0b\n      0x00\n      swap1\n      sload\n      swap1\n      0x0100\n      exp\n      swap1\n      div\n      0xffffffffffffffffffffffffffffffffffffffff\n      and\n        /* \"challeng/my_contract/distribution.sol\":20743:20763  msg.sender == _owner */\n      0xffffffffffffffffffffffffffffffffffffffff\n      and\n        /* \"challeng/my_contract/distribution.sol\":20743:20753  msg.sender */\n      caller\n        /* \"challeng/my_contract/distribution.sol\":20743:20763  msg.sender == _owner */\n      0xffffffffffffffffffffffffffffffffffffffff\n      and\n      eq\n        /* \"challeng/my_contract/distribution.sol\":20735:20764  require(msg.sender == _owner) */\n      tag_151\n      jumpi\n      0x00\n      dup1\n      revert\n    tag_151:\n        /* \"challeng/my_contract/distribution.sol\":21190:21206  receivingAddress */\n      dup1\n        /* \"challeng/my_contract/distribution.sol\":21162:21179  _receivingAddress */\n      0x08\n      0x00\n        /* \"challeng/my_contract/distribution.sol\":21162:21207  _receivingAddress = address(receivingAddress) */\n      0x0100\n      exp\n      dup2\n      sload\n      dup2\n      0xffffffffffffffffffffffffffffffffffffffff\n      mul\n      not\n      and\n      swap1\n      dup4\n      0xffffffffffffffffffffffffffffffffffffffff\n      and\n      mul\n      or\n      swap1\n      sstore\n      pop\n        /* \"challeng/my_contract/distribution.sol\":21071:21215  function setReceivingAddress(address receivingAddress) public virtual onlyOwner {... */\n      pop\n      jump\t// out\n        /* \"challeng/my_contract/distribution.sol\":26541:27300  function distributionToFunPoolAddress() public {... */\n    tag_38:\n        /* \"challeng/my_contract/distribution.sol\":26635:26636  0 */\n      0x00\n        /* \"challeng/my_contract/distribution.sol\":26607:26637  address(token()) != address(0) */\n      0xffffffffffffffffffffffffffffffffffffffff\n      and\n        /* \"challeng/my_contract/distribution.sol\":26615:26622  token() */\n      tag_154\n        /* \"challeng/my_contract/distribution.sol\":26615:26620  token */\n      tag_99\n        /* \"challeng/my_contract/distribution.sol\":26615:26622  token() */\n      jump\t// in\n    tag_154:\n        /* \"challeng/my_contract/distribution.sol\":26607:26637  address(token()) != address(0) */\n      0xffffffffffffffffffffffffffffffffffffffff\n      and\n      sub\n        /* \"challeng/my_contract/distribution.sol\":26599:26674  require(address(token()) != address(0) , \"Release: need set Token Address\") */\n      tag_155\n      jumpi\n      mload(0x40)\n      0x08c379a000000000000000000000000000000000000000000000000000000000\n      dup2\n      mstore\n      0x04\n      add\n      tag_156\n      swap1\n      tag_111\n      jump\t// in\n    tag_156:\n      mload(0x40)\n      dup1\n      swap2\n      sub\n      swap1\n      revert\n    tag_155:\n        /* \"challeng/my_contract/distribution.sol\":26733:26734  0 */\n      0x00\n        /* \"challeng/my_contract/distribution.sol\":26693:26735  address(getFunPoolAddress()) != address(0) */\n      0xffffffffffffffffffffffffffffffffffffffff\n      and\n        /* \"challeng/my_contract/distribution.sol\":26701:26720  getFunPoolAddress() */\n      tag_157\n        /* \"challeng/my_contract/distribution.sol\":26701:26718  getFunPoolAddress */\n      tag_87\n        /* \"challeng/my_contract/distribution.sol\":26701:26720  getFunPoolAddress() */\n      jump\t// in\n    tag_157:\n        /* \"challeng/my_contract/distribution.sol\":26693:26735  address(getFunPoolAddress()) != address(0) */\n      0xffffffffffffffffffffffffffffffffffffffff\n      and\n      sub\n        /* \"challeng/my_contract/distribution.sol\":26685:26775  require(address(getFunPoolAddress()) != address(0) , \"Release: need set fun pool Address\") */\n      tag_158\n      jumpi\n      mload(0x40)\n      0x08c379a000000000000000000000000000000000000000000000000000000000\n      dup2\n      mstore\n      0x04\n      add\n      tag_159\n      swap1\n      tag_160\n      jump\t// in\n    tag_159:\n      mload(0x40)\n      dup1\n      swap2\n      sub\n      swap1\n      revert\n    tag_158:\n        /* \"challeng/my_contract/distribution.sol\":26786:26823  TokenReleaseContract challengContract */\n      0x00\n        /* \"challeng/my_contract/distribution.sol\":26847:26866  getFunPoolAddress() */\n      tag_161\n        /* \"challeng/my_contract/distribution.sol\":26847:26864  getFunPoolAddress */\n      tag_87\n        /* \"challeng/my_contract/distribution.sol\":26847:26866  getFunPoolAddress() */\n      jump\t// in\n    tag_161:\n        /* \"challeng/my_contract/distribution.sol\":26786:26867  TokenReleaseContract challengContract = TokenReleaseContract(getFunPoolAddress()) */\n      swap1\n      pop\n        /* \"challeng/my_contract/distribution.sol\":26878:26892  uint256 amount */\n      0x00\n        /* \"challeng/my_contract/distribution.sol\":26896:26912  challengContract */\n      dup2\n        /* \"challeng/my_contract/distribution.sol\":26896:26941  challengContract.getCurrentReleaseTokenAmount */\n      0xffffffffffffffffffffffffffffffffffffffff\n      and\n      0x0a48eba4\n        /* \"challeng/my_contract/distribution.sol\":26896:26943  challengContract.getCurrentReleaseTokenAmount() */\n      mload(0x40)\n      dup2\n      0xffffffff\n      and\n      0xe0\n      shl\n      dup2\n      mstore\n      0x04\n      add\n      0x20\n      mload(0x40)\n      dup1\n      dup4\n      sub\n      dup2\n      0x00\n      dup8\n      gas\n      call\n      iszero\n      dup1\n      iszero\n      tag_163\n      jumpi\n      returndatasize\n      0x00\n      dup1\n      returndatacopy\n      revert(0x00, returndatasize)\n    tag_163:\n      pop\n      pop\n      pop\n      pop\n      mload(0x40)\n      returndatasize\n      not(0x1f)\n      0x1f\n      dup3\n      add\n      and\n      dup3\n      add\n      dup1\n      0x40\n      mstore\n      pop\n      dup2\n      add\n      swap1\n      tag_164\n      swap2\n      swap1\n      tag_165\n      jump\t// in\n    tag_164:\n        /* \"challeng/my_contract/distribution.sol\":26878:26943  uint256 amount =  challengContract.getCurrentReleaseTokenAmount() */\n      swap1\n      pop\n        /* \"challeng/my_contract/distribution.sol\":27013:27016  100 */\n      0x64\n        /* \"challeng/my_contract/distribution.sol\":26998:27010  funPoolScale */\n      sload(0x06)\n        /* \"challeng/my_contract/distribution.sol\":26989:26995  amount */\n      dup3\n        /* \"challeng/my_contract/distribution.sol\":26989:27010  amount * funPoolScale */\n      tag_166\n      swap2\n      swap1\n      tag_167\n      jump\t// in\n    tag_166:\n        /* \"challeng/my_contract/distribution.sol\":26989:27016  amount * funPoolScale / 100 */\n      tag_168\n      swap2\n      swap1\n      tag_169\n      jump\t// in\n    tag_168:\n        /* \"challeng/my_contract/distribution.sol\":26980:27016  amount = amount * funPoolScale / 100 */\n      swap1\n      pop\n        /* \"challeng/my_contract/distribution.sol\":27053:27059  amount */\n      dup1\n        /* \"challeng/my_contract/distribution.sol\":27035:27049  tokenBalance() */\n      tag_170\n        /* \"challeng/my_contract/distribution.sol\":27035:27047  tokenBalance */\n      tag_67\n        /* \"challeng/my_contract/distribution.sol\":27035:27049  tokenBalance() */\n      jump\t// in\n    tag_170:\n        /* \"challeng/my_contract/distribution.sol\":27035:27059  tokenBalance() >= amount */\n      lt\n      iszero\n        /* \"challeng/my_contract/distribution.sol\":27027:27127  require(tokenBalance() >= amount , \"Release: Insufficient total amount available for distribution!\") */\n      tag_171\n      jumpi\n      mload(0x40)\n      0x08c379a000000000000000000000000000000000000000000000000000000000\n      dup2\n      mstore\n      0x04\n      add\n      tag_172\n      swap1\n      tag_173\n      jump\t// in\n    tag_172:\n      mload(0x40)\n      dup1\n      swap2\n      sub\n      swap1\n      revert\n    tag_171:\n        /* \"challeng/my_contract/distribution.sol\":27138:27213  token().safeTransferFrom(address(this),address(getFunPoolAddress()),amount) */\n      tag_174\n        /* \"challeng/my_contract/distribution.sol\":27171:27175  this */\n      address\n        /* \"challeng/my_contract/distribution.sol\":27185:27204  getFunPoolAddress() */\n      tag_175\n        /* \"challeng/my_contract/distribution.sol\":27185:27202  getFunPoolAddress */\n      tag_87\n        /* \"challeng/my_contract/distribution.sol\":27185:27204  getFunPoolAddress() */\n      jump\t// in\n    tag_175:\n        /* \"challeng/my_contract/distribution.sol\":27206:27212  amount */\n      dup4\n        /* \"challeng/my_contract/distribution.sol\":27138:27145  token() */\n      tag_176\n        /* \"challeng/my_contract/distribution.sol\":27138:27143  token */\n      tag_99\n        /* \"challeng/my_contract/distribution.sol\":27138:27145  token() */\n      jump\t// in\n    tag_176:\n        /* \"challeng/my_contract/distribution.sol\":27138:27162  token().safeTransferFrom */\n      0xffffffffffffffffffffffffffffffffffffffff\n      and\n      tag_147\n      swap1\n        /* \"challeng/my_contract/distribution.sol\":27138:27213  token().safeTransferFrom(address(this),address(getFunPoolAddress()),amount) */\n      swap4\n      swap3\n      swap2\n      swap1\n      0xffffffff\n      and\n      jump\t// in\n    tag_174:\n        /* \"challeng/my_contract/distribution.sol\":27284:27290  amount */\n      dup1\n        /* \"challeng/my_contract/distribution.sol\":27267:27281  _totalReleased */\n      sload(0x0a)\n        /* \"challeng/my_contract/distribution.sol\":27267:27290  _totalReleased + amount */\n      tag_177\n      swap2\n      swap1\n      tag_123\n      jump\t// in\n    tag_177:\n        /* \"challeng/my_contract/distribution.sol\":27250:27264  _totalReleased */\n      0x0a\n        /* \"challeng/my_contract/distribution.sol\":27250:27290  _totalReleased = _totalReleased + amount */\n      dup2\n      swap1\n      sstore\n      pop\n        /* \"challeng/my_contract/distribution.sol\":26588:27300  {... */\n      pop\n      pop\n        /* \"challeng/my_contract/distribution.sol\":26541:27300  function distributionToFunPoolAddress() public {... */\n      jump\t// out\n        /* \"challeng/my_contract/distribution.sol\":23576:23679  function getTimestamp() public view virtual returns (uint256) {... */\n    tag_40:\n        /* \"challeng/my_contract/distribution.sol\":23629:23636  uint256 */\n      0x00\n        /* \"challeng/my_contract/distribution.sol\":23656:23671  block.timestamp */\n      timestamp\n        /* \"challeng/my_contract/distribution.sol\":23649:23671  return block.timestamp */\n      swap1\n      pop\n        /* \"challeng/my_contract/distribution.sol\":23576:23679  function getTimestamp() public view virtual returns (uint256) {... */\n      swap1\n      jump\t// out\n        /* \"challeng/my_contract/distribution.sol\":20878:21001  function setTokenAddress(address tokenAddress ) public virtual   onlyOwner {... */\n    tag_45:\n        /* \"challeng/my_contract/distribution.sol\":20757:20763  _owner */\n      0x0b\n      0x00\n      swap1\n      sload\n      swap1\n      0x0100\n      exp\n      swap1\n      div\n      0xffffffffffffffffffffffffffffffffffffffff\n      and\n        /* \"challeng/my_contract/distribution.sol\":20743:20763  msg.sender == _owner */\n      0xffffffffffffffffffffffffffffffffffffffff\n      and\n        /* \"challeng/my_contract/distribution.sol\":20743:20753  msg.sender */\n      caller\n        /* \"challeng/my_contract/distribution.sol\":20743:20763  msg.sender == _owner */\n      0xffffffffffffffffffffffffffffffffffffffff\n      and\n      eq\n        /* \"challeng/my_contract/distribution.sol\":20735:20764  require(msg.sender == _owner) */\n      tag_180\n      jumpi\n      0x00\n      dup1\n      revert\n    tag_180:\n        /* \"challeng/my_contract/distribution.sol\":20980:20992  tokenAddress */\n      dup1\n        /* \"challeng/my_contract/distribution.sol\":20964:20970  _token */\n      0x00\n      dup1\n        /* \"challeng/my_contract/distribution.sol\":20964:20993  _token = IERC20(tokenAddress) */\n      0x0100\n      exp\n      dup2\n      sload\n      dup2\n      0xffffffffffffffffffffffffffffffffffffffff\n      mul\n      not\n      and\n      swap1\n      dup4\n      0xffffffffffffffffffffffffffffffffffffffff\n      and\n      mul\n      or\n      swap1\n      sstore\n      pop\n        /* \"challeng/my_contract/distribution.sol\":20878:21001  function setTokenAddress(address tokenAddress ) public virtual   onlyOwner {... */\n      pop\n      jump\t// out\n        /* \"challeng/my_contract/distribution.sol\":25199:26487  function sendMasterToken(string[] memory themeId,uint256[] memory values) public  onlyOwner  (){... */\n    tag_48:\n        /* \"challeng/my_contract/distribution.sol\":20757:20763  _owner */\n      0x0b\n      0x00\n      swap1\n      sload\n      swap1\n      0x0100\n      exp\n      swap1\n      div\n      0xffffffffffffffffffffffffffffffffffffffff\n      and\n        /* \"challeng/my_contract/distribution.sol\":20743:20763  msg.sender == _owner */\n      0xffffffffffffffffffffffffffffffffffffffff\n      and\n        /* \"challeng/my_contract/distribution.sol\":20743:20753  msg.sender */\n      caller\n        /* \"challeng/my_contract/distribution.sol\":20743:20763  msg.sender == _owner */\n      0xffffffffffffffffffffffffffffffffffffffff\n      and\n      eq\n        /* \"challeng/my_contract/distribution.sol\":20735:20764  require(msg.sender == _owner) */\n      tag_183\n      jumpi\n      0x00\n      dup1\n      revert\n    tag_183:\n        /* \"challeng/my_contract/distribution.sol\":25331:25337  values */\n      dup1\n        /* \"challeng/my_contract/distribution.sol\":25331:25344  values.length */\n      mload\n        /* \"challeng/my_contract/distribution.sol\":25313:25320  themeId */\n      dup3\n        /* \"challeng/my_contract/distribution.sol\":25313:25327  themeId.length */\n      mload\n        /* \"challeng/my_contract/distribution.sol\":25313:25344  themeId.length == values.length */\n      eq\n        /* \"challeng/my_contract/distribution.sol\":25305:25425  require(themeId.length == values.length,\"Please check the data, the news ID and distribution quantity are inconsistent\") */\n      tag_185\n      jumpi\n      mload(0x40)\n      0x08c379a000000000000000000000000000000000000000000000000000000000\n      dup2\n      mstore\n      0x04\n      add\n      tag_186\n      swap1\n      tag_107\n      jump\t// in\n    tag_186:\n      mload(0x40)\n      dup1\n      swap2\n      sub\n      swap1\n      revert\n    tag_185:\n        /* \"challeng/my_contract/distribution.sol\":25472:25473  0 */\n      0x00\n        /* \"challeng/my_contract/distribution.sol\":25444:25474  address(token()) != address(0) */\n      0xffffffffffffffffffffffffffffffffffffffff\n      and\n        /* \"challeng/my_contract/distribution.sol\":25452:25459  token() */\n      tag_187\n        /* \"challeng/my_contract/distribution.sol\":25452:25457  token */\n      tag_99\n        /* \"challeng/my_contract/distribution.sol\":25452:25459  token() */\n      jump\t// in\n    tag_187:\n        /* \"challeng/my_contract/distribution.sol\":25444:25474  address(token()) != address(0) */\n      0xffffffffffffffffffffffffffffffffffffffff\n      and\n      sub\n        /* \"challeng/my_contract/distribution.sol\":25436:25511  require(address(token()) != address(0) , \"Release: need set Token Address\") */\n      tag_188\n      jumpi\n      mload(0x40)\n      0x08c379a000000000000000000000000000000000000000000000000000000000\n      dup2\n      mstore\n      0x04\n      add\n      tag_189\n      swap1\n      tag_111\n      jump\t// in\n    tag_189:\n      mload(0x40)\n      dup1\n      swap2\n      sub\n      swap1\n      revert\n    tag_188:\n        /* \"challeng/my_contract/distribution.sol\":25570:25571  0 */\n      0x00\n        /* \"challeng/my_contract/distribution.sol\":25530:25572  address(getContractAddrss()) != address(0) */\n      0xffffffffffffffffffffffffffffffffffffffff\n      and\n        /* \"challeng/my_contract/distribution.sol\":25538:25557  getContractAddrss() */\n      tag_190\n        /* \"challeng/my_contract/distribution.sol\":25538:25555  getContractAddrss */\n      tag_57\n        /* \"challeng/my_contract/distribution.sol\":25538:25557  getContractAddrss() */\n      jump\t// in\n    tag_190:\n        /* \"challeng/my_contract/distribution.sol\":25530:25572  address(getContractAddrss()) != address(0) */\n      0xffffffffffffffffffffffffffffffffffffffff\n      and\n      sub\n        /* \"challeng/my_contract/distribution.sol\":25522:25621  require(address(getContractAddrss()) != address(0) , \"Release: need set Challeng Contract Address\") */\n      tag_191\n      jumpi\n      mload(0x40)\n      0x08c379a000000000000000000000000000000000000000000000000000000000\n      dup2\n      mstore\n      0x04\n      add\n      tag_192\n      swap1\n      tag_115\n      jump\t// in\n    tag_192:\n      mload(0x40)\n      dup1\n      swap2\n      sub\n      swap1\n      revert\n    tag_191:\n        /* \"challeng/my_contract/distribution.sol\":25634:25651  uint256 sendTotal */\n      0x00\n        /* \"challeng/my_contract/distribution.sol\":25670:25679  uint256 i */\n      dup1\n        /* \"challeng/my_contract/distribution.sol\":25666:25762  for(uint256 i=0;i<values.length;i++){... */\n    tag_193:\n        /* \"challeng/my_contract/distribution.sol\":25684:25690  values */\n      dup3\n        /* \"challeng/my_contract/distribution.sol\":25684:25697  values.length */\n      mload\n        /* \"challeng/my_contract/distribution.sol\":25682:25683  i */\n      dup2\n        /* \"challeng/my_contract/distribution.sol\":25682:25697  i<values.length */\n      lt\n        /* \"challeng/my_contract/distribution.sol\":25666:25762  for(uint256 i=0;i<values.length;i++){... */\n      iszero\n      tag_194\n      jumpi\n        /* \"challeng/my_contract/distribution.sol\":25741:25747  values */\n      dup3\n        /* \"challeng/my_contract/distribution.sol\":25748:25749  i */\n      dup2\n        /* \"challeng/my_contract/distribution.sol\":25741:25750  values[i] */\n      dup2\n      mload\n      dup2\n      lt\n      tag_196\n      jumpi\n      tag_197\n      tag_121\n      jump\t// in\n    tag_197:\n    tag_196:\n      0x20\n      mul\n      0x20\n      add\n      add\n      mload\n        /* \"challeng/my_contract/distribution.sol\":25729:25738  sendTotal */\n      dup3\n        /* \"challeng/my_contract/distribution.sol\":25729:25750  sendTotal + values[i] */\n      tag_198\n      swap2\n      swap1\n      tag_123\n      jump\t// in\n    tag_198:\n        /* \"challeng/my_contract/distribution.sol\":25717:25750  sendTotal = sendTotal + values[i] */\n      swap2\n      pop\n        /* \"challeng/my_contract/distribution.sol\":25698:25701  i++ */\n      dup1\n      dup1\n      tag_199\n      swap1\n      tag_125\n      jump\t// in\n    tag_199:\n      swap2\n      pop\n      pop\n        /* \"challeng/my_contract/distribution.sol\":25666:25762  for(uint256 i=0;i<values.length;i++){... */\n      jump(tag_193)\n    tag_194:\n      pop\n        /* \"challeng/my_contract/distribution.sol\":25800:25809  sendTotal */\n      dup1\n        /* \"challeng/my_contract/distribution.sol\":25782:25796  tokenBalance() */\n      tag_200\n        /* \"challeng/my_contract/distribution.sol\":25782:25794  tokenBalance */\n      tag_67\n        /* \"challeng/my_contract/distribution.sol\":25782:25796  tokenBalance() */\n      jump\t// in\n    tag_200:\n        /* \"challeng/my_contract/distribution.sol\":25782:25809  tokenBalance() >= sendTotal */\n      lt\n      iszero\n        /* \"challeng/my_contract/distribution.sol\":25774:25876  require(tokenBalance() >= sendTotal , \"Release: Insufficient total amount available for distribution\") */\n      tag_201\n      jumpi\n      mload(0x40)\n      0x08c379a000000000000000000000000000000000000000000000000000000000\n      dup2\n      mstore\n      0x04\n      add\n      tag_202\n      swap1\n      tag_129\n      jump\t// in\n    tag_202:\n      mload(0x40)\n      dup1\n      swap2\n      sub\n      swap1\n      revert\n    tag_201:\n        /* \"challeng/my_contract/distribution.sol\":25889:25922  ChallengContract challengContract */\n      0x00\n        /* \"challeng/my_contract/distribution.sol\":25942:25961  getContractAddrss() */\n      tag_203\n        /* \"challeng/my_contract/distribution.sol\":25942:25959  getContractAddrss */\n      tag_57\n        /* \"challeng/my_contract/distribution.sol\":25942:25961  getContractAddrss() */\n      jump\t// in\n    tag_203:\n        /* \"challeng/my_contract/distribution.sol\":25889:25962  ChallengContract challengContract = ChallengContract(getContractAddrss()) */\n      swap1\n      pop\n        /* \"challeng/my_contract/distribution.sol\":25977:25986  uint256 i */\n      0x00\n        /* \"challeng/my_contract/distribution.sol\":25973:26480  for(uint256 i=0;i<themeId.length;i++){... */\n    tag_204:\n        /* \"challeng/my_contract/distribution.sol\":25991:25998  themeId */\n      dup5\n        /* \"challeng/my_contract/distribution.sol\":25991:26005  themeId.length */\n      mload\n        /* \"challeng/my_contract/distribution.sol\":25989:25990  i */\n      dup2\n        /* \"challeng/my_contract/distribution.sol\":25989:26005  i<themeId.length */\n      lt\n        /* \"challeng/my_contract/distribution.sol\":25973:26480  for(uint256 i=0;i<themeId.length;i++){... */\n      iszero\n      tag_205\n      jumpi\n        /* \"challeng/my_contract/distribution.sol\":26025:26064  ChallengContract.Theme memory themeInfo */\n      0x00\n        /* \"challeng/my_contract/distribution.sol\":26069:26085  challengContract */\n      dup3\n        /* \"challeng/my_contract/distribution.sol\":26069:26107  challengContract.getTotalRewardByTheme */\n      0xffffffffffffffffffffffffffffffffffffffff\n      and\n      0x6441f9d0\n        /* \"challeng/my_contract/distribution.sol\":26108:26115  themeId */\n      dup8\n        /* \"challeng/my_contract/distribution.sol\":26116:26117  i */\n      dup5\n        /* \"challeng/my_contract/distribution.sol\":26108:26118  themeId[i] */\n      dup2\n      mload\n      dup2\n      lt\n      tag_207\n      jumpi\n      tag_208\n      tag_121\n      jump\t// in\n    tag_208:\n    tag_207:\n      0x20\n      mul\n      0x20\n      add\n      add\n      mload\n        /* \"challeng/my_contract/distribution.sol\":26069:26119  challengContract.getTotalRewardByTheme(themeId[i]) */\n      mload(0x40)\n      dup3\n      0xffffffff\n      and\n      0xe0\n      shl\n      dup2\n      mstore\n      0x04\n      add\n      tag_209\n      swap2\n      swap1\n      tag_137\n      jump\t// in\n    tag_209:\n      0x00\n      mload(0x40)\n      dup1\n      dup4\n      sub\n      dup2\n      dup7\n      gas\n      staticcall\n      iszero\n      dup1\n      iszero\n      tag_211\n      jumpi\n      returndatasize\n      0x00\n      dup1\n      returndatacopy\n      revert(0x00, returndatasize)\n    tag_211:\n      pop\n      pop\n      pop\n      pop\n      mload(0x40)\n      returndatasize\n      0x00\n      dup3\n      returndatacopy\n      returndatasize\n      not(0x1f)\n      0x1f\n      dup3\n      add\n      and\n      dup3\n      add\n      dup1\n      0x40\n      mstore\n      pop\n      dup2\n      add\n      swap1\n      tag_212\n      swap2\n      swap1\n      tag_141\n      jump\t// in\n    tag_212:\n        /* \"challeng/my_contract/distribution.sol\":26025:26119  ChallengContract.Theme memory themeInfo  =  challengContract.getTotalRewardByTheme(themeId[i]) */\n      swap1\n      pop\n        /* \"challeng/my_contract/distribution.sol\":26134:26156  address receiveAddress */\n      0x00\n        /* \"challeng/my_contract/distribution.sol\":26160:26169  themeInfo */\n      dup2\n        /* \"challeng/my_contract/distribution.sol\":26160:26180  themeInfo.originator */\n      0x20\n      add\n      mload\n        /* \"challeng/my_contract/distribution.sol\":26134:26180  address receiveAddress =  themeInfo.originator */\n      swap1\n      pop\n        /* \"challeng/my_contract/distribution.sol\":26195:26216  uint256 receiveAmount */\n      0x00\n        /* \"challeng/my_contract/distribution.sol\":26220:26226  values */\n      dup7\n        /* \"challeng/my_contract/distribution.sol\":26227:26228  i */\n      dup5\n        /* \"challeng/my_contract/distribution.sol\":26220:26229  values[i] */\n      dup2\n      mload\n      dup2\n      lt\n      tag_213\n      jumpi\n      tag_214\n      tag_121\n      jump\t// in\n    tag_214:\n    tag_213:\n      0x20\n      mul\n      0x20\n      add\n      add\n      mload\n        /* \"challeng/my_contract/distribution.sol\":26195:26229  uint256 receiveAmount =  values[i] */\n      swap1\n      pop\n        /* \"challeng/my_contract/distribution.sol\":26282:26283  0 */\n      0x00\n        /* \"challeng/my_contract/distribution.sol\":26247:26284  address(receiveAddress) != address(0) */\n      0xffffffffffffffffffffffffffffffffffffffff\n      and\n        /* \"challeng/my_contract/distribution.sol\":26255:26269  receiveAddress */\n      dup3\n        /* \"challeng/my_contract/distribution.sol\":26247:26284  address(receiveAddress) != address(0) */\n      0xffffffffffffffffffffffffffffffffffffffff\n      and\n      eq\n        /* \"challeng/my_contract/distribution.sol\":26244:26469  if(address(receiveAddress) != address(0)){... */\n      tag_215\n      jumpi\n        /* \"challeng/my_contract/distribution.sol\":26304:26387  token().safeTransferFrom(address(this),address(_lockContractAddress),receiveAmount) */\n      tag_216\n        /* \"challeng/my_contract/distribution.sol\":26337:26341  this */\n      address\n        /* \"challeng/my_contract/distribution.sol\":26351:26371  _lockContractAddress */\n      0x03\n      0x00\n      swap1\n      sload\n      swap1\n      0x0100\n      exp\n      swap1\n      div\n      0xffffffffffffffffffffffffffffffffffffffff\n      and\n        /* \"challeng/my_contract/distribution.sol\":26373:26386  receiveAmount */\n      dup4\n        /* \"challeng/my_contract/distribution.sol\":26304:26311  token() */\n      tag_217\n        /* \"challeng/my_contract/distribution.sol\":26304:26309  token */\n      tag_99\n        /* \"challeng/my_contract/distribution.sol\":26304:26311  token() */\n      jump\t// in\n    tag_217:\n        /* \"challeng/my_contract/distribution.sol\":26304:26328  token().safeTransferFrom */\n      0xffffffffffffffffffffffffffffffffffffffff\n      and\n      tag_147\n      swap1\n        /* \"challeng/my_contract/distribution.sol\":26304:26387  token().safeTransferFrom(address(this),address(_lockContractAddress),receiveAmount) */\n      swap4\n      swap3\n      swap2\n      swap1\n      0xffffffff\n      and\n      jump\t// in\n    tag_216:\n        /* \"challeng/my_contract/distribution.sol\":26440:26453  receiveAmount */\n      dup1\n        /* \"challeng/my_contract/distribution.sol\":26423:26437  _totalReleased */\n      sload(0x0a)\n        /* \"challeng/my_contract/distribution.sol\":26423:26453  _totalReleased + receiveAmount */\n      tag_218\n      swap2\n      swap1\n      tag_123\n      jump\t// in\n    tag_218:\n        /* \"challeng/my_contract/distribution.sol\":26406:26420  _totalReleased */\n      0x0a\n        /* \"challeng/my_contract/distribution.sol\":26406:26453  _totalReleased = _totalReleased + receiveAmount */\n      dup2\n      swap1\n      sstore\n      pop\n        /* \"challeng/my_contract/distribution.sol\":26244:26469  if(address(receiveAddress) != address(0)){... */\n    tag_215:\n        /* \"challeng/my_contract/distribution.sol\":26010:26480  {... */\n      pop\n      pop\n      pop\n        /* \"challeng/my_contract/distribution.sol\":26006:26009  i++ */\n      dup1\n      dup1\n      tag_219\n      swap1\n      tag_125\n      jump\t// in\n    tag_219:\n      swap2\n      pop\n      pop\n        /* \"challeng/my_contract/distribution.sol\":25973:26480  for(uint256 i=0;i<themeId.length;i++){... */\n      jump(tag_204)\n    tag_205:\n      pop\n        /* \"challeng/my_contract/distribution.sol\":25294:26487  {... */\n      pop\n      pop\n        /* \"challeng/my_contract/distribution.sol\":25199:26487  function sendMasterToken(string[] memory themeId,uint256[] memory values) public  onlyOwner  (){... */\n      pop\n      pop\n      jump\t// out\n        /* \"challeng/my_contract/distribution.sol\":21491:21584  function decimals() public view virtual returns (uint256) {... */\n    tag_50:\n        /* \"challeng/my_contract/distribution.sol\":21540:21547  uint256 */\n      0x00\n        /* \"challeng/my_contract/distribution.sol\":21567:21576  _decimals */\n      sload(0x09)\n        /* \"challeng/my_contract/distribution.sol\":21560:21576  return _decimals */\n      swap1\n      pop\n        /* \"challeng/my_contract/distribution.sol\":21491:21584  function decimals() public view virtual returns (uint256) {... */\n      swap1\n      jump\t// out\n        /* \"challeng/my_contract/distribution.sol\":23115:23227  function getChannelRewardsAddress() public view returns(address){... */\n    tag_53:\n        /* \"challeng/my_contract/distribution.sol\":23171:23178  address */\n      0x00\n        /* \"challeng/my_contract/distribution.sol\":23197:23219  _channelRewardsAddress */\n      0x05\n      0x00\n      swap1\n      sload\n      swap1\n      0x0100\n      exp\n      swap1\n      div\n      0xffffffffffffffffffffffffffffffffffffffff\n      and\n        /* \"challeng/my_contract/distribution.sol\":23190:23219  return _channelRewardsAddress */\n      swap1\n      pop\n        /* \"challeng/my_contract/distribution.sol\":23115:23227  function getChannelRewardsAddress() public view returns(address){... */\n      swap1\n      jump\t// out\n        /* \"challeng/my_contract/distribution.sol\":22164:22262  function getContractAddrss() public view returns(address){... */\n    tag_57:\n        /* \"challeng/my_contract/distribution.sol\":22213:22220  address */\n      0x00\n        /* \"challeng/my_contract/distribution.sol\":22239:22254  _contractAddrss */\n      0x01\n      0x00\n      swap1\n      sload\n      swap1\n      0x0100\n      exp\n      swap1\n      div\n      0xffffffffffffffffffffffffffffffffffffffff\n      and\n        /* \"challeng/my_contract/distribution.sol\":22232:22254  return _contractAddrss */\n      swap1\n      pop\n        /* \"challeng/my_contract/distribution.sol\":22164:22262  function getContractAddrss() public view returns(address){... */\n      swap1\n      jump\t// out\n        /* \"challeng/my_contract/distribution.sol\":21595:21701  function getTotalReleased() public view virtual returns (uint256) {... */\n    tag_60:\n        /* \"challeng/my_contract/distribution.sol\":21652:21659  uint256 */\n      0x00\n        /* \"challeng/my_contract/distribution.sol\":21679:21693  _totalReleased */\n      sload(0x0a)\n        /* \"challeng/my_contract/distribution.sol\":21672:21693  return _totalReleased */\n      swap1\n      pop\n        /* \"challeng/my_contract/distribution.sol\":21595:21701  function getTotalReleased() public view virtual returns (uint256) {... */\n      swap1\n      jump\t// out\n        /* \"challeng/my_contract/distribution.sol\":28196:29313  function  distributionToSpecify(address[] calldata recipients, uint256[] calldata values) public virtual {... */\n    tag_65:\n        /* \"challeng/my_contract/distribution.sol\":28423:28424  0 */\n      0x00\n        /* \"challeng/my_contract/distribution.sol\":28386:28425  address(_receivingAddress) !=address(0) */\n      0xffffffffffffffffffffffffffffffffffffffff\n      and\n        /* \"challeng/my_contract/distribution.sol\":28394:28411  _receivingAddress */\n      0x08\n      0x00\n      swap1\n      sload\n      swap1\n      0x0100\n      exp\n      swap1\n      div\n      0xffffffffffffffffffffffffffffffffffffffff\n      and\n        /* \"challeng/my_contract/distribution.sol\":28386:28425  address(_receivingAddress) !=address(0) */\n      0xffffffffffffffffffffffffffffffffffffffff\n      and\n      sub\n        /* \"challeng/my_contract/distribution.sol\":28378:28466  require(address(_receivingAddress) !=address(0) , \"Release: need set Receiving Address\") */\n      tag_225\n      jumpi\n      mload(0x40)\n      0x08c379a000000000000000000000000000000000000000000000000000000000\n      dup2\n      mstore\n      0x04\n      add\n      tag_226\n      swap1\n      tag_227\n      jump\t// in\n    tag_226:\n      mload(0x40)\n      dup1\n      swap2\n      sub\n      swap1\n      revert\n    tag_225:\n        /* \"challeng/my_contract/distribution.sol\":28512:28513  0 */\n      0x00\n        /* \"challeng/my_contract/distribution.sol\":28485:28514  address(_token) != address(0) */\n      0xffffffffffffffffffffffffffffffffffffffff\n      and\n        /* \"challeng/my_contract/distribution.sol\":28493:28499  _token */\n      0x00\n      dup1\n      sload\n      swap1\n      0x0100\n      exp\n      swap1\n      div\n      0xffffffffffffffffffffffffffffffffffffffff\n      and\n        /* \"challeng/my_contract/distribution.sol\":28485:28514  address(_token) != address(0) */\n      0xffffffffffffffffffffffffffffffffffffffff\n      and\n      sub\n        /* \"challeng/my_contract/distribution.sol\":28477:28551  require(address(_token) != address(0) , \"Release: need set Token Address\") */\n      tag_228\n      jumpi\n      mload(0x40)\n      0x08c379a000000000000000000000000000000000000000000000000000000000\n      dup2\n      mstore\n      0x04\n      add\n      tag_229\n      swap1\n      tag_111\n      jump\t// in\n    tag_229:\n      mload(0x40)\n      dup1\n      swap2\n      sub\n      swap1\n      revert\n    tag_228:\n        /* \"challeng/my_contract/distribution.sol\":28591:28597  values */\n      dup2\n      dup2\n        /* \"challeng/my_contract/distribution.sol\":28591:28604  values.length */\n      swap1\n      pop\n        /* \"challeng/my_contract/distribution.sol\":28570:28580  recipients */\n      dup5\n      dup5\n        /* \"challeng/my_contract/distribution.sol\":28570:28587  recipients.length */\n      swap1\n      pop\n        /* \"challeng/my_contract/distribution.sol\":28570:28604  recipients.length == values.length */\n      eq\n        /* \"challeng/my_contract/distribution.sol\":28562:28685  require(recipients.length == values.length,\"Please check the data, the news ID and distribution quantity are inconsistent\") */\n      tag_230\n      jumpi\n      mload(0x40)\n      0x08c379a000000000000000000000000000000000000000000000000000000000\n      dup2\n      mstore\n      0x04\n      add\n      tag_231\n      swap1\n      tag_107\n      jump\t// in\n    tag_231:\n      mload(0x40)\n      dup1\n      swap2\n      sub\n      swap1\n      revert\n    tag_230:\n        /* \"challeng/my_contract/distribution.sol\":28802:28821  uint256 totalAmount */\n      0x00\n        /* \"challeng/my_contract/distribution.sol\":28843:28852  uint256 i */\n      dup1\n        /* \"challeng/my_contract/distribution.sol\":28838:28966  for (uint256 i = 0; i < recipients.length; i++){... */\n    tag_232:\n        /* \"challeng/my_contract/distribution.sol\":28862:28872  recipients */\n      dup6\n      dup6\n        /* \"challeng/my_contract/distribution.sol\":28862:28879  recipients.length */\n      swap1\n      pop\n        /* \"challeng/my_contract/distribution.sol\":28858:28859  i */\n      dup2\n        /* \"challeng/my_contract/distribution.sol\":28858:28879  i < recipients.length */\n      lt\n        /* \"challeng/my_contract/distribution.sol\":28838:28966  for (uint256 i = 0; i < recipients.length; i++){... */\n      iszero\n      tag_233\n      jumpi\n        /* \"challeng/my_contract/distribution.sol\":28928:28954  totalAmount.add(values[i]) */\n      tag_235\n        /* \"challeng/my_contract/distribution.sol\":28944:28950  values */\n      dup5\n      dup5\n        /* \"challeng/my_contract/distribution.sol\":28951:28952  i */\n      dup4\n        /* \"challeng/my_contract/distribution.sol\":28944:28953  values[i] */\n      dup2\n      dup2\n      lt\n      tag_236\n      jumpi\n      tag_237\n      tag_121\n      jump\t// in\n    tag_237:\n    tag_236:\n      swap1\n      pop\n      0x20\n      mul\n      add\n      calldataload\n        /* \"challeng/my_contract/distribution.sol\":28928:28939  totalAmount */\n      dup4\n        /* \"challeng/my_contract/distribution.sol\":28928:28943  totalAmount.add */\n      tag_238\n      swap1\n        /* \"challeng/my_contract/distribution.sol\":28928:28954  totalAmount.add(values[i]) */\n      swap2\n      swap1\n      0xffffffff\n      and\n      jump\t// in\n    tag_235:\n        /* \"challeng/my_contract/distribution.sol\":28914:28954  totalAmount = totalAmount.add(values[i]) */\n      swap2\n      pop\n        /* \"challeng/my_contract/distribution.sol\":28881:28884  i++ */\n      dup1\n      dup1\n      tag_239\n      swap1\n      tag_125\n      jump\t// in\n    tag_239:\n      swap2\n      pop\n      pop\n        /* \"challeng/my_contract/distribution.sol\":28838:28966  for (uint256 i = 0; i < recipients.length; i++){... */\n      jump(tag_232)\n    tag_233:\n      pop\n        /* \"challeng/my_contract/distribution.sol\":29002:29013  totalAmount */\n      dup1\n        /* \"challeng/my_contract/distribution.sol\":28984:28998  tokenBalance() */\n      tag_240\n        /* \"challeng/my_contract/distribution.sol\":28984:28996  tokenBalance */\n      tag_67\n        /* \"challeng/my_contract/distribution.sol\":28984:28998  tokenBalance() */\n      jump\t// in\n    tag_240:\n        /* \"challeng/my_contract/distribution.sol\":28984:29013  tokenBalance() >= totalAmount */\n      lt\n      iszero\n        /* \"challeng/my_contract/distribution.sol\":28976:29075  require(tokenBalance() >= totalAmount , \"The number of air drops exceeds the daily release amount\") */\n      tag_241\n      jumpi\n      mload(0x40)\n      0x08c379a000000000000000000000000000000000000000000000000000000000\n      dup2\n      mstore\n      0x04\n      add\n      tag_242\n      swap1\n      tag_243\n      jump\t// in\n    tag_242:\n      mload(0x40)\n      dup1\n      swap2\n      sub\n      swap1\n      revert\n    tag_241:\n        /* \"challeng/my_contract/distribution.sol\":29093:29102  uint256 i */\n      0x00\n        /* \"challeng/my_contract/distribution.sol\":29088:29306  for (uint256 i = 0; i < recipients.length; i++){... */\n    tag_244:\n        /* \"challeng/my_contract/distribution.sol\":29112:29122  recipients */\n      dup6\n      dup6\n        /* \"challeng/my_contract/distribution.sol\":29112:29129  recipients.length */\n      swap1\n      pop\n        /* \"challeng/my_contract/distribution.sol\":29108:29109  i */\n      dup2\n        /* \"challeng/my_contract/distribution.sol\":29108:29129  i < recipients.length */\n      lt\n        /* \"challeng/my_contract/distribution.sol\":29088:29306  for (uint256 i = 0; i < recipients.length; i++){... */\n      iszero\n      tag_245\n      jumpi\n        /* \"challeng/my_contract/distribution.sol\":29150:29213  token().safeTransferFrom(address(this),recipients[i],values[i]) */\n      tag_247\n        /* \"challeng/my_contract/distribution.sol\":29183:29187  this */\n      address\n        /* \"challeng/my_contract/distribution.sol\":29189:29199  recipients */\n      dup8\n      dup8\n        /* \"challeng/my_contract/distribution.sol\":29200:29201  i */\n      dup5\n        /* \"challeng/my_contract/distribution.sol\":29189:29202  recipients[i] */\n      dup2\n      dup2\n      lt\n      tag_248\n      jumpi\n      tag_249\n      tag_121\n      jump\t// in\n    tag_249:\n    tag_248:\n      swap1\n      pop\n      0x20\n      mul\n      add\n      0x20\n      dup2\n      add\n      swap1\n      tag_250\n      swap2\n      swap1\n      tag_35\n      jump\t// in\n    tag_250:\n        /* \"challeng/my_contract/distribution.sol\":29203:29209  values */\n      dup7\n      dup7\n        /* \"challeng/my_contract/distribution.sol\":29210:29211  i */\n      dup6\n        /* \"challeng/my_contract/distribution.sol\":29203:29212  values[i] */\n      dup2\n      dup2\n      lt\n      tag_251\n      jumpi\n      tag_252\n      tag_121\n      jump\t// in\n    tag_252:\n    tag_251:\n      swap1\n      pop\n      0x20\n      mul\n      add\n      calldataload\n        /* \"challeng/my_contract/distribution.sol\":29150:29157  token() */\n      tag_253\n        /* \"challeng/my_contract/distribution.sol\":29150:29155  token */\n      tag_99\n        /* \"challeng/my_contract/distribution.sol\":29150:29157  token() */\n      jump\t// in\n    tag_253:\n        /* \"challeng/my_contract/distribution.sol\":29150:29174  token().safeTransferFrom */\n      0xffffffffffffffffffffffffffffffffffffffff\n      and\n      tag_147\n      swap1\n        /* \"challeng/my_contract/distribution.sol\":29150:29213  token().safeTransferFrom(address(this),recipients[i],values[i]) */\n      swap4\n      swap3\n      swap2\n      swap1\n      0xffffffff\n      and\n      jump\t// in\n    tag_247:\n        /* \"challeng/my_contract/distribution.sol\":29285:29291  values */\n      dup4\n      dup4\n        /* \"challeng/my_contract/distribution.sol\":29292:29293  i */\n      dup3\n        /* \"challeng/my_contract/distribution.sol\":29285:29294  values[i] */\n      dup2\n      dup2\n      lt\n      tag_254\n      jumpi\n      tag_255\n      tag_121\n      jump\t// in\n    tag_255:\n    tag_254:\n      swap1\n      pop\n      0x20\n      mul\n      add\n      calldataload\n        /* \"challeng/my_contract/distribution.sol\":29268:29282  _totalReleased */\n      sload(0x0a)\n        /* \"challeng/my_contract/distribution.sol\":29268:29294  _totalReleased + values[i] */\n      tag_256\n      swap2\n      swap1\n      tag_123\n      jump\t// in\n    tag_256:\n        /* \"challeng/my_contract/distribution.sol\":29251:29265  _totalReleased */\n      0x0a\n        /* \"challeng/my_contract/distribution.sol\":29251:29294  _totalReleased = _totalReleased + values[i] */\n      dup2\n      swap1\n      sstore\n      pop\n        /* \"challeng/my_contract/distribution.sol\":29131:29134  i++ */\n      dup1\n      dup1\n      tag_257\n      swap1\n      tag_125\n      jump\t// in\n    tag_257:\n      swap2\n      pop\n      pop\n        /* \"challeng/my_contract/distribution.sol\":29088:29306  for (uint256 i = 0; i < recipients.length; i++){... */\n      jump(tag_244)\n    tag_245:\n      pop\n        /* \"challeng/my_contract/distribution.sol\":28301:29313  {... */\n      pop\n        /* \"challeng/my_contract/distribution.sol\":28196:29313  function  distributionToSpecify(address[] calldata recipients, uint256[] calldata values) public virtual {... */\n      pop\n      pop\n      pop\n      pop\n      jump\t// out\n        /* \"challeng/my_contract/distribution.sol\":21721:21954  function tokenBalance() public view virtual returns (uint256) {... */\n    tag_67:\n        /* \"challeng/my_contract/distribution.sol\":21774:21781  uint256 */\n      0x00\n        /* \"challeng/my_contract/distribution.sol\":21825:21826  0 */\n      dup1\n        /* \"challeng/my_contract/distribution.sol\":21797:21827  address(token()) == address(0) */\n      0xffffffffffffffffffffffffffffffffffffffff\n      and\n        /* \"challeng/my_contract/distribution.sol\":21805:21812  token() */\n      tag_259\n        /* \"challeng/my_contract/distribution.sol\":21805:21810  token */\n      tag_99\n        /* \"challeng/my_contract/distribution.sol\":21805:21812  token() */\n      jump\t// in\n    tag_259:\n        /* \"challeng/my_contract/distribution.sol\":21797:21827  address(token()) == address(0) */\n      0xffffffffffffffffffffffffffffffffffffffff\n      and\n      sub\n        /* \"challeng/my_contract/distribution.sol\":21794:21863  if(address(token()) == address(0)){... */\n      tag_260\n      jumpi\n        /* \"challeng/my_contract/distribution.sol\":21850:21851  0 */\n      0x00\n        /* \"challeng/my_contract/distribution.sol\":21843:21851  return 0 */\n      swap1\n      pop\n      jump(tag_258)\n        /* \"challeng/my_contract/distribution.sol\":21794:21863  if(address(token()) == address(0)){... */\n    tag_260:\n        /* \"challeng/my_contract/distribution.sol\":21873:21887  uint256 amount */\n      0x00\n        /* \"challeng/my_contract/distribution.sol\":21890:21897  token() */\n      tag_261\n        /* \"challeng/my_contract/distribution.sol\":21890:21895  token */\n      tag_99\n        /* \"challeng/my_contract/distribution.sol\":21890:21897  token() */\n      jump\t// in\n    tag_261:\n        /* \"challeng/my_contract/distribution.sol\":21890:21907  token().balanceOf */\n      0xffffffffffffffffffffffffffffffffffffffff\n      and\n      0x70a08231\n        /* \"challeng/my_contract/distribution.sol\":21916:21920  this */\n      address\n        /* \"challeng/my_contract/distribution.sol\":21890:21922  token().balanceOf(address(this)) */\n      mload(0x40)\n      dup3\n      0xffffffff\n      and\n      0xe0\n      shl\n      dup2\n      mstore\n      0x04\n      add\n      tag_262\n      swap2\n      swap1\n      tag_55\n      jump\t// in\n    tag_262:\n      0x20\n      mload(0x40)\n      dup1\n      dup4\n      sub\n      dup2\n      dup7\n      gas\n      staticcall\n      iszero\n      dup1\n      iszero\n      tag_264\n      jumpi\n      returndatasize\n      0x00\n      dup1\n      returndatacopy\n      revert(0x00, returndatasize)\n    tag_264:\n      pop\n      pop\n      pop\n      pop\n      mload(0x40)\n      returndatasize\n      not(0x1f)\n      0x1f\n      dup3\n      add\n      and\n      dup3\n      add\n      dup1\n      0x40\n      mstore\n      pop\n      dup2\n      add\n      swap1\n      tag_265\n      swap2\n      swap1\n      tag_165\n      jump\t// in\n    tag_265:\n        /* \"challeng/my_contract/distribution.sol\":21873:21922  uint256 amount = token().balanceOf(address(this)) */\n      swap1\n      pop\n        /* \"challeng/my_contract/distribution.sol\":21940:21946  amount */\n      dup1\n        /* \"challeng/my_contract/distribution.sol\":21933:21946  return amount */\n      swap2\n      pop\n      pop\n        /* \"challeng/my_contract/distribution.sol\":21721:21954  function tokenBalance() public view virtual returns (uint256) {... */\n    tag_258:\n      swap1\n      jump\t// out\n        /* \"challeng/my_contract/distribution.sol\":22475:22583  function getLockContractAddress() public view returns(address){... */\n    tag_70:\n        /* \"challeng/my_contract/distribution.sol\":22529:22536  address */\n      0x00\n        /* \"challeng/my_contract/distribution.sol\":22555:22575  _lockContractAddress */\n      0x03\n      0x00\n      swap1\n      sload\n      swap1\n      0x0100\n      exp\n      swap1\n      div\n      0xffffffffffffffffffffffffffffffffffffffff\n      and\n        /* \"challeng/my_contract/distribution.sol\":22548:22575  return _lockContractAddress */\n      swap1\n      pop\n        /* \"challeng/my_contract/distribution.sol\":22475:22583  function getLockContractAddress() public view returns(address){... */\n      swap1\n      jump\t// out\n        /* \"challeng/my_contract/distribution.sol\":21228:21320  function changeOwner(address newOwner) public onlyOwner {... */\n    tag_74:\n        /* \"challeng/my_contract/distribution.sol\":20757:20763  _owner */\n      0x0b\n      0x00\n      swap1\n      sload\n      swap1\n      0x0100\n      exp\n      swap1\n      div\n      0xffffffffffffffffffffffffffffffffffffffff\n      and\n        /* \"challeng/my_contract/distribution.sol\":20743:20763  msg.sender == _owner */\n      0xffffffffffffffffffffffffffffffffffffffff\n      and\n        /* \"challeng/my_contract/distribution.sol\":20743:20753  msg.sender */\n      caller\n        /* \"challeng/my_contract/distribution.sol\":20743:20763  msg.sender == _owner */\n      0xffffffffffffffffffffffffffffffffffffffff\n      and\n      eq\n        /* \"challeng/my_contract/distribution.sol\":20735:20764  require(msg.sender == _owner) */\n      tag_268\n      jumpi\n      0x00\n      dup1\n      revert\n    tag_268:\n        /* \"challeng/my_contract/distribution.sol\":21304:21312  newOwner */\n      dup1\n        /* \"challeng/my_contract/distribution.sol\":21295:21301  _owner */\n      0x0b\n      0x00\n        /* \"challeng/my_contract/distribution.sol\":21295:21312  _owner = newOwner */\n      0x0100\n      exp\n      dup2\n      sload\n      dup2\n      0xffffffffffffffffffffffffffffffffffffffff\n      mul\n      not\n      and\n      swap1\n      dup4\n      0xffffffffffffffffffffffffffffffffffffffff\n      and\n      mul\n      or\n      swap1\n      sstore\n      pop\n        /* \"challeng/my_contract/distribution.sol\":21228:21320  function changeOwner(address newOwner) public onlyOwner {... */\n      pop\n      jump\t// out\n        /* \"challeng/my_contract/distribution.sol\":22628:22737  function setFunPoolAddress(address funPoolAddress) public {... */\n    tag_77:\n        /* \"challeng/my_contract/distribution.sol\":22715:22729  funPoolAddress */\n      dup1\n        /* \"challeng/my_contract/distribution.sol\":22697:22712  _funPoolAddress */\n      0x04\n      0x00\n        /* \"challeng/my_contract/distribution.sol\":22697:22729  _funPoolAddress = funPoolAddress */\n      0x0100\n      exp\n      dup2\n      sload\n      dup2\n      0xffffffffffffffffffffffffffffffffffffffff\n      mul\n      not\n      and\n      swap1\n      dup4\n      0xffffffffffffffffffffffffffffffffffffffff\n      and\n      mul\n      or\n      swap1\n      sstore\n      pop\n        /* \"challeng/my_contract/distribution.sol\":22628:22737  function setFunPoolAddress(address funPoolAddress) public {... */\n      pop\n      jump\t// out\n        /* \"challeng/my_contract/distribution.sol\":23454:23568  function getReleaseContractAddress() public view returns(address){... */\n    tag_79:\n        /* \"challeng/my_contract/distribution.sol\":23511:23518  address */\n      0x00\n        /* \"challeng/my_contract/distribution.sol\":23537:23560  _releaseContractAddress */\n      0x02\n      0x00\n      swap1\n      sload\n      swap1\n      0x0100\n      exp\n      swap1\n      div\n      0xffffffffffffffffffffffffffffffffffffffff\n      and\n        /* \"challeng/my_contract/distribution.sol\":23530:23560  return _releaseContractAddress */\n      swap1\n      pop\n        /* \"challeng/my_contract/distribution.sol\":23454:23568  function getReleaseContractAddress() public view returns(address){... */\n      swap1\n      jump\t// out\n        /* \"challeng/my_contract/distribution.sol\":27354:28159  function distributionToChannelRewardsAddress() public {... */\n    tag_82:\n        /* \"challeng/my_contract/distribution.sol\":27455:27456  0 */\n      0x00\n        /* \"challeng/my_contract/distribution.sol\":27427:27457  address(token()) != address(0) */\n      0xffffffffffffffffffffffffffffffffffffffff\n      and\n        /* \"challeng/my_contract/distribution.sol\":27435:27442  token() */\n      tag_273\n        /* \"challeng/my_contract/distribution.sol\":27435:27440  token */\n      tag_99\n        /* \"challeng/my_contract/distribution.sol\":27435:27442  token() */\n      jump\t// in\n    tag_273:\n        /* \"challeng/my_contract/distribution.sol\":27427:27457  address(token()) != address(0) */\n      0xffffffffffffffffffffffffffffffffffffffff\n      and\n      sub\n        /* \"challeng/my_contract/distribution.sol\":27419:27494  require(address(token()) != address(0) , \"Release: need set Token Address\") */\n      tag_274\n      jumpi\n      mload(0x40)\n      0x08c379a000000000000000000000000000000000000000000000000000000000\n      dup2\n      mstore\n      0x04\n      add\n      tag_275\n      swap1\n      tag_111\n      jump\t// in\n    tag_275:\n      mload(0x40)\n      dup1\n      swap2\n      sub\n      swap1\n      revert\n    tag_274:\n        /* \"challeng/my_contract/distribution.sol\":27560:27561  0 */\n      0x00\n        /* \"challeng/my_contract/distribution.sol\":27513:27562  address(getChannelRewardsAddress()) != address(0) */\n      0xffffffffffffffffffffffffffffffffffffffff\n      and\n        /* \"challeng/my_contract/distribution.sol\":27521:27547  getChannelRewardsAddress() */\n      tag_276\n        /* \"challeng/my_contract/distribution.sol\":27521:27545  getChannelRewardsAddress */\n      tag_53\n        /* \"challeng/my_contract/distribution.sol\":27521:27547  getChannelRewardsAddress() */\n      jump\t// in\n    tag_276:\n        /* \"challeng/my_contract/distribution.sol\":27513:27562  address(getChannelRewardsAddress()) != address(0) */\n      0xffffffffffffffffffffffffffffffffffffffff\n      and\n      sub\n        /* \"challeng/my_contract/distribution.sol\":27505:27609  require(address(getChannelRewardsAddress()) != address(0) , \"Release: need set channel rewards Address\") */\n      tag_277\n      jumpi\n      mload(0x40)\n      0x08c379a000000000000000000000000000000000000000000000000000000000\n      dup2\n      mstore\n      0x04\n      add\n      tag_278\n      swap1\n      tag_279\n      jump\t// in\n    tag_278:\n      mload(0x40)\n      dup1\n      swap2\n      sub\n      swap1\n      revert\n    tag_277:\n        /* \"challeng/my_contract/distribution.sol\":27620:27657  TokenReleaseContract challengContract */\n      0x00\n        /* \"challeng/my_contract/distribution.sol\":27681:27707  getChannelRewardsAddress() */\n      tag_280\n        /* \"challeng/my_contract/distribution.sol\":27681:27705  getChannelRewardsAddress */\n      tag_53\n        /* \"challeng/my_contract/distribution.sol\":27681:27707  getChannelRewardsAddress() */\n      jump\t// in\n    tag_280:\n        /* \"challeng/my_contract/distribution.sol\":27620:27708  TokenReleaseContract challengContract = TokenReleaseContract(getChannelRewardsAddress()) */\n      swap1\n      pop\n        /* \"challeng/my_contract/distribution.sol\":27719:27733  uint256 amount */\n      0x00\n        /* \"challeng/my_contract/distribution.sol\":27737:27753  challengContract */\n      dup2\n        /* \"challeng/my_contract/distribution.sol\":27737:27782  challengContract.getCurrentReleaseTokenAmount */\n      0xffffffffffffffffffffffffffffffffffffffff\n      and\n      0x0a48eba4\n        /* \"challeng/my_contract/distribution.sol\":27737:27784  challengContract.getCurrentReleaseTokenAmount() */\n      mload(0x40)\n      dup2\n      0xffffffff\n      and\n      0xe0\n      shl\n      dup2\n      mstore\n      0x04\n      add\n      0x20\n      mload(0x40)\n      dup1\n      dup4\n      sub\n      dup2\n      0x00\n      dup8\n      gas\n      call\n      iszero\n      dup1\n      iszero\n      tag_282\n      jumpi\n      returndatasize\n      0x00\n      dup1\n      returndatacopy\n      revert(0x00, returndatasize)\n    tag_282:\n      pop\n      pop\n      pop\n      pop\n      mload(0x40)\n      returndatasize\n      not(0x1f)\n      0x1f\n      dup3\n      add\n      and\n      dup3\n      add\n      dup1\n      0x40\n      mstore\n      pop\n      dup2\n      add\n      swap1\n      tag_283\n      swap2\n      swap1\n      tag_165\n      jump\t// in\n    tag_283:\n        /* \"challeng/my_contract/distribution.sol\":27719:27784  uint256 amount =  challengContract.getCurrentReleaseTokenAmount() */\n      swap1\n      pop\n        /* \"challeng/my_contract/distribution.sol\":27861:27864  100 */\n      0x64\n        /* \"challeng/my_contract/distribution.sol\":27839:27858  channelRewardsScale */\n      sload(0x07)\n        /* \"challeng/my_contract/distribution.sol\":27830:27836  amount */\n      dup3\n        /* \"challeng/my_contract/distribution.sol\":27830:27858  amount * channelRewardsScale */\n      tag_284\n      swap2\n      swap1\n      tag_167\n      jump\t// in\n    tag_284:\n        /* \"challeng/my_contract/distribution.sol\":27830:27864  amount * channelRewardsScale / 100 */\n      tag_285\n      swap2\n      swap1\n      tag_169\n      jump\t// in\n    tag_285:\n        /* \"challeng/my_contract/distribution.sol\":27821:27864  amount = amount * channelRewardsScale / 100 */\n      swap1\n      pop\n        /* \"challeng/my_contract/distribution.sol\":27901:27907  amount */\n      dup1\n        /* \"challeng/my_contract/distribution.sol\":27883:27897  tokenBalance() */\n      tag_286\n        /* \"challeng/my_contract/distribution.sol\":27883:27895  tokenBalance */\n      tag_67\n        /* \"challeng/my_contract/distribution.sol\":27883:27897  tokenBalance() */\n      jump\t// in\n    tag_286:\n        /* \"challeng/my_contract/distribution.sol\":27883:27907  tokenBalance() >= amount */\n      lt\n      iszero\n        /* \"challeng/my_contract/distribution.sol\":27875:27976  require(tokenBalance() >= amount , \"Release: Insufficient total amount available for distribution!!\") */\n      tag_287\n      jumpi\n      mload(0x40)\n      0x08c379a000000000000000000000000000000000000000000000000000000000\n      dup2\n      mstore\n      0x04\n      add\n      tag_288\n      swap1\n      tag_289\n      jump\t// in\n    tag_288:\n      mload(0x40)\n      dup1\n      swap2\n      sub\n      swap1\n      revert\n    tag_287:\n        /* \"challeng/my_contract/distribution.sol\":27987:28069  token().safeTransferFrom(address(this),address(getChannelRewardsAddress()),amount) */\n      tag_290\n        /* \"challeng/my_contract/distribution.sol\":28020:28024  this */\n      address\n        /* \"challeng/my_contract/distribution.sol\":28034:28060  getChannelRewardsAddress() */\n      tag_291\n        /* \"challeng/my_contract/distribution.sol\":28034:28058  getChannelRewardsAddress */\n      tag_53\n        /* \"challeng/my_contract/distribution.sol\":28034:28060  getChannelRewardsAddress() */\n      jump\t// in\n    tag_291:\n        /* \"challeng/my_contract/distribution.sol\":28062:28068  amount */\n      dup4\n        /* \"challeng/my_contract/distribution.sol\":27987:27994  token() */\n      tag_292\n        /* \"challeng/my_contract/distribution.sol\":27987:27992  token */\n      tag_99\n        /* \"challeng/my_contract/distribution.sol\":27987:27994  token() */\n      jump\t// in\n    tag_292:\n        /* \"challeng/my_contract/distribution.sol\":27987:28011  token().safeTransferFrom */\n      0xffffffffffffffffffffffffffffffffffffffff\n      and\n      tag_147\n      swap1\n        /* \"challeng/my_contract/distribution.sol\":27987:28069  token().safeTransferFrom(address(this),address(getChannelRewardsAddress()),amount) */\n      swap4\n      swap3\n      swap2\n      swap1\n      0xffffffff\n      and\n      jump\t// in\n    tag_290:\n        /* \"challeng/my_contract/distribution.sol\":28143:28149  amount */\n      dup1\n        /* \"challeng/my_contract/distribution.sol\":28126:28140  _totalReleased */\n      sload(0x0a)\n        /* \"challeng/my_contract/distribution.sol\":28126:28149  _totalReleased + amount */\n      tag_293\n      swap2\n      swap1\n      tag_123\n      jump\t// in\n    tag_293:\n        /* \"challeng/my_contract/distribution.sol\":28109:28123  _totalReleased */\n      0x0a\n        /* \"challeng/my_contract/distribution.sol\":28109:28149  _totalReleased = _totalReleased + amount */\n      dup2\n      swap1\n      sstore\n      pop\n        /* \"challeng/my_contract/distribution.sol\":27408:28159  {... */\n      pop\n      pop\n        /* \"challeng/my_contract/distribution.sol\":27354:28159  function distributionToChannelRewardsAddress() public {... */\n      jump\t// out\n        /* \"challeng/my_contract/distribution.sol\":22928:23065  function setChannelRewardsAddress(address channelRewardsAddress) public {... */\n    tag_85:\n        /* \"challeng/my_contract/distribution.sol\":23036:23057  channelRewardsAddress */\n      dup1\n        /* \"challeng/my_contract/distribution.sol\":23011:23033  _channelRewardsAddress */\n      0x05\n      0x00\n        /* \"challeng/my_contract/distribution.sol\":23011:23057  _channelRewardsAddress = channelRewardsAddress */\n      0x0100\n      exp\n      dup2\n      sload\n      dup2\n      0xffffffffffffffffffffffffffffffffffffffff\n      mul\n      not\n      and\n      swap1\n      dup4\n      0xffffffffffffffffffffffffffffffffffffffff\n      and\n      mul\n      or\n      swap1\n      sstore\n      pop\n        /* \"challeng/my_contract/distribution.sol\":22928:23065  function setChannelRewardsAddress(address channelRewardsAddress) public {... */\n      pop\n      jump\t// out\n        /* \"challeng/my_contract/distribution.sol\":22784:22882  function getFunPoolAddress() public view returns(address){... */\n    tag_87:\n        /* \"challeng/my_contract/distribution.sol\":22833:22840  address */\n      0x00\n        /* \"challeng/my_contract/distribution.sol\":22859:22874  _funPoolAddress */\n      0x04\n      0x00\n      swap1\n      sload\n      swap1\n      0x0100\n      exp\n      swap1\n      div\n      0xffffffffffffffffffffffffffffffffffffffff\n      and\n        /* \"challeng/my_contract/distribution.sol\":22852:22874  return _funPoolAddress */\n      swap1\n      pop\n        /* \"challeng/my_contract/distribution.sol\":22784:22882  function getFunPoolAddress() public view returns(address){... */\n      swap1\n      jump\t// out\n        /* \"challeng/my_contract/distribution.sol\":22302:22431  function setLockContractAddress(address lockContractAddress) public {... */\n    tag_91:\n        /* \"challeng/my_contract/distribution.sol\":22404:22423  lockContractAddress */\n      dup1\n        /* \"challeng/my_contract/distribution.sol\":22381:22401  _lockContractAddress */\n      0x03\n      0x00\n        /* \"challeng/my_contract/distribution.sol\":22381:22423  _lockContractAddress = lockContractAddress */\n      0x0100\n      exp\n      dup2\n      sload\n      dup2\n      0xffffffffffffffffffffffffffffffffffffffff\n      mul\n      not\n      and\n      swap1\n      dup4\n      0xffffffffffffffffffffffffffffffffffffffff\n      and\n      mul\n      or\n      swap1\n      sstore\n      pop\n        /* \"challeng/my_contract/distribution.sol\":22302:22431  function setLockContractAddress(address lockContractAddress) public {... */\n      pop\n      jump\t// out\n        /* \"challeng/my_contract/distribution.sol\":22009:22120  function setChallengContract(address contractAddrss) public {... */\n    tag_94:\n        /* \"challeng/my_contract/distribution.sol\":22098:22112  contractAddrss */\n      dup1\n        /* \"challeng/my_contract/distribution.sol\":22080:22095  _contractAddrss */\n      0x01\n      0x00\n        /* \"challeng/my_contract/distribution.sol\":22080:22112  _contractAddrss = contractAddrss */\n      0x0100\n      exp\n      dup2\n      sload\n      dup2\n      0xffffffffffffffffffffffffffffffffffffffff\n      mul\n      not\n      and\n      swap1\n      dup4\n      0xffffffffffffffffffffffffffffffffffffffff\n      and\n      mul\n      or\n      swap1\n      sstore\n      pop\n        /* \"challeng/my_contract/distribution.sol\":22009:22120  function setChallengContract(address contractAddrss) public {... */\n      pop\n      jump\t// out\n        /* \"challeng/my_contract/distribution.sol\":23269:23410  function setReleaseContractAddress(address releaseContractAddress) public {... */\n    tag_97:\n        /* \"challeng/my_contract/distribution.sol\":23380:23402  releaseContractAddress */\n      dup1\n        /* \"challeng/my_contract/distribution.sol\":23354:23377  _releaseContractAddress */\n      0x02\n      0x00\n        /* \"challeng/my_contract/distribution.sol\":23354:23402  _releaseContractAddress = releaseContractAddress */\n      0x0100\n      exp\n      dup2\n      sload\n      dup2\n      0xffffffffffffffffffffffffffffffffffffffff\n      mul\n      not\n      and\n      swap1\n      dup4\n      0xffffffffffffffffffffffffffffffffffffffff\n      and\n      mul\n      or\n      swap1\n      sstore\n      pop\n        /* \"challeng/my_contract/distribution.sol\":23269:23410  function setReleaseContractAddress(address releaseContractAddress) public {... */\n      pop\n      jump\t// out\n        /* \"challeng/my_contract/distribution.sol\":21391:21477  function token() public view virtual returns (IERC20) {... */\n    tag_99:\n        /* \"challeng/my_contract/distribution.sol\":21437:21443  IERC20 */\n      0x00\n        /* \"challeng/my_contract/distribution.sol\":21463:21469  _token */\n      dup1\n      0x00\n      swap1\n      sload\n      swap1\n      0x0100\n      exp\n      swap1\n      div\n      0xffffffffffffffffffffffffffffffffffffffff\n      and\n        /* \"challeng/my_contract/distribution.sol\":21456:21469  return _token */\n      swap1\n      pop\n        /* \"challeng/my_contract/distribution.sol\":21391:21477  function token() public view virtual returns (IERC20) {... */\n      swap1\n      jump\t// out\n        /* \"challeng/my_contract/distribution.sol\":16423:16671  function safeTransferFrom(... */\n    tag_147:\n        /* \"challeng/my_contract/distribution.sol\":16567:16663  _callOptionalReturn(token, abi.encodeWithSelector(token.transferFrom.selector, from, to, value)) */\n      tag_301\n        /* \"challeng/my_contract/distribution.sol\":16587:16592  token */\n      dup5\n        /* \"challeng/my_contract/distribution.sol\":16617:16644  token.transferFrom.selector */\n      shl(0xe0, 0x23b872dd)\n        /* \"challeng/my_contract/distribution.sol\":16646:16650  from */\n      dup6\n        /* \"challeng/my_contract/distribution.sol\":16652:16654  to */\n      dup6\n        /* \"challeng/my_contract/distribution.sol\":16656:16661  value */\n      dup6\n        /* \"challeng/my_contract/distribution.sol\":16594:16662  abi.encodeWithSelector(token.transferFrom.selector, from, to, value) */\n      add(0x24, mload(0x40))\n      tag_302\n      swap4\n      swap3\n      swap2\n      swap1\n      tag_303\n      jump\t// in\n    tag_302:\n      mload(0x40)\n      0x20\n      dup2\n      dup4\n      sub\n      sub\n      dup2\n      mstore\n      swap1\n      0x40\n      mstore\n      swap1\n      not(0xffffffffffffffffffffffffffffffffffffffffffffffffffffffff)\n      and\n      0x20\n      dup3\n      add\n      dup1\n      mload\n      0xffffffffffffffffffffffffffffffffffffffffffffffffffffffff\n      dup4\n      dup2\n      dup4\n      and\n      or\n      dup4\n      mstore\n      pop\n      pop\n      pop\n      pop\n        /* \"challeng/my_contract/distribution.sol\":16567:16586  _callOptionalReturn */\n      tag_304\n        /* \"challeng/my_contract/distribution.sol\":16567:16663  _callOptionalReturn(token, abi.encodeWithSelector(token.transferFrom.selector, from, to, value)) */\n      jump\t// in\n    tag_301:\n        /* \"challeng/my_contract/distribution.sol\":16423:16671  function safeTransferFrom(... */\n      pop\n      pop\n      pop\n      pop\n      jump\t// out\n        /* \"challeng/my_contract/distribution.sol\":4045:4226  function add(uint256 a, uint256 b) internal pure returns (uint256) {... */\n    tag_238:\n        /* \"challeng/my_contract/distribution.sol\":4103:4110  uint256 */\n      0x00\n        /* \"challeng/my_contract/distribution.sol\":4123:4132  uint256 c */\n      dup1\n        /* \"challeng/my_contract/distribution.sol\":4139:4140  b */\n      dup3\n        /* \"challeng/my_contract/distribution.sol\":4135:4136  a */\n      dup5\n        /* \"challeng/my_contract/distribution.sol\":4135:4140  a + b */\n      tag_306\n      swap2\n      swap1\n      tag_123\n      jump\t// in\n    tag_306:\n        /* \"challeng/my_contract/distribution.sol\":4123:4140  uint256 c = a + b */\n      swap1\n      pop\n        /* \"challeng/my_contract/distribution.sol\":4164:4165  a */\n      dup4\n        /* \"challeng/my_contract/distribution.sol\":4159:4160  c */\n      dup2\n        /* \"challeng/my_contract/distribution.sol\":4159:4165  c >= a */\n      lt\n      iszero\n        /* \"challeng/my_contract/distribution.sol\":4151:4197  require(c >= a, \"SafeMath: addition overflow\") */\n      tag_307\n      jumpi\n      mload(0x40)\n      0x08c379a000000000000000000000000000000000000000000000000000000000\n      dup2\n      mstore\n      0x04\n      add\n      tag_308\n      swap1\n      tag_309\n      jump\t// in\n    tag_308:\n      mload(0x40)\n      dup1\n      swap2\n      sub\n      swap1\n      revert\n    tag_307:\n        /* \"challeng/my_contract/distribution.sol\":4217:4218  c */\n      dup1\n        /* \"challeng/my_contract/distribution.sol\":4210:4218  return c */\n      swap2\n      pop\n      pop\n        /* \"challeng/my_contract/distribution.sol\":4045:4226  function add(uint256 a, uint256 b) internal pure returns (uint256) {... */\n      swap3\n      swap2\n      pop\n      pop\n      jump\t// out\n        /* \"challeng/my_contract/distribution.sol\":18777:19493  function _callOptionalReturn(IERC20 token, bytes memory data) private {... */\n    tag_304:\n        /* \"challeng/my_contract/distribution.sol\":19201:19224  bytes memory returndata */\n      0x00\n        /* \"challeng/my_contract/distribution.sol\":19227:19296  address(token).functionCall(data, \"SafeERC20: low-level call failed\") */\n      tag_311\n        /* \"challeng/my_contract/distribution.sol\":19255:19259  data */\n      dup3\n        /* \"challeng/my_contract/distribution.sol\":19227:19296  address(token).functionCall(data, \"SafeERC20: low-level call failed\") */\n      mload(0x40)\n      dup1\n      0x40\n      add\n      0x40\n      mstore\n      dup1\n      0x20\n      dup2\n      mstore\n      0x20\n      add\n      0x5361666545524332303a206c6f772d6c6576656c2063616c6c206661696c6564\n      dup2\n      mstore\n      pop\n        /* \"challeng/my_contract/distribution.sol\":19235:19240  token */\n      dup6\n        /* \"challeng/my_contract/distribution.sol\":19227:19254  address(token).functionCall */\n      0xffffffffffffffffffffffffffffffffffffffff\n      and\n      tag_312\n      swap1\n        /* \"challeng/my_contract/distribution.sol\":19227:19296  address(token).functionCall(data, \"SafeERC20: low-level call failed\") */\n      swap3\n      swap2\n      swap1\n      0xffffffff\n      and\n      jump\t// in\n    tag_311:\n        /* \"challeng/my_contract/distribution.sol\":19201:19296  bytes memory returndata = address(token).functionCall(data, \"SafeERC20: low-level call failed\") */\n      swap1\n      pop\n        /* \"challeng/my_contract/distribution.sol\":19331:19332  0 */\n      0x00\n        /* \"challeng/my_contract/distribution.sol\":19311:19321  returndata */\n      dup2\n        /* \"challeng/my_contract/distribution.sol\":19311:19328  returndata.length */\n      mload\n        /* \"challeng/my_contract/distribution.sol\":19311:19332  returndata.length > 0 */\n      gt\n        /* \"challeng/my_contract/distribution.sol\":19307:19486  if (returndata.length > 0) {... */\n      iszero\n      tag_313\n      jumpi\n        /* \"challeng/my_contract/distribution.sol\":19408:19418  returndata */\n      dup1\n        /* \"challeng/my_contract/distribution.sol\":19397:19427  abi.decode(returndata, (bool)) */\n      dup1\n      0x20\n      add\n      swap1\n      mload\n      dup2\n      add\n      swap1\n      tag_314\n      swap2\n      swap1\n      tag_315\n      jump\t// in\n    tag_314:\n        /* \"challeng/my_contract/distribution.sol\":19389:19474  require(abi.decode(returndata, (bool)), \"SafeERC20: ERC20 operation did not succeed\") */\n      tag_316\n      jumpi\n      mload(0x40)\n      0x08c379a000000000000000000000000000000000000000000000000000000000\n      dup2\n      mstore\n      0x04\n      add\n      tag_317\n      swap1\n      tag_318\n      jump\t// in\n    tag_317:\n      mload(0x40)\n      dup1\n      swap2\n      sub\n      swap1\n      revert\n    tag_316:\n        /* \"challeng/my_contract/distribution.sol\":19307:19486  if (returndata.length > 0) {... */\n    tag_313:\n        /* \"challeng/my_contract/distribution.sol\":18847:19493  {... */\n      pop\n        /* \"challeng/my_contract/distribution.sol\":18777:19493  function _callOptionalReturn(IERC20 token, bytes memory data) private {... */\n      pop\n      pop\n      jump\t// out\n        /* \"challeng/my_contract/distribution.sol\":11151:11380  function functionCall(... */\n    tag_312:\n        /* \"challeng/my_contract/distribution.sol\":11288:11300  bytes memory */\n      0x60\n        /* \"challeng/my_contract/distribution.sol\":11320:11372  functionCallWithValue(target, data, 0, errorMessage) */\n      tag_320\n        /* \"challeng/my_contract/distribution.sol\":11342:11348  target */\n      dup5\n        /* \"challeng/my_contract/distribution.sol\":11350:11354  data */\n      dup5\n        /* \"challeng/my_contract/distribution.sol\":11356:11357  0 */\n      0x00\n        /* \"challeng/my_contract/distribution.sol\":11359:11371  errorMessage */\n      dup6\n        /* \"challeng/my_contract/distribution.sol\":11320:11341  functionCallWithValue */\n      tag_321\n        /* \"challeng/my_contract/distribution.sol\":11320:11372  functionCallWithValue(target, data, 0, errorMessage) */\n      jump\t// in\n    tag_320:\n        /* \"challeng/my_contract/distribution.sol\":11313:11372  return functionCallWithValue(target, data, 0, errorMessage) */\n      swap1\n      pop\n        /* \"challeng/my_contract/distribution.sol\":11151:11380  function functionCall(... */\n      swap4\n      swap3\n      pop\n      pop\n      pop\n      jump\t// out\n        /* \"challeng/my_contract/distribution.sol\":12271:12781  function functionCallWithValue(... */\n    tag_321:\n        /* \"challeng/my_contract/distribution.sol\":12441:12453  bytes memory */\n      0x60\n        /* \"challeng/my_contract/distribution.sol\":12499:12504  value */\n      dup3\n        /* \"challeng/my_contract/distribution.sol\":12474:12495  address(this).balance */\n      selfbalance\n        /* \"challeng/my_contract/distribution.sol\":12474:12504  address(this).balance >= value */\n      lt\n      iszero\n        /* \"challeng/my_contract/distribution.sol\":12466:12547  require(address(this).balance >= value, \"Address: insufficient balance for call\") */\n      tag_323\n      jumpi\n      mload(0x40)\n      0x08c379a000000000000000000000000000000000000000000000000000000000\n      dup2\n      mstore\n      0x04\n      add\n      tag_324\n      swap1\n      tag_325\n      jump\t// in\n    tag_324:\n      mload(0x40)\n      dup1\n      swap2\n      sub\n      swap1\n      revert\n    tag_323:\n        /* \"challeng/my_contract/distribution.sol\":12566:12584  isContract(target) */\n      tag_326\n        /* \"challeng/my_contract/distribution.sol\":12577:12583  target */\n      dup6\n        /* \"challeng/my_contract/distribution.sol\":12566:12576  isContract */\n      tag_327\n        /* \"challeng/my_contract/distribution.sol\":12566:12584  isContract(target) */\n      jump\t// in\n    tag_326:\n        /* \"challeng/my_contract/distribution.sol\":12558:12618  require(isContract(target), \"Address: call to non-contract\") */\n      tag_328\n      jumpi\n      mload(0x40)\n      0x08c379a000000000000000000000000000000000000000000000000000000000\n      dup2\n      mstore\n      0x04\n      add\n      tag_329\n      swap1\n      tag_330\n      jump\t// in\n    tag_329:\n      mload(0x40)\n      dup1\n      swap2\n      sub\n      swap1\n      revert\n    tag_328:\n        /* \"challeng/my_contract/distribution.sol\":12632:12644  bool success */\n      0x00\n        /* \"challeng/my_contract/distribution.sol\":12646:12669  bytes memory returndata */\n      dup1\n        /* \"challeng/my_contract/distribution.sol\":12673:12679  target */\n      dup7\n        /* \"challeng/my_contract/distribution.sol\":12673:12684  target.call */\n      0xffffffffffffffffffffffffffffffffffffffff\n      and\n        /* \"challeng/my_contract/distribution.sol\":12692:12697  value */\n      dup6\n        /* \"challeng/my_contract/distribution.sol\":12699:12703  data */\n      dup8\n        /* \"challeng/my_contract/distribution.sol\":12673:12704  target.call{value: value}(data) */\n      mload(0x40)\n      tag_331\n      swap2\n      swap1\n      tag_332\n      jump\t// in\n    tag_331:\n      0x00\n      mload(0x40)\n      dup1\n      dup4\n      sub\n      dup2\n      dup6\n      dup8\n      gas\n      call\n      swap3\n      pop\n      pop\n      pop\n      returndatasize\n      dup1\n      0x00\n      dup2\n      eq\n      tag_335\n      jumpi\n      mload(0x40)\n      swap2\n      pop\n      and(add(returndatasize, 0x3f), not(0x1f))\n      dup3\n      add\n      0x40\n      mstore\n      returndatasize\n      dup3\n      mstore\n      returndatasize\n      0x00\n      0x20\n      dup5\n      add\n      returndatacopy\n      jump(tag_334)\n    tag_335:\n      0x60\n      swap2\n      pop\n    tag_334:\n      pop\n        /* \"challeng/my_contract/distribution.sol\":12631:12704  (bool success, bytes memory returndata) = target.call{value: value}(data) */\n      swap2\n      pop\n      swap2\n      pop\n        /* \"challeng/my_contract/distribution.sol\":12722:12773  verifyCallResult(success, returndata, errorMessage) */\n      tag_336\n        /* \"challeng/my_contract/distribution.sol\":12739:12746  success */\n      dup3\n        /* \"challeng/my_contract/distribution.sol\":12748:12758  returndata */\n      dup3\n        /* \"challeng/my_contract/distribution.sol\":12760:12772  errorMessage */\n      dup7\n        /* \"challeng/my_contract/distribution.sol\":12722:12738  verifyCallResult */\n      tag_337\n        /* \"challeng/my_contract/distribution.sol\":12722:12773  verifyCallResult(success, returndata, errorMessage) */\n      jump\t// in\n    tag_336:\n        /* \"challeng/my_contract/distribution.sol\":12715:12773  return verifyCallResult(success, returndata, errorMessage) */\n      swap3\n      pop\n      pop\n      pop\n        /* \"challeng/my_contract/distribution.sol\":12271:12781  function functionCallWithValue(... */\n      swap5\n      swap4\n      pop\n      pop\n      pop\n      pop\n      jump\t// out\n        /* \"challeng/my_contract/distribution.sol\":8406:8732  function isContract(address account) internal view returns (bool) {... */\n    tag_327:\n        /* \"challeng/my_contract/distribution.sol\":8466:8470  bool */\n      0x00\n        /* \"challeng/my_contract/distribution.sol\":8723:8724  0 */\n      dup1\n        /* \"challeng/my_contract/distribution.sol\":8701:8708  account */\n      dup3\n        /* \"challeng/my_contract/distribution.sol\":8701:8720  account.code.length */\n      0xffffffffffffffffffffffffffffffffffffffff\n      and\n      extcodesize\n        /* \"challeng/my_contract/distribution.sol\":8701:8724  account.code.length > 0 */\n      gt\n        /* \"challeng/my_contract/distribution.sol\":8694:8724  return account.code.length > 0 */\n      swap1\n      pop\n        /* \"challeng/my_contract/distribution.sol\":8406:8732  function isContract(address account) internal view returns (bool) {... */\n      swap2\n      swap1\n      pop\n      jump\t// out\n        /* \"challeng/my_contract/distribution.sol\":14957:15669  function verifyCallResult(... */\n    tag_337:\n        /* \"challeng/my_contract/distribution.sol\":15107:15119  bytes memory */\n      0x60\n        /* \"challeng/my_contract/distribution.sol\":15136:15143  success */\n      dup4\n        /* \"challeng/my_contract/distribution.sol\":15132:15662  if (success) {... */\n      iszero\n      tag_340\n      jumpi\n        /* \"challeng/my_contract/distribution.sol\":15167:15177  returndata */\n      dup3\n        /* \"challeng/my_contract/distribution.sol\":15160:15177  return returndata */\n      swap1\n      pop\n      jump(tag_339)\n        /* \"challeng/my_contract/distribution.sol\":15132:15662  if (success) {... */\n    tag_340:\n        /* \"challeng/my_contract/distribution.sol\":15301:15302  0 */\n      0x00\n        /* \"challeng/my_contract/distribution.sol\":15281:15291  returndata */\n      dup4\n        /* \"challeng/my_contract/distribution.sol\":15281:15298  returndata.length */\n      mload\n        /* \"challeng/my_contract/distribution.sol\":15281:15302  returndata.length > 0 */\n      gt\n        /* \"challeng/my_contract/distribution.sol\":15277:15651  if (returndata.length > 0) {... */\n      iszero\n      tag_342\n      jumpi\n        /* \"challeng/my_contract/distribution.sol\":15479:15489  returndata */\n      dup3\n        /* \"challeng/my_contract/distribution.sol\":15473:15490  mload(returndata) */\n      mload\n        /* \"challeng/my_contract/distribution.sol\":15540:15555  returndata_size */\n      dup1\n        /* \"challeng/my_contract/distribution.sol\":15527:15537  returndata */\n      dup5\n        /* \"challeng/my_contract/distribution.sol\":15523:15525  32 */\n      0x20\n        /* \"challeng/my_contract/distribution.sol\":15519:15538  add(32, returndata) */\n      add\n        /* \"challeng/my_contract/distribution.sol\":15512:15556  revert(add(32, returndata), returndata_size) */\n      revert\n        /* \"challeng/my_contract/distribution.sol\":15277:15651  if (returndata.length > 0) {... */\n    tag_342:\n        /* \"challeng/my_contract/distribution.sol\":15622:15634  errorMessage */\n      dup2\n        /* \"challeng/my_contract/distribution.sol\":15615:15635  revert(errorMessage) */\n      mload(0x40)\n      0x08c379a000000000000000000000000000000000000000000000000000000000\n      dup2\n      mstore\n      0x04\n      add\n      tag_344\n      swap2\n      swap1\n      tag_137\n      jump\t// in\n    tag_344:\n      mload(0x40)\n      dup1\n      swap2\n      sub\n      swap1\n      revert\n        /* \"challeng/my_contract/distribution.sol\":14957:15669  function verifyCallResult(... */\n    tag_339:\n      swap4\n      swap3\n      pop\n      pop\n      pop\n      jump\t// out\n        /* \"#utility.yul\":7:82   */\n    tag_345:\n        /* \"#utility.yul\":40:46   */\n      0x00\n        /* \"#utility.yul\":73:75   */\n      0x40\n        /* \"#utility.yul\":67:76   */\n      mload\n        /* \"#utility.yul\":57:76   */\n      swap1\n      pop\n        /* \"#utility.yul\":7:82   */\n      swap1\n      jump\t// out\n        /* \"#utility.yul\":88:205   */\n    tag_346:\n        /* \"#utility.yul\":197:198   */\n      0x00\n        /* \"#utility.yul\":194:195   */\n      dup1\n        /* \"#utility.yul\":187:199   */\n      revert\n        /* \"#utility.yul\":211:328   */\n    tag_347:\n        /* \"#utility.yul\":320:321   */\n      0x00\n        /* \"#utility.yul\":317:318   */\n      dup1\n        /* \"#utility.yul\":310:322   */\n      revert\n        /* \"#utility.yul\":334:451   */\n    tag_348:\n        /* \"#utility.yul\":443:444   */\n      0x00\n        /* \"#utility.yul\":440:441   */\n      dup1\n        /* \"#utility.yul\":433:445   */\n      revert\n        /* \"#utility.yul\":457:559   */\n    tag_349:\n        /* \"#utility.yul\":498:504   */\n      0x00\n        /* \"#utility.yul\":549:551   */\n      0x1f\n        /* \"#utility.yul\":545:552   */\n      not\n        /* \"#utility.yul\":540:542   */\n      0x1f\n        /* \"#utility.yul\":533:538   */\n      dup4\n        /* \"#utility.yul\":529:543   */\n      add\n        /* \"#utility.yul\":525:553   */\n      and\n        /* \"#utility.yul\":515:553   */\n      swap1\n      pop\n        /* \"#utility.yul\":457:559   */\n      swap2\n      swap1\n      pop\n      jump\t// out\n        /* \"#utility.yul\":565:745   */\n    tag_350:\n        /* \"#utility.yul\":613:690   */\n      0x4e487b7100000000000000000000000000000000000000000000000000000000\n        /* \"#utility.yul\":610:611   */\n      0x00\n        /* \"#utility.yul\":603:691   */\n      mstore\n        /* \"#utility.yul\":710:714   */\n      0x41\n        /* \"#utility.yul\":707:708   */\n      0x04\n        /* \"#utility.yul\":700:715   */\n      mstore\n        /* \"#utility.yul\":734:738   */\n      0x24\n        /* \"#utility.yul\":731:732   */\n      0x00\n        /* \"#utility.yul\":724:739   */\n      revert\n        /* \"#utility.yul\":751:1032   */\n    tag_351:\n        /* \"#utility.yul\":834:861   */\n      tag_437\n        /* \"#utility.yul\":856:860   */\n      dup3\n        /* \"#utility.yul\":834:861   */\n      tag_349\n      jump\t// in\n    tag_437:\n        /* \"#utility.yul\":826:832   */\n      dup2\n        /* \"#utility.yul\":822:862   */\n      add\n        /* \"#utility.yul\":964:970   */\n      dup2\n        /* \"#utility.yul\":952:962   */\n      dup2\n        /* \"#utility.yul\":949:971   */\n      lt\n        /* \"#utility.yul\":928:946   */\n      0xffffffffffffffff\n        /* \"#utility.yul\":916:926   */\n      dup3\n        /* \"#utility.yul\":913:947   */\n      gt\n        /* \"#utility.yul\":910:972   */\n      or\n        /* \"#utility.yul\":907:995   */\n      iszero\n      tag_438\n      jumpi\n        /* \"#utility.yul\":975:993   */\n      tag_439\n      tag_350\n      jump\t// in\n    tag_439:\n        /* \"#utility.yul\":907:995   */\n    tag_438:\n        /* \"#utility.yul\":1015:1025   */\n      dup1\n        /* \"#utility.yul\":1011:1013   */\n      0x40\n        /* \"#utility.yul\":1004:1026   */\n      mstore\n        /* \"#utility.yul\":794:1032   */\n      pop\n        /* \"#utility.yul\":751:1032   */\n      pop\n      pop\n      jump\t// out\n        /* \"#utility.yul\":1038:1167   */\n    tag_352:\n        /* \"#utility.yul\":1072:1078   */\n      0x00\n        /* \"#utility.yul\":1099:1119   */\n      tag_441\n      tag_345\n      jump\t// in\n    tag_441:\n        /* \"#utility.yul\":1089:1119   */\n      swap1\n      pop\n        /* \"#utility.yul\":1128:1161   */\n      tag_442\n        /* \"#utility.yul\":1156:1160   */\n      dup3\n        /* \"#utility.yul\":1148:1154   */\n      dup3\n        /* \"#utility.yul\":1128:1161   */\n      tag_351\n      jump\t// in\n    tag_442:\n        /* \"#utility.yul\":1038:1167   */\n      swap2\n      swap1\n      pop\n      jump\t// out\n        /* \"#utility.yul\":1173:1494   */\n    tag_353:\n        /* \"#utility.yul\":1260:1264   */\n      0x00\n        /* \"#utility.yul\":1350:1368   */\n      0xffffffffffffffff\n        /* \"#utility.yul\":1342:1348   */\n      dup3\n        /* \"#utility.yul\":1339:1369   */\n      gt\n        /* \"#utility.yul\":1336:1392   */\n      iszero\n      tag_444\n      jumpi\n        /* \"#utility.yul\":1372:1390   */\n      tag_445\n      tag_350\n      jump\t// in\n    tag_445:\n        /* \"#utility.yul\":1336:1392   */\n    tag_444:\n        /* \"#utility.yul\":1422:1426   */\n      0x20\n        /* \"#utility.yul\":1414:1420   */\n      dup3\n        /* \"#utility.yul\":1410:1427   */\n      mul\n        /* \"#utility.yul\":1402:1427   */\n      swap1\n      pop\n        /* \"#utility.yul\":1482:1486   */\n      0x20\n        /* \"#utility.yul\":1476:1480   */\n      dup2\n        /* \"#utility.yul\":1472:1487   */\n      add\n        /* \"#utility.yul\":1464:1487   */\n      swap1\n      pop\n        /* \"#utility.yul\":1173:1494   */\n      swap2\n      swap1\n      pop\n      jump\t// out\n        /* \"#utility.yul\":1500:1617   */\n    tag_354:\n        /* \"#utility.yul\":1609:1610   */\n      0x00\n        /* \"#utility.yul\":1606:1607   */\n      dup1\n        /* \"#utility.yul\":1599:1611   */\n      revert\n        /* \"#utility.yul\":1623:1740   */\n    tag_355:\n        /* \"#utility.yul\":1732:1733   */\n      0x00\n        /* \"#utility.yul\":1729:1730   */\n      dup1\n        /* \"#utility.yul\":1722:1734   */\n      revert\n        /* \"#utility.yul\":1746:2054   */\n    tag_356:\n        /* \"#utility.yul\":1808:1812   */\n      0x00\n        /* \"#utility.yul\":1898:1916   */\n      0xffffffffffffffff\n        /* \"#utility.yul\":1890:1896   */\n      dup3\n        /* \"#utility.yul\":1887:1917   */\n      gt\n        /* \"#utility.yul\":1884:1940   */\n      iszero\n      tag_449\n      jumpi\n        /* \"#utility.yul\":1920:1938   */\n      tag_450\n      tag_350\n      jump\t// in\n    tag_450:\n        /* \"#utility.yul\":1884:1940   */\n    tag_449:\n        /* \"#utility.yul\":1958:1987   */\n      tag_451\n        /* \"#utility.yul\":1980:1986   */\n      dup3\n        /* \"#utility.yul\":1958:1987   */\n      tag_349\n      jump\t// in\n    tag_451:\n        /* \"#utility.yul\":1950:1987   */\n      swap1\n      pop\n        /* \"#utility.yul\":2042:2046   */\n      0x20\n        /* \"#utility.yul\":2036:2040   */\n      dup2\n        /* \"#utility.yul\":2032:2047   */\n      add\n        /* \"#utility.yul\":2024:2047   */\n      swap1\n      pop\n        /* \"#utility.yul\":1746:2054   */\n      swap2\n      swap1\n      pop\n      jump\t// out\n        /* \"#utility.yul\":2060:2206   */\n    tag_357:\n        /* \"#utility.yul\":2157:2163   */\n      dup3\n        /* \"#utility.yul\":2152:2155   */\n      dup2\n        /* \"#utility.yul\":2147:2150   */\n      dup4\n        /* \"#utility.yul\":2134:2164   */\n      calldatacopy\n        /* \"#utility.yul\":2198:2199   */\n      0x00\n        /* \"#utility.yul\":2189:2195   */\n      dup4\n        /* \"#utility.yul\":2184:2187   */\n      dup4\n        /* \"#utility.yul\":2180:2196   */\n      add\n        /* \"#utility.yul\":2173:2200   */\n      mstore\n        /* \"#utility.yul\":2060:2206   */\n      pop\n      pop\n      pop\n      jump\t// out\n        /* \"#utility.yul\":2212:2637   */\n    tag_358:\n        /* \"#utility.yul\":2290:2295   */\n      0x00\n        /* \"#utility.yul\":2315:2381   */\n      tag_454\n        /* \"#utility.yul\":2331:2380   */\n      tag_455\n        /* \"#utility.yul\":2373:2379   */\n      dup5\n        /* \"#utility.yul\":2331:2380   */\n      tag_356\n      jump\t// in\n    tag_455:\n        /* \"#utility.yul\":2315:2381   */\n      tag_352\n      jump\t// in\n    tag_454:\n        /* \"#utility.yul\":2306:2381   */\n      swap1\n      pop\n        /* \"#utility.yul\":2404:2410   */\n      dup3\n        /* \"#utility.yul\":2397:2402   */\n      dup2\n        /* \"#utility.yul\":2390:2411   */\n      mstore\n        /* \"#utility.yul\":2442:2446   */\n      0x20\n        /* \"#utility.yul\":2435:2440   */\n      dup2\n        /* \"#utility.yul\":2431:2447   */\n      add\n        /* \"#utility.yul\":2480:2483   */\n      dup5\n        /* \"#utility.yul\":2471:2477   */\n      dup5\n        /* \"#utility.yul\":2466:2469   */\n      dup5\n        /* \"#utility.yul\":2462:2478   */\n      add\n        /* \"#utility.yul\":2459:2484   */\n      gt\n        /* \"#utility.yul\":2456:2568   */\n      iszero\n      tag_456\n      jumpi\n        /* \"#utility.yul\":2487:2566   */\n      tag_457\n      tag_355\n      jump\t// in\n    tag_457:\n        /* \"#utility.yul\":2456:2568   */\n    tag_456:\n        /* \"#utility.yul\":2577:2631   */\n      tag_458\n        /* \"#utility.yul\":2624:2630   */\n      dup5\n        /* \"#utility.yul\":2619:2622   */\n      dup3\n        /* \"#utility.yul\":2614:2617   */\n      dup6\n        /* \"#utility.yul\":2577:2631   */\n      tag_357\n      jump\t// in\n    tag_458:\n        /* \"#utility.yul\":2296:2637   */\n      pop\n        /* \"#utility.yul\":2212:2637   */\n      swap4\n      swap3\n      pop\n      pop\n      pop\n      jump\t// out\n        /* \"#utility.yul\":2657:2997   */\n    tag_359:\n        /* \"#utility.yul\":2713:2718   */\n      0x00\n        /* \"#utility.yul\":2762:2765   */\n      dup3\n        /* \"#utility.yul\":2755:2759   */\n      0x1f\n        /* \"#utility.yul\":2747:2753   */\n      dup4\n        /* \"#utility.yul\":2743:2760   */\n      add\n        /* \"#utility.yul\":2739:2766   */\n      slt\n        /* \"#utility.yul\":2729:2851   */\n      tag_460\n      jumpi\n        /* \"#utility.yul\":2770:2849   */\n      tag_461\n      tag_348\n      jump\t// in\n    tag_461:\n        /* \"#utility.yul\":2729:2851   */\n    tag_460:\n        /* \"#utility.yul\":2887:2893   */\n      dup2\n        /* \"#utility.yul\":2874:2894   */\n      calldataload\n        /* \"#utility.yul\":2912:2991   */\n      tag_462\n        /* \"#utility.yul\":2987:2990   */\n      dup5\n        /* \"#utility.yul\":2979:2985   */\n      dup3\n        /* \"#utility.yul\":2972:2976   */\n      0x20\n        /* \"#utility.yul\":2964:2970   */\n      dup7\n        /* \"#utility.yul\":2960:2977   */\n      add\n        /* \"#utility.yul\":2912:2991   */\n      tag_358\n      jump\t// in\n    tag_462:\n        /* \"#utility.yul\":2903:2991   */\n      swap2\n      pop\n        /* \"#utility.yul\":2719:2997   */\n      pop\n        /* \"#utility.yul\":2657:2997   */\n      swap3\n      swap2\n      pop\n      pop\n      jump\t// out\n        /* \"#utility.yul\":3019:3964   */\n    tag_360:\n        /* \"#utility.yul\":3125:3130   */\n      0x00\n        /* \"#utility.yul\":3150:3241   */\n      tag_464\n        /* \"#utility.yul\":3166:3240   */\n      tag_465\n        /* \"#utility.yul\":3233:3239   */\n      dup5\n        /* \"#utility.yul\":3166:3240   */\n      tag_353\n      jump\t// in\n    tag_465:\n        /* \"#utility.yul\":3150:3241   */\n      tag_352\n      jump\t// in\n    tag_464:\n        /* \"#utility.yul\":3141:3241   */\n      swap1\n      pop\n        /* \"#utility.yul\":3261:3266   */\n      dup1\n        /* \"#utility.yul\":3290:3296   */\n      dup4\n        /* \"#utility.yul\":3283:3288   */\n      dup3\n        /* \"#utility.yul\":3276:3297   */\n      mstore\n        /* \"#utility.yul\":3324:3328   */\n      0x20\n        /* \"#utility.yul\":3317:3322   */\n      dup3\n        /* \"#utility.yul\":3313:3329   */\n      add\n        /* \"#utility.yul\":3306:3329   */\n      swap1\n      pop\n        /* \"#utility.yul\":3377:3381   */\n      0x20\n        /* \"#utility.yul\":3369:3375   */\n      dup5\n        /* \"#utility.yul\":3365:3382   */\n      mul\n        /* \"#utility.yul\":3357:3363   */\n      dup4\n        /* \"#utility.yul\":3353:3383   */\n      add\n        /* \"#utility.yul\":3406:3409   */\n      dup6\n        /* \"#utility.yul\":3398:3404   */\n      dup2\n        /* \"#utility.yul\":3395:3410   */\n      gt\n        /* \"#utility.yul\":3392:3514   */\n      iszero\n      tag_466\n      jumpi\n        /* \"#utility.yul\":3425:3504   */\n      tag_467\n      tag_354\n      jump\t// in\n    tag_467:\n        /* \"#utility.yul\":3392:3514   */\n    tag_466:\n        /* \"#utility.yul\":3540:3546   */\n      dup4\n        /* \"#utility.yul\":3523:3958   */\n    tag_468:\n        /* \"#utility.yul\":3557:3563   */\n      dup2\n        /* \"#utility.yul\":3552:3555   */\n      dup2\n        /* \"#utility.yul\":3549:3564   */\n      lt\n        /* \"#utility.yul\":3523:3958   */\n      iszero\n      tag_470\n      jumpi\n        /* \"#utility.yul\":3646:3649   */\n      dup1\n        /* \"#utility.yul\":3633:3650   */\n      calldataload\n        /* \"#utility.yul\":3682:3700   */\n      0xffffffffffffffff\n        /* \"#utility.yul\":3669:3680   */\n      dup2\n        /* \"#utility.yul\":3666:3701   */\n      gt\n        /* \"#utility.yul\":3663:3785   */\n      iszero\n      tag_471\n      jumpi\n        /* \"#utility.yul\":3704:3783   */\n      tag_472\n      tag_348\n      jump\t// in\n    tag_472:\n        /* \"#utility.yul\":3663:3785   */\n    tag_471:\n        /* \"#utility.yul\":3828:3839   */\n      dup1\n        /* \"#utility.yul\":3820:3826   */\n      dup7\n        /* \"#utility.yul\":3816:3840   */\n      add\n        /* \"#utility.yul\":3866:3913   */\n      tag_473\n        /* \"#utility.yul\":3909:3912   */\n      dup10\n        /* \"#utility.yul\":3897:3907   */\n      dup3\n        /* \"#utility.yul\":3866:3913   */\n      tag_359\n      jump\t// in\n    tag_473:\n        /* \"#utility.yul\":3861:3864   */\n      dup6\n        /* \"#utility.yul\":3854:3914   */\n      mstore\n        /* \"#utility.yul\":3943:3947   */\n      0x20\n        /* \"#utility.yul\":3938:3941   */\n      dup6\n        /* \"#utility.yul\":3934:3948   */\n      add\n        /* \"#utility.yul\":3927:3948   */\n      swap5\n      pop\n        /* \"#utility.yul\":3599:3958   */\n      pop\n      pop\n        /* \"#utility.yul\":3583:3587   */\n      0x20\n        /* \"#utility.yul\":3578:3581   */\n      dup2\n        /* \"#utility.yul\":3574:3588   */\n      add\n        /* \"#utility.yul\":3567:3588   */\n      swap1\n      pop\n        /* \"#utility.yul\":3523:3958   */\n      jump(tag_468)\n    tag_470:\n        /* \"#utility.yul\":3527:3548   */\n      pop\n        /* \"#utility.yul\":3131:3964   */\n      pop\n      pop\n        /* \"#utility.yul\":3019:3964   */\n      swap4\n      swap3\n      pop\n      pop\n      pop\n      jump\t// out\n        /* \"#utility.yul\":3986:4376   */\n    tag_361:\n        /* \"#utility.yul\":4067:4072   */\n      0x00\n        /* \"#utility.yul\":4116:4119   */\n      dup3\n        /* \"#utility.yul\":4109:4113   */\n      0x1f\n        /* \"#utility.yul\":4101:4107   */\n      dup4\n        /* \"#utility.yul\":4097:4114   */\n      add\n        /* \"#utility.yul\":4093:4120   */\n      slt\n        /* \"#utility.yul\":4083:4205   */\n      tag_475\n      jumpi\n        /* \"#utility.yul\":4124:4203   */\n      tag_476\n      tag_348\n      jump\t// in\n    tag_476:\n        /* \"#utility.yul\":4083:4205   */\n    tag_475:\n        /* \"#utility.yul\":4241:4247   */\n      dup2\n        /* \"#utility.yul\":4228:4248   */\n      calldataload\n        /* \"#utility.yul\":4266:4370   */\n      tag_477\n        /* \"#utility.yul\":4366:4369   */\n      dup5\n        /* \"#utility.yul\":4358:4364   */\n      dup3\n        /* \"#utility.yul\":4351:4355   */\n      0x20\n        /* \"#utility.yul\":4343:4349   */\n      dup7\n        /* \"#utility.yul\":4339:4356   */\n      add\n        /* \"#utility.yul\":4266:4370   */\n      tag_360\n      jump\t// in\n    tag_477:\n        /* \"#utility.yul\":4257:4370   */\n      swap2\n      pop\n        /* \"#utility.yul\":4073:4376   */\n      pop\n        /* \"#utility.yul\":3986:4376   */\n      swap3\n      swap2\n      pop\n      pop\n      jump\t// out\n        /* \"#utility.yul\":4382:4693   */\n    tag_362:\n        /* \"#utility.yul\":4459:4463   */\n      0x00\n        /* \"#utility.yul\":4549:4567   */\n      0xffffffffffffffff\n        /* \"#utility.yul\":4541:4547   */\n      dup3\n        /* \"#utility.yul\":4538:4568   */\n      gt\n        /* \"#utility.yul\":4535:4591   */\n      iszero\n      tag_479\n      jumpi\n        /* \"#utility.yul\":4571:4589   */\n      tag_480\n      tag_350\n      jump\t// in\n    tag_480:\n        /* \"#utility.yul\":4535:4591   */\n    tag_479:\n        /* \"#utility.yul\":4621:4625   */\n      0x20\n        /* \"#utility.yul\":4613:4619   */\n      dup3\n        /* \"#utility.yul\":4609:4626   */\n      mul\n        /* \"#utility.yul\":4601:4626   */\n      swap1\n      pop\n        /* \"#utility.yul\":4681:4685   */\n      0x20\n        /* \"#utility.yul\":4675:4679   */\n      dup2\n        /* \"#utility.yul\":4671:4686   */\n      add\n        /* \"#utility.yul\":4663:4686   */\n      swap1\n      pop\n        /* \"#utility.yul\":4382:4693   */\n      swap2\n      swap1\n      pop\n      jump\t// out\n        /* \"#utility.yul\":4699:4776   */\n    tag_363:\n        /* \"#utility.yul\":4736:4743   */\n      0x00\n        /* \"#utility.yul\":4765:4770   */\n      dup2\n        /* \"#utility.yul\":4754:4770   */\n      swap1\n      pop\n        /* \"#utility.yul\":4699:4776   */\n      swap2\n      swap1\n      pop\n      jump\t// out\n        /* \"#utility.yul\":4782:4904   */\n    tag_364:\n        /* \"#utility.yul\":4855:4879   */\n      tag_483\n        /* \"#utility.yul\":4873:4878   */\n      dup2\n        /* \"#utility.yul\":4855:4879   */\n      tag_363\n      jump\t// in\n    tag_483:\n        /* \"#utility.yul\":4848:4853   */\n      dup2\n        /* \"#utility.yul\":4845:4880   */\n      eq\n        /* \"#utility.yul\":4835:4898   */\n      tag_484\n      jumpi\n        /* \"#utility.yul\":4894:4895   */\n      0x00\n        /* \"#utility.yul\":4891:4892   */\n      dup1\n        /* \"#utility.yul\":4884:4896   */\n      revert\n        /* \"#utility.yul\":4835:4898   */\n    tag_484:\n        /* \"#utility.yul\":4782:4904   */\n      pop\n      jump\t// out\n        /* \"#utility.yul\":4910:5049   */\n    tag_365:\n        /* \"#utility.yul\":4956:4961   */\n      0x00\n        /* \"#utility.yul\":4994:5000   */\n      dup2\n        /* \"#utility.yul\":4981:5001   */\n      calldataload\n        /* \"#utility.yul\":4972:5001   */\n      swap1\n      pop\n        /* \"#utility.yul\":5010:5043   */\n      tag_486\n        /* \"#utility.yul\":5037:5042   */\n      dup2\n        /* \"#utility.yul\":5010:5043   */\n      tag_364\n      jump\t// in\n    tag_486:\n        /* \"#utility.yul\":4910:5049   */\n      swap3\n      swap2\n      pop\n      pop\n      jump\t// out\n        /* \"#utility.yul\":5072:5782   */\n    tag_366:\n        /* \"#utility.yul\":5168:5173   */\n      0x00\n        /* \"#utility.yul\":5193:5274   */\n      tag_488\n        /* \"#utility.yul\":5209:5273   */\n      tag_489\n        /* \"#utility.yul\":5266:5272   */\n      dup5\n        /* \"#utility.yul\":5209:5273   */\n      tag_362\n      jump\t// in\n    tag_489:\n        /* \"#utility.yul\":5193:5274   */\n      tag_352\n      jump\t// in\n    tag_488:\n        /* \"#utility.yul\":5184:5274   */\n      swap1\n      pop\n        /* \"#utility.yul\":5294:5299   */\n      dup1\n        /* \"#utility.yul\":5323:5329   */\n      dup4\n        /* \"#utility.yul\":5316:5321   */\n      dup3\n        /* \"#utility.yul\":5309:5330   */\n      mstore\n        /* \"#utility.yul\":5357:5361   */\n      0x20\n        /* \"#utility.yul\":5350:5355   */\n      dup3\n        /* \"#utility.yul\":5346:5362   */\n      add\n        /* \"#utility.yul\":5339:5362   */\n      swap1\n      pop\n        /* \"#utility.yul\":5410:5414   */\n      0x20\n        /* \"#utility.yul\":5402:5408   */\n      dup5\n        /* \"#utility.yul\":5398:5415   */\n      mul\n        /* \"#utility.yul\":5390:5396   */\n      dup4\n        /* \"#utility.yul\":5386:5416   */\n      add\n        /* \"#utility.yul\":5439:5442   */\n      dup6\n        /* \"#utility.yul\":5431:5437   */\n      dup2\n        /* \"#utility.yul\":5428:5443   */\n      gt\n        /* \"#utility.yul\":5425:5547   */\n      iszero\n      tag_490\n      jumpi\n        /* \"#utility.yul\":5458:5537   */\n      tag_491\n      tag_354\n      jump\t// in\n    tag_491:\n        /* \"#utility.yul\":5425:5547   */\n    tag_490:\n        /* \"#utility.yul\":5573:5579   */\n      dup4\n        /* \"#utility.yul\":5556:5776   */\n    tag_492:\n        /* \"#utility.yul\":5590:5596   */\n      dup2\n        /* \"#utility.yul\":5585:5588   */\n      dup2\n        /* \"#utility.yul\":5582:5597   */\n      lt\n        /* \"#utility.yul\":5556:5776   */\n      iszero\n      tag_494\n      jumpi\n        /* \"#utility.yul\":5665:5668   */\n      dup1\n        /* \"#utility.yul\":5694:5731   */\n      tag_495\n        /* \"#utility.yul\":5727:5730   */\n      dup9\n        /* \"#utility.yul\":5715:5725   */\n      dup3\n        /* \"#utility.yul\":5694:5731   */\n      tag_365\n      jump\t// in\n    tag_495:\n        /* \"#utility.yul\":5689:5692   */\n      dup5\n        /* \"#utility.yul\":5682:5732   */\n      mstore\n        /* \"#utility.yul\":5761:5765   */\n      0x20\n        /* \"#utility.yul\":5756:5759   */\n      dup5\n        /* \"#utility.yul\":5752:5766   */\n      add\n        /* \"#utility.yul\":5745:5766   */\n      swap4\n      pop\n        /* \"#utility.yul\":5632:5776   */\n      pop\n        /* \"#utility.yul\":5616:5620   */\n      0x20\n        /* \"#utility.yul\":5611:5614   */\n      dup2\n        /* \"#utility.yul\":5607:5621   */\n      add\n        /* \"#utility.yul\":5600:5621   */\n      swap1\n      pop\n        /* \"#utility.yul\":5556:5776   */\n      jump(tag_492)\n    tag_494:\n        /* \"#utility.yul\":5560:5581   */\n      pop\n        /* \"#utility.yul\":5174:5782   */\n      pop\n      pop\n        /* \"#utility.yul\":5072:5782   */\n      swap4\n      swap3\n      pop\n      pop\n      pop\n      jump\t// out\n        /* \"#utility.yul\":5805:6175   */\n    tag_367:\n        /* \"#utility.yul\":5876:5881   */\n      0x00\n        /* \"#utility.yul\":5925:5928   */\n      dup3\n        /* \"#utility.yul\":5918:5922   */\n      0x1f\n        /* \"#utility.yul\":5910:5916   */\n      dup4\n        /* \"#utility.yul\":5906:5923   */\n      add\n        /* \"#utility.yul\":5902:5929   */\n      slt\n        /* \"#utility.yul\":5892:6014   */\n      tag_497\n      jumpi\n        /* \"#utility.yul\":5933:6012   */\n      tag_498\n      tag_348\n      jump\t// in\n    tag_498:\n        /* \"#utility.yul\":5892:6014   */\n    tag_497:\n        /* \"#utility.yul\":6050:6056   */\n      dup2\n        /* \"#utility.yul\":6037:6057   */\n      calldataload\n        /* \"#utility.yul\":6075:6169   */\n      tag_499\n        /* \"#utility.yul\":6165:6168   */\n      dup5\n        /* \"#utility.yul\":6157:6163   */\n      dup3\n        /* \"#utility.yul\":6150:6154   */\n      0x20\n        /* \"#utility.yul\":6142:6148   */\n      dup7\n        /* \"#utility.yul\":6138:6155   */\n      add\n        /* \"#utility.yul\":6075:6169   */\n      tag_366\n      jump\t// in\n    tag_499:\n        /* \"#utility.yul\":6066:6169   */\n      swap2\n      pop\n        /* \"#utility.yul\":5882:6175   */\n      pop\n        /* \"#utility.yul\":5805:6175   */\n      swap3\n      swap2\n      pop\n      pop\n      jump\t// out\n        /* \"#utility.yul\":6181:7095   */\n    tag_31:\n        /* \"#utility.yul\":6309:6315   */\n      0x00\n        /* \"#utility.yul\":6317:6323   */\n      dup1\n        /* \"#utility.yul\":6366:6368   */\n      0x40\n        /* \"#utility.yul\":6354:6363   */\n      dup4\n        /* \"#utility.yul\":6345:6352   */\n      dup6\n        /* \"#utility.yul\":6341:6364   */\n      sub\n        /* \"#utility.yul\":6337:6369   */\n      slt\n        /* \"#utility.yul\":6334:6453   */\n      iszero\n      tag_501\n      jumpi\n        /* \"#utility.yul\":6372:6451   */\n      tag_502\n      tag_346\n      jump\t// in\n    tag_502:\n        /* \"#utility.yul\":6334:6453   */\n    tag_501:\n        /* \"#utility.yul\":6520:6521   */\n      0x00\n        /* \"#utility.yul\":6509:6518   */\n      dup4\n        /* \"#utility.yul\":6505:6522   */\n      add\n        /* \"#utility.yul\":6492:6523   */\n      calldataload\n        /* \"#utility.yul\":6550:6568   */\n      0xffffffffffffffff\n        /* \"#utility.yul\":6542:6548   */\n      dup2\n        /* \"#utility.yul\":6539:6569   */\n      gt\n        /* \"#utility.yul\":6536:6653   */\n      iszero\n      tag_503\n      jumpi\n        /* \"#utility.yul\":6572:6651   */\n      tag_504\n      tag_347\n      jump\t// in\n    tag_504:\n        /* \"#utility.yul\":6536:6653   */\n    tag_503:\n        /* \"#utility.yul\":6677:6765   */\n      tag_505\n        /* \"#utility.yul\":6757:6764   */\n      dup6\n        /* \"#utility.yul\":6748:6754   */\n      dup3\n        /* \"#utility.yul\":6737:6746   */\n      dup7\n        /* \"#utility.yul\":6733:6755   */\n      add\n        /* \"#utility.yul\":6677:6765   */\n      tag_361\n      jump\t// in\n    tag_505:\n        /* \"#utility.yul\":6667:6765   */\n      swap3\n      pop\n        /* \"#utility.yul\":6463:6775   */\n      pop\n        /* \"#utility.yul\":6842:6844   */\n      0x20\n        /* \"#utility.yul\":6831:6840   */\n      dup4\n        /* \"#utility.yul\":6827:6845   */\n      add\n        /* \"#utility.yul\":6814:6846   */\n      calldataload\n        /* \"#utility.yul\":6873:6891   */\n      0xffffffffffffffff\n        /* \"#utility.yul\":6865:6871   */\n      dup2\n        /* \"#utility.yul\":6862:6892   */\n      gt\n        /* \"#utility.yul\":6859:6976   */\n      iszero\n      tag_506\n      jumpi\n        /* \"#utility.yul\":6895:6974   */\n      tag_507\n      tag_347\n      jump\t// in\n    tag_507:\n        /* \"#utility.yul\":6859:6976   */\n    tag_506:\n        /* \"#utility.yul\":7000:7078   */\n      tag_508\n        /* \"#utility.yul\":7070:7077   */\n      dup6\n        /* \"#utility.yul\":7061:7067   */\n      dup3\n        /* \"#utility.yul\":7050:7059   */\n      dup7\n        /* \"#utility.yul\":7046:7068   */\n      add\n        /* \"#utility.yul\":7000:7078   */\n      tag_367\n      jump\t// in\n    tag_508:\n        /* \"#utility.yul\":6990:7078   */\n      swap2\n      pop\n        /* \"#utility.yul\":6785:7088   */\n      pop\n        /* \"#utility.yul\":6181:7095   */\n      swap3\n      pop\n      swap3\n      swap1\n      pop\n      jump\t// out\n        /* \"#utility.yul\":7101:7227   */\n    tag_368:\n        /* \"#utility.yul\":7138:7145   */\n      0x00\n        /* \"#utility.yul\":7178:7220   */\n      0xffffffffffffffffffffffffffffffffffffffff\n        /* \"#utility.yul\":7171:7176   */\n      dup3\n        /* \"#utility.yul\":7167:7221   */\n      and\n        /* \"#utility.yul\":7156:7221   */\n      swap1\n      pop\n        /* \"#utility.yul\":7101:7227   */\n      swap2\n      swap1\n      pop\n      jump\t// out\n        /* \"#utility.yul\":7233:7329   */\n    tag_369:\n        /* \"#utility.yul\":7270:7277   */\n      0x00\n        /* \"#utility.yul\":7299:7323   */\n      tag_511\n        /* \"#utility.yul\":7317:7322   */\n      dup3\n        /* \"#utility.yul\":7299:7323   */\n      tag_368\n      jump\t// in\n    tag_511:\n        /* \"#utility.yul\":7288:7323   */\n      swap1\n      pop\n        /* \"#utility.yul\":7233:7329   */\n      swap2\n      swap1\n      pop\n      jump\t// out\n        /* \"#utility.yul\":7335:7457   */\n    tag_370:\n        /* \"#utility.yul\":7408:7432   */\n      tag_513\n        /* \"#utility.yul\":7426:7431   */\n      dup2\n        /* \"#utility.yul\":7408:7432   */\n      tag_369\n      jump\t// in\n    tag_513:\n        /* \"#utility.yul\":7401:7406   */\n      dup2\n        /* \"#utility.yul\":7398:7433   */\n      eq\n        /* \"#utility.yul\":7388:7451   */\n      tag_514\n      jumpi\n        /* \"#utility.yul\":7447:7448   */\n      0x00\n        /* \"#utility.yul\":7444:7445   */\n      dup1\n        /* \"#utility.yul\":7437:7449   */\n      revert\n        /* \"#utility.yul\":7388:7451   */\n    tag_514:\n        /* \"#utility.yul\":7335:7457   */\n      pop\n      jump\t// out\n        /* \"#utility.yul\":7463:7602   */\n    tag_371:\n        /* \"#utility.yul\":7509:7514   */\n      0x00\n        /* \"#utility.yul\":7547:7553   */\n      dup2\n        /* \"#utility.yul\":7534:7554   */\n      calldataload\n        /* \"#utility.yul\":7525:7554   */\n      swap1\n      pop\n        /* \"#utility.yul\":7563:7596   */\n      tag_516\n        /* \"#utility.yul\":7590:7595   */\n      dup2\n        /* \"#utility.yul\":7563:7596   */\n      tag_370\n      jump\t// in\n    tag_516:\n        /* \"#utility.yul\":7463:7602   */\n      swap3\n      swap2\n      pop\n      pop\n      jump\t// out\n        /* \"#utility.yul\":7608:7937   */\n    tag_35:\n        /* \"#utility.yul\":7667:7673   */\n      0x00\n        /* \"#utility.yul\":7716:7718   */\n      0x20\n        /* \"#utility.yul\":7704:7713   */\n      dup3\n        /* \"#utility.yul\":7695:7702   */\n      dup5\n        /* \"#utility.yul\":7691:7714   */\n      sub\n        /* \"#utility.yul\":7687:7719   */\n      slt\n        /* \"#utility.yul\":7684:7803   */\n      iszero\n      tag_518\n      jumpi\n        /* \"#utility.yul\":7722:7801   */\n      tag_519\n      tag_346\n      jump\t// in\n    tag_519:\n        /* \"#utility.yul\":7684:7803   */\n    tag_518:\n        /* \"#utility.yul\":7842:7843   */\n      0x00\n        /* \"#utility.yul\":7867:7920   */\n      tag_520\n        /* \"#utility.yul\":7912:7919   */\n      dup5\n        /* \"#utility.yul\":7903:7909   */\n      dup3\n        /* \"#utility.yul\":7892:7901   */\n      dup6\n        /* \"#utility.yul\":7888:7910   */\n      add\n        /* \"#utility.yul\":7867:7920   */\n      tag_371\n      jump\t// in\n    tag_520:\n        /* \"#utility.yul\":7857:7920   */\n      swap2\n      pop\n        /* \"#utility.yul\":7813:7930   */\n      pop\n        /* \"#utility.yul\":7608:7937   */\n      swap3\n      swap2\n      pop\n      pop\n      jump\t// out\n        /* \"#utility.yul\":7943:8061   */\n    tag_372:\n        /* \"#utility.yul\":8030:8054   */\n      tag_522\n        /* \"#utility.yul\":8048:8053   */\n      dup2\n        /* \"#utility.yul\":8030:8054   */\n      tag_363\n      jump\t// in\n    tag_522:\n        /* \"#utility.yul\":8025:8028   */\n      dup3\n        /* \"#utility.yul\":8018:8055   */\n      mstore\n        /* \"#utility.yul\":7943:8061   */\n      pop\n      pop\n      jump\t// out\n        /* \"#utility.yul\":8067:8289   */\n    tag_42:\n        /* \"#utility.yul\":8160:8164   */\n      0x00\n        /* \"#utility.yul\":8198:8200   */\n      0x20\n        /* \"#utility.yul\":8187:8196   */\n      dup3\n        /* \"#utility.yul\":8183:8201   */\n      add\n        /* \"#utility.yul\":8175:8201   */\n      swap1\n      pop\n        /* \"#utility.yul\":8211:8282   */\n      tag_524\n        /* \"#utility.yul\":8279:8280   */\n      0x00\n        /* \"#utility.yul\":8268:8277   */\n      dup4\n        /* \"#utility.yul\":8264:8281   */\n      add\n        /* \"#utility.yul\":8255:8261   */\n      dup5\n        /* \"#utility.yul\":8211:8282   */\n      tag_372\n      jump\t// in\n    tag_524:\n        /* \"#utility.yul\":8067:8289   */\n      swap3\n      swap2\n      pop\n      pop\n      jump\t// out\n        /* \"#utility.yul\":8295:8413   */\n    tag_373:\n        /* \"#utility.yul\":8382:8406   */\n      tag_526\n        /* \"#utility.yul\":8400:8405   */\n      dup2\n        /* \"#utility.yul\":8382:8406   */\n      tag_369\n      jump\t// in\n    tag_526:\n        /* \"#utility.yul\":8377:8380   */\n      dup3\n        /* \"#utility.yul\":8370:8407   */\n      mstore\n        /* \"#utility.yul\":8295:8413   */\n      pop\n      pop\n      jump\t// out\n        /* \"#utility.yul\":8419:8641   */\n    tag_55:\n        /* \"#utility.yul\":8512:8516   */\n      0x00\n        /* \"#utility.yul\":8550:8552   */\n      0x20\n        /* \"#utility.yul\":8539:8548   */\n      dup3\n        /* \"#utility.yul\":8535:8553   */\n      add\n        /* \"#utility.yul\":8527:8553   */\n      swap1\n      pop\n        /* \"#utility.yul\":8563:8634   */\n      tag_528\n        /* \"#utility.yul\":8631:8632   */\n      0x00\n        /* \"#utility.yul\":8620:8629   */\n      dup4\n        /* \"#utility.yul\":8616:8633   */\n      add\n        /* \"#utility.yul\":8607:8613   */\n      dup5\n        /* \"#utility.yul\":8563:8634   */\n      tag_373\n      jump\t// in\n    tag_528:\n        /* \"#utility.yul\":8419:8641   */\n      swap3\n      swap2\n      pop\n      pop\n      jump\t// out\n        /* \"#utility.yul\":8647:8764   */\n    tag_374:\n        /* \"#utility.yul\":8756:8757   */\n      0x00\n        /* \"#utility.yul\":8753:8754   */\n      dup1\n        /* \"#utility.yul\":8746:8758   */\n      revert\n        /* \"#utility.yul\":8787:9355   */\n    tag_375:\n        /* \"#utility.yul\":8860:8868   */\n      0x00\n        /* \"#utility.yul\":8870:8876   */\n      dup1\n        /* \"#utility.yul\":8920:8923   */\n      dup4\n        /* \"#utility.yul\":8913:8917   */\n      0x1f\n        /* \"#utility.yul\":8905:8911   */\n      dup5\n        /* \"#utility.yul\":8901:8918   */\n      add\n        /* \"#utility.yul\":8897:8924   */\n      slt\n        /* \"#utility.yul\":8887:9009   */\n      tag_531\n      jumpi\n        /* \"#utility.yul\":8928:9007   */\n      tag_532\n      tag_348\n      jump\t// in\n    tag_532:\n        /* \"#utility.yul\":8887:9009   */\n    tag_531:\n        /* \"#utility.yul\":9041:9047   */\n      dup3\n        /* \"#utility.yul\":9028:9048   */\n      calldataload\n        /* \"#utility.yul\":9018:9048   */\n      swap1\n      pop\n        /* \"#utility.yul\":9071:9089   */\n      0xffffffffffffffff\n        /* \"#utility.yul\":9063:9069   */\n      dup2\n        /* \"#utility.yul\":9060:9090   */\n      gt\n        /* \"#utility.yul\":9057:9174   */\n      iszero\n      tag_533\n      jumpi\n        /* \"#utility.yul\":9093:9172   */\n      tag_534\n      tag_374\n      jump\t// in\n    tag_534:\n        /* \"#utility.yul\":9057:9174   */\n    tag_533:\n        /* \"#utility.yul\":9207:9211   */\n      0x20\n        /* \"#utility.yul\":9199:9205   */\n      dup4\n        /* \"#utility.yul\":9195:9212   */\n      add\n        /* \"#utility.yul\":9183:9212   */\n      swap2\n      pop\n        /* \"#utility.yul\":9261:9264   */\n      dup4\n        /* \"#utility.yul\":9253:9257   */\n      0x20\n        /* \"#utility.yul\":9245:9251   */\n      dup3\n        /* \"#utility.yul\":9241:9258   */\n      mul\n        /* \"#utility.yul\":9231:9239   */\n      dup4\n        /* \"#utility.yul\":9227:9259   */\n      add\n        /* \"#utility.yul\":9224:9265   */\n      gt\n        /* \"#utility.yul\":9221:9349   */\n      iszero\n      tag_535\n      jumpi\n        /* \"#utility.yul\":9268:9347   */\n      tag_536\n      tag_354\n      jump\t// in\n    tag_536:\n        /* \"#utility.yul\":9221:9349   */\n    tag_535:\n        /* \"#utility.yul\":8787:9355   */\n      swap3\n      pop\n      swap3\n      swap1\n      pop\n      jump\t// out\n        /* \"#utility.yul\":9378:9946   */\n    tag_376:\n        /* \"#utility.yul\":9451:9459   */\n      0x00\n        /* \"#utility.yul\":9461:9467   */\n      dup1\n        /* \"#utility.yul\":9511:9514   */\n      dup4\n        /* \"#utility.yul\":9504:9508   */\n      0x1f\n        /* \"#utility.yul\":9496:9502   */\n      dup5\n        /* \"#utility.yul\":9492:9509   */\n      add\n        /* \"#utility.yul\":9488:9515   */\n      slt\n        /* \"#utility.yul\":9478:9600   */\n      tag_538\n      jumpi\n        /* \"#utility.yul\":9519:9598   */\n      tag_539\n      tag_348\n      jump\t// in\n    tag_539:\n        /* \"#utility.yul\":9478:9600   */\n    tag_538:\n        /* \"#utility.yul\":9632:9638   */\n      dup3\n        /* \"#utility.yul\":9619:9639   */\n      calldataload\n        /* \"#utility.yul\":9609:9639   */\n      swap1\n      pop\n        /* \"#utility.yul\":9662:9680   */\n      0xffffffffffffffff\n        /* \"#utility.yul\":9654:9660   */\n      dup2\n        /* \"#utility.yul\":9651:9681   */\n      gt\n        /* \"#utility.yul\":9648:9765   */\n      iszero\n      tag_540\n      jumpi\n        /* \"#utility.yul\":9684:9763   */\n      tag_541\n      tag_374\n      jump\t// in\n    tag_541:\n        /* \"#utility.yul\":9648:9765   */\n    tag_540:\n        /* \"#utility.yul\":9798:9802   */\n      0x20\n        /* \"#utility.yul\":9790:9796   */\n      dup4\n        /* \"#utility.yul\":9786:9803   */\n      add\n        /* \"#utility.yul\":9774:9803   */\n      swap2\n      pop\n        /* \"#utility.yul\":9852:9855   */\n      dup4\n        /* \"#utility.yul\":9844:9848   */\n      0x20\n        /* \"#utility.yul\":9836:9842   */\n      dup3\n        /* \"#utility.yul\":9832:9849   */\n      mul\n        /* \"#utility.yul\":9822:9830   */\n      dup4\n        /* \"#utility.yul\":9818:9850   */\n      add\n        /* \"#utility.yul\":9815:9856   */\n      gt\n        /* \"#utility.yul\":9812:9940   */\n      iszero\n      tag_542\n      jumpi\n        /* \"#utility.yul\":9859:9938   */\n      tag_543\n      tag_354\n      jump\t// in\n    tag_543:\n        /* \"#utility.yul\":9812:9940   */\n    tag_542:\n        /* \"#utility.yul\":9378:9946   */\n      swap3\n      pop\n      swap3\n      swap1\n      pop\n      jump\t// out\n        /* \"#utility.yul\":9952:10886   */\n    tag_64:\n        /* \"#utility.yul\":10074:10080   */\n      0x00\n        /* \"#utility.yul\":10082:10088   */\n      dup1\n        /* \"#utility.yul\":10090:10096   */\n      0x00\n        /* \"#utility.yul\":10098:10104   */\n      dup1\n        /* \"#utility.yul\":10147:10149   */\n      0x40\n        /* \"#utility.yul\":10135:10144   */\n      dup6\n        /* \"#utility.yul\":10126:10133   */\n      dup8\n        /* \"#utility.yul\":10122:10145   */\n      sub\n        /* \"#utility.yul\":10118:10150   */\n      slt\n        /* \"#utility.yul\":10115:10234   */\n      iszero\n      tag_545\n      jumpi\n        /* \"#utility.yul\":10153:10232   */\n      tag_546\n      tag_346\n      jump\t// in\n    tag_546:\n        /* \"#utility.yul\":10115:10234   */\n    tag_545:\n        /* \"#utility.yul\":10301:10302   */\n      0x00\n        /* \"#utility.yul\":10290:10299   */\n      dup6\n        /* \"#utility.yul\":10286:10303   */\n      add\n        /* \"#utility.yul\":10273:10304   */\n      calldataload\n        /* \"#utility.yul\":10331:10349   */\n      0xffffffffffffffff\n        /* \"#utility.yul\":10323:10329   */\n      dup2\n        /* \"#utility.yul\":10320:10350   */\n      gt\n        /* \"#utility.yul\":10317:10434   */\n      iszero\n      tag_547\n      jumpi\n        /* \"#utility.yul\":10353:10432   */\n      tag_548\n      tag_347\n      jump\t// in\n    tag_548:\n        /* \"#utility.yul\":10317:10434   */\n    tag_547:\n        /* \"#utility.yul\":10466:10546   */\n      tag_549\n        /* \"#utility.yul\":10538:10545   */\n      dup8\n        /* \"#utility.yul\":10529:10535   */\n      dup3\n        /* \"#utility.yul\":10518:10527   */\n      dup9\n        /* \"#utility.yul\":10514:10536   */\n      add\n        /* \"#utility.yul\":10466:10546   */\n      tag_375\n      jump\t// in\n    tag_549:\n        /* \"#utility.yul\":10448:10546   */\n      swap5\n      pop\n      swap5\n      pop\n        /* \"#utility.yul\":10244:10556   */\n      pop\n        /* \"#utility.yul\":10623:10625   */\n      0x20\n        /* \"#utility.yul\":10612:10621   */\n      dup6\n        /* \"#utility.yul\":10608:10626   */\n      add\n        /* \"#utility.yul\":10595:10627   */\n      calldataload\n        /* \"#utility.yul\":10654:10672   */\n      0xffffffffffffffff\n        /* \"#utility.yul\":10646:10652   */\n      dup2\n        /* \"#utility.yul\":10643:10673   */\n      gt\n        /* \"#utility.yul\":10640:10757   */\n      iszero\n      tag_550\n      jumpi\n        /* \"#utility.yul\":10676:10755   */\n      tag_551\n      tag_347\n      jump\t// in\n    tag_551:\n        /* \"#utility.yul\":10640:10757   */\n    tag_550:\n        /* \"#utility.yul\":10789:10869   */\n      tag_552\n        /* \"#utility.yul\":10861:10868   */\n      dup8\n        /* \"#utility.yul\":10852:10858   */\n      dup3\n        /* \"#utility.yul\":10841:10850   */\n      dup9\n        /* \"#utility.yul\":10837:10859   */\n      add\n        /* \"#utility.yul\":10789:10869   */\n      tag_376\n      jump\t// in\n    tag_552:\n        /* \"#utility.yul\":10771:10869   */\n      swap3\n      pop\n      swap3\n      pop\n        /* \"#utility.yul\":10566:10879   */\n      pop\n        /* \"#utility.yul\":9952:10886   */\n      swap3\n      swap6\n      swap2\n      swap5\n      pop\n      swap3\n      pop\n      jump\t// out\n        /* \"#utility.yul\":10892:10952   */\n    tag_377:\n        /* \"#utility.yul\":10920:10923   */\n      0x00\n        /* \"#utility.yul\":10941:10946   */\n      dup2\n        /* \"#utility.yul\":10934:10946   */\n      swap1\n      pop\n        /* \"#utility.yul\":10892:10952   */\n      swap2\n      swap1\n      pop\n      jump\t// out\n        /* \"#utility.yul\":10958:11100   */\n    tag_378:\n        /* \"#utility.yul\":11008:11017   */\n      0x00\n        /* \"#utility.yul\":11041:11094   */\n      tag_555\n        /* \"#utility.yul\":11059:11093   */\n      tag_556\n        /* \"#utility.yul\":11068:11092   */\n      tag_557\n        /* \"#utility.yul\":11086:11091   */\n      dup5\n        /* \"#utility.yul\":11068:11092   */\n      tag_368\n      jump\t// in\n    tag_557:\n        /* \"#utility.yul\":11059:11093   */\n      tag_377\n      jump\t// in\n    tag_556:\n        /* \"#utility.yul\":11041:11094   */\n      tag_368\n      jump\t// in\n    tag_555:\n        /* \"#utility.yul\":11028:11094   */\n      swap1\n      pop\n        /* \"#utility.yul\":10958:11100   */\n      swap2\n      swap1\n      pop\n      jump\t// out\n        /* \"#utility.yul\":11106:11232   */\n    tag_379:\n        /* \"#utility.yul\":11156:11165   */\n      0x00\n        /* \"#utility.yul\":11189:11226   */\n      tag_559\n        /* \"#utility.yul\":11220:11225   */\n      dup3\n        /* \"#utility.yul\":11189:11226   */\n      tag_378\n      jump\t// in\n    tag_559:\n        /* \"#utility.yul\":11176:11226   */\n      swap1\n      pop\n        /* \"#utility.yul\":11106:11232   */\n      swap2\n      swap1\n      pop\n      jump\t// out\n        /* \"#utility.yul\":11238:11378   */\n    tag_380:\n        /* \"#utility.yul\":11302:11311   */\n      0x00\n        /* \"#utility.yul\":11335:11372   */\n      tag_561\n        /* \"#utility.yul\":11366:11371   */\n      dup3\n        /* \"#utility.yul\":11335:11372   */\n      tag_379\n      jump\t// in\n    tag_561:\n        /* \"#utility.yul\":11322:11372   */\n      swap1\n      pop\n        /* \"#utility.yul\":11238:11378   */\n      swap2\n      swap1\n      pop\n      jump\t// out\n        /* \"#utility.yul\":11384:11543   */\n    tag_381:\n        /* \"#utility.yul\":11485:11536   */\n      tag_563\n        /* \"#utility.yul\":11530:11535   */\n      dup2\n        /* \"#utility.yul\":11485:11536   */\n      tag_380\n      jump\t// in\n    tag_563:\n        /* \"#utility.yul\":11480:11483   */\n      dup3\n        /* \"#utility.yul\":11473:11537   */\n      mstore\n        /* \"#utility.yul\":11384:11543   */\n      pop\n      pop\n      jump\t// out\n        /* \"#utility.yul\":11549:11799   */\n    tag_101:\n        /* \"#utility.yul\":11656:11660   */\n      0x00\n        /* \"#utility.yul\":11694:11696   */\n      0x20\n        /* \"#utility.yul\":11683:11692   */\n      dup3\n        /* \"#utility.yul\":11679:11697   */\n      add\n        /* \"#utility.yul\":11671:11697   */\n      swap1\n      pop\n        /* \"#utility.yul\":11707:11792   */\n      tag_565\n        /* \"#utility.yul\":11789:11790   */\n      0x00\n        /* \"#utility.yul\":11778:11787   */\n      dup4\n        /* \"#utility.yul\":11774:11791   */\n      add\n        /* \"#utility.yul\":11765:11771   */\n      dup5\n        /* \"#utility.yul\":11707:11792   */\n      tag_381\n      jump\t// in\n    tag_565:\n        /* \"#utility.yul\":11549:11799   */\n      swap3\n      swap2\n      pop\n      pop\n      jump\t// out\n        /* \"#utility.yul\":11805:11974   */\n    tag_382:\n        /* \"#utility.yul\":11889:11900   */\n      0x00\n        /* \"#utility.yul\":11923:11929   */\n      dup3\n        /* \"#utility.yul\":11918:11921   */\n      dup3\n        /* \"#utility.yul\":11911:11930   */\n      mstore\n        /* \"#utility.yul\":11963:11967   */\n      0x20\n        /* \"#utility.yul\":11958:11961   */\n      dup3\n        /* \"#utility.yul\":11954:11968   */\n      add\n        /* \"#utility.yul\":11939:11968   */\n      swap1\n      pop\n        /* \"#utility.yul\":11805:11974   */\n      swap3\n      swap2\n      pop\n      pop\n      jump\t// out\n        /* \"#utility.yul\":11980:12281   */\n    tag_383:\n        /* \"#utility.yul\":12120:12154   */\n      0x506c6561736520636865636b2074686520646174612c20746865206e65777320\n        /* \"#utility.yul\":12116:12117   */\n      0x00\n        /* \"#utility.yul\":12108:12114   */\n      dup3\n        /* \"#utility.yul\":12104:12118   */\n      add\n        /* \"#utility.yul\":12097:12155   */\n      mstore\n        /* \"#utility.yul\":12189:12223   */\n      0x494420616e6420646973747269627574696f6e207175616e7469747920617265\n        /* \"#utility.yul\":12184:12186   */\n      0x20\n        /* \"#utility.yul\":12176:12182   */\n      dup3\n        /* \"#utility.yul\":12172:12187   */\n      add\n        /* \"#utility.yul\":12165:12224   */\n      mstore\n        /* \"#utility.yul\":12258:12273   */\n      0x20696e636f6e73697374656e7400000000000000000000000000000000000000\n        /* \"#utility.yul\":12253:12255   */\n      0x40\n        /* \"#utility.yul\":12245:12251   */\n      dup3\n        /* \"#utility.yul\":12241:12256   */\n      add\n        /* \"#utility.yul\":12234:12274   */\n      mstore\n        /* \"#utility.yul\":11980:12281   */\n      pop\n      jump\t// out\n        /* \"#utility.yul\":12287:12653   */\n    tag_384:\n        /* \"#utility.yul\":12429:12432   */\n      0x00\n        /* \"#utility.yul\":12450:12517   */\n      tag_569\n        /* \"#utility.yul\":12514:12516   */\n      0x4d\n        /* \"#utility.yul\":12509:12512   */\n      dup4\n        /* \"#utility.yul\":12450:12517   */\n      tag_382\n      jump\t// in\n    tag_569:\n        /* \"#utility.yul\":12443:12517   */\n      swap2\n      pop\n        /* \"#utility.yul\":12526:12619   */\n      tag_570\n        /* \"#utility.yul\":12615:12618   */\n      dup3\n        /* \"#utility.yul\":12526:12619   */\n      tag_383\n      jump\t// in\n    tag_570:\n        /* \"#utility.yul\":12644:12646   */\n      0x60\n        /* \"#utility.yul\":12639:12642   */\n      dup3\n        /* \"#utility.yul\":12635:12647   */\n      add\n        /* \"#utility.yul\":12628:12647   */\n      swap1\n      pop\n        /* \"#utility.yul\":12287:12653   */\n      swap2\n      swap1\n      pop\n      jump\t// out\n        /* \"#utility.yul\":12659:13078   */\n    tag_107:\n        /* \"#utility.yul\":12825:12829   */\n      0x00\n        /* \"#utility.yul\":12863:12865   */\n      0x20\n        /* \"#utility.yul\":12852:12861   */\n      dup3\n        /* \"#utility.yul\":12848:12866   */\n      add\n        /* \"#utility.yul\":12840:12866   */\n      swap1\n      pop\n        /* \"#utility.yul\":12912:12921   */\n      dup2\n        /* \"#utility.yul\":12906:12910   */\n      dup2\n        /* \"#utility.yul\":12902:12922   */\n      sub\n        /* \"#utility.yul\":12898:12899   */\n      0x00\n        /* \"#utility.yul\":12887:12896   */\n      dup4\n        /* \"#utility.yul\":12883:12900   */\n      add\n        /* \"#utility.yul\":12876:12923   */\n      mstore\n        /* \"#utility.yul\":12940:13071   */\n      tag_572\n        /* \"#utility.yul\":13066:13070   */\n      dup2\n        /* \"#utility.yul\":12940:13071   */\n      tag_384\n      jump\t// in\n    tag_572:\n        /* \"#utility.yul\":12932:13071   */\n      swap1\n      pop\n        /* \"#utility.yul\":12659:13078   */\n      swap2\n      swap1\n      pop\n      jump\t// out\n        /* \"#utility.yul\":13084:13265   */\n    tag_385:\n        /* \"#utility.yul\":13224:13257   */\n      0x52656c656173653a206e6565642073657420546f6b656e204164647265737300\n        /* \"#utility.yul\":13220:13221   */\n      0x00\n        /* \"#utility.yul\":13212:13218   */\n      dup3\n        /* \"#utility.yul\":13208:13222   */\n      add\n        /* \"#utility.yul\":13201:13258   */\n      mstore\n        /* \"#utility.yul\":13084:13265   */\n      pop\n      jump\t// out\n        /* \"#utility.yul\":13271:13637   */\n    tag_386:\n        /* \"#utility.yul\":13413:13416   */\n      0x00\n        /* \"#utility.yul\":13434:13501   */\n      tag_575\n        /* \"#utility.yul\":13498:13500   */\n      0x1f\n        /* \"#utility.yul\":13493:13496   */\n      dup4\n        /* \"#utility.yul\":13434:13501   */\n      tag_382\n      jump\t// in\n    tag_575:\n        /* \"#utility.yul\":13427:13501   */\n      swap2\n      pop\n        /* \"#utility.yul\":13510:13603   */\n      tag_576\n        /* \"#utility.yul\":13599:13602   */\n      dup3\n        /* \"#utility.yul\":13510:13603   */\n      tag_385\n      jump\t// in\n    tag_576:\n        /* \"#utility.yul\":13628:13630   */\n      0x20\n        /* \"#utility.yul\":13623:13626   */\n      dup3\n        /* \"#utility.yul\":13619:13631   */\n      add\n        /* \"#utility.yul\":13612:13631   */\n      swap1\n      pop\n        /* \"#utility.yul\":13271:13637   */\n      swap2\n      swap1\n      pop\n      jump\t// out\n        /* \"#utility.yul\":13643:14062   */\n    tag_111:\n        /* \"#utility.yul\":13809:13813   */\n      0x00\n        /* \"#utility.yul\":13847:13849   */\n      0x20\n        /* \"#utility.yul\":13836:13845   */\n      dup3\n        /* \"#utility.yul\":13832:13850   */\n      add\n        /* \"#utility.yul\":13824:13850   */\n      swap1\n      pop\n        /* \"#utility.yul\":13896:13905   */\n      dup2\n        /* \"#utility.yul\":13890:13894   */\n      dup2\n        /* \"#utility.yul\":13886:13906   */\n      sub\n        /* \"#utility.yul\":13882:13883   */\n      0x00\n        /* \"#utility.yul\":13871:13880   */\n      dup4\n        /* \"#utility.yul\":13867:13884   */\n      add\n        /* \"#utility.yul\":13860:13907   */\n      mstore\n        /* \"#utility.yul\":13924:14055   */\n      tag_578\n        /* \"#utility.yul\":14050:14054   */\n      dup2\n        /* \"#utility.yul\":13924:14055   */\n      tag_386\n      jump\t// in\n    tag_578:\n        /* \"#utility.yul\":13916:14055   */\n      swap1\n      pop\n        /* \"#utility.yul\":13643:14062   */\n      swap2\n      swap1\n      pop\n      jump\t// out\n        /* \"#utility.yul\":14068:14298   */\n    tag_387:\n        /* \"#utility.yul\":14208:14242   */\n      0x52656c656173653a206e65656420736574204368616c6c656e6720436f6e7472\n        /* \"#utility.yul\":14204:14205   */\n      0x00\n        /* \"#utility.yul\":14196:14202   */\n      dup3\n        /* \"#utility.yul\":14192:14206   */\n      add\n        /* \"#utility.yul\":14185:14243   */\n      mstore\n        /* \"#utility.yul\":14277:14290   */\n      0x6163742041646472657373000000000000000000000000000000000000000000\n        /* \"#utility.yul\":14272:14274   */\n      0x20\n        /* \"#utility.yul\":14264:14270   */\n      dup3\n        /* \"#utility.yul\":14260:14275   */\n      add\n        /* \"#utility.yul\":14253:14291   */\n      mstore\n        /* \"#utility.yul\":14068:14298   */\n      pop\n      jump\t// out\n        /* \"#utility.yul\":14304:14670   */\n    tag_388:\n        /* \"#utility.yul\":14446:14449   */\n      0x00\n        /* \"#utility.yul\":14467:14534   */\n      tag_581\n        /* \"#utility.yul\":14531:14533   */\n      0x2b\n        /* \"#utility.yul\":14526:14529   */\n      dup4\n        /* \"#utility.yul\":14467:14534   */\n      tag_382\n      jump\t// in\n    tag_581:\n        /* \"#utility.yul\":14460:14534   */\n      swap2\n      pop\n        /* \"#utility.yul\":14543:14636   */\n      tag_582\n        /* \"#utility.yul\":14632:14635   */\n      dup3\n        /* \"#utility.yul\":14543:14636   */\n      tag_387\n      jump\t// in\n    tag_582:\n        /* \"#utility.yul\":14661:14663   */\n      0x40\n        /* \"#utility.yul\":14656:14659   */\n      dup3\n        /* \"#utility.yul\":14652:14664   */\n      add\n        /* \"#utility.yul\":14645:14664   */\n      swap1\n      pop\n        /* \"#utility.yul\":14304:14670   */\n      swap2\n      swap1\n      pop\n      jump\t// out\n        /* \"#utility.yul\":14676:15095   */\n    tag_115:\n        /* \"#utility.yul\":14842:14846   */\n      0x00\n        /* \"#utility.yul\":14880:14882   */\n      0x20\n        /* \"#utility.yul\":14869:14878   */\n      dup3\n        /* \"#utility.yul\":14865:14883   */\n      add\n        /* \"#utility.yul\":14857:14883   */\n      swap1\n      pop\n        /* \"#utility.yul\":14929:14938   */\n      dup2\n        /* \"#utility.yul\":14923:14927   */\n      dup2\n        /* \"#utility.yul\":14919:14939   */\n      sub\n        /* \"#utility.yul\":14915:14916   */\n      0x00\n        /* \"#utility.yul\":14904:14913   */\n      dup4\n        /* \"#utility.yul\":14900:14917   */\n      add\n        /* \"#utility.yul\":14893:14940   */\n      mstore\n        /* \"#utility.yul\":14957:15088   */\n      tag_584\n        /* \"#utility.yul\":15083:15087   */\n      dup2\n        /* \"#utility.yul\":14957:15088   */\n      tag_388\n      jump\t// in\n    tag_584:\n        /* \"#utility.yul\":14949:15088   */\n      swap1\n      pop\n        /* \"#utility.yul\":14676:15095   */\n      swap2\n      swap1\n      pop\n      jump\t// out\n        /* \"#utility.yul\":15101:15281   */\n    tag_121:\n        /* \"#utility.yul\":15149:15226   */\n      0x4e487b7100000000000000000000000000000000000000000000000000000000\n        /* \"#utility.yul\":15146:15147   */\n      0x00\n        /* \"#utility.yul\":15139:15227   */\n      mstore\n        /* \"#utility.yul\":15246:15250   */\n      0x32\n        /* \"#utility.yul\":15243:15244   */\n      0x04\n        /* \"#utility.yul\":15236:15251   */\n      mstore\n        /* \"#utility.yul\":15270:15274   */\n      0x24\n        /* \"#utility.yul\":15267:15268   */\n      0x00\n        /* \"#utility.yul\":15260:15275   */\n      revert\n        /* \"#utility.yul\":15287:15467   */\n    tag_389:\n        /* \"#utility.yul\":15335:15412   */\n      0x4e487b7100000000000000000000000000000000000000000000000000000000\n        /* \"#utility.yul\":15332:15333   */\n      0x00\n        /* \"#utility.yul\":15325:15413   */\n      mstore\n        /* \"#utility.yul\":15432:15436   */\n      0x11\n        /* \"#utility.yul\":15429:15430   */\n      0x04\n        /* \"#utility.yul\":15422:15437   */\n      mstore\n        /* \"#utility.yul\":15456:15460   */\n      0x24\n        /* \"#utility.yul\":15453:15454   */\n      0x00\n        /* \"#utility.yul\":15446:15461   */\n      revert\n        /* \"#utility.yul\":15473:15664   */\n    tag_123:\n        /* \"#utility.yul\":15513:15516   */\n      0x00\n        /* \"#utility.yul\":15532:15552   */\n      tag_588\n        /* \"#utility.yul\":15550:15551   */\n      dup3\n        /* \"#utility.yul\":15532:15552   */\n      tag_363\n      jump\t// in\n    tag_588:\n        /* \"#utility.yul\":15527:15552   */\n      swap2\n      pop\n        /* \"#utility.yul\":15566:15586   */\n      tag_589\n        /* \"#utility.yul\":15584:15585   */\n      dup4\n        /* \"#utility.yul\":15566:15586   */\n      tag_363\n      jump\t// in\n    tag_589:\n        /* \"#utility.yul\":15561:15586   */\n      swap3\n      pop\n        /* \"#utility.yul\":15609:15610   */\n      dup3\n        /* \"#utility.yul\":15606:15607   */\n      dup3\n        /* \"#utility.yul\":15602:15611   */\n      add\n        /* \"#utility.yul\":15595:15611   */\n      swap1\n      pop\n        /* \"#utility.yul\":15630:15633   */\n      dup1\n        /* \"#utility.yul\":15627:15628   */\n      dup3\n        /* \"#utility.yul\":15624:15634   */\n      gt\n        /* \"#utility.yul\":15621:15657   */\n      iszero\n      tag_590\n      jumpi\n        /* \"#utility.yul\":15637:15655   */\n      tag_591\n      tag_389\n      jump\t// in\n    tag_591:\n        /* \"#utility.yul\":15621:15657   */\n    tag_590:\n        /* \"#utility.yul\":15473:15664   */\n      swap3\n      swap2\n      pop\n      pop\n      jump\t// out\n        /* \"#utility.yul\":15670:15903   */\n    tag_125:\n        /* \"#utility.yul\":15709:15712   */\n      0x00\n        /* \"#utility.yul\":15732:15756   */\n      tag_593\n        /* \"#utility.yul\":15750:15755   */\n      dup3\n        /* \"#utility.yul\":15732:15756   */\n      tag_363\n      jump\t// in\n    tag_593:\n        /* \"#utility.yul\":15723:15756   */\n      swap2\n      pop\n        /* \"#utility.yul\":15778:15844   */\n      0xffffffffffffffffffffffffffffffffffffffffffffffffffffffffffffffff\n        /* \"#utility.yul\":15771:15776   */\n      dup3\n        /* \"#utility.yul\":15768:15845   */\n      sub\n        /* \"#utility.yul\":15765:15868   */\n      tag_594\n      jumpi\n        /* \"#utility.yul\":15848:15866   */\n      tag_595\n      tag_389\n      jump\t// in\n    tag_595:\n        /* \"#utility.yul\":15765:15868   */\n    tag_594:\n        /* \"#utility.yul\":15895:15896   */\n      0x01\n        /* \"#utility.yul\":15888:15893   */\n      dup3\n        /* \"#utility.yul\":15884:15897   */\n      add\n        /* \"#utility.yul\":15877:15897   */\n      swap1\n      pop\n        /* \"#utility.yul\":15670:15903   */\n      swap2\n      swap1\n      pop\n      jump\t// out\n        /* \"#utility.yul\":15909:16157   */\n    tag_390:\n        /* \"#utility.yul\":16049:16083   */\n      0x52656c656173653a20496e73756666696369656e7420746f74616c20616d6f75\n        /* \"#utility.yul\":16045:16046   */\n      0x00\n        /* \"#utility.yul\":16037:16043   */\n      dup3\n        /* \"#utility.yul\":16033:16047   */\n      add\n        /* \"#utility.yul\":16026:16084   */\n      mstore\n        /* \"#utility.yul\":16118:16149   */\n      0x6e7420617661696c61626c6520666f7220646973747269627574696f6e000000\n        /* \"#utility.yul\":16113:16115   */\n      0x20\n        /* \"#utility.yul\":16105:16111   */\n      dup3\n        /* \"#utility.yul\":16101:16116   */\n      add\n        /* \"#utility.yul\":16094:16150   */\n      mstore\n        /* \"#utility.yul\":15909:16157   */\n      pop\n      jump\t// out\n        /* \"#utility.yul\":16163:16529   */\n    tag_391:\n        /* \"#utility.yul\":16305:16308   */\n      0x00\n        /* \"#utility.yul\":16326:16393   */\n      tag_598\n        /* \"#utility.yul\":16390:16392   */\n      0x3d\n        /* \"#utility.yul\":16385:16388   */\n      dup4\n        /* \"#utility.yul\":16326:16393   */\n      tag_382\n      jump\t// in\n    tag_598:\n        /* \"#utility.yul\":16319:16393   */\n      swap2\n      pop\n        /* \"#utility.yul\":16402:16495   */\n      tag_599\n        /* \"#utility.yul\":16491:16494   */\n      dup3\n        /* \"#utility.yul\":16402:16495   */\n      tag_390\n      jump\t// in\n    tag_599:\n        /* \"#utility.yul\":16520:16522   */\n      0x40\n        /* \"#utility.yul\":16515:16518   */\n      dup3\n        /* \"#utility.yul\":16511:16523   */\n      add\n        /* \"#utility.yul\":16504:16523   */\n      swap1\n      pop\n        /* \"#utility.yul\":16163:16529   */\n      swap2\n      swap1\n      pop\n      jump\t// out\n        /* \"#utility.yul\":16535:16954   */\n    tag_129:\n        /* \"#utility.yul\":16701:16705   */\n      0x00\n        /* \"#utility.yul\":16739:16741   */\n      0x20\n        /* \"#utility.yul\":16728:16737   */\n      dup3\n        /* \"#utility.yul\":16724:16742   */\n      add\n        /* \"#utility.yul\":16716:16742   */\n      swap1\n      pop\n        /* \"#utility.yul\":16788:16797   */\n      dup2\n        /* \"#utility.yul\":16782:16786   */\n      dup2\n        /* \"#utility.yul\":16778:16798   */\n      sub\n        /* \"#utility.yul\":16774:16775   */\n      0x00\n        /* \"#utility.yul\":16763:16772   */\n      dup4\n        /* \"#utility.yul\":16759:16776   */\n      add\n        /* \"#utility.yul\":16752:16799   */\n      mstore\n        /* \"#utility.yul\":16816:16947   */\n      tag_601\n        /* \"#utility.yul\":16942:16946   */\n      dup2\n        /* \"#utility.yul\":16816:16947   */\n      tag_391\n      jump\t// in\n    tag_601:\n        /* \"#utility.yul\":16808:16947   */\n      swap1\n      pop\n        /* \"#utility.yul\":16535:16954   */\n      swap2\n      swap1\n      pop\n      jump\t// out\n        /* \"#utility.yul\":16960:17059   */\n    tag_392:\n        /* \"#utility.yul\":17012:17018   */\n      0x00\n        /* \"#utility.yul\":17046:17051   */\n      dup2\n        /* \"#utility.yul\":17040:17052   */\n      mload\n        /* \"#utility.yul\":17030:17052   */\n      swap1\n      pop\n        /* \"#utility.yul\":16960:17059   */\n      swap2\n      swap1\n      pop\n      jump\t// out\n        /* \"#utility.yul\":17065:17311   */\n    tag_393:\n        /* \"#utility.yul\":17146:17147   */\n      0x00\n        /* \"#utility.yul\":17156:17269   */\n    tag_604:\n        /* \"#utility.yul\":17170:17176   */\n      dup4\n        /* \"#utility.yul\":17167:17168   */\n      dup2\n        /* \"#utility.yul\":17164:17177   */\n      lt\n        /* \"#utility.yul\":17156:17269   */\n      iszero\n      tag_606\n      jumpi\n        /* \"#utility.yul\":17255:17256   */\n      dup1\n        /* \"#utility.yul\":17250:17253   */\n      dup3\n        /* \"#utility.yul\":17246:17257   */\n      add\n        /* \"#utility.yul\":17240:17258   */\n      mload\n        /* \"#utility.yul\":17236:17237   */\n      dup2\n        /* \"#utility.yul\":17231:17234   */\n      dup5\n        /* \"#utility.yul\":17227:17238   */\n      add\n        /* \"#utility.yul\":17220:17259   */\n      mstore\n        /* \"#utility.yul\":17192:17194   */\n      0x20\n        /* \"#utility.yul\":17189:17190   */\n      dup2\n        /* \"#utility.yul\":17185:17195   */\n      add\n        /* \"#utility.yul\":17180:17195   */\n      swap1\n      pop\n        /* \"#utility.yul\":17156:17269   */\n      jump(tag_604)\n    tag_606:\n        /* \"#utility.yul\":17303:17304   */\n      0x00\n        /* \"#utility.yul\":17294:17300   */\n      dup5\n        /* \"#utility.yul\":17289:17292   */\n      dup5\n        /* \"#utility.yul\":17285:17301   */\n      add\n        /* \"#utility.yul\":17278:17305   */\n      mstore\n        /* \"#utility.yul\":17127:17311   */\n      pop\n        /* \"#utility.yul\":17065:17311   */\n      pop\n      pop\n      pop\n      jump\t// out\n        /* \"#utility.yul\":17317:17694   */\n    tag_394:\n        /* \"#utility.yul\":17405:17408   */\n      0x00\n        /* \"#utility.yul\":17433:17472   */\n      tag_608\n        /* \"#utility.yul\":17466:17471   */\n      dup3\n        /* \"#utility.yul\":17433:17472   */\n      tag_392\n      jump\t// in\n    tag_608:\n        /* \"#utility.yul\":17488:17559   */\n      tag_609\n        /* \"#utility.yul\":17552:17558   */\n      dup2\n        /* \"#utility.yul\":17547:17550   */\n      dup6\n        /* \"#utility.yul\":17488:17559   */\n      tag_382\n      jump\t// in\n    tag_609:\n        /* \"#utility.yul\":17481:17559   */\n      swap4\n      pop\n        /* \"#utility.yul\":17568:17633   */\n      tag_610\n        /* \"#utility.yul\":17626:17632   */\n      dup2\n        /* \"#utility.yul\":17621:17624   */\n      dup6\n        /* \"#utility.yul\":17614:17618   */\n      0x20\n        /* \"#utility.yul\":17607:17612   */\n      dup7\n        /* \"#utility.yul\":17603:17619   */\n      add\n        /* \"#utility.yul\":17568:17633   */\n      tag_393\n      jump\t// in\n    tag_610:\n        /* \"#utility.yul\":17658:17687   */\n      tag_611\n        /* \"#utility.yul\":17680:17686   */\n      dup2\n        /* \"#utility.yul\":17658:17687   */\n      tag_349\n      jump\t// in\n    tag_611:\n        /* \"#utility.yul\":17653:17656   */\n      dup5\n        /* \"#utility.yul\":17649:17688   */\n      add\n        /* \"#utility.yul\":17642:17688   */\n      swap2\n      pop\n        /* \"#utility.yul\":17409:17694   */\n      pop\n        /* \"#utility.yul\":17317:17694   */\n      swap3\n      swap2\n      pop\n      pop\n      jump\t// out\n        /* \"#utility.yul\":17700:18013   */\n    tag_137:\n        /* \"#utility.yul\":17813:17817   */\n      0x00\n        /* \"#utility.yul\":17851:17853   */\n      0x20\n        /* \"#utility.yul\":17840:17849   */\n      dup3\n        /* \"#utility.yul\":17836:17854   */\n      add\n        /* \"#utility.yul\":17828:17854   */\n      swap1\n      pop\n        /* \"#utility.yul\":17900:17909   */\n      dup2\n        /* \"#utility.yul\":17894:17898   */\n      dup2\n        /* \"#utility.yul\":17890:17910   */\n      sub\n        /* \"#utility.yul\":17886:17887   */\n      0x00\n        /* \"#utility.yul\":17875:17884   */\n      dup4\n        /* \"#utility.yul\":17871:17888   */\n      add\n        /* \"#utility.yul\":17864:17911   */\n      mstore\n        /* \"#utility.yul\":17928:18006   */\n      tag_613\n        /* \"#utility.yul\":18001:18005   */\n      dup2\n        /* \"#utility.yul\":17992:17998   */\n      dup5\n        /* \"#utility.yul\":17928:18006   */\n      tag_394\n      jump\t// in\n    tag_613:\n        /* \"#utility.yul\":17920:18006   */\n      swap1\n      pop\n        /* \"#utility.yul\":17700:18013   */\n      swap3\n      swap2\n      pop\n      pop\n      jump\t// out\n        /* \"#utility.yul\":18019:18136   */\n    tag_395:\n        /* \"#utility.yul\":18128:18129   */\n      0x00\n        /* \"#utility.yul\":18125:18126   */\n      dup1\n        /* \"#utility.yul\":18118:18130   */\n      revert\n        /* \"#utility.yul\":18142:18259   */\n    tag_396:\n        /* \"#utility.yul\":18251:18252   */\n      0x00\n        /* \"#utility.yul\":18248:18249   */\n      dup1\n        /* \"#utility.yul\":18241:18253   */\n      revert\n        /* \"#utility.yul\":18265:18699   */\n    tag_397:\n        /* \"#utility.yul\":18354:18359   */\n      0x00\n        /* \"#utility.yul\":18379:18445   */\n      tag_617\n        /* \"#utility.yul\":18395:18444   */\n      tag_618\n        /* \"#utility.yul\":18437:18443   */\n      dup5\n        /* \"#utility.yul\":18395:18444   */\n      tag_356\n      jump\t// in\n    tag_618:\n        /* \"#utility.yul\":18379:18445   */\n      tag_352\n      jump\t// in\n    tag_617:\n        /* \"#utility.yul\":18370:18445   */\n      swap1\n      pop\n        /* \"#utility.yul\":18468:18474   */\n      dup3\n        /* \"#utility.yul\":18461:18466   */\n      dup2\n        /* \"#utility.yul\":18454:18475   */\n      mstore\n        /* \"#utility.yul\":18506:18510   */\n      0x20\n        /* \"#utility.yul\":18499:18504   */\n      dup2\n        /* \"#utility.yul\":18495:18511   */\n      add\n        /* \"#utility.yul\":18544:18547   */\n      dup5\n        /* \"#utility.yul\":18535:18541   */\n      dup5\n        /* \"#utility.yul\":18530:18533   */\n      dup5\n        /* \"#utility.yul\":18526:18542   */\n      add\n        /* \"#utility.yul\":18523:18548   */\n      gt\n        /* \"#utility.yul\":18520:18632   */\n      iszero\n      tag_619\n      jumpi\n        /* \"#utility.yul\":18551:18630   */\n      tag_620\n      tag_355\n      jump\t// in\n    tag_620:\n        /* \"#utility.yul\":18520:18632   */\n    tag_619:\n        /* \"#utility.yul\":18641:18693   */\n      tag_621\n        /* \"#utility.yul\":18686:18692   */\n      dup5\n        /* \"#utility.yul\":18681:18684   */\n      dup3\n        /* \"#utility.yul\":18676:18679   */\n      dup6\n        /* \"#utility.yul\":18641:18693   */\n      tag_393\n      jump\t// in\n    tag_621:\n        /* \"#utility.yul\":18360:18699   */\n      pop\n        /* \"#utility.yul\":18265:18699   */\n      swap4\n      swap3\n      pop\n      pop\n      pop\n      jump\t// out\n        /* \"#utility.yul\":18719:19074   */\n    tag_398:\n        /* \"#utility.yul\":18786:18791   */\n      0x00\n        /* \"#utility.yul\":18835:18838   */\n      dup3\n        /* \"#utility.yul\":18828:18832   */\n      0x1f\n        /* \"#utility.yul\":18820:18826   */\n      dup4\n        /* \"#utility.yul\":18816:18833   */\n      add\n        /* \"#utility.yul\":18812:18839   */\n      slt\n        /* \"#utility.yul\":18802:18924   */\n      tag_623\n      jumpi\n        /* \"#utility.yul\":18843:18922   */\n      tag_624\n      tag_348\n      jump\t// in\n    tag_624:\n        /* \"#utility.yul\":18802:18924   */\n    tag_623:\n        /* \"#utility.yul\":18953:18959   */\n      dup2\n        /* \"#utility.yul\":18947:18960   */\n      mload\n        /* \"#utility.yul\":18978:19068   */\n      tag_625\n        /* \"#utility.yul\":19064:19067   */\n      dup5\n        /* \"#utility.yul\":19056:19062   */\n      dup3\n        /* \"#utility.yul\":19049:19053   */\n      0x20\n        /* \"#utility.yul\":19041:19047   */\n      dup7\n        /* \"#utility.yul\":19037:19054   */\n      add\n        /* \"#utility.yul\":18978:19068   */\n      tag_397\n      jump\t// in\n    tag_625:\n        /* \"#utility.yul\":18969:19068   */\n      swap2\n      pop\n        /* \"#utility.yul\":18792:19074   */\n      pop\n        /* \"#utility.yul\":18719:19074   */\n      swap3\n      swap2\n      pop\n      pop\n      jump\t// out\n        /* \"#utility.yul\":19080:19223   */\n    tag_399:\n        /* \"#utility.yul\":19137:19142   */\n      0x00\n        /* \"#utility.yul\":19168:19174   */\n      dup2\n        /* \"#utility.yul\":19162:19175   */\n      mload\n        /* \"#utility.yul\":19153:19175   */\n      swap1\n      pop\n        /* \"#utility.yul\":19184:19217   */\n      tag_627\n        /* \"#utility.yul\":19211:19216   */\n      dup2\n        /* \"#utility.yul\":19184:19217   */\n      tag_370\n      jump\t// in\n    tag_627:\n        /* \"#utility.yul\":19080:19223   */\n      swap3\n      swap2\n      pop\n      pop\n      jump\t// out\n        /* \"#utility.yul\":19229:19372   */\n    tag_400:\n        /* \"#utility.yul\":19286:19291   */\n      0x00\n        /* \"#utility.yul\":19317:19323   */\n      dup2\n        /* \"#utility.yul\":19311:19324   */\n      mload\n        /* \"#utility.yul\":19302:19324   */\n      swap1\n      pop\n        /* \"#utility.yul\":19333:19366   */\n      tag_629\n        /* \"#utility.yul\":19360:19365   */\n      dup2\n        /* \"#utility.yul\":19333:19366   */\n      tag_364\n      jump\t// in\n    tag_629:\n        /* \"#utility.yul\":19229:19372   */\n      swap3\n      swap2\n      pop\n      pop\n      jump\t// out\n        /* \"#utility.yul\":19378:19468   */\n    tag_401:\n        /* \"#utility.yul\":19412:19419   */\n      0x00\n        /* \"#utility.yul\":19455:19460   */\n      dup2\n        /* \"#utility.yul\":19448:19461   */\n      iszero\n        /* \"#utility.yul\":19441:19462   */\n      iszero\n        /* \"#utility.yul\":19430:19462   */\n      swap1\n      pop\n        /* \"#utility.yul\":19378:19468   */\n      swap2\n      swap1\n      pop\n      jump\t// out\n        /* \"#utility.yul\":19474:19590   */\n    tag_402:\n        /* \"#utility.yul\":19544:19565   */\n      tag_632\n        /* \"#utility.yul\":19559:19564   */\n      dup2\n        /* \"#utility.yul\":19544:19565   */\n      tag_401\n      jump\t// in\n    tag_632:\n        /* \"#utility.yul\":19537:19542   */\n      dup2\n        /* \"#utility.yul\":19534:19566   */\n      eq\n        /* \"#utility.yul\":19524:19584   */\n      tag_633\n      jumpi\n        /* \"#utility.yul\":19580:19581   */\n      0x00\n        /* \"#utility.yul\":19577:19578   */\n      dup1\n        /* \"#utility.yul\":19570:19582   */\n      revert\n        /* \"#utility.yul\":19524:19584   */\n    tag_633:\n        /* \"#utility.yul\":19474:19590   */\n      pop\n      jump\t// out\n        /* \"#utility.yul\":19596:19733   */\n    tag_403:\n        /* \"#utility.yul\":19650:19655   */\n      0x00\n        /* \"#utility.yul\":19681:19687   */\n      dup2\n        /* \"#utility.yul\":19675:19688   */\n      mload\n        /* \"#utility.yul\":19666:19688   */\n      swap1\n      pop\n        /* \"#utility.yul\":19697:19727   */\n      tag_635\n        /* \"#utility.yul\":19721:19726   */\n      dup2\n        /* \"#utility.yul\":19697:19727   */\n      tag_402\n      jump\t// in\n    tag_635:\n        /* \"#utility.yul\":19596:19733   */\n      swap3\n      swap2\n      pop\n      pop\n      jump\t// out\n        /* \"#utility.yul\":19776:22321   */\n    tag_404:\n        /* \"#utility.yul\":19857:19862   */\n      0x00\n        /* \"#utility.yul\":19901:19907   */\n      0x0180\n        /* \"#utility.yul\":19889:19898   */\n      dup3\n        /* \"#utility.yul\":19884:19887   */\n      dup5\n        /* \"#utility.yul\":19880:19899   */\n      sub\n        /* \"#utility.yul\":19876:19908   */\n      slt\n        /* \"#utility.yul\":19873:19992   */\n      iszero\n      tag_637\n      jumpi\n        /* \"#utility.yul\":19911:19990   */\n      tag_638\n      tag_395\n      jump\t// in\n    tag_638:\n        /* \"#utility.yul\":19873:19992   */\n    tag_637:\n        /* \"#utility.yul\":20010:20033   */\n      tag_639\n        /* \"#utility.yul\":20026:20032   */\n      0x0180\n        /* \"#utility.yul\":20010:20033   */\n      tag_352\n      jump\t// in\n    tag_639:\n        /* \"#utility.yul\":20001:20033   */\n      swap1\n      pop\n        /* \"#utility.yul\":20114:20115   */\n      0x00\n        /* \"#utility.yul\":20103:20112   */\n      dup3\n        /* \"#utility.yul\":20099:20116   */\n      add\n        /* \"#utility.yul\":20093:20117   */\n      mload\n        /* \"#utility.yul\":20144:20162   */\n      0xffffffffffffffff\n        /* \"#utility.yul\":20136:20142   */\n      dup2\n        /* \"#utility.yul\":20133:20163   */\n      gt\n        /* \"#utility.yul\":20130:20247   */\n      iszero\n      tag_640\n      jumpi\n        /* \"#utility.yul\":20166:20245   */\n      tag_641\n      tag_396\n      jump\t// in\n    tag_641:\n        /* \"#utility.yul\":20130:20247   */\n    tag_640:\n        /* \"#utility.yul\":20286:20356   */\n      tag_642\n        /* \"#utility.yul\":20352:20355   */\n      dup5\n        /* \"#utility.yul\":20343:20349   */\n      dup3\n        /* \"#utility.yul\":20332:20341   */\n      dup6\n        /* \"#utility.yul\":20328:20350   */\n      add\n        /* \"#utility.yul\":20286:20356   */\n      tag_398\n      jump\t// in\n    tag_642:\n        /* \"#utility.yul\":20279:20283   */\n      0x00\n        /* \"#utility.yul\":20272:20277   */\n      dup4\n        /* \"#utility.yul\":20268:20284   */\n      add\n        /* \"#utility.yul\":20261:20357   */\n      mstore\n        /* \"#utility.yul\":20043:20368   */\n      pop\n        /* \"#utility.yul\":20433:20435   */\n      0x20\n        /* \"#utility.yul\":20474:20534   */\n      tag_643\n        /* \"#utility.yul\":20530:20533   */\n      dup5\n        /* \"#utility.yul\":20521:20527   */\n      dup3\n        /* \"#utility.yul\":20510:20519   */\n      dup6\n        /* \"#utility.yul\":20506:20528   */\n      add\n        /* \"#utility.yul\":20474:20534   */\n      tag_399\n      jump\t// in\n    tag_643:\n        /* \"#utility.yul\":20467:20471   */\n      0x20\n        /* \"#utility.yul\":20460:20465   */\n      dup4\n        /* \"#utility.yul\":20456:20472   */\n      add\n        /* \"#utility.yul\":20449:20535   */\n      mstore\n        /* \"#utility.yul\":20378:20546   */\n      pop\n        /* \"#utility.yul\":20607:20609   */\n      0x40\n        /* \"#utility.yul\":20648:20708   */\n      tag_644\n        /* \"#utility.yul\":20704:20707   */\n      dup5\n        /* \"#utility.yul\":20695:20701   */\n      dup3\n        /* \"#utility.yul\":20684:20693   */\n      dup6\n        /* \"#utility.yul\":20680:20702   */\n      add\n        /* \"#utility.yul\":20648:20708   */\n      tag_400\n      jump\t// in\n    tag_644:\n        /* \"#utility.yul\":20641:20645   */\n      0x40\n        /* \"#utility.yul\":20634:20639   */\n      dup4\n        /* \"#utility.yul\":20630:20646   */\n      add\n        /* \"#utility.yul\":20623:20709   */\n      mstore\n        /* \"#utility.yul\":20556:20720   */\n      pop\n        /* \"#utility.yul\":20789:20791   */\n      0x60\n        /* \"#utility.yul\":20830:20890   */\n      tag_645\n        /* \"#utility.yul\":20886:20889   */\n      dup5\n        /* \"#utility.yul\":20877:20883   */\n      dup3\n        /* \"#utility.yul\":20866:20875   */\n      dup6\n        /* \"#utility.yul\":20862:20884   */\n      add\n        /* \"#utility.yul\":20830:20890   */\n      tag_400\n      jump\t// in\n    tag_645:\n        /* \"#utility.yul\":20823:20827   */\n      0x60\n        /* \"#utility.yul\":20816:20821   */\n      dup4\n        /* \"#utility.yul\":20812:20828   */\n      add\n        /* \"#utility.yul\":20805:20891   */\n      mstore\n        /* \"#utility.yul\":20730:20902   */\n      pop\n        /* \"#utility.yul\":20967:20970   */\n      0x80\n        /* \"#utility.yul\":21009:21066   */\n      tag_646\n        /* \"#utility.yul\":21062:21065   */\n      dup5\n        /* \"#utility.yul\":21053:21059   */\n      dup3\n        /* \"#utility.yul\":21042:21051   */\n      dup6\n        /* \"#utility.yul\":21038:21060   */\n      add\n        /* \"#utility.yul\":21009:21066   */\n      tag_403\n      jump\t// in\n    tag_646:\n        /* \"#utility.yul\":21002:21006   */\n      0x80\n        /* \"#utility.yul\":20995:21000   */\n      dup4\n        /* \"#utility.yul\":20991:21007   */\n      add\n        /* \"#utility.yul\":20984:21067   */\n      mstore\n        /* \"#utility.yul\":20912:21078   */\n      pop\n        /* \"#utility.yul\":21142:21145   */\n      0xa0\n        /* \"#utility.yul\":21184:21241   */\n      tag_647\n        /* \"#utility.yul\":21237:21240   */\n      dup5\n        /* \"#utility.yul\":21228:21234   */\n      dup3\n        /* \"#utility.yul\":21217:21226   */\n      dup6\n        /* \"#utility.yul\":21213:21235   */\n      add\n        /* \"#utility.yul\":21184:21241   */\n      tag_403\n      jump\t// in\n    tag_647:\n        /* \"#utility.yul\":21177:21181   */\n      0xa0\n        /* \"#utility.yul\":21170:21175   */\n      dup4\n        /* \"#utility.yul\":21166:21182   */\n      add\n        /* \"#utility.yul\":21159:21242   */\n      mstore\n        /* \"#utility.yul\":21088:21253   */\n      pop\n        /* \"#utility.yul\":21314:21317   */\n      0xc0\n        /* \"#utility.yul\":21356:21413   */\n      tag_648\n        /* \"#utility.yul\":21409:21412   */\n      dup5\n        /* \"#utility.yul\":21400:21406   */\n      dup3\n        /* \"#utility.yul\":21389:21398   */\n      dup6\n        /* \"#utility.yul\":21385:21407   */\n      add\n        /* \"#utility.yul\":21356:21413   */\n      tag_403\n      jump\t// in\n    tag_648:\n        /* \"#utility.yul\":21349:21353   */\n      0xc0\n        /* \"#utility.yul\":21342:21347   */\n      dup4\n        /* \"#utility.yul\":21338:21354   */\n      add\n        /* \"#utility.yul\":21331:21414   */\n      mstore\n        /* \"#utility.yul\":21263:21425   */\n      pop\n        /* \"#utility.yul\":21494:21497   */\n      0xe0\n        /* \"#utility.yul\":21536:21596   */\n      tag_649\n        /* \"#utility.yul\":21592:21595   */\n      dup5\n        /* \"#utility.yul\":21583:21589   */\n      dup3\n        /* \"#utility.yul\":21572:21581   */\n      dup6\n        /* \"#utility.yul\":21568:21590   */\n      add\n        /* \"#utility.yul\":21536:21596   */\n      tag_400\n      jump\t// in\n    tag_649:\n        /* \"#utility.yul\":21529:21533   */\n      0xe0\n        /* \"#utility.yul\":21522:21527   */\n      dup4\n        /* \"#utility.yul\":21518:21534   */\n      add\n        /* \"#utility.yul\":21511:21597   */\n      mstore\n        /* \"#utility.yul\":21435:21608   */\n      pop\n        /* \"#utility.yul\":21673:21676   */\n      0x0100\n        /* \"#utility.yul\":21717:21774   */\n      tag_650\n        /* \"#utility.yul\":21770:21773   */\n      dup5\n        /* \"#utility.yul\":21761:21767   */\n      dup3\n        /* \"#utility.yul\":21750:21759   */\n      dup6\n        /* \"#utility.yul\":21746:21768   */\n      add\n        /* \"#utility.yul\":21717:21774   */\n      tag_403\n      jump\t// in\n    tag_650:\n        /* \"#utility.yul\":21708:21714   */\n      0x0100\n        /* \"#utility.yul\":21701:21706   */\n      dup4\n        /* \"#utility.yul\":21697:21715   */\n      add\n        /* \"#utility.yul\":21690:21775   */\n      mstore\n        /* \"#utility.yul\":21618:21786   */\n      pop\n        /* \"#utility.yul\":21847:21850   */\n      0x0120\n        /* \"#utility.yul\":21891:21951   */\n      tag_651\n        /* \"#utility.yul\":21947:21950   */\n      dup5\n        /* \"#utility.yul\":21938:21944   */\n      dup3\n        /* \"#utility.yul\":21927:21936   */\n      dup6\n        /* \"#utility.yul\":21923:21945   */\n      add\n        /* \"#utility.yul\":21891:21951   */\n      tag_400\n      jump\t// in\n    tag_651:\n        /* \"#utility.yul\":21882:21888   */\n      0x0120\n        /* \"#utility.yul\":21875:21880   */\n      dup4\n        /* \"#utility.yul\":21871:21889   */\n      add\n        /* \"#utility.yul\":21864:21952   */\n      mstore\n        /* \"#utility.yul\":21796:21963   */\n      pop\n        /* \"#utility.yul\":22022:22025   */\n      0x0140\n        /* \"#utility.yul\":22066:22126   */\n      tag_652\n        /* \"#utility.yul\":22122:22125   */\n      dup5\n        /* \"#utility.yul\":22113:22119   */\n      dup3\n        /* \"#utility.yul\":22102:22111   */\n      dup6\n        /* \"#utility.yul\":22098:22120   */\n      add\n        /* \"#utility.yul\":22066:22126   */\n      tag_400\n      jump\t// in\n    tag_652:\n        /* \"#utility.yul\":22057:22063   */\n      0x0140\n        /* \"#utility.yul\":22050:22055   */\n      dup4\n        /* \"#utility.yul\":22046:22064   */\n      add\n        /* \"#utility.yul\":22039:22127   */\n      mstore\n        /* \"#utility.yul\":21973:22138   */\n      pop\n        /* \"#utility.yul\":22198:22201   */\n      0x0160\n        /* \"#utility.yul\":22242:22302   */\n      tag_653\n        /* \"#utility.yul\":22298:22301   */\n      dup5\n        /* \"#utility.yul\":22289:22295   */\n      dup3\n        /* \"#utility.yul\":22278:22287   */\n      dup6\n        /* \"#utility.yul\":22274:22296   */\n      add\n        /* \"#utility.yul\":22242:22302   */\n      tag_400\n      jump\t// in\n    tag_653:\n        /* \"#utility.yul\":22233:22239   */\n      0x0160\n        /* \"#utility.yul\":22226:22231   */\n      dup4\n        /* \"#utility.yul\":22222:22240   */\n      add\n        /* \"#utility.yul\":22215:22303   */\n      mstore\n        /* \"#utility.yul\":22148:22314   */\n      pop\n        /* \"#utility.yul\":19776:22321   */\n      swap3\n      swap2\n      pop\n      pop\n      jump\t// out\n        /* \"#utility.yul\":22327:22873   */\n    tag_141:\n        /* \"#utility.yul\":22418:22424   */\n      0x00\n        /* \"#utility.yul\":22467:22469   */\n      0x20\n        /* \"#utility.yul\":22455:22464   */\n      dup3\n        /* \"#utility.yul\":22446:22453   */\n      dup5\n        /* \"#utility.yul\":22442:22465   */\n      sub\n        /* \"#utility.yul\":22438:22470   */\n      slt\n        /* \"#utility.yul\":22435:22554   */\n      iszero\n      tag_655\n      jumpi\n        /* \"#utility.yul\":22473:22552   */\n      tag_656\n      tag_346\n      jump\t// in\n    tag_656:\n        /* \"#utility.yul\":22435:22554   */\n    tag_655:\n        /* \"#utility.yul\":22614:22615   */\n      0x00\n        /* \"#utility.yul\":22603:22612   */\n      dup3\n        /* \"#utility.yul\":22599:22616   */\n      add\n        /* \"#utility.yul\":22593:22617   */\n      mload\n        /* \"#utility.yul\":22644:22662   */\n      0xffffffffffffffff\n        /* \"#utility.yul\":22636:22642   */\n      dup2\n        /* \"#utility.yul\":22633:22663   */\n      gt\n        /* \"#utility.yul\":22630:22747   */\n      iszero\n      tag_657\n      jumpi\n        /* \"#utility.yul\":22666:22745   */\n      tag_658\n      tag_347\n      jump\t// in\n    tag_658:\n        /* \"#utility.yul\":22630:22747   */\n    tag_657:\n        /* \"#utility.yul\":22771:22856   */\n      tag_659\n        /* \"#utility.yul\":22848:22855   */\n      dup5\n        /* \"#utility.yul\":22839:22845   */\n      dup3\n        /* \"#utility.yul\":22828:22837   */\n      dup6\n        /* \"#utility.yul\":22824:22846   */\n      add\n        /* \"#utility.yul\":22771:22856   */\n      tag_404\n      jump\t// in\n    tag_659:\n        /* \"#utility.yul\":22761:22856   */\n      swap2\n      pop\n        /* \"#utility.yul\":22564:22866   */\n      pop\n        /* \"#utility.yul\":22327:22873   */\n      swap3\n      swap2\n      pop\n      pop\n      jump\t// out\n        /* \"#utility.yul\":22879:23100   */\n    tag_405:\n        /* \"#utility.yul\":23019:23053   */\n      0x52656c656173653a206e656564207365742066756e20706f6f6c204164647265\n        /* \"#utility.yul\":23015:23016   */\n      0x00\n        /* \"#utility.yul\":23007:23013   */\n      dup3\n        /* \"#utility.yul\":23003:23017   */\n      add\n        /* \"#utility.yul\":22996:23054   */\n      mstore\n        /* \"#utility.yul\":23088:23092   */\n      0x7373000000000000000000000000000000000000000000000000000000000000\n        /* \"#utility.yul\":23083:23085   */\n      0x20\n        /* \"#utility.yul\":23075:23081   */\n      dup3\n        /* \"#utility.yul\":23071:23086   */\n      add\n        /* \"#utility.yul\":23064:23093   */\n      mstore\n        /* \"#utility.yul\":22879:23100   */\n      pop\n      jump\t// out\n        /* \"#utility.yul\":23106:23472   */\n    tag_406:\n        /* \"#utility.yul\":23248:23251   */\n      0x00\n        /* \"#utility.yul\":23269:23336   */\n      tag_662\n        /* \"#utility.yul\":23333:23335   */\n      0x22\n        /* \"#utility.yul\":23328:23331   */\n      dup4\n        /* \"#utility.yul\":23269:23336   */\n      tag_382\n      jump\t// in\n    tag_662:\n        /* \"#utility.yul\":23262:23336   */\n      swap2\n      pop\n        /* \"#utility.yul\":23345:23438   */\n      tag_663\n        /* \"#utility.yul\":23434:23437   */\n      dup3\n        /* \"#utility.yul\":23345:23438   */\n      tag_405\n      jump\t// in\n    tag_663:\n        /* \"#utility.yul\":23463:23465   */\n      0x40\n        /* \"#utility.yul\":23458:23461   */\n      dup3\n        /* \"#utility.yul\":23454:23466   */\n      add\n        /* \"#utility.yul\":23447:23466   */\n      swap1\n      pop\n        /* \"#utility.yul\":23106:23472   */\n      swap2\n      swap1\n      pop\n      jump\t// out\n        /* \"#utility.yul\":23478:23897   */\n    tag_160:\n        /* \"#utility.yul\":23644:23648   */\n      0x00\n        /* \"#utility.yul\":23682:23684   */\n      0x20\n        /* \"#utility.yul\":23671:23680   */\n      dup3\n        /* \"#utility.yul\":23667:23685   */\n      add\n        /* \"#utility.yul\":23659:23685   */\n      swap1\n      pop\n        /* \"#utility.yul\":23731:23740   */\n      dup2\n        /* \"#utility.yul\":23725:23729   */\n      dup2\n        /* \"#utility.yul\":23721:23741   */\n      sub\n        /* \"#utility.yul\":23717:23718   */\n      0x00\n        /* \"#utility.yul\":23706:23715   */\n      dup4\n        /* \"#utility.yul\":23702:23719   */\n      add\n        /* \"#utility.yul\":23695:23742   */\n      mstore\n        /* \"#utility.yul\":23759:23890   */\n      tag_665\n        /* \"#utility.yul\":23885:23889   */\n      dup2\n        /* \"#utility.yul\":23759:23890   */\n      tag_406\n      jump\t// in\n    tag_665:\n        /* \"#utility.yul\":23751:23890   */\n      swap1\n      pop\n        /* \"#utility.yul\":23478:23897   */\n      swap2\n      swap1\n      pop\n      jump\t// out\n        /* \"#utility.yul\":23903:24254   */\n    tag_165:\n        /* \"#utility.yul\":23973:23979   */\n      0x00\n        /* \"#utility.yul\":24022:24024   */\n      0x20\n        /* \"#utility.yul\":24010:24019   */\n      dup3\n        /* \"#utility.yul\":24001:24008   */\n      dup5\n        /* \"#utility.yul\":23997:24020   */\n      sub\n        /* \"#utility.yul\":23993:24025   */\n      slt\n        /* \"#utility.yul\":23990:24109   */\n      iszero\n      tag_667\n      jumpi\n        /* \"#utility.yul\":24028:24107   */\n      tag_668\n      tag_346\n      jump\t// in\n    tag_668:\n        /* \"#utility.yul\":23990:24109   */\n    tag_667:\n        /* \"#utility.yul\":24148:24149   */\n      0x00\n        /* \"#utility.yul\":24173:24237   */\n      tag_669\n        /* \"#utility.yul\":24229:24236   */\n      dup5\n        /* \"#utility.yul\":24220:24226   */\n      dup3\n        /* \"#utility.yul\":24209:24218   */\n      dup6\n        /* \"#utility.yul\":24205:24227   */\n      add\n        /* \"#utility.yul\":24173:24237   */\n      tag_400\n      jump\t// in\n    tag_669:\n        /* \"#utility.yul\":24163:24237   */\n      swap2\n      pop\n        /* \"#utility.yul\":24119:24247   */\n      pop\n        /* \"#utility.yul\":23903:24254   */\n      swap3\n      swap2\n      pop\n      pop\n      jump\t// out\n        /* \"#utility.yul\":24260:24670   */\n    tag_167:\n        /* \"#utility.yul\":24300:24307   */\n      0x00\n        /* \"#utility.yul\":24323:24343   */\n      tag_671\n        /* \"#utility.yul\":24341:24342   */\n      dup3\n        /* \"#utility.yul\":24323:24343   */\n      tag_363\n      jump\t// in\n    tag_671:\n        /* \"#utility.yul\":24318:24343   */\n      swap2\n      pop\n        /* \"#utility.yul\":24357:24377   */\n      tag_672\n        /* \"#utility.yul\":24375:24376   */\n      dup4\n        /* \"#utility.yul\":24357:24377   */\n      tag_363\n      jump\t// in\n    tag_672:\n        /* \"#utility.yul\":24352:24377   */\n      swap3\n      pop\n        /* \"#utility.yul\":24412:24413   */\n      dup3\n        /* \"#utility.yul\":24409:24410   */\n      dup3\n        /* \"#utility.yul\":24405:24414   */\n      mul\n        /* \"#utility.yul\":24434:24464   */\n      tag_673\n        /* \"#utility.yul\":24452:24463   */\n      dup2\n        /* \"#utility.yul\":24434:24464   */\n      tag_363\n      jump\t// in\n    tag_673:\n        /* \"#utility.yul\":24423:24464   */\n      swap2\n      pop\n        /* \"#utility.yul\":24613:24614   */\n      dup3\n        /* \"#utility.yul\":24604:24611   */\n      dup3\n        /* \"#utility.yul\":24600:24615   */\n      div\n        /* \"#utility.yul\":24597:24598   */\n      dup5\n        /* \"#utility.yul\":24594:24616   */\n      eq\n        /* \"#utility.yul\":24574:24575   */\n      dup4\n        /* \"#utility.yul\":24567:24576   */\n      iszero\n        /* \"#utility.yul\":24547:24630   */\n      or\n        /* \"#utility.yul\":24524:24663   */\n      tag_674\n      jumpi\n        /* \"#utility.yul\":24643:24661   */\n      tag_675\n      tag_389\n      jump\t// in\n    tag_675:\n        /* \"#utility.yul\":24524:24663   */\n    tag_674:\n        /* \"#utility.yul\":24308:24670   */\n      pop\n        /* \"#utility.yul\":24260:24670   */\n      swap3\n      swap2\n      pop\n      pop\n      jump\t// out\n        /* \"#utility.yul\":24676:24856   */\n    tag_407:\n        /* \"#utility.yul\":24724:24801   */\n      0x4e487b7100000000000000000000000000000000000000000000000000000000\n        /* \"#utility.yul\":24721:24722   */\n      0x00\n        /* \"#utility.yul\":24714:24802   */\n      mstore\n        /* \"#utility.yul\":24821:24825   */\n      0x12\n        /* \"#utility.yul\":24818:24819   */\n      0x04\n        /* \"#utility.yul\":24811:24826   */\n      mstore\n        /* \"#utility.yul\":24845:24849   */\n      0x24\n        /* \"#utility.yul\":24842:24843   */\n      0x00\n        /* \"#utility.yul\":24835:24850   */\n      revert\n        /* \"#utility.yul\":24862:25047   */\n    tag_169:\n        /* \"#utility.yul\":24902:24903   */\n      0x00\n        /* \"#utility.yul\":24919:24939   */\n      tag_678\n        /* \"#utility.yul\":24937:24938   */\n      dup3\n        /* \"#utility.yul\":24919:24939   */\n      tag_363\n      jump\t// in\n    tag_678:\n        /* \"#utility.yul\":24914:24939   */\n      swap2\n      pop\n        /* \"#utility.yul\":24953:24973   */\n      tag_679\n        /* \"#utility.yul\":24971:24972   */\n      dup4\n        /* \"#utility.yul\":24953:24973   */\n      tag_363\n      jump\t// in\n    tag_679:\n        /* \"#utility.yul\":24948:24973   */\n      swap3\n      pop\n        /* \"#utility.yul\":24992:24993   */\n      dup3\n        /* \"#utility.yul\":24982:25017   */\n      tag_680\n      jumpi\n        /* \"#utility.yul\":24997:25015   */\n      tag_681\n      tag_407\n      jump\t// in\n    tag_681:\n        /* \"#utility.yul\":24982:25017   */\n    tag_680:\n        /* \"#utility.yul\":25039:25040   */\n      dup3\n        /* \"#utility.yul\":25036:25037   */\n      dup3\n        /* \"#utility.yul\":25032:25041   */\n      div\n        /* \"#utility.yul\":25027:25041   */\n      swap1\n      pop\n        /* \"#utility.yul\":24862:25047   */\n      swap3\n      swap2\n      pop\n      pop\n      jump\t// out\n        /* \"#utility.yul\":25053:25302   */\n    tag_408:\n        /* \"#utility.yul\":25193:25227   */\n      0x52656c656173653a20496e73756666696369656e7420746f74616c20616d6f75\n        /* \"#utility.yul\":25189:25190   */\n      0x00\n        /* \"#utility.yul\":25181:25187   */\n      dup3\n        /* \"#utility.yul\":25177:25191   */\n      add\n        /* \"#utility.yul\":25170:25228   */\n      mstore\n        /* \"#utility.yul\":25262:25294   */\n      0x6e7420617661696c61626c6520666f7220646973747269627574696f6e210000\n        /* \"#utility.yul\":25257:25259   */\n      0x20\n        /* \"#utility.yul\":25249:25255   */\n      dup3\n        /* \"#utility.yul\":25245:25260   */\n      add\n        /* \"#utility.yul\":25238:25295   */\n      mstore\n        /* \"#utility.yul\":25053:25302   */\n      pop\n      jump\t// out\n        /* \"#utility.yul\":25308:25674   */\n    tag_409:\n        /* \"#utility.yul\":25450:25453   */\n      0x00\n        /* \"#utility.yul\":25471:25538   */\n      tag_684\n        /* \"#utility.yul\":25535:25537   */\n      0x3e\n        /* \"#utility.yul\":25530:25533   */\n      dup4\n        /* \"#utility.yul\":25471:25538   */\n      tag_382\n      jump\t// in\n    tag_684:\n        /* \"#utility.yul\":25464:25538   */\n      swap2\n      pop\n        /* \"#utility.yul\":25547:25640   */\n      tag_685\n        /* \"#utility.yul\":25636:25639   */\n      dup3\n        /* \"#utility.yul\":25547:25640   */\n      tag_408\n      jump\t// in\n    tag_685:\n        /* \"#utility.yul\":25665:25667   */\n      0x40\n        /* \"#utility.yul\":25660:25663   */\n      dup3\n        /* \"#utility.yul\":25656:25668   */\n      add\n        /* \"#utility.yul\":25649:25668   */\n      swap1\n      pop\n        /* \"#utility.yul\":25308:25674   */\n      swap2\n      swap1\n      pop\n      jump\t// out\n        /* \"#utility.yul\":25680:26099   */\n    tag_173:\n        /* \"#utility.yul\":25846:25850   */\n      0x00\n        /* \"#utility.yul\":25884:25886   */\n      0x20\n        /* \"#utility.yul\":25873:25882   */\n      dup3\n        /* \"#utility.yul\":25869:25887   */\n      add\n        /* \"#utility.yul\":25861:25887   */\n      swap1\n      pop\n        /* \"#utility.yul\":25933:25942   */\n      dup2\n        /* \"#utility.yul\":25927:25931   */\n      dup2\n        /* \"#utility.yul\":25923:25943   */\n      sub\n        /* \"#utility.yul\":25919:25920   */\n      0x00\n        /* \"#utility.yul\":25908:25917   */\n      dup4\n        /* \"#utility.yul\":25904:25921   */\n      add\n        /* \"#utility.yul\":25897:25944   */\n      mstore\n        /* \"#utility.yul\":25961:26092   */\n      tag_687\n        /* \"#utility.yul\":26087:26091   */\n      dup2\n        /* \"#utility.yul\":25961:26092   */\n      tag_409\n      jump\t// in\n    tag_687:\n        /* \"#utility.yul\":25953:26092   */\n      swap1\n      pop\n        /* \"#utility.yul\":25680:26099   */\n      swap2\n      swap1\n      pop\n      jump\t// out\n        /* \"#utility.yul\":26105:26327   */\n    tag_410:\n        /* \"#utility.yul\":26245:26279   */\n      0x52656c656173653a206e6565642073657420526563656976696e672041646472\n        /* \"#utility.yul\":26241:26242   */\n      0x00\n        /* \"#utility.yul\":26233:26239   */\n      dup3\n        /* \"#utility.yul\":26229:26243   */\n      add\n        /* \"#utility.yul\":26222:26280   */\n      mstore\n        /* \"#utility.yul\":26314:26319   */\n      0x6573730000000000000000000000000000000000000000000000000000000000\n        /* \"#utility.yul\":26309:26311   */\n      0x20\n        /* \"#utility.yul\":26301:26307   */\n      dup3\n        /* \"#utility.yul\":26297:26312   */\n      add\n        /* \"#utility.yul\":26290:26320   */\n      mstore\n        /* \"#utility.yul\":26105:26327   */\n      pop\n      jump\t// out\n        /* \"#utility.yul\":26333:26699   */\n    tag_411:\n        /* \"#utility.yul\":26475:26478   */\n      0x00\n        /* \"#utility.yul\":26496:26563   */\n      tag_690\n        /* \"#utility.yul\":26560:26562   */\n      0x23\n        /* \"#utility.yul\":26555:26558   */\n      dup4\n        /* \"#utility.yul\":26496:26563   */\n      tag_382\n      jump\t// in\n    tag_690:\n        /* \"#utility.yul\":26489:26563   */\n      swap2\n      pop\n        /* \"#utility.yul\":26572:26665   */\n      tag_691\n        /* \"#utility.yul\":26661:26664   */\n      dup3\n        /* \"#utility.yul\":26572:26665   */\n      tag_410\n      jump\t// in\n    tag_691:\n        /* \"#utility.yul\":26690:26692   */\n      0x40\n        /* \"#utility.yul\":26685:26688   */\n      dup3\n        /* \"#utility.yul\":26681:26693   */\n      add\n        /* \"#utility.yul\":26674:26693   */\n      swap1\n      pop\n        /* \"#utility.yul\":26333:26699   */\n      swap2\n      swap1\n      pop\n      jump\t// out\n        /* \"#utility.yul\":26705:27124   */\n    tag_227:\n        /* \"#utility.yul\":26871:26875   */\n      0x00\n        /* \"#utility.yul\":26909:26911   */\n      0x20\n        /* \"#utility.yul\":26898:26907   */\n      dup3\n        /* \"#utility.yul\":26894:26912   */\n      add\n        /* \"#utility.yul\":26886:26912   */\n      swap1\n      pop\n        /* \"#utility.yul\":26958:26967   */\n      dup2\n        /* \"#utility.yul\":26952:26956   */\n      dup2\n        /* \"#utility.yul\":26948:26968   */\n      sub\n        /* \"#utility.yul\":26944:26945   */\n      0x00\n        /* \"#utility.yul\":26933:26942   */\n      dup4\n        /* \"#utility.yul\":26929:26946   */\n      add\n        /* \"#utility.yul\":26922:26969   */\n      mstore\n        /* \"#utility.yul\":26986:27117   */\n      tag_693\n        /* \"#utility.yul\":27112:27116   */\n      dup2\n        /* \"#utility.yul\":26986:27117   */\n      tag_411\n      jump\t// in\n    tag_693:\n        /* \"#utility.yul\":26978:27117   */\n      swap1\n      pop\n        /* \"#utility.yul\":26705:27124   */\n      swap2\n      swap1\n      pop\n      jump\t// out\n        /* \"#utility.yul\":27130:27373   */\n    tag_412:\n        /* \"#utility.yul\":27270:27304   */\n      0x546865206e756d626572206f66206169722064726f7073206578636565647320\n        /* \"#utility.yul\":27266:27267   */\n      0x00\n        /* \"#utility.yul\":27258:27264   */\n      dup3\n        /* \"#utility.yul\":27254:27268   */\n      add\n        /* \"#utility.yul\":27247:27305   */\n      mstore\n        /* \"#utility.yul\":27339:27365   */\n      0x746865206461696c792072656c6561736520616d6f756e740000000000000000\n        /* \"#utility.yul\":27334:27336   */\n      0x20\n        /* \"#utility.yul\":27326:27332   */\n      dup3\n        /* \"#utility.yul\":27322:27337   */\n      add\n        /* \"#utility.yul\":27315:27366   */\n      mstore\n        /* \"#utility.yul\":27130:27373   */\n      pop\n      jump\t// out\n        /* \"#utility.yul\":27379:27745   */\n    tag_413:\n        /* \"#utility.yul\":27521:27524   */\n      0x00\n        /* \"#utility.yul\":27542:27609   */\n      tag_696\n        /* \"#utility.yul\":27606:27608   */\n      0x38\n        /* \"#utility.yul\":27601:27604   */\n      dup4\n        /* \"#utility.yul\":27542:27609   */\n      tag_382\n      jump\t// in\n    tag_696:\n        /* \"#utility.yul\":27535:27609   */\n      swap2\n      pop\n        /* \"#utility.yul\":27618:27711   */\n      tag_697\n        /* \"#utility.yul\":27707:27710   */\n      dup3\n        /* \"#utility.yul\":27618:27711   */\n      tag_412\n      jump\t// in\n    tag_697:\n        /* \"#utility.yul\":27736:27738   */\n      0x40\n        /* \"#utility.yul\":27731:27734   */\n      dup3\n        /* \"#utility.yul\":27727:27739   */\n      add\n        /* \"#utility.yul\":27720:27739   */\n      swap1\n      pop\n        /* \"#utility.yul\":27379:27745   */\n      swap2\n      swap1\n      pop\n      jump\t// out\n        /* \"#utility.yul\":27751:28170   */\n    tag_243:\n        /* \"#utility.yul\":27917:27921   */\n      0x00\n        /* \"#utility.yul\":27955:27957   */\n      0x20\n        /* \"#utility.yul\":27944:27953   */\n      dup3\n        /* \"#utility.yul\":27940:27958   */\n      add\n        /* \"#utility.yul\":27932:27958   */\n      swap1\n      pop\n        /* \"#utility.yul\":28004:28013   */\n      dup2\n        /* \"#utility.yul\":27998:28002   */\n      dup2\n        /* \"#utility.yul\":27994:28014   */\n      sub\n        /* \"#utility.yul\":27990:27991   */\n      0x00\n        /* \"#utility.yul\":27979:27988   */\n      dup4\n        /* \"#utility.yul\":27975:27992   */\n      add\n        /* \"#utility.yul\":27968:28015   */\n      mstore\n        /* \"#utility.yul\":28032:28163   */\n      tag_699\n        /* \"#utility.yul\":28158:28162   */\n      dup2\n        /* \"#utility.yul\":28032:28163   */\n      tag_413\n      jump\t// in\n    tag_699:\n        /* \"#utility.yul\":28024:28163   */\n      swap1\n      pop\n        /* \"#utility.yul\":27751:28170   */\n      swap2\n      swap1\n      pop\n      jump\t// out\n        /* \"#utility.yul\":28176:28404   */\n    tag_414:\n        /* \"#utility.yul\":28316:28350   */\n      0x52656c656173653a206e65656420736574206368616e6e656c20726577617264\n        /* \"#utility.yul\":28312:28313   */\n      0x00\n        /* \"#utility.yul\":28304:28310   */\n      dup3\n        /* \"#utility.yul\":28300:28314   */\n      add\n        /* \"#utility.yul\":28293:28351   */\n      mstore\n        /* \"#utility.yul\":28385:28396   */\n      0x7320416464726573730000000000000000000000000000000000000000000000\n        /* \"#utility.yul\":28380:28382   */\n      0x20\n        /* \"#utility.yul\":28372:28378   */\n      dup3\n        /* \"#utility.yul\":28368:28383   */\n      add\n        /* \"#utility.yul\":28361:28397   */\n      mstore\n        /* \"#utility.yul\":28176:28404   */\n      pop\n      jump\t// out\n        /* \"#utility.yul\":28410:28776   */\n    tag_415:\n        /* \"#utility.yul\":28552:28555   */\n      0x00\n        /* \"#utility.yul\":28573:28640   */\n      tag_702\n        /* \"#utility.yul\":28637:28639   */\n      0x29\n        /* \"#utility.yul\":28632:28635   */\n      dup4\n        /* \"#utility.yul\":28573:28640   */\n      tag_382\n      jump\t// in\n    tag_702:\n        /* \"#utility.yul\":28566:28640   */\n      swap2\n      pop\n        /* \"#utility.yul\":28649:28742   */\n      tag_703\n        /* \"#utility.yul\":28738:28741   */\n      dup3\n        /* \"#utility.yul\":28649:28742   */\n      tag_414\n      jump\t// in\n    tag_703:\n        /* \"#utility.yul\":28767:28769   */\n      0x40\n        /* \"#utility.yul\":28762:28765   */\n      dup3\n        /* \"#utility.yul\":28758:28770   */\n      add\n        /* \"#utility.yul\":28751:28770   */\n      swap1\n      pop\n        /* \"#utility.yul\":28410:28776   */\n      swap2\n      swap1\n      pop\n      jump\t// out\n        /* \"#utility.yul\":28782:29201   */\n    tag_279:\n        /* \"#utility.yul\":28948:28952   */\n      0x00\n        /* \"#utility.yul\":28986:28988   */\n      0x20\n        /* \"#utility.yul\":28975:28984   */\n      dup3\n        /* \"#utility.yul\":28971:28989   */\n      add\n        /* \"#utility.yul\":28963:28989   */\n      swap1\n      pop\n        /* \"#utility.yul\":29035:29044   */\n      dup2\n        /* \"#utility.yul\":29029:29033   */\n      dup2\n        /* \"#utility.yul\":29025:29045   */\n      sub\n        /* \"#utility.yul\":29021:29022   */\n      0x00\n        /* \"#utility.yul\":29010:29019   */\n      dup4\n        /* \"#utility.yul\":29006:29023   */\n      add\n        /* \"#utility.yul\":28999:29046   */\n      mstore\n        /* \"#utility.yul\":29063:29194   */\n      tag_705\n        /* \"#utility.yul\":29189:29193   */\n      dup2\n        /* \"#utility.yul\":29063:29194   */\n      tag_415\n      jump\t// in\n    tag_705:\n        /* \"#utility.yul\":29055:29194   */\n      swap1\n      pop\n        /* \"#utility.yul\":28782:29201   */\n      swap2\n      swap1\n      pop\n      jump\t// out\n        /* \"#utility.yul\":29207:29457   */\n    tag_416:\n        /* \"#utility.yul\":29347:29381   */\n      0x52656c656173653a20496e73756666696369656e7420746f74616c20616d6f75\n        /* \"#utility.yul\":29343:29344   */\n      0x00\n        /* \"#utility.yul\":29335:29341   */\n      dup3\n        /* \"#utility.yul\":29331:29345   */\n      add\n        /* \"#utility.yul\":29324:29382   */\n      mstore\n        /* \"#utility.yul\":29416:29449   */\n      0x6e7420617661696c61626c6520666f7220646973747269627574696f6e212100\n        /* \"#utility.yul\":29411:29413   */\n      0x20\n        /* \"#utility.yul\":29403:29409   */\n      dup3\n        /* \"#utility.yul\":29399:29414   */\n      add\n        /* \"#utility.yul\":29392:29450   */\n      mstore\n        /* \"#utility.yul\":29207:29457   */\n      pop\n      jump\t// out\n        /* \"#utility.yul\":29463:29829   */\n    tag_417:\n        /* \"#utility.yul\":29605:29608   */\n      0x00\n        /* \"#utility.yul\":29626:29693   */\n      tag_708\n        /* \"#utility.yul\":29690:29692   */\n      0x3f\n        /* \"#utility.yul\":29685:29688   */\n      dup4\n        /* \"#utility.yul\":29626:29693   */\n      tag_382\n      jump\t// in\n    tag_708:\n        /* \"#utility.yul\":29619:29693   */\n      swap2\n      pop\n        /* \"#utility.yul\":29702:29795   */\n      tag_709\n        /* \"#utility.yul\":29791:29794   */\n      dup3\n        /* \"#utility.yul\":29702:29795   */\n      tag_416\n      jump\t// in\n    tag_709:\n        /* \"#utility.yul\":29820:29822   */\n      0x40\n        /* \"#utility.yul\":29815:29818   */\n      dup3\n        /* \"#utility.yul\":29811:29823   */\n      add\n        /* \"#utility.yul\":29804:29823   */\n      swap1\n      pop\n        /* \"#utility.yul\":29463:29829   */\n      swap2\n      swap1\n      pop\n      jump\t// out\n        /* \"#utility.yul\":29835:30254   */\n    tag_289:\n        /* \"#utility.yul\":30001:30005   */\n      0x00\n        /* \"#utility.yul\":30039:30041   */\n      0x20\n        /* \"#utility.yul\":30028:30037   */\n      dup3\n        /* \"#utility.yul\":30024:30042   */\n      add\n        /* \"#utility.yul\":30016:30042   */\n      swap1\n      pop\n        /* \"#utility.yul\":30088:30097   */\n      dup2\n        /* \"#utility.yul\":30082:30086   */\n      dup2\n        /* \"#utility.yul\":30078:30098   */\n      sub\n        /* \"#utility.yul\":30074:30075   */\n      0x00\n        /* \"#utility.yul\":30063:30072   */\n      dup4\n        /* \"#utility.yul\":30059:30076   */\n      add\n        /* \"#utility.yul\":30052:30099   */\n      mstore\n        /* \"#utility.yul\":30116:30247   */\n      tag_711\n        /* \"#utility.yul\":30242:30246   */\n      dup2\n        /* \"#utility.yul\":30116:30247   */\n      tag_417\n      jump\t// in\n    tag_711:\n        /* \"#utility.yul\":30108:30247   */\n      swap1\n      pop\n        /* \"#utility.yul\":29835:30254   */\n      swap2\n      swap1\n      pop\n      jump\t// out\n        /* \"#utility.yul\":30260:30702   */\n    tag_303:\n        /* \"#utility.yul\":30409:30413   */\n      0x00\n        /* \"#utility.yul\":30447:30449   */\n      0x60\n        /* \"#utility.yul\":30436:30445   */\n      dup3\n        /* \"#utility.yul\":30432:30450   */\n      add\n        /* \"#utility.yul\":30424:30450   */\n      swap1\n      pop\n        /* \"#utility.yul\":30460:30531   */\n      tag_713\n        /* \"#utility.yul\":30528:30529   */\n      0x00\n        /* \"#utility.yul\":30517:30526   */\n      dup4\n        /* \"#utility.yul\":30513:30530   */\n      add\n        /* \"#utility.yul\":30504:30510   */\n      dup7\n        /* \"#utility.yul\":30460:30531   */\n      tag_373\n      jump\t// in\n    tag_713:\n        /* \"#utility.yul\":30541:30613   */\n      tag_714\n        /* \"#utility.yul\":30609:30611   */\n      0x20\n        /* \"#utility.yul\":30598:30607   */\n      dup4\n        /* \"#utility.yul\":30594:30612   */\n      add\n        /* \"#utility.yul\":30585:30591   */\n      dup6\n        /* \"#utility.yul\":30541:30613   */\n      tag_373\n      jump\t// in\n    tag_714:\n        /* \"#utility.yul\":30623:30695   */\n      tag_715\n        /* \"#utility.yul\":30691:30693   */\n      0x40\n        /* \"#utility.yul\":30680:30689   */\n      dup4\n        /* \"#utility.yul\":30676:30694   */\n      add\n        /* \"#utility.yul\":30667:30673   */\n      dup5\n        /* \"#utility.yul\":30623:30695   */\n      tag_372\n      jump\t// in\n    tag_715:\n        /* \"#utility.yul\":30260:30702   */\n      swap5\n      swap4\n      pop\n      pop\n      pop\n      pop\n      jump\t// out\n        /* \"#utility.yul\":30708:30885   */\n    tag_418:\n        /* \"#utility.yul\":30848:30877   */\n      0x536166654d6174683a206164646974696f6e206f766572666c6f770000000000\n        /* \"#utility.yul\":30844:30845   */\n      0x00\n        /* \"#utility.yul\":30836:30842   */\n      dup3\n        /* \"#utility.yul\":30832:30846   */\n      add\n        /* \"#utility.yul\":30825:30878   */\n      mstore\n        /* \"#utility.yul\":30708:30885   */\n      pop\n      jump\t// out\n        /* \"#utility.yul\":30891:31257   */\n    tag_419:\n        /* \"#utility.yul\":31033:31036   */\n      0x00\n        /* \"#utility.yul\":31054:31121   */\n      tag_718\n        /* \"#utility.yul\":31118:31120   */\n      0x1b\n        /* \"#utility.yul\":31113:31116   */\n      dup4\n        /* \"#utility.yul\":31054:31121   */\n      tag_382\n      jump\t// in\n    tag_718:\n        /* \"#utility.yul\":31047:31121   */\n      swap2\n      pop\n        /* \"#utility.yul\":31130:31223   */\n      tag_719\n        /* \"#utility.yul\":31219:31222   */\n      dup3\n        /* \"#utility.yul\":31130:31223   */\n      tag_418\n      jump\t// in\n    tag_719:\n        /* \"#utility.yul\":31248:31250   */\n      0x20\n        /* \"#utility.yul\":31243:31246   */\n      dup3\n        /* \"#utility.yul\":31239:31251   */\n      add\n        /* \"#utility.yul\":31232:31251   */\n      swap1\n      pop\n        /* \"#utility.yul\":30891:31257   */\n      swap2\n      swap1\n      pop\n      jump\t// out\n        /* \"#utility.yul\":31263:31682   */\n    tag_309:\n        /* \"#utility.yul\":31429:31433   */\n      0x00\n        /* \"#utility.yul\":31467:31469   */\n      0x20\n        /* \"#utility.yul\":31456:31465   */\n      dup3\n        /* \"#utility.yul\":31452:31470   */\n      add\n        /* \"#utility.yul\":31444:31470   */\n      swap1\n      pop\n        /* \"#utility.yul\":31516:31525   */\n      dup2\n        /* \"#utility.yul\":31510:31514   */\n      dup2\n        /* \"#utility.yul\":31506:31526   */\n      sub\n        /* \"#utility.yul\":31502:31503   */\n      0x00\n        /* \"#utility.yul\":31491:31500   */\n      dup4\n        /* \"#utility.yul\":31487:31504   */\n      add\n        /* \"#utility.yul\":31480:31527   */\n      mstore\n        /* \"#utility.yul\":31544:31675   */\n      tag_721\n        /* \"#utility.yul\":31670:31674   */\n      dup2\n        /* \"#utility.yul\":31544:31675   */\n      tag_419\n      jump\t// in\n    tag_721:\n        /* \"#utility.yul\":31536:31675   */\n      swap1\n      pop\n        /* \"#utility.yul\":31263:31682   */\n      swap2\n      swap1\n      pop\n      jump\t// out\n        /* \"#utility.yul\":31688:32033   */\n    tag_315:\n        /* \"#utility.yul\":31755:31761   */\n      0x00\n        /* \"#utility.yul\":31804:31806   */\n      0x20\n        /* \"#utility.yul\":31792:31801   */\n      dup3\n        /* \"#utility.yul\":31783:31790   */\n      dup5\n        /* \"#utility.yul\":31779:31802   */\n      sub\n        /* \"#utility.yul\":31775:31807   */\n      slt\n        /* \"#utility.yul\":31772:31891   */\n      iszero\n      tag_723\n      jumpi\n        /* \"#utility.yul\":31810:31889   */\n      tag_724\n      tag_346\n      jump\t// in\n    tag_724:\n        /* \"#utility.yul\":31772:31891   */\n    tag_723:\n        /* \"#utility.yul\":31930:31931   */\n      0x00\n        /* \"#utility.yul\":31955:32016   */\n      tag_725\n        /* \"#utility.yul\":32008:32015   */\n      dup5\n        /* \"#utility.yul\":31999:32005   */\n      dup3\n        /* \"#utility.yul\":31988:31997   */\n      dup6\n        /* \"#utility.yul\":31984:32006   */\n      add\n        /* \"#utility.yul\":31955:32016   */\n      tag_403\n      jump\t// in\n    tag_725:\n        /* \"#utility.yul\":31945:32016   */\n      swap2\n      pop\n        /* \"#utility.yul\":31901:32026   */\n      pop\n        /* \"#utility.yul\":31688:32033   */\n      swap3\n      swap2\n      pop\n      pop\n      jump\t// out\n        /* \"#utility.yul\":32039:32268   */\n    tag_420:\n        /* \"#utility.yul\":32179:32213   */\n      0x5361666545524332303a204552433230206f7065726174696f6e20646964206e\n        /* \"#utility.yul\":32175:32176   */\n      0x00\n        /* \"#utility.yul\":32167:32173   */\n      dup3\n        /* \"#utility.yul\":32163:32177   */\n      add\n        /* \"#utility.yul\":32156:32214   */\n      mstore\n        /* \"#utility.yul\":32248:32260   */\n      0x6f74207375636365656400000000000000000000000000000000000000000000\n        /* \"#utility.yul\":32243:32245   */\n      0x20\n        /* \"#utility.yul\":32235:32241   */\n      dup3\n        /* \"#utility.yul\":32231:32246   */\n      add\n        /* \"#utility.yul\":32224:32261   */\n      mstore\n        /* \"#utility.yul\":32039:32268   */\n      pop\n      jump\t// out\n        /* \"#utility.yul\":32274:32640   */\n    tag_421:\n        /* \"#utility.yul\":32416:32419   */\n      0x00\n        /* \"#utility.yul\":32437:32504   */\n      tag_728\n        /* \"#utility.yul\":32501:32503   */\n      0x2a\n        /* \"#utility.yul\":32496:32499   */\n      dup4\n        /* \"#utility.yul\":32437:32504   */\n      tag_382\n      jump\t// in\n    tag_728:\n        /* \"#utility.yul\":32430:32504   */\n      swap2\n      pop\n        /* \"#utility.yul\":32513:32606   */\n      tag_729\n        /* \"#utility.yul\":32602:32605   */\n      dup3\n        /* \"#utility.yul\":32513:32606   */\n      tag_420\n      jump\t// in\n    tag_729:\n        /* \"#utility.yul\":32631:32633   */\n      0x40\n        /* \"#utility.yul\":32626:32629   */\n      dup3\n        /* \"#utility.yul\":32622:32634   */\n      add\n        /* \"#utility.yul\":32615:32634   */\n      swap1\n      pop\n        /* \"#utility.yul\":32274:32640   */\n      swap2\n      swap1\n      pop\n      jump\t// out\n        /* \"#utility.yul\":32646:33065   */\n    tag_318:\n        /* \"#utility.yul\":32812:32816   */\n      0x00\n        /* \"#utility.yul\":32850:32852   */\n      0x20\n        /* \"#utility.yul\":32839:32848   */\n      dup3\n        /* \"#utility.yul\":32835:32853   */\n      add\n        /* \"#utility.yul\":32827:32853   */\n      swap1\n      pop\n        /* \"#utility.yul\":32899:32908   */\n      dup2\n        /* \"#utility.yul\":32893:32897   */\n      dup2\n        /* \"#utility.yul\":32889:32909   */\n      sub\n        /* \"#utility.yul\":32885:32886   */\n      0x00\n        /* \"#utility.yul\":32874:32883   */\n      dup4\n        /* \"#utility.yul\":32870:32887   */\n      add\n        /* \"#utility.yul\":32863:32910   */\n      mstore\n        /* \"#utility.yul\":32927:33058   */\n      tag_731\n        /* \"#utility.yul\":33053:33057   */\n      dup2\n        /* \"#utility.yul\":32927:33058   */\n      tag_421\n      jump\t// in\n    tag_731:\n        /* \"#utility.yul\":32919:33058   */\n      swap1\n      pop\n        /* \"#utility.yul\":32646:33065   */\n      swap2\n      swap1\n      pop\n      jump\t// out\n        /* \"#utility.yul\":33071:33296   */\n    tag_422:\n        /* \"#utility.yul\":33211:33245   */\n      0x416464726573733a20696e73756666696369656e742062616c616e636520666f\n        /* \"#utility.yul\":33207:33208   */\n      0x00\n        /* \"#utility.yul\":33199:33205   */\n      dup3\n        /* \"#utility.yul\":33195:33209   */\n      add\n        /* \"#utility.yul\":33188:33246   */\n      mstore\n        /* \"#utility.yul\":33280:33288   */\n      0x722063616c6c0000000000000000000000000000000000000000000000000000\n        /* \"#utility.yul\":33275:33277   */\n      0x20\n        /* \"#utility.yul\":33267:33273   */\n      dup3\n        /* \"#utility.yul\":33263:33278   */\n      add\n        /* \"#utility.yul\":33256:33289   */\n      mstore\n        /* \"#utility.yul\":33071:33296   */\n      pop\n      jump\t// out\n        /* \"#utility.yul\":33302:33668   */\n    tag_423:\n        /* \"#utility.yul\":33444:33447   */\n      0x00\n        /* \"#utility.yul\":33465:33532   */\n      tag_734\n        /* \"#utility.yul\":33529:33531   */\n      0x26\n        /* \"#utility.yul\":33524:33527   */\n      dup4\n        /* \"#utility.yul\":33465:33532   */\n      tag_382\n      jump\t// in\n    tag_734:\n        /* \"#utility.yul\":33458:33532   */\n      swap2\n      pop\n        /* \"#utility.yul\":33541:33634   */\n      tag_735\n        /* \"#utility.yul\":33630:33633   */\n      dup3\n        /* \"#utility.yul\":33541:33634   */\n      tag_422\n      jump\t// in\n    tag_735:\n        /* \"#utility.yul\":33659:33661   */\n      0x40\n        /* \"#utility.yul\":33654:33657   */\n      dup3\n        /* \"#utility.yul\":33650:33662   */\n      add\n        /* \"#utility.yul\":33643:33662   */\n      swap1\n      pop\n        /* \"#utility.yul\":33302:33668   */\n      swap2\n      swap1\n      pop\n      jump\t// out\n        /* \"#utility.yul\":33674:34093   */\n    tag_325:\n        /* \"#utility.yul\":33840:33844   */\n      0x00\n        /* \"#utility.yul\":33878:33880   */\n      0x20\n        /* \"#utility.yul\":33867:33876   */\n      dup3\n        /* \"#utility.yul\":33863:33881   */\n      add\n        /* \"#utility.yul\":33855:33881   */\n      swap1\n      pop\n        /* \"#utility.yul\":33927:33936   */\n      dup2\n        /* \"#utility.yul\":33921:33925   */\n      dup2\n        /* \"#utility.yul\":33917:33937   */\n      sub\n        /* \"#utility.yul\":33913:33914   */\n      0x00\n        /* \"#utility.yul\":33902:33911   */\n      dup4\n        /* \"#utility.yul\":33898:33915   */\n      add\n        /* \"#utility.yul\":33891:33938   */\n      mstore\n        /* \"#utility.yul\":33955:34086   */\n      tag_737\n        /* \"#utility.yul\":34081:34085   */\n      dup2\n        /* \"#utility.yul\":33955:34086   */\n      tag_423\n      jump\t// in\n    tag_737:\n        /* \"#utility.yul\":33947:34086   */\n      swap1\n      pop\n        /* \"#utility.yul\":33674:34093   */\n      swap2\n      swap1\n      pop\n      jump\t// out\n        /* \"#utility.yul\":34099:34278   */\n    tag_424:\n        /* \"#utility.yul\":34239:34270   */\n      0x416464726573733a2063616c6c20746f206e6f6e2d636f6e7472616374000000\n        /* \"#utility.yul\":34235:34236   */\n      0x00\n        /* \"#utility.yul\":34227:34233   */\n      dup3\n        /* \"#utility.yul\":34223:34237   */\n      add\n        /* \"#utility.yul\":34216:34271   */\n      mstore\n        /* \"#utility.yul\":34099:34278   */\n      pop\n      jump\t// out\n        /* \"#utility.yul\":34284:34650   */\n    tag_425:\n        /* \"#utility.yul\":34426:34429   */\n      0x00\n        /* \"#utility.yul\":34447:34514   */\n      tag_740\n        /* \"#utility.yul\":34511:34513   */\n      0x1d\n        /* \"#utility.yul\":34506:34509   */\n      dup4\n        /* \"#utility.yul\":34447:34514   */\n      tag_382\n      jump\t// in\n    tag_740:\n        /* \"#utility.yul\":34440:34514   */\n      swap2\n      pop\n        /* \"#utility.yul\":34523:34616   */\n      tag_741\n        /* \"#utility.yul\":34612:34615   */\n      dup3\n        /* \"#utility.yul\":34523:34616   */\n      tag_424\n      jump\t// in\n    tag_741:\n        /* \"#utility.yul\":34641:34643   */\n      0x20\n        /* \"#utility.yul\":34636:34639   */\n      dup3\n        /* \"#utility.yul\":34632:34644   */\n      add\n        /* \"#utility.yul\":34625:34644   */\n      swap1\n      pop\n        /* \"#utility.yul\":34284:34650   */\n      swap2\n      swap1\n      pop\n      jump\t// out\n        /* \"#utility.yul\":34656:35075   */\n    tag_330:\n        /* \"#utility.yul\":34822:34826   */\n      0x00\n        /* \"#utility.yul\":34860:34862   */\n      0x20\n        /* \"#utility.yul\":34849:34858   */\n      dup3\n        /* \"#utility.yul\":34845:34863   */\n      add\n        /* \"#utility.yul\":34837:34863   */\n      swap1\n      pop\n        /* \"#utility.yul\":34909:34918   */\n      dup2\n        /* \"#utility.yul\":34903:34907   */\n      dup2\n        /* \"#utility.yul\":34899:34919   */\n      sub\n        /* \"#utility.yul\":34895:34896   */\n      0x00\n        /* \"#utility.yul\":34884:34893   */\n      dup4\n        /* \"#utility.yul\":34880:34897   */\n      add\n        /* \"#utility.yul\":34873:34920   */\n      mstore\n        /* \"#utility.yul\":34937:35068   */\n      tag_743\n        /* \"#utility.yul\":35063:35067   */\n      dup2\n        /* \"#utility.yul\":34937:35068   */\n      tag_425\n      jump\t// in\n    tag_743:\n        /* \"#utility.yul\":34929:35068   */\n      swap1\n      pop\n        /* \"#utility.yul\":34656:35075   */\n      swap2\n      swap1\n      pop\n      jump\t// out\n        /* \"#utility.yul\":35081:35179   */\n    tag_426:\n        /* \"#utility.yul\":35132:35138   */\n      0x00\n        /* \"#utility.yul\":35166:35171   */\n      dup2\n        /* \"#utility.yul\":35160:35172   */\n      mload\n        /* \"#utility.yul\":35150:35172   */\n      swap1\n      pop\n        /* \"#utility.yul\":35081:35179   */\n      swap2\n      swap1\n      pop\n      jump\t// out\n        /* \"#utility.yul\":35185:35332   */\n    tag_427:\n        /* \"#utility.yul\":35286:35297   */\n      0x00\n        /* \"#utility.yul\":35323:35326   */\n      dup2\n        /* \"#utility.yul\":35308:35326   */\n      swap1\n      pop\n        /* \"#utility.yul\":35185:35332   */\n      swap3\n      swap2\n      pop\n      pop\n      jump\t// out\n        /* \"#utility.yul\":35338:35724   */\n    tag_428:\n        /* \"#utility.yul\":35442:35445   */\n      0x00\n        /* \"#utility.yul\":35470:35508   */\n      tag_747\n        /* \"#utility.yul\":35502:35507   */\n      dup3\n        /* \"#utility.yul\":35470:35508   */\n      tag_426\n      jump\t// in\n    tag_747:\n        /* \"#utility.yul\":35524:35612   */\n      tag_748\n        /* \"#utility.yul\":35605:35611   */\n      dup2\n        /* \"#utility.yul\":35600:35603   */\n      dup6\n        /* \"#utility.yul\":35524:35612   */\n      tag_427\n      jump\t// in\n    tag_748:\n        /* \"#utility.yul\":35517:35612   */\n      swap4\n      pop\n        /* \"#utility.yul\":35621:35686   */\n      tag_749\n        /* \"#utility.yul\":35679:35685   */\n      dup2\n        /* \"#utility.yul\":35674:35677   */\n      dup6\n        /* \"#utility.yul\":35667:35671   */\n      0x20\n        /* \"#utility.yul\":35660:35665   */\n      dup7\n        /* \"#utility.yul\":35656:35672   */\n      add\n        /* \"#utility.yul\":35621:35686   */\n      tag_393\n      jump\t// in\n    tag_749:\n        /* \"#utility.yul\":35711:35717   */\n      dup1\n        /* \"#utility.yul\":35706:35709   */\n      dup5\n        /* \"#utility.yul\":35702:35718   */\n      add\n        /* \"#utility.yul\":35695:35718   */\n      swap2\n      pop\n        /* \"#utility.yul\":35446:35724   */\n      pop\n        /* \"#utility.yul\":35338:35724   */\n      swap3\n      swap2\n      pop\n      pop\n      jump\t// out\n        /* \"#utility.yul\":35730:36001   */\n    tag_332:\n        /* \"#utility.yul\":35860:35863   */\n      0x00\n        /* \"#utility.yul\":35882:35975   */\n      tag_751\n        /* \"#utility.yul\":35971:35974   */\n      dup3\n        /* \"#utility.yul\":35962:35968   */\n      dup5\n        /* \"#utility.yul\":35882:35975   */\n      tag_428\n      jump\t// in\n    tag_751:\n        /* \"#utility.yul\":35875:35975   */\n      swap2\n      pop\n        /* \"#utility.yul\":35992:35995   */\n      dup2\n        /* \"#utility.yul\":35985:35995   */\n      swap1\n      pop\n        /* \"#utility.yul\":35730:36001   */\n      swap3\n      swap2\n      pop\n      pop\n      jump\t// out\n\n    auxdata: 0xa26469706673582212202d071f105b8d29322d6db1ddede2777a370eea023ee12a85cd7808da81bcf1ed64736f6c63430008120033\n}\n",
				"bytecode": {
					"linkReferences": {},
					"object": "608060405260056006556005600755601260095534801561001f57600080fd5b5033600b60006101000a81548173ffffffffffffffffffffffffffffffffffffffff021916908373ffffffffffffffffffffffffffffffffffffffff160217905550612e56806100706000396000f3fe608060405234801561001057600080fd5b506004361061014d5760003560e01c80639e1a4d19116100c3578063bbf207741161007c578063bbf207741461031a578063c172300914610336578063c4529e3714610354578063c52c31fa14610370578063fba825fe1461038c578063fc0c546a146103a85761014d565b80639e1a4d191461027e578063a39865e71461029c578063a6f9dae1146102ba578063aa807ba4146102d6578063b8c11803146102f2578063bb7fa2e6146103105761014d565b80632a5f669a116101155780632a5f669a146101ce578063313ce567146101ea5780633c0e473c1461020857806347a58626146102265780634b14c0ef146102445780635459b8a3146102625761014d565b80630af8668f14610152578063119f25901461016e578063159eea951461018a578063188ec3561461019457806326a4e8d2146101b2575b600080fd5b61016c60048036038101906101679190611dfe565b6103c6565b005b61018860048036038101906101839190611ed4565b61077c565b005b61019261081a565b005b61019c610a40565b6040516101a99190611f10565b60405180910390f35b6101cc60048036038101906101c79190611ed4565b610a48565b005b6101e860048036038101906101e39190611dfe565b610ae5565b005b6101f2610e9b565b6040516101ff9190611f10565b60405180910390f35b610210610ea5565b60405161021d9190611f3a565b60405180910390f35b61022e610ecf565b60405161023b9190611f3a565b60405180910390f35b61024c610ef9565b6040516102599190611f10565b60405180910390f35b61027c60048036038101906102779190612006565b610f03565b005b6102866111d0565b6040516102939190611f10565b60405180910390f35b6102a46112a2565b6040516102b19190611f3a565b60405180910390f35b6102d460048036038101906102cf9190611ed4565b6112cc565b005b6102f060048036038101906102eb9190611ed4565b61136a565b005b6102fa6113ae565b6040516103079190611f3a565b60405180910390f35b6103186113d8565b005b610334600480360381019061032f9190611ed4565b6115fe565b005b61033e611642565b60405161034b9190611f3a565b60405180910390f35b61036e60048036038101906103699190611ed4565b61166c565b005b61038a60048036038101906103859190611ed4565b6116b0565b005b6103a660048036038101906103a19190611ed4565b6116f4565b005b6103b0611738565b6040516103bd91906120e6565b60405180910390f35b600b60009054906101000a900473ffffffffffffffffffffffffffffffffffffffff1673ffffffffffffffffffffffffffffffffffffffff163373ffffffffffffffffffffffffffffffffffffffff161461042057600080fd5b8051825114610464576040517f08c379a000000000000000000000000000000000000000000000000000000000815260040161045b906121aa565b60405180910390fd5b600073ffffffffffffffffffffffffffffffffffffffff16610484611738565b73ffffffffffffffffffffffffffffffffffffffff16036104da576040517f08c379a00000000000000000000000000000000000000000000000000000000081526004016104d190612216565b60405180910390fd5b600073ffffffffffffffffffffffffffffffffffffffff166104fa610ecf565b73ffffffffffffffffffffffffffffffffffffffff1603610550576040517f08c379a0000000000000000000000000000000000000000000000000000000008152600401610547906122a8565b60405180910390fd5b6000805b8251811015610598578281815181106105705761056f6122c8565b5b6020026020010151826105839190612326565b915080806105909061235a565b915050610554565b50806105a26111d0565b10156105e3576040517f08c379a00000000000000000000000000000000000000000000000000000000081526004016105da90612414565b60405180910390fd5b60006105ed610ecf565b905060005b84518110156107755760008273ffffffffffffffffffffffffffffffffffffffff16636441f9d087848151811061062c5761062b6122c8565b5b60200260200101516040518263ffffffff1660e01b815260040161065091906124a2565b600060405180830381865afa15801561066d573d6000803e3d6000fd5b505050506040513d6000823e3d601f19601f8201168201806040525081019061069691906126de565b905060008160200151905060008684815181106106b6576106b56122c8565b5b60200260200101519050600073ffffffffffffffffffffffffffffffffffffffff168273ffffffffffffffffffffffffffffffffffffffff161461075f5761074a30600360009054906101000a900473ffffffffffffffffffffffffffffffffffffffff1683610724611738565b73ffffffffffffffffffffffffffffffffffffffff16611761909392919063ffffffff16565b80600a546107589190612326565b600a819055505b505050808061076d9061235a565b9150506105f2565b5050505050565b600b60009054906101000a900473ffffffffffffffffffffffffffffffffffffffff1673ffffffffffffffffffffffffffffffffffffffff163373ffffffffffffffffffffffffffffffffffffffff16146107d657600080fd5b80600860006101000a81548173ffffffffffffffffffffffffffffffffffffffff021916908373ffffffffffffffffffffffffffffffffffffffff16021790555050565b600073ffffffffffffffffffffffffffffffffffffffff1661083a611738565b73ffffffffffffffffffffffffffffffffffffffff1603610890576040517f08c379a000000000000000000000000000000000000000000000000000000000815260040161088790612216565b60405180910390fd5b600073ffffffffffffffffffffffffffffffffffffffff166108b0611642565b73ffffffffffffffffffffffffffffffffffffffff1603610906576040517f08c379a00000000000000000000000000000000000000000000000000000000081526004016108fd90612799565b60405180910390fd5b6000610910611642565b905060008173ffffffffffffffffffffffffffffffffffffffff16630a48eba46040518163ffffffff1660e01b81526004016020604051808303816000875af1158015610961573d6000803e3d6000fd5b505050506040513d601f19601f8201168201806040525081019061098591906127b9565b905060646006548261099791906127e6565b6109a19190612857565b9050806109ac6111d0565b10156109ed576040517f08c379a00000000000000000000000000000000000000000000000000000000081526004016109e4906128fa565b60405180910390fd5b610a28306109f9611642565b83610a02611738565b73ffffffffffffffffffffffffffffffffffffffff16611761909392919063ffffffff16565b80600a54610a369190612326565b600a819055505050565b600042905090565b600b60009054906101000a900473ffffffffffffffffffffffffffffffffffffffff1673ffffffffffffffffffffffffffffffffffffffff163373ffffffffffffffffffffffffffffffffffffffff1614610aa257600080fd5b806000806101000a81548173ffffffffffffffffffffffffffffffffffffffff021916908373ffffffffffffffffffffffffffffffffffffffff16021790555050565b600b60009054906101000a900473ffffffffffffffffffffffffffffffffffffffff1673ffffffffffffffffffffffffffffffffffffffff163373ffffffffffffffffffffffffffffffffffffffff1614610b3f57600080fd5b8051825114610b83576040517f08c379a0000000000000000000000000000000000000000000000000000000008152600401610b7a906121aa565b60405180910390fd5b600073ffffffffffffffffffffffffffffffffffffffff16610ba3611738565b73ffffffffffffffffffffffffffffffffffffffff1603610bf9576040517f08c379a0000000000000000000000000000000000000000000000000000000008152600401610bf090612216565b60405180910390fd5b600073ffffffffffffffffffffffffffffffffffffffff16610c19610ecf565b73ffffffffffffffffffffffffffffffffffffffff1603610c6f576040517f08c379a0000000000000000000000000000000000000000000000000000000008152600401610c66906122a8565b60405180910390fd5b6000805b8251811015610cb757828181518110610c8f57610c8e6122c8565b5b602002602001015182610ca29190612326565b91508080610caf9061235a565b915050610c73565b5080610cc16111d0565b1015610d02576040517f08c379a0000000000000000000000000000000000000000000000000000000008152600401610cf990612414565b60405180910390fd5b6000610d0c610ecf565b905060005b8451811015610e945760008273ffffffffffffffffffffffffffffffffffffffff16636441f9d0878481518110610d4b57610d4a6122c8565b5b60200260200101516040518263ffffffff1660e01b8152600401610d6f91906124a2565b600060405180830381865afa158015610d8c573d6000803e3d6000fd5b505050506040513d6000823e3d601f19601f82011682018060405250810190610db591906126de565b90506000816020015190506000868481518110610dd557610dd46122c8565b5b60200260200101519050600073ffffffffffffffffffffffffffffffffffffffff168273ffffffffffffffffffffffffffffffffffffffff1614610e7e57610e6930600360009054906101000a900473ffffffffffffffffffffffffffffffffffffffff1683610e43611738565b73ffffffffffffffffffffffffffffffffffffffff16611761909392919063ffffffff16565b80600a54610e779190612326565b600a819055505b5050508080610e8c9061235a565b915050610d11565b5050505050565b6000600954905090565b6000600560009054906101000a900473ffffffffffffffffffffffffffffffffffffffff16905090565b6000600160009054906101000a900473ffffffffffffffffffffffffffffffffffffffff16905090565b6000600a54905090565b600073ffffffffffffffffffffffffffffffffffffffff16600860009054906101000a900473ffffffffffffffffffffffffffffffffffffffff1673ffffffffffffffffffffffffffffffffffffffff1603610f94576040517f08c379a0000000000000000000000000000000000000000000000000000000008152600401610f8b9061298c565b60405180910390fd5b600073ffffffffffffffffffffffffffffffffffffffff1660008054906101000a900473ffffffffffffffffffffffffffffffffffffffff1673ffffffffffffffffffffffffffffffffffffffff1603611023576040517f08c379a000000000000000000000000000000000000000000000000000000000815260040161101a90612216565b60405180910390fd5b81819050848490501461106b576040517f08c379a0000000000000000000000000000000000000000000000000000000008152600401611062906121aa565b60405180910390fd5b6000805b858590508110156110bb576110a68484838181106110905761108f6122c8565b5b90506020020135836117ea90919063ffffffff16565b915080806110b39061235a565b91505061106f565b50806110c56111d0565b1015611106576040517f08c379a00000000000000000000000000000000000000000000000000000000081526004016110fd90612a1e565b60405180910390fd5b60005b858590508110156111c8576111883087878481811061112b5761112a6122c8565b5b90506020020160208101906111409190611ed4565b868685818110611153576111526122c8565b5b90506020020135611162611738565b73ffffffffffffffffffffffffffffffffffffffff16611761909392919063ffffffff16565b83838281811061119b5761119a6122c8565b5b90506020020135600a546111af9190612326565b600a8190555080806111c09061235a565b915050611109565b505050505050565b60008073ffffffffffffffffffffffffffffffffffffffff166111f1611738565b73ffffffffffffffffffffffffffffffffffffffff1603611215576000905061129f565b600061121f611738565b73ffffffffffffffffffffffffffffffffffffffff166370a08231306040518263ffffffff1660e01b81526004016112579190611f3a565b602060405180830381865afa158015611274573d6000803e3d6000fd5b505050506040513d601f19601f8201168201806040525081019061129891906127b9565b9050809150505b90565b6000600360009054906101000a900473ffffffffffffffffffffffffffffffffffffffff16905090565b600b60009054906101000a900473ffffffffffffffffffffffffffffffffffffffff1673ffffffffffffffffffffffffffffffffffffffff163373ffffffffffffffffffffffffffffffffffffffff161461132657600080fd5b80600b60006101000a81548173ffffffffffffffffffffffffffffffffffffffff021916908373ffffffffffffffffffffffffffffffffffffffff16021790555050565b80600460006101000a81548173ffffffffffffffffffffffffffffffffffffffff021916908373ffffffffffffffffffffffffffffffffffffffff16021790555050565b6000600260009054906101000a900473ffffffffffffffffffffffffffffffffffffffff16905090565b600073ffffffffffffffffffffffffffffffffffffffff166113f8611738565b73ffffffffffffffffffffffffffffffffffffffff160361144e576040517f08c379a000000000000000000000000000000000000000000000000000000000815260040161144590612216565b60405180910390fd5b600073ffffffffffffffffffffffffffffffffffffffff1661146e610ea5565b73ffffffffffffffffffffffffffffffffffffffff16036114c4576040517f08c379a00000000000000000000000000000000000000000000000000000000081526004016114bb90612ab0565b60405180910390fd5b60006114ce610ea5565b905060008173ffffffffffffffffffffffffffffffffffffffff16630a48eba46040518163ffffffff1660e01b81526004016020604051808303816000875af115801561151f573d6000803e3d6000fd5b505050506040513d601f19601f8201168201806040525081019061154391906127b9565b905060646007548261155591906127e6565b61155f9190612857565b90508061156a6111d0565b10156115ab576040517f08c379a00000000000000000000000000000000000000000000000000000000081526004016115a290612b42565b60405180910390fd5b6115e6306115b7610ea5565b836115c0611738565b73ffffffffffffffffffffffffffffffffffffffff16611761909392919063ffffffff16565b80600a546115f49190612326565b600a819055505050565b80600560006101000a81548173ffffffffffffffffffffffffffffffffffffffff021916908373ffffffffffffffffffffffffffffffffffffffff16021790555050565b6000600460009054906101000a900473ffffffffffffffffffffffffffffffffffffffff16905090565b80600360006101000a81548173ffffffffffffffffffffffffffffffffffffffff021916908373ffffffffffffffffffffffffffffffffffffffff16021790555050565b80600160006101000a81548173ffffffffffffffffffffffffffffffffffffffff021916908373ffffffffffffffffffffffffffffffffffffffff16021790555050565b80600260006101000a81548173ffffffffffffffffffffffffffffffffffffffff021916908373ffffffffffffffffffffffffffffffffffffffff16021790555050565b60008060009054906101000a900473ffffffffffffffffffffffffffffffffffffffff16905090565b6117e4846323b872dd60e01b85858560405160240161178293929190612b62565b604051602081830303815290604052907bffffffffffffffffffffffffffffffffffffffffffffffffffffffff19166020820180517bffffffffffffffffffffffffffffffffffffffffffffffffffffffff8381831617835250505050611848565b50505050565b60008082846117f99190612326565b90508381101561183e576040517f08c379a000000000000000000000000000000000000000000000000000000000815260040161183590612be5565b60405180910390fd5b8091505092915050565b60006118aa826040518060400160405280602081526020017f5361666545524332303a206c6f772d6c6576656c2063616c6c206661696c65648152508573ffffffffffffffffffffffffffffffffffffffff1661190f9092919063ffffffff16565b905060008151111561190a57808060200190518101906118ca9190612c05565b611909576040517f08c379a000000000000000000000000000000000000000000000000000000000815260040161190090612ca4565b60405180910390fd5b5b505050565b606061191e8484600085611927565b90509392505050565b60608247101561196c576040517f08c379a000000000000000000000000000000000000000000000000000000000815260040161196390612d36565b60405180910390fd5b61197585611a3b565b6119b4576040517f08c379a00000000000000000000000000000000000000000000000000000000081526004016119ab90612da2565b60405180910390fd5b6000808673ffffffffffffffffffffffffffffffffffffffff1685876040516119dd9190612e09565b60006040518083038185875af1925050503d8060008114611a1a576040519150601f19603f3d011682016040523d82523d6000602084013e611a1f565b606091505b5091509150611a2f828286611a5e565b92505050949350505050565b6000808273ffffffffffffffffffffffffffffffffffffffff163b119050919050565b60608315611a6e57829050611abe565b600083511115611a815782518084602001fd5b816040517f08c379a0000000000000000000000000000000000000000000000000000000008152600401611ab591906124a2565b60405180910390fd5b9392505050565b6000604051905090565b600080fd5b600080fd5b600080fd5b6000601f19601f8301169050919050565b7f4e487b7100000000000000000000000000000000000000000000000000000000600052604160045260246000fd5b611b2782611ade565b810181811067ffffffffffffffff82111715611b4657611b45611aef565b5b80604052505050565b6000611b59611ac5565b9050611b658282611b1e565b919050565b600067ffffffffffffffff821115611b8557611b84611aef565b5b602082029050602081019050919050565b600080fd5b600080fd5b600067ffffffffffffffff821115611bbb57611bba611aef565b5b611bc482611ade565b9050602081019050919050565b82818337600083830152505050565b6000611bf3611bee84611ba0565b611b4f565b905082815260208101848484011115611c0f57611c0e611b9b565b5b611c1a848285611bd1565b509392505050565b600082601f830112611c3757611c36611ad9565b5b8135611c47848260208601611be0565b91505092915050565b6000611c63611c5e84611b6a565b611b4f565b90508083825260208201905060208402830185811115611c8657611c85611b96565b5b835b81811015611ccd57803567ffffffffffffffff811115611cab57611caa611ad9565b5b808601611cb88982611c22565b85526020850194505050602081019050611c88565b5050509392505050565b600082601f830112611cec57611ceb611ad9565b5b8135611cfc848260208601611c50565b91505092915050565b600067ffffffffffffffff821115611d2057611d1f611aef565b5b602082029050602081019050919050565b6000819050919050565b611d4481611d31565b8114611d4f57600080fd5b50565b600081359050611d6181611d3b565b92915050565b6000611d7a611d7584611d05565b611b4f565b90508083825260208201905060208402830185811115611d9d57611d9c611b96565b5b835b81811015611dc65780611db28882611d52565b845260208401935050602081019050611d9f565b5050509392505050565b600082601f830112611de557611de4611ad9565b5b8135611df5848260208601611d67565b91505092915050565b60008060408385031215611e1557611e14611acf565b5b600083013567ffffffffffffffff811115611e3357611e32611ad4565b5b611e3f85828601611cd7565b925050602083013567ffffffffffffffff811115611e6057611e5f611ad4565b5b611e6c85828601611dd0565b9150509250929050565b600073ffffffffffffffffffffffffffffffffffffffff82169050919050565b6000611ea182611e76565b9050919050565b611eb181611e96565b8114611ebc57600080fd5b50565b600081359050611ece81611ea8565b92915050565b600060208284031215611eea57611ee9611acf565b5b6000611ef884828501611ebf565b91505092915050565b611f0a81611d31565b82525050565b6000602082019050611f256000830184611f01565b92915050565b611f3481611e96565b82525050565b6000602082019050611f4f6000830184611f2b565b92915050565b600080fd5b60008083601f840112611f7057611f6f611ad9565b5b8235905067ffffffffffffffff811115611f8d57611f8c611f55565b5b602083019150836020820283011115611fa957611fa8611b96565b5b9250929050565b60008083601f840112611fc657611fc5611ad9565b5b8235905067ffffffffffffffff811115611fe357611fe2611f55565b5b602083019150836020820283011115611fff57611ffe611b96565b5b9250929050565b600080600080604085870312156120205761201f611acf565b5b600085013567ffffffffffffffff81111561203e5761203d611ad4565b5b61204a87828801611f5a565b9450945050602085013567ffffffffffffffff81111561206d5761206c611ad4565b5b61207987828801611fb0565b925092505092959194509250565b6000819050919050565b60006120ac6120a76120a284611e76565b612087565b611e76565b9050919050565b60006120be82612091565b9050919050565b60006120d0826120b3565b9050919050565b6120e0816120c5565b82525050565b60006020820190506120fb60008301846120d7565b92915050565b600082825260208201905092915050565b7f506c6561736520636865636b2074686520646174612c20746865206e6577732060008201527f494420616e6420646973747269627574696f6e207175616e746974792061726560208201527f20696e636f6e73697374656e7400000000000000000000000000000000000000604082015250565b6000612194604d83612101565b915061219f82612112565b606082019050919050565b600060208201905081810360008301526121c381612187565b9050919050565b7f52656c656173653a206e6565642073657420546f6b656e204164647265737300600082015250565b6000612200601f83612101565b915061220b826121ca565b602082019050919050565b6000602082019050818103600083015261222f816121f3565b9050919050565b7f52656c656173653a206e65656420736574204368616c6c656e6720436f6e747260008201527f6163742041646472657373000000000000000000000000000000000000000000602082015250565b6000612292602b83612101565b915061229d82612236565b604082019050919050565b600060208201905081810360008301526122c181612285565b9050919050565b7f4e487b7100000000000000000000000000000000000000000000000000000000600052603260045260246000fd5b7f4e487b7100000000000000000000000000000000000000000000000000000000600052601160045260246000fd5b600061233182611d31565b915061233c83611d31565b9250828201905080821115612354576123536122f7565b5b92915050565b600061236582611d31565b91507fffffffffffffffffffffffffffffffffffffffffffffffffffffffffffffffff8203612397576123966122f7565b5b600182019050919050565b7f52656c656173653a20496e73756666696369656e7420746f74616c20616d6f7560008201527f6e7420617661696c61626c6520666f7220646973747269627574696f6e000000602082015250565b60006123fe603d83612101565b9150612409826123a2565b604082019050919050565b6000602082019050818103600083015261242d816123f1565b9050919050565b600081519050919050565b60005b8381101561245d578082015181840152602081019050612442565b60008484015250505050565b600061247482612434565b61247e8185612101565b935061248e81856020860161243f565b61249781611ade565b840191505092915050565b600060208201905081810360008301526124bc8184612469565b905092915050565b600080fd5b600080fd5b60006124e16124dc84611ba0565b611b4f565b9050828152602081018484840111156124fd576124fc611b9b565b5b61250884828561243f565b509392505050565b600082601f83011261252557612524611ad9565b5b81516125358482602086016124ce565b91505092915050565b60008151905061254d81611ea8565b92915050565b60008151905061256281611d3b565b92915050565b60008115159050919050565b61257d81612568565b811461258857600080fd5b50565b60008151905061259a81612574565b92915050565b600061018082840312156125b7576125b66124c4565b5b6125c2610180611b4f565b9050600082015167ffffffffffffffff8111156125e2576125e16124c9565b5b6125ee84828501612510565b60008301525060206126028482850161253e565b602083015250604061261684828501612553565b604083015250606061262a84828501612553565b606083015250608061263e8482850161258b565b60808301525060a06126528482850161258b565b60a08301525060c06126668482850161258b565b60c08301525060e061267a84828501612553565b60e08301525061010061268f8482850161258b565b610100830152506101206126a584828501612553565b610120830152506101406126bb84828501612553565b610140830152506101606126d184828501612553565b6101608301525092915050565b6000602082840312156126f4576126f3611acf565b5b600082015167ffffffffffffffff81111561271257612711611ad4565b5b61271e848285016125a0565b91505092915050565b7f52656c656173653a206e656564207365742066756e20706f6f6c20416464726560008201527f7373000000000000000000000000000000000000000000000000000000000000602082015250565b6000612783602283612101565b915061278e82612727565b604082019050919050565b600060208201905081810360008301526127b281612776565b9050919050565b6000602082840312156127cf576127ce611acf565b5b60006127dd84828501612553565b91505092915050565b60006127f182611d31565b91506127fc83611d31565b925082820261280a81611d31565b91508282048414831517612821576128206122f7565b5b5092915050565b7f4e487b7100000000000000000000000000000000000000000000000000000000600052601260045260246000fd5b600061286282611d31565b915061286d83611d31565b92508261287d5761287c612828565b5b828204905092915050565b7f52656c656173653a20496e73756666696369656e7420746f74616c20616d6f7560008201527f6e7420617661696c61626c6520666f7220646973747269627574696f6e210000602082015250565b60006128e4603e83612101565b91506128ef82612888565b604082019050919050565b60006020820190508181036000830152612913816128d7565b9050919050565b7f52656c656173653a206e6565642073657420526563656976696e67204164647260008201527f6573730000000000000000000000000000000000000000000000000000000000602082015250565b6000612976602383612101565b91506129818261291a565b604082019050919050565b600060208201905081810360008301526129a581612969565b9050919050565b7f546865206e756d626572206f66206169722064726f707320657863656564732060008201527f746865206461696c792072656c6561736520616d6f756e740000000000000000602082015250565b6000612a08603883612101565b9150612a13826129ac565b604082019050919050565b60006020820190508181036000830152612a37816129fb565b9050919050565b7f52656c656173653a206e65656420736574206368616e6e656c2072657761726460008201527f7320416464726573730000000000000000000000000000000000000000000000602082015250565b6000612a9a602983612101565b9150612aa582612a3e565b604082019050919050565b60006020820190508181036000830152612ac981612a8d565b9050919050565b7f52656c656173653a20496e73756666696369656e7420746f74616c20616d6f7560008201527f6e7420617661696c61626c6520666f7220646973747269627574696f6e212100602082015250565b6000612b2c603f83612101565b9150612b3782612ad0565b604082019050919050565b60006020820190508181036000830152612b5b81612b1f565b9050919050565b6000606082019050612b776000830186611f2b565b612b846020830185611f2b565b612b916040830184611f01565b949350505050565b7f536166654d6174683a206164646974696f6e206f766572666c6f770000000000600082015250565b6000612bcf601b83612101565b9150612bda82612b99565b602082019050919050565b60006020820190508181036000830152612bfe81612bc2565b9050919050565b600060208284031215612c1b57612c1a611acf565b5b6000612c298482850161258b565b91505092915050565b7f5361666545524332303a204552433230206f7065726174696f6e20646964206e60008201527f6f74207375636365656400000000000000000000000000000000000000000000602082015250565b6000612c8e602a83612101565b9150612c9982612c32565b604082019050919050565b60006020820190508181036000830152612cbd81612c81565b9050919050565b7f416464726573733a20696e73756666696369656e742062616c616e636520666f60008201527f722063616c6c0000000000000000000000000000000000000000000000000000602082015250565b6000612d20602683612101565b9150612d2b82612cc4565b604082019050919050565b60006020820190508181036000830152612d4f81612d13565b9050919050565b7f416464726573733a2063616c6c20746f206e6f6e2d636f6e7472616374000000600082015250565b6000612d8c601d83612101565b9150612d9782612d56565b602082019050919050565b60006020820190508181036000830152612dbb81612d7f565b9050919050565b600081519050919050565b600081905092915050565b6000612de382612dc2565b612ded8185612dcd565b9350612dfd81856020860161243f565b80840191505092915050565b6000612e158284612dd8565b91508190509291505056fea26469706673582212202d071f105b8d29322d6db1ddede2777a370eea023ee12a85cd7808da81bcf1ed64736f6c63430008120033",
					"opcodes": "PUSH1 0x80 PUSH1 0x40 MSTORE PUSH1 0x5 PUSH1 0x6 SSTORE PUSH1 0x5 PUSH1 0x7 SSTORE PUSH1 0x12 PUSH1 0x9 SSTORE CALLVALUE DUP1 ISZERO PUSH2 0x1F JUMPI PUSH1 0x0 DUP1 REVERT JUMPDEST POP CALLER PUSH1 0xB PUSH1 0x0 PUSH2 0x100 EXP DUP2 SLOAD DUP2 PUSH20 0xFFFFFFFFFFFFFFFFFFFFFFFFFFFFFFFFFFFFFFFF MUL NOT AND SWAP1 DUP4 PUSH20 0xFFFFFFFFFFFFFFFFFFFFFFFFFFFFFFFFFFFFFFFF AND MUL OR SWAP1 SSTORE POP PUSH2 0x2E56 DUP1 PUSH2 0x70 PUSH1 0x0 CODECOPY PUSH1 0x0 RETURN INVALID PUSH1 0x80 PUSH1 0x40 MSTORE CALLVALUE DUP1 ISZERO PUSH2 0x10 JUMPI PUSH1 0x0 DUP1 REVERT JUMPDEST POP PUSH1 0x4 CALLDATASIZE LT PUSH2 0x14D JUMPI PUSH1 0x0 CALLDATALOAD PUSH1 0xE0 SHR DUP1 PUSH4 0x9E1A4D19 GT PUSH2 0xC3 JUMPI DUP1 PUSH4 0xBBF20774 GT PUSH2 0x7C JUMPI DUP1 PUSH4 0xBBF20774 EQ PUSH2 0x31A JUMPI DUP1 PUSH4 0xC1723009 EQ PUSH2 0x336 JUMPI DUP1 PUSH4 0xC4529E37 EQ PUSH2 0x354 JUMPI DUP1 PUSH4 0xC52C31FA EQ PUSH2 0x370 JUMPI DUP1 PUSH4 0xFBA825FE EQ PUSH2 0x38C JUMPI DUP1 PUSH4 0xFC0C546A EQ PUSH2 0x3A8 JUMPI PUSH2 0x14D JUMP JUMPDEST DUP1 PUSH4 0x9E1A4D19 EQ PUSH2 0x27E JUMPI DUP1 PUSH4 0xA39865E7 EQ PUSH2 0x29C JUMPI DUP1 PUSH4 0xA6F9DAE1 EQ PUSH2 0x2BA JUMPI DUP1 PUSH4 0xAA807BA4 EQ PUSH2 0x2D6 JUMPI DUP1 PUSH4 0xB8C11803 EQ PUSH2 0x2F2 JUMPI DUP1 PUSH4 0xBB7FA2E6 EQ PUSH2 0x310 JUMPI PUSH2 0x14D JUMP JUMPDEST DUP1 PUSH4 0x2A5F669A GT PUSH2 0x115 JUMPI DUP1 PUSH4 0x2A5F669A EQ PUSH2 0x1CE JUMPI DUP1 PUSH4 0x313CE567 EQ PUSH2 0x1EA JUMPI DUP1 PUSH4 0x3C0E473C EQ PUSH2 0x208 JUMPI DUP1 PUSH4 0x47A58626 EQ PUSH2 0x226 JUMPI DUP1 PUSH4 0x4B14C0EF EQ PUSH2 0x244 JUMPI DUP1 PUSH4 0x5459B8A3 EQ PUSH2 0x262 JUMPI PUSH2 0x14D JUMP JUMPDEST DUP1 PUSH4 0xAF8668F EQ PUSH2 0x152 JUMPI DUP1 PUSH4 0x119F2590 EQ PUSH2 0x16E JUMPI DUP1 PUSH4 0x159EEA95 EQ PUSH2 0x18A JUMPI DUP1 PUSH4 0x188EC356 EQ PUSH2 0x194 JUMPI DUP1 PUSH4 0x26A4E8D2 EQ PUSH2 0x1B2 JUMPI JUMPDEST PUSH1 0x0 DUP1 REVERT JUMPDEST PUSH2 0x16C PUSH1 0x4 DUP1 CALLDATASIZE SUB DUP2 ADD SWAP1 PUSH2 0x167 SWAP2 SWAP1 PUSH2 0x1DFE JUMP JUMPDEST PUSH2 0x3C6 JUMP JUMPDEST STOP JUMPDEST PUSH2 0x188 PUSH1 0x4 DUP1 CALLDATASIZE SUB DUP2 ADD SWAP1 PUSH2 0x183 SWAP2 SWAP1 PUSH2 0x1ED4 JUMP JUMPDEST PUSH2 0x77C JUMP JUMPDEST STOP JUMPDEST PUSH2 0x192 PUSH2 0x81A JUMP JUMPDEST STOP JUMPDEST PUSH2 0x19C PUSH2 0xA40 JUMP JUMPDEST PUSH1 0x40 MLOAD PUSH2 0x1A9 SWAP2 SWAP1 PUSH2 0x1F10 JUMP JUMPDEST PUSH1 0x40 MLOAD DUP1 SWAP2 SUB SWAP1 RETURN JUMPDEST PUSH2 0x1CC PUSH1 0x4 DUP1 CALLDATASIZE SUB DUP2 ADD SWAP1 PUSH2 0x1C7 SWAP2 SWAP1 PUSH2 0x1ED4 JUMP JUMPDEST PUSH2 0xA48 JUMP JUMPDEST STOP JUMPDEST PUSH2 0x1E8 PUSH1 0x4 DUP1 CALLDATASIZE SUB DUP2 ADD SWAP1 PUSH2 0x1E3 SWAP2 SWAP1 PUSH2 0x1DFE JUMP JUMPDEST PUSH2 0xAE5 JUMP JUMPDEST STOP JUMPDEST PUSH2 0x1F2 PUSH2 0xE9B JUMP JUMPDEST PUSH1 0x40 MLOAD PUSH2 0x1FF SWAP2 SWAP1 PUSH2 0x1F10 JUMP JUMPDEST PUSH1 0x40 MLOAD DUP1 SWAP2 SUB SWAP1 RETURN JUMPDEST PUSH2 0x210 PUSH2 0xEA5 JUMP JUMPDEST PUSH1 0x40 MLOAD PUSH2 0x21D SWAP2 SWAP1 PUSH2 0x1F3A JUMP JUMPDEST PUSH1 0x40 MLOAD DUP1 SWAP2 SUB SWAP1 RETURN JUMPDEST PUSH2 0x22E PUSH2 0xECF JUMP JUMPDEST PUSH1 0x40 MLOAD PUSH2 0x23B SWAP2 SWAP1 PUSH2 0x1F3A JUMP JUMPDEST PUSH1 0x40 MLOAD DUP1 SWAP2 SUB SWAP1 RETURN JUMPDEST PUSH2 0x24C PUSH2 0xEF9 JUMP JUMPDEST PUSH1 0x40 MLOAD PUSH2 0x259 SWAP2 SWAP1 PUSH2 0x1F10 JUMP JUMPDEST PUSH1 0x40 MLOAD DUP1 SWAP2 SUB SWAP1 RETURN JUMPDEST PUSH2 0x27C PUSH1 0x4 DUP1 CALLDATASIZE SUB DUP2 ADD SWAP1 PUSH2 0x277 SWAP2 SWAP1 PUSH2 0x2006 JUMP JUMPDEST PUSH2 0xF03 JUMP JUMPDEST STOP JUMPDEST PUSH2 0x286 PUSH2 0x11D0 JUMP JUMPDEST PUSH1 0x40 MLOAD PUSH2 0x293 SWAP2 SWAP1 PUSH2 0x1F10 JUMP JUMPDEST PUSH1 0x40 MLOAD DUP1 SWAP2 SUB SWAP1 RETURN JUMPDEST PUSH2 0x2A4 PUSH2 0x12A2 JUMP JUMPDEST PUSH1 0x40 MLOAD PUSH2 0x2B1 SWAP2 SWAP1 PUSH2 0x1F3A JUMP JUMPDEST PUSH1 0x40 MLOAD DUP1 SWAP2 SUB SWAP1 RETURN JUMPDEST PUSH2 0x2D4 PUSH1 0x4 DUP1 CALLDATASIZE SUB DUP2 ADD SWAP1 PUSH2 0x2CF SWAP2 SWAP1 PUSH2 0x1ED4 JUMP JUMPDEST PUSH2 0x12CC JUMP JUMPDEST STOP JUMPDEST PUSH2 0x2F0 PUSH1 0x4 DUP1 CALLDATASIZE SUB DUP2 ADD SWAP1 PUSH2 0x2EB SWAP2 SWAP1 PUSH2 0x1ED4 JUMP JUMPDEST PUSH2 0x136A JUMP JUMPDEST STOP JUMPDEST PUSH2 0x2FA PUSH2 0x13AE JUMP JUMPDEST PUSH1 0x40 MLOAD PUSH2 0x307 SWAP2 SWAP1 PUSH2 0x1F3A JUMP JUMPDEST PUSH1 0x40 MLOAD DUP1 SWAP2 SUB SWAP1 RETURN JUMPDEST PUSH2 0x318 PUSH2 0x13D8 JUMP JUMPDEST STOP JUMPDEST PUSH2 0x334 PUSH1 0x4 DUP1 CALLDATASIZE SUB DUP2 ADD SWAP1 PUSH2 0x32F SWAP2 SWAP1 PUSH2 0x1ED4 JUMP JUMPDEST PUSH2 0x15FE JUMP JUMPDEST STOP JUMPDEST PUSH2 0x33E PUSH2 0x1642 JUMP JUMPDEST PUSH1 0x40 MLOAD PUSH2 0x34B SWAP2 SWAP1 PUSH2 0x1F3A JUMP JUMPDEST PUSH1 0x40 MLOAD DUP1 SWAP2 SUB SWAP1 RETURN JUMPDEST PUSH2 0x36E PUSH1 0x4 DUP1 CALLDATASIZE SUB DUP2 ADD SWAP1 PUSH2 0x369 SWAP2 SWAP1 PUSH2 0x1ED4 JUMP JUMPDEST PUSH2 0x166C JUMP JUMPDEST STOP JUMPDEST PUSH2 0x38A PUSH1 0x4 DUP1 CALLDATASIZE SUB DUP2 ADD SWAP1 PUSH2 0x385 SWAP2 SWAP1 PUSH2 0x1ED4 JUMP JUMPDEST PUSH2 0x16B0 JUMP JUMPDEST STOP JUMPDEST PUSH2 0x3A6 PUSH1 0x4 DUP1 CALLDATASIZE SUB DUP2 ADD SWAP1 PUSH2 0x3A1 SWAP2 SWAP1 PUSH2 0x1ED4 JUMP JUMPDEST PUSH2 0x16F4 JUMP JUMPDEST STOP JUMPDEST PUSH2 0x3B0 PUSH2 0x1738 JUMP JUMPDEST PUSH1 0x40 MLOAD PUSH2 0x3BD SWAP2 SWAP1 PUSH2 0x20E6 JUMP JUMPDEST PUSH1 0x40 MLOAD DUP1 SWAP2 SUB SWAP1 RETURN JUMPDEST PUSH1 0xB PUSH1 0x0 SWAP1 SLOAD SWAP1 PUSH2 0x100 EXP SWAP1 DIV PUSH20 0xFFFFFFFFFFFFFFFFFFFFFFFFFFFFFFFFFFFFFFFF AND PUSH20 0xFFFFFFFFFFFFFFFFFFFFFFFFFFFFFFFFFFFFFFFF AND CALLER PUSH20 0xFFFFFFFFFFFFFFFFFFFFFFFFFFFFFFFFFFFFFFFF AND EQ PUSH2 0x420 JUMPI PUSH1 0x0 DUP1 REVERT JUMPDEST DUP1 MLOAD DUP3 MLOAD EQ PUSH2 0x464 JUMPI PUSH1 0x40 MLOAD PUSH32 0x8C379A000000000000000000000000000000000000000000000000000000000 DUP2 MSTORE PUSH1 0x4 ADD PUSH2 0x45B SWAP1 PUSH2 0x21AA JUMP JUMPDEST PUSH1 0x40 MLOAD DUP1 SWAP2 SUB SWAP1 REVERT JUMPDEST PUSH1 0x0 PUSH20 0xFFFFFFFFFFFFFFFFFFFFFFFFFFFFFFFFFFFFFFFF AND PUSH2 0x484 PUSH2 0x1738 JUMP JUMPDEST PUSH20 0xFFFFFFFFFFFFFFFFFFFFFFFFFFFFFFFFFFFFFFFF AND SUB PUSH2 0x4DA JUMPI PUSH1 0x40 MLOAD PUSH32 0x8C379A000000000000000000000000000000000000000000000000000000000 DUP2 MSTORE PUSH1 0x4 ADD PUSH2 0x4D1 SWAP1 PUSH2 0x2216 JUMP JUMPDEST PUSH1 0x40 MLOAD DUP1 SWAP2 SUB SWAP1 REVERT JUMPDEST PUSH1 0x0 PUSH20 0xFFFFFFFFFFFFFFFFFFFFFFFFFFFFFFFFFFFFFFFF AND PUSH2 0x4FA PUSH2 0xECF JUMP JUMPDEST PUSH20 0xFFFFFFFFFFFFFFFFFFFFFFFFFFFFFFFFFFFFFFFF AND SUB PUSH2 0x550 JUMPI PUSH1 0x40 MLOAD PUSH32 0x8C379A000000000000000000000000000000000000000000000000000000000 DUP2 MSTORE PUSH1 0x4 ADD PUSH2 0x547 SWAP1 PUSH2 0x22A8 JUMP JUMPDEST PUSH1 0x40 MLOAD DUP1 SWAP2 SUB SWAP1 REVERT JUMPDEST PUSH1 0x0 DUP1 JUMPDEST DUP3 MLOAD DUP2 LT ISZERO PUSH2 0x598 JUMPI DUP3 DUP2 DUP2 MLOAD DUP2 LT PUSH2 0x570 JUMPI PUSH2 0x56F PUSH2 0x22C8 JUMP JUMPDEST JUMPDEST PUSH1 0x20 MUL PUSH1 0x20 ADD ADD MLOAD DUP3 PUSH2 0x583 SWAP2 SWAP1 PUSH2 0x2326 JUMP JUMPDEST SWAP2 POP DUP1 DUP1 PUSH2 0x590 SWAP1 PUSH2 0x235A JUMP JUMPDEST SWAP2 POP POP PUSH2 0x554 JUMP JUMPDEST POP DUP1 PUSH2 0x5A2 PUSH2 0x11D0 JUMP JUMPDEST LT ISZERO PUSH2 0x5E3 JUMPI PUSH1 0x40 MLOAD PUSH32 0x8C379A000000000000000000000000000000000000000000000000000000000 DUP2 MSTORE PUSH1 0x4 ADD PUSH2 0x5DA SWAP1 PUSH2 0x2414 JUMP JUMPDEST PUSH1 0x40 MLOAD DUP1 SWAP2 SUB SWAP1 REVERT JUMPDEST PUSH1 0x0 PUSH2 0x5ED PUSH2 0xECF JUMP JUMPDEST SWAP1 POP PUSH1 0x0 JUMPDEST DUP5 MLOAD DUP2 LT ISZERO PUSH2 0x775 JUMPI PUSH1 0x0 DUP3 PUSH20 0xFFFFFFFFFFFFFFFFFFFFFFFFFFFFFFFFFFFFFFFF AND PUSH4 0x6441F9D0 DUP8 DUP5 DUP2 MLOAD DUP2 LT PUSH2 0x62C JUMPI PUSH2 0x62B PUSH2 0x22C8 JUMP JUMPDEST JUMPDEST PUSH1 0x20 MUL PUSH1 0x20 ADD ADD MLOAD PUSH1 0x40 MLOAD DUP3 PUSH4 0xFFFFFFFF AND PUSH1 0xE0 SHL DUP2 MSTORE PUSH1 0x4 ADD PUSH2 0x650 SWAP2 SWAP1 PUSH2 0x24A2 JUMP JUMPDEST PUSH1 0x0 PUSH1 0x40 MLOAD DUP1 DUP4 SUB DUP2 DUP7 GAS STATICCALL ISZERO DUP1 ISZERO PUSH2 0x66D JUMPI RETURNDATASIZE PUSH1 0x0 DUP1 RETURNDATACOPY RETURNDATASIZE PUSH1 0x0 REVERT JUMPDEST POP POP POP POP PUSH1 0x40 MLOAD RETURNDATASIZE PUSH1 0x0 DUP3 RETURNDATACOPY RETURNDATASIZE PUSH1 0x1F NOT PUSH1 0x1F DUP3 ADD AND DUP3 ADD DUP1 PUSH1 0x40 MSTORE POP DUP2 ADD SWAP1 PUSH2 0x696 SWAP2 SWAP1 PUSH2 0x26DE JUMP JUMPDEST SWAP1 POP PUSH1 0x0 DUP2 PUSH1 0x20 ADD MLOAD SWAP1 POP PUSH1 0x0 DUP7 DUP5 DUP2 MLOAD DUP2 LT PUSH2 0x6B6 JUMPI PUSH2 0x6B5 PUSH2 0x22C8 JUMP JUMPDEST JUMPDEST PUSH1 0x20 MUL PUSH1 0x20 ADD ADD MLOAD SWAP1 POP PUSH1 0x0 PUSH20 0xFFFFFFFFFFFFFFFFFFFFFFFFFFFFFFFFFFFFFFFF AND DUP3 PUSH20 0xFFFFFFFFFFFFFFFFFFFFFFFFFFFFFFFFFFFFFFFF AND EQ PUSH2 0x75F JUMPI PUSH2 0x74A ADDRESS PUSH1 0x3 PUSH1 0x0 SWAP1 SLOAD SWAP1 PUSH2 0x100 EXP SWAP1 DIV PUSH20 0xFFFFFFFFFFFFFFFFFFFFFFFFFFFFFFFFFFFFFFFF AND DUP4 PUSH2 0x724 PUSH2 0x1738 JUMP JUMPDEST PUSH20 0xFFFFFFFFFFFFFFFFFFFFFFFFFFFFFFFFFFFFFFFF AND PUSH2 0x1761 SWAP1 SWAP4 SWAP3 SWAP2 SWAP1 PUSH4 0xFFFFFFFF AND JUMP JUMPDEST DUP1 PUSH1 0xA SLOAD PUSH2 0x758 SWAP2 SWAP1 PUSH2 0x2326 JUMP JUMPDEST PUSH1 0xA DUP2 SWAP1 SSTORE POP JUMPDEST POP POP POP DUP1 DUP1 PUSH2 0x76D SWAP1 PUSH2 0x235A JUMP JUMPDEST SWAP2 POP POP PUSH2 0x5F2 JUMP JUMPDEST POP POP POP POP POP JUMP JUMPDEST PUSH1 0xB PUSH1 0x0 SWAP1 SLOAD SWAP1 PUSH2 0x100 EXP SWAP1 DIV PUSH20 0xFFFFFFFFFFFFFFFFFFFFFFFFFFFFFFFFFFFFFFFF AND PUSH20 0xFFFFFFFFFFFFFFFFFFFFFFFFFFFFFFFFFFFFFFFF AND CALLER PUSH20 0xFFFFFFFFFFFFFFFFFFFFFFFFFFFFFFFFFFFFFFFF AND EQ PUSH2 0x7D6 JUMPI PUSH1 0x0 DUP1 REVERT JUMPDEST DUP1 PUSH1 0x8 PUSH1 0x0 PUSH2 0x100 EXP DUP2 SLOAD DUP2 PUSH20 0xFFFFFFFFFFFFFFFFFFFFFFFFFFFFFFFFFFFFFFFF MUL NOT AND SWAP1 DUP4 PUSH20 0xFFFFFFFFFFFFFFFFFFFFFFFFFFFFFFFFFFFFFFFF AND MUL OR SWAP1 SSTORE POP POP JUMP JUMPDEST PUSH1 0x0 PUSH20 0xFFFFFFFFFFFFFFFFFFFFFFFFFFFFFFFFFFFFFFFF AND PUSH2 0x83A PUSH2 0x1738 JUMP JUMPDEST PUSH20 0xFFFFFFFFFFFFFFFFFFFFFFFFFFFFFFFFFFFFFFFF AND SUB PUSH2 0x890 JUMPI PUSH1 0x40 MLOAD PUSH32 0x8C379A000000000000000000000000000000000000000000000000000000000 DUP2 MSTORE PUSH1 0x4 ADD PUSH2 0x887 SWAP1 PUSH2 0x2216 JUMP JUMPDEST PUSH1 0x40 MLOAD DUP1 SWAP2 SUB SWAP1 REVERT JUMPDEST PUSH1 0x0 PUSH20 0xFFFFFFFFFFFFFFFFFFFFFFFFFFFFFFFFFFFFFFFF AND PUSH2 0x8B0 PUSH2 0x1642 JUMP JUMPDEST PUSH20 0xFFFFFFFFFFFFFFFFFFFFFFFFFFFFFFFFFFFFFFFF AND SUB PUSH2 0x906 JUMPI PUSH1 0x40 MLOAD PUSH32 0x8C379A000000000000000000000000000000000000000000000000000000000 DUP2 MSTORE PUSH1 0x4 ADD PUSH2 0x8FD SWAP1 PUSH2 0x2799 JUMP JUMPDEST PUSH1 0x40 MLOAD DUP1 SWAP2 SUB SWAP1 REVERT JUMPDEST PUSH1 0x0 PUSH2 0x910 PUSH2 0x1642 JUMP JUMPDEST SWAP1 POP PUSH1 0x0 DUP2 PUSH20 0xFFFFFFFFFFFFFFFFFFFFFFFFFFFFFFFFFFFFFFFF AND PUSH4 0xA48EBA4 PUSH1 0x40 MLOAD DUP2 PUSH4 0xFFFFFFFF AND PUSH1 0xE0 SHL DUP2 MSTORE PUSH1 0x4 ADD PUSH1 0x20 PUSH1 0x40 MLOAD DUP1 DUP4 SUB DUP2 PUSH1 0x0 DUP8 GAS CALL ISZERO DUP1 ISZERO PUSH2 0x961 JUMPI RETURNDATASIZE PUSH1 0x0 DUP1 RETURNDATACOPY RETURNDATASIZE PUSH1 0x0 REVERT JUMPDEST POP POP POP POP PUSH1 0x40 MLOAD RETURNDATASIZE PUSH1 0x1F NOT PUSH1 0x1F DUP3 ADD AND DUP3 ADD DUP1 PUSH1 0x40 MSTORE POP DUP2 ADD SWAP1 PUSH2 0x985 SWAP2 SWAP1 PUSH2 0x27B9 JUMP JUMPDEST SWAP1 POP PUSH1 0x64 PUSH1 0x6 SLOAD DUP3 PUSH2 0x997 SWAP2 SWAP1 PUSH2 0x27E6 JUMP JUMPDEST PUSH2 0x9A1 SWAP2 SWAP1 PUSH2 0x2857 JUMP JUMPDEST SWAP1 POP DUP1 PUSH2 0x9AC PUSH2 0x11D0 JUMP JUMPDEST LT ISZERO PUSH2 0x9ED JUMPI PUSH1 0x40 MLOAD PUSH32 0x8C379A000000000000000000000000000000000000000000000000000000000 DUP2 MSTORE PUSH1 0x4 ADD PUSH2 0x9E4 SWAP1 PUSH2 0x28FA JUMP JUMPDEST PUSH1 0x40 MLOAD DUP1 SWAP2 SUB SWAP1 REVERT JUMPDEST PUSH2 0xA28 ADDRESS PUSH2 0x9F9 PUSH2 0x1642 JUMP JUMPDEST DUP4 PUSH2 0xA02 PUSH2 0x1738 JUMP JUMPDEST PUSH20 0xFFFFFFFFFFFFFFFFFFFFFFFFFFFFFFFFFFFFFFFF AND PUSH2 0x1761 SWAP1 SWAP4 SWAP3 SWAP2 SWAP1 PUSH4 0xFFFFFFFF AND JUMP JUMPDEST DUP1 PUSH1 0xA SLOAD PUSH2 0xA36 SWAP2 SWAP1 PUSH2 0x2326 JUMP JUMPDEST PUSH1 0xA DUP2 SWAP1 SSTORE POP POP POP JUMP JUMPDEST PUSH1 0x0 TIMESTAMP SWAP1 POP SWAP1 JUMP JUMPDEST PUSH1 0xB PUSH1 0x0 SWAP1 SLOAD SWAP1 PUSH2 0x100 EXP SWAP1 DIV PUSH20 0xFFFFFFFFFFFFFFFFFFFFFFFFFFFFFFFFFFFFFFFF AND PUSH20 0xFFFFFFFFFFFFFFFFFFFFFFFFFFFFFFFFFFFFFFFF AND CALLER PUSH20 0xFFFFFFFFFFFFFFFFFFFFFFFFFFFFFFFFFFFFFFFF AND EQ PUSH2 0xAA2 JUMPI PUSH1 0x0 DUP1 REVERT JUMPDEST DUP1 PUSH1 0x0 DUP1 PUSH2 0x100 EXP DUP2 SLOAD DUP2 PUSH20 0xFFFFFFFFFFFFFFFFFFFFFFFFFFFFFFFFFFFFFFFF MUL NOT AND SWAP1 DUP4 PUSH20 0xFFFFFFFFFFFFFFFFFFFFFFFFFFFFFFFFFFFFFFFF AND MUL OR SWAP1 SSTORE POP POP JUMP JUMPDEST PUSH1 0xB PUSH1 0x0 SWAP1 SLOAD SWAP1 PUSH2 0x100 EXP SWAP1 DIV PUSH20 0xFFFFFFFFFFFFFFFFFFFFFFFFFFFFFFFFFFFFFFFF AND PUSH20 0xFFFFFFFFFFFFFFFFFFFFFFFFFFFFFFFFFFFFFFFF AND CALLER PUSH20 0xFFFFFFFFFFFFFFFFFFFFFFFFFFFFFFFFFFFFFFFF AND EQ PUSH2 0xB3F JUMPI PUSH1 0x0 DUP1 REVERT JUMPDEST DUP1 MLOAD DUP3 MLOAD EQ PUSH2 0xB83 JUMPI PUSH1 0x40 MLOAD PUSH32 0x8C379A000000000000000000000000000000000000000000000000000000000 DUP2 MSTORE PUSH1 0x4 ADD PUSH2 0xB7A SWAP1 PUSH2 0x21AA JUMP JUMPDEST PUSH1 0x40 MLOAD DUP1 SWAP2 SUB SWAP1 REVERT JUMPDEST PUSH1 0x0 PUSH20 0xFFFFFFFFFFFFFFFFFFFFFFFFFFFFFFFFFFFFFFFF AND PUSH2 0xBA3 PUSH2 0x1738 JUMP JUMPDEST PUSH20 0xFFFFFFFFFFFFFFFFFFFFFFFFFFFFFFFFFFFFFFFF AND SUB PUSH2 0xBF9 JUMPI PUSH1 0x40 MLOAD PUSH32 0x8C379A000000000000000000000000000000000000000000000000000000000 DUP2 MSTORE PUSH1 0x4 ADD PUSH2 0xBF0 SWAP1 PUSH2 0x2216 JUMP JUMPDEST PUSH1 0x40 MLOAD DUP1 SWAP2 SUB SWAP1 REVERT JUMPDEST PUSH1 0x0 PUSH20 0xFFFFFFFFFFFFFFFFFFFFFFFFFFFFFFFFFFFFFFFF AND PUSH2 0xC19 PUSH2 0xECF JUMP JUMPDEST PUSH20 0xFFFFFFFFFFFFFFFFFFFFFFFFFFFFFFFFFFFFFFFF AND SUB PUSH2 0xC6F JUMPI PUSH1 0x40 MLOAD PUSH32 0x8C379A000000000000000000000000000000000000000000000000000000000 DUP2 MSTORE PUSH1 0x4 ADD PUSH2 0xC66 SWAP1 PUSH2 0x22A8 JUMP JUMPDEST PUSH1 0x40 MLOAD DUP1 SWAP2 SUB SWAP1 REVERT JUMPDEST PUSH1 0x0 DUP1 JUMPDEST DUP3 MLOAD DUP2 LT ISZERO PUSH2 0xCB7 JUMPI DUP3 DUP2 DUP2 MLOAD DUP2 LT PUSH2 0xC8F JUMPI PUSH2 0xC8E PUSH2 0x22C8 JUMP JUMPDEST JUMPDEST PUSH1 0x20 MUL PUSH1 0x20 ADD ADD MLOAD DUP3 PUSH2 0xCA2 SWAP2 SWAP1 PUSH2 0x2326 JUMP JUMPDEST SWAP2 POP DUP1 DUP1 PUSH2 0xCAF SWAP1 PUSH2 0x235A JUMP JUMPDEST SWAP2 POP POP PUSH2 0xC73 JUMP JUMPDEST POP DUP1 PUSH2 0xCC1 PUSH2 0x11D0 JUMP JUMPDEST LT ISZERO PUSH2 0xD02 JUMPI PUSH1 0x40 MLOAD PUSH32 0x8C379A000000000000000000000000000000000000000000000000000000000 DUP2 MSTORE PUSH1 0x4 ADD PUSH2 0xCF9 SWAP1 PUSH2 0x2414 JUMP JUMPDEST PUSH1 0x40 MLOAD DUP1 SWAP2 SUB SWAP1 REVERT JUMPDEST PUSH1 0x0 PUSH2 0xD0C PUSH2 0xECF JUMP JUMPDEST SWAP1 POP PUSH1 0x0 JUMPDEST DUP5 MLOAD DUP2 LT ISZERO PUSH2 0xE94 JUMPI PUSH1 0x0 DUP3 PUSH20 0xFFFFFFFFFFFFFFFFFFFFFFFFFFFFFFFFFFFFFFFF AND PUSH4 0x6441F9D0 DUP8 DUP5 DUP2 MLOAD DUP2 LT PUSH2 0xD4B JUMPI PUSH2 0xD4A PUSH2 0x22C8 JUMP JUMPDEST JUMPDEST PUSH1 0x20 MUL PUSH1 0x20 ADD ADD MLOAD PUSH1 0x40 MLOAD DUP3 PUSH4 0xFFFFFFFF AND PUSH1 0xE0 SHL DUP2 MSTORE PUSH1 0x4 ADD PUSH2 0xD6F SWAP2 SWAP1 PUSH2 0x24A2 JUMP JUMPDEST PUSH1 0x0 PUSH1 0x40 MLOAD DUP1 DUP4 SUB DUP2 DUP7 GAS STATICCALL ISZERO DUP1 ISZERO PUSH2 0xD8C JUMPI RETURNDATASIZE PUSH1 0x0 DUP1 RETURNDATACOPY RETURNDATASIZE PUSH1 0x0 REVERT JUMPDEST POP POP POP POP PUSH1 0x40 MLOAD RETURNDATASIZE PUSH1 0x0 DUP3 RETURNDATACOPY RETURNDATASIZE PUSH1 0x1F NOT PUSH1 0x1F DUP3 ADD AND DUP3 ADD DUP1 PUSH1 0x40 MSTORE POP DUP2 ADD SWAP1 PUSH2 0xDB5 SWAP2 SWAP1 PUSH2 0x26DE JUMP JUMPDEST SWAP1 POP PUSH1 0x0 DUP2 PUSH1 0x20 ADD MLOAD SWAP1 POP PUSH1 0x0 DUP7 DUP5 DUP2 MLOAD DUP2 LT PUSH2 0xDD5 JUMPI PUSH2 0xDD4 PUSH2 0x22C8 JUMP JUMPDEST JUMPDEST PUSH1 0x20 MUL PUSH1 0x20 ADD ADD MLOAD SWAP1 POP PUSH1 0x0 PUSH20 0xFFFFFFFFFFFFFFFFFFFFFFFFFFFFFFFFFFFFFFFF AND DUP3 PUSH20 0xFFFFFFFFFFFFFFFFFFFFFFFFFFFFFFFFFFFFFFFF AND EQ PUSH2 0xE7E JUMPI PUSH2 0xE69 ADDRESS PUSH1 0x3 PUSH1 0x0 SWAP1 SLOAD SWAP1 PUSH2 0x100 EXP SWAP1 DIV PUSH20 0xFFFFFFFFFFFFFFFFFFFFFFFFFFFFFFFFFFFFFFFF AND DUP4 PUSH2 0xE43 PUSH2 0x1738 JUMP JUMPDEST PUSH20 0xFFFFFFFFFFFFFFFFFFFFFFFFFFFFFFFFFFFFFFFF AND PUSH2 0x1761 SWAP1 SWAP4 SWAP3 SWAP2 SWAP1 PUSH4 0xFFFFFFFF AND JUMP JUMPDEST DUP1 PUSH1 0xA SLOAD PUSH2 0xE77 SWAP2 SWAP1 PUSH2 0x2326 JUMP JUMPDEST PUSH1 0xA DUP2 SWAP1 SSTORE POP JUMPDEST POP POP POP DUP1 DUP1 PUSH2 0xE8C SWAP1 PUSH2 0x235A JUMP JUMPDEST SWAP2 POP POP PUSH2 0xD11 JUMP JUMPDEST POP POP POP POP POP JUMP JUMPDEST PUSH1 0x0 PUSH1 0x9 SLOAD SWAP1 POP SWAP1 JUMP JUMPDEST PUSH1 0x0 PUSH1 0x5 PUSH1 0x0 SWAP1 SLOAD SWAP1 PUSH2 0x100 EXP SWAP1 DIV PUSH20 0xFFFFFFFFFFFFFFFFFFFFFFFFFFFFFFFFFFFFFFFF AND SWAP1 POP SWAP1 JUMP JUMPDEST PUSH1 0x0 PUSH1 0x1 PUSH1 0x0 SWAP1 SLOAD SWAP1 PUSH2 0x100 EXP SWAP1 DIV PUSH20 0xFFFFFFFFFFFFFFFFFFFFFFFFFFFFFFFFFFFFFFFF AND SWAP1 POP SWAP1 JUMP JUMPDEST PUSH1 0x0 PUSH1 0xA SLOAD SWAP1 POP SWAP1 JUMP JUMPDEST PUSH1 0x0 PUSH20 0xFFFFFFFFFFFFFFFFFFFFFFFFFFFFFFFFFFFFFFFF AND PUSH1 0x8 PUSH1 0x0 SWAP1 SLOAD SWAP1 PUSH2 0x100 EXP SWAP1 DIV PUSH20 0xFFFFFFFFFFFFFFFFFFFFFFFFFFFFFFFFFFFFFFFF AND PUSH20 0xFFFFFFFFFFFFFFFFFFFFFFFFFFFFFFFFFFFFFFFF AND SUB PUSH2 0xF94 JUMPI PUSH1 0x40 MLOAD PUSH32 0x8C379A000000000000000000000000000000000000000000000000000000000 DUP2 MSTORE PUSH1 0x4 ADD PUSH2 0xF8B SWAP1 PUSH2 0x298C JUMP JUMPDEST PUSH1 0x40 MLOAD DUP1 SWAP2 SUB SWAP1 REVERT JUMPDEST PUSH1 0x0 PUSH20 0xFFFFFFFFFFFFFFFFFFFFFFFFFFFFFFFFFFFFFFFF AND PUSH1 0x0 DUP1 SLOAD SWAP1 PUSH2 0x100 EXP SWAP1 DIV PUSH20 0xFFFFFFFFFFFFFFFFFFFFFFFFFFFFFFFFFFFFFFFF AND PUSH20 0xFFFFFFFFFFFFFFFFFFFFFFFFFFFFFFFFFFFFFFFF AND SUB PUSH2 0x1023 JUMPI PUSH1 0x40 MLOAD PUSH32 0x8C379A000000000000000000000000000000000000000000000000000000000 DUP2 MSTORE PUSH1 0x4 ADD PUSH2 0x101A SWAP1 PUSH2 0x2216 JUMP JUMPDEST PUSH1 0x40 MLOAD DUP1 SWAP2 SUB SWAP1 REVERT JUMPDEST DUP2 DUP2 SWAP1 POP DUP5 DUP5 SWAP1 POP EQ PUSH2 0x106B JUMPI PUSH1 0x40 MLOAD PUSH32 0x8C379A000000000000000000000000000000000000000000000000000000000 DUP2 MSTORE PUSH1 0x4 ADD PUSH2 0x1062 SWAP1 PUSH2 0x21AA JUMP JUMPDEST PUSH1 0x40 MLOAD DUP1 SWAP2 SUB SWAP1 REVERT JUMPDEST PUSH1 0x0 DUP1 JUMPDEST DUP6 DUP6 SWAP1 POP DUP2 LT ISZERO PUSH2 0x10BB JUMPI PUSH2 0x10A6 DUP5 DUP5 DUP4 DUP2 DUP2 LT PUSH2 0x1090 JUMPI PUSH2 0x108F PUSH2 0x22C8 JUMP JUMPDEST JUMPDEST SWAP1 POP PUSH1 0x20 MUL ADD CALLDATALOAD DUP4 PUSH2 0x17EA SWAP1 SWAP2 SWAP1 PUSH4 0xFFFFFFFF AND JUMP JUMPDEST SWAP2 POP DUP1 DUP1 PUSH2 0x10B3 SWAP1 PUSH2 0x235A JUMP JUMPDEST SWAP2 POP POP PUSH2 0x106F JUMP JUMPDEST POP DUP1 PUSH2 0x10C5 PUSH2 0x11D0 JUMP JUMPDEST LT ISZERO PUSH2 0x1106 JUMPI PUSH1 0x40 MLOAD PUSH32 0x8C379A000000000000000000000000000000000000000000000000000000000 DUP2 MSTORE PUSH1 0x4 ADD PUSH2 0x10FD SWAP1 PUSH2 0x2A1E JUMP JUMPDEST PUSH1 0x40 MLOAD DUP1 SWAP2 SUB SWAP1 REVERT JUMPDEST PUSH1 0x0 JUMPDEST DUP6 DUP6 SWAP1 POP DUP2 LT ISZERO PUSH2 0x11C8 JUMPI PUSH2 0x1188 ADDRESS DUP8 DUP8 DUP5 DUP2 DUP2 LT PUSH2 0x112B JUMPI PUSH2 0x112A PUSH2 0x22C8 JUMP JUMPDEST JUMPDEST SWAP1 POP PUSH1 0x20 MUL ADD PUSH1 0x20 DUP2 ADD SWAP1 PUSH2 0x1140 SWAP2 SWAP1 PUSH2 0x1ED4 JUMP JUMPDEST DUP7 DUP7 DUP6 DUP2 DUP2 LT PUSH2 0x1153 JUMPI PUSH2 0x1152 PUSH2 0x22C8 JUMP JUMPDEST JUMPDEST SWAP1 POP PUSH1 0x20 MUL ADD CALLDATALOAD PUSH2 0x1162 PUSH2 0x1738 JUMP JUMPDEST PUSH20 0xFFFFFFFFFFFFFFFFFFFFFFFFFFFFFFFFFFFFFFFF AND PUSH2 0x1761 SWAP1 SWAP4 SWAP3 SWAP2 SWAP1 PUSH4 0xFFFFFFFF AND JUMP JUMPDEST DUP4 DUP4 DUP3 DUP2 DUP2 LT PUSH2 0x119B JUMPI PUSH2 0x119A PUSH2 0x22C8 JUMP JUMPDEST JUMPDEST SWAP1 POP PUSH1 0x20 MUL ADD CALLDATALOAD PUSH1 0xA SLOAD PUSH2 0x11AF SWAP2 SWAP1 PUSH2 0x2326 JUMP JUMPDEST PUSH1 0xA DUP2 SWAP1 SSTORE POP DUP1 DUP1 PUSH2 0x11C0 SWAP1 PUSH2 0x235A JUMP JUMPDEST SWAP2 POP POP PUSH2 0x1109 JUMP JUMPDEST POP POP POP POP POP POP JUMP JUMPDEST PUSH1 0x0 DUP1 PUSH20 0xFFFFFFFFFFFFFFFFFFFFFFFFFFFFFFFFFFFFFFFF AND PUSH2 0x11F1 PUSH2 0x1738 JUMP JUMPDEST PUSH20 0xFFFFFFFFFFFFFFFFFFFFFFFFFFFFFFFFFFFFFFFF AND SUB PUSH2 0x1215 JUMPI PUSH1 0x0 SWAP1 POP PUSH2 0x129F JUMP JUMPDEST PUSH1 0x0 PUSH2 0x121F PUSH2 0x1738 JUMP JUMPDEST PUSH20 0xFFFFFFFFFFFFFFFFFFFFFFFFFFFFFFFFFFFFFFFF AND PUSH4 0x70A08231 ADDRESS PUSH1 0x40 MLOAD DUP3 PUSH4 0xFFFFFFFF AND PUSH1 0xE0 SHL DUP2 MSTORE PUSH1 0x4 ADD PUSH2 0x1257 SWAP2 SWAP1 PUSH2 0x1F3A JUMP JUMPDEST PUSH1 0x20 PUSH1 0x40 MLOAD DUP1 DUP4 SUB DUP2 DUP7 GAS STATICCALL ISZERO DUP1 ISZERO PUSH2 0x1274 JUMPI RETURNDATASIZE PUSH1 0x0 DUP1 RETURNDATACOPY RETURNDATASIZE PUSH1 0x0 REVERT JUMPDEST POP POP POP POP PUSH1 0x40 MLOAD RETURNDATASIZE PUSH1 0x1F NOT PUSH1 0x1F DUP3 ADD AND DUP3 ADD DUP1 PUSH1 0x40 MSTORE POP DUP2 ADD SWAP1 PUSH2 0x1298 SWAP2 SWAP1 PUSH2 0x27B9 JUMP JUMPDEST SWAP1 POP DUP1 SWAP2 POP POP JUMPDEST SWAP1 JUMP JUMPDEST PUSH1 0x0 PUSH1 0x3 PUSH1 0x0 SWAP1 SLOAD SWAP1 PUSH2 0x100 EXP SWAP1 DIV PUSH20 0xFFFFFFFFFFFFFFFFFFFFFFFFFFFFFFFFFFFFFFFF AND SWAP1 POP SWAP1 JUMP JUMPDEST PUSH1 0xB PUSH1 0x0 SWAP1 SLOAD SWAP1 PUSH2 0x100 EXP SWAP1 DIV PUSH20 0xFFFFFFFFFFFFFFFFFFFFFFFFFFFFFFFFFFFFFFFF AND PUSH20 0xFFFFFFFFFFFFFFFFFFFFFFFFFFFFFFFFFFFFFFFF AND CALLER PUSH20 0xFFFFFFFFFFFFFFFFFFFFFFFFFFFFFFFFFFFFFFFF AND EQ PUSH2 0x1326 JUMPI PUSH1 0x0 DUP1 REVERT JUMPDEST DUP1 PUSH1 0xB PUSH1 0x0 PUSH2 0x100 EXP DUP2 SLOAD DUP2 PUSH20 0xFFFFFFFFFFFFFFFFFFFFFFFFFFFFFFFFFFFFFFFF MUL NOT AND SWAP1 DUP4 PUSH20 0xFFFFFFFFFFFFFFFFFFFFFFFFFFFFFFFFFFFFFFFF AND MUL OR SWAP1 SSTORE POP POP JUMP JUMPDEST DUP1 PUSH1 0x4 PUSH1 0x0 PUSH2 0x100 EXP DUP2 SLOAD DUP2 PUSH20 0xFFFFFFFFFFFFFFFFFFFFFFFFFFFFFFFFFFFFFFFF MUL NOT AND SWAP1 DUP4 PUSH20 0xFFFFFFFFFFFFFFFFFFFFFFFFFFFFFFFFFFFFFFFF AND MUL OR SWAP1 SSTORE POP POP JUMP JUMPDEST PUSH1 0x0 PUSH1 0x2 PUSH1 0x0 SWAP1 SLOAD SWAP1 PUSH2 0x100 EXP SWAP1 DIV PUSH20 0xFFFFFFFFFFFFFFFFFFFFFFFFFFFFFFFFFFFFFFFF AND SWAP1 POP SWAP1 JUMP JUMPDEST PUSH1 0x0 PUSH20 0xFFFFFFFFFFFFFFFFFFFFFFFFFFFFFFFFFFFFFFFF AND PUSH2 0x13F8 PUSH2 0x1738 JUMP JUMPDEST PUSH20 0xFFFFFFFFFFFFFFFFFFFFFFFFFFFFFFFFFFFFFFFF AND SUB PUSH2 0x144E JUMPI PUSH1 0x40 MLOAD PUSH32 0x8C379A000000000000000000000000000000000000000000000000000000000 DUP2 MSTORE PUSH1 0x4 ADD PUSH2 0x1445 SWAP1 PUSH2 0x2216 JUMP JUMPDEST PUSH1 0x40 MLOAD DUP1 SWAP2 SUB SWAP1 REVERT JUMPDEST PUSH1 0x0 PUSH20 0xFFFFFFFFFFFFFFFFFFFFFFFFFFFFFFFFFFFFFFFF AND PUSH2 0x146E PUSH2 0xEA5 JUMP JUMPDEST PUSH20 0xFFFFFFFFFFFFFFFFFFFFFFFFFFFFFFFFFFFFFFFF AND SUB PUSH2 0x14C4 JUMPI PUSH1 0x40 MLOAD PUSH32 0x8C379A000000000000000000000000000000000000000000000000000000000 DUP2 MSTORE PUSH1 0x4 ADD PUSH2 0x14BB SWAP1 PUSH2 0x2AB0 JUMP JUMPDEST PUSH1 0x40 MLOAD DUP1 SWAP2 SUB SWAP1 REVERT JUMPDEST PUSH1 0x0 PUSH2 0x14CE PUSH2 0xEA5 JUMP JUMPDEST SWAP1 POP PUSH1 0x0 DUP2 PUSH20 0xFFFFFFFFFFFFFFFFFFFFFFFFFFFFFFFFFFFFFFFF AND PUSH4 0xA48EBA4 PUSH1 0x40 MLOAD DUP2 PUSH4 0xFFFFFFFF AND PUSH1 0xE0 SHL DUP2 MSTORE PUSH1 0x4 ADD PUSH1 0x20 PUSH1 0x40 MLOAD DUP1 DUP4 SUB DUP2 PUSH1 0x0 DUP8 GAS CALL ISZERO DUP1 ISZERO PUSH2 0x151F JUMPI RETURNDATASIZE PUSH1 0x0 DUP1 RETURNDATACOPY RETURNDATASIZE PUSH1 0x0 REVERT JUMPDEST POP POP POP POP PUSH1 0x40 MLOAD RETURNDATASIZE PUSH1 0x1F NOT PUSH1 0x1F DUP3 ADD AND DUP3 ADD DUP1 PUSH1 0x40 MSTORE POP DUP2 ADD SWAP1 PUSH2 0x1543 SWAP2 SWAP1 PUSH2 0x27B9 JUMP JUMPDEST SWAP1 POP PUSH1 0x64 PUSH1 0x7 SLOAD DUP3 PUSH2 0x1555 SWAP2 SWAP1 PUSH2 0x27E6 JUMP JUMPDEST PUSH2 0x155F SWAP2 SWAP1 PUSH2 0x2857 JUMP JUMPDEST SWAP1 POP DUP1 PUSH2 0x156A PUSH2 0x11D0 JUMP JUMPDEST LT ISZERO PUSH2 0x15AB JUMPI PUSH1 0x40 MLOAD PUSH32 0x8C379A000000000000000000000000000000000000000000000000000000000 DUP2 MSTORE PUSH1 0x4 ADD PUSH2 0x15A2 SWAP1 PUSH2 0x2B42 JUMP JUMPDEST PUSH1 0x40 MLOAD DUP1 SWAP2 SUB SWAP1 REVERT JUMPDEST PUSH2 0x15E6 ADDRESS PUSH2 0x15B7 PUSH2 0xEA5 JUMP JUMPDEST DUP4 PUSH2 0x15C0 PUSH2 0x1738 JUMP JUMPDEST PUSH20 0xFFFFFFFFFFFFFFFFFFFFFFFFFFFFFFFFFFFFFFFF AND PUSH2 0x1761 SWAP1 SWAP4 SWAP3 SWAP2 SWAP1 PUSH4 0xFFFFFFFF AND JUMP JUMPDEST DUP1 PUSH1 0xA SLOAD PUSH2 0x15F4 SWAP2 SWAP1 PUSH2 0x2326 JUMP JUMPDEST PUSH1 0xA DUP2 SWAP1 SSTORE POP POP POP JUMP JUMPDEST DUP1 PUSH1 0x5 PUSH1 0x0 PUSH2 0x100 EXP DUP2 SLOAD DUP2 PUSH20 0xFFFFFFFFFFFFFFFFFFFFFFFFFFFFFFFFFFFFFFFF MUL NOT AND SWAP1 DUP4 PUSH20 0xFFFFFFFFFFFFFFFFFFFFFFFFFFFFFFFFFFFFFFFF AND MUL OR SWAP1 SSTORE POP POP JUMP JUMPDEST PUSH1 0x0 PUSH1 0x4 PUSH1 0x0 SWAP1 SLOAD SWAP1 PUSH2 0x100 EXP SWAP1 DIV PUSH20 0xFFFFFFFFFFFFFFFFFFFFFFFFFFFFFFFFFFFFFFFF AND SWAP1 POP SWAP1 JUMP JUMPDEST DUP1 PUSH1 0x3 PUSH1 0x0 PUSH2 0x100 EXP DUP2 SLOAD DUP2 PUSH20 0xFFFFFFFFFFFFFFFFFFFFFFFFFFFFFFFFFFFFFFFF MUL NOT AND SWAP1 DUP4 PUSH20 0xFFFFFFFFFFFFFFFFFFFFFFFFFFFFFFFFFFFFFFFF AND MUL OR SWAP1 SSTORE POP POP JUMP JUMPDEST DUP1 PUSH1 0x1 PUSH1 0x0 PUSH2 0x100 EXP DUP2 SLOAD DUP2 PUSH20 0xFFFFFFFFFFFFFFFFFFFFFFFFFFFFFFFFFFFFFFFF MUL NOT AND SWAP1 DUP4 PUSH20 0xFFFFFFFFFFFFFFFFFFFFFFFFFFFFFFFFFFFFFFFF AND MUL OR SWAP1 SSTORE POP POP JUMP JUMPDEST DUP1 PUSH1 0x2 PUSH1 0x0 PUSH2 0x100 EXP DUP2 SLOAD DUP2 PUSH20 0xFFFFFFFFFFFFFFFFFFFFFFFFFFFFFFFFFFFFFFFF MUL NOT AND SWAP1 DUP4 PUSH20 0xFFFFFFFFFFFFFFFFFFFFFFFFFFFFFFFFFFFFFFFF AND MUL OR SWAP1 SSTORE POP POP JUMP JUMPDEST PUSH1 0x0 DUP1 PUSH1 0x0 SWAP1 SLOAD SWAP1 PUSH2 0x100 EXP SWAP1 DIV PUSH20 0xFFFFFFFFFFFFFFFFFFFFFFFFFFFFFFFFFFFFFFFF AND SWAP1 POP SWAP1 JUMP JUMPDEST PUSH2 0x17E4 DUP5 PUSH4 0x23B872DD PUSH1 0xE0 SHL DUP6 DUP6 DUP6 PUSH1 0x40 MLOAD PUSH1 0x24 ADD PUSH2 0x1782 SWAP4 SWAP3 SWAP2 SWAP1 PUSH2 0x2B62 JUMP JUMPDEST PUSH1 0x40 MLOAD PUSH1 0x20 DUP2 DUP4 SUB SUB DUP2 MSTORE SWAP1 PUSH1 0x40 MSTORE SWAP1 PUSH28 0xFFFFFFFFFFFFFFFFFFFFFFFFFFFFFFFFFFFFFFFFFFFFFFFFFFFFFFFF NOT AND PUSH1 0x20 DUP3 ADD DUP1 MLOAD PUSH28 0xFFFFFFFFFFFFFFFFFFFFFFFFFFFFFFFFFFFFFFFFFFFFFFFFFFFFFFFF DUP4 DUP2 DUP4 AND OR DUP4 MSTORE POP POP POP POP PUSH2 0x1848 JUMP JUMPDEST POP POP POP POP JUMP JUMPDEST PUSH1 0x0 DUP1 DUP3 DUP5 PUSH2 0x17F9 SWAP2 SWAP1 PUSH2 0x2326 JUMP JUMPDEST SWAP1 POP DUP4 DUP2 LT ISZERO PUSH2 0x183E JUMPI PUSH1 0x40 MLOAD PUSH32 0x8C379A000000000000000000000000000000000000000000000000000000000 DUP2 MSTORE PUSH1 0x4 ADD PUSH2 0x1835 SWAP1 PUSH2 0x2BE5 JUMP JUMPDEST PUSH1 0x40 MLOAD DUP1 SWAP2 SUB SWAP1 REVERT JUMPDEST DUP1 SWAP2 POP POP SWAP3 SWAP2 POP POP JUMP JUMPDEST PUSH1 0x0 PUSH2 0x18AA DUP3 PUSH1 0x40 MLOAD DUP1 PUSH1 0x40 ADD PUSH1 0x40 MSTORE DUP1 PUSH1 0x20 DUP2 MSTORE PUSH1 0x20 ADD PUSH32 0x5361666545524332303A206C6F772D6C6576656C2063616C6C206661696C6564 DUP2 MSTORE POP DUP6 PUSH20 0xFFFFFFFFFFFFFFFFFFFFFFFFFFFFFFFFFFFFFFFF AND PUSH2 0x190F SWAP1 SWAP3 SWAP2 SWAP1 PUSH4 0xFFFFFFFF AND JUMP JUMPDEST SWAP1 POP PUSH1 0x0 DUP2 MLOAD GT ISZERO PUSH2 0x190A JUMPI DUP1 DUP1 PUSH1 0x20 ADD SWAP1 MLOAD DUP2 ADD SWAP1 PUSH2 0x18CA SWAP2 SWAP1 PUSH2 0x2C05 JUMP JUMPDEST PUSH2 0x1909 JUMPI PUSH1 0x40 MLOAD PUSH32 0x8C379A000000000000000000000000000000000000000000000000000000000 DUP2 MSTORE PUSH1 0x4 ADD PUSH2 0x1900 SWAP1 PUSH2 0x2CA4 JUMP JUMPDEST PUSH1 0x40 MLOAD DUP1 SWAP2 SUB SWAP1 REVERT JUMPDEST JUMPDEST POP POP POP JUMP JUMPDEST PUSH1 0x60 PUSH2 0x191E DUP5 DUP5 PUSH1 0x0 DUP6 PUSH2 0x1927 JUMP JUMPDEST SWAP1 POP SWAP4 SWAP3 POP POP POP JUMP JUMPDEST PUSH1 0x60 DUP3 SELFBALANCE LT ISZERO PUSH2 0x196C JUMPI PUSH1 0x40 MLOAD PUSH32 0x8C379A000000000000000000000000000000000000000000000000000000000 DUP2 MSTORE PUSH1 0x4 ADD PUSH2 0x1963 SWAP1 PUSH2 0x2D36 JUMP JUMPDEST PUSH1 0x40 MLOAD DUP1 SWAP2 SUB SWAP1 REVERT JUMPDEST PUSH2 0x1975 DUP6 PUSH2 0x1A3B JUMP JUMPDEST PUSH2 0x19B4 JUMPI PUSH1 0x40 MLOAD PUSH32 0x8C379A000000000000000000000000000000000000000000000000000000000 DUP2 MSTORE PUSH1 0x4 ADD PUSH2 0x19AB SWAP1 PUSH2 0x2DA2 JUMP JUMPDEST PUSH1 0x40 MLOAD DUP1 SWAP2 SUB SWAP1 REVERT JUMPDEST PUSH1 0x0 DUP1 DUP7 PUSH20 0xFFFFFFFFFFFFFFFFFFFFFFFFFFFFFFFFFFFFFFFF AND DUP6 DUP8 PUSH1 0x40 MLOAD PUSH2 0x19DD SWAP2 SWAP1 PUSH2 0x2E09 JUMP JUMPDEST PUSH1 0x0 PUSH1 0x40 MLOAD DUP1 DUP4 SUB DUP2 DUP6 DUP8 GAS CALL SWAP3 POP POP POP RETURNDATASIZE DUP1 PUSH1 0x0 DUP2 EQ PUSH2 0x1A1A JUMPI PUSH1 0x40 MLOAD SWAP2 POP PUSH1 0x1F NOT PUSH1 0x3F RETURNDATASIZE ADD AND DUP3 ADD PUSH1 0x40 MSTORE RETURNDATASIZE DUP3 MSTORE RETURNDATASIZE PUSH1 0x0 PUSH1 0x20 DUP5 ADD RETURNDATACOPY PUSH2 0x1A1F JUMP JUMPDEST PUSH1 0x60 SWAP2 POP JUMPDEST POP SWAP2 POP SWAP2 POP PUSH2 0x1A2F DUP3 DUP3 DUP7 PUSH2 0x1A5E JUMP JUMPDEST SWAP3 POP POP POP SWAP5 SWAP4 POP POP POP POP JUMP JUMPDEST PUSH1 0x0 DUP1 DUP3 PUSH20 0xFFFFFFFFFFFFFFFFFFFFFFFFFFFFFFFFFFFFFFFF AND EXTCODESIZE GT SWAP1 POP SWAP2 SWAP1 POP JUMP JUMPDEST PUSH1 0x60 DUP4 ISZERO PUSH2 0x1A6E JUMPI DUP3 SWAP1 POP PUSH2 0x1ABE JUMP JUMPDEST PUSH1 0x0 DUP4 MLOAD GT ISZERO PUSH2 0x1A81 JUMPI DUP3 MLOAD DUP1 DUP5 PUSH1 0x20 ADD REVERT JUMPDEST DUP2 PUSH1 0x40 MLOAD PUSH32 0x8C379A000000000000000000000000000000000000000000000000000000000 DUP2 MSTORE PUSH1 0x4 ADD PUSH2 0x1AB5 SWAP2 SWAP1 PUSH2 0x24A2 JUMP JUMPDEST PUSH1 0x40 MLOAD DUP1 SWAP2 SUB SWAP1 REVERT JUMPDEST SWAP4 SWAP3 POP POP POP JUMP JUMPDEST PUSH1 0x0 PUSH1 0x40 MLOAD SWAP1 POP SWAP1 JUMP JUMPDEST PUSH1 0x0 DUP1 REVERT JUMPDEST PUSH1 0x0 DUP1 REVERT JUMPDEST PUSH1 0x0 DUP1 REVERT JUMPDEST PUSH1 0x0 PUSH1 0x1F NOT PUSH1 0x1F DUP4 ADD AND SWAP1 POP SWAP2 SWAP1 POP JUMP JUMPDEST PUSH32 0x4E487B7100000000000000000000000000000000000000000000000000000000 PUSH1 0x0 MSTORE PUSH1 0x41 PUSH1 0x4 MSTORE PUSH1 0x24 PUSH1 0x0 REVERT JUMPDEST PUSH2 0x1B27 DUP3 PUSH2 0x1ADE JUMP JUMPDEST DUP2 ADD DUP2 DUP2 LT PUSH8 0xFFFFFFFFFFFFFFFF DUP3 GT OR ISZERO PUSH2 0x1B46 JUMPI PUSH2 0x1B45 PUSH2 0x1AEF JUMP JUMPDEST JUMPDEST DUP1 PUSH1 0x40 MSTORE POP POP POP JUMP JUMPDEST PUSH1 0x0 PUSH2 0x1B59 PUSH2 0x1AC5 JUMP JUMPDEST SWAP1 POP PUSH2 0x1B65 DUP3 DUP3 PUSH2 0x1B1E JUMP JUMPDEST SWAP2 SWAP1 POP JUMP JUMPDEST PUSH1 0x0 PUSH8 0xFFFFFFFFFFFFFFFF DUP3 GT ISZERO PUSH2 0x1B85 JUMPI PUSH2 0x1B84 PUSH2 0x1AEF JUMP JUMPDEST JUMPDEST PUSH1 0x20 DUP3 MUL SWAP1 POP PUSH1 0x20 DUP2 ADD SWAP1 POP SWAP2 SWAP1 POP JUMP JUMPDEST PUSH1 0x0 DUP1 REVERT JUMPDEST PUSH1 0x0 DUP1 REVERT JUMPDEST PUSH1 0x0 PUSH8 0xFFFFFFFFFFFFFFFF DUP3 GT ISZERO PUSH2 0x1BBB JUMPI PUSH2 0x1BBA PUSH2 0x1AEF JUMP JUMPDEST JUMPDEST PUSH2 0x1BC4 DUP3 PUSH2 0x1ADE JUMP JUMPDEST SWAP1 POP PUSH1 0x20 DUP2 ADD SWAP1 POP SWAP2 SWAP1 POP JUMP JUMPDEST DUP3 DUP2 DUP4 CALLDATACOPY PUSH1 0x0 DUP4 DUP4 ADD MSTORE POP POP POP JUMP JUMPDEST PUSH1 0x0 PUSH2 0x1BF3 PUSH2 0x1BEE DUP5 PUSH2 0x1BA0 JUMP JUMPDEST PUSH2 0x1B4F JUMP JUMPDEST SWAP1 POP DUP3 DUP2 MSTORE PUSH1 0x20 DUP2 ADD DUP5 DUP5 DUP5 ADD GT ISZERO PUSH2 0x1C0F JUMPI PUSH2 0x1C0E PUSH2 0x1B9B JUMP JUMPDEST JUMPDEST PUSH2 0x1C1A DUP5 DUP3 DUP6 PUSH2 0x1BD1 JUMP JUMPDEST POP SWAP4 SWAP3 POP POP POP JUMP JUMPDEST PUSH1 0x0 DUP3 PUSH1 0x1F DUP4 ADD SLT PUSH2 0x1C37 JUMPI PUSH2 0x1C36 PUSH2 0x1AD9 JUMP JUMPDEST JUMPDEST DUP2 CALLDATALOAD PUSH2 0x1C47 DUP5 DUP3 PUSH1 0x20 DUP7 ADD PUSH2 0x1BE0 JUMP JUMPDEST SWAP2 POP POP SWAP3 SWAP2 POP POP JUMP JUMPDEST PUSH1 0x0 PUSH2 0x1C63 PUSH2 0x1C5E DUP5 PUSH2 0x1B6A JUMP JUMPDEST PUSH2 0x1B4F JUMP JUMPDEST SWAP1 POP DUP1 DUP4 DUP3 MSTORE PUSH1 0x20 DUP3 ADD SWAP1 POP PUSH1 0x20 DUP5 MUL DUP4 ADD DUP6 DUP2 GT ISZERO PUSH2 0x1C86 JUMPI PUSH2 0x1C85 PUSH2 0x1B96 JUMP JUMPDEST JUMPDEST DUP4 JUMPDEST DUP2 DUP2 LT ISZERO PUSH2 0x1CCD JUMPI DUP1 CALLDATALOAD PUSH8 0xFFFFFFFFFFFFFFFF DUP2 GT ISZERO PUSH2 0x1CAB JUMPI PUSH2 0x1CAA PUSH2 0x1AD9 JUMP JUMPDEST JUMPDEST DUP1 DUP7 ADD PUSH2 0x1CB8 DUP10 DUP3 PUSH2 0x1C22 JUMP JUMPDEST DUP6 MSTORE PUSH1 0x20 DUP6 ADD SWAP5 POP POP POP PUSH1 0x20 DUP2 ADD SWAP1 POP PUSH2 0x1C88 JUMP JUMPDEST POP POP POP SWAP4 SWAP3 POP POP POP JUMP JUMPDEST PUSH1 0x0 DUP3 PUSH1 0x1F DUP4 ADD SLT PUSH2 0x1CEC JUMPI PUSH2 0x1CEB PUSH2 0x1AD9 JUMP JUMPDEST JUMPDEST DUP2 CALLDATALOAD PUSH2 0x1CFC DUP5 DUP3 PUSH1 0x20 DUP7 ADD PUSH2 0x1C50 JUMP JUMPDEST SWAP2 POP POP SWAP3 SWAP2 POP POP JUMP JUMPDEST PUSH1 0x0 PUSH8 0xFFFFFFFFFFFFFFFF DUP3 GT ISZERO PUSH2 0x1D20 JUMPI PUSH2 0x1D1F PUSH2 0x1AEF JUMP JUMPDEST JUMPDEST PUSH1 0x20 DUP3 MUL SWAP1 POP PUSH1 0x20 DUP2 ADD SWAP1 POP SWAP2 SWAP1 POP JUMP JUMPDEST PUSH1 0x0 DUP2 SWAP1 POP SWAP2 SWAP1 POP JUMP JUMPDEST PUSH2 0x1D44 DUP2 PUSH2 0x1D31 JUMP JUMPDEST DUP2 EQ PUSH2 0x1D4F JUMPI PUSH1 0x0 DUP1 REVERT JUMPDEST POP JUMP JUMPDEST PUSH1 0x0 DUP2 CALLDATALOAD SWAP1 POP PUSH2 0x1D61 DUP2 PUSH2 0x1D3B JUMP JUMPDEST SWAP3 SWAP2 POP POP JUMP JUMPDEST PUSH1 0x0 PUSH2 0x1D7A PUSH2 0x1D75 DUP5 PUSH2 0x1D05 JUMP JUMPDEST PUSH2 0x1B4F JUMP JUMPDEST SWAP1 POP DUP1 DUP4 DUP3 MSTORE PUSH1 0x20 DUP3 ADD SWAP1 POP PUSH1 0x20 DUP5 MUL DUP4 ADD DUP6 DUP2 GT ISZERO PUSH2 0x1D9D JUMPI PUSH2 0x1D9C PUSH2 0x1B96 JUMP JUMPDEST JUMPDEST DUP4 JUMPDEST DUP2 DUP2 LT ISZERO PUSH2 0x1DC6 JUMPI DUP1 PUSH2 0x1DB2 DUP9 DUP3 PUSH2 0x1D52 JUMP JUMPDEST DUP5 MSTORE PUSH1 0x20 DUP5 ADD SWAP4 POP POP PUSH1 0x20 DUP2 ADD SWAP1 POP PUSH2 0x1D9F JUMP JUMPDEST POP POP POP SWAP4 SWAP3 POP POP POP JUMP JUMPDEST PUSH1 0x0 DUP3 PUSH1 0x1F DUP4 ADD SLT PUSH2 0x1DE5 JUMPI PUSH2 0x1DE4 PUSH2 0x1AD9 JUMP JUMPDEST JUMPDEST DUP2 CALLDATALOAD PUSH2 0x1DF5 DUP5 DUP3 PUSH1 0x20 DUP7 ADD PUSH2 0x1D67 JUMP JUMPDEST SWAP2 POP POP SWAP3 SWAP2 POP POP JUMP JUMPDEST PUSH1 0x0 DUP1 PUSH1 0x40 DUP4 DUP6 SUB SLT ISZERO PUSH2 0x1E15 JUMPI PUSH2 0x1E14 PUSH2 0x1ACF JUMP JUMPDEST JUMPDEST PUSH1 0x0 DUP4 ADD CALLDATALOAD PUSH8 0xFFFFFFFFFFFFFFFF DUP2 GT ISZERO PUSH2 0x1E33 JUMPI PUSH2 0x1E32 PUSH2 0x1AD4 JUMP JUMPDEST JUMPDEST PUSH2 0x1E3F DUP6 DUP3 DUP7 ADD PUSH2 0x1CD7 JUMP JUMPDEST SWAP3 POP POP PUSH1 0x20 DUP4 ADD CALLDATALOAD PUSH8 0xFFFFFFFFFFFFFFFF DUP2 GT ISZERO PUSH2 0x1E60 JUMPI PUSH2 0x1E5F PUSH2 0x1AD4 JUMP JUMPDEST JUMPDEST PUSH2 0x1E6C DUP6 DUP3 DUP7 ADD PUSH2 0x1DD0 JUMP JUMPDEST SWAP2 POP POP SWAP3 POP SWAP3 SWAP1 POP JUMP JUMPDEST PUSH1 0x0 PUSH20 0xFFFFFFFFFFFFFFFFFFFFFFFFFFFFFFFFFFFFFFFF DUP3 AND SWAP1 POP SWAP2 SWAP1 POP JUMP JUMPDEST PUSH1 0x0 PUSH2 0x1EA1 DUP3 PUSH2 0x1E76 JUMP JUMPDEST SWAP1 POP SWAP2 SWAP1 POP JUMP JUMPDEST PUSH2 0x1EB1 DUP2 PUSH2 0x1E96 JUMP JUMPDEST DUP2 EQ PUSH2 0x1EBC JUMPI PUSH1 0x0 DUP1 REVERT JUMPDEST POP JUMP JUMPDEST PUSH1 0x0 DUP2 CALLDATALOAD SWAP1 POP PUSH2 0x1ECE DUP2 PUSH2 0x1EA8 JUMP JUMPDEST SWAP3 SWAP2 POP POP JUMP JUMPDEST PUSH1 0x0 PUSH1 0x20 DUP3 DUP5 SUB SLT ISZERO PUSH2 0x1EEA JUMPI PUSH2 0x1EE9 PUSH2 0x1ACF JUMP JUMPDEST JUMPDEST PUSH1 0x0 PUSH2 0x1EF8 DUP5 DUP3 DUP6 ADD PUSH2 0x1EBF JUMP JUMPDEST SWAP2 POP POP SWAP3 SWAP2 POP POP JUMP JUMPDEST PUSH2 0x1F0A DUP2 PUSH2 0x1D31 JUMP JUMPDEST DUP3 MSTORE POP POP JUMP JUMPDEST PUSH1 0x0 PUSH1 0x20 DUP3 ADD SWAP1 POP PUSH2 0x1F25 PUSH1 0x0 DUP4 ADD DUP5 PUSH2 0x1F01 JUMP JUMPDEST SWAP3 SWAP2 POP POP JUMP JUMPDEST PUSH2 0x1F34 DUP2 PUSH2 0x1E96 JUMP JUMPDEST DUP3 MSTORE POP POP JUMP JUMPDEST PUSH1 0x0 PUSH1 0x20 DUP3 ADD SWAP1 POP PUSH2 0x1F4F PUSH1 0x0 DUP4 ADD DUP5 PUSH2 0x1F2B JUMP JUMPDEST SWAP3 SWAP2 POP POP JUMP JUMPDEST PUSH1 0x0 DUP1 REVERT JUMPDEST PUSH1 0x0 DUP1 DUP4 PUSH1 0x1F DUP5 ADD SLT PUSH2 0x1F70 JUMPI PUSH2 0x1F6F PUSH2 0x1AD9 JUMP JUMPDEST JUMPDEST DUP3 CALLDATALOAD SWAP1 POP PUSH8 0xFFFFFFFFFFFFFFFF DUP2 GT ISZERO PUSH2 0x1F8D JUMPI PUSH2 0x1F8C PUSH2 0x1F55 JUMP JUMPDEST JUMPDEST PUSH1 0x20 DUP4 ADD SWAP2 POP DUP4 PUSH1 0x20 DUP3 MUL DUP4 ADD GT ISZERO PUSH2 0x1FA9 JUMPI PUSH2 0x1FA8 PUSH2 0x1B96 JUMP JUMPDEST JUMPDEST SWAP3 POP SWAP3 SWAP1 POP JUMP JUMPDEST PUSH1 0x0 DUP1 DUP4 PUSH1 0x1F DUP5 ADD SLT PUSH2 0x1FC6 JUMPI PUSH2 0x1FC5 PUSH2 0x1AD9 JUMP JUMPDEST JUMPDEST DUP3 CALLDATALOAD SWAP1 POP PUSH8 0xFFFFFFFFFFFFFFFF DUP2 GT ISZERO PUSH2 0x1FE3 JUMPI PUSH2 0x1FE2 PUSH2 0x1F55 JUMP JUMPDEST JUMPDEST PUSH1 0x20 DUP4 ADD SWAP2 POP DUP4 PUSH1 0x20 DUP3 MUL DUP4 ADD GT ISZERO PUSH2 0x1FFF JUMPI PUSH2 0x1FFE PUSH2 0x1B96 JUMP JUMPDEST JUMPDEST SWAP3 POP SWAP3 SWAP1 POP JUMP JUMPDEST PUSH1 0x0 DUP1 PUSH1 0x0 DUP1 PUSH1 0x40 DUP6 DUP8 SUB SLT ISZERO PUSH2 0x2020 JUMPI PUSH2 0x201F PUSH2 0x1ACF JUMP JUMPDEST JUMPDEST PUSH1 0x0 DUP6 ADD CALLDATALOAD PUSH8 0xFFFFFFFFFFFFFFFF DUP2 GT ISZERO PUSH2 0x203E JUMPI PUSH2 0x203D PUSH2 0x1AD4 JUMP JUMPDEST JUMPDEST PUSH2 0x204A DUP8 DUP3 DUP9 ADD PUSH2 0x1F5A JUMP JUMPDEST SWAP5 POP SWAP5 POP POP PUSH1 0x20 DUP6 ADD CALLDATALOAD PUSH8 0xFFFFFFFFFFFFFFFF DUP2 GT ISZERO PUSH2 0x206D JUMPI PUSH2 0x206C PUSH2 0x1AD4 JUMP JUMPDEST JUMPDEST PUSH2 0x2079 DUP8 DUP3 DUP9 ADD PUSH2 0x1FB0 JUMP JUMPDEST SWAP3 POP SWAP3 POP POP SWAP3 SWAP6 SWAP2 SWAP5 POP SWAP3 POP JUMP JUMPDEST PUSH1 0x0 DUP2 SWAP1 POP SWAP2 SWAP1 POP JUMP JUMPDEST PUSH1 0x0 PUSH2 0x20AC PUSH2 0x20A7 PUSH2 0x20A2 DUP5 PUSH2 0x1E76 JUMP JUMPDEST PUSH2 0x2087 JUMP JUMPDEST PUSH2 0x1E76 JUMP JUMPDEST SWAP1 POP SWAP2 SWAP1 POP JUMP JUMPDEST PUSH1 0x0 PUSH2 0x20BE DUP3 PUSH2 0x2091 JUMP JUMPDEST SWAP1 POP SWAP2 SWAP1 POP JUMP JUMPDEST PUSH1 0x0 PUSH2 0x20D0 DUP3 PUSH2 0x20B3 JUMP JUMPDEST SWAP1 POP SWAP2 SWAP1 POP JUMP JUMPDEST PUSH2 0x20E0 DUP2 PUSH2 0x20C5 JUMP JUMPDEST DUP3 MSTORE POP POP JUMP JUMPDEST PUSH1 0x0 PUSH1 0x20 DUP3 ADD SWAP1 POP PUSH2 0x20FB PUSH1 0x0 DUP4 ADD DUP5 PUSH2 0x20D7 JUMP JUMPDEST SWAP3 SWAP2 POP POP JUMP JUMPDEST PUSH1 0x0 DUP3 DUP3 MSTORE PUSH1 0x20 DUP3 ADD SWAP1 POP SWAP3 SWAP2 POP POP JUMP JUMPDEST PUSH32 0x506C6561736520636865636B2074686520646174612C20746865206E65777320 PUSH1 0x0 DUP3 ADD MSTORE PUSH32 0x494420616E6420646973747269627574696F6E207175616E7469747920617265 PUSH1 0x20 DUP3 ADD MSTORE PUSH32 0x20696E636F6E73697374656E7400000000000000000000000000000000000000 PUSH1 0x40 DUP3 ADD MSTORE POP JUMP JUMPDEST PUSH1 0x0 PUSH2 0x2194 PUSH1 0x4D DUP4 PUSH2 0x2101 JUMP JUMPDEST SWAP2 POP PUSH2 0x219F DUP3 PUSH2 0x2112 JUMP JUMPDEST PUSH1 0x60 DUP3 ADD SWAP1 POP SWAP2 SWAP1 POP JUMP JUMPDEST PUSH1 0x0 PUSH1 0x20 DUP3 ADD SWAP1 POP DUP2 DUP2 SUB PUSH1 0x0 DUP4 ADD MSTORE PUSH2 0x21C3 DUP2 PUSH2 0x2187 JUMP JUMPDEST SWAP1 POP SWAP2 SWAP1 POP JUMP JUMPDEST PUSH32 0x52656C656173653A206E6565642073657420546F6B656E204164647265737300 PUSH1 0x0 DUP3 ADD MSTORE POP JUMP JUMPDEST PUSH1 0x0 PUSH2 0x2200 PUSH1 0x1F DUP4 PUSH2 0x2101 JUMP JUMPDEST SWAP2 POP PUSH2 0x220B DUP3 PUSH2 0x21CA JUMP JUMPDEST PUSH1 0x20 DUP3 ADD SWAP1 POP SWAP2 SWAP1 POP JUMP JUMPDEST PUSH1 0x0 PUSH1 0x20 DUP3 ADD SWAP1 POP DUP2 DUP2 SUB PUSH1 0x0 DUP4 ADD MSTORE PUSH2 0x222F DUP2 PUSH2 0x21F3 JUMP JUMPDEST SWAP1 POP SWAP2 SWAP1 POP JUMP JUMPDEST PUSH32 0x52656C656173653A206E65656420736574204368616C6C656E6720436F6E7472 PUSH1 0x0 DUP3 ADD MSTORE PUSH32 0x6163742041646472657373000000000000000000000000000000000000000000 PUSH1 0x20 DUP3 ADD MSTORE POP JUMP JUMPDEST PUSH1 0x0 PUSH2 0x2292 PUSH1 0x2B DUP4 PUSH2 0x2101 JUMP JUMPDEST SWAP2 POP PUSH2 0x229D DUP3 PUSH2 0x2236 JUMP JUMPDEST PUSH1 0x40 DUP3 ADD SWAP1 POP SWAP2 SWAP1 POP JUMP JUMPDEST PUSH1 0x0 PUSH1 0x20 DUP3 ADD SWAP1 POP DUP2 DUP2 SUB PUSH1 0x0 DUP4 ADD MSTORE PUSH2 0x22C1 DUP2 PUSH2 0x2285 JUMP JUMPDEST SWAP1 POP SWAP2 SWAP1 POP JUMP JUMPDEST PUSH32 0x4E487B7100000000000000000000000000000000000000000000000000000000 PUSH1 0x0 MSTORE PUSH1 0x32 PUSH1 0x4 MSTORE PUSH1 0x24 PUSH1 0x0 REVERT JUMPDEST PUSH32 0x4E487B7100000000000000000000000000000000000000000000000000000000 PUSH1 0x0 MSTORE PUSH1 0x11 PUSH1 0x4 MSTORE PUSH1 0x24 PUSH1 0x0 REVERT JUMPDEST PUSH1 0x0 PUSH2 0x2331 DUP3 PUSH2 0x1D31 JUMP JUMPDEST SWAP2 POP PUSH2 0x233C DUP4 PUSH2 0x1D31 JUMP JUMPDEST SWAP3 POP DUP3 DUP3 ADD SWAP1 POP DUP1 DUP3 GT ISZERO PUSH2 0x2354 JUMPI PUSH2 0x2353 PUSH2 0x22F7 JUMP JUMPDEST JUMPDEST SWAP3 SWAP2 POP POP JUMP JUMPDEST PUSH1 0x0 PUSH2 0x2365 DUP3 PUSH2 0x1D31 JUMP JUMPDEST SWAP2 POP PUSH32 0xFFFFFFFFFFFFFFFFFFFFFFFFFFFFFFFFFFFFFFFFFFFFFFFFFFFFFFFFFFFFFFFF DUP3 SUB PUSH2 0x2397 JUMPI PUSH2 0x2396 PUSH2 0x22F7 JUMP JUMPDEST JUMPDEST PUSH1 0x1 DUP3 ADD SWAP1 POP SWAP2 SWAP1 POP JUMP JUMPDEST PUSH32 0x52656C656173653A20496E73756666696369656E7420746F74616C20616D6F75 PUSH1 0x0 DUP3 ADD MSTORE PUSH32 0x6E7420617661696C61626C6520666F7220646973747269627574696F6E000000 PUSH1 0x20 DUP3 ADD MSTORE POP JUMP JUMPDEST PUSH1 0x0 PUSH2 0x23FE PUSH1 0x3D DUP4 PUSH2 0x2101 JUMP JUMPDEST SWAP2 POP PUSH2 0x2409 DUP3 PUSH2 0x23A2 JUMP JUMPDEST PUSH1 0x40 DUP3 ADD SWAP1 POP SWAP2 SWAP1 POP JUMP JUMPDEST PUSH1 0x0 PUSH1 0x20 DUP3 ADD SWAP1 POP DUP2 DUP2 SUB PUSH1 0x0 DUP4 ADD MSTORE PUSH2 0x242D DUP2 PUSH2 0x23F1 JUMP JUMPDEST SWAP1 POP SWAP2 SWAP1 POP JUMP JUMPDEST PUSH1 0x0 DUP2 MLOAD SWAP1 POP SWAP2 SWAP1 POP JUMP JUMPDEST PUSH1 0x0 JUMPDEST DUP4 DUP2 LT ISZERO PUSH2 0x245D JUMPI DUP1 DUP3 ADD MLOAD DUP2 DUP5 ADD MSTORE PUSH1 0x20 DUP2 ADD SWAP1 POP PUSH2 0x2442 JUMP JUMPDEST PUSH1 0x0 DUP5 DUP5 ADD MSTORE POP POP POP POP JUMP JUMPDEST PUSH1 0x0 PUSH2 0x2474 DUP3 PUSH2 0x2434 JUMP JUMPDEST PUSH2 0x247E DUP2 DUP6 PUSH2 0x2101 JUMP JUMPDEST SWAP4 POP PUSH2 0x248E DUP2 DUP6 PUSH1 0x20 DUP7 ADD PUSH2 0x243F JUMP JUMPDEST PUSH2 0x2497 DUP2 PUSH2 0x1ADE JUMP JUMPDEST DUP5 ADD SWAP2 POP POP SWAP3 SWAP2 POP POP JUMP JUMPDEST PUSH1 0x0 PUSH1 0x20 DUP3 ADD SWAP1 POP DUP2 DUP2 SUB PUSH1 0x0 DUP4 ADD MSTORE PUSH2 0x24BC DUP2 DUP5 PUSH2 0x2469 JUMP JUMPDEST SWAP1 POP SWAP3 SWAP2 POP POP JUMP JUMPDEST PUSH1 0x0 DUP1 REVERT JUMPDEST PUSH1 0x0 DUP1 REVERT JUMPDEST PUSH1 0x0 PUSH2 0x24E1 PUSH2 0x24DC DUP5 PUSH2 0x1BA0 JUMP JUMPDEST PUSH2 0x1B4F JUMP JUMPDEST SWAP1 POP DUP3 DUP2 MSTORE PUSH1 0x20 DUP2 ADD DUP5 DUP5 DUP5 ADD GT ISZERO PUSH2 0x24FD JUMPI PUSH2 0x24FC PUSH2 0x1B9B JUMP JUMPDEST JUMPDEST PUSH2 0x2508 DUP5 DUP3 DUP6 PUSH2 0x243F JUMP JUMPDEST POP SWAP4 SWAP3 POP POP POP JUMP JUMPDEST PUSH1 0x0 DUP3 PUSH1 0x1F DUP4 ADD SLT PUSH2 0x2525 JUMPI PUSH2 0x2524 PUSH2 0x1AD9 JUMP JUMPDEST JUMPDEST DUP2 MLOAD PUSH2 0x2535 DUP5 DUP3 PUSH1 0x20 DUP7 ADD PUSH2 0x24CE JUMP JUMPDEST SWAP2 POP POP SWAP3 SWAP2 POP POP JUMP JUMPDEST PUSH1 0x0 DUP2 MLOAD SWAP1 POP PUSH2 0x254D DUP2 PUSH2 0x1EA8 JUMP JUMPDEST SWAP3 SWAP2 POP POP JUMP JUMPDEST PUSH1 0x0 DUP2 MLOAD SWAP1 POP PUSH2 0x2562 DUP2 PUSH2 0x1D3B JUMP JUMPDEST SWAP3 SWAP2 POP POP JUMP JUMPDEST PUSH1 0x0 DUP2 ISZERO ISZERO SWAP1 POP SWAP2 SWAP1 POP JUMP JUMPDEST PUSH2 0x257D DUP2 PUSH2 0x2568 JUMP JUMPDEST DUP2 EQ PUSH2 0x2588 JUMPI PUSH1 0x0 DUP1 REVERT JUMPDEST POP JUMP JUMPDEST PUSH1 0x0 DUP2 MLOAD SWAP1 POP PUSH2 0x259A DUP2 PUSH2 0x2574 JUMP JUMPDEST SWAP3 SWAP2 POP POP JUMP JUMPDEST PUSH1 0x0 PUSH2 0x180 DUP3 DUP5 SUB SLT ISZERO PUSH2 0x25B7 JUMPI PUSH2 0x25B6 PUSH2 0x24C4 JUMP JUMPDEST JUMPDEST PUSH2 0x25C2 PUSH2 0x180 PUSH2 0x1B4F JUMP JUMPDEST SWAP1 POP PUSH1 0x0 DUP3 ADD MLOAD PUSH8 0xFFFFFFFFFFFFFFFF DUP2 GT ISZERO PUSH2 0x25E2 JUMPI PUSH2 0x25E1 PUSH2 0x24C9 JUMP JUMPDEST JUMPDEST PUSH2 0x25EE DUP5 DUP3 DUP6 ADD PUSH2 0x2510 JUMP JUMPDEST PUSH1 0x0 DUP4 ADD MSTORE POP PUSH1 0x20 PUSH2 0x2602 DUP5 DUP3 DUP6 ADD PUSH2 0x253E JUMP JUMPDEST PUSH1 0x20 DUP4 ADD MSTORE POP PUSH1 0x40 PUSH2 0x2616 DUP5 DUP3 DUP6 ADD PUSH2 0x2553 JUMP JUMPDEST PUSH1 0x40 DUP4 ADD MSTORE POP PUSH1 0x60 PUSH2 0x262A DUP5 DUP3 DUP6 ADD PUSH2 0x2553 JUMP JUMPDEST PUSH1 0x60 DUP4 ADD MSTORE POP PUSH1 0x80 PUSH2 0x263E DUP5 DUP3 DUP6 ADD PUSH2 0x258B JUMP JUMPDEST PUSH1 0x80 DUP4 ADD MSTORE POP PUSH1 0xA0 PUSH2 0x2652 DUP5 DUP3 DUP6 ADD PUSH2 0x258B JUMP JUMPDEST PUSH1 0xA0 DUP4 ADD MSTORE POP PUSH1 0xC0 PUSH2 0x2666 DUP5 DUP3 DUP6 ADD PUSH2 0x258B JUMP JUMPDEST PUSH1 0xC0 DUP4 ADD MSTORE POP PUSH1 0xE0 PUSH2 0x267A DUP5 DUP3 DUP6 ADD PUSH2 0x2553 JUMP JUMPDEST PUSH1 0xE0 DUP4 ADD MSTORE POP PUSH2 0x100 PUSH2 0x268F DUP5 DUP3 DUP6 ADD PUSH2 0x258B JUMP JUMPDEST PUSH2 0x100 DUP4 ADD MSTORE POP PUSH2 0x120 PUSH2 0x26A5 DUP5 DUP3 DUP6 ADD PUSH2 0x2553 JUMP JUMPDEST PUSH2 0x120 DUP4 ADD MSTORE POP PUSH2 0x140 PUSH2 0x26BB DUP5 DUP3 DUP6 ADD PUSH2 0x2553 JUMP JUMPDEST PUSH2 0x140 DUP4 ADD MSTORE POP PUSH2 0x160 PUSH2 0x26D1 DUP5 DUP3 DUP6 ADD PUSH2 0x2553 JUMP JUMPDEST PUSH2 0x160 DUP4 ADD MSTORE POP SWAP3 SWAP2 POP POP JUMP JUMPDEST PUSH1 0x0 PUSH1 0x20 DUP3 DUP5 SUB SLT ISZERO PUSH2 0x26F4 JUMPI PUSH2 0x26F3 PUSH2 0x1ACF JUMP JUMPDEST JUMPDEST PUSH1 0x0 DUP3 ADD MLOAD PUSH8 0xFFFFFFFFFFFFFFFF DUP2 GT ISZERO PUSH2 0x2712 JUMPI PUSH2 0x2711 PUSH2 0x1AD4 JUMP JUMPDEST JUMPDEST PUSH2 0x271E DUP5 DUP3 DUP6 ADD PUSH2 0x25A0 JUMP JUMPDEST SWAP2 POP POP SWAP3 SWAP2 POP POP JUMP JUMPDEST PUSH32 0x52656C656173653A206E656564207365742066756E20706F6F6C204164647265 PUSH1 0x0 DUP3 ADD MSTORE PUSH32 0x7373000000000000000000000000000000000000000000000000000000000000 PUSH1 0x20 DUP3 ADD MSTORE POP JUMP JUMPDEST PUSH1 0x0 PUSH2 0x2783 PUSH1 0x22 DUP4 PUSH2 0x2101 JUMP JUMPDEST SWAP2 POP PUSH2 0x278E DUP3 PUSH2 0x2727 JUMP JUMPDEST PUSH1 0x40 DUP3 ADD SWAP1 POP SWAP2 SWAP1 POP JUMP JUMPDEST PUSH1 0x0 PUSH1 0x20 DUP3 ADD SWAP1 POP DUP2 DUP2 SUB PUSH1 0x0 DUP4 ADD MSTORE PUSH2 0x27B2 DUP2 PUSH2 0x2776 JUMP JUMPDEST SWAP1 POP SWAP2 SWAP1 POP JUMP JUMPDEST PUSH1 0x0 PUSH1 0x20 DUP3 DUP5 SUB SLT ISZERO PUSH2 0x27CF JUMPI PUSH2 0x27CE PUSH2 0x1ACF JUMP JUMPDEST JUMPDEST PUSH1 0x0 PUSH2 0x27DD DUP5 DUP3 DUP6 ADD PUSH2 0x2553 JUMP JUMPDEST SWAP2 POP POP SWAP3 SWAP2 POP POP JUMP JUMPDEST PUSH1 0x0 PUSH2 0x27F1 DUP3 PUSH2 0x1D31 JUMP JUMPDEST SWAP2 POP PUSH2 0x27FC DUP4 PUSH2 0x1D31 JUMP JUMPDEST SWAP3 POP DUP3 DUP3 MUL PUSH2 0x280A DUP2 PUSH2 0x1D31 JUMP JUMPDEST SWAP2 POP DUP3 DUP3 DIV DUP5 EQ DUP4 ISZERO OR PUSH2 0x2821 JUMPI PUSH2 0x2820 PUSH2 0x22F7 JUMP JUMPDEST JUMPDEST POP SWAP3 SWAP2 POP POP JUMP JUMPDEST PUSH32 0x4E487B7100000000000000000000000000000000000000000000000000000000 PUSH1 0x0 MSTORE PUSH1 0x12 PUSH1 0x4 MSTORE PUSH1 0x24 PUSH1 0x0 REVERT JUMPDEST PUSH1 0x0 PUSH2 0x2862 DUP3 PUSH2 0x1D31 JUMP JUMPDEST SWAP2 POP PUSH2 0x286D DUP4 PUSH2 0x1D31 JUMP JUMPDEST SWAP3 POP DUP3 PUSH2 0x287D JUMPI PUSH2 0x287C PUSH2 0x2828 JUMP JUMPDEST JUMPDEST DUP3 DUP3 DIV SWAP1 POP SWAP3 SWAP2 POP POP JUMP JUMPDEST PUSH32 0x52656C656173653A20496E73756666696369656E7420746F74616C20616D6F75 PUSH1 0x0 DUP3 ADD MSTORE PUSH32 0x6E7420617661696C61626C6520666F7220646973747269627574696F6E210000 PUSH1 0x20 DUP3 ADD MSTORE POP JUMP JUMPDEST PUSH1 0x0 PUSH2 0x28E4 PUSH1 0x3E DUP4 PUSH2 0x2101 JUMP JUMPDEST SWAP2 POP PUSH2 0x28EF DUP3 PUSH2 0x2888 JUMP JUMPDEST PUSH1 0x40 DUP3 ADD SWAP1 POP SWAP2 SWAP1 POP JUMP JUMPDEST PUSH1 0x0 PUSH1 0x20 DUP3 ADD SWAP1 POP DUP2 DUP2 SUB PUSH1 0x0 DUP4 ADD MSTORE PUSH2 0x2913 DUP2 PUSH2 0x28D7 JUMP JUMPDEST SWAP1 POP SWAP2 SWAP1 POP JUMP JUMPDEST PUSH32 0x52656C656173653A206E6565642073657420526563656976696E672041646472 PUSH1 0x0 DUP3 ADD MSTORE PUSH32 0x6573730000000000000000000000000000000000000000000000000000000000 PUSH1 0x20 DUP3 ADD MSTORE POP JUMP JUMPDEST PUSH1 0x0 PUSH2 0x2976 PUSH1 0x23 DUP4 PUSH2 0x2101 JUMP JUMPDEST SWAP2 POP PUSH2 0x2981 DUP3 PUSH2 0x291A JUMP JUMPDEST PUSH1 0x40 DUP3 ADD SWAP1 POP SWAP2 SWAP1 POP JUMP JUMPDEST PUSH1 0x0 PUSH1 0x20 DUP3 ADD SWAP1 POP DUP2 DUP2 SUB PUSH1 0x0 DUP4 ADD MSTORE PUSH2 0x29A5 DUP2 PUSH2 0x2969 JUMP JUMPDEST SWAP1 POP SWAP2 SWAP1 POP JUMP JUMPDEST PUSH32 0x546865206E756D626572206F66206169722064726F7073206578636565647320 PUSH1 0x0 DUP3 ADD MSTORE PUSH32 0x746865206461696C792072656C6561736520616D6F756E740000000000000000 PUSH1 0x20 DUP3 ADD MSTORE POP JUMP JUMPDEST PUSH1 0x0 PUSH2 0x2A08 PUSH1 0x38 DUP4 PUSH2 0x2101 JUMP JUMPDEST SWAP2 POP PUSH2 0x2A13 DUP3 PUSH2 0x29AC JUMP JUMPDEST PUSH1 0x40 DUP3 ADD SWAP1 POP SWAP2 SWAP1 POP JUMP JUMPDEST PUSH1 0x0 PUSH1 0x20 DUP3 ADD SWAP1 POP DUP2 DUP2 SUB PUSH1 0x0 DUP4 ADD MSTORE PUSH2 0x2A37 DUP2 PUSH2 0x29FB JUMP JUMPDEST SWAP1 POP SWAP2 SWAP1 POP JUMP JUMPDEST PUSH32 0x52656C656173653A206E65656420736574206368616E6E656C20726577617264 PUSH1 0x0 DUP3 ADD MSTORE PUSH32 0x7320416464726573730000000000000000000000000000000000000000000000 PUSH1 0x20 DUP3 ADD MSTORE POP JUMP JUMPDEST PUSH1 0x0 PUSH2 0x2A9A PUSH1 0x29 DUP4 PUSH2 0x2101 JUMP JUMPDEST SWAP2 POP PUSH2 0x2AA5 DUP3 PUSH2 0x2A3E JUMP JUMPDEST PUSH1 0x40 DUP3 ADD SWAP1 POP SWAP2 SWAP1 POP JUMP JUMPDEST PUSH1 0x0 PUSH1 0x20 DUP3 ADD SWAP1 POP DUP2 DUP2 SUB PUSH1 0x0 DUP4 ADD MSTORE PUSH2 0x2AC9 DUP2 PUSH2 0x2A8D JUMP JUMPDEST SWAP1 POP SWAP2 SWAP1 POP JUMP JUMPDEST PUSH32 0x52656C656173653A20496E73756666696369656E7420746F74616C20616D6F75 PUSH1 0x0 DUP3 ADD MSTORE PUSH32 0x6E7420617661696C61626C6520666F7220646973747269627574696F6E212100 PUSH1 0x20 DUP3 ADD MSTORE POP JUMP JUMPDEST PUSH1 0x0 PUSH2 0x2B2C PUSH1 0x3F DUP4 PUSH2 0x2101 JUMP JUMPDEST SWAP2 POP PUSH2 0x2B37 DUP3 PUSH2 0x2AD0 JUMP JUMPDEST PUSH1 0x40 DUP3 ADD SWAP1 POP SWAP2 SWAP1 POP JUMP JUMPDEST PUSH1 0x0 PUSH1 0x20 DUP3 ADD SWAP1 POP DUP2 DUP2 SUB PUSH1 0x0 DUP4 ADD MSTORE PUSH2 0x2B5B DUP2 PUSH2 0x2B1F JUMP JUMPDEST SWAP1 POP SWAP2 SWAP1 POP JUMP JUMPDEST PUSH1 0x0 PUSH1 0x60 DUP3 ADD SWAP1 POP PUSH2 0x2B77 PUSH1 0x0 DUP4 ADD DUP7 PUSH2 0x1F2B JUMP JUMPDEST PUSH2 0x2B84 PUSH1 0x20 DUP4 ADD DUP6 PUSH2 0x1F2B JUMP JUMPDEST PUSH2 0x2B91 PUSH1 0x40 DUP4 ADD DUP5 PUSH2 0x1F01 JUMP JUMPDEST SWAP5 SWAP4 POP POP POP POP JUMP JUMPDEST PUSH32 0x536166654D6174683A206164646974696F6E206F766572666C6F770000000000 PUSH1 0x0 DUP3 ADD MSTORE POP JUMP JUMPDEST PUSH1 0x0 PUSH2 0x2BCF PUSH1 0x1B DUP4 PUSH2 0x2101 JUMP JUMPDEST SWAP2 POP PUSH2 0x2BDA DUP3 PUSH2 0x2B99 JUMP JUMPDEST PUSH1 0x20 DUP3 ADD SWAP1 POP SWAP2 SWAP1 POP JUMP JUMPDEST PUSH1 0x0 PUSH1 0x20 DUP3 ADD SWAP1 POP DUP2 DUP2 SUB PUSH1 0x0 DUP4 ADD MSTORE PUSH2 0x2BFE DUP2 PUSH2 0x2BC2 JUMP JUMPDEST SWAP1 POP SWAP2 SWAP1 POP JUMP JUMPDEST PUSH1 0x0 PUSH1 0x20 DUP3 DUP5 SUB SLT ISZERO PUSH2 0x2C1B JUMPI PUSH2 0x2C1A PUSH2 0x1ACF JUMP JUMPDEST JUMPDEST PUSH1 0x0 PUSH2 0x2C29 DUP5 DUP3 DUP6 ADD PUSH2 0x258B JUMP JUMPDEST SWAP2 POP POP SWAP3 SWAP2 POP POP JUMP JUMPDEST PUSH32 0x5361666545524332303A204552433230206F7065726174696F6E20646964206E PUSH1 0x0 DUP3 ADD MSTORE PUSH32 0x6F74207375636365656400000000000000000000000000000000000000000000 PUSH1 0x20 DUP3 ADD MSTORE POP JUMP JUMPDEST PUSH1 0x0 PUSH2 0x2C8E PUSH1 0x2A DUP4 PUSH2 0x2101 JUMP JUMPDEST SWAP2 POP PUSH2 0x2C99 DUP3 PUSH2 0x2C32 JUMP JUMPDEST PUSH1 0x40 DUP3 ADD SWAP1 POP SWAP2 SWAP1 POP JUMP JUMPDEST PUSH1 0x0 PUSH1 0x20 DUP3 ADD SWAP1 POP DUP2 DUP2 SUB PUSH1 0x0 DUP4 ADD MSTORE PUSH2 0x2CBD DUP2 PUSH2 0x2C81 JUMP JUMPDEST SWAP1 POP SWAP2 SWAP1 POP JUMP JUMPDEST PUSH32 0x416464726573733A20696E73756666696369656E742062616C616E636520666F PUSH1 0x0 DUP3 ADD MSTORE PUSH32 0x722063616C6C0000000000000000000000000000000000000000000000000000 PUSH1 0x20 DUP3 ADD MSTORE POP JUMP JUMPDEST PUSH1 0x0 PUSH2 0x2D20 PUSH1 0x26 DUP4 PUSH2 0x2101 JUMP JUMPDEST SWAP2 POP PUSH2 0x2D2B DUP3 PUSH2 0x2CC4 JUMP JUMPDEST PUSH1 0x40 DUP3 ADD SWAP1 POP SWAP2 SWAP1 POP JUMP JUMPDEST PUSH1 0x0 PUSH1 0x20 DUP3 ADD SWAP1 POP DUP2 DUP2 SUB PUSH1 0x0 DUP4 ADD MSTORE PUSH2 0x2D4F DUP2 PUSH2 0x2D13 JUMP JUMPDEST SWAP1 POP SWAP2 SWAP1 POP JUMP JUMPDEST PUSH32 0x416464726573733A2063616C6C20746F206E6F6E2D636F6E7472616374000000 PUSH1 0x0 DUP3 ADD MSTORE POP JUMP JUMPDEST PUSH1 0x0 PUSH2 0x2D8C PUSH1 0x1D DUP4 PUSH2 0x2101 JUMP JUMPDEST SWAP2 POP PUSH2 0x2D97 DUP3 PUSH2 0x2D56 JUMP JUMPDEST PUSH1 0x20 DUP3 ADD SWAP1 POP SWAP2 SWAP1 POP JUMP JUMPDEST PUSH1 0x0 PUSH1 0x20 DUP3 ADD SWAP1 POP DUP2 DUP2 SUB PUSH1 0x0 DUP4 ADD MSTORE PUSH2 0x2DBB DUP2 PUSH2 0x2D7F JUMP JUMPDEST SWAP1 POP SWAP2 SWAP1 POP JUMP JUMPDEST PUSH1 0x0 DUP2 MLOAD SWAP1 POP SWAP2 SWAP1 POP JUMP JUMPDEST PUSH1 0x0 DUP2 SWAP1 POP SWAP3 SWAP2 POP POP JUMP JUMPDEST PUSH1 0x0 PUSH2 0x2DE3 DUP3 PUSH2 0x2DC2 JUMP JUMPDEST PUSH2 0x2DED DUP2 DUP6 PUSH2 0x2DCD JUMP JUMPDEST SWAP4 POP PUSH2 0x2DFD DUP2 DUP6 PUSH1 0x20 DUP7 ADD PUSH2 0x243F JUMP JUMPDEST DUP1 DUP5 ADD SWAP2 POP POP SWAP3 SWAP2 POP POP JUMP JUMPDEST PUSH1 0x0 PUSH2 0x2E15 DUP3 DUP5 PUSH2 0x2DD8 JUMP JUMPDEST SWAP2 POP DUP2 SWAP1 POP SWAP3 SWAP2 POP POP JUMP INVALID LOG2 PUSH5 0x6970667358 0x22 SLT KECCAK256 0x2D SMOD 0x1F LT JUMPDEST DUP14 0x29 ORIGIN 0x2D PUSH14 0xB1DDEDE2777A370EEA023EE12A85 0xCD PUSH25 0x8DA81BCF1ED64736F6C634300081200330000000000000000 "
				},
				"gasEstimates": {
					"creation": {
						"codeDepositCost": "2372400",
						"executionCost": "93129",
						"totalCost": "2465529"
					},
					"external": {
						"changeOwner(address)": "26959",
						"decimals()": "2482",
						"distributionToChannelRewardsAddress()": "infinite",
						"distributionToFunPoolAddress()": "infinite",
						"distributionToSpecify(address[],uint256[])": "infinite",
						"getChannelRewardsAddress()": "2589",
						"getContractAddrss()": "2611",
						"getFunPoolAddress()": "2566",
						"getLockContractAddress()": "2567",
						"getReleaseContractAddress()": "2633",
						"getTimestamp()": "426",
						"getTotalReleased()": "2548",
						"sendMasterToken(string[],uint256[])": "infinite",
						"sendMasterTokenLock(string[],uint256[])": "infinite",
						"setChallengContract(address)": "24810",
						"setChannelRewardsAddress(address)": "24744",
						"setFunPoolAddress(address)": "24811",
						"setLockContractAddress(address)": "24788",
						"setReceivingAddress(address)": "26938",
						"setReleaseContractAddress(address)": "24832",
						"setTokenAddress(address)": "27004",
						"token()": "infinite",
						"tokenBalance()": "infinite"
					}
				},
				"methodIdentifiers": {
					"changeOwner(address)": "a6f9dae1",
					"decimals()": "313ce567",
					"distributionToChannelRewardsAddress()": "bb7fa2e6",
					"distributionToFunPoolAddress()": "159eea95",
					"distributionToSpecify(address[],uint256[])": "5459b8a3",
					"getChannelRewardsAddress()": "3c0e473c",
					"getContractAddrss()": "47a58626",
					"getFunPoolAddress()": "c1723009",
					"getLockContractAddress()": "a39865e7",
					"getReleaseContractAddress()": "b8c11803",
					"getTimestamp()": "188ec356",
					"getTotalReleased()": "4b14c0ef",
					"sendMasterToken(string[],uint256[])": "2a5f669a",
					"sendMasterTokenLock(string[],uint256[])": "0af8668f",
					"setChallengContract(address)": "c52c31fa",
					"setChannelRewardsAddress(address)": "bbf20774",
					"setFunPoolAddress(address)": "aa807ba4",
					"setLockContractAddress(address)": "c4529e37",
					"setReceivingAddress(address)": "119f2590",
					"setReleaseContractAddress(address)": "fba825fe",
					"setTokenAddress(address)": "26a4e8d2",
					"token()": "fc0c546a",
					"tokenBalance()": "9e1a4d19"
				}
			},
			"storageLayout": {
				"storage": [
					{
						"astId": 791,
						"contract": "challeng/my_contract/distribution.sol:Distribution",
						"label": "_token",
						"offset": 0,
						"slot": "0",
						"type": "t_contract(IERC20)115"
					},
					{
						"astId": 793,
						"contract": "challeng/my_contract/distribution.sol:Distribution",
						"label": "_contractAddrss",
						"offset": 0,
						"slot": "1",
						"type": "t_address"
					},
					{
						"astId": 795,
						"contract": "challeng/my_contract/distribution.sol:Distribution",
						"label": "_releaseContractAddress",
						"offset": 0,
						"slot": "2",
						"type": "t_address"
					},
					{
						"astId": 797,
						"contract": "challeng/my_contract/distribution.sol:Distribution",
						"label": "_lockContractAddress",
						"offset": 0,
						"slot": "3",
						"type": "t_address"
					},
					{
						"astId": 799,
						"contract": "challeng/my_contract/distribution.sol:Distribution",
						"label": "_funPoolAddress",
						"offset": 0,
						"slot": "4",
						"type": "t_address"
					},
					{
						"astId": 801,
						"contract": "challeng/my_contract/distribution.sol:Distribution",
						"label": "_channelRewardsAddress",
						"offset": 0,
						"slot": "5",
						"type": "t_address"
					},
					{
						"astId": 804,
						"contract": "challeng/my_contract/distribution.sol:Distribution",
						"label": "funPoolScale",
						"offset": 0,
						"slot": "6",
						"type": "t_uint256"
					},
					{
						"astId": 807,
						"contract": "challeng/my_contract/distribution.sol:Distribution",
						"label": "channelRewardsScale",
						"offset": 0,
						"slot": "7",
						"type": "t_uint256"
					},
					{
						"astId": 809,
						"contract": "challeng/my_contract/distribution.sol:Distribution",
						"label": "_receivingAddress",
						"offset": 0,
						"slot": "8",
						"type": "t_address"
					},
					{
						"astId": 812,
						"contract": "challeng/my_contract/distribution.sol:Distribution",
						"label": "_decimals",
						"offset": 0,
						"slot": "9",
						"type": "t_uint256"
					},
					{
						"astId": 814,
						"contract": "challeng/my_contract/distribution.sol:Distribution",
						"label": "_totalReleased",
						"offset": 0,
						"slot": "10",
						"type": "t_uint256"
					},
					{
						"astId": 816,
						"contract": "challeng/my_contract/distribution.sol:Distribution",
						"label": "_owner",
						"offset": 0,
						"slot": "11",
						"type": "t_address"
					}
				],
				"types": {
					"t_address": {
						"encoding": "inplace",
						"label": "address",
						"numberOfBytes": "20"
					},
					"t_contract(IERC20)115": {
						"encoding": "inplace",
						"label": "contract IERC20",
						"numberOfBytes": "20"
					},
					"t_uint256": {
						"encoding": "inplace",
						"label": "uint256",
						"numberOfBytes": "32"
					}
				}
			},
			"userdoc": {
				"kind": "user",
				"methods": {},
				"version": 1
			}
		}
	}
}