{
	"challeng/my_contract/Challeng-v2.sol": {
		"challenge": {
			"abi": [
				{
					"inputs": [],
					"stateMutability": "nonpayable",
					"type": "constructor"
				},
				{
					"inputs": [
						{
							"internalType": "string",
							"name": "themeId_",
							"type": "string"
						},
						{
							"internalType": "bool",
							"name": "result_",
							"type": "bool"
						}
					],
					"name": "CompleteTheChallenge",
					"outputs": [],
					"stateMutability": "nonpayable",
					"type": "function"
				},
				{
					"inputs": [
						{
							"internalType": "string",
							"name": "themeId_",
							"type": "string"
						},
						{
							"internalType": "uint256",
							"name": "amount_",
							"type": "uint256"
						}
					],
					"name": "challengeTheme",
					"outputs": [],
					"stateMutability": "nonpayable",
					"type": "function"
				},
				{
					"inputs": [
						{
							"internalType": "string",
							"name": "themeId_",
							"type": "string"
						}
					],
					"name": "challengerReceiveRewards",
					"outputs": [],
					"stateMutability": "nonpayable",
					"type": "function"
				},
				{
					"inputs": [
						{
							"internalType": "string",
							"name": "themeId_",
							"type": "string"
						},
						{
							"internalType": "address",
							"name": "chanllenger_",
							"type": "address"
						}
					],
					"name": "getExchangeInfo",
					"outputs": [
						{
							"components": [
								{
									"internalType": "uint256",
									"name": "amount",
									"type": "uint256"
								},
								{
									"internalType": "uint256",
									"name": "challengeTime",
									"type": "uint256"
								},
								{
									"internalType": "bool",
									"name": "result",
									"type": "bool"
								},
								{
									"internalType": "bool",
									"name": "challeng",
									"type": "bool"
								},
								{
									"internalType": "bool",
									"name": "challengResult",
									"type": "bool"
								},
								{
									"internalType": "bool",
									"name": "hasReceive",
									"type": "bool"
								},
								{
									"internalType": "bool",
									"name": "theme",
									"type": "bool"
								},
								{
									"internalType": "uint256",
									"name": "reward",
									"type": "uint256"
								},
								{
									"internalType": "uint256",
									"name": "times",
									"type": "uint256"
								},
								{
									"internalType": "string",
									"name": "idstr",
									"type": "string"
								}
							],
							"internalType": "struct challenge.ChallengerInfo",
							"name": "",
							"type": "tuple"
						}
					],
					"stateMutability": "view",
					"type": "function"
				},
				{
					"inputs": [
						{
							"internalType": "string",
							"name": "themeId_",
							"type": "string"
						}
					],
					"name": "getTotalRewardByTheme",
					"outputs": [
						{
							"components": [
								{
									"internalType": "string",
									"name": "idstr",
									"type": "string"
								},
								{
									"internalType": "address",
									"name": "originator",
									"type": "address"
								},
								{
									"internalType": "uint256",
									"name": "reward",
									"type": "uint256"
								},
								{
									"internalType": "uint256",
									"name": "isCompleteTime",
									"type": "uint256"
								},
								{
									"internalType": "bool",
									"name": "isComplete",
									"type": "bool"
								},
								{
									"internalType": "bool",
									"name": "challenge",
									"type": "bool"
								},
								{
									"internalType": "bool",
									"name": "result",
									"type": "bool"
								},
								{
									"internalType": "uint256",
									"name": "challengeTotal",
									"type": "uint256"
								},
								{
									"internalType": "bool",
									"name": "hasReceive",
									"type": "bool"
								},
								{
									"internalType": "uint256",
									"name": "profit",
									"type": "uint256"
								},
								{
									"internalType": "uint256",
									"name": "odds",
									"type": "uint256"
								},
								{
									"internalType": "uint256",
									"name": "count",
									"type": "uint256"
								}
							],
							"internalType": "struct challenge.Theme",
							"name": "theme_",
							"type": "tuple"
						}
					],
					"stateMutability": "view",
					"type": "function"
				},
				{
					"inputs": [
						{
							"internalType": "string",
							"name": "themeId_",
							"type": "string"
						}
					],
					"name": "getTotalRewardByTheme2",
					"outputs": [
						{
							"components": [
								{
									"internalType": "string",
									"name": "idstr",
									"type": "string"
								},
								{
									"internalType": "address",
									"name": "originator",
									"type": "address"
								},
								{
									"internalType": "uint256",
									"name": "reward",
									"type": "uint256"
								},
								{
									"internalType": "uint256",
									"name": "isCompleteTime",
									"type": "uint256"
								},
								{
									"internalType": "bool",
									"name": "isComplete",
									"type": "bool"
								},
								{
									"internalType": "bool",
									"name": "challenge",
									"type": "bool"
								},
								{
									"internalType": "bool",
									"name": "result",
									"type": "bool"
								},
								{
									"internalType": "uint256",
									"name": "challengeTotal",
									"type": "uint256"
								},
								{
									"internalType": "bool",
									"name": "hasReceive",
									"type": "bool"
								},
								{
									"internalType": "uint256",
									"name": "profit",
									"type": "uint256"
								},
								{
									"internalType": "uint256",
									"name": "odds",
									"type": "uint256"
								},
								{
									"internalType": "uint256",
									"name": "count",
									"type": "uint256"
								}
							],
							"internalType": "struct challenge.Theme",
							"name": "rheme_",
							"type": "tuple"
						}
					],
					"stateMutability": "view",
					"type": "function"
				},
				{
					"inputs": [
						{
							"internalType": "string",
							"name": "themeId_",
							"type": "string"
						},
						{
							"internalType": "uint256",
							"name": "amount_",
							"type": "uint256"
						},
						{
							"internalType": "uint256",
							"name": "endTime",
							"type": "uint256"
						},
						{
							"internalType": "uint256",
							"name": "odds",
							"type": "uint256"
						}
					],
					"name": "initiationTheme",
					"outputs": [],
					"stateMutability": "nonpayable",
					"type": "function"
				},
				{
					"inputs": [
						{
							"internalType": "string",
							"name": "themeId_",
							"type": "string"
						}
					],
					"name": "publisherReceiveRewards",
					"outputs": [],
					"stateMutability": "nonpayable",
					"type": "function"
				},
				{
					"inputs": [
						{
							"internalType": "string",
							"name": "themeId_",
							"type": "string"
						},
						{
							"internalType": "uint256",
							"name": "amount_",
							"type": "uint256"
						}
					],
					"name": "test",
					"outputs": [
						{
							"internalType": "uint256",
							"name": "",
							"type": "uint256"
						},
						{
							"internalType": "uint256",
							"name": "",
							"type": "uint256"
						}
					],
					"stateMutability": "view",
					"type": "function"
				},
				{
					"inputs": [],
					"name": "tokenBalance",
					"outputs": [
						{
							"internalType": "uint256",
							"name": "",
							"type": "uint256"
						}
					],
					"stateMutability": "view",
					"type": "function"
				},
				{
					"inputs": [
						{
							"internalType": "string",
							"name": "themeId_",
							"type": "string"
						},
						{
							"internalType": "uint256",
							"name": "closeTime",
							"type": "uint256"
						}
					],
					"name": "updateThemeCompleteTime",
					"outputs": [],
					"stateMutability": "nonpayable",
					"type": "function"
				},
				{
					"inputs": [],
					"name": "withdrawal",
					"outputs": [],
					"stateMutability": "nonpayable",
					"type": "function"
				}
			],
			"devdoc": {
				"kind": "dev",
				"methods": {
					"constructor": {
						"details": "Deploys a timelock instance that is able to hold the token specified, and will only release it to `beneficiary_` when {release} is invoked after `releaseTime_`. The release time is specified as a Unix timestamp (in seconds)."
					}
				},
				"version": 1
			},
			"evm": {
				"assembly": "    /* \"challeng/my_contract/Challeng-v2.sol\":18641:27839  contract challenge{... */\n  mstore(0x40, 0x80)\n    /* \"challeng/my_contract/Challeng-v2.sol\":20257:20395  constructor(... */\n  callvalue\n  dup1\n  iszero\n  tag_1\n  jumpi\n  0x00\n  dup1\n  revert\ntag_1:\n  pop\n    /* \"challeng/my_contract/Challeng-v2.sol\":20341:20383  0xb8190d84475D09f4324685678A70EF5C2375Ef4b */\n  0xb8190d84475d09f4324685678a70ef5c2375ef4b\n    /* \"challeng/my_contract/Challeng-v2.sol\":20325:20331  _token */\n  0x00\n  dup1\n    /* \"challeng/my_contract/Challeng-v2.sol\":20325:20384  _token = IERC20(0xb8190d84475D09f4324685678A70EF5C2375Ef4b) */\n  0x0100\n  exp\n  dup2\n  sload\n  dup2\n  0xffffffffffffffffffffffffffffffffffffffff\n  mul\n  not\n  and\n  swap1\n  dup4\n  0xffffffffffffffffffffffffffffffffffffffff\n  and\n  mul\n  or\n  swap1\n  sstore\n  pop\n    /* \"challeng/my_contract/Challeng-v2.sol\":18641:27839  contract challenge{... */\n  dataSize(sub_0)\n  dup1\n  dataOffset(sub_0)\n  0x00\n  codecopy\n  0x00\n  return\nstop\n\nsub_0: assembly {\n        /* \"challeng/my_contract/Challeng-v2.sol\":18641:27839  contract challenge{... */\n      mstore(0x40, 0x80)\n      callvalue\n      dup1\n      iszero\n      tag_1\n      jumpi\n      0x00\n      dup1\n      revert\n    tag_1:\n      pop\n      jumpi(tag_2, lt(calldatasize, 0x04))\n      shr(0xe0, calldataload(0x00))\n      dup1\n      0x9e1a4d19\n      gt\n      tag_15\n      jumpi\n      dup1\n      0x9e1a4d19\n      eq\n      tag_9\n      jumpi\n      dup1\n      0xb0345a56\n      eq\n      tag_10\n      jumpi\n      dup1\n      0xb03f15c4\n      eq\n      tag_11\n      jumpi\n      dup1\n      0xc6905603\n      eq\n      tag_12\n      jumpi\n      dup1\n      0xd4e93292\n      eq\n      tag_13\n      jumpi\n      dup1\n      0xf89d0ec9\n      eq\n      tag_14\n      jumpi\n      jump(tag_2)\n    tag_15:\n      dup1\n      0x1d3bc3a6\n      eq\n      tag_3\n      jumpi\n      dup1\n      0x20215dc4\n      eq\n      tag_4\n      jumpi\n      dup1\n      0x47ce1f7e\n      eq\n      tag_5\n      jumpi\n      dup1\n      0x4c846b8b\n      eq\n      tag_6\n      jumpi\n      dup1\n      0x6441f9d0\n      eq\n      tag_7\n      jumpi\n      dup1\n      0x7a3c666d\n      eq\n      tag_8\n      jumpi\n    tag_2:\n      0x00\n      dup1\n      revert\n        /* \"challeng/my_contract/Challeng-v2.sol\":20860:21048  function getTotalRewardByTheme2(string memory themeId_ ) public view returns(Theme memory rheme_){... */\n    tag_3:\n      tag_16\n      0x04\n      dup1\n      calldatasize\n      sub\n      dup2\n      add\n      swap1\n      tag_17\n      swap2\n      swap1\n      tag_18\n      jump\t// in\n    tag_17:\n      tag_19\n      jump\t// in\n    tag_16:\n      mload(0x40)\n      tag_20\n      swap2\n      swap1\n      tag_21\n      jump\t// in\n    tag_20:\n      mload(0x40)\n      dup1\n      swap2\n      sub\n      swap1\n      return\n        /* \"challeng/my_contract/Challeng-v2.sol\":27387:27626  function getExchangeInfo(string memory themeId_,address chanllenger_) public view returns( ChallengerInfo memory  ) {... */\n    tag_4:\n      tag_22\n      0x04\n      dup1\n      calldatasize\n      sub\n      dup2\n      add\n      swap1\n      tag_23\n      swap2\n      swap1\n      tag_24\n      jump\t// in\n    tag_23:\n      tag_25\n      jump\t// in\n    tag_22:\n      mload(0x40)\n      tag_26\n      swap2\n      swap1\n      tag_27\n      jump\t// in\n    tag_26:\n      mload(0x40)\n      dup1\n      swap2\n      sub\n      swap1\n      return\n        /* \"challeng/my_contract/Challeng-v2.sol\":24183:25049  function CompleteTheChallenge(string memory themeId_,bool result_) public {... */\n    tag_5:\n      tag_28\n      0x04\n      dup1\n      calldatasize\n      sub\n      dup2\n      add\n      swap1\n      tag_29\n      swap2\n      swap1\n      tag_30\n      jump\t// in\n    tag_29:\n      tag_31\n      jump\t// in\n    tag_28:\n      stop\n        /* \"challeng/my_contract/Challeng-v2.sol\":26969:27329  function updateThemeCompleteTime(string memory themeId_,uint256 closeTime) public {... */\n    tag_6:\n      tag_32\n      0x04\n      dup1\n      calldatasize\n      sub\n      dup2\n      add\n      swap1\n      tag_33\n      swap2\n      swap1\n      tag_34\n      jump\t// in\n    tag_33:\n      tag_35\n      jump\t// in\n    tag_32:\n      stop\n        /* \"challeng/my_contract/Challeng-v2.sol\":20652:20800  function getTotalRewardByTheme(string memory themeId_ ) public view returns(Theme  memory theme_){... */\n    tag_7:\n      tag_36\n      0x04\n      dup1\n      calldatasize\n      sub\n      dup2\n      add\n      swap1\n      tag_37\n      swap2\n      swap1\n      tag_18\n      jump\t// in\n    tag_37:\n      tag_38\n      jump\t// in\n    tag_36:\n      mload(0x40)\n      tag_39\n      swap2\n      swap1\n      tag_21\n      jump\t// in\n    tag_39:\n      mload(0x40)\n      dup1\n      swap2\n      sub\n      swap1\n      return\n        /* \"challeng/my_contract/Challeng-v2.sol\":22159:24137  function challengeTheme(string memory themeId_,uint256 amount_) public  {... */\n    tag_8:\n      tag_40\n      0x04\n      dup1\n      calldatasize\n      sub\n      dup2\n      add\n      swap1\n      tag_41\n      swap2\n      swap1\n      tag_34\n      jump\t// in\n    tag_41:\n      tag_42\n      jump\t// in\n    tag_40:\n      stop\n        /* \"challeng/my_contract/Challeng-v2.sol\":20440:20593  function tokenBalance() public view virtual returns (uint256) {... */\n    tag_9:\n      tag_43\n      tag_44\n      jump\t// in\n    tag_43:\n      mload(0x40)\n      tag_45\n      swap2\n      swap1\n      tag_46\n      jump\t// in\n    tag_45:\n      mload(0x40)\n      dup1\n      swap2\n      sub\n      swap1\n      return\n        /* \"challeng/my_contract/Challeng-v2.sol\":25084:26073  function challengerReceiveRewards(string memory themeId_) public    {        ... */\n    tag_10:\n      tag_47\n      0x04\n      dup1\n      calldatasize\n      sub\n      dup2\n      add\n      swap1\n      tag_48\n      swap2\n      swap1\n      tag_18\n      jump\t// in\n    tag_48:\n      tag_49\n      jump\t// in\n    tag_47:\n      stop\n        /* \"challeng/my_contract/Challeng-v2.sol\":26110:26929  function publisherReceiveRewards(string memory themeId_) public    {... */\n    tag_11:\n      tag_50\n      0x04\n      dup1\n      calldatasize\n      sub\n      dup2\n      add\n      swap1\n      tag_51\n      swap2\n      swap1\n      tag_18\n      jump\t// in\n    tag_51:\n      tag_52\n      jump\t// in\n    tag_50:\n      stop\n        /* \"challeng/my_contract/Challeng-v2.sol\":21084:21895  function initiationTheme(string  memory  themeId_, uint256    amount_,uint256 endTime,uint256 odds) public    {... */\n    tag_12:\n      tag_53\n      0x04\n      dup1\n      calldatasize\n      sub\n      dup2\n      add\n      swap1\n      tag_54\n      swap2\n      swap1\n      tag_55\n      jump\t// in\n    tag_54:\n      tag_56\n      jump\t// in\n    tag_53:\n      stop\n        /* \"challeng/my_contract/Challeng-v2.sol\":27652:27831  function withdrawal() public {... */\n    tag_13:\n      tag_57\n      tag_58\n      jump\t// in\n    tag_57:\n      stop\n        /* \"challeng/my_contract/Challeng-v2.sol\":21915:22127  function test(string memory themeId_,uint256 amount_) public view  returns(uint256,uint256){... */\n    tag_14:\n      tag_59\n      0x04\n      dup1\n      calldatasize\n      sub\n      dup2\n      add\n      swap1\n      tag_60\n      swap2\n      swap1\n      tag_34\n      jump\t// in\n    tag_60:\n      tag_61\n      jump\t// in\n    tag_59:\n      mload(0x40)\n      tag_62\n      swap3\n      swap2\n      swap1\n      tag_63\n      jump\t// in\n    tag_62:\n      mload(0x40)\n      dup1\n      swap2\n      sub\n      swap1\n      return\n        /* \"challeng/my_contract/Challeng-v2.sol\":20860:21048  function getTotalRewardByTheme2(string memory themeId_ ) public view returns(Theme memory rheme_){... */\n    tag_19:\n        /* \"challeng/my_contract/Challeng-v2.sol\":20937:20956  Theme memory rheme_ */\n      tag_64\n      tag_65\n      jump\t// in\n    tag_64:\n        /* \"challeng/my_contract/Challeng-v2.sol\":20968:20986  Theme memory rheme */\n      0x00\n        /* \"challeng/my_contract/Challeng-v2.sol\":20991:21006  _challengeTheme */\n      0x01\n        /* \"challeng/my_contract/Challeng-v2.sol\":21007:21015  themeId_ */\n      dup4\n        /* \"challeng/my_contract/Challeng-v2.sol\":20991:21016  _challengeTheme[themeId_] */\n      mload(0x40)\n      tag_67\n      swap2\n      swap1\n      tag_68\n      jump\t// in\n    tag_67:\n      swap1\n      dup2\n      mstore\n      0x20\n      add\n      mload(0x40)\n      dup1\n      swap2\n      sub\n      swap1\n      keccak256\n        /* \"challeng/my_contract/Challeng-v2.sol\":20968:21017  Theme memory rheme =  (_challengeTheme[themeId_]) */\n      mload(0x40)\n      dup1\n      0x0180\n      add\n      0x40\n      mstore\n      swap1\n      dup2\n      0x00\n      dup3\n      add\n      dup1\n      sload\n      tag_69\n      swap1\n      tag_70\n      jump\t// in\n    tag_69:\n      dup1\n      0x1f\n      add\n      0x20\n      dup1\n      swap2\n      div\n      mul\n      0x20\n      add\n      mload(0x40)\n      swap1\n      dup2\n      add\n      0x40\n      mstore\n      dup1\n      swap3\n      swap2\n      swap1\n      dup2\n      dup2\n      mstore\n      0x20\n      add\n      dup3\n      dup1\n      sload\n      tag_71\n      swap1\n      tag_70\n      jump\t// in\n    tag_71:\n      dup1\n      iszero\n      tag_72\n      jumpi\n      dup1\n      0x1f\n      lt\n      tag_73\n      jumpi\n      0x0100\n      dup1\n      dup4\n      sload\n      div\n      mul\n      dup4\n      mstore\n      swap2\n      0x20\n      add\n      swap2\n      jump(tag_72)\n    tag_73:\n      dup3\n      add\n      swap2\n      swap1\n      0x00\n      mstore\n      keccak256(0x00, 0x20)\n      swap1\n    tag_74:\n      dup2\n      sload\n      dup2\n      mstore\n      swap1\n      0x01\n      add\n      swap1\n      0x20\n      add\n      dup1\n      dup4\n      gt\n      tag_74\n      jumpi\n      dup3\n      swap1\n      sub\n      0x1f\n      and\n      dup3\n      add\n      swap2\n    tag_72:\n      pop\n      pop\n      pop\n      pop\n      pop\n      dup2\n      mstore\n      0x20\n      add\n      0x01\n      dup3\n      add\n      0x00\n      swap1\n      sload\n      swap1\n      0x0100\n      exp\n      swap1\n      div\n      0xffffffffffffffffffffffffffffffffffffffff\n      and\n      0xffffffffffffffffffffffffffffffffffffffff\n      and\n      0xffffffffffffffffffffffffffffffffffffffff\n      and\n      dup2\n      mstore\n      0x20\n      add\n      0x02\n      dup3\n      add\n      sload\n      dup2\n      mstore\n      0x20\n      add\n      0x03\n      dup3\n      add\n      sload\n      dup2\n      mstore\n      0x20\n      add\n      0x04\n      dup3\n      add\n      0x00\n      swap1\n      sload\n      swap1\n      0x0100\n      exp\n      swap1\n      div\n      0xff\n      and\n      iszero\n      iszero\n      iszero\n      iszero\n      dup2\n      mstore\n      0x20\n      add\n      0x04\n      dup3\n      add\n      0x01\n      swap1\n      sload\n      swap1\n      0x0100\n      exp\n      swap1\n      div\n      0xff\n      and\n      iszero\n      iszero\n      iszero\n      iszero\n      dup2\n      mstore\n      0x20\n      add\n      0x04\n      dup3\n      add\n      0x02\n      swap1\n      sload\n      swap1\n      0x0100\n      exp\n      swap1\n      div\n      0xff\n      and\n      iszero\n      iszero\n      iszero\n      iszero\n      dup2\n      mstore\n      0x20\n      add\n      0x05\n      dup3\n      add\n      sload\n      dup2\n      mstore\n      0x20\n      add\n      0x06\n      dup3\n      add\n      0x00\n      swap1\n      sload\n      swap1\n      0x0100\n      exp\n      swap1\n      div\n      0xff\n      and\n      iszero\n      iszero\n      iszero\n      iszero\n      dup2\n      mstore\n      0x20\n      add\n      0x07\n      dup3\n      add\n      sload\n      dup2\n      mstore\n      0x20\n      add\n      0x08\n      dup3\n      add\n      sload\n      dup2\n      mstore\n      0x20\n      add\n      0x09\n      dup3\n      add\n      sload\n      dup2\n      mstore\n      pop\n      pop\n      swap1\n      pop\n        /* \"challeng/my_contract/Challeng-v2.sol\":21035:21040  rheme */\n      dup1\n        /* \"challeng/my_contract/Challeng-v2.sol\":21028:21040  return rheme */\n      swap2\n      pop\n      pop\n        /* \"challeng/my_contract/Challeng-v2.sol\":20860:21048  function getTotalRewardByTheme2(string memory themeId_ ) public view returns(Theme memory rheme_){... */\n      swap2\n      swap1\n      pop\n      jump\t// out\n        /* \"challeng/my_contract/Challeng-v2.sol\":27387:27626  function getExchangeInfo(string memory themeId_,address chanllenger_) public view returns( ChallengerInfo memory  ) {... */\n    tag_25:\n        /* \"challeng/my_contract/Challeng-v2.sol\":27478:27499  ChallengerInfo memory */\n      tag_75\n      tag_76\n      jump\t// in\n    tag_75:\n        /* \"challeng/my_contract/Challeng-v2.sol\":27514:27540  ChallengerInfo memory info */\n      0x00\n        /* \"challeng/my_contract/Challeng-v2.sol\":27543:27558  _challengerInfo */\n      0x02\n        /* \"challeng/my_contract/Challeng-v2.sol\":27559:27567  themeId_ */\n      dup5\n        /* \"challeng/my_contract/Challeng-v2.sol\":27543:27568  _challengerInfo[themeId_] */\n      mload(0x40)\n      tag_78\n      swap2\n      swap1\n      tag_68\n      jump\t// in\n    tag_78:\n      swap1\n      dup2\n      mstore\n      0x20\n      add\n      mload(0x40)\n      dup1\n      swap2\n      sub\n      swap1\n      keccak256\n        /* \"challeng/my_contract/Challeng-v2.sol\":27543:27582  _challengerInfo[themeId_][chanllenger_] */\n      0x00\n        /* \"challeng/my_contract/Challeng-v2.sol\":27569:27581  chanllenger_ */\n      dup5\n        /* \"challeng/my_contract/Challeng-v2.sol\":27543:27582  _challengerInfo[themeId_][chanllenger_] */\n      0xffffffffffffffffffffffffffffffffffffffff\n      and\n      0xffffffffffffffffffffffffffffffffffffffff\n      and\n      dup2\n      mstore\n      0x20\n      add\n      swap1\n      dup2\n      mstore\n      0x20\n      add\n      0x00\n      keccak256\n        /* \"challeng/my_contract/Challeng-v2.sol\":27514:27582  ChallengerInfo memory info = _challengerInfo[themeId_][chanllenger_] */\n      mload(0x40)\n      dup1\n      0x0140\n      add\n      0x40\n      mstore\n      swap1\n      dup2\n      0x00\n      dup3\n      add\n      sload\n      dup2\n      mstore\n      0x20\n      add\n      0x01\n      dup3\n      add\n      sload\n      dup2\n      mstore\n      0x20\n      add\n      0x02\n      dup3\n      add\n      0x00\n      swap1\n      sload\n      swap1\n      0x0100\n      exp\n      swap1\n      div\n      0xff\n      and\n      iszero\n      iszero\n      iszero\n      iszero\n      dup2\n      mstore\n      0x20\n      add\n      0x02\n      dup3\n      add\n      0x01\n      swap1\n      sload\n      swap1\n      0x0100\n      exp\n      swap1\n      div\n      0xff\n      and\n      iszero\n      iszero\n      iszero\n      iszero\n      dup2\n      mstore\n      0x20\n      add\n      0x02\n      dup3\n      add\n      0x02\n      swap1\n      sload\n      swap1\n      0x0100\n      exp\n      swap1\n      div\n      0xff\n      and\n      iszero\n      iszero\n      iszero\n      iszero\n      dup2\n      mstore\n      0x20\n      add\n      0x02\n      dup3\n      add\n      0x03\n      swap1\n      sload\n      swap1\n      0x0100\n      exp\n      swap1\n      div\n      0xff\n      and\n      iszero\n      iszero\n      iszero\n      iszero\n      dup2\n      mstore\n      0x20\n      add\n      0x02\n      dup3\n      add\n      0x04\n      swap1\n      sload\n      swap1\n      0x0100\n      exp\n      swap1\n      div\n      0xff\n      and\n      iszero\n      iszero\n      iszero\n      iszero\n      dup2\n      mstore\n      0x20\n      add\n      0x03\n      dup3\n      add\n      sload\n      dup2\n      mstore\n      0x20\n      add\n      0x04\n      dup3\n      add\n      sload\n      dup2\n      mstore\n      0x20\n      add\n      0x05\n      dup3\n      add\n      dup1\n      sload\n      tag_79\n      swap1\n      tag_70\n      jump\t// in\n    tag_79:\n      dup1\n      0x1f\n      add\n      0x20\n      dup1\n      swap2\n      div\n      mul\n      0x20\n      add\n      mload(0x40)\n      swap1\n      dup2\n      add\n      0x40\n      mstore\n      dup1\n      swap3\n      swap2\n      swap1\n      dup2\n      dup2\n      mstore\n      0x20\n      add\n      dup3\n      dup1\n      sload\n      tag_80\n      swap1\n      tag_70\n      jump\t// in\n    tag_80:\n      dup1\n      iszero\n      tag_81\n      jumpi\n      dup1\n      0x1f\n      lt\n      tag_82\n      jumpi\n      0x0100\n      dup1\n      dup4\n      sload\n      div\n      mul\n      dup4\n      mstore\n      swap2\n      0x20\n      add\n      swap2\n      jump(tag_81)\n    tag_82:\n      dup3\n      add\n      swap2\n      swap1\n      0x00\n      mstore\n      keccak256(0x00, 0x20)\n      swap1\n    tag_83:\n      dup2\n      sload\n      dup2\n      mstore\n      swap1\n      0x01\n      add\n      swap1\n      0x20\n      add\n      dup1\n      dup4\n      gt\n      tag_83\n      jumpi\n      dup3\n      swap1\n      sub\n      0x1f\n      and\n      dup3\n      add\n      swap2\n    tag_81:\n      pop\n      pop\n      pop\n      pop\n      pop\n      dup2\n      mstore\n      pop\n      pop\n      swap1\n      pop\n        /* \"challeng/my_contract/Challeng-v2.sol\":27614:27618  info */\n      dup1\n        /* \"challeng/my_contract/Challeng-v2.sol\":27607:27618  return info */\n      swap2\n      pop\n      pop\n        /* \"challeng/my_contract/Challeng-v2.sol\":27387:27626  function getExchangeInfo(string memory themeId_,address chanllenger_) public view returns( ChallengerInfo memory  ) {... */\n      swap3\n      swap2\n      pop\n      pop\n      jump\t// out\n        /* \"challeng/my_contract/Challeng-v2.sol\":24183:25049  function CompleteTheChallenge(string memory themeId_,bool result_) public {... */\n    tag_31:\n        /* \"challeng/my_contract/Challeng-v2.sol\":24307:24311  true */\n      0x01\n        /* \"challeng/my_contract/Challeng-v2.sol\":24268:24283  _challengeTheme */\n      dup1\n        /* \"challeng/my_contract/Challeng-v2.sol\":24284:24292  themeId_ */\n      dup4\n        /* \"challeng/my_contract/Challeng-v2.sol\":24268:24293  _challengeTheme[themeId_] */\n      mload(0x40)\n      tag_85\n      swap2\n      swap1\n      tag_68\n      jump\t// in\n    tag_85:\n      swap1\n      dup2\n      mstore\n      0x20\n      add\n      mload(0x40)\n      dup1\n      swap2\n      sub\n      swap1\n      keccak256\n        /* \"challeng/my_contract/Challeng-v2.sol\":24268:24304  _challengeTheme[themeId_].isComplete */\n      0x04\n      add\n      0x00\n        /* \"challeng/my_contract/Challeng-v2.sol\":24268:24311  _challengeTheme[themeId_].isComplete = true */\n      0x0100\n      exp\n      dup2\n      sload\n      dup2\n      0xff\n      mul\n      not\n      and\n      swap1\n      dup4\n      iszero\n      iszero\n      mul\n      or\n      swap1\n      sstore\n      pop\n        /* \"challeng/my_contract/Challeng-v2.sol\":24357:24364  result_ */\n      dup1\n        /* \"challeng/my_contract/Challeng-v2.sol\":24322:24337  _challengeTheme */\n      0x01\n        /* \"challeng/my_contract/Challeng-v2.sol\":24338:24346  themeId_ */\n      dup4\n        /* \"challeng/my_contract/Challeng-v2.sol\":24322:24347  _challengeTheme[themeId_] */\n      mload(0x40)\n      tag_86\n      swap2\n      swap1\n      tag_68\n      jump\t// in\n    tag_86:\n      swap1\n      dup2\n      mstore\n      0x20\n      add\n      mload(0x40)\n      dup1\n      swap2\n      sub\n      swap1\n      keccak256\n        /* \"challeng/my_contract/Challeng-v2.sol\":24322:24354  _challengeTheme[themeId_].result */\n      0x04\n      add\n      0x02\n        /* \"challeng/my_contract/Challeng-v2.sol\":24322:24364  _challengeTheme[themeId_].result = result_ */\n      0x0100\n      exp\n      dup2\n      sload\n      dup2\n      0xff\n      mul\n      not\n      and\n      swap1\n      dup4\n      iszero\n      iszero\n      mul\n      or\n      swap1\n      sstore\n      pop\n        /* \"challeng/my_contract/Challeng-v2.sol\":24375:24399  uint256 chanllengeAmount */\n      0x00\n        /* \"challeng/my_contract/Challeng-v2.sol\":24402:24417  _challengeTheme */\n      0x01\n        /* \"challeng/my_contract/Challeng-v2.sol\":24418:24426  themeId_ */\n      dup4\n        /* \"challeng/my_contract/Challeng-v2.sol\":24402:24427  _challengeTheme[themeId_] */\n      mload(0x40)\n      tag_87\n      swap2\n      swap1\n      tag_68\n      jump\t// in\n    tag_87:\n      swap1\n      dup2\n      mstore\n      0x20\n      add\n      mload(0x40)\n      dup1\n      swap2\n      sub\n      swap1\n      keccak256\n        /* \"challeng/my_contract/Challeng-v2.sol\":24402:24442  _challengeTheme[themeId_].challengeTotal */\n      0x05\n      add\n      sload\n        /* \"challeng/my_contract/Challeng-v2.sol\":24375:24442  uint256 chanllengeAmount = _challengeTheme[themeId_].challengeTotal */\n      swap1\n      pop\n        /* \"challeng/my_contract/Challeng-v2.sol\":24470:24490  uint256 rewardAmount */\n      0x00\n        /* \"challeng/my_contract/Challeng-v2.sol\":24493:24508  _challengeTheme */\n      0x01\n        /* \"challeng/my_contract/Challeng-v2.sol\":24509:24517  themeId_ */\n      dup5\n        /* \"challeng/my_contract/Challeng-v2.sol\":24493:24518  _challengeTheme[themeId_] */\n      mload(0x40)\n      tag_88\n      swap2\n      swap1\n      tag_68\n      jump\t// in\n    tag_88:\n      swap1\n      dup2\n      mstore\n      0x20\n      add\n      mload(0x40)\n      dup1\n      swap2\n      sub\n      swap1\n      keccak256\n        /* \"challeng/my_contract/Challeng-v2.sol\":24493:24525  _challengeTheme[themeId_].reward */\n      0x02\n      add\n      sload\n        /* \"challeng/my_contract/Challeng-v2.sol\":24470:24525  uint256 rewardAmount = _challengeTheme[themeId_].reward */\n      swap1\n      pop\n        /* \"challeng/my_contract/Challeng-v2.sol\":24556:24568  uint256 odds */\n      0x00\n        /* \"challeng/my_contract/Challeng-v2.sol\":24571:24586  _challengeTheme */\n      0x01\n        /* \"challeng/my_contract/Challeng-v2.sol\":24587:24595  themeId_ */\n      dup6\n        /* \"challeng/my_contract/Challeng-v2.sol\":24571:24596  _challengeTheme[themeId_] */\n      mload(0x40)\n      tag_89\n      swap2\n      swap1\n      tag_68\n      jump\t// in\n    tag_89:\n      swap1\n      dup2\n      mstore\n      0x20\n      add\n      mload(0x40)\n      dup1\n      swap2\n      sub\n      swap1\n      keccak256\n        /* \"challeng/my_contract/Challeng-v2.sol\":24571:24601  _challengeTheme[themeId_].odds */\n      0x08\n      add\n      sload\n        /* \"challeng/my_contract/Challeng-v2.sol\":24556:24601  uint256 odds = _challengeTheme[themeId_].odds */\n      swap1\n      pop\n        /* \"challeng/my_contract/Challeng-v2.sol\":24625:24632  result_ */\n      dup4\n        /* \"challeng/my_contract/Challeng-v2.sol\":24622:25042  if(result_){... */\n      iszero\n      tag_90\n      jumpi\n        /* \"challeng/my_contract/Challeng-v2.sol\":24738:24772  chanllengeAmount.add(rewardAmount) */\n      tag_91\n        /* \"challeng/my_contract/Challeng-v2.sol\":24759:24771  rewardAmount */\n      dup3\n        /* \"challeng/my_contract/Challeng-v2.sol\":24738:24754  chanllengeAmount */\n      dup5\n        /* \"challeng/my_contract/Challeng-v2.sol\":24738:24758  chanllengeAmount.add */\n      tag_92\n      swap1\n        /* \"challeng/my_contract/Challeng-v2.sol\":24738:24772  chanllengeAmount.add(rewardAmount) */\n      swap2\n      swap1\n      0xffffffff\n      and\n      jump\t// in\n    tag_91:\n        /* \"challeng/my_contract/Challeng-v2.sol\":24703:24718  _challengeTheme */\n      0x01\n        /* \"challeng/my_contract/Challeng-v2.sol\":24719:24727  themeId_ */\n      dup7\n        /* \"challeng/my_contract/Challeng-v2.sol\":24703:24728  _challengeTheme[themeId_] */\n      mload(0x40)\n      tag_93\n      swap2\n      swap1\n      tag_68\n      jump\t// in\n    tag_93:\n      swap1\n      dup2\n      mstore\n      0x20\n      add\n      mload(0x40)\n      dup1\n      swap2\n      sub\n      swap1\n      keccak256\n        /* \"challeng/my_contract/Challeng-v2.sol\":24703:24735  _challengeTheme[themeId_].profit */\n      0x07\n      add\n        /* \"challeng/my_contract/Challeng-v2.sol\":24703:24772  _challengeTheme[themeId_].profit = chanllengeAmount.add(rewardAmount) */\n      dup2\n      swap1\n      sstore\n      pop\n        /* \"challeng/my_contract/Challeng-v2.sol\":24622:25042  if(result_){... */\n      jump(tag_94)\n    tag_90:\n        /* \"challeng/my_contract/Challeng-v2.sol\":24906:24920  uint256 amount */\n      0x00\n        /* \"challeng/my_contract/Challeng-v2.sol\":24923:24974  rewardAmount.sub(chanllengeAmount.mul(odds.sub(1))) */\n      tag_95\n        /* \"challeng/my_contract/Challeng-v2.sol\":24940:24973  chanllengeAmount.mul(odds.sub(1)) */\n      tag_96\n        /* \"challeng/my_contract/Challeng-v2.sol\":24961:24972  odds.sub(1) */\n      tag_97\n        /* \"challeng/my_contract/Challeng-v2.sol\":24970:24971  1 */\n      0x01\n        /* \"challeng/my_contract/Challeng-v2.sol\":24961:24965  odds */\n      dup6\n        /* \"challeng/my_contract/Challeng-v2.sol\":24961:24969  odds.sub */\n      tag_98\n      swap1\n        /* \"challeng/my_contract/Challeng-v2.sol\":24961:24972  odds.sub(1) */\n      swap2\n      swap1\n      0xffffffff\n      and\n      jump\t// in\n    tag_97:\n        /* \"challeng/my_contract/Challeng-v2.sol\":24940:24956  chanllengeAmount */\n      dup7\n        /* \"challeng/my_contract/Challeng-v2.sol\":24940:24960  chanllengeAmount.mul */\n      tag_99\n      swap1\n        /* \"challeng/my_contract/Challeng-v2.sol\":24940:24973  chanllengeAmount.mul(odds.sub(1)) */\n      swap2\n      swap1\n      0xffffffff\n      and\n      jump\t// in\n    tag_96:\n        /* \"challeng/my_contract/Challeng-v2.sol\":24923:24935  rewardAmount */\n      dup5\n        /* \"challeng/my_contract/Challeng-v2.sol\":24923:24939  rewardAmount.sub */\n      tag_98\n      swap1\n        /* \"challeng/my_contract/Challeng-v2.sol\":24923:24974  rewardAmount.sub(chanllengeAmount.mul(odds.sub(1))) */\n      swap2\n      swap1\n      0xffffffff\n      and\n      jump\t// in\n    tag_95:\n        /* \"challeng/my_contract/Challeng-v2.sol\":24906:24974  uint256 amount = rewardAmount.sub(chanllengeAmount.mul(odds.sub(1))) */\n      swap1\n      pop\n        /* \"challeng/my_contract/Challeng-v2.sol\":25024:25030  amount */\n      dup1\n        /* \"challeng/my_contract/Challeng-v2.sol\":24989:25004  _challengeTheme */\n      0x01\n        /* \"challeng/my_contract/Challeng-v2.sol\":25005:25013  themeId_ */\n      dup8\n        /* \"challeng/my_contract/Challeng-v2.sol\":24989:25014  _challengeTheme[themeId_] */\n      mload(0x40)\n      tag_100\n      swap2\n      swap1\n      tag_68\n      jump\t// in\n    tag_100:\n      swap1\n      dup2\n      mstore\n      0x20\n      add\n      mload(0x40)\n      dup1\n      swap2\n      sub\n      swap1\n      keccak256\n        /* \"challeng/my_contract/Challeng-v2.sol\":24989:25021  _challengeTheme[themeId_].profit */\n      0x07\n      add\n        /* \"challeng/my_contract/Challeng-v2.sol\":24989:25030  _challengeTheme[themeId_].profit = amount */\n      dup2\n      swap1\n      sstore\n      pop\n        /* \"challeng/my_contract/Challeng-v2.sol\":24788:25042  {... */\n      pop\n        /* \"challeng/my_contract/Challeng-v2.sol\":24622:25042  if(result_){... */\n    tag_94:\n        /* \"challeng/my_contract/Challeng-v2.sol\":24257:25049  {... */\n      pop\n      pop\n      pop\n        /* \"challeng/my_contract/Challeng-v2.sol\":24183:25049  function CompleteTheChallenge(string memory themeId_,bool result_) public {... */\n      pop\n      pop\n      jump\t// out\n        /* \"challeng/my_contract/Challeng-v2.sol\":26969:27329  function updateThemeCompleteTime(string memory themeId_,uint256 closeTime) public {... */\n    tag_35:\n        /* \"challeng/my_contract/Challeng-v2.sol\":27062:27087  address  publisherAddress */\n      0x00\n        /* \"challeng/my_contract/Challeng-v2.sol\":27090:27105  _challengeTheme */\n      0x01\n        /* \"challeng/my_contract/Challeng-v2.sol\":27106:27114  themeId_ */\n      dup4\n        /* \"challeng/my_contract/Challeng-v2.sol\":27090:27115  _challengeTheme[themeId_] */\n      mload(0x40)\n      tag_102\n      swap2\n      swap1\n      tag_68\n      jump\t// in\n    tag_102:\n      swap1\n      dup2\n      mstore\n      0x20\n      add\n      mload(0x40)\n      dup1\n      swap2\n      sub\n      swap1\n      keccak256\n        /* \"challeng/my_contract/Challeng-v2.sol\":27090:27126  _challengeTheme[themeId_].originator */\n      0x01\n      add\n      0x00\n      swap1\n      sload\n      swap1\n      0x0100\n      exp\n      swap1\n      div\n      0xffffffffffffffffffffffffffffffffffffffff\n      and\n        /* \"challeng/my_contract/Challeng-v2.sol\":27062:27126  address  publisherAddress = _challengeTheme[themeId_].originator */\n      swap1\n      pop\n        /* \"challeng/my_contract/Challeng-v2.sol\":27165:27175  msg.sender */\n      caller\n        /* \"challeng/my_contract/Challeng-v2.sol\":27145:27175  publisherAddress == msg.sender */\n      0xffffffffffffffffffffffffffffffffffffffff\n      and\n        /* \"challeng/my_contract/Challeng-v2.sol\":27145:27161  publisherAddress */\n      dup2\n        /* \"challeng/my_contract/Challeng-v2.sol\":27145:27175  publisherAddress == msg.sender */\n      0xffffffffffffffffffffffffffffffffffffffff\n      and\n      eq\n        /* \"challeng/my_contract/Challeng-v2.sol\":27137:27214  require(publisherAddress == msg.sender,\"The current user is not a publisher\") */\n      tag_103\n      jumpi\n      mload(0x40)\n      0x08c379a000000000000000000000000000000000000000000000000000000000\n      dup2\n      mstore\n      0x04\n      add\n      tag_104\n      swap1\n      tag_105\n      jump\t// in\n    tag_104:\n      mload(0x40)\n      dup1\n      swap2\n      sub\n      swap1\n      revert\n    tag_103:\n        /* \"challeng/my_contract/Challeng-v2.sol\":27312:27321  closeTime */\n      dup2\n        /* \"challeng/my_contract/Challeng-v2.sol\":27269:27284  _challengeTheme */\n      0x01\n        /* \"challeng/my_contract/Challeng-v2.sol\":27285:27293  themeId_ */\n      dup5\n        /* \"challeng/my_contract/Challeng-v2.sol\":27269:27294  _challengeTheme[themeId_] */\n      mload(0x40)\n      tag_106\n      swap2\n      swap1\n      tag_68\n      jump\t// in\n    tag_106:\n      swap1\n      dup2\n      mstore\n      0x20\n      add\n      mload(0x40)\n      dup1\n      swap2\n      sub\n      swap1\n      keccak256\n        /* \"challeng/my_contract/Challeng-v2.sol\":27269:27309  _challengeTheme[themeId_].isCompleteTime */\n      0x03\n      add\n        /* \"challeng/my_contract/Challeng-v2.sol\":27269:27321  _challengeTheme[themeId_].isCompleteTime = closeTime */\n      dup2\n      swap1\n      sstore\n      pop\n        /* \"challeng/my_contract/Challeng-v2.sol\":27051:27329  {... */\n      pop\n        /* \"challeng/my_contract/Challeng-v2.sol\":26969:27329  function updateThemeCompleteTime(string memory themeId_,uint256 closeTime) public {... */\n      pop\n      pop\n      jump\t// out\n        /* \"challeng/my_contract/Challeng-v2.sol\":20652:20800  function getTotalRewardByTheme(string memory themeId_ ) public view returns(Theme  memory theme_){... */\n    tag_38:\n        /* \"challeng/my_contract/Challeng-v2.sol\":20728:20748  Theme  memory theme_ */\n      tag_107\n      tag_65\n      jump\t// in\n    tag_107:\n        /* \"challeng/my_contract/Challeng-v2.sol\":20767:20782  _challengeTheme */\n      0x01\n        /* \"challeng/my_contract/Challeng-v2.sol\":20783:20791  themeId_ */\n      dup3\n        /* \"challeng/my_contract/Challeng-v2.sol\":20767:20792  _challengeTheme[themeId_] */\n      mload(0x40)\n      tag_109\n      swap2\n      swap1\n      tag_68\n      jump\t// in\n    tag_109:\n      swap1\n      dup2\n      mstore\n      0x20\n      add\n      mload(0x40)\n      dup1\n      swap2\n      sub\n      swap1\n      keccak256\n        /* \"challeng/my_contract/Challeng-v2.sol\":20760:20792  return _challengeTheme[themeId_] */\n      mload(0x40)\n      dup1\n      0x0180\n      add\n      0x40\n      mstore\n      swap1\n      dup2\n      0x00\n      dup3\n      add\n      dup1\n      sload\n      tag_110\n      swap1\n      tag_70\n      jump\t// in\n    tag_110:\n      dup1\n      0x1f\n      add\n      0x20\n      dup1\n      swap2\n      div\n      mul\n      0x20\n      add\n      mload(0x40)\n      swap1\n      dup2\n      add\n      0x40\n      mstore\n      dup1\n      swap3\n      swap2\n      swap1\n      dup2\n      dup2\n      mstore\n      0x20\n      add\n      dup3\n      dup1\n      sload\n      tag_111\n      swap1\n      tag_70\n      jump\t// in\n    tag_111:\n      dup1\n      iszero\n      tag_112\n      jumpi\n      dup1\n      0x1f\n      lt\n      tag_113\n      jumpi\n      0x0100\n      dup1\n      dup4\n      sload\n      div\n      mul\n      dup4\n      mstore\n      swap2\n      0x20\n      add\n      swap2\n      jump(tag_112)\n    tag_113:\n      dup3\n      add\n      swap2\n      swap1\n      0x00\n      mstore\n      keccak256(0x00, 0x20)\n      swap1\n    tag_114:\n      dup2\n      sload\n      dup2\n      mstore\n      swap1\n      0x01\n      add\n      swap1\n      0x20\n      add\n      dup1\n      dup4\n      gt\n      tag_114\n      jumpi\n      dup3\n      swap1\n      sub\n      0x1f\n      and\n      dup3\n      add\n      swap2\n    tag_112:\n      pop\n      pop\n      pop\n      pop\n      pop\n      dup2\n      mstore\n      0x20\n      add\n      0x01\n      dup3\n      add\n      0x00\n      swap1\n      sload\n      swap1\n      0x0100\n      exp\n      swap1\n      div\n      0xffffffffffffffffffffffffffffffffffffffff\n      and\n      0xffffffffffffffffffffffffffffffffffffffff\n      and\n      0xffffffffffffffffffffffffffffffffffffffff\n      and\n      dup2\n      mstore\n      0x20\n      add\n      0x02\n      dup3\n      add\n      sload\n      dup2\n      mstore\n      0x20\n      add\n      0x03\n      dup3\n      add\n      sload\n      dup2\n      mstore\n      0x20\n      add\n      0x04\n      dup3\n      add\n      0x00\n      swap1\n      sload\n      swap1\n      0x0100\n      exp\n      swap1\n      div\n      0xff\n      and\n      iszero\n      iszero\n      iszero\n      iszero\n      dup2\n      mstore\n      0x20\n      add\n      0x04\n      dup3\n      add\n      0x01\n      swap1\n      sload\n      swap1\n      0x0100\n      exp\n      swap1\n      div\n      0xff\n      and\n      iszero\n      iszero\n      iszero\n      iszero\n      dup2\n      mstore\n      0x20\n      add\n      0x04\n      dup3\n      add\n      0x02\n      swap1\n      sload\n      swap1\n      0x0100\n      exp\n      swap1\n      div\n      0xff\n      and\n      iszero\n      iszero\n      iszero\n      iszero\n      dup2\n      mstore\n      0x20\n      add\n      0x05\n      dup3\n      add\n      sload\n      dup2\n      mstore\n      0x20\n      add\n      0x06\n      dup3\n      add\n      0x00\n      swap1\n      sload\n      swap1\n      0x0100\n      exp\n      swap1\n      div\n      0xff\n      and\n      iszero\n      iszero\n      iszero\n      iszero\n      dup2\n      mstore\n      0x20\n      add\n      0x07\n      dup3\n      add\n      sload\n      dup2\n      mstore\n      0x20\n      add\n      0x08\n      dup3\n      add\n      sload\n      dup2\n      mstore\n      0x20\n      add\n      0x09\n      dup3\n      add\n      sload\n      dup2\n      mstore\n      pop\n      pop\n      swap1\n      pop\n        /* \"challeng/my_contract/Challeng-v2.sol\":20652:20800  function getTotalRewardByTheme(string memory themeId_ ) public view returns(Theme  memory theme_){... */\n      swap2\n      swap1\n      pop\n      jump\t// out\n        /* \"challeng/my_contract/Challeng-v2.sol\":22159:24137  function challengeTheme(string memory themeId_,uint256 amount_) public  {... */\n    tag_42:\n        /* \"challeng/my_contract/Challeng-v2.sol\":22242:22254  uint256 odds */\n      0x00\n        /* \"challeng/my_contract/Challeng-v2.sol\":22257:22272  _challengeTheme */\n      0x01\n        /* \"challeng/my_contract/Challeng-v2.sol\":22273:22281  themeId_ */\n      dup4\n        /* \"challeng/my_contract/Challeng-v2.sol\":22257:22282  _challengeTheme[themeId_] */\n      mload(0x40)\n      tag_116\n      swap2\n      swap1\n      tag_68\n      jump\t// in\n    tag_116:\n      swap1\n      dup2\n      mstore\n      0x20\n      add\n      mload(0x40)\n      dup1\n      swap2\n      sub\n      swap1\n      keccak256\n        /* \"challeng/my_contract/Challeng-v2.sol\":22257:22287  _challengeTheme[themeId_].odds */\n      0x08\n      add\n      sload\n        /* \"challeng/my_contract/Challeng-v2.sol\":22242:22287  uint256 odds = _challengeTheme[themeId_].odds */\n      swap1\n      pop\n        /* \"challeng/my_contract/Challeng-v2.sol\":22312:22337  address  publisherAddress */\n      0x00\n        /* \"challeng/my_contract/Challeng-v2.sol\":22340:22355  _challengeTheme */\n      0x01\n        /* \"challeng/my_contract/Challeng-v2.sol\":22356:22364  themeId_ */\n      dup5\n        /* \"challeng/my_contract/Challeng-v2.sol\":22340:22365  _challengeTheme[themeId_] */\n      mload(0x40)\n      tag_117\n      swap2\n      swap1\n      tag_68\n      jump\t// in\n    tag_117:\n      swap1\n      dup2\n      mstore\n      0x20\n      add\n      mload(0x40)\n      dup1\n      swap2\n      sub\n      swap1\n      keccak256\n        /* \"challeng/my_contract/Challeng-v2.sol\":22340:22376  _challengeTheme[themeId_].originator */\n      0x01\n      add\n      0x00\n      swap1\n      sload\n      swap1\n      0x0100\n      exp\n      swap1\n      div\n      0xffffffffffffffffffffffffffffffffffffffff\n      and\n        /* \"challeng/my_contract/Challeng-v2.sol\":22312:22376  address  publisherAddress = _challengeTheme[themeId_].originator */\n      swap1\n      pop\n        /* \"challeng/my_contract/Challeng-v2.sol\":22429:22439  msg.sender */\n      caller\n        /* \"challeng/my_contract/Challeng-v2.sol\":22409:22439  publisherAddress != msg.sender */\n      0xffffffffffffffffffffffffffffffffffffffff\n      and\n        /* \"challeng/my_contract/Challeng-v2.sol\":22409:22425  publisherAddress */\n      dup2\n        /* \"challeng/my_contract/Challeng-v2.sol\":22409:22439  publisherAddress != msg.sender */\n      0xffffffffffffffffffffffffffffffffffffffff\n      and\n      sub\n        /* \"challeng/my_contract/Challeng-v2.sol\":22401:22489  require(publisherAddress != msg.sender,\"The initiator cannot challenge his proposition\") */\n      tag_118\n      jumpi\n      mload(0x40)\n      0x08c379a000000000000000000000000000000000000000000000000000000000\n      dup2\n      mstore\n      0x04\n      add\n      tag_119\n      swap1\n      tag_120\n      jump\t// in\n    tag_119:\n      mload(0x40)\n      dup1\n      swap2\n      sub\n      swap1\n      revert\n    tag_118:\n        /* \"challeng/my_contract/Challeng-v2.sol\":22586:22591  false */\n      0x00\n        /* \"challeng/my_contract/Challeng-v2.sol\":22546:22591  _challengeTheme[themeId_].isComplete == false */\n      iszero\n      iszero\n        /* \"challeng/my_contract/Challeng-v2.sol\":22546:22561  _challengeTheme */\n      0x01\n        /* \"challeng/my_contract/Challeng-v2.sol\":22562:22570  themeId_ */\n      dup6\n        /* \"challeng/my_contract/Challeng-v2.sol\":22546:22571  _challengeTheme[themeId_] */\n      mload(0x40)\n      tag_121\n      swap2\n      swap1\n      tag_68\n      jump\t// in\n    tag_121:\n      swap1\n      dup2\n      mstore\n      0x20\n      add\n      mload(0x40)\n      dup1\n      swap2\n      sub\n      swap1\n      keccak256\n        /* \"challeng/my_contract/Challeng-v2.sol\":22546:22582  _challengeTheme[themeId_].isComplete */\n      0x04\n      add\n      0x00\n      swap1\n      sload\n      swap1\n      0x0100\n      exp\n      swap1\n      div\n      0xff\n      and\n        /* \"challeng/my_contract/Challeng-v2.sol\":22546:22591  _challengeTheme[themeId_].isComplete == false */\n      iszero\n      iszero\n      eq\n        /* \"challeng/my_contract/Challeng-v2.sol\":22538:22624  require(_challengeTheme[themeId_].isComplete == false,\"The current challenge is over\") */\n      tag_122\n      jumpi\n      mload(0x40)\n      0x08c379a000000000000000000000000000000000000000000000000000000000\n      dup2\n      mstore\n      0x04\n      add\n      tag_123\n      swap1\n      tag_124\n      jump\t// in\n    tag_123:\n      mload(0x40)\n      dup1\n      swap2\n      sub\n      swap1\n      revert\n    tag_122:\n        /* \"challeng/my_contract/Challeng-v2.sol\":22739:22754  block.timestamp */\n      timestamp\n        /* \"challeng/my_contract/Challeng-v2.sol\":22696:22711  _challengeTheme */\n      0x01\n        /* \"challeng/my_contract/Challeng-v2.sol\":22712:22720  themeId_ */\n      dup6\n        /* \"challeng/my_contract/Challeng-v2.sol\":22696:22721  _challengeTheme[themeId_] */\n      mload(0x40)\n      tag_125\n      swap2\n      swap1\n      tag_68\n      jump\t// in\n    tag_125:\n      swap1\n      dup2\n      mstore\n      0x20\n      add\n      mload(0x40)\n      dup1\n      swap2\n      sub\n      swap1\n      keccak256\n        /* \"challeng/my_contract/Challeng-v2.sol\":22696:22736  _challengeTheme[themeId_].isCompleteTime */\n      0x03\n      add\n      sload\n        /* \"challeng/my_contract/Challeng-v2.sol\":22696:22754  _challengeTheme[themeId_].isCompleteTime > block.timestamp */\n      gt\n        /* \"challeng/my_contract/Challeng-v2.sol\":22688:22792  require(_challengeTheme[themeId_].isCompleteTime > block.timestamp,\"The current challenge time is over\") */\n      tag_126\n      jumpi\n      mload(0x40)\n      0x08c379a000000000000000000000000000000000000000000000000000000000\n      dup2\n      mstore\n      0x04\n      add\n      tag_127\n      swap1\n      tag_128\n      jump\t// in\n    tag_127:\n      mload(0x40)\n      dup1\n      swap2\n      sub\n      swap1\n      revert\n    tag_126:\n        /* \"challeng/my_contract/Challeng-v2.sol\":22918:22967  _challengeTheme[themeId_].reward.div(odds.sub(1)) */\n      tag_129\n        /* \"challeng/my_contract/Challeng-v2.sol\":22955:22966  odds.sub(1) */\n      tag_130\n        /* \"challeng/my_contract/Challeng-v2.sol\":22964:22965  1 */\n      0x01\n        /* \"challeng/my_contract/Challeng-v2.sol\":22955:22959  odds */\n      dup5\n        /* \"challeng/my_contract/Challeng-v2.sol\":22955:22963  odds.sub */\n      tag_98\n      swap1\n        /* \"challeng/my_contract/Challeng-v2.sol\":22955:22966  odds.sub(1) */\n      swap2\n      swap1\n      0xffffffff\n      and\n      jump\t// in\n    tag_130:\n        /* \"challeng/my_contract/Challeng-v2.sol\":22918:22933  _challengeTheme */\n      0x01\n        /* \"challeng/my_contract/Challeng-v2.sol\":22934:22942  themeId_ */\n      dup7\n        /* \"challeng/my_contract/Challeng-v2.sol\":22918:22943  _challengeTheme[themeId_] */\n      mload(0x40)\n      tag_131\n      swap2\n      swap1\n      tag_68\n      jump\t// in\n    tag_131:\n      swap1\n      dup2\n      mstore\n      0x20\n      add\n      mload(0x40)\n      dup1\n      swap2\n      sub\n      swap1\n      keccak256\n        /* \"challeng/my_contract/Challeng-v2.sol\":22918:22950  _challengeTheme[themeId_].reward */\n      0x02\n      add\n      sload\n        /* \"challeng/my_contract/Challeng-v2.sol\":22918:22954  _challengeTheme[themeId_].reward.div */\n      tag_132\n      swap1\n        /* \"challeng/my_contract/Challeng-v2.sol\":22918:22967  _challengeTheme[themeId_].reward.div(odds.sub(1)) */\n      swap2\n      swap1\n      0xffffffff\n      and\n      jump\t// in\n    tag_129:\n        /* \"challeng/my_contract/Challeng-v2.sol\":22861:22914  _challengeTheme[themeId_].challengeTotal.add(amount_) */\n      tag_133\n        /* \"challeng/my_contract/Challeng-v2.sol\":22906:22913  amount_ */\n      dup5\n        /* \"challeng/my_contract/Challeng-v2.sol\":22861:22876  _challengeTheme */\n      0x01\n        /* \"challeng/my_contract/Challeng-v2.sol\":22877:22885  themeId_ */\n      dup8\n        /* \"challeng/my_contract/Challeng-v2.sol\":22861:22886  _challengeTheme[themeId_] */\n      mload(0x40)\n      tag_134\n      swap2\n      swap1\n      tag_68\n      jump\t// in\n    tag_134:\n      swap1\n      dup2\n      mstore\n      0x20\n      add\n      mload(0x40)\n      dup1\n      swap2\n      sub\n      swap1\n      keccak256\n        /* \"challeng/my_contract/Challeng-v2.sol\":22861:22901  _challengeTheme[themeId_].challengeTotal */\n      0x05\n      add\n      sload\n        /* \"challeng/my_contract/Challeng-v2.sol\":22861:22905  _challengeTheme[themeId_].challengeTotal.add */\n      tag_92\n      swap1\n        /* \"challeng/my_contract/Challeng-v2.sol\":22861:22914  _challengeTheme[themeId_].challengeTotal.add(amount_) */\n      swap2\n      swap1\n      0xffffffff\n      and\n      jump\t// in\n    tag_133:\n        /* \"challeng/my_contract/Challeng-v2.sol\":22861:22967  _challengeTheme[themeId_].challengeTotal.add(amount_) <= _challengeTheme[themeId_].reward.div(odds.sub(1)) */\n      gt\n      iszero\n        /* \"challeng/my_contract/Challeng-v2.sol\":22853:23048  require(_challengeTheme[themeId_].challengeTotal.add(amount_) <= _challengeTheme[themeId_].reward.div(odds.sub(1)) ,\"The total challenge amount cannot be higher than the maximum available quota\") */\n      tag_135\n      jumpi\n      mload(0x40)\n      0x08c379a000000000000000000000000000000000000000000000000000000000\n      dup2\n      mstore\n      0x04\n      add\n      tag_136\n      swap1\n      tag_137\n      jump\t// in\n    tag_136:\n      mload(0x40)\n      dup1\n      swap2\n      sub\n      swap1\n      revert\n    tag_135:\n        /* \"challeng/my_contract/Challeng-v2.sol\":23123:23124  0 */\n      0x00\n        /* \"challeng/my_contract/Challeng-v2.sol\":23114:23121  amount_ */\n      dup4\n        /* \"challeng/my_contract/Challeng-v2.sol\":23114:23124  amount_ >0 */\n      gt\n        /* \"challeng/my_contract/Challeng-v2.sol\":23106:23167  require(amount_ >0,\"The number of challenges cannot be zero\") */\n      tag_138\n      jumpi\n      mload(0x40)\n      0x08c379a000000000000000000000000000000000000000000000000000000000\n      dup2\n      mstore\n      0x04\n      add\n      tag_139\n      swap1\n      tag_140\n      jump\t// in\n    tag_139:\n      mload(0x40)\n      dup1\n      swap2\n      sub\n      swap1\n      revert\n    tag_138:\n        /* \"challeng/my_contract/Challeng-v2.sol\":23208:23265  _token.safeTransferFrom(msg.sender,address(this),amount_) */\n      tag_141\n        /* \"challeng/my_contract/Challeng-v2.sol\":23232:23242  msg.sender */\n      caller\n        /* \"challeng/my_contract/Challeng-v2.sol\":23251:23255  this */\n      address\n        /* \"challeng/my_contract/Challeng-v2.sol\":23257:23264  amount_ */\n      dup6\n        /* \"challeng/my_contract/Challeng-v2.sol\":23208:23214  _token */\n      0x00\n      dup1\n      sload\n      swap1\n      0x0100\n      exp\n      swap1\n      div\n      0xffffffffffffffffffffffffffffffffffffffff\n      and\n        /* \"challeng/my_contract/Challeng-v2.sol\":23208:23231  _token.safeTransferFrom */\n      0xffffffffffffffffffffffffffffffffffffffff\n      and\n      tag_142\n      swap1\n        /* \"challeng/my_contract/Challeng-v2.sol\":23208:23265  _token.safeTransferFrom(msg.sender,address(this),amount_) */\n      swap4\n      swap3\n      swap2\n      swap1\n      0xffffffff\n      and\n      jump\t// in\n    tag_141:\n        /* \"challeng/my_contract/Challeng-v2.sol\":23329:23330  0 */\n      0x00\n        /* \"challeng/my_contract/Challeng-v2.sol\":23281:23296  _challengerInfo */\n      0x02\n        /* \"challeng/my_contract/Challeng-v2.sol\":23297:23305  themeId_ */\n      dup6\n        /* \"challeng/my_contract/Challeng-v2.sol\":23281:23306  _challengerInfo[themeId_] */\n      mload(0x40)\n      tag_143\n      swap2\n      swap1\n      tag_68\n      jump\t// in\n    tag_143:\n      swap1\n      dup2\n      mstore\n      0x20\n      add\n      mload(0x40)\n      dup1\n      swap2\n      sub\n      swap1\n      keccak256\n        /* \"challeng/my_contract/Challeng-v2.sol\":23281:23318  _challengerInfo[themeId_][msg.sender] */\n      0x00\n        /* \"challeng/my_contract/Challeng-v2.sol\":23307:23317  msg.sender */\n      caller\n        /* \"challeng/my_contract/Challeng-v2.sol\":23281:23318  _challengerInfo[themeId_][msg.sender] */\n      0xffffffffffffffffffffffffffffffffffffffff\n      and\n      0xffffffffffffffffffffffffffffffffffffffff\n      and\n      dup2\n      mstore\n      0x20\n      add\n      swap1\n      dup2\n      mstore\n      0x20\n      add\n      0x00\n      keccak256\n        /* \"challeng/my_contract/Challeng-v2.sol\":23281:23325  _challengerInfo[themeId_][msg.sender].amount */\n      0x00\n      add\n      sload\n        /* \"challeng/my_contract/Challeng-v2.sol\":23281:23330  _challengerInfo[themeId_][msg.sender].amount == 0 */\n      sub\n        /* \"challeng/my_contract/Challeng-v2.sol\":23278:23414  if(_challengerInfo[themeId_][msg.sender].amount == 0){... */\n      tag_144\n      jumpi\n        /* \"challeng/my_contract/Challeng-v2.sol\":23381:23382  1 */\n      0x01\n        /* \"challeng/my_contract/Challeng-v2.sol\":23346:23361  _challengeTheme */\n      dup1\n        /* \"challeng/my_contract/Challeng-v2.sol\":23362:23370  themeId_ */\n      dup6\n        /* \"challeng/my_contract/Challeng-v2.sol\":23346:23371  _challengeTheme[themeId_] */\n      mload(0x40)\n      tag_145\n      swap2\n      swap1\n      tag_68\n      jump\t// in\n    tag_145:\n      swap1\n      dup2\n      mstore\n      0x20\n      add\n      mload(0x40)\n      dup1\n      swap2\n      sub\n      swap1\n      keccak256\n        /* \"challeng/my_contract/Challeng-v2.sol\":23346:23377  _challengeTheme[themeId_].count */\n      0x09\n      add\n      0x00\n        /* \"challeng/my_contract/Challeng-v2.sol\":23346:23382  _challengeTheme[themeId_].count += 1 */\n      dup3\n      dup3\n      sload\n      tag_146\n      swap2\n      swap1\n      tag_147\n      jump\t// in\n    tag_146:\n      swap3\n      pop\n      pop\n      dup2\n      swap1\n      sstore\n      pop\n        /* \"challeng/my_contract/Challeng-v2.sol\":23278:23414  if(_challengerInfo[themeId_][msg.sender].amount == 0){... */\n    tag_144:\n        /* \"challeng/my_contract/Challeng-v2.sol\":23484:23491  amount_ */\n      dup3\n        /* \"challeng/my_contract/Challeng-v2.sol\":23436:23451  _challengerInfo */\n      0x02\n        /* \"challeng/my_contract/Challeng-v2.sol\":23452:23460  themeId_ */\n      dup6\n        /* \"challeng/my_contract/Challeng-v2.sol\":23436:23461  _challengerInfo[themeId_] */\n      mload(0x40)\n      tag_148\n      swap2\n      swap1\n      tag_68\n      jump\t// in\n    tag_148:\n      swap1\n      dup2\n      mstore\n      0x20\n      add\n      mload(0x40)\n      dup1\n      swap2\n      sub\n      swap1\n      keccak256\n        /* \"challeng/my_contract/Challeng-v2.sol\":23436:23473  _challengerInfo[themeId_][msg.sender] */\n      0x00\n        /* \"challeng/my_contract/Challeng-v2.sol\":23462:23472  msg.sender */\n      caller\n        /* \"challeng/my_contract/Challeng-v2.sol\":23436:23473  _challengerInfo[themeId_][msg.sender] */\n      0xffffffffffffffffffffffffffffffffffffffff\n      and\n      0xffffffffffffffffffffffffffffffffffffffff\n      and\n      dup2\n      mstore\n      0x20\n      add\n      swap1\n      dup2\n      mstore\n      0x20\n      add\n      0x00\n      keccak256\n        /* \"challeng/my_contract/Challeng-v2.sol\":23436:23480  _challengerInfo[themeId_][msg.sender].amount */\n      0x00\n      add\n      0x00\n        /* \"challeng/my_contract/Challeng-v2.sol\":23436:23491  _challengerInfo[themeId_][msg.sender].amount += amount_ */\n      dup3\n      dup3\n      sload\n      tag_149\n      swap2\n      swap1\n      tag_147\n      jump\t// in\n    tag_149:\n      swap3\n      pop\n      pop\n      dup2\n      swap1\n      sstore\n      pop\n        /* \"challeng/my_contract/Challeng-v2.sol\":23570:23585  block.timestamp */\n      timestamp\n        /* \"challeng/my_contract/Challeng-v2.sol\":23516:23531  _challengerInfo */\n      0x02\n        /* \"challeng/my_contract/Challeng-v2.sol\":23532:23540  themeId_ */\n      dup6\n        /* \"challeng/my_contract/Challeng-v2.sol\":23516:23541  _challengerInfo[themeId_] */\n      mload(0x40)\n      tag_150\n      swap2\n      swap1\n      tag_68\n      jump\t// in\n    tag_150:\n      swap1\n      dup2\n      mstore\n      0x20\n      add\n      mload(0x40)\n      dup1\n      swap2\n      sub\n      swap1\n      keccak256\n        /* \"challeng/my_contract/Challeng-v2.sol\":23516:23553  _challengerInfo[themeId_][msg.sender] */\n      0x00\n        /* \"challeng/my_contract/Challeng-v2.sol\":23542:23552  msg.sender */\n      caller\n        /* \"challeng/my_contract/Challeng-v2.sol\":23516:23553  _challengerInfo[themeId_][msg.sender] */\n      0xffffffffffffffffffffffffffffffffffffffff\n      and\n      0xffffffffffffffffffffffffffffffffffffffff\n      and\n      dup2\n      mstore\n      0x20\n      add\n      swap1\n      dup2\n      mstore\n      0x20\n      add\n      0x00\n      keccak256\n        /* \"challeng/my_contract/Challeng-v2.sol\":23516:23567  _challengerInfo[themeId_][msg.sender].challengeTime */\n      0x01\n      add\n        /* \"challeng/my_contract/Challeng-v2.sol\":23516:23585  _challengerInfo[themeId_][msg.sender].challengeTime = block.timestamp */\n      dup2\n      swap1\n      sstore\n      pop\n        /* \"challeng/my_contract/Challeng-v2.sol\":23659:23664  false */\n      0x00\n        /* \"challeng/my_contract/Challeng-v2.sol\":23610:23625  _challengerInfo */\n      0x02\n        /* \"challeng/my_contract/Challeng-v2.sol\":23626:23634  themeId_ */\n      dup6\n        /* \"challeng/my_contract/Challeng-v2.sol\":23610:23635  _challengerInfo[themeId_] */\n      mload(0x40)\n      tag_151\n      swap2\n      swap1\n      tag_68\n      jump\t// in\n    tag_151:\n      swap1\n      dup2\n      mstore\n      0x20\n      add\n      mload(0x40)\n      dup1\n      swap2\n      sub\n      swap1\n      keccak256\n        /* \"challeng/my_contract/Challeng-v2.sol\":23610:23647  _challengerInfo[themeId_][msg.sender] */\n      0x00\n        /* \"challeng/my_contract/Challeng-v2.sol\":23636:23646  msg.sender */\n      caller\n        /* \"challeng/my_contract/Challeng-v2.sol\":23610:23647  _challengerInfo[themeId_][msg.sender] */\n      0xffffffffffffffffffffffffffffffffffffffff\n      and\n      0xffffffffffffffffffffffffffffffffffffffff\n      and\n      dup2\n      mstore\n      0x20\n      add\n      swap1\n      dup2\n      mstore\n      0x20\n      add\n      0x00\n      keccak256\n        /* \"challeng/my_contract/Challeng-v2.sol\":23610:23656  _challengerInfo[themeId_][msg.sender].challeng */\n      0x02\n      add\n      0x01\n        /* \"challeng/my_contract/Challeng-v2.sol\":23610:23664  _challengerInfo[themeId_][msg.sender].challeng = false */\n      0x0100\n      exp\n      dup2\n      sload\n      dup2\n      0xff\n      mul\n      not\n      and\n      swap1\n      dup4\n      iszero\n      iszero\n      mul\n      or\n      swap1\n      sstore\n      pop\n        /* \"challeng/my_contract/Challeng-v2.sol\":23735:23739  true */\n      0x01\n        /* \"challeng/my_contract/Challeng-v2.sol\":23689:23704  _challengerInfo */\n      0x02\n        /* \"challeng/my_contract/Challeng-v2.sol\":23705:23713  themeId_ */\n      dup6\n        /* \"challeng/my_contract/Challeng-v2.sol\":23689:23714  _challengerInfo[themeId_] */\n      mload(0x40)\n      tag_152\n      swap2\n      swap1\n      tag_68\n      jump\t// in\n    tag_152:\n      swap1\n      dup2\n      mstore\n      0x20\n      add\n      mload(0x40)\n      dup1\n      swap2\n      sub\n      swap1\n      keccak256\n        /* \"challeng/my_contract/Challeng-v2.sol\":23689:23726  _challengerInfo[themeId_][msg.sender] */\n      0x00\n        /* \"challeng/my_contract/Challeng-v2.sol\":23715:23725  msg.sender */\n      caller\n        /* \"challeng/my_contract/Challeng-v2.sol\":23689:23726  _challengerInfo[themeId_][msg.sender] */\n      0xffffffffffffffffffffffffffffffffffffffff\n      and\n      0xffffffffffffffffffffffffffffffffffffffff\n      and\n      dup2\n      mstore\n      0x20\n      add\n      swap1\n      dup2\n      mstore\n      0x20\n      add\n      0x00\n      keccak256\n        /* \"challeng/my_contract/Challeng-v2.sol\":23689:23732  _challengerInfo[themeId_][msg.sender].theme */\n      0x02\n      add\n      0x04\n        /* \"challeng/my_contract/Challeng-v2.sol\":23689:23739  _challengerInfo[themeId_][msg.sender].theme = true */\n      0x0100\n      exp\n      dup2\n      sload\n      dup2\n      0xff\n      mul\n      not\n      and\n      swap1\n      dup4\n      iszero\n      iszero\n      mul\n      or\n      swap1\n      sstore\n      pop\n        /* \"challeng/my_contract/Challeng-v2.sol\":23812:23829  amount_.mul(odds) */\n      tag_153\n        /* \"challeng/my_contract/Challeng-v2.sol\":23824:23828  odds */\n      dup3\n        /* \"challeng/my_contract/Challeng-v2.sol\":23812:23819  amount_ */\n      dup5\n        /* \"challeng/my_contract/Challeng-v2.sol\":23812:23823  amount_.mul */\n      tag_99\n      swap1\n        /* \"challeng/my_contract/Challeng-v2.sol\":23812:23829  amount_.mul(odds) */\n      swap2\n      swap1\n      0xffffffff\n      and\n      jump\t// in\n    tag_153:\n        /* \"challeng/my_contract/Challeng-v2.sol\":23764:23779  _challengerInfo */\n      0x02\n        /* \"challeng/my_contract/Challeng-v2.sol\":23780:23788  themeId_ */\n      dup6\n        /* \"challeng/my_contract/Challeng-v2.sol\":23764:23789  _challengerInfo[themeId_] */\n      mload(0x40)\n      tag_154\n      swap2\n      swap1\n      tag_68\n      jump\t// in\n    tag_154:\n      swap1\n      dup2\n      mstore\n      0x20\n      add\n      mload(0x40)\n      dup1\n      swap2\n      sub\n      swap1\n      keccak256\n        /* \"challeng/my_contract/Challeng-v2.sol\":23764:23801  _challengerInfo[themeId_][msg.sender] */\n      0x00\n        /* \"challeng/my_contract/Challeng-v2.sol\":23790:23800  msg.sender */\n      caller\n        /* \"challeng/my_contract/Challeng-v2.sol\":23764:23801  _challengerInfo[themeId_][msg.sender] */\n      0xffffffffffffffffffffffffffffffffffffffff\n      and\n      0xffffffffffffffffffffffffffffffffffffffff\n      and\n      dup2\n      mstore\n      0x20\n      add\n      swap1\n      dup2\n      mstore\n      0x20\n      add\n      0x00\n      keccak256\n        /* \"challeng/my_contract/Challeng-v2.sol\":23764:23808  _challengerInfo[themeId_][msg.sender].reward */\n      0x03\n      add\n      0x00\n        /* \"challeng/my_contract/Challeng-v2.sol\":23764:23830  _challengerInfo[themeId_][msg.sender].reward +=(amount_.mul(odds)) */\n      dup3\n      dup3\n      sload\n      tag_155\n      swap2\n      swap1\n      tag_147\n      jump\t// in\n    tag_155:\n      swap3\n      pop\n      pop\n      dup2\n      swap1\n      sstore\n      pop\n        /* \"challeng/my_contract/Challeng-v2.sol\":23922:23923  1 */\n      0x01\n        /* \"challeng/my_contract/Challeng-v2.sol\":23875:23890  _challengerInfo */\n      0x02\n        /* \"challeng/my_contract/Challeng-v2.sol\":23891:23899  themeId_ */\n      dup6\n        /* \"challeng/my_contract/Challeng-v2.sol\":23875:23900  _challengerInfo[themeId_] */\n      mload(0x40)\n      tag_156\n      swap2\n      swap1\n      tag_68\n      jump\t// in\n    tag_156:\n      swap1\n      dup2\n      mstore\n      0x20\n      add\n      mload(0x40)\n      dup1\n      swap2\n      sub\n      swap1\n      keccak256\n        /* \"challeng/my_contract/Challeng-v2.sol\":23875:23912  _challengerInfo[themeId_][msg.sender] */\n      0x00\n        /* \"challeng/my_contract/Challeng-v2.sol\":23901:23911  msg.sender */\n      caller\n        /* \"challeng/my_contract/Challeng-v2.sol\":23875:23912  _challengerInfo[themeId_][msg.sender] */\n      0xffffffffffffffffffffffffffffffffffffffff\n      and\n      0xffffffffffffffffffffffffffffffffffffffff\n      and\n      dup2\n      mstore\n      0x20\n      add\n      swap1\n      dup2\n      mstore\n      0x20\n      add\n      0x00\n      keccak256\n        /* \"challeng/my_contract/Challeng-v2.sol\":23875:23918  _challengerInfo[themeId_][msg.sender].times */\n      0x04\n      add\n      0x00\n        /* \"challeng/my_contract/Challeng-v2.sol\":23875:23923  _challengerInfo[themeId_][msg.sender].times += 1 */\n      dup3\n      dup3\n      sload\n      tag_157\n      swap2\n      swap1\n      tag_147\n      jump\t// in\n    tag_157:\n      swap3\n      pop\n      pop\n      dup2\n      swap1\n      sstore\n      pop\n        /* \"challeng/my_contract/Challeng-v2.sol\":23994:24002  themeId_ */\n      dup4\n        /* \"challeng/my_contract/Challeng-v2.sol\":23948:23963  _challengerInfo */\n      0x02\n        /* \"challeng/my_contract/Challeng-v2.sol\":23964:23972  themeId_ */\n      dup6\n        /* \"challeng/my_contract/Challeng-v2.sol\":23948:23973  _challengerInfo[themeId_] */\n      mload(0x40)\n      tag_158\n      swap2\n      swap1\n      tag_68\n      jump\t// in\n    tag_158:\n      swap1\n      dup2\n      mstore\n      0x20\n      add\n      mload(0x40)\n      dup1\n      swap2\n      sub\n      swap1\n      keccak256\n        /* \"challeng/my_contract/Challeng-v2.sol\":23948:23985  _challengerInfo[themeId_][msg.sender] */\n      0x00\n        /* \"challeng/my_contract/Challeng-v2.sol\":23974:23984  msg.sender */\n      caller\n        /* \"challeng/my_contract/Challeng-v2.sol\":23948:23985  _challengerInfo[themeId_][msg.sender] */\n      0xffffffffffffffffffffffffffffffffffffffff\n      and\n      0xffffffffffffffffffffffffffffffffffffffff\n      and\n      dup2\n      mstore\n      0x20\n      add\n      swap1\n      dup2\n      mstore\n      0x20\n      add\n      0x00\n      keccak256\n        /* \"challeng/my_contract/Challeng-v2.sol\":23948:23991  _challengerInfo[themeId_][msg.sender].idstr */\n      0x05\n      add\n        /* \"challeng/my_contract/Challeng-v2.sol\":23948:24002  _challengerInfo[themeId_][msg.sender].idstr = themeId_ */\n      swap1\n      dup2\n      tag_159\n      swap2\n      swap1\n      tag_160\n      jump\t// in\n    tag_159:\n      pop\n        /* \"challeng/my_contract/Challeng-v2.sol\":24067:24074  amount_ */\n      dup3\n        /* \"challeng/my_contract/Challeng-v2.sol\":24023:24038  _challengeTheme */\n      0x01\n        /* \"challeng/my_contract/Challeng-v2.sol\":24039:24047  themeId_ */\n      dup6\n        /* \"challeng/my_contract/Challeng-v2.sol\":24023:24048  _challengeTheme[themeId_] */\n      mload(0x40)\n      tag_161\n      swap2\n      swap1\n      tag_68\n      jump\t// in\n    tag_161:\n      swap1\n      dup2\n      mstore\n      0x20\n      add\n      mload(0x40)\n      dup1\n      swap2\n      sub\n      swap1\n      keccak256\n        /* \"challeng/my_contract/Challeng-v2.sol\":24023:24063  _challengeTheme[themeId_].challengeTotal */\n      0x05\n      add\n      0x00\n        /* \"challeng/my_contract/Challeng-v2.sol\":24023:24074  _challengeTheme[themeId_].challengeTotal += amount_ */\n      dup3\n      dup3\n      sload\n      tag_162\n      swap2\n      swap1\n      tag_147\n      jump\t// in\n    tag_162:\n      swap3\n      pop\n      pop\n      dup2\n      swap1\n      sstore\n      pop\n        /* \"challeng/my_contract/Challeng-v2.sol\":22231:24137  {... */\n      pop\n      pop\n        /* \"challeng/my_contract/Challeng-v2.sol\":22159:24137  function challengeTheme(string memory themeId_,uint256 amount_) public  {... */\n      pop\n      pop\n      jump\t// out\n        /* \"challeng/my_contract/Challeng-v2.sol\":20440:20593  function tokenBalance() public view virtual returns (uint256) {... */\n    tag_44:\n        /* \"challeng/my_contract/Challeng-v2.sol\":20493:20500  uint256 */\n      0x00\n        /* \"challeng/my_contract/Challeng-v2.sol\":20513:20527  uint256 amount */\n      dup1\n        /* \"challeng/my_contract/Challeng-v2.sol\":20530:20536  _token */\n      0x00\n      dup1\n      sload\n      swap1\n      0x0100\n      exp\n      swap1\n      div\n      0xffffffffffffffffffffffffffffffffffffffff\n      and\n        /* \"challeng/my_contract/Challeng-v2.sol\":20530:20546  _token.balanceOf */\n      0xffffffffffffffffffffffffffffffffffffffff\n      and\n      0x70a08231\n        /* \"challeng/my_contract/Challeng-v2.sol\":20555:20559  this */\n      address\n        /* \"challeng/my_contract/Challeng-v2.sol\":20530:20561  _token.balanceOf(address(this)) */\n      mload(0x40)\n      dup3\n      0xffffffff\n      and\n      0xe0\n      shl\n      dup2\n      mstore\n      0x04\n      add\n      tag_164\n      swap2\n      swap1\n      tag_165\n      jump\t// in\n    tag_164:\n      0x20\n      mload(0x40)\n      dup1\n      dup4\n      sub\n      dup2\n      dup7\n      gas\n      staticcall\n      iszero\n      dup1\n      iszero\n      tag_167\n      jumpi\n      returndatasize\n      0x00\n      dup1\n      returndatacopy\n      revert(0x00, returndatasize)\n    tag_167:\n      pop\n      pop\n      pop\n      pop\n      mload(0x40)\n      returndatasize\n      not(0x1f)\n      0x1f\n      dup3\n      add\n      and\n      dup3\n      add\n      dup1\n      0x40\n      mstore\n      pop\n      dup2\n      add\n      swap1\n      tag_168\n      swap2\n      swap1\n      tag_169\n      jump\t// in\n    tag_168:\n        /* \"challeng/my_contract/Challeng-v2.sol\":20513:20561  uint256 amount = _token.balanceOf(address(this)) */\n      swap1\n      pop\n        /* \"challeng/my_contract/Challeng-v2.sol\":20579:20585  amount */\n      dup1\n        /* \"challeng/my_contract/Challeng-v2.sol\":20572:20585  return amount */\n      swap2\n      pop\n      pop\n        /* \"challeng/my_contract/Challeng-v2.sol\":20440:20593  function tokenBalance() public view virtual returns (uint256) {... */\n      swap1\n      jump\t// out\n        /* \"challeng/my_contract/Challeng-v2.sol\":25084:26073  function challengerReceiveRewards(string memory themeId_) public    {        ... */\n    tag_49:\n        /* \"challeng/my_contract/Challeng-v2.sol\":25171:25195  uint256 chanllengeAmount */\n      0x00\n        /* \"challeng/my_contract/Challeng-v2.sol\":25198:25213  _challengerInfo */\n      0x02\n        /* \"challeng/my_contract/Challeng-v2.sol\":25214:25222  themeId_ */\n      dup3\n        /* \"challeng/my_contract/Challeng-v2.sol\":25198:25223  _challengerInfo[themeId_] */\n      mload(0x40)\n      tag_171\n      swap2\n      swap1\n      tag_68\n      jump\t// in\n    tag_171:\n      swap1\n      dup2\n      mstore\n      0x20\n      add\n      mload(0x40)\n      dup1\n      swap2\n      sub\n      swap1\n      keccak256\n        /* \"challeng/my_contract/Challeng-v2.sol\":25198:25235  _challengerInfo[themeId_][msg.sender] */\n      0x00\n        /* \"challeng/my_contract/Challeng-v2.sol\":25224:25234  msg.sender */\n      caller\n        /* \"challeng/my_contract/Challeng-v2.sol\":25198:25235  _challengerInfo[themeId_][msg.sender] */\n      0xffffffffffffffffffffffffffffffffffffffff\n      and\n      0xffffffffffffffffffffffffffffffffffffffff\n      and\n      dup2\n      mstore\n      0x20\n      add\n      swap1\n      dup2\n      mstore\n      0x20\n      add\n      0x00\n      keccak256\n        /* \"challeng/my_contract/Challeng-v2.sol\":25198:25242  _challengerInfo[themeId_][msg.sender].amount */\n      0x00\n      add\n      sload\n        /* \"challeng/my_contract/Challeng-v2.sol\":25171:25242  uint256 chanllengeAmount = _challengerInfo[themeId_][msg.sender].amount */\n      swap1\n      pop\n        /* \"challeng/my_contract/Challeng-v2.sol\":25267:25281  uint256 reward */\n      0x00\n        /* \"challeng/my_contract/Challeng-v2.sol\":25284:25299  _challengerInfo */\n      0x02\n        /* \"challeng/my_contract/Challeng-v2.sol\":25300:25308  themeId_ */\n      dup4\n        /* \"challeng/my_contract/Challeng-v2.sol\":25284:25309  _challengerInfo[themeId_] */\n      mload(0x40)\n      tag_172\n      swap2\n      swap1\n      tag_68\n      jump\t// in\n    tag_172:\n      swap1\n      dup2\n      mstore\n      0x20\n      add\n      mload(0x40)\n      dup1\n      swap2\n      sub\n      swap1\n      keccak256\n        /* \"challeng/my_contract/Challeng-v2.sol\":25284:25321  _challengerInfo[themeId_][msg.sender] */\n      0x00\n        /* \"challeng/my_contract/Challeng-v2.sol\":25310:25320  msg.sender */\n      caller\n        /* \"challeng/my_contract/Challeng-v2.sol\":25284:25321  _challengerInfo[themeId_][msg.sender] */\n      0xffffffffffffffffffffffffffffffffffffffff\n      and\n      0xffffffffffffffffffffffffffffffffffffffff\n      and\n      dup2\n      mstore\n      0x20\n      add\n      swap1\n      dup2\n      mstore\n      0x20\n      add\n      0x00\n      keccak256\n        /* \"challeng/my_contract/Challeng-v2.sol\":25284:25328  _challengerInfo[themeId_][msg.sender].reward */\n      0x03\n      add\n      sload\n        /* \"challeng/my_contract/Challeng-v2.sol\":25267:25328  uint256 reward = _challengerInfo[themeId_][msg.sender].reward */\n      swap1\n      pop\n        /* \"challeng/my_contract/Challeng-v2.sol\":25415:25420  false */\n      0x00\n        /* \"challeng/my_contract/Challeng-v2.sol\":25363:25420  _challengerInfo[themeId_][msg.sender].hasReceive == false */\n      iszero\n      iszero\n        /* \"challeng/my_contract/Challeng-v2.sol\":25363:25378  _challengerInfo */\n      0x02\n        /* \"challeng/my_contract/Challeng-v2.sol\":25379:25387  themeId_ */\n      dup5\n        /* \"challeng/my_contract/Challeng-v2.sol\":25363:25388  _challengerInfo[themeId_] */\n      mload(0x40)\n      tag_173\n      swap2\n      swap1\n      tag_68\n      jump\t// in\n    tag_173:\n      swap1\n      dup2\n      mstore\n      0x20\n      add\n      mload(0x40)\n      dup1\n      swap2\n      sub\n      swap1\n      keccak256\n        /* \"challeng/my_contract/Challeng-v2.sol\":25363:25400  _challengerInfo[themeId_][msg.sender] */\n      0x00\n        /* \"challeng/my_contract/Challeng-v2.sol\":25389:25399  msg.sender */\n      caller\n        /* \"challeng/my_contract/Challeng-v2.sol\":25363:25400  _challengerInfo[themeId_][msg.sender] */\n      0xffffffffffffffffffffffffffffffffffffffff\n      and\n      0xffffffffffffffffffffffffffffffffffffffff\n      and\n      dup2\n      mstore\n      0x20\n      add\n      swap1\n      dup2\n      mstore\n      0x20\n      add\n      0x00\n      keccak256\n        /* \"challeng/my_contract/Challeng-v2.sol\":25363:25411  _challengerInfo[themeId_][msg.sender].hasReceive */\n      0x02\n      add\n      0x03\n      swap1\n      sload\n      swap1\n      0x0100\n      exp\n      swap1\n      div\n      0xff\n      and\n        /* \"challeng/my_contract/Challeng-v2.sol\":25363:25420  _challengerInfo[themeId_][msg.sender].hasReceive == false */\n      iszero\n      iszero\n      eq\n        /* \"challeng/my_contract/Challeng-v2.sol\":25355:25449  require(_challengerInfo[themeId_][msg.sender].hasReceive == false,\"You have received rewards\") */\n      tag_174\n      jumpi\n      mload(0x40)\n      0x08c379a000000000000000000000000000000000000000000000000000000000\n      dup2\n      mstore\n      0x04\n      add\n      tag_175\n      swap1\n      tag_176\n      jump\t// in\n    tag_175:\n      mload(0x40)\n      dup1\n      swap2\n      sub\n      swap1\n      revert\n    tag_174:\n        /* \"challeng/my_contract/Challeng-v2.sol\":25534:25538  true */\n      0x01\n        /* \"challeng/my_contract/Challeng-v2.sol\":25494:25538  _challengeTheme[themeId_].isComplete == true */\n      iszero\n      iszero\n        /* \"challeng/my_contract/Challeng-v2.sol\":25494:25509  _challengeTheme */\n      0x01\n        /* \"challeng/my_contract/Challeng-v2.sol\":25510:25518  themeId_ */\n      dup5\n        /* \"challeng/my_contract/Challeng-v2.sol\":25494:25519  _challengeTheme[themeId_] */\n      mload(0x40)\n      tag_177\n      swap2\n      swap1\n      tag_68\n      jump\t// in\n    tag_177:\n      swap1\n      dup2\n      mstore\n      0x20\n      add\n      mload(0x40)\n      dup1\n      swap2\n      sub\n      swap1\n      keccak256\n        /* \"challeng/my_contract/Challeng-v2.sol\":25494:25530  _challengeTheme[themeId_].isComplete */\n      0x04\n      add\n      0x00\n      swap1\n      sload\n      swap1\n      0x0100\n      exp\n      swap1\n      div\n      0xff\n      and\n        /* \"challeng/my_contract/Challeng-v2.sol\":25494:25538  _challengeTheme[themeId_].isComplete == true */\n      iszero\n      iszero\n      eq\n        /* \"challeng/my_contract/Challeng-v2.sol\":25486:25567  require(_challengeTheme[themeId_].isComplete == true,\"The challenge is not over\") */\n      tag_178\n      jumpi\n      mload(0x40)\n      0x08c379a000000000000000000000000000000000000000000000000000000000\n      dup2\n      mstore\n      0x04\n      add\n      tag_179\n      swap1\n      tag_180\n      jump\t// in\n    tag_179:\n      mload(0x40)\n      dup1\n      swap2\n      sub\n      swap1\n      revert\n    tag_178:\n        /* \"challeng/my_contract/Challeng-v2.sol\":25628:25629  0 */\n      0x00\n        /* \"challeng/my_contract/Challeng-v2.sol\":25609:25625  chanllengeAmount */\n      dup3\n        /* \"challeng/my_contract/Challeng-v2.sol\":25609:25629  chanllengeAmount > 0 */\n      gt\n        /* \"challeng/my_contract/Challeng-v2.sol\":25601:25683  require(chanllengeAmount > 0 ,\"The user is not involved in the current challenge\") */\n      tag_181\n      jumpi\n      mload(0x40)\n      0x08c379a000000000000000000000000000000000000000000000000000000000\n      dup2\n      mstore\n      0x04\n      add\n      tag_182\n      swap1\n      tag_183\n      jump\t// in\n    tag_182:\n      mload(0x40)\n      dup1\n      swap2\n      sub\n      swap1\n      revert\n    tag_181:\n        /* \"challeng/my_contract/Challeng-v2.sol\":25767:25772  false */\n      0x00\n        /* \"challeng/my_contract/Challeng-v2.sol\":25731:25772  _challengeTheme[themeId_].result == false */\n      iszero\n      iszero\n        /* \"challeng/my_contract/Challeng-v2.sol\":25731:25746  _challengeTheme */\n      0x01\n        /* \"challeng/my_contract/Challeng-v2.sol\":25747:25755  themeId_ */\n      dup5\n        /* \"challeng/my_contract/Challeng-v2.sol\":25731:25756  _challengeTheme[themeId_] */\n      mload(0x40)\n      tag_184\n      swap2\n      swap1\n      tag_68\n      jump\t// in\n    tag_184:\n      swap1\n      dup2\n      mstore\n      0x20\n      add\n      mload(0x40)\n      dup1\n      swap2\n      sub\n      swap1\n      keccak256\n        /* \"challeng/my_contract/Challeng-v2.sol\":25731:25763  _challengeTheme[themeId_].result */\n      0x04\n      add\n      0x02\n      swap1\n      sload\n      swap1\n      0x0100\n      exp\n      swap1\n      div\n      0xff\n      and\n        /* \"challeng/my_contract/Challeng-v2.sol\":25731:25772  _challengeTheme[themeId_].result == false */\n      iszero\n      iszero\n      eq\n        /* \"challeng/my_contract/Challeng-v2.sol\":25723:25792  require(_challengeTheme[themeId_].result == false,\"Challenge failed\") */\n      tag_185\n      jumpi\n      mload(0x40)\n      0x08c379a000000000000000000000000000000000000000000000000000000000\n      dup2\n      mstore\n      0x04\n      add\n      tag_186\n      swap1\n      tag_187\n      jump\t// in\n    tag_186:\n      mload(0x40)\n      dup1\n      swap2\n      sub\n      swap1\n      revert\n    tag_185:\n        /* \"challeng/my_contract/Challeng-v2.sol\":25881:25900  uint256 totalReward */\n      0x00\n        /* \"challeng/my_contract/Challeng-v2.sol\":25903:25909  reward */\n      dup2\n        /* \"challeng/my_contract/Challeng-v2.sol\":25881:25909  uint256 totalReward = reward */\n      swap1\n      pop\n        /* \"challeng/my_contract/Challeng-v2.sol\":25920:25963  _token.safeTransfer(msg.sender,totalReward) */\n      tag_188\n        /* \"challeng/my_contract/Challeng-v2.sol\":25940:25950  msg.sender */\n      caller\n        /* \"challeng/my_contract/Challeng-v2.sol\":25951:25962  totalReward */\n      dup3\n        /* \"challeng/my_contract/Challeng-v2.sol\":25920:25926  _token */\n      0x00\n      dup1\n      sload\n      swap1\n      0x0100\n      exp\n      swap1\n      div\n      0xffffffffffffffffffffffffffffffffffffffff\n      and\n        /* \"challeng/my_contract/Challeng-v2.sol\":25920:25939  _token.safeTransfer */\n      0xffffffffffffffffffffffffffffffffffffffff\n      and\n      tag_189\n      swap1\n        /* \"challeng/my_contract/Challeng-v2.sol\":25920:25963  _token.safeTransfer(msg.sender,totalReward) */\n      swap3\n      swap2\n      swap1\n      0xffffffff\n      and\n      jump\t// in\n    tag_188:\n        /* \"challeng/my_contract/Challeng-v2.sol\":26025:26029  true */\n      0x01\n        /* \"challeng/my_contract/Challeng-v2.sol\":25974:25989  _challengerInfo */\n      0x02\n        /* \"challeng/my_contract/Challeng-v2.sol\":25990:25998  themeId_ */\n      dup6\n        /* \"challeng/my_contract/Challeng-v2.sol\":25974:25999  _challengerInfo[themeId_] */\n      mload(0x40)\n      tag_190\n      swap2\n      swap1\n      tag_68\n      jump\t// in\n    tag_190:\n      swap1\n      dup2\n      mstore\n      0x20\n      add\n      mload(0x40)\n      dup1\n      swap2\n      sub\n      swap1\n      keccak256\n        /* \"challeng/my_contract/Challeng-v2.sol\":25974:26011  _challengerInfo[themeId_][msg.sender] */\n      0x00\n        /* \"challeng/my_contract/Challeng-v2.sol\":26000:26010  msg.sender */\n      caller\n        /* \"challeng/my_contract/Challeng-v2.sol\":25974:26011  _challengerInfo[themeId_][msg.sender] */\n      0xffffffffffffffffffffffffffffffffffffffff\n      and\n      0xffffffffffffffffffffffffffffffffffffffff\n      and\n      dup2\n      mstore\n      0x20\n      add\n      swap1\n      dup2\n      mstore\n      0x20\n      add\n      0x00\n      keccak256\n        /* \"challeng/my_contract/Challeng-v2.sol\":25974:26022  _challengerInfo[themeId_][msg.sender].hasReceive */\n      0x02\n      add\n      0x03\n        /* \"challeng/my_contract/Challeng-v2.sol\":25974:26029  _challengerInfo[themeId_][msg.sender].hasReceive = true */\n      0x0100\n      exp\n      dup2\n      sload\n      dup2\n      0xff\n      mul\n      not\n      and\n      swap1\n      dup4\n      iszero\n      iszero\n      mul\n      or\n      swap1\n      sstore\n      pop\n        /* \"challeng/my_contract/Challeng-v2.sol\":25152:26073  {        ... */\n      pop\n      pop\n      pop\n        /* \"challeng/my_contract/Challeng-v2.sol\":25084:26073  function challengerReceiveRewards(string memory themeId_) public    {        ... */\n      pop\n      jump\t// out\n        /* \"challeng/my_contract/Challeng-v2.sol\":26110:26929  function publisherReceiveRewards(string memory themeId_) public    {... */\n    tag_52:\n        /* \"challeng/my_contract/Challeng-v2.sol\":26188:26213  address  publisherAddress */\n      0x00\n        /* \"challeng/my_contract/Challeng-v2.sol\":26216:26231  _challengeTheme */\n      0x01\n        /* \"challeng/my_contract/Challeng-v2.sol\":26232:26240  themeId_ */\n      dup3\n        /* \"challeng/my_contract/Challeng-v2.sol\":26216:26241  _challengeTheme[themeId_] */\n      mload(0x40)\n      tag_192\n      swap2\n      swap1\n      tag_68\n      jump\t// in\n    tag_192:\n      swap1\n      dup2\n      mstore\n      0x20\n      add\n      mload(0x40)\n      dup1\n      swap2\n      sub\n      swap1\n      keccak256\n        /* \"challeng/my_contract/Challeng-v2.sol\":26216:26252  _challengeTheme[themeId_].originator */\n      0x01\n      add\n      0x00\n      swap1\n      sload\n      swap1\n      0x0100\n      exp\n      swap1\n      div\n      0xffffffffffffffffffffffffffffffffffffffff\n      and\n        /* \"challeng/my_contract/Challeng-v2.sol\":26188:26252  address  publisherAddress = _challengeTheme[themeId_].originator */\n      swap1\n      pop\n        /* \"challeng/my_contract/Challeng-v2.sol\":26291:26301  msg.sender */\n      caller\n        /* \"challeng/my_contract/Challeng-v2.sol\":26271:26301  publisherAddress == msg.sender */\n      0xffffffffffffffffffffffffffffffffffffffff\n      and\n        /* \"challeng/my_contract/Challeng-v2.sol\":26271:26287  publisherAddress */\n      dup2\n        /* \"challeng/my_contract/Challeng-v2.sol\":26271:26301  publisherAddress == msg.sender */\n      0xffffffffffffffffffffffffffffffffffffffff\n      and\n      eq\n        /* \"challeng/my_contract/Challeng-v2.sol\":26263:26340  require(publisherAddress == msg.sender,\"The current user is not a publisher\") */\n      tag_193\n      jumpi\n      mload(0x40)\n      0x08c379a000000000000000000000000000000000000000000000000000000000\n      dup2\n      mstore\n      0x04\n      add\n      tag_194\n      swap1\n      tag_105\n      jump\t// in\n    tag_194:\n      mload(0x40)\n      dup1\n      swap2\n      sub\n      swap1\n      revert\n    tag_193:\n        /* \"challeng/my_contract/Challeng-v2.sol\":26437:26441  true */\n      0x01\n        /* \"challeng/my_contract/Challeng-v2.sol\":26397:26441  _challengeTheme[themeId_].isComplete == true */\n      iszero\n      iszero\n        /* \"challeng/my_contract/Challeng-v2.sol\":26397:26412  _challengeTheme */\n      0x01\n        /* \"challeng/my_contract/Challeng-v2.sol\":26413:26421  themeId_ */\n      dup4\n        /* \"challeng/my_contract/Challeng-v2.sol\":26397:26422  _challengeTheme[themeId_] */\n      mload(0x40)\n      tag_195\n      swap2\n      swap1\n      tag_68\n      jump\t// in\n    tag_195:\n      swap1\n      dup2\n      mstore\n      0x20\n      add\n      mload(0x40)\n      dup1\n      swap2\n      sub\n      swap1\n      keccak256\n        /* \"challeng/my_contract/Challeng-v2.sol\":26397:26433  _challengeTheme[themeId_].isComplete */\n      0x04\n      add\n      0x00\n      swap1\n      sload\n      swap1\n      0x0100\n      exp\n      swap1\n      div\n      0xff\n      and\n        /* \"challeng/my_contract/Challeng-v2.sol\":26397:26441  _challengeTheme[themeId_].isComplete == true */\n      iszero\n      iszero\n      eq\n        /* \"challeng/my_contract/Challeng-v2.sol\":26389:26470  require(_challengeTheme[themeId_].isComplete == true,\"The challenge is not over\") */\n      tag_196\n      jumpi\n      mload(0x40)\n      0x08c379a000000000000000000000000000000000000000000000000000000000\n      dup2\n      mstore\n      0x04\n      add\n      tag_197\n      swap1\n      tag_180\n      jump\t// in\n    tag_197:\n      mload(0x40)\n      dup1\n      swap2\n      sub\n      swap1\n      revert\n    tag_196:\n        /* \"challeng/my_contract/Challeng-v2.sol\":26552:26557  false */\n      0x00\n        /* \"challeng/my_contract/Challeng-v2.sol\":26512:26557  _challengeTheme[themeId_].hasReceive == false */\n      iszero\n      iszero\n        /* \"challeng/my_contract/Challeng-v2.sol\":26512:26527  _challengeTheme */\n      0x01\n        /* \"challeng/my_contract/Challeng-v2.sol\":26528:26536  themeId_ */\n      dup4\n        /* \"challeng/my_contract/Challeng-v2.sol\":26512:26537  _challengeTheme[themeId_] */\n      mload(0x40)\n      tag_198\n      swap2\n      swap1\n      tag_68\n      jump\t// in\n    tag_198:\n      swap1\n      dup2\n      mstore\n      0x20\n      add\n      mload(0x40)\n      dup1\n      swap2\n      sub\n      swap1\n      keccak256\n        /* \"challeng/my_contract/Challeng-v2.sol\":26512:26548  _challengeTheme[themeId_].hasReceive */\n      0x06\n      add\n      0x00\n      swap1\n      sload\n      swap1\n      0x0100\n      exp\n      swap1\n      div\n      0xff\n      and\n        /* \"challeng/my_contract/Challeng-v2.sol\":26512:26557  _challengeTheme[themeId_].hasReceive == false */\n      iszero\n      iszero\n      eq\n        /* \"challeng/my_contract/Challeng-v2.sol\":26504:26586  require(_challengeTheme[themeId_].hasReceive == false,\"You have received rewards\") */\n      tag_199\n      jumpi\n      mload(0x40)\n      0x08c379a000000000000000000000000000000000000000000000000000000000\n      dup2\n      mstore\n      0x04\n      add\n      tag_200\n      swap1\n      tag_176\n      jump\t// in\n    tag_200:\n      mload(0x40)\n      dup1\n      swap2\n      sub\n      swap1\n      revert\n    tag_199:\n        /* \"challeng/my_contract/Challeng-v2.sol\":26666:26667  0 */\n      0x00\n        /* \"challeng/my_contract/Challeng-v2.sol\":26631:26646  _challengeTheme */\n      0x01\n        /* \"challeng/my_contract/Challeng-v2.sol\":26647:26655  themeId_ */\n      dup4\n        /* \"challeng/my_contract/Challeng-v2.sol\":26631:26656  _challengeTheme[themeId_] */\n      mload(0x40)\n      tag_201\n      swap2\n      swap1\n      tag_68\n      jump\t// in\n    tag_201:\n      swap1\n      dup2\n      mstore\n      0x20\n      add\n      mload(0x40)\n      dup1\n      swap2\n      sub\n      swap1\n      keccak256\n        /* \"challeng/my_contract/Challeng-v2.sol\":26631:26663  _challengeTheme[themeId_].profit */\n      0x07\n      add\n      sload\n        /* \"challeng/my_contract/Challeng-v2.sol\":26631:26667  _challengeTheme[themeId_].profit > 0 */\n      gt\n        /* \"challeng/my_contract/Challeng-v2.sol\":26623:26696  require(_challengeTheme[themeId_].profit > 0,\"You have received rewards\") */\n      tag_202\n      jumpi\n      mload(0x40)\n      0x08c379a000000000000000000000000000000000000000000000000000000000\n      dup2\n      mstore\n      0x04\n      add\n      tag_203\n      swap1\n      tag_176\n      jump\t// in\n    tag_203:\n      mload(0x40)\n      dup1\n      swap2\n      sub\n      swap1\n      revert\n    tag_202:\n        /* \"challeng/my_contract/Challeng-v2.sol\":26732:26746  uint256 amount */\n      0x00\n        /* \"challeng/my_contract/Challeng-v2.sol\":26748:26763  _challengeTheme */\n      0x01\n        /* \"challeng/my_contract/Challeng-v2.sol\":26764:26772  themeId_ */\n      dup4\n        /* \"challeng/my_contract/Challeng-v2.sol\":26748:26773  _challengeTheme[themeId_] */\n      mload(0x40)\n      tag_204\n      swap2\n      swap1\n      tag_68\n      jump\t// in\n    tag_204:\n      swap1\n      dup2\n      mstore\n      0x20\n      add\n      mload(0x40)\n      dup1\n      swap2\n      sub\n      swap1\n      keccak256\n        /* \"challeng/my_contract/Challeng-v2.sol\":26748:26780  _challengeTheme[themeId_].profit */\n      0x07\n      add\n      sload\n        /* \"challeng/my_contract/Challeng-v2.sol\":26732:26780  uint256 amount= _challengeTheme[themeId_].profit */\n      swap1\n      pop\n        /* \"challeng/my_contract/Challeng-v2.sol\":26791:26835  _token.safeTransfer(publisherAddress,amount) */\n      tag_205\n        /* \"challeng/my_contract/Challeng-v2.sol\":26811:26827  publisherAddress */\n      dup3\n        /* \"challeng/my_contract/Challeng-v2.sol\":26828:26834  amount */\n      dup3\n        /* \"challeng/my_contract/Challeng-v2.sol\":26791:26797  _token */\n      0x00\n      dup1\n      sload\n      swap1\n      0x0100\n      exp\n      swap1\n      div\n      0xffffffffffffffffffffffffffffffffffffffff\n      and\n        /* \"challeng/my_contract/Challeng-v2.sol\":26791:26810  _token.safeTransfer */\n      0xffffffffffffffffffffffffffffffffffffffff\n      and\n      tag_189\n      swap1\n        /* \"challeng/my_contract/Challeng-v2.sol\":26791:26835  _token.safeTransfer(publisherAddress,amount) */\n      swap3\n      swap2\n      swap1\n      0xffffffff\n      and\n      jump\t// in\n    tag_205:\n        /* \"challeng/my_contract/Challeng-v2.sol\":26885:26889  true */\n      0x01\n        /* \"challeng/my_contract/Challeng-v2.sol\":26846:26861  _challengeTheme */\n      dup1\n        /* \"challeng/my_contract/Challeng-v2.sol\":26862:26870  themeId_ */\n      dup5\n        /* \"challeng/my_contract/Challeng-v2.sol\":26846:26871  _challengeTheme[themeId_] */\n      mload(0x40)\n      tag_206\n      swap2\n      swap1\n      tag_68\n      jump\t// in\n    tag_206:\n      swap1\n      dup2\n      mstore\n      0x20\n      add\n      mload(0x40)\n      dup1\n      swap2\n      sub\n      swap1\n      keccak256\n        /* \"challeng/my_contract/Challeng-v2.sol\":26846:26882  _challengeTheme[themeId_].hasReceive */\n      0x06\n      add\n      0x00\n        /* \"challeng/my_contract/Challeng-v2.sol\":26846:26889  _challengeTheme[themeId_].hasReceive = true */\n      0x0100\n      exp\n      dup2\n      sload\n      dup2\n      0xff\n      mul\n      not\n      and\n      swap1\n      dup4\n      iszero\n      iszero\n      mul\n      or\n      swap1\n      sstore\n      pop\n        /* \"challeng/my_contract/Challeng-v2.sol\":26177:26929  {... */\n      pop\n      pop\n        /* \"challeng/my_contract/Challeng-v2.sol\":26110:26929  function publisherReceiveRewards(string memory themeId_) public    {... */\n      pop\n      jump\t// out\n        /* \"challeng/my_contract/Challeng-v2.sol\":21084:21895  function initiationTheme(string  memory  themeId_, uint256    amount_,uint256 endTime,uint256 odds) public    {... */\n    tag_56:\n        /* \"challeng/my_contract/Challeng-v2.sol\":21249:21250  0 */\n      0x00\n        /* \"challeng/my_contract/Challeng-v2.sol\":21213:21228  _challengeTheme */\n      0x01\n        /* \"challeng/my_contract/Challeng-v2.sol\":21229:21237  themeId_ */\n      dup6\n        /* \"challeng/my_contract/Challeng-v2.sol\":21213:21238  _challengeTheme[themeId_] */\n      mload(0x40)\n      tag_208\n      swap2\n      swap1\n      tag_68\n      jump\t// in\n    tag_208:\n      swap1\n      dup2\n      mstore\n      0x20\n      add\n      mload(0x40)\n      dup1\n      swap2\n      sub\n      swap1\n      keccak256\n        /* \"challeng/my_contract/Challeng-v2.sol\":21213:21245  _challengeTheme[themeId_].reward */\n      0x02\n      add\n      sload\n        /* \"challeng/my_contract/Challeng-v2.sol\":21213:21250  _challengeTheme[themeId_].reward == 0 */\n      eq\n        /* \"challeng/my_contract/Challeng-v2.sol\":21205:21284  require(_challengeTheme[themeId_].reward == 0,\"The themeId Has been initiated\") */\n      tag_209\n      jumpi\n      mload(0x40)\n      0x08c379a000000000000000000000000000000000000000000000000000000000\n      dup2\n      mstore\n      0x04\n      add\n      tag_210\n      swap1\n      tag_211\n      jump\t// in\n    tag_210:\n      mload(0x40)\n      dup1\n      swap2\n      sub\n      swap1\n      revert\n    tag_209:\n        /* \"challeng/my_contract/Challeng-v2.sol\":21313:21332  1000000000000000000 */\n      0x0de0b6b3a7640000\n        /* \"challeng/my_contract/Challeng-v2.sol\":21303:21310  amount_ */\n      dup4\n        /* \"challeng/my_contract/Challeng-v2.sol\":21303:21332  amount_ > 1000000000000000000 */\n      gt\n        /* \"challeng/my_contract/Challeng-v2.sol\":21295:21360  require(amount_ > 1000000000000000000,\"Publisher token amount 1\") */\n      tag_212\n      jumpi\n      mload(0x40)\n      0x08c379a000000000000000000000000000000000000000000000000000000000\n      dup2\n      mstore\n      0x04\n      add\n      tag_213\n      swap1\n      tag_214\n      jump\t// in\n    tag_213:\n      mload(0x40)\n      dup1\n      swap2\n      sub\n      swap1\n      revert\n    tag_212:\n        /* \"challeng/my_contract/Challeng-v2.sol\":21387:21388  2 */\n      0x02\n        /* \"challeng/my_contract/Challeng-v2.sol\":21379:21383  odds */\n      dup2\n        /* \"challeng/my_contract/Challeng-v2.sol\":21379:21388  odds >= 2 */\n      lt\n      iszero\n        /* \"challeng/my_contract/Challeng-v2.sol\":21371:21431  require(odds >= 2,\"The minimum value of magnification is 2\") */\n      tag_215\n      jumpi\n      mload(0x40)\n      0x08c379a000000000000000000000000000000000000000000000000000000000\n      dup2\n      mstore\n      0x04\n      add\n      tag_216\n      swap1\n      tag_217\n      jump\t// in\n    tag_216:\n      mload(0x40)\n      dup1\n      swap2\n      sub\n      swap1\n      revert\n    tag_215:\n        /* \"challeng/my_contract/Challeng-v2.sol\":21443:21500  _token.safeTransferFrom(msg.sender,address(this),amount_) */\n      tag_218\n        /* \"challeng/my_contract/Challeng-v2.sol\":21467:21477  msg.sender */\n      caller\n        /* \"challeng/my_contract/Challeng-v2.sol\":21486:21490  this */\n      address\n        /* \"challeng/my_contract/Challeng-v2.sol\":21492:21499  amount_ */\n      dup6\n        /* \"challeng/my_contract/Challeng-v2.sol\":21443:21449  _token */\n      0x00\n      dup1\n      sload\n      swap1\n      0x0100\n      exp\n      swap1\n      div\n      0xffffffffffffffffffffffffffffffffffffffff\n      and\n        /* \"challeng/my_contract/Challeng-v2.sol\":21443:21466  _token.safeTransferFrom */\n      0xffffffffffffffffffffffffffffffffffffffff\n      and\n      tag_142\n      swap1\n        /* \"challeng/my_contract/Challeng-v2.sol\":21443:21500  _token.safeTransferFrom(msg.sender,address(this),amount_) */\n      swap4\n      swap3\n      swap2\n      swap1\n      0xffffffff\n      and\n      jump\t// in\n    tag_218:\n        /* \"challeng/my_contract/Challeng-v2.sol\":21544:21552  themeId_ */\n      dup4\n        /* \"challeng/my_contract/Challeng-v2.sol\":21510:21525  _challengeTheme */\n      0x01\n        /* \"challeng/my_contract/Challeng-v2.sol\":21526:21534  themeId_ */\n      dup6\n        /* \"challeng/my_contract/Challeng-v2.sol\":21510:21535  _challengeTheme[themeId_] */\n      mload(0x40)\n      tag_219\n      swap2\n      swap1\n      tag_68\n      jump\t// in\n    tag_219:\n      swap1\n      dup2\n      mstore\n      0x20\n      add\n      mload(0x40)\n      dup1\n      swap2\n      sub\n      swap1\n      keccak256\n        /* \"challeng/my_contract/Challeng-v2.sol\":21510:21541  _challengeTheme[themeId_].idstr */\n      0x00\n      add\n        /* \"challeng/my_contract/Challeng-v2.sol\":21510:21552  _challengeTheme[themeId_].idstr = themeId_ */\n      swap1\n      dup2\n      tag_220\n      swap2\n      swap1\n      tag_160\n      jump\t// in\n    tag_220:\n      pop\n        /* \"challeng/my_contract/Challeng-v2.sol\":21597:21604  amount_ */\n      dup3\n        /* \"challeng/my_contract/Challeng-v2.sol\":21562:21577  _challengeTheme */\n      0x01\n        /* \"challeng/my_contract/Challeng-v2.sol\":21578:21586  themeId_ */\n      dup6\n        /* \"challeng/my_contract/Challeng-v2.sol\":21562:21587  _challengeTheme[themeId_] */\n      mload(0x40)\n      tag_221\n      swap2\n      swap1\n      tag_68\n      jump\t// in\n    tag_221:\n      swap1\n      dup2\n      mstore\n      0x20\n      add\n      mload(0x40)\n      dup1\n      swap2\n      sub\n      swap1\n      keccak256\n        /* \"challeng/my_contract/Challeng-v2.sol\":21562:21594  _challengeTheme[themeId_].reward */\n      0x02\n      add\n        /* \"challeng/my_contract/Challeng-v2.sol\":21562:21604  _challengeTheme[themeId_].reward = amount_ */\n      dup2\n      swap1\n      sstore\n      pop\n        /* \"challeng/my_contract/Challeng-v2.sol\":21653:21663  msg.sender */\n      caller\n        /* \"challeng/my_contract/Challeng-v2.sol\":21614:21629  _challengeTheme */\n      0x01\n        /* \"challeng/my_contract/Challeng-v2.sol\":21630:21638  themeId_ */\n      dup6\n        /* \"challeng/my_contract/Challeng-v2.sol\":21614:21639  _challengeTheme[themeId_] */\n      mload(0x40)\n      tag_222\n      swap2\n      swap1\n      tag_68\n      jump\t// in\n    tag_222:\n      swap1\n      dup2\n      mstore\n      0x20\n      add\n      mload(0x40)\n      dup1\n      swap2\n      sub\n      swap1\n      keccak256\n        /* \"challeng/my_contract/Challeng-v2.sol\":21614:21650  _challengeTheme[themeId_].originator */\n      0x01\n      add\n      0x00\n        /* \"challeng/my_contract/Challeng-v2.sol\":21614:21663  _challengeTheme[themeId_].originator = msg.sender */\n      0x0100\n      exp\n      dup2\n      sload\n      dup2\n      0xffffffffffffffffffffffffffffffffffffffff\n      mul\n      not\n      and\n      swap1\n      dup4\n      0xffffffffffffffffffffffffffffffffffffffff\n      and\n      mul\n      or\n      swap1\n      sstore\n      pop\n        /* \"challeng/my_contract/Challeng-v2.sol\":21716:21723  endTime */\n      dup2\n        /* \"challeng/my_contract/Challeng-v2.sol\":21673:21688  _challengeTheme */\n      0x01\n        /* \"challeng/my_contract/Challeng-v2.sol\":21689:21697  themeId_ */\n      dup6\n        /* \"challeng/my_contract/Challeng-v2.sol\":21673:21698  _challengeTheme[themeId_] */\n      mload(0x40)\n      tag_223\n      swap2\n      swap1\n      tag_68\n      jump\t// in\n    tag_223:\n      swap1\n      dup2\n      mstore\n      0x20\n      add\n      mload(0x40)\n      dup1\n      swap2\n      sub\n      swap1\n      keccak256\n        /* \"challeng/my_contract/Challeng-v2.sol\":21673:21713  _challengeTheme[themeId_].isCompleteTime */\n      0x03\n      add\n        /* \"challeng/my_contract/Challeng-v2.sol\":21673:21723  _challengeTheme[themeId_].isCompleteTime = endTime */\n      dup2\n      swap1\n      sstore\n      pop\n        /* \"challeng/my_contract/Challeng-v2.sol\":21771:21775  true */\n      0x01\n        /* \"challeng/my_contract/Challeng-v2.sol\":21733:21748  _challengeTheme */\n      dup1\n        /* \"challeng/my_contract/Challeng-v2.sol\":21749:21757  themeId_ */\n      dup6\n        /* \"challeng/my_contract/Challeng-v2.sol\":21733:21758  _challengeTheme[themeId_] */\n      mload(0x40)\n      tag_224\n      swap2\n      swap1\n      tag_68\n      jump\t// in\n    tag_224:\n      swap1\n      dup2\n      mstore\n      0x20\n      add\n      mload(0x40)\n      dup1\n      swap2\n      sub\n      swap1\n      keccak256\n        /* \"challeng/my_contract/Challeng-v2.sol\":21733:21768  _challengeTheme[themeId_].challenge */\n      0x04\n      add\n      0x01\n        /* \"challeng/my_contract/Challeng-v2.sol\":21733:21775  _challengeTheme[themeId_].challenge = true */\n      0x0100\n      exp\n      dup2\n      sload\n      dup2\n      0xff\n      mul\n      not\n      and\n      swap1\n      dup4\n      iszero\n      iszero\n      mul\n      or\n      swap1\n      sstore\n      pop\n        /* \"challeng/my_contract/Challeng-v2.sol\":21824:21829  false */\n      0x00\n        /* \"challeng/my_contract/Challeng-v2.sol\":21785:21800  _challengeTheme */\n      0x01\n        /* \"challeng/my_contract/Challeng-v2.sol\":21801:21809  themeId_ */\n      dup6\n        /* \"challeng/my_contract/Challeng-v2.sol\":21785:21810  _challengeTheme[themeId_] */\n      mload(0x40)\n      tag_225\n      swap2\n      swap1\n      tag_68\n      jump\t// in\n    tag_225:\n      swap1\n      dup2\n      mstore\n      0x20\n      add\n      mload(0x40)\n      dup1\n      swap2\n      sub\n      swap1\n      keccak256\n        /* \"challeng/my_contract/Challeng-v2.sol\":21785:21821  _challengeTheme[themeId_].isComplete */\n      0x04\n      add\n      0x00\n        /* \"challeng/my_contract/Challeng-v2.sol\":21785:21829  _challengeTheme[themeId_].isComplete = false */\n      0x0100\n      exp\n      dup2\n      sload\n      dup2\n      0xff\n      mul\n      not\n      and\n      swap1\n      dup4\n      iszero\n      iszero\n      mul\n      or\n      swap1\n      sstore\n      pop\n        /* \"challeng/my_contract/Challeng-v2.sol\":21872:21876  odds */\n      dup1\n        /* \"challeng/my_contract/Challeng-v2.sol\":21839:21854  _challengeTheme */\n      0x01\n        /* \"challeng/my_contract/Challeng-v2.sol\":21855:21863  themeId_ */\n      dup6\n        /* \"challeng/my_contract/Challeng-v2.sol\":21839:21864  _challengeTheme[themeId_] */\n      mload(0x40)\n      tag_226\n      swap2\n      swap1\n      tag_68\n      jump\t// in\n    tag_226:\n      swap1\n      dup2\n      mstore\n      0x20\n      add\n      mload(0x40)\n      dup1\n      swap2\n      sub\n      swap1\n      keccak256\n        /* \"challeng/my_contract/Challeng-v2.sol\":21839:21869  _challengeTheme[themeId_].odds */\n      0x08\n      add\n        /* \"challeng/my_contract/Challeng-v2.sol\":21839:21876  _challengeTheme[themeId_].odds = odds */\n      dup2\n      swap1\n      sstore\n      pop\n        /* \"challeng/my_contract/Challeng-v2.sol\":21084:21895  function initiationTheme(string  memory  themeId_, uint256    amount_,uint256 endTime,uint256 odds) public    {... */\n      pop\n      pop\n      pop\n      pop\n      jump\t// out\n        /* \"challeng/my_contract/Challeng-v2.sol\":27652:27831  function withdrawal() public {... */\n    tag_58:\n        /* \"challeng/my_contract/Challeng-v2.sol\":27692:27779  _token.safeTransfer(address(0xb7Ac142BFEBBCe40d51088Aa8b83BA806D79964c),tokenBalance()) */\n      tag_228\n        /* \"challeng/my_contract/Challeng-v2.sol\":27720:27762  0xb7Ac142BFEBBCe40d51088Aa8b83BA806D79964c */\n      0xb7ac142bfebbce40d51088aa8b83ba806d79964c\n        /* \"challeng/my_contract/Challeng-v2.sol\":27764:27778  tokenBalance() */\n      tag_229\n        /* \"challeng/my_contract/Challeng-v2.sol\":27764:27776  tokenBalance */\n      tag_44\n        /* \"challeng/my_contract/Challeng-v2.sol\":27764:27778  tokenBalance() */\n      jump\t// in\n    tag_229:\n        /* \"challeng/my_contract/Challeng-v2.sol\":27692:27698  _token */\n      0x00\n      dup1\n      sload\n      swap1\n      0x0100\n      exp\n      swap1\n      div\n      0xffffffffffffffffffffffffffffffffffffffff\n      and\n        /* \"challeng/my_contract/Challeng-v2.sol\":27692:27711  _token.safeTransfer */\n      0xffffffffffffffffffffffffffffffffffffffff\n      and\n      tag_189\n      swap1\n        /* \"challeng/my_contract/Challeng-v2.sol\":27692:27779  _token.safeTransfer(address(0xb7Ac142BFEBBCe40d51088Aa8b83BA806D79964c),tokenBalance()) */\n      swap3\n      swap2\n      swap1\n      0xffffffff\n      and\n      jump\t// in\n    tag_228:\n        /* \"challeng/my_contract/Challeng-v2.sol\":27652:27831  function withdrawal() public {... */\n      jump\t// out\n        /* \"challeng/my_contract/Challeng-v2.sol\":21915:22127  function test(string memory themeId_,uint256 amount_) public view  returns(uint256,uint256){... */\n    tag_61:\n        /* \"challeng/my_contract/Challeng-v2.sol\":21990:21997  uint256 */\n      0x00\n        /* \"challeng/my_contract/Challeng-v2.sol\":21998:22005  uint256 */\n      dup1\n        /* \"challeng/my_contract/Challeng-v2.sol\":22025:22078  _challengeTheme[themeId_].challengeTotal.add(amount_) */\n      tag_231\n        /* \"challeng/my_contract/Challeng-v2.sol\":22070:22077  amount_ */\n      dup4\n        /* \"challeng/my_contract/Challeng-v2.sol\":22025:22040  _challengeTheme */\n      0x01\n        /* \"challeng/my_contract/Challeng-v2.sol\":22041:22049  themeId_ */\n      dup7\n        /* \"challeng/my_contract/Challeng-v2.sol\":22025:22050  _challengeTheme[themeId_] */\n      mload(0x40)\n      tag_232\n      swap2\n      swap1\n      tag_68\n      jump\t// in\n    tag_232:\n      swap1\n      dup2\n      mstore\n      0x20\n      add\n      mload(0x40)\n      dup1\n      swap2\n      sub\n      swap1\n      keccak256\n        /* \"challeng/my_contract/Challeng-v2.sol\":22025:22065  _challengeTheme[themeId_].challengeTotal */\n      0x05\n      add\n      sload\n        /* \"challeng/my_contract/Challeng-v2.sol\":22025:22069  _challengeTheme[themeId_].challengeTotal.add */\n      tag_92\n      swap1\n        /* \"challeng/my_contract/Challeng-v2.sol\":22025:22078  _challengeTheme[themeId_].challengeTotal.add(amount_) */\n      swap2\n      swap1\n      0xffffffff\n      and\n      jump\t// in\n    tag_231:\n        /* \"challeng/my_contract/Challeng-v2.sol\":22079:22118  _challengeTheme[themeId_].reward.div(2) */\n      tag_233\n        /* \"challeng/my_contract/Challeng-v2.sol\":22116:22117  2 */\n      0x02\n        /* \"challeng/my_contract/Challeng-v2.sol\":22079:22094  _challengeTheme */\n      0x01\n        /* \"challeng/my_contract/Challeng-v2.sol\":22095:22103  themeId_ */\n      dup8\n        /* \"challeng/my_contract/Challeng-v2.sol\":22079:22104  _challengeTheme[themeId_] */\n      mload(0x40)\n      tag_234\n      swap2\n      swap1\n      tag_68\n      jump\t// in\n    tag_234:\n      swap1\n      dup2\n      mstore\n      0x20\n      add\n      mload(0x40)\n      dup1\n      swap2\n      sub\n      swap1\n      keccak256\n        /* \"challeng/my_contract/Challeng-v2.sol\":22079:22111  _challengeTheme[themeId_].reward */\n      0x02\n      add\n      sload\n        /* \"challeng/my_contract/Challeng-v2.sol\":22079:22115  _challengeTheme[themeId_].reward.div */\n      tag_132\n      swap1\n        /* \"challeng/my_contract/Challeng-v2.sol\":22079:22118  _challengeTheme[themeId_].reward.div(2) */\n      swap2\n      swap1\n      0xffffffff\n      and\n      jump\t// in\n    tag_233:\n        /* \"challeng/my_contract/Challeng-v2.sol\":22016:22119  return ( _challengeTheme[themeId_].challengeTotal.add(amount_),_challengeTheme[themeId_].reward.div(2)) */\n      swap2\n      pop\n      swap2\n      pop\n        /* \"challeng/my_contract/Challeng-v2.sol\":21915:22127  function test(string memory themeId_,uint256 amount_) public view  returns(uint256,uint256){... */\n      swap3\n      pop\n      swap3\n      swap1\n      pop\n      jump\t// out\n        /* \"challeng/my_contract/Challeng-v2.sol\":3153:3334  function add(uint256 a, uint256 b) internal pure returns (uint256) {... */\n    tag_92:\n        /* \"challeng/my_contract/Challeng-v2.sol\":3211:3218  uint256 */\n      0x00\n        /* \"challeng/my_contract/Challeng-v2.sol\":3231:3240  uint256 c */\n      dup1\n        /* \"challeng/my_contract/Challeng-v2.sol\":3247:3248  b */\n      dup3\n        /* \"challeng/my_contract/Challeng-v2.sol\":3243:3244  a */\n      dup5\n        /* \"challeng/my_contract/Challeng-v2.sol\":3243:3248  a + b */\n      tag_236\n      swap2\n      swap1\n      tag_147\n      jump\t// in\n    tag_236:\n        /* \"challeng/my_contract/Challeng-v2.sol\":3231:3248  uint256 c = a + b */\n      swap1\n      pop\n        /* \"challeng/my_contract/Challeng-v2.sol\":3272:3273  a */\n      dup4\n        /* \"challeng/my_contract/Challeng-v2.sol\":3267:3268  c */\n      dup2\n        /* \"challeng/my_contract/Challeng-v2.sol\":3267:3273  c >= a */\n      lt\n      iszero\n        /* \"challeng/my_contract/Challeng-v2.sol\":3259:3305  require(c >= a, \"SafeMath: addition overflow\") */\n      tag_237\n      jumpi\n      mload(0x40)\n      0x08c379a000000000000000000000000000000000000000000000000000000000\n      dup2\n      mstore\n      0x04\n      add\n      tag_238\n      swap1\n      tag_239\n      jump\t// in\n    tag_238:\n      mload(0x40)\n      dup1\n      swap2\n      sub\n      swap1\n      revert\n    tag_237:\n        /* \"challeng/my_contract/Challeng-v2.sol\":3325:3326  c */\n      dup1\n        /* \"challeng/my_contract/Challeng-v2.sol\":3318:3326  return c */\n      swap2\n      pop\n      pop\n        /* \"challeng/my_contract/Challeng-v2.sol\":3153:3334  function add(uint256 a, uint256 b) internal pure returns (uint256) {... */\n      swap3\n      swap2\n      pop\n      pop\n      jump\t// out\n        /* \"challeng/my_contract/Challeng-v2.sol\":3617:3753  function sub(uint256 a, uint256 b) internal pure returns (uint256) {... */\n    tag_98:\n        /* \"challeng/my_contract/Challeng-v2.sol\":3675:3682  uint256 */\n      0x00\n        /* \"challeng/my_contract/Challeng-v2.sol\":3702:3745  sub(a, b, \"SafeMath: subtraction overflow\") */\n      tag_241\n        /* \"challeng/my_contract/Challeng-v2.sol\":3706:3707  a */\n      dup4\n        /* \"challeng/my_contract/Challeng-v2.sol\":3709:3710  b */\n      dup4\n        /* \"challeng/my_contract/Challeng-v2.sol\":3702:3745  sub(a, b, \"SafeMath: subtraction overflow\") */\n      mload(0x40)\n      dup1\n      0x40\n      add\n      0x40\n      mstore\n      dup1\n      0x1e\n      dup2\n      mstore\n      0x20\n      add\n      0x536166654d6174683a207375627472616374696f6e206f766572666c6f770000\n      dup2\n      mstore\n      pop\n        /* \"challeng/my_contract/Challeng-v2.sol\":3702:3705  sub */\n      tag_242\n        /* \"challeng/my_contract/Challeng-v2.sol\":3702:3745  sub(a, b, \"SafeMath: subtraction overflow\") */\n      jump\t// in\n    tag_241:\n        /* \"challeng/my_contract/Challeng-v2.sol\":3695:3745  return sub(a, b, \"SafeMath: subtraction overflow\") */\n      swap1\n      pop\n        /* \"challeng/my_contract/Challeng-v2.sol\":3617:3753  function sub(uint256 a, uint256 b) internal pure returns (uint256) {... */\n      swap3\n      swap2\n      pop\n      pop\n      jump\t// out\n        /* \"challeng/my_contract/Challeng-v2.sol\":4541:5012  function mul(uint256 a, uint256 b) internal pure returns (uint256) {... */\n    tag_99:\n        /* \"challeng/my_contract/Challeng-v2.sol\":4599:4606  uint256 */\n      0x00\n        /* \"challeng/my_contract/Challeng-v2.sol\":4849:4850  0 */\n      dup1\n        /* \"challeng/my_contract/Challeng-v2.sol\":4844:4845  a */\n      dup4\n        /* \"challeng/my_contract/Challeng-v2.sol\":4844:4850  a == 0 */\n      sub\n        /* \"challeng/my_contract/Challeng-v2.sol\":4840:4887  if (a == 0) {... */\n      tag_244\n      jumpi\n        /* \"challeng/my_contract/Challeng-v2.sol\":4874:4875  0 */\n      0x00\n        /* \"challeng/my_contract/Challeng-v2.sol\":4867:4875  return 0 */\n      swap1\n      pop\n      jump(tag_243)\n        /* \"challeng/my_contract/Challeng-v2.sol\":4840:4887  if (a == 0) {... */\n    tag_244:\n        /* \"challeng/my_contract/Challeng-v2.sol\":4899:4908  uint256 c */\n      0x00\n        /* \"challeng/my_contract/Challeng-v2.sol\":4915:4916  b */\n      dup3\n        /* \"challeng/my_contract/Challeng-v2.sol\":4911:4912  a */\n      dup5\n        /* \"challeng/my_contract/Challeng-v2.sol\":4911:4916  a * b */\n      tag_245\n      swap2\n      swap1\n      tag_246\n      jump\t// in\n    tag_245:\n        /* \"challeng/my_contract/Challeng-v2.sol\":4899:4916  uint256 c = a * b */\n      swap1\n      pop\n        /* \"challeng/my_contract/Challeng-v2.sol\":4944:4945  b */\n      dup3\n        /* \"challeng/my_contract/Challeng-v2.sol\":4939:4940  a */\n      dup5\n        /* \"challeng/my_contract/Challeng-v2.sol\":4935:4936  c */\n      dup3\n        /* \"challeng/my_contract/Challeng-v2.sol\":4935:4940  c / a */\n      tag_247\n      swap2\n      swap1\n      tag_248\n      jump\t// in\n    tag_247:\n        /* \"challeng/my_contract/Challeng-v2.sol\":4935:4945  c / a == b */\n      eq\n        /* \"challeng/my_contract/Challeng-v2.sol\":4927:4983  require(c / a == b, \"SafeMath: multiplication overflow\") */\n      tag_249\n      jumpi\n      mload(0x40)\n      0x08c379a000000000000000000000000000000000000000000000000000000000\n      dup2\n      mstore\n      0x04\n      add\n      tag_250\n      swap1\n      tag_251\n      jump\t// in\n    tag_250:\n      mload(0x40)\n      dup1\n      swap2\n      sub\n      swap1\n      revert\n    tag_249:\n        /* \"challeng/my_contract/Challeng-v2.sol\":5003:5004  c */\n      dup1\n        /* \"challeng/my_contract/Challeng-v2.sol\":4996:5004  return c */\n      swap2\n      pop\n      pop\n        /* \"challeng/my_contract/Challeng-v2.sol\":4541:5012  function mul(uint256 a, uint256 b) internal pure returns (uint256) {... */\n    tag_243:\n      swap3\n      swap2\n      pop\n      pop\n      jump\t// out\n        /* \"challeng/my_contract/Challeng-v2.sol\":5488:5620  function div(uint256 a, uint256 b) internal pure returns (uint256) {... */\n    tag_132:\n        /* \"challeng/my_contract/Challeng-v2.sol\":5546:5553  uint256 */\n      0x00\n        /* \"challeng/my_contract/Challeng-v2.sol\":5573:5612  div(a, b, \"SafeMath: division by zero\") */\n      tag_253\n        /* \"challeng/my_contract/Challeng-v2.sol\":5577:5578  a */\n      dup4\n        /* \"challeng/my_contract/Challeng-v2.sol\":5580:5581  b */\n      dup4\n        /* \"challeng/my_contract/Challeng-v2.sol\":5573:5612  div(a, b, \"SafeMath: division by zero\") */\n      mload(0x40)\n      dup1\n      0x40\n      add\n      0x40\n      mstore\n      dup1\n      0x1a\n      dup2\n      mstore\n      0x20\n      add\n      0x536166654d6174683a206469766973696f6e206279207a65726f000000000000\n      dup2\n      mstore\n      pop\n        /* \"challeng/my_contract/Challeng-v2.sol\":5573:5576  div */\n      tag_254\n        /* \"challeng/my_contract/Challeng-v2.sol\":5573:5612  div(a, b, \"SafeMath: division by zero\") */\n      jump\t// in\n    tag_253:\n        /* \"challeng/my_contract/Challeng-v2.sol\":5566:5612  return div(a, b, \"SafeMath: division by zero\") */\n      swap1\n      pop\n        /* \"challeng/my_contract/Challeng-v2.sol\":5488:5620  function div(uint256 a, uint256 b) internal pure returns (uint256) {... */\n      swap3\n      swap2\n      pop\n      pop\n      jump\t// out\n        /* \"challeng/my_contract/Challeng-v2.sol\":15544:15792  function safeTransferFrom(... */\n    tag_142:\n        /* \"challeng/my_contract/Challeng-v2.sol\":15688:15784  _callOptionalReturn(token, abi.encodeWithSelector(token.transferFrom.selector, from, to, value)) */\n      tag_256\n        /* \"challeng/my_contract/Challeng-v2.sol\":15708:15713  token */\n      dup5\n        /* \"challeng/my_contract/Challeng-v2.sol\":15738:15765  token.transferFrom.selector */\n      shl(0xe0, 0x23b872dd)\n        /* \"challeng/my_contract/Challeng-v2.sol\":15767:15771  from */\n      dup6\n        /* \"challeng/my_contract/Challeng-v2.sol\":15773:15775  to */\n      dup6\n        /* \"challeng/my_contract/Challeng-v2.sol\":15777:15782  value */\n      dup6\n        /* \"challeng/my_contract/Challeng-v2.sol\":15715:15783  abi.encodeWithSelector(token.transferFrom.selector, from, to, value) */\n      add(0x24, mload(0x40))\n      tag_257\n      swap4\n      swap3\n      swap2\n      swap1\n      tag_258\n      jump\t// in\n    tag_257:\n      mload(0x40)\n      0x20\n      dup2\n      dup4\n      sub\n      sub\n      dup2\n      mstore\n      swap1\n      0x40\n      mstore\n      swap1\n      not(0xffffffffffffffffffffffffffffffffffffffffffffffffffffffff)\n      and\n      0x20\n      dup3\n      add\n      dup1\n      mload\n      0xffffffffffffffffffffffffffffffffffffffffffffffffffffffff\n      dup4\n      dup2\n      dup4\n      and\n      or\n      dup4\n      mstore\n      pop\n      pop\n      pop\n      pop\n        /* \"challeng/my_contract/Challeng-v2.sol\":15688:15707  _callOptionalReturn */\n      tag_259\n        /* \"challeng/my_contract/Challeng-v2.sol\":15688:15784  _callOptionalReturn(token, abi.encodeWithSelector(token.transferFrom.selector, from, to, value)) */\n      jump\t// in\n    tag_256:\n        /* \"challeng/my_contract/Challeng-v2.sol\":15544:15792  function safeTransferFrom(... */\n      pop\n      pop\n      pop\n      pop\n      jump\t// out\n        /* \"challeng/my_contract/Challeng-v2.sol\":15325:15536  function safeTransfer(... */\n    tag_189:\n        /* \"challeng/my_contract/Challeng-v2.sol\":15442:15528  _callOptionalReturn(token, abi.encodeWithSelector(token.transfer.selector, to, value)) */\n      tag_261\n        /* \"challeng/my_contract/Challeng-v2.sol\":15462:15467  token */\n      dup4\n        /* \"challeng/my_contract/Challeng-v2.sol\":15492:15515  token.transfer.selector */\n      shl(0xe0, 0xa9059cbb)\n        /* \"challeng/my_contract/Challeng-v2.sol\":15517:15519  to */\n      dup5\n        /* \"challeng/my_contract/Challeng-v2.sol\":15521:15526  value */\n      dup5\n        /* \"challeng/my_contract/Challeng-v2.sol\":15469:15527  abi.encodeWithSelector(token.transfer.selector, to, value) */\n      add(0x24, mload(0x40))\n      tag_262\n      swap3\n      swap2\n      swap1\n      tag_263\n      jump\t// in\n    tag_262:\n      mload(0x40)\n      0x20\n      dup2\n      dup4\n      sub\n      sub\n      dup2\n      mstore\n      swap1\n      0x40\n      mstore\n      swap1\n      not(0xffffffffffffffffffffffffffffffffffffffffffffffffffffffff)\n      and\n      0x20\n      dup3\n      add\n      dup1\n      mload\n      0xffffffffffffffffffffffffffffffffffffffffffffffffffffffff\n      dup4\n      dup2\n      dup4\n      and\n      or\n      dup4\n      mstore\n      pop\n      pop\n      pop\n      pop\n        /* \"challeng/my_contract/Challeng-v2.sol\":15442:15461  _callOptionalReturn */\n      tag_259\n        /* \"challeng/my_contract/Challeng-v2.sol\":15442:15528  _callOptionalReturn(token, abi.encodeWithSelector(token.transfer.selector, to, value)) */\n      jump\t// in\n    tag_261:\n        /* \"challeng/my_contract/Challeng-v2.sol\":15325:15536  function safeTransfer(... */\n      pop\n      pop\n      pop\n      jump\t// out\n        /* \"challeng/my_contract/Challeng-v2.sol\":4056:4282  function sub(... */\n    tag_242:\n        /* \"challeng/my_contract/Challeng-v2.sol\":4176:4183  uint256 */\n      0x00\n        /* \"challeng/my_contract/Challeng-v2.sol\":4209:4210  a */\n      dup4\n        /* \"challeng/my_contract/Challeng-v2.sol\":4204:4205  b */\n      dup4\n        /* \"challeng/my_contract/Challeng-v2.sol\":4204:4210  b <= a */\n      gt\n      iszero\n        /* \"challeng/my_contract/Challeng-v2.sol\":4212:4224  errorMessage */\n      dup3\n        /* \"challeng/my_contract/Challeng-v2.sol\":4196:4225  require(b <= a, errorMessage) */\n      swap1\n      tag_265\n      jumpi\n      mload(0x40)\n      0x08c379a000000000000000000000000000000000000000000000000000000000\n      dup2\n      mstore\n      0x04\n      add\n      tag_266\n      swap2\n      swap1\n      tag_267\n      jump\t// in\n    tag_266:\n      mload(0x40)\n      dup1\n      swap2\n      sub\n      swap1\n      revert\n    tag_265:\n      pop\n        /* \"challeng/my_contract/Challeng-v2.sol\":4236:4245  uint256 c */\n      0x00\n        /* \"challeng/my_contract/Challeng-v2.sol\":4252:4253  b */\n      dup4\n        /* \"challeng/my_contract/Challeng-v2.sol\":4248:4249  a */\n      dup6\n        /* \"challeng/my_contract/Challeng-v2.sol\":4248:4253  a - b */\n      tag_268\n      swap2\n      swap1\n      tag_269\n      jump\t// in\n    tag_268:\n        /* \"challeng/my_contract/Challeng-v2.sol\":4236:4253  uint256 c = a - b */\n      swap1\n      pop\n        /* \"challeng/my_contract/Challeng-v2.sol\":4273:4274  c */\n      dup1\n        /* \"challeng/my_contract/Challeng-v2.sol\":4266:4274  return c */\n      swap2\n      pop\n      pop\n        /* \"challeng/my_contract/Challeng-v2.sol\":4056:4282  function sub(... */\n      swap4\n      swap3\n      pop\n      pop\n      pop\n      jump\t// out\n        /* \"challeng/my_contract/Challeng-v2.sol\":6116:6428  function div(... */\n    tag_254:\n        /* \"challeng/my_contract/Challeng-v2.sol\":6236:6243  uint256 */\n      0x00\n        /* \"challeng/my_contract/Challeng-v2.sol\":6268:6269  0 */\n      dup1\n        /* \"challeng/my_contract/Challeng-v2.sol\":6264:6265  b */\n      dup4\n        /* \"challeng/my_contract/Challeng-v2.sol\":6264:6269  b > 0 */\n      gt\n        /* \"challeng/my_contract/Challeng-v2.sol\":6271:6283  errorMessage */\n      dup3\n        /* \"challeng/my_contract/Challeng-v2.sol\":6256:6284  require(b > 0, errorMessage) */\n      swap1\n      tag_271\n      jumpi\n      mload(0x40)\n      0x08c379a000000000000000000000000000000000000000000000000000000000\n      dup2\n      mstore\n      0x04\n      add\n      tag_272\n      swap2\n      swap1\n      tag_267\n      jump\t// in\n    tag_272:\n      mload(0x40)\n      dup1\n      swap2\n      sub\n      swap1\n      revert\n    tag_271:\n      pop\n        /* \"challeng/my_contract/Challeng-v2.sol\":6295:6304  uint256 c */\n      0x00\n        /* \"challeng/my_contract/Challeng-v2.sol\":6311:6312  b */\n      dup4\n        /* \"challeng/my_contract/Challeng-v2.sol\":6307:6308  a */\n      dup6\n        /* \"challeng/my_contract/Challeng-v2.sol\":6307:6312  a / b */\n      tag_273\n      swap2\n      swap1\n      tag_248\n      jump\t// in\n    tag_273:\n        /* \"challeng/my_contract/Challeng-v2.sol\":6295:6312  uint256 c = a / b */\n      swap1\n      pop\n        /* \"challeng/my_contract/Challeng-v2.sol\":6419:6420  c */\n      dup1\n        /* \"challeng/my_contract/Challeng-v2.sol\":6412:6420  return c */\n      swap2\n      pop\n      pop\n        /* \"challeng/my_contract/Challeng-v2.sol\":6116:6428  function div(... */\n      swap4\n      swap3\n      pop\n      pop\n      pop\n      jump\t// out\n        /* \"challeng/my_contract/Challeng-v2.sol\":17898:18636  function _callOptionalReturn(IERC20 token, bytes memory data) private {... */\n    tag_259:\n        /* \"challeng/my_contract/Challeng-v2.sol\":18322:18345  bytes memory returndata */\n      0x00\n        /* \"challeng/my_contract/Challeng-v2.sol\":18348:18439  address(token).functionCall(data, \"SafeERC20: low-level call failed safeDecreaseAllowance\") */\n      tag_275\n        /* \"challeng/my_contract/Challeng-v2.sol\":18376:18380  data */\n      dup3\n        /* \"challeng/my_contract/Challeng-v2.sol\":18348:18439  address(token).functionCall(data, \"SafeERC20: low-level call failed safeDecreaseAllowance\") */\n      mload(0x40)\n      dup1\n      0x60\n      add\n      0x40\n      mstore\n      dup1\n      0x36\n      dup2\n      mstore\n      0x20\n      add\n      data_2ae7c0986338aa6af582045c045695e5a1e7bd91eded59a25b1ee78bfa2df94d\n      0x36\n      swap2\n      codecopy\n        /* \"challeng/my_contract/Challeng-v2.sol\":18356:18361  token */\n      dup6\n        /* \"challeng/my_contract/Challeng-v2.sol\":18348:18375  address(token).functionCall */\n      0xffffffffffffffffffffffffffffffffffffffff\n      and\n      tag_276\n      swap1\n        /* \"challeng/my_contract/Challeng-v2.sol\":18348:18439  address(token).functionCall(data, \"SafeERC20: low-level call failed safeDecreaseAllowance\") */\n      swap3\n      swap2\n      swap1\n      0xffffffff\n      and\n      jump\t// in\n    tag_275:\n        /* \"challeng/my_contract/Challeng-v2.sol\":18322:18439  bytes memory returndata = address(token).functionCall(data, \"SafeERC20: low-level call failed safeDecreaseAllowance\") */\n      swap1\n      pop\n        /* \"challeng/my_contract/Challeng-v2.sol\":18474:18475  0 */\n      0x00\n        /* \"challeng/my_contract/Challeng-v2.sol\":18454:18464  returndata */\n      dup2\n        /* \"challeng/my_contract/Challeng-v2.sol\":18454:18471  returndata.length */\n      mload\n        /* \"challeng/my_contract/Challeng-v2.sol\":18454:18475  returndata.length > 0 */\n      gt\n        /* \"challeng/my_contract/Challeng-v2.sol\":18450:18629  if (returndata.length > 0) {... */\n      iszero\n      tag_277\n      jumpi\n        /* \"challeng/my_contract/Challeng-v2.sol\":18551:18561  returndata */\n      dup1\n        /* \"challeng/my_contract/Challeng-v2.sol\":18540:18570  abi.decode(returndata, (bool)) */\n      dup1\n      0x20\n      add\n      swap1\n      mload\n      dup2\n      add\n      swap1\n      tag_278\n      swap2\n      swap1\n      tag_279\n      jump\t// in\n    tag_278:\n        /* \"challeng/my_contract/Challeng-v2.sol\":18532:18617  require(abi.decode(returndata, (bool)), \"SafeERC20: ERC20 operation did not succeed\") */\n      tag_280\n      jumpi\n      mload(0x40)\n      0x08c379a000000000000000000000000000000000000000000000000000000000\n      dup2\n      mstore\n      0x04\n      add\n      tag_281\n      swap1\n      tag_282\n      jump\t// in\n    tag_281:\n      mload(0x40)\n      dup1\n      swap2\n      sub\n      swap1\n      revert\n    tag_280:\n        /* \"challeng/my_contract/Challeng-v2.sol\":18450:18629  if (returndata.length > 0) {... */\n    tag_277:\n        /* \"challeng/my_contract/Challeng-v2.sol\":17968:18636  {... */\n      pop\n        /* \"challeng/my_contract/Challeng-v2.sol\":17898:18636  function _callOptionalReturn(IERC20 token, bytes memory data) private {... */\n      pop\n      pop\n      jump\t// out\n        /* \"challeng/my_contract/Challeng-v2.sol\":10272:10501  function functionCall(... */\n    tag_276:\n        /* \"challeng/my_contract/Challeng-v2.sol\":10409:10421  bytes memory */\n      0x60\n        /* \"challeng/my_contract/Challeng-v2.sol\":10441:10493  functionCallWithValue(target, data, 0, errorMessage) */\n      tag_284\n        /* \"challeng/my_contract/Challeng-v2.sol\":10463:10469  target */\n      dup5\n        /* \"challeng/my_contract/Challeng-v2.sol\":10471:10475  data */\n      dup5\n        /* \"challeng/my_contract/Challeng-v2.sol\":10477:10478  0 */\n      0x00\n        /* \"challeng/my_contract/Challeng-v2.sol\":10480:10492  errorMessage */\n      dup6\n        /* \"challeng/my_contract/Challeng-v2.sol\":10441:10462  functionCallWithValue */\n      tag_285\n        /* \"challeng/my_contract/Challeng-v2.sol\":10441:10493  functionCallWithValue(target, data, 0, errorMessage) */\n      jump\t// in\n    tag_284:\n        /* \"challeng/my_contract/Challeng-v2.sol\":10434:10493  return functionCallWithValue(target, data, 0, errorMessage) */\n      swap1\n      pop\n        /* \"challeng/my_contract/Challeng-v2.sol\":10272:10501  function functionCall(... */\n      swap4\n      swap3\n      pop\n      pop\n      pop\n      jump\t// out\n        /* \"challeng/my_contract/Challeng-v2.sol\":11392:11902  function functionCallWithValue(... */\n    tag_285:\n        /* \"challeng/my_contract/Challeng-v2.sol\":11562:11574  bytes memory */\n      0x60\n        /* \"challeng/my_contract/Challeng-v2.sol\":11620:11625  value */\n      dup3\n        /* \"challeng/my_contract/Challeng-v2.sol\":11595:11616  address(this).balance */\n      selfbalance\n        /* \"challeng/my_contract/Challeng-v2.sol\":11595:11625  address(this).balance >= value */\n      lt\n      iszero\n        /* \"challeng/my_contract/Challeng-v2.sol\":11587:11668  require(address(this).balance >= value, \"Address: insufficient balance for call\") */\n      tag_287\n      jumpi\n      mload(0x40)\n      0x08c379a000000000000000000000000000000000000000000000000000000000\n      dup2\n      mstore\n      0x04\n      add\n      tag_288\n      swap1\n      tag_289\n      jump\t// in\n    tag_288:\n      mload(0x40)\n      dup1\n      swap2\n      sub\n      swap1\n      revert\n    tag_287:\n        /* \"challeng/my_contract/Challeng-v2.sol\":11687:11705  isContract(target) */\n      tag_290\n        /* \"challeng/my_contract/Challeng-v2.sol\":11698:11704  target */\n      dup6\n        /* \"challeng/my_contract/Challeng-v2.sol\":11687:11697  isContract */\n      tag_291\n        /* \"challeng/my_contract/Challeng-v2.sol\":11687:11705  isContract(target) */\n      jump\t// in\n    tag_290:\n        /* \"challeng/my_contract/Challeng-v2.sol\":11679:11739  require(isContract(target), \"Address: call to non-contract\") */\n      tag_292\n      jumpi\n      mload(0x40)\n      0x08c379a000000000000000000000000000000000000000000000000000000000\n      dup2\n      mstore\n      0x04\n      add\n      tag_293\n      swap1\n      tag_294\n      jump\t// in\n    tag_293:\n      mload(0x40)\n      dup1\n      swap2\n      sub\n      swap1\n      revert\n    tag_292:\n        /* \"challeng/my_contract/Challeng-v2.sol\":11753:11765  bool success */\n      0x00\n        /* \"challeng/my_contract/Challeng-v2.sol\":11767:11790  bytes memory returndata */\n      dup1\n        /* \"challeng/my_contract/Challeng-v2.sol\":11794:11800  target */\n      dup7\n        /* \"challeng/my_contract/Challeng-v2.sol\":11794:11805  target.call */\n      0xffffffffffffffffffffffffffffffffffffffff\n      and\n        /* \"challeng/my_contract/Challeng-v2.sol\":11813:11818  value */\n      dup6\n        /* \"challeng/my_contract/Challeng-v2.sol\":11820:11824  data */\n      dup8\n        /* \"challeng/my_contract/Challeng-v2.sol\":11794:11825  target.call{value: value}(data) */\n      mload(0x40)\n      tag_295\n      swap2\n      swap1\n      tag_296\n      jump\t// in\n    tag_295:\n      0x00\n      mload(0x40)\n      dup1\n      dup4\n      sub\n      dup2\n      dup6\n      dup8\n      gas\n      call\n      swap3\n      pop\n      pop\n      pop\n      returndatasize\n      dup1\n      0x00\n      dup2\n      eq\n      tag_299\n      jumpi\n      mload(0x40)\n      swap2\n      pop\n      and(add(returndatasize, 0x3f), not(0x1f))\n      dup3\n      add\n      0x40\n      mstore\n      returndatasize\n      dup3\n      mstore\n      returndatasize\n      0x00\n      0x20\n      dup5\n      add\n      returndatacopy\n      jump(tag_298)\n    tag_299:\n      0x60\n      swap2\n      pop\n    tag_298:\n      pop\n        /* \"challeng/my_contract/Challeng-v2.sol\":11752:11825  (bool success, bytes memory returndata) = target.call{value: value}(data) */\n      swap2\n      pop\n      swap2\n      pop\n        /* \"challeng/my_contract/Challeng-v2.sol\":11843:11894  verifyCallResult(success, returndata, errorMessage) */\n      tag_300\n        /* \"challeng/my_contract/Challeng-v2.sol\":11860:11867  success */\n      dup3\n        /* \"challeng/my_contract/Challeng-v2.sol\":11869:11879  returndata */\n      dup3\n        /* \"challeng/my_contract/Challeng-v2.sol\":11881:11893  errorMessage */\n      dup7\n        /* \"challeng/my_contract/Challeng-v2.sol\":11843:11859  verifyCallResult */\n      tag_301\n        /* \"challeng/my_contract/Challeng-v2.sol\":11843:11894  verifyCallResult(success, returndata, errorMessage) */\n      jump\t// in\n    tag_300:\n        /* \"challeng/my_contract/Challeng-v2.sol\":11836:11894  return verifyCallResult(success, returndata, errorMessage) */\n      swap3\n      pop\n      pop\n      pop\n        /* \"challeng/my_contract/Challeng-v2.sol\":11392:11902  function functionCallWithValue(... */\n      swap5\n      swap4\n      pop\n      pop\n      pop\n      pop\n      jump\t// out\n        /* \"challeng/my_contract/Challeng-v2.sol\":7514:7840  function isContract(address account) internal view returns (bool) {... */\n    tag_291:\n        /* \"challeng/my_contract/Challeng-v2.sol\":7574:7578  bool */\n      0x00\n        /* \"challeng/my_contract/Challeng-v2.sol\":7831:7832  0 */\n      dup1\n        /* \"challeng/my_contract/Challeng-v2.sol\":7809:7816  account */\n      dup3\n        /* \"challeng/my_contract/Challeng-v2.sol\":7809:7828  account.code.length */\n      0xffffffffffffffffffffffffffffffffffffffff\n      and\n      extcodesize\n        /* \"challeng/my_contract/Challeng-v2.sol\":7809:7832  account.code.length > 0 */\n      gt\n        /* \"challeng/my_contract/Challeng-v2.sol\":7802:7832  return account.code.length > 0 */\n      swap1\n      pop\n        /* \"challeng/my_contract/Challeng-v2.sol\":7514:7840  function isContract(address account) internal view returns (bool) {... */\n      swap2\n      swap1\n      pop\n      jump\t// out\n        /* \"challeng/my_contract/Challeng-v2.sol\":14078:14790  function verifyCallResult(... */\n    tag_301:\n        /* \"challeng/my_contract/Challeng-v2.sol\":14228:14240  bytes memory */\n      0x60\n        /* \"challeng/my_contract/Challeng-v2.sol\":14257:14264  success */\n      dup4\n        /* \"challeng/my_contract/Challeng-v2.sol\":14253:14783  if (success) {... */\n      iszero\n      tag_304\n      jumpi\n        /* \"challeng/my_contract/Challeng-v2.sol\":14288:14298  returndata */\n      dup3\n        /* \"challeng/my_contract/Challeng-v2.sol\":14281:14298  return returndata */\n      swap1\n      pop\n      jump(tag_303)\n        /* \"challeng/my_contract/Challeng-v2.sol\":14253:14783  if (success) {... */\n    tag_304:\n        /* \"challeng/my_contract/Challeng-v2.sol\":14422:14423  0 */\n      0x00\n        /* \"challeng/my_contract/Challeng-v2.sol\":14402:14412  returndata */\n      dup4\n        /* \"challeng/my_contract/Challeng-v2.sol\":14402:14419  returndata.length */\n      mload\n        /* \"challeng/my_contract/Challeng-v2.sol\":14402:14423  returndata.length > 0 */\n      gt\n        /* \"challeng/my_contract/Challeng-v2.sol\":14398:14772  if (returndata.length > 0) {... */\n      iszero\n      tag_306\n      jumpi\n        /* \"challeng/my_contract/Challeng-v2.sol\":14600:14610  returndata */\n      dup3\n        /* \"challeng/my_contract/Challeng-v2.sol\":14594:14611  mload(returndata) */\n      mload\n        /* \"challeng/my_contract/Challeng-v2.sol\":14661:14676  returndata_size */\n      dup1\n        /* \"challeng/my_contract/Challeng-v2.sol\":14648:14658  returndata */\n      dup5\n        /* \"challeng/my_contract/Challeng-v2.sol\":14644:14646  32 */\n      0x20\n        /* \"challeng/my_contract/Challeng-v2.sol\":14640:14659  add(32, returndata) */\n      add\n        /* \"challeng/my_contract/Challeng-v2.sol\":14633:14677  revert(add(32, returndata), returndata_size) */\n      revert\n        /* \"challeng/my_contract/Challeng-v2.sol\":14398:14772  if (returndata.length > 0) {... */\n    tag_306:\n        /* \"challeng/my_contract/Challeng-v2.sol\":14743:14755  errorMessage */\n      dup2\n        /* \"challeng/my_contract/Challeng-v2.sol\":14736:14756  revert(errorMessage) */\n      mload(0x40)\n      0x08c379a000000000000000000000000000000000000000000000000000000000\n      dup2\n      mstore\n      0x04\n      add\n      tag_308\n      swap2\n      swap1\n      tag_267\n      jump\t// in\n    tag_308:\n      mload(0x40)\n      dup1\n      swap2\n      sub\n      swap1\n      revert\n        /* \"challeng/my_contract/Challeng-v2.sol\":14078:14790  function verifyCallResult(... */\n    tag_303:\n      swap4\n      swap3\n      pop\n      pop\n      pop\n      jump\t// out\n    tag_65:\n      mload(0x40)\n      dup1\n      0x0180\n      add\n      0x40\n      mstore\n      dup1\n      0x60\n      dup2\n      mstore\n      0x20\n      add\n      and(0xffffffffffffffffffffffffffffffffffffffff, 0x00)\n      dup2\n      mstore\n      0x20\n      add\n      0x00\n      dup2\n      mstore\n      0x20\n      add\n      0x00\n      dup2\n      mstore\n      0x20\n      add\n      iszero(iszero(0x00))\n      dup2\n      mstore\n      0x20\n      add\n      iszero(iszero(0x00))\n      dup2\n      mstore\n      0x20\n      add\n      iszero(iszero(0x00))\n      dup2\n      mstore\n      0x20\n      add\n      0x00\n      dup2\n      mstore\n      0x20\n      add\n      iszero(iszero(0x00))\n      dup2\n      mstore\n      0x20\n      add\n      0x00\n      dup2\n      mstore\n      0x20\n      add\n      0x00\n      dup2\n      mstore\n      0x20\n      add\n      0x00\n      dup2\n      mstore\n      pop\n      swap1\n      jump\t// out\n    tag_76:\n      mload(0x40)\n      dup1\n      0x0140\n      add\n      0x40\n      mstore\n      dup1\n      0x00\n      dup2\n      mstore\n      0x20\n      add\n      0x00\n      dup2\n      mstore\n      0x20\n      add\n      iszero(iszero(0x00))\n      dup2\n      mstore\n      0x20\n      add\n      iszero(iszero(0x00))\n      dup2\n      mstore\n      0x20\n      add\n      iszero(iszero(0x00))\n      dup2\n      mstore\n      0x20\n      add\n      iszero(iszero(0x00))\n      dup2\n      mstore\n      0x20\n      add\n      iszero(iszero(0x00))\n      dup2\n      mstore\n      0x20\n      add\n      0x00\n      dup2\n      mstore\n      0x20\n      add\n      0x00\n      dup2\n      mstore\n      0x20\n      add\n      0x60\n      dup2\n      mstore\n      pop\n      swap1\n      jump\t// out\n        /* \"#utility.yul\":7:82   */\n    tag_309:\n        /* \"#utility.yul\":40:46   */\n      0x00\n        /* \"#utility.yul\":73:75   */\n      0x40\n        /* \"#utility.yul\":67:76   */\n      mload\n        /* \"#utility.yul\":57:76   */\n      swap1\n      pop\n        /* \"#utility.yul\":7:82   */\n      swap1\n      jump\t// out\n        /* \"#utility.yul\":88:205   */\n    tag_310:\n        /* \"#utility.yul\":197:198   */\n      0x00\n        /* \"#utility.yul\":194:195   */\n      dup1\n        /* \"#utility.yul\":187:199   */\n      revert\n        /* \"#utility.yul\":211:328   */\n    tag_311:\n        /* \"#utility.yul\":320:321   */\n      0x00\n        /* \"#utility.yul\":317:318   */\n      dup1\n        /* \"#utility.yul\":310:322   */\n      revert\n        /* \"#utility.yul\":334:451   */\n    tag_312:\n        /* \"#utility.yul\":443:444   */\n      0x00\n        /* \"#utility.yul\":440:441   */\n      dup1\n        /* \"#utility.yul\":433:445   */\n      revert\n        /* \"#utility.yul\":457:574   */\n    tag_313:\n        /* \"#utility.yul\":566:567   */\n      0x00\n        /* \"#utility.yul\":563:564   */\n      dup1\n        /* \"#utility.yul\":556:568   */\n      revert\n        /* \"#utility.yul\":580:682   */\n    tag_314:\n        /* \"#utility.yul\":621:627   */\n      0x00\n        /* \"#utility.yul\":672:674   */\n      0x1f\n        /* \"#utility.yul\":668:675   */\n      not\n        /* \"#utility.yul\":663:665   */\n      0x1f\n        /* \"#utility.yul\":656:661   */\n      dup4\n        /* \"#utility.yul\":652:666   */\n      add\n        /* \"#utility.yul\":648:676   */\n      and\n        /* \"#utility.yul\":638:676   */\n      swap1\n      pop\n        /* \"#utility.yul\":580:682   */\n      swap2\n      swap1\n      pop\n      jump\t// out\n        /* \"#utility.yul\":688:868   */\n    tag_315:\n        /* \"#utility.yul\":736:813   */\n      0x4e487b7100000000000000000000000000000000000000000000000000000000\n        /* \"#utility.yul\":733:734   */\n      0x00\n        /* \"#utility.yul\":726:814   */\n      mstore\n        /* \"#utility.yul\":833:837   */\n      0x41\n        /* \"#utility.yul\":830:831   */\n      0x04\n        /* \"#utility.yul\":823:838   */\n      mstore\n        /* \"#utility.yul\":857:861   */\n      0x24\n        /* \"#utility.yul\":854:855   */\n      0x00\n        /* \"#utility.yul\":847:862   */\n      revert\n        /* \"#utility.yul\":874:1155   */\n    tag_316:\n        /* \"#utility.yul\":957:984   */\n      tag_415\n        /* \"#utility.yul\":979:983   */\n      dup3\n        /* \"#utility.yul\":957:984   */\n      tag_314\n      jump\t// in\n    tag_415:\n        /* \"#utility.yul\":949:955   */\n      dup2\n        /* \"#utility.yul\":945:985   */\n      add\n        /* \"#utility.yul\":1087:1093   */\n      dup2\n        /* \"#utility.yul\":1075:1085   */\n      dup2\n        /* \"#utility.yul\":1072:1094   */\n      lt\n        /* \"#utility.yul\":1051:1069   */\n      0xffffffffffffffff\n        /* \"#utility.yul\":1039:1049   */\n      dup3\n        /* \"#utility.yul\":1036:1070   */\n      gt\n        /* \"#utility.yul\":1033:1095   */\n      or\n        /* \"#utility.yul\":1030:1118   */\n      iszero\n      tag_416\n      jumpi\n        /* \"#utility.yul\":1098:1116   */\n      tag_417\n      tag_315\n      jump\t// in\n    tag_417:\n        /* \"#utility.yul\":1030:1118   */\n    tag_416:\n        /* \"#utility.yul\":1138:1148   */\n      dup1\n        /* \"#utility.yul\":1134:1136   */\n      0x40\n        /* \"#utility.yul\":1127:1149   */\n      mstore\n        /* \"#utility.yul\":917:1155   */\n      pop\n        /* \"#utility.yul\":874:1155   */\n      pop\n      pop\n      jump\t// out\n        /* \"#utility.yul\":1161:1290   */\n    tag_317:\n        /* \"#utility.yul\":1195:1201   */\n      0x00\n        /* \"#utility.yul\":1222:1242   */\n      tag_419\n      tag_309\n      jump\t// in\n    tag_419:\n        /* \"#utility.yul\":1212:1242   */\n      swap1\n      pop\n        /* \"#utility.yul\":1251:1284   */\n      tag_420\n        /* \"#utility.yul\":1279:1283   */\n      dup3\n        /* \"#utility.yul\":1271:1277   */\n      dup3\n        /* \"#utility.yul\":1251:1284   */\n      tag_316\n      jump\t// in\n    tag_420:\n        /* \"#utility.yul\":1161:1290   */\n      swap2\n      swap1\n      pop\n      jump\t// out\n        /* \"#utility.yul\":1296:1604   */\n    tag_318:\n        /* \"#utility.yul\":1358:1362   */\n      0x00\n        /* \"#utility.yul\":1448:1466   */\n      0xffffffffffffffff\n        /* \"#utility.yul\":1440:1446   */\n      dup3\n        /* \"#utility.yul\":1437:1467   */\n      gt\n        /* \"#utility.yul\":1434:1490   */\n      iszero\n      tag_422\n      jumpi\n        /* \"#utility.yul\":1470:1488   */\n      tag_423\n      tag_315\n      jump\t// in\n    tag_423:\n        /* \"#utility.yul\":1434:1490   */\n    tag_422:\n        /* \"#utility.yul\":1508:1537   */\n      tag_424\n        /* \"#utility.yul\":1530:1536   */\n      dup3\n        /* \"#utility.yul\":1508:1537   */\n      tag_314\n      jump\t// in\n    tag_424:\n        /* \"#utility.yul\":1500:1537   */\n      swap1\n      pop\n        /* \"#utility.yul\":1592:1596   */\n      0x20\n        /* \"#utility.yul\":1586:1590   */\n      dup2\n        /* \"#utility.yul\":1582:1597   */\n      add\n        /* \"#utility.yul\":1574:1597   */\n      swap1\n      pop\n        /* \"#utility.yul\":1296:1604   */\n      swap2\n      swap1\n      pop\n      jump\t// out\n        /* \"#utility.yul\":1610:1756   */\n    tag_319:\n        /* \"#utility.yul\":1707:1713   */\n      dup3\n        /* \"#utility.yul\":1702:1705   */\n      dup2\n        /* \"#utility.yul\":1697:1700   */\n      dup4\n        /* \"#utility.yul\":1684:1714   */\n      calldatacopy\n        /* \"#utility.yul\":1748:1749   */\n      0x00\n        /* \"#utility.yul\":1739:1745   */\n      dup4\n        /* \"#utility.yul\":1734:1737   */\n      dup4\n        /* \"#utility.yul\":1730:1746   */\n      add\n        /* \"#utility.yul\":1723:1750   */\n      mstore\n        /* \"#utility.yul\":1610:1756   */\n      pop\n      pop\n      pop\n      jump\t// out\n        /* \"#utility.yul\":1762:2187   */\n    tag_320:\n        /* \"#utility.yul\":1840:1845   */\n      0x00\n        /* \"#utility.yul\":1865:1931   */\n      tag_427\n        /* \"#utility.yul\":1881:1930   */\n      tag_428\n        /* \"#utility.yul\":1923:1929   */\n      dup5\n        /* \"#utility.yul\":1881:1930   */\n      tag_318\n      jump\t// in\n    tag_428:\n        /* \"#utility.yul\":1865:1931   */\n      tag_317\n      jump\t// in\n    tag_427:\n        /* \"#utility.yul\":1856:1931   */\n      swap1\n      pop\n        /* \"#utility.yul\":1954:1960   */\n      dup3\n        /* \"#utility.yul\":1947:1952   */\n      dup2\n        /* \"#utility.yul\":1940:1961   */\n      mstore\n        /* \"#utility.yul\":1992:1996   */\n      0x20\n        /* \"#utility.yul\":1985:1990   */\n      dup2\n        /* \"#utility.yul\":1981:1997   */\n      add\n        /* \"#utility.yul\":2030:2033   */\n      dup5\n        /* \"#utility.yul\":2021:2027   */\n      dup5\n        /* \"#utility.yul\":2016:2019   */\n      dup5\n        /* \"#utility.yul\":2012:2028   */\n      add\n        /* \"#utility.yul\":2009:2034   */\n      gt\n        /* \"#utility.yul\":2006:2118   */\n      iszero\n      tag_429\n      jumpi\n        /* \"#utility.yul\":2037:2116   */\n      tag_430\n      tag_313\n      jump\t// in\n    tag_430:\n        /* \"#utility.yul\":2006:2118   */\n    tag_429:\n        /* \"#utility.yul\":2127:2181   */\n      tag_431\n        /* \"#utility.yul\":2174:2180   */\n      dup5\n        /* \"#utility.yul\":2169:2172   */\n      dup3\n        /* \"#utility.yul\":2164:2167   */\n      dup6\n        /* \"#utility.yul\":2127:2181   */\n      tag_319\n      jump\t// in\n    tag_431:\n        /* \"#utility.yul\":1846:2187   */\n      pop\n        /* \"#utility.yul\":1762:2187   */\n      swap4\n      swap3\n      pop\n      pop\n      pop\n      jump\t// out\n        /* \"#utility.yul\":2207:2547   */\n    tag_321:\n        /* \"#utility.yul\":2263:2268   */\n      0x00\n        /* \"#utility.yul\":2312:2315   */\n      dup3\n        /* \"#utility.yul\":2305:2309   */\n      0x1f\n        /* \"#utility.yul\":2297:2303   */\n      dup4\n        /* \"#utility.yul\":2293:2310   */\n      add\n        /* \"#utility.yul\":2289:2316   */\n      slt\n        /* \"#utility.yul\":2279:2401   */\n      tag_433\n      jumpi\n        /* \"#utility.yul\":2320:2399   */\n      tag_434\n      tag_312\n      jump\t// in\n    tag_434:\n        /* \"#utility.yul\":2279:2401   */\n    tag_433:\n        /* \"#utility.yul\":2437:2443   */\n      dup2\n        /* \"#utility.yul\":2424:2444   */\n      calldataload\n        /* \"#utility.yul\":2462:2541   */\n      tag_435\n        /* \"#utility.yul\":2537:2540   */\n      dup5\n        /* \"#utility.yul\":2529:2535   */\n      dup3\n        /* \"#utility.yul\":2522:2526   */\n      0x20\n        /* \"#utility.yul\":2514:2520   */\n      dup7\n        /* \"#utility.yul\":2510:2527   */\n      add\n        /* \"#utility.yul\":2462:2541   */\n      tag_320\n      jump\t// in\n    tag_435:\n        /* \"#utility.yul\":2453:2541   */\n      swap2\n      pop\n        /* \"#utility.yul\":2269:2547   */\n      pop\n        /* \"#utility.yul\":2207:2547   */\n      swap3\n      swap2\n      pop\n      pop\n      jump\t// out\n        /* \"#utility.yul\":2553:3062   */\n    tag_18:\n        /* \"#utility.yul\":2622:2628   */\n      0x00\n        /* \"#utility.yul\":2671:2673   */\n      0x20\n        /* \"#utility.yul\":2659:2668   */\n      dup3\n        /* \"#utility.yul\":2650:2657   */\n      dup5\n        /* \"#utility.yul\":2646:2669   */\n      sub\n        /* \"#utility.yul\":2642:2674   */\n      slt\n        /* \"#utility.yul\":2639:2758   */\n      iszero\n      tag_437\n      jumpi\n        /* \"#utility.yul\":2677:2756   */\n      tag_438\n      tag_310\n      jump\t// in\n    tag_438:\n        /* \"#utility.yul\":2639:2758   */\n    tag_437:\n        /* \"#utility.yul\":2825:2826   */\n      0x00\n        /* \"#utility.yul\":2814:2823   */\n      dup3\n        /* \"#utility.yul\":2810:2827   */\n      add\n        /* \"#utility.yul\":2797:2828   */\n      calldataload\n        /* \"#utility.yul\":2855:2873   */\n      0xffffffffffffffff\n        /* \"#utility.yul\":2847:2853   */\n      dup2\n        /* \"#utility.yul\":2844:2874   */\n      gt\n        /* \"#utility.yul\":2841:2958   */\n      iszero\n      tag_439\n      jumpi\n        /* \"#utility.yul\":2877:2956   */\n      tag_440\n      tag_311\n      jump\t// in\n    tag_440:\n        /* \"#utility.yul\":2841:2958   */\n    tag_439:\n        /* \"#utility.yul\":2982:3045   */\n      tag_441\n        /* \"#utility.yul\":3037:3044   */\n      dup5\n        /* \"#utility.yul\":3028:3034   */\n      dup3\n        /* \"#utility.yul\":3017:3026   */\n      dup6\n        /* \"#utility.yul\":3013:3035   */\n      add\n        /* \"#utility.yul\":2982:3045   */\n      tag_321\n      jump\t// in\n    tag_441:\n        /* \"#utility.yul\":2972:3045   */\n      swap2\n      pop\n        /* \"#utility.yul\":2768:3055   */\n      pop\n        /* \"#utility.yul\":2553:3062   */\n      swap3\n      swap2\n      pop\n      pop\n      jump\t// out\n        /* \"#utility.yul\":3068:3167   */\n    tag_322:\n        /* \"#utility.yul\":3120:3126   */\n      0x00\n        /* \"#utility.yul\":3154:3159   */\n      dup2\n        /* \"#utility.yul\":3148:3160   */\n      mload\n        /* \"#utility.yul\":3138:3160   */\n      swap1\n      pop\n        /* \"#utility.yul\":3068:3167   */\n      swap2\n      swap1\n      pop\n      jump\t// out\n        /* \"#utility.yul\":3173:3332   */\n    tag_323:\n        /* \"#utility.yul\":3247:3258   */\n      0x00\n        /* \"#utility.yul\":3281:3287   */\n      dup3\n        /* \"#utility.yul\":3276:3279   */\n      dup3\n        /* \"#utility.yul\":3269:3288   */\n      mstore\n        /* \"#utility.yul\":3321:3325   */\n      0x20\n        /* \"#utility.yul\":3316:3319   */\n      dup3\n        /* \"#utility.yul\":3312:3326   */\n      add\n        /* \"#utility.yul\":3297:3326   */\n      swap1\n      pop\n        /* \"#utility.yul\":3173:3332   */\n      swap3\n      swap2\n      pop\n      pop\n      jump\t// out\n        /* \"#utility.yul\":3338:3584   */\n    tag_324:\n        /* \"#utility.yul\":3419:3420   */\n      0x00\n        /* \"#utility.yul\":3429:3542   */\n    tag_445:\n        /* \"#utility.yul\":3443:3449   */\n      dup4\n        /* \"#utility.yul\":3440:3441   */\n      dup2\n        /* \"#utility.yul\":3437:3450   */\n      lt\n        /* \"#utility.yul\":3429:3542   */\n      iszero\n      tag_447\n      jumpi\n        /* \"#utility.yul\":3528:3529   */\n      dup1\n        /* \"#utility.yul\":3523:3526   */\n      dup3\n        /* \"#utility.yul\":3519:3530   */\n      add\n        /* \"#utility.yul\":3513:3531   */\n      mload\n        /* \"#utility.yul\":3509:3510   */\n      dup2\n        /* \"#utility.yul\":3504:3507   */\n      dup5\n        /* \"#utility.yul\":3500:3511   */\n      add\n        /* \"#utility.yul\":3493:3532   */\n      mstore\n        /* \"#utility.yul\":3465:3467   */\n      0x20\n        /* \"#utility.yul\":3462:3463   */\n      dup2\n        /* \"#utility.yul\":3458:3468   */\n      add\n        /* \"#utility.yul\":3453:3468   */\n      swap1\n      pop\n        /* \"#utility.yul\":3429:3542   */\n      jump(tag_445)\n    tag_447:\n        /* \"#utility.yul\":3576:3577   */\n      0x00\n        /* \"#utility.yul\":3567:3573   */\n      dup5\n        /* \"#utility.yul\":3562:3565   */\n      dup5\n        /* \"#utility.yul\":3558:3574   */\n      add\n        /* \"#utility.yul\":3551:3578   */\n      mstore\n        /* \"#utility.yul\":3400:3584   */\n      pop\n        /* \"#utility.yul\":3338:3584   */\n      pop\n      pop\n      pop\n      jump\t// out\n        /* \"#utility.yul\":3590:3947   */\n    tag_325:\n        /* \"#utility.yul\":3668:3671   */\n      0x00\n        /* \"#utility.yul\":3696:3735   */\n      tag_449\n        /* \"#utility.yul\":3729:3734   */\n      dup3\n        /* \"#utility.yul\":3696:3735   */\n      tag_322\n      jump\t// in\n    tag_449:\n        /* \"#utility.yul\":3751:3812   */\n      tag_450\n        /* \"#utility.yul\":3805:3811   */\n      dup2\n        /* \"#utility.yul\":3800:3803   */\n      dup6\n        /* \"#utility.yul\":3751:3812   */\n      tag_323\n      jump\t// in\n    tag_450:\n        /* \"#utility.yul\":3744:3812   */\n      swap4\n      pop\n        /* \"#utility.yul\":3821:3886   */\n      tag_451\n        /* \"#utility.yul\":3879:3885   */\n      dup2\n        /* \"#utility.yul\":3874:3877   */\n      dup6\n        /* \"#utility.yul\":3867:3871   */\n      0x20\n        /* \"#utility.yul\":3860:3865   */\n      dup7\n        /* \"#utility.yul\":3856:3872   */\n      add\n        /* \"#utility.yul\":3821:3886   */\n      tag_324\n      jump\t// in\n    tag_451:\n        /* \"#utility.yul\":3911:3940   */\n      tag_452\n        /* \"#utility.yul\":3933:3939   */\n      dup2\n        /* \"#utility.yul\":3911:3940   */\n      tag_314\n      jump\t// in\n    tag_452:\n        /* \"#utility.yul\":3906:3909   */\n      dup5\n        /* \"#utility.yul\":3902:3941   */\n      add\n        /* \"#utility.yul\":3895:3941   */\n      swap2\n      pop\n        /* \"#utility.yul\":3672:3947   */\n      pop\n        /* \"#utility.yul\":3590:3947   */\n      swap3\n      swap2\n      pop\n      pop\n      jump\t// out\n        /* \"#utility.yul\":3953:4079   */\n    tag_326:\n        /* \"#utility.yul\":3990:3997   */\n      0x00\n        /* \"#utility.yul\":4030:4072   */\n      0xffffffffffffffffffffffffffffffffffffffff\n        /* \"#utility.yul\":4023:4028   */\n      dup3\n        /* \"#utility.yul\":4019:4073   */\n      and\n        /* \"#utility.yul\":4008:4073   */\n      swap1\n      pop\n        /* \"#utility.yul\":3953:4079   */\n      swap2\n      swap1\n      pop\n      jump\t// out\n        /* \"#utility.yul\":4085:4181   */\n    tag_327:\n        /* \"#utility.yul\":4122:4129   */\n      0x00\n        /* \"#utility.yul\":4151:4175   */\n      tag_455\n        /* \"#utility.yul\":4169:4174   */\n      dup3\n        /* \"#utility.yul\":4151:4175   */\n      tag_326\n      jump\t// in\n    tag_455:\n        /* \"#utility.yul\":4140:4175   */\n      swap1\n      pop\n        /* \"#utility.yul\":4085:4181   */\n      swap2\n      swap1\n      pop\n      jump\t// out\n        /* \"#utility.yul\":4187:4295   */\n    tag_328:\n        /* \"#utility.yul\":4264:4288   */\n      tag_457\n        /* \"#utility.yul\":4282:4287   */\n      dup2\n        /* \"#utility.yul\":4264:4288   */\n      tag_327\n      jump\t// in\n    tag_457:\n        /* \"#utility.yul\":4259:4262   */\n      dup3\n        /* \"#utility.yul\":4252:4289   */\n      mstore\n        /* \"#utility.yul\":4187:4295   */\n      pop\n      pop\n      jump\t// out\n        /* \"#utility.yul\":4301:4378   */\n    tag_329:\n        /* \"#utility.yul\":4338:4345   */\n      0x00\n        /* \"#utility.yul\":4367:4372   */\n      dup2\n        /* \"#utility.yul\":4356:4372   */\n      swap1\n      pop\n        /* \"#utility.yul\":4301:4378   */\n      swap2\n      swap1\n      pop\n      jump\t// out\n        /* \"#utility.yul\":4384:4492   */\n    tag_330:\n        /* \"#utility.yul\":4461:4485   */\n      tag_460\n        /* \"#utility.yul\":4479:4484   */\n      dup2\n        /* \"#utility.yul\":4461:4485   */\n      tag_329\n      jump\t// in\n    tag_460:\n        /* \"#utility.yul\":4456:4459   */\n      dup3\n        /* \"#utility.yul\":4449:4486   */\n      mstore\n        /* \"#utility.yul\":4384:4492   */\n      pop\n      pop\n      jump\t// out\n        /* \"#utility.yul\":4498:4588   */\n    tag_331:\n        /* \"#utility.yul\":4532:4539   */\n      0x00\n        /* \"#utility.yul\":4575:4580   */\n      dup2\n        /* \"#utility.yul\":4568:4581   */\n      iszero\n        /* \"#utility.yul\":4561:4582   */\n      iszero\n        /* \"#utility.yul\":4550:4582   */\n      swap1\n      pop\n        /* \"#utility.yul\":4498:4588   */\n      swap2\n      swap1\n      pop\n      jump\t// out\n        /* \"#utility.yul\":4594:4693   */\n    tag_332:\n        /* \"#utility.yul\":4665:4686   */\n      tag_463\n        /* \"#utility.yul\":4680:4685   */\n      dup2\n        /* \"#utility.yul\":4665:4686   */\n      tag_331\n      jump\t// in\n    tag_463:\n        /* \"#utility.yul\":4660:4663   */\n      dup3\n        /* \"#utility.yul\":4653:4687   */\n      mstore\n        /* \"#utility.yul\":4594:4693   */\n      pop\n      pop\n      jump\t// out\n        /* \"#utility.yul\":4755:7140   */\n    tag_333:\n        /* \"#utility.yul\":4868:4871   */\n      0x00\n        /* \"#utility.yul\":4904:4910   */\n      0x0180\n        /* \"#utility.yul\":4899:4902   */\n      dup4\n        /* \"#utility.yul\":4895:4911   */\n      add\n        /* \"#utility.yul\":4994:4998   */\n      0x00\n        /* \"#utility.yul\":4987:4992   */\n      dup4\n        /* \"#utility.yul\":4983:4999   */\n      add\n        /* \"#utility.yul\":4977:5000   */\n      mload\n        /* \"#utility.yul\":5047:5050   */\n      dup5\n        /* \"#utility.yul\":5041:5045   */\n      dup3\n        /* \"#utility.yul\":5037:5051   */\n      sub\n        /* \"#utility.yul\":5030:5034   */\n      0x00\n        /* \"#utility.yul\":5025:5028   */\n      dup7\n        /* \"#utility.yul\":5021:5035   */\n      add\n        /* \"#utility.yul\":5014:5052   */\n      mstore\n        /* \"#utility.yul\":5073:5146   */\n      tag_465\n        /* \"#utility.yul\":5141:5145   */\n      dup3\n        /* \"#utility.yul\":5127:5139   */\n      dup3\n        /* \"#utility.yul\":5073:5146   */\n      tag_325\n      jump\t// in\n    tag_465:\n        /* \"#utility.yul\":5065:5146   */\n      swap2\n      pop\n        /* \"#utility.yul\":4921:5157   */\n      pop\n        /* \"#utility.yul\":5245:5249   */\n      0x20\n        /* \"#utility.yul\":5238:5243   */\n      dup4\n        /* \"#utility.yul\":5234:5250   */\n      add\n        /* \"#utility.yul\":5228:5251   */\n      mload\n        /* \"#utility.yul\":5264:5327   */\n      tag_466\n        /* \"#utility.yul\":5321:5325   */\n      0x20\n        /* \"#utility.yul\":5316:5319   */\n      dup7\n        /* \"#utility.yul\":5312:5326   */\n      add\n        /* \"#utility.yul\":5298:5310   */\n      dup3\n        /* \"#utility.yul\":5264:5327   */\n      tag_328\n      jump\t// in\n    tag_466:\n        /* \"#utility.yul\":5167:5337   */\n      pop\n        /* \"#utility.yul\":5421:5425   */\n      0x40\n        /* \"#utility.yul\":5414:5419   */\n      dup4\n        /* \"#utility.yul\":5410:5426   */\n      add\n        /* \"#utility.yul\":5404:5427   */\n      mload\n        /* \"#utility.yul\":5440:5503   */\n      tag_467\n        /* \"#utility.yul\":5497:5501   */\n      0x40\n        /* \"#utility.yul\":5492:5495   */\n      dup7\n        /* \"#utility.yul\":5488:5502   */\n      add\n        /* \"#utility.yul\":5474:5486   */\n      dup3\n        /* \"#utility.yul\":5440:5503   */\n      tag_330\n      jump\t// in\n    tag_467:\n        /* \"#utility.yul\":5347:5513   */\n      pop\n        /* \"#utility.yul\":5605:5609   */\n      0x60\n        /* \"#utility.yul\":5598:5603   */\n      dup4\n        /* \"#utility.yul\":5594:5610   */\n      add\n        /* \"#utility.yul\":5588:5611   */\n      mload\n        /* \"#utility.yul\":5624:5687   */\n      tag_468\n        /* \"#utility.yul\":5681:5685   */\n      0x60\n        /* \"#utility.yul\":5676:5679   */\n      dup7\n        /* \"#utility.yul\":5672:5686   */\n      add\n        /* \"#utility.yul\":5658:5670   */\n      dup3\n        /* \"#utility.yul\":5624:5687   */\n      tag_330\n      jump\t// in\n    tag_468:\n        /* \"#utility.yul\":5523:5697   */\n      pop\n        /* \"#utility.yul\":5785:5789   */\n      0x80\n        /* \"#utility.yul\":5778:5783   */\n      dup4\n        /* \"#utility.yul\":5774:5790   */\n      add\n        /* \"#utility.yul\":5768:5791   */\n      mload\n        /* \"#utility.yul\":5804:5861   */\n      tag_469\n        /* \"#utility.yul\":5855:5859   */\n      0x80\n        /* \"#utility.yul\":5850:5853   */\n      dup7\n        /* \"#utility.yul\":5846:5860   */\n      add\n        /* \"#utility.yul\":5832:5844   */\n      dup3\n        /* \"#utility.yul\":5804:5861   */\n      tag_332\n      jump\t// in\n    tag_469:\n        /* \"#utility.yul\":5707:5871   */\n      pop\n        /* \"#utility.yul\":5958:5962   */\n      0xa0\n        /* \"#utility.yul\":5951:5956   */\n      dup4\n        /* \"#utility.yul\":5947:5963   */\n      add\n        /* \"#utility.yul\":5941:5964   */\n      mload\n        /* \"#utility.yul\":5977:6034   */\n      tag_470\n        /* \"#utility.yul\":6028:6032   */\n      0xa0\n        /* \"#utility.yul\":6023:6026   */\n      dup7\n        /* \"#utility.yul\":6019:6033   */\n      add\n        /* \"#utility.yul\":6005:6017   */\n      dup3\n        /* \"#utility.yul\":5977:6034   */\n      tag_332\n      jump\t// in\n    tag_470:\n        /* \"#utility.yul\":5881:6044   */\n      pop\n        /* \"#utility.yul\":6128:6132   */\n      0xc0\n        /* \"#utility.yul\":6121:6126   */\n      dup4\n        /* \"#utility.yul\":6117:6133   */\n      add\n        /* \"#utility.yul\":6111:6134   */\n      mload\n        /* \"#utility.yul\":6147:6204   */\n      tag_471\n        /* \"#utility.yul\":6198:6202   */\n      0xc0\n        /* \"#utility.yul\":6193:6196   */\n      dup7\n        /* \"#utility.yul\":6189:6203   */\n      add\n        /* \"#utility.yul\":6175:6187   */\n      dup3\n        /* \"#utility.yul\":6147:6204   */\n      tag_332\n      jump\t// in\n    tag_471:\n        /* \"#utility.yul\":6054:6214   */\n      pop\n        /* \"#utility.yul\":6306:6310   */\n      0xe0\n        /* \"#utility.yul\":6299:6304   */\n      dup4\n        /* \"#utility.yul\":6295:6311   */\n      add\n        /* \"#utility.yul\":6289:6312   */\n      mload\n        /* \"#utility.yul\":6325:6388   */\n      tag_472\n        /* \"#utility.yul\":6382:6386   */\n      0xe0\n        /* \"#utility.yul\":6377:6380   */\n      dup7\n        /* \"#utility.yul\":6373:6387   */\n      add\n        /* \"#utility.yul\":6359:6371   */\n      dup3\n        /* \"#utility.yul\":6325:6388   */\n      tag_330\n      jump\t// in\n    tag_472:\n        /* \"#utility.yul\":6224:6398   */\n      pop\n        /* \"#utility.yul\":6486:6492   */\n      0x0100\n        /* \"#utility.yul\":6479:6484   */\n      dup4\n        /* \"#utility.yul\":6475:6493   */\n      add\n        /* \"#utility.yul\":6469:6494   */\n      mload\n        /* \"#utility.yul\":6507:6566   */\n      tag_473\n        /* \"#utility.yul\":6558:6564   */\n      0x0100\n        /* \"#utility.yul\":6553:6556   */\n      dup7\n        /* \"#utility.yul\":6549:6565   */\n      add\n        /* \"#utility.yul\":6535:6547   */\n      dup3\n        /* \"#utility.yul\":6507:6566   */\n      tag_332\n      jump\t// in\n    tag_473:\n        /* \"#utility.yul\":6408:6576   */\n      pop\n        /* \"#utility.yul\":6660:6666   */\n      0x0120\n        /* \"#utility.yul\":6653:6658   */\n      dup4\n        /* \"#utility.yul\":6649:6667   */\n      add\n        /* \"#utility.yul\":6643:6668   */\n      mload\n        /* \"#utility.yul\":6681:6746   */\n      tag_474\n        /* \"#utility.yul\":6738:6744   */\n      0x0120\n        /* \"#utility.yul\":6733:6736   */\n      dup7\n        /* \"#utility.yul\":6729:6745   */\n      add\n        /* \"#utility.yul\":6715:6727   */\n      dup3\n        /* \"#utility.yul\":6681:6746   */\n      tag_330\n      jump\t// in\n    tag_474:\n        /* \"#utility.yul\":6586:6756   */\n      pop\n        /* \"#utility.yul\":6838:6844   */\n      0x0140\n        /* \"#utility.yul\":6831:6836   */\n      dup4\n        /* \"#utility.yul\":6827:6845   */\n      add\n        /* \"#utility.yul\":6821:6846   */\n      mload\n        /* \"#utility.yul\":6859:6924   */\n      tag_475\n        /* \"#utility.yul\":6916:6922   */\n      0x0140\n        /* \"#utility.yul\":6911:6914   */\n      dup7\n        /* \"#utility.yul\":6907:6923   */\n      add\n        /* \"#utility.yul\":6893:6905   */\n      dup3\n        /* \"#utility.yul\":6859:6924   */\n      tag_330\n      jump\t// in\n    tag_475:\n        /* \"#utility.yul\":6766:6934   */\n      pop\n        /* \"#utility.yul\":7017:7023   */\n      0x0160\n        /* \"#utility.yul\":7010:7015   */\n      dup4\n        /* \"#utility.yul\":7006:7024   */\n      add\n        /* \"#utility.yul\":7000:7025   */\n      mload\n        /* \"#utility.yul\":7038:7103   */\n      tag_476\n        /* \"#utility.yul\":7095:7101   */\n      0x0160\n        /* \"#utility.yul\":7090:7093   */\n      dup7\n        /* \"#utility.yul\":7086:7102   */\n      add\n        /* \"#utility.yul\":7072:7084   */\n      dup3\n        /* \"#utility.yul\":7038:7103   */\n      tag_330\n      jump\t// in\n    tag_476:\n        /* \"#utility.yul\":6944:7113   */\n      pop\n        /* \"#utility.yul\":7130:7134   */\n      dup1\n        /* \"#utility.yul\":7123:7134   */\n      swap2\n      pop\n        /* \"#utility.yul\":4873:7140   */\n      pop\n        /* \"#utility.yul\":4755:7140   */\n      swap3\n      swap2\n      pop\n      pop\n      jump\t// out\n        /* \"#utility.yul\":7146:7507   */\n    tag_21:\n        /* \"#utility.yul\":7283:7287   */\n      0x00\n        /* \"#utility.yul\":7321:7323   */\n      0x20\n        /* \"#utility.yul\":7310:7319   */\n      dup3\n        /* \"#utility.yul\":7306:7324   */\n      add\n        /* \"#utility.yul\":7298:7324   */\n      swap1\n      pop\n        /* \"#utility.yul\":7370:7379   */\n      dup2\n        /* \"#utility.yul\":7364:7368   */\n      dup2\n        /* \"#utility.yul\":7360:7380   */\n      sub\n        /* \"#utility.yul\":7356:7357   */\n      0x00\n        /* \"#utility.yul\":7345:7354   */\n      dup4\n        /* \"#utility.yul\":7341:7358   */\n      add\n        /* \"#utility.yul\":7334:7381   */\n      mstore\n        /* \"#utility.yul\":7398:7500   */\n      tag_478\n        /* \"#utility.yul\":7495:7499   */\n      dup2\n        /* \"#utility.yul\":7486:7492   */\n      dup5\n        /* \"#utility.yul\":7398:7500   */\n      tag_333\n      jump\t// in\n    tag_478:\n        /* \"#utility.yul\":7390:7500   */\n      swap1\n      pop\n        /* \"#utility.yul\":7146:7507   */\n      swap3\n      swap2\n      pop\n      pop\n      jump\t// out\n        /* \"#utility.yul\":7513:7635   */\n    tag_334:\n        /* \"#utility.yul\":7586:7610   */\n      tag_480\n        /* \"#utility.yul\":7604:7609   */\n      dup2\n        /* \"#utility.yul\":7586:7610   */\n      tag_327\n      jump\t// in\n    tag_480:\n        /* \"#utility.yul\":7579:7584   */\n      dup2\n        /* \"#utility.yul\":7576:7611   */\n      eq\n        /* \"#utility.yul\":7566:7629   */\n      tag_481\n      jumpi\n        /* \"#utility.yul\":7625:7626   */\n      0x00\n        /* \"#utility.yul\":7622:7623   */\n      dup1\n        /* \"#utility.yul\":7615:7627   */\n      revert\n        /* \"#utility.yul\":7566:7629   */\n    tag_481:\n        /* \"#utility.yul\":7513:7635   */\n      pop\n      jump\t// out\n        /* \"#utility.yul\":7641:7780   */\n    tag_335:\n        /* \"#utility.yul\":7687:7692   */\n      0x00\n        /* \"#utility.yul\":7725:7731   */\n      dup2\n        /* \"#utility.yul\":7712:7732   */\n      calldataload\n        /* \"#utility.yul\":7703:7732   */\n      swap1\n      pop\n        /* \"#utility.yul\":7741:7774   */\n      tag_483\n        /* \"#utility.yul\":7768:7773   */\n      dup2\n        /* \"#utility.yul\":7741:7774   */\n      tag_334\n      jump\t// in\n    tag_483:\n        /* \"#utility.yul\":7641:7780   */\n      swap3\n      swap2\n      pop\n      pop\n      jump\t// out\n        /* \"#utility.yul\":7786:8440   */\n    tag_24:\n        /* \"#utility.yul\":7864:7870   */\n      0x00\n        /* \"#utility.yul\":7872:7878   */\n      dup1\n        /* \"#utility.yul\":7921:7923   */\n      0x40\n        /* \"#utility.yul\":7909:7918   */\n      dup4\n        /* \"#utility.yul\":7900:7907   */\n      dup6\n        /* \"#utility.yul\":7896:7919   */\n      sub\n        /* \"#utility.yul\":7892:7924   */\n      slt\n        /* \"#utility.yul\":7889:8008   */\n      iszero\n      tag_485\n      jumpi\n        /* \"#utility.yul\":7927:8006   */\n      tag_486\n      tag_310\n      jump\t// in\n    tag_486:\n        /* \"#utility.yul\":7889:8008   */\n    tag_485:\n        /* \"#utility.yul\":8075:8076   */\n      0x00\n        /* \"#utility.yul\":8064:8073   */\n      dup4\n        /* \"#utility.yul\":8060:8077   */\n      add\n        /* \"#utility.yul\":8047:8078   */\n      calldataload\n        /* \"#utility.yul\":8105:8123   */\n      0xffffffffffffffff\n        /* \"#utility.yul\":8097:8103   */\n      dup2\n        /* \"#utility.yul\":8094:8124   */\n      gt\n        /* \"#utility.yul\":8091:8208   */\n      iszero\n      tag_487\n      jumpi\n        /* \"#utility.yul\":8127:8206   */\n      tag_488\n      tag_311\n      jump\t// in\n    tag_488:\n        /* \"#utility.yul\":8091:8208   */\n    tag_487:\n        /* \"#utility.yul\":8232:8295   */\n      tag_489\n        /* \"#utility.yul\":8287:8294   */\n      dup6\n        /* \"#utility.yul\":8278:8284   */\n      dup3\n        /* \"#utility.yul\":8267:8276   */\n      dup7\n        /* \"#utility.yul\":8263:8285   */\n      add\n        /* \"#utility.yul\":8232:8295   */\n      tag_321\n      jump\t// in\n    tag_489:\n        /* \"#utility.yul\":8222:8295   */\n      swap3\n      pop\n        /* \"#utility.yul\":8018:8305   */\n      pop\n        /* \"#utility.yul\":8344:8346   */\n      0x20\n        /* \"#utility.yul\":8370:8423   */\n      tag_490\n        /* \"#utility.yul\":8415:8422   */\n      dup6\n        /* \"#utility.yul\":8406:8412   */\n      dup3\n        /* \"#utility.yul\":8395:8404   */\n      dup7\n        /* \"#utility.yul\":8391:8413   */\n      add\n        /* \"#utility.yul\":8370:8423   */\n      tag_335\n      jump\t// in\n    tag_490:\n        /* \"#utility.yul\":8360:8423   */\n      swap2\n      pop\n        /* \"#utility.yul\":8315:8433   */\n      pop\n        /* \"#utility.yul\":7786:8440   */\n      swap3\n      pop\n      swap3\n      swap1\n      pop\n      jump\t// out\n        /* \"#utility.yul\":8520:10548   */\n    tag_336:\n        /* \"#utility.yul\":8651:8654   */\n      0x00\n        /* \"#utility.yul\":8687:8693   */\n      0x0140\n        /* \"#utility.yul\":8682:8685   */\n      dup4\n        /* \"#utility.yul\":8678:8694   */\n      add\n        /* \"#utility.yul\":8778:8782   */\n      0x00\n        /* \"#utility.yul\":8771:8776   */\n      dup4\n        /* \"#utility.yul\":8767:8783   */\n      add\n        /* \"#utility.yul\":8761:8784   */\n      mload\n        /* \"#utility.yul\":8797:8860   */\n      tag_492\n        /* \"#utility.yul\":8854:8858   */\n      0x00\n        /* \"#utility.yul\":8849:8852   */\n      dup7\n        /* \"#utility.yul\":8845:8859   */\n      add\n        /* \"#utility.yul\":8831:8843   */\n      dup3\n        /* \"#utility.yul\":8797:8860   */\n      tag_330\n      jump\t// in\n    tag_492:\n        /* \"#utility.yul\":8704:8870   */\n      pop\n        /* \"#utility.yul\":8961:8965   */\n      0x20\n        /* \"#utility.yul\":8954:8959   */\n      dup4\n        /* \"#utility.yul\":8950:8966   */\n      add\n        /* \"#utility.yul\":8944:8967   */\n      mload\n        /* \"#utility.yul\":8980:9043   */\n      tag_493\n        /* \"#utility.yul\":9037:9041   */\n      0x20\n        /* \"#utility.yul\":9032:9035   */\n      dup7\n        /* \"#utility.yul\":9028:9042   */\n      add\n        /* \"#utility.yul\":9014:9026   */\n      dup3\n        /* \"#utility.yul\":8980:9043   */\n      tag_330\n      jump\t// in\n    tag_493:\n        /* \"#utility.yul\":8880:9053   */\n      pop\n        /* \"#utility.yul\":9137:9141   */\n      0x40\n        /* \"#utility.yul\":9130:9135   */\n      dup4\n        /* \"#utility.yul\":9126:9142   */\n      add\n        /* \"#utility.yul\":9120:9143   */\n      mload\n        /* \"#utility.yul\":9156:9213   */\n      tag_494\n        /* \"#utility.yul\":9207:9211   */\n      0x40\n        /* \"#utility.yul\":9202:9205   */\n      dup7\n        /* \"#utility.yul\":9198:9212   */\n      add\n        /* \"#utility.yul\":9184:9196   */\n      dup3\n        /* \"#utility.yul\":9156:9213   */\n      tag_332\n      jump\t// in\n    tag_494:\n        /* \"#utility.yul\":9063:9223   */\n      pop\n        /* \"#utility.yul\":9309:9313   */\n      0x60\n        /* \"#utility.yul\":9302:9307   */\n      dup4\n        /* \"#utility.yul\":9298:9314   */\n      add\n        /* \"#utility.yul\":9292:9315   */\n      mload\n        /* \"#utility.yul\":9328:9385   */\n      tag_495\n        /* \"#utility.yul\":9379:9383   */\n      0x60\n        /* \"#utility.yul\":9374:9377   */\n      dup7\n        /* \"#utility.yul\":9370:9384   */\n      add\n        /* \"#utility.yul\":9356:9368   */\n      dup3\n        /* \"#utility.yul\":9328:9385   */\n      tag_332\n      jump\t// in\n    tag_495:\n        /* \"#utility.yul\":9233:9395   */\n      pop\n        /* \"#utility.yul\":9487:9491   */\n      0x80\n        /* \"#utility.yul\":9480:9485   */\n      dup4\n        /* \"#utility.yul\":9476:9492   */\n      add\n        /* \"#utility.yul\":9470:9493   */\n      mload\n        /* \"#utility.yul\":9506:9563   */\n      tag_496\n        /* \"#utility.yul\":9557:9561   */\n      0x80\n        /* \"#utility.yul\":9552:9555   */\n      dup7\n        /* \"#utility.yul\":9548:9562   */\n      add\n        /* \"#utility.yul\":9534:9546   */\n      dup3\n        /* \"#utility.yul\":9506:9563   */\n      tag_332\n      jump\t// in\n    tag_496:\n        /* \"#utility.yul\":9405:9573   */\n      pop\n        /* \"#utility.yul\":9661:9665   */\n      0xa0\n        /* \"#utility.yul\":9654:9659   */\n      dup4\n        /* \"#utility.yul\":9650:9666   */\n      add\n        /* \"#utility.yul\":9644:9667   */\n      mload\n        /* \"#utility.yul\":9680:9737   */\n      tag_497\n        /* \"#utility.yul\":9731:9735   */\n      0xa0\n        /* \"#utility.yul\":9726:9729   */\n      dup7\n        /* \"#utility.yul\":9722:9736   */\n      add\n        /* \"#utility.yul\":9708:9720   */\n      dup3\n        /* \"#utility.yul\":9680:9737   */\n      tag_332\n      jump\t// in\n    tag_497:\n        /* \"#utility.yul\":9583:9747   */\n      pop\n        /* \"#utility.yul\":9830:9834   */\n      0xc0\n        /* \"#utility.yul\":9823:9828   */\n      dup4\n        /* \"#utility.yul\":9819:9835   */\n      add\n        /* \"#utility.yul\":9813:9836   */\n      mload\n        /* \"#utility.yul\":9849:9906   */\n      tag_498\n        /* \"#utility.yul\":9900:9904   */\n      0xc0\n        /* \"#utility.yul\":9895:9898   */\n      dup7\n        /* \"#utility.yul\":9891:9905   */\n      add\n        /* \"#utility.yul\":9877:9889   */\n      dup3\n        /* \"#utility.yul\":9849:9906   */\n      tag_332\n      jump\t// in\n    tag_498:\n        /* \"#utility.yul\":9757:9916   */\n      pop\n        /* \"#utility.yul\":10000:10004   */\n      0xe0\n        /* \"#utility.yul\":9993:9998   */\n      dup4\n        /* \"#utility.yul\":9989:10005   */\n      add\n        /* \"#utility.yul\":9983:10006   */\n      mload\n        /* \"#utility.yul\":10019:10082   */\n      tag_499\n        /* \"#utility.yul\":10076:10080   */\n      0xe0\n        /* \"#utility.yul\":10071:10074   */\n      dup7\n        /* \"#utility.yul\":10067:10081   */\n      add\n        /* \"#utility.yul\":10053:10065   */\n      dup3\n        /* \"#utility.yul\":10019:10082   */\n      tag_330\n      jump\t// in\n    tag_499:\n        /* \"#utility.yul\":9926:10092   */\n      pop\n        /* \"#utility.yul\":10175:10181   */\n      0x0100\n        /* \"#utility.yul\":10168:10173   */\n      dup4\n        /* \"#utility.yul\":10164:10182   */\n      add\n        /* \"#utility.yul\":10158:10183   */\n      mload\n        /* \"#utility.yul\":10196:10261   */\n      tag_500\n        /* \"#utility.yul\":10253:10259   */\n      0x0100\n        /* \"#utility.yul\":10248:10251   */\n      dup7\n        /* \"#utility.yul\":10244:10260   */\n      add\n        /* \"#utility.yul\":10230:10242   */\n      dup3\n        /* \"#utility.yul\":10196:10261   */\n      tag_330\n      jump\t// in\n    tag_500:\n        /* \"#utility.yul\":10102:10271   */\n      pop\n        /* \"#utility.yul\":10354:10360   */\n      0x0120\n        /* \"#utility.yul\":10347:10352   */\n      dup4\n        /* \"#utility.yul\":10343:10361   */\n      add\n        /* \"#utility.yul\":10337:10362   */\n      mload\n        /* \"#utility.yul\":10411:10414   */\n      dup5\n        /* \"#utility.yul\":10405:10409   */\n      dup3\n        /* \"#utility.yul\":10401:10415   */\n      sub\n        /* \"#utility.yul\":10392:10398   */\n      0x0120\n        /* \"#utility.yul\":10387:10390   */\n      dup7\n        /* \"#utility.yul\":10383:10399   */\n      add\n        /* \"#utility.yul\":10376:10416   */\n      mstore\n        /* \"#utility.yul\":10437:10510   */\n      tag_501\n        /* \"#utility.yul\":10505:10509   */\n      dup3\n        /* \"#utility.yul\":10491:10503   */\n      dup3\n        /* \"#utility.yul\":10437:10510   */\n      tag_325\n      jump\t// in\n    tag_501:\n        /* \"#utility.yul\":10429:10510   */\n      swap2\n      pop\n        /* \"#utility.yul\":10281:10521   */\n      pop\n        /* \"#utility.yul\":10538:10542   */\n      dup1\n        /* \"#utility.yul\":10531:10542   */\n      swap2\n      pop\n        /* \"#utility.yul\":8656:10548   */\n      pop\n        /* \"#utility.yul\":8520:10548   */\n      swap3\n      swap2\n      pop\n      pop\n      jump\t// out\n        /* \"#utility.yul\":10554:10951   */\n    tag_27:\n        /* \"#utility.yul\":10709:10713   */\n      0x00\n        /* \"#utility.yul\":10747:10749   */\n      0x20\n        /* \"#utility.yul\":10736:10745   */\n      dup3\n        /* \"#utility.yul\":10732:10750   */\n      add\n        /* \"#utility.yul\":10724:10750   */\n      swap1\n      pop\n        /* \"#utility.yul\":10796:10805   */\n      dup2\n        /* \"#utility.yul\":10790:10794   */\n      dup2\n        /* \"#utility.yul\":10786:10806   */\n      sub\n        /* \"#utility.yul\":10782:10783   */\n      0x00\n        /* \"#utility.yul\":10771:10780   */\n      dup4\n        /* \"#utility.yul\":10767:10784   */\n      add\n        /* \"#utility.yul\":10760:10807   */\n      mstore\n        /* \"#utility.yul\":10824:10944   */\n      tag_503\n        /* \"#utility.yul\":10939:10943   */\n      dup2\n        /* \"#utility.yul\":10930:10936   */\n      dup5\n        /* \"#utility.yul\":10824:10944   */\n      tag_336\n      jump\t// in\n    tag_503:\n        /* \"#utility.yul\":10816:10944   */\n      swap1\n      pop\n        /* \"#utility.yul\":10554:10951   */\n      swap3\n      swap2\n      pop\n      pop\n      jump\t// out\n        /* \"#utility.yul\":10957:11073   */\n    tag_337:\n        /* \"#utility.yul\":11027:11048   */\n      tag_505\n        /* \"#utility.yul\":11042:11047   */\n      dup2\n        /* \"#utility.yul\":11027:11048   */\n      tag_331\n      jump\t// in\n    tag_505:\n        /* \"#utility.yul\":11020:11025   */\n      dup2\n        /* \"#utility.yul\":11017:11049   */\n      eq\n        /* \"#utility.yul\":11007:11067   */\n      tag_506\n      jumpi\n        /* \"#utility.yul\":11063:11064   */\n      0x00\n        /* \"#utility.yul\":11060:11061   */\n      dup1\n        /* \"#utility.yul\":11053:11065   */\n      revert\n        /* \"#utility.yul\":11007:11067   */\n    tag_506:\n        /* \"#utility.yul\":10957:11073   */\n      pop\n      jump\t// out\n        /* \"#utility.yul\":11079:11212   */\n    tag_338:\n        /* \"#utility.yul\":11122:11127   */\n      0x00\n        /* \"#utility.yul\":11160:11166   */\n      dup2\n        /* \"#utility.yul\":11147:11167   */\n      calldataload\n        /* \"#utility.yul\":11138:11167   */\n      swap1\n      pop\n        /* \"#utility.yul\":11176:11206   */\n      tag_508\n        /* \"#utility.yul\":11200:11205   */\n      dup2\n        /* \"#utility.yul\":11176:11206   */\n      tag_337\n      jump\t// in\n    tag_508:\n        /* \"#utility.yul\":11079:11212   */\n      swap3\n      swap2\n      pop\n      pop\n      jump\t// out\n        /* \"#utility.yul\":11218:11866   */\n    tag_30:\n        /* \"#utility.yul\":11293:11299   */\n      0x00\n        /* \"#utility.yul\":11301:11307   */\n      dup1\n        /* \"#utility.yul\":11350:11352   */\n      0x40\n        /* \"#utility.yul\":11338:11347   */\n      dup4\n        /* \"#utility.yul\":11329:11336   */\n      dup6\n        /* \"#utility.yul\":11325:11348   */\n      sub\n        /* \"#utility.yul\":11321:11353   */\n      slt\n        /* \"#utility.yul\":11318:11437   */\n      iszero\n      tag_510\n      jumpi\n        /* \"#utility.yul\":11356:11435   */\n      tag_511\n      tag_310\n      jump\t// in\n    tag_511:\n        /* \"#utility.yul\":11318:11437   */\n    tag_510:\n        /* \"#utility.yul\":11504:11505   */\n      0x00\n        /* \"#utility.yul\":11493:11502   */\n      dup4\n        /* \"#utility.yul\":11489:11506   */\n      add\n        /* \"#utility.yul\":11476:11507   */\n      calldataload\n        /* \"#utility.yul\":11534:11552   */\n      0xffffffffffffffff\n        /* \"#utility.yul\":11526:11532   */\n      dup2\n        /* \"#utility.yul\":11523:11553   */\n      gt\n        /* \"#utility.yul\":11520:11637   */\n      iszero\n      tag_512\n      jumpi\n        /* \"#utility.yul\":11556:11635   */\n      tag_513\n      tag_311\n      jump\t// in\n    tag_513:\n        /* \"#utility.yul\":11520:11637   */\n    tag_512:\n        /* \"#utility.yul\":11661:11724   */\n      tag_514\n        /* \"#utility.yul\":11716:11723   */\n      dup6\n        /* \"#utility.yul\":11707:11713   */\n      dup3\n        /* \"#utility.yul\":11696:11705   */\n      dup7\n        /* \"#utility.yul\":11692:11714   */\n      add\n        /* \"#utility.yul\":11661:11724   */\n      tag_321\n      jump\t// in\n    tag_514:\n        /* \"#utility.yul\":11651:11724   */\n      swap3\n      pop\n        /* \"#utility.yul\":11447:11734   */\n      pop\n        /* \"#utility.yul\":11773:11775   */\n      0x20\n        /* \"#utility.yul\":11799:11849   */\n      tag_515\n        /* \"#utility.yul\":11841:11848   */\n      dup6\n        /* \"#utility.yul\":11832:11838   */\n      dup3\n        /* \"#utility.yul\":11821:11830   */\n      dup7\n        /* \"#utility.yul\":11817:11839   */\n      add\n        /* \"#utility.yul\":11799:11849   */\n      tag_338\n      jump\t// in\n    tag_515:\n        /* \"#utility.yul\":11789:11849   */\n      swap2\n      pop\n        /* \"#utility.yul\":11744:11859   */\n      pop\n        /* \"#utility.yul\":11218:11866   */\n      swap3\n      pop\n      swap3\n      swap1\n      pop\n      jump\t// out\n        /* \"#utility.yul\":11872:11994   */\n    tag_339:\n        /* \"#utility.yul\":11945:11969   */\n      tag_517\n        /* \"#utility.yul\":11963:11968   */\n      dup2\n        /* \"#utility.yul\":11945:11969   */\n      tag_329\n      jump\t// in\n    tag_517:\n        /* \"#utility.yul\":11938:11943   */\n      dup2\n        /* \"#utility.yul\":11935:11970   */\n      eq\n        /* \"#utility.yul\":11925:11988   */\n      tag_518\n      jumpi\n        /* \"#utility.yul\":11984:11985   */\n      0x00\n        /* \"#utility.yul\":11981:11982   */\n      dup1\n        /* \"#utility.yul\":11974:11986   */\n      revert\n        /* \"#utility.yul\":11925:11988   */\n    tag_518:\n        /* \"#utility.yul\":11872:11994   */\n      pop\n      jump\t// out\n        /* \"#utility.yul\":12000:12139   */\n    tag_340:\n        /* \"#utility.yul\":12046:12051   */\n      0x00\n        /* \"#utility.yul\":12084:12090   */\n      dup2\n        /* \"#utility.yul\":12071:12091   */\n      calldataload\n        /* \"#utility.yul\":12062:12091   */\n      swap1\n      pop\n        /* \"#utility.yul\":12100:12133   */\n      tag_520\n        /* \"#utility.yul\":12127:12132   */\n      dup2\n        /* \"#utility.yul\":12100:12133   */\n      tag_339\n      jump\t// in\n    tag_520:\n        /* \"#utility.yul\":12000:12139   */\n      swap3\n      swap2\n      pop\n      pop\n      jump\t// out\n        /* \"#utility.yul\":12145:12799   */\n    tag_34:\n        /* \"#utility.yul\":12223:12229   */\n      0x00\n        /* \"#utility.yul\":12231:12237   */\n      dup1\n        /* \"#utility.yul\":12280:12282   */\n      0x40\n        /* \"#utility.yul\":12268:12277   */\n      dup4\n        /* \"#utility.yul\":12259:12266   */\n      dup6\n        /* \"#utility.yul\":12255:12278   */\n      sub\n        /* \"#utility.yul\":12251:12283   */\n      slt\n        /* \"#utility.yul\":12248:12367   */\n      iszero\n      tag_522\n      jumpi\n        /* \"#utility.yul\":12286:12365   */\n      tag_523\n      tag_310\n      jump\t// in\n    tag_523:\n        /* \"#utility.yul\":12248:12367   */\n    tag_522:\n        /* \"#utility.yul\":12434:12435   */\n      0x00\n        /* \"#utility.yul\":12423:12432   */\n      dup4\n        /* \"#utility.yul\":12419:12436   */\n      add\n        /* \"#utility.yul\":12406:12437   */\n      calldataload\n        /* \"#utility.yul\":12464:12482   */\n      0xffffffffffffffff\n        /* \"#utility.yul\":12456:12462   */\n      dup2\n        /* \"#utility.yul\":12453:12483   */\n      gt\n        /* \"#utility.yul\":12450:12567   */\n      iszero\n      tag_524\n      jumpi\n        /* \"#utility.yul\":12486:12565   */\n      tag_525\n      tag_311\n      jump\t// in\n    tag_525:\n        /* \"#utility.yul\":12450:12567   */\n    tag_524:\n        /* \"#utility.yul\":12591:12654   */\n      tag_526\n        /* \"#utility.yul\":12646:12653   */\n      dup6\n        /* \"#utility.yul\":12637:12643   */\n      dup3\n        /* \"#utility.yul\":12626:12635   */\n      dup7\n        /* \"#utility.yul\":12622:12644   */\n      add\n        /* \"#utility.yul\":12591:12654   */\n      tag_321\n      jump\t// in\n    tag_526:\n        /* \"#utility.yul\":12581:12654   */\n      swap3\n      pop\n        /* \"#utility.yul\":12377:12664   */\n      pop\n        /* \"#utility.yul\":12703:12705   */\n      0x20\n        /* \"#utility.yul\":12729:12782   */\n      tag_527\n        /* \"#utility.yul\":12774:12781   */\n      dup6\n        /* \"#utility.yul\":12765:12771   */\n      dup3\n        /* \"#utility.yul\":12754:12763   */\n      dup7\n        /* \"#utility.yul\":12750:12772   */\n      add\n        /* \"#utility.yul\":12729:12782   */\n      tag_340\n      jump\t// in\n    tag_527:\n        /* \"#utility.yul\":12719:12782   */\n      swap2\n      pop\n        /* \"#utility.yul\":12674:12792   */\n      pop\n        /* \"#utility.yul\":12145:12799   */\n      swap3\n      pop\n      swap3\n      swap1\n      pop\n      jump\t// out\n        /* \"#utility.yul\":12805:12923   */\n    tag_341:\n        /* \"#utility.yul\":12892:12916   */\n      tag_529\n        /* \"#utility.yul\":12910:12915   */\n      dup2\n        /* \"#utility.yul\":12892:12916   */\n      tag_329\n      jump\t// in\n    tag_529:\n        /* \"#utility.yul\":12887:12890   */\n      dup3\n        /* \"#utility.yul\":12880:12917   */\n      mstore\n        /* \"#utility.yul\":12805:12923   */\n      pop\n      pop\n      jump\t// out\n        /* \"#utility.yul\":12929:13151   */\n    tag_46:\n        /* \"#utility.yul\":13022:13026   */\n      0x00\n        /* \"#utility.yul\":13060:13062   */\n      0x20\n        /* \"#utility.yul\":13049:13058   */\n      dup3\n        /* \"#utility.yul\":13045:13063   */\n      add\n        /* \"#utility.yul\":13037:13063   */\n      swap1\n      pop\n        /* \"#utility.yul\":13073:13144   */\n      tag_531\n        /* \"#utility.yul\":13141:13142   */\n      0x00\n        /* \"#utility.yul\":13130:13139   */\n      dup4\n        /* \"#utility.yul\":13126:13143   */\n      add\n        /* \"#utility.yul\":13117:13123   */\n      dup5\n        /* \"#utility.yul\":13073:13144   */\n      tag_341\n      jump\t// in\n    tag_531:\n        /* \"#utility.yul\":12929:13151   */\n      swap3\n      swap2\n      pop\n      pop\n      jump\t// out\n        /* \"#utility.yul\":13157:14102   */\n    tag_55:\n        /* \"#utility.yul\":13253:13259   */\n      0x00\n        /* \"#utility.yul\":13261:13267   */\n      dup1\n        /* \"#utility.yul\":13269:13275   */\n      0x00\n        /* \"#utility.yul\":13277:13283   */\n      dup1\n        /* \"#utility.yul\":13326:13329   */\n      0x80\n        /* \"#utility.yul\":13314:13323   */\n      dup6\n        /* \"#utility.yul\":13305:13312   */\n      dup8\n        /* \"#utility.yul\":13301:13324   */\n      sub\n        /* \"#utility.yul\":13297:13330   */\n      slt\n        /* \"#utility.yul\":13294:13414   */\n      iszero\n      tag_533\n      jumpi\n        /* \"#utility.yul\":13333:13412   */\n      tag_534\n      tag_310\n      jump\t// in\n    tag_534:\n        /* \"#utility.yul\":13294:13414   */\n    tag_533:\n        /* \"#utility.yul\":13481:13482   */\n      0x00\n        /* \"#utility.yul\":13470:13479   */\n      dup6\n        /* \"#utility.yul\":13466:13483   */\n      add\n        /* \"#utility.yul\":13453:13484   */\n      calldataload\n        /* \"#utility.yul\":13511:13529   */\n      0xffffffffffffffff\n        /* \"#utility.yul\":13503:13509   */\n      dup2\n        /* \"#utility.yul\":13500:13530   */\n      gt\n        /* \"#utility.yul\":13497:13614   */\n      iszero\n      tag_535\n      jumpi\n        /* \"#utility.yul\":13533:13612   */\n      tag_536\n      tag_311\n      jump\t// in\n    tag_536:\n        /* \"#utility.yul\":13497:13614   */\n    tag_535:\n        /* \"#utility.yul\":13638:13701   */\n      tag_537\n        /* \"#utility.yul\":13693:13700   */\n      dup8\n        /* \"#utility.yul\":13684:13690   */\n      dup3\n        /* \"#utility.yul\":13673:13682   */\n      dup9\n        /* \"#utility.yul\":13669:13691   */\n      add\n        /* \"#utility.yul\":13638:13701   */\n      tag_321\n      jump\t// in\n    tag_537:\n        /* \"#utility.yul\":13628:13701   */\n      swap5\n      pop\n        /* \"#utility.yul\":13424:13711   */\n      pop\n        /* \"#utility.yul\":13750:13752   */\n      0x20\n        /* \"#utility.yul\":13776:13829   */\n      tag_538\n        /* \"#utility.yul\":13821:13828   */\n      dup8\n        /* \"#utility.yul\":13812:13818   */\n      dup3\n        /* \"#utility.yul\":13801:13810   */\n      dup9\n        /* \"#utility.yul\":13797:13819   */\n      add\n        /* \"#utility.yul\":13776:13829   */\n      tag_340\n      jump\t// in\n    tag_538:\n        /* \"#utility.yul\":13766:13829   */\n      swap4\n      pop\n        /* \"#utility.yul\":13721:13839   */\n      pop\n        /* \"#utility.yul\":13878:13880   */\n      0x40\n        /* \"#utility.yul\":13904:13957   */\n      tag_539\n        /* \"#utility.yul\":13949:13956   */\n      dup8\n        /* \"#utility.yul\":13940:13946   */\n      dup3\n        /* \"#utility.yul\":13929:13938   */\n      dup9\n        /* \"#utility.yul\":13925:13947   */\n      add\n        /* \"#utility.yul\":13904:13957   */\n      tag_340\n      jump\t// in\n    tag_539:\n        /* \"#utility.yul\":13894:13957   */\n      swap3\n      pop\n        /* \"#utility.yul\":13849:13967   */\n      pop\n        /* \"#utility.yul\":14006:14008   */\n      0x60\n        /* \"#utility.yul\":14032:14085   */\n      tag_540\n        /* \"#utility.yul\":14077:14084   */\n      dup8\n        /* \"#utility.yul\":14068:14074   */\n      dup3\n        /* \"#utility.yul\":14057:14066   */\n      dup9\n        /* \"#utility.yul\":14053:14075   */\n      add\n        /* \"#utility.yul\":14032:14085   */\n      tag_340\n      jump\t// in\n    tag_540:\n        /* \"#utility.yul\":14022:14085   */\n      swap2\n      pop\n        /* \"#utility.yul\":13977:14095   */\n      pop\n        /* \"#utility.yul\":13157:14102   */\n      swap3\n      swap6\n      swap2\n      swap5\n      pop\n      swap3\n      pop\n      jump\t// out\n        /* \"#utility.yul\":14108:14440   */\n    tag_63:\n        /* \"#utility.yul\":14229:14233   */\n      0x00\n        /* \"#utility.yul\":14267:14269   */\n      0x40\n        /* \"#utility.yul\":14256:14265   */\n      dup3\n        /* \"#utility.yul\":14252:14270   */\n      add\n        /* \"#utility.yul\":14244:14270   */\n      swap1\n      pop\n        /* \"#utility.yul\":14280:14351   */\n      tag_542\n        /* \"#utility.yul\":14348:14349   */\n      0x00\n        /* \"#utility.yul\":14337:14346   */\n      dup4\n        /* \"#utility.yul\":14333:14350   */\n      add\n        /* \"#utility.yul\":14324:14330   */\n      dup6\n        /* \"#utility.yul\":14280:14351   */\n      tag_341\n      jump\t// in\n    tag_542:\n        /* \"#utility.yul\":14361:14433   */\n      tag_543\n        /* \"#utility.yul\":14429:14431   */\n      0x20\n        /* \"#utility.yul\":14418:14427   */\n      dup4\n        /* \"#utility.yul\":14414:14432   */\n      add\n        /* \"#utility.yul\":14405:14411   */\n      dup5\n        /* \"#utility.yul\":14361:14433   */\n      tag_341\n      jump\t// in\n    tag_543:\n        /* \"#utility.yul\":14108:14440   */\n      swap4\n      swap3\n      pop\n      pop\n      pop\n      jump\t// out\n        /* \"#utility.yul\":14446:14594   */\n    tag_342:\n        /* \"#utility.yul\":14548:14559   */\n      0x00\n        /* \"#utility.yul\":14585:14588   */\n      dup2\n        /* \"#utility.yul\":14570:14588   */\n      swap1\n      pop\n        /* \"#utility.yul\":14446:14594   */\n      swap3\n      swap2\n      pop\n      pop\n      jump\t// out\n        /* \"#utility.yul\":14600:14990   */\n    tag_343:\n        /* \"#utility.yul\":14706:14709   */\n      0x00\n        /* \"#utility.yul\":14734:14773   */\n      tag_546\n        /* \"#utility.yul\":14767:14772   */\n      dup3\n        /* \"#utility.yul\":14734:14773   */\n      tag_322\n      jump\t// in\n    tag_546:\n        /* \"#utility.yul\":14789:14878   */\n      tag_547\n        /* \"#utility.yul\":14871:14877   */\n      dup2\n        /* \"#utility.yul\":14866:14869   */\n      dup6\n        /* \"#utility.yul\":14789:14878   */\n      tag_342\n      jump\t// in\n    tag_547:\n        /* \"#utility.yul\":14782:14878   */\n      swap4\n      pop\n        /* \"#utility.yul\":14887:14952   */\n      tag_548\n        /* \"#utility.yul\":14945:14951   */\n      dup2\n        /* \"#utility.yul\":14940:14943   */\n      dup6\n        /* \"#utility.yul\":14933:14937   */\n      0x20\n        /* \"#utility.yul\":14926:14931   */\n      dup7\n        /* \"#utility.yul\":14922:14938   */\n      add\n        /* \"#utility.yul\":14887:14952   */\n      tag_324\n      jump\t// in\n    tag_548:\n        /* \"#utility.yul\":14977:14983   */\n      dup1\n        /* \"#utility.yul\":14972:14975   */\n      dup5\n        /* \"#utility.yul\":14968:14984   */\n      add\n        /* \"#utility.yul\":14961:14984   */\n      swap2\n      pop\n        /* \"#utility.yul\":14710:14990   */\n      pop\n        /* \"#utility.yul\":14600:14990   */\n      swap3\n      swap2\n      pop\n      pop\n      jump\t// out\n        /* \"#utility.yul\":14996:15271   */\n    tag_68:\n        /* \"#utility.yul\":15128:15131   */\n      0x00\n        /* \"#utility.yul\":15150:15245   */\n      tag_550\n        /* \"#utility.yul\":15241:15244   */\n      dup3\n        /* \"#utility.yul\":15232:15238   */\n      dup5\n        /* \"#utility.yul\":15150:15245   */\n      tag_343\n      jump\t// in\n    tag_550:\n        /* \"#utility.yul\":15143:15245   */\n      swap2\n      pop\n        /* \"#utility.yul\":15262:15265   */\n      dup2\n        /* \"#utility.yul\":15255:15265   */\n      swap1\n      pop\n        /* \"#utility.yul\":14996:15271   */\n      swap3\n      swap2\n      pop\n      pop\n      jump\t// out\n        /* \"#utility.yul\":15277:15457   */\n    tag_344:\n        /* \"#utility.yul\":15325:15402   */\n      0x4e487b7100000000000000000000000000000000000000000000000000000000\n        /* \"#utility.yul\":15322:15323   */\n      0x00\n        /* \"#utility.yul\":15315:15403   */\n      mstore\n        /* \"#utility.yul\":15422:15426   */\n      0x22\n        /* \"#utility.yul\":15419:15420   */\n      0x04\n        /* \"#utility.yul\":15412:15427   */\n      mstore\n        /* \"#utility.yul\":15446:15450   */\n      0x24\n        /* \"#utility.yul\":15443:15444   */\n      0x00\n        /* \"#utility.yul\":15436:15451   */\n      revert\n        /* \"#utility.yul\":15463:15783   */\n    tag_70:\n        /* \"#utility.yul\":15507:15513   */\n      0x00\n        /* \"#utility.yul\":15544:15545   */\n      0x02\n        /* \"#utility.yul\":15538:15542   */\n      dup3\n        /* \"#utility.yul\":15534:15546   */\n      div\n        /* \"#utility.yul\":15524:15546   */\n      swap1\n      pop\n        /* \"#utility.yul\":15591:15592   */\n      0x01\n        /* \"#utility.yul\":15585:15589   */\n      dup3\n        /* \"#utility.yul\":15581:15593   */\n      and\n        /* \"#utility.yul\":15612:15630   */\n      dup1\n        /* \"#utility.yul\":15602:15683   */\n      tag_553\n      jumpi\n        /* \"#utility.yul\":15668:15672   */\n      0x7f\n        /* \"#utility.yul\":15660:15666   */\n      dup3\n        /* \"#utility.yul\":15656:15673   */\n      and\n        /* \"#utility.yul\":15646:15673   */\n      swap2\n      pop\n        /* \"#utility.yul\":15602:15683   */\n    tag_553:\n        /* \"#utility.yul\":15730:15732   */\n      0x20\n        /* \"#utility.yul\":15722:15728   */\n      dup3\n        /* \"#utility.yul\":15719:15733   */\n      lt\n        /* \"#utility.yul\":15699:15717   */\n      dup2\n        /* \"#utility.yul\":15696:15734   */\n      sub\n        /* \"#utility.yul\":15693:15777   */\n      tag_554\n      jumpi\n        /* \"#utility.yul\":15749:15767   */\n      tag_555\n      tag_344\n      jump\t// in\n    tag_555:\n        /* \"#utility.yul\":15693:15777   */\n    tag_554:\n        /* \"#utility.yul\":15514:15783   */\n      pop\n        /* \"#utility.yul\":15463:15783   */\n      swap2\n      swap1\n      pop\n      jump\t// out\n        /* \"#utility.yul\":15789:15958   */\n    tag_345:\n        /* \"#utility.yul\":15873:15884   */\n      0x00\n        /* \"#utility.yul\":15907:15913   */\n      dup3\n        /* \"#utility.yul\":15902:15905   */\n      dup3\n        /* \"#utility.yul\":15895:15914   */\n      mstore\n        /* \"#utility.yul\":15947:15951   */\n      0x20\n        /* \"#utility.yul\":15942:15945   */\n      dup3\n        /* \"#utility.yul\":15938:15952   */\n      add\n        /* \"#utility.yul\":15923:15952   */\n      swap1\n      pop\n        /* \"#utility.yul\":15789:15958   */\n      swap3\n      swap2\n      pop\n      pop\n      jump\t// out\n        /* \"#utility.yul\":15964:16186   */\n    tag_346:\n        /* \"#utility.yul\":16104:16138   */\n      0x5468652063757272656e742075736572206973206e6f742061207075626c6973\n        /* \"#utility.yul\":16100:16101   */\n      0x00\n        /* \"#utility.yul\":16092:16098   */\n      dup3\n        /* \"#utility.yul\":16088:16102   */\n      add\n        /* \"#utility.yul\":16081:16139   */\n      mstore\n        /* \"#utility.yul\":16173:16178   */\n      0x6865720000000000000000000000000000000000000000000000000000000000\n        /* \"#utility.yul\":16168:16170   */\n      0x20\n        /* \"#utility.yul\":16160:16166   */\n      dup3\n        /* \"#utility.yul\":16156:16171   */\n      add\n        /* \"#utility.yul\":16149:16179   */\n      mstore\n        /* \"#utility.yul\":15964:16186   */\n      pop\n      jump\t// out\n        /* \"#utility.yul\":16192:16558   */\n    tag_347:\n        /* \"#utility.yul\":16334:16337   */\n      0x00\n        /* \"#utility.yul\":16355:16422   */\n      tag_559\n        /* \"#utility.yul\":16419:16421   */\n      0x23\n        /* \"#utility.yul\":16414:16417   */\n      dup4\n        /* \"#utility.yul\":16355:16422   */\n      tag_345\n      jump\t// in\n    tag_559:\n        /* \"#utility.yul\":16348:16422   */\n      swap2\n      pop\n        /* \"#utility.yul\":16431:16524   */\n      tag_560\n        /* \"#utility.yul\":16520:16523   */\n      dup3\n        /* \"#utility.yul\":16431:16524   */\n      tag_346\n      jump\t// in\n    tag_560:\n        /* \"#utility.yul\":16549:16551   */\n      0x40\n        /* \"#utility.yul\":16544:16547   */\n      dup3\n        /* \"#utility.yul\":16540:16552   */\n      add\n        /* \"#utility.yul\":16533:16552   */\n      swap1\n      pop\n        /* \"#utility.yul\":16192:16558   */\n      swap2\n      swap1\n      pop\n      jump\t// out\n        /* \"#utility.yul\":16564:16983   */\n    tag_105:\n        /* \"#utility.yul\":16730:16734   */\n      0x00\n        /* \"#utility.yul\":16768:16770   */\n      0x20\n        /* \"#utility.yul\":16757:16766   */\n      dup3\n        /* \"#utility.yul\":16753:16771   */\n      add\n        /* \"#utility.yul\":16745:16771   */\n      swap1\n      pop\n        /* \"#utility.yul\":16817:16826   */\n      dup2\n        /* \"#utility.yul\":16811:16815   */\n      dup2\n        /* \"#utility.yul\":16807:16827   */\n      sub\n        /* \"#utility.yul\":16803:16804   */\n      0x00\n        /* \"#utility.yul\":16792:16801   */\n      dup4\n        /* \"#utility.yul\":16788:16805   */\n      add\n        /* \"#utility.yul\":16781:16828   */\n      mstore\n        /* \"#utility.yul\":16845:16976   */\n      tag_562\n        /* \"#utility.yul\":16971:16975   */\n      dup2\n        /* \"#utility.yul\":16845:16976   */\n      tag_347\n      jump\t// in\n    tag_562:\n        /* \"#utility.yul\":16837:16976   */\n      swap1\n      pop\n        /* \"#utility.yul\":16564:16983   */\n      swap2\n      swap1\n      pop\n      jump\t// out\n        /* \"#utility.yul\":16989:17222   */\n    tag_348:\n        /* \"#utility.yul\":17129:17163   */\n      0x54686520696e69746961746f722063616e6e6f74206368616c6c656e67652068\n        /* \"#utility.yul\":17125:17126   */\n      0x00\n        /* \"#utility.yul\":17117:17123   */\n      dup3\n        /* \"#utility.yul\":17113:17127   */\n      add\n        /* \"#utility.yul\":17106:17164   */\n      mstore\n        /* \"#utility.yul\":17198:17214   */\n      0x69732070726f706f736974696f6e000000000000000000000000000000000000\n        /* \"#utility.yul\":17193:17195   */\n      0x20\n        /* \"#utility.yul\":17185:17191   */\n      dup3\n        /* \"#utility.yul\":17181:17196   */\n      add\n        /* \"#utility.yul\":17174:17215   */\n      mstore\n        /* \"#utility.yul\":16989:17222   */\n      pop\n      jump\t// out\n        /* \"#utility.yul\":17228:17594   */\n    tag_349:\n        /* \"#utility.yul\":17370:17373   */\n      0x00\n        /* \"#utility.yul\":17391:17458   */\n      tag_565\n        /* \"#utility.yul\":17455:17457   */\n      0x2e\n        /* \"#utility.yul\":17450:17453   */\n      dup4\n        /* \"#utility.yul\":17391:17458   */\n      tag_345\n      jump\t// in\n    tag_565:\n        /* \"#utility.yul\":17384:17458   */\n      swap2\n      pop\n        /* \"#utility.yul\":17467:17560   */\n      tag_566\n        /* \"#utility.yul\":17556:17559   */\n      dup3\n        /* \"#utility.yul\":17467:17560   */\n      tag_348\n      jump\t// in\n    tag_566:\n        /* \"#utility.yul\":17585:17587   */\n      0x40\n        /* \"#utility.yul\":17580:17583   */\n      dup3\n        /* \"#utility.yul\":17576:17588   */\n      add\n        /* \"#utility.yul\":17569:17588   */\n      swap1\n      pop\n        /* \"#utility.yul\":17228:17594   */\n      swap2\n      swap1\n      pop\n      jump\t// out\n        /* \"#utility.yul\":17600:18019   */\n    tag_120:\n        /* \"#utility.yul\":17766:17770   */\n      0x00\n        /* \"#utility.yul\":17804:17806   */\n      0x20\n        /* \"#utility.yul\":17793:17802   */\n      dup3\n        /* \"#utility.yul\":17789:17807   */\n      add\n        /* \"#utility.yul\":17781:17807   */\n      swap1\n      pop\n        /* \"#utility.yul\":17853:17862   */\n      dup2\n        /* \"#utility.yul\":17847:17851   */\n      dup2\n        /* \"#utility.yul\":17843:17863   */\n      sub\n        /* \"#utility.yul\":17839:17840   */\n      0x00\n        /* \"#utility.yul\":17828:17837   */\n      dup4\n        /* \"#utility.yul\":17824:17841   */\n      add\n        /* \"#utility.yul\":17817:17864   */\n      mstore\n        /* \"#utility.yul\":17881:18012   */\n      tag_568\n        /* \"#utility.yul\":18007:18011   */\n      dup2\n        /* \"#utility.yul\":17881:18012   */\n      tag_349\n      jump\t// in\n    tag_568:\n        /* \"#utility.yul\":17873:18012   */\n      swap1\n      pop\n        /* \"#utility.yul\":17600:18019   */\n      swap2\n      swap1\n      pop\n      jump\t// out\n        /* \"#utility.yul\":18025:18204   */\n    tag_350:\n        /* \"#utility.yul\":18165:18196   */\n      0x5468652063757272656e74206368616c6c656e6765206973206f766572000000\n        /* \"#utility.yul\":18161:18162   */\n      0x00\n        /* \"#utility.yul\":18153:18159   */\n      dup3\n        /* \"#utility.yul\":18149:18163   */\n      add\n        /* \"#utility.yul\":18142:18197   */\n      mstore\n        /* \"#utility.yul\":18025:18204   */\n      pop\n      jump\t// out\n        /* \"#utility.yul\":18210:18576   */\n    tag_351:\n        /* \"#utility.yul\":18352:18355   */\n      0x00\n        /* \"#utility.yul\":18373:18440   */\n      tag_571\n        /* \"#utility.yul\":18437:18439   */\n      0x1d\n        /* \"#utility.yul\":18432:18435   */\n      dup4\n        /* \"#utility.yul\":18373:18440   */\n      tag_345\n      jump\t// in\n    tag_571:\n        /* \"#utility.yul\":18366:18440   */\n      swap2\n      pop\n        /* \"#utility.yul\":18449:18542   */\n      tag_572\n        /* \"#utility.yul\":18538:18541   */\n      dup3\n        /* \"#utility.yul\":18449:18542   */\n      tag_350\n      jump\t// in\n    tag_572:\n        /* \"#utility.yul\":18567:18569   */\n      0x20\n        /* \"#utility.yul\":18562:18565   */\n      dup3\n        /* \"#utility.yul\":18558:18570   */\n      add\n        /* \"#utility.yul\":18551:18570   */\n      swap1\n      pop\n        /* \"#utility.yul\":18210:18576   */\n      swap2\n      swap1\n      pop\n      jump\t// out\n        /* \"#utility.yul\":18582:19001   */\n    tag_124:\n        /* \"#utility.yul\":18748:18752   */\n      0x00\n        /* \"#utility.yul\":18786:18788   */\n      0x20\n        /* \"#utility.yul\":18775:18784   */\n      dup3\n        /* \"#utility.yul\":18771:18789   */\n      add\n        /* \"#utility.yul\":18763:18789   */\n      swap1\n      pop\n        /* \"#utility.yul\":18835:18844   */\n      dup2\n        /* \"#utility.yul\":18829:18833   */\n      dup2\n        /* \"#utility.yul\":18825:18845   */\n      sub\n        /* \"#utility.yul\":18821:18822   */\n      0x00\n        /* \"#utility.yul\":18810:18819   */\n      dup4\n        /* \"#utility.yul\":18806:18823   */\n      add\n        /* \"#utility.yul\":18799:18846   */\n      mstore\n        /* \"#utility.yul\":18863:18994   */\n      tag_574\n        /* \"#utility.yul\":18989:18993   */\n      dup2\n        /* \"#utility.yul\":18863:18994   */\n      tag_351\n      jump\t// in\n    tag_574:\n        /* \"#utility.yul\":18855:18994   */\n      swap1\n      pop\n        /* \"#utility.yul\":18582:19001   */\n      swap2\n      swap1\n      pop\n      jump\t// out\n        /* \"#utility.yul\":19007:19228   */\n    tag_352:\n        /* \"#utility.yul\":19147:19181   */\n      0x5468652063757272656e74206368616c6c656e67652074696d65206973206f76\n        /* \"#utility.yul\":19143:19144   */\n      0x00\n        /* \"#utility.yul\":19135:19141   */\n      dup3\n        /* \"#utility.yul\":19131:19145   */\n      add\n        /* \"#utility.yul\":19124:19182   */\n      mstore\n        /* \"#utility.yul\":19216:19220   */\n      0x6572000000000000000000000000000000000000000000000000000000000000\n        /* \"#utility.yul\":19211:19213   */\n      0x20\n        /* \"#utility.yul\":19203:19209   */\n      dup3\n        /* \"#utility.yul\":19199:19214   */\n      add\n        /* \"#utility.yul\":19192:19221   */\n      mstore\n        /* \"#utility.yul\":19007:19228   */\n      pop\n      jump\t// out\n        /* \"#utility.yul\":19234:19600   */\n    tag_353:\n        /* \"#utility.yul\":19376:19379   */\n      0x00\n        /* \"#utility.yul\":19397:19464   */\n      tag_577\n        /* \"#utility.yul\":19461:19463   */\n      0x22\n        /* \"#utility.yul\":19456:19459   */\n      dup4\n        /* \"#utility.yul\":19397:19464   */\n      tag_345\n      jump\t// in\n    tag_577:\n        /* \"#utility.yul\":19390:19464   */\n      swap2\n      pop\n        /* \"#utility.yul\":19473:19566   */\n      tag_578\n        /* \"#utility.yul\":19562:19565   */\n      dup3\n        /* \"#utility.yul\":19473:19566   */\n      tag_352\n      jump\t// in\n    tag_578:\n        /* \"#utility.yul\":19591:19593   */\n      0x40\n        /* \"#utility.yul\":19586:19589   */\n      dup3\n        /* \"#utility.yul\":19582:19594   */\n      add\n        /* \"#utility.yul\":19575:19594   */\n      swap1\n      pop\n        /* \"#utility.yul\":19234:19600   */\n      swap2\n      swap1\n      pop\n      jump\t// out\n        /* \"#utility.yul\":19606:20025   */\n    tag_128:\n        /* \"#utility.yul\":19772:19776   */\n      0x00\n        /* \"#utility.yul\":19810:19812   */\n      0x20\n        /* \"#utility.yul\":19799:19808   */\n      dup3\n        /* \"#utility.yul\":19795:19813   */\n      add\n        /* \"#utility.yul\":19787:19813   */\n      swap1\n      pop\n        /* \"#utility.yul\":19859:19868   */\n      dup2\n        /* \"#utility.yul\":19853:19857   */\n      dup2\n        /* \"#utility.yul\":19849:19869   */\n      sub\n        /* \"#utility.yul\":19845:19846   */\n      0x00\n        /* \"#utility.yul\":19834:19843   */\n      dup4\n        /* \"#utility.yul\":19830:19847   */\n      add\n        /* \"#utility.yul\":19823:19870   */\n      mstore\n        /* \"#utility.yul\":19887:20018   */\n      tag_580\n        /* \"#utility.yul\":20013:20017   */\n      dup2\n        /* \"#utility.yul\":19887:20018   */\n      tag_353\n      jump\t// in\n    tag_580:\n        /* \"#utility.yul\":19879:20018   */\n      swap1\n      pop\n        /* \"#utility.yul\":19606:20025   */\n      swap2\n      swap1\n      pop\n      jump\t// out\n        /* \"#utility.yul\":20031:20331   */\n    tag_354:\n        /* \"#utility.yul\":20171:20205   */\n      0x54686520746f74616c206368616c6c656e676520616d6f756e742063616e6e6f\n        /* \"#utility.yul\":20167:20168   */\n      0x00\n        /* \"#utility.yul\":20159:20165   */\n      dup3\n        /* \"#utility.yul\":20155:20169   */\n      add\n        /* \"#utility.yul\":20148:20206   */\n      mstore\n        /* \"#utility.yul\":20240:20274   */\n      0x7420626520686967686572207468616e20746865206d6178696d756d20617661\n        /* \"#utility.yul\":20235:20237   */\n      0x20\n        /* \"#utility.yul\":20227:20233   */\n      dup3\n        /* \"#utility.yul\":20223:20238   */\n      add\n        /* \"#utility.yul\":20216:20275   */\n      mstore\n        /* \"#utility.yul\":20309:20323   */\n      0x696c61626c652071756f74610000000000000000000000000000000000000000\n        /* \"#utility.yul\":20304:20306   */\n      0x40\n        /* \"#utility.yul\":20296:20302   */\n      dup3\n        /* \"#utility.yul\":20292:20307   */\n      add\n        /* \"#utility.yul\":20285:20324   */\n      mstore\n        /* \"#utility.yul\":20031:20331   */\n      pop\n      jump\t// out\n        /* \"#utility.yul\":20337:20703   */\n    tag_355:\n        /* \"#utility.yul\":20479:20482   */\n      0x00\n        /* \"#utility.yul\":20500:20567   */\n      tag_583\n        /* \"#utility.yul\":20564:20566   */\n      0x4c\n        /* \"#utility.yul\":20559:20562   */\n      dup4\n        /* \"#utility.yul\":20500:20567   */\n      tag_345\n      jump\t// in\n    tag_583:\n        /* \"#utility.yul\":20493:20567   */\n      swap2\n      pop\n        /* \"#utility.yul\":20576:20669   */\n      tag_584\n        /* \"#utility.yul\":20665:20668   */\n      dup3\n        /* \"#utility.yul\":20576:20669   */\n      tag_354\n      jump\t// in\n    tag_584:\n        /* \"#utility.yul\":20694:20696   */\n      0x60\n        /* \"#utility.yul\":20689:20692   */\n      dup3\n        /* \"#utility.yul\":20685:20697   */\n      add\n        /* \"#utility.yul\":20678:20697   */\n      swap1\n      pop\n        /* \"#utility.yul\":20337:20703   */\n      swap2\n      swap1\n      pop\n      jump\t// out\n        /* \"#utility.yul\":20709:21128   */\n    tag_137:\n        /* \"#utility.yul\":20875:20879   */\n      0x00\n        /* \"#utility.yul\":20913:20915   */\n      0x20\n        /* \"#utility.yul\":20902:20911   */\n      dup3\n        /* \"#utility.yul\":20898:20916   */\n      add\n        /* \"#utility.yul\":20890:20916   */\n      swap1\n      pop\n        /* \"#utility.yul\":20962:20971   */\n      dup2\n        /* \"#utility.yul\":20956:20960   */\n      dup2\n        /* \"#utility.yul\":20952:20972   */\n      sub\n        /* \"#utility.yul\":20948:20949   */\n      0x00\n        /* \"#utility.yul\":20937:20946   */\n      dup4\n        /* \"#utility.yul\":20933:20950   */\n      add\n        /* \"#utility.yul\":20926:20973   */\n      mstore\n        /* \"#utility.yul\":20990:21121   */\n      tag_586\n        /* \"#utility.yul\":21116:21120   */\n      dup2\n        /* \"#utility.yul\":20990:21121   */\n      tag_355\n      jump\t// in\n    tag_586:\n        /* \"#utility.yul\":20982:21121   */\n      swap1\n      pop\n        /* \"#utility.yul\":20709:21128   */\n      swap2\n      swap1\n      pop\n      jump\t// out\n        /* \"#utility.yul\":21134:21360   */\n    tag_356:\n        /* \"#utility.yul\":21274:21308   */\n      0x546865206e756d626572206f66206368616c6c656e6765732063616e6e6f7420\n        /* \"#utility.yul\":21270:21271   */\n      0x00\n        /* \"#utility.yul\":21262:21268   */\n      dup3\n        /* \"#utility.yul\":21258:21272   */\n      add\n        /* \"#utility.yul\":21251:21309   */\n      mstore\n        /* \"#utility.yul\":21343:21352   */\n      0x6265207a65726f00000000000000000000000000000000000000000000000000\n        /* \"#utility.yul\":21338:21340   */\n      0x20\n        /* \"#utility.yul\":21330:21336   */\n      dup3\n        /* \"#utility.yul\":21326:21341   */\n      add\n        /* \"#utility.yul\":21319:21353   */\n      mstore\n        /* \"#utility.yul\":21134:21360   */\n      pop\n      jump\t// out\n        /* \"#utility.yul\":21366:21732   */\n    tag_357:\n        /* \"#utility.yul\":21508:21511   */\n      0x00\n        /* \"#utility.yul\":21529:21596   */\n      tag_589\n        /* \"#utility.yul\":21593:21595   */\n      0x27\n        /* \"#utility.yul\":21588:21591   */\n      dup4\n        /* \"#utility.yul\":21529:21596   */\n      tag_345\n      jump\t// in\n    tag_589:\n        /* \"#utility.yul\":21522:21596   */\n      swap2\n      pop\n        /* \"#utility.yul\":21605:21698   */\n      tag_590\n        /* \"#utility.yul\":21694:21697   */\n      dup3\n        /* \"#utility.yul\":21605:21698   */\n      tag_356\n      jump\t// in\n    tag_590:\n        /* \"#utility.yul\":21723:21725   */\n      0x40\n        /* \"#utility.yul\":21718:21721   */\n      dup3\n        /* \"#utility.yul\":21714:21726   */\n      add\n        /* \"#utility.yul\":21707:21726   */\n      swap1\n      pop\n        /* \"#utility.yul\":21366:21732   */\n      swap2\n      swap1\n      pop\n      jump\t// out\n        /* \"#utility.yul\":21738:22157   */\n    tag_140:\n        /* \"#utility.yul\":21904:21908   */\n      0x00\n        /* \"#utility.yul\":21942:21944   */\n      0x20\n        /* \"#utility.yul\":21931:21940   */\n      dup3\n        /* \"#utility.yul\":21927:21945   */\n      add\n        /* \"#utility.yul\":21919:21945   */\n      swap1\n      pop\n        /* \"#utility.yul\":21991:22000   */\n      dup2\n        /* \"#utility.yul\":21985:21989   */\n      dup2\n        /* \"#utility.yul\":21981:22001   */\n      sub\n        /* \"#utility.yul\":21977:21978   */\n      0x00\n        /* \"#utility.yul\":21966:21975   */\n      dup4\n        /* \"#utility.yul\":21962:21979   */\n      add\n        /* \"#utility.yul\":21955:22002   */\n      mstore\n        /* \"#utility.yul\":22019:22150   */\n      tag_592\n        /* \"#utility.yul\":22145:22149   */\n      dup2\n        /* \"#utility.yul\":22019:22150   */\n      tag_357\n      jump\t// in\n    tag_592:\n        /* \"#utility.yul\":22011:22150   */\n      swap1\n      pop\n        /* \"#utility.yul\":21738:22157   */\n      swap2\n      swap1\n      pop\n      jump\t// out\n        /* \"#utility.yul\":22163:22343   */\n    tag_358:\n        /* \"#utility.yul\":22211:22288   */\n      0x4e487b7100000000000000000000000000000000000000000000000000000000\n        /* \"#utility.yul\":22208:22209   */\n      0x00\n        /* \"#utility.yul\":22201:22289   */\n      mstore\n        /* \"#utility.yul\":22308:22312   */\n      0x11\n        /* \"#utility.yul\":22305:22306   */\n      0x04\n        /* \"#utility.yul\":22298:22313   */\n      mstore\n        /* \"#utility.yul\":22332:22336   */\n      0x24\n        /* \"#utility.yul\":22329:22330   */\n      0x00\n        /* \"#utility.yul\":22322:22337   */\n      revert\n        /* \"#utility.yul\":22349:22540   */\n    tag_147:\n        /* \"#utility.yul\":22389:22392   */\n      0x00\n        /* \"#utility.yul\":22408:22428   */\n      tag_595\n        /* \"#utility.yul\":22426:22427   */\n      dup3\n        /* \"#utility.yul\":22408:22428   */\n      tag_329\n      jump\t// in\n    tag_595:\n        /* \"#utility.yul\":22403:22428   */\n      swap2\n      pop\n        /* \"#utility.yul\":22442:22462   */\n      tag_596\n        /* \"#utility.yul\":22460:22461   */\n      dup4\n        /* \"#utility.yul\":22442:22462   */\n      tag_329\n      jump\t// in\n    tag_596:\n        /* \"#utility.yul\":22437:22462   */\n      swap3\n      pop\n        /* \"#utility.yul\":22485:22486   */\n      dup3\n        /* \"#utility.yul\":22482:22483   */\n      dup3\n        /* \"#utility.yul\":22478:22487   */\n      add\n        /* \"#utility.yul\":22471:22487   */\n      swap1\n      pop\n        /* \"#utility.yul\":22506:22509   */\n      dup1\n        /* \"#utility.yul\":22503:22504   */\n      dup3\n        /* \"#utility.yul\":22500:22510   */\n      gt\n        /* \"#utility.yul\":22497:22533   */\n      iszero\n      tag_597\n      jumpi\n        /* \"#utility.yul\":22513:22531   */\n      tag_598\n      tag_358\n      jump\t// in\n    tag_598:\n        /* \"#utility.yul\":22497:22533   */\n    tag_597:\n        /* \"#utility.yul\":22349:22540   */\n      swap3\n      swap2\n      pop\n      pop\n      jump\t// out\n        /* \"#utility.yul\":22546:22687   */\n    tag_359:\n        /* \"#utility.yul\":22595:22599   */\n      0x00\n        /* \"#utility.yul\":22618:22621   */\n      dup2\n        /* \"#utility.yul\":22610:22621   */\n      swap1\n      pop\n        /* \"#utility.yul\":22641:22644   */\n      dup2\n        /* \"#utility.yul\":22638:22639   */\n      0x00\n        /* \"#utility.yul\":22631:22645   */\n      mstore\n        /* \"#utility.yul\":22675:22679   */\n      0x20\n        /* \"#utility.yul\":22672:22673   */\n      0x00\n        /* \"#utility.yul\":22662:22680   */\n      keccak256\n        /* \"#utility.yul\":22654:22680   */\n      swap1\n      pop\n        /* \"#utility.yul\":22546:22687   */\n      swap2\n      swap1\n      pop\n      jump\t// out\n        /* \"#utility.yul\":22693:22786   */\n    tag_360:\n        /* \"#utility.yul\":22730:22736   */\n      0x00\n        /* \"#utility.yul\":22777:22779   */\n      0x20\n        /* \"#utility.yul\":22772:22774   */\n      0x1f\n        /* \"#utility.yul\":22765:22770   */\n      dup4\n        /* \"#utility.yul\":22761:22775   */\n      add\n        /* \"#utility.yul\":22757:22780   */\n      div\n        /* \"#utility.yul\":22747:22780   */\n      swap1\n      pop\n        /* \"#utility.yul\":22693:22786   */\n      swap2\n      swap1\n      pop\n      jump\t// out\n        /* \"#utility.yul\":22792:22899   */\n    tag_361:\n        /* \"#utility.yul\":22836:22844   */\n      0x00\n        /* \"#utility.yul\":22886:22891   */\n      dup3\n        /* \"#utility.yul\":22880:22884   */\n      dup3\n        /* \"#utility.yul\":22876:22892   */\n      shl\n        /* \"#utility.yul\":22855:22892   */\n      swap1\n      pop\n        /* \"#utility.yul\":22792:22899   */\n      swap3\n      swap2\n      pop\n      pop\n      jump\t// out\n        /* \"#utility.yul\":22905:23298   */\n    tag_362:\n        /* \"#utility.yul\":22974:22980   */\n      0x00\n        /* \"#utility.yul\":23024:23025   */\n      0x08\n        /* \"#utility.yul\":23012:23022   */\n      dup4\n        /* \"#utility.yul\":23008:23026   */\n      mul\n        /* \"#utility.yul\":23047:23144   */\n      tag_603\n        /* \"#utility.yul\":23077:23143   */\n      0xffffffffffffffffffffffffffffffffffffffffffffffffffffffffffffffff\n        /* \"#utility.yul\":23066:23075   */\n      dup3\n        /* \"#utility.yul\":23047:23144   */\n      tag_361\n      jump\t// in\n    tag_603:\n        /* \"#utility.yul\":23165:23204   */\n      tag_604\n        /* \"#utility.yul\":23195:23203   */\n      dup7\n        /* \"#utility.yul\":23184:23193   */\n      dup4\n        /* \"#utility.yul\":23165:23204   */\n      tag_361\n      jump\t// in\n    tag_604:\n        /* \"#utility.yul\":23153:23204   */\n      swap6\n      pop\n        /* \"#utility.yul\":23237:23241   */\n      dup1\n        /* \"#utility.yul\":23233:23242   */\n      not\n        /* \"#utility.yul\":23226:23231   */\n      dup5\n        /* \"#utility.yul\":23222:23243   */\n      and\n        /* \"#utility.yul\":23213:23243   */\n      swap4\n      pop\n        /* \"#utility.yul\":23286:23290   */\n      dup1\n        /* \"#utility.yul\":23276:23284   */\n      dup7\n        /* \"#utility.yul\":23272:23291   */\n      and\n        /* \"#utility.yul\":23265:23270   */\n      dup5\n        /* \"#utility.yul\":23262:23292   */\n      or\n        /* \"#utility.yul\":23252:23292   */\n      swap3\n      pop\n        /* \"#utility.yul\":22981:23298   */\n      pop\n      pop\n        /* \"#utility.yul\":22905:23298   */\n      swap4\n      swap3\n      pop\n      pop\n      pop\n      jump\t// out\n        /* \"#utility.yul\":23304:23364   */\n    tag_363:\n        /* \"#utility.yul\":23332:23335   */\n      0x00\n        /* \"#utility.yul\":23353:23358   */\n      dup2\n        /* \"#utility.yul\":23346:23358   */\n      swap1\n      pop\n        /* \"#utility.yul\":23304:23364   */\n      swap2\n      swap1\n      pop\n      jump\t// out\n        /* \"#utility.yul\":23370:23512   */\n    tag_364:\n        /* \"#utility.yul\":23420:23429   */\n      0x00\n        /* \"#utility.yul\":23453:23506   */\n      tag_607\n        /* \"#utility.yul\":23471:23505   */\n      tag_608\n        /* \"#utility.yul\":23480:23504   */\n      tag_609\n        /* \"#utility.yul\":23498:23503   */\n      dup5\n        /* \"#utility.yul\":23480:23504   */\n      tag_329\n      jump\t// in\n    tag_609:\n        /* \"#utility.yul\":23471:23505   */\n      tag_363\n      jump\t// in\n    tag_608:\n        /* \"#utility.yul\":23453:23506   */\n      tag_329\n      jump\t// in\n    tag_607:\n        /* \"#utility.yul\":23440:23506   */\n      swap1\n      pop\n        /* \"#utility.yul\":23370:23512   */\n      swap2\n      swap1\n      pop\n      jump\t// out\n        /* \"#utility.yul\":23518:23593   */\n    tag_365:\n        /* \"#utility.yul\":23561:23564   */\n      0x00\n        /* \"#utility.yul\":23582:23587   */\n      dup2\n        /* \"#utility.yul\":23575:23587   */\n      swap1\n      pop\n        /* \"#utility.yul\":23518:23593   */\n      swap2\n      swap1\n      pop\n      jump\t// out\n        /* \"#utility.yul\":23599:23868   */\n    tag_366:\n        /* \"#utility.yul\":23709:23748   */\n      tag_612\n        /* \"#utility.yul\":23740:23747   */\n      dup4\n        /* \"#utility.yul\":23709:23748   */\n      tag_364\n      jump\t// in\n    tag_612:\n        /* \"#utility.yul\":23770:23861   */\n      tag_613\n        /* \"#utility.yul\":23819:23860   */\n      tag_614\n        /* \"#utility.yul\":23843:23859   */\n      dup3\n        /* \"#utility.yul\":23819:23860   */\n      tag_365\n      jump\t// in\n    tag_614:\n        /* \"#utility.yul\":23811:23817   */\n      dup5\n        /* \"#utility.yul\":23804:23808   */\n      dup5\n        /* \"#utility.yul\":23798:23809   */\n      sload\n        /* \"#utility.yul\":23770:23861   */\n      tag_362\n      jump\t// in\n    tag_613:\n        /* \"#utility.yul\":23764:23768   */\n      dup3\n        /* \"#utility.yul\":23757:23862   */\n      sstore\n        /* \"#utility.yul\":23675:23868   */\n      pop\n        /* \"#utility.yul\":23599:23868   */\n      pop\n      pop\n      pop\n      jump\t// out\n        /* \"#utility.yul\":23874:23947   */\n    tag_367:\n        /* \"#utility.yul\":23919:23922   */\n      0x00\n        /* \"#utility.yul\":23874:23947   */\n      swap1\n      jump\t// out\n        /* \"#utility.yul\":23953:24142   */\n    tag_368:\n        /* \"#utility.yul\":24030:24062   */\n      tag_617\n      tag_367\n      jump\t// in\n    tag_617:\n        /* \"#utility.yul\":24071:24136   */\n      tag_618\n        /* \"#utility.yul\":24129:24135   */\n      dup2\n        /* \"#utility.yul\":24121:24127   */\n      dup5\n        /* \"#utility.yul\":24115:24119   */\n      dup5\n        /* \"#utility.yul\":24071:24136   */\n      tag_366\n      jump\t// in\n    tag_618:\n        /* \"#utility.yul\":24006:24142   */\n      pop\n        /* \"#utility.yul\":23953:24142   */\n      pop\n      pop\n      jump\t// out\n        /* \"#utility.yul\":24148:24334   */\n    tag_369:\n        /* \"#utility.yul\":24208:24328   */\n    tag_620:\n        /* \"#utility.yul\":24225:24228   */\n      dup2\n        /* \"#utility.yul\":24218:24223   */\n      dup2\n        /* \"#utility.yul\":24215:24229   */\n      lt\n        /* \"#utility.yul\":24208:24328   */\n      iszero\n      tag_622\n      jumpi\n        /* \"#utility.yul\":24279:24318   */\n      tag_623\n        /* \"#utility.yul\":24316:24317   */\n      0x00\n        /* \"#utility.yul\":24309:24314   */\n      dup3\n        /* \"#utility.yul\":24279:24318   */\n      tag_368\n      jump\t// in\n    tag_623:\n        /* \"#utility.yul\":24252:24253   */\n      0x01\n        /* \"#utility.yul\":24245:24250   */\n      dup2\n        /* \"#utility.yul\":24241:24254   */\n      add\n        /* \"#utility.yul\":24232:24254   */\n      swap1\n      pop\n        /* \"#utility.yul\":24208:24328   */\n      jump(tag_620)\n    tag_622:\n        /* \"#utility.yul\":24148:24334   */\n      pop\n      pop\n      jump\t// out\n        /* \"#utility.yul\":24340:24883   */\n    tag_370:\n        /* \"#utility.yul\":24441:24443   */\n      0x1f\n        /* \"#utility.yul\":24436:24439   */\n      dup3\n        /* \"#utility.yul\":24433:24444   */\n      gt\n        /* \"#utility.yul\":24430:24876   */\n      iszero\n      tag_625\n      jumpi\n        /* \"#utility.yul\":24475:24513   */\n      tag_626\n        /* \"#utility.yul\":24507:24512   */\n      dup2\n        /* \"#utility.yul\":24475:24513   */\n      tag_359\n      jump\t// in\n    tag_626:\n        /* \"#utility.yul\":24559:24588   */\n      tag_627\n        /* \"#utility.yul\":24577:24587   */\n      dup5\n        /* \"#utility.yul\":24559:24588   */\n      tag_360\n      jump\t// in\n    tag_627:\n        /* \"#utility.yul\":24549:24557   */\n      dup2\n        /* \"#utility.yul\":24545:24589   */\n      add\n        /* \"#utility.yul\":24742:24744   */\n      0x20\n        /* \"#utility.yul\":24730:24740   */\n      dup6\n        /* \"#utility.yul\":24727:24745   */\n      lt\n        /* \"#utility.yul\":24724:24773   */\n      iszero\n      tag_628\n      jumpi\n        /* \"#utility.yul\":24763:24771   */\n      dup2\n        /* \"#utility.yul\":24748:24771   */\n      swap1\n      pop\n        /* \"#utility.yul\":24724:24773   */\n    tag_628:\n        /* \"#utility.yul\":24786:24866   */\n      tag_629\n        /* \"#utility.yul\":24842:24864   */\n      tag_630\n        /* \"#utility.yul\":24860:24863   */\n      dup6\n        /* \"#utility.yul\":24842:24864   */\n      tag_360\n      jump\t// in\n    tag_630:\n        /* \"#utility.yul\":24832:24840   */\n      dup4\n        /* \"#utility.yul\":24828:24865   */\n      add\n        /* \"#utility.yul\":24815:24826   */\n      dup3\n        /* \"#utility.yul\":24786:24866   */\n      tag_369\n      jump\t// in\n    tag_629:\n        /* \"#utility.yul\":24445:24876   */\n      pop\n      pop\n        /* \"#utility.yul\":24430:24876   */\n    tag_625:\n        /* \"#utility.yul\":24340:24883   */\n      pop\n      pop\n      pop\n      jump\t// out\n        /* \"#utility.yul\":24889:25006   */\n    tag_371:\n        /* \"#utility.yul\":24943:24951   */\n      0x00\n        /* \"#utility.yul\":24993:24998   */\n      dup3\n        /* \"#utility.yul\":24987:24991   */\n      dup3\n        /* \"#utility.yul\":24983:24999   */\n      shr\n        /* \"#utility.yul\":24962:24999   */\n      swap1\n      pop\n        /* \"#utility.yul\":24889:25006   */\n      swap3\n      swap2\n      pop\n      pop\n      jump\t// out\n        /* \"#utility.yul\":25012:25181   */\n    tag_372:\n        /* \"#utility.yul\":25056:25062   */\n      0x00\n        /* \"#utility.yul\":25089:25140   */\n      tag_633\n        /* \"#utility.yul\":25137:25138   */\n      0x00\n        /* \"#utility.yul\":25133:25139   */\n      not\n        /* \"#utility.yul\":25125:25130   */\n      dup5\n        /* \"#utility.yul\":25122:25123   */\n      0x08\n        /* \"#utility.yul\":25118:25131   */\n      mul\n        /* \"#utility.yul\":25089:25140   */\n      tag_371\n      jump\t// in\n    tag_633:\n        /* \"#utility.yul\":25085:25141   */\n      not\n        /* \"#utility.yul\":25170:25174   */\n      dup1\n        /* \"#utility.yul\":25164:25168   */\n      dup4\n        /* \"#utility.yul\":25160:25175   */\n      and\n        /* \"#utility.yul\":25150:25175   */\n      swap2\n      pop\n        /* \"#utility.yul\":25063:25181   */\n      pop\n        /* \"#utility.yul\":25012:25181   */\n      swap3\n      swap2\n      pop\n      pop\n      jump\t// out\n        /* \"#utility.yul\":25186:25481   */\n    tag_373:\n        /* \"#utility.yul\":25262:25266   */\n      0x00\n        /* \"#utility.yul\":25408:25437   */\n      tag_635\n        /* \"#utility.yul\":25433:25436   */\n      dup4\n        /* \"#utility.yul\":25427:25431   */\n      dup4\n        /* \"#utility.yul\":25408:25437   */\n      tag_372\n      jump\t// in\n    tag_635:\n        /* \"#utility.yul\":25400:25437   */\n      swap2\n      pop\n        /* \"#utility.yul\":25470:25473   */\n      dup3\n        /* \"#utility.yul\":25467:25468   */\n      0x02\n        /* \"#utility.yul\":25463:25474   */\n      mul\n        /* \"#utility.yul\":25457:25461   */\n      dup3\n        /* \"#utility.yul\":25454:25475   */\n      or\n        /* \"#utility.yul\":25446:25475   */\n      swap1\n      pop\n        /* \"#utility.yul\":25186:25481   */\n      swap3\n      swap2\n      pop\n      pop\n      jump\t// out\n        /* \"#utility.yul\":25486:26881   */\n    tag_160:\n        /* \"#utility.yul\":25603:25640   */\n      tag_637\n        /* \"#utility.yul\":25636:25639   */\n      dup3\n        /* \"#utility.yul\":25603:25640   */\n      tag_322\n      jump\t// in\n    tag_637:\n        /* \"#utility.yul\":25705:25723   */\n      0xffffffffffffffff\n        /* \"#utility.yul\":25697:25703   */\n      dup2\n        /* \"#utility.yul\":25694:25724   */\n      gt\n        /* \"#utility.yul\":25691:25747   */\n      iszero\n      tag_638\n      jumpi\n        /* \"#utility.yul\":25727:25745   */\n      tag_639\n      tag_315\n      jump\t// in\n    tag_639:\n        /* \"#utility.yul\":25691:25747   */\n    tag_638:\n        /* \"#utility.yul\":25771:25809   */\n      tag_640\n        /* \"#utility.yul\":25803:25807   */\n      dup3\n        /* \"#utility.yul\":25797:25808   */\n      sload\n        /* \"#utility.yul\":25771:25809   */\n      tag_70\n      jump\t// in\n    tag_640:\n        /* \"#utility.yul\":25856:25923   */\n      tag_641\n        /* \"#utility.yul\":25916:25922   */\n      dup3\n        /* \"#utility.yul\":25908:25914   */\n      dup3\n        /* \"#utility.yul\":25902:25906   */\n      dup6\n        /* \"#utility.yul\":25856:25923   */\n      tag_370\n      jump\t// in\n    tag_641:\n        /* \"#utility.yul\":25950:25951   */\n      0x00\n        /* \"#utility.yul\":25974:25978   */\n      0x20\n        /* \"#utility.yul\":25961:25978   */\n      swap1\n      pop\n        /* \"#utility.yul\":26006:26008   */\n      0x1f\n        /* \"#utility.yul\":25998:26004   */\n      dup4\n        /* \"#utility.yul\":25995:26009   */\n      gt\n        /* \"#utility.yul\":26023:26024   */\n      0x01\n        /* \"#utility.yul\":26018:26636   */\n      dup2\n      eq\n      tag_643\n      jumpi\n        /* \"#utility.yul\":26680:26681   */\n      0x00\n        /* \"#utility.yul\":26697:26703   */\n      dup5\n        /* \"#utility.yul\":26694:26771   */\n      iszero\n      tag_644\n      jumpi\n        /* \"#utility.yul\":26746:26755   */\n      dup3\n        /* \"#utility.yul\":26741:26744   */\n      dup8\n        /* \"#utility.yul\":26737:26756   */\n      add\n        /* \"#utility.yul\":26731:26757   */\n      mload\n        /* \"#utility.yul\":26722:26757   */\n      swap1\n      pop\n        /* \"#utility.yul\":26694:26771   */\n    tag_644:\n        /* \"#utility.yul\":26797:26864   */\n      tag_645\n        /* \"#utility.yul\":26857:26863   */\n      dup6\n        /* \"#utility.yul\":26850:26855   */\n      dup3\n        /* \"#utility.yul\":26797:26864   */\n      tag_373\n      jump\t// in\n    tag_645:\n        /* \"#utility.yul\":26791:26795   */\n      dup7\n        /* \"#utility.yul\":26784:26865   */\n      sstore\n        /* \"#utility.yul\":26653:26875   */\n      pop\n        /* \"#utility.yul\":25988:26875   */\n      jump(tag_642)\n        /* \"#utility.yul\":26018:26636   */\n    tag_643:\n        /* \"#utility.yul\":26070:26074   */\n      0x1f\n        /* \"#utility.yul\":26066:26075   */\n      not\n        /* \"#utility.yul\":26058:26064   */\n      dup5\n        /* \"#utility.yul\":26054:26076   */\n      and\n        /* \"#utility.yul\":26104:26141   */\n      tag_646\n        /* \"#utility.yul\":26136:26140   */\n      dup7\n        /* \"#utility.yul\":26104:26141   */\n      tag_359\n      jump\t// in\n    tag_646:\n        /* \"#utility.yul\":26163:26164   */\n      0x00\n        /* \"#utility.yul\":26177:26385   */\n    tag_647:\n        /* \"#utility.yul\":26191:26198   */\n      dup3\n        /* \"#utility.yul\":26188:26189   */\n      dup2\n        /* \"#utility.yul\":26185:26199   */\n      lt\n        /* \"#utility.yul\":26177:26385   */\n      iszero\n      tag_649\n      jumpi\n        /* \"#utility.yul\":26270:26279   */\n      dup5\n        /* \"#utility.yul\":26265:26268   */\n      dup10\n        /* \"#utility.yul\":26261:26280   */\n      add\n        /* \"#utility.yul\":26255:26281   */\n      mload\n        /* \"#utility.yul\":26247:26253   */\n      dup3\n        /* \"#utility.yul\":26240:26282   */\n      sstore\n        /* \"#utility.yul\":26321:26322   */\n      0x01\n        /* \"#utility.yul\":26313:26319   */\n      dup3\n        /* \"#utility.yul\":26309:26323   */\n      add\n        /* \"#utility.yul\":26299:26323   */\n      swap2\n      pop\n        /* \"#utility.yul\":26368:26370   */\n      0x20\n        /* \"#utility.yul\":26357:26366   */\n      dup6\n        /* \"#utility.yul\":26353:26371   */\n      add\n        /* \"#utility.yul\":26340:26371   */\n      swap5\n      pop\n        /* \"#utility.yul\":26214:26218   */\n      0x20\n        /* \"#utility.yul\":26211:26212   */\n      dup2\n        /* \"#utility.yul\":26207:26219   */\n      add\n        /* \"#utility.yul\":26202:26219   */\n      swap1\n      pop\n        /* \"#utility.yul\":26177:26385   */\n      jump(tag_647)\n    tag_649:\n        /* \"#utility.yul\":26413:26419   */\n      dup7\n        /* \"#utility.yul\":26404:26411   */\n      dup4\n        /* \"#utility.yul\":26401:26420   */\n      lt\n        /* \"#utility.yul\":26398:26577   */\n      iszero\n      tag_650\n      jumpi\n        /* \"#utility.yul\":26471:26480   */\n      dup5\n        /* \"#utility.yul\":26466:26469   */\n      dup10\n        /* \"#utility.yul\":26462:26481   */\n      add\n        /* \"#utility.yul\":26456:26482   */\n      mload\n        /* \"#utility.yul\":26514:26562   */\n      tag_651\n        /* \"#utility.yul\":26556:26560   */\n      0x1f\n        /* \"#utility.yul\":26548:26554   */\n      dup10\n        /* \"#utility.yul\":26544:26561   */\n      and\n        /* \"#utility.yul\":26533:26542   */\n      dup3\n        /* \"#utility.yul\":26514:26562   */\n      tag_372\n      jump\t// in\n    tag_651:\n        /* \"#utility.yul\":26506:26512   */\n      dup4\n        /* \"#utility.yul\":26499:26563   */\n      sstore\n        /* \"#utility.yul\":26421:26577   */\n      pop\n        /* \"#utility.yul\":26398:26577   */\n    tag_650:\n        /* \"#utility.yul\":26623:26624   */\n      0x01\n        /* \"#utility.yul\":26619:26620   */\n      0x02\n        /* \"#utility.yul\":26611:26617   */\n      dup9\n        /* \"#utility.yul\":26607:26621   */\n      mul\n        /* \"#utility.yul\":26603:26625   */\n      add\n        /* \"#utility.yul\":26597:26601   */\n      dup9\n        /* \"#utility.yul\":26590:26626   */\n      sstore\n        /* \"#utility.yul\":26025:26636   */\n      pop\n      pop\n      pop\n        /* \"#utility.yul\":25988:26875   */\n    tag_642:\n      pop\n        /* \"#utility.yul\":25578:26881   */\n      pop\n      pop\n      pop\n        /* \"#utility.yul\":25486:26881   */\n      pop\n      pop\n      jump\t// out\n        /* \"#utility.yul\":26887:27005   */\n    tag_374:\n        /* \"#utility.yul\":26974:26998   */\n      tag_653\n        /* \"#utility.yul\":26992:26997   */\n      dup2\n        /* \"#utility.yul\":26974:26998   */\n      tag_327\n      jump\t// in\n    tag_653:\n        /* \"#utility.yul\":26969:26972   */\n      dup3\n        /* \"#utility.yul\":26962:26999   */\n      mstore\n        /* \"#utility.yul\":26887:27005   */\n      pop\n      pop\n      jump\t// out\n        /* \"#utility.yul\":27011:27233   */\n    tag_165:\n        /* \"#utility.yul\":27104:27108   */\n      0x00\n        /* \"#utility.yul\":27142:27144   */\n      0x20\n        /* \"#utility.yul\":27131:27140   */\n      dup3\n        /* \"#utility.yul\":27127:27145   */\n      add\n        /* \"#utility.yul\":27119:27145   */\n      swap1\n      pop\n        /* \"#utility.yul\":27155:27226   */\n      tag_655\n        /* \"#utility.yul\":27223:27224   */\n      0x00\n        /* \"#utility.yul\":27212:27221   */\n      dup4\n        /* \"#utility.yul\":27208:27225   */\n      add\n        /* \"#utility.yul\":27199:27205   */\n      dup5\n        /* \"#utility.yul\":27155:27226   */\n      tag_374\n      jump\t// in\n    tag_655:\n        /* \"#utility.yul\":27011:27233   */\n      swap3\n      swap2\n      pop\n      pop\n      jump\t// out\n        /* \"#utility.yul\":27239:27382   */\n    tag_375:\n        /* \"#utility.yul\":27296:27301   */\n      0x00\n        /* \"#utility.yul\":27327:27333   */\n      dup2\n        /* \"#utility.yul\":27321:27334   */\n      mload\n        /* \"#utility.yul\":27312:27334   */\n      swap1\n      pop\n        /* \"#utility.yul\":27343:27376   */\n      tag_657\n        /* \"#utility.yul\":27370:27375   */\n      dup2\n        /* \"#utility.yul\":27343:27376   */\n      tag_339\n      jump\t// in\n    tag_657:\n        /* \"#utility.yul\":27239:27382   */\n      swap3\n      swap2\n      pop\n      pop\n      jump\t// out\n        /* \"#utility.yul\":27388:27739   */\n    tag_169:\n        /* \"#utility.yul\":27458:27464   */\n      0x00\n        /* \"#utility.yul\":27507:27509   */\n      0x20\n        /* \"#utility.yul\":27495:27504   */\n      dup3\n        /* \"#utility.yul\":27486:27493   */\n      dup5\n        /* \"#utility.yul\":27482:27505   */\n      sub\n        /* \"#utility.yul\":27478:27510   */\n      slt\n        /* \"#utility.yul\":27475:27594   */\n      iszero\n      tag_659\n      jumpi\n        /* \"#utility.yul\":27513:27592   */\n      tag_660\n      tag_310\n      jump\t// in\n    tag_660:\n        /* \"#utility.yul\":27475:27594   */\n    tag_659:\n        /* \"#utility.yul\":27633:27634   */\n      0x00\n        /* \"#utility.yul\":27658:27722   */\n      tag_661\n        /* \"#utility.yul\":27714:27721   */\n      dup5\n        /* \"#utility.yul\":27705:27711   */\n      dup3\n        /* \"#utility.yul\":27694:27703   */\n      dup6\n        /* \"#utility.yul\":27690:27712   */\n      add\n        /* \"#utility.yul\":27658:27722   */\n      tag_375\n      jump\t// in\n    tag_661:\n        /* \"#utility.yul\":27648:27722   */\n      swap2\n      pop\n        /* \"#utility.yul\":27604:27732   */\n      pop\n        /* \"#utility.yul\":27388:27739   */\n      swap3\n      swap2\n      pop\n      pop\n      jump\t// out\n        /* \"#utility.yul\":27745:27920   */\n    tag_376:\n        /* \"#utility.yul\":27885:27912   */\n      0x596f752068617665207265636569766564207265776172647300000000000000\n        /* \"#utility.yul\":27881:27882   */\n      0x00\n        /* \"#utility.yul\":27873:27879   */\n      dup3\n        /* \"#utility.yul\":27869:27883   */\n      add\n        /* \"#utility.yul\":27862:27913   */\n      mstore\n        /* \"#utility.yul\":27745:27920   */\n      pop\n      jump\t// out\n        /* \"#utility.yul\":27926:28292   */\n    tag_377:\n        /* \"#utility.yul\":28068:28071   */\n      0x00\n        /* \"#utility.yul\":28089:28156   */\n      tag_664\n        /* \"#utility.yul\":28153:28155   */\n      0x19\n        /* \"#utility.yul\":28148:28151   */\n      dup4\n        /* \"#utility.yul\":28089:28156   */\n      tag_345\n      jump\t// in\n    tag_664:\n        /* \"#utility.yul\":28082:28156   */\n      swap2\n      pop\n        /* \"#utility.yul\":28165:28258   */\n      tag_665\n        /* \"#utility.yul\":28254:28257   */\n      dup3\n        /* \"#utility.yul\":28165:28258   */\n      tag_376\n      jump\t// in\n    tag_665:\n        /* \"#utility.yul\":28283:28285   */\n      0x20\n        /* \"#utility.yul\":28278:28281   */\n      dup3\n        /* \"#utility.yul\":28274:28286   */\n      add\n        /* \"#utility.yul\":28267:28286   */\n      swap1\n      pop\n        /* \"#utility.yul\":27926:28292   */\n      swap2\n      swap1\n      pop\n      jump\t// out\n        /* \"#utility.yul\":28298:28717   */\n    tag_176:\n        /* \"#utility.yul\":28464:28468   */\n      0x00\n        /* \"#utility.yul\":28502:28504   */\n      0x20\n        /* \"#utility.yul\":28491:28500   */\n      dup3\n        /* \"#utility.yul\":28487:28505   */\n      add\n        /* \"#utility.yul\":28479:28505   */\n      swap1\n      pop\n        /* \"#utility.yul\":28551:28560   */\n      dup2\n        /* \"#utility.yul\":28545:28549   */\n      dup2\n        /* \"#utility.yul\":28541:28561   */\n      sub\n        /* \"#utility.yul\":28537:28538   */\n      0x00\n        /* \"#utility.yul\":28526:28535   */\n      dup4\n        /* \"#utility.yul\":28522:28539   */\n      add\n        /* \"#utility.yul\":28515:28562   */\n      mstore\n        /* \"#utility.yul\":28579:28710   */\n      tag_667\n        /* \"#utility.yul\":28705:28709   */\n      dup2\n        /* \"#utility.yul\":28579:28710   */\n      tag_377\n      jump\t// in\n    tag_667:\n        /* \"#utility.yul\":28571:28710   */\n      swap1\n      pop\n        /* \"#utility.yul\":28298:28717   */\n      swap2\n      swap1\n      pop\n      jump\t// out\n        /* \"#utility.yul\":28723:28898   */\n    tag_378:\n        /* \"#utility.yul\":28863:28890   */\n      0x546865206368616c6c656e6765206973206e6f74206f76657200000000000000\n        /* \"#utility.yul\":28859:28860   */\n      0x00\n        /* \"#utility.yul\":28851:28857   */\n      dup3\n        /* \"#utility.yul\":28847:28861   */\n      add\n        /* \"#utility.yul\":28840:28891   */\n      mstore\n        /* \"#utility.yul\":28723:28898   */\n      pop\n      jump\t// out\n        /* \"#utility.yul\":28904:29270   */\n    tag_379:\n        /* \"#utility.yul\":29046:29049   */\n      0x00\n        /* \"#utility.yul\":29067:29134   */\n      tag_670\n        /* \"#utility.yul\":29131:29133   */\n      0x19\n        /* \"#utility.yul\":29126:29129   */\n      dup4\n        /* \"#utility.yul\":29067:29134   */\n      tag_345\n      jump\t// in\n    tag_670:\n        /* \"#utility.yul\":29060:29134   */\n      swap2\n      pop\n        /* \"#utility.yul\":29143:29236   */\n      tag_671\n        /* \"#utility.yul\":29232:29235   */\n      dup3\n        /* \"#utility.yul\":29143:29236   */\n      tag_378\n      jump\t// in\n    tag_671:\n        /* \"#utility.yul\":29261:29263   */\n      0x20\n        /* \"#utility.yul\":29256:29259   */\n      dup3\n        /* \"#utility.yul\":29252:29264   */\n      add\n        /* \"#utility.yul\":29245:29264   */\n      swap1\n      pop\n        /* \"#utility.yul\":28904:29270   */\n      swap2\n      swap1\n      pop\n      jump\t// out\n        /* \"#utility.yul\":29276:29695   */\n    tag_180:\n        /* \"#utility.yul\":29442:29446   */\n      0x00\n        /* \"#utility.yul\":29480:29482   */\n      0x20\n        /* \"#utility.yul\":29469:29478   */\n      dup3\n        /* \"#utility.yul\":29465:29483   */\n      add\n        /* \"#utility.yul\":29457:29483   */\n      swap1\n      pop\n        /* \"#utility.yul\":29529:29538   */\n      dup2\n        /* \"#utility.yul\":29523:29527   */\n      dup2\n        /* \"#utility.yul\":29519:29539   */\n      sub\n        /* \"#utility.yul\":29515:29516   */\n      0x00\n        /* \"#utility.yul\":29504:29513   */\n      dup4\n        /* \"#utility.yul\":29500:29517   */\n      add\n        /* \"#utility.yul\":29493:29540   */\n      mstore\n        /* \"#utility.yul\":29557:29688   */\n      tag_673\n        /* \"#utility.yul\":29683:29687   */\n      dup2\n        /* \"#utility.yul\":29557:29688   */\n      tag_379\n      jump\t// in\n    tag_673:\n        /* \"#utility.yul\":29549:29688   */\n      swap1\n      pop\n        /* \"#utility.yul\":29276:29695   */\n      swap2\n      swap1\n      pop\n      jump\t// out\n        /* \"#utility.yul\":29701:29937   */\n    tag_380:\n        /* \"#utility.yul\":29841:29875   */\n      0x5468652075736572206973206e6f7420696e766f6c76656420696e2074686520\n        /* \"#utility.yul\":29837:29838   */\n      0x00\n        /* \"#utility.yul\":29829:29835   */\n      dup3\n        /* \"#utility.yul\":29825:29839   */\n      add\n        /* \"#utility.yul\":29818:29876   */\n      mstore\n        /* \"#utility.yul\":29910:29929   */\n      0x63757272656e74206368616c6c656e6765000000000000000000000000000000\n        /* \"#utility.yul\":29905:29907   */\n      0x20\n        /* \"#utility.yul\":29897:29903   */\n      dup3\n        /* \"#utility.yul\":29893:29908   */\n      add\n        /* \"#utility.yul\":29886:29930   */\n      mstore\n        /* \"#utility.yul\":29701:29937   */\n      pop\n      jump\t// out\n        /* \"#utility.yul\":29943:30309   */\n    tag_381:\n        /* \"#utility.yul\":30085:30088   */\n      0x00\n        /* \"#utility.yul\":30106:30173   */\n      tag_676\n        /* \"#utility.yul\":30170:30172   */\n      0x31\n        /* \"#utility.yul\":30165:30168   */\n      dup4\n        /* \"#utility.yul\":30106:30173   */\n      tag_345\n      jump\t// in\n    tag_676:\n        /* \"#utility.yul\":30099:30173   */\n      swap2\n      pop\n        /* \"#utility.yul\":30182:30275   */\n      tag_677\n        /* \"#utility.yul\":30271:30274   */\n      dup3\n        /* \"#utility.yul\":30182:30275   */\n      tag_380\n      jump\t// in\n    tag_677:\n        /* \"#utility.yul\":30300:30302   */\n      0x40\n        /* \"#utility.yul\":30295:30298   */\n      dup3\n        /* \"#utility.yul\":30291:30303   */\n      add\n        /* \"#utility.yul\":30284:30303   */\n      swap1\n      pop\n        /* \"#utility.yul\":29943:30309   */\n      swap2\n      swap1\n      pop\n      jump\t// out\n        /* \"#utility.yul\":30315:30734   */\n    tag_183:\n        /* \"#utility.yul\":30481:30485   */\n      0x00\n        /* \"#utility.yul\":30519:30521   */\n      0x20\n        /* \"#utility.yul\":30508:30517   */\n      dup3\n        /* \"#utility.yul\":30504:30522   */\n      add\n        /* \"#utility.yul\":30496:30522   */\n      swap1\n      pop\n        /* \"#utility.yul\":30568:30577   */\n      dup2\n        /* \"#utility.yul\":30562:30566   */\n      dup2\n        /* \"#utility.yul\":30558:30578   */\n      sub\n        /* \"#utility.yul\":30554:30555   */\n      0x00\n        /* \"#utility.yul\":30543:30552   */\n      dup4\n        /* \"#utility.yul\":30539:30556   */\n      add\n        /* \"#utility.yul\":30532:30579   */\n      mstore\n        /* \"#utility.yul\":30596:30727   */\n      tag_679\n        /* \"#utility.yul\":30722:30726   */\n      dup2\n        /* \"#utility.yul\":30596:30727   */\n      tag_381\n      jump\t// in\n    tag_679:\n        /* \"#utility.yul\":30588:30727   */\n      swap1\n      pop\n        /* \"#utility.yul\":30315:30734   */\n      swap2\n      swap1\n      pop\n      jump\t// out\n        /* \"#utility.yul\":30740:30906   */\n    tag_382:\n        /* \"#utility.yul\":30880:30898   */\n      0x4368616c6c656e6765206661696c656400000000000000000000000000000000\n        /* \"#utility.yul\":30876:30877   */\n      0x00\n        /* \"#utility.yul\":30868:30874   */\n      dup3\n        /* \"#utility.yul\":30864:30878   */\n      add\n        /* \"#utility.yul\":30857:30899   */\n      mstore\n        /* \"#utility.yul\":30740:30906   */\n      pop\n      jump\t// out\n        /* \"#utility.yul\":30912:31278   */\n    tag_383:\n        /* \"#utility.yul\":31054:31057   */\n      0x00\n        /* \"#utility.yul\":31075:31142   */\n      tag_682\n        /* \"#utility.yul\":31139:31141   */\n      0x10\n        /* \"#utility.yul\":31134:31137   */\n      dup4\n        /* \"#utility.yul\":31075:31142   */\n      tag_345\n      jump\t// in\n    tag_682:\n        /* \"#utility.yul\":31068:31142   */\n      swap2\n      pop\n        /* \"#utility.yul\":31151:31244   */\n      tag_683\n        /* \"#utility.yul\":31240:31243   */\n      dup3\n        /* \"#utility.yul\":31151:31244   */\n      tag_382\n      jump\t// in\n    tag_683:\n        /* \"#utility.yul\":31269:31271   */\n      0x20\n        /* \"#utility.yul\":31264:31267   */\n      dup3\n        /* \"#utility.yul\":31260:31272   */\n      add\n        /* \"#utility.yul\":31253:31272   */\n      swap1\n      pop\n        /* \"#utility.yul\":30912:31278   */\n      swap2\n      swap1\n      pop\n      jump\t// out\n        /* \"#utility.yul\":31284:31703   */\n    tag_187:\n        /* \"#utility.yul\":31450:31454   */\n      0x00\n        /* \"#utility.yul\":31488:31490   */\n      0x20\n        /* \"#utility.yul\":31477:31486   */\n      dup3\n        /* \"#utility.yul\":31473:31491   */\n      add\n        /* \"#utility.yul\":31465:31491   */\n      swap1\n      pop\n        /* \"#utility.yul\":31537:31546   */\n      dup2\n        /* \"#utility.yul\":31531:31535   */\n      dup2\n        /* \"#utility.yul\":31527:31547   */\n      sub\n        /* \"#utility.yul\":31523:31524   */\n      0x00\n        /* \"#utility.yul\":31512:31521   */\n      dup4\n        /* \"#utility.yul\":31508:31525   */\n      add\n        /* \"#utility.yul\":31501:31548   */\n      mstore\n        /* \"#utility.yul\":31565:31696   */\n      tag_685\n        /* \"#utility.yul\":31691:31695   */\n      dup2\n        /* \"#utility.yul\":31565:31696   */\n      tag_383\n      jump\t// in\n    tag_685:\n        /* \"#utility.yul\":31557:31696   */\n      swap1\n      pop\n        /* \"#utility.yul\":31284:31703   */\n      swap2\n      swap1\n      pop\n      jump\t// out\n        /* \"#utility.yul\":31709:31889   */\n    tag_384:\n        /* \"#utility.yul\":31849:31881   */\n      0x546865207468656d65496420486173206265656e20696e697469617465640000\n        /* \"#utility.yul\":31845:31846   */\n      0x00\n        /* \"#utility.yul\":31837:31843   */\n      dup3\n        /* \"#utility.yul\":31833:31847   */\n      add\n        /* \"#utility.yul\":31826:31882   */\n      mstore\n        /* \"#utility.yul\":31709:31889   */\n      pop\n      jump\t// out\n        /* \"#utility.yul\":31895:32261   */\n    tag_385:\n        /* \"#utility.yul\":32037:32040   */\n      0x00\n        /* \"#utility.yul\":32058:32125   */\n      tag_688\n        /* \"#utility.yul\":32122:32124   */\n      0x1e\n        /* \"#utility.yul\":32117:32120   */\n      dup4\n        /* \"#utility.yul\":32058:32125   */\n      tag_345\n      jump\t// in\n    tag_688:\n        /* \"#utility.yul\":32051:32125   */\n      swap2\n      pop\n        /* \"#utility.yul\":32134:32227   */\n      tag_689\n        /* \"#utility.yul\":32223:32226   */\n      dup3\n        /* \"#utility.yul\":32134:32227   */\n      tag_384\n      jump\t// in\n    tag_689:\n        /* \"#utility.yul\":32252:32254   */\n      0x20\n        /* \"#utility.yul\":32247:32250   */\n      dup3\n        /* \"#utility.yul\":32243:32255   */\n      add\n        /* \"#utility.yul\":32236:32255   */\n      swap1\n      pop\n        /* \"#utility.yul\":31895:32261   */\n      swap2\n      swap1\n      pop\n      jump\t// out\n        /* \"#utility.yul\":32267:32686   */\n    tag_211:\n        /* \"#utility.yul\":32433:32437   */\n      0x00\n        /* \"#utility.yul\":32471:32473   */\n      0x20\n        /* \"#utility.yul\":32460:32469   */\n      dup3\n        /* \"#utility.yul\":32456:32474   */\n      add\n        /* \"#utility.yul\":32448:32474   */\n      swap1\n      pop\n        /* \"#utility.yul\":32520:32529   */\n      dup2\n        /* \"#utility.yul\":32514:32518   */\n      dup2\n        /* \"#utility.yul\":32510:32530   */\n      sub\n        /* \"#utility.yul\":32506:32507   */\n      0x00\n        /* \"#utility.yul\":32495:32504   */\n      dup4\n        /* \"#utility.yul\":32491:32508   */\n      add\n        /* \"#utility.yul\":32484:32531   */\n      mstore\n        /* \"#utility.yul\":32548:32679   */\n      tag_691\n        /* \"#utility.yul\":32674:32678   */\n      dup2\n        /* \"#utility.yul\":32548:32679   */\n      tag_385\n      jump\t// in\n    tag_691:\n        /* \"#utility.yul\":32540:32679   */\n      swap1\n      pop\n        /* \"#utility.yul\":32267:32686   */\n      swap2\n      swap1\n      pop\n      jump\t// out\n        /* \"#utility.yul\":32692:32866   */\n    tag_386:\n        /* \"#utility.yul\":32832:32858   */\n      0x5075626c697368657220746f6b656e20616d6f756e7420310000000000000000\n        /* \"#utility.yul\":32828:32829   */\n      0x00\n        /* \"#utility.yul\":32820:32826   */\n      dup3\n        /* \"#utility.yul\":32816:32830   */\n      add\n        /* \"#utility.yul\":32809:32859   */\n      mstore\n        /* \"#utility.yul\":32692:32866   */\n      pop\n      jump\t// out\n        /* \"#utility.yul\":32872:33238   */\n    tag_387:\n        /* \"#utility.yul\":33014:33017   */\n      0x00\n        /* \"#utility.yul\":33035:33102   */\n      tag_694\n        /* \"#utility.yul\":33099:33101   */\n      0x18\n        /* \"#utility.yul\":33094:33097   */\n      dup4\n        /* \"#utility.yul\":33035:33102   */\n      tag_345\n      jump\t// in\n    tag_694:\n        /* \"#utility.yul\":33028:33102   */\n      swap2\n      pop\n        /* \"#utility.yul\":33111:33204   */\n      tag_695\n        /* \"#utility.yul\":33200:33203   */\n      dup3\n        /* \"#utility.yul\":33111:33204   */\n      tag_386\n      jump\t// in\n    tag_695:\n        /* \"#utility.yul\":33229:33231   */\n      0x20\n        /* \"#utility.yul\":33224:33227   */\n      dup3\n        /* \"#utility.yul\":33220:33232   */\n      add\n        /* \"#utility.yul\":33213:33232   */\n      swap1\n      pop\n        /* \"#utility.yul\":32872:33238   */\n      swap2\n      swap1\n      pop\n      jump\t// out\n        /* \"#utility.yul\":33244:33663   */\n    tag_214:\n        /* \"#utility.yul\":33410:33414   */\n      0x00\n        /* \"#utility.yul\":33448:33450   */\n      0x20\n        /* \"#utility.yul\":33437:33446   */\n      dup3\n        /* \"#utility.yul\":33433:33451   */\n      add\n        /* \"#utility.yul\":33425:33451   */\n      swap1\n      pop\n        /* \"#utility.yul\":33497:33506   */\n      dup2\n        /* \"#utility.yul\":33491:33495   */\n      dup2\n        /* \"#utility.yul\":33487:33507   */\n      sub\n        /* \"#utility.yul\":33483:33484   */\n      0x00\n        /* \"#utility.yul\":33472:33481   */\n      dup4\n        /* \"#utility.yul\":33468:33485   */\n      add\n        /* \"#utility.yul\":33461:33508   */\n      mstore\n        /* \"#utility.yul\":33525:33656   */\n      tag_697\n        /* \"#utility.yul\":33651:33655   */\n      dup2\n        /* \"#utility.yul\":33525:33656   */\n      tag_387\n      jump\t// in\n    tag_697:\n        /* \"#utility.yul\":33517:33656   */\n      swap1\n      pop\n        /* \"#utility.yul\":33244:33663   */\n      swap2\n      swap1\n      pop\n      jump\t// out\n        /* \"#utility.yul\":33669:33895   */\n    tag_388:\n        /* \"#utility.yul\":33809:33843   */\n      0x546865206d696e696d756d2076616c7565206f66206d61676e69666963617469\n        /* \"#utility.yul\":33805:33806   */\n      0x00\n        /* \"#utility.yul\":33797:33803   */\n      dup3\n        /* \"#utility.yul\":33793:33807   */\n      add\n        /* \"#utility.yul\":33786:33844   */\n      mstore\n        /* \"#utility.yul\":33878:33887   */\n      0x6f6e206973203200000000000000000000000000000000000000000000000000\n        /* \"#utility.yul\":33873:33875   */\n      0x20\n        /* \"#utility.yul\":33865:33871   */\n      dup3\n        /* \"#utility.yul\":33861:33876   */\n      add\n        /* \"#utility.yul\":33854:33888   */\n      mstore\n        /* \"#utility.yul\":33669:33895   */\n      pop\n      jump\t// out\n        /* \"#utility.yul\":33901:34267   */\n    tag_389:\n        /* \"#utility.yul\":34043:34046   */\n      0x00\n        /* \"#utility.yul\":34064:34131   */\n      tag_700\n        /* \"#utility.yul\":34128:34130   */\n      0x27\n        /* \"#utility.yul\":34123:34126   */\n      dup4\n        /* \"#utility.yul\":34064:34131   */\n      tag_345\n      jump\t// in\n    tag_700:\n        /* \"#utility.yul\":34057:34131   */\n      swap2\n      pop\n        /* \"#utility.yul\":34140:34233   */\n      tag_701\n        /* \"#utility.yul\":34229:34232   */\n      dup3\n        /* \"#utility.yul\":34140:34233   */\n      tag_388\n      jump\t// in\n    tag_701:\n        /* \"#utility.yul\":34258:34260   */\n      0x40\n        /* \"#utility.yul\":34253:34256   */\n      dup3\n        /* \"#utility.yul\":34249:34261   */\n      add\n        /* \"#utility.yul\":34242:34261   */\n      swap1\n      pop\n        /* \"#utility.yul\":33901:34267   */\n      swap2\n      swap1\n      pop\n      jump\t// out\n        /* \"#utility.yul\":34273:34692   */\n    tag_217:\n        /* \"#utility.yul\":34439:34443   */\n      0x00\n        /* \"#utility.yul\":34477:34479   */\n      0x20\n        /* \"#utility.yul\":34466:34475   */\n      dup3\n        /* \"#utility.yul\":34462:34480   */\n      add\n        /* \"#utility.yul\":34454:34480   */\n      swap1\n      pop\n        /* \"#utility.yul\":34526:34535   */\n      dup2\n        /* \"#utility.yul\":34520:34524   */\n      dup2\n        /* \"#utility.yul\":34516:34536   */\n      sub\n        /* \"#utility.yul\":34512:34513   */\n      0x00\n        /* \"#utility.yul\":34501:34510   */\n      dup4\n        /* \"#utility.yul\":34497:34514   */\n      add\n        /* \"#utility.yul\":34490:34537   */\n      mstore\n        /* \"#utility.yul\":34554:34685   */\n      tag_703\n        /* \"#utility.yul\":34680:34684   */\n      dup2\n        /* \"#utility.yul\":34554:34685   */\n      tag_389\n      jump\t// in\n    tag_703:\n        /* \"#utility.yul\":34546:34685   */\n      swap1\n      pop\n        /* \"#utility.yul\":34273:34692   */\n      swap2\n      swap1\n      pop\n      jump\t// out\n        /* \"#utility.yul\":34698:34875   */\n    tag_390:\n        /* \"#utility.yul\":34838:34867   */\n      0x536166654d6174683a206164646974696f6e206f766572666c6f770000000000\n        /* \"#utility.yul\":34834:34835   */\n      0x00\n        /* \"#utility.yul\":34826:34832   */\n      dup3\n        /* \"#utility.yul\":34822:34836   */\n      add\n        /* \"#utility.yul\":34815:34868   */\n      mstore\n        /* \"#utility.yul\":34698:34875   */\n      pop\n      jump\t// out\n        /* \"#utility.yul\":34881:35247   */\n    tag_391:\n        /* \"#utility.yul\":35023:35026   */\n      0x00\n        /* \"#utility.yul\":35044:35111   */\n      tag_706\n        /* \"#utility.yul\":35108:35110   */\n      0x1b\n        /* \"#utility.yul\":35103:35106   */\n      dup4\n        /* \"#utility.yul\":35044:35111   */\n      tag_345\n      jump\t// in\n    tag_706:\n        /* \"#utility.yul\":35037:35111   */\n      swap2\n      pop\n        /* \"#utility.yul\":35120:35213   */\n      tag_707\n        /* \"#utility.yul\":35209:35212   */\n      dup3\n        /* \"#utility.yul\":35120:35213   */\n      tag_390\n      jump\t// in\n    tag_707:\n        /* \"#utility.yul\":35238:35240   */\n      0x20\n        /* \"#utility.yul\":35233:35236   */\n      dup3\n        /* \"#utility.yul\":35229:35241   */\n      add\n        /* \"#utility.yul\":35222:35241   */\n      swap1\n      pop\n        /* \"#utility.yul\":34881:35247   */\n      swap2\n      swap1\n      pop\n      jump\t// out\n        /* \"#utility.yul\":35253:35672   */\n    tag_239:\n        /* \"#utility.yul\":35419:35423   */\n      0x00\n        /* \"#utility.yul\":35457:35459   */\n      0x20\n        /* \"#utility.yul\":35446:35455   */\n      dup3\n        /* \"#utility.yul\":35442:35460   */\n      add\n        /* \"#utility.yul\":35434:35460   */\n      swap1\n      pop\n        /* \"#utility.yul\":35506:35515   */\n      dup2\n        /* \"#utility.yul\":35500:35504   */\n      dup2\n        /* \"#utility.yul\":35496:35516   */\n      sub\n        /* \"#utility.yul\":35492:35493   */\n      0x00\n        /* \"#utility.yul\":35481:35490   */\n      dup4\n        /* \"#utility.yul\":35477:35494   */\n      add\n        /* \"#utility.yul\":35470:35517   */\n      mstore\n        /* \"#utility.yul\":35534:35665   */\n      tag_709\n        /* \"#utility.yul\":35660:35664   */\n      dup2\n        /* \"#utility.yul\":35534:35665   */\n      tag_391\n      jump\t// in\n    tag_709:\n        /* \"#utility.yul\":35526:35665   */\n      swap1\n      pop\n        /* \"#utility.yul\":35253:35672   */\n      swap2\n      swap1\n      pop\n      jump\t// out\n        /* \"#utility.yul\":35678:36088   */\n    tag_246:\n        /* \"#utility.yul\":35718:35725   */\n      0x00\n        /* \"#utility.yul\":35741:35761   */\n      tag_711\n        /* \"#utility.yul\":35759:35760   */\n      dup3\n        /* \"#utility.yul\":35741:35761   */\n      tag_329\n      jump\t// in\n    tag_711:\n        /* \"#utility.yul\":35736:35761   */\n      swap2\n      pop\n        /* \"#utility.yul\":35775:35795   */\n      tag_712\n        /* \"#utility.yul\":35793:35794   */\n      dup4\n        /* \"#utility.yul\":35775:35795   */\n      tag_329\n      jump\t// in\n    tag_712:\n        /* \"#utility.yul\":35770:35795   */\n      swap3\n      pop\n        /* \"#utility.yul\":35830:35831   */\n      dup3\n        /* \"#utility.yul\":35827:35828   */\n      dup3\n        /* \"#utility.yul\":35823:35832   */\n      mul\n        /* \"#utility.yul\":35852:35882   */\n      tag_713\n        /* \"#utility.yul\":35870:35881   */\n      dup2\n        /* \"#utility.yul\":35852:35882   */\n      tag_329\n      jump\t// in\n    tag_713:\n        /* \"#utility.yul\":35841:35882   */\n      swap2\n      pop\n        /* \"#utility.yul\":36031:36032   */\n      dup3\n        /* \"#utility.yul\":36022:36029   */\n      dup3\n        /* \"#utility.yul\":36018:36033   */\n      div\n        /* \"#utility.yul\":36015:36016   */\n      dup5\n        /* \"#utility.yul\":36012:36034   */\n      eq\n        /* \"#utility.yul\":35992:35993   */\n      dup4\n        /* \"#utility.yul\":35985:35994   */\n      iszero\n        /* \"#utility.yul\":35965:36048   */\n      or\n        /* \"#utility.yul\":35942:36081   */\n      tag_714\n      jumpi\n        /* \"#utility.yul\":36061:36079   */\n      tag_715\n      tag_358\n      jump\t// in\n    tag_715:\n        /* \"#utility.yul\":35942:36081   */\n    tag_714:\n        /* \"#utility.yul\":35726:36088   */\n      pop\n        /* \"#utility.yul\":35678:36088   */\n      swap3\n      swap2\n      pop\n      pop\n      jump\t// out\n        /* \"#utility.yul\":36094:36274   */\n    tag_392:\n        /* \"#utility.yul\":36142:36219   */\n      0x4e487b7100000000000000000000000000000000000000000000000000000000\n        /* \"#utility.yul\":36139:36140   */\n      0x00\n        /* \"#utility.yul\":36132:36220   */\n      mstore\n        /* \"#utility.yul\":36239:36243   */\n      0x12\n        /* \"#utility.yul\":36236:36237   */\n      0x04\n        /* \"#utility.yul\":36229:36244   */\n      mstore\n        /* \"#utility.yul\":36263:36267   */\n      0x24\n        /* \"#utility.yul\":36260:36261   */\n      0x00\n        /* \"#utility.yul\":36253:36268   */\n      revert\n        /* \"#utility.yul\":36280:36465   */\n    tag_248:\n        /* \"#utility.yul\":36320:36321   */\n      0x00\n        /* \"#utility.yul\":36337:36357   */\n      tag_718\n        /* \"#utility.yul\":36355:36356   */\n      dup3\n        /* \"#utility.yul\":36337:36357   */\n      tag_329\n      jump\t// in\n    tag_718:\n        /* \"#utility.yul\":36332:36357   */\n      swap2\n      pop\n        /* \"#utility.yul\":36371:36391   */\n      tag_719\n        /* \"#utility.yul\":36389:36390   */\n      dup4\n        /* \"#utility.yul\":36371:36391   */\n      tag_329\n      jump\t// in\n    tag_719:\n        /* \"#utility.yul\":36366:36391   */\n      swap3\n      pop\n        /* \"#utility.yul\":36410:36411   */\n      dup3\n        /* \"#utility.yul\":36400:36435   */\n      tag_720\n      jumpi\n        /* \"#utility.yul\":36415:36433   */\n      tag_721\n      tag_392\n      jump\t// in\n    tag_721:\n        /* \"#utility.yul\":36400:36435   */\n    tag_720:\n        /* \"#utility.yul\":36457:36458   */\n      dup3\n        /* \"#utility.yul\":36454:36455   */\n      dup3\n        /* \"#utility.yul\":36450:36459   */\n      div\n        /* \"#utility.yul\":36445:36459   */\n      swap1\n      pop\n        /* \"#utility.yul\":36280:36465   */\n      swap3\n      swap2\n      pop\n      pop\n      jump\t// out\n        /* \"#utility.yul\":36471:36691   */\n    tag_393:\n        /* \"#utility.yul\":36611:36645   */\n      0x536166654d6174683a206d756c7469706c69636174696f6e206f766572666c6f\n        /* \"#utility.yul\":36607:36608   */\n      0x00\n        /* \"#utility.yul\":36599:36605   */\n      dup3\n        /* \"#utility.yul\":36595:36609   */\n      add\n        /* \"#utility.yul\":36588:36646   */\n      mstore\n        /* \"#utility.yul\":36680:36683   */\n      0x7700000000000000000000000000000000000000000000000000000000000000\n        /* \"#utility.yul\":36675:36677   */\n      0x20\n        /* \"#utility.yul\":36667:36673   */\n      dup3\n        /* \"#utility.yul\":36663:36678   */\n      add\n        /* \"#utility.yul\":36656:36684   */\n      mstore\n        /* \"#utility.yul\":36471:36691   */\n      pop\n      jump\t// out\n        /* \"#utility.yul\":36697:37063   */\n    tag_394:\n        /* \"#utility.yul\":36839:36842   */\n      0x00\n        /* \"#utility.yul\":36860:36927   */\n      tag_724\n        /* \"#utility.yul\":36924:36926   */\n      0x21\n        /* \"#utility.yul\":36919:36922   */\n      dup4\n        /* \"#utility.yul\":36860:36927   */\n      tag_345\n      jump\t// in\n    tag_724:\n        /* \"#utility.yul\":36853:36927   */\n      swap2\n      pop\n        /* \"#utility.yul\":36936:37029   */\n      tag_725\n        /* \"#utility.yul\":37025:37028   */\n      dup3\n        /* \"#utility.yul\":36936:37029   */\n      tag_393\n      jump\t// in\n    tag_725:\n        /* \"#utility.yul\":37054:37056   */\n      0x40\n        /* \"#utility.yul\":37049:37052   */\n      dup3\n        /* \"#utility.yul\":37045:37057   */\n      add\n        /* \"#utility.yul\":37038:37057   */\n      swap1\n      pop\n        /* \"#utility.yul\":36697:37063   */\n      swap2\n      swap1\n      pop\n      jump\t// out\n        /* \"#utility.yul\":37069:37488   */\n    tag_251:\n        /* \"#utility.yul\":37235:37239   */\n      0x00\n        /* \"#utility.yul\":37273:37275   */\n      0x20\n        /* \"#utility.yul\":37262:37271   */\n      dup3\n        /* \"#utility.yul\":37258:37276   */\n      add\n        /* \"#utility.yul\":37250:37276   */\n      swap1\n      pop\n        /* \"#utility.yul\":37322:37331   */\n      dup2\n        /* \"#utility.yul\":37316:37320   */\n      dup2\n        /* \"#utility.yul\":37312:37332   */\n      sub\n        /* \"#utility.yul\":37308:37309   */\n      0x00\n        /* \"#utility.yul\":37297:37306   */\n      dup4\n        /* \"#utility.yul\":37293:37310   */\n      add\n        /* \"#utility.yul\":37286:37333   */\n      mstore\n        /* \"#utility.yul\":37350:37481   */\n      tag_727\n        /* \"#utility.yul\":37476:37480   */\n      dup2\n        /* \"#utility.yul\":37350:37481   */\n      tag_394\n      jump\t// in\n    tag_727:\n        /* \"#utility.yul\":37342:37481   */\n      swap1\n      pop\n        /* \"#utility.yul\":37069:37488   */\n      swap2\n      swap1\n      pop\n      jump\t// out\n        /* \"#utility.yul\":37494:37936   */\n    tag_258:\n        /* \"#utility.yul\":37643:37647   */\n      0x00\n        /* \"#utility.yul\":37681:37683   */\n      0x60\n        /* \"#utility.yul\":37670:37679   */\n      dup3\n        /* \"#utility.yul\":37666:37684   */\n      add\n        /* \"#utility.yul\":37658:37684   */\n      swap1\n      pop\n        /* \"#utility.yul\":37694:37765   */\n      tag_729\n        /* \"#utility.yul\":37762:37763   */\n      0x00\n        /* \"#utility.yul\":37751:37760   */\n      dup4\n        /* \"#utility.yul\":37747:37764   */\n      add\n        /* \"#utility.yul\":37738:37744   */\n      dup7\n        /* \"#utility.yul\":37694:37765   */\n      tag_374\n      jump\t// in\n    tag_729:\n        /* \"#utility.yul\":37775:37847   */\n      tag_730\n        /* \"#utility.yul\":37843:37845   */\n      0x20\n        /* \"#utility.yul\":37832:37841   */\n      dup4\n        /* \"#utility.yul\":37828:37846   */\n      add\n        /* \"#utility.yul\":37819:37825   */\n      dup6\n        /* \"#utility.yul\":37775:37847   */\n      tag_374\n      jump\t// in\n    tag_730:\n        /* \"#utility.yul\":37857:37929   */\n      tag_731\n        /* \"#utility.yul\":37925:37927   */\n      0x40\n        /* \"#utility.yul\":37914:37923   */\n      dup4\n        /* \"#utility.yul\":37910:37928   */\n      add\n        /* \"#utility.yul\":37901:37907   */\n      dup5\n        /* \"#utility.yul\":37857:37929   */\n      tag_341\n      jump\t// in\n    tag_731:\n        /* \"#utility.yul\":37494:37936   */\n      swap5\n      swap4\n      pop\n      pop\n      pop\n      pop\n      jump\t// out\n        /* \"#utility.yul\":37942:38274   */\n    tag_263:\n        /* \"#utility.yul\":38063:38067   */\n      0x00\n        /* \"#utility.yul\":38101:38103   */\n      0x40\n        /* \"#utility.yul\":38090:38099   */\n      dup3\n        /* \"#utility.yul\":38086:38104   */\n      add\n        /* \"#utility.yul\":38078:38104   */\n      swap1\n      pop\n        /* \"#utility.yul\":38114:38185   */\n      tag_733\n        /* \"#utility.yul\":38182:38183   */\n      0x00\n        /* \"#utility.yul\":38171:38180   */\n      dup4\n        /* \"#utility.yul\":38167:38184   */\n      add\n        /* \"#utility.yul\":38158:38164   */\n      dup6\n        /* \"#utility.yul\":38114:38185   */\n      tag_374\n      jump\t// in\n    tag_733:\n        /* \"#utility.yul\":38195:38267   */\n      tag_734\n        /* \"#utility.yul\":38263:38265   */\n      0x20\n        /* \"#utility.yul\":38252:38261   */\n      dup4\n        /* \"#utility.yul\":38248:38266   */\n      add\n        /* \"#utility.yul\":38239:38245   */\n      dup5\n        /* \"#utility.yul\":38195:38267   */\n      tag_341\n      jump\t// in\n    tag_734:\n        /* \"#utility.yul\":37942:38274   */\n      swap4\n      swap3\n      pop\n      pop\n      pop\n      jump\t// out\n        /* \"#utility.yul\":38280:38657   */\n    tag_395:\n        /* \"#utility.yul\":38368:38371   */\n      0x00\n        /* \"#utility.yul\":38396:38435   */\n      tag_736\n        /* \"#utility.yul\":38429:38434   */\n      dup3\n        /* \"#utility.yul\":38396:38435   */\n      tag_322\n      jump\t// in\n    tag_736:\n        /* \"#utility.yul\":38451:38522   */\n      tag_737\n        /* \"#utility.yul\":38515:38521   */\n      dup2\n        /* \"#utility.yul\":38510:38513   */\n      dup6\n        /* \"#utility.yul\":38451:38522   */\n      tag_345\n      jump\t// in\n    tag_737:\n        /* \"#utility.yul\":38444:38522   */\n      swap4\n      pop\n        /* \"#utility.yul\":38531:38596   */\n      tag_738\n        /* \"#utility.yul\":38589:38595   */\n      dup2\n        /* \"#utility.yul\":38584:38587   */\n      dup6\n        /* \"#utility.yul\":38577:38581   */\n      0x20\n        /* \"#utility.yul\":38570:38575   */\n      dup7\n        /* \"#utility.yul\":38566:38582   */\n      add\n        /* \"#utility.yul\":38531:38596   */\n      tag_324\n      jump\t// in\n    tag_738:\n        /* \"#utility.yul\":38621:38650   */\n      tag_739\n        /* \"#utility.yul\":38643:38649   */\n      dup2\n        /* \"#utility.yul\":38621:38650   */\n      tag_314\n      jump\t// in\n    tag_739:\n        /* \"#utility.yul\":38616:38619   */\n      dup5\n        /* \"#utility.yul\":38612:38651   */\n      add\n        /* \"#utility.yul\":38605:38651   */\n      swap2\n      pop\n        /* \"#utility.yul\":38372:38657   */\n      pop\n        /* \"#utility.yul\":38280:38657   */\n      swap3\n      swap2\n      pop\n      pop\n      jump\t// out\n        /* \"#utility.yul\":38663:38976   */\n    tag_267:\n        /* \"#utility.yul\":38776:38780   */\n      0x00\n        /* \"#utility.yul\":38814:38816   */\n      0x20\n        /* \"#utility.yul\":38803:38812   */\n      dup3\n        /* \"#utility.yul\":38799:38817   */\n      add\n        /* \"#utility.yul\":38791:38817   */\n      swap1\n      pop\n        /* \"#utility.yul\":38863:38872   */\n      dup2\n        /* \"#utility.yul\":38857:38861   */\n      dup2\n        /* \"#utility.yul\":38853:38873   */\n      sub\n        /* \"#utility.yul\":38849:38850   */\n      0x00\n        /* \"#utility.yul\":38838:38847   */\n      dup4\n        /* \"#utility.yul\":38834:38851   */\n      add\n        /* \"#utility.yul\":38827:38874   */\n      mstore\n        /* \"#utility.yul\":38891:38969   */\n      tag_741\n        /* \"#utility.yul\":38964:38968   */\n      dup2\n        /* \"#utility.yul\":38955:38961   */\n      dup5\n        /* \"#utility.yul\":38891:38969   */\n      tag_395\n      jump\t// in\n    tag_741:\n        /* \"#utility.yul\":38883:38969   */\n      swap1\n      pop\n        /* \"#utility.yul\":38663:38976   */\n      swap3\n      swap2\n      pop\n      pop\n      jump\t// out\n        /* \"#utility.yul\":38982:39176   */\n    tag_269:\n        /* \"#utility.yul\":39022:39026   */\n      0x00\n        /* \"#utility.yul\":39042:39062   */\n      tag_743\n        /* \"#utility.yul\":39060:39061   */\n      dup3\n        /* \"#utility.yul\":39042:39062   */\n      tag_329\n      jump\t// in\n    tag_743:\n        /* \"#utility.yul\":39037:39062   */\n      swap2\n      pop\n        /* \"#utility.yul\":39076:39096   */\n      tag_744\n        /* \"#utility.yul\":39094:39095   */\n      dup4\n        /* \"#utility.yul\":39076:39096   */\n      tag_329\n      jump\t// in\n    tag_744:\n        /* \"#utility.yul\":39071:39096   */\n      swap3\n      pop\n        /* \"#utility.yul\":39120:39121   */\n      dup3\n        /* \"#utility.yul\":39117:39118   */\n      dup3\n        /* \"#utility.yul\":39113:39122   */\n      sub\n        /* \"#utility.yul\":39105:39122   */\n      swap1\n      pop\n        /* \"#utility.yul\":39144:39145   */\n      dup2\n        /* \"#utility.yul\":39138:39142   */\n      dup2\n        /* \"#utility.yul\":39135:39146   */\n      gt\n        /* \"#utility.yul\":39132:39169   */\n      iszero\n      tag_745\n      jumpi\n        /* \"#utility.yul\":39149:39167   */\n      tag_746\n      tag_358\n      jump\t// in\n    tag_746:\n        /* \"#utility.yul\":39132:39169   */\n    tag_745:\n        /* \"#utility.yul\":38982:39176   */\n      swap3\n      swap2\n      pop\n      pop\n      jump\t// out\n        /* \"#utility.yul\":39182:39319   */\n    tag_396:\n        /* \"#utility.yul\":39236:39241   */\n      0x00\n        /* \"#utility.yul\":39267:39273   */\n      dup2\n        /* \"#utility.yul\":39261:39274   */\n      mload\n        /* \"#utility.yul\":39252:39274   */\n      swap1\n      pop\n        /* \"#utility.yul\":39283:39313   */\n      tag_748\n        /* \"#utility.yul\":39307:39312   */\n      dup2\n        /* \"#utility.yul\":39283:39313   */\n      tag_337\n      jump\t// in\n    tag_748:\n        /* \"#utility.yul\":39182:39319   */\n      swap3\n      swap2\n      pop\n      pop\n      jump\t// out\n        /* \"#utility.yul\":39325:39670   */\n    tag_279:\n        /* \"#utility.yul\":39392:39398   */\n      0x00\n        /* \"#utility.yul\":39441:39443   */\n      0x20\n        /* \"#utility.yul\":39429:39438   */\n      dup3\n        /* \"#utility.yul\":39420:39427   */\n      dup5\n        /* \"#utility.yul\":39416:39439   */\n      sub\n        /* \"#utility.yul\":39412:39444   */\n      slt\n        /* \"#utility.yul\":39409:39528   */\n      iszero\n      tag_750\n      jumpi\n        /* \"#utility.yul\":39447:39526   */\n      tag_751\n      tag_310\n      jump\t// in\n    tag_751:\n        /* \"#utility.yul\":39409:39528   */\n    tag_750:\n        /* \"#utility.yul\":39567:39568   */\n      0x00\n        /* \"#utility.yul\":39592:39653   */\n      tag_752\n        /* \"#utility.yul\":39645:39652   */\n      dup5\n        /* \"#utility.yul\":39636:39642   */\n      dup3\n        /* \"#utility.yul\":39625:39634   */\n      dup6\n        /* \"#utility.yul\":39621:39643   */\n      add\n        /* \"#utility.yul\":39592:39653   */\n      tag_396\n      jump\t// in\n    tag_752:\n        /* \"#utility.yul\":39582:39653   */\n      swap2\n      pop\n        /* \"#utility.yul\":39538:39663   */\n      pop\n        /* \"#utility.yul\":39325:39670   */\n      swap3\n      swap2\n      pop\n      pop\n      jump\t// out\n        /* \"#utility.yul\":39676:39905   */\n    tag_397:\n        /* \"#utility.yul\":39816:39850   */\n      0x5361666545524332303a204552433230206f7065726174696f6e20646964206e\n        /* \"#utility.yul\":39812:39813   */\n      0x00\n        /* \"#utility.yul\":39804:39810   */\n      dup3\n        /* \"#utility.yul\":39800:39814   */\n      add\n        /* \"#utility.yul\":39793:39851   */\n      mstore\n        /* \"#utility.yul\":39885:39897   */\n      0x6f74207375636365656400000000000000000000000000000000000000000000\n        /* \"#utility.yul\":39880:39882   */\n      0x20\n        /* \"#utility.yul\":39872:39878   */\n      dup3\n        /* \"#utility.yul\":39868:39883   */\n      add\n        /* \"#utility.yul\":39861:39898   */\n      mstore\n        /* \"#utility.yul\":39676:39905   */\n      pop\n      jump\t// out\n        /* \"#utility.yul\":39911:40277   */\n    tag_398:\n        /* \"#utility.yul\":40053:40056   */\n      0x00\n        /* \"#utility.yul\":40074:40141   */\n      tag_755\n        /* \"#utility.yul\":40138:40140   */\n      0x2a\n        /* \"#utility.yul\":40133:40136   */\n      dup4\n        /* \"#utility.yul\":40074:40141   */\n      tag_345\n      jump\t// in\n    tag_755:\n        /* \"#utility.yul\":40067:40141   */\n      swap2\n      pop\n        /* \"#utility.yul\":40150:40243   */\n      tag_756\n        /* \"#utility.yul\":40239:40242   */\n      dup3\n        /* \"#utility.yul\":40150:40243   */\n      tag_397\n      jump\t// in\n    tag_756:\n        /* \"#utility.yul\":40268:40270   */\n      0x40\n        /* \"#utility.yul\":40263:40266   */\n      dup3\n        /* \"#utility.yul\":40259:40271   */\n      add\n        /* \"#utility.yul\":40252:40271   */\n      swap1\n      pop\n        /* \"#utility.yul\":39911:40277   */\n      swap2\n      swap1\n      pop\n      jump\t// out\n        /* \"#utility.yul\":40283:40702   */\n    tag_282:\n        /* \"#utility.yul\":40449:40453   */\n      0x00\n        /* \"#utility.yul\":40487:40489   */\n      0x20\n        /* \"#utility.yul\":40476:40485   */\n      dup3\n        /* \"#utility.yul\":40472:40490   */\n      add\n        /* \"#utility.yul\":40464:40490   */\n      swap1\n      pop\n        /* \"#utility.yul\":40536:40545   */\n      dup2\n        /* \"#utility.yul\":40530:40534   */\n      dup2\n        /* \"#utility.yul\":40526:40546   */\n      sub\n        /* \"#utility.yul\":40522:40523   */\n      0x00\n        /* \"#utility.yul\":40511:40520   */\n      dup4\n        /* \"#utility.yul\":40507:40524   */\n      add\n        /* \"#utility.yul\":40500:40547   */\n      mstore\n        /* \"#utility.yul\":40564:40695   */\n      tag_758\n        /* \"#utility.yul\":40690:40694   */\n      dup2\n        /* \"#utility.yul\":40564:40695   */\n      tag_398\n      jump\t// in\n    tag_758:\n        /* \"#utility.yul\":40556:40695   */\n      swap1\n      pop\n        /* \"#utility.yul\":40283:40702   */\n      swap2\n      swap1\n      pop\n      jump\t// out\n        /* \"#utility.yul\":40708:40933   */\n    tag_399:\n        /* \"#utility.yul\":40848:40882   */\n      0x416464726573733a20696e73756666696369656e742062616c616e636520666f\n        /* \"#utility.yul\":40844:40845   */\n      0x00\n        /* \"#utility.yul\":40836:40842   */\n      dup3\n        /* \"#utility.yul\":40832:40846   */\n      add\n        /* \"#utility.yul\":40825:40883   */\n      mstore\n        /* \"#utility.yul\":40917:40925   */\n      0x722063616c6c0000000000000000000000000000000000000000000000000000\n        /* \"#utility.yul\":40912:40914   */\n      0x20\n        /* \"#utility.yul\":40904:40910   */\n      dup3\n        /* \"#utility.yul\":40900:40915   */\n      add\n        /* \"#utility.yul\":40893:40926   */\n      mstore\n        /* \"#utility.yul\":40708:40933   */\n      pop\n      jump\t// out\n        /* \"#utility.yul\":40939:41305   */\n    tag_400:\n        /* \"#utility.yul\":41081:41084   */\n      0x00\n        /* \"#utility.yul\":41102:41169   */\n      tag_761\n        /* \"#utility.yul\":41166:41168   */\n      0x26\n        /* \"#utility.yul\":41161:41164   */\n      dup4\n        /* \"#utility.yul\":41102:41169   */\n      tag_345\n      jump\t// in\n    tag_761:\n        /* \"#utility.yul\":41095:41169   */\n      swap2\n      pop\n        /* \"#utility.yul\":41178:41271   */\n      tag_762\n        /* \"#utility.yul\":41267:41270   */\n      dup3\n        /* \"#utility.yul\":41178:41271   */\n      tag_399\n      jump\t// in\n    tag_762:\n        /* \"#utility.yul\":41296:41298   */\n      0x40\n        /* \"#utility.yul\":41291:41294   */\n      dup3\n        /* \"#utility.yul\":41287:41299   */\n      add\n        /* \"#utility.yul\":41280:41299   */\n      swap1\n      pop\n        /* \"#utility.yul\":40939:41305   */\n      swap2\n      swap1\n      pop\n      jump\t// out\n        /* \"#utility.yul\":41311:41730   */\n    tag_289:\n        /* \"#utility.yul\":41477:41481   */\n      0x00\n        /* \"#utility.yul\":41515:41517   */\n      0x20\n        /* \"#utility.yul\":41504:41513   */\n      dup3\n        /* \"#utility.yul\":41500:41518   */\n      add\n        /* \"#utility.yul\":41492:41518   */\n      swap1\n      pop\n        /* \"#utility.yul\":41564:41573   */\n      dup2\n        /* \"#utility.yul\":41558:41562   */\n      dup2\n        /* \"#utility.yul\":41554:41574   */\n      sub\n        /* \"#utility.yul\":41550:41551   */\n      0x00\n        /* \"#utility.yul\":41539:41548   */\n      dup4\n        /* \"#utility.yul\":41535:41552   */\n      add\n        /* \"#utility.yul\":41528:41575   */\n      mstore\n        /* \"#utility.yul\":41592:41723   */\n      tag_764\n        /* \"#utility.yul\":41718:41722   */\n      dup2\n        /* \"#utility.yul\":41592:41723   */\n      tag_400\n      jump\t// in\n    tag_764:\n        /* \"#utility.yul\":41584:41723   */\n      swap1\n      pop\n        /* \"#utility.yul\":41311:41730   */\n      swap2\n      swap1\n      pop\n      jump\t// out\n        /* \"#utility.yul\":41736:41915   */\n    tag_401:\n        /* \"#utility.yul\":41876:41907   */\n      0x416464726573733a2063616c6c20746f206e6f6e2d636f6e7472616374000000\n        /* \"#utility.yul\":41872:41873   */\n      0x00\n        /* \"#utility.yul\":41864:41870   */\n      dup3\n        /* \"#utility.yul\":41860:41874   */\n      add\n        /* \"#utility.yul\":41853:41908   */\n      mstore\n        /* \"#utility.yul\":41736:41915   */\n      pop\n      jump\t// out\n        /* \"#utility.yul\":41921:42287   */\n    tag_402:\n        /* \"#utility.yul\":42063:42066   */\n      0x00\n        /* \"#utility.yul\":42084:42151   */\n      tag_767\n        /* \"#utility.yul\":42148:42150   */\n      0x1d\n        /* \"#utility.yul\":42143:42146   */\n      dup4\n        /* \"#utility.yul\":42084:42151   */\n      tag_345\n      jump\t// in\n    tag_767:\n        /* \"#utility.yul\":42077:42151   */\n      swap2\n      pop\n        /* \"#utility.yul\":42160:42253   */\n      tag_768\n        /* \"#utility.yul\":42249:42252   */\n      dup3\n        /* \"#utility.yul\":42160:42253   */\n      tag_401\n      jump\t// in\n    tag_768:\n        /* \"#utility.yul\":42278:42280   */\n      0x20\n        /* \"#utility.yul\":42273:42276   */\n      dup3\n        /* \"#utility.yul\":42269:42281   */\n      add\n        /* \"#utility.yul\":42262:42281   */\n      swap1\n      pop\n        /* \"#utility.yul\":41921:42287   */\n      swap2\n      swap1\n      pop\n      jump\t// out\n        /* \"#utility.yul\":42293:42712   */\n    tag_294:\n        /* \"#utility.yul\":42459:42463   */\n      0x00\n        /* \"#utility.yul\":42497:42499   */\n      0x20\n        /* \"#utility.yul\":42486:42495   */\n      dup3\n        /* \"#utility.yul\":42482:42500   */\n      add\n        /* \"#utility.yul\":42474:42500   */\n      swap1\n      pop\n        /* \"#utility.yul\":42546:42555   */\n      dup2\n        /* \"#utility.yul\":42540:42544   */\n      dup2\n        /* \"#utility.yul\":42536:42556   */\n      sub\n        /* \"#utility.yul\":42532:42533   */\n      0x00\n        /* \"#utility.yul\":42521:42530   */\n      dup4\n        /* \"#utility.yul\":42517:42534   */\n      add\n        /* \"#utility.yul\":42510:42557   */\n      mstore\n        /* \"#utility.yul\":42574:42705   */\n      tag_770\n        /* \"#utility.yul\":42700:42704   */\n      dup2\n        /* \"#utility.yul\":42574:42705   */\n      tag_402\n      jump\t// in\n    tag_770:\n        /* \"#utility.yul\":42566:42705   */\n      swap1\n      pop\n        /* \"#utility.yul\":42293:42712   */\n      swap2\n      swap1\n      pop\n      jump\t// out\n        /* \"#utility.yul\":42718:42816   */\n    tag_403:\n        /* \"#utility.yul\":42769:42775   */\n      0x00\n        /* \"#utility.yul\":42803:42808   */\n      dup2\n        /* \"#utility.yul\":42797:42809   */\n      mload\n        /* \"#utility.yul\":42787:42809   */\n      swap1\n      pop\n        /* \"#utility.yul\":42718:42816   */\n      swap2\n      swap1\n      pop\n      jump\t// out\n        /* \"#utility.yul\":42822:42969   */\n    tag_404:\n        /* \"#utility.yul\":42923:42934   */\n      0x00\n        /* \"#utility.yul\":42960:42963   */\n      dup2\n        /* \"#utility.yul\":42945:42963   */\n      swap1\n      pop\n        /* \"#utility.yul\":42822:42969   */\n      swap3\n      swap2\n      pop\n      pop\n      jump\t// out\n        /* \"#utility.yul\":42975:43361   */\n    tag_405:\n        /* \"#utility.yul\":43079:43082   */\n      0x00\n        /* \"#utility.yul\":43107:43145   */\n      tag_774\n        /* \"#utility.yul\":43139:43144   */\n      dup3\n        /* \"#utility.yul\":43107:43145   */\n      tag_403\n      jump\t// in\n    tag_774:\n        /* \"#utility.yul\":43161:43249   */\n      tag_775\n        /* \"#utility.yul\":43242:43248   */\n      dup2\n        /* \"#utility.yul\":43237:43240   */\n      dup6\n        /* \"#utility.yul\":43161:43249   */\n      tag_404\n      jump\t// in\n    tag_775:\n        /* \"#utility.yul\":43154:43249   */\n      swap4\n      pop\n        /* \"#utility.yul\":43258:43323   */\n      tag_776\n        /* \"#utility.yul\":43316:43322   */\n      dup2\n        /* \"#utility.yul\":43311:43314   */\n      dup6\n        /* \"#utility.yul\":43304:43308   */\n      0x20\n        /* \"#utility.yul\":43297:43302   */\n      dup7\n        /* \"#utility.yul\":43293:43309   */\n      add\n        /* \"#utility.yul\":43258:43323   */\n      tag_324\n      jump\t// in\n    tag_776:\n        /* \"#utility.yul\":43348:43354   */\n      dup1\n        /* \"#utility.yul\":43343:43346   */\n      dup5\n        /* \"#utility.yul\":43339:43355   */\n      add\n        /* \"#utility.yul\":43332:43355   */\n      swap2\n      pop\n        /* \"#utility.yul\":43083:43361   */\n      pop\n        /* \"#utility.yul\":42975:43361   */\n      swap3\n      swap2\n      pop\n      pop\n      jump\t// out\n        /* \"#utility.yul\":43367:43638   */\n    tag_296:\n        /* \"#utility.yul\":43497:43500   */\n      0x00\n        /* \"#utility.yul\":43519:43612   */\n      tag_778\n        /* \"#utility.yul\":43608:43611   */\n      dup3\n        /* \"#utility.yul\":43599:43605   */\n      dup5\n        /* \"#utility.yul\":43519:43612   */\n      tag_405\n      jump\t// in\n    tag_778:\n        /* \"#utility.yul\":43512:43612   */\n      swap2\n      pop\n        /* \"#utility.yul\":43629:43632   */\n      dup2\n        /* \"#utility.yul\":43622:43632   */\n      swap1\n      pop\n        /* \"#utility.yul\":43367:43638   */\n      swap3\n      swap2\n      pop\n      pop\n      jump\t// out\n    stop\n    data_2ae7c0986338aa6af582045c045695e5a1e7bd91eded59a25b1ee78bfa2df94d 5361666545524332303a206c6f772d6c6576656c2063616c6c206661696c656420736166654465637265617365416c6c6f77616e6365\n\n    auxdata: 0xa26469706673582212207de2829eb0442ab008294b8fbedd3946f9b891e8e85b863b18f156a5c406f08764736f6c63430008120033\n}\n",
				"bytecode": {
					"linkReferences": {},
					"object": "608060405234801561001057600080fd5b5073b8190d84475d09f4324685678a70ef5c2375ef4b6000806101000a81548173ffffffffffffffffffffffffffffffffffffffff021916908373ffffffffffffffffffffffffffffffffffffffff160217905550613909806100746000396000f3fe608060405234801561001057600080fd5b50600436106100b45760003560e01c80639e1a4d19116100715780639e1a4d191461019d578063b0345a56146101bb578063b03f15c4146101d7578063c6905603146101f3578063d4e932921461020f578063f89d0ec914610219576100b4565b80631d3bc3a6146100b957806320215dc4146100e957806347ce1f7e146101195780634c846b8b146101355780636441f9d0146101515780637a3c666d14610181575b600080fd5b6100d360048036038101906100ce9190612354565b61024a565b6040516100e09190612595565b60405180910390f35b61010360048036038101906100fe91906125e3565b610419565b6040516101109190612719565b60405180910390f35b610133600480360381019061012e9190612767565b6105d7565b005b61014f600480360381019061014a91906127ef565b610769565b005b61016b60048036038101906101669190612354565b610848565b6040516101789190612595565b60405180910390f35b61019b600480360381019061019691906127ef565b610a11565b005b6101a561111b565b6040516101b2919061285a565b60405180910390f35b6101d560048036038101906101d09190612354565b6111c1565b005b6101f160048036038101906101ec9190612354565b611533565b005b61020d60048036038101906102089190612875565b6117e4565b005b610217611a9d565b005b610233600480360381019061022e91906127ef565b611b05565b6040516102419291906128f8565b60405180910390f35b61025261211e565b6000600183604051610264919061295d565b90815260200160405180910390206040518061018001604052908160008201805461028e906129a3565b80601f01602080910402602001604051908101604052809291908181526020018280546102ba906129a3565b80156103075780601f106102dc57610100808354040283529160200191610307565b820191906000526020600020905b8154815290600101906020018083116102ea57829003601f168201915b505050505081526020016001820160009054906101000a900473ffffffffffffffffffffffffffffffffffffffff1673ffffffffffffffffffffffffffffffffffffffff1673ffffffffffffffffffffffffffffffffffffffff16815260200160028201548152602001600382015481526020016004820160009054906101000a900460ff161515151581526020016004820160019054906101000a900460ff161515151581526020016004820160029054906101000a900460ff16151515158152602001600582015481526020016006820160009054906101000a900460ff161515151581526020016007820154815260200160088201548152602001600982015481525050905080915050919050565b61042161219d565b6000600284604051610433919061295d565b908152602001604051809103902060008473ffffffffffffffffffffffffffffffffffffffff1673ffffffffffffffffffffffffffffffffffffffff1681526020019081526020016000206040518061014001604052908160008201548152602001600182015481526020016002820160009054906101000a900460ff161515151581526020016002820160019054906101000a900460ff161515151581526020016002820160029054906101000a900460ff161515151581526020016002820160039054906101000a900460ff161515151581526020016002820160049054906101000a900460ff161515151581526020016003820154815260200160048201548152602001600582018054610549906129a3565b80601f0160208091040260200160405190810160405280929190818152602001828054610575906129a3565b80156105c25780601f10610597576101008083540402835291602001916105c2565b820191906000526020600020905b8154815290600101906020018083116105a557829003601f168201915b50505050508152505090508091505092915050565b600180836040516105e8919061295d565b908152602001604051809103902060040160006101000a81548160ff02191690831515021790555080600183604051610621919061295d565b908152602001604051809103902060040160026101000a81548160ff021916908315150217905550600060018360405161065b919061295d565b90815260200160405180910390206005015490506000600184604051610681919061295d565b908152602001604051809103902060020154905060006001856040516106a7919061295d565b908152602001604051809103902060080154905083156106fe576106d48284611b7c90919063ffffffff16565b6001866040516106e4919061295d565b908152602001604051809103902060070181905550610762565b600061073861072961071a600185611bda90919063ffffffff16565b86611c2490919063ffffffff16565b84611bda90919063ffffffff16565b90508060018760405161074b919061295d565b908152602001604051809103902060070181905550505b5050505050565b600060018360405161077b919061295d565b908152602001604051809103902060010160009054906101000a900473ffffffffffffffffffffffffffffffffffffffff1690503373ffffffffffffffffffffffffffffffffffffffff168173ffffffffffffffffffffffffffffffffffffffff161461081d576040517f08c379a000000000000000000000000000000000000000000000000000000000815260040161081490612a57565b60405180910390fd5b8160018460405161082e919061295d565b908152602001604051809103902060030181905550505050565b61085061211e565b600182604051610860919061295d565b90815260200160405180910390206040518061018001604052908160008201805461088a906129a3565b80601f01602080910402602001604051908101604052809291908181526020018280546108b6906129a3565b80156109035780601f106108d857610100808354040283529160200191610903565b820191906000526020600020905b8154815290600101906020018083116108e657829003601f168201915b505050505081526020016001820160009054906101000a900473ffffffffffffffffffffffffffffffffffffffff1673ffffffffffffffffffffffffffffffffffffffff1673ffffffffffffffffffffffffffffffffffffffff16815260200160028201548152602001600382015481526020016004820160009054906101000a900460ff161515151581526020016004820160019054906101000a900460ff161515151581526020016004820160029054906101000a900460ff16151515158152602001600582015481526020016006820160009054906101000a900460ff1615151515815260200160078201548152602001600882015481526020016009820154815250509050919050565b6000600183604051610a23919061295d565b90815260200160405180910390206008015490506000600184604051610a49919061295d565b908152602001604051809103902060010160009054906101000a900473ffffffffffffffffffffffffffffffffffffffff1690503373ffffffffffffffffffffffffffffffffffffffff168173ffffffffffffffffffffffffffffffffffffffff1603610aeb576040517f08c379a0000000000000000000000000000000000000000000000000000000008152600401610ae290612ae9565b60405180910390fd5b60001515600185604051610aff919061295d565b908152602001604051809103902060040160009054906101000a900460ff16151514610b60576040517f08c379a0000000000000000000000000000000000000000000000000000000008152600401610b5790612b55565b60405180910390fd5b42600185604051610b71919061295d565b90815260200160405180910390206003015411610bc3576040517f08c379a0000000000000000000000000000000000000000000000000000000008152600401610bba90612be7565b60405180910390fd5b610c0a610bda600184611bda90919063ffffffff16565b600186604051610bea919061295d565b908152602001604051809103902060020154611c9e90919063ffffffff16565b610c3e84600187604051610c1e919061295d565b908152602001604051809103902060050154611b7c90919063ffffffff16565b1115610c7f576040517f08c379a0000000000000000000000000000000000000000000000000000000008152600401610c7690612c9f565b60405180910390fd5b60008311610cc2576040517f08c379a0000000000000000000000000000000000000000000000000000000008152600401610cb990612d31565b60405180910390fd5b610d0f33308560008054906101000a900473ffffffffffffffffffffffffffffffffffffffff1673ffffffffffffffffffffffffffffffffffffffff16611ce8909392919063ffffffff16565b6000600285604051610d21919061295d565b908152602001604051809103902060003373ffffffffffffffffffffffffffffffffffffffff1673ffffffffffffffffffffffffffffffffffffffff1681526020019081526020016000206000015403610dae5760018085604051610d86919061295d565b90815260200160405180910390206009016000828254610da69190612d80565b925050819055505b82600285604051610dbf919061295d565b908152602001604051809103902060003373ffffffffffffffffffffffffffffffffffffffff1673ffffffffffffffffffffffffffffffffffffffff1681526020019081526020016000206000016000828254610e1c9190612d80565b9250508190555042600285604051610e34919061295d565b908152602001604051809103902060003373ffffffffffffffffffffffffffffffffffffffff1673ffffffffffffffffffffffffffffffffffffffff168152602001908152602001600020600101819055506000600285604051610e98919061295d565b908152602001604051809103902060003373ffffffffffffffffffffffffffffffffffffffff1673ffffffffffffffffffffffffffffffffffffffff16815260200190815260200160002060020160016101000a81548160ff0219169083151502179055506001600285604051610f0f919061295d565b908152602001604051809103902060003373ffffffffffffffffffffffffffffffffffffffff1673ffffffffffffffffffffffffffffffffffffffff16815260200190815260200160002060020160046101000a81548160ff021916908315150217905550610f878284611c2490919063ffffffff16565b600285604051610f97919061295d565b908152602001604051809103902060003373ffffffffffffffffffffffffffffffffffffffff1673ffffffffffffffffffffffffffffffffffffffff1681526020019081526020016000206003016000828254610ff49190612d80565b92505081905550600160028560405161100d919061295d565b908152602001604051809103902060003373ffffffffffffffffffffffffffffffffffffffff1673ffffffffffffffffffffffffffffffffffffffff168152602001908152602001600020600401600082825461106a9190612d80565b9250508190555083600285604051611082919061295d565b908152602001604051809103902060003373ffffffffffffffffffffffffffffffffffffffff1673ffffffffffffffffffffffffffffffffffffffff16815260200190815260200160002060050190816110dc9190612f60565b50826001856040516110ee919061295d565b9081526020016040518091039020600501600082825461110e9190612d80565b9250508190555050505050565b60008060008054906101000a900473ffffffffffffffffffffffffffffffffffffffff1673ffffffffffffffffffffffffffffffffffffffff166370a08231306040518263ffffffff1660e01b81526004016111779190613041565b602060405180830381865afa158015611194573d6000803e3d6000fd5b505050506040513d601f19601f820116820180604052508101906111b89190613071565b90508091505090565b60006002826040516111d3919061295d565b908152602001604051809103902060003373ffffffffffffffffffffffffffffffffffffffff1673ffffffffffffffffffffffffffffffffffffffff1681526020019081526020016000206000015490506000600283604051611236919061295d565b908152602001604051809103902060003373ffffffffffffffffffffffffffffffffffffffff1673ffffffffffffffffffffffffffffffffffffffff1681526020019081526020016000206003015490506000151560028460405161129b919061295d565b908152602001604051809103902060003373ffffffffffffffffffffffffffffffffffffffff1673ffffffffffffffffffffffffffffffffffffffff16815260200190815260200160002060020160039054906101000a900460ff16151514611339576040517f08c379a0000000000000000000000000000000000000000000000000000000008152600401611330906130ea565b60405180910390fd5b6001151560018460405161134d919061295d565b908152602001604051809103902060040160009054906101000a900460ff161515146113ae576040517f08c379a00000000000000000000000000000000000000000000000000000000081526004016113a590613156565b60405180910390fd5b600082116113f1576040517f08c379a00000000000000000000000000000000000000000000000000000000081526004016113e8906131e8565b60405180910390fd5b60001515600184604051611405919061295d565b908152602001604051809103902060040160029054906101000a900460ff16151514611466576040517f08c379a000000000000000000000000000000000000000000000000000000000815260040161145d90613254565b60405180910390fd5b60008190506114b6338260008054906101000a900473ffffffffffffffffffffffffffffffffffffffff1673ffffffffffffffffffffffffffffffffffffffff16611d719092919063ffffffff16565b60016002856040516114c8919061295d565b908152602001604051809103902060003373ffffffffffffffffffffffffffffffffffffffff1673ffffffffffffffffffffffffffffffffffffffff16815260200190815260200160002060020160036101000a81548160ff02191690831515021790555050505050565b6000600182604051611545919061295d565b908152602001604051809103902060010160009054906101000a900473ffffffffffffffffffffffffffffffffffffffff1690503373ffffffffffffffffffffffffffffffffffffffff168173ffffffffffffffffffffffffffffffffffffffff16146115e7576040517f08c379a00000000000000000000000000000000000000000000000000000000081526004016115de90612a57565b60405180910390fd5b600115156001836040516115fb919061295d565b908152602001604051809103902060040160009054906101000a900460ff1615151461165c576040517f08c379a000000000000000000000000000000000000000000000000000000000815260040161165390613156565b60405180910390fd5b60001515600183604051611670919061295d565b908152602001604051809103902060060160009054906101000a900460ff161515146116d1576040517f08c379a00000000000000000000000000000000000000000000000000000000081526004016116c8906130ea565b60405180910390fd5b60006001836040516116e3919061295d565b90815260200160405180910390206007015411611735576040517f08c379a000000000000000000000000000000000000000000000000000000000815260040161172c906130ea565b60405180910390fd5b6000600183604051611747919061295d565b90815260200160405180910390206007015490506117a6828260008054906101000a900473ffffffffffffffffffffffffffffffffffffffff1673ffffffffffffffffffffffffffffffffffffffff16611d719092919063ffffffff16565b600180846040516117b7919061295d565b908152602001604051809103902060060160006101000a81548160ff021916908315150217905550505050565b60006001856040516117f6919061295d565b90815260200160405180910390206002015414611848576040517f08c379a000000000000000000000000000000000000000000000000000000000815260040161183f906132c0565b60405180910390fd5b670de0b6b3a76400008311611892576040517f08c379a00000000000000000000000000000000000000000000000000000000081526004016118899061332c565b60405180910390fd5b60028110156118d6576040517f08c379a00000000000000000000000000000000000000000000000000000000081526004016118cd906133be565b60405180910390fd5b61192333308560008054906101000a900473ffffffffffffffffffffffffffffffffffffffff1673ffffffffffffffffffffffffffffffffffffffff16611ce8909392919063ffffffff16565b83600185604051611934919061295d565b908152602001604051809103902060000190816119519190612f60565b5082600185604051611963919061295d565b90815260200160405180910390206002018190555033600185604051611989919061295d565b908152602001604051809103902060010160006101000a81548173ffffffffffffffffffffffffffffffffffffffff021916908373ffffffffffffffffffffffffffffffffffffffff160217905550816001856040516119e9919061295d565b90815260200160405180910390206003018190555060018085604051611a0f919061295d565b908152602001604051809103902060040160016101000a81548160ff0219169083151502179055506000600185604051611a49919061295d565b908152602001604051809103902060040160006101000a81548160ff02191690831515021790555080600185604051611a82919061295d565b90815260200160405180910390206008018190555050505050565b611b0373b7ac142bfebbce40d51088aa8b83ba806d79964c611abd61111b565b60008054906101000a900473ffffffffffffffffffffffffffffffffffffffff1673ffffffffffffffffffffffffffffffffffffffff16611d719092919063ffffffff16565b565b600080611b3c83600186604051611b1c919061295d565b908152602001604051809103902060050154611b7c90919063ffffffff16565b611b716002600187604051611b51919061295d565b908152602001604051809103902060020154611c9e90919063ffffffff16565b915091509250929050565b6000808284611b8b9190612d80565b905083811015611bd0576040517f08c379a0000000000000000000000000000000000000000000000000000000008152600401611bc79061342a565b60405180910390fd5b8091505092915050565b6000611c1c83836040518060400160405280601e81526020017f536166654d6174683a207375627472616374696f6e206f766572666c6f770000815250611df7565b905092915050565b6000808303611c365760009050611c98565b60008284611c44919061344a565b9050828482611c5391906134bb565b14611c93576040517f08c379a0000000000000000000000000000000000000000000000000000000008152600401611c8a9061355e565b60405180910390fd5b809150505b92915050565b6000611ce083836040518060400160405280601a81526020017f536166654d6174683a206469766973696f6e206279207a65726f000000000000815250611e5b565b905092915050565b611d6b846323b872dd60e01b858585604051602401611d099392919061357e565b604051602081830303815290604052907bffffffffffffffffffffffffffffffffffffffffffffffffffffffff19166020820180517bffffffffffffffffffffffffffffffffffffffffffffffffffffffff8381831617835250505050611ebe565b50505050565b611df28363a9059cbb60e01b8484604051602401611d909291906135b5565b604051602081830303815290604052907bffffffffffffffffffffffffffffffffffffffffffffffffffffffff19166020820180517bffffffffffffffffffffffffffffffffffffffffffffffffffffffff8381831617835250505050611ebe565b505050565b6000838311158290611e3f576040517f08c379a0000000000000000000000000000000000000000000000000000000008152600401611e369190613617565b60405180910390fd5b5060008385611e4e9190613639565b9050809150509392505050565b60008083118290611ea2576040517f08c379a0000000000000000000000000000000000000000000000000000000008152600401611e999190613617565b60405180910390fd5b5060008385611eb191906134bb565b9050809150509392505050565b6000611f038260405180606001604052806036815260200161389e603691398573ffffffffffffffffffffffffffffffffffffffff16611f689092919063ffffffff16565b9050600081511115611f635780806020019051810190611f239190613682565b611f62576040517f08c379a0000000000000000000000000000000000000000000000000000000008152600401611f5990613721565b60405180910390fd5b5b505050565b6060611f778484600085611f80565b90509392505050565b606082471015611fc5576040517f08c379a0000000000000000000000000000000000000000000000000000000008152600401611fbc906137b3565b60405180910390fd5b611fce85612094565b61200d576040517f08c379a00000000000000000000000000000000000000000000000000000000081526004016120049061381f565b60405180910390fd5b6000808673ffffffffffffffffffffffffffffffffffffffff1685876040516120369190613886565b60006040518083038185875af1925050503d8060008114612073576040519150601f19603f3d011682016040523d82523d6000602084013e612078565b606091505b50915091506120888282866120b7565b92505050949350505050565b6000808273ffffffffffffffffffffffffffffffffffffffff163b119050919050565b606083156120c757829050612117565b6000835111156120da5782518084602001fd5b816040517f08c379a000000000000000000000000000000000000000000000000000000000815260040161210e9190613617565b60405180910390fd5b9392505050565b60405180610180016040528060608152602001600073ffffffffffffffffffffffffffffffffffffffff1681526020016000815260200160008152602001600015158152602001600015158152602001600015158152602001600081526020016000151581526020016000815260200160008152602001600081525090565b60405180610140016040528060008152602001600081526020016000151581526020016000151581526020016000151581526020016000151581526020016000151581526020016000815260200160008152602001606081525090565b6000604051905090565b600080fd5b600080fd5b600080fd5b600080fd5b6000601f19601f8301169050919050565b7f4e487b7100000000000000000000000000000000000000000000000000000000600052604160045260246000fd5b61226182612218565b810181811067ffffffffffffffff821117156122805761227f612229565b5b80604052505050565b60006122936121fa565b905061229f8282612258565b919050565b600067ffffffffffffffff8211156122bf576122be612229565b5b6122c882612218565b9050602081019050919050565b82818337600083830152505050565b60006122f76122f2846122a4565b612289565b90508281526020810184848401111561231357612312612213565b5b61231e8482856122d5565b509392505050565b600082601f83011261233b5761233a61220e565b5b813561234b8482602086016122e4565b91505092915050565b60006020828403121561236a57612369612204565b5b600082013567ffffffffffffffff81111561238857612387612209565b5b61239484828501612326565b91505092915050565b600081519050919050565b600082825260208201905092915050565b60005b838110156123d75780820151818401526020810190506123bc565b60008484015250505050565b60006123ee8261239d565b6123f881856123a8565b93506124088185602086016123b9565b61241181612218565b840191505092915050565b600073ffffffffffffffffffffffffffffffffffffffff82169050919050565b60006124478261241c565b9050919050565b6124578161243c565b82525050565b6000819050919050565b6124708161245d565b82525050565b60008115159050919050565b61248b81612476565b82525050565b60006101808301600083015184820360008601526124af82826123e3565b91505060208301516124c4602086018261244e565b5060408301516124d76040860182612467565b5060608301516124ea6060860182612467565b5060808301516124fd6080860182612482565b5060a083015161251060a0860182612482565b5060c083015161252360c0860182612482565b5060e083015161253660e0860182612467565b5061010083015161254b610100860182612482565b50610120830151612560610120860182612467565b50610140830151612575610140860182612467565b5061016083015161258a610160860182612467565b508091505092915050565b600060208201905081810360008301526125af8184612491565b905092915050565b6125c08161243c565b81146125cb57600080fd5b50565b6000813590506125dd816125b7565b92915050565b600080604083850312156125fa576125f9612204565b5b600083013567ffffffffffffffff81111561261857612617612209565b5b61262485828601612326565b9250506020612635858286016125ce565b9150509250929050565b6000610140830160008301516126586000860182612467565b50602083015161266b6020860182612467565b50604083015161267e6040860182612482565b5060608301516126916060860182612482565b5060808301516126a46080860182612482565b5060a08301516126b760a0860182612482565b5060c08301516126ca60c0860182612482565b5060e08301516126dd60e0860182612467565b506101008301516126f2610100860182612467565b5061012083015184820361012086015261270c82826123e3565b9150508091505092915050565b60006020820190508181036000830152612733818461263f565b905092915050565b61274481612476565b811461274f57600080fd5b50565b6000813590506127618161273b565b92915050565b6000806040838503121561277e5761277d612204565b5b600083013567ffffffffffffffff81111561279c5761279b612209565b5b6127a885828601612326565b92505060206127b985828601612752565b9150509250929050565b6127cc8161245d565b81146127d757600080fd5b50565b6000813590506127e9816127c3565b92915050565b6000806040838503121561280657612805612204565b5b600083013567ffffffffffffffff81111561282457612823612209565b5b61283085828601612326565b9250506020612841858286016127da565b9150509250929050565b6128548161245d565b82525050565b600060208201905061286f600083018461284b565b92915050565b6000806000806080858703121561288f5761288e612204565b5b600085013567ffffffffffffffff8111156128ad576128ac612209565b5b6128b987828801612326565b94505060206128ca878288016127da565b93505060406128db878288016127da565b92505060606128ec878288016127da565b91505092959194509250565b600060408201905061290d600083018561284b565b61291a602083018461284b565b9392505050565b600081905092915050565b60006129378261239d565b6129418185612921565b93506129518185602086016123b9565b80840191505092915050565b6000612969828461292c565b915081905092915050565b7f4e487b7100000000000000000000000000000000000000000000000000000000600052602260045260246000fd5b600060028204905060018216806129bb57607f821691505b6020821081036129ce576129cd612974565b5b50919050565b600082825260208201905092915050565b7f5468652063757272656e742075736572206973206e6f742061207075626c697360008201527f6865720000000000000000000000000000000000000000000000000000000000602082015250565b6000612a416023836129d4565b9150612a4c826129e5565b604082019050919050565b60006020820190508181036000830152612a7081612a34565b9050919050565b7f54686520696e69746961746f722063616e6e6f74206368616c6c656e6765206860008201527f69732070726f706f736974696f6e000000000000000000000000000000000000602082015250565b6000612ad3602e836129d4565b9150612ade82612a77565b604082019050919050565b60006020820190508181036000830152612b0281612ac6565b9050919050565b7f5468652063757272656e74206368616c6c656e6765206973206f766572000000600082015250565b6000612b3f601d836129d4565b9150612b4a82612b09565b602082019050919050565b60006020820190508181036000830152612b6e81612b32565b9050919050565b7f5468652063757272656e74206368616c6c656e67652074696d65206973206f7660008201527f6572000000000000000000000000000000000000000000000000000000000000602082015250565b6000612bd16022836129d4565b9150612bdc82612b75565b604082019050919050565b60006020820190508181036000830152612c0081612bc4565b9050919050565b7f54686520746f74616c206368616c6c656e676520616d6f756e742063616e6e6f60008201527f7420626520686967686572207468616e20746865206d6178696d756d2061766160208201527f696c61626c652071756f74610000000000000000000000000000000000000000604082015250565b6000612c89604c836129d4565b9150612c9482612c07565b606082019050919050565b60006020820190508181036000830152612cb881612c7c565b9050919050565b7f546865206e756d626572206f66206368616c6c656e6765732063616e6e6f742060008201527f6265207a65726f00000000000000000000000000000000000000000000000000602082015250565b6000612d1b6027836129d4565b9150612d2682612cbf565b604082019050919050565b60006020820190508181036000830152612d4a81612d0e565b9050919050565b7f4e487b7100000000000000000000000000000000000000000000000000000000600052601160045260246000fd5b6000612d8b8261245d565b9150612d968361245d565b9250828201905080821115612dae57612dad612d51565b5b92915050565b60008190508160005260206000209050919050565b60006020601f8301049050919050565b600082821b905092915050565b600060088302612e167fffffffffffffffffffffffffffffffffffffffffffffffffffffffffffffffff82612dd9565b612e208683612dd9565b95508019841693508086168417925050509392505050565b6000819050919050565b6000612e5d612e58612e538461245d565b612e38565b61245d565b9050919050565b6000819050919050565b612e7783612e42565b612e8b612e8382612e64565b848454612de6565b825550505050565b600090565b612ea0612e93565b612eab818484612e6e565b505050565b5b81811015612ecf57612ec4600082612e98565b600181019050612eb1565b5050565b601f821115612f1457612ee581612db4565b612eee84612dc9565b81016020851015612efd578190505b612f11612f0985612dc9565b830182612eb0565b50505b505050565b600082821c905092915050565b6000612f3760001984600802612f19565b1980831691505092915050565b6000612f508383612f26565b9150826002028217905092915050565b612f698261239d565b67ffffffffffffffff811115612f8257612f81612229565b5b612f8c82546129a3565b612f97828285612ed3565b600060209050601f831160018114612fca5760008415612fb8578287015190505b612fc28582612f44565b86555061302a565b601f198416612fd886612db4565b60005b8281101561300057848901518255600182019150602085019450602081019050612fdb565b8683101561301d5784890151613019601f891682612f26565b8355505b6001600288020188555050505b505050505050565b61303b8161243c565b82525050565b60006020820190506130566000830184613032565b92915050565b60008151905061306b816127c3565b92915050565b60006020828403121561308757613086612204565b5b60006130958482850161305c565b91505092915050565b7f596f752068617665207265636569766564207265776172647300000000000000600082015250565b60006130d46019836129d4565b91506130df8261309e565b602082019050919050565b60006020820190508181036000830152613103816130c7565b9050919050565b7f546865206368616c6c656e6765206973206e6f74206f76657200000000000000600082015250565b60006131406019836129d4565b915061314b8261310a565b602082019050919050565b6000602082019050818103600083015261316f81613133565b9050919050565b7f5468652075736572206973206e6f7420696e766f6c76656420696e207468652060008201527f63757272656e74206368616c6c656e6765000000000000000000000000000000602082015250565b60006131d26031836129d4565b91506131dd82613176565b604082019050919050565b60006020820190508181036000830152613201816131c5565b9050919050565b7f4368616c6c656e6765206661696c656400000000000000000000000000000000600082015250565b600061323e6010836129d4565b915061324982613208565b602082019050919050565b6000602082019050818103600083015261326d81613231565b9050919050565b7f546865207468656d65496420486173206265656e20696e697469617465640000600082015250565b60006132aa601e836129d4565b91506132b582613274565b602082019050919050565b600060208201905081810360008301526132d98161329d565b9050919050565b7f5075626c697368657220746f6b656e20616d6f756e7420310000000000000000600082015250565b60006133166018836129d4565b9150613321826132e0565b602082019050919050565b6000602082019050818103600083015261334581613309565b9050919050565b7f546865206d696e696d756d2076616c7565206f66206d61676e6966696361746960008201527f6f6e206973203200000000000000000000000000000000000000000000000000602082015250565b60006133a86027836129d4565b91506133b38261334c565b604082019050919050565b600060208201905081810360008301526133d78161339b565b9050919050565b7f536166654d6174683a206164646974696f6e206f766572666c6f770000000000600082015250565b6000613414601b836129d4565b915061341f826133de565b602082019050919050565b6000602082019050818103600083015261344381613407565b9050919050565b60006134558261245d565b91506134608361245d565b925082820261346e8161245d565b9150828204841483151761348557613484612d51565b5b5092915050565b7f4e487b7100000000000000000000000000000000000000000000000000000000600052601260045260246000fd5b60006134c68261245d565b91506134d18361245d565b9250826134e1576134e061348c565b5b828204905092915050565b7f536166654d6174683a206d756c7469706c69636174696f6e206f766572666c6f60008201527f7700000000000000000000000000000000000000000000000000000000000000602082015250565b60006135486021836129d4565b9150613553826134ec565b604082019050919050565b600060208201905081810360008301526135778161353b565b9050919050565b60006060820190506135936000830186613032565b6135a06020830185613032565b6135ad604083018461284b565b949350505050565b60006040820190506135ca6000830185613032565b6135d7602083018461284b565b9392505050565b60006135e98261239d565b6135f381856129d4565b93506136038185602086016123b9565b61360c81612218565b840191505092915050565b6000602082019050818103600083015261363181846135de565b905092915050565b60006136448261245d565b915061364f8361245d565b925082820390508181111561366757613666612d51565b5b92915050565b60008151905061367c8161273b565b92915050565b60006020828403121561369857613697612204565b5b60006136a68482850161366d565b91505092915050565b7f5361666545524332303a204552433230206f7065726174696f6e20646964206e60008201527f6f74207375636365656400000000000000000000000000000000000000000000602082015250565b600061370b602a836129d4565b9150613716826136af565b604082019050919050565b6000602082019050818103600083015261373a816136fe565b9050919050565b7f416464726573733a20696e73756666696369656e742062616c616e636520666f60008201527f722063616c6c0000000000000000000000000000000000000000000000000000602082015250565b600061379d6026836129d4565b91506137a882613741565b604082019050919050565b600060208201905081810360008301526137cc81613790565b9050919050565b7f416464726573733a2063616c6c20746f206e6f6e2d636f6e7472616374000000600082015250565b6000613809601d836129d4565b9150613814826137d3565b602082019050919050565b60006020820190508181036000830152613838816137fc565b9050919050565b600081519050919050565b600081905092915050565b60006138608261383f565b61386a818561384a565b935061387a8185602086016123b9565b80840191505092915050565b60006138928284613855565b91508190509291505056fe5361666545524332303a206c6f772d6c6576656c2063616c6c206661696c656420736166654465637265617365416c6c6f77616e6365a26469706673582212207de2829eb0442ab008294b8fbedd3946f9b891e8e85b863b18f156a5c406f08764736f6c63430008120033",
					"opcodes": "PUSH1 0x80 PUSH1 0x40 MSTORE CALLVALUE DUP1 ISZERO PUSH2 0x10 JUMPI PUSH1 0x0 DUP1 REVERT JUMPDEST POP PUSH20 0xB8190D84475D09F4324685678A70EF5C2375EF4B PUSH1 0x0 DUP1 PUSH2 0x100 EXP DUP2 SLOAD DUP2 PUSH20 0xFFFFFFFFFFFFFFFFFFFFFFFFFFFFFFFFFFFFFFFF MUL NOT AND SWAP1 DUP4 PUSH20 0xFFFFFFFFFFFFFFFFFFFFFFFFFFFFFFFFFFFFFFFF AND MUL OR SWAP1 SSTORE POP PUSH2 0x3909 DUP1 PUSH2 0x74 PUSH1 0x0 CODECOPY PUSH1 0x0 RETURN INVALID PUSH1 0x80 PUSH1 0x40 MSTORE CALLVALUE DUP1 ISZERO PUSH2 0x10 JUMPI PUSH1 0x0 DUP1 REVERT JUMPDEST POP PUSH1 0x4 CALLDATASIZE LT PUSH2 0xB4 JUMPI PUSH1 0x0 CALLDATALOAD PUSH1 0xE0 SHR DUP1 PUSH4 0x9E1A4D19 GT PUSH2 0x71 JUMPI DUP1 PUSH4 0x9E1A4D19 EQ PUSH2 0x19D JUMPI DUP1 PUSH4 0xB0345A56 EQ PUSH2 0x1BB JUMPI DUP1 PUSH4 0xB03F15C4 EQ PUSH2 0x1D7 JUMPI DUP1 PUSH4 0xC6905603 EQ PUSH2 0x1F3 JUMPI DUP1 PUSH4 0xD4E93292 EQ PUSH2 0x20F JUMPI DUP1 PUSH4 0xF89D0EC9 EQ PUSH2 0x219 JUMPI PUSH2 0xB4 JUMP JUMPDEST DUP1 PUSH4 0x1D3BC3A6 EQ PUSH2 0xB9 JUMPI DUP1 PUSH4 0x20215DC4 EQ PUSH2 0xE9 JUMPI DUP1 PUSH4 0x47CE1F7E EQ PUSH2 0x119 JUMPI DUP1 PUSH4 0x4C846B8B EQ PUSH2 0x135 JUMPI DUP1 PUSH4 0x6441F9D0 EQ PUSH2 0x151 JUMPI DUP1 PUSH4 0x7A3C666D EQ PUSH2 0x181 JUMPI JUMPDEST PUSH1 0x0 DUP1 REVERT JUMPDEST PUSH2 0xD3 PUSH1 0x4 DUP1 CALLDATASIZE SUB DUP2 ADD SWAP1 PUSH2 0xCE SWAP2 SWAP1 PUSH2 0x2354 JUMP JUMPDEST PUSH2 0x24A JUMP JUMPDEST PUSH1 0x40 MLOAD PUSH2 0xE0 SWAP2 SWAP1 PUSH2 0x2595 JUMP JUMPDEST PUSH1 0x40 MLOAD DUP1 SWAP2 SUB SWAP1 RETURN JUMPDEST PUSH2 0x103 PUSH1 0x4 DUP1 CALLDATASIZE SUB DUP2 ADD SWAP1 PUSH2 0xFE SWAP2 SWAP1 PUSH2 0x25E3 JUMP JUMPDEST PUSH2 0x419 JUMP JUMPDEST PUSH1 0x40 MLOAD PUSH2 0x110 SWAP2 SWAP1 PUSH2 0x2719 JUMP JUMPDEST PUSH1 0x40 MLOAD DUP1 SWAP2 SUB SWAP1 RETURN JUMPDEST PUSH2 0x133 PUSH1 0x4 DUP1 CALLDATASIZE SUB DUP2 ADD SWAP1 PUSH2 0x12E SWAP2 SWAP1 PUSH2 0x2767 JUMP JUMPDEST PUSH2 0x5D7 JUMP JUMPDEST STOP JUMPDEST PUSH2 0x14F PUSH1 0x4 DUP1 CALLDATASIZE SUB DUP2 ADD SWAP1 PUSH2 0x14A SWAP2 SWAP1 PUSH2 0x27EF JUMP JUMPDEST PUSH2 0x769 JUMP JUMPDEST STOP JUMPDEST PUSH2 0x16B PUSH1 0x4 DUP1 CALLDATASIZE SUB DUP2 ADD SWAP1 PUSH2 0x166 SWAP2 SWAP1 PUSH2 0x2354 JUMP JUMPDEST PUSH2 0x848 JUMP JUMPDEST PUSH1 0x40 MLOAD PUSH2 0x178 SWAP2 SWAP1 PUSH2 0x2595 JUMP JUMPDEST PUSH1 0x40 MLOAD DUP1 SWAP2 SUB SWAP1 RETURN JUMPDEST PUSH2 0x19B PUSH1 0x4 DUP1 CALLDATASIZE SUB DUP2 ADD SWAP1 PUSH2 0x196 SWAP2 SWAP1 PUSH2 0x27EF JUMP JUMPDEST PUSH2 0xA11 JUMP JUMPDEST STOP JUMPDEST PUSH2 0x1A5 PUSH2 0x111B JUMP JUMPDEST PUSH1 0x40 MLOAD PUSH2 0x1B2 SWAP2 SWAP1 PUSH2 0x285A JUMP JUMPDEST PUSH1 0x40 MLOAD DUP1 SWAP2 SUB SWAP1 RETURN JUMPDEST PUSH2 0x1D5 PUSH1 0x4 DUP1 CALLDATASIZE SUB DUP2 ADD SWAP1 PUSH2 0x1D0 SWAP2 SWAP1 PUSH2 0x2354 JUMP JUMPDEST PUSH2 0x11C1 JUMP JUMPDEST STOP JUMPDEST PUSH2 0x1F1 PUSH1 0x4 DUP1 CALLDATASIZE SUB DUP2 ADD SWAP1 PUSH2 0x1EC SWAP2 SWAP1 PUSH2 0x2354 JUMP JUMPDEST PUSH2 0x1533 JUMP JUMPDEST STOP JUMPDEST PUSH2 0x20D PUSH1 0x4 DUP1 CALLDATASIZE SUB DUP2 ADD SWAP1 PUSH2 0x208 SWAP2 SWAP1 PUSH2 0x2875 JUMP JUMPDEST PUSH2 0x17E4 JUMP JUMPDEST STOP JUMPDEST PUSH2 0x217 PUSH2 0x1A9D JUMP JUMPDEST STOP JUMPDEST PUSH2 0x233 PUSH1 0x4 DUP1 CALLDATASIZE SUB DUP2 ADD SWAP1 PUSH2 0x22E SWAP2 SWAP1 PUSH2 0x27EF JUMP JUMPDEST PUSH2 0x1B05 JUMP JUMPDEST PUSH1 0x40 MLOAD PUSH2 0x241 SWAP3 SWAP2 SWAP1 PUSH2 0x28F8 JUMP JUMPDEST PUSH1 0x40 MLOAD DUP1 SWAP2 SUB SWAP1 RETURN JUMPDEST PUSH2 0x252 PUSH2 0x211E JUMP JUMPDEST PUSH1 0x0 PUSH1 0x1 DUP4 PUSH1 0x40 MLOAD PUSH2 0x264 SWAP2 SWAP1 PUSH2 0x295D JUMP JUMPDEST SWAP1 DUP2 MSTORE PUSH1 0x20 ADD PUSH1 0x40 MLOAD DUP1 SWAP2 SUB SWAP1 KECCAK256 PUSH1 0x40 MLOAD DUP1 PUSH2 0x180 ADD PUSH1 0x40 MSTORE SWAP1 DUP2 PUSH1 0x0 DUP3 ADD DUP1 SLOAD PUSH2 0x28E SWAP1 PUSH2 0x29A3 JUMP JUMPDEST DUP1 PUSH1 0x1F ADD PUSH1 0x20 DUP1 SWAP2 DIV MUL PUSH1 0x20 ADD PUSH1 0x40 MLOAD SWAP1 DUP2 ADD PUSH1 0x40 MSTORE DUP1 SWAP3 SWAP2 SWAP1 DUP2 DUP2 MSTORE PUSH1 0x20 ADD DUP3 DUP1 SLOAD PUSH2 0x2BA SWAP1 PUSH2 0x29A3 JUMP JUMPDEST DUP1 ISZERO PUSH2 0x307 JUMPI DUP1 PUSH1 0x1F LT PUSH2 0x2DC JUMPI PUSH2 0x100 DUP1 DUP4 SLOAD DIV MUL DUP4 MSTORE SWAP2 PUSH1 0x20 ADD SWAP2 PUSH2 0x307 JUMP JUMPDEST DUP3 ADD SWAP2 SWAP1 PUSH1 0x0 MSTORE PUSH1 0x20 PUSH1 0x0 KECCAK256 SWAP1 JUMPDEST DUP2 SLOAD DUP2 MSTORE SWAP1 PUSH1 0x1 ADD SWAP1 PUSH1 0x20 ADD DUP1 DUP4 GT PUSH2 0x2EA JUMPI DUP3 SWAP1 SUB PUSH1 0x1F AND DUP3 ADD SWAP2 JUMPDEST POP POP POP POP POP DUP2 MSTORE PUSH1 0x20 ADD PUSH1 0x1 DUP3 ADD PUSH1 0x0 SWAP1 SLOAD SWAP1 PUSH2 0x100 EXP SWAP1 DIV PUSH20 0xFFFFFFFFFFFFFFFFFFFFFFFFFFFFFFFFFFFFFFFF AND PUSH20 0xFFFFFFFFFFFFFFFFFFFFFFFFFFFFFFFFFFFFFFFF AND PUSH20 0xFFFFFFFFFFFFFFFFFFFFFFFFFFFFFFFFFFFFFFFF AND DUP2 MSTORE PUSH1 0x20 ADD PUSH1 0x2 DUP3 ADD SLOAD DUP2 MSTORE PUSH1 0x20 ADD PUSH1 0x3 DUP3 ADD SLOAD DUP2 MSTORE PUSH1 0x20 ADD PUSH1 0x4 DUP3 ADD PUSH1 0x0 SWAP1 SLOAD SWAP1 PUSH2 0x100 EXP SWAP1 DIV PUSH1 0xFF AND ISZERO ISZERO ISZERO ISZERO DUP2 MSTORE PUSH1 0x20 ADD PUSH1 0x4 DUP3 ADD PUSH1 0x1 SWAP1 SLOAD SWAP1 PUSH2 0x100 EXP SWAP1 DIV PUSH1 0xFF AND ISZERO ISZERO ISZERO ISZERO DUP2 MSTORE PUSH1 0x20 ADD PUSH1 0x4 DUP3 ADD PUSH1 0x2 SWAP1 SLOAD SWAP1 PUSH2 0x100 EXP SWAP1 DIV PUSH1 0xFF AND ISZERO ISZERO ISZERO ISZERO DUP2 MSTORE PUSH1 0x20 ADD PUSH1 0x5 DUP3 ADD SLOAD DUP2 MSTORE PUSH1 0x20 ADD PUSH1 0x6 DUP3 ADD PUSH1 0x0 SWAP1 SLOAD SWAP1 PUSH2 0x100 EXP SWAP1 DIV PUSH1 0xFF AND ISZERO ISZERO ISZERO ISZERO DUP2 MSTORE PUSH1 0x20 ADD PUSH1 0x7 DUP3 ADD SLOAD DUP2 MSTORE PUSH1 0x20 ADD PUSH1 0x8 DUP3 ADD SLOAD DUP2 MSTORE PUSH1 0x20 ADD PUSH1 0x9 DUP3 ADD SLOAD DUP2 MSTORE POP POP SWAP1 POP DUP1 SWAP2 POP POP SWAP2 SWAP1 POP JUMP JUMPDEST PUSH2 0x421 PUSH2 0x219D JUMP JUMPDEST PUSH1 0x0 PUSH1 0x2 DUP5 PUSH1 0x40 MLOAD PUSH2 0x433 SWAP2 SWAP1 PUSH2 0x295D JUMP JUMPDEST SWAP1 DUP2 MSTORE PUSH1 0x20 ADD PUSH1 0x40 MLOAD DUP1 SWAP2 SUB SWAP1 KECCAK256 PUSH1 0x0 DUP5 PUSH20 0xFFFFFFFFFFFFFFFFFFFFFFFFFFFFFFFFFFFFFFFF AND PUSH20 0xFFFFFFFFFFFFFFFFFFFFFFFFFFFFFFFFFFFFFFFF AND DUP2 MSTORE PUSH1 0x20 ADD SWAP1 DUP2 MSTORE PUSH1 0x20 ADD PUSH1 0x0 KECCAK256 PUSH1 0x40 MLOAD DUP1 PUSH2 0x140 ADD PUSH1 0x40 MSTORE SWAP1 DUP2 PUSH1 0x0 DUP3 ADD SLOAD DUP2 MSTORE PUSH1 0x20 ADD PUSH1 0x1 DUP3 ADD SLOAD DUP2 MSTORE PUSH1 0x20 ADD PUSH1 0x2 DUP3 ADD PUSH1 0x0 SWAP1 SLOAD SWAP1 PUSH2 0x100 EXP SWAP1 DIV PUSH1 0xFF AND ISZERO ISZERO ISZERO ISZERO DUP2 MSTORE PUSH1 0x20 ADD PUSH1 0x2 DUP3 ADD PUSH1 0x1 SWAP1 SLOAD SWAP1 PUSH2 0x100 EXP SWAP1 DIV PUSH1 0xFF AND ISZERO ISZERO ISZERO ISZERO DUP2 MSTORE PUSH1 0x20 ADD PUSH1 0x2 DUP3 ADD PUSH1 0x2 SWAP1 SLOAD SWAP1 PUSH2 0x100 EXP SWAP1 DIV PUSH1 0xFF AND ISZERO ISZERO ISZERO ISZERO DUP2 MSTORE PUSH1 0x20 ADD PUSH1 0x2 DUP3 ADD PUSH1 0x3 SWAP1 SLOAD SWAP1 PUSH2 0x100 EXP SWAP1 DIV PUSH1 0xFF AND ISZERO ISZERO ISZERO ISZERO DUP2 MSTORE PUSH1 0x20 ADD PUSH1 0x2 DUP3 ADD PUSH1 0x4 SWAP1 SLOAD SWAP1 PUSH2 0x100 EXP SWAP1 DIV PUSH1 0xFF AND ISZERO ISZERO ISZERO ISZERO DUP2 MSTORE PUSH1 0x20 ADD PUSH1 0x3 DUP3 ADD SLOAD DUP2 MSTORE PUSH1 0x20 ADD PUSH1 0x4 DUP3 ADD SLOAD DUP2 MSTORE PUSH1 0x20 ADD PUSH1 0x5 DUP3 ADD DUP1 SLOAD PUSH2 0x549 SWAP1 PUSH2 0x29A3 JUMP JUMPDEST DUP1 PUSH1 0x1F ADD PUSH1 0x20 DUP1 SWAP2 DIV MUL PUSH1 0x20 ADD PUSH1 0x40 MLOAD SWAP1 DUP2 ADD PUSH1 0x40 MSTORE DUP1 SWAP3 SWAP2 SWAP1 DUP2 DUP2 MSTORE PUSH1 0x20 ADD DUP3 DUP1 SLOAD PUSH2 0x575 SWAP1 PUSH2 0x29A3 JUMP JUMPDEST DUP1 ISZERO PUSH2 0x5C2 JUMPI DUP1 PUSH1 0x1F LT PUSH2 0x597 JUMPI PUSH2 0x100 DUP1 DUP4 SLOAD DIV MUL DUP4 MSTORE SWAP2 PUSH1 0x20 ADD SWAP2 PUSH2 0x5C2 JUMP JUMPDEST DUP3 ADD SWAP2 SWAP1 PUSH1 0x0 MSTORE PUSH1 0x20 PUSH1 0x0 KECCAK256 SWAP1 JUMPDEST DUP2 SLOAD DUP2 MSTORE SWAP1 PUSH1 0x1 ADD SWAP1 PUSH1 0x20 ADD DUP1 DUP4 GT PUSH2 0x5A5 JUMPI DUP3 SWAP1 SUB PUSH1 0x1F AND DUP3 ADD SWAP2 JUMPDEST POP POP POP POP POP DUP2 MSTORE POP POP SWAP1 POP DUP1 SWAP2 POP POP SWAP3 SWAP2 POP POP JUMP JUMPDEST PUSH1 0x1 DUP1 DUP4 PUSH1 0x40 MLOAD PUSH2 0x5E8 SWAP2 SWAP1 PUSH2 0x295D JUMP JUMPDEST SWAP1 DUP2 MSTORE PUSH1 0x20 ADD PUSH1 0x40 MLOAD DUP1 SWAP2 SUB SWAP1 KECCAK256 PUSH1 0x4 ADD PUSH1 0x0 PUSH2 0x100 EXP DUP2 SLOAD DUP2 PUSH1 0xFF MUL NOT AND SWAP1 DUP4 ISZERO ISZERO MUL OR SWAP1 SSTORE POP DUP1 PUSH1 0x1 DUP4 PUSH1 0x40 MLOAD PUSH2 0x621 SWAP2 SWAP1 PUSH2 0x295D JUMP JUMPDEST SWAP1 DUP2 MSTORE PUSH1 0x20 ADD PUSH1 0x40 MLOAD DUP1 SWAP2 SUB SWAP1 KECCAK256 PUSH1 0x4 ADD PUSH1 0x2 PUSH2 0x100 EXP DUP2 SLOAD DUP2 PUSH1 0xFF MUL NOT AND SWAP1 DUP4 ISZERO ISZERO MUL OR SWAP1 SSTORE POP PUSH1 0x0 PUSH1 0x1 DUP4 PUSH1 0x40 MLOAD PUSH2 0x65B SWAP2 SWAP1 PUSH2 0x295D JUMP JUMPDEST SWAP1 DUP2 MSTORE PUSH1 0x20 ADD PUSH1 0x40 MLOAD DUP1 SWAP2 SUB SWAP1 KECCAK256 PUSH1 0x5 ADD SLOAD SWAP1 POP PUSH1 0x0 PUSH1 0x1 DUP5 PUSH1 0x40 MLOAD PUSH2 0x681 SWAP2 SWAP1 PUSH2 0x295D JUMP JUMPDEST SWAP1 DUP2 MSTORE PUSH1 0x20 ADD PUSH1 0x40 MLOAD DUP1 SWAP2 SUB SWAP1 KECCAK256 PUSH1 0x2 ADD SLOAD SWAP1 POP PUSH1 0x0 PUSH1 0x1 DUP6 PUSH1 0x40 MLOAD PUSH2 0x6A7 SWAP2 SWAP1 PUSH2 0x295D JUMP JUMPDEST SWAP1 DUP2 MSTORE PUSH1 0x20 ADD PUSH1 0x40 MLOAD DUP1 SWAP2 SUB SWAP1 KECCAK256 PUSH1 0x8 ADD SLOAD SWAP1 POP DUP4 ISZERO PUSH2 0x6FE JUMPI PUSH2 0x6D4 DUP3 DUP5 PUSH2 0x1B7C SWAP1 SWAP2 SWAP1 PUSH4 0xFFFFFFFF AND JUMP JUMPDEST PUSH1 0x1 DUP7 PUSH1 0x40 MLOAD PUSH2 0x6E4 SWAP2 SWAP1 PUSH2 0x295D JUMP JUMPDEST SWAP1 DUP2 MSTORE PUSH1 0x20 ADD PUSH1 0x40 MLOAD DUP1 SWAP2 SUB SWAP1 KECCAK256 PUSH1 0x7 ADD DUP2 SWAP1 SSTORE POP PUSH2 0x762 JUMP JUMPDEST PUSH1 0x0 PUSH2 0x738 PUSH2 0x729 PUSH2 0x71A PUSH1 0x1 DUP6 PUSH2 0x1BDA SWAP1 SWAP2 SWAP1 PUSH4 0xFFFFFFFF AND JUMP JUMPDEST DUP7 PUSH2 0x1C24 SWAP1 SWAP2 SWAP1 PUSH4 0xFFFFFFFF AND JUMP JUMPDEST DUP5 PUSH2 0x1BDA SWAP1 SWAP2 SWAP1 PUSH4 0xFFFFFFFF AND JUMP JUMPDEST SWAP1 POP DUP1 PUSH1 0x1 DUP8 PUSH1 0x40 MLOAD PUSH2 0x74B SWAP2 SWAP1 PUSH2 0x295D JUMP JUMPDEST SWAP1 DUP2 MSTORE PUSH1 0x20 ADD PUSH1 0x40 MLOAD DUP1 SWAP2 SUB SWAP1 KECCAK256 PUSH1 0x7 ADD DUP2 SWAP1 SSTORE POP POP JUMPDEST POP POP POP POP POP JUMP JUMPDEST PUSH1 0x0 PUSH1 0x1 DUP4 PUSH1 0x40 MLOAD PUSH2 0x77B SWAP2 SWAP1 PUSH2 0x295D JUMP JUMPDEST SWAP1 DUP2 MSTORE PUSH1 0x20 ADD PUSH1 0x40 MLOAD DUP1 SWAP2 SUB SWAP1 KECCAK256 PUSH1 0x1 ADD PUSH1 0x0 SWAP1 SLOAD SWAP1 PUSH2 0x100 EXP SWAP1 DIV PUSH20 0xFFFFFFFFFFFFFFFFFFFFFFFFFFFFFFFFFFFFFFFF AND SWAP1 POP CALLER PUSH20 0xFFFFFFFFFFFFFFFFFFFFFFFFFFFFFFFFFFFFFFFF AND DUP2 PUSH20 0xFFFFFFFFFFFFFFFFFFFFFFFFFFFFFFFFFFFFFFFF AND EQ PUSH2 0x81D JUMPI PUSH1 0x40 MLOAD PUSH32 0x8C379A000000000000000000000000000000000000000000000000000000000 DUP2 MSTORE PUSH1 0x4 ADD PUSH2 0x814 SWAP1 PUSH2 0x2A57 JUMP JUMPDEST PUSH1 0x40 MLOAD DUP1 SWAP2 SUB SWAP1 REVERT JUMPDEST DUP2 PUSH1 0x1 DUP5 PUSH1 0x40 MLOAD PUSH2 0x82E SWAP2 SWAP1 PUSH2 0x295D JUMP JUMPDEST SWAP1 DUP2 MSTORE PUSH1 0x20 ADD PUSH1 0x40 MLOAD DUP1 SWAP2 SUB SWAP1 KECCAK256 PUSH1 0x3 ADD DUP2 SWAP1 SSTORE POP POP POP POP JUMP JUMPDEST PUSH2 0x850 PUSH2 0x211E JUMP JUMPDEST PUSH1 0x1 DUP3 PUSH1 0x40 MLOAD PUSH2 0x860 SWAP2 SWAP1 PUSH2 0x295D JUMP JUMPDEST SWAP1 DUP2 MSTORE PUSH1 0x20 ADD PUSH1 0x40 MLOAD DUP1 SWAP2 SUB SWAP1 KECCAK256 PUSH1 0x40 MLOAD DUP1 PUSH2 0x180 ADD PUSH1 0x40 MSTORE SWAP1 DUP2 PUSH1 0x0 DUP3 ADD DUP1 SLOAD PUSH2 0x88A SWAP1 PUSH2 0x29A3 JUMP JUMPDEST DUP1 PUSH1 0x1F ADD PUSH1 0x20 DUP1 SWAP2 DIV MUL PUSH1 0x20 ADD PUSH1 0x40 MLOAD SWAP1 DUP2 ADD PUSH1 0x40 MSTORE DUP1 SWAP3 SWAP2 SWAP1 DUP2 DUP2 MSTORE PUSH1 0x20 ADD DUP3 DUP1 SLOAD PUSH2 0x8B6 SWAP1 PUSH2 0x29A3 JUMP JUMPDEST DUP1 ISZERO PUSH2 0x903 JUMPI DUP1 PUSH1 0x1F LT PUSH2 0x8D8 JUMPI PUSH2 0x100 DUP1 DUP4 SLOAD DIV MUL DUP4 MSTORE SWAP2 PUSH1 0x20 ADD SWAP2 PUSH2 0x903 JUMP JUMPDEST DUP3 ADD SWAP2 SWAP1 PUSH1 0x0 MSTORE PUSH1 0x20 PUSH1 0x0 KECCAK256 SWAP1 JUMPDEST DUP2 SLOAD DUP2 MSTORE SWAP1 PUSH1 0x1 ADD SWAP1 PUSH1 0x20 ADD DUP1 DUP4 GT PUSH2 0x8E6 JUMPI DUP3 SWAP1 SUB PUSH1 0x1F AND DUP3 ADD SWAP2 JUMPDEST POP POP POP POP POP DUP2 MSTORE PUSH1 0x20 ADD PUSH1 0x1 DUP3 ADD PUSH1 0x0 SWAP1 SLOAD SWAP1 PUSH2 0x100 EXP SWAP1 DIV PUSH20 0xFFFFFFFFFFFFFFFFFFFFFFFFFFFFFFFFFFFFFFFF AND PUSH20 0xFFFFFFFFFFFFFFFFFFFFFFFFFFFFFFFFFFFFFFFF AND PUSH20 0xFFFFFFFFFFFFFFFFFFFFFFFFFFFFFFFFFFFFFFFF AND DUP2 MSTORE PUSH1 0x20 ADD PUSH1 0x2 DUP3 ADD SLOAD DUP2 MSTORE PUSH1 0x20 ADD PUSH1 0x3 DUP3 ADD SLOAD DUP2 MSTORE PUSH1 0x20 ADD PUSH1 0x4 DUP3 ADD PUSH1 0x0 SWAP1 SLOAD SWAP1 PUSH2 0x100 EXP SWAP1 DIV PUSH1 0xFF AND ISZERO ISZERO ISZERO ISZERO DUP2 MSTORE PUSH1 0x20 ADD PUSH1 0x4 DUP3 ADD PUSH1 0x1 SWAP1 SLOAD SWAP1 PUSH2 0x100 EXP SWAP1 DIV PUSH1 0xFF AND ISZERO ISZERO ISZERO ISZERO DUP2 MSTORE PUSH1 0x20 ADD PUSH1 0x4 DUP3 ADD PUSH1 0x2 SWAP1 SLOAD SWAP1 PUSH2 0x100 EXP SWAP1 DIV PUSH1 0xFF AND ISZERO ISZERO ISZERO ISZERO DUP2 MSTORE PUSH1 0x20 ADD PUSH1 0x5 DUP3 ADD SLOAD DUP2 MSTORE PUSH1 0x20 ADD PUSH1 0x6 DUP3 ADD PUSH1 0x0 SWAP1 SLOAD SWAP1 PUSH2 0x100 EXP SWAP1 DIV PUSH1 0xFF AND ISZERO ISZERO ISZERO ISZERO DUP2 MSTORE PUSH1 0x20 ADD PUSH1 0x7 DUP3 ADD SLOAD DUP2 MSTORE PUSH1 0x20 ADD PUSH1 0x8 DUP3 ADD SLOAD DUP2 MSTORE PUSH1 0x20 ADD PUSH1 0x9 DUP3 ADD SLOAD DUP2 MSTORE POP POP SWAP1 POP SWAP2 SWAP1 POP JUMP JUMPDEST PUSH1 0x0 PUSH1 0x1 DUP4 PUSH1 0x40 MLOAD PUSH2 0xA23 SWAP2 SWAP1 PUSH2 0x295D JUMP JUMPDEST SWAP1 DUP2 MSTORE PUSH1 0x20 ADD PUSH1 0x40 MLOAD DUP1 SWAP2 SUB SWAP1 KECCAK256 PUSH1 0x8 ADD SLOAD SWAP1 POP PUSH1 0x0 PUSH1 0x1 DUP5 PUSH1 0x40 MLOAD PUSH2 0xA49 SWAP2 SWAP1 PUSH2 0x295D JUMP JUMPDEST SWAP1 DUP2 MSTORE PUSH1 0x20 ADD PUSH1 0x40 MLOAD DUP1 SWAP2 SUB SWAP1 KECCAK256 PUSH1 0x1 ADD PUSH1 0x0 SWAP1 SLOAD SWAP1 PUSH2 0x100 EXP SWAP1 DIV PUSH20 0xFFFFFFFFFFFFFFFFFFFFFFFFFFFFFFFFFFFFFFFF AND SWAP1 POP CALLER PUSH20 0xFFFFFFFFFFFFFFFFFFFFFFFFFFFFFFFFFFFFFFFF AND DUP2 PUSH20 0xFFFFFFFFFFFFFFFFFFFFFFFFFFFFFFFFFFFFFFFF AND SUB PUSH2 0xAEB JUMPI PUSH1 0x40 MLOAD PUSH32 0x8C379A000000000000000000000000000000000000000000000000000000000 DUP2 MSTORE PUSH1 0x4 ADD PUSH2 0xAE2 SWAP1 PUSH2 0x2AE9 JUMP JUMPDEST PUSH1 0x40 MLOAD DUP1 SWAP2 SUB SWAP1 REVERT JUMPDEST PUSH1 0x0 ISZERO ISZERO PUSH1 0x1 DUP6 PUSH1 0x40 MLOAD PUSH2 0xAFF SWAP2 SWAP1 PUSH2 0x295D JUMP JUMPDEST SWAP1 DUP2 MSTORE PUSH1 0x20 ADD PUSH1 0x40 MLOAD DUP1 SWAP2 SUB SWAP1 KECCAK256 PUSH1 0x4 ADD PUSH1 0x0 SWAP1 SLOAD SWAP1 PUSH2 0x100 EXP SWAP1 DIV PUSH1 0xFF AND ISZERO ISZERO EQ PUSH2 0xB60 JUMPI PUSH1 0x40 MLOAD PUSH32 0x8C379A000000000000000000000000000000000000000000000000000000000 DUP2 MSTORE PUSH1 0x4 ADD PUSH2 0xB57 SWAP1 PUSH2 0x2B55 JUMP JUMPDEST PUSH1 0x40 MLOAD DUP1 SWAP2 SUB SWAP1 REVERT JUMPDEST TIMESTAMP PUSH1 0x1 DUP6 PUSH1 0x40 MLOAD PUSH2 0xB71 SWAP2 SWAP1 PUSH2 0x295D JUMP JUMPDEST SWAP1 DUP2 MSTORE PUSH1 0x20 ADD PUSH1 0x40 MLOAD DUP1 SWAP2 SUB SWAP1 KECCAK256 PUSH1 0x3 ADD SLOAD GT PUSH2 0xBC3 JUMPI PUSH1 0x40 MLOAD PUSH32 0x8C379A000000000000000000000000000000000000000000000000000000000 DUP2 MSTORE PUSH1 0x4 ADD PUSH2 0xBBA SWAP1 PUSH2 0x2BE7 JUMP JUMPDEST PUSH1 0x40 MLOAD DUP1 SWAP2 SUB SWAP1 REVERT JUMPDEST PUSH2 0xC0A PUSH2 0xBDA PUSH1 0x1 DUP5 PUSH2 0x1BDA SWAP1 SWAP2 SWAP1 PUSH4 0xFFFFFFFF AND JUMP JUMPDEST PUSH1 0x1 DUP7 PUSH1 0x40 MLOAD PUSH2 0xBEA SWAP2 SWAP1 PUSH2 0x295D JUMP JUMPDEST SWAP1 DUP2 MSTORE PUSH1 0x20 ADD PUSH1 0x40 MLOAD DUP1 SWAP2 SUB SWAP1 KECCAK256 PUSH1 0x2 ADD SLOAD PUSH2 0x1C9E SWAP1 SWAP2 SWAP1 PUSH4 0xFFFFFFFF AND JUMP JUMPDEST PUSH2 0xC3E DUP5 PUSH1 0x1 DUP8 PUSH1 0x40 MLOAD PUSH2 0xC1E SWAP2 SWAP1 PUSH2 0x295D JUMP JUMPDEST SWAP1 DUP2 MSTORE PUSH1 0x20 ADD PUSH1 0x40 MLOAD DUP1 SWAP2 SUB SWAP1 KECCAK256 PUSH1 0x5 ADD SLOAD PUSH2 0x1B7C SWAP1 SWAP2 SWAP1 PUSH4 0xFFFFFFFF AND JUMP JUMPDEST GT ISZERO PUSH2 0xC7F JUMPI PUSH1 0x40 MLOAD PUSH32 0x8C379A000000000000000000000000000000000000000000000000000000000 DUP2 MSTORE PUSH1 0x4 ADD PUSH2 0xC76 SWAP1 PUSH2 0x2C9F JUMP JUMPDEST PUSH1 0x40 MLOAD DUP1 SWAP2 SUB SWAP1 REVERT JUMPDEST PUSH1 0x0 DUP4 GT PUSH2 0xCC2 JUMPI PUSH1 0x40 MLOAD PUSH32 0x8C379A000000000000000000000000000000000000000000000000000000000 DUP2 MSTORE PUSH1 0x4 ADD PUSH2 0xCB9 SWAP1 PUSH2 0x2D31 JUMP JUMPDEST PUSH1 0x40 MLOAD DUP1 SWAP2 SUB SWAP1 REVERT JUMPDEST PUSH2 0xD0F CALLER ADDRESS DUP6 PUSH1 0x0 DUP1 SLOAD SWAP1 PUSH2 0x100 EXP SWAP1 DIV PUSH20 0xFFFFFFFFFFFFFFFFFFFFFFFFFFFFFFFFFFFFFFFF AND PUSH20 0xFFFFFFFFFFFFFFFFFFFFFFFFFFFFFFFFFFFFFFFF AND PUSH2 0x1CE8 SWAP1 SWAP4 SWAP3 SWAP2 SWAP1 PUSH4 0xFFFFFFFF AND JUMP JUMPDEST PUSH1 0x0 PUSH1 0x2 DUP6 PUSH1 0x40 MLOAD PUSH2 0xD21 SWAP2 SWAP1 PUSH2 0x295D JUMP JUMPDEST SWAP1 DUP2 MSTORE PUSH1 0x20 ADD PUSH1 0x40 MLOAD DUP1 SWAP2 SUB SWAP1 KECCAK256 PUSH1 0x0 CALLER PUSH20 0xFFFFFFFFFFFFFFFFFFFFFFFFFFFFFFFFFFFFFFFF AND PUSH20 0xFFFFFFFFFFFFFFFFFFFFFFFFFFFFFFFFFFFFFFFF AND DUP2 MSTORE PUSH1 0x20 ADD SWAP1 DUP2 MSTORE PUSH1 0x20 ADD PUSH1 0x0 KECCAK256 PUSH1 0x0 ADD SLOAD SUB PUSH2 0xDAE JUMPI PUSH1 0x1 DUP1 DUP6 PUSH1 0x40 MLOAD PUSH2 0xD86 SWAP2 SWAP1 PUSH2 0x295D JUMP JUMPDEST SWAP1 DUP2 MSTORE PUSH1 0x20 ADD PUSH1 0x40 MLOAD DUP1 SWAP2 SUB SWAP1 KECCAK256 PUSH1 0x9 ADD PUSH1 0x0 DUP3 DUP3 SLOAD PUSH2 0xDA6 SWAP2 SWAP1 PUSH2 0x2D80 JUMP JUMPDEST SWAP3 POP POP DUP2 SWAP1 SSTORE POP JUMPDEST DUP3 PUSH1 0x2 DUP6 PUSH1 0x40 MLOAD PUSH2 0xDBF SWAP2 SWAP1 PUSH2 0x295D JUMP JUMPDEST SWAP1 DUP2 MSTORE PUSH1 0x20 ADD PUSH1 0x40 MLOAD DUP1 SWAP2 SUB SWAP1 KECCAK256 PUSH1 0x0 CALLER PUSH20 0xFFFFFFFFFFFFFFFFFFFFFFFFFFFFFFFFFFFFFFFF AND PUSH20 0xFFFFFFFFFFFFFFFFFFFFFFFFFFFFFFFFFFFFFFFF AND DUP2 MSTORE PUSH1 0x20 ADD SWAP1 DUP2 MSTORE PUSH1 0x20 ADD PUSH1 0x0 KECCAK256 PUSH1 0x0 ADD PUSH1 0x0 DUP3 DUP3 SLOAD PUSH2 0xE1C SWAP2 SWAP1 PUSH2 0x2D80 JUMP JUMPDEST SWAP3 POP POP DUP2 SWAP1 SSTORE POP TIMESTAMP PUSH1 0x2 DUP6 PUSH1 0x40 MLOAD PUSH2 0xE34 SWAP2 SWAP1 PUSH2 0x295D JUMP JUMPDEST SWAP1 DUP2 MSTORE PUSH1 0x20 ADD PUSH1 0x40 MLOAD DUP1 SWAP2 SUB SWAP1 KECCAK256 PUSH1 0x0 CALLER PUSH20 0xFFFFFFFFFFFFFFFFFFFFFFFFFFFFFFFFFFFFFFFF AND PUSH20 0xFFFFFFFFFFFFFFFFFFFFFFFFFFFFFFFFFFFFFFFF AND DUP2 MSTORE PUSH1 0x20 ADD SWAP1 DUP2 MSTORE PUSH1 0x20 ADD PUSH1 0x0 KECCAK256 PUSH1 0x1 ADD DUP2 SWAP1 SSTORE POP PUSH1 0x0 PUSH1 0x2 DUP6 PUSH1 0x40 MLOAD PUSH2 0xE98 SWAP2 SWAP1 PUSH2 0x295D JUMP JUMPDEST SWAP1 DUP2 MSTORE PUSH1 0x20 ADD PUSH1 0x40 MLOAD DUP1 SWAP2 SUB SWAP1 KECCAK256 PUSH1 0x0 CALLER PUSH20 0xFFFFFFFFFFFFFFFFFFFFFFFFFFFFFFFFFFFFFFFF AND PUSH20 0xFFFFFFFFFFFFFFFFFFFFFFFFFFFFFFFFFFFFFFFF AND DUP2 MSTORE PUSH1 0x20 ADD SWAP1 DUP2 MSTORE PUSH1 0x20 ADD PUSH1 0x0 KECCAK256 PUSH1 0x2 ADD PUSH1 0x1 PUSH2 0x100 EXP DUP2 SLOAD DUP2 PUSH1 0xFF MUL NOT AND SWAP1 DUP4 ISZERO ISZERO MUL OR SWAP1 SSTORE POP PUSH1 0x1 PUSH1 0x2 DUP6 PUSH1 0x40 MLOAD PUSH2 0xF0F SWAP2 SWAP1 PUSH2 0x295D JUMP JUMPDEST SWAP1 DUP2 MSTORE PUSH1 0x20 ADD PUSH1 0x40 MLOAD DUP1 SWAP2 SUB SWAP1 KECCAK256 PUSH1 0x0 CALLER PUSH20 0xFFFFFFFFFFFFFFFFFFFFFFFFFFFFFFFFFFFFFFFF AND PUSH20 0xFFFFFFFFFFFFFFFFFFFFFFFFFFFFFFFFFFFFFFFF AND DUP2 MSTORE PUSH1 0x20 ADD SWAP1 DUP2 MSTORE PUSH1 0x20 ADD PUSH1 0x0 KECCAK256 PUSH1 0x2 ADD PUSH1 0x4 PUSH2 0x100 EXP DUP2 SLOAD DUP2 PUSH1 0xFF MUL NOT AND SWAP1 DUP4 ISZERO ISZERO MUL OR SWAP1 SSTORE POP PUSH2 0xF87 DUP3 DUP5 PUSH2 0x1C24 SWAP1 SWAP2 SWAP1 PUSH4 0xFFFFFFFF AND JUMP JUMPDEST PUSH1 0x2 DUP6 PUSH1 0x40 MLOAD PUSH2 0xF97 SWAP2 SWAP1 PUSH2 0x295D JUMP JUMPDEST SWAP1 DUP2 MSTORE PUSH1 0x20 ADD PUSH1 0x40 MLOAD DUP1 SWAP2 SUB SWAP1 KECCAK256 PUSH1 0x0 CALLER PUSH20 0xFFFFFFFFFFFFFFFFFFFFFFFFFFFFFFFFFFFFFFFF AND PUSH20 0xFFFFFFFFFFFFFFFFFFFFFFFFFFFFFFFFFFFFFFFF AND DUP2 MSTORE PUSH1 0x20 ADD SWAP1 DUP2 MSTORE PUSH1 0x20 ADD PUSH1 0x0 KECCAK256 PUSH1 0x3 ADD PUSH1 0x0 DUP3 DUP3 SLOAD PUSH2 0xFF4 SWAP2 SWAP1 PUSH2 0x2D80 JUMP JUMPDEST SWAP3 POP POP DUP2 SWAP1 SSTORE POP PUSH1 0x1 PUSH1 0x2 DUP6 PUSH1 0x40 MLOAD PUSH2 0x100D SWAP2 SWAP1 PUSH2 0x295D JUMP JUMPDEST SWAP1 DUP2 MSTORE PUSH1 0x20 ADD PUSH1 0x40 MLOAD DUP1 SWAP2 SUB SWAP1 KECCAK256 PUSH1 0x0 CALLER PUSH20 0xFFFFFFFFFFFFFFFFFFFFFFFFFFFFFFFFFFFFFFFF AND PUSH20 0xFFFFFFFFFFFFFFFFFFFFFFFFFFFFFFFFFFFFFFFF AND DUP2 MSTORE PUSH1 0x20 ADD SWAP1 DUP2 MSTORE PUSH1 0x20 ADD PUSH1 0x0 KECCAK256 PUSH1 0x4 ADD PUSH1 0x0 DUP3 DUP3 SLOAD PUSH2 0x106A SWAP2 SWAP1 PUSH2 0x2D80 JUMP JUMPDEST SWAP3 POP POP DUP2 SWAP1 SSTORE POP DUP4 PUSH1 0x2 DUP6 PUSH1 0x40 MLOAD PUSH2 0x1082 SWAP2 SWAP1 PUSH2 0x295D JUMP JUMPDEST SWAP1 DUP2 MSTORE PUSH1 0x20 ADD PUSH1 0x40 MLOAD DUP1 SWAP2 SUB SWAP1 KECCAK256 PUSH1 0x0 CALLER PUSH20 0xFFFFFFFFFFFFFFFFFFFFFFFFFFFFFFFFFFFFFFFF AND PUSH20 0xFFFFFFFFFFFFFFFFFFFFFFFFFFFFFFFFFFFFFFFF AND DUP2 MSTORE PUSH1 0x20 ADD SWAP1 DUP2 MSTORE PUSH1 0x20 ADD PUSH1 0x0 KECCAK256 PUSH1 0x5 ADD SWAP1 DUP2 PUSH2 0x10DC SWAP2 SWAP1 PUSH2 0x2F60 JUMP JUMPDEST POP DUP3 PUSH1 0x1 DUP6 PUSH1 0x40 MLOAD PUSH2 0x10EE SWAP2 SWAP1 PUSH2 0x295D JUMP JUMPDEST SWAP1 DUP2 MSTORE PUSH1 0x20 ADD PUSH1 0x40 MLOAD DUP1 SWAP2 SUB SWAP1 KECCAK256 PUSH1 0x5 ADD PUSH1 0x0 DUP3 DUP3 SLOAD PUSH2 0x110E SWAP2 SWAP1 PUSH2 0x2D80 JUMP JUMPDEST SWAP3 POP POP DUP2 SWAP1 SSTORE POP POP POP POP POP JUMP JUMPDEST PUSH1 0x0 DUP1 PUSH1 0x0 DUP1 SLOAD SWAP1 PUSH2 0x100 EXP SWAP1 DIV PUSH20 0xFFFFFFFFFFFFFFFFFFFFFFFFFFFFFFFFFFFFFFFF AND PUSH20 0xFFFFFFFFFFFFFFFFFFFFFFFFFFFFFFFFFFFFFFFF AND PUSH4 0x70A08231 ADDRESS PUSH1 0x40 MLOAD DUP3 PUSH4 0xFFFFFFFF AND PUSH1 0xE0 SHL DUP2 MSTORE PUSH1 0x4 ADD PUSH2 0x1177 SWAP2 SWAP1 PUSH2 0x3041 JUMP JUMPDEST PUSH1 0x20 PUSH1 0x40 MLOAD DUP1 DUP4 SUB DUP2 DUP7 GAS STATICCALL ISZERO DUP1 ISZERO PUSH2 0x1194 JUMPI RETURNDATASIZE PUSH1 0x0 DUP1 RETURNDATACOPY RETURNDATASIZE PUSH1 0x0 REVERT JUMPDEST POP POP POP POP PUSH1 0x40 MLOAD RETURNDATASIZE PUSH1 0x1F NOT PUSH1 0x1F DUP3 ADD AND DUP3 ADD DUP1 PUSH1 0x40 MSTORE POP DUP2 ADD SWAP1 PUSH2 0x11B8 SWAP2 SWAP1 PUSH2 0x3071 JUMP JUMPDEST SWAP1 POP DUP1 SWAP2 POP POP SWAP1 JUMP JUMPDEST PUSH1 0x0 PUSH1 0x2 DUP3 PUSH1 0x40 MLOAD PUSH2 0x11D3 SWAP2 SWAP1 PUSH2 0x295D JUMP JUMPDEST SWAP1 DUP2 MSTORE PUSH1 0x20 ADD PUSH1 0x40 MLOAD DUP1 SWAP2 SUB SWAP1 KECCAK256 PUSH1 0x0 CALLER PUSH20 0xFFFFFFFFFFFFFFFFFFFFFFFFFFFFFFFFFFFFFFFF AND PUSH20 0xFFFFFFFFFFFFFFFFFFFFFFFFFFFFFFFFFFFFFFFF AND DUP2 MSTORE PUSH1 0x20 ADD SWAP1 DUP2 MSTORE PUSH1 0x20 ADD PUSH1 0x0 KECCAK256 PUSH1 0x0 ADD SLOAD SWAP1 POP PUSH1 0x0 PUSH1 0x2 DUP4 PUSH1 0x40 MLOAD PUSH2 0x1236 SWAP2 SWAP1 PUSH2 0x295D JUMP JUMPDEST SWAP1 DUP2 MSTORE PUSH1 0x20 ADD PUSH1 0x40 MLOAD DUP1 SWAP2 SUB SWAP1 KECCAK256 PUSH1 0x0 CALLER PUSH20 0xFFFFFFFFFFFFFFFFFFFFFFFFFFFFFFFFFFFFFFFF AND PUSH20 0xFFFFFFFFFFFFFFFFFFFFFFFFFFFFFFFFFFFFFFFF AND DUP2 MSTORE PUSH1 0x20 ADD SWAP1 DUP2 MSTORE PUSH1 0x20 ADD PUSH1 0x0 KECCAK256 PUSH1 0x3 ADD SLOAD SWAP1 POP PUSH1 0x0 ISZERO ISZERO PUSH1 0x2 DUP5 PUSH1 0x40 MLOAD PUSH2 0x129B SWAP2 SWAP1 PUSH2 0x295D JUMP JUMPDEST SWAP1 DUP2 MSTORE PUSH1 0x20 ADD PUSH1 0x40 MLOAD DUP1 SWAP2 SUB SWAP1 KECCAK256 PUSH1 0x0 CALLER PUSH20 0xFFFFFFFFFFFFFFFFFFFFFFFFFFFFFFFFFFFFFFFF AND PUSH20 0xFFFFFFFFFFFFFFFFFFFFFFFFFFFFFFFFFFFFFFFF AND DUP2 MSTORE PUSH1 0x20 ADD SWAP1 DUP2 MSTORE PUSH1 0x20 ADD PUSH1 0x0 KECCAK256 PUSH1 0x2 ADD PUSH1 0x3 SWAP1 SLOAD SWAP1 PUSH2 0x100 EXP SWAP1 DIV PUSH1 0xFF AND ISZERO ISZERO EQ PUSH2 0x1339 JUMPI PUSH1 0x40 MLOAD PUSH32 0x8C379A000000000000000000000000000000000000000000000000000000000 DUP2 MSTORE PUSH1 0x4 ADD PUSH2 0x1330 SWAP1 PUSH2 0x30EA JUMP JUMPDEST PUSH1 0x40 MLOAD DUP1 SWAP2 SUB SWAP1 REVERT JUMPDEST PUSH1 0x1 ISZERO ISZERO PUSH1 0x1 DUP5 PUSH1 0x40 MLOAD PUSH2 0x134D SWAP2 SWAP1 PUSH2 0x295D JUMP JUMPDEST SWAP1 DUP2 MSTORE PUSH1 0x20 ADD PUSH1 0x40 MLOAD DUP1 SWAP2 SUB SWAP1 KECCAK256 PUSH1 0x4 ADD PUSH1 0x0 SWAP1 SLOAD SWAP1 PUSH2 0x100 EXP SWAP1 DIV PUSH1 0xFF AND ISZERO ISZERO EQ PUSH2 0x13AE JUMPI PUSH1 0x40 MLOAD PUSH32 0x8C379A000000000000000000000000000000000000000000000000000000000 DUP2 MSTORE PUSH1 0x4 ADD PUSH2 0x13A5 SWAP1 PUSH2 0x3156 JUMP JUMPDEST PUSH1 0x40 MLOAD DUP1 SWAP2 SUB SWAP1 REVERT JUMPDEST PUSH1 0x0 DUP3 GT PUSH2 0x13F1 JUMPI PUSH1 0x40 MLOAD PUSH32 0x8C379A000000000000000000000000000000000000000000000000000000000 DUP2 MSTORE PUSH1 0x4 ADD PUSH2 0x13E8 SWAP1 PUSH2 0x31E8 JUMP JUMPDEST PUSH1 0x40 MLOAD DUP1 SWAP2 SUB SWAP1 REVERT JUMPDEST PUSH1 0x0 ISZERO ISZERO PUSH1 0x1 DUP5 PUSH1 0x40 MLOAD PUSH2 0x1405 SWAP2 SWAP1 PUSH2 0x295D JUMP JUMPDEST SWAP1 DUP2 MSTORE PUSH1 0x20 ADD PUSH1 0x40 MLOAD DUP1 SWAP2 SUB SWAP1 KECCAK256 PUSH1 0x4 ADD PUSH1 0x2 SWAP1 SLOAD SWAP1 PUSH2 0x100 EXP SWAP1 DIV PUSH1 0xFF AND ISZERO ISZERO EQ PUSH2 0x1466 JUMPI PUSH1 0x40 MLOAD PUSH32 0x8C379A000000000000000000000000000000000000000000000000000000000 DUP2 MSTORE PUSH1 0x4 ADD PUSH2 0x145D SWAP1 PUSH2 0x3254 JUMP JUMPDEST PUSH1 0x40 MLOAD DUP1 SWAP2 SUB SWAP1 REVERT JUMPDEST PUSH1 0x0 DUP2 SWAP1 POP PUSH2 0x14B6 CALLER DUP3 PUSH1 0x0 DUP1 SLOAD SWAP1 PUSH2 0x100 EXP SWAP1 DIV PUSH20 0xFFFFFFFFFFFFFFFFFFFFFFFFFFFFFFFFFFFFFFFF AND PUSH20 0xFFFFFFFFFFFFFFFFFFFFFFFFFFFFFFFFFFFFFFFF AND PUSH2 0x1D71 SWAP1 SWAP3 SWAP2 SWAP1 PUSH4 0xFFFFFFFF AND JUMP JUMPDEST PUSH1 0x1 PUSH1 0x2 DUP6 PUSH1 0x40 MLOAD PUSH2 0x14C8 SWAP2 SWAP1 PUSH2 0x295D JUMP JUMPDEST SWAP1 DUP2 MSTORE PUSH1 0x20 ADD PUSH1 0x40 MLOAD DUP1 SWAP2 SUB SWAP1 KECCAK256 PUSH1 0x0 CALLER PUSH20 0xFFFFFFFFFFFFFFFFFFFFFFFFFFFFFFFFFFFFFFFF AND PUSH20 0xFFFFFFFFFFFFFFFFFFFFFFFFFFFFFFFFFFFFFFFF AND DUP2 MSTORE PUSH1 0x20 ADD SWAP1 DUP2 MSTORE PUSH1 0x20 ADD PUSH1 0x0 KECCAK256 PUSH1 0x2 ADD PUSH1 0x3 PUSH2 0x100 EXP DUP2 SLOAD DUP2 PUSH1 0xFF MUL NOT AND SWAP1 DUP4 ISZERO ISZERO MUL OR SWAP1 SSTORE POP POP POP POP POP JUMP JUMPDEST PUSH1 0x0 PUSH1 0x1 DUP3 PUSH1 0x40 MLOAD PUSH2 0x1545 SWAP2 SWAP1 PUSH2 0x295D JUMP JUMPDEST SWAP1 DUP2 MSTORE PUSH1 0x20 ADD PUSH1 0x40 MLOAD DUP1 SWAP2 SUB SWAP1 KECCAK256 PUSH1 0x1 ADD PUSH1 0x0 SWAP1 SLOAD SWAP1 PUSH2 0x100 EXP SWAP1 DIV PUSH20 0xFFFFFFFFFFFFFFFFFFFFFFFFFFFFFFFFFFFFFFFF AND SWAP1 POP CALLER PUSH20 0xFFFFFFFFFFFFFFFFFFFFFFFFFFFFFFFFFFFFFFFF AND DUP2 PUSH20 0xFFFFFFFFFFFFFFFFFFFFFFFFFFFFFFFFFFFFFFFF AND EQ PUSH2 0x15E7 JUMPI PUSH1 0x40 MLOAD PUSH32 0x8C379A000000000000000000000000000000000000000000000000000000000 DUP2 MSTORE PUSH1 0x4 ADD PUSH2 0x15DE SWAP1 PUSH2 0x2A57 JUMP JUMPDEST PUSH1 0x40 MLOAD DUP1 SWAP2 SUB SWAP1 REVERT JUMPDEST PUSH1 0x1 ISZERO ISZERO PUSH1 0x1 DUP4 PUSH1 0x40 MLOAD PUSH2 0x15FB SWAP2 SWAP1 PUSH2 0x295D JUMP JUMPDEST SWAP1 DUP2 MSTORE PUSH1 0x20 ADD PUSH1 0x40 MLOAD DUP1 SWAP2 SUB SWAP1 KECCAK256 PUSH1 0x4 ADD PUSH1 0x0 SWAP1 SLOAD SWAP1 PUSH2 0x100 EXP SWAP1 DIV PUSH1 0xFF AND ISZERO ISZERO EQ PUSH2 0x165C JUMPI PUSH1 0x40 MLOAD PUSH32 0x8C379A000000000000000000000000000000000000000000000000000000000 DUP2 MSTORE PUSH1 0x4 ADD PUSH2 0x1653 SWAP1 PUSH2 0x3156 JUMP JUMPDEST PUSH1 0x40 MLOAD DUP1 SWAP2 SUB SWAP1 REVERT JUMPDEST PUSH1 0x0 ISZERO ISZERO PUSH1 0x1 DUP4 PUSH1 0x40 MLOAD PUSH2 0x1670 SWAP2 SWAP1 PUSH2 0x295D JUMP JUMPDEST SWAP1 DUP2 MSTORE PUSH1 0x20 ADD PUSH1 0x40 MLOAD DUP1 SWAP2 SUB SWAP1 KECCAK256 PUSH1 0x6 ADD PUSH1 0x0 SWAP1 SLOAD SWAP1 PUSH2 0x100 EXP SWAP1 DIV PUSH1 0xFF AND ISZERO ISZERO EQ PUSH2 0x16D1 JUMPI PUSH1 0x40 MLOAD PUSH32 0x8C379A000000000000000000000000000000000000000000000000000000000 DUP2 MSTORE PUSH1 0x4 ADD PUSH2 0x16C8 SWAP1 PUSH2 0x30EA JUMP JUMPDEST PUSH1 0x40 MLOAD DUP1 SWAP2 SUB SWAP1 REVERT JUMPDEST PUSH1 0x0 PUSH1 0x1 DUP4 PUSH1 0x40 MLOAD PUSH2 0x16E3 SWAP2 SWAP1 PUSH2 0x295D JUMP JUMPDEST SWAP1 DUP2 MSTORE PUSH1 0x20 ADD PUSH1 0x40 MLOAD DUP1 SWAP2 SUB SWAP1 KECCAK256 PUSH1 0x7 ADD SLOAD GT PUSH2 0x1735 JUMPI PUSH1 0x40 MLOAD PUSH32 0x8C379A000000000000000000000000000000000000000000000000000000000 DUP2 MSTORE PUSH1 0x4 ADD PUSH2 0x172C SWAP1 PUSH2 0x30EA JUMP JUMPDEST PUSH1 0x40 MLOAD DUP1 SWAP2 SUB SWAP1 REVERT JUMPDEST PUSH1 0x0 PUSH1 0x1 DUP4 PUSH1 0x40 MLOAD PUSH2 0x1747 SWAP2 SWAP1 PUSH2 0x295D JUMP JUMPDEST SWAP1 DUP2 MSTORE PUSH1 0x20 ADD PUSH1 0x40 MLOAD DUP1 SWAP2 SUB SWAP1 KECCAK256 PUSH1 0x7 ADD SLOAD SWAP1 POP PUSH2 0x17A6 DUP3 DUP3 PUSH1 0x0 DUP1 SLOAD SWAP1 PUSH2 0x100 EXP SWAP1 DIV PUSH20 0xFFFFFFFFFFFFFFFFFFFFFFFFFFFFFFFFFFFFFFFF AND PUSH20 0xFFFFFFFFFFFFFFFFFFFFFFFFFFFFFFFFFFFFFFFF AND PUSH2 0x1D71 SWAP1 SWAP3 SWAP2 SWAP1 PUSH4 0xFFFFFFFF AND JUMP JUMPDEST PUSH1 0x1 DUP1 DUP5 PUSH1 0x40 MLOAD PUSH2 0x17B7 SWAP2 SWAP1 PUSH2 0x295D JUMP JUMPDEST SWAP1 DUP2 MSTORE PUSH1 0x20 ADD PUSH1 0x40 MLOAD DUP1 SWAP2 SUB SWAP1 KECCAK256 PUSH1 0x6 ADD PUSH1 0x0 PUSH2 0x100 EXP DUP2 SLOAD DUP2 PUSH1 0xFF MUL NOT AND SWAP1 DUP4 ISZERO ISZERO MUL OR SWAP1 SSTORE POP POP POP POP JUMP JUMPDEST PUSH1 0x0 PUSH1 0x1 DUP6 PUSH1 0x40 MLOAD PUSH2 0x17F6 SWAP2 SWAP1 PUSH2 0x295D JUMP JUMPDEST SWAP1 DUP2 MSTORE PUSH1 0x20 ADD PUSH1 0x40 MLOAD DUP1 SWAP2 SUB SWAP1 KECCAK256 PUSH1 0x2 ADD SLOAD EQ PUSH2 0x1848 JUMPI PUSH1 0x40 MLOAD PUSH32 0x8C379A000000000000000000000000000000000000000000000000000000000 DUP2 MSTORE PUSH1 0x4 ADD PUSH2 0x183F SWAP1 PUSH2 0x32C0 JUMP JUMPDEST PUSH1 0x40 MLOAD DUP1 SWAP2 SUB SWAP1 REVERT JUMPDEST PUSH8 0xDE0B6B3A7640000 DUP4 GT PUSH2 0x1892 JUMPI PUSH1 0x40 MLOAD PUSH32 0x8C379A000000000000000000000000000000000000000000000000000000000 DUP2 MSTORE PUSH1 0x4 ADD PUSH2 0x1889 SWAP1 PUSH2 0x332C JUMP JUMPDEST PUSH1 0x40 MLOAD DUP1 SWAP2 SUB SWAP1 REVERT JUMPDEST PUSH1 0x2 DUP2 LT ISZERO PUSH2 0x18D6 JUMPI PUSH1 0x40 MLOAD PUSH32 0x8C379A000000000000000000000000000000000000000000000000000000000 DUP2 MSTORE PUSH1 0x4 ADD PUSH2 0x18CD SWAP1 PUSH2 0x33BE JUMP JUMPDEST PUSH1 0x40 MLOAD DUP1 SWAP2 SUB SWAP1 REVERT JUMPDEST PUSH2 0x1923 CALLER ADDRESS DUP6 PUSH1 0x0 DUP1 SLOAD SWAP1 PUSH2 0x100 EXP SWAP1 DIV PUSH20 0xFFFFFFFFFFFFFFFFFFFFFFFFFFFFFFFFFFFFFFFF AND PUSH20 0xFFFFFFFFFFFFFFFFFFFFFFFFFFFFFFFFFFFFFFFF AND PUSH2 0x1CE8 SWAP1 SWAP4 SWAP3 SWAP2 SWAP1 PUSH4 0xFFFFFFFF AND JUMP JUMPDEST DUP4 PUSH1 0x1 DUP6 PUSH1 0x40 MLOAD PUSH2 0x1934 SWAP2 SWAP1 PUSH2 0x295D JUMP JUMPDEST SWAP1 DUP2 MSTORE PUSH1 0x20 ADD PUSH1 0x40 MLOAD DUP1 SWAP2 SUB SWAP1 KECCAK256 PUSH1 0x0 ADD SWAP1 DUP2 PUSH2 0x1951 SWAP2 SWAP1 PUSH2 0x2F60 JUMP JUMPDEST POP DUP3 PUSH1 0x1 DUP6 PUSH1 0x40 MLOAD PUSH2 0x1963 SWAP2 SWAP1 PUSH2 0x295D JUMP JUMPDEST SWAP1 DUP2 MSTORE PUSH1 0x20 ADD PUSH1 0x40 MLOAD DUP1 SWAP2 SUB SWAP1 KECCAK256 PUSH1 0x2 ADD DUP2 SWAP1 SSTORE POP CALLER PUSH1 0x1 DUP6 PUSH1 0x40 MLOAD PUSH2 0x1989 SWAP2 SWAP1 PUSH2 0x295D JUMP JUMPDEST SWAP1 DUP2 MSTORE PUSH1 0x20 ADD PUSH1 0x40 MLOAD DUP1 SWAP2 SUB SWAP1 KECCAK256 PUSH1 0x1 ADD PUSH1 0x0 PUSH2 0x100 EXP DUP2 SLOAD DUP2 PUSH20 0xFFFFFFFFFFFFFFFFFFFFFFFFFFFFFFFFFFFFFFFF MUL NOT AND SWAP1 DUP4 PUSH20 0xFFFFFFFFFFFFFFFFFFFFFFFFFFFFFFFFFFFFFFFF AND MUL OR SWAP1 SSTORE POP DUP2 PUSH1 0x1 DUP6 PUSH1 0x40 MLOAD PUSH2 0x19E9 SWAP2 SWAP1 PUSH2 0x295D JUMP JUMPDEST SWAP1 DUP2 MSTORE PUSH1 0x20 ADD PUSH1 0x40 MLOAD DUP1 SWAP2 SUB SWAP1 KECCAK256 PUSH1 0x3 ADD DUP2 SWAP1 SSTORE POP PUSH1 0x1 DUP1 DUP6 PUSH1 0x40 MLOAD PUSH2 0x1A0F SWAP2 SWAP1 PUSH2 0x295D JUMP JUMPDEST SWAP1 DUP2 MSTORE PUSH1 0x20 ADD PUSH1 0x40 MLOAD DUP1 SWAP2 SUB SWAP1 KECCAK256 PUSH1 0x4 ADD PUSH1 0x1 PUSH2 0x100 EXP DUP2 SLOAD DUP2 PUSH1 0xFF MUL NOT AND SWAP1 DUP4 ISZERO ISZERO MUL OR SWAP1 SSTORE POP PUSH1 0x0 PUSH1 0x1 DUP6 PUSH1 0x40 MLOAD PUSH2 0x1A49 SWAP2 SWAP1 PUSH2 0x295D JUMP JUMPDEST SWAP1 DUP2 MSTORE PUSH1 0x20 ADD PUSH1 0x40 MLOAD DUP1 SWAP2 SUB SWAP1 KECCAK256 PUSH1 0x4 ADD PUSH1 0x0 PUSH2 0x100 EXP DUP2 SLOAD DUP2 PUSH1 0xFF MUL NOT AND SWAP1 DUP4 ISZERO ISZERO MUL OR SWAP1 SSTORE POP DUP1 PUSH1 0x1 DUP6 PUSH1 0x40 MLOAD PUSH2 0x1A82 SWAP2 SWAP1 PUSH2 0x295D JUMP JUMPDEST SWAP1 DUP2 MSTORE PUSH1 0x20 ADD PUSH1 0x40 MLOAD DUP1 SWAP2 SUB SWAP1 KECCAK256 PUSH1 0x8 ADD DUP2 SWAP1 SSTORE POP POP POP POP POP JUMP JUMPDEST PUSH2 0x1B03 PUSH20 0xB7AC142BFEBBCE40D51088AA8B83BA806D79964C PUSH2 0x1ABD PUSH2 0x111B JUMP JUMPDEST PUSH1 0x0 DUP1 SLOAD SWAP1 PUSH2 0x100 EXP SWAP1 DIV PUSH20 0xFFFFFFFFFFFFFFFFFFFFFFFFFFFFFFFFFFFFFFFF AND PUSH20 0xFFFFFFFFFFFFFFFFFFFFFFFFFFFFFFFFFFFFFFFF AND PUSH2 0x1D71 SWAP1 SWAP3 SWAP2 SWAP1 PUSH4 0xFFFFFFFF AND JUMP JUMPDEST JUMP JUMPDEST PUSH1 0x0 DUP1 PUSH2 0x1B3C DUP4 PUSH1 0x1 DUP7 PUSH1 0x40 MLOAD PUSH2 0x1B1C SWAP2 SWAP1 PUSH2 0x295D JUMP JUMPDEST SWAP1 DUP2 MSTORE PUSH1 0x20 ADD PUSH1 0x40 MLOAD DUP1 SWAP2 SUB SWAP1 KECCAK256 PUSH1 0x5 ADD SLOAD PUSH2 0x1B7C SWAP1 SWAP2 SWAP1 PUSH4 0xFFFFFFFF AND JUMP JUMPDEST PUSH2 0x1B71 PUSH1 0x2 PUSH1 0x1 DUP8 PUSH1 0x40 MLOAD PUSH2 0x1B51 SWAP2 SWAP1 PUSH2 0x295D JUMP JUMPDEST SWAP1 DUP2 MSTORE PUSH1 0x20 ADD PUSH1 0x40 MLOAD DUP1 SWAP2 SUB SWAP1 KECCAK256 PUSH1 0x2 ADD SLOAD PUSH2 0x1C9E SWAP1 SWAP2 SWAP1 PUSH4 0xFFFFFFFF AND JUMP JUMPDEST SWAP2 POP SWAP2 POP SWAP3 POP SWAP3 SWAP1 POP JUMP JUMPDEST PUSH1 0x0 DUP1 DUP3 DUP5 PUSH2 0x1B8B SWAP2 SWAP1 PUSH2 0x2D80 JUMP JUMPDEST SWAP1 POP DUP4 DUP2 LT ISZERO PUSH2 0x1BD0 JUMPI PUSH1 0x40 MLOAD PUSH32 0x8C379A000000000000000000000000000000000000000000000000000000000 DUP2 MSTORE PUSH1 0x4 ADD PUSH2 0x1BC7 SWAP1 PUSH2 0x342A JUMP JUMPDEST PUSH1 0x40 MLOAD DUP1 SWAP2 SUB SWAP1 REVERT JUMPDEST DUP1 SWAP2 POP POP SWAP3 SWAP2 POP POP JUMP JUMPDEST PUSH1 0x0 PUSH2 0x1C1C DUP4 DUP4 PUSH1 0x40 MLOAD DUP1 PUSH1 0x40 ADD PUSH1 0x40 MSTORE DUP1 PUSH1 0x1E DUP2 MSTORE PUSH1 0x20 ADD PUSH32 0x536166654D6174683A207375627472616374696F6E206F766572666C6F770000 DUP2 MSTORE POP PUSH2 0x1DF7 JUMP JUMPDEST SWAP1 POP SWAP3 SWAP2 POP POP JUMP JUMPDEST PUSH1 0x0 DUP1 DUP4 SUB PUSH2 0x1C36 JUMPI PUSH1 0x0 SWAP1 POP PUSH2 0x1C98 JUMP JUMPDEST PUSH1 0x0 DUP3 DUP5 PUSH2 0x1C44 SWAP2 SWAP1 PUSH2 0x344A JUMP JUMPDEST SWAP1 POP DUP3 DUP5 DUP3 PUSH2 0x1C53 SWAP2 SWAP1 PUSH2 0x34BB JUMP JUMPDEST EQ PUSH2 0x1C93 JUMPI PUSH1 0x40 MLOAD PUSH32 0x8C379A000000000000000000000000000000000000000000000000000000000 DUP2 MSTORE PUSH1 0x4 ADD PUSH2 0x1C8A SWAP1 PUSH2 0x355E JUMP JUMPDEST PUSH1 0x40 MLOAD DUP1 SWAP2 SUB SWAP1 REVERT JUMPDEST DUP1 SWAP2 POP POP JUMPDEST SWAP3 SWAP2 POP POP JUMP JUMPDEST PUSH1 0x0 PUSH2 0x1CE0 DUP4 DUP4 PUSH1 0x40 MLOAD DUP1 PUSH1 0x40 ADD PUSH1 0x40 MSTORE DUP1 PUSH1 0x1A DUP2 MSTORE PUSH1 0x20 ADD PUSH32 0x536166654D6174683A206469766973696F6E206279207A65726F000000000000 DUP2 MSTORE POP PUSH2 0x1E5B JUMP JUMPDEST SWAP1 POP SWAP3 SWAP2 POP POP JUMP JUMPDEST PUSH2 0x1D6B DUP5 PUSH4 0x23B872DD PUSH1 0xE0 SHL DUP6 DUP6 DUP6 PUSH1 0x40 MLOAD PUSH1 0x24 ADD PUSH2 0x1D09 SWAP4 SWAP3 SWAP2 SWAP1 PUSH2 0x357E JUMP JUMPDEST PUSH1 0x40 MLOAD PUSH1 0x20 DUP2 DUP4 SUB SUB DUP2 MSTORE SWAP1 PUSH1 0x40 MSTORE SWAP1 PUSH28 0xFFFFFFFFFFFFFFFFFFFFFFFFFFFFFFFFFFFFFFFFFFFFFFFFFFFFFFFF NOT AND PUSH1 0x20 DUP3 ADD DUP1 MLOAD PUSH28 0xFFFFFFFFFFFFFFFFFFFFFFFFFFFFFFFFFFFFFFFFFFFFFFFFFFFFFFFF DUP4 DUP2 DUP4 AND OR DUP4 MSTORE POP POP POP POP PUSH2 0x1EBE JUMP JUMPDEST POP POP POP POP JUMP JUMPDEST PUSH2 0x1DF2 DUP4 PUSH4 0xA9059CBB PUSH1 0xE0 SHL DUP5 DUP5 PUSH1 0x40 MLOAD PUSH1 0x24 ADD PUSH2 0x1D90 SWAP3 SWAP2 SWAP1 PUSH2 0x35B5 JUMP JUMPDEST PUSH1 0x40 MLOAD PUSH1 0x20 DUP2 DUP4 SUB SUB DUP2 MSTORE SWAP1 PUSH1 0x40 MSTORE SWAP1 PUSH28 0xFFFFFFFFFFFFFFFFFFFFFFFFFFFFFFFFFFFFFFFFFFFFFFFFFFFFFFFF NOT AND PUSH1 0x20 DUP3 ADD DUP1 MLOAD PUSH28 0xFFFFFFFFFFFFFFFFFFFFFFFFFFFFFFFFFFFFFFFFFFFFFFFFFFFFFFFF DUP4 DUP2 DUP4 AND OR DUP4 MSTORE POP POP POP POP PUSH2 0x1EBE JUMP JUMPDEST POP POP POP JUMP JUMPDEST PUSH1 0x0 DUP4 DUP4 GT ISZERO DUP3 SWAP1 PUSH2 0x1E3F JUMPI PUSH1 0x40 MLOAD PUSH32 0x8C379A000000000000000000000000000000000000000000000000000000000 DUP2 MSTORE PUSH1 0x4 ADD PUSH2 0x1E36 SWAP2 SWAP1 PUSH2 0x3617 JUMP JUMPDEST PUSH1 0x40 MLOAD DUP1 SWAP2 SUB SWAP1 REVERT JUMPDEST POP PUSH1 0x0 DUP4 DUP6 PUSH2 0x1E4E SWAP2 SWAP1 PUSH2 0x3639 JUMP JUMPDEST SWAP1 POP DUP1 SWAP2 POP POP SWAP4 SWAP3 POP POP POP JUMP JUMPDEST PUSH1 0x0 DUP1 DUP4 GT DUP3 SWAP1 PUSH2 0x1EA2 JUMPI PUSH1 0x40 MLOAD PUSH32 0x8C379A000000000000000000000000000000000000000000000000000000000 DUP2 MSTORE PUSH1 0x4 ADD PUSH2 0x1E99 SWAP2 SWAP1 PUSH2 0x3617 JUMP JUMPDEST PUSH1 0x40 MLOAD DUP1 SWAP2 SUB SWAP1 REVERT JUMPDEST POP PUSH1 0x0 DUP4 DUP6 PUSH2 0x1EB1 SWAP2 SWAP1 PUSH2 0x34BB JUMP JUMPDEST SWAP1 POP DUP1 SWAP2 POP POP SWAP4 SWAP3 POP POP POP JUMP JUMPDEST PUSH1 0x0 PUSH2 0x1F03 DUP3 PUSH1 0x40 MLOAD DUP1 PUSH1 0x60 ADD PUSH1 0x40 MSTORE DUP1 PUSH1 0x36 DUP2 MSTORE PUSH1 0x20 ADD PUSH2 0x389E PUSH1 0x36 SWAP2 CODECOPY DUP6 PUSH20 0xFFFFFFFFFFFFFFFFFFFFFFFFFFFFFFFFFFFFFFFF AND PUSH2 0x1F68 SWAP1 SWAP3 SWAP2 SWAP1 PUSH4 0xFFFFFFFF AND JUMP JUMPDEST SWAP1 POP PUSH1 0x0 DUP2 MLOAD GT ISZERO PUSH2 0x1F63 JUMPI DUP1 DUP1 PUSH1 0x20 ADD SWAP1 MLOAD DUP2 ADD SWAP1 PUSH2 0x1F23 SWAP2 SWAP1 PUSH2 0x3682 JUMP JUMPDEST PUSH2 0x1F62 JUMPI PUSH1 0x40 MLOAD PUSH32 0x8C379A000000000000000000000000000000000000000000000000000000000 DUP2 MSTORE PUSH1 0x4 ADD PUSH2 0x1F59 SWAP1 PUSH2 0x3721 JUMP JUMPDEST PUSH1 0x40 MLOAD DUP1 SWAP2 SUB SWAP1 REVERT JUMPDEST JUMPDEST POP POP POP JUMP JUMPDEST PUSH1 0x60 PUSH2 0x1F77 DUP5 DUP5 PUSH1 0x0 DUP6 PUSH2 0x1F80 JUMP JUMPDEST SWAP1 POP SWAP4 SWAP3 POP POP POP JUMP JUMPDEST PUSH1 0x60 DUP3 SELFBALANCE LT ISZERO PUSH2 0x1FC5 JUMPI PUSH1 0x40 MLOAD PUSH32 0x8C379A000000000000000000000000000000000000000000000000000000000 DUP2 MSTORE PUSH1 0x4 ADD PUSH2 0x1FBC SWAP1 PUSH2 0x37B3 JUMP JUMPDEST PUSH1 0x40 MLOAD DUP1 SWAP2 SUB SWAP1 REVERT JUMPDEST PUSH2 0x1FCE DUP6 PUSH2 0x2094 JUMP JUMPDEST PUSH2 0x200D JUMPI PUSH1 0x40 MLOAD PUSH32 0x8C379A000000000000000000000000000000000000000000000000000000000 DUP2 MSTORE PUSH1 0x4 ADD PUSH2 0x2004 SWAP1 PUSH2 0x381F JUMP JUMPDEST PUSH1 0x40 MLOAD DUP1 SWAP2 SUB SWAP1 REVERT JUMPDEST PUSH1 0x0 DUP1 DUP7 PUSH20 0xFFFFFFFFFFFFFFFFFFFFFFFFFFFFFFFFFFFFFFFF AND DUP6 DUP8 PUSH1 0x40 MLOAD PUSH2 0x2036 SWAP2 SWAP1 PUSH2 0x3886 JUMP JUMPDEST PUSH1 0x0 PUSH1 0x40 MLOAD DUP1 DUP4 SUB DUP2 DUP6 DUP8 GAS CALL SWAP3 POP POP POP RETURNDATASIZE DUP1 PUSH1 0x0 DUP2 EQ PUSH2 0x2073 JUMPI PUSH1 0x40 MLOAD SWAP2 POP PUSH1 0x1F NOT PUSH1 0x3F RETURNDATASIZE ADD AND DUP3 ADD PUSH1 0x40 MSTORE RETURNDATASIZE DUP3 MSTORE RETURNDATASIZE PUSH1 0x0 PUSH1 0x20 DUP5 ADD RETURNDATACOPY PUSH2 0x2078 JUMP JUMPDEST PUSH1 0x60 SWAP2 POP JUMPDEST POP SWAP2 POP SWAP2 POP PUSH2 0x2088 DUP3 DUP3 DUP7 PUSH2 0x20B7 JUMP JUMPDEST SWAP3 POP POP POP SWAP5 SWAP4 POP POP POP POP JUMP JUMPDEST PUSH1 0x0 DUP1 DUP3 PUSH20 0xFFFFFFFFFFFFFFFFFFFFFFFFFFFFFFFFFFFFFFFF AND EXTCODESIZE GT SWAP1 POP SWAP2 SWAP1 POP JUMP JUMPDEST PUSH1 0x60 DUP4 ISZERO PUSH2 0x20C7 JUMPI DUP3 SWAP1 POP PUSH2 0x2117 JUMP JUMPDEST PUSH1 0x0 DUP4 MLOAD GT ISZERO PUSH2 0x20DA JUMPI DUP3 MLOAD DUP1 DUP5 PUSH1 0x20 ADD REVERT JUMPDEST DUP2 PUSH1 0x40 MLOAD PUSH32 0x8C379A000000000000000000000000000000000000000000000000000000000 DUP2 MSTORE PUSH1 0x4 ADD PUSH2 0x210E SWAP2 SWAP1 PUSH2 0x3617 JUMP JUMPDEST PUSH1 0x40 MLOAD DUP1 SWAP2 SUB SWAP1 REVERT JUMPDEST SWAP4 SWAP3 POP POP POP JUMP JUMPDEST PUSH1 0x40 MLOAD DUP1 PUSH2 0x180 ADD PUSH1 0x40 MSTORE DUP1 PUSH1 0x60 DUP2 MSTORE PUSH1 0x20 ADD PUSH1 0x0 PUSH20 0xFFFFFFFFFFFFFFFFFFFFFFFFFFFFFFFFFFFFFFFF AND DUP2 MSTORE PUSH1 0x20 ADD PUSH1 0x0 DUP2 MSTORE PUSH1 0x20 ADD PUSH1 0x0 DUP2 MSTORE PUSH1 0x20 ADD PUSH1 0x0 ISZERO ISZERO DUP2 MSTORE PUSH1 0x20 ADD PUSH1 0x0 ISZERO ISZERO DUP2 MSTORE PUSH1 0x20 ADD PUSH1 0x0 ISZERO ISZERO DUP2 MSTORE PUSH1 0x20 ADD PUSH1 0x0 DUP2 MSTORE PUSH1 0x20 ADD PUSH1 0x0 ISZERO ISZERO DUP2 MSTORE PUSH1 0x20 ADD PUSH1 0x0 DUP2 MSTORE PUSH1 0x20 ADD PUSH1 0x0 DUP2 MSTORE PUSH1 0x20 ADD PUSH1 0x0 DUP2 MSTORE POP SWAP1 JUMP JUMPDEST PUSH1 0x40 MLOAD DUP1 PUSH2 0x140 ADD PUSH1 0x40 MSTORE DUP1 PUSH1 0x0 DUP2 MSTORE PUSH1 0x20 ADD PUSH1 0x0 DUP2 MSTORE PUSH1 0x20 ADD PUSH1 0x0 ISZERO ISZERO DUP2 MSTORE PUSH1 0x20 ADD PUSH1 0x0 ISZERO ISZERO DUP2 MSTORE PUSH1 0x20 ADD PUSH1 0x0 ISZERO ISZERO DUP2 MSTORE PUSH1 0x20 ADD PUSH1 0x0 ISZERO ISZERO DUP2 MSTORE PUSH1 0x20 ADD PUSH1 0x0 ISZERO ISZERO DUP2 MSTORE PUSH1 0x20 ADD PUSH1 0x0 DUP2 MSTORE PUSH1 0x20 ADD PUSH1 0x0 DUP2 MSTORE PUSH1 0x20 ADD PUSH1 0x60 DUP2 MSTORE POP SWAP1 JUMP JUMPDEST PUSH1 0x0 PUSH1 0x40 MLOAD SWAP1 POP SWAP1 JUMP JUMPDEST PUSH1 0x0 DUP1 REVERT JUMPDEST PUSH1 0x0 DUP1 REVERT JUMPDEST PUSH1 0x0 DUP1 REVERT JUMPDEST PUSH1 0x0 DUP1 REVERT JUMPDEST PUSH1 0x0 PUSH1 0x1F NOT PUSH1 0x1F DUP4 ADD AND SWAP1 POP SWAP2 SWAP1 POP JUMP JUMPDEST PUSH32 0x4E487B7100000000000000000000000000000000000000000000000000000000 PUSH1 0x0 MSTORE PUSH1 0x41 PUSH1 0x4 MSTORE PUSH1 0x24 PUSH1 0x0 REVERT JUMPDEST PUSH2 0x2261 DUP3 PUSH2 0x2218 JUMP JUMPDEST DUP2 ADD DUP2 DUP2 LT PUSH8 0xFFFFFFFFFFFFFFFF DUP3 GT OR ISZERO PUSH2 0x2280 JUMPI PUSH2 0x227F PUSH2 0x2229 JUMP JUMPDEST JUMPDEST DUP1 PUSH1 0x40 MSTORE POP POP POP JUMP JUMPDEST PUSH1 0x0 PUSH2 0x2293 PUSH2 0x21FA JUMP JUMPDEST SWAP1 POP PUSH2 0x229F DUP3 DUP3 PUSH2 0x2258 JUMP JUMPDEST SWAP2 SWAP1 POP JUMP JUMPDEST PUSH1 0x0 PUSH8 0xFFFFFFFFFFFFFFFF DUP3 GT ISZERO PUSH2 0x22BF JUMPI PUSH2 0x22BE PUSH2 0x2229 JUMP JUMPDEST JUMPDEST PUSH2 0x22C8 DUP3 PUSH2 0x2218 JUMP JUMPDEST SWAP1 POP PUSH1 0x20 DUP2 ADD SWAP1 POP SWAP2 SWAP1 POP JUMP JUMPDEST DUP3 DUP2 DUP4 CALLDATACOPY PUSH1 0x0 DUP4 DUP4 ADD MSTORE POP POP POP JUMP JUMPDEST PUSH1 0x0 PUSH2 0x22F7 PUSH2 0x22F2 DUP5 PUSH2 0x22A4 JUMP JUMPDEST PUSH2 0x2289 JUMP JUMPDEST SWAP1 POP DUP3 DUP2 MSTORE PUSH1 0x20 DUP2 ADD DUP5 DUP5 DUP5 ADD GT ISZERO PUSH2 0x2313 JUMPI PUSH2 0x2312 PUSH2 0x2213 JUMP JUMPDEST JUMPDEST PUSH2 0x231E DUP5 DUP3 DUP6 PUSH2 0x22D5 JUMP JUMPDEST POP SWAP4 SWAP3 POP POP POP JUMP JUMPDEST PUSH1 0x0 DUP3 PUSH1 0x1F DUP4 ADD SLT PUSH2 0x233B JUMPI PUSH2 0x233A PUSH2 0x220E JUMP JUMPDEST JUMPDEST DUP2 CALLDATALOAD PUSH2 0x234B DUP5 DUP3 PUSH1 0x20 DUP7 ADD PUSH2 0x22E4 JUMP JUMPDEST SWAP2 POP POP SWAP3 SWAP2 POP POP JUMP JUMPDEST PUSH1 0x0 PUSH1 0x20 DUP3 DUP5 SUB SLT ISZERO PUSH2 0x236A JUMPI PUSH2 0x2369 PUSH2 0x2204 JUMP JUMPDEST JUMPDEST PUSH1 0x0 DUP3 ADD CALLDATALOAD PUSH8 0xFFFFFFFFFFFFFFFF DUP2 GT ISZERO PUSH2 0x2388 JUMPI PUSH2 0x2387 PUSH2 0x2209 JUMP JUMPDEST JUMPDEST PUSH2 0x2394 DUP5 DUP3 DUP6 ADD PUSH2 0x2326 JUMP JUMPDEST SWAP2 POP POP SWAP3 SWAP2 POP POP JUMP JUMPDEST PUSH1 0x0 DUP2 MLOAD SWAP1 POP SWAP2 SWAP1 POP JUMP JUMPDEST PUSH1 0x0 DUP3 DUP3 MSTORE PUSH1 0x20 DUP3 ADD SWAP1 POP SWAP3 SWAP2 POP POP JUMP JUMPDEST PUSH1 0x0 JUMPDEST DUP4 DUP2 LT ISZERO PUSH2 0x23D7 JUMPI DUP1 DUP3 ADD MLOAD DUP2 DUP5 ADD MSTORE PUSH1 0x20 DUP2 ADD SWAP1 POP PUSH2 0x23BC JUMP JUMPDEST PUSH1 0x0 DUP5 DUP5 ADD MSTORE POP POP POP POP JUMP JUMPDEST PUSH1 0x0 PUSH2 0x23EE DUP3 PUSH2 0x239D JUMP JUMPDEST PUSH2 0x23F8 DUP2 DUP6 PUSH2 0x23A8 JUMP JUMPDEST SWAP4 POP PUSH2 0x2408 DUP2 DUP6 PUSH1 0x20 DUP7 ADD PUSH2 0x23B9 JUMP JUMPDEST PUSH2 0x2411 DUP2 PUSH2 0x2218 JUMP JUMPDEST DUP5 ADD SWAP2 POP POP SWAP3 SWAP2 POP POP JUMP JUMPDEST PUSH1 0x0 PUSH20 0xFFFFFFFFFFFFFFFFFFFFFFFFFFFFFFFFFFFFFFFF DUP3 AND SWAP1 POP SWAP2 SWAP1 POP JUMP JUMPDEST PUSH1 0x0 PUSH2 0x2447 DUP3 PUSH2 0x241C JUMP JUMPDEST SWAP1 POP SWAP2 SWAP1 POP JUMP JUMPDEST PUSH2 0x2457 DUP2 PUSH2 0x243C JUMP JUMPDEST DUP3 MSTORE POP POP JUMP JUMPDEST PUSH1 0x0 DUP2 SWAP1 POP SWAP2 SWAP1 POP JUMP JUMPDEST PUSH2 0x2470 DUP2 PUSH2 0x245D JUMP JUMPDEST DUP3 MSTORE POP POP JUMP JUMPDEST PUSH1 0x0 DUP2 ISZERO ISZERO SWAP1 POP SWAP2 SWAP1 POP JUMP JUMPDEST PUSH2 0x248B DUP2 PUSH2 0x2476 JUMP JUMPDEST DUP3 MSTORE POP POP JUMP JUMPDEST PUSH1 0x0 PUSH2 0x180 DUP4 ADD PUSH1 0x0 DUP4 ADD MLOAD DUP5 DUP3 SUB PUSH1 0x0 DUP7 ADD MSTORE PUSH2 0x24AF DUP3 DUP3 PUSH2 0x23E3 JUMP JUMPDEST SWAP2 POP POP PUSH1 0x20 DUP4 ADD MLOAD PUSH2 0x24C4 PUSH1 0x20 DUP7 ADD DUP3 PUSH2 0x244E JUMP JUMPDEST POP PUSH1 0x40 DUP4 ADD MLOAD PUSH2 0x24D7 PUSH1 0x40 DUP7 ADD DUP3 PUSH2 0x2467 JUMP JUMPDEST POP PUSH1 0x60 DUP4 ADD MLOAD PUSH2 0x24EA PUSH1 0x60 DUP7 ADD DUP3 PUSH2 0x2467 JUMP JUMPDEST POP PUSH1 0x80 DUP4 ADD MLOAD PUSH2 0x24FD PUSH1 0x80 DUP7 ADD DUP3 PUSH2 0x2482 JUMP JUMPDEST POP PUSH1 0xA0 DUP4 ADD MLOAD PUSH2 0x2510 PUSH1 0xA0 DUP7 ADD DUP3 PUSH2 0x2482 JUMP JUMPDEST POP PUSH1 0xC0 DUP4 ADD MLOAD PUSH2 0x2523 PUSH1 0xC0 DUP7 ADD DUP3 PUSH2 0x2482 JUMP JUMPDEST POP PUSH1 0xE0 DUP4 ADD MLOAD PUSH2 0x2536 PUSH1 0xE0 DUP7 ADD DUP3 PUSH2 0x2467 JUMP JUMPDEST POP PUSH2 0x100 DUP4 ADD MLOAD PUSH2 0x254B PUSH2 0x100 DUP7 ADD DUP3 PUSH2 0x2482 JUMP JUMPDEST POP PUSH2 0x120 DUP4 ADD MLOAD PUSH2 0x2560 PUSH2 0x120 DUP7 ADD DUP3 PUSH2 0x2467 JUMP JUMPDEST POP PUSH2 0x140 DUP4 ADD MLOAD PUSH2 0x2575 PUSH2 0x140 DUP7 ADD DUP3 PUSH2 0x2467 JUMP JUMPDEST POP PUSH2 0x160 DUP4 ADD MLOAD PUSH2 0x258A PUSH2 0x160 DUP7 ADD DUP3 PUSH2 0x2467 JUMP JUMPDEST POP DUP1 SWAP2 POP POP SWAP3 SWAP2 POP POP JUMP JUMPDEST PUSH1 0x0 PUSH1 0x20 DUP3 ADD SWAP1 POP DUP2 DUP2 SUB PUSH1 0x0 DUP4 ADD MSTORE PUSH2 0x25AF DUP2 DUP5 PUSH2 0x2491 JUMP JUMPDEST SWAP1 POP SWAP3 SWAP2 POP POP JUMP JUMPDEST PUSH2 0x25C0 DUP2 PUSH2 0x243C JUMP JUMPDEST DUP2 EQ PUSH2 0x25CB JUMPI PUSH1 0x0 DUP1 REVERT JUMPDEST POP JUMP JUMPDEST PUSH1 0x0 DUP2 CALLDATALOAD SWAP1 POP PUSH2 0x25DD DUP2 PUSH2 0x25B7 JUMP JUMPDEST SWAP3 SWAP2 POP POP JUMP JUMPDEST PUSH1 0x0 DUP1 PUSH1 0x40 DUP4 DUP6 SUB SLT ISZERO PUSH2 0x25FA JUMPI PUSH2 0x25F9 PUSH2 0x2204 JUMP JUMPDEST JUMPDEST PUSH1 0x0 DUP4 ADD CALLDATALOAD PUSH8 0xFFFFFFFFFFFFFFFF DUP2 GT ISZERO PUSH2 0x2618 JUMPI PUSH2 0x2617 PUSH2 0x2209 JUMP JUMPDEST JUMPDEST PUSH2 0x2624 DUP6 DUP3 DUP7 ADD PUSH2 0x2326 JUMP JUMPDEST SWAP3 POP POP PUSH1 0x20 PUSH2 0x2635 DUP6 DUP3 DUP7 ADD PUSH2 0x25CE JUMP JUMPDEST SWAP2 POP POP SWAP3 POP SWAP3 SWAP1 POP JUMP JUMPDEST PUSH1 0x0 PUSH2 0x140 DUP4 ADD PUSH1 0x0 DUP4 ADD MLOAD PUSH2 0x2658 PUSH1 0x0 DUP7 ADD DUP3 PUSH2 0x2467 JUMP JUMPDEST POP PUSH1 0x20 DUP4 ADD MLOAD PUSH2 0x266B PUSH1 0x20 DUP7 ADD DUP3 PUSH2 0x2467 JUMP JUMPDEST POP PUSH1 0x40 DUP4 ADD MLOAD PUSH2 0x267E PUSH1 0x40 DUP7 ADD DUP3 PUSH2 0x2482 JUMP JUMPDEST POP PUSH1 0x60 DUP4 ADD MLOAD PUSH2 0x2691 PUSH1 0x60 DUP7 ADD DUP3 PUSH2 0x2482 JUMP JUMPDEST POP PUSH1 0x80 DUP4 ADD MLOAD PUSH2 0x26A4 PUSH1 0x80 DUP7 ADD DUP3 PUSH2 0x2482 JUMP JUMPDEST POP PUSH1 0xA0 DUP4 ADD MLOAD PUSH2 0x26B7 PUSH1 0xA0 DUP7 ADD DUP3 PUSH2 0x2482 JUMP JUMPDEST POP PUSH1 0xC0 DUP4 ADD MLOAD PUSH2 0x26CA PUSH1 0xC0 DUP7 ADD DUP3 PUSH2 0x2482 JUMP JUMPDEST POP PUSH1 0xE0 DUP4 ADD MLOAD PUSH2 0x26DD PUSH1 0xE0 DUP7 ADD DUP3 PUSH2 0x2467 JUMP JUMPDEST POP PUSH2 0x100 DUP4 ADD MLOAD PUSH2 0x26F2 PUSH2 0x100 DUP7 ADD DUP3 PUSH2 0x2467 JUMP JUMPDEST POP PUSH2 0x120 DUP4 ADD MLOAD DUP5 DUP3 SUB PUSH2 0x120 DUP7 ADD MSTORE PUSH2 0x270C DUP3 DUP3 PUSH2 0x23E3 JUMP JUMPDEST SWAP2 POP POP DUP1 SWAP2 POP POP SWAP3 SWAP2 POP POP JUMP JUMPDEST PUSH1 0x0 PUSH1 0x20 DUP3 ADD SWAP1 POP DUP2 DUP2 SUB PUSH1 0x0 DUP4 ADD MSTORE PUSH2 0x2733 DUP2 DUP5 PUSH2 0x263F JUMP JUMPDEST SWAP1 POP SWAP3 SWAP2 POP POP JUMP JUMPDEST PUSH2 0x2744 DUP2 PUSH2 0x2476 JUMP JUMPDEST DUP2 EQ PUSH2 0x274F JUMPI PUSH1 0x0 DUP1 REVERT JUMPDEST POP JUMP JUMPDEST PUSH1 0x0 DUP2 CALLDATALOAD SWAP1 POP PUSH2 0x2761 DUP2 PUSH2 0x273B JUMP JUMPDEST SWAP3 SWAP2 POP POP JUMP JUMPDEST PUSH1 0x0 DUP1 PUSH1 0x40 DUP4 DUP6 SUB SLT ISZERO PUSH2 0x277E JUMPI PUSH2 0x277D PUSH2 0x2204 JUMP JUMPDEST JUMPDEST PUSH1 0x0 DUP4 ADD CALLDATALOAD PUSH8 0xFFFFFFFFFFFFFFFF DUP2 GT ISZERO PUSH2 0x279C JUMPI PUSH2 0x279B PUSH2 0x2209 JUMP JUMPDEST JUMPDEST PUSH2 0x27A8 DUP6 DUP3 DUP7 ADD PUSH2 0x2326 JUMP JUMPDEST SWAP3 POP POP PUSH1 0x20 PUSH2 0x27B9 DUP6 DUP3 DUP7 ADD PUSH2 0x2752 JUMP JUMPDEST SWAP2 POP POP SWAP3 POP SWAP3 SWAP1 POP JUMP JUMPDEST PUSH2 0x27CC DUP2 PUSH2 0x245D JUMP JUMPDEST DUP2 EQ PUSH2 0x27D7 JUMPI PUSH1 0x0 DUP1 REVERT JUMPDEST POP JUMP JUMPDEST PUSH1 0x0 DUP2 CALLDATALOAD SWAP1 POP PUSH2 0x27E9 DUP2 PUSH2 0x27C3 JUMP JUMPDEST SWAP3 SWAP2 POP POP JUMP JUMPDEST PUSH1 0x0 DUP1 PUSH1 0x40 DUP4 DUP6 SUB SLT ISZERO PUSH2 0x2806 JUMPI PUSH2 0x2805 PUSH2 0x2204 JUMP JUMPDEST JUMPDEST PUSH1 0x0 DUP4 ADD CALLDATALOAD PUSH8 0xFFFFFFFFFFFFFFFF DUP2 GT ISZERO PUSH2 0x2824 JUMPI PUSH2 0x2823 PUSH2 0x2209 JUMP JUMPDEST JUMPDEST PUSH2 0x2830 DUP6 DUP3 DUP7 ADD PUSH2 0x2326 JUMP JUMPDEST SWAP3 POP POP PUSH1 0x20 PUSH2 0x2841 DUP6 DUP3 DUP7 ADD PUSH2 0x27DA JUMP JUMPDEST SWAP2 POP POP SWAP3 POP SWAP3 SWAP1 POP JUMP JUMPDEST PUSH2 0x2854 DUP2 PUSH2 0x245D JUMP JUMPDEST DUP3 MSTORE POP POP JUMP JUMPDEST PUSH1 0x0 PUSH1 0x20 DUP3 ADD SWAP1 POP PUSH2 0x286F PUSH1 0x0 DUP4 ADD DUP5 PUSH2 0x284B JUMP JUMPDEST SWAP3 SWAP2 POP POP JUMP JUMPDEST PUSH1 0x0 DUP1 PUSH1 0x0 DUP1 PUSH1 0x80 DUP6 DUP8 SUB SLT ISZERO PUSH2 0x288F JUMPI PUSH2 0x288E PUSH2 0x2204 JUMP JUMPDEST JUMPDEST PUSH1 0x0 DUP6 ADD CALLDATALOAD PUSH8 0xFFFFFFFFFFFFFFFF DUP2 GT ISZERO PUSH2 0x28AD JUMPI PUSH2 0x28AC PUSH2 0x2209 JUMP JUMPDEST JUMPDEST PUSH2 0x28B9 DUP8 DUP3 DUP9 ADD PUSH2 0x2326 JUMP JUMPDEST SWAP5 POP POP PUSH1 0x20 PUSH2 0x28CA DUP8 DUP3 DUP9 ADD PUSH2 0x27DA JUMP JUMPDEST SWAP4 POP POP PUSH1 0x40 PUSH2 0x28DB DUP8 DUP3 DUP9 ADD PUSH2 0x27DA JUMP JUMPDEST SWAP3 POP POP PUSH1 0x60 PUSH2 0x28EC DUP8 DUP3 DUP9 ADD PUSH2 0x27DA JUMP JUMPDEST SWAP2 POP POP SWAP3 SWAP6 SWAP2 SWAP5 POP SWAP3 POP JUMP JUMPDEST PUSH1 0x0 PUSH1 0x40 DUP3 ADD SWAP1 POP PUSH2 0x290D PUSH1 0x0 DUP4 ADD DUP6 PUSH2 0x284B JUMP JUMPDEST PUSH2 0x291A PUSH1 0x20 DUP4 ADD DUP5 PUSH2 0x284B JUMP JUMPDEST SWAP4 SWAP3 POP POP POP JUMP JUMPDEST PUSH1 0x0 DUP2 SWAP1 POP SWAP3 SWAP2 POP POP JUMP JUMPDEST PUSH1 0x0 PUSH2 0x2937 DUP3 PUSH2 0x239D JUMP JUMPDEST PUSH2 0x2941 DUP2 DUP6 PUSH2 0x2921 JUMP JUMPDEST SWAP4 POP PUSH2 0x2951 DUP2 DUP6 PUSH1 0x20 DUP7 ADD PUSH2 0x23B9 JUMP JUMPDEST DUP1 DUP5 ADD SWAP2 POP POP SWAP3 SWAP2 POP POP JUMP JUMPDEST PUSH1 0x0 PUSH2 0x2969 DUP3 DUP5 PUSH2 0x292C JUMP JUMPDEST SWAP2 POP DUP2 SWAP1 POP SWAP3 SWAP2 POP POP JUMP JUMPDEST PUSH32 0x4E487B7100000000000000000000000000000000000000000000000000000000 PUSH1 0x0 MSTORE PUSH1 0x22 PUSH1 0x4 MSTORE PUSH1 0x24 PUSH1 0x0 REVERT JUMPDEST PUSH1 0x0 PUSH1 0x2 DUP3 DIV SWAP1 POP PUSH1 0x1 DUP3 AND DUP1 PUSH2 0x29BB JUMPI PUSH1 0x7F DUP3 AND SWAP2 POP JUMPDEST PUSH1 0x20 DUP3 LT DUP2 SUB PUSH2 0x29CE JUMPI PUSH2 0x29CD PUSH2 0x2974 JUMP JUMPDEST JUMPDEST POP SWAP2 SWAP1 POP JUMP JUMPDEST PUSH1 0x0 DUP3 DUP3 MSTORE PUSH1 0x20 DUP3 ADD SWAP1 POP SWAP3 SWAP2 POP POP JUMP JUMPDEST PUSH32 0x5468652063757272656E742075736572206973206E6F742061207075626C6973 PUSH1 0x0 DUP3 ADD MSTORE PUSH32 0x6865720000000000000000000000000000000000000000000000000000000000 PUSH1 0x20 DUP3 ADD MSTORE POP JUMP JUMPDEST PUSH1 0x0 PUSH2 0x2A41 PUSH1 0x23 DUP4 PUSH2 0x29D4 JUMP JUMPDEST SWAP2 POP PUSH2 0x2A4C DUP3 PUSH2 0x29E5 JUMP JUMPDEST PUSH1 0x40 DUP3 ADD SWAP1 POP SWAP2 SWAP1 POP JUMP JUMPDEST PUSH1 0x0 PUSH1 0x20 DUP3 ADD SWAP1 POP DUP2 DUP2 SUB PUSH1 0x0 DUP4 ADD MSTORE PUSH2 0x2A70 DUP2 PUSH2 0x2A34 JUMP JUMPDEST SWAP1 POP SWAP2 SWAP1 POP JUMP JUMPDEST PUSH32 0x54686520696E69746961746F722063616E6E6F74206368616C6C656E67652068 PUSH1 0x0 DUP3 ADD MSTORE PUSH32 0x69732070726F706F736974696F6E000000000000000000000000000000000000 PUSH1 0x20 DUP3 ADD MSTORE POP JUMP JUMPDEST PUSH1 0x0 PUSH2 0x2AD3 PUSH1 0x2E DUP4 PUSH2 0x29D4 JUMP JUMPDEST SWAP2 POP PUSH2 0x2ADE DUP3 PUSH2 0x2A77 JUMP JUMPDEST PUSH1 0x40 DUP3 ADD SWAP1 POP SWAP2 SWAP1 POP JUMP JUMPDEST PUSH1 0x0 PUSH1 0x20 DUP3 ADD SWAP1 POP DUP2 DUP2 SUB PUSH1 0x0 DUP4 ADD MSTORE PUSH2 0x2B02 DUP2 PUSH2 0x2AC6 JUMP JUMPDEST SWAP1 POP SWAP2 SWAP1 POP JUMP JUMPDEST PUSH32 0x5468652063757272656E74206368616C6C656E6765206973206F766572000000 PUSH1 0x0 DUP3 ADD MSTORE POP JUMP JUMPDEST PUSH1 0x0 PUSH2 0x2B3F PUSH1 0x1D DUP4 PUSH2 0x29D4 JUMP JUMPDEST SWAP2 POP PUSH2 0x2B4A DUP3 PUSH2 0x2B09 JUMP JUMPDEST PUSH1 0x20 DUP3 ADD SWAP1 POP SWAP2 SWAP1 POP JUMP JUMPDEST PUSH1 0x0 PUSH1 0x20 DUP3 ADD SWAP1 POP DUP2 DUP2 SUB PUSH1 0x0 DUP4 ADD MSTORE PUSH2 0x2B6E DUP2 PUSH2 0x2B32 JUMP JUMPDEST SWAP1 POP SWAP2 SWAP1 POP JUMP JUMPDEST PUSH32 0x5468652063757272656E74206368616C6C656E67652074696D65206973206F76 PUSH1 0x0 DUP3 ADD MSTORE PUSH32 0x6572000000000000000000000000000000000000000000000000000000000000 PUSH1 0x20 DUP3 ADD MSTORE POP JUMP JUMPDEST PUSH1 0x0 PUSH2 0x2BD1 PUSH1 0x22 DUP4 PUSH2 0x29D4 JUMP JUMPDEST SWAP2 POP PUSH2 0x2BDC DUP3 PUSH2 0x2B75 JUMP JUMPDEST PUSH1 0x40 DUP3 ADD SWAP1 POP SWAP2 SWAP1 POP JUMP JUMPDEST PUSH1 0x0 PUSH1 0x20 DUP3 ADD SWAP1 POP DUP2 DUP2 SUB PUSH1 0x0 DUP4 ADD MSTORE PUSH2 0x2C00 DUP2 PUSH2 0x2BC4 JUMP JUMPDEST SWAP1 POP SWAP2 SWAP1 POP JUMP JUMPDEST PUSH32 0x54686520746F74616C206368616C6C656E676520616D6F756E742063616E6E6F PUSH1 0x0 DUP3 ADD MSTORE PUSH32 0x7420626520686967686572207468616E20746865206D6178696D756D20617661 PUSH1 0x20 DUP3 ADD MSTORE PUSH32 0x696C61626C652071756F74610000000000000000000000000000000000000000 PUSH1 0x40 DUP3 ADD MSTORE POP JUMP JUMPDEST PUSH1 0x0 PUSH2 0x2C89 PUSH1 0x4C DUP4 PUSH2 0x29D4 JUMP JUMPDEST SWAP2 POP PUSH2 0x2C94 DUP3 PUSH2 0x2C07 JUMP JUMPDEST PUSH1 0x60 DUP3 ADD SWAP1 POP SWAP2 SWAP1 POP JUMP JUMPDEST PUSH1 0x0 PUSH1 0x20 DUP3 ADD SWAP1 POP DUP2 DUP2 SUB PUSH1 0x0 DUP4 ADD MSTORE PUSH2 0x2CB8 DUP2 PUSH2 0x2C7C JUMP JUMPDEST SWAP1 POP SWAP2 SWAP1 POP JUMP JUMPDEST PUSH32 0x546865206E756D626572206F66206368616C6C656E6765732063616E6E6F7420 PUSH1 0x0 DUP3 ADD MSTORE PUSH32 0x6265207A65726F00000000000000000000000000000000000000000000000000 PUSH1 0x20 DUP3 ADD MSTORE POP JUMP JUMPDEST PUSH1 0x0 PUSH2 0x2D1B PUSH1 0x27 DUP4 PUSH2 0x29D4 JUMP JUMPDEST SWAP2 POP PUSH2 0x2D26 DUP3 PUSH2 0x2CBF JUMP JUMPDEST PUSH1 0x40 DUP3 ADD SWAP1 POP SWAP2 SWAP1 POP JUMP JUMPDEST PUSH1 0x0 PUSH1 0x20 DUP3 ADD SWAP1 POP DUP2 DUP2 SUB PUSH1 0x0 DUP4 ADD MSTORE PUSH2 0x2D4A DUP2 PUSH2 0x2D0E JUMP JUMPDEST SWAP1 POP SWAP2 SWAP1 POP JUMP JUMPDEST PUSH32 0x4E487B7100000000000000000000000000000000000000000000000000000000 PUSH1 0x0 MSTORE PUSH1 0x11 PUSH1 0x4 MSTORE PUSH1 0x24 PUSH1 0x0 REVERT JUMPDEST PUSH1 0x0 PUSH2 0x2D8B DUP3 PUSH2 0x245D JUMP JUMPDEST SWAP2 POP PUSH2 0x2D96 DUP4 PUSH2 0x245D JUMP JUMPDEST SWAP3 POP DUP3 DUP3 ADD SWAP1 POP DUP1 DUP3 GT ISZERO PUSH2 0x2DAE JUMPI PUSH2 0x2DAD PUSH2 0x2D51 JUMP JUMPDEST JUMPDEST SWAP3 SWAP2 POP POP JUMP JUMPDEST PUSH1 0x0 DUP2 SWAP1 POP DUP2 PUSH1 0x0 MSTORE PUSH1 0x20 PUSH1 0x0 KECCAK256 SWAP1 POP SWAP2 SWAP1 POP JUMP JUMPDEST PUSH1 0x0 PUSH1 0x20 PUSH1 0x1F DUP4 ADD DIV SWAP1 POP SWAP2 SWAP1 POP JUMP JUMPDEST PUSH1 0x0 DUP3 DUP3 SHL SWAP1 POP SWAP3 SWAP2 POP POP JUMP JUMPDEST PUSH1 0x0 PUSH1 0x8 DUP4 MUL PUSH2 0x2E16 PUSH32 0xFFFFFFFFFFFFFFFFFFFFFFFFFFFFFFFFFFFFFFFFFFFFFFFFFFFFFFFFFFFFFFFF DUP3 PUSH2 0x2DD9 JUMP JUMPDEST PUSH2 0x2E20 DUP7 DUP4 PUSH2 0x2DD9 JUMP JUMPDEST SWAP6 POP DUP1 NOT DUP5 AND SWAP4 POP DUP1 DUP7 AND DUP5 OR SWAP3 POP POP POP SWAP4 SWAP3 POP POP POP JUMP JUMPDEST PUSH1 0x0 DUP2 SWAP1 POP SWAP2 SWAP1 POP JUMP JUMPDEST PUSH1 0x0 PUSH2 0x2E5D PUSH2 0x2E58 PUSH2 0x2E53 DUP5 PUSH2 0x245D JUMP JUMPDEST PUSH2 0x2E38 JUMP JUMPDEST PUSH2 0x245D JUMP JUMPDEST SWAP1 POP SWAP2 SWAP1 POP JUMP JUMPDEST PUSH1 0x0 DUP2 SWAP1 POP SWAP2 SWAP1 POP JUMP JUMPDEST PUSH2 0x2E77 DUP4 PUSH2 0x2E42 JUMP JUMPDEST PUSH2 0x2E8B PUSH2 0x2E83 DUP3 PUSH2 0x2E64 JUMP JUMPDEST DUP5 DUP5 SLOAD PUSH2 0x2DE6 JUMP JUMPDEST DUP3 SSTORE POP POP POP POP JUMP JUMPDEST PUSH1 0x0 SWAP1 JUMP JUMPDEST PUSH2 0x2EA0 PUSH2 0x2E93 JUMP JUMPDEST PUSH2 0x2EAB DUP2 DUP5 DUP5 PUSH2 0x2E6E JUMP JUMPDEST POP POP POP JUMP JUMPDEST JUMPDEST DUP2 DUP2 LT ISZERO PUSH2 0x2ECF JUMPI PUSH2 0x2EC4 PUSH1 0x0 DUP3 PUSH2 0x2E98 JUMP JUMPDEST PUSH1 0x1 DUP2 ADD SWAP1 POP PUSH2 0x2EB1 JUMP JUMPDEST POP POP JUMP JUMPDEST PUSH1 0x1F DUP3 GT ISZERO PUSH2 0x2F14 JUMPI PUSH2 0x2EE5 DUP2 PUSH2 0x2DB4 JUMP JUMPDEST PUSH2 0x2EEE DUP5 PUSH2 0x2DC9 JUMP JUMPDEST DUP2 ADD PUSH1 0x20 DUP6 LT ISZERO PUSH2 0x2EFD JUMPI DUP2 SWAP1 POP JUMPDEST PUSH2 0x2F11 PUSH2 0x2F09 DUP6 PUSH2 0x2DC9 JUMP JUMPDEST DUP4 ADD DUP3 PUSH2 0x2EB0 JUMP JUMPDEST POP POP JUMPDEST POP POP POP JUMP JUMPDEST PUSH1 0x0 DUP3 DUP3 SHR SWAP1 POP SWAP3 SWAP2 POP POP JUMP JUMPDEST PUSH1 0x0 PUSH2 0x2F37 PUSH1 0x0 NOT DUP5 PUSH1 0x8 MUL PUSH2 0x2F19 JUMP JUMPDEST NOT DUP1 DUP4 AND SWAP2 POP POP SWAP3 SWAP2 POP POP JUMP JUMPDEST PUSH1 0x0 PUSH2 0x2F50 DUP4 DUP4 PUSH2 0x2F26 JUMP JUMPDEST SWAP2 POP DUP3 PUSH1 0x2 MUL DUP3 OR SWAP1 POP SWAP3 SWAP2 POP POP JUMP JUMPDEST PUSH2 0x2F69 DUP3 PUSH2 0x239D JUMP JUMPDEST PUSH8 0xFFFFFFFFFFFFFFFF DUP2 GT ISZERO PUSH2 0x2F82 JUMPI PUSH2 0x2F81 PUSH2 0x2229 JUMP JUMPDEST JUMPDEST PUSH2 0x2F8C DUP3 SLOAD PUSH2 0x29A3 JUMP JUMPDEST PUSH2 0x2F97 DUP3 DUP3 DUP6 PUSH2 0x2ED3 JUMP JUMPDEST PUSH1 0x0 PUSH1 0x20 SWAP1 POP PUSH1 0x1F DUP4 GT PUSH1 0x1 DUP2 EQ PUSH2 0x2FCA JUMPI PUSH1 0x0 DUP5 ISZERO PUSH2 0x2FB8 JUMPI DUP3 DUP8 ADD MLOAD SWAP1 POP JUMPDEST PUSH2 0x2FC2 DUP6 DUP3 PUSH2 0x2F44 JUMP JUMPDEST DUP7 SSTORE POP PUSH2 0x302A JUMP JUMPDEST PUSH1 0x1F NOT DUP5 AND PUSH2 0x2FD8 DUP7 PUSH2 0x2DB4 JUMP JUMPDEST PUSH1 0x0 JUMPDEST DUP3 DUP2 LT ISZERO PUSH2 0x3000 JUMPI DUP5 DUP10 ADD MLOAD DUP3 SSTORE PUSH1 0x1 DUP3 ADD SWAP2 POP PUSH1 0x20 DUP6 ADD SWAP5 POP PUSH1 0x20 DUP2 ADD SWAP1 POP PUSH2 0x2FDB JUMP JUMPDEST DUP7 DUP4 LT ISZERO PUSH2 0x301D JUMPI DUP5 DUP10 ADD MLOAD PUSH2 0x3019 PUSH1 0x1F DUP10 AND DUP3 PUSH2 0x2F26 JUMP JUMPDEST DUP4 SSTORE POP JUMPDEST PUSH1 0x1 PUSH1 0x2 DUP9 MUL ADD DUP9 SSTORE POP POP POP JUMPDEST POP POP POP POP POP POP JUMP JUMPDEST PUSH2 0x303B DUP2 PUSH2 0x243C JUMP JUMPDEST DUP3 MSTORE POP POP JUMP JUMPDEST PUSH1 0x0 PUSH1 0x20 DUP3 ADD SWAP1 POP PUSH2 0x3056 PUSH1 0x0 DUP4 ADD DUP5 PUSH2 0x3032 JUMP JUMPDEST SWAP3 SWAP2 POP POP JUMP JUMPDEST PUSH1 0x0 DUP2 MLOAD SWAP1 POP PUSH2 0x306B DUP2 PUSH2 0x27C3 JUMP JUMPDEST SWAP3 SWAP2 POP POP JUMP JUMPDEST PUSH1 0x0 PUSH1 0x20 DUP3 DUP5 SUB SLT ISZERO PUSH2 0x3087 JUMPI PUSH2 0x3086 PUSH2 0x2204 JUMP JUMPDEST JUMPDEST PUSH1 0x0 PUSH2 0x3095 DUP5 DUP3 DUP6 ADD PUSH2 0x305C JUMP JUMPDEST SWAP2 POP POP SWAP3 SWAP2 POP POP JUMP JUMPDEST PUSH32 0x596F752068617665207265636569766564207265776172647300000000000000 PUSH1 0x0 DUP3 ADD MSTORE POP JUMP JUMPDEST PUSH1 0x0 PUSH2 0x30D4 PUSH1 0x19 DUP4 PUSH2 0x29D4 JUMP JUMPDEST SWAP2 POP PUSH2 0x30DF DUP3 PUSH2 0x309E JUMP JUMPDEST PUSH1 0x20 DUP3 ADD SWAP1 POP SWAP2 SWAP1 POP JUMP JUMPDEST PUSH1 0x0 PUSH1 0x20 DUP3 ADD SWAP1 POP DUP2 DUP2 SUB PUSH1 0x0 DUP4 ADD MSTORE PUSH2 0x3103 DUP2 PUSH2 0x30C7 JUMP JUMPDEST SWAP1 POP SWAP2 SWAP1 POP JUMP JUMPDEST PUSH32 0x546865206368616C6C656E6765206973206E6F74206F76657200000000000000 PUSH1 0x0 DUP3 ADD MSTORE POP JUMP JUMPDEST PUSH1 0x0 PUSH2 0x3140 PUSH1 0x19 DUP4 PUSH2 0x29D4 JUMP JUMPDEST SWAP2 POP PUSH2 0x314B DUP3 PUSH2 0x310A JUMP JUMPDEST PUSH1 0x20 DUP3 ADD SWAP1 POP SWAP2 SWAP1 POP JUMP JUMPDEST PUSH1 0x0 PUSH1 0x20 DUP3 ADD SWAP1 POP DUP2 DUP2 SUB PUSH1 0x0 DUP4 ADD MSTORE PUSH2 0x316F DUP2 PUSH2 0x3133 JUMP JUMPDEST SWAP1 POP SWAP2 SWAP1 POP JUMP JUMPDEST PUSH32 0x5468652075736572206973206E6F7420696E766F6C76656420696E2074686520 PUSH1 0x0 DUP3 ADD MSTORE PUSH32 0x63757272656E74206368616C6C656E6765000000000000000000000000000000 PUSH1 0x20 DUP3 ADD MSTORE POP JUMP JUMPDEST PUSH1 0x0 PUSH2 0x31D2 PUSH1 0x31 DUP4 PUSH2 0x29D4 JUMP JUMPDEST SWAP2 POP PUSH2 0x31DD DUP3 PUSH2 0x3176 JUMP JUMPDEST PUSH1 0x40 DUP3 ADD SWAP1 POP SWAP2 SWAP1 POP JUMP JUMPDEST PUSH1 0x0 PUSH1 0x20 DUP3 ADD SWAP1 POP DUP2 DUP2 SUB PUSH1 0x0 DUP4 ADD MSTORE PUSH2 0x3201 DUP2 PUSH2 0x31C5 JUMP JUMPDEST SWAP1 POP SWAP2 SWAP1 POP JUMP JUMPDEST PUSH32 0x4368616C6C656E6765206661696C656400000000000000000000000000000000 PUSH1 0x0 DUP3 ADD MSTORE POP JUMP JUMPDEST PUSH1 0x0 PUSH2 0x323E PUSH1 0x10 DUP4 PUSH2 0x29D4 JUMP JUMPDEST SWAP2 POP PUSH2 0x3249 DUP3 PUSH2 0x3208 JUMP JUMPDEST PUSH1 0x20 DUP3 ADD SWAP1 POP SWAP2 SWAP1 POP JUMP JUMPDEST PUSH1 0x0 PUSH1 0x20 DUP3 ADD SWAP1 POP DUP2 DUP2 SUB PUSH1 0x0 DUP4 ADD MSTORE PUSH2 0x326D DUP2 PUSH2 0x3231 JUMP JUMPDEST SWAP1 POP SWAP2 SWAP1 POP JUMP JUMPDEST PUSH32 0x546865207468656D65496420486173206265656E20696E697469617465640000 PUSH1 0x0 DUP3 ADD MSTORE POP JUMP JUMPDEST PUSH1 0x0 PUSH2 0x32AA PUSH1 0x1E DUP4 PUSH2 0x29D4 JUMP JUMPDEST SWAP2 POP PUSH2 0x32B5 DUP3 PUSH2 0x3274 JUMP JUMPDEST PUSH1 0x20 DUP3 ADD SWAP1 POP SWAP2 SWAP1 POP JUMP JUMPDEST PUSH1 0x0 PUSH1 0x20 DUP3 ADD SWAP1 POP DUP2 DUP2 SUB PUSH1 0x0 DUP4 ADD MSTORE PUSH2 0x32D9 DUP2 PUSH2 0x329D JUMP JUMPDEST SWAP1 POP SWAP2 SWAP1 POP JUMP JUMPDEST PUSH32 0x5075626C697368657220746F6B656E20616D6F756E7420310000000000000000 PUSH1 0x0 DUP3 ADD MSTORE POP JUMP JUMPDEST PUSH1 0x0 PUSH2 0x3316 PUSH1 0x18 DUP4 PUSH2 0x29D4 JUMP JUMPDEST SWAP2 POP PUSH2 0x3321 DUP3 PUSH2 0x32E0 JUMP JUMPDEST PUSH1 0x20 DUP3 ADD SWAP1 POP SWAP2 SWAP1 POP JUMP JUMPDEST PUSH1 0x0 PUSH1 0x20 DUP3 ADD SWAP1 POP DUP2 DUP2 SUB PUSH1 0x0 DUP4 ADD MSTORE PUSH2 0x3345 DUP2 PUSH2 0x3309 JUMP JUMPDEST SWAP1 POP SWAP2 SWAP1 POP JUMP JUMPDEST PUSH32 0x546865206D696E696D756D2076616C7565206F66206D61676E69666963617469 PUSH1 0x0 DUP3 ADD MSTORE PUSH32 0x6F6E206973203200000000000000000000000000000000000000000000000000 PUSH1 0x20 DUP3 ADD MSTORE POP JUMP JUMPDEST PUSH1 0x0 PUSH2 0x33A8 PUSH1 0x27 DUP4 PUSH2 0x29D4 JUMP JUMPDEST SWAP2 POP PUSH2 0x33B3 DUP3 PUSH2 0x334C JUMP JUMPDEST PUSH1 0x40 DUP3 ADD SWAP1 POP SWAP2 SWAP1 POP JUMP JUMPDEST PUSH1 0x0 PUSH1 0x20 DUP3 ADD SWAP1 POP DUP2 DUP2 SUB PUSH1 0x0 DUP4 ADD MSTORE PUSH2 0x33D7 DUP2 PUSH2 0x339B JUMP JUMPDEST SWAP1 POP SWAP2 SWAP1 POP JUMP JUMPDEST PUSH32 0x536166654D6174683A206164646974696F6E206F766572666C6F770000000000 PUSH1 0x0 DUP3 ADD MSTORE POP JUMP JUMPDEST PUSH1 0x0 PUSH2 0x3414 PUSH1 0x1B DUP4 PUSH2 0x29D4 JUMP JUMPDEST SWAP2 POP PUSH2 0x341F DUP3 PUSH2 0x33DE JUMP JUMPDEST PUSH1 0x20 DUP3 ADD SWAP1 POP SWAP2 SWAP1 POP JUMP JUMPDEST PUSH1 0x0 PUSH1 0x20 DUP3 ADD SWAP1 POP DUP2 DUP2 SUB PUSH1 0x0 DUP4 ADD MSTORE PUSH2 0x3443 DUP2 PUSH2 0x3407 JUMP JUMPDEST SWAP1 POP SWAP2 SWAP1 POP JUMP JUMPDEST PUSH1 0x0 PUSH2 0x3455 DUP3 PUSH2 0x245D JUMP JUMPDEST SWAP2 POP PUSH2 0x3460 DUP4 PUSH2 0x245D JUMP JUMPDEST SWAP3 POP DUP3 DUP3 MUL PUSH2 0x346E DUP2 PUSH2 0x245D JUMP JUMPDEST SWAP2 POP DUP3 DUP3 DIV DUP5 EQ DUP4 ISZERO OR PUSH2 0x3485 JUMPI PUSH2 0x3484 PUSH2 0x2D51 JUMP JUMPDEST JUMPDEST POP SWAP3 SWAP2 POP POP JUMP JUMPDEST PUSH32 0x4E487B7100000000000000000000000000000000000000000000000000000000 PUSH1 0x0 MSTORE PUSH1 0x12 PUSH1 0x4 MSTORE PUSH1 0x24 PUSH1 0x0 REVERT JUMPDEST PUSH1 0x0 PUSH2 0x34C6 DUP3 PUSH2 0x245D JUMP JUMPDEST SWAP2 POP PUSH2 0x34D1 DUP4 PUSH2 0x245D JUMP JUMPDEST SWAP3 POP DUP3 PUSH2 0x34E1 JUMPI PUSH2 0x34E0 PUSH2 0x348C JUMP JUMPDEST JUMPDEST DUP3 DUP3 DIV SWAP1 POP SWAP3 SWAP2 POP POP JUMP JUMPDEST PUSH32 0x536166654D6174683A206D756C7469706C69636174696F6E206F766572666C6F PUSH1 0x0 DUP3 ADD MSTORE PUSH32 0x7700000000000000000000000000000000000000000000000000000000000000 PUSH1 0x20 DUP3 ADD MSTORE POP JUMP JUMPDEST PUSH1 0x0 PUSH2 0x3548 PUSH1 0x21 DUP4 PUSH2 0x29D4 JUMP JUMPDEST SWAP2 POP PUSH2 0x3553 DUP3 PUSH2 0x34EC JUMP JUMPDEST PUSH1 0x40 DUP3 ADD SWAP1 POP SWAP2 SWAP1 POP JUMP JUMPDEST PUSH1 0x0 PUSH1 0x20 DUP3 ADD SWAP1 POP DUP2 DUP2 SUB PUSH1 0x0 DUP4 ADD MSTORE PUSH2 0x3577 DUP2 PUSH2 0x353B JUMP JUMPDEST SWAP1 POP SWAP2 SWAP1 POP JUMP JUMPDEST PUSH1 0x0 PUSH1 0x60 DUP3 ADD SWAP1 POP PUSH2 0x3593 PUSH1 0x0 DUP4 ADD DUP7 PUSH2 0x3032 JUMP JUMPDEST PUSH2 0x35A0 PUSH1 0x20 DUP4 ADD DUP6 PUSH2 0x3032 JUMP JUMPDEST PUSH2 0x35AD PUSH1 0x40 DUP4 ADD DUP5 PUSH2 0x284B JUMP JUMPDEST SWAP5 SWAP4 POP POP POP POP JUMP JUMPDEST PUSH1 0x0 PUSH1 0x40 DUP3 ADD SWAP1 POP PUSH2 0x35CA PUSH1 0x0 DUP4 ADD DUP6 PUSH2 0x3032 JUMP JUMPDEST PUSH2 0x35D7 PUSH1 0x20 DUP4 ADD DUP5 PUSH2 0x284B JUMP JUMPDEST SWAP4 SWAP3 POP POP POP JUMP JUMPDEST PUSH1 0x0 PUSH2 0x35E9 DUP3 PUSH2 0x239D JUMP JUMPDEST PUSH2 0x35F3 DUP2 DUP6 PUSH2 0x29D4 JUMP JUMPDEST SWAP4 POP PUSH2 0x3603 DUP2 DUP6 PUSH1 0x20 DUP7 ADD PUSH2 0x23B9 JUMP JUMPDEST PUSH2 0x360C DUP2 PUSH2 0x2218 JUMP JUMPDEST DUP5 ADD SWAP2 POP POP SWAP3 SWAP2 POP POP JUMP JUMPDEST PUSH1 0x0 PUSH1 0x20 DUP3 ADD SWAP1 POP DUP2 DUP2 SUB PUSH1 0x0 DUP4 ADD MSTORE PUSH2 0x3631 DUP2 DUP5 PUSH2 0x35DE JUMP JUMPDEST SWAP1 POP SWAP3 SWAP2 POP POP JUMP JUMPDEST PUSH1 0x0 PUSH2 0x3644 DUP3 PUSH2 0x245D JUMP JUMPDEST SWAP2 POP PUSH2 0x364F DUP4 PUSH2 0x245D JUMP JUMPDEST SWAP3 POP DUP3 DUP3 SUB SWAP1 POP DUP2 DUP2 GT ISZERO PUSH2 0x3667 JUMPI PUSH2 0x3666 PUSH2 0x2D51 JUMP JUMPDEST JUMPDEST SWAP3 SWAP2 POP POP JUMP JUMPDEST PUSH1 0x0 DUP2 MLOAD SWAP1 POP PUSH2 0x367C DUP2 PUSH2 0x273B JUMP JUMPDEST SWAP3 SWAP2 POP POP JUMP JUMPDEST PUSH1 0x0 PUSH1 0x20 DUP3 DUP5 SUB SLT ISZERO PUSH2 0x3698 JUMPI PUSH2 0x3697 PUSH2 0x2204 JUMP JUMPDEST JUMPDEST PUSH1 0x0 PUSH2 0x36A6 DUP5 DUP3 DUP6 ADD PUSH2 0x366D JUMP JUMPDEST SWAP2 POP POP SWAP3 SWAP2 POP POP JUMP JUMPDEST PUSH32 0x5361666545524332303A204552433230206F7065726174696F6E20646964206E PUSH1 0x0 DUP3 ADD MSTORE PUSH32 0x6F74207375636365656400000000000000000000000000000000000000000000 PUSH1 0x20 DUP3 ADD MSTORE POP JUMP JUMPDEST PUSH1 0x0 PUSH2 0x370B PUSH1 0x2A DUP4 PUSH2 0x29D4 JUMP JUMPDEST SWAP2 POP PUSH2 0x3716 DUP3 PUSH2 0x36AF JUMP JUMPDEST PUSH1 0x40 DUP3 ADD SWAP1 POP SWAP2 SWAP1 POP JUMP JUMPDEST PUSH1 0x0 PUSH1 0x20 DUP3 ADD SWAP1 POP DUP2 DUP2 SUB PUSH1 0x0 DUP4 ADD MSTORE PUSH2 0x373A DUP2 PUSH2 0x36FE JUMP JUMPDEST SWAP1 POP SWAP2 SWAP1 POP JUMP JUMPDEST PUSH32 0x416464726573733A20696E73756666696369656E742062616C616E636520666F PUSH1 0x0 DUP3 ADD MSTORE PUSH32 0x722063616C6C0000000000000000000000000000000000000000000000000000 PUSH1 0x20 DUP3 ADD MSTORE POP JUMP JUMPDEST PUSH1 0x0 PUSH2 0x379D PUSH1 0x26 DUP4 PUSH2 0x29D4 JUMP JUMPDEST SWAP2 POP PUSH2 0x37A8 DUP3 PUSH2 0x3741 JUMP JUMPDEST PUSH1 0x40 DUP3 ADD SWAP1 POP SWAP2 SWAP1 POP JUMP JUMPDEST PUSH1 0x0 PUSH1 0x20 DUP3 ADD SWAP1 POP DUP2 DUP2 SUB PUSH1 0x0 DUP4 ADD MSTORE PUSH2 0x37CC DUP2 PUSH2 0x3790 JUMP JUMPDEST SWAP1 POP SWAP2 SWAP1 POP JUMP JUMPDEST PUSH32 0x416464726573733A2063616C6C20746F206E6F6E2D636F6E7472616374000000 PUSH1 0x0 DUP3 ADD MSTORE POP JUMP JUMPDEST PUSH1 0x0 PUSH2 0x3809 PUSH1 0x1D DUP4 PUSH2 0x29D4 JUMP JUMPDEST SWAP2 POP PUSH2 0x3814 DUP3 PUSH2 0x37D3 JUMP JUMPDEST PUSH1 0x20 DUP3 ADD SWAP1 POP SWAP2 SWAP1 POP JUMP JUMPDEST PUSH1 0x0 PUSH1 0x20 DUP3 ADD SWAP1 POP DUP2 DUP2 SUB PUSH1 0x0 DUP4 ADD MSTORE PUSH2 0x3838 DUP2 PUSH2 0x37FC JUMP JUMPDEST SWAP1 POP SWAP2 SWAP1 POP JUMP JUMPDEST PUSH1 0x0 DUP2 MLOAD SWAP1 POP SWAP2 SWAP1 POP JUMP JUMPDEST PUSH1 0x0 DUP2 SWAP1 POP SWAP3 SWAP2 POP POP JUMP JUMPDEST PUSH1 0x0 PUSH2 0x3860 DUP3 PUSH2 0x383F JUMP JUMPDEST PUSH2 0x386A DUP2 DUP6 PUSH2 0x384A JUMP JUMPDEST SWAP4 POP PUSH2 0x387A DUP2 DUP6 PUSH1 0x20 DUP7 ADD PUSH2 0x23B9 JUMP JUMPDEST DUP1 DUP5 ADD SWAP2 POP POP SWAP3 SWAP2 POP POP JUMP JUMPDEST PUSH1 0x0 PUSH2 0x3892 DUP3 DUP5 PUSH2 0x3855 JUMP JUMPDEST SWAP2 POP DUP2 SWAP1 POP SWAP3 SWAP2 POP POP JUMP INVALID MSTORE8 PUSH2 0x6665 GASLIMIT MSTORE NUMBER ORIGIN ADDRESS GASPRICE KECCAK256 PUSH13 0x6F772D6C6576656C2063616C6C KECCAK256 PUSH7 0x61696C65642073 PUSH2 0x6665 PREVRANDAO PUSH6 0x637265617365 COINBASE PUSH13 0x6C6F77616E6365A26469706673 PC 0x22 SLT KECCAK256 PUSH30 0xE2829EB0442AB008294B8FBEDD3946F9B891E8E85B863B18F156A5C406F0 DUP8 PUSH5 0x736F6C6343 STOP ADDMOD SLT STOP CALLER "
				},
				"gasEstimates": {
					"creation": {
						"codeDepositCost": "2920200",
						"executionCost": "27467",
						"totalCost": "2947667"
					},
					"external": {
						"CompleteTheChallenge(string,bool)": "infinite",
						"challengeTheme(string,uint256)": "infinite",
						"challengerReceiveRewards(string)": "infinite",
						"getExchangeInfo(string,address)": "infinite",
						"getTotalRewardByTheme(string)": "infinite",
						"getTotalRewardByTheme2(string)": "infinite",
						"initiationTheme(string,uint256,uint256,uint256)": "infinite",
						"publisherReceiveRewards(string)": "infinite",
						"test(string,uint256)": "infinite",
						"tokenBalance()": "infinite",
						"updateThemeCompleteTime(string,uint256)": "infinite",
						"withdrawal()": "infinite"
					}
				},
				"methodIdentifiers": {
					"CompleteTheChallenge(string,bool)": "47ce1f7e",
					"challengeTheme(string,uint256)": "7a3c666d",
					"challengerReceiveRewards(string)": "b0345a56",
					"getExchangeInfo(string,address)": "20215dc4",
					"getTotalRewardByTheme(string)": "6441f9d0",
					"getTotalRewardByTheme2(string)": "1d3bc3a6",
					"initiationTheme(string,uint256,uint256,uint256)": "c6905603",
					"publisherReceiveRewards(string)": "b03f15c4",
					"test(string,uint256)": "f89d0ec9",
					"tokenBalance()": "9e1a4d19",
					"updateThemeCompleteTime(string,uint256)": "4c846b8b",
					"withdrawal()": "d4e93292"
				}
			},
			"storageLayout": {
				"storage": [
					{
						"astId": 750,
						"contract": "challeng/my_contract/Challeng-v2.sol:challenge",
						"label": "_token",
						"offset": 0,
						"slot": "0",
						"type": "t_contract(IERC20)75"
					},
					{
						"astId": 801,
						"contract": "challeng/my_contract/Challeng-v2.sol:challenge",
						"label": "_challengeTheme",
						"offset": 0,
						"slot": "1",
						"type": "t_mapping(t_string_memory_ptr,t_struct(Theme)775_storage)"
					},
					{
						"astId": 808,
						"contract": "challeng/my_contract/Challeng-v2.sol:challenge",
						"label": "_challengerInfo",
						"offset": 0,
						"slot": "2",
						"type": "t_mapping(t_string_memory_ptr,t_mapping(t_address,t_struct(ChallengerInfo)796_storage))"
					},
					{
						"astId": 812,
						"contract": "challeng/my_contract/Challeng-v2.sol:challenge",
						"label": "_lastFaucetTime",
						"offset": 0,
						"slot": "3",
						"type": "t_mapping(t_address,t_uint256)"
					}
				],
				"types": {
					"t_address": {
						"encoding": "inplace",
						"label": "address",
						"numberOfBytes": "20"
					},
					"t_bool": {
						"encoding": "inplace",
						"label": "bool",
						"numberOfBytes": "1"
					},
					"t_contract(IERC20)75": {
						"encoding": "inplace",
						"label": "contract IERC20",
						"numberOfBytes": "20"
					},
					"t_mapping(t_address,t_struct(ChallengerInfo)796_storage)": {
						"encoding": "mapping",
						"key": "t_address",
						"label": "mapping(address => struct challenge.ChallengerInfo)",
						"numberOfBytes": "32",
						"value": "t_struct(ChallengerInfo)796_storage"
					},
					"t_mapping(t_address,t_uint256)": {
						"encoding": "mapping",
						"key": "t_address",
						"label": "mapping(address => uint256)",
						"numberOfBytes": "32",
						"value": "t_uint256"
					},
					"t_mapping(t_string_memory_ptr,t_mapping(t_address,t_struct(ChallengerInfo)796_storage))": {
						"encoding": "mapping",
						"key": "t_string_memory_ptr",
						"label": "mapping(string => mapping(address => struct challenge.ChallengerInfo))",
						"numberOfBytes": "32",
						"value": "t_mapping(t_address,t_struct(ChallengerInfo)796_storage)"
					},
					"t_mapping(t_string_memory_ptr,t_struct(Theme)775_storage)": {
						"encoding": "mapping",
						"key": "t_string_memory_ptr",
						"label": "mapping(string => struct challenge.Theme)",
						"numberOfBytes": "32",
						"value": "t_struct(Theme)775_storage"
					},
					"t_string_memory_ptr": {
						"encoding": "bytes",
						"label": "string",
						"numberOfBytes": "32"
					},
					"t_string_storage": {
						"encoding": "bytes",
						"label": "string",
						"numberOfBytes": "32"
					},
					"t_struct(ChallengerInfo)796_storage": {
						"encoding": "inplace",
						"label": "struct challenge.ChallengerInfo",
						"members": [
							{
								"astId": 777,
								"contract": "challeng/my_contract/Challeng-v2.sol:challenge",
								"label": "amount",
								"offset": 0,
								"slot": "0",
								"type": "t_uint256"
							},
							{
								"astId": 779,
								"contract": "challeng/my_contract/Challeng-v2.sol:challenge",
								"label": "challengeTime",
								"offset": 0,
								"slot": "1",
								"type": "t_uint256"
							},
							{
								"astId": 781,
								"contract": "challeng/my_contract/Challeng-v2.sol:challenge",
								"label": "result",
								"offset": 0,
								"slot": "2",
								"type": "t_bool"
							},
							{
								"astId": 783,
								"contract": "challeng/my_contract/Challeng-v2.sol:challenge",
								"label": "challeng",
								"offset": 1,
								"slot": "2",
								"type": "t_bool"
							},
							{
								"astId": 785,
								"contract": "challeng/my_contract/Challeng-v2.sol:challenge",
								"label": "challengResult",
								"offset": 2,
								"slot": "2",
								"type": "t_bool"
							},
							{
								"astId": 787,
								"contract": "challeng/my_contract/Challeng-v2.sol:challenge",
								"label": "hasReceive",
								"offset": 3,
								"slot": "2",
								"type": "t_bool"
							},
							{
								"astId": 789,
								"contract": "challeng/my_contract/Challeng-v2.sol:challenge",
								"label": "theme",
								"offset": 4,
								"slot": "2",
								"type": "t_bool"
							},
							{
								"astId": 791,
								"contract": "challeng/my_contract/Challeng-v2.sol:challenge",
								"label": "reward",
								"offset": 0,
								"slot": "3",
								"type": "t_uint256"
							},
							{
								"astId": 793,
								"contract": "challeng/my_contract/Challeng-v2.sol:challenge",
								"label": "times",
								"offset": 0,
								"slot": "4",
								"type": "t_uint256"
							},
							{
								"astId": 795,
								"contract": "challeng/my_contract/Challeng-v2.sol:challenge",
								"label": "idstr",
								"offset": 0,
								"slot": "5",
								"type": "t_string_storage"
							}
						],
						"numberOfBytes": "192"
					},
					"t_struct(Theme)775_storage": {
						"encoding": "inplace",
						"label": "struct challenge.Theme",
						"members": [
							{
								"astId": 752,
								"contract": "challeng/my_contract/Challeng-v2.sol:challenge",
								"label": "idstr",
								"offset": 0,
								"slot": "0",
								"type": "t_string_storage"
							},
							{
								"astId": 754,
								"contract": "challeng/my_contract/Challeng-v2.sol:challenge",
								"label": "originator",
								"offset": 0,
								"slot": "1",
								"type": "t_address"
							},
							{
								"astId": 756,
								"contract": "challeng/my_contract/Challeng-v2.sol:challenge",
								"label": "reward",
								"offset": 0,
								"slot": "2",
								"type": "t_uint256"
							},
							{
								"astId": 758,
								"contract": "challeng/my_contract/Challeng-v2.sol:challenge",
								"label": "isCompleteTime",
								"offset": 0,
								"slot": "3",
								"type": "t_uint256"
							},
							{
								"astId": 760,
								"contract": "challeng/my_contract/Challeng-v2.sol:challenge",
								"label": "isComplete",
								"offset": 0,
								"slot": "4",
								"type": "t_bool"
							},
							{
								"astId": 762,
								"contract": "challeng/my_contract/Challeng-v2.sol:challenge",
								"label": "challenge",
								"offset": 1,
								"slot": "4",
								"type": "t_bool"
							},
							{
								"astId": 764,
								"contract": "challeng/my_contract/Challeng-v2.sol:challenge",
								"label": "result",
								"offset": 2,
								"slot": "4",
								"type": "t_bool"
							},
							{
								"astId": 766,
								"contract": "challeng/my_contract/Challeng-v2.sol:challenge",
								"label": "challengeTotal",
								"offset": 0,
								"slot": "5",
								"type": "t_uint256"
							},
							{
								"astId": 768,
								"contract": "challeng/my_contract/Challeng-v2.sol:challenge",
								"label": "hasReceive",
								"offset": 0,
								"slot": "6",
								"type": "t_bool"
							},
							{
								"astId": 770,
								"contract": "challeng/my_contract/Challeng-v2.sol:challenge",
								"label": "profit",
								"offset": 0,
								"slot": "7",
								"type": "t_uint256"
							},
							{
								"astId": 772,
								"contract": "challeng/my_contract/Challeng-v2.sol:challenge",
								"label": "odds",
								"offset": 0,
								"slot": "8",
								"type": "t_uint256"
							},
							{
								"astId": 774,
								"contract": "challeng/my_contract/Challeng-v2.sol:challenge",
								"label": "count",
								"offset": 0,
								"slot": "9",
								"type": "t_uint256"
							}
						],
						"numberOfBytes": "320"
					},
					"t_uint256": {
						"encoding": "inplace",
						"label": "uint256",
						"numberOfBytes": "32"
					}
				}
			},
			"userdoc": {
				"kind": "user",
				"methods": {},
				"version": 1
			}
		}
	}
}