{
	"challeng/my_contract/5.channelRewards.sol": {
		"ChannelRewards": {
			"abi": [
				{
					"inputs": [],
					"stateMutability": "nonpayable",
					"type": "constructor"
				},
				{
					"inputs": [
						{
							"internalType": "address",
							"name": "newOwner",
							"type": "address"
						}
					],
					"name": "changeOwner",
					"outputs": [],
					"stateMutability": "nonpayable",
					"type": "function"
				},
				{
					"inputs": [],
					"name": "decimals",
					"outputs": [
						{
							"internalType": "uint256",
							"name": "",
							"type": "uint256"
						}
					],
					"stateMutability": "view",
					"type": "function"
				},
				{
					"inputs": [
						{
							"internalType": "address[]",
							"name": "recipients",
							"type": "address[]"
						},
						{
							"internalType": "uint256[]",
							"name": "values",
							"type": "uint256[]"
						}
					],
					"name": "distributionToSpecify",
					"outputs": [],
					"stateMutability": "nonpayable",
					"type": "function"
				},
				{
					"inputs": [],
					"name": "getRewardAddress",
					"outputs": [
						{
							"internalType": "address",
							"name": "",
							"type": "address"
						}
					],
					"stateMutability": "view",
					"type": "function"
				},
				{
					"inputs": [],
					"name": "getTotalReleased",
					"outputs": [
						{
							"internalType": "uint256",
							"name": "",
							"type": "uint256"
						}
					],
					"stateMutability": "view",
					"type": "function"
				},
				{
					"inputs": [],
					"name": "release",
					"outputs": [],
					"stateMutability": "nonpayable",
					"type": "function"
				},
				{
					"inputs": [
						{
							"internalType": "address",
							"name": "rewardAddress_",
							"type": "address"
						}
					],
					"name": "setRewardAddress",
					"outputs": [],
					"stateMutability": "nonpayable",
					"type": "function"
				},
				{
					"inputs": [
						{
							"internalType": "address",
							"name": "tokenAddress",
							"type": "address"
						}
					],
					"name": "setTokenAddress",
					"outputs": [],
					"stateMutability": "nonpayable",
					"type": "function"
				},
				{
					"inputs": [],
					"name": "token",
					"outputs": [
						{
							"internalType": "contract IERC20",
							"name": "",
							"type": "address"
						}
					],
					"stateMutability": "view",
					"type": "function"
				},
				{
					"inputs": [],
					"name": "tokenBalance",
					"outputs": [
						{
							"internalType": "uint256",
							"name": "",
							"type": "uint256"
						}
					],
					"stateMutability": "view",
					"type": "function"
				}
			],
			"devdoc": {
				"details": "The Ownable contract has an owner address, and provides basic authorization control functions, this simplifies the implementation of \"user permissions\".",
				"kind": "dev",
				"methods": {
					"token()": {
						"details": "Returns the token being held."
					}
				},
				"title": "Ownable",
				"version": 1
			},
			"evm": {
				"assembly": "    /* \"challeng/my_contract/5.channelRewards.sol\":18814:22353  contract ChannelRewards   {... */\n  mstore(0x40, 0x80)\n    /* \"challeng/my_contract/5.channelRewards.sol\":19021:19023  18 */\n  0x12\n    /* \"challeng/my_contract/5.channelRewards.sol\":18993:19023  uint256 private _decimals = 18 */\n  0x01\n  sstore\n    /* \"challeng/my_contract/5.channelRewards.sol\":19223:19275  constructor() {... */\n  callvalue\n  dup1\n  iszero\n  tag_1\n  jumpi\n  0x00\n  dup1\n  revert\ntag_1:\n  pop\n    /* \"challeng/my_contract/5.channelRewards.sol\":19257:19267  msg.sender */\n  caller\n    /* \"challeng/my_contract/5.channelRewards.sol\":19248:19254  _owner */\n  0x03\n  0x00\n    /* \"challeng/my_contract/5.channelRewards.sol\":19248:19267  _owner = msg.sender */\n  0x0100\n  exp\n  dup2\n  sload\n  dup2\n  0xffffffffffffffffffffffffffffffffffffffff\n  mul\n  not\n  and\n  swap1\n  dup4\n  0xffffffffffffffffffffffffffffffffffffffff\n  and\n  mul\n  or\n  swap1\n  sstore\n  pop\n    /* \"challeng/my_contract/5.channelRewards.sol\":18814:22353  contract ChannelRewards   {... */\n  dataSize(sub_0)\n  dup1\n  dataOffset(sub_0)\n  0x00\n  codecopy\n  0x00\n  return\nstop\n\nsub_0: assembly {\n        /* \"challeng/my_contract/5.channelRewards.sol\":18814:22353  contract ChannelRewards   {... */\n      mstore(0x40, 0x80)\n      callvalue\n      dup1\n      iszero\n      tag_1\n      jumpi\n      0x00\n      dup1\n      revert\n    tag_1:\n      pop\n      jumpi(tag_2, lt(calldatasize, 0x04))\n      shr(0xe0, calldataload(0x00))\n      dup1\n      0x86d1a69f\n      gt\n      tag_13\n      jumpi\n      dup1\n      0x86d1a69f\n      eq\n      tag_8\n      jumpi\n      dup1\n      0x9e1a4d19\n      eq\n      tag_9\n      jumpi\n      dup1\n      0xa6f9dae1\n      eq\n      tag_10\n      jumpi\n      dup1\n      0xbf9321fc\n      eq\n      tag_11\n      jumpi\n      dup1\n      0xfc0c546a\n      eq\n      tag_12\n      jumpi\n      jump(tag_2)\n    tag_13:\n      dup1\n      0x26a4e8d2\n      eq\n      tag_3\n      jumpi\n      dup1\n      0x313ce567\n      eq\n      tag_4\n      jumpi\n      dup1\n      0x4b14c0ef\n      eq\n      tag_5\n      jumpi\n      dup1\n      0x5459b8a3\n      eq\n      tag_6\n      jumpi\n      dup1\n      0x5e00e679\n      eq\n      tag_7\n      jumpi\n    tag_2:\n      0x00\n      dup1\n      revert\n        /* \"challeng/my_contract/5.channelRewards.sol\":19545:19668  function setTokenAddress(address tokenAddress ) public virtual   onlyOwner {... */\n    tag_3:\n      tag_14\n      0x04\n      dup1\n      calldatasize\n      sub\n      dup2\n      add\n      swap1\n      tag_15\n      swap2\n      swap1\n      tag_16\n      jump\t// in\n    tag_15:\n      tag_17\n      jump\t// in\n    tag_14:\n      stop\n        /* \"challeng/my_contract/5.channelRewards.sol\":19942:20035  function decimals() public view virtual returns (uint256) {... */\n    tag_4:\n      tag_18\n      tag_19\n      jump\t// in\n    tag_18:\n      mload(0x40)\n      tag_20\n      swap2\n      swap1\n      tag_21\n      jump\t// in\n    tag_20:\n      mload(0x40)\n      dup1\n      swap2\n      sub\n      swap1\n      return\n        /* \"challeng/my_contract/5.channelRewards.sol\":20043:20149  function getTotalReleased() public view virtual returns (uint256) {... */\n    tag_5:\n      tag_22\n      tag_23\n      jump\t// in\n    tag_22:\n      mload(0x40)\n      tag_24\n      swap2\n      swap1\n      tag_21\n      jump\t// in\n    tag_24:\n      mload(0x40)\n      dup1\n      swap2\n      sub\n      swap1\n      return\n        /* \"challeng/my_contract/5.channelRewards.sol\":20662:21863  function  distributionToSpecify(address[] calldata recipients, uint256[] calldata values) public virtual onlyOwner {... */\n    tag_6:\n      tag_25\n      0x04\n      dup1\n      calldatasize\n      sub\n      dup2\n      add\n      swap1\n      tag_26\n      swap2\n      swap1\n      tag_27\n      jump\t// in\n    tag_26:\n      tag_28\n      jump\t// in\n    tag_25:\n      stop\n        /* \"challeng/my_contract/5.channelRewards.sol\":20272:20381  function setRewardAddress(address rewardAddress_ ) public {... */\n    tag_7:\n      tag_29\n      0x04\n      dup1\n      calldatasize\n      sub\n      dup2\n      add\n      swap1\n      tag_30\n      swap2\n      swap1\n      tag_16\n      jump\t// in\n    tag_30:\n      tag_31\n      jump\t// in\n    tag_29:\n      stop\n        /* \"challeng/my_contract/5.channelRewards.sol\":21915:22348  function release() public onlyOwner{... */\n    tag_8:\n      tag_32\n      tag_33\n      jump\t// in\n    tag_32:\n      stop\n        /* \"challeng/my_contract/5.channelRewards.sol\":20393:20626  function tokenBalance() public view virtual returns (uint256) {... */\n    tag_9:\n      tag_34\n      tag_35\n      jump\t// in\n    tag_34:\n      mload(0x40)\n      tag_36\n      swap2\n      swap1\n      tag_21\n      jump\t// in\n    tag_36:\n      mload(0x40)\n      dup1\n      swap2\n      sub\n      swap1\n      return\n        /* \"challeng/my_contract/5.channelRewards.sol\":19682:19774  function changeOwner(address newOwner) public onlyOwner {... */\n    tag_10:\n      tag_37\n      0x04\n      dup1\n      calldatasize\n      sub\n      dup2\n      add\n      swap1\n      tag_38\n      swap2\n      swap1\n      tag_16\n      jump\t// in\n    tag_38:\n      tag_39\n      jump\t// in\n    tag_37:\n      stop\n        /* \"challeng/my_contract/5.channelRewards.sol\":20158:20264  function getRewardAddress() public view virtual returns (address) {... */\n    tag_11:\n      tag_40\n      tag_41\n      jump\t// in\n    tag_40:\n      mload(0x40)\n      tag_42\n      swap2\n      swap1\n      tag_43\n      jump\t// in\n    tag_42:\n      mload(0x40)\n      dup1\n      swap2\n      sub\n      swap1\n      return\n        /* \"challeng/my_contract/5.channelRewards.sol\":19845:19931  function token() public view virtual returns (IERC20) {... */\n    tag_12:\n      tag_44\n      tag_45\n      jump\t// in\n    tag_44:\n      mload(0x40)\n      tag_46\n      swap2\n      swap1\n      tag_47\n      jump\t// in\n    tag_46:\n      mload(0x40)\n      dup1\n      swap2\n      sub\n      swap1\n      return\n        /* \"challeng/my_contract/5.channelRewards.sol\":19545:19668  function setTokenAddress(address tokenAddress ) public virtual   onlyOwner {... */\n    tag_17:\n        /* \"challeng/my_contract/5.channelRewards.sol\":19424:19430  _owner */\n      0x03\n      0x00\n      swap1\n      sload\n      swap1\n      0x0100\n      exp\n      swap1\n      div\n      0xffffffffffffffffffffffffffffffffffffffff\n      and\n        /* \"challeng/my_contract/5.channelRewards.sol\":19410:19430  msg.sender == _owner */\n      0xffffffffffffffffffffffffffffffffffffffff\n      and\n        /* \"challeng/my_contract/5.channelRewards.sol\":19410:19420  msg.sender */\n      caller\n        /* \"challeng/my_contract/5.channelRewards.sol\":19410:19430  msg.sender == _owner */\n      0xffffffffffffffffffffffffffffffffffffffff\n      and\n      eq\n        /* \"challeng/my_contract/5.channelRewards.sol\":19402:19431  require(msg.sender == _owner) */\n      tag_49\n      jumpi\n      0x00\n      dup1\n      revert\n    tag_49:\n        /* \"challeng/my_contract/5.channelRewards.sol\":19647:19659  tokenAddress */\n      dup1\n        /* \"challeng/my_contract/5.channelRewards.sol\":19631:19637  _token */\n      0x00\n      dup1\n        /* \"challeng/my_contract/5.channelRewards.sol\":19631:19660  _token = IERC20(tokenAddress) */\n      0x0100\n      exp\n      dup2\n      sload\n      dup2\n      0xffffffffffffffffffffffffffffffffffffffff\n      mul\n      not\n      and\n      swap1\n      dup4\n      0xffffffffffffffffffffffffffffffffffffffff\n      and\n      mul\n      or\n      swap1\n      sstore\n      pop\n        /* \"challeng/my_contract/5.channelRewards.sol\":19545:19668  function setTokenAddress(address tokenAddress ) public virtual   onlyOwner {... */\n      pop\n      jump\t// out\n        /* \"challeng/my_contract/5.channelRewards.sol\":19942:20035  function decimals() public view virtual returns (uint256) {... */\n    tag_19:\n        /* \"challeng/my_contract/5.channelRewards.sol\":19991:19998  uint256 */\n      0x00\n        /* \"challeng/my_contract/5.channelRewards.sol\":20018:20027  _decimals */\n      sload(0x01)\n        /* \"challeng/my_contract/5.channelRewards.sol\":20011:20027  return _decimals */\n      swap1\n      pop\n        /* \"challeng/my_contract/5.channelRewards.sol\":19942:20035  function decimals() public view virtual returns (uint256) {... */\n      swap1\n      jump\t// out\n        /* \"challeng/my_contract/5.channelRewards.sol\":20043:20149  function getTotalReleased() public view virtual returns (uint256) {... */\n    tag_23:\n        /* \"challeng/my_contract/5.channelRewards.sol\":20100:20107  uint256 */\n      0x00\n        /* \"challeng/my_contract/5.channelRewards.sol\":20127:20141  _totalReleased */\n      sload(0x02)\n        /* \"challeng/my_contract/5.channelRewards.sol\":20120:20141  return _totalReleased */\n      swap1\n      pop\n        /* \"challeng/my_contract/5.channelRewards.sol\":20043:20149  function getTotalReleased() public view virtual returns (uint256) {... */\n      swap1\n      jump\t// out\n        /* \"challeng/my_contract/5.channelRewards.sol\":20662:21863  function  distributionToSpecify(address[] calldata recipients, uint256[] calldata values) public virtual onlyOwner {... */\n    tag_28:\n        /* \"challeng/my_contract/5.channelRewards.sol\":19424:19430  _owner */\n      0x03\n      0x00\n      swap1\n      sload\n      swap1\n      0x0100\n      exp\n      swap1\n      div\n      0xffffffffffffffffffffffffffffffffffffffff\n      and\n        /* \"challeng/my_contract/5.channelRewards.sol\":19410:19430  msg.sender == _owner */\n      0xffffffffffffffffffffffffffffffffffffffff\n      and\n        /* \"challeng/my_contract/5.channelRewards.sol\":19410:19420  msg.sender */\n      caller\n        /* \"challeng/my_contract/5.channelRewards.sol\":19410:19430  msg.sender == _owner */\n      0xffffffffffffffffffffffffffffffffffffffff\n      and\n      eq\n        /* \"challeng/my_contract/5.channelRewards.sol\":19402:19431  require(msg.sender == _owner) */\n      tag_54\n      jumpi\n      0x00\n      dup1\n      revert\n    tag_54:\n        /* \"challeng/my_contract/5.channelRewards.sol\":20897:20898  0 */\n      0x00\n        /* \"challeng/my_contract/5.channelRewards.sol\":20870:20899  address(_token) != address(0) */\n      0xffffffffffffffffffffffffffffffffffffffff\n      and\n        /* \"challeng/my_contract/5.channelRewards.sol\":20878:20884  _token */\n      0x00\n      dup1\n      sload\n      swap1\n      0x0100\n      exp\n      swap1\n      div\n      0xffffffffffffffffffffffffffffffffffffffff\n      and\n        /* \"challeng/my_contract/5.channelRewards.sol\":20870:20899  address(_token) != address(0) */\n      0xffffffffffffffffffffffffffffffffffffffff\n      and\n      sub\n        /* \"challeng/my_contract/5.channelRewards.sol\":20862:20936  require(address(_token) != address(0) , \"Release: need set Token Address\") */\n      tag_56\n      jumpi\n      mload(0x40)\n      0x08c379a000000000000000000000000000000000000000000000000000000000\n      dup2\n      mstore\n      0x04\n      add\n      tag_57\n      swap1\n      tag_58\n      jump\t// in\n    tag_57:\n      mload(0x40)\n      dup1\n      swap2\n      sub\n      swap1\n      revert\n    tag_56:\n        /* \"challeng/my_contract/5.channelRewards.sol\":20976:20982  values */\n      dup2\n      dup2\n        /* \"challeng/my_contract/5.channelRewards.sol\":20976:20989  values.length */\n      swap1\n      pop\n        /* \"challeng/my_contract/5.channelRewards.sol\":20955:20965  recipients */\n      dup5\n      dup5\n        /* \"challeng/my_contract/5.channelRewards.sol\":20955:20972  recipients.length */\n      swap1\n      pop\n        /* \"challeng/my_contract/5.channelRewards.sol\":20955:20989  recipients.length == values.length */\n      eq\n        /* \"challeng/my_contract/5.channelRewards.sol\":20947:21070  require(recipients.length == values.length,\"Please check the data, the news ID and distribution quantity are inconsistent\") */\n      tag_59\n      jumpi\n      mload(0x40)\n      0x08c379a000000000000000000000000000000000000000000000000000000000\n      dup2\n      mstore\n      0x04\n      add\n      tag_60\n      swap1\n      tag_61\n      jump\t// in\n    tag_60:\n      mload(0x40)\n      dup1\n      swap2\n      sub\n      swap1\n      revert\n    tag_59:\n        /* \"challeng/my_contract/5.channelRewards.sol\":21187:21206  uint256 totalAmount */\n      0x00\n        /* \"challeng/my_contract/5.channelRewards.sol\":21228:21237  uint256 i */\n      dup1\n        /* \"challeng/my_contract/5.channelRewards.sol\":21223:21337  for (uint256 i = 0; i < recipients.length; i++){... */\n    tag_62:\n        /* \"challeng/my_contract/5.channelRewards.sol\":21247:21257  recipients */\n      dup6\n      dup6\n        /* \"challeng/my_contract/5.channelRewards.sol\":21247:21264  recipients.length */\n      swap1\n      pop\n        /* \"challeng/my_contract/5.channelRewards.sol\":21243:21244  i */\n      dup2\n        /* \"challeng/my_contract/5.channelRewards.sol\":21243:21264  i < recipients.length */\n      lt\n        /* \"challeng/my_contract/5.channelRewards.sol\":21223:21337  for (uint256 i = 0; i < recipients.length; i++){... */\n      iszero\n      tag_63\n      jumpi\n        /* \"challeng/my_contract/5.channelRewards.sol\":21299:21325  totalAmount.add(values[i]) */\n      tag_65\n        /* \"challeng/my_contract/5.channelRewards.sol\":21315:21321  values */\n      dup5\n      dup5\n        /* \"challeng/my_contract/5.channelRewards.sol\":21322:21323  i */\n      dup4\n        /* \"challeng/my_contract/5.channelRewards.sol\":21315:21324  values[i] */\n      dup2\n      dup2\n      lt\n      tag_66\n      jumpi\n      tag_67\n      tag_68\n      jump\t// in\n    tag_67:\n    tag_66:\n      swap1\n      pop\n      0x20\n      mul\n      add\n      calldataload\n        /* \"challeng/my_contract/5.channelRewards.sol\":21299:21310  totalAmount */\n      dup4\n        /* \"challeng/my_contract/5.channelRewards.sol\":21299:21314  totalAmount.add */\n      tag_69\n      swap1\n        /* \"challeng/my_contract/5.channelRewards.sol\":21299:21325  totalAmount.add(values[i]) */\n      swap2\n      swap1\n      0xffffffff\n      and\n      jump\t// in\n    tag_65:\n        /* \"challeng/my_contract/5.channelRewards.sol\":21285:21325  totalAmount = totalAmount.add(values[i]) */\n      swap2\n      pop\n        /* \"challeng/my_contract/5.channelRewards.sol\":21266:21269  i++ */\n      dup1\n      dup1\n      tag_70\n      swap1\n      tag_71\n      jump\t// in\n    tag_70:\n      swap2\n      pop\n      pop\n        /* \"challeng/my_contract/5.channelRewards.sol\":21223:21337  for (uint256 i = 0; i < recipients.length; i++){... */\n      jump(tag_62)\n    tag_63:\n      pop\n        /* \"challeng/my_contract/5.channelRewards.sol\":21373:21384  totalAmount */\n      dup1\n        /* \"challeng/my_contract/5.channelRewards.sol\":21355:21369  tokenBalance() */\n      tag_72\n        /* \"challeng/my_contract/5.channelRewards.sol\":21355:21367  tokenBalance */\n      tag_35\n        /* \"challeng/my_contract/5.channelRewards.sol\":21355:21369  tokenBalance() */\n      jump\t// in\n    tag_72:\n        /* \"challeng/my_contract/5.channelRewards.sol\":21355:21384  tokenBalance() >= totalAmount */\n      lt\n      iszero\n        /* \"challeng/my_contract/5.channelRewards.sol\":21347:21446  require(tokenBalance() >= totalAmount , \"The number of air drops exceeds the daily release amount\") */\n      tag_73\n      jumpi\n      mload(0x40)\n      0x08c379a000000000000000000000000000000000000000000000000000000000\n      dup2\n      mstore\n      0x04\n      add\n      tag_74\n      swap1\n      tag_75\n      jump\t// in\n    tag_74:\n      mload(0x40)\n      dup1\n      swap2\n      sub\n      swap1\n      revert\n    tag_73:\n        /* \"challeng/my_contract/5.channelRewards.sol\":21470:21479  uint256 i */\n      0x00\n        /* \"challeng/my_contract/5.channelRewards.sol\":21465:21856  for (uint256 i = 0; i < recipients.length; i++){... */\n    tag_76:\n        /* \"challeng/my_contract/5.channelRewards.sol\":21489:21499  recipients */\n      dup6\n      dup6\n        /* \"challeng/my_contract/5.channelRewards.sol\":21489:21506  recipients.length */\n      swap1\n      pop\n        /* \"challeng/my_contract/5.channelRewards.sol\":21485:21486  i */\n      dup2\n        /* \"challeng/my_contract/5.channelRewards.sol\":21485:21506  i < recipients.length */\n      lt\n        /* \"challeng/my_contract/5.channelRewards.sol\":21465:21856  for (uint256 i = 0; i < recipients.length; i++){... */\n      iszero\n      tag_77\n      jumpi\n        /* \"challeng/my_contract/5.channelRewards.sol\":21737:21782  token().safeTransfer(recipients[i],values[i]) */\n      tag_79\n        /* \"challeng/my_contract/5.channelRewards.sol\":21758:21768  recipients */\n      dup7\n      dup7\n        /* \"challeng/my_contract/5.channelRewards.sol\":21769:21770  i */\n      dup4\n        /* \"challeng/my_contract/5.channelRewards.sol\":21758:21771  recipients[i] */\n      dup2\n      dup2\n      lt\n      tag_80\n      jumpi\n      tag_81\n      tag_68\n      jump\t// in\n    tag_81:\n    tag_80:\n      swap1\n      pop\n      0x20\n      mul\n      add\n      0x20\n      dup2\n      add\n      swap1\n      tag_82\n      swap2\n      swap1\n      tag_16\n      jump\t// in\n    tag_82:\n        /* \"challeng/my_contract/5.channelRewards.sol\":21772:21778  values */\n      dup6\n      dup6\n        /* \"challeng/my_contract/5.channelRewards.sol\":21779:21780  i */\n      dup5\n        /* \"challeng/my_contract/5.channelRewards.sol\":21772:21781  values[i] */\n      dup2\n      dup2\n      lt\n      tag_83\n      jumpi\n      tag_84\n      tag_68\n      jump\t// in\n    tag_84:\n    tag_83:\n      swap1\n      pop\n      0x20\n      mul\n      add\n      calldataload\n        /* \"challeng/my_contract/5.channelRewards.sol\":21737:21744  token() */\n      tag_85\n        /* \"challeng/my_contract/5.channelRewards.sol\":21737:21742  token */\n      tag_45\n        /* \"challeng/my_contract/5.channelRewards.sol\":21737:21744  token() */\n      jump\t// in\n    tag_85:\n        /* \"challeng/my_contract/5.channelRewards.sol\":21737:21757  token().safeTransfer */\n      0xffffffffffffffffffffffffffffffffffffffff\n      and\n      tag_86\n      swap1\n        /* \"challeng/my_contract/5.channelRewards.sol\":21737:21782  token().safeTransfer(recipients[i],values[i]) */\n      swap3\n      swap2\n      swap1\n      0xffffffff\n      and\n      jump\t// in\n    tag_79:\n        /* \"challeng/my_contract/5.channelRewards.sol\":21835:21841  values */\n      dup4\n      dup4\n        /* \"challeng/my_contract/5.channelRewards.sol\":21842:21843  i */\n      dup3\n        /* \"challeng/my_contract/5.channelRewards.sol\":21835:21844  values[i] */\n      dup2\n      dup2\n      lt\n      tag_87\n      jumpi\n      tag_88\n      tag_68\n      jump\t// in\n    tag_88:\n    tag_87:\n      swap1\n      pop\n      0x20\n      mul\n      add\n      calldataload\n        /* \"challeng/my_contract/5.channelRewards.sol\":21818:21832  _totalReleased */\n      sload(0x02)\n        /* \"challeng/my_contract/5.channelRewards.sol\":21818:21844  _totalReleased + values[i] */\n      tag_89\n      swap2\n      swap1\n      tag_90\n      jump\t// in\n    tag_89:\n        /* \"challeng/my_contract/5.channelRewards.sol\":21801:21815  _totalReleased */\n      0x02\n        /* \"challeng/my_contract/5.channelRewards.sol\":21801:21844  _totalReleased = _totalReleased + values[i] */\n      dup2\n      swap1\n      sstore\n      pop\n        /* \"challeng/my_contract/5.channelRewards.sol\":21508:21511  i++ */\n      dup1\n      dup1\n      tag_91\n      swap1\n      tag_71\n      jump\t// in\n    tag_91:\n      swap2\n      pop\n      pop\n        /* \"challeng/my_contract/5.channelRewards.sol\":21465:21856  for (uint256 i = 0; i < recipients.length; i++){... */\n      jump(tag_76)\n    tag_77:\n      pop\n        /* \"challeng/my_contract/5.channelRewards.sol\":20777:21863  {... */\n      pop\n        /* \"challeng/my_contract/5.channelRewards.sol\":20662:21863  function  distributionToSpecify(address[] calldata recipients, uint256[] calldata values) public virtual onlyOwner {... */\n      pop\n      pop\n      pop\n      pop\n      jump\t// out\n        /* \"challeng/my_contract/5.channelRewards.sol\":20272:20381  function setRewardAddress(address rewardAddress_ ) public {... */\n    tag_31:\n        /* \"challeng/my_contract/5.channelRewards.sol\":20359:20373  rewardAddress_ */\n      dup1\n        /* \"challeng/my_contract/5.channelRewards.sol\":20342:20356  _rewardAddress */\n      0x04\n      0x00\n        /* \"challeng/my_contract/5.channelRewards.sol\":20342:20373  _rewardAddress = rewardAddress_ */\n      0x0100\n      exp\n      dup2\n      sload\n      dup2\n      0xffffffffffffffffffffffffffffffffffffffff\n      mul\n      not\n      and\n      swap1\n      dup4\n      0xffffffffffffffffffffffffffffffffffffffff\n      and\n      mul\n      or\n      swap1\n      sstore\n      pop\n        /* \"challeng/my_contract/5.channelRewards.sol\":20272:20381  function setRewardAddress(address rewardAddress_ ) public {... */\n      pop\n      jump\t// out\n        /* \"challeng/my_contract/5.channelRewards.sol\":21915:22348  function release() public onlyOwner{... */\n    tag_33:\n        /* \"challeng/my_contract/5.channelRewards.sol\":19424:19430  _owner */\n      0x03\n      0x00\n      swap1\n      sload\n      swap1\n      0x0100\n      exp\n      swap1\n      div\n      0xffffffffffffffffffffffffffffffffffffffff\n      and\n        /* \"challeng/my_contract/5.channelRewards.sol\":19410:19430  msg.sender == _owner */\n      0xffffffffffffffffffffffffffffffffffffffff\n      and\n        /* \"challeng/my_contract/5.channelRewards.sol\":19410:19420  msg.sender */\n      caller\n        /* \"challeng/my_contract/5.channelRewards.sol\":19410:19430  msg.sender == _owner */\n      0xffffffffffffffffffffffffffffffffffffffff\n      and\n      eq\n        /* \"challeng/my_contract/5.channelRewards.sol\":19402:19431  require(msg.sender == _owner) */\n      tag_94\n      jumpi\n      0x00\n      dup1\n      revert\n    tag_94:\n        /* \"challeng/my_contract/5.channelRewards.sol\":21961:21975  uint256 amount */\n      0x00\n        /* \"challeng/my_contract/5.channelRewards.sol\":21978:21992  tokenBalance() */\n      tag_96\n        /* \"challeng/my_contract/5.channelRewards.sol\":21978:21990  tokenBalance */\n      tag_35\n        /* \"challeng/my_contract/5.channelRewards.sol\":21978:21992  tokenBalance() */\n      jump\t// in\n    tag_96:\n        /* \"challeng/my_contract/5.channelRewards.sol\":21961:21992  uint256 amount = tokenBalance() */\n      swap1\n      pop\n        /* \"challeng/my_contract/5.channelRewards.sol\":22050:22051  0 */\n      0x00\n        /* \"challeng/my_contract/5.channelRewards.sol\":22043:22049  amount */\n      dup2\n        /* \"challeng/my_contract/5.channelRewards.sol\":22043:22051  amount>0 */\n      gt\n        /* \"challeng/my_contract/5.channelRewards.sol\":22035:22074  require(amount>0,\"No quantity to send\") */\n      tag_97\n      jumpi\n      mload(0x40)\n      0x08c379a000000000000000000000000000000000000000000000000000000000\n      dup2\n      mstore\n      0x04\n      add\n      tag_98\n      swap1\n      tag_99\n      jump\t// in\n    tag_98:\n      mload(0x40)\n      dup1\n      swap2\n      sub\n      swap1\n      revert\n    tag_97:\n        /* \"challeng/my_contract/5.channelRewards.sol\":22123:22124  0 */\n      0x00\n        /* \"challeng/my_contract/5.channelRewards.sol\":22093:22125  getRewardAddress() != address(0) */\n      0xffffffffffffffffffffffffffffffffffffffff\n      and\n        /* \"challeng/my_contract/5.channelRewards.sol\":22093:22111  getRewardAddress() */\n      tag_100\n        /* \"challeng/my_contract/5.channelRewards.sol\":22093:22109  getRewardAddress */\n      tag_41\n        /* \"challeng/my_contract/5.channelRewards.sol\":22093:22111  getRewardAddress() */\n      jump\t// in\n    tag_100:\n        /* \"challeng/my_contract/5.channelRewards.sol\":22093:22125  getRewardAddress() != address(0) */\n      0xffffffffffffffffffffffffffffffffffffffff\n      and\n      sub\n        /* \"challeng/my_contract/5.channelRewards.sol\":22085:22161  require(getRewardAddress() != address(0),\"Release: need set Reward Address\") */\n      tag_101\n      jumpi\n      mload(0x40)\n      0x08c379a000000000000000000000000000000000000000000000000000000000\n      dup2\n      mstore\n      0x04\n      add\n      tag_102\n      swap1\n      tag_103\n      jump\t// in\n    tag_102:\n      mload(0x40)\n      dup1\n      swap2\n      sub\n      swap1\n      revert\n    tag_101:\n        /* \"challeng/my_contract/5.channelRewards.sol\":22291:22338  token().safeTransfer(getRewardAddress(),amount) */\n      tag_104\n        /* \"challeng/my_contract/5.channelRewards.sol\":22312:22330  getRewardAddress() */\n      tag_105\n        /* \"challeng/my_contract/5.channelRewards.sol\":22312:22328  getRewardAddress */\n      tag_41\n        /* \"challeng/my_contract/5.channelRewards.sol\":22312:22330  getRewardAddress() */\n      jump\t// in\n    tag_105:\n        /* \"challeng/my_contract/5.channelRewards.sol\":22331:22337  amount */\n      dup3\n        /* \"challeng/my_contract/5.channelRewards.sol\":22291:22298  token() */\n      tag_106\n        /* \"challeng/my_contract/5.channelRewards.sol\":22291:22296  token */\n      tag_45\n        /* \"challeng/my_contract/5.channelRewards.sol\":22291:22298  token() */\n      jump\t// in\n    tag_106:\n        /* \"challeng/my_contract/5.channelRewards.sol\":22291:22311  token().safeTransfer */\n      0xffffffffffffffffffffffffffffffffffffffff\n      and\n      tag_86\n      swap1\n        /* \"challeng/my_contract/5.channelRewards.sol\":22291:22338  token().safeTransfer(getRewardAddress(),amount) */\n      swap3\n      swap2\n      swap1\n      0xffffffff\n      and\n      jump\t// in\n    tag_104:\n        /* \"challeng/my_contract/5.channelRewards.sol\":21950:22348  {... */\n      pop\n        /* \"challeng/my_contract/5.channelRewards.sol\":21915:22348  function release() public onlyOwner{... */\n      jump\t// out\n        /* \"challeng/my_contract/5.channelRewards.sol\":20393:20626  function tokenBalance() public view virtual returns (uint256) {... */\n    tag_35:\n        /* \"challeng/my_contract/5.channelRewards.sol\":20446:20453  uint256 */\n      0x00\n        /* \"challeng/my_contract/5.channelRewards.sol\":20497:20498  0 */\n      dup1\n        /* \"challeng/my_contract/5.channelRewards.sol\":20469:20499  address(token()) == address(0) */\n      0xffffffffffffffffffffffffffffffffffffffff\n      and\n        /* \"challeng/my_contract/5.channelRewards.sol\":20477:20484  token() */\n      tag_108\n        /* \"challeng/my_contract/5.channelRewards.sol\":20477:20482  token */\n      tag_45\n        /* \"challeng/my_contract/5.channelRewards.sol\":20477:20484  token() */\n      jump\t// in\n    tag_108:\n        /* \"challeng/my_contract/5.channelRewards.sol\":20469:20499  address(token()) == address(0) */\n      0xffffffffffffffffffffffffffffffffffffffff\n      and\n      sub\n        /* \"challeng/my_contract/5.channelRewards.sol\":20466:20535  if(address(token()) == address(0)){... */\n      tag_109\n      jumpi\n        /* \"challeng/my_contract/5.channelRewards.sol\":20522:20523  0 */\n      0x00\n        /* \"challeng/my_contract/5.channelRewards.sol\":20515:20523  return 0 */\n      swap1\n      pop\n      jump(tag_107)\n        /* \"challeng/my_contract/5.channelRewards.sol\":20466:20535  if(address(token()) == address(0)){... */\n    tag_109:\n        /* \"challeng/my_contract/5.channelRewards.sol\":20545:20559  uint256 amount */\n      0x00\n        /* \"challeng/my_contract/5.channelRewards.sol\":20562:20569  token() */\n      tag_110\n        /* \"challeng/my_contract/5.channelRewards.sol\":20562:20567  token */\n      tag_45\n        /* \"challeng/my_contract/5.channelRewards.sol\":20562:20569  token() */\n      jump\t// in\n    tag_110:\n        /* \"challeng/my_contract/5.channelRewards.sol\":20562:20579  token().balanceOf */\n      0xffffffffffffffffffffffffffffffffffffffff\n      and\n      0x70a08231\n        /* \"challeng/my_contract/5.channelRewards.sol\":20588:20592  this */\n      address\n        /* \"challeng/my_contract/5.channelRewards.sol\":20562:20594  token().balanceOf(address(this)) */\n      mload(0x40)\n      dup3\n      0xffffffff\n      and\n      0xe0\n      shl\n      dup2\n      mstore\n      0x04\n      add\n      tag_111\n      swap2\n      swap1\n      tag_43\n      jump\t// in\n    tag_111:\n      0x20\n      mload(0x40)\n      dup1\n      dup4\n      sub\n      dup2\n      dup7\n      gas\n      staticcall\n      iszero\n      dup1\n      iszero\n      tag_113\n      jumpi\n      returndatasize\n      0x00\n      dup1\n      returndatacopy\n      revert(0x00, returndatasize)\n    tag_113:\n      pop\n      pop\n      pop\n      pop\n      mload(0x40)\n      returndatasize\n      not(0x1f)\n      0x1f\n      dup3\n      add\n      and\n      dup3\n      add\n      dup1\n      0x40\n      mstore\n      pop\n      dup2\n      add\n      swap1\n      tag_114\n      swap2\n      swap1\n      tag_115\n      jump\t// in\n    tag_114:\n        /* \"challeng/my_contract/5.channelRewards.sol\":20545:20594  uint256 amount = token().balanceOf(address(this)) */\n      swap1\n      pop\n        /* \"challeng/my_contract/5.channelRewards.sol\":20612:20618  amount */\n      dup1\n        /* \"challeng/my_contract/5.channelRewards.sol\":20605:20618  return amount */\n      swap2\n      pop\n      pop\n        /* \"challeng/my_contract/5.channelRewards.sol\":20393:20626  function tokenBalance() public view virtual returns (uint256) {... */\n    tag_107:\n      swap1\n      jump\t// out\n        /* \"challeng/my_contract/5.channelRewards.sol\":19682:19774  function changeOwner(address newOwner) public onlyOwner {... */\n    tag_39:\n        /* \"challeng/my_contract/5.channelRewards.sol\":19424:19430  _owner */\n      0x03\n      0x00\n      swap1\n      sload\n      swap1\n      0x0100\n      exp\n      swap1\n      div\n      0xffffffffffffffffffffffffffffffffffffffff\n      and\n        /* \"challeng/my_contract/5.channelRewards.sol\":19410:19430  msg.sender == _owner */\n      0xffffffffffffffffffffffffffffffffffffffff\n      and\n        /* \"challeng/my_contract/5.channelRewards.sol\":19410:19420  msg.sender */\n      caller\n        /* \"challeng/my_contract/5.channelRewards.sol\":19410:19430  msg.sender == _owner */\n      0xffffffffffffffffffffffffffffffffffffffff\n      and\n      eq\n        /* \"challeng/my_contract/5.channelRewards.sol\":19402:19431  require(msg.sender == _owner) */\n      tag_117\n      jumpi\n      0x00\n      dup1\n      revert\n    tag_117:\n        /* \"challeng/my_contract/5.channelRewards.sol\":19758:19766  newOwner */\n      dup1\n        /* \"challeng/my_contract/5.channelRewards.sol\":19749:19755  _owner */\n      0x03\n      0x00\n        /* \"challeng/my_contract/5.channelRewards.sol\":19749:19766  _owner = newOwner */\n      0x0100\n      exp\n      dup2\n      sload\n      dup2\n      0xffffffffffffffffffffffffffffffffffffffff\n      mul\n      not\n      and\n      swap1\n      dup4\n      0xffffffffffffffffffffffffffffffffffffffff\n      and\n      mul\n      or\n      swap1\n      sstore\n      pop\n        /* \"challeng/my_contract/5.channelRewards.sol\":19682:19774  function changeOwner(address newOwner) public onlyOwner {... */\n      pop\n      jump\t// out\n        /* \"challeng/my_contract/5.channelRewards.sol\":20158:20264  function getRewardAddress() public view virtual returns (address) {... */\n    tag_41:\n        /* \"challeng/my_contract/5.channelRewards.sol\":20215:20222  address */\n      0x00\n        /* \"challeng/my_contract/5.channelRewards.sol\":20242:20256  _rewardAddress */\n      0x04\n      0x00\n      swap1\n      sload\n      swap1\n      0x0100\n      exp\n      swap1\n      div\n      0xffffffffffffffffffffffffffffffffffffffff\n      and\n        /* \"challeng/my_contract/5.channelRewards.sol\":20235:20256  return _rewardAddress */\n      swap1\n      pop\n        /* \"challeng/my_contract/5.channelRewards.sol\":20158:20264  function getRewardAddress() public view virtual returns (address) {... */\n      swap1\n      jump\t// out\n        /* \"challeng/my_contract/5.channelRewards.sol\":19845:19931  function token() public view virtual returns (IERC20) {... */\n    tag_45:\n        /* \"challeng/my_contract/5.channelRewards.sol\":19891:19897  IERC20 */\n      0x00\n        /* \"challeng/my_contract/5.channelRewards.sol\":19917:19923  _token */\n      dup1\n      0x00\n      swap1\n      sload\n      swap1\n      0x0100\n      exp\n      swap1\n      div\n      0xffffffffffffffffffffffffffffffffffffffff\n      and\n        /* \"challeng/my_contract/5.channelRewards.sol\":19910:19923  return _token */\n      swap1\n      pop\n        /* \"challeng/my_contract/5.channelRewards.sol\":19845:19931  function token() public view virtual returns (IERC20) {... */\n      swap1\n      jump\t// out\n        /* \"challeng/my_contract/5.channelRewards.sol\":3156:3337  function add(uint256 a, uint256 b) internal pure returns (uint256) {... */\n    tag_69:\n        /* \"challeng/my_contract/5.channelRewards.sol\":3214:3221  uint256 */\n      0x00\n        /* \"challeng/my_contract/5.channelRewards.sol\":3234:3243  uint256 c */\n      dup1\n        /* \"challeng/my_contract/5.channelRewards.sol\":3250:3251  b */\n      dup3\n        /* \"challeng/my_contract/5.channelRewards.sol\":3246:3247  a */\n      dup5\n        /* \"challeng/my_contract/5.channelRewards.sol\":3246:3251  a + b */\n      tag_122\n      swap2\n      swap1\n      tag_90\n      jump\t// in\n    tag_122:\n        /* \"challeng/my_contract/5.channelRewards.sol\":3234:3251  uint256 c = a + b */\n      swap1\n      pop\n        /* \"challeng/my_contract/5.channelRewards.sol\":3275:3276  a */\n      dup4\n        /* \"challeng/my_contract/5.channelRewards.sol\":3270:3271  c */\n      dup2\n        /* \"challeng/my_contract/5.channelRewards.sol\":3270:3276  c >= a */\n      lt\n      iszero\n        /* \"challeng/my_contract/5.channelRewards.sol\":3262:3308  require(c >= a, \"SafeMath: addition overflow\") */\n      tag_123\n      jumpi\n      mload(0x40)\n      0x08c379a000000000000000000000000000000000000000000000000000000000\n      dup2\n      mstore\n      0x04\n      add\n      tag_124\n      swap1\n      tag_125\n      jump\t// in\n    tag_124:\n      mload(0x40)\n      dup1\n      swap2\n      sub\n      swap1\n      revert\n    tag_123:\n        /* \"challeng/my_contract/5.channelRewards.sol\":3328:3329  c */\n      dup1\n        /* \"challeng/my_contract/5.channelRewards.sol\":3321:3329  return c */\n      swap2\n      pop\n      pop\n        /* \"challeng/my_contract/5.channelRewards.sol\":3156:3337  function add(uint256 a, uint256 b) internal pure returns (uint256) {... */\n      swap3\n      swap2\n      pop\n      pop\n      jump\t// out\n        /* \"challeng/my_contract/5.channelRewards.sol\":15315:15526  function safeTransfer(... */\n    tag_86:\n        /* \"challeng/my_contract/5.channelRewards.sol\":15432:15518  _callOptionalReturn(token, abi.encodeWithSelector(token.transfer.selector, to, value)) */\n      tag_127\n        /* \"challeng/my_contract/5.channelRewards.sol\":15452:15457  token */\n      dup4\n        /* \"challeng/my_contract/5.channelRewards.sol\":15482:15505  token.transfer.selector */\n      shl(0xe0, 0xa9059cbb)\n        /* \"challeng/my_contract/5.channelRewards.sol\":15507:15509  to */\n      dup5\n        /* \"challeng/my_contract/5.channelRewards.sol\":15511:15516  value */\n      dup5\n        /* \"challeng/my_contract/5.channelRewards.sol\":15459:15517  abi.encodeWithSelector(token.transfer.selector, to, value) */\n      add(0x24, mload(0x40))\n      tag_128\n      swap3\n      swap2\n      swap1\n      tag_129\n      jump\t// in\n    tag_128:\n      mload(0x40)\n      0x20\n      dup2\n      dup4\n      sub\n      sub\n      dup2\n      mstore\n      swap1\n      0x40\n      mstore\n      swap1\n      not(0xffffffffffffffffffffffffffffffffffffffffffffffffffffffff)\n      and\n      0x20\n      dup3\n      add\n      dup1\n      mload\n      0xffffffffffffffffffffffffffffffffffffffffffffffffffffffff\n      dup4\n      dup2\n      dup4\n      and\n      or\n      dup4\n      mstore\n      pop\n      pop\n      pop\n      pop\n        /* \"challeng/my_contract/5.channelRewards.sol\":15432:15451  _callOptionalReturn */\n      tag_130\n        /* \"challeng/my_contract/5.channelRewards.sol\":15432:15518  _callOptionalReturn(token, abi.encodeWithSelector(token.transfer.selector, to, value)) */\n      jump\t// in\n    tag_127:\n        /* \"challeng/my_contract/5.channelRewards.sol\":15315:15526  function safeTransfer(... */\n      pop\n      pop\n      pop\n      jump\t// out\n        /* \"challeng/my_contract/5.channelRewards.sol\":17888:18604  function _callOptionalReturn(IERC20 token, bytes memory data) private {... */\n    tag_130:\n        /* \"challeng/my_contract/5.channelRewards.sol\":18312:18335  bytes memory returndata */\n      0x00\n        /* \"challeng/my_contract/5.channelRewards.sol\":18338:18407  address(token).functionCall(data, \"SafeERC20: low-level call failed\") */\n      tag_132\n        /* \"challeng/my_contract/5.channelRewards.sol\":18366:18370  data */\n      dup3\n        /* \"challeng/my_contract/5.channelRewards.sol\":18338:18407  address(token).functionCall(data, \"SafeERC20: low-level call failed\") */\n      mload(0x40)\n      dup1\n      0x40\n      add\n      0x40\n      mstore\n      dup1\n      0x20\n      dup2\n      mstore\n      0x20\n      add\n      0x5361666545524332303a206c6f772d6c6576656c2063616c6c206661696c6564\n      dup2\n      mstore\n      pop\n        /* \"challeng/my_contract/5.channelRewards.sol\":18346:18351  token */\n      dup6\n        /* \"challeng/my_contract/5.channelRewards.sol\":18338:18365  address(token).functionCall */\n      0xffffffffffffffffffffffffffffffffffffffff\n      and\n      tag_133\n      swap1\n        /* \"challeng/my_contract/5.channelRewards.sol\":18338:18407  address(token).functionCall(data, \"SafeERC20: low-level call failed\") */\n      swap3\n      swap2\n      swap1\n      0xffffffff\n      and\n      jump\t// in\n    tag_132:\n        /* \"challeng/my_contract/5.channelRewards.sol\":18312:18407  bytes memory returndata = address(token).functionCall(data, \"SafeERC20: low-level call failed\") */\n      swap1\n      pop\n        /* \"challeng/my_contract/5.channelRewards.sol\":18442:18443  0 */\n      0x00\n        /* \"challeng/my_contract/5.channelRewards.sol\":18422:18432  returndata */\n      dup2\n        /* \"challeng/my_contract/5.channelRewards.sol\":18422:18439  returndata.length */\n      mload\n        /* \"challeng/my_contract/5.channelRewards.sol\":18422:18443  returndata.length > 0 */\n      gt\n        /* \"challeng/my_contract/5.channelRewards.sol\":18418:18597  if (returndata.length > 0) {... */\n      iszero\n      tag_134\n      jumpi\n        /* \"challeng/my_contract/5.channelRewards.sol\":18519:18529  returndata */\n      dup1\n        /* \"challeng/my_contract/5.channelRewards.sol\":18508:18538  abi.decode(returndata, (bool)) */\n      dup1\n      0x20\n      add\n      swap1\n      mload\n      dup2\n      add\n      swap1\n      tag_135\n      swap2\n      swap1\n      tag_136\n      jump\t// in\n    tag_135:\n        /* \"challeng/my_contract/5.channelRewards.sol\":18500:18585  require(abi.decode(returndata, (bool)), \"SafeERC20: ERC20 operation did not succeed\") */\n      tag_137\n      jumpi\n      mload(0x40)\n      0x08c379a000000000000000000000000000000000000000000000000000000000\n      dup2\n      mstore\n      0x04\n      add\n      tag_138\n      swap1\n      tag_139\n      jump\t// in\n    tag_138:\n      mload(0x40)\n      dup1\n      swap2\n      sub\n      swap1\n      revert\n    tag_137:\n        /* \"challeng/my_contract/5.channelRewards.sol\":18418:18597  if (returndata.length > 0) {... */\n    tag_134:\n        /* \"challeng/my_contract/5.channelRewards.sol\":17958:18604  {... */\n      pop\n        /* \"challeng/my_contract/5.channelRewards.sol\":17888:18604  function _callOptionalReturn(IERC20 token, bytes memory data) private {... */\n      pop\n      pop\n      jump\t// out\n        /* \"challeng/my_contract/5.channelRewards.sol\":10262:10491  function functionCall(... */\n    tag_133:\n        /* \"challeng/my_contract/5.channelRewards.sol\":10399:10411  bytes memory */\n      0x60\n        /* \"challeng/my_contract/5.channelRewards.sol\":10431:10483  functionCallWithValue(target, data, 0, errorMessage) */\n      tag_141\n        /* \"challeng/my_contract/5.channelRewards.sol\":10453:10459  target */\n      dup5\n        /* \"challeng/my_contract/5.channelRewards.sol\":10461:10465  data */\n      dup5\n        /* \"challeng/my_contract/5.channelRewards.sol\":10467:10468  0 */\n      0x00\n        /* \"challeng/my_contract/5.channelRewards.sol\":10470:10482  errorMessage */\n      dup6\n        /* \"challeng/my_contract/5.channelRewards.sol\":10431:10452  functionCallWithValue */\n      tag_142\n        /* \"challeng/my_contract/5.channelRewards.sol\":10431:10483  functionCallWithValue(target, data, 0, errorMessage) */\n      jump\t// in\n    tag_141:\n        /* \"challeng/my_contract/5.channelRewards.sol\":10424:10483  return functionCallWithValue(target, data, 0, errorMessage) */\n      swap1\n      pop\n        /* \"challeng/my_contract/5.channelRewards.sol\":10262:10491  function functionCall(... */\n      swap4\n      swap3\n      pop\n      pop\n      pop\n      jump\t// out\n        /* \"challeng/my_contract/5.channelRewards.sol\":11382:11892  function functionCallWithValue(... */\n    tag_142:\n        /* \"challeng/my_contract/5.channelRewards.sol\":11552:11564  bytes memory */\n      0x60\n        /* \"challeng/my_contract/5.channelRewards.sol\":11610:11615  value */\n      dup3\n        /* \"challeng/my_contract/5.channelRewards.sol\":11585:11606  address(this).balance */\n      selfbalance\n        /* \"challeng/my_contract/5.channelRewards.sol\":11585:11615  address(this).balance >= value */\n      lt\n      iszero\n        /* \"challeng/my_contract/5.channelRewards.sol\":11577:11658  require(address(this).balance >= value, \"Address: insufficient balance for call\") */\n      tag_144\n      jumpi\n      mload(0x40)\n      0x08c379a000000000000000000000000000000000000000000000000000000000\n      dup2\n      mstore\n      0x04\n      add\n      tag_145\n      swap1\n      tag_146\n      jump\t// in\n    tag_145:\n      mload(0x40)\n      dup1\n      swap2\n      sub\n      swap1\n      revert\n    tag_144:\n        /* \"challeng/my_contract/5.channelRewards.sol\":11677:11695  isContract(target) */\n      tag_147\n        /* \"challeng/my_contract/5.channelRewards.sol\":11688:11694  target */\n      dup6\n        /* \"challeng/my_contract/5.channelRewards.sol\":11677:11687  isContract */\n      tag_148\n        /* \"challeng/my_contract/5.channelRewards.sol\":11677:11695  isContract(target) */\n      jump\t// in\n    tag_147:\n        /* \"challeng/my_contract/5.channelRewards.sol\":11669:11729  require(isContract(target), \"Address: call to non-contract\") */\n      tag_149\n      jumpi\n      mload(0x40)\n      0x08c379a000000000000000000000000000000000000000000000000000000000\n      dup2\n      mstore\n      0x04\n      add\n      tag_150\n      swap1\n      tag_151\n      jump\t// in\n    tag_150:\n      mload(0x40)\n      dup1\n      swap2\n      sub\n      swap1\n      revert\n    tag_149:\n        /* \"challeng/my_contract/5.channelRewards.sol\":11743:11755  bool success */\n      0x00\n        /* \"challeng/my_contract/5.channelRewards.sol\":11757:11780  bytes memory returndata */\n      dup1\n        /* \"challeng/my_contract/5.channelRewards.sol\":11784:11790  target */\n      dup7\n        /* \"challeng/my_contract/5.channelRewards.sol\":11784:11795  target.call */\n      0xffffffffffffffffffffffffffffffffffffffff\n      and\n        /* \"challeng/my_contract/5.channelRewards.sol\":11803:11808  value */\n      dup6\n        /* \"challeng/my_contract/5.channelRewards.sol\":11810:11814  data */\n      dup8\n        /* \"challeng/my_contract/5.channelRewards.sol\":11784:11815  target.call{value: value}(data) */\n      mload(0x40)\n      tag_152\n      swap2\n      swap1\n      tag_153\n      jump\t// in\n    tag_152:\n      0x00\n      mload(0x40)\n      dup1\n      dup4\n      sub\n      dup2\n      dup6\n      dup8\n      gas\n      call\n      swap3\n      pop\n      pop\n      pop\n      returndatasize\n      dup1\n      0x00\n      dup2\n      eq\n      tag_156\n      jumpi\n      mload(0x40)\n      swap2\n      pop\n      and(add(returndatasize, 0x3f), not(0x1f))\n      dup3\n      add\n      0x40\n      mstore\n      returndatasize\n      dup3\n      mstore\n      returndatasize\n      0x00\n      0x20\n      dup5\n      add\n      returndatacopy\n      jump(tag_155)\n    tag_156:\n      0x60\n      swap2\n      pop\n    tag_155:\n      pop\n        /* \"challeng/my_contract/5.channelRewards.sol\":11742:11815  (bool success, bytes memory returndata) = target.call{value: value}(data) */\n      swap2\n      pop\n      swap2\n      pop\n        /* \"challeng/my_contract/5.channelRewards.sol\":11833:11884  verifyCallResult(success, returndata, errorMessage) */\n      tag_157\n        /* \"challeng/my_contract/5.channelRewards.sol\":11850:11857  success */\n      dup3\n        /* \"challeng/my_contract/5.channelRewards.sol\":11859:11869  returndata */\n      dup3\n        /* \"challeng/my_contract/5.channelRewards.sol\":11871:11883  errorMessage */\n      dup7\n        /* \"challeng/my_contract/5.channelRewards.sol\":11833:11849  verifyCallResult */\n      tag_158\n        /* \"challeng/my_contract/5.channelRewards.sol\":11833:11884  verifyCallResult(success, returndata, errorMessage) */\n      jump\t// in\n    tag_157:\n        /* \"challeng/my_contract/5.channelRewards.sol\":11826:11884  return verifyCallResult(success, returndata, errorMessage) */\n      swap3\n      pop\n      pop\n      pop\n        /* \"challeng/my_contract/5.channelRewards.sol\":11382:11892  function functionCallWithValue(... */\n      swap5\n      swap4\n      pop\n      pop\n      pop\n      pop\n      jump\t// out\n        /* \"challeng/my_contract/5.channelRewards.sol\":7517:7843  function isContract(address account) internal view returns (bool) {... */\n    tag_148:\n        /* \"challeng/my_contract/5.channelRewards.sol\":7577:7581  bool */\n      0x00\n        /* \"challeng/my_contract/5.channelRewards.sol\":7834:7835  0 */\n      dup1\n        /* \"challeng/my_contract/5.channelRewards.sol\":7812:7819  account */\n      dup3\n        /* \"challeng/my_contract/5.channelRewards.sol\":7812:7831  account.code.length */\n      0xffffffffffffffffffffffffffffffffffffffff\n      and\n      extcodesize\n        /* \"challeng/my_contract/5.channelRewards.sol\":7812:7835  account.code.length > 0 */\n      gt\n        /* \"challeng/my_contract/5.channelRewards.sol\":7805:7835  return account.code.length > 0 */\n      swap1\n      pop\n        /* \"challeng/my_contract/5.channelRewards.sol\":7517:7843  function isContract(address account) internal view returns (bool) {... */\n      swap2\n      swap1\n      pop\n      jump\t// out\n        /* \"challeng/my_contract/5.channelRewards.sol\":14068:14780  function verifyCallResult(... */\n    tag_158:\n        /* \"challeng/my_contract/5.channelRewards.sol\":14218:14230  bytes memory */\n      0x60\n        /* \"challeng/my_contract/5.channelRewards.sol\":14247:14254  success */\n      dup4\n        /* \"challeng/my_contract/5.channelRewards.sol\":14243:14773  if (success) {... */\n      iszero\n      tag_161\n      jumpi\n        /* \"challeng/my_contract/5.channelRewards.sol\":14278:14288  returndata */\n      dup3\n        /* \"challeng/my_contract/5.channelRewards.sol\":14271:14288  return returndata */\n      swap1\n      pop\n      jump(tag_160)\n        /* \"challeng/my_contract/5.channelRewards.sol\":14243:14773  if (success) {... */\n    tag_161:\n        /* \"challeng/my_contract/5.channelRewards.sol\":14412:14413  0 */\n      0x00\n        /* \"challeng/my_contract/5.channelRewards.sol\":14392:14402  returndata */\n      dup4\n        /* \"challeng/my_contract/5.channelRewards.sol\":14392:14409  returndata.length */\n      mload\n        /* \"challeng/my_contract/5.channelRewards.sol\":14392:14413  returndata.length > 0 */\n      gt\n        /* \"challeng/my_contract/5.channelRewards.sol\":14388:14762  if (returndata.length > 0) {... */\n      iszero\n      tag_163\n      jumpi\n        /* \"challeng/my_contract/5.channelRewards.sol\":14590:14600  returndata */\n      dup3\n        /* \"challeng/my_contract/5.channelRewards.sol\":14584:14601  mload(returndata) */\n      mload\n        /* \"challeng/my_contract/5.channelRewards.sol\":14651:14666  returndata_size */\n      dup1\n        /* \"challeng/my_contract/5.channelRewards.sol\":14638:14648  returndata */\n      dup5\n        /* \"challeng/my_contract/5.channelRewards.sol\":14634:14636  32 */\n      0x20\n        /* \"challeng/my_contract/5.channelRewards.sol\":14630:14649  add(32, returndata) */\n      add\n        /* \"challeng/my_contract/5.channelRewards.sol\":14623:14667  revert(add(32, returndata), returndata_size) */\n      revert\n        /* \"challeng/my_contract/5.channelRewards.sol\":14388:14762  if (returndata.length > 0) {... */\n    tag_163:\n        /* \"challeng/my_contract/5.channelRewards.sol\":14733:14745  errorMessage */\n      dup2\n        /* \"challeng/my_contract/5.channelRewards.sol\":14726:14746  revert(errorMessage) */\n      mload(0x40)\n      0x08c379a000000000000000000000000000000000000000000000000000000000\n      dup2\n      mstore\n      0x04\n      add\n      tag_165\n      swap2\n      swap1\n      tag_166\n      jump\t// in\n    tag_165:\n      mload(0x40)\n      dup1\n      swap2\n      sub\n      swap1\n      revert\n        /* \"challeng/my_contract/5.channelRewards.sol\":14068:14780  function verifyCallResult(... */\n    tag_160:\n      swap4\n      swap3\n      pop\n      pop\n      pop\n      jump\t// out\n        /* \"#utility.yul\":88:205   */\n    tag_168:\n        /* \"#utility.yul\":197:198   */\n      0x00\n        /* \"#utility.yul\":194:195   */\n      dup1\n        /* \"#utility.yul\":187:199   */\n      revert\n        /* \"#utility.yul\":211:328   */\n    tag_169:\n        /* \"#utility.yul\":320:321   */\n      0x00\n        /* \"#utility.yul\":317:318   */\n      dup1\n        /* \"#utility.yul\":310:322   */\n      revert\n        /* \"#utility.yul\":334:460   */\n    tag_170:\n        /* \"#utility.yul\":371:378   */\n      0x00\n        /* \"#utility.yul\":411:453   */\n      0xffffffffffffffffffffffffffffffffffffffff\n        /* \"#utility.yul\":404:409   */\n      dup3\n        /* \"#utility.yul\":400:454   */\n      and\n        /* \"#utility.yul\":389:454   */\n      swap1\n      pop\n        /* \"#utility.yul\":334:460   */\n      swap2\n      swap1\n      pop\n      jump\t// out\n        /* \"#utility.yul\":466:562   */\n    tag_171:\n        /* \"#utility.yul\":503:510   */\n      0x00\n        /* \"#utility.yul\":532:556   */\n      tag_225\n        /* \"#utility.yul\":550:555   */\n      dup3\n        /* \"#utility.yul\":532:556   */\n      tag_170\n      jump\t// in\n    tag_225:\n        /* \"#utility.yul\":521:556   */\n      swap1\n      pop\n        /* \"#utility.yul\":466:562   */\n      swap2\n      swap1\n      pop\n      jump\t// out\n        /* \"#utility.yul\":568:690   */\n    tag_172:\n        /* \"#utility.yul\":641:665   */\n      tag_227\n        /* \"#utility.yul\":659:664   */\n      dup2\n        /* \"#utility.yul\":641:665   */\n      tag_171\n      jump\t// in\n    tag_227:\n        /* \"#utility.yul\":634:639   */\n      dup2\n        /* \"#utility.yul\":631:666   */\n      eq\n        /* \"#utility.yul\":621:684   */\n      tag_228\n      jumpi\n        /* \"#utility.yul\":680:681   */\n      0x00\n        /* \"#utility.yul\":677:678   */\n      dup1\n        /* \"#utility.yul\":670:682   */\n      revert\n        /* \"#utility.yul\":621:684   */\n    tag_228:\n        /* \"#utility.yul\":568:690   */\n      pop\n      jump\t// out\n        /* \"#utility.yul\":696:835   */\n    tag_173:\n        /* \"#utility.yul\":742:747   */\n      0x00\n        /* \"#utility.yul\":780:786   */\n      dup2\n        /* \"#utility.yul\":767:787   */\n      calldataload\n        /* \"#utility.yul\":758:787   */\n      swap1\n      pop\n        /* \"#utility.yul\":796:829   */\n      tag_230\n        /* \"#utility.yul\":823:828   */\n      dup2\n        /* \"#utility.yul\":796:829   */\n      tag_172\n      jump\t// in\n    tag_230:\n        /* \"#utility.yul\":696:835   */\n      swap3\n      swap2\n      pop\n      pop\n      jump\t// out\n        /* \"#utility.yul\":841:1170   */\n    tag_16:\n        /* \"#utility.yul\":900:906   */\n      0x00\n        /* \"#utility.yul\":949:951   */\n      0x20\n        /* \"#utility.yul\":937:946   */\n      dup3\n        /* \"#utility.yul\":928:935   */\n      dup5\n        /* \"#utility.yul\":924:947   */\n      sub\n        /* \"#utility.yul\":920:952   */\n      slt\n        /* \"#utility.yul\":917:1036   */\n      iszero\n      tag_232\n      jumpi\n        /* \"#utility.yul\":955:1034   */\n      tag_233\n      tag_168\n      jump\t// in\n    tag_233:\n        /* \"#utility.yul\":917:1036   */\n    tag_232:\n        /* \"#utility.yul\":1075:1076   */\n      0x00\n        /* \"#utility.yul\":1100:1153   */\n      tag_234\n        /* \"#utility.yul\":1145:1152   */\n      dup5\n        /* \"#utility.yul\":1136:1142   */\n      dup3\n        /* \"#utility.yul\":1125:1134   */\n      dup6\n        /* \"#utility.yul\":1121:1143   */\n      add\n        /* \"#utility.yul\":1100:1153   */\n      tag_173\n      jump\t// in\n    tag_234:\n        /* \"#utility.yul\":1090:1153   */\n      swap2\n      pop\n        /* \"#utility.yul\":1046:1163   */\n      pop\n        /* \"#utility.yul\":841:1170   */\n      swap3\n      swap2\n      pop\n      pop\n      jump\t// out\n        /* \"#utility.yul\":1176:1253   */\n    tag_174:\n        /* \"#utility.yul\":1213:1220   */\n      0x00\n        /* \"#utility.yul\":1242:1247   */\n      dup2\n        /* \"#utility.yul\":1231:1247   */\n      swap1\n      pop\n        /* \"#utility.yul\":1176:1253   */\n      swap2\n      swap1\n      pop\n      jump\t// out\n        /* \"#utility.yul\":1259:1377   */\n    tag_175:\n        /* \"#utility.yul\":1346:1370   */\n      tag_237\n        /* \"#utility.yul\":1364:1369   */\n      dup2\n        /* \"#utility.yul\":1346:1370   */\n      tag_174\n      jump\t// in\n    tag_237:\n        /* \"#utility.yul\":1341:1344   */\n      dup3\n        /* \"#utility.yul\":1334:1371   */\n      mstore\n        /* \"#utility.yul\":1259:1377   */\n      pop\n      pop\n      jump\t// out\n        /* \"#utility.yul\":1383:1605   */\n    tag_21:\n        /* \"#utility.yul\":1476:1480   */\n      0x00\n        /* \"#utility.yul\":1514:1516   */\n      0x20\n        /* \"#utility.yul\":1503:1512   */\n      dup3\n        /* \"#utility.yul\":1499:1517   */\n      add\n        /* \"#utility.yul\":1491:1517   */\n      swap1\n      pop\n        /* \"#utility.yul\":1527:1598   */\n      tag_239\n        /* \"#utility.yul\":1595:1596   */\n      0x00\n        /* \"#utility.yul\":1584:1593   */\n      dup4\n        /* \"#utility.yul\":1580:1597   */\n      add\n        /* \"#utility.yul\":1571:1577   */\n      dup5\n        /* \"#utility.yul\":1527:1598   */\n      tag_175\n      jump\t// in\n    tag_239:\n        /* \"#utility.yul\":1383:1605   */\n      swap3\n      swap2\n      pop\n      pop\n      jump\t// out\n        /* \"#utility.yul\":1611:1728   */\n    tag_176:\n        /* \"#utility.yul\":1720:1721   */\n      0x00\n        /* \"#utility.yul\":1717:1718   */\n      dup1\n        /* \"#utility.yul\":1710:1722   */\n      revert\n        /* \"#utility.yul\":1734:1851   */\n    tag_177:\n        /* \"#utility.yul\":1843:1844   */\n      0x00\n        /* \"#utility.yul\":1840:1841   */\n      dup1\n        /* \"#utility.yul\":1833:1845   */\n      revert\n        /* \"#utility.yul\":1857:1974   */\n    tag_178:\n        /* \"#utility.yul\":1966:1967   */\n      0x00\n        /* \"#utility.yul\":1963:1964   */\n      dup1\n        /* \"#utility.yul\":1956:1968   */\n      revert\n        /* \"#utility.yul\":1997:2565   */\n    tag_179:\n        /* \"#utility.yul\":2070:2078   */\n      0x00\n        /* \"#utility.yul\":2080:2086   */\n      dup1\n        /* \"#utility.yul\":2130:2133   */\n      dup4\n        /* \"#utility.yul\":2123:2127   */\n      0x1f\n        /* \"#utility.yul\":2115:2121   */\n      dup5\n        /* \"#utility.yul\":2111:2128   */\n      add\n        /* \"#utility.yul\":2107:2134   */\n      slt\n        /* \"#utility.yul\":2097:2219   */\n      tag_244\n      jumpi\n        /* \"#utility.yul\":2138:2217   */\n      tag_245\n      tag_176\n      jump\t// in\n    tag_245:\n        /* \"#utility.yul\":2097:2219   */\n    tag_244:\n        /* \"#utility.yul\":2251:2257   */\n      dup3\n        /* \"#utility.yul\":2238:2258   */\n      calldataload\n        /* \"#utility.yul\":2228:2258   */\n      swap1\n      pop\n        /* \"#utility.yul\":2281:2299   */\n      0xffffffffffffffff\n        /* \"#utility.yul\":2273:2279   */\n      dup2\n        /* \"#utility.yul\":2270:2300   */\n      gt\n        /* \"#utility.yul\":2267:2384   */\n      iszero\n      tag_246\n      jumpi\n        /* \"#utility.yul\":2303:2382   */\n      tag_247\n      tag_177\n      jump\t// in\n    tag_247:\n        /* \"#utility.yul\":2267:2384   */\n    tag_246:\n        /* \"#utility.yul\":2417:2421   */\n      0x20\n        /* \"#utility.yul\":2409:2415   */\n      dup4\n        /* \"#utility.yul\":2405:2422   */\n      add\n        /* \"#utility.yul\":2393:2422   */\n      swap2\n      pop\n        /* \"#utility.yul\":2471:2474   */\n      dup4\n        /* \"#utility.yul\":2463:2467   */\n      0x20\n        /* \"#utility.yul\":2455:2461   */\n      dup3\n        /* \"#utility.yul\":2451:2468   */\n      mul\n        /* \"#utility.yul\":2441:2449   */\n      dup4\n        /* \"#utility.yul\":2437:2469   */\n      add\n        /* \"#utility.yul\":2434:2475   */\n      gt\n        /* \"#utility.yul\":2431:2559   */\n      iszero\n      tag_248\n      jumpi\n        /* \"#utility.yul\":2478:2557   */\n      tag_249\n      tag_178\n      jump\t// in\n    tag_249:\n        /* \"#utility.yul\":2431:2559   */\n    tag_248:\n        /* \"#utility.yul\":1997:2565   */\n      swap3\n      pop\n      swap3\n      swap1\n      pop\n      jump\t// out\n        /* \"#utility.yul\":2588:3156   */\n    tag_180:\n        /* \"#utility.yul\":2661:2669   */\n      0x00\n        /* \"#utility.yul\":2671:2677   */\n      dup1\n        /* \"#utility.yul\":2721:2724   */\n      dup4\n        /* \"#utility.yul\":2714:2718   */\n      0x1f\n        /* \"#utility.yul\":2706:2712   */\n      dup5\n        /* \"#utility.yul\":2702:2719   */\n      add\n        /* \"#utility.yul\":2698:2725   */\n      slt\n        /* \"#utility.yul\":2688:2810   */\n      tag_251\n      jumpi\n        /* \"#utility.yul\":2729:2808   */\n      tag_252\n      tag_176\n      jump\t// in\n    tag_252:\n        /* \"#utility.yul\":2688:2810   */\n    tag_251:\n        /* \"#utility.yul\":2842:2848   */\n      dup3\n        /* \"#utility.yul\":2829:2849   */\n      calldataload\n        /* \"#utility.yul\":2819:2849   */\n      swap1\n      pop\n        /* \"#utility.yul\":2872:2890   */\n      0xffffffffffffffff\n        /* \"#utility.yul\":2864:2870   */\n      dup2\n        /* \"#utility.yul\":2861:2891   */\n      gt\n        /* \"#utility.yul\":2858:2975   */\n      iszero\n      tag_253\n      jumpi\n        /* \"#utility.yul\":2894:2973   */\n      tag_254\n      tag_177\n      jump\t// in\n    tag_254:\n        /* \"#utility.yul\":2858:2975   */\n    tag_253:\n        /* \"#utility.yul\":3008:3012   */\n      0x20\n        /* \"#utility.yul\":3000:3006   */\n      dup4\n        /* \"#utility.yul\":2996:3013   */\n      add\n        /* \"#utility.yul\":2984:3013   */\n      swap2\n      pop\n        /* \"#utility.yul\":3062:3065   */\n      dup4\n        /* \"#utility.yul\":3054:3058   */\n      0x20\n        /* \"#utility.yul\":3046:3052   */\n      dup3\n        /* \"#utility.yul\":3042:3059   */\n      mul\n        /* \"#utility.yul\":3032:3040   */\n      dup4\n        /* \"#utility.yul\":3028:3060   */\n      add\n        /* \"#utility.yul\":3025:3066   */\n      gt\n        /* \"#utility.yul\":3022:3150   */\n      iszero\n      tag_255\n      jumpi\n        /* \"#utility.yul\":3069:3148   */\n      tag_256\n      tag_178\n      jump\t// in\n    tag_256:\n        /* \"#utility.yul\":3022:3150   */\n    tag_255:\n        /* \"#utility.yul\":2588:3156   */\n      swap3\n      pop\n      swap3\n      swap1\n      pop\n      jump\t// out\n        /* \"#utility.yul\":3162:4096   */\n    tag_27:\n        /* \"#utility.yul\":3284:3290   */\n      0x00\n        /* \"#utility.yul\":3292:3298   */\n      dup1\n        /* \"#utility.yul\":3300:3306   */\n      0x00\n        /* \"#utility.yul\":3308:3314   */\n      dup1\n        /* \"#utility.yul\":3357:3359   */\n      0x40\n        /* \"#utility.yul\":3345:3354   */\n      dup6\n        /* \"#utility.yul\":3336:3343   */\n      dup8\n        /* \"#utility.yul\":3332:3355   */\n      sub\n        /* \"#utility.yul\":3328:3360   */\n      slt\n        /* \"#utility.yul\":3325:3444   */\n      iszero\n      tag_258\n      jumpi\n        /* \"#utility.yul\":3363:3442   */\n      tag_259\n      tag_168\n      jump\t// in\n    tag_259:\n        /* \"#utility.yul\":3325:3444   */\n    tag_258:\n        /* \"#utility.yul\":3511:3512   */\n      0x00\n        /* \"#utility.yul\":3500:3509   */\n      dup6\n        /* \"#utility.yul\":3496:3513   */\n      add\n        /* \"#utility.yul\":3483:3514   */\n      calldataload\n        /* \"#utility.yul\":3541:3559   */\n      0xffffffffffffffff\n        /* \"#utility.yul\":3533:3539   */\n      dup2\n        /* \"#utility.yul\":3530:3560   */\n      gt\n        /* \"#utility.yul\":3527:3644   */\n      iszero\n      tag_260\n      jumpi\n        /* \"#utility.yul\":3563:3642   */\n      tag_261\n      tag_169\n      jump\t// in\n    tag_261:\n        /* \"#utility.yul\":3527:3644   */\n    tag_260:\n        /* \"#utility.yul\":3676:3756   */\n      tag_262\n        /* \"#utility.yul\":3748:3755   */\n      dup8\n        /* \"#utility.yul\":3739:3745   */\n      dup3\n        /* \"#utility.yul\":3728:3737   */\n      dup9\n        /* \"#utility.yul\":3724:3746   */\n      add\n        /* \"#utility.yul\":3676:3756   */\n      tag_179\n      jump\t// in\n    tag_262:\n        /* \"#utility.yul\":3658:3756   */\n      swap5\n      pop\n      swap5\n      pop\n        /* \"#utility.yul\":3454:3766   */\n      pop\n        /* \"#utility.yul\":3833:3835   */\n      0x20\n        /* \"#utility.yul\":3822:3831   */\n      dup6\n        /* \"#utility.yul\":3818:3836   */\n      add\n        /* \"#utility.yul\":3805:3837   */\n      calldataload\n        /* \"#utility.yul\":3864:3882   */\n      0xffffffffffffffff\n        /* \"#utility.yul\":3856:3862   */\n      dup2\n        /* \"#utility.yul\":3853:3883   */\n      gt\n        /* \"#utility.yul\":3850:3967   */\n      iszero\n      tag_263\n      jumpi\n        /* \"#utility.yul\":3886:3965   */\n      tag_264\n      tag_169\n      jump\t// in\n    tag_264:\n        /* \"#utility.yul\":3850:3967   */\n    tag_263:\n        /* \"#utility.yul\":3999:4079   */\n      tag_265\n        /* \"#utility.yul\":4071:4078   */\n      dup8\n        /* \"#utility.yul\":4062:4068   */\n      dup3\n        /* \"#utility.yul\":4051:4060   */\n      dup9\n        /* \"#utility.yul\":4047:4069   */\n      add\n        /* \"#utility.yul\":3999:4079   */\n      tag_180\n      jump\t// in\n    tag_265:\n        /* \"#utility.yul\":3981:4079   */\n      swap3\n      pop\n      swap3\n      pop\n        /* \"#utility.yul\":3776:4089   */\n      pop\n        /* \"#utility.yul\":3162:4096   */\n      swap3\n      swap6\n      swap2\n      swap5\n      pop\n      swap3\n      pop\n      jump\t// out\n        /* \"#utility.yul\":4102:4220   */\n    tag_181:\n        /* \"#utility.yul\":4189:4213   */\n      tag_267\n        /* \"#utility.yul\":4207:4212   */\n      dup2\n        /* \"#utility.yul\":4189:4213   */\n      tag_171\n      jump\t// in\n    tag_267:\n        /* \"#utility.yul\":4184:4187   */\n      dup3\n        /* \"#utility.yul\":4177:4214   */\n      mstore\n        /* \"#utility.yul\":4102:4220   */\n      pop\n      pop\n      jump\t// out\n        /* \"#utility.yul\":4226:4448   */\n    tag_43:\n        /* \"#utility.yul\":4319:4323   */\n      0x00\n        /* \"#utility.yul\":4357:4359   */\n      0x20\n        /* \"#utility.yul\":4346:4355   */\n      dup3\n        /* \"#utility.yul\":4342:4360   */\n      add\n        /* \"#utility.yul\":4334:4360   */\n      swap1\n      pop\n        /* \"#utility.yul\":4370:4441   */\n      tag_269\n        /* \"#utility.yul\":4438:4439   */\n      0x00\n        /* \"#utility.yul\":4427:4436   */\n      dup4\n        /* \"#utility.yul\":4423:4440   */\n      add\n        /* \"#utility.yul\":4414:4420   */\n      dup5\n        /* \"#utility.yul\":4370:4441   */\n      tag_181\n      jump\t// in\n    tag_269:\n        /* \"#utility.yul\":4226:4448   */\n      swap3\n      swap2\n      pop\n      pop\n      jump\t// out\n        /* \"#utility.yul\":4454:4514   */\n    tag_182:\n        /* \"#utility.yul\":4482:4485   */\n      0x00\n        /* \"#utility.yul\":4503:4508   */\n      dup2\n        /* \"#utility.yul\":4496:4508   */\n      swap1\n      pop\n        /* \"#utility.yul\":4454:4514   */\n      swap2\n      swap1\n      pop\n      jump\t// out\n        /* \"#utility.yul\":4520:4662   */\n    tag_183:\n        /* \"#utility.yul\":4570:4579   */\n      0x00\n        /* \"#utility.yul\":4603:4656   */\n      tag_272\n        /* \"#utility.yul\":4621:4655   */\n      tag_273\n        /* \"#utility.yul\":4630:4654   */\n      tag_274\n        /* \"#utility.yul\":4648:4653   */\n      dup5\n        /* \"#utility.yul\":4630:4654   */\n      tag_170\n      jump\t// in\n    tag_274:\n        /* \"#utility.yul\":4621:4655   */\n      tag_182\n      jump\t// in\n    tag_273:\n        /* \"#utility.yul\":4603:4656   */\n      tag_170\n      jump\t// in\n    tag_272:\n        /* \"#utility.yul\":4590:4656   */\n      swap1\n      pop\n        /* \"#utility.yul\":4520:4662   */\n      swap2\n      swap1\n      pop\n      jump\t// out\n        /* \"#utility.yul\":4668:4794   */\n    tag_184:\n        /* \"#utility.yul\":4718:4727   */\n      0x00\n        /* \"#utility.yul\":4751:4788   */\n      tag_276\n        /* \"#utility.yul\":4782:4787   */\n      dup3\n        /* \"#utility.yul\":4751:4788   */\n      tag_183\n      jump\t// in\n    tag_276:\n        /* \"#utility.yul\":4738:4788   */\n      swap1\n      pop\n        /* \"#utility.yul\":4668:4794   */\n      swap2\n      swap1\n      pop\n      jump\t// out\n        /* \"#utility.yul\":4800:4939   */\n    tag_185:\n        /* \"#utility.yul\":4863:4872   */\n      0x00\n        /* \"#utility.yul\":4896:4933   */\n      tag_278\n        /* \"#utility.yul\":4927:4932   */\n      dup3\n        /* \"#utility.yul\":4896:4933   */\n      tag_184\n      jump\t// in\n    tag_278:\n        /* \"#utility.yul\":4883:4933   */\n      swap1\n      pop\n        /* \"#utility.yul\":4800:4939   */\n      swap2\n      swap1\n      pop\n      jump\t// out\n        /* \"#utility.yul\":4945:5102   */\n    tag_186:\n        /* \"#utility.yul\":5045:5095   */\n      tag_280\n        /* \"#utility.yul\":5089:5094   */\n      dup2\n        /* \"#utility.yul\":5045:5095   */\n      tag_185\n      jump\t// in\n    tag_280:\n        /* \"#utility.yul\":5040:5043   */\n      dup3\n        /* \"#utility.yul\":5033:5096   */\n      mstore\n        /* \"#utility.yul\":4945:5102   */\n      pop\n      pop\n      jump\t// out\n        /* \"#utility.yul\":5108:5356   */\n    tag_47:\n        /* \"#utility.yul\":5214:5218   */\n      0x00\n        /* \"#utility.yul\":5252:5254   */\n      0x20\n        /* \"#utility.yul\":5241:5250   */\n      dup3\n        /* \"#utility.yul\":5237:5255   */\n      add\n        /* \"#utility.yul\":5229:5255   */\n      swap1\n      pop\n        /* \"#utility.yul\":5265:5349   */\n      tag_282\n        /* \"#utility.yul\":5346:5347   */\n      0x00\n        /* \"#utility.yul\":5335:5344   */\n      dup4\n        /* \"#utility.yul\":5331:5348   */\n      add\n        /* \"#utility.yul\":5322:5328   */\n      dup5\n        /* \"#utility.yul\":5265:5349   */\n      tag_186\n      jump\t// in\n    tag_282:\n        /* \"#utility.yul\":5108:5356   */\n      swap3\n      swap2\n      pop\n      pop\n      jump\t// out\n        /* \"#utility.yul\":5362:5531   */\n    tag_187:\n        /* \"#utility.yul\":5446:5457   */\n      0x00\n        /* \"#utility.yul\":5480:5486   */\n      dup3\n        /* \"#utility.yul\":5475:5478   */\n      dup3\n        /* \"#utility.yul\":5468:5487   */\n      mstore\n        /* \"#utility.yul\":5520:5524   */\n      0x20\n        /* \"#utility.yul\":5515:5518   */\n      dup3\n        /* \"#utility.yul\":5511:5525   */\n      add\n        /* \"#utility.yul\":5496:5525   */\n      swap1\n      pop\n        /* \"#utility.yul\":5362:5531   */\n      swap3\n      swap2\n      pop\n      pop\n      jump\t// out\n        /* \"#utility.yul\":5537:5718   */\n    tag_188:\n        /* \"#utility.yul\":5677:5710   */\n      0x52656c656173653a206e6565642073657420546f6b656e204164647265737300\n        /* \"#utility.yul\":5673:5674   */\n      0x00\n        /* \"#utility.yul\":5665:5671   */\n      dup3\n        /* \"#utility.yul\":5661:5675   */\n      add\n        /* \"#utility.yul\":5654:5711   */\n      mstore\n        /* \"#utility.yul\":5537:5718   */\n      pop\n      jump\t// out\n        /* \"#utility.yul\":5724:6090   */\n    tag_189:\n        /* \"#utility.yul\":5866:5869   */\n      0x00\n        /* \"#utility.yul\":5887:5954   */\n      tag_286\n        /* \"#utility.yul\":5951:5953   */\n      0x1f\n        /* \"#utility.yul\":5946:5949   */\n      dup4\n        /* \"#utility.yul\":5887:5954   */\n      tag_187\n      jump\t// in\n    tag_286:\n        /* \"#utility.yul\":5880:5954   */\n      swap2\n      pop\n        /* \"#utility.yul\":5963:6056   */\n      tag_287\n        /* \"#utility.yul\":6052:6055   */\n      dup3\n        /* \"#utility.yul\":5963:6056   */\n      tag_188\n      jump\t// in\n    tag_287:\n        /* \"#utility.yul\":6081:6083   */\n      0x20\n        /* \"#utility.yul\":6076:6079   */\n      dup3\n        /* \"#utility.yul\":6072:6084   */\n      add\n        /* \"#utility.yul\":6065:6084   */\n      swap1\n      pop\n        /* \"#utility.yul\":5724:6090   */\n      swap2\n      swap1\n      pop\n      jump\t// out\n        /* \"#utility.yul\":6096:6515   */\n    tag_58:\n        /* \"#utility.yul\":6262:6266   */\n      0x00\n        /* \"#utility.yul\":6300:6302   */\n      0x20\n        /* \"#utility.yul\":6289:6298   */\n      dup3\n        /* \"#utility.yul\":6285:6303   */\n      add\n        /* \"#utility.yul\":6277:6303   */\n      swap1\n      pop\n        /* \"#utility.yul\":6349:6358   */\n      dup2\n        /* \"#utility.yul\":6343:6347   */\n      dup2\n        /* \"#utility.yul\":6339:6359   */\n      sub\n        /* \"#utility.yul\":6335:6336   */\n      0x00\n        /* \"#utility.yul\":6324:6333   */\n      dup4\n        /* \"#utility.yul\":6320:6337   */\n      add\n        /* \"#utility.yul\":6313:6360   */\n      mstore\n        /* \"#utility.yul\":6377:6508   */\n      tag_289\n        /* \"#utility.yul\":6503:6507   */\n      dup2\n        /* \"#utility.yul\":6377:6508   */\n      tag_189\n      jump\t// in\n    tag_289:\n        /* \"#utility.yul\":6369:6508   */\n      swap1\n      pop\n        /* \"#utility.yul\":6096:6515   */\n      swap2\n      swap1\n      pop\n      jump\t// out\n        /* \"#utility.yul\":6521:6822   */\n    tag_190:\n        /* \"#utility.yul\":6661:6695   */\n      0x506c6561736520636865636b2074686520646174612c20746865206e65777320\n        /* \"#utility.yul\":6657:6658   */\n      0x00\n        /* \"#utility.yul\":6649:6655   */\n      dup3\n        /* \"#utility.yul\":6645:6659   */\n      add\n        /* \"#utility.yul\":6638:6696   */\n      mstore\n        /* \"#utility.yul\":6730:6764   */\n      0x494420616e6420646973747269627574696f6e207175616e7469747920617265\n        /* \"#utility.yul\":6725:6727   */\n      0x20\n        /* \"#utility.yul\":6717:6723   */\n      dup3\n        /* \"#utility.yul\":6713:6728   */\n      add\n        /* \"#utility.yul\":6706:6765   */\n      mstore\n        /* \"#utility.yul\":6799:6814   */\n      0x20696e636f6e73697374656e7400000000000000000000000000000000000000\n        /* \"#utility.yul\":6794:6796   */\n      0x40\n        /* \"#utility.yul\":6786:6792   */\n      dup3\n        /* \"#utility.yul\":6782:6797   */\n      add\n        /* \"#utility.yul\":6775:6815   */\n      mstore\n        /* \"#utility.yul\":6521:6822   */\n      pop\n      jump\t// out\n        /* \"#utility.yul\":6828:7194   */\n    tag_191:\n        /* \"#utility.yul\":6970:6973   */\n      0x00\n        /* \"#utility.yul\":6991:7058   */\n      tag_292\n        /* \"#utility.yul\":7055:7057   */\n      0x4d\n        /* \"#utility.yul\":7050:7053   */\n      dup4\n        /* \"#utility.yul\":6991:7058   */\n      tag_187\n      jump\t// in\n    tag_292:\n        /* \"#utility.yul\":6984:7058   */\n      swap2\n      pop\n        /* \"#utility.yul\":7067:7160   */\n      tag_293\n        /* \"#utility.yul\":7156:7159   */\n      dup3\n        /* \"#utility.yul\":7067:7160   */\n      tag_190\n      jump\t// in\n    tag_293:\n        /* \"#utility.yul\":7185:7187   */\n      0x60\n        /* \"#utility.yul\":7180:7183   */\n      dup3\n        /* \"#utility.yul\":7176:7188   */\n      add\n        /* \"#utility.yul\":7169:7188   */\n      swap1\n      pop\n        /* \"#utility.yul\":6828:7194   */\n      swap2\n      swap1\n      pop\n      jump\t// out\n        /* \"#utility.yul\":7200:7619   */\n    tag_61:\n        /* \"#utility.yul\":7366:7370   */\n      0x00\n        /* \"#utility.yul\":7404:7406   */\n      0x20\n        /* \"#utility.yul\":7393:7402   */\n      dup3\n        /* \"#utility.yul\":7389:7407   */\n      add\n        /* \"#utility.yul\":7381:7407   */\n      swap1\n      pop\n        /* \"#utility.yul\":7453:7462   */\n      dup2\n        /* \"#utility.yul\":7447:7451   */\n      dup2\n        /* \"#utility.yul\":7443:7463   */\n      sub\n        /* \"#utility.yul\":7439:7440   */\n      0x00\n        /* \"#utility.yul\":7428:7437   */\n      dup4\n        /* \"#utility.yul\":7424:7441   */\n      add\n        /* \"#utility.yul\":7417:7464   */\n      mstore\n        /* \"#utility.yul\":7481:7612   */\n      tag_295\n        /* \"#utility.yul\":7607:7611   */\n      dup2\n        /* \"#utility.yul\":7481:7612   */\n      tag_191\n      jump\t// in\n    tag_295:\n        /* \"#utility.yul\":7473:7612   */\n      swap1\n      pop\n        /* \"#utility.yul\":7200:7619   */\n      swap2\n      swap1\n      pop\n      jump\t// out\n        /* \"#utility.yul\":7625:7805   */\n    tag_68:\n        /* \"#utility.yul\":7673:7750   */\n      0x4e487b7100000000000000000000000000000000000000000000000000000000\n        /* \"#utility.yul\":7670:7671   */\n      0x00\n        /* \"#utility.yul\":7663:7751   */\n      mstore\n        /* \"#utility.yul\":7770:7774   */\n      0x32\n        /* \"#utility.yul\":7767:7768   */\n      0x04\n        /* \"#utility.yul\":7760:7775   */\n      mstore\n        /* \"#utility.yul\":7794:7798   */\n      0x24\n        /* \"#utility.yul\":7791:7792   */\n      0x00\n        /* \"#utility.yul\":7784:7799   */\n      revert\n        /* \"#utility.yul\":7811:7991   */\n    tag_192:\n        /* \"#utility.yul\":7859:7936   */\n      0x4e487b7100000000000000000000000000000000000000000000000000000000\n        /* \"#utility.yul\":7856:7857   */\n      0x00\n        /* \"#utility.yul\":7849:7937   */\n      mstore\n        /* \"#utility.yul\":7956:7960   */\n      0x11\n        /* \"#utility.yul\":7953:7954   */\n      0x04\n        /* \"#utility.yul\":7946:7961   */\n      mstore\n        /* \"#utility.yul\":7980:7984   */\n      0x24\n        /* \"#utility.yul\":7977:7978   */\n      0x00\n        /* \"#utility.yul\":7970:7985   */\n      revert\n        /* \"#utility.yul\":7997:8230   */\n    tag_71:\n        /* \"#utility.yul\":8036:8039   */\n      0x00\n        /* \"#utility.yul\":8059:8083   */\n      tag_299\n        /* \"#utility.yul\":8077:8082   */\n      dup3\n        /* \"#utility.yul\":8059:8083   */\n      tag_174\n      jump\t// in\n    tag_299:\n        /* \"#utility.yul\":8050:8083   */\n      swap2\n      pop\n        /* \"#utility.yul\":8105:8171   */\n      0xffffffffffffffffffffffffffffffffffffffffffffffffffffffffffffffff\n        /* \"#utility.yul\":8098:8103   */\n      dup3\n        /* \"#utility.yul\":8095:8172   */\n      sub\n        /* \"#utility.yul\":8092:8195   */\n      tag_300\n      jumpi\n        /* \"#utility.yul\":8175:8193   */\n      tag_301\n      tag_192\n      jump\t// in\n    tag_301:\n        /* \"#utility.yul\":8092:8195   */\n    tag_300:\n        /* \"#utility.yul\":8222:8223   */\n      0x01\n        /* \"#utility.yul\":8215:8220   */\n      dup3\n        /* \"#utility.yul\":8211:8224   */\n      add\n        /* \"#utility.yul\":8204:8224   */\n      swap1\n      pop\n        /* \"#utility.yul\":7997:8230   */\n      swap2\n      swap1\n      pop\n      jump\t// out\n        /* \"#utility.yul\":8236:8479   */\n    tag_193:\n        /* \"#utility.yul\":8376:8410   */\n      0x546865206e756d626572206f66206169722064726f7073206578636565647320\n        /* \"#utility.yul\":8372:8373   */\n      0x00\n        /* \"#utility.yul\":8364:8370   */\n      dup3\n        /* \"#utility.yul\":8360:8374   */\n      add\n        /* \"#utility.yul\":8353:8411   */\n      mstore\n        /* \"#utility.yul\":8445:8471   */\n      0x746865206461696c792072656c6561736520616d6f756e740000000000000000\n        /* \"#utility.yul\":8440:8442   */\n      0x20\n        /* \"#utility.yul\":8432:8438   */\n      dup3\n        /* \"#utility.yul\":8428:8443   */\n      add\n        /* \"#utility.yul\":8421:8472   */\n      mstore\n        /* \"#utility.yul\":8236:8479   */\n      pop\n      jump\t// out\n        /* \"#utility.yul\":8485:8851   */\n    tag_194:\n        /* \"#utility.yul\":8627:8630   */\n      0x00\n        /* \"#utility.yul\":8648:8715   */\n      tag_304\n        /* \"#utility.yul\":8712:8714   */\n      0x38\n        /* \"#utility.yul\":8707:8710   */\n      dup4\n        /* \"#utility.yul\":8648:8715   */\n      tag_187\n      jump\t// in\n    tag_304:\n        /* \"#utility.yul\":8641:8715   */\n      swap2\n      pop\n        /* \"#utility.yul\":8724:8817   */\n      tag_305\n        /* \"#utility.yul\":8813:8816   */\n      dup3\n        /* \"#utility.yul\":8724:8817   */\n      tag_193\n      jump\t// in\n    tag_305:\n        /* \"#utility.yul\":8842:8844   */\n      0x40\n        /* \"#utility.yul\":8837:8840   */\n      dup3\n        /* \"#utility.yul\":8833:8845   */\n      add\n        /* \"#utility.yul\":8826:8845   */\n      swap1\n      pop\n        /* \"#utility.yul\":8485:8851   */\n      swap2\n      swap1\n      pop\n      jump\t// out\n        /* \"#utility.yul\":8857:9276   */\n    tag_75:\n        /* \"#utility.yul\":9023:9027   */\n      0x00\n        /* \"#utility.yul\":9061:9063   */\n      0x20\n        /* \"#utility.yul\":9050:9059   */\n      dup3\n        /* \"#utility.yul\":9046:9064   */\n      add\n        /* \"#utility.yul\":9038:9064   */\n      swap1\n      pop\n        /* \"#utility.yul\":9110:9119   */\n      dup2\n        /* \"#utility.yul\":9104:9108   */\n      dup2\n        /* \"#utility.yul\":9100:9120   */\n      sub\n        /* \"#utility.yul\":9096:9097   */\n      0x00\n        /* \"#utility.yul\":9085:9094   */\n      dup4\n        /* \"#utility.yul\":9081:9098   */\n      add\n        /* \"#utility.yul\":9074:9121   */\n      mstore\n        /* \"#utility.yul\":9138:9269   */\n      tag_307\n        /* \"#utility.yul\":9264:9268   */\n      dup2\n        /* \"#utility.yul\":9138:9269   */\n      tag_194\n      jump\t// in\n    tag_307:\n        /* \"#utility.yul\":9130:9269   */\n      swap1\n      pop\n        /* \"#utility.yul\":8857:9276   */\n      swap2\n      swap1\n      pop\n      jump\t// out\n        /* \"#utility.yul\":9282:9473   */\n    tag_90:\n        /* \"#utility.yul\":9322:9325   */\n      0x00\n        /* \"#utility.yul\":9341:9361   */\n      tag_309\n        /* \"#utility.yul\":9359:9360   */\n      dup3\n        /* \"#utility.yul\":9341:9361   */\n      tag_174\n      jump\t// in\n    tag_309:\n        /* \"#utility.yul\":9336:9361   */\n      swap2\n      pop\n        /* \"#utility.yul\":9375:9395   */\n      tag_310\n        /* \"#utility.yul\":9393:9394   */\n      dup4\n        /* \"#utility.yul\":9375:9395   */\n      tag_174\n      jump\t// in\n    tag_310:\n        /* \"#utility.yul\":9370:9395   */\n      swap3\n      pop\n        /* \"#utility.yul\":9418:9419   */\n      dup3\n        /* \"#utility.yul\":9415:9416   */\n      dup3\n        /* \"#utility.yul\":9411:9420   */\n      add\n        /* \"#utility.yul\":9404:9420   */\n      swap1\n      pop\n        /* \"#utility.yul\":9439:9442   */\n      dup1\n        /* \"#utility.yul\":9436:9437   */\n      dup3\n        /* \"#utility.yul\":9433:9443   */\n      gt\n        /* \"#utility.yul\":9430:9466   */\n      iszero\n      tag_311\n      jumpi\n        /* \"#utility.yul\":9446:9464   */\n      tag_312\n      tag_192\n      jump\t// in\n    tag_312:\n        /* \"#utility.yul\":9430:9466   */\n    tag_311:\n        /* \"#utility.yul\":9282:9473   */\n      swap3\n      swap2\n      pop\n      pop\n      jump\t// out\n        /* \"#utility.yul\":9479:9648   */\n    tag_195:\n        /* \"#utility.yul\":9619:9640   */\n      0x4e6f207175616e7469747920746f2073656e6400000000000000000000000000\n        /* \"#utility.yul\":9615:9616   */\n      0x00\n        /* \"#utility.yul\":9607:9613   */\n      dup3\n        /* \"#utility.yul\":9603:9617   */\n      add\n        /* \"#utility.yul\":9596:9641   */\n      mstore\n        /* \"#utility.yul\":9479:9648   */\n      pop\n      jump\t// out\n        /* \"#utility.yul\":9654:10020   */\n    tag_196:\n        /* \"#utility.yul\":9796:9799   */\n      0x00\n        /* \"#utility.yul\":9817:9884   */\n      tag_315\n        /* \"#utility.yul\":9881:9883   */\n      0x13\n        /* \"#utility.yul\":9876:9879   */\n      dup4\n        /* \"#utility.yul\":9817:9884   */\n      tag_187\n      jump\t// in\n    tag_315:\n        /* \"#utility.yul\":9810:9884   */\n      swap2\n      pop\n        /* \"#utility.yul\":9893:9986   */\n      tag_316\n        /* \"#utility.yul\":9982:9985   */\n      dup3\n        /* \"#utility.yul\":9893:9986   */\n      tag_195\n      jump\t// in\n    tag_316:\n        /* \"#utility.yul\":10011:10013   */\n      0x20\n        /* \"#utility.yul\":10006:10009   */\n      dup3\n        /* \"#utility.yul\":10002:10014   */\n      add\n        /* \"#utility.yul\":9995:10014   */\n      swap1\n      pop\n        /* \"#utility.yul\":9654:10020   */\n      swap2\n      swap1\n      pop\n      jump\t// out\n        /* \"#utility.yul\":10026:10445   */\n    tag_99:\n        /* \"#utility.yul\":10192:10196   */\n      0x00\n        /* \"#utility.yul\":10230:10232   */\n      0x20\n        /* \"#utility.yul\":10219:10228   */\n      dup3\n        /* \"#utility.yul\":10215:10233   */\n      add\n        /* \"#utility.yul\":10207:10233   */\n      swap1\n      pop\n        /* \"#utility.yul\":10279:10288   */\n      dup2\n        /* \"#utility.yul\":10273:10277   */\n      dup2\n        /* \"#utility.yul\":10269:10289   */\n      sub\n        /* \"#utility.yul\":10265:10266   */\n      0x00\n        /* \"#utility.yul\":10254:10263   */\n      dup4\n        /* \"#utility.yul\":10250:10267   */\n      add\n        /* \"#utility.yul\":10243:10290   */\n      mstore\n        /* \"#utility.yul\":10307:10438   */\n      tag_318\n        /* \"#utility.yul\":10433:10437   */\n      dup2\n        /* \"#utility.yul\":10307:10438   */\n      tag_196\n      jump\t// in\n    tag_318:\n        /* \"#utility.yul\":10299:10438   */\n      swap1\n      pop\n        /* \"#utility.yul\":10026:10445   */\n      swap2\n      swap1\n      pop\n      jump\t// out\n        /* \"#utility.yul\":10451:10633   */\n    tag_197:\n        /* \"#utility.yul\":10591:10625   */\n      0x52656c656173653a206e65656420736574205265776172642041646472657373\n        /* \"#utility.yul\":10587:10588   */\n      0x00\n        /* \"#utility.yul\":10579:10585   */\n      dup3\n        /* \"#utility.yul\":10575:10589   */\n      add\n        /* \"#utility.yul\":10568:10626   */\n      mstore\n        /* \"#utility.yul\":10451:10633   */\n      pop\n      jump\t// out\n        /* \"#utility.yul\":10639:11005   */\n    tag_198:\n        /* \"#utility.yul\":10781:10784   */\n      0x00\n        /* \"#utility.yul\":10802:10869   */\n      tag_321\n        /* \"#utility.yul\":10866:10868   */\n      0x20\n        /* \"#utility.yul\":10861:10864   */\n      dup4\n        /* \"#utility.yul\":10802:10869   */\n      tag_187\n      jump\t// in\n    tag_321:\n        /* \"#utility.yul\":10795:10869   */\n      swap2\n      pop\n        /* \"#utility.yul\":10878:10971   */\n      tag_322\n        /* \"#utility.yul\":10967:10970   */\n      dup3\n        /* \"#utility.yul\":10878:10971   */\n      tag_197\n      jump\t// in\n    tag_322:\n        /* \"#utility.yul\":10996:10998   */\n      0x20\n        /* \"#utility.yul\":10991:10994   */\n      dup3\n        /* \"#utility.yul\":10987:10999   */\n      add\n        /* \"#utility.yul\":10980:10999   */\n      swap1\n      pop\n        /* \"#utility.yul\":10639:11005   */\n      swap2\n      swap1\n      pop\n      jump\t// out\n        /* \"#utility.yul\":11011:11430   */\n    tag_103:\n        /* \"#utility.yul\":11177:11181   */\n      0x00\n        /* \"#utility.yul\":11215:11217   */\n      0x20\n        /* \"#utility.yul\":11204:11213   */\n      dup3\n        /* \"#utility.yul\":11200:11218   */\n      add\n        /* \"#utility.yul\":11192:11218   */\n      swap1\n      pop\n        /* \"#utility.yul\":11264:11273   */\n      dup2\n        /* \"#utility.yul\":11258:11262   */\n      dup2\n        /* \"#utility.yul\":11254:11274   */\n      sub\n        /* \"#utility.yul\":11250:11251   */\n      0x00\n        /* \"#utility.yul\":11239:11248   */\n      dup4\n        /* \"#utility.yul\":11235:11252   */\n      add\n        /* \"#utility.yul\":11228:11275   */\n      mstore\n        /* \"#utility.yul\":11292:11423   */\n      tag_324\n        /* \"#utility.yul\":11418:11422   */\n      dup2\n        /* \"#utility.yul\":11292:11423   */\n      tag_198\n      jump\t// in\n    tag_324:\n        /* \"#utility.yul\":11284:11423   */\n      swap1\n      pop\n        /* \"#utility.yul\":11011:11430   */\n      swap2\n      swap1\n      pop\n      jump\t// out\n        /* \"#utility.yul\":11436:11558   */\n    tag_199:\n        /* \"#utility.yul\":11509:11533   */\n      tag_326\n        /* \"#utility.yul\":11527:11532   */\n      dup2\n        /* \"#utility.yul\":11509:11533   */\n      tag_174\n      jump\t// in\n    tag_326:\n        /* \"#utility.yul\":11502:11507   */\n      dup2\n        /* \"#utility.yul\":11499:11534   */\n      eq\n        /* \"#utility.yul\":11489:11552   */\n      tag_327\n      jumpi\n        /* \"#utility.yul\":11548:11549   */\n      0x00\n        /* \"#utility.yul\":11545:11546   */\n      dup1\n        /* \"#utility.yul\":11538:11550   */\n      revert\n        /* \"#utility.yul\":11489:11552   */\n    tag_327:\n        /* \"#utility.yul\":11436:11558   */\n      pop\n      jump\t// out\n        /* \"#utility.yul\":11564:11707   */\n    tag_200:\n        /* \"#utility.yul\":11621:11626   */\n      0x00\n        /* \"#utility.yul\":11652:11658   */\n      dup2\n        /* \"#utility.yul\":11646:11659   */\n      mload\n        /* \"#utility.yul\":11637:11659   */\n      swap1\n      pop\n        /* \"#utility.yul\":11668:11701   */\n      tag_329\n        /* \"#utility.yul\":11695:11700   */\n      dup2\n        /* \"#utility.yul\":11668:11701   */\n      tag_199\n      jump\t// in\n    tag_329:\n        /* \"#utility.yul\":11564:11707   */\n      swap3\n      swap2\n      pop\n      pop\n      jump\t// out\n        /* \"#utility.yul\":11713:12064   */\n    tag_115:\n        /* \"#utility.yul\":11783:11789   */\n      0x00\n        /* \"#utility.yul\":11832:11834   */\n      0x20\n        /* \"#utility.yul\":11820:11829   */\n      dup3\n        /* \"#utility.yul\":11811:11818   */\n      dup5\n        /* \"#utility.yul\":11807:11830   */\n      sub\n        /* \"#utility.yul\":11803:11835   */\n      slt\n        /* \"#utility.yul\":11800:11919   */\n      iszero\n      tag_331\n      jumpi\n        /* \"#utility.yul\":11838:11917   */\n      tag_332\n      tag_168\n      jump\t// in\n    tag_332:\n        /* \"#utility.yul\":11800:11919   */\n    tag_331:\n        /* \"#utility.yul\":11958:11959   */\n      0x00\n        /* \"#utility.yul\":11983:12047   */\n      tag_333\n        /* \"#utility.yul\":12039:12046   */\n      dup5\n        /* \"#utility.yul\":12030:12036   */\n      dup3\n        /* \"#utility.yul\":12019:12028   */\n      dup6\n        /* \"#utility.yul\":12015:12037   */\n      add\n        /* \"#utility.yul\":11983:12047   */\n      tag_200\n      jump\t// in\n    tag_333:\n        /* \"#utility.yul\":11973:12047   */\n      swap2\n      pop\n        /* \"#utility.yul\":11929:12057   */\n      pop\n        /* \"#utility.yul\":11713:12064   */\n      swap3\n      swap2\n      pop\n      pop\n      jump\t// out\n        /* \"#utility.yul\":12070:12247   */\n    tag_201:\n        /* \"#utility.yul\":12210:12239   */\n      0x536166654d6174683a206164646974696f6e206f766572666c6f770000000000\n        /* \"#utility.yul\":12206:12207   */\n      0x00\n        /* \"#utility.yul\":12198:12204   */\n      dup3\n        /* \"#utility.yul\":12194:12208   */\n      add\n        /* \"#utility.yul\":12187:12240   */\n      mstore\n        /* \"#utility.yul\":12070:12247   */\n      pop\n      jump\t// out\n        /* \"#utility.yul\":12253:12619   */\n    tag_202:\n        /* \"#utility.yul\":12395:12398   */\n      0x00\n        /* \"#utility.yul\":12416:12483   */\n      tag_336\n        /* \"#utility.yul\":12480:12482   */\n      0x1b\n        /* \"#utility.yul\":12475:12478   */\n      dup4\n        /* \"#utility.yul\":12416:12483   */\n      tag_187\n      jump\t// in\n    tag_336:\n        /* \"#utility.yul\":12409:12483   */\n      swap2\n      pop\n        /* \"#utility.yul\":12492:12585   */\n      tag_337\n        /* \"#utility.yul\":12581:12584   */\n      dup3\n        /* \"#utility.yul\":12492:12585   */\n      tag_201\n      jump\t// in\n    tag_337:\n        /* \"#utility.yul\":12610:12612   */\n      0x20\n        /* \"#utility.yul\":12605:12608   */\n      dup3\n        /* \"#utility.yul\":12601:12613   */\n      add\n        /* \"#utility.yul\":12594:12613   */\n      swap1\n      pop\n        /* \"#utility.yul\":12253:12619   */\n      swap2\n      swap1\n      pop\n      jump\t// out\n        /* \"#utility.yul\":12625:13044   */\n    tag_125:\n        /* \"#utility.yul\":12791:12795   */\n      0x00\n        /* \"#utility.yul\":12829:12831   */\n      0x20\n        /* \"#utility.yul\":12818:12827   */\n      dup3\n        /* \"#utility.yul\":12814:12832   */\n      add\n        /* \"#utility.yul\":12806:12832   */\n      swap1\n      pop\n        /* \"#utility.yul\":12878:12887   */\n      dup2\n        /* \"#utility.yul\":12872:12876   */\n      dup2\n        /* \"#utility.yul\":12868:12888   */\n      sub\n        /* \"#utility.yul\":12864:12865   */\n      0x00\n        /* \"#utility.yul\":12853:12862   */\n      dup4\n        /* \"#utility.yul\":12849:12866   */\n      add\n        /* \"#utility.yul\":12842:12889   */\n      mstore\n        /* \"#utility.yul\":12906:13037   */\n      tag_339\n        /* \"#utility.yul\":13032:13036   */\n      dup2\n        /* \"#utility.yul\":12906:13037   */\n      tag_202\n      jump\t// in\n    tag_339:\n        /* \"#utility.yul\":12898:13037   */\n      swap1\n      pop\n        /* \"#utility.yul\":12625:13044   */\n      swap2\n      swap1\n      pop\n      jump\t// out\n        /* \"#utility.yul\":13050:13382   */\n    tag_129:\n        /* \"#utility.yul\":13171:13175   */\n      0x00\n        /* \"#utility.yul\":13209:13211   */\n      0x40\n        /* \"#utility.yul\":13198:13207   */\n      dup3\n        /* \"#utility.yul\":13194:13212   */\n      add\n        /* \"#utility.yul\":13186:13212   */\n      swap1\n      pop\n        /* \"#utility.yul\":13222:13293   */\n      tag_341\n        /* \"#utility.yul\":13290:13291   */\n      0x00\n        /* \"#utility.yul\":13279:13288   */\n      dup4\n        /* \"#utility.yul\":13275:13292   */\n      add\n        /* \"#utility.yul\":13266:13272   */\n      dup6\n        /* \"#utility.yul\":13222:13293   */\n      tag_181\n      jump\t// in\n    tag_341:\n        /* \"#utility.yul\":13303:13375   */\n      tag_342\n        /* \"#utility.yul\":13371:13373   */\n      0x20\n        /* \"#utility.yul\":13360:13369   */\n      dup4\n        /* \"#utility.yul\":13356:13374   */\n      add\n        /* \"#utility.yul\":13347:13353   */\n      dup5\n        /* \"#utility.yul\":13303:13375   */\n      tag_175\n      jump\t// in\n    tag_342:\n        /* \"#utility.yul\":13050:13382   */\n      swap4\n      swap3\n      pop\n      pop\n      pop\n      jump\t// out\n        /* \"#utility.yul\":13388:13478   */\n    tag_203:\n        /* \"#utility.yul\":13422:13429   */\n      0x00\n        /* \"#utility.yul\":13465:13470   */\n      dup2\n        /* \"#utility.yul\":13458:13471   */\n      iszero\n        /* \"#utility.yul\":13451:13472   */\n      iszero\n        /* \"#utility.yul\":13440:13472   */\n      swap1\n      pop\n        /* \"#utility.yul\":13388:13478   */\n      swap2\n      swap1\n      pop\n      jump\t// out\n        /* \"#utility.yul\":13484:13600   */\n    tag_204:\n        /* \"#utility.yul\":13554:13575   */\n      tag_345\n        /* \"#utility.yul\":13569:13574   */\n      dup2\n        /* \"#utility.yul\":13554:13575   */\n      tag_203\n      jump\t// in\n    tag_345:\n        /* \"#utility.yul\":13547:13552   */\n      dup2\n        /* \"#utility.yul\":13544:13576   */\n      eq\n        /* \"#utility.yul\":13534:13594   */\n      tag_346\n      jumpi\n        /* \"#utility.yul\":13590:13591   */\n      0x00\n        /* \"#utility.yul\":13587:13588   */\n      dup1\n        /* \"#utility.yul\":13580:13592   */\n      revert\n        /* \"#utility.yul\":13534:13594   */\n    tag_346:\n        /* \"#utility.yul\":13484:13600   */\n      pop\n      jump\t// out\n        /* \"#utility.yul\":13606:13743   */\n    tag_205:\n        /* \"#utility.yul\":13660:13665   */\n      0x00\n        /* \"#utility.yul\":13691:13697   */\n      dup2\n        /* \"#utility.yul\":13685:13698   */\n      mload\n        /* \"#utility.yul\":13676:13698   */\n      swap1\n      pop\n        /* \"#utility.yul\":13707:13737   */\n      tag_348\n        /* \"#utility.yul\":13731:13736   */\n      dup2\n        /* \"#utility.yul\":13707:13737   */\n      tag_204\n      jump\t// in\n    tag_348:\n        /* \"#utility.yul\":13606:13743   */\n      swap3\n      swap2\n      pop\n      pop\n      jump\t// out\n        /* \"#utility.yul\":13749:14094   */\n    tag_136:\n        /* \"#utility.yul\":13816:13822   */\n      0x00\n        /* \"#utility.yul\":13865:13867   */\n      0x20\n        /* \"#utility.yul\":13853:13862   */\n      dup3\n        /* \"#utility.yul\":13844:13851   */\n      dup5\n        /* \"#utility.yul\":13840:13863   */\n      sub\n        /* \"#utility.yul\":13836:13868   */\n      slt\n        /* \"#utility.yul\":13833:13952   */\n      iszero\n      tag_350\n      jumpi\n        /* \"#utility.yul\":13871:13950   */\n      tag_351\n      tag_168\n      jump\t// in\n    tag_351:\n        /* \"#utility.yul\":13833:13952   */\n    tag_350:\n        /* \"#utility.yul\":13991:13992   */\n      0x00\n        /* \"#utility.yul\":14016:14077   */\n      tag_352\n        /* \"#utility.yul\":14069:14076   */\n      dup5\n        /* \"#utility.yul\":14060:14066   */\n      dup3\n        /* \"#utility.yul\":14049:14058   */\n      dup6\n        /* \"#utility.yul\":14045:14067   */\n      add\n        /* \"#utility.yul\":14016:14077   */\n      tag_205\n      jump\t// in\n    tag_352:\n        /* \"#utility.yul\":14006:14077   */\n      swap2\n      pop\n        /* \"#utility.yul\":13962:14087   */\n      pop\n        /* \"#utility.yul\":13749:14094   */\n      swap3\n      swap2\n      pop\n      pop\n      jump\t// out\n        /* \"#utility.yul\":14100:14329   */\n    tag_206:\n        /* \"#utility.yul\":14240:14274   */\n      0x5361666545524332303a204552433230206f7065726174696f6e20646964206e\n        /* \"#utility.yul\":14236:14237   */\n      0x00\n        /* \"#utility.yul\":14228:14234   */\n      dup3\n        /* \"#utility.yul\":14224:14238   */\n      add\n        /* \"#utility.yul\":14217:14275   */\n      mstore\n        /* \"#utility.yul\":14309:14321   */\n      0x6f74207375636365656400000000000000000000000000000000000000000000\n        /* \"#utility.yul\":14304:14306   */\n      0x20\n        /* \"#utility.yul\":14296:14302   */\n      dup3\n        /* \"#utility.yul\":14292:14307   */\n      add\n        /* \"#utility.yul\":14285:14322   */\n      mstore\n        /* \"#utility.yul\":14100:14329   */\n      pop\n      jump\t// out\n        /* \"#utility.yul\":14335:14701   */\n    tag_207:\n        /* \"#utility.yul\":14477:14480   */\n      0x00\n        /* \"#utility.yul\":14498:14565   */\n      tag_355\n        /* \"#utility.yul\":14562:14564   */\n      0x2a\n        /* \"#utility.yul\":14557:14560   */\n      dup4\n        /* \"#utility.yul\":14498:14565   */\n      tag_187\n      jump\t// in\n    tag_355:\n        /* \"#utility.yul\":14491:14565   */\n      swap2\n      pop\n        /* \"#utility.yul\":14574:14667   */\n      tag_356\n        /* \"#utility.yul\":14663:14666   */\n      dup3\n        /* \"#utility.yul\":14574:14667   */\n      tag_206\n      jump\t// in\n    tag_356:\n        /* \"#utility.yul\":14692:14694   */\n      0x40\n        /* \"#utility.yul\":14687:14690   */\n      dup3\n        /* \"#utility.yul\":14683:14695   */\n      add\n        /* \"#utility.yul\":14676:14695   */\n      swap1\n      pop\n        /* \"#utility.yul\":14335:14701   */\n      swap2\n      swap1\n      pop\n      jump\t// out\n        /* \"#utility.yul\":14707:15126   */\n    tag_139:\n        /* \"#utility.yul\":14873:14877   */\n      0x00\n        /* \"#utility.yul\":14911:14913   */\n      0x20\n        /* \"#utility.yul\":14900:14909   */\n      dup3\n        /* \"#utility.yul\":14896:14914   */\n      add\n        /* \"#utility.yul\":14888:14914   */\n      swap1\n      pop\n        /* \"#utility.yul\":14960:14969   */\n      dup2\n        /* \"#utility.yul\":14954:14958   */\n      dup2\n        /* \"#utility.yul\":14950:14970   */\n      sub\n        /* \"#utility.yul\":14946:14947   */\n      0x00\n        /* \"#utility.yul\":14935:14944   */\n      dup4\n        /* \"#utility.yul\":14931:14948   */\n      add\n        /* \"#utility.yul\":14924:14971   */\n      mstore\n        /* \"#utility.yul\":14988:15119   */\n      tag_358\n        /* \"#utility.yul\":15114:15118   */\n      dup2\n        /* \"#utility.yul\":14988:15119   */\n      tag_207\n      jump\t// in\n    tag_358:\n        /* \"#utility.yul\":14980:15119   */\n      swap1\n      pop\n        /* \"#utility.yul\":14707:15126   */\n      swap2\n      swap1\n      pop\n      jump\t// out\n        /* \"#utility.yul\":15132:15357   */\n    tag_208:\n        /* \"#utility.yul\":15272:15306   */\n      0x416464726573733a20696e73756666696369656e742062616c616e636520666f\n        /* \"#utility.yul\":15268:15269   */\n      0x00\n        /* \"#utility.yul\":15260:15266   */\n      dup3\n        /* \"#utility.yul\":15256:15270   */\n      add\n        /* \"#utility.yul\":15249:15307   */\n      mstore\n        /* \"#utility.yul\":15341:15349   */\n      0x722063616c6c0000000000000000000000000000000000000000000000000000\n        /* \"#utility.yul\":15336:15338   */\n      0x20\n        /* \"#utility.yul\":15328:15334   */\n      dup3\n        /* \"#utility.yul\":15324:15339   */\n      add\n        /* \"#utility.yul\":15317:15350   */\n      mstore\n        /* \"#utility.yul\":15132:15357   */\n      pop\n      jump\t// out\n        /* \"#utility.yul\":15363:15729   */\n    tag_209:\n        /* \"#utility.yul\":15505:15508   */\n      0x00\n        /* \"#utility.yul\":15526:15593   */\n      tag_361\n        /* \"#utility.yul\":15590:15592   */\n      0x26\n        /* \"#utility.yul\":15585:15588   */\n      dup4\n        /* \"#utility.yul\":15526:15593   */\n      tag_187\n      jump\t// in\n    tag_361:\n        /* \"#utility.yul\":15519:15593   */\n      swap2\n      pop\n        /* \"#utility.yul\":15602:15695   */\n      tag_362\n        /* \"#utility.yul\":15691:15694   */\n      dup3\n        /* \"#utility.yul\":15602:15695   */\n      tag_208\n      jump\t// in\n    tag_362:\n        /* \"#utility.yul\":15720:15722   */\n      0x40\n        /* \"#utility.yul\":15715:15718   */\n      dup3\n        /* \"#utility.yul\":15711:15723   */\n      add\n        /* \"#utility.yul\":15704:15723   */\n      swap1\n      pop\n        /* \"#utility.yul\":15363:15729   */\n      swap2\n      swap1\n      pop\n      jump\t// out\n        /* \"#utility.yul\":15735:16154   */\n    tag_146:\n        /* \"#utility.yul\":15901:15905   */\n      0x00\n        /* \"#utility.yul\":15939:15941   */\n      0x20\n        /* \"#utility.yul\":15928:15937   */\n      dup3\n        /* \"#utility.yul\":15924:15942   */\n      add\n        /* \"#utility.yul\":15916:15942   */\n      swap1\n      pop\n        /* \"#utility.yul\":15988:15997   */\n      dup2\n        /* \"#utility.yul\":15982:15986   */\n      dup2\n        /* \"#utility.yul\":15978:15998   */\n      sub\n        /* \"#utility.yul\":15974:15975   */\n      0x00\n        /* \"#utility.yul\":15963:15972   */\n      dup4\n        /* \"#utility.yul\":15959:15976   */\n      add\n        /* \"#utility.yul\":15952:15999   */\n      mstore\n        /* \"#utility.yul\":16016:16147   */\n      tag_364\n        /* \"#utility.yul\":16142:16146   */\n      dup2\n        /* \"#utility.yul\":16016:16147   */\n      tag_209\n      jump\t// in\n    tag_364:\n        /* \"#utility.yul\":16008:16147   */\n      swap1\n      pop\n        /* \"#utility.yul\":15735:16154   */\n      swap2\n      swap1\n      pop\n      jump\t// out\n        /* \"#utility.yul\":16160:16339   */\n    tag_210:\n        /* \"#utility.yul\":16300:16331   */\n      0x416464726573733a2063616c6c20746f206e6f6e2d636f6e7472616374000000\n        /* \"#utility.yul\":16296:16297   */\n      0x00\n        /* \"#utility.yul\":16288:16294   */\n      dup3\n        /* \"#utility.yul\":16284:16298   */\n      add\n        /* \"#utility.yul\":16277:16332   */\n      mstore\n        /* \"#utility.yul\":16160:16339   */\n      pop\n      jump\t// out\n        /* \"#utility.yul\":16345:16711   */\n    tag_211:\n        /* \"#utility.yul\":16487:16490   */\n      0x00\n        /* \"#utility.yul\":16508:16575   */\n      tag_367\n        /* \"#utility.yul\":16572:16574   */\n      0x1d\n        /* \"#utility.yul\":16567:16570   */\n      dup4\n        /* \"#utility.yul\":16508:16575   */\n      tag_187\n      jump\t// in\n    tag_367:\n        /* \"#utility.yul\":16501:16575   */\n      swap2\n      pop\n        /* \"#utility.yul\":16584:16677   */\n      tag_368\n        /* \"#utility.yul\":16673:16676   */\n      dup3\n        /* \"#utility.yul\":16584:16677   */\n      tag_210\n      jump\t// in\n    tag_368:\n        /* \"#utility.yul\":16702:16704   */\n      0x20\n        /* \"#utility.yul\":16697:16700   */\n      dup3\n        /* \"#utility.yul\":16693:16705   */\n      add\n        /* \"#utility.yul\":16686:16705   */\n      swap1\n      pop\n        /* \"#utility.yul\":16345:16711   */\n      swap2\n      swap1\n      pop\n      jump\t// out\n        /* \"#utility.yul\":16717:17136   */\n    tag_151:\n        /* \"#utility.yul\":16883:16887   */\n      0x00\n        /* \"#utility.yul\":16921:16923   */\n      0x20\n        /* \"#utility.yul\":16910:16919   */\n      dup3\n        /* \"#utility.yul\":16906:16924   */\n      add\n        /* \"#utility.yul\":16898:16924   */\n      swap1\n      pop\n        /* \"#utility.yul\":16970:16979   */\n      dup2\n        /* \"#utility.yul\":16964:16968   */\n      dup2\n        /* \"#utility.yul\":16960:16980   */\n      sub\n        /* \"#utility.yul\":16956:16957   */\n      0x00\n        /* \"#utility.yul\":16945:16954   */\n      dup4\n        /* \"#utility.yul\":16941:16958   */\n      add\n        /* \"#utility.yul\":16934:16981   */\n      mstore\n        /* \"#utility.yul\":16998:17129   */\n      tag_370\n        /* \"#utility.yul\":17124:17128   */\n      dup2\n        /* \"#utility.yul\":16998:17129   */\n      tag_211\n      jump\t// in\n    tag_370:\n        /* \"#utility.yul\":16990:17129   */\n      swap1\n      pop\n        /* \"#utility.yul\":16717:17136   */\n      swap2\n      swap1\n      pop\n      jump\t// out\n        /* \"#utility.yul\":17142:17240   */\n    tag_212:\n        /* \"#utility.yul\":17193:17199   */\n      0x00\n        /* \"#utility.yul\":17227:17232   */\n      dup2\n        /* \"#utility.yul\":17221:17233   */\n      mload\n        /* \"#utility.yul\":17211:17233   */\n      swap1\n      pop\n        /* \"#utility.yul\":17142:17240   */\n      swap2\n      swap1\n      pop\n      jump\t// out\n        /* \"#utility.yul\":17246:17393   */\n    tag_213:\n        /* \"#utility.yul\":17347:17358   */\n      0x00\n        /* \"#utility.yul\":17384:17387   */\n      dup2\n        /* \"#utility.yul\":17369:17387   */\n      swap1\n      pop\n        /* \"#utility.yul\":17246:17393   */\n      swap3\n      swap2\n      pop\n      pop\n      jump\t// out\n        /* \"#utility.yul\":17399:17645   */\n    tag_214:\n        /* \"#utility.yul\":17480:17481   */\n      0x00\n        /* \"#utility.yul\":17490:17603   */\n    tag_374:\n        /* \"#utility.yul\":17504:17510   */\n      dup4\n        /* \"#utility.yul\":17501:17502   */\n      dup2\n        /* \"#utility.yul\":17498:17511   */\n      lt\n        /* \"#utility.yul\":17490:17603   */\n      iszero\n      tag_376\n      jumpi\n        /* \"#utility.yul\":17589:17590   */\n      dup1\n        /* \"#utility.yul\":17584:17587   */\n      dup3\n        /* \"#utility.yul\":17580:17591   */\n      add\n        /* \"#utility.yul\":17574:17592   */\n      mload\n        /* \"#utility.yul\":17570:17571   */\n      dup2\n        /* \"#utility.yul\":17565:17568   */\n      dup5\n        /* \"#utility.yul\":17561:17572   */\n      add\n        /* \"#utility.yul\":17554:17593   */\n      mstore\n        /* \"#utility.yul\":17526:17528   */\n      0x20\n        /* \"#utility.yul\":17523:17524   */\n      dup2\n        /* \"#utility.yul\":17519:17529   */\n      add\n        /* \"#utility.yul\":17514:17529   */\n      swap1\n      pop\n        /* \"#utility.yul\":17490:17603   */\n      jump(tag_374)\n    tag_376:\n        /* \"#utility.yul\":17637:17638   */\n      0x00\n        /* \"#utility.yul\":17628:17634   */\n      dup5\n        /* \"#utility.yul\":17623:17626   */\n      dup5\n        /* \"#utility.yul\":17619:17635   */\n      add\n        /* \"#utility.yul\":17612:17639   */\n      mstore\n        /* \"#utility.yul\":17461:17645   */\n      pop\n        /* \"#utility.yul\":17399:17645   */\n      pop\n      pop\n      pop\n      jump\t// out\n        /* \"#utility.yul\":17651:18037   */\n    tag_215:\n        /* \"#utility.yul\":17755:17758   */\n      0x00\n        /* \"#utility.yul\":17783:17821   */\n      tag_378\n        /* \"#utility.yul\":17815:17820   */\n      dup3\n        /* \"#utility.yul\":17783:17821   */\n      tag_212\n      jump\t// in\n    tag_378:\n        /* \"#utility.yul\":17837:17925   */\n      tag_379\n        /* \"#utility.yul\":17918:17924   */\n      dup2\n        /* \"#utility.yul\":17913:17916   */\n      dup6\n        /* \"#utility.yul\":17837:17925   */\n      tag_213\n      jump\t// in\n    tag_379:\n        /* \"#utility.yul\":17830:17925   */\n      swap4\n      pop\n        /* \"#utility.yul\":17934:17999   */\n      tag_380\n        /* \"#utility.yul\":17992:17998   */\n      dup2\n        /* \"#utility.yul\":17987:17990   */\n      dup6\n        /* \"#utility.yul\":17980:17984   */\n      0x20\n        /* \"#utility.yul\":17973:17978   */\n      dup7\n        /* \"#utility.yul\":17969:17985   */\n      add\n        /* \"#utility.yul\":17934:17999   */\n      tag_214\n      jump\t// in\n    tag_380:\n        /* \"#utility.yul\":18024:18030   */\n      dup1\n        /* \"#utility.yul\":18019:18022   */\n      dup5\n        /* \"#utility.yul\":18015:18031   */\n      add\n        /* \"#utility.yul\":18008:18031   */\n      swap2\n      pop\n        /* \"#utility.yul\":17759:18037   */\n      pop\n        /* \"#utility.yul\":17651:18037   */\n      swap3\n      swap2\n      pop\n      pop\n      jump\t// out\n        /* \"#utility.yul\":18043:18314   */\n    tag_153:\n        /* \"#utility.yul\":18173:18176   */\n      0x00\n        /* \"#utility.yul\":18195:18288   */\n      tag_382\n        /* \"#utility.yul\":18284:18287   */\n      dup3\n        /* \"#utility.yul\":18275:18281   */\n      dup5\n        /* \"#utility.yul\":18195:18288   */\n      tag_215\n      jump\t// in\n    tag_382:\n        /* \"#utility.yul\":18188:18288   */\n      swap2\n      pop\n        /* \"#utility.yul\":18305:18308   */\n      dup2\n        /* \"#utility.yul\":18298:18308   */\n      swap1\n      pop\n        /* \"#utility.yul\":18043:18314   */\n      swap3\n      swap2\n      pop\n      pop\n      jump\t// out\n        /* \"#utility.yul\":18320:18419   */\n    tag_216:\n        /* \"#utility.yul\":18372:18378   */\n      0x00\n        /* \"#utility.yul\":18406:18411   */\n      dup2\n        /* \"#utility.yul\":18400:18412   */\n      mload\n        /* \"#utility.yul\":18390:18412   */\n      swap1\n      pop\n        /* \"#utility.yul\":18320:18419   */\n      swap2\n      swap1\n      pop\n      jump\t// out\n        /* \"#utility.yul\":18425:18527   */\n    tag_217:\n        /* \"#utility.yul\":18466:18472   */\n      0x00\n        /* \"#utility.yul\":18517:18519   */\n      0x1f\n        /* \"#utility.yul\":18513:18520   */\n      not\n        /* \"#utility.yul\":18508:18510   */\n      0x1f\n        /* \"#utility.yul\":18501:18506   */\n      dup4\n        /* \"#utility.yul\":18497:18511   */\n      add\n        /* \"#utility.yul\":18493:18521   */\n      and\n        /* \"#utility.yul\":18483:18521   */\n      swap1\n      pop\n        /* \"#utility.yul\":18425:18527   */\n      swap2\n      swap1\n      pop\n      jump\t// out\n        /* \"#utility.yul\":18533:18910   */\n    tag_218:\n        /* \"#utility.yul\":18621:18624   */\n      0x00\n        /* \"#utility.yul\":18649:18688   */\n      tag_386\n        /* \"#utility.yul\":18682:18687   */\n      dup3\n        /* \"#utility.yul\":18649:18688   */\n      tag_216\n      jump\t// in\n    tag_386:\n        /* \"#utility.yul\":18704:18775   */\n      tag_387\n        /* \"#utility.yul\":18768:18774   */\n      dup2\n        /* \"#utility.yul\":18763:18766   */\n      dup6\n        /* \"#utility.yul\":18704:18775   */\n      tag_187\n      jump\t// in\n    tag_387:\n        /* \"#utility.yul\":18697:18775   */\n      swap4\n      pop\n        /* \"#utility.yul\":18784:18849   */\n      tag_388\n        /* \"#utility.yul\":18842:18848   */\n      dup2\n        /* \"#utility.yul\":18837:18840   */\n      dup6\n        /* \"#utility.yul\":18830:18834   */\n      0x20\n        /* \"#utility.yul\":18823:18828   */\n      dup7\n        /* \"#utility.yul\":18819:18835   */\n      add\n        /* \"#utility.yul\":18784:18849   */\n      tag_214\n      jump\t// in\n    tag_388:\n        /* \"#utility.yul\":18874:18903   */\n      tag_389\n        /* \"#utility.yul\":18896:18902   */\n      dup2\n        /* \"#utility.yul\":18874:18903   */\n      tag_217\n      jump\t// in\n    tag_389:\n        /* \"#utility.yul\":18869:18872   */\n      dup5\n        /* \"#utility.yul\":18865:18904   */\n      add\n        /* \"#utility.yul\":18858:18904   */\n      swap2\n      pop\n        /* \"#utility.yul\":18625:18910   */\n      pop\n        /* \"#utility.yul\":18533:18910   */\n      swap3\n      swap2\n      pop\n      pop\n      jump\t// out\n        /* \"#utility.yul\":18916:19229   */\n    tag_166:\n        /* \"#utility.yul\":19029:19033   */\n      0x00\n        /* \"#utility.yul\":19067:19069   */\n      0x20\n        /* \"#utility.yul\":19056:19065   */\n      dup3\n        /* \"#utility.yul\":19052:19070   */\n      add\n        /* \"#utility.yul\":19044:19070   */\n      swap1\n      pop\n        /* \"#utility.yul\":19116:19125   */\n      dup2\n        /* \"#utility.yul\":19110:19114   */\n      dup2\n        /* \"#utility.yul\":19106:19126   */\n      sub\n        /* \"#utility.yul\":19102:19103   */\n      0x00\n        /* \"#utility.yul\":19091:19100   */\n      dup4\n        /* \"#utility.yul\":19087:19104   */\n      add\n        /* \"#utility.yul\":19080:19127   */\n      mstore\n        /* \"#utility.yul\":19144:19222   */\n      tag_391\n        /* \"#utility.yul\":19217:19221   */\n      dup2\n        /* \"#utility.yul\":19208:19214   */\n      dup5\n        /* \"#utility.yul\":19144:19222   */\n      tag_218\n      jump\t// in\n    tag_391:\n        /* \"#utility.yul\":19136:19222   */\n      swap1\n      pop\n        /* \"#utility.yul\":18916:19229   */\n      swap3\n      swap2\n      pop\n      pop\n      jump\t// out\n\n    auxdata: 0xa2646970667358221220cde4040cc10bcf7dbb5b4dceedc871106e8763420dc6b180a156ac6ff3d7131b64736f6c63430008130033\n}\n",
				"bytecode": {
					"linkReferences": {},
					"object": "6080604052601260015534801561001557600080fd5b5033600360006101000a81548173ffffffffffffffffffffffffffffffffffffffff021916908373ffffffffffffffffffffffffffffffffffffffff1602179055506115f5806100666000396000f3fe608060405234801561001057600080fd5b506004361061009e5760003560e01c806386d1a69f1161006657806386d1a69f146101335780639e1a4d191461013d578063a6f9dae11461015b578063bf9321fc14610177578063fc0c546a146101955761009e565b806326a4e8d2146100a3578063313ce567146100bf5780634b14c0ef146100dd5780635459b8a3146100fb5780635e00e67914610117575b600080fd5b6100bd60048036038101906100b89190610c23565b6101b3565b005b6100c7610250565b6040516100d49190610c69565b60405180910390f35b6100e561025a565b6040516100f29190610c69565b60405180910390f35b61011560048036038101906101109190610d3f565b610264565b005b610131600480360381019061012c9190610c23565b6104f8565b005b61013b61053c565b005b610145610697565b6040516101529190610c69565b60405180910390f35b61017560048036038101906101709190610c23565b610769565b005b61017f610807565b60405161018c9190610dcf565b60405180910390f35b61019d610831565b6040516101aa9190610e49565b60405180910390f35b600360009054906101000a900473ffffffffffffffffffffffffffffffffffffffff1673ffffffffffffffffffffffffffffffffffffffff163373ffffffffffffffffffffffffffffffffffffffff161461020d57600080fd5b806000806101000a81548173ffffffffffffffffffffffffffffffffffffffff021916908373ffffffffffffffffffffffffffffffffffffffff16021790555050565b6000600154905090565b6000600254905090565b600360009054906101000a900473ffffffffffffffffffffffffffffffffffffffff1673ffffffffffffffffffffffffffffffffffffffff163373ffffffffffffffffffffffffffffffffffffffff16146102be57600080fd5b600073ffffffffffffffffffffffffffffffffffffffff1660008054906101000a900473ffffffffffffffffffffffffffffffffffffffff1673ffffffffffffffffffffffffffffffffffffffff160361034d576040517f08c379a000000000000000000000000000000000000000000000000000000000815260040161034490610ec1565b60405180910390fd5b818190508484905014610395576040517f08c379a000000000000000000000000000000000000000000000000000000000815260040161038c90610f79565b60405180910390fd5b6000805b858590508110156103e5576103d08484838181106103ba576103b9610f99565b5b905060200201358361085a90919063ffffffff16565b915080806103dd90610ff7565b915050610399565b50806103ef610697565b1015610430576040517f08c379a0000000000000000000000000000000000000000000000000000000008152600401610427906110b1565b60405180910390fd5b60005b858590508110156104f0576104b086868381811061045457610453610f99565b5b90506020020160208101906104699190610c23565b85858481811061047c5761047b610f99565b5b9050602002013561048b610831565b73ffffffffffffffffffffffffffffffffffffffff166108b89092919063ffffffff16565b8383828181106104c3576104c2610f99565b5b905060200201356002546104d791906110d1565b60028190555080806104e890610ff7565b915050610433565b505050505050565b80600460006101000a81548173ffffffffffffffffffffffffffffffffffffffff021916908373ffffffffffffffffffffffffffffffffffffffff16021790555050565b600360009054906101000a900473ffffffffffffffffffffffffffffffffffffffff1673ffffffffffffffffffffffffffffffffffffffff163373ffffffffffffffffffffffffffffffffffffffff161461059657600080fd5b60006105a0610697565b9050600081116105e5576040517f08c379a00000000000000000000000000000000000000000000000000000000081526004016105dc90611151565b60405180910390fd5b600073ffffffffffffffffffffffffffffffffffffffff16610605610807565b73ffffffffffffffffffffffffffffffffffffffff160361065b576040517f08c379a0000000000000000000000000000000000000000000000000000000008152600401610652906111bd565b60405180910390fd5b610694610666610807565b8261066f610831565b73ffffffffffffffffffffffffffffffffffffffff166108b89092919063ffffffff16565b50565b60008073ffffffffffffffffffffffffffffffffffffffff166106b8610831565b73ffffffffffffffffffffffffffffffffffffffff16036106dc5760009050610766565b60006106e6610831565b73ffffffffffffffffffffffffffffffffffffffff166370a08231306040518263ffffffff1660e01b815260040161071e9190610dcf565b602060405180830381865afa15801561073b573d6000803e3d6000fd5b505050506040513d601f19601f8201168201806040525081019061075f9190611209565b9050809150505b90565b600360009054906101000a900473ffffffffffffffffffffffffffffffffffffffff1673ffffffffffffffffffffffffffffffffffffffff163373ffffffffffffffffffffffffffffffffffffffff16146107c357600080fd5b80600360006101000a81548173ffffffffffffffffffffffffffffffffffffffff021916908373ffffffffffffffffffffffffffffffffffffffff16021790555050565b6000600460009054906101000a900473ffffffffffffffffffffffffffffffffffffffff16905090565b60008060009054906101000a900473ffffffffffffffffffffffffffffffffffffffff16905090565b600080828461086991906110d1565b9050838110156108ae576040517f08c379a00000000000000000000000000000000000000000000000000000000081526004016108a590611282565b60405180910390fd5b8091505092915050565b6109398363a9059cbb60e01b84846040516024016108d79291906112a2565b604051602081830303815290604052907bffffffffffffffffffffffffffffffffffffffffffffffffffffffff19166020820180517bffffffffffffffffffffffffffffffffffffffffffffffffffffffff838183161783525050505061093e565b505050565b60006109a0826040518060400160405280602081526020017f5361666545524332303a206c6f772d6c6576656c2063616c6c206661696c65648152508573ffffffffffffffffffffffffffffffffffffffff16610a059092919063ffffffff16565b9050600081511115610a0057808060200190518101906109c09190611303565b6109ff576040517f08c379a00000000000000000000000000000000000000000000000000000000081526004016109f6906113a2565b60405180910390fd5b5b505050565b6060610a148484600085610a1d565b90509392505050565b606082471015610a62576040517f08c379a0000000000000000000000000000000000000000000000000000000008152600401610a5990611434565b60405180910390fd5b610a6b85610b31565b610aaa576040517f08c379a0000000000000000000000000000000000000000000000000000000008152600401610aa1906114a0565b60405180910390fd5b6000808673ffffffffffffffffffffffffffffffffffffffff168587604051610ad39190611531565b60006040518083038185875af1925050503d8060008114610b10576040519150601f19603f3d011682016040523d82523d6000602084013e610b15565b606091505b5091509150610b25828286610b54565b92505050949350505050565b6000808273ffffffffffffffffffffffffffffffffffffffff163b119050919050565b60608315610b6457829050610bb4565b600083511115610b775782518084602001fd5b816040517f08c379a0000000000000000000000000000000000000000000000000000000008152600401610bab919061159d565b60405180910390fd5b9392505050565b600080fd5b600080fd5b600073ffffffffffffffffffffffffffffffffffffffff82169050919050565b6000610bf082610bc5565b9050919050565b610c0081610be5565b8114610c0b57600080fd5b50565b600081359050610c1d81610bf7565b92915050565b600060208284031215610c3957610c38610bbb565b5b6000610c4784828501610c0e565b91505092915050565b6000819050919050565b610c6381610c50565b82525050565b6000602082019050610c7e6000830184610c5a565b92915050565b600080fd5b600080fd5b600080fd5b60008083601f840112610ca957610ca8610c84565b5b8235905067ffffffffffffffff811115610cc657610cc5610c89565b5b602083019150836020820283011115610ce257610ce1610c8e565b5b9250929050565b60008083601f840112610cff57610cfe610c84565b5b8235905067ffffffffffffffff811115610d1c57610d1b610c89565b5b602083019150836020820283011115610d3857610d37610c8e565b5b9250929050565b60008060008060408587031215610d5957610d58610bbb565b5b600085013567ffffffffffffffff811115610d7757610d76610bc0565b5b610d8387828801610c93565b9450945050602085013567ffffffffffffffff811115610da657610da5610bc0565b5b610db287828801610ce9565b925092505092959194509250565b610dc981610be5565b82525050565b6000602082019050610de46000830184610dc0565b92915050565b6000819050919050565b6000610e0f610e0a610e0584610bc5565b610dea565b610bc5565b9050919050565b6000610e2182610df4565b9050919050565b6000610e3382610e16565b9050919050565b610e4381610e28565b82525050565b6000602082019050610e5e6000830184610e3a565b92915050565b600082825260208201905092915050565b7f52656c656173653a206e6565642073657420546f6b656e204164647265737300600082015250565b6000610eab601f83610e64565b9150610eb682610e75565b602082019050919050565b60006020820190508181036000830152610eda81610e9e565b9050919050565b7f506c6561736520636865636b2074686520646174612c20746865206e6577732060008201527f494420616e6420646973747269627574696f6e207175616e746974792061726560208201527f20696e636f6e73697374656e7400000000000000000000000000000000000000604082015250565b6000610f63604d83610e64565b9150610f6e82610ee1565b606082019050919050565b60006020820190508181036000830152610f9281610f56565b9050919050565b7f4e487b7100000000000000000000000000000000000000000000000000000000600052603260045260246000fd5b7f4e487b7100000000000000000000000000000000000000000000000000000000600052601160045260246000fd5b600061100282610c50565b91507fffffffffffffffffffffffffffffffffffffffffffffffffffffffffffffffff820361103457611033610fc8565b5b600182019050919050565b7f546865206e756d626572206f66206169722064726f707320657863656564732060008201527f746865206461696c792072656c6561736520616d6f756e740000000000000000602082015250565b600061109b603883610e64565b91506110a68261103f565b604082019050919050565b600060208201905081810360008301526110ca8161108e565b9050919050565b60006110dc82610c50565b91506110e783610c50565b92508282019050808211156110ff576110fe610fc8565b5b92915050565b7f4e6f207175616e7469747920746f2073656e6400000000000000000000000000600082015250565b600061113b601383610e64565b915061114682611105565b602082019050919050565b6000602082019050818103600083015261116a8161112e565b9050919050565b7f52656c656173653a206e65656420736574205265776172642041646472657373600082015250565b60006111a7602083610e64565b91506111b282611171565b602082019050919050565b600060208201905081810360008301526111d68161119a565b9050919050565b6111e681610c50565b81146111f157600080fd5b50565b600081519050611203816111dd565b92915050565b60006020828403121561121f5761121e610bbb565b5b600061122d848285016111f4565b91505092915050565b7f536166654d6174683a206164646974696f6e206f766572666c6f770000000000600082015250565b600061126c601b83610e64565b915061127782611236565b602082019050919050565b6000602082019050818103600083015261129b8161125f565b9050919050565b60006040820190506112b76000830185610dc0565b6112c46020830184610c5a565b9392505050565b60008115159050919050565b6112e0816112cb565b81146112eb57600080fd5b50565b6000815190506112fd816112d7565b92915050565b60006020828403121561131957611318610bbb565b5b6000611327848285016112ee565b91505092915050565b7f5361666545524332303a204552433230206f7065726174696f6e20646964206e60008201527f6f74207375636365656400000000000000000000000000000000000000000000602082015250565b600061138c602a83610e64565b915061139782611330565b604082019050919050565b600060208201905081810360008301526113bb8161137f565b9050919050565b7f416464726573733a20696e73756666696369656e742062616c616e636520666f60008201527f722063616c6c0000000000000000000000000000000000000000000000000000602082015250565b600061141e602683610e64565b9150611429826113c2565b604082019050919050565b6000602082019050818103600083015261144d81611411565b9050919050565b7f416464726573733a2063616c6c20746f206e6f6e2d636f6e7472616374000000600082015250565b600061148a601d83610e64565b915061149582611454565b602082019050919050565b600060208201905081810360008301526114b98161147d565b9050919050565b600081519050919050565b600081905092915050565b60005b838110156114f45780820151818401526020810190506114d9565b60008484015250505050565b600061150b826114c0565b61151581856114cb565b93506115258185602086016114d6565b80840191505092915050565b600061153d8284611500565b915081905092915050565b600081519050919050565b6000601f19601f8301169050919050565b600061156f82611548565b6115798185610e64565b93506115898185602086016114d6565b61159281611553565b840191505092915050565b600060208201905081810360008301526115b78184611564565b90509291505056fea2646970667358221220cde4040cc10bcf7dbb5b4dceedc871106e8763420dc6b180a156ac6ff3d7131b64736f6c63430008130033",
					"opcodes": "PUSH1 0x80 PUSH1 0x40 MSTORE PUSH1 0x12 PUSH1 0x1 SSTORE CALLVALUE DUP1 ISZERO PUSH2 0x15 JUMPI PUSH1 0x0 DUP1 REVERT JUMPDEST POP CALLER PUSH1 0x3 PUSH1 0x0 PUSH2 0x100 EXP DUP2 SLOAD DUP2 PUSH20 0xFFFFFFFFFFFFFFFFFFFFFFFFFFFFFFFFFFFFFFFF MUL NOT AND SWAP1 DUP4 PUSH20 0xFFFFFFFFFFFFFFFFFFFFFFFFFFFFFFFFFFFFFFFF AND MUL OR SWAP1 SSTORE POP PUSH2 0x15F5 DUP1 PUSH2 0x66 PUSH1 0x0 CODECOPY PUSH1 0x0 RETURN INVALID PUSH1 0x80 PUSH1 0x40 MSTORE CALLVALUE DUP1 ISZERO PUSH2 0x10 JUMPI PUSH1 0x0 DUP1 REVERT JUMPDEST POP PUSH1 0x4 CALLDATASIZE LT PUSH2 0x9E JUMPI PUSH1 0x0 CALLDATALOAD PUSH1 0xE0 SHR DUP1 PUSH4 0x86D1A69F GT PUSH2 0x66 JUMPI DUP1 PUSH4 0x86D1A69F EQ PUSH2 0x133 JUMPI DUP1 PUSH4 0x9E1A4D19 EQ PUSH2 0x13D JUMPI DUP1 PUSH4 0xA6F9DAE1 EQ PUSH2 0x15B JUMPI DUP1 PUSH4 0xBF9321FC EQ PUSH2 0x177 JUMPI DUP1 PUSH4 0xFC0C546A EQ PUSH2 0x195 JUMPI PUSH2 0x9E JUMP JUMPDEST DUP1 PUSH4 0x26A4E8D2 EQ PUSH2 0xA3 JUMPI DUP1 PUSH4 0x313CE567 EQ PUSH2 0xBF JUMPI DUP1 PUSH4 0x4B14C0EF EQ PUSH2 0xDD JUMPI DUP1 PUSH4 0x5459B8A3 EQ PUSH2 0xFB JUMPI DUP1 PUSH4 0x5E00E679 EQ PUSH2 0x117 JUMPI JUMPDEST PUSH1 0x0 DUP1 REVERT JUMPDEST PUSH2 0xBD PUSH1 0x4 DUP1 CALLDATASIZE SUB DUP2 ADD SWAP1 PUSH2 0xB8 SWAP2 SWAP1 PUSH2 0xC23 JUMP JUMPDEST PUSH2 0x1B3 JUMP JUMPDEST STOP JUMPDEST PUSH2 0xC7 PUSH2 0x250 JUMP JUMPDEST PUSH1 0x40 MLOAD PUSH2 0xD4 SWAP2 SWAP1 PUSH2 0xC69 JUMP JUMPDEST PUSH1 0x40 MLOAD DUP1 SWAP2 SUB SWAP1 RETURN JUMPDEST PUSH2 0xE5 PUSH2 0x25A JUMP JUMPDEST PUSH1 0x40 MLOAD PUSH2 0xF2 SWAP2 SWAP1 PUSH2 0xC69 JUMP JUMPDEST PUSH1 0x40 MLOAD DUP1 SWAP2 SUB SWAP1 RETURN JUMPDEST PUSH2 0x115 PUSH1 0x4 DUP1 CALLDATASIZE SUB DUP2 ADD SWAP1 PUSH2 0x110 SWAP2 SWAP1 PUSH2 0xD3F JUMP JUMPDEST PUSH2 0x264 JUMP JUMPDEST STOP JUMPDEST PUSH2 0x131 PUSH1 0x4 DUP1 CALLDATASIZE SUB DUP2 ADD SWAP1 PUSH2 0x12C SWAP2 SWAP1 PUSH2 0xC23 JUMP JUMPDEST PUSH2 0x4F8 JUMP JUMPDEST STOP JUMPDEST PUSH2 0x13B PUSH2 0x53C JUMP JUMPDEST STOP JUMPDEST PUSH2 0x145 PUSH2 0x697 JUMP JUMPDEST PUSH1 0x40 MLOAD PUSH2 0x152 SWAP2 SWAP1 PUSH2 0xC69 JUMP JUMPDEST PUSH1 0x40 MLOAD DUP1 SWAP2 SUB SWAP1 RETURN JUMPDEST PUSH2 0x175 PUSH1 0x4 DUP1 CALLDATASIZE SUB DUP2 ADD SWAP1 PUSH2 0x170 SWAP2 SWAP1 PUSH2 0xC23 JUMP JUMPDEST PUSH2 0x769 JUMP JUMPDEST STOP JUMPDEST PUSH2 0x17F PUSH2 0x807 JUMP JUMPDEST PUSH1 0x40 MLOAD PUSH2 0x18C SWAP2 SWAP1 PUSH2 0xDCF JUMP JUMPDEST PUSH1 0x40 MLOAD DUP1 SWAP2 SUB SWAP1 RETURN JUMPDEST PUSH2 0x19D PUSH2 0x831 JUMP JUMPDEST PUSH1 0x40 MLOAD PUSH2 0x1AA SWAP2 SWAP1 PUSH2 0xE49 JUMP JUMPDEST PUSH1 0x40 MLOAD DUP1 SWAP2 SUB SWAP1 RETURN JUMPDEST PUSH1 0x3 PUSH1 0x0 SWAP1 SLOAD SWAP1 PUSH2 0x100 EXP SWAP1 DIV PUSH20 0xFFFFFFFFFFFFFFFFFFFFFFFFFFFFFFFFFFFFFFFF AND PUSH20 0xFFFFFFFFFFFFFFFFFFFFFFFFFFFFFFFFFFFFFFFF AND CALLER PUSH20 0xFFFFFFFFFFFFFFFFFFFFFFFFFFFFFFFFFFFFFFFF AND EQ PUSH2 0x20D JUMPI PUSH1 0x0 DUP1 REVERT JUMPDEST DUP1 PUSH1 0x0 DUP1 PUSH2 0x100 EXP DUP2 SLOAD DUP2 PUSH20 0xFFFFFFFFFFFFFFFFFFFFFFFFFFFFFFFFFFFFFFFF MUL NOT AND SWAP1 DUP4 PUSH20 0xFFFFFFFFFFFFFFFFFFFFFFFFFFFFFFFFFFFFFFFF AND MUL OR SWAP1 SSTORE POP POP JUMP JUMPDEST PUSH1 0x0 PUSH1 0x1 SLOAD SWAP1 POP SWAP1 JUMP JUMPDEST PUSH1 0x0 PUSH1 0x2 SLOAD SWAP1 POP SWAP1 JUMP JUMPDEST PUSH1 0x3 PUSH1 0x0 SWAP1 SLOAD SWAP1 PUSH2 0x100 EXP SWAP1 DIV PUSH20 0xFFFFFFFFFFFFFFFFFFFFFFFFFFFFFFFFFFFFFFFF AND PUSH20 0xFFFFFFFFFFFFFFFFFFFFFFFFFFFFFFFFFFFFFFFF AND CALLER PUSH20 0xFFFFFFFFFFFFFFFFFFFFFFFFFFFFFFFFFFFFFFFF AND EQ PUSH2 0x2BE JUMPI PUSH1 0x0 DUP1 REVERT JUMPDEST PUSH1 0x0 PUSH20 0xFFFFFFFFFFFFFFFFFFFFFFFFFFFFFFFFFFFFFFFF AND PUSH1 0x0 DUP1 SLOAD SWAP1 PUSH2 0x100 EXP SWAP1 DIV PUSH20 0xFFFFFFFFFFFFFFFFFFFFFFFFFFFFFFFFFFFFFFFF AND PUSH20 0xFFFFFFFFFFFFFFFFFFFFFFFFFFFFFFFFFFFFFFFF AND SUB PUSH2 0x34D JUMPI PUSH1 0x40 MLOAD PUSH32 0x8C379A000000000000000000000000000000000000000000000000000000000 DUP2 MSTORE PUSH1 0x4 ADD PUSH2 0x344 SWAP1 PUSH2 0xEC1 JUMP JUMPDEST PUSH1 0x40 MLOAD DUP1 SWAP2 SUB SWAP1 REVERT JUMPDEST DUP2 DUP2 SWAP1 POP DUP5 DUP5 SWAP1 POP EQ PUSH2 0x395 JUMPI PUSH1 0x40 MLOAD PUSH32 0x8C379A000000000000000000000000000000000000000000000000000000000 DUP2 MSTORE PUSH1 0x4 ADD PUSH2 0x38C SWAP1 PUSH2 0xF79 JUMP JUMPDEST PUSH1 0x40 MLOAD DUP1 SWAP2 SUB SWAP1 REVERT JUMPDEST PUSH1 0x0 DUP1 JUMPDEST DUP6 DUP6 SWAP1 POP DUP2 LT ISZERO PUSH2 0x3E5 JUMPI PUSH2 0x3D0 DUP5 DUP5 DUP4 DUP2 DUP2 LT PUSH2 0x3BA JUMPI PUSH2 0x3B9 PUSH2 0xF99 JUMP JUMPDEST JUMPDEST SWAP1 POP PUSH1 0x20 MUL ADD CALLDATALOAD DUP4 PUSH2 0x85A SWAP1 SWAP2 SWAP1 PUSH4 0xFFFFFFFF AND JUMP JUMPDEST SWAP2 POP DUP1 DUP1 PUSH2 0x3DD SWAP1 PUSH2 0xFF7 JUMP JUMPDEST SWAP2 POP POP PUSH2 0x399 JUMP JUMPDEST POP DUP1 PUSH2 0x3EF PUSH2 0x697 JUMP JUMPDEST LT ISZERO PUSH2 0x430 JUMPI PUSH1 0x40 MLOAD PUSH32 0x8C379A000000000000000000000000000000000000000000000000000000000 DUP2 MSTORE PUSH1 0x4 ADD PUSH2 0x427 SWAP1 PUSH2 0x10B1 JUMP JUMPDEST PUSH1 0x40 MLOAD DUP1 SWAP2 SUB SWAP1 REVERT JUMPDEST PUSH1 0x0 JUMPDEST DUP6 DUP6 SWAP1 POP DUP2 LT ISZERO PUSH2 0x4F0 JUMPI PUSH2 0x4B0 DUP7 DUP7 DUP4 DUP2 DUP2 LT PUSH2 0x454 JUMPI PUSH2 0x453 PUSH2 0xF99 JUMP JUMPDEST JUMPDEST SWAP1 POP PUSH1 0x20 MUL ADD PUSH1 0x20 DUP2 ADD SWAP1 PUSH2 0x469 SWAP2 SWAP1 PUSH2 0xC23 JUMP JUMPDEST DUP6 DUP6 DUP5 DUP2 DUP2 LT PUSH2 0x47C JUMPI PUSH2 0x47B PUSH2 0xF99 JUMP JUMPDEST JUMPDEST SWAP1 POP PUSH1 0x20 MUL ADD CALLDATALOAD PUSH2 0x48B PUSH2 0x831 JUMP JUMPDEST PUSH20 0xFFFFFFFFFFFFFFFFFFFFFFFFFFFFFFFFFFFFFFFF AND PUSH2 0x8B8 SWAP1 SWAP3 SWAP2 SWAP1 PUSH4 0xFFFFFFFF AND JUMP JUMPDEST DUP4 DUP4 DUP3 DUP2 DUP2 LT PUSH2 0x4C3 JUMPI PUSH2 0x4C2 PUSH2 0xF99 JUMP JUMPDEST JUMPDEST SWAP1 POP PUSH1 0x20 MUL ADD CALLDATALOAD PUSH1 0x2 SLOAD PUSH2 0x4D7 SWAP2 SWAP1 PUSH2 0x10D1 JUMP JUMPDEST PUSH1 0x2 DUP2 SWAP1 SSTORE POP DUP1 DUP1 PUSH2 0x4E8 SWAP1 PUSH2 0xFF7 JUMP JUMPDEST SWAP2 POP POP PUSH2 0x433 JUMP JUMPDEST POP POP POP POP POP POP JUMP JUMPDEST DUP1 PUSH1 0x4 PUSH1 0x0 PUSH2 0x100 EXP DUP2 SLOAD DUP2 PUSH20 0xFFFFFFFFFFFFFFFFFFFFFFFFFFFFFFFFFFFFFFFF MUL NOT AND SWAP1 DUP4 PUSH20 0xFFFFFFFFFFFFFFFFFFFFFFFFFFFFFFFFFFFFFFFF AND MUL OR SWAP1 SSTORE POP POP JUMP JUMPDEST PUSH1 0x3 PUSH1 0x0 SWAP1 SLOAD SWAP1 PUSH2 0x100 EXP SWAP1 DIV PUSH20 0xFFFFFFFFFFFFFFFFFFFFFFFFFFFFFFFFFFFFFFFF AND PUSH20 0xFFFFFFFFFFFFFFFFFFFFFFFFFFFFFFFFFFFFFFFF AND CALLER PUSH20 0xFFFFFFFFFFFFFFFFFFFFFFFFFFFFFFFFFFFFFFFF AND EQ PUSH2 0x596 JUMPI PUSH1 0x0 DUP1 REVERT JUMPDEST PUSH1 0x0 PUSH2 0x5A0 PUSH2 0x697 JUMP JUMPDEST SWAP1 POP PUSH1 0x0 DUP2 GT PUSH2 0x5E5 JUMPI PUSH1 0x40 MLOAD PUSH32 0x8C379A000000000000000000000000000000000000000000000000000000000 DUP2 MSTORE PUSH1 0x4 ADD PUSH2 0x5DC SWAP1 PUSH2 0x1151 JUMP JUMPDEST PUSH1 0x40 MLOAD DUP1 SWAP2 SUB SWAP1 REVERT JUMPDEST PUSH1 0x0 PUSH20 0xFFFFFFFFFFFFFFFFFFFFFFFFFFFFFFFFFFFFFFFF AND PUSH2 0x605 PUSH2 0x807 JUMP JUMPDEST PUSH20 0xFFFFFFFFFFFFFFFFFFFFFFFFFFFFFFFFFFFFFFFF AND SUB PUSH2 0x65B JUMPI PUSH1 0x40 MLOAD PUSH32 0x8C379A000000000000000000000000000000000000000000000000000000000 DUP2 MSTORE PUSH1 0x4 ADD PUSH2 0x652 SWAP1 PUSH2 0x11BD JUMP JUMPDEST PUSH1 0x40 MLOAD DUP1 SWAP2 SUB SWAP1 REVERT JUMPDEST PUSH2 0x694 PUSH2 0x666 PUSH2 0x807 JUMP JUMPDEST DUP3 PUSH2 0x66F PUSH2 0x831 JUMP JUMPDEST PUSH20 0xFFFFFFFFFFFFFFFFFFFFFFFFFFFFFFFFFFFFFFFF AND PUSH2 0x8B8 SWAP1 SWAP3 SWAP2 SWAP1 PUSH4 0xFFFFFFFF AND JUMP JUMPDEST POP JUMP JUMPDEST PUSH1 0x0 DUP1 PUSH20 0xFFFFFFFFFFFFFFFFFFFFFFFFFFFFFFFFFFFFFFFF AND PUSH2 0x6B8 PUSH2 0x831 JUMP JUMPDEST PUSH20 0xFFFFFFFFFFFFFFFFFFFFFFFFFFFFFFFFFFFFFFFF AND SUB PUSH2 0x6DC JUMPI PUSH1 0x0 SWAP1 POP PUSH2 0x766 JUMP JUMPDEST PUSH1 0x0 PUSH2 0x6E6 PUSH2 0x831 JUMP JUMPDEST PUSH20 0xFFFFFFFFFFFFFFFFFFFFFFFFFFFFFFFFFFFFFFFF AND PUSH4 0x70A08231 ADDRESS PUSH1 0x40 MLOAD DUP3 PUSH4 0xFFFFFFFF AND PUSH1 0xE0 SHL DUP2 MSTORE PUSH1 0x4 ADD PUSH2 0x71E SWAP2 SWAP1 PUSH2 0xDCF JUMP JUMPDEST PUSH1 0x20 PUSH1 0x40 MLOAD DUP1 DUP4 SUB DUP2 DUP7 GAS STATICCALL ISZERO DUP1 ISZERO PUSH2 0x73B JUMPI RETURNDATASIZE PUSH1 0x0 DUP1 RETURNDATACOPY RETURNDATASIZE PUSH1 0x0 REVERT JUMPDEST POP POP POP POP PUSH1 0x40 MLOAD RETURNDATASIZE PUSH1 0x1F NOT PUSH1 0x1F DUP3 ADD AND DUP3 ADD DUP1 PUSH1 0x40 MSTORE POP DUP2 ADD SWAP1 PUSH2 0x75F SWAP2 SWAP1 PUSH2 0x1209 JUMP JUMPDEST SWAP1 POP DUP1 SWAP2 POP POP JUMPDEST SWAP1 JUMP JUMPDEST PUSH1 0x3 PUSH1 0x0 SWAP1 SLOAD SWAP1 PUSH2 0x100 EXP SWAP1 DIV PUSH20 0xFFFFFFFFFFFFFFFFFFFFFFFFFFFFFFFFFFFFFFFF AND PUSH20 0xFFFFFFFFFFFFFFFFFFFFFFFFFFFFFFFFFFFFFFFF AND CALLER PUSH20 0xFFFFFFFFFFFFFFFFFFFFFFFFFFFFFFFFFFFFFFFF AND EQ PUSH2 0x7C3 JUMPI PUSH1 0x0 DUP1 REVERT JUMPDEST DUP1 PUSH1 0x3 PUSH1 0x0 PUSH2 0x100 EXP DUP2 SLOAD DUP2 PUSH20 0xFFFFFFFFFFFFFFFFFFFFFFFFFFFFFFFFFFFFFFFF MUL NOT AND SWAP1 DUP4 PUSH20 0xFFFFFFFFFFFFFFFFFFFFFFFFFFFFFFFFFFFFFFFF AND MUL OR SWAP1 SSTORE POP POP JUMP JUMPDEST PUSH1 0x0 PUSH1 0x4 PUSH1 0x0 SWAP1 SLOAD SWAP1 PUSH2 0x100 EXP SWAP1 DIV PUSH20 0xFFFFFFFFFFFFFFFFFFFFFFFFFFFFFFFFFFFFFFFF AND SWAP1 POP SWAP1 JUMP JUMPDEST PUSH1 0x0 DUP1 PUSH1 0x0 SWAP1 SLOAD SWAP1 PUSH2 0x100 EXP SWAP1 DIV PUSH20 0xFFFFFFFFFFFFFFFFFFFFFFFFFFFFFFFFFFFFFFFF AND SWAP1 POP SWAP1 JUMP JUMPDEST PUSH1 0x0 DUP1 DUP3 DUP5 PUSH2 0x869 SWAP2 SWAP1 PUSH2 0x10D1 JUMP JUMPDEST SWAP1 POP DUP4 DUP2 LT ISZERO PUSH2 0x8AE JUMPI PUSH1 0x40 MLOAD PUSH32 0x8C379A000000000000000000000000000000000000000000000000000000000 DUP2 MSTORE PUSH1 0x4 ADD PUSH2 0x8A5 SWAP1 PUSH2 0x1282 JUMP JUMPDEST PUSH1 0x40 MLOAD DUP1 SWAP2 SUB SWAP1 REVERT JUMPDEST DUP1 SWAP2 POP POP SWAP3 SWAP2 POP POP JUMP JUMPDEST PUSH2 0x939 DUP4 PUSH4 0xA9059CBB PUSH1 0xE0 SHL DUP5 DUP5 PUSH1 0x40 MLOAD PUSH1 0x24 ADD PUSH2 0x8D7 SWAP3 SWAP2 SWAP1 PUSH2 0x12A2 JUMP JUMPDEST PUSH1 0x40 MLOAD PUSH1 0x20 DUP2 DUP4 SUB SUB DUP2 MSTORE SWAP1 PUSH1 0x40 MSTORE SWAP1 PUSH28 0xFFFFFFFFFFFFFFFFFFFFFFFFFFFFFFFFFFFFFFFFFFFFFFFFFFFFFFFF NOT AND PUSH1 0x20 DUP3 ADD DUP1 MLOAD PUSH28 0xFFFFFFFFFFFFFFFFFFFFFFFFFFFFFFFFFFFFFFFFFFFFFFFFFFFFFFFF DUP4 DUP2 DUP4 AND OR DUP4 MSTORE POP POP POP POP PUSH2 0x93E JUMP JUMPDEST POP POP POP JUMP JUMPDEST PUSH1 0x0 PUSH2 0x9A0 DUP3 PUSH1 0x40 MLOAD DUP1 PUSH1 0x40 ADD PUSH1 0x40 MSTORE DUP1 PUSH1 0x20 DUP2 MSTORE PUSH1 0x20 ADD PUSH32 0x5361666545524332303A206C6F772D6C6576656C2063616C6C206661696C6564 DUP2 MSTORE POP DUP6 PUSH20 0xFFFFFFFFFFFFFFFFFFFFFFFFFFFFFFFFFFFFFFFF AND PUSH2 0xA05 SWAP1 SWAP3 SWAP2 SWAP1 PUSH4 0xFFFFFFFF AND JUMP JUMPDEST SWAP1 POP PUSH1 0x0 DUP2 MLOAD GT ISZERO PUSH2 0xA00 JUMPI DUP1 DUP1 PUSH1 0x20 ADD SWAP1 MLOAD DUP2 ADD SWAP1 PUSH2 0x9C0 SWAP2 SWAP1 PUSH2 0x1303 JUMP JUMPDEST PUSH2 0x9FF JUMPI PUSH1 0x40 MLOAD PUSH32 0x8C379A000000000000000000000000000000000000000000000000000000000 DUP2 MSTORE PUSH1 0x4 ADD PUSH2 0x9F6 SWAP1 PUSH2 0x13A2 JUMP JUMPDEST PUSH1 0x40 MLOAD DUP1 SWAP2 SUB SWAP1 REVERT JUMPDEST JUMPDEST POP POP POP JUMP JUMPDEST PUSH1 0x60 PUSH2 0xA14 DUP5 DUP5 PUSH1 0x0 DUP6 PUSH2 0xA1D JUMP JUMPDEST SWAP1 POP SWAP4 SWAP3 POP POP POP JUMP JUMPDEST PUSH1 0x60 DUP3 SELFBALANCE LT ISZERO PUSH2 0xA62 JUMPI PUSH1 0x40 MLOAD PUSH32 0x8C379A000000000000000000000000000000000000000000000000000000000 DUP2 MSTORE PUSH1 0x4 ADD PUSH2 0xA59 SWAP1 PUSH2 0x1434 JUMP JUMPDEST PUSH1 0x40 MLOAD DUP1 SWAP2 SUB SWAP1 REVERT JUMPDEST PUSH2 0xA6B DUP6 PUSH2 0xB31 JUMP JUMPDEST PUSH2 0xAAA JUMPI PUSH1 0x40 MLOAD PUSH32 0x8C379A000000000000000000000000000000000000000000000000000000000 DUP2 MSTORE PUSH1 0x4 ADD PUSH2 0xAA1 SWAP1 PUSH2 0x14A0 JUMP JUMPDEST PUSH1 0x40 MLOAD DUP1 SWAP2 SUB SWAP1 REVERT JUMPDEST PUSH1 0x0 DUP1 DUP7 PUSH20 0xFFFFFFFFFFFFFFFFFFFFFFFFFFFFFFFFFFFFFFFF AND DUP6 DUP8 PUSH1 0x40 MLOAD PUSH2 0xAD3 SWAP2 SWAP1 PUSH2 0x1531 JUMP JUMPDEST PUSH1 0x0 PUSH1 0x40 MLOAD DUP1 DUP4 SUB DUP2 DUP6 DUP8 GAS CALL SWAP3 POP POP POP RETURNDATASIZE DUP1 PUSH1 0x0 DUP2 EQ PUSH2 0xB10 JUMPI PUSH1 0x40 MLOAD SWAP2 POP PUSH1 0x1F NOT PUSH1 0x3F RETURNDATASIZE ADD AND DUP3 ADD PUSH1 0x40 MSTORE RETURNDATASIZE DUP3 MSTORE RETURNDATASIZE PUSH1 0x0 PUSH1 0x20 DUP5 ADD RETURNDATACOPY PUSH2 0xB15 JUMP JUMPDEST PUSH1 0x60 SWAP2 POP JUMPDEST POP SWAP2 POP SWAP2 POP PUSH2 0xB25 DUP3 DUP3 DUP7 PUSH2 0xB54 JUMP JUMPDEST SWAP3 POP POP POP SWAP5 SWAP4 POP POP POP POP JUMP JUMPDEST PUSH1 0x0 DUP1 DUP3 PUSH20 0xFFFFFFFFFFFFFFFFFFFFFFFFFFFFFFFFFFFFFFFF AND EXTCODESIZE GT SWAP1 POP SWAP2 SWAP1 POP JUMP JUMPDEST PUSH1 0x60 DUP4 ISZERO PUSH2 0xB64 JUMPI DUP3 SWAP1 POP PUSH2 0xBB4 JUMP JUMPDEST PUSH1 0x0 DUP4 MLOAD GT ISZERO PUSH2 0xB77 JUMPI DUP3 MLOAD DUP1 DUP5 PUSH1 0x20 ADD REVERT JUMPDEST DUP2 PUSH1 0x40 MLOAD PUSH32 0x8C379A000000000000000000000000000000000000000000000000000000000 DUP2 MSTORE PUSH1 0x4 ADD PUSH2 0xBAB SWAP2 SWAP1 PUSH2 0x159D JUMP JUMPDEST PUSH1 0x40 MLOAD DUP1 SWAP2 SUB SWAP1 REVERT JUMPDEST SWAP4 SWAP3 POP POP POP JUMP JUMPDEST PUSH1 0x0 DUP1 REVERT JUMPDEST PUSH1 0x0 DUP1 REVERT JUMPDEST PUSH1 0x0 PUSH20 0xFFFFFFFFFFFFFFFFFFFFFFFFFFFFFFFFFFFFFFFF DUP3 AND SWAP1 POP SWAP2 SWAP1 POP JUMP JUMPDEST PUSH1 0x0 PUSH2 0xBF0 DUP3 PUSH2 0xBC5 JUMP JUMPDEST SWAP1 POP SWAP2 SWAP1 POP JUMP JUMPDEST PUSH2 0xC00 DUP2 PUSH2 0xBE5 JUMP JUMPDEST DUP2 EQ PUSH2 0xC0B JUMPI PUSH1 0x0 DUP1 REVERT JUMPDEST POP JUMP JUMPDEST PUSH1 0x0 DUP2 CALLDATALOAD SWAP1 POP PUSH2 0xC1D DUP2 PUSH2 0xBF7 JUMP JUMPDEST SWAP3 SWAP2 POP POP JUMP JUMPDEST PUSH1 0x0 PUSH1 0x20 DUP3 DUP5 SUB SLT ISZERO PUSH2 0xC39 JUMPI PUSH2 0xC38 PUSH2 0xBBB JUMP JUMPDEST JUMPDEST PUSH1 0x0 PUSH2 0xC47 DUP5 DUP3 DUP6 ADD PUSH2 0xC0E JUMP JUMPDEST SWAP2 POP POP SWAP3 SWAP2 POP POP JUMP JUMPDEST PUSH1 0x0 DUP2 SWAP1 POP SWAP2 SWAP1 POP JUMP JUMPDEST PUSH2 0xC63 DUP2 PUSH2 0xC50 JUMP JUMPDEST DUP3 MSTORE POP POP JUMP JUMPDEST PUSH1 0x0 PUSH1 0x20 DUP3 ADD SWAP1 POP PUSH2 0xC7E PUSH1 0x0 DUP4 ADD DUP5 PUSH2 0xC5A JUMP JUMPDEST SWAP3 SWAP2 POP POP JUMP JUMPDEST PUSH1 0x0 DUP1 REVERT JUMPDEST PUSH1 0x0 DUP1 REVERT JUMPDEST PUSH1 0x0 DUP1 REVERT JUMPDEST PUSH1 0x0 DUP1 DUP4 PUSH1 0x1F DUP5 ADD SLT PUSH2 0xCA9 JUMPI PUSH2 0xCA8 PUSH2 0xC84 JUMP JUMPDEST JUMPDEST DUP3 CALLDATALOAD SWAP1 POP PUSH8 0xFFFFFFFFFFFFFFFF DUP2 GT ISZERO PUSH2 0xCC6 JUMPI PUSH2 0xCC5 PUSH2 0xC89 JUMP JUMPDEST JUMPDEST PUSH1 0x20 DUP4 ADD SWAP2 POP DUP4 PUSH1 0x20 DUP3 MUL DUP4 ADD GT ISZERO PUSH2 0xCE2 JUMPI PUSH2 0xCE1 PUSH2 0xC8E JUMP JUMPDEST JUMPDEST SWAP3 POP SWAP3 SWAP1 POP JUMP JUMPDEST PUSH1 0x0 DUP1 DUP4 PUSH1 0x1F DUP5 ADD SLT PUSH2 0xCFF JUMPI PUSH2 0xCFE PUSH2 0xC84 JUMP JUMPDEST JUMPDEST DUP3 CALLDATALOAD SWAP1 POP PUSH8 0xFFFFFFFFFFFFFFFF DUP2 GT ISZERO PUSH2 0xD1C JUMPI PUSH2 0xD1B PUSH2 0xC89 JUMP JUMPDEST JUMPDEST PUSH1 0x20 DUP4 ADD SWAP2 POP DUP4 PUSH1 0x20 DUP3 MUL DUP4 ADD GT ISZERO PUSH2 0xD38 JUMPI PUSH2 0xD37 PUSH2 0xC8E JUMP JUMPDEST JUMPDEST SWAP3 POP SWAP3 SWAP1 POP JUMP JUMPDEST PUSH1 0x0 DUP1 PUSH1 0x0 DUP1 PUSH1 0x40 DUP6 DUP8 SUB SLT ISZERO PUSH2 0xD59 JUMPI PUSH2 0xD58 PUSH2 0xBBB JUMP JUMPDEST JUMPDEST PUSH1 0x0 DUP6 ADD CALLDATALOAD PUSH8 0xFFFFFFFFFFFFFFFF DUP2 GT ISZERO PUSH2 0xD77 JUMPI PUSH2 0xD76 PUSH2 0xBC0 JUMP JUMPDEST JUMPDEST PUSH2 0xD83 DUP8 DUP3 DUP9 ADD PUSH2 0xC93 JUMP JUMPDEST SWAP5 POP SWAP5 POP POP PUSH1 0x20 DUP6 ADD CALLDATALOAD PUSH8 0xFFFFFFFFFFFFFFFF DUP2 GT ISZERO PUSH2 0xDA6 JUMPI PUSH2 0xDA5 PUSH2 0xBC0 JUMP JUMPDEST JUMPDEST PUSH2 0xDB2 DUP8 DUP3 DUP9 ADD PUSH2 0xCE9 JUMP JUMPDEST SWAP3 POP SWAP3 POP POP SWAP3 SWAP6 SWAP2 SWAP5 POP SWAP3 POP JUMP JUMPDEST PUSH2 0xDC9 DUP2 PUSH2 0xBE5 JUMP JUMPDEST DUP3 MSTORE POP POP JUMP JUMPDEST PUSH1 0x0 PUSH1 0x20 DUP3 ADD SWAP1 POP PUSH2 0xDE4 PUSH1 0x0 DUP4 ADD DUP5 PUSH2 0xDC0 JUMP JUMPDEST SWAP3 SWAP2 POP POP JUMP JUMPDEST PUSH1 0x0 DUP2 SWAP1 POP SWAP2 SWAP1 POP JUMP JUMPDEST PUSH1 0x0 PUSH2 0xE0F PUSH2 0xE0A PUSH2 0xE05 DUP5 PUSH2 0xBC5 JUMP JUMPDEST PUSH2 0xDEA JUMP JUMPDEST PUSH2 0xBC5 JUMP JUMPDEST SWAP1 POP SWAP2 SWAP1 POP JUMP JUMPDEST PUSH1 0x0 PUSH2 0xE21 DUP3 PUSH2 0xDF4 JUMP JUMPDEST SWAP1 POP SWAP2 SWAP1 POP JUMP JUMPDEST PUSH1 0x0 PUSH2 0xE33 DUP3 PUSH2 0xE16 JUMP JUMPDEST SWAP1 POP SWAP2 SWAP1 POP JUMP JUMPDEST PUSH2 0xE43 DUP2 PUSH2 0xE28 JUMP JUMPDEST DUP3 MSTORE POP POP JUMP JUMPDEST PUSH1 0x0 PUSH1 0x20 DUP3 ADD SWAP1 POP PUSH2 0xE5E PUSH1 0x0 DUP4 ADD DUP5 PUSH2 0xE3A JUMP JUMPDEST SWAP3 SWAP2 POP POP JUMP JUMPDEST PUSH1 0x0 DUP3 DUP3 MSTORE PUSH1 0x20 DUP3 ADD SWAP1 POP SWAP3 SWAP2 POP POP JUMP JUMPDEST PUSH32 0x52656C656173653A206E6565642073657420546F6B656E204164647265737300 PUSH1 0x0 DUP3 ADD MSTORE POP JUMP JUMPDEST PUSH1 0x0 PUSH2 0xEAB PUSH1 0x1F DUP4 PUSH2 0xE64 JUMP JUMPDEST SWAP2 POP PUSH2 0xEB6 DUP3 PUSH2 0xE75 JUMP JUMPDEST PUSH1 0x20 DUP3 ADD SWAP1 POP SWAP2 SWAP1 POP JUMP JUMPDEST PUSH1 0x0 PUSH1 0x20 DUP3 ADD SWAP1 POP DUP2 DUP2 SUB PUSH1 0x0 DUP4 ADD MSTORE PUSH2 0xEDA DUP2 PUSH2 0xE9E JUMP JUMPDEST SWAP1 POP SWAP2 SWAP1 POP JUMP JUMPDEST PUSH32 0x506C6561736520636865636B2074686520646174612C20746865206E65777320 PUSH1 0x0 DUP3 ADD MSTORE PUSH32 0x494420616E6420646973747269627574696F6E207175616E7469747920617265 PUSH1 0x20 DUP3 ADD MSTORE PUSH32 0x20696E636F6E73697374656E7400000000000000000000000000000000000000 PUSH1 0x40 DUP3 ADD MSTORE POP JUMP JUMPDEST PUSH1 0x0 PUSH2 0xF63 PUSH1 0x4D DUP4 PUSH2 0xE64 JUMP JUMPDEST SWAP2 POP PUSH2 0xF6E DUP3 PUSH2 0xEE1 JUMP JUMPDEST PUSH1 0x60 DUP3 ADD SWAP1 POP SWAP2 SWAP1 POP JUMP JUMPDEST PUSH1 0x0 PUSH1 0x20 DUP3 ADD SWAP1 POP DUP2 DUP2 SUB PUSH1 0x0 DUP4 ADD MSTORE PUSH2 0xF92 DUP2 PUSH2 0xF56 JUMP JUMPDEST SWAP1 POP SWAP2 SWAP1 POP JUMP JUMPDEST PUSH32 0x4E487B7100000000000000000000000000000000000000000000000000000000 PUSH1 0x0 MSTORE PUSH1 0x32 PUSH1 0x4 MSTORE PUSH1 0x24 PUSH1 0x0 REVERT JUMPDEST PUSH32 0x4E487B7100000000000000000000000000000000000000000000000000000000 PUSH1 0x0 MSTORE PUSH1 0x11 PUSH1 0x4 MSTORE PUSH1 0x24 PUSH1 0x0 REVERT JUMPDEST PUSH1 0x0 PUSH2 0x1002 DUP3 PUSH2 0xC50 JUMP JUMPDEST SWAP2 POP PUSH32 0xFFFFFFFFFFFFFFFFFFFFFFFFFFFFFFFFFFFFFFFFFFFFFFFFFFFFFFFFFFFFFFFF DUP3 SUB PUSH2 0x1034 JUMPI PUSH2 0x1033 PUSH2 0xFC8 JUMP JUMPDEST JUMPDEST PUSH1 0x1 DUP3 ADD SWAP1 POP SWAP2 SWAP1 POP JUMP JUMPDEST PUSH32 0x546865206E756D626572206F66206169722064726F7073206578636565647320 PUSH1 0x0 DUP3 ADD MSTORE PUSH32 0x746865206461696C792072656C6561736520616D6F756E740000000000000000 PUSH1 0x20 DUP3 ADD MSTORE POP JUMP JUMPDEST PUSH1 0x0 PUSH2 0x109B PUSH1 0x38 DUP4 PUSH2 0xE64 JUMP JUMPDEST SWAP2 POP PUSH2 0x10A6 DUP3 PUSH2 0x103F JUMP JUMPDEST PUSH1 0x40 DUP3 ADD SWAP1 POP SWAP2 SWAP1 POP JUMP JUMPDEST PUSH1 0x0 PUSH1 0x20 DUP3 ADD SWAP1 POP DUP2 DUP2 SUB PUSH1 0x0 DUP4 ADD MSTORE PUSH2 0x10CA DUP2 PUSH2 0x108E JUMP JUMPDEST SWAP1 POP SWAP2 SWAP1 POP JUMP JUMPDEST PUSH1 0x0 PUSH2 0x10DC DUP3 PUSH2 0xC50 JUMP JUMPDEST SWAP2 POP PUSH2 0x10E7 DUP4 PUSH2 0xC50 JUMP JUMPDEST SWAP3 POP DUP3 DUP3 ADD SWAP1 POP DUP1 DUP3 GT ISZERO PUSH2 0x10FF JUMPI PUSH2 0x10FE PUSH2 0xFC8 JUMP JUMPDEST JUMPDEST SWAP3 SWAP2 POP POP JUMP JUMPDEST PUSH32 0x4E6F207175616E7469747920746F2073656E6400000000000000000000000000 PUSH1 0x0 DUP3 ADD MSTORE POP JUMP JUMPDEST PUSH1 0x0 PUSH2 0x113B PUSH1 0x13 DUP4 PUSH2 0xE64 JUMP JUMPDEST SWAP2 POP PUSH2 0x1146 DUP3 PUSH2 0x1105 JUMP JUMPDEST PUSH1 0x20 DUP3 ADD SWAP1 POP SWAP2 SWAP1 POP JUMP JUMPDEST PUSH1 0x0 PUSH1 0x20 DUP3 ADD SWAP1 POP DUP2 DUP2 SUB PUSH1 0x0 DUP4 ADD MSTORE PUSH2 0x116A DUP2 PUSH2 0x112E JUMP JUMPDEST SWAP1 POP SWAP2 SWAP1 POP JUMP JUMPDEST PUSH32 0x52656C656173653A206E65656420736574205265776172642041646472657373 PUSH1 0x0 DUP3 ADD MSTORE POP JUMP JUMPDEST PUSH1 0x0 PUSH2 0x11A7 PUSH1 0x20 DUP4 PUSH2 0xE64 JUMP JUMPDEST SWAP2 POP PUSH2 0x11B2 DUP3 PUSH2 0x1171 JUMP JUMPDEST PUSH1 0x20 DUP3 ADD SWAP1 POP SWAP2 SWAP1 POP JUMP JUMPDEST PUSH1 0x0 PUSH1 0x20 DUP3 ADD SWAP1 POP DUP2 DUP2 SUB PUSH1 0x0 DUP4 ADD MSTORE PUSH2 0x11D6 DUP2 PUSH2 0x119A JUMP JUMPDEST SWAP1 POP SWAP2 SWAP1 POP JUMP JUMPDEST PUSH2 0x11E6 DUP2 PUSH2 0xC50 JUMP JUMPDEST DUP2 EQ PUSH2 0x11F1 JUMPI PUSH1 0x0 DUP1 REVERT JUMPDEST POP JUMP JUMPDEST PUSH1 0x0 DUP2 MLOAD SWAP1 POP PUSH2 0x1203 DUP2 PUSH2 0x11DD JUMP JUMPDEST SWAP3 SWAP2 POP POP JUMP JUMPDEST PUSH1 0x0 PUSH1 0x20 DUP3 DUP5 SUB SLT ISZERO PUSH2 0x121F JUMPI PUSH2 0x121E PUSH2 0xBBB JUMP JUMPDEST JUMPDEST PUSH1 0x0 PUSH2 0x122D DUP5 DUP3 DUP6 ADD PUSH2 0x11F4 JUMP JUMPDEST SWAP2 POP POP SWAP3 SWAP2 POP POP JUMP JUMPDEST PUSH32 0x536166654D6174683A206164646974696F6E206F766572666C6F770000000000 PUSH1 0x0 DUP3 ADD MSTORE POP JUMP JUMPDEST PUSH1 0x0 PUSH2 0x126C PUSH1 0x1B DUP4 PUSH2 0xE64 JUMP JUMPDEST SWAP2 POP PUSH2 0x1277 DUP3 PUSH2 0x1236 JUMP JUMPDEST PUSH1 0x20 DUP3 ADD SWAP1 POP SWAP2 SWAP1 POP JUMP JUMPDEST PUSH1 0x0 PUSH1 0x20 DUP3 ADD SWAP1 POP DUP2 DUP2 SUB PUSH1 0x0 DUP4 ADD MSTORE PUSH2 0x129B DUP2 PUSH2 0x125F JUMP JUMPDEST SWAP1 POP SWAP2 SWAP1 POP JUMP JUMPDEST PUSH1 0x0 PUSH1 0x40 DUP3 ADD SWAP1 POP PUSH2 0x12B7 PUSH1 0x0 DUP4 ADD DUP6 PUSH2 0xDC0 JUMP JUMPDEST PUSH2 0x12C4 PUSH1 0x20 DUP4 ADD DUP5 PUSH2 0xC5A JUMP JUMPDEST SWAP4 SWAP3 POP POP POP JUMP JUMPDEST PUSH1 0x0 DUP2 ISZERO ISZERO SWAP1 POP SWAP2 SWAP1 POP JUMP JUMPDEST PUSH2 0x12E0 DUP2 PUSH2 0x12CB JUMP JUMPDEST DUP2 EQ PUSH2 0x12EB JUMPI PUSH1 0x0 DUP1 REVERT JUMPDEST POP JUMP JUMPDEST PUSH1 0x0 DUP2 MLOAD SWAP1 POP PUSH2 0x12FD DUP2 PUSH2 0x12D7 JUMP JUMPDEST SWAP3 SWAP2 POP POP JUMP JUMPDEST PUSH1 0x0 PUSH1 0x20 DUP3 DUP5 SUB SLT ISZERO PUSH2 0x1319 JUMPI PUSH2 0x1318 PUSH2 0xBBB JUMP JUMPDEST JUMPDEST PUSH1 0x0 PUSH2 0x1327 DUP5 DUP3 DUP6 ADD PUSH2 0x12EE JUMP JUMPDEST SWAP2 POP POP SWAP3 SWAP2 POP POP JUMP JUMPDEST PUSH32 0x5361666545524332303A204552433230206F7065726174696F6E20646964206E PUSH1 0x0 DUP3 ADD MSTORE PUSH32 0x6F74207375636365656400000000000000000000000000000000000000000000 PUSH1 0x20 DUP3 ADD MSTORE POP JUMP JUMPDEST PUSH1 0x0 PUSH2 0x138C PUSH1 0x2A DUP4 PUSH2 0xE64 JUMP JUMPDEST SWAP2 POP PUSH2 0x1397 DUP3 PUSH2 0x1330 JUMP JUMPDEST PUSH1 0x40 DUP3 ADD SWAP1 POP SWAP2 SWAP1 POP JUMP JUMPDEST PUSH1 0x0 PUSH1 0x20 DUP3 ADD SWAP1 POP DUP2 DUP2 SUB PUSH1 0x0 DUP4 ADD MSTORE PUSH2 0x13BB DUP2 PUSH2 0x137F JUMP JUMPDEST SWAP1 POP SWAP2 SWAP1 POP JUMP JUMPDEST PUSH32 0x416464726573733A20696E73756666696369656E742062616C616E636520666F PUSH1 0x0 DUP3 ADD MSTORE PUSH32 0x722063616C6C0000000000000000000000000000000000000000000000000000 PUSH1 0x20 DUP3 ADD MSTORE POP JUMP JUMPDEST PUSH1 0x0 PUSH2 0x141E PUSH1 0x26 DUP4 PUSH2 0xE64 JUMP JUMPDEST SWAP2 POP PUSH2 0x1429 DUP3 PUSH2 0x13C2 JUMP JUMPDEST PUSH1 0x40 DUP3 ADD SWAP1 POP SWAP2 SWAP1 POP JUMP JUMPDEST PUSH1 0x0 PUSH1 0x20 DUP3 ADD SWAP1 POP DUP2 DUP2 SUB PUSH1 0x0 DUP4 ADD MSTORE PUSH2 0x144D DUP2 PUSH2 0x1411 JUMP JUMPDEST SWAP1 POP SWAP2 SWAP1 POP JUMP JUMPDEST PUSH32 0x416464726573733A2063616C6C20746F206E6F6E2D636F6E7472616374000000 PUSH1 0x0 DUP3 ADD MSTORE POP JUMP JUMPDEST PUSH1 0x0 PUSH2 0x148A PUSH1 0x1D DUP4 PUSH2 0xE64 JUMP JUMPDEST SWAP2 POP PUSH2 0x1495 DUP3 PUSH2 0x1454 JUMP JUMPDEST PUSH1 0x20 DUP3 ADD SWAP1 POP SWAP2 SWAP1 POP JUMP JUMPDEST PUSH1 0x0 PUSH1 0x20 DUP3 ADD SWAP1 POP DUP2 DUP2 SUB PUSH1 0x0 DUP4 ADD MSTORE PUSH2 0x14B9 DUP2 PUSH2 0x147D JUMP JUMPDEST SWAP1 POP SWAP2 SWAP1 POP JUMP JUMPDEST PUSH1 0x0 DUP2 MLOAD SWAP1 POP SWAP2 SWAP1 POP JUMP JUMPDEST PUSH1 0x0 DUP2 SWAP1 POP SWAP3 SWAP2 POP POP JUMP JUMPDEST PUSH1 0x0 JUMPDEST DUP4 DUP2 LT ISZERO PUSH2 0x14F4 JUMPI DUP1 DUP3 ADD MLOAD DUP2 DUP5 ADD MSTORE PUSH1 0x20 DUP2 ADD SWAP1 POP PUSH2 0x14D9 JUMP JUMPDEST PUSH1 0x0 DUP5 DUP5 ADD MSTORE POP POP POP POP JUMP JUMPDEST PUSH1 0x0 PUSH2 0x150B DUP3 PUSH2 0x14C0 JUMP JUMPDEST PUSH2 0x1515 DUP2 DUP6 PUSH2 0x14CB JUMP JUMPDEST SWAP4 POP PUSH2 0x1525 DUP2 DUP6 PUSH1 0x20 DUP7 ADD PUSH2 0x14D6 JUMP JUMPDEST DUP1 DUP5 ADD SWAP2 POP POP SWAP3 SWAP2 POP POP JUMP JUMPDEST PUSH1 0x0 PUSH2 0x153D DUP3 DUP5 PUSH2 0x1500 JUMP JUMPDEST SWAP2 POP DUP2 SWAP1 POP SWAP3 SWAP2 POP POP JUMP JUMPDEST PUSH1 0x0 DUP2 MLOAD SWAP1 POP SWAP2 SWAP1 POP JUMP JUMPDEST PUSH1 0x0 PUSH1 0x1F NOT PUSH1 0x1F DUP4 ADD AND SWAP1 POP SWAP2 SWAP1 POP JUMP JUMPDEST PUSH1 0x0 PUSH2 0x156F DUP3 PUSH2 0x1548 JUMP JUMPDEST PUSH2 0x1579 DUP2 DUP6 PUSH2 0xE64 JUMP JUMPDEST SWAP4 POP PUSH2 0x1589 DUP2 DUP6 PUSH1 0x20 DUP7 ADD PUSH2 0x14D6 JUMP JUMPDEST PUSH2 0x1592 DUP2 PUSH2 0x1553 JUMP JUMPDEST DUP5 ADD SWAP2 POP POP SWAP3 SWAP2 POP POP JUMP JUMPDEST PUSH1 0x0 PUSH1 0x20 DUP3 ADD SWAP1 POP DUP2 DUP2 SUB PUSH1 0x0 DUP4 ADD MSTORE PUSH2 0x15B7 DUP2 DUP5 PUSH2 0x1564 JUMP JUMPDEST SWAP1 POP SWAP3 SWAP2 POP POP JUMP INVALID LOG2 PUSH5 0x6970667358 0x22 SLT KECCAK256 0xCD 0xE4 DIV 0xC 0xC1 SIGNEXTEND 0xCF PUSH30 0xBB5B4DCEEDC871106E8763420DC6B180A156AC6FF3D7131B64736F6C6343 STOP ADDMOD SGT STOP CALLER "
				},
				"gasEstimates": {
					"creation": {
						"codeDepositCost": "1124200",
						"executionCost": "47539",
						"totalCost": "1171739"
					},
					"external": {
						"changeOwner(address)": "26936",
						"decimals()": "2460",
						"distributionToSpecify(address[],uint256[])": "infinite",
						"getRewardAddress()": "2588",
						"getTotalReleased()": "2482",
						"release()": "infinite",
						"setRewardAddress(address)": "24811",
						"setTokenAddress(address)": "26893",
						"token()": "infinite",
						"tokenBalance()": "infinite"
					}
				},
				"methodIdentifiers": {
					"changeOwner(address)": "a6f9dae1",
					"decimals()": "313ce567",
					"distributionToSpecify(address[],uint256[])": "5459b8a3",
					"getRewardAddress()": "bf9321fc",
					"getTotalReleased()": "4b14c0ef",
					"release()": "86d1a69f",
					"setRewardAddress(address)": "5e00e679",
					"setTokenAddress(address)": "26a4e8d2",
					"token()": "fc0c546a",
					"tokenBalance()": "9e1a4d19"
				}
			},
			"storageLayout": {
				"storage": [
					{
						"astId": 751,
						"contract": "challeng/my_contract/5.channelRewards.sol:ChannelRewards",
						"label": "_token",
						"offset": 0,
						"slot": "0",
						"type": "t_contract(IERC20)75"
					},
					{
						"astId": 754,
						"contract": "challeng/my_contract/5.channelRewards.sol:ChannelRewards",
						"label": "_decimals",
						"offset": 0,
						"slot": "1",
						"type": "t_uint256"
					},
					{
						"astId": 756,
						"contract": "challeng/my_contract/5.channelRewards.sol:ChannelRewards",
						"label": "_totalReleased",
						"offset": 0,
						"slot": "2",
						"type": "t_uint256"
					},
					{
						"astId": 758,
						"contract": "challeng/my_contract/5.channelRewards.sol:ChannelRewards",
						"label": "_owner",
						"offset": 0,
						"slot": "3",
						"type": "t_address"
					},
					{
						"astId": 760,
						"contract": "challeng/my_contract/5.channelRewards.sol:ChannelRewards",
						"label": "_rewardAddress",
						"offset": 0,
						"slot": "4",
						"type": "t_address"
					}
				],
				"types": {
					"t_address": {
						"encoding": "inplace",
						"label": "address",
						"numberOfBytes": "20"
					},
					"t_contract(IERC20)75": {
						"encoding": "inplace",
						"label": "contract IERC20",
						"numberOfBytes": "20"
					},
					"t_uint256": {
						"encoding": "inplace",
						"label": "uint256",
						"numberOfBytes": "32"
					}
				}
			},
			"userdoc": {
				"kind": "user",
				"methods": {},
				"version": 1
			}
		}
	}
}