{
	"data": {
		"bytecode": {
			"linkReferences": {},
			"object": "608060405234801561001057600080fd5b50336000806101000a81548173ffffffffffffffffffffffffffffffffffffffff021916908373ffffffffffffffffffffffffffffffffffffffff16021790555060008054906101000a900473ffffffffffffffffffffffffffffffffffffffff1673ffffffffffffffffffffffffffffffffffffffff16600073ffffffffffffffffffffffffffffffffffffffff167f342827c97908e5e2f71151c08502a66d44b6f758e3ac2f1de95f02eb95f0a73560405160405180910390a3615429806100db6000396000f3fe608060405234801561001057600080fd5b50600436106101215760003560e01c80637a3c666d116100ad578063b0345a5611610071578063b0345a56146102f0578063b03f15c41461030c578063b9ee201d14610328578063c501921314610344578063d4e932921461036057610121565b80637a3c666d14610260578063893d20e81461027c5780639e1a4d191461029a578063a6f9dae1146102b8578063adb06414146102d457610121565b806320215dc4116100f457806320215dc4146101ac57806328be8e73146101dc57806347ce1f7e146101f85780635ce1ad30146102145780636441f9d01461023057610121565b806310fe9ae8146101265780631395388114610144578063144fa6d7146101605780631d3bc3a61461017c575b600080fd5b61012e61036a565b60405161013b9190613719565b60405180910390f35b61015e600480360381019061015991906138c4565b610394565b005b61017a6004803603810190610175919061394c565b6107c7565b005b61019660048036038101906101919190613979565b61080b565b6040516101a39190613b7e565b60405180910390f35b6101c660048036038101906101c19190613ba0565b6109da565b6040516101d39190613cd6565b60405180910390f35b6101f660048036038101906101f19190613cf8565b610b98565b005b610212600480360381019061020d9190613d93565b61120d565b005b61022e6004803603810190610229919061394c565b6115d8565b005b61024a60048036038101906102459190613979565b6116c1565b6040516102579190613b7e565b60405180910390f35b61027a600480360381019061027591906138c4565b61188a565b005b610284612028565b6040516102919190613719565b60405180910390f35b6102a2612051565b6040516102af9190613dfe565b60405180910390f35b6102d260048036038101906102cd919061394c565b6121eb565b005b6102ee60048036038101906102e9919061394c565b612336565b005b61030a60048036038101906103059190613979565b61241f565b005b61032660048036038101906103219190613979565b612824565b005b610342600480360381019061033d9190613e19565b612b69565b005b61035e60048036038101906103599190613eb0565b612e65565b005b610368612f2b565b005b6000600160009054906101000a900473ffffffffffffffffffffffffffffffffffffffff16905090565b600073ffffffffffffffffffffffffffffffffffffffff16600160009054906101000a900473ffffffffffffffffffffffffffffffffffffffff1673ffffffffffffffffffffffffffffffffffffffff1603610425576040517f08c379a000000000000000000000000000000000000000000000000000000000815260040161041c90613f7c565b60405180910390fd5b60006002836040516104379190613fd8565b90815260200160405180910390206002015414610489576040517f08c379a00000000000000000000000000000000000000000000000000000000081526004016104809061403b565b60405180910390fd5b600073ffffffffffffffffffffffffffffffffffffffff166002836040516104b19190613fd8565b908152602001604051809103902060010160009054906101000a900473ffffffffffffffffffffffffffffffffffffffff1673ffffffffffffffffffffffffffffffffffffffff1614610539576040517f08c379a0000000000000000000000000000000000000000000000000000000008152600401610530906140a7565b60405180910390fd5b600060028360405161054b9190613fd8565b9081526020016040518091039020600801541161059d576040517f08c379a000000000000000000000000000000000000000000000000000000000815260040161059490614139565b60405180910390fd5b60006002836040516105af9190613fd8565b90815260200160405180910390206003015411610601576040517f08c379a00000000000000000000000000000000000000000000000000000000081526004016105f8906141cb565b60405180910390fd5b670de0b6b3a7640000811161064b576040517f08c379a000000000000000000000000000000000000000000000000000000000815260040161064290614237565b60405180910390fd5b61069a333083600160009054906101000a900473ffffffffffffffffffffffffffffffffffffffff1673ffffffffffffffffffffffffffffffffffffffff16612f95909392919063ffffffff16565b816002836040516106ab9190613fd8565b908152602001604051809103902060000190816106c89190614463565b50806002836040516106da9190613fd8565b908152602001604051809103902060020181905550336002836040516107009190613fd8565b908152602001604051809103902060010160006101000a81548173ffffffffffffffffffffffffffffffffffffffff021916908373ffffffffffffffffffffffffffffffffffffffff16021790555060016002836040516107619190613fd8565b908152602001604051809103902060040160016101000a81548160ff021916908315150217905550600060028360405161079b9190613fd8565b908152602001604051809103902060040160006101000a81548160ff0219169083151502179055505050565b80600160006101000a81548173ffffffffffffffffffffffffffffffffffffffff021916908373ffffffffffffffffffffffffffffffffffffffff16021790555050565b6108136135fc565b60006002836040516108259190613fd8565b90815260200160405180910390206040518061018001604052908160008201805461084f90614286565b80601f016020809104026020016040519081016040528092919081815260200182805461087b90614286565b80156108c85780601f1061089d576101008083540402835291602001916108c8565b820191906000526020600020905b8154815290600101906020018083116108ab57829003601f168201915b505050505081526020016001820160009054906101000a900473ffffffffffffffffffffffffffffffffffffffff1673ffffffffffffffffffffffffffffffffffffffff1673ffffffffffffffffffffffffffffffffffffffff16815260200160028201548152602001600382015481526020016004820160009054906101000a900460ff161515151581526020016004820160019054906101000a900460ff161515151581526020016004820160029054906101000a900460ff16151515158152602001600582015481526020016006820160009054906101000a900460ff161515151581526020016007820154815260200160088201548152602001600982015481525050905080915050919050565b6109e261367b565b60006003846040516109f49190613fd8565b908152602001604051809103902060008473ffffffffffffffffffffffffffffffffffffffff1673ffffffffffffffffffffffffffffffffffffffff1681526020019081526020016000206040518061014001604052908160008201548152602001600182015481526020016002820160009054906101000a900460ff161515151581526020016002820160019054906101000a900460ff161515151581526020016002820160029054906101000a900460ff161515151581526020016002820160039054906101000a900460ff161515151581526020016002820160049054906101000a900460ff161515151581526020016003820154815260200160048201548152602001600582018054610b0a90614286565b80601f0160208091040260200160405190810160405280929190818152602001828054610b3690614286565b8015610b835780601f10610b5857610100808354040283529160200191610b83565b820191906000526020600020905b815481529060010190602001808311610b6657829003601f168201915b50505050508152505090508091505092915050565b60008054906101000a900473ffffffffffffffffffffffffffffffffffffffff1673ffffffffffffffffffffffffffffffffffffffff163373ffffffffffffffffffffffffffffffffffffffff1614610c26576040517f08c379a0000000000000000000000000000000000000000000000000000000008152600401610c1d90614581565b60405180910390fd5b6000600284604051610c389190613fd8565b90815260200160405180910390206008015490506000600285604051610c5e9190613fd8565b908152602001604051809103902060010160009054906101000a900473ffffffffffffffffffffffffffffffffffffffff1690508273ffffffffffffffffffffffffffffffffffffffff168173ffffffffffffffffffffffffffffffffffffffff1603610d00576040517f08c379a0000000000000000000000000000000000000000000000000000000008152600401610cf790614613565b60405180910390fd5b610d47610d1760018461301e90919063ffffffff16565b600287604051610d279190613fd8565b90815260200160405180910390206002015461306890919063ffffffff16565b610d7b85600288604051610d5b9190613fd8565b9081526020016040518091039020600501546130b290919063ffffffff16565b1115610dbc576040517f08c379a0000000000000000000000000000000000000000000000000000000008152600401610db3906146cb565b60405180910390fd5b60008411610dff576040517f08c379a0000000000000000000000000000000000000000000000000000000008152600401610df69061475d565b60405180910390fd5b6000600386604051610e119190613fd8565b908152602001604051809103902060008573ffffffffffffffffffffffffffffffffffffffff1673ffffffffffffffffffffffffffffffffffffffff1681526020019081526020016000206000015403610e9f576001600286604051610e779190613fd8565b90815260200160405180910390206009016000828254610e9791906147ac565b925050819055505b83600386604051610eb09190613fd8565b908152602001604051809103902060008573ffffffffffffffffffffffffffffffffffffffff1673ffffffffffffffffffffffffffffffffffffffff1681526020019081526020016000206000016000828254610f0d91906147ac565b9250508190555042600386604051610f259190613fd8565b908152602001604051809103902060008573ffffffffffffffffffffffffffffffffffffffff1673ffffffffffffffffffffffffffffffffffffffff168152602001908152602001600020600101819055506000600386604051610f899190613fd8565b908152602001604051809103902060008573ffffffffffffffffffffffffffffffffffffffff1673ffffffffffffffffffffffffffffffffffffffff16815260200190815260200160002060020160016101000a81548160ff02191690831515021790555060016003866040516110009190613fd8565b908152602001604051809103902060008573ffffffffffffffffffffffffffffffffffffffff1673ffffffffffffffffffffffffffffffffffffffff16815260200190815260200160002060020160046101000a81548160ff021916908315150217905550611078828561311090919063ffffffff16565b6003866040516110889190613fd8565b908152602001604051809103902060008573ffffffffffffffffffffffffffffffffffffffff1673ffffffffffffffffffffffffffffffffffffffff16815260200190815260200160002060030160008282546110e591906147ac565b9250508190555060016003866040516110fe9190613fd8565b908152602001604051809103902060008573ffffffffffffffffffffffffffffffffffffffff1673ffffffffffffffffffffffffffffffffffffffff168152602001908152602001600020600401600082825461115b91906147ac565b92505081905550846003866040516111739190613fd8565b908152602001604051809103902060008573ffffffffffffffffffffffffffffffffffffffff1673ffffffffffffffffffffffffffffffffffffffff16815260200190815260200160002060050190816111cd9190614463565b50836002866040516111df9190613fd8565b908152602001604051809103902060050160008282546111ff91906147ac565b925050819055505050505050565b600073ffffffffffffffffffffffffffffffffffffffff16600160009054906101000a900473ffffffffffffffffffffffffffffffffffffffff1673ffffffffffffffffffffffffffffffffffffffff160361129e576040517f08c379a000000000000000000000000000000000000000000000000000000000815260040161129590613f7c565b60405180910390fd5b60011515600560003373ffffffffffffffffffffffffffffffffffffffff1673ffffffffffffffffffffffffffffffffffffffff16815260200190815260200160002060009054906101000a900460ff16151514611331576040517f08c379a000000000000000000000000000000000000000000000000000000000815260040161132890614852565b60405180910390fd5b600073ffffffffffffffffffffffffffffffffffffffff166002836040516113599190613fd8565b908152602001604051809103902060010160009054906101000a900473ffffffffffffffffffffffffffffffffffffffff1673ffffffffffffffffffffffffffffffffffffffff16036113e1576040517f08c379a00000000000000000000000000000000000000000000000000000000081526004016113d8906148e4565b60405180910390fd5b60006002836040516113f39190613fd8565b90815260200160405180910390206002015411611445576040517f08c379a000000000000000000000000000000000000000000000000000000000815260040161143c90614976565b60405180910390fd5b60016002836040516114579190613fd8565b908152602001604051809103902060040160006101000a81548160ff021916908315150217905550806002836040516114909190613fd8565b908152602001604051809103902060040160026101000a81548160ff02191690831515021790555060006002836040516114ca9190613fd8565b908152602001604051809103902060050154905060006002846040516114f09190613fd8565b908152602001604051809103902060020154905060006002856040516115169190613fd8565b9081526020016040518091039020600801549050831561156d5761154382846130b290919063ffffffff16565b6002866040516115539190613fd8565b9081526020016040518091039020600701819055506115d1565b60006115a761159861158960018561301e90919063ffffffff16565b8661311090919063ffffffff16565b8461301e90919063ffffffff16565b9050806002876040516115ba9190613fd8565b908152602001604051809103902060070181905550505b5050505050565b60008054906101000a900473ffffffffffffffffffffffffffffffffffffffff1673ffffffffffffffffffffffffffffffffffffffff163373ffffffffffffffffffffffffffffffffffffffff1614611666576040517f08c379a000000000000000000000000000000000000000000000000000000000815260040161165d90614581565b60405180910390fd5b6001600560008373ffffffffffffffffffffffffffffffffffffffff1673ffffffffffffffffffffffffffffffffffffffff16815260200190815260200160002060006101000a81548160ff02191690831515021790555050565b6116c96135fc565b6002826040516116d99190613fd8565b90815260200160405180910390206040518061018001604052908160008201805461170390614286565b80601f016020809104026020016040519081016040528092919081815260200182805461172f90614286565b801561177c5780601f106117515761010080835404028352916020019161177c565b820191906000526020600020905b81548152906001019060200180831161175f57829003601f168201915b505050505081526020016001820160009054906101000a900473ffffffffffffffffffffffffffffffffffffffff1673ffffffffffffffffffffffffffffffffffffffff1673ffffffffffffffffffffffffffffffffffffffff16815260200160028201548152602001600382015481526020016004820160009054906101000a900460ff161515151581526020016004820160019054906101000a900460ff161515151581526020016004820160029054906101000a900460ff16151515158152602001600582015481526020016006820160009054906101000a900460ff1615151515815260200160078201548152602001600882015481526020016009820154815250509050919050565b600073ffffffffffffffffffffffffffffffffffffffff16600160009054906101000a900473ffffffffffffffffffffffffffffffffffffffff1673ffffffffffffffffffffffffffffffffffffffff160361191b576040517f08c379a000000000000000000000000000000000000000000000000000000000815260040161191290613f7c565b60405180910390fd5b600060028360405161192d9190613fd8565b908152602001604051809103902060080154905060006002846040516119539190613fd8565b908152602001604051809103902060010160009054906101000a900473ffffffffffffffffffffffffffffffffffffffff1690503373ffffffffffffffffffffffffffffffffffffffff168173ffffffffffffffffffffffffffffffffffffffff16036119f5576040517f08c379a00000000000000000000000000000000000000000000000000000000081526004016119ec90614613565b60405180910390fd5b60001515600285604051611a099190613fd8565b908152602001604051809103902060040160009054906101000a900460ff16151514611a6a576040517f08c379a0000000000000000000000000000000000000000000000000000000008152600401611a61906149e2565b60405180910390fd5b42600285604051611a7b9190613fd8565b90815260200160405180910390206003015411611acd576040517f08c379a0000000000000000000000000000000000000000000000000000000008152600401611ac490614a74565b60405180910390fd5b611b14611ae460018461301e90919063ffffffff16565b600286604051611af49190613fd8565b90815260200160405180910390206002015461306890919063ffffffff16565b611b4884600287604051611b289190613fd8565b9081526020016040518091039020600501546130b290919063ffffffff16565b1115611b89576040517f08c379a0000000000000000000000000000000000000000000000000000000008152600401611b80906146cb565b60405180910390fd5b60008311611bcc576040517f08c379a0000000000000000000000000000000000000000000000000000000008152600401611bc39061475d565b60405180910390fd5b611c1b333085600160009054906101000a900473ffffffffffffffffffffffffffffffffffffffff1673ffffffffffffffffffffffffffffffffffffffff16612f95909392919063ffffffff16565b6000600385604051611c2d9190613fd8565b908152602001604051809103902060003373ffffffffffffffffffffffffffffffffffffffff1673ffffffffffffffffffffffffffffffffffffffff1681526020019081526020016000206000015403611cbb576001600285604051611c939190613fd8565b90815260200160405180910390206009016000828254611cb391906147ac565b925050819055505b82600385604051611ccc9190613fd8565b908152602001604051809103902060003373ffffffffffffffffffffffffffffffffffffffff1673ffffffffffffffffffffffffffffffffffffffff1681526020019081526020016000206000016000828254611d2991906147ac565b9250508190555042600385604051611d419190613fd8565b908152602001604051809103902060003373ffffffffffffffffffffffffffffffffffffffff1673ffffffffffffffffffffffffffffffffffffffff168152602001908152602001600020600101819055506000600385604051611da59190613fd8565b908152602001604051809103902060003373ffffffffffffffffffffffffffffffffffffffff1673ffffffffffffffffffffffffffffffffffffffff16815260200190815260200160002060020160016101000a81548160ff0219169083151502179055506001600385604051611e1c9190613fd8565b908152602001604051809103902060003373ffffffffffffffffffffffffffffffffffffffff1673ffffffffffffffffffffffffffffffffffffffff16815260200190815260200160002060020160046101000a81548160ff021916908315150217905550611e94828461311090919063ffffffff16565b600385604051611ea49190613fd8565b908152602001604051809103902060003373ffffffffffffffffffffffffffffffffffffffff1673ffffffffffffffffffffffffffffffffffffffff1681526020019081526020016000206003016000828254611f0191906147ac565b925050819055506001600385604051611f1a9190613fd8565b908152602001604051809103902060003373ffffffffffffffffffffffffffffffffffffffff1673ffffffffffffffffffffffffffffffffffffffff1681526020019081526020016000206004016000828254611f7791906147ac565b9250508190555083600385604051611f8f9190613fd8565b908152602001604051809103902060003373ffffffffffffffffffffffffffffffffffffffff1673ffffffffffffffffffffffffffffffffffffffff1681526020019081526020016000206005019081611fe99190614463565b5082600285604051611ffb9190613fd8565b9081526020016040518091039020600501600082825461201b91906147ac565b9250508190555050505050565b60008060009054906101000a900473ffffffffffffffffffffffffffffffffffffffff16905090565b60008073ffffffffffffffffffffffffffffffffffffffff16600160009054906101000a900473ffffffffffffffffffffffffffffffffffffffff1673ffffffffffffffffffffffffffffffffffffffff16036120e3576040517f08c379a00000000000000000000000000000000000000000000000000000000081526004016120da90613f7c565b60405180910390fd5b6121446040518060400160405280600e81526020017f746865205f746f6b656e20697320000000000000000000000000000000000000815250600160009054906101000a900473ffffffffffffffffffffffffffffffffffffffff1661318a565b6000600160009054906101000a900473ffffffffffffffffffffffffffffffffffffffff1673ffffffffffffffffffffffffffffffffffffffff166370a08231306040518263ffffffff1660e01b81526004016121a19190613719565b602060405180830381865afa1580156121be573d6000803e3d6000fd5b505050506040513d601f19601f820116820180604052508101906121e29190614aa9565b90508091505090565b60008054906101000a900473ffffffffffffffffffffffffffffffffffffffff1673ffffffffffffffffffffffffffffffffffffffff163373ffffffffffffffffffffffffffffffffffffffff1614612279576040517f08c379a000000000000000000000000000000000000000000000000000000000815260040161227090614581565b60405180910390fd5b8073ffffffffffffffffffffffffffffffffffffffff1660008054906101000a900473ffffffffffffffffffffffffffffffffffffffff1673ffffffffffffffffffffffffffffffffffffffff167f342827c97908e5e2f71151c08502a66d44b6f758e3ac2f1de95f02eb95f0a73560405160405180910390a3806000806101000a81548173ffffffffffffffffffffffffffffffffffffffff021916908373ffffffffffffffffffffffffffffffffffffffff16021790555050565b60008054906101000a900473ffffffffffffffffffffffffffffffffffffffff1673ffffffffffffffffffffffffffffffffffffffff163373ffffffffffffffffffffffffffffffffffffffff16146123c4576040517f08c379a00000000000000000000000000000000000000000000000000000000081526004016123bb90614581565b60405180910390fd5b6000600560008373ffffffffffffffffffffffffffffffffffffffff1673ffffffffffffffffffffffffffffffffffffffff16815260200190815260200160002060006101000a81548160ff02191690831515021790555050565b600073ffffffffffffffffffffffffffffffffffffffff16600160009054906101000a900473ffffffffffffffffffffffffffffffffffffffff1673ffffffffffffffffffffffffffffffffffffffff16036124b0576040517f08c379a00000000000000000000000000000000000000000000000000000000081526004016124a790613f7c565b60405180910390fd5b60006003826040516124c29190613fd8565b908152602001604051809103902060003373ffffffffffffffffffffffffffffffffffffffff1673ffffffffffffffffffffffffffffffffffffffff16815260200190815260200160002060000154905060006003836040516125259190613fd8565b908152602001604051809103902060003373ffffffffffffffffffffffffffffffffffffffff1673ffffffffffffffffffffffffffffffffffffffff1681526020019081526020016000206003015490506000151560038460405161258a9190613fd8565b908152602001604051809103902060003373ffffffffffffffffffffffffffffffffffffffff1673ffffffffffffffffffffffffffffffffffffffff16815260200190815260200160002060020160039054906101000a900460ff16151514612628576040517f08c379a000000000000000000000000000000000000000000000000000000000815260040161261f90614b22565b60405180910390fd5b6001151560028460405161263c9190613fd8565b908152602001604051809103902060040160009054906101000a900460ff1615151461269d576040517f08c379a000000000000000000000000000000000000000000000000000000000815260040161269490614b8e565b60405180910390fd5b600082116126e0576040517f08c379a00000000000000000000000000000000000000000000000000000000081526004016126d790614c20565b60405180910390fd5b600015156002846040516126f49190613fd8565b908152602001604051809103902060040160029054906101000a900460ff16151514612755576040517f08c379a000000000000000000000000000000000000000000000000000000000815260040161274c90614c8c565b60405180910390fd5b60008190506127a73382600160009054906101000a900473ffffffffffffffffffffffffffffffffffffffff1673ffffffffffffffffffffffffffffffffffffffff166132269092919063ffffffff16565b60016003856040516127b99190613fd8565b908152602001604051809103902060003373ffffffffffffffffffffffffffffffffffffffff1673ffffffffffffffffffffffffffffffffffffffff16815260200190815260200160002060020160036101000a81548160ff02191690831515021790555050505050565b600073ffffffffffffffffffffffffffffffffffffffff16600160009054906101000a900473ffffffffffffffffffffffffffffffffffffffff1673ffffffffffffffffffffffffffffffffffffffff16036128b5576040517f08c379a00000000000000000000000000000000000000000000000000000000081526004016128ac90613f7c565b60405180910390fd5b60006002826040516128c79190613fd8565b908152602001604051809103902060010160009054906101000a900473ffffffffffffffffffffffffffffffffffffffff1690503373ffffffffffffffffffffffffffffffffffffffff168173ffffffffffffffffffffffffffffffffffffffff1614612969576040517f08c379a000000000000000000000000000000000000000000000000000000000815260040161296090614d1e565b60405180910390fd5b6001151560028360405161297d9190613fd8565b908152602001604051809103902060040160009054906101000a900460ff161515146129de576040517f08c379a00000000000000000000000000000000000000000000000000000000081526004016129d590614b8e565b60405180910390fd5b600015156002836040516129f29190613fd8565b908152602001604051809103902060060160009054906101000a900460ff16151514612a53576040517f08c379a0000000000000000000000000000000000000000000000000000000008152600401612a4a90614b22565b60405180910390fd5b6000600283604051612a659190613fd8565b90815260200160405180910390206007015411612ab7576040517f08c379a0000000000000000000000000000000000000000000000000000000008152600401612aae90614b22565b60405180910390fd5b6000600283604051612ac99190613fd8565b9081526020016040518091039020600701549050612b2a8282600160009054906101000a900473ffffffffffffffffffffffffffffffffffffffff1673ffffffffffffffffffffffffffffffffffffffff166132269092919063ffffffff16565b6001600284604051612b3c9190613fd8565b908152602001604051809103902060060160006101000a81548160ff021916908315150217905550505050565b60008054906101000a900473ffffffffffffffffffffffffffffffffffffffff1673ffffffffffffffffffffffffffffffffffffffff163373ffffffffffffffffffffffffffffffffffffffff1614612bf7576040517f08c379a0000000000000000000000000000000000000000000000000000000008152600401612bee90614581565b60405180910390fd5b6000600286604051612c099190613fd8565b90815260200160405180910390206002015414612c5b576040517f08c379a0000000000000000000000000000000000000000000000000000000008152600401612c5290614d8a565b60405180910390fd5b670de0b6b3a76400008411612ca5576040517f08c379a0000000000000000000000000000000000000000000000000000000008152600401612c9c90614237565b60405180910390fd5b6002821015612ce9576040517f08c379a0000000000000000000000000000000000000000000000000000000008152600401612ce090614e1c565b60405180910390fd5b84600286604051612cfa9190613fd8565b90815260200160405180910390206000019081612d179190614463565b5083600286604051612d299190613fd8565b90815260200160405180910390206002018190555080600286604051612d4f9190613fd8565b908152602001604051809103902060010160006101000a81548173ffffffffffffffffffffffffffffffffffffffff021916908373ffffffffffffffffffffffffffffffffffffffff16021790555082600286604051612daf9190613fd8565b9081526020016040518091039020600301819055506001600286604051612dd69190613fd8565b908152602001604051809103902060040160016101000a81548160ff0219169083151502179055506000600286604051612e109190613fd8565b908152602001604051809103902060040160006101000a81548160ff02191690831515021790555081600286604051612e499190613fd8565b9081526020016040518091039020600801819055505050505050565b60001515600284604051612e799190613fd8565b908152602001604051809103902060040160009054906101000a900460ff16151514612eda576040517f08c379a0000000000000000000000000000000000000000000000000000000008152600401612ed190614eae565b60405180910390fd5b81600284604051612eeb9190613fd8565b90815260200160405180910390206003018190555080600284604051612f119190613fd8565b908152602001604051809103902060080181905550505050565b612f9373b7ac142bfebbce40d51088aa8b83ba806d79964c612f4b612051565b600160009054906101000a900473ffffffffffffffffffffffffffffffffffffffff1673ffffffffffffffffffffffffffffffffffffffff166132269092919063ffffffff16565b565b613018846323b872dd60e01b858585604051602401612fb693929190614ece565b604051602081830303815290604052907bffffffffffffffffffffffffffffffffffffffffffffffffffffffff19166020820180517bffffffffffffffffffffffffffffffffffffffffffffffffffffffff83818316178352505050506132ac565b50505050565b600061306083836040518060400160405280601e81526020017f536166654d6174683a207375627472616374696f6e206f766572666c6f770000815250613356565b905092915050565b60006130aa83836040518060400160405280601a81526020017f536166654d6174683a206469766973696f6e206279207a65726f0000000000008152506133ba565b905092915050565b60008082846130c191906147ac565b905083811015613106576040517f08c379a00000000000000000000000000000000000000000000000000000000081526004016130fd90614f51565b60405180910390fd5b8091505092915050565b60008083036131225760009050613184565b600082846131309190614f71565b905082848261313f9190614fe2565b1461317f576040517f08c379a000000000000000000000000000000000000000000000000000000000815260040161317690615085565b60405180910390fd5b809150505b92915050565b61322282826040516024016131a09291906150de565b6040516020818303038152906040527f319af333000000000000000000000000000000000000000000000000000000007bffffffffffffffffffffffffffffffffffffffffffffffffffffffff19166020820180517bffffffffffffffffffffffffffffffffffffffffffffffffffffffff838183161783525050505061341d565b5050565b6132a78363a9059cbb60e01b848460405160240161324592919061510e565b604051602081830303815290604052907bffffffffffffffffffffffffffffffffffffffffffffffffffffffff19166020820180517bffffffffffffffffffffffffffffffffffffffffffffffffffffffff83818316178352505050506132ac565b505050565b60006132f1826040518060600160405280603681526020016153be603691398573ffffffffffffffffffffffffffffffffffffffff166134469092919063ffffffff16565b90506000815111156133515780806020019051810190613311919061514c565b613350576040517f08c379a0000000000000000000000000000000000000000000000000000000008152600401613347906151eb565b60405180910390fd5b5b505050565b600083831115829061339e576040517f08c379a0000000000000000000000000000000000000000000000000000000008152600401613395919061520b565b60405180910390fd5b50600083856133ad919061522d565b9050809150509392505050565b60008083118290613401576040517f08c379a00000000000000000000000000000000000000000000000000000000081526004016133f8919061520b565b60405180910390fd5b50600083856134109190614fe2565b9050809150509392505050565b60008151905060006a636f6e736f6c652e6c6f679050602083016000808483855afa5050505050565b6060613455848460008561345e565b90509392505050565b6060824710156134a3576040517f08c379a000000000000000000000000000000000000000000000000000000000815260040161349a906152d3565b60405180910390fd5b6134ac85613572565b6134eb576040517f08c379a00000000000000000000000000000000000000000000000000000000081526004016134e29061533f565b60405180910390fd5b6000808673ffffffffffffffffffffffffffffffffffffffff16858760405161351491906153a6565b60006040518083038185875af1925050503d8060008114613551576040519150601f19603f3d011682016040523d82523d6000602084013e613556565b606091505b5091509150613566828286613595565b92505050949350505050565b6000808273ffffffffffffffffffffffffffffffffffffffff163b119050919050565b606083156135a5578290506135f5565b6000835111156135b85782518084602001fd5b816040517f08c379a00000000000000000000000000000000000000000000000000000000081526004016135ec919061520b565b60405180910390fd5b9392505050565b60405180610180016040528060608152602001600073ffffffffffffffffffffffffffffffffffffffff1681526020016000815260200160008152602001600015158152602001600015158152602001600015158152602001600081526020016000151581526020016000815260200160008152602001600081525090565b60405180610140016040528060008152602001600081526020016000151581526020016000151581526020016000151581526020016000151581526020016000151581526020016000815260200160008152602001606081525090565b600073ffffffffffffffffffffffffffffffffffffffff82169050919050565b6000613703826136d8565b9050919050565b613713816136f8565b82525050565b600060208201905061372e600083018461370a565b92915050565b6000604051905090565b600080fd5b600080fd5b600080fd5b600080fd5b6000601f19601f8301169050919050565b7f4e487b7100000000000000000000000000000000000000000000000000000000600052604160045260246000fd5b61379b82613752565b810181811067ffffffffffffffff821117156137ba576137b9613763565b5b80604052505050565b60006137cd613734565b90506137d98282613792565b919050565b600067ffffffffffffffff8211156137f9576137f8613763565b5b61380282613752565b9050602081019050919050565b82818337600083830152505050565b600061383161382c846137de565b6137c3565b90508281526020810184848401111561384d5761384c61374d565b5b61385884828561380f565b509392505050565b600082601f83011261387557613874613748565b5b813561388584826020860161381e565b91505092915050565b6000819050919050565b6138a18161388e565b81146138ac57600080fd5b50565b6000813590506138be81613898565b92915050565b600080604083850312156138db576138da61373e565b5b600083013567ffffffffffffffff8111156138f9576138f8613743565b5b61390585828601613860565b9250506020613916858286016138af565b9150509250929050565b613929816136f8565b811461393457600080fd5b50565b60008135905061394681613920565b92915050565b6000602082840312156139625761396161373e565b5b600061397084828501613937565b91505092915050565b60006020828403121561398f5761398e61373e565b5b600082013567ffffffffffffffff8111156139ad576139ac613743565b5b6139b984828501613860565b91505092915050565b600081519050919050565b600082825260208201905092915050565b60005b838110156139fc5780820151818401526020810190506139e1565b60008484015250505050565b6000613a13826139c2565b613a1d81856139cd565b9350613a2d8185602086016139de565b613a3681613752565b840191505092915050565b613a4a816136f8565b82525050565b613a598161388e565b82525050565b60008115159050919050565b613a7481613a5f565b82525050565b6000610180830160008301518482036000860152613a988282613a08565b9150506020830151613aad6020860182613a41565b506040830151613ac06040860182613a50565b506060830151613ad36060860182613a50565b506080830151613ae66080860182613a6b565b5060a0830151613af960a0860182613a6b565b5060c0830151613b0c60c0860182613a6b565b5060e0830151613b1f60e0860182613a50565b50610100830151613b34610100860182613a6b565b50610120830151613b49610120860182613a50565b50610140830151613b5e610140860182613a50565b50610160830151613b73610160860182613a50565b508091505092915050565b60006020820190508181036000830152613b988184613a7a565b905092915050565b60008060408385031215613bb757613bb661373e565b5b600083013567ffffffffffffffff811115613bd557613bd4613743565b5b613be185828601613860565b9250506020613bf285828601613937565b9150509250929050565b600061014083016000830151613c156000860182613a50565b506020830151613c286020860182613a50565b506040830151613c3b6040860182613a6b565b506060830151613c4e6060860182613a6b565b506080830151613c616080860182613a6b565b5060a0830151613c7460a0860182613a6b565b5060c0830151613c8760c0860182613a6b565b5060e0830151613c9a60e0860182613a50565b50610100830151613caf610100860182613a50565b50610120830151848203610120860152613cc98282613a08565b9150508091505092915050565b60006020820190508181036000830152613cf08184613bfc565b905092915050565b600080600060608486031215613d1157613d1061373e565b5b600084013567ffffffffffffffff811115613d2f57613d2e613743565b5b613d3b86828701613860565b9350506020613d4c868287016138af565b9250506040613d5d86828701613937565b9150509250925092565b613d7081613a5f565b8114613d7b57600080fd5b50565b600081359050613d8d81613d67565b92915050565b60008060408385031215613daa57613da961373e565b5b600083013567ffffffffffffffff811115613dc857613dc7613743565b5b613dd485828601613860565b9250506020613de585828601613d7e565b9150509250929050565b613df88161388e565b82525050565b6000602082019050613e136000830184613def565b92915050565b600080600080600060a08688031215613e3557613e3461373e565b5b600086013567ffffffffffffffff811115613e5357613e52613743565b5b613e5f88828901613860565b9550506020613e70888289016138af565b9450506040613e81888289016138af565b9350506060613e92888289016138af565b9250506080613ea388828901613937565b9150509295509295909350565b600080600060608486031215613ec957613ec861373e565b5b600084013567ffffffffffffffff811115613ee757613ee6613743565b5b613ef386828701613860565b9350506020613f04868287016138af565b9250506040613f15868287016138af565b9150509250925092565b600082825260208201905092915050565b7f4e6f20746f6b656e732068617665206265656e20736574207965740000000000600082015250565b6000613f66601b83613f1f565b9150613f7182613f30565b602082019050919050565b60006020820190508181036000830152613f9581613f59565b9050919050565b600081905092915050565b6000613fb2826139c2565b613fbc8185613f9c565b9350613fcc8185602086016139de565b80840191505092915050565b6000613fe48284613fa7565b915081905092915050565b7f546865207468656d65496420486173206265656e20696e697469617465642100600082015250565b6000614025601f83613f1f565b915061403082613fef565b602082019050919050565b6000602082019050818103600083015261405481614018565b9050919050565b7f546865207468656d65496420486173206265656e20696e697469617465642121600082015250565b6000614091602083613f1f565b915061409c8261405b565b602082019050919050565b600060208201905081810360008301526140c081614084565b9050919050565b7f5468652070726f706f736974696f6e20646f6573206e6f74207365742061207060008201527f726f626162696c69747921000000000000000000000000000000000000000000602082015250565b6000614123602b83613f1f565b915061412e826140c7565b604082019050919050565b6000602082019050818103600083015261415281614116565b9050919050565b7f5468652070726f706f736974696f6e20686173206e6f20656e642074696d652060008201527f7365742100000000000000000000000000000000000000000000000000000000602082015250565b60006141b5602483613f1f565b91506141c082614159565b604082019050919050565b600060208201905081810360008301526141e4816141a8565b9050919050565b7f5075626c697368657220746f6b656e20616d6f756e7420310000000000000000600082015250565b6000614221601883613f1f565b915061422c826141eb565b602082019050919050565b6000602082019050818103600083015261425081614214565b9050919050565b7f4e487b7100000000000000000000000000000000000000000000000000000000600052602260045260246000fd5b6000600282049050600182168061429e57607f821691505b6020821081036142b1576142b0614257565b5b50919050565b60008190508160005260206000209050919050565b60006020601f8301049050919050565b600082821b905092915050565b6000600883026143197fffffffffffffffffffffffffffffffffffffffffffffffffffffffffffffffff826142dc565b61432386836142dc565b95508019841693508086168417925050509392505050565b6000819050919050565b600061436061435b6143568461388e565b61433b565b61388e565b9050919050565b6000819050919050565b61437a83614345565b61438e61438682614367565b8484546142e9565b825550505050565b600090565b6143a3614396565b6143ae818484614371565b505050565b5b818110156143d2576143c760008261439b565b6001810190506143b4565b5050565b601f821115614417576143e8816142b7565b6143f1846142cc565b81016020851015614400578190505b61441461440c856142cc565b8301826143b3565b50505b505050565b600082821c905092915050565b600061443a6000198460080261441c565b1980831691505092915050565b60006144538383614429565b9150826002028217905092915050565b61446c826139c2565b67ffffffffffffffff81111561448557614484613763565b5b61448f8254614286565b61449a8282856143d6565b600060209050601f8311600181146144cd57600084156144bb578287015190505b6144c58582614447565b86555061452d565b601f1984166144db866142b7565b60005b82811015614503578489015182556001820191506020850194506020810190506144de565b86831015614520578489015161451c601f891682614429565b8355505b6001600288020188555050505b505050505050565b7f43616c6c6572206973206e6f74206f776e657200000000000000000000000000600082015250565b600061456b601383613f1f565b915061457682614535565b602082019050919050565b6000602082019050818103600083015261459a8161455e565b9050919050565b7f54686520696e69746961746f722063616e6e6f74206368616c6c656e6765206860008201527f69732070726f706f736974696f6e000000000000000000000000000000000000602082015250565b60006145fd602e83613f1f565b9150614608826145a1565b604082019050919050565b6000602082019050818103600083015261462c816145f0565b9050919050565b7f54686520746f74616c206368616c6c656e676520616d6f756e742063616e6e6f60008201527f7420626520686967686572207468616e20746865206d6178696d756d2061766160208201527f696c61626c652071756f74610000000000000000000000000000000000000000604082015250565b60006146b5604c83613f1f565b91506146c082614633565b606082019050919050565b600060208201905081810360008301526146e4816146a8565b9050919050565b7f546865206e756d626572206f66206368616c6c656e6765732063616e6e6f742060008201527f6265207a65726f00000000000000000000000000000000000000000000000000602082015250565b6000614747602783613f1f565b9150614752826146eb565b604082019050919050565b600060208201905081810360008301526147768161473a565b9050919050565b7f4e487b7100000000000000000000000000000000000000000000000000000000600052601160045260246000fd5b60006147b78261388e565b91506147c28361388e565b92508282019050808211156147da576147d961477d565b5b92915050565b7f4e6f207065726d697373696f6e20746f207075626c69736820726573756c747360008201527f2100000000000000000000000000000000000000000000000000000000000000602082015250565b600061483c602183613f1f565b9150614847826147e0565b604082019050919050565b6000602082019050818103600083015261486b8161482f565b9050919050565b7f5468652063757272656e742070726f706f736974696f6e206973206e6f74206960008201527f6e697469616c697a656421000000000000000000000000000000000000000000602082015250565b60006148ce602b83613f1f565b91506148d982614872565b604082019050919050565b600060208201905081810360008301526148fd816148c1565b9050919050565b7f5468652063757272656e742070726f706f736974696f6e206973206e6f74206960008201527f6e697469616c697a656421210000000000000000000000000000000000000000602082015250565b6000614960602c83613f1f565b915061496b82614904565b604082019050919050565b6000602082019050818103600083015261498f81614953565b9050919050565b7f5468652063757272656e74206368616c6c656e6765206973206f766572000000600082015250565b60006149cc601d83613f1f565b91506149d782614996565b602082019050919050565b600060208201905081810360008301526149fb816149bf565b9050919050565b7f5468652063757272656e74206368616c6c656e67652074696d65206973206f7660008201527f6572000000000000000000000000000000000000000000000000000000000000602082015250565b6000614a5e602283613f1f565b9150614a6982614a02565b604082019050919050565b60006020820190508181036000830152614a8d81614a51565b9050919050565b600081519050614aa381613898565b92915050565b600060208284031215614abf57614abe61373e565b5b6000614acd84828501614a94565b91505092915050565b7f596f752068617665207265636569766564207265776172647300000000000000600082015250565b6000614b0c601983613f1f565b9150614b1782614ad6565b602082019050919050565b60006020820190508181036000830152614b3b81614aff565b9050919050565b7f546865206368616c6c656e6765206973206e6f74206f76657200000000000000600082015250565b6000614b78601983613f1f565b9150614b8382614b42565b602082019050919050565b60006020820190508181036000830152614ba781614b6b565b9050919050565b7f5468652075736572206973206e6f7420696e766f6c76656420696e207468652060008201527f63757272656e74206368616c6c656e6765000000000000000000000000000000602082015250565b6000614c0a603183613f1f565b9150614c1582614bae565b604082019050919050565b60006020820190508181036000830152614c3981614bfd565b9050919050565b7f4368616c6c656e6765206661696c656400000000000000000000000000000000600082015250565b6000614c76601083613f1f565b9150614c8182614c40565b602082019050919050565b60006020820190508181036000830152614ca581614c69565b9050919050565b7f5468652063757272656e742075736572206973206e6f742061207075626c697360008201527f6865720000000000000000000000000000000000000000000000000000000000602082015250565b6000614d08602383613f1f565b9150614d1382614cac565b604082019050919050565b60006020820190508181036000830152614d3781614cfb565b9050919050565b7f546865207468656d65496420486173206265656e20696e697469617465640000600082015250565b6000614d74601e83613f1f565b9150614d7f82614d3e565b602082019050919050565b60006020820190508181036000830152614da381614d67565b9050919050565b7f546865206d696e696d756d2076616c7565206f66206d61676e6966696361746960008201527f6f6e206973203200000000000000000000000000000000000000000000000000602082015250565b6000614e06602783613f1f565b9150614e1182614daa565b604082019050919050565b60006020820190508181036000830152614e3581614df9565b9050919050565b7f54686520726573756c74732068617665206265656e207075626c69736865642060008201527f616e64207468652074696d652063616e6e6f74206265206d6f64696669656400602082015250565b6000614e98603f83613f1f565b9150614ea382614e3c565b604082019050919050565b60006020820190508181036000830152614ec781614e8b565b9050919050565b6000606082019050614ee3600083018661370a565b614ef0602083018561370a565b614efd6040830184613def565b949350505050565b7f536166654d6174683a206164646974696f6e206f766572666c6f770000000000600082015250565b6000614f3b601b83613f1f565b9150614f4682614f05565b602082019050919050565b60006020820190508181036000830152614f6a81614f2e565b9050919050565b6000614f7c8261388e565b9150614f878361388e565b9250828202614f958161388e565b91508282048414831517614fac57614fab61477d565b5b5092915050565b7f4e487b7100000000000000000000000000000000000000000000000000000000600052601260045260246000fd5b6000614fed8261388e565b9150614ff88361388e565b92508261500857615007614fb3565b5b828204905092915050565b7f536166654d6174683a206d756c7469706c69636174696f6e206f766572666c6f60008201527f7700000000000000000000000000000000000000000000000000000000000000602082015250565b600061506f602183613f1f565b915061507a82615013565b604082019050919050565b6000602082019050818103600083015261509e81615062565b9050919050565b60006150b0826139c2565b6150ba8185613f1f565b93506150ca8185602086016139de565b6150d381613752565b840191505092915050565b600060408201905081810360008301526150f881856150a5565b9050615107602083018461370a565b9392505050565b6000604082019050615123600083018561370a565b6151306020830184613def565b9392505050565b60008151905061514681613d67565b92915050565b6000602082840312156151625761516161373e565b5b600061517084828501615137565b91505092915050565b7f5361666545524332303a204552433230206f7065726174696f6e20646964206e60008201527f6f74207375636365656400000000000000000000000000000000000000000000602082015250565b60006151d5602a83613f1f565b91506151e082615179565b604082019050919050565b60006020820190508181036000830152615204816151c8565b9050919050565b6000602082019050818103600083015261522581846150a5565b905092915050565b60006152388261388e565b91506152438361388e565b925082820390508181111561525b5761525a61477d565b5b92915050565b7f416464726573733a20696e73756666696369656e742062616c616e636520666f60008201527f722063616c6c0000000000000000000000000000000000000000000000000000602082015250565b60006152bd602683613f1f565b91506152c882615261565b604082019050919050565b600060208201905081810360008301526152ec816152b0565b9050919050565b7f416464726573733a2063616c6c20746f206e6f6e2d636f6e7472616374000000600082015250565b6000615329601d83613f1f565b9150615334826152f3565b602082019050919050565b600060208201905081810360008301526153588161531c565b9050919050565b600081519050919050565b600081905092915050565b60006153808261535f565b61538a818561536a565b935061539a8185602086016139de565b80840191505092915050565b60006153b28284615375565b91508190509291505056fe5361666545524332303a206c6f772d6c6576656c2063616c6c206661696c656420736166654465637265617365416c6c6f77616e6365a264697066735822122034a82b74c34371a9ce4531ad5be8bb44cab14f2e32152c698a2508021a54cb7464736f6c63430008130033",
			"opcodes": "PUSH1 0x80 PUSH1 0x40 MSTORE CALLVALUE DUP1 ISZERO PUSH2 0x10 JUMPI PUSH1 0x0 DUP1 REVERT JUMPDEST POP CALLER PUSH1 0x0 DUP1 PUSH2 0x100 EXP DUP2 SLOAD DUP2 PUSH20 0xFFFFFFFFFFFFFFFFFFFFFFFFFFFFFFFFFFFFFFFF MUL NOT AND SWAP1 DUP4 PUSH20 0xFFFFFFFFFFFFFFFFFFFFFFFFFFFFFFFFFFFFFFFF AND MUL OR SWAP1 SSTORE POP PUSH1 0x0 DUP1 SLOAD SWAP1 PUSH2 0x100 EXP SWAP1 DIV PUSH20 0xFFFFFFFFFFFFFFFFFFFFFFFFFFFFFFFFFFFFFFFF AND PUSH20 0xFFFFFFFFFFFFFFFFFFFFFFFFFFFFFFFFFFFFFFFF AND PUSH1 0x0 PUSH20 0xFFFFFFFFFFFFFFFFFFFFFFFFFFFFFFFFFFFFFFFF AND PUSH32 0x342827C97908E5E2F71151C08502A66D44B6F758E3AC2F1DE95F02EB95F0A735 PUSH1 0x40 MLOAD PUSH1 0x40 MLOAD DUP1 SWAP2 SUB SWAP1 LOG3 PUSH2 0x5429 DUP1 PUSH2 0xDB PUSH1 0x0 CODECOPY PUSH1 0x0 RETURN INVALID PUSH1 0x80 PUSH1 0x40 MSTORE CALLVALUE DUP1 ISZERO PUSH2 0x10 JUMPI PUSH1 0x0 DUP1 REVERT JUMPDEST POP PUSH1 0x4 CALLDATASIZE LT PUSH2 0x121 JUMPI PUSH1 0x0 CALLDATALOAD PUSH1 0xE0 SHR DUP1 PUSH4 0x7A3C666D GT PUSH2 0xAD JUMPI DUP1 PUSH4 0xB0345A56 GT PUSH2 0x71 JUMPI DUP1 PUSH4 0xB0345A56 EQ PUSH2 0x2F0 JUMPI DUP1 PUSH4 0xB03F15C4 EQ PUSH2 0x30C JUMPI DUP1 PUSH4 0xB9EE201D EQ PUSH2 0x328 JUMPI DUP1 PUSH4 0xC5019213 EQ PUSH2 0x344 JUMPI DUP1 PUSH4 0xD4E93292 EQ PUSH2 0x360 JUMPI PUSH2 0x121 JUMP JUMPDEST DUP1 PUSH4 0x7A3C666D EQ PUSH2 0x260 JUMPI DUP1 PUSH4 0x893D20E8 EQ PUSH2 0x27C JUMPI DUP1 PUSH4 0x9E1A4D19 EQ PUSH2 0x29A JUMPI DUP1 PUSH4 0xA6F9DAE1 EQ PUSH2 0x2B8 JUMPI DUP1 PUSH4 0xADB06414 EQ PUSH2 0x2D4 JUMPI PUSH2 0x121 JUMP JUMPDEST DUP1 PUSH4 0x20215DC4 GT PUSH2 0xF4 JUMPI DUP1 PUSH4 0x20215DC4 EQ PUSH2 0x1AC JUMPI DUP1 PUSH4 0x28BE8E73 EQ PUSH2 0x1DC JUMPI DUP1 PUSH4 0x47CE1F7E EQ PUSH2 0x1F8 JUMPI DUP1 PUSH4 0x5CE1AD30 EQ PUSH2 0x214 JUMPI DUP1 PUSH4 0x6441F9D0 EQ PUSH2 0x230 JUMPI PUSH2 0x121 JUMP JUMPDEST DUP1 PUSH4 0x10FE9AE8 EQ PUSH2 0x126 JUMPI DUP1 PUSH4 0x13953881 EQ PUSH2 0x144 JUMPI DUP1 PUSH4 0x144FA6D7 EQ PUSH2 0x160 JUMPI DUP1 PUSH4 0x1D3BC3A6 EQ PUSH2 0x17C JUMPI JUMPDEST PUSH1 0x0 DUP1 REVERT JUMPDEST PUSH2 0x12E PUSH2 0x36A JUMP JUMPDEST PUSH1 0x40 MLOAD PUSH2 0x13B SWAP2 SWAP1 PUSH2 0x3719 JUMP JUMPDEST PUSH1 0x40 MLOAD DUP1 SWAP2 SUB SWAP1 RETURN JUMPDEST PUSH2 0x15E PUSH1 0x4 DUP1 CALLDATASIZE SUB DUP2 ADD SWAP1 PUSH2 0x159 SWAP2 SWAP1 PUSH2 0x38C4 JUMP JUMPDEST PUSH2 0x394 JUMP JUMPDEST STOP JUMPDEST PUSH2 0x17A PUSH1 0x4 DUP1 CALLDATASIZE SUB DUP2 ADD SWAP1 PUSH2 0x175 SWAP2 SWAP1 PUSH2 0x394C JUMP JUMPDEST PUSH2 0x7C7 JUMP JUMPDEST STOP JUMPDEST PUSH2 0x196 PUSH1 0x4 DUP1 CALLDATASIZE SUB DUP2 ADD SWAP1 PUSH2 0x191 SWAP2 SWAP1 PUSH2 0x3979 JUMP JUMPDEST PUSH2 0x80B JUMP JUMPDEST PUSH1 0x40 MLOAD PUSH2 0x1A3 SWAP2 SWAP1 PUSH2 0x3B7E JUMP JUMPDEST PUSH1 0x40 MLOAD DUP1 SWAP2 SUB SWAP1 RETURN JUMPDEST PUSH2 0x1C6 PUSH1 0x4 DUP1 CALLDATASIZE SUB DUP2 ADD SWAP1 PUSH2 0x1C1 SWAP2 SWAP1 PUSH2 0x3BA0 JUMP JUMPDEST PUSH2 0x9DA JUMP JUMPDEST PUSH1 0x40 MLOAD PUSH2 0x1D3 SWAP2 SWAP1 PUSH2 0x3CD6 JUMP JUMPDEST PUSH1 0x40 MLOAD DUP1 SWAP2 SUB SWAP1 RETURN JUMPDEST PUSH2 0x1F6 PUSH1 0x4 DUP1 CALLDATASIZE SUB DUP2 ADD SWAP1 PUSH2 0x1F1 SWAP2 SWAP1 PUSH2 0x3CF8 JUMP JUMPDEST PUSH2 0xB98 JUMP JUMPDEST STOP JUMPDEST PUSH2 0x212 PUSH1 0x4 DUP1 CALLDATASIZE SUB DUP2 ADD SWAP1 PUSH2 0x20D SWAP2 SWAP1 PUSH2 0x3D93 JUMP JUMPDEST PUSH2 0x120D JUMP JUMPDEST STOP JUMPDEST PUSH2 0x22E PUSH1 0x4 DUP1 CALLDATASIZE SUB DUP2 ADD SWAP1 PUSH2 0x229 SWAP2 SWAP1 PUSH2 0x394C JUMP JUMPDEST PUSH2 0x15D8 JUMP JUMPDEST STOP JUMPDEST PUSH2 0x24A PUSH1 0x4 DUP1 CALLDATASIZE SUB DUP2 ADD SWAP1 PUSH2 0x245 SWAP2 SWAP1 PUSH2 0x3979 JUMP JUMPDEST PUSH2 0x16C1 JUMP JUMPDEST PUSH1 0x40 MLOAD PUSH2 0x257 SWAP2 SWAP1 PUSH2 0x3B7E JUMP JUMPDEST PUSH1 0x40 MLOAD DUP1 SWAP2 SUB SWAP1 RETURN JUMPDEST PUSH2 0x27A PUSH1 0x4 DUP1 CALLDATASIZE SUB DUP2 ADD SWAP1 PUSH2 0x275 SWAP2 SWAP1 PUSH2 0x38C4 JUMP JUMPDEST PUSH2 0x188A JUMP JUMPDEST STOP JUMPDEST PUSH2 0x284 PUSH2 0x2028 JUMP JUMPDEST PUSH1 0x40 MLOAD PUSH2 0x291 SWAP2 SWAP1 PUSH2 0x3719 JUMP JUMPDEST PUSH1 0x40 MLOAD DUP1 SWAP2 SUB SWAP1 RETURN JUMPDEST PUSH2 0x2A2 PUSH2 0x2051 JUMP JUMPDEST PUSH1 0x40 MLOAD PUSH2 0x2AF SWAP2 SWAP1 PUSH2 0x3DFE JUMP JUMPDEST PUSH1 0x40 MLOAD DUP1 SWAP2 SUB SWAP1 RETURN JUMPDEST PUSH2 0x2D2 PUSH1 0x4 DUP1 CALLDATASIZE SUB DUP2 ADD SWAP1 PUSH2 0x2CD SWAP2 SWAP1 PUSH2 0x394C JUMP JUMPDEST PUSH2 0x21EB JUMP JUMPDEST STOP JUMPDEST PUSH2 0x2EE PUSH1 0x4 DUP1 CALLDATASIZE SUB DUP2 ADD SWAP1 PUSH2 0x2E9 SWAP2 SWAP1 PUSH2 0x394C JUMP JUMPDEST PUSH2 0x2336 JUMP JUMPDEST STOP JUMPDEST PUSH2 0x30A PUSH1 0x4 DUP1 CALLDATASIZE SUB DUP2 ADD SWAP1 PUSH2 0x305 SWAP2 SWAP1 PUSH2 0x3979 JUMP JUMPDEST PUSH2 0x241F JUMP JUMPDEST STOP JUMPDEST PUSH2 0x326 PUSH1 0x4 DUP1 CALLDATASIZE SUB DUP2 ADD SWAP1 PUSH2 0x321 SWAP2 SWAP1 PUSH2 0x3979 JUMP JUMPDEST PUSH2 0x2824 JUMP JUMPDEST STOP JUMPDEST PUSH2 0x342 PUSH1 0x4 DUP1 CALLDATASIZE SUB DUP2 ADD SWAP1 PUSH2 0x33D SWAP2 SWAP1 PUSH2 0x3E19 JUMP JUMPDEST PUSH2 0x2B69 JUMP JUMPDEST STOP JUMPDEST PUSH2 0x35E PUSH1 0x4 DUP1 CALLDATASIZE SUB DUP2 ADD SWAP1 PUSH2 0x359 SWAP2 SWAP1 PUSH2 0x3EB0 JUMP JUMPDEST PUSH2 0x2E65 JUMP JUMPDEST STOP JUMPDEST PUSH2 0x368 PUSH2 0x2F2B JUMP JUMPDEST STOP JUMPDEST PUSH1 0x0 PUSH1 0x1 PUSH1 0x0 SWAP1 SLOAD SWAP1 PUSH2 0x100 EXP SWAP1 DIV PUSH20 0xFFFFFFFFFFFFFFFFFFFFFFFFFFFFFFFFFFFFFFFF AND SWAP1 POP SWAP1 JUMP JUMPDEST PUSH1 0x0 PUSH20 0xFFFFFFFFFFFFFFFFFFFFFFFFFFFFFFFFFFFFFFFF AND PUSH1 0x1 PUSH1 0x0 SWAP1 SLOAD SWAP1 PUSH2 0x100 EXP SWAP1 DIV PUSH20 0xFFFFFFFFFFFFFFFFFFFFFFFFFFFFFFFFFFFFFFFF AND PUSH20 0xFFFFFFFFFFFFFFFFFFFFFFFFFFFFFFFFFFFFFFFF AND SUB PUSH2 0x425 JUMPI PUSH1 0x40 MLOAD PUSH32 0x8C379A000000000000000000000000000000000000000000000000000000000 DUP2 MSTORE PUSH1 0x4 ADD PUSH2 0x41C SWAP1 PUSH2 0x3F7C JUMP JUMPDEST PUSH1 0x40 MLOAD DUP1 SWAP2 SUB SWAP1 REVERT JUMPDEST PUSH1 0x0 PUSH1 0x2 DUP4 PUSH1 0x40 MLOAD PUSH2 0x437 SWAP2 SWAP1 PUSH2 0x3FD8 JUMP JUMPDEST SWAP1 DUP2 MSTORE PUSH1 0x20 ADD PUSH1 0x40 MLOAD DUP1 SWAP2 SUB SWAP1 KECCAK256 PUSH1 0x2 ADD SLOAD EQ PUSH2 0x489 JUMPI PUSH1 0x40 MLOAD PUSH32 0x8C379A000000000000000000000000000000000000000000000000000000000 DUP2 MSTORE PUSH1 0x4 ADD PUSH2 0x480 SWAP1 PUSH2 0x403B JUMP JUMPDEST PUSH1 0x40 MLOAD DUP1 SWAP2 SUB SWAP1 REVERT JUMPDEST PUSH1 0x0 PUSH20 0xFFFFFFFFFFFFFFFFFFFFFFFFFFFFFFFFFFFFFFFF AND PUSH1 0x2 DUP4 PUSH1 0x40 MLOAD PUSH2 0x4B1 SWAP2 SWAP1 PUSH2 0x3FD8 JUMP JUMPDEST SWAP1 DUP2 MSTORE PUSH1 0x20 ADD PUSH1 0x40 MLOAD DUP1 SWAP2 SUB SWAP1 KECCAK256 PUSH1 0x1 ADD PUSH1 0x0 SWAP1 SLOAD SWAP1 PUSH2 0x100 EXP SWAP1 DIV PUSH20 0xFFFFFFFFFFFFFFFFFFFFFFFFFFFFFFFFFFFFFFFF AND PUSH20 0xFFFFFFFFFFFFFFFFFFFFFFFFFFFFFFFFFFFFFFFF AND EQ PUSH2 0x539 JUMPI PUSH1 0x40 MLOAD PUSH32 0x8C379A000000000000000000000000000000000000000000000000000000000 DUP2 MSTORE PUSH1 0x4 ADD PUSH2 0x530 SWAP1 PUSH2 0x40A7 JUMP JUMPDEST PUSH1 0x40 MLOAD DUP1 SWAP2 SUB SWAP1 REVERT JUMPDEST PUSH1 0x0 PUSH1 0x2 DUP4 PUSH1 0x40 MLOAD PUSH2 0x54B SWAP2 SWAP1 PUSH2 0x3FD8 JUMP JUMPDEST SWAP1 DUP2 MSTORE PUSH1 0x20 ADD PUSH1 0x40 MLOAD DUP1 SWAP2 SUB SWAP1 KECCAK256 PUSH1 0x8 ADD SLOAD GT PUSH2 0x59D JUMPI PUSH1 0x40 MLOAD PUSH32 0x8C379A000000000000000000000000000000000000000000000000000000000 DUP2 MSTORE PUSH1 0x4 ADD PUSH2 0x594 SWAP1 PUSH2 0x4139 JUMP JUMPDEST PUSH1 0x40 MLOAD DUP1 SWAP2 SUB SWAP1 REVERT JUMPDEST PUSH1 0x0 PUSH1 0x2 DUP4 PUSH1 0x40 MLOAD PUSH2 0x5AF SWAP2 SWAP1 PUSH2 0x3FD8 JUMP JUMPDEST SWAP1 DUP2 MSTORE PUSH1 0x20 ADD PUSH1 0x40 MLOAD DUP1 SWAP2 SUB SWAP1 KECCAK256 PUSH1 0x3 ADD SLOAD GT PUSH2 0x601 JUMPI PUSH1 0x40 MLOAD PUSH32 0x8C379A000000000000000000000000000000000000000000000000000000000 DUP2 MSTORE PUSH1 0x4 ADD PUSH2 0x5F8 SWAP1 PUSH2 0x41CB JUMP JUMPDEST PUSH1 0x40 MLOAD DUP1 SWAP2 SUB SWAP1 REVERT JUMPDEST PUSH8 0xDE0B6B3A7640000 DUP2 GT PUSH2 0x64B JUMPI PUSH1 0x40 MLOAD PUSH32 0x8C379A000000000000000000000000000000000000000000000000000000000 DUP2 MSTORE PUSH1 0x4 ADD PUSH2 0x642 SWAP1 PUSH2 0x4237 JUMP JUMPDEST PUSH1 0x40 MLOAD DUP1 SWAP2 SUB SWAP1 REVERT JUMPDEST PUSH2 0x69A CALLER ADDRESS DUP4 PUSH1 0x1 PUSH1 0x0 SWAP1 SLOAD SWAP1 PUSH2 0x100 EXP SWAP1 DIV PUSH20 0xFFFFFFFFFFFFFFFFFFFFFFFFFFFFFFFFFFFFFFFF AND PUSH20 0xFFFFFFFFFFFFFFFFFFFFFFFFFFFFFFFFFFFFFFFF AND PUSH2 0x2F95 SWAP1 SWAP4 SWAP3 SWAP2 SWAP1 PUSH4 0xFFFFFFFF AND JUMP JUMPDEST DUP2 PUSH1 0x2 DUP4 PUSH1 0x40 MLOAD PUSH2 0x6AB SWAP2 SWAP1 PUSH2 0x3FD8 JUMP JUMPDEST SWAP1 DUP2 MSTORE PUSH1 0x20 ADD PUSH1 0x40 MLOAD DUP1 SWAP2 SUB SWAP1 KECCAK256 PUSH1 0x0 ADD SWAP1 DUP2 PUSH2 0x6C8 SWAP2 SWAP1 PUSH2 0x4463 JUMP JUMPDEST POP DUP1 PUSH1 0x2 DUP4 PUSH1 0x40 MLOAD PUSH2 0x6DA SWAP2 SWAP1 PUSH2 0x3FD8 JUMP JUMPDEST SWAP1 DUP2 MSTORE PUSH1 0x20 ADD PUSH1 0x40 MLOAD DUP1 SWAP2 SUB SWAP1 KECCAK256 PUSH1 0x2 ADD DUP2 SWAP1 SSTORE POP CALLER PUSH1 0x2 DUP4 PUSH1 0x40 MLOAD PUSH2 0x700 SWAP2 SWAP1 PUSH2 0x3FD8 JUMP JUMPDEST SWAP1 DUP2 MSTORE PUSH1 0x20 ADD PUSH1 0x40 MLOAD DUP1 SWAP2 SUB SWAP1 KECCAK256 PUSH1 0x1 ADD PUSH1 0x0 PUSH2 0x100 EXP DUP2 SLOAD DUP2 PUSH20 0xFFFFFFFFFFFFFFFFFFFFFFFFFFFFFFFFFFFFFFFF MUL NOT AND SWAP1 DUP4 PUSH20 0xFFFFFFFFFFFFFFFFFFFFFFFFFFFFFFFFFFFFFFFF AND MUL OR SWAP1 SSTORE POP PUSH1 0x1 PUSH1 0x2 DUP4 PUSH1 0x40 MLOAD PUSH2 0x761 SWAP2 SWAP1 PUSH2 0x3FD8 JUMP JUMPDEST SWAP1 DUP2 MSTORE PUSH1 0x20 ADD PUSH1 0x40 MLOAD DUP1 SWAP2 SUB SWAP1 KECCAK256 PUSH1 0x4 ADD PUSH1 0x1 PUSH2 0x100 EXP DUP2 SLOAD DUP2 PUSH1 0xFF MUL NOT AND SWAP1 DUP4 ISZERO ISZERO MUL OR SWAP1 SSTORE POP PUSH1 0x0 PUSH1 0x2 DUP4 PUSH1 0x40 MLOAD PUSH2 0x79B SWAP2 SWAP1 PUSH2 0x3FD8 JUMP JUMPDEST SWAP1 DUP2 MSTORE PUSH1 0x20 ADD PUSH1 0x40 MLOAD DUP1 SWAP2 SUB SWAP1 KECCAK256 PUSH1 0x4 ADD PUSH1 0x0 PUSH2 0x100 EXP DUP2 SLOAD DUP2 PUSH1 0xFF MUL NOT AND SWAP1 DUP4 ISZERO ISZERO MUL OR SWAP1 SSTORE POP POP POP JUMP JUMPDEST DUP1 PUSH1 0x1 PUSH1 0x0 PUSH2 0x100 EXP DUP2 SLOAD DUP2 PUSH20 0xFFFFFFFFFFFFFFFFFFFFFFFFFFFFFFFFFFFFFFFF MUL NOT AND SWAP1 DUP4 PUSH20 0xFFFFFFFFFFFFFFFFFFFFFFFFFFFFFFFFFFFFFFFF AND MUL OR SWAP1 SSTORE POP POP JUMP JUMPDEST PUSH2 0x813 PUSH2 0x35FC JUMP JUMPDEST PUSH1 0x0 PUSH1 0x2 DUP4 PUSH1 0x40 MLOAD PUSH2 0x825 SWAP2 SWAP1 PUSH2 0x3FD8 JUMP JUMPDEST SWAP1 DUP2 MSTORE PUSH1 0x20 ADD PUSH1 0x40 MLOAD DUP1 SWAP2 SUB SWAP1 KECCAK256 PUSH1 0x40 MLOAD DUP1 PUSH2 0x180 ADD PUSH1 0x40 MSTORE SWAP1 DUP2 PUSH1 0x0 DUP3 ADD DUP1 SLOAD PUSH2 0x84F SWAP1 PUSH2 0x4286 JUMP JUMPDEST DUP1 PUSH1 0x1F ADD PUSH1 0x20 DUP1 SWAP2 DIV MUL PUSH1 0x20 ADD PUSH1 0x40 MLOAD SWAP1 DUP2 ADD PUSH1 0x40 MSTORE DUP1 SWAP3 SWAP2 SWAP1 DUP2 DUP2 MSTORE PUSH1 0x20 ADD DUP3 DUP1 SLOAD PUSH2 0x87B SWAP1 PUSH2 0x4286 JUMP JUMPDEST DUP1 ISZERO PUSH2 0x8C8 JUMPI DUP1 PUSH1 0x1F LT PUSH2 0x89D JUMPI PUSH2 0x100 DUP1 DUP4 SLOAD DIV MUL DUP4 MSTORE SWAP2 PUSH1 0x20 ADD SWAP2 PUSH2 0x8C8 JUMP JUMPDEST DUP3 ADD SWAP2 SWAP1 PUSH1 0x0 MSTORE PUSH1 0x20 PUSH1 0x0 KECCAK256 SWAP1 JUMPDEST DUP2 SLOAD DUP2 MSTORE SWAP1 PUSH1 0x1 ADD SWAP1 PUSH1 0x20 ADD DUP1 DUP4 GT PUSH2 0x8AB JUMPI DUP3 SWAP1 SUB PUSH1 0x1F AND DUP3 ADD SWAP2 JUMPDEST POP POP POP POP POP DUP2 MSTORE PUSH1 0x20 ADD PUSH1 0x1 DUP3 ADD PUSH1 0x0 SWAP1 SLOAD SWAP1 PUSH2 0x100 EXP SWAP1 DIV PUSH20 0xFFFFFFFFFFFFFFFFFFFFFFFFFFFFFFFFFFFFFFFF AND PUSH20 0xFFFFFFFFFFFFFFFFFFFFFFFFFFFFFFFFFFFFFFFF AND PUSH20 0xFFFFFFFFFFFFFFFFFFFFFFFFFFFFFFFFFFFFFFFF AND DUP2 MSTORE PUSH1 0x20 ADD PUSH1 0x2 DUP3 ADD SLOAD DUP2 MSTORE PUSH1 0x20 ADD PUSH1 0x3 DUP3 ADD SLOAD DUP2 MSTORE PUSH1 0x20 ADD PUSH1 0x4 DUP3 ADD PUSH1 0x0 SWAP1 SLOAD SWAP1 PUSH2 0x100 EXP SWAP1 DIV PUSH1 0xFF AND ISZERO ISZERO ISZERO ISZERO DUP2 MSTORE PUSH1 0x20 ADD PUSH1 0x4 DUP3 ADD PUSH1 0x1 SWAP1 SLOAD SWAP1 PUSH2 0x100 EXP SWAP1 DIV PUSH1 0xFF AND ISZERO ISZERO ISZERO ISZERO DUP2 MSTORE PUSH1 0x20 ADD PUSH1 0x4 DUP3 ADD PUSH1 0x2 SWAP1 SLOAD SWAP1 PUSH2 0x100 EXP SWAP1 DIV PUSH1 0xFF AND ISZERO ISZERO ISZERO ISZERO DUP2 MSTORE PUSH1 0x20 ADD PUSH1 0x5 DUP3 ADD SLOAD DUP2 MSTORE PUSH1 0x20 ADD PUSH1 0x6 DUP3 ADD PUSH1 0x0 SWAP1 SLOAD SWAP1 PUSH2 0x100 EXP SWAP1 DIV PUSH1 0xFF AND ISZERO ISZERO ISZERO ISZERO DUP2 MSTORE PUSH1 0x20 ADD PUSH1 0x7 DUP3 ADD SLOAD DUP2 MSTORE PUSH1 0x20 ADD PUSH1 0x8 DUP3 ADD SLOAD DUP2 MSTORE PUSH1 0x20 ADD PUSH1 0x9 DUP3 ADD SLOAD DUP2 MSTORE POP POP SWAP1 POP DUP1 SWAP2 POP POP SWAP2 SWAP1 POP JUMP JUMPDEST PUSH2 0x9E2 PUSH2 0x367B JUMP JUMPDEST PUSH1 0x0 PUSH1 0x3 DUP5 PUSH1 0x40 MLOAD PUSH2 0x9F4 SWAP2 SWAP1 PUSH2 0x3FD8 JUMP JUMPDEST SWAP1 DUP2 MSTORE PUSH1 0x20 ADD PUSH1 0x40 MLOAD DUP1 SWAP2 SUB SWAP1 KECCAK256 PUSH1 0x0 DUP5 PUSH20 0xFFFFFFFFFFFFFFFFFFFFFFFFFFFFFFFFFFFFFFFF AND PUSH20 0xFFFFFFFFFFFFFFFFFFFFFFFFFFFFFFFFFFFFFFFF AND DUP2 MSTORE PUSH1 0x20 ADD SWAP1 DUP2 MSTORE PUSH1 0x20 ADD PUSH1 0x0 KECCAK256 PUSH1 0x40 MLOAD DUP1 PUSH2 0x140 ADD PUSH1 0x40 MSTORE SWAP1 DUP2 PUSH1 0x0 DUP3 ADD SLOAD DUP2 MSTORE PUSH1 0x20 ADD PUSH1 0x1 DUP3 ADD SLOAD DUP2 MSTORE PUSH1 0x20 ADD PUSH1 0x2 DUP3 ADD PUSH1 0x0 SWAP1 SLOAD SWAP1 PUSH2 0x100 EXP SWAP1 DIV PUSH1 0xFF AND ISZERO ISZERO ISZERO ISZERO DUP2 MSTORE PUSH1 0x20 ADD PUSH1 0x2 DUP3 ADD PUSH1 0x1 SWAP1 SLOAD SWAP1 PUSH2 0x100 EXP SWAP1 DIV PUSH1 0xFF AND ISZERO ISZERO ISZERO ISZERO DUP2 MSTORE PUSH1 0x20 ADD PUSH1 0x2 DUP3 ADD PUSH1 0x2 SWAP1 SLOAD SWAP1 PUSH2 0x100 EXP SWAP1 DIV PUSH1 0xFF AND ISZERO ISZERO ISZERO ISZERO DUP2 MSTORE PUSH1 0x20 ADD PUSH1 0x2 DUP3 ADD PUSH1 0x3 SWAP1 SLOAD SWAP1 PUSH2 0x100 EXP SWAP1 DIV PUSH1 0xFF AND ISZERO ISZERO ISZERO ISZERO DUP2 MSTORE PUSH1 0x20 ADD PUSH1 0x2 DUP3 ADD PUSH1 0x4 SWAP1 SLOAD SWAP1 PUSH2 0x100 EXP SWAP1 DIV PUSH1 0xFF AND ISZERO ISZERO ISZERO ISZERO DUP2 MSTORE PUSH1 0x20 ADD PUSH1 0x3 DUP3 ADD SLOAD DUP2 MSTORE PUSH1 0x20 ADD PUSH1 0x4 DUP3 ADD SLOAD DUP2 MSTORE PUSH1 0x20 ADD PUSH1 0x5 DUP3 ADD DUP1 SLOAD PUSH2 0xB0A SWAP1 PUSH2 0x4286 JUMP JUMPDEST DUP1 PUSH1 0x1F ADD PUSH1 0x20 DUP1 SWAP2 DIV MUL PUSH1 0x20 ADD PUSH1 0x40 MLOAD SWAP1 DUP2 ADD PUSH1 0x40 MSTORE DUP1 SWAP3 SWAP2 SWAP1 DUP2 DUP2 MSTORE PUSH1 0x20 ADD DUP3 DUP1 SLOAD PUSH2 0xB36 SWAP1 PUSH2 0x4286 JUMP JUMPDEST DUP1 ISZERO PUSH2 0xB83 JUMPI DUP1 PUSH1 0x1F LT PUSH2 0xB58 JUMPI PUSH2 0x100 DUP1 DUP4 SLOAD DIV MUL DUP4 MSTORE SWAP2 PUSH1 0x20 ADD SWAP2 PUSH2 0xB83 JUMP JUMPDEST DUP3 ADD SWAP2 SWAP1 PUSH1 0x0 MSTORE PUSH1 0x20 PUSH1 0x0 KECCAK256 SWAP1 JUMPDEST DUP2 SLOAD DUP2 MSTORE SWAP1 PUSH1 0x1 ADD SWAP1 PUSH1 0x20 ADD DUP1 DUP4 GT PUSH2 0xB66 JUMPI DUP3 SWAP1 SUB PUSH1 0x1F AND DUP3 ADD SWAP2 JUMPDEST POP POP POP POP POP DUP2 MSTORE POP POP SWAP1 POP DUP1 SWAP2 POP POP SWAP3 SWAP2 POP POP JUMP JUMPDEST PUSH1 0x0 DUP1 SLOAD SWAP1 PUSH2 0x100 EXP SWAP1 DIV PUSH20 0xFFFFFFFFFFFFFFFFFFFFFFFFFFFFFFFFFFFFFFFF AND PUSH20 0xFFFFFFFFFFFFFFFFFFFFFFFFFFFFFFFFFFFFFFFF AND CALLER PUSH20 0xFFFFFFFFFFFFFFFFFFFFFFFFFFFFFFFFFFFFFFFF AND EQ PUSH2 0xC26 JUMPI PUSH1 0x40 MLOAD PUSH32 0x8C379A000000000000000000000000000000000000000000000000000000000 DUP2 MSTORE PUSH1 0x4 ADD PUSH2 0xC1D SWAP1 PUSH2 0x4581 JUMP JUMPDEST PUSH1 0x40 MLOAD DUP1 SWAP2 SUB SWAP1 REVERT JUMPDEST PUSH1 0x0 PUSH1 0x2 DUP5 PUSH1 0x40 MLOAD PUSH2 0xC38 SWAP2 SWAP1 PUSH2 0x3FD8 JUMP JUMPDEST SWAP1 DUP2 MSTORE PUSH1 0x20 ADD PUSH1 0x40 MLOAD DUP1 SWAP2 SUB SWAP1 KECCAK256 PUSH1 0x8 ADD SLOAD SWAP1 POP PUSH1 0x0 PUSH1 0x2 DUP6 PUSH1 0x40 MLOAD PUSH2 0xC5E SWAP2 SWAP1 PUSH2 0x3FD8 JUMP JUMPDEST SWAP1 DUP2 MSTORE PUSH1 0x20 ADD PUSH1 0x40 MLOAD DUP1 SWAP2 SUB SWAP1 KECCAK256 PUSH1 0x1 ADD PUSH1 0x0 SWAP1 SLOAD SWAP1 PUSH2 0x100 EXP SWAP1 DIV PUSH20 0xFFFFFFFFFFFFFFFFFFFFFFFFFFFFFFFFFFFFFFFF AND SWAP1 POP DUP3 PUSH20 0xFFFFFFFFFFFFFFFFFFFFFFFFFFFFFFFFFFFFFFFF AND DUP2 PUSH20 0xFFFFFFFFFFFFFFFFFFFFFFFFFFFFFFFFFFFFFFFF AND SUB PUSH2 0xD00 JUMPI PUSH1 0x40 MLOAD PUSH32 0x8C379A000000000000000000000000000000000000000000000000000000000 DUP2 MSTORE PUSH1 0x4 ADD PUSH2 0xCF7 SWAP1 PUSH2 0x4613 JUMP JUMPDEST PUSH1 0x40 MLOAD DUP1 SWAP2 SUB SWAP1 REVERT JUMPDEST PUSH2 0xD47 PUSH2 0xD17 PUSH1 0x1 DUP5 PUSH2 0x301E SWAP1 SWAP2 SWAP1 PUSH4 0xFFFFFFFF AND JUMP JUMPDEST PUSH1 0x2 DUP8 PUSH1 0x40 MLOAD PUSH2 0xD27 SWAP2 SWAP1 PUSH2 0x3FD8 JUMP JUMPDEST SWAP1 DUP2 MSTORE PUSH1 0x20 ADD PUSH1 0x40 MLOAD DUP1 SWAP2 SUB SWAP1 KECCAK256 PUSH1 0x2 ADD SLOAD PUSH2 0x3068 SWAP1 SWAP2 SWAP1 PUSH4 0xFFFFFFFF AND JUMP JUMPDEST PUSH2 0xD7B DUP6 PUSH1 0x2 DUP9 PUSH1 0x40 MLOAD PUSH2 0xD5B SWAP2 SWAP1 PUSH2 0x3FD8 JUMP JUMPDEST SWAP1 DUP2 MSTORE PUSH1 0x20 ADD PUSH1 0x40 MLOAD DUP1 SWAP2 SUB SWAP1 KECCAK256 PUSH1 0x5 ADD SLOAD PUSH2 0x30B2 SWAP1 SWAP2 SWAP1 PUSH4 0xFFFFFFFF AND JUMP JUMPDEST GT ISZERO PUSH2 0xDBC JUMPI PUSH1 0x40 MLOAD PUSH32 0x8C379A000000000000000000000000000000000000000000000000000000000 DUP2 MSTORE PUSH1 0x4 ADD PUSH2 0xDB3 SWAP1 PUSH2 0x46CB JUMP JUMPDEST PUSH1 0x40 MLOAD DUP1 SWAP2 SUB SWAP1 REVERT JUMPDEST PUSH1 0x0 DUP5 GT PUSH2 0xDFF JUMPI PUSH1 0x40 MLOAD PUSH32 0x8C379A000000000000000000000000000000000000000000000000000000000 DUP2 MSTORE PUSH1 0x4 ADD PUSH2 0xDF6 SWAP1 PUSH2 0x475D JUMP JUMPDEST PUSH1 0x40 MLOAD DUP1 SWAP2 SUB SWAP1 REVERT JUMPDEST PUSH1 0x0 PUSH1 0x3 DUP7 PUSH1 0x40 MLOAD PUSH2 0xE11 SWAP2 SWAP1 PUSH2 0x3FD8 JUMP JUMPDEST SWAP1 DUP2 MSTORE PUSH1 0x20 ADD PUSH1 0x40 MLOAD DUP1 SWAP2 SUB SWAP1 KECCAK256 PUSH1 0x0 DUP6 PUSH20 0xFFFFFFFFFFFFFFFFFFFFFFFFFFFFFFFFFFFFFFFF AND PUSH20 0xFFFFFFFFFFFFFFFFFFFFFFFFFFFFFFFFFFFFFFFF AND DUP2 MSTORE PUSH1 0x20 ADD SWAP1 DUP2 MSTORE PUSH1 0x20 ADD PUSH1 0x0 KECCAK256 PUSH1 0x0 ADD SLOAD SUB PUSH2 0xE9F JUMPI PUSH1 0x1 PUSH1 0x2 DUP7 PUSH1 0x40 MLOAD PUSH2 0xE77 SWAP2 SWAP1 PUSH2 0x3FD8 JUMP JUMPDEST SWAP1 DUP2 MSTORE PUSH1 0x20 ADD PUSH1 0x40 MLOAD DUP1 SWAP2 SUB SWAP1 KECCAK256 PUSH1 0x9 ADD PUSH1 0x0 DUP3 DUP3 SLOAD PUSH2 0xE97 SWAP2 SWAP1 PUSH2 0x47AC JUMP JUMPDEST SWAP3 POP POP DUP2 SWAP1 SSTORE POP JUMPDEST DUP4 PUSH1 0x3 DUP7 PUSH1 0x40 MLOAD PUSH2 0xEB0 SWAP2 SWAP1 PUSH2 0x3FD8 JUMP JUMPDEST SWAP1 DUP2 MSTORE PUSH1 0x20 ADD PUSH1 0x40 MLOAD DUP1 SWAP2 SUB SWAP1 KECCAK256 PUSH1 0x0 DUP6 PUSH20 0xFFFFFFFFFFFFFFFFFFFFFFFFFFFFFFFFFFFFFFFF AND PUSH20 0xFFFFFFFFFFFFFFFFFFFFFFFFFFFFFFFFFFFFFFFF AND DUP2 MSTORE PUSH1 0x20 ADD SWAP1 DUP2 MSTORE PUSH1 0x20 ADD PUSH1 0x0 KECCAK256 PUSH1 0x0 ADD PUSH1 0x0 DUP3 DUP3 SLOAD PUSH2 0xF0D SWAP2 SWAP1 PUSH2 0x47AC JUMP JUMPDEST SWAP3 POP POP DUP2 SWAP1 SSTORE POP TIMESTAMP PUSH1 0x3 DUP7 PUSH1 0x40 MLOAD PUSH2 0xF25 SWAP2 SWAP1 PUSH2 0x3FD8 JUMP JUMPDEST SWAP1 DUP2 MSTORE PUSH1 0x20 ADD PUSH1 0x40 MLOAD DUP1 SWAP2 SUB SWAP1 KECCAK256 PUSH1 0x0 DUP6 PUSH20 0xFFFFFFFFFFFFFFFFFFFFFFFFFFFFFFFFFFFFFFFF AND PUSH20 0xFFFFFFFFFFFFFFFFFFFFFFFFFFFFFFFFFFFFFFFF AND DUP2 MSTORE PUSH1 0x20 ADD SWAP1 DUP2 MSTORE PUSH1 0x20 ADD PUSH1 0x0 KECCAK256 PUSH1 0x1 ADD DUP2 SWAP1 SSTORE POP PUSH1 0x0 PUSH1 0x3 DUP7 PUSH1 0x40 MLOAD PUSH2 0xF89 SWAP2 SWAP1 PUSH2 0x3FD8 JUMP JUMPDEST SWAP1 DUP2 MSTORE PUSH1 0x20 ADD PUSH1 0x40 MLOAD DUP1 SWAP2 SUB SWAP1 KECCAK256 PUSH1 0x0 DUP6 PUSH20 0xFFFFFFFFFFFFFFFFFFFFFFFFFFFFFFFFFFFFFFFF AND PUSH20 0xFFFFFFFFFFFFFFFFFFFFFFFFFFFFFFFFFFFFFFFF AND DUP2 MSTORE PUSH1 0x20 ADD SWAP1 DUP2 MSTORE PUSH1 0x20 ADD PUSH1 0x0 KECCAK256 PUSH1 0x2 ADD PUSH1 0x1 PUSH2 0x100 EXP DUP2 SLOAD DUP2 PUSH1 0xFF MUL NOT AND SWAP1 DUP4 ISZERO ISZERO MUL OR SWAP1 SSTORE POP PUSH1 0x1 PUSH1 0x3 DUP7 PUSH1 0x40 MLOAD PUSH2 0x1000 SWAP2 SWAP1 PUSH2 0x3FD8 JUMP JUMPDEST SWAP1 DUP2 MSTORE PUSH1 0x20 ADD PUSH1 0x40 MLOAD DUP1 SWAP2 SUB SWAP1 KECCAK256 PUSH1 0x0 DUP6 PUSH20 0xFFFFFFFFFFFFFFFFFFFFFFFFFFFFFFFFFFFFFFFF AND PUSH20 0xFFFFFFFFFFFFFFFFFFFFFFFFFFFFFFFFFFFFFFFF AND DUP2 MSTORE PUSH1 0x20 ADD SWAP1 DUP2 MSTORE PUSH1 0x20 ADD PUSH1 0x0 KECCAK256 PUSH1 0x2 ADD PUSH1 0x4 PUSH2 0x100 EXP DUP2 SLOAD DUP2 PUSH1 0xFF MUL NOT AND SWAP1 DUP4 ISZERO ISZERO MUL OR SWAP1 SSTORE POP PUSH2 0x1078 DUP3 DUP6 PUSH2 0x3110 SWAP1 SWAP2 SWAP1 PUSH4 0xFFFFFFFF AND JUMP JUMPDEST PUSH1 0x3 DUP7 PUSH1 0x40 MLOAD PUSH2 0x1088 SWAP2 SWAP1 PUSH2 0x3FD8 JUMP JUMPDEST SWAP1 DUP2 MSTORE PUSH1 0x20 ADD PUSH1 0x40 MLOAD DUP1 SWAP2 SUB SWAP1 KECCAK256 PUSH1 0x0 DUP6 PUSH20 0xFFFFFFFFFFFFFFFFFFFFFFFFFFFFFFFFFFFFFFFF AND PUSH20 0xFFFFFFFFFFFFFFFFFFFFFFFFFFFFFFFFFFFFFFFF AND DUP2 MSTORE PUSH1 0x20 ADD SWAP1 DUP2 MSTORE PUSH1 0x20 ADD PUSH1 0x0 KECCAK256 PUSH1 0x3 ADD PUSH1 0x0 DUP3 DUP3 SLOAD PUSH2 0x10E5 SWAP2 SWAP1 PUSH2 0x47AC JUMP JUMPDEST SWAP3 POP POP DUP2 SWAP1 SSTORE POP PUSH1 0x1 PUSH1 0x3 DUP7 PUSH1 0x40 MLOAD PUSH2 0x10FE SWAP2 SWAP1 PUSH2 0x3FD8 JUMP JUMPDEST SWAP1 DUP2 MSTORE PUSH1 0x20 ADD PUSH1 0x40 MLOAD DUP1 SWAP2 SUB SWAP1 KECCAK256 PUSH1 0x0 DUP6 PUSH20 0xFFFFFFFFFFFFFFFFFFFFFFFFFFFFFFFFFFFFFFFF AND PUSH20 0xFFFFFFFFFFFFFFFFFFFFFFFFFFFFFFFFFFFFFFFF AND DUP2 MSTORE PUSH1 0x20 ADD SWAP1 DUP2 MSTORE PUSH1 0x20 ADD PUSH1 0x0 KECCAK256 PUSH1 0x4 ADD PUSH1 0x0 DUP3 DUP3 SLOAD PUSH2 0x115B SWAP2 SWAP1 PUSH2 0x47AC JUMP JUMPDEST SWAP3 POP POP DUP2 SWAP1 SSTORE POP DUP5 PUSH1 0x3 DUP7 PUSH1 0x40 MLOAD PUSH2 0x1173 SWAP2 SWAP1 PUSH2 0x3FD8 JUMP JUMPDEST SWAP1 DUP2 MSTORE PUSH1 0x20 ADD PUSH1 0x40 MLOAD DUP1 SWAP2 SUB SWAP1 KECCAK256 PUSH1 0x0 DUP6 PUSH20 0xFFFFFFFFFFFFFFFFFFFFFFFFFFFFFFFFFFFFFFFF AND PUSH20 0xFFFFFFFFFFFFFFFFFFFFFFFFFFFFFFFFFFFFFFFF AND DUP2 MSTORE PUSH1 0x20 ADD SWAP1 DUP2 MSTORE PUSH1 0x20 ADD PUSH1 0x0 KECCAK256 PUSH1 0x5 ADD SWAP1 DUP2 PUSH2 0x11CD SWAP2 SWAP1 PUSH2 0x4463 JUMP JUMPDEST POP DUP4 PUSH1 0x2 DUP7 PUSH1 0x40 MLOAD PUSH2 0x11DF SWAP2 SWAP1 PUSH2 0x3FD8 JUMP JUMPDEST SWAP1 DUP2 MSTORE PUSH1 0x20 ADD PUSH1 0x40 MLOAD DUP1 SWAP2 SUB SWAP1 KECCAK256 PUSH1 0x5 ADD PUSH1 0x0 DUP3 DUP3 SLOAD PUSH2 0x11FF SWAP2 SWAP1 PUSH2 0x47AC JUMP JUMPDEST SWAP3 POP POP DUP2 SWAP1 SSTORE POP POP POP POP POP POP JUMP JUMPDEST PUSH1 0x0 PUSH20 0xFFFFFFFFFFFFFFFFFFFFFFFFFFFFFFFFFFFFFFFF AND PUSH1 0x1 PUSH1 0x0 SWAP1 SLOAD SWAP1 PUSH2 0x100 EXP SWAP1 DIV PUSH20 0xFFFFFFFFFFFFFFFFFFFFFFFFFFFFFFFFFFFFFFFF AND PUSH20 0xFFFFFFFFFFFFFFFFFFFFFFFFFFFFFFFFFFFFFFFF AND SUB PUSH2 0x129E JUMPI PUSH1 0x40 MLOAD PUSH32 0x8C379A000000000000000000000000000000000000000000000000000000000 DUP2 MSTORE PUSH1 0x4 ADD PUSH2 0x1295 SWAP1 PUSH2 0x3F7C JUMP JUMPDEST PUSH1 0x40 MLOAD DUP1 SWAP2 SUB SWAP1 REVERT JUMPDEST PUSH1 0x1 ISZERO ISZERO PUSH1 0x5 PUSH1 0x0 CALLER PUSH20 0xFFFFFFFFFFFFFFFFFFFFFFFFFFFFFFFFFFFFFFFF AND PUSH20 0xFFFFFFFFFFFFFFFFFFFFFFFFFFFFFFFFFFFFFFFF AND DUP2 MSTORE PUSH1 0x20 ADD SWAP1 DUP2 MSTORE PUSH1 0x20 ADD PUSH1 0x0 KECCAK256 PUSH1 0x0 SWAP1 SLOAD SWAP1 PUSH2 0x100 EXP SWAP1 DIV PUSH1 0xFF AND ISZERO ISZERO EQ PUSH2 0x1331 JUMPI PUSH1 0x40 MLOAD PUSH32 0x8C379A000000000000000000000000000000000000000000000000000000000 DUP2 MSTORE PUSH1 0x4 ADD PUSH2 0x1328 SWAP1 PUSH2 0x4852 JUMP JUMPDEST PUSH1 0x40 MLOAD DUP1 SWAP2 SUB SWAP1 REVERT JUMPDEST PUSH1 0x0 PUSH20 0xFFFFFFFFFFFFFFFFFFFFFFFFFFFFFFFFFFFFFFFF AND PUSH1 0x2 DUP4 PUSH1 0x40 MLOAD PUSH2 0x1359 SWAP2 SWAP1 PUSH2 0x3FD8 JUMP JUMPDEST SWAP1 DUP2 MSTORE PUSH1 0x20 ADD PUSH1 0x40 MLOAD DUP1 SWAP2 SUB SWAP1 KECCAK256 PUSH1 0x1 ADD PUSH1 0x0 SWAP1 SLOAD SWAP1 PUSH2 0x100 EXP SWAP1 DIV PUSH20 0xFFFFFFFFFFFFFFFFFFFFFFFFFFFFFFFFFFFFFFFF AND PUSH20 0xFFFFFFFFFFFFFFFFFFFFFFFFFFFFFFFFFFFFFFFF AND SUB PUSH2 0x13E1 JUMPI PUSH1 0x40 MLOAD PUSH32 0x8C379A000000000000000000000000000000000000000000000000000000000 DUP2 MSTORE PUSH1 0x4 ADD PUSH2 0x13D8 SWAP1 PUSH2 0x48E4 JUMP JUMPDEST PUSH1 0x40 MLOAD DUP1 SWAP2 SUB SWAP1 REVERT JUMPDEST PUSH1 0x0 PUSH1 0x2 DUP4 PUSH1 0x40 MLOAD PUSH2 0x13F3 SWAP2 SWAP1 PUSH2 0x3FD8 JUMP JUMPDEST SWAP1 DUP2 MSTORE PUSH1 0x20 ADD PUSH1 0x40 MLOAD DUP1 SWAP2 SUB SWAP1 KECCAK256 PUSH1 0x2 ADD SLOAD GT PUSH2 0x1445 JUMPI PUSH1 0x40 MLOAD PUSH32 0x8C379A000000000000000000000000000000000000000000000000000000000 DUP2 MSTORE PUSH1 0x4 ADD PUSH2 0x143C SWAP1 PUSH2 0x4976 JUMP JUMPDEST PUSH1 0x40 MLOAD DUP1 SWAP2 SUB SWAP1 REVERT JUMPDEST PUSH1 0x1 PUSH1 0x2 DUP4 PUSH1 0x40 MLOAD PUSH2 0x1457 SWAP2 SWAP1 PUSH2 0x3FD8 JUMP JUMPDEST SWAP1 DUP2 MSTORE PUSH1 0x20 ADD PUSH1 0x40 MLOAD DUP1 SWAP2 SUB SWAP1 KECCAK256 PUSH1 0x4 ADD PUSH1 0x0 PUSH2 0x100 EXP DUP2 SLOAD DUP2 PUSH1 0xFF MUL NOT AND SWAP1 DUP4 ISZERO ISZERO MUL OR SWAP1 SSTORE POP DUP1 PUSH1 0x2 DUP4 PUSH1 0x40 MLOAD PUSH2 0x1490 SWAP2 SWAP1 PUSH2 0x3FD8 JUMP JUMPDEST SWAP1 DUP2 MSTORE PUSH1 0x20 ADD PUSH1 0x40 MLOAD DUP1 SWAP2 SUB SWAP1 KECCAK256 PUSH1 0x4 ADD PUSH1 0x2 PUSH2 0x100 EXP DUP2 SLOAD DUP2 PUSH1 0xFF MUL NOT AND SWAP1 DUP4 ISZERO ISZERO MUL OR SWAP1 SSTORE POP PUSH1 0x0 PUSH1 0x2 DUP4 PUSH1 0x40 MLOAD PUSH2 0x14CA SWAP2 SWAP1 PUSH2 0x3FD8 JUMP JUMPDEST SWAP1 DUP2 MSTORE PUSH1 0x20 ADD PUSH1 0x40 MLOAD DUP1 SWAP2 SUB SWAP1 KECCAK256 PUSH1 0x5 ADD SLOAD SWAP1 POP PUSH1 0x0 PUSH1 0x2 DUP5 PUSH1 0x40 MLOAD PUSH2 0x14F0 SWAP2 SWAP1 PUSH2 0x3FD8 JUMP JUMPDEST SWAP1 DUP2 MSTORE PUSH1 0x20 ADD PUSH1 0x40 MLOAD DUP1 SWAP2 SUB SWAP1 KECCAK256 PUSH1 0x2 ADD SLOAD SWAP1 POP PUSH1 0x0 PUSH1 0x2 DUP6 PUSH1 0x40 MLOAD PUSH2 0x1516 SWAP2 SWAP1 PUSH2 0x3FD8 JUMP JUMPDEST SWAP1 DUP2 MSTORE PUSH1 0x20 ADD PUSH1 0x40 MLOAD DUP1 SWAP2 SUB SWAP1 KECCAK256 PUSH1 0x8 ADD SLOAD SWAP1 POP DUP4 ISZERO PUSH2 0x156D JUMPI PUSH2 0x1543 DUP3 DUP5 PUSH2 0x30B2 SWAP1 SWAP2 SWAP1 PUSH4 0xFFFFFFFF AND JUMP JUMPDEST PUSH1 0x2 DUP7 PUSH1 0x40 MLOAD PUSH2 0x1553 SWAP2 SWAP1 PUSH2 0x3FD8 JUMP JUMPDEST SWAP1 DUP2 MSTORE PUSH1 0x20 ADD PUSH1 0x40 MLOAD DUP1 SWAP2 SUB SWAP1 KECCAK256 PUSH1 0x7 ADD DUP2 SWAP1 SSTORE POP PUSH2 0x15D1 JUMP JUMPDEST PUSH1 0x0 PUSH2 0x15A7 PUSH2 0x1598 PUSH2 0x1589 PUSH1 0x1 DUP6 PUSH2 0x301E SWAP1 SWAP2 SWAP1 PUSH4 0xFFFFFFFF AND JUMP JUMPDEST DUP7 PUSH2 0x3110 SWAP1 SWAP2 SWAP1 PUSH4 0xFFFFFFFF AND JUMP JUMPDEST DUP5 PUSH2 0x301E SWAP1 SWAP2 SWAP1 PUSH4 0xFFFFFFFF AND JUMP JUMPDEST SWAP1 POP DUP1 PUSH1 0x2 DUP8 PUSH1 0x40 MLOAD PUSH2 0x15BA SWAP2 SWAP1 PUSH2 0x3FD8 JUMP JUMPDEST SWAP1 DUP2 MSTORE PUSH1 0x20 ADD PUSH1 0x40 MLOAD DUP1 SWAP2 SUB SWAP1 KECCAK256 PUSH1 0x7 ADD DUP2 SWAP1 SSTORE POP POP JUMPDEST POP POP POP POP POP JUMP JUMPDEST PUSH1 0x0 DUP1 SLOAD SWAP1 PUSH2 0x100 EXP SWAP1 DIV PUSH20 0xFFFFFFFFFFFFFFFFFFFFFFFFFFFFFFFFFFFFFFFF AND PUSH20 0xFFFFFFFFFFFFFFFFFFFFFFFFFFFFFFFFFFFFFFFF AND CALLER PUSH20 0xFFFFFFFFFFFFFFFFFFFFFFFFFFFFFFFFFFFFFFFF AND EQ PUSH2 0x1666 JUMPI PUSH1 0x40 MLOAD PUSH32 0x8C379A000000000000000000000000000000000000000000000000000000000 DUP2 MSTORE PUSH1 0x4 ADD PUSH2 0x165D SWAP1 PUSH2 0x4581 JUMP JUMPDEST PUSH1 0x40 MLOAD DUP1 SWAP2 SUB SWAP1 REVERT JUMPDEST PUSH1 0x1 PUSH1 0x5 PUSH1 0x0 DUP4 PUSH20 0xFFFFFFFFFFFFFFFFFFFFFFFFFFFFFFFFFFFFFFFF AND PUSH20 0xFFFFFFFFFFFFFFFFFFFFFFFFFFFFFFFFFFFFFFFF AND DUP2 MSTORE PUSH1 0x20 ADD SWAP1 DUP2 MSTORE PUSH1 0x20 ADD PUSH1 0x0 KECCAK256 PUSH1 0x0 PUSH2 0x100 EXP DUP2 SLOAD DUP2 PUSH1 0xFF MUL NOT AND SWAP1 DUP4 ISZERO ISZERO MUL OR SWAP1 SSTORE POP POP JUMP JUMPDEST PUSH2 0x16C9 PUSH2 0x35FC JUMP JUMPDEST PUSH1 0x2 DUP3 PUSH1 0x40 MLOAD PUSH2 0x16D9 SWAP2 SWAP1 PUSH2 0x3FD8 JUMP JUMPDEST SWAP1 DUP2 MSTORE PUSH1 0x20 ADD PUSH1 0x40 MLOAD DUP1 SWAP2 SUB SWAP1 KECCAK256 PUSH1 0x40 MLOAD DUP1 PUSH2 0x180 ADD PUSH1 0x40 MSTORE SWAP1 DUP2 PUSH1 0x0 DUP3 ADD DUP1 SLOAD PUSH2 0x1703 SWAP1 PUSH2 0x4286 JUMP JUMPDEST DUP1 PUSH1 0x1F ADD PUSH1 0x20 DUP1 SWAP2 DIV MUL PUSH1 0x20 ADD PUSH1 0x40 MLOAD SWAP1 DUP2 ADD PUSH1 0x40 MSTORE DUP1 SWAP3 SWAP2 SWAP1 DUP2 DUP2 MSTORE PUSH1 0x20 ADD DUP3 DUP1 SLOAD PUSH2 0x172F SWAP1 PUSH2 0x4286 JUMP JUMPDEST DUP1 ISZERO PUSH2 0x177C JUMPI DUP1 PUSH1 0x1F LT PUSH2 0x1751 JUMPI PUSH2 0x100 DUP1 DUP4 SLOAD DIV MUL DUP4 MSTORE SWAP2 PUSH1 0x20 ADD SWAP2 PUSH2 0x177C JUMP JUMPDEST DUP3 ADD SWAP2 SWAP1 PUSH1 0x0 MSTORE PUSH1 0x20 PUSH1 0x0 KECCAK256 SWAP1 JUMPDEST DUP2 SLOAD DUP2 MSTORE SWAP1 PUSH1 0x1 ADD SWAP1 PUSH1 0x20 ADD DUP1 DUP4 GT PUSH2 0x175F JUMPI DUP3 SWAP1 SUB PUSH1 0x1F AND DUP3 ADD SWAP2 JUMPDEST POP POP POP POP POP DUP2 MSTORE PUSH1 0x20 ADD PUSH1 0x1 DUP3 ADD PUSH1 0x0 SWAP1 SLOAD SWAP1 PUSH2 0x100 EXP SWAP1 DIV PUSH20 0xFFFFFFFFFFFFFFFFFFFFFFFFFFFFFFFFFFFFFFFF AND PUSH20 0xFFFFFFFFFFFFFFFFFFFFFFFFFFFFFFFFFFFFFFFF AND PUSH20 0xFFFFFFFFFFFFFFFFFFFFFFFFFFFFFFFFFFFFFFFF AND DUP2 MSTORE PUSH1 0x20 ADD PUSH1 0x2 DUP3 ADD SLOAD DUP2 MSTORE PUSH1 0x20 ADD PUSH1 0x3 DUP3 ADD SLOAD DUP2 MSTORE PUSH1 0x20 ADD PUSH1 0x4 DUP3 ADD PUSH1 0x0 SWAP1 SLOAD SWAP1 PUSH2 0x100 EXP SWAP1 DIV PUSH1 0xFF AND ISZERO ISZERO ISZERO ISZERO DUP2 MSTORE PUSH1 0x20 ADD PUSH1 0x4 DUP3 ADD PUSH1 0x1 SWAP1 SLOAD SWAP1 PUSH2 0x100 EXP SWAP1 DIV PUSH1 0xFF AND ISZERO ISZERO ISZERO ISZERO DUP2 MSTORE PUSH1 0x20 ADD PUSH1 0x4 DUP3 ADD PUSH1 0x2 SWAP1 SLOAD SWAP1 PUSH2 0x100 EXP SWAP1 DIV PUSH1 0xFF AND ISZERO ISZERO ISZERO ISZERO DUP2 MSTORE PUSH1 0x20 ADD PUSH1 0x5 DUP3 ADD SLOAD DUP2 MSTORE PUSH1 0x20 ADD PUSH1 0x6 DUP3 ADD PUSH1 0x0 SWAP1 SLOAD SWAP1 PUSH2 0x100 EXP SWAP1 DIV PUSH1 0xFF AND ISZERO ISZERO ISZERO ISZERO DUP2 MSTORE PUSH1 0x20 ADD PUSH1 0x7 DUP3 ADD SLOAD DUP2 MSTORE PUSH1 0x20 ADD PUSH1 0x8 DUP3 ADD SLOAD DUP2 MSTORE PUSH1 0x20 ADD PUSH1 0x9 DUP3 ADD SLOAD DUP2 MSTORE POP POP SWAP1 POP SWAP2 SWAP1 POP JUMP JUMPDEST PUSH1 0x0 PUSH20 0xFFFFFFFFFFFFFFFFFFFFFFFFFFFFFFFFFFFFFFFF AND PUSH1 0x1 PUSH1 0x0 SWAP1 SLOAD SWAP1 PUSH2 0x100 EXP SWAP1 DIV PUSH20 0xFFFFFFFFFFFFFFFFFFFFFFFFFFFFFFFFFFFFFFFF AND PUSH20 0xFFFFFFFFFFFFFFFFFFFFFFFFFFFFFFFFFFFFFFFF AND SUB PUSH2 0x191B JUMPI PUSH1 0x40 MLOAD PUSH32 0x8C379A000000000000000000000000000000000000000000000000000000000 DUP2 MSTORE PUSH1 0x4 ADD PUSH2 0x1912 SWAP1 PUSH2 0x3F7C JUMP JUMPDEST PUSH1 0x40 MLOAD DUP1 SWAP2 SUB SWAP1 REVERT JUMPDEST PUSH1 0x0 PUSH1 0x2 DUP4 PUSH1 0x40 MLOAD PUSH2 0x192D SWAP2 SWAP1 PUSH2 0x3FD8 JUMP JUMPDEST SWAP1 DUP2 MSTORE PUSH1 0x20 ADD PUSH1 0x40 MLOAD DUP1 SWAP2 SUB SWAP1 KECCAK256 PUSH1 0x8 ADD SLOAD SWAP1 POP PUSH1 0x0 PUSH1 0x2 DUP5 PUSH1 0x40 MLOAD PUSH2 0x1953 SWAP2 SWAP1 PUSH2 0x3FD8 JUMP JUMPDEST SWAP1 DUP2 MSTORE PUSH1 0x20 ADD PUSH1 0x40 MLOAD DUP1 SWAP2 SUB SWAP1 KECCAK256 PUSH1 0x1 ADD PUSH1 0x0 SWAP1 SLOAD SWAP1 PUSH2 0x100 EXP SWAP1 DIV PUSH20 0xFFFFFFFFFFFFFFFFFFFFFFFFFFFFFFFFFFFFFFFF AND SWAP1 POP CALLER PUSH20 0xFFFFFFFFFFFFFFFFFFFFFFFFFFFFFFFFFFFFFFFF AND DUP2 PUSH20 0xFFFFFFFFFFFFFFFFFFFFFFFFFFFFFFFFFFFFFFFF AND SUB PUSH2 0x19F5 JUMPI PUSH1 0x40 MLOAD PUSH32 0x8C379A000000000000000000000000000000000000000000000000000000000 DUP2 MSTORE PUSH1 0x4 ADD PUSH2 0x19EC SWAP1 PUSH2 0x4613 JUMP JUMPDEST PUSH1 0x40 MLOAD DUP1 SWAP2 SUB SWAP1 REVERT JUMPDEST PUSH1 0x0 ISZERO ISZERO PUSH1 0x2 DUP6 PUSH1 0x40 MLOAD PUSH2 0x1A09 SWAP2 SWAP1 PUSH2 0x3FD8 JUMP JUMPDEST SWAP1 DUP2 MSTORE PUSH1 0x20 ADD PUSH1 0x40 MLOAD DUP1 SWAP2 SUB SWAP1 KECCAK256 PUSH1 0x4 ADD PUSH1 0x0 SWAP1 SLOAD SWAP1 PUSH2 0x100 EXP SWAP1 DIV PUSH1 0xFF AND ISZERO ISZERO EQ PUSH2 0x1A6A JUMPI PUSH1 0x40 MLOAD PUSH32 0x8C379A000000000000000000000000000000000000000000000000000000000 DUP2 MSTORE PUSH1 0x4 ADD PUSH2 0x1A61 SWAP1 PUSH2 0x49E2 JUMP JUMPDEST PUSH1 0x40 MLOAD DUP1 SWAP2 SUB SWAP1 REVERT JUMPDEST TIMESTAMP PUSH1 0x2 DUP6 PUSH1 0x40 MLOAD PUSH2 0x1A7B SWAP2 SWAP1 PUSH2 0x3FD8 JUMP JUMPDEST SWAP1 DUP2 MSTORE PUSH1 0x20 ADD PUSH1 0x40 MLOAD DUP1 SWAP2 SUB SWAP1 KECCAK256 PUSH1 0x3 ADD SLOAD GT PUSH2 0x1ACD JUMPI PUSH1 0x40 MLOAD PUSH32 0x8C379A000000000000000000000000000000000000000000000000000000000 DUP2 MSTORE PUSH1 0x4 ADD PUSH2 0x1AC4 SWAP1 PUSH2 0x4A74 JUMP JUMPDEST PUSH1 0x40 MLOAD DUP1 SWAP2 SUB SWAP1 REVERT JUMPDEST PUSH2 0x1B14 PUSH2 0x1AE4 PUSH1 0x1 DUP5 PUSH2 0x301E SWAP1 SWAP2 SWAP1 PUSH4 0xFFFFFFFF AND JUMP JUMPDEST PUSH1 0x2 DUP7 PUSH1 0x40 MLOAD PUSH2 0x1AF4 SWAP2 SWAP1 PUSH2 0x3FD8 JUMP JUMPDEST SWAP1 DUP2 MSTORE PUSH1 0x20 ADD PUSH1 0x40 MLOAD DUP1 SWAP2 SUB SWAP1 KECCAK256 PUSH1 0x2 ADD SLOAD PUSH2 0x3068 SWAP1 SWAP2 SWAP1 PUSH4 0xFFFFFFFF AND JUMP JUMPDEST PUSH2 0x1B48 DUP5 PUSH1 0x2 DUP8 PUSH1 0x40 MLOAD PUSH2 0x1B28 SWAP2 SWAP1 PUSH2 0x3FD8 JUMP JUMPDEST SWAP1 DUP2 MSTORE PUSH1 0x20 ADD PUSH1 0x40 MLOAD DUP1 SWAP2 SUB SWAP1 KECCAK256 PUSH1 0x5 ADD SLOAD PUSH2 0x30B2 SWAP1 SWAP2 SWAP1 PUSH4 0xFFFFFFFF AND JUMP JUMPDEST GT ISZERO PUSH2 0x1B89 JUMPI PUSH1 0x40 MLOAD PUSH32 0x8C379A000000000000000000000000000000000000000000000000000000000 DUP2 MSTORE PUSH1 0x4 ADD PUSH2 0x1B80 SWAP1 PUSH2 0x46CB JUMP JUMPDEST PUSH1 0x40 MLOAD DUP1 SWAP2 SUB SWAP1 REVERT JUMPDEST PUSH1 0x0 DUP4 GT PUSH2 0x1BCC JUMPI PUSH1 0x40 MLOAD PUSH32 0x8C379A000000000000000000000000000000000000000000000000000000000 DUP2 MSTORE PUSH1 0x4 ADD PUSH2 0x1BC3 SWAP1 PUSH2 0x475D JUMP JUMPDEST PUSH1 0x40 MLOAD DUP1 SWAP2 SUB SWAP1 REVERT JUMPDEST PUSH2 0x1C1B CALLER ADDRESS DUP6 PUSH1 0x1 PUSH1 0x0 SWAP1 SLOAD SWAP1 PUSH2 0x100 EXP SWAP1 DIV PUSH20 0xFFFFFFFFFFFFFFFFFFFFFFFFFFFFFFFFFFFFFFFF AND PUSH20 0xFFFFFFFFFFFFFFFFFFFFFFFFFFFFFFFFFFFFFFFF AND PUSH2 0x2F95 SWAP1 SWAP4 SWAP3 SWAP2 SWAP1 PUSH4 0xFFFFFFFF AND JUMP JUMPDEST PUSH1 0x0 PUSH1 0x3 DUP6 PUSH1 0x40 MLOAD PUSH2 0x1C2D SWAP2 SWAP1 PUSH2 0x3FD8 JUMP JUMPDEST SWAP1 DUP2 MSTORE PUSH1 0x20 ADD PUSH1 0x40 MLOAD DUP1 SWAP2 SUB SWAP1 KECCAK256 PUSH1 0x0 CALLER PUSH20 0xFFFFFFFFFFFFFFFFFFFFFFFFFFFFFFFFFFFFFFFF AND PUSH20 0xFFFFFFFFFFFFFFFFFFFFFFFFFFFFFFFFFFFFFFFF AND DUP2 MSTORE PUSH1 0x20 ADD SWAP1 DUP2 MSTORE PUSH1 0x20 ADD PUSH1 0x0 KECCAK256 PUSH1 0x0 ADD SLOAD SUB PUSH2 0x1CBB JUMPI PUSH1 0x1 PUSH1 0x2 DUP6 PUSH1 0x40 MLOAD PUSH2 0x1C93 SWAP2 SWAP1 PUSH2 0x3FD8 JUMP JUMPDEST SWAP1 DUP2 MSTORE PUSH1 0x20 ADD PUSH1 0x40 MLOAD DUP1 SWAP2 SUB SWAP1 KECCAK256 PUSH1 0x9 ADD PUSH1 0x0 DUP3 DUP3 SLOAD PUSH2 0x1CB3 SWAP2 SWAP1 PUSH2 0x47AC JUMP JUMPDEST SWAP3 POP POP DUP2 SWAP1 SSTORE POP JUMPDEST DUP3 PUSH1 0x3 DUP6 PUSH1 0x40 MLOAD PUSH2 0x1CCC SWAP2 SWAP1 PUSH2 0x3FD8 JUMP JUMPDEST SWAP1 DUP2 MSTORE PUSH1 0x20 ADD PUSH1 0x40 MLOAD DUP1 SWAP2 SUB SWAP1 KECCAK256 PUSH1 0x0 CALLER PUSH20 0xFFFFFFFFFFFFFFFFFFFFFFFFFFFFFFFFFFFFFFFF AND PUSH20 0xFFFFFFFFFFFFFFFFFFFFFFFFFFFFFFFFFFFFFFFF AND DUP2 MSTORE PUSH1 0x20 ADD SWAP1 DUP2 MSTORE PUSH1 0x20 ADD PUSH1 0x0 KECCAK256 PUSH1 0x0 ADD PUSH1 0x0 DUP3 DUP3 SLOAD PUSH2 0x1D29 SWAP2 SWAP1 PUSH2 0x47AC JUMP JUMPDEST SWAP3 POP POP DUP2 SWAP1 SSTORE POP TIMESTAMP PUSH1 0x3 DUP6 PUSH1 0x40 MLOAD PUSH2 0x1D41 SWAP2 SWAP1 PUSH2 0x3FD8 JUMP JUMPDEST SWAP1 DUP2 MSTORE PUSH1 0x20 ADD PUSH1 0x40 MLOAD DUP1 SWAP2 SUB SWAP1 KECCAK256 PUSH1 0x0 CALLER PUSH20 0xFFFFFFFFFFFFFFFFFFFFFFFFFFFFFFFFFFFFFFFF AND PUSH20 0xFFFFFFFFFFFFFFFFFFFFFFFFFFFFFFFFFFFFFFFF AND DUP2 MSTORE PUSH1 0x20 ADD SWAP1 DUP2 MSTORE PUSH1 0x20 ADD PUSH1 0x0 KECCAK256 PUSH1 0x1 ADD DUP2 SWAP1 SSTORE POP PUSH1 0x0 PUSH1 0x3 DUP6 PUSH1 0x40 MLOAD PUSH2 0x1DA5 SWAP2 SWAP1 PUSH2 0x3FD8 JUMP JUMPDEST SWAP1 DUP2 MSTORE PUSH1 0x20 ADD PUSH1 0x40 MLOAD DUP1 SWAP2 SUB SWAP1 KECCAK256 PUSH1 0x0 CALLER PUSH20 0xFFFFFFFFFFFFFFFFFFFFFFFFFFFFFFFFFFFFFFFF AND PUSH20 0xFFFFFFFFFFFFFFFFFFFFFFFFFFFFFFFFFFFFFFFF AND DUP2 MSTORE PUSH1 0x20 ADD SWAP1 DUP2 MSTORE PUSH1 0x20 ADD PUSH1 0x0 KECCAK256 PUSH1 0x2 ADD PUSH1 0x1 PUSH2 0x100 EXP DUP2 SLOAD DUP2 PUSH1 0xFF MUL NOT AND SWAP1 DUP4 ISZERO ISZERO MUL OR SWAP1 SSTORE POP PUSH1 0x1 PUSH1 0x3 DUP6 PUSH1 0x40 MLOAD PUSH2 0x1E1C SWAP2 SWAP1 PUSH2 0x3FD8 JUMP JUMPDEST SWAP1 DUP2 MSTORE PUSH1 0x20 ADD PUSH1 0x40 MLOAD DUP1 SWAP2 SUB SWAP1 KECCAK256 PUSH1 0x0 CALLER PUSH20 0xFFFFFFFFFFFFFFFFFFFFFFFFFFFFFFFFFFFFFFFF AND PUSH20 0xFFFFFFFFFFFFFFFFFFFFFFFFFFFFFFFFFFFFFFFF AND DUP2 MSTORE PUSH1 0x20 ADD SWAP1 DUP2 MSTORE PUSH1 0x20 ADD PUSH1 0x0 KECCAK256 PUSH1 0x2 ADD PUSH1 0x4 PUSH2 0x100 EXP DUP2 SLOAD DUP2 PUSH1 0xFF MUL NOT AND SWAP1 DUP4 ISZERO ISZERO MUL OR SWAP1 SSTORE POP PUSH2 0x1E94 DUP3 DUP5 PUSH2 0x3110 SWAP1 SWAP2 SWAP1 PUSH4 0xFFFFFFFF AND JUMP JUMPDEST PUSH1 0x3 DUP6 PUSH1 0x40 MLOAD PUSH2 0x1EA4 SWAP2 SWAP1 PUSH2 0x3FD8 JUMP JUMPDEST SWAP1 DUP2 MSTORE PUSH1 0x20 ADD PUSH1 0x40 MLOAD DUP1 SWAP2 SUB SWAP1 KECCAK256 PUSH1 0x0 CALLER PUSH20 0xFFFFFFFFFFFFFFFFFFFFFFFFFFFFFFFFFFFFFFFF AND PUSH20 0xFFFFFFFFFFFFFFFFFFFFFFFFFFFFFFFFFFFFFFFF AND DUP2 MSTORE PUSH1 0x20 ADD SWAP1 DUP2 MSTORE PUSH1 0x20 ADD PUSH1 0x0 KECCAK256 PUSH1 0x3 ADD PUSH1 0x0 DUP3 DUP3 SLOAD PUSH2 0x1F01 SWAP2 SWAP1 PUSH2 0x47AC JUMP JUMPDEST SWAP3 POP POP DUP2 SWAP1 SSTORE POP PUSH1 0x1 PUSH1 0x3 DUP6 PUSH1 0x40 MLOAD PUSH2 0x1F1A SWAP2 SWAP1 PUSH2 0x3FD8 JUMP JUMPDEST SWAP1 DUP2 MSTORE PUSH1 0x20 ADD PUSH1 0x40 MLOAD DUP1 SWAP2 SUB SWAP1 KECCAK256 PUSH1 0x0 CALLER PUSH20 0xFFFFFFFFFFFFFFFFFFFFFFFFFFFFFFFFFFFFFFFF AND PUSH20 0xFFFFFFFFFFFFFFFFFFFFFFFFFFFFFFFFFFFFFFFF AND DUP2 MSTORE PUSH1 0x20 ADD SWAP1 DUP2 MSTORE PUSH1 0x20 ADD PUSH1 0x0 KECCAK256 PUSH1 0x4 ADD PUSH1 0x0 DUP3 DUP3 SLOAD PUSH2 0x1F77 SWAP2 SWAP1 PUSH2 0x47AC JUMP JUMPDEST SWAP3 POP POP DUP2 SWAP1 SSTORE POP DUP4 PUSH1 0x3 DUP6 PUSH1 0x40 MLOAD PUSH2 0x1F8F SWAP2 SWAP1 PUSH2 0x3FD8 JUMP JUMPDEST SWAP1 DUP2 MSTORE PUSH1 0x20 ADD PUSH1 0x40 MLOAD DUP1 SWAP2 SUB SWAP1 KECCAK256 PUSH1 0x0 CALLER PUSH20 0xFFFFFFFFFFFFFFFFFFFFFFFFFFFFFFFFFFFFFFFF AND PUSH20 0xFFFFFFFFFFFFFFFFFFFFFFFFFFFFFFFFFFFFFFFF AND DUP2 MSTORE PUSH1 0x20 ADD SWAP1 DUP2 MSTORE PUSH1 0x20 ADD PUSH1 0x0 KECCAK256 PUSH1 0x5 ADD SWAP1 DUP2 PUSH2 0x1FE9 SWAP2 SWAP1 PUSH2 0x4463 JUMP JUMPDEST POP DUP3 PUSH1 0x2 DUP6 PUSH1 0x40 MLOAD PUSH2 0x1FFB SWAP2 SWAP1 PUSH2 0x3FD8 JUMP JUMPDEST SWAP1 DUP2 MSTORE PUSH1 0x20 ADD PUSH1 0x40 MLOAD DUP1 SWAP2 SUB SWAP1 KECCAK256 PUSH1 0x5 ADD PUSH1 0x0 DUP3 DUP3 SLOAD PUSH2 0x201B SWAP2 SWAP1 PUSH2 0x47AC JUMP JUMPDEST SWAP3 POP POP DUP2 SWAP1 SSTORE POP POP POP POP POP JUMP JUMPDEST PUSH1 0x0 DUP1 PUSH1 0x0 SWAP1 SLOAD SWAP1 PUSH2 0x100 EXP SWAP1 DIV PUSH20 0xFFFFFFFFFFFFFFFFFFFFFFFFFFFFFFFFFFFFFFFF AND SWAP1 POP SWAP1 JUMP JUMPDEST PUSH1 0x0 DUP1 PUSH20 0xFFFFFFFFFFFFFFFFFFFFFFFFFFFFFFFFFFFFFFFF AND PUSH1 0x1 PUSH1 0x0 SWAP1 SLOAD SWAP1 PUSH2 0x100 EXP SWAP1 DIV PUSH20 0xFFFFFFFFFFFFFFFFFFFFFFFFFFFFFFFFFFFFFFFF AND PUSH20 0xFFFFFFFFFFFFFFFFFFFFFFFFFFFFFFFFFFFFFFFF AND SUB PUSH2 0x20E3 JUMPI PUSH1 0x40 MLOAD PUSH32 0x8C379A000000000000000000000000000000000000000000000000000000000 DUP2 MSTORE PUSH1 0x4 ADD PUSH2 0x20DA SWAP1 PUSH2 0x3F7C JUMP JUMPDEST PUSH1 0x40 MLOAD DUP1 SWAP2 SUB SWAP1 REVERT JUMPDEST PUSH2 0x2144 PUSH1 0x40 MLOAD DUP1 PUSH1 0x40 ADD PUSH1 0x40 MSTORE DUP1 PUSH1 0xE DUP2 MSTORE PUSH1 0x20 ADD PUSH32 0x746865205F746F6B656E20697320000000000000000000000000000000000000 DUP2 MSTORE POP PUSH1 0x1 PUSH1 0x0 SWAP1 SLOAD SWAP1 PUSH2 0x100 EXP SWAP1 DIV PUSH20 0xFFFFFFFFFFFFFFFFFFFFFFFFFFFFFFFFFFFFFFFF AND PUSH2 0x318A JUMP JUMPDEST PUSH1 0x0 PUSH1 0x1 PUSH1 0x0 SWAP1 SLOAD SWAP1 PUSH2 0x100 EXP SWAP1 DIV PUSH20 0xFFFFFFFFFFFFFFFFFFFFFFFFFFFFFFFFFFFFFFFF AND PUSH20 0xFFFFFFFFFFFFFFFFFFFFFFFFFFFFFFFFFFFFFFFF AND PUSH4 0x70A08231 ADDRESS PUSH1 0x40 MLOAD DUP3 PUSH4 0xFFFFFFFF AND PUSH1 0xE0 SHL DUP2 MSTORE PUSH1 0x4 ADD PUSH2 0x21A1 SWAP2 SWAP1 PUSH2 0x3719 JUMP JUMPDEST PUSH1 0x20 PUSH1 0x40 MLOAD DUP1 DUP4 SUB DUP2 DUP7 GAS STATICCALL ISZERO DUP1 ISZERO PUSH2 0x21BE JUMPI RETURNDATASIZE PUSH1 0x0 DUP1 RETURNDATACOPY RETURNDATASIZE PUSH1 0x0 REVERT JUMPDEST POP POP POP POP PUSH1 0x40 MLOAD RETURNDATASIZE PUSH1 0x1F NOT PUSH1 0x1F DUP3 ADD AND DUP3 ADD DUP1 PUSH1 0x40 MSTORE POP DUP2 ADD SWAP1 PUSH2 0x21E2 SWAP2 SWAP1 PUSH2 0x4AA9 JUMP JUMPDEST SWAP1 POP DUP1 SWAP2 POP POP SWAP1 JUMP JUMPDEST PUSH1 0x0 DUP1 SLOAD SWAP1 PUSH2 0x100 EXP SWAP1 DIV PUSH20 0xFFFFFFFFFFFFFFFFFFFFFFFFFFFFFFFFFFFFFFFF AND PUSH20 0xFFFFFFFFFFFFFFFFFFFFFFFFFFFFFFFFFFFFFFFF AND CALLER PUSH20 0xFFFFFFFFFFFFFFFFFFFFFFFFFFFFFFFFFFFFFFFF AND EQ PUSH2 0x2279 JUMPI PUSH1 0x40 MLOAD PUSH32 0x8C379A000000000000000000000000000000000000000000000000000000000 DUP2 MSTORE PUSH1 0x4 ADD PUSH2 0x2270 SWAP1 PUSH2 0x4581 JUMP JUMPDEST PUSH1 0x40 MLOAD DUP1 SWAP2 SUB SWAP1 REVERT JUMPDEST DUP1 PUSH20 0xFFFFFFFFFFFFFFFFFFFFFFFFFFFFFFFFFFFFFFFF AND PUSH1 0x0 DUP1 SLOAD SWAP1 PUSH2 0x100 EXP SWAP1 DIV PUSH20 0xFFFFFFFFFFFFFFFFFFFFFFFFFFFFFFFFFFFFFFFF AND PUSH20 0xFFFFFFFFFFFFFFFFFFFFFFFFFFFFFFFFFFFFFFFF AND PUSH32 0x342827C97908E5E2F71151C08502A66D44B6F758E3AC2F1DE95F02EB95F0A735 PUSH1 0x40 MLOAD PUSH1 0x40 MLOAD DUP1 SWAP2 SUB SWAP1 LOG3 DUP1 PUSH1 0x0 DUP1 PUSH2 0x100 EXP DUP2 SLOAD DUP2 PUSH20 0xFFFFFFFFFFFFFFFFFFFFFFFFFFFFFFFFFFFFFFFF MUL NOT AND SWAP1 DUP4 PUSH20 0xFFFFFFFFFFFFFFFFFFFFFFFFFFFFFFFFFFFFFFFF AND MUL OR SWAP1 SSTORE POP POP JUMP JUMPDEST PUSH1 0x0 DUP1 SLOAD SWAP1 PUSH2 0x100 EXP SWAP1 DIV PUSH20 0xFFFFFFFFFFFFFFFFFFFFFFFFFFFFFFFFFFFFFFFF AND PUSH20 0xFFFFFFFFFFFFFFFFFFFFFFFFFFFFFFFFFFFFFFFF AND CALLER PUSH20 0xFFFFFFFFFFFFFFFFFFFFFFFFFFFFFFFFFFFFFFFF AND EQ PUSH2 0x23C4 JUMPI PUSH1 0x40 MLOAD PUSH32 0x8C379A000000000000000000000000000000000000000000000000000000000 DUP2 MSTORE PUSH1 0x4 ADD PUSH2 0x23BB SWAP1 PUSH2 0x4581 JUMP JUMPDEST PUSH1 0x40 MLOAD DUP1 SWAP2 SUB SWAP1 REVERT JUMPDEST PUSH1 0x0 PUSH1 0x5 PUSH1 0x0 DUP4 PUSH20 0xFFFFFFFFFFFFFFFFFFFFFFFFFFFFFFFFFFFFFFFF AND PUSH20 0xFFFFFFFFFFFFFFFFFFFFFFFFFFFFFFFFFFFFFFFF AND DUP2 MSTORE PUSH1 0x20 ADD SWAP1 DUP2 MSTORE PUSH1 0x20 ADD PUSH1 0x0 KECCAK256 PUSH1 0x0 PUSH2 0x100 EXP DUP2 SLOAD DUP2 PUSH1 0xFF MUL NOT AND SWAP1 DUP4 ISZERO ISZERO MUL OR SWAP1 SSTORE POP POP JUMP JUMPDEST PUSH1 0x0 PUSH20 0xFFFFFFFFFFFFFFFFFFFFFFFFFFFFFFFFFFFFFFFF AND PUSH1 0x1 PUSH1 0x0 SWAP1 SLOAD SWAP1 PUSH2 0x100 EXP SWAP1 DIV PUSH20 0xFFFFFFFFFFFFFFFFFFFFFFFFFFFFFFFFFFFFFFFF AND PUSH20 0xFFFFFFFFFFFFFFFFFFFFFFFFFFFFFFFFFFFFFFFF AND SUB PUSH2 0x24B0 JUMPI PUSH1 0x40 MLOAD PUSH32 0x8C379A000000000000000000000000000000000000000000000000000000000 DUP2 MSTORE PUSH1 0x4 ADD PUSH2 0x24A7 SWAP1 PUSH2 0x3F7C JUMP JUMPDEST PUSH1 0x40 MLOAD DUP1 SWAP2 SUB SWAP1 REVERT JUMPDEST PUSH1 0x0 PUSH1 0x3 DUP3 PUSH1 0x40 MLOAD PUSH2 0x24C2 SWAP2 SWAP1 PUSH2 0x3FD8 JUMP JUMPDEST SWAP1 DUP2 MSTORE PUSH1 0x20 ADD PUSH1 0x40 MLOAD DUP1 SWAP2 SUB SWAP1 KECCAK256 PUSH1 0x0 CALLER PUSH20 0xFFFFFFFFFFFFFFFFFFFFFFFFFFFFFFFFFFFFFFFF AND PUSH20 0xFFFFFFFFFFFFFFFFFFFFFFFFFFFFFFFFFFFFFFFF AND DUP2 MSTORE PUSH1 0x20 ADD SWAP1 DUP2 MSTORE PUSH1 0x20 ADD PUSH1 0x0 KECCAK256 PUSH1 0x0 ADD SLOAD SWAP1 POP PUSH1 0x0 PUSH1 0x3 DUP4 PUSH1 0x40 MLOAD PUSH2 0x2525 SWAP2 SWAP1 PUSH2 0x3FD8 JUMP JUMPDEST SWAP1 DUP2 MSTORE PUSH1 0x20 ADD PUSH1 0x40 MLOAD DUP1 SWAP2 SUB SWAP1 KECCAK256 PUSH1 0x0 CALLER PUSH20 0xFFFFFFFFFFFFFFFFFFFFFFFFFFFFFFFFFFFFFFFF AND PUSH20 0xFFFFFFFFFFFFFFFFFFFFFFFFFFFFFFFFFFFFFFFF AND DUP2 MSTORE PUSH1 0x20 ADD SWAP1 DUP2 MSTORE PUSH1 0x20 ADD PUSH1 0x0 KECCAK256 PUSH1 0x3 ADD SLOAD SWAP1 POP PUSH1 0x0 ISZERO ISZERO PUSH1 0x3 DUP5 PUSH1 0x40 MLOAD PUSH2 0x258A SWAP2 SWAP1 PUSH2 0x3FD8 JUMP JUMPDEST SWAP1 DUP2 MSTORE PUSH1 0x20 ADD PUSH1 0x40 MLOAD DUP1 SWAP2 SUB SWAP1 KECCAK256 PUSH1 0x0 CALLER PUSH20 0xFFFFFFFFFFFFFFFFFFFFFFFFFFFFFFFFFFFFFFFF AND PUSH20 0xFFFFFFFFFFFFFFFFFFFFFFFFFFFFFFFFFFFFFFFF AND DUP2 MSTORE PUSH1 0x20 ADD SWAP1 DUP2 MSTORE PUSH1 0x20 ADD PUSH1 0x0 KECCAK256 PUSH1 0x2 ADD PUSH1 0x3 SWAP1 SLOAD SWAP1 PUSH2 0x100 EXP SWAP1 DIV PUSH1 0xFF AND ISZERO ISZERO EQ PUSH2 0x2628 JUMPI PUSH1 0x40 MLOAD PUSH32 0x8C379A000000000000000000000000000000000000000000000000000000000 DUP2 MSTORE PUSH1 0x4 ADD PUSH2 0x261F SWAP1 PUSH2 0x4B22 JUMP JUMPDEST PUSH1 0x40 MLOAD DUP1 SWAP2 SUB SWAP1 REVERT JUMPDEST PUSH1 0x1 ISZERO ISZERO PUSH1 0x2 DUP5 PUSH1 0x40 MLOAD PUSH2 0x263C SWAP2 SWAP1 PUSH2 0x3FD8 JUMP JUMPDEST SWAP1 DUP2 MSTORE PUSH1 0x20 ADD PUSH1 0x40 MLOAD DUP1 SWAP2 SUB SWAP1 KECCAK256 PUSH1 0x4 ADD PUSH1 0x0 SWAP1 SLOAD SWAP1 PUSH2 0x100 EXP SWAP1 DIV PUSH1 0xFF AND ISZERO ISZERO EQ PUSH2 0x269D JUMPI PUSH1 0x40 MLOAD PUSH32 0x8C379A000000000000000000000000000000000000000000000000000000000 DUP2 MSTORE PUSH1 0x4 ADD PUSH2 0x2694 SWAP1 PUSH2 0x4B8E JUMP JUMPDEST PUSH1 0x40 MLOAD DUP1 SWAP2 SUB SWAP1 REVERT JUMPDEST PUSH1 0x0 DUP3 GT PUSH2 0x26E0 JUMPI PUSH1 0x40 MLOAD PUSH32 0x8C379A000000000000000000000000000000000000000000000000000000000 DUP2 MSTORE PUSH1 0x4 ADD PUSH2 0x26D7 SWAP1 PUSH2 0x4C20 JUMP JUMPDEST PUSH1 0x40 MLOAD DUP1 SWAP2 SUB SWAP1 REVERT JUMPDEST PUSH1 0x0 ISZERO ISZERO PUSH1 0x2 DUP5 PUSH1 0x40 MLOAD PUSH2 0x26F4 SWAP2 SWAP1 PUSH2 0x3FD8 JUMP JUMPDEST SWAP1 DUP2 MSTORE PUSH1 0x20 ADD PUSH1 0x40 MLOAD DUP1 SWAP2 SUB SWAP1 KECCAK256 PUSH1 0x4 ADD PUSH1 0x2 SWAP1 SLOAD SWAP1 PUSH2 0x100 EXP SWAP1 DIV PUSH1 0xFF AND ISZERO ISZERO EQ PUSH2 0x2755 JUMPI PUSH1 0x40 MLOAD PUSH32 0x8C379A000000000000000000000000000000000000000000000000000000000 DUP2 MSTORE PUSH1 0x4 ADD PUSH2 0x274C SWAP1 PUSH2 0x4C8C JUMP JUMPDEST PUSH1 0x40 MLOAD DUP1 SWAP2 SUB SWAP1 REVERT JUMPDEST PUSH1 0x0 DUP2 SWAP1 POP PUSH2 0x27A7 CALLER DUP3 PUSH1 0x1 PUSH1 0x0 SWAP1 SLOAD SWAP1 PUSH2 0x100 EXP SWAP1 DIV PUSH20 0xFFFFFFFFFFFFFFFFFFFFFFFFFFFFFFFFFFFFFFFF AND PUSH20 0xFFFFFFFFFFFFFFFFFFFFFFFFFFFFFFFFFFFFFFFF AND PUSH2 0x3226 SWAP1 SWAP3 SWAP2 SWAP1 PUSH4 0xFFFFFFFF AND JUMP JUMPDEST PUSH1 0x1 PUSH1 0x3 DUP6 PUSH1 0x40 MLOAD PUSH2 0x27B9 SWAP2 SWAP1 PUSH2 0x3FD8 JUMP JUMPDEST SWAP1 DUP2 MSTORE PUSH1 0x20 ADD PUSH1 0x40 MLOAD DUP1 SWAP2 SUB SWAP1 KECCAK256 PUSH1 0x0 CALLER PUSH20 0xFFFFFFFFFFFFFFFFFFFFFFFFFFFFFFFFFFFFFFFF AND PUSH20 0xFFFFFFFFFFFFFFFFFFFFFFFFFFFFFFFFFFFFFFFF AND DUP2 MSTORE PUSH1 0x20 ADD SWAP1 DUP2 MSTORE PUSH1 0x20 ADD PUSH1 0x0 KECCAK256 PUSH1 0x2 ADD PUSH1 0x3 PUSH2 0x100 EXP DUP2 SLOAD DUP2 PUSH1 0xFF MUL NOT AND SWAP1 DUP4 ISZERO ISZERO MUL OR SWAP1 SSTORE POP POP POP POP POP JUMP JUMPDEST PUSH1 0x0 PUSH20 0xFFFFFFFFFFFFFFFFFFFFFFFFFFFFFFFFFFFFFFFF AND PUSH1 0x1 PUSH1 0x0 SWAP1 SLOAD SWAP1 PUSH2 0x100 EXP SWAP1 DIV PUSH20 0xFFFFFFFFFFFFFFFFFFFFFFFFFFFFFFFFFFFFFFFF AND PUSH20 0xFFFFFFFFFFFFFFFFFFFFFFFFFFFFFFFFFFFFFFFF AND SUB PUSH2 0x28B5 JUMPI PUSH1 0x40 MLOAD PUSH32 0x8C379A000000000000000000000000000000000000000000000000000000000 DUP2 MSTORE PUSH1 0x4 ADD PUSH2 0x28AC SWAP1 PUSH2 0x3F7C JUMP JUMPDEST PUSH1 0x40 MLOAD DUP1 SWAP2 SUB SWAP1 REVERT JUMPDEST PUSH1 0x0 PUSH1 0x2 DUP3 PUSH1 0x40 MLOAD PUSH2 0x28C7 SWAP2 SWAP1 PUSH2 0x3FD8 JUMP JUMPDEST SWAP1 DUP2 MSTORE PUSH1 0x20 ADD PUSH1 0x40 MLOAD DUP1 SWAP2 SUB SWAP1 KECCAK256 PUSH1 0x1 ADD PUSH1 0x0 SWAP1 SLOAD SWAP1 PUSH2 0x100 EXP SWAP1 DIV PUSH20 0xFFFFFFFFFFFFFFFFFFFFFFFFFFFFFFFFFFFFFFFF AND SWAP1 POP CALLER PUSH20 0xFFFFFFFFFFFFFFFFFFFFFFFFFFFFFFFFFFFFFFFF AND DUP2 PUSH20 0xFFFFFFFFFFFFFFFFFFFFFFFFFFFFFFFFFFFFFFFF AND EQ PUSH2 0x2969 JUMPI PUSH1 0x40 MLOAD PUSH32 0x8C379A000000000000000000000000000000000000000000000000000000000 DUP2 MSTORE PUSH1 0x4 ADD PUSH2 0x2960 SWAP1 PUSH2 0x4D1E JUMP JUMPDEST PUSH1 0x40 MLOAD DUP1 SWAP2 SUB SWAP1 REVERT JUMPDEST PUSH1 0x1 ISZERO ISZERO PUSH1 0x2 DUP4 PUSH1 0x40 MLOAD PUSH2 0x297D SWAP2 SWAP1 PUSH2 0x3FD8 JUMP JUMPDEST SWAP1 DUP2 MSTORE PUSH1 0x20 ADD PUSH1 0x40 MLOAD DUP1 SWAP2 SUB SWAP1 KECCAK256 PUSH1 0x4 ADD PUSH1 0x0 SWAP1 SLOAD SWAP1 PUSH2 0x100 EXP SWAP1 DIV PUSH1 0xFF AND ISZERO ISZERO EQ PUSH2 0x29DE JUMPI PUSH1 0x40 MLOAD PUSH32 0x8C379A000000000000000000000000000000000000000000000000000000000 DUP2 MSTORE PUSH1 0x4 ADD PUSH2 0x29D5 SWAP1 PUSH2 0x4B8E JUMP JUMPDEST PUSH1 0x40 MLOAD DUP1 SWAP2 SUB SWAP1 REVERT JUMPDEST PUSH1 0x0 ISZERO ISZERO PUSH1 0x2 DUP4 PUSH1 0x40 MLOAD PUSH2 0x29F2 SWAP2 SWAP1 PUSH2 0x3FD8 JUMP JUMPDEST SWAP1 DUP2 MSTORE PUSH1 0x20 ADD PUSH1 0x40 MLOAD DUP1 SWAP2 SUB SWAP1 KECCAK256 PUSH1 0x6 ADD PUSH1 0x0 SWAP1 SLOAD SWAP1 PUSH2 0x100 EXP SWAP1 DIV PUSH1 0xFF AND ISZERO ISZERO EQ PUSH2 0x2A53 JUMPI PUSH1 0x40 MLOAD PUSH32 0x8C379A000000000000000000000000000000000000000000000000000000000 DUP2 MSTORE PUSH1 0x4 ADD PUSH2 0x2A4A SWAP1 PUSH2 0x4B22 JUMP JUMPDEST PUSH1 0x40 MLOAD DUP1 SWAP2 SUB SWAP1 REVERT JUMPDEST PUSH1 0x0 PUSH1 0x2 DUP4 PUSH1 0x40 MLOAD PUSH2 0x2A65 SWAP2 SWAP1 PUSH2 0x3FD8 JUMP JUMPDEST SWAP1 DUP2 MSTORE PUSH1 0x20 ADD PUSH1 0x40 MLOAD DUP1 SWAP2 SUB SWAP1 KECCAK256 PUSH1 0x7 ADD SLOAD GT PUSH2 0x2AB7 JUMPI PUSH1 0x40 MLOAD PUSH32 0x8C379A000000000000000000000000000000000000000000000000000000000 DUP2 MSTORE PUSH1 0x4 ADD PUSH2 0x2AAE SWAP1 PUSH2 0x4B22 JUMP JUMPDEST PUSH1 0x40 MLOAD DUP1 SWAP2 SUB SWAP1 REVERT JUMPDEST PUSH1 0x0 PUSH1 0x2 DUP4 PUSH1 0x40 MLOAD PUSH2 0x2AC9 SWAP2 SWAP1 PUSH2 0x3FD8 JUMP JUMPDEST SWAP1 DUP2 MSTORE PUSH1 0x20 ADD PUSH1 0x40 MLOAD DUP1 SWAP2 SUB SWAP1 KECCAK256 PUSH1 0x7 ADD SLOAD SWAP1 POP PUSH2 0x2B2A DUP3 DUP3 PUSH1 0x1 PUSH1 0x0 SWAP1 SLOAD SWAP1 PUSH2 0x100 EXP SWAP1 DIV PUSH20 0xFFFFFFFFFFFFFFFFFFFFFFFFFFFFFFFFFFFFFFFF AND PUSH20 0xFFFFFFFFFFFFFFFFFFFFFFFFFFFFFFFFFFFFFFFF AND PUSH2 0x3226 SWAP1 SWAP3 SWAP2 SWAP1 PUSH4 0xFFFFFFFF AND JUMP JUMPDEST PUSH1 0x1 PUSH1 0x2 DUP5 PUSH1 0x40 MLOAD PUSH2 0x2B3C SWAP2 SWAP1 PUSH2 0x3FD8 JUMP JUMPDEST SWAP1 DUP2 MSTORE PUSH1 0x20 ADD PUSH1 0x40 MLOAD DUP1 SWAP2 SUB SWAP1 KECCAK256 PUSH1 0x6 ADD PUSH1 0x0 PUSH2 0x100 EXP DUP2 SLOAD DUP2 PUSH1 0xFF MUL NOT AND SWAP1 DUP4 ISZERO ISZERO MUL OR SWAP1 SSTORE POP POP POP POP JUMP JUMPDEST PUSH1 0x0 DUP1 SLOAD SWAP1 PUSH2 0x100 EXP SWAP1 DIV PUSH20 0xFFFFFFFFFFFFFFFFFFFFFFFFFFFFFFFFFFFFFFFF AND PUSH20 0xFFFFFFFFFFFFFFFFFFFFFFFFFFFFFFFFFFFFFFFF AND CALLER PUSH20 0xFFFFFFFFFFFFFFFFFFFFFFFFFFFFFFFFFFFFFFFF AND EQ PUSH2 0x2BF7 JUMPI PUSH1 0x40 MLOAD PUSH32 0x8C379A000000000000000000000000000000000000000000000000000000000 DUP2 MSTORE PUSH1 0x4 ADD PUSH2 0x2BEE SWAP1 PUSH2 0x4581 JUMP JUMPDEST PUSH1 0x40 MLOAD DUP1 SWAP2 SUB SWAP1 REVERT JUMPDEST PUSH1 0x0 PUSH1 0x2 DUP7 PUSH1 0x40 MLOAD PUSH2 0x2C09 SWAP2 SWAP1 PUSH2 0x3FD8 JUMP JUMPDEST SWAP1 DUP2 MSTORE PUSH1 0x20 ADD PUSH1 0x40 MLOAD DUP1 SWAP2 SUB SWAP1 KECCAK256 PUSH1 0x2 ADD SLOAD EQ PUSH2 0x2C5B JUMPI PUSH1 0x40 MLOAD PUSH32 0x8C379A000000000000000000000000000000000000000000000000000000000 DUP2 MSTORE PUSH1 0x4 ADD PUSH2 0x2C52 SWAP1 PUSH2 0x4D8A JUMP JUMPDEST PUSH1 0x40 MLOAD DUP1 SWAP2 SUB SWAP1 REVERT JUMPDEST PUSH8 0xDE0B6B3A7640000 DUP5 GT PUSH2 0x2CA5 JUMPI PUSH1 0x40 MLOAD PUSH32 0x8C379A000000000000000000000000000000000000000000000000000000000 DUP2 MSTORE PUSH1 0x4 ADD PUSH2 0x2C9C SWAP1 PUSH2 0x4237 JUMP JUMPDEST PUSH1 0x40 MLOAD DUP1 SWAP2 SUB SWAP1 REVERT JUMPDEST PUSH1 0x2 DUP3 LT ISZERO PUSH2 0x2CE9 JUMPI PUSH1 0x40 MLOAD PUSH32 0x8C379A000000000000000000000000000000000000000000000000000000000 DUP2 MSTORE PUSH1 0x4 ADD PUSH2 0x2CE0 SWAP1 PUSH2 0x4E1C JUMP JUMPDEST PUSH1 0x40 MLOAD DUP1 SWAP2 SUB SWAP1 REVERT JUMPDEST DUP5 PUSH1 0x2 DUP7 PUSH1 0x40 MLOAD PUSH2 0x2CFA SWAP2 SWAP1 PUSH2 0x3FD8 JUMP JUMPDEST SWAP1 DUP2 MSTORE PUSH1 0x20 ADD PUSH1 0x40 MLOAD DUP1 SWAP2 SUB SWAP1 KECCAK256 PUSH1 0x0 ADD SWAP1 DUP2 PUSH2 0x2D17 SWAP2 SWAP1 PUSH2 0x4463 JUMP JUMPDEST POP DUP4 PUSH1 0x2 DUP7 PUSH1 0x40 MLOAD PUSH2 0x2D29 SWAP2 SWAP1 PUSH2 0x3FD8 JUMP JUMPDEST SWAP1 DUP2 MSTORE PUSH1 0x20 ADD PUSH1 0x40 MLOAD DUP1 SWAP2 SUB SWAP1 KECCAK256 PUSH1 0x2 ADD DUP2 SWAP1 SSTORE POP DUP1 PUSH1 0x2 DUP7 PUSH1 0x40 MLOAD PUSH2 0x2D4F SWAP2 SWAP1 PUSH2 0x3FD8 JUMP JUMPDEST SWAP1 DUP2 MSTORE PUSH1 0x20 ADD PUSH1 0x40 MLOAD DUP1 SWAP2 SUB SWAP1 KECCAK256 PUSH1 0x1 ADD PUSH1 0x0 PUSH2 0x100 EXP DUP2 SLOAD DUP2 PUSH20 0xFFFFFFFFFFFFFFFFFFFFFFFFFFFFFFFFFFFFFFFF MUL NOT AND SWAP1 DUP4 PUSH20 0xFFFFFFFFFFFFFFFFFFFFFFFFFFFFFFFFFFFFFFFF AND MUL OR SWAP1 SSTORE POP DUP3 PUSH1 0x2 DUP7 PUSH1 0x40 MLOAD PUSH2 0x2DAF SWAP2 SWAP1 PUSH2 0x3FD8 JUMP JUMPDEST SWAP1 DUP2 MSTORE PUSH1 0x20 ADD PUSH1 0x40 MLOAD DUP1 SWAP2 SUB SWAP1 KECCAK256 PUSH1 0x3 ADD DUP2 SWAP1 SSTORE POP PUSH1 0x1 PUSH1 0x2 DUP7 PUSH1 0x40 MLOAD PUSH2 0x2DD6 SWAP2 SWAP1 PUSH2 0x3FD8 JUMP JUMPDEST SWAP1 DUP2 MSTORE PUSH1 0x20 ADD PUSH1 0x40 MLOAD DUP1 SWAP2 SUB SWAP1 KECCAK256 PUSH1 0x4 ADD PUSH1 0x1 PUSH2 0x100 EXP DUP2 SLOAD DUP2 PUSH1 0xFF MUL NOT AND SWAP1 DUP4 ISZERO ISZERO MUL OR SWAP1 SSTORE POP PUSH1 0x0 PUSH1 0x2 DUP7 PUSH1 0x40 MLOAD PUSH2 0x2E10 SWAP2 SWAP1 PUSH2 0x3FD8 JUMP JUMPDEST SWAP1 DUP2 MSTORE PUSH1 0x20 ADD PUSH1 0x40 MLOAD DUP1 SWAP2 SUB SWAP1 KECCAK256 PUSH1 0x4 ADD PUSH1 0x0 PUSH2 0x100 EXP DUP2 SLOAD DUP2 PUSH1 0xFF MUL NOT AND SWAP1 DUP4 ISZERO ISZERO MUL OR SWAP1 SSTORE POP DUP2 PUSH1 0x2 DUP7 PUSH1 0x40 MLOAD PUSH2 0x2E49 SWAP2 SWAP1 PUSH2 0x3FD8 JUMP JUMPDEST SWAP1 DUP2 MSTORE PUSH1 0x20 ADD PUSH1 0x40 MLOAD DUP1 SWAP2 SUB SWAP1 KECCAK256 PUSH1 0x8 ADD DUP2 SWAP1 SSTORE POP POP POP POP POP POP JUMP JUMPDEST PUSH1 0x0 ISZERO ISZERO PUSH1 0x2 DUP5 PUSH1 0x40 MLOAD PUSH2 0x2E79 SWAP2 SWAP1 PUSH2 0x3FD8 JUMP JUMPDEST SWAP1 DUP2 MSTORE PUSH1 0x20 ADD PUSH1 0x40 MLOAD DUP1 SWAP2 SUB SWAP1 KECCAK256 PUSH1 0x4 ADD PUSH1 0x0 SWAP1 SLOAD SWAP1 PUSH2 0x100 EXP SWAP1 DIV PUSH1 0xFF AND ISZERO ISZERO EQ PUSH2 0x2EDA JUMPI PUSH1 0x40 MLOAD PUSH32 0x8C379A000000000000000000000000000000000000000000000000000000000 DUP2 MSTORE PUSH1 0x4 ADD PUSH2 0x2ED1 SWAP1 PUSH2 0x4EAE JUMP JUMPDEST PUSH1 0x40 MLOAD DUP1 SWAP2 SUB SWAP1 REVERT JUMPDEST DUP2 PUSH1 0x2 DUP5 PUSH1 0x40 MLOAD PUSH2 0x2EEB SWAP2 SWAP1 PUSH2 0x3FD8 JUMP JUMPDEST SWAP1 DUP2 MSTORE PUSH1 0x20 ADD PUSH1 0x40 MLOAD DUP1 SWAP2 SUB SWAP1 KECCAK256 PUSH1 0x3 ADD DUP2 SWAP1 SSTORE POP DUP1 PUSH1 0x2 DUP5 PUSH1 0x40 MLOAD PUSH2 0x2F11 SWAP2 SWAP1 PUSH2 0x3FD8 JUMP JUMPDEST SWAP1 DUP2 MSTORE PUSH1 0x20 ADD PUSH1 0x40 MLOAD DUP1 SWAP2 SUB SWAP1 KECCAK256 PUSH1 0x8 ADD DUP2 SWAP1 SSTORE POP POP POP POP JUMP JUMPDEST PUSH2 0x2F93 PUSH20 0xB7AC142BFEBBCE40D51088AA8B83BA806D79964C PUSH2 0x2F4B PUSH2 0x2051 JUMP JUMPDEST PUSH1 0x1 PUSH1 0x0 SWAP1 SLOAD SWAP1 PUSH2 0x100 EXP SWAP1 DIV PUSH20 0xFFFFFFFFFFFFFFFFFFFFFFFFFFFFFFFFFFFFFFFF AND PUSH20 0xFFFFFFFFFFFFFFFFFFFFFFFFFFFFFFFFFFFFFFFF AND PUSH2 0x3226 SWAP1 SWAP3 SWAP2 SWAP1 PUSH4 0xFFFFFFFF AND JUMP JUMPDEST JUMP JUMPDEST PUSH2 0x3018 DUP5 PUSH4 0x23B872DD PUSH1 0xE0 SHL DUP6 DUP6 DUP6 PUSH1 0x40 MLOAD PUSH1 0x24 ADD PUSH2 0x2FB6 SWAP4 SWAP3 SWAP2 SWAP1 PUSH2 0x4ECE JUMP JUMPDEST PUSH1 0x40 MLOAD PUSH1 0x20 DUP2 DUP4 SUB SUB DUP2 MSTORE SWAP1 PUSH1 0x40 MSTORE SWAP1 PUSH28 0xFFFFFFFFFFFFFFFFFFFFFFFFFFFFFFFFFFFFFFFFFFFFFFFFFFFFFFFF NOT AND PUSH1 0x20 DUP3 ADD DUP1 MLOAD PUSH28 0xFFFFFFFFFFFFFFFFFFFFFFFFFFFFFFFFFFFFFFFFFFFFFFFFFFFFFFFF DUP4 DUP2 DUP4 AND OR DUP4 MSTORE POP POP POP POP PUSH2 0x32AC JUMP JUMPDEST POP POP POP POP JUMP JUMPDEST PUSH1 0x0 PUSH2 0x3060 DUP4 DUP4 PUSH1 0x40 MLOAD DUP1 PUSH1 0x40 ADD PUSH1 0x40 MSTORE DUP1 PUSH1 0x1E DUP2 MSTORE PUSH1 0x20 ADD PUSH32 0x536166654D6174683A207375627472616374696F6E206F766572666C6F770000 DUP2 MSTORE POP PUSH2 0x3356 JUMP JUMPDEST SWAP1 POP SWAP3 SWAP2 POP POP JUMP JUMPDEST PUSH1 0x0 PUSH2 0x30AA DUP4 DUP4 PUSH1 0x40 MLOAD DUP1 PUSH1 0x40 ADD PUSH1 0x40 MSTORE DUP1 PUSH1 0x1A DUP2 MSTORE PUSH1 0x20 ADD PUSH32 0x536166654D6174683A206469766973696F6E206279207A65726F000000000000 DUP2 MSTORE POP PUSH2 0x33BA JUMP JUMPDEST SWAP1 POP SWAP3 SWAP2 POP POP JUMP JUMPDEST PUSH1 0x0 DUP1 DUP3 DUP5 PUSH2 0x30C1 SWAP2 SWAP1 PUSH2 0x47AC JUMP JUMPDEST SWAP1 POP DUP4 DUP2 LT ISZERO PUSH2 0x3106 JUMPI PUSH1 0x40 MLOAD PUSH32 0x8C379A000000000000000000000000000000000000000000000000000000000 DUP2 MSTORE PUSH1 0x4 ADD PUSH2 0x30FD SWAP1 PUSH2 0x4F51 JUMP JUMPDEST PUSH1 0x40 MLOAD DUP1 SWAP2 SUB SWAP1 REVERT JUMPDEST DUP1 SWAP2 POP POP SWAP3 SWAP2 POP POP JUMP JUMPDEST PUSH1 0x0 DUP1 DUP4 SUB PUSH2 0x3122 JUMPI PUSH1 0x0 SWAP1 POP PUSH2 0x3184 JUMP JUMPDEST PUSH1 0x0 DUP3 DUP5 PUSH2 0x3130 SWAP2 SWAP1 PUSH2 0x4F71 JUMP JUMPDEST SWAP1 POP DUP3 DUP5 DUP3 PUSH2 0x313F SWAP2 SWAP1 PUSH2 0x4FE2 JUMP JUMPDEST EQ PUSH2 0x317F JUMPI PUSH1 0x40 MLOAD PUSH32 0x8C379A000000000000000000000000000000000000000000000000000000000 DUP2 MSTORE PUSH1 0x4 ADD PUSH2 0x3176 SWAP1 PUSH2 0x5085 JUMP JUMPDEST PUSH1 0x40 MLOAD DUP1 SWAP2 SUB SWAP1 REVERT JUMPDEST DUP1 SWAP2 POP POP JUMPDEST SWAP3 SWAP2 POP POP JUMP JUMPDEST PUSH2 0x3222 DUP3 DUP3 PUSH1 0x40 MLOAD PUSH1 0x24 ADD PUSH2 0x31A0 SWAP3 SWAP2 SWAP1 PUSH2 0x50DE JUMP JUMPDEST PUSH1 0x40 MLOAD PUSH1 0x20 DUP2 DUP4 SUB SUB DUP2 MSTORE SWAP1 PUSH1 0x40 MSTORE PUSH32 0x319AF33300000000000000000000000000000000000000000000000000000000 PUSH28 0xFFFFFFFFFFFFFFFFFFFFFFFFFFFFFFFFFFFFFFFFFFFFFFFFFFFFFFFF NOT AND PUSH1 0x20 DUP3 ADD DUP1 MLOAD PUSH28 0xFFFFFFFFFFFFFFFFFFFFFFFFFFFFFFFFFFFFFFFFFFFFFFFFFFFFFFFF DUP4 DUP2 DUP4 AND OR DUP4 MSTORE POP POP POP POP PUSH2 0x341D JUMP JUMPDEST POP POP JUMP JUMPDEST PUSH2 0x32A7 DUP4 PUSH4 0xA9059CBB PUSH1 0xE0 SHL DUP5 DUP5 PUSH1 0x40 MLOAD PUSH1 0x24 ADD PUSH2 0x3245 SWAP3 SWAP2 SWAP1 PUSH2 0x510E JUMP JUMPDEST PUSH1 0x40 MLOAD PUSH1 0x20 DUP2 DUP4 SUB SUB DUP2 MSTORE SWAP1 PUSH1 0x40 MSTORE SWAP1 PUSH28 0xFFFFFFFFFFFFFFFFFFFFFFFFFFFFFFFFFFFFFFFFFFFFFFFFFFFFFFFF NOT AND PUSH1 0x20 DUP3 ADD DUP1 MLOAD PUSH28 0xFFFFFFFFFFFFFFFFFFFFFFFFFFFFFFFFFFFFFFFFFFFFFFFFFFFFFFFF DUP4 DUP2 DUP4 AND OR DUP4 MSTORE POP POP POP POP PUSH2 0x32AC JUMP JUMPDEST POP POP POP JUMP JUMPDEST PUSH1 0x0 PUSH2 0x32F1 DUP3 PUSH1 0x40 MLOAD DUP1 PUSH1 0x60 ADD PUSH1 0x40 MSTORE DUP1 PUSH1 0x36 DUP2 MSTORE PUSH1 0x20 ADD PUSH2 0x53BE PUSH1 0x36 SWAP2 CODECOPY DUP6 PUSH20 0xFFFFFFFFFFFFFFFFFFFFFFFFFFFFFFFFFFFFFFFF AND PUSH2 0x3446 SWAP1 SWAP3 SWAP2 SWAP1 PUSH4 0xFFFFFFFF AND JUMP JUMPDEST SWAP1 POP PUSH1 0x0 DUP2 MLOAD GT ISZERO PUSH2 0x3351 JUMPI DUP1 DUP1 PUSH1 0x20 ADD SWAP1 MLOAD DUP2 ADD SWAP1 PUSH2 0x3311 SWAP2 SWAP1 PUSH2 0x514C JUMP JUMPDEST PUSH2 0x3350 JUMPI PUSH1 0x40 MLOAD PUSH32 0x8C379A000000000000000000000000000000000000000000000000000000000 DUP2 MSTORE PUSH1 0x4 ADD PUSH2 0x3347 SWAP1 PUSH2 0x51EB JUMP JUMPDEST PUSH1 0x40 MLOAD DUP1 SWAP2 SUB SWAP1 REVERT JUMPDEST JUMPDEST POP POP POP JUMP JUMPDEST PUSH1 0x0 DUP4 DUP4 GT ISZERO DUP3 SWAP1 PUSH2 0x339E JUMPI PUSH1 0x40 MLOAD PUSH32 0x8C379A000000000000000000000000000000000000000000000000000000000 DUP2 MSTORE PUSH1 0x4 ADD PUSH2 0x3395 SWAP2 SWAP1 PUSH2 0x520B JUMP JUMPDEST PUSH1 0x40 MLOAD DUP1 SWAP2 SUB SWAP1 REVERT JUMPDEST POP PUSH1 0x0 DUP4 DUP6 PUSH2 0x33AD SWAP2 SWAP1 PUSH2 0x522D JUMP JUMPDEST SWAP1 POP DUP1 SWAP2 POP POP SWAP4 SWAP3 POP POP POP JUMP JUMPDEST PUSH1 0x0 DUP1 DUP4 GT DUP3 SWAP1 PUSH2 0x3401 JUMPI PUSH1 0x40 MLOAD PUSH32 0x8C379A000000000000000000000000000000000000000000000000000000000 DUP2 MSTORE PUSH1 0x4 ADD PUSH2 0x33F8 SWAP2 SWAP1 PUSH2 0x520B JUMP JUMPDEST PUSH1 0x40 MLOAD DUP1 SWAP2 SUB SWAP1 REVERT JUMPDEST POP PUSH1 0x0 DUP4 DUP6 PUSH2 0x3410 SWAP2 SWAP1 PUSH2 0x4FE2 JUMP JUMPDEST SWAP1 POP DUP1 SWAP2 POP POP SWAP4 SWAP3 POP POP POP JUMP JUMPDEST PUSH1 0x0 DUP2 MLOAD SWAP1 POP PUSH1 0x0 PUSH11 0x636F6E736F6C652E6C6F67 SWAP1 POP PUSH1 0x20 DUP4 ADD PUSH1 0x0 DUP1 DUP5 DUP4 DUP6 GAS STATICCALL POP POP POP POP POP JUMP JUMPDEST PUSH1 0x60 PUSH2 0x3455 DUP5 DUP5 PUSH1 0x0 DUP6 PUSH2 0x345E JUMP JUMPDEST SWAP1 POP SWAP4 SWAP3 POP POP POP JUMP JUMPDEST PUSH1 0x60 DUP3 SELFBALANCE LT ISZERO PUSH2 0x34A3 JUMPI PUSH1 0x40 MLOAD PUSH32 0x8C379A000000000000000000000000000000000000000000000000000000000 DUP2 MSTORE PUSH1 0x4 ADD PUSH2 0x349A SWAP1 PUSH2 0x52D3 JUMP JUMPDEST PUSH1 0x40 MLOAD DUP1 SWAP2 SUB SWAP1 REVERT JUMPDEST PUSH2 0x34AC DUP6 PUSH2 0x3572 JUMP JUMPDEST PUSH2 0x34EB JUMPI PUSH1 0x40 MLOAD PUSH32 0x8C379A000000000000000000000000000000000000000000000000000000000 DUP2 MSTORE PUSH1 0x4 ADD PUSH2 0x34E2 SWAP1 PUSH2 0x533F JUMP JUMPDEST PUSH1 0x40 MLOAD DUP1 SWAP2 SUB SWAP1 REVERT JUMPDEST PUSH1 0x0 DUP1 DUP7 PUSH20 0xFFFFFFFFFFFFFFFFFFFFFFFFFFFFFFFFFFFFFFFF AND DUP6 DUP8 PUSH1 0x40 MLOAD PUSH2 0x3514 SWAP2 SWAP1 PUSH2 0x53A6 JUMP JUMPDEST PUSH1 0x0 PUSH1 0x40 MLOAD DUP1 DUP4 SUB DUP2 DUP6 DUP8 GAS CALL SWAP3 POP POP POP RETURNDATASIZE DUP1 PUSH1 0x0 DUP2 EQ PUSH2 0x3551 JUMPI PUSH1 0x40 MLOAD SWAP2 POP PUSH1 0x1F NOT PUSH1 0x3F RETURNDATASIZE ADD AND DUP3 ADD PUSH1 0x40 MSTORE RETURNDATASIZE DUP3 MSTORE RETURNDATASIZE PUSH1 0x0 PUSH1 0x20 DUP5 ADD RETURNDATACOPY PUSH2 0x3556 JUMP JUMPDEST PUSH1 0x60 SWAP2 POP JUMPDEST POP SWAP2 POP SWAP2 POP PUSH2 0x3566 DUP3 DUP3 DUP7 PUSH2 0x3595 JUMP JUMPDEST SWAP3 POP POP POP SWAP5 SWAP4 POP POP POP POP JUMP JUMPDEST PUSH1 0x0 DUP1 DUP3 PUSH20 0xFFFFFFFFFFFFFFFFFFFFFFFFFFFFFFFFFFFFFFFF AND EXTCODESIZE GT SWAP1 POP SWAP2 SWAP1 POP JUMP JUMPDEST PUSH1 0x60 DUP4 ISZERO PUSH2 0x35A5 JUMPI DUP3 SWAP1 POP PUSH2 0x35F5 JUMP JUMPDEST PUSH1 0x0 DUP4 MLOAD GT ISZERO PUSH2 0x35B8 JUMPI DUP3 MLOAD DUP1 DUP5 PUSH1 0x20 ADD REVERT JUMPDEST DUP2 PUSH1 0x40 MLOAD PUSH32 0x8C379A000000000000000000000000000000000000000000000000000000000 DUP2 MSTORE PUSH1 0x4 ADD PUSH2 0x35EC SWAP2 SWAP1 PUSH2 0x520B JUMP JUMPDEST PUSH1 0x40 MLOAD DUP1 SWAP2 SUB SWAP1 REVERT JUMPDEST SWAP4 SWAP3 POP POP POP JUMP JUMPDEST PUSH1 0x40 MLOAD DUP1 PUSH2 0x180 ADD PUSH1 0x40 MSTORE DUP1 PUSH1 0x60 DUP2 MSTORE PUSH1 0x20 ADD PUSH1 0x0 PUSH20 0xFFFFFFFFFFFFFFFFFFFFFFFFFFFFFFFFFFFFFFFF AND DUP2 MSTORE PUSH1 0x20 ADD PUSH1 0x0 DUP2 MSTORE PUSH1 0x20 ADD PUSH1 0x0 DUP2 MSTORE PUSH1 0x20 ADD PUSH1 0x0 ISZERO ISZERO DUP2 MSTORE PUSH1 0x20 ADD PUSH1 0x0 ISZERO ISZERO DUP2 MSTORE PUSH1 0x20 ADD PUSH1 0x0 ISZERO ISZERO DUP2 MSTORE PUSH1 0x20 ADD PUSH1 0x0 DUP2 MSTORE PUSH1 0x20 ADD PUSH1 0x0 ISZERO ISZERO DUP2 MSTORE PUSH1 0x20 ADD PUSH1 0x0 DUP2 MSTORE PUSH1 0x20 ADD PUSH1 0x0 DUP2 MSTORE PUSH1 0x20 ADD PUSH1 0x0 DUP2 MSTORE POP SWAP1 JUMP JUMPDEST PUSH1 0x40 MLOAD DUP1 PUSH2 0x140 ADD PUSH1 0x40 MSTORE DUP1 PUSH1 0x0 DUP2 MSTORE PUSH1 0x20 ADD PUSH1 0x0 DUP2 MSTORE PUSH1 0x20 ADD PUSH1 0x0 ISZERO ISZERO DUP2 MSTORE PUSH1 0x20 ADD PUSH1 0x0 ISZERO ISZERO DUP2 MSTORE PUSH1 0x20 ADD PUSH1 0x0 ISZERO ISZERO DUP2 MSTORE PUSH1 0x20 ADD PUSH1 0x0 ISZERO ISZERO DUP2 MSTORE PUSH1 0x20 ADD PUSH1 0x0 ISZERO ISZERO DUP2 MSTORE PUSH1 0x20 ADD PUSH1 0x0 DUP2 MSTORE PUSH1 0x20 ADD PUSH1 0x0 DUP2 MSTORE PUSH1 0x20 ADD PUSH1 0x60 DUP2 MSTORE POP SWAP1 JUMP JUMPDEST PUSH1 0x0 PUSH20 0xFFFFFFFFFFFFFFFFFFFFFFFFFFFFFFFFFFFFFFFF DUP3 AND SWAP1 POP SWAP2 SWAP1 POP JUMP JUMPDEST PUSH1 0x0 PUSH2 0x3703 DUP3 PUSH2 0x36D8 JUMP JUMPDEST SWAP1 POP SWAP2 SWAP1 POP JUMP JUMPDEST PUSH2 0x3713 DUP2 PUSH2 0x36F8 JUMP JUMPDEST DUP3 MSTORE POP POP JUMP JUMPDEST PUSH1 0x0 PUSH1 0x20 DUP3 ADD SWAP1 POP PUSH2 0x372E PUSH1 0x0 DUP4 ADD DUP5 PUSH2 0x370A JUMP JUMPDEST SWAP3 SWAP2 POP POP JUMP JUMPDEST PUSH1 0x0 PUSH1 0x40 MLOAD SWAP1 POP SWAP1 JUMP JUMPDEST PUSH1 0x0 DUP1 REVERT JUMPDEST PUSH1 0x0 DUP1 REVERT JUMPDEST PUSH1 0x0 DUP1 REVERT JUMPDEST PUSH1 0x0 DUP1 REVERT JUMPDEST PUSH1 0x0 PUSH1 0x1F NOT PUSH1 0x1F DUP4 ADD AND SWAP1 POP SWAP2 SWAP1 POP JUMP JUMPDEST PUSH32 0x4E487B7100000000000000000000000000000000000000000000000000000000 PUSH1 0x0 MSTORE PUSH1 0x41 PUSH1 0x4 MSTORE PUSH1 0x24 PUSH1 0x0 REVERT JUMPDEST PUSH2 0x379B DUP3 PUSH2 0x3752 JUMP JUMPDEST DUP2 ADD DUP2 DUP2 LT PUSH8 0xFFFFFFFFFFFFFFFF DUP3 GT OR ISZERO PUSH2 0x37BA JUMPI PUSH2 0x37B9 PUSH2 0x3763 JUMP JUMPDEST JUMPDEST DUP1 PUSH1 0x40 MSTORE POP POP POP JUMP JUMPDEST PUSH1 0x0 PUSH2 0x37CD PUSH2 0x3734 JUMP JUMPDEST SWAP1 POP PUSH2 0x37D9 DUP3 DUP3 PUSH2 0x3792 JUMP JUMPDEST SWAP2 SWAP1 POP JUMP JUMPDEST PUSH1 0x0 PUSH8 0xFFFFFFFFFFFFFFFF DUP3 GT ISZERO PUSH2 0x37F9 JUMPI PUSH2 0x37F8 PUSH2 0x3763 JUMP JUMPDEST JUMPDEST PUSH2 0x3802 DUP3 PUSH2 0x3752 JUMP JUMPDEST SWAP1 POP PUSH1 0x20 DUP2 ADD SWAP1 POP SWAP2 SWAP1 POP JUMP JUMPDEST DUP3 DUP2 DUP4 CALLDATACOPY PUSH1 0x0 DUP4 DUP4 ADD MSTORE POP POP POP JUMP JUMPDEST PUSH1 0x0 PUSH2 0x3831 PUSH2 0x382C DUP5 PUSH2 0x37DE JUMP JUMPDEST PUSH2 0x37C3 JUMP JUMPDEST SWAP1 POP DUP3 DUP2 MSTORE PUSH1 0x20 DUP2 ADD DUP5 DUP5 DUP5 ADD GT ISZERO PUSH2 0x384D JUMPI PUSH2 0x384C PUSH2 0x374D JUMP JUMPDEST JUMPDEST PUSH2 0x3858 DUP5 DUP3 DUP6 PUSH2 0x380F JUMP JUMPDEST POP SWAP4 SWAP3 POP POP POP JUMP JUMPDEST PUSH1 0x0 DUP3 PUSH1 0x1F DUP4 ADD SLT PUSH2 0x3875 JUMPI PUSH2 0x3874 PUSH2 0x3748 JUMP JUMPDEST JUMPDEST DUP2 CALLDATALOAD PUSH2 0x3885 DUP5 DUP3 PUSH1 0x20 DUP7 ADD PUSH2 0x381E JUMP JUMPDEST SWAP2 POP POP SWAP3 SWAP2 POP POP JUMP JUMPDEST PUSH1 0x0 DUP2 SWAP1 POP SWAP2 SWAP1 POP JUMP JUMPDEST PUSH2 0x38A1 DUP2 PUSH2 0x388E JUMP JUMPDEST DUP2 EQ PUSH2 0x38AC JUMPI PUSH1 0x0 DUP1 REVERT JUMPDEST POP JUMP JUMPDEST PUSH1 0x0 DUP2 CALLDATALOAD SWAP1 POP PUSH2 0x38BE DUP2 PUSH2 0x3898 JUMP JUMPDEST SWAP3 SWAP2 POP POP JUMP JUMPDEST PUSH1 0x0 DUP1 PUSH1 0x40 DUP4 DUP6 SUB SLT ISZERO PUSH2 0x38DB JUMPI PUSH2 0x38DA PUSH2 0x373E JUMP JUMPDEST JUMPDEST PUSH1 0x0 DUP4 ADD CALLDATALOAD PUSH8 0xFFFFFFFFFFFFFFFF DUP2 GT ISZERO PUSH2 0x38F9 JUMPI PUSH2 0x38F8 PUSH2 0x3743 JUMP JUMPDEST JUMPDEST PUSH2 0x3905 DUP6 DUP3 DUP7 ADD PUSH2 0x3860 JUMP JUMPDEST SWAP3 POP POP PUSH1 0x20 PUSH2 0x3916 DUP6 DUP3 DUP7 ADD PUSH2 0x38AF JUMP JUMPDEST SWAP2 POP POP SWAP3 POP SWAP3 SWAP1 POP JUMP JUMPDEST PUSH2 0x3929 DUP2 PUSH2 0x36F8 JUMP JUMPDEST DUP2 EQ PUSH2 0x3934 JUMPI PUSH1 0x0 DUP1 REVERT JUMPDEST POP JUMP JUMPDEST PUSH1 0x0 DUP2 CALLDATALOAD SWAP1 POP PUSH2 0x3946 DUP2 PUSH2 0x3920 JUMP JUMPDEST SWAP3 SWAP2 POP POP JUMP JUMPDEST PUSH1 0x0 PUSH1 0x20 DUP3 DUP5 SUB SLT ISZERO PUSH2 0x3962 JUMPI PUSH2 0x3961 PUSH2 0x373E JUMP JUMPDEST JUMPDEST PUSH1 0x0 PUSH2 0x3970 DUP5 DUP3 DUP6 ADD PUSH2 0x3937 JUMP JUMPDEST SWAP2 POP POP SWAP3 SWAP2 POP POP JUMP JUMPDEST PUSH1 0x0 PUSH1 0x20 DUP3 DUP5 SUB SLT ISZERO PUSH2 0x398F JUMPI PUSH2 0x398E PUSH2 0x373E JUMP JUMPDEST JUMPDEST PUSH1 0x0 DUP3 ADD CALLDATALOAD PUSH8 0xFFFFFFFFFFFFFFFF DUP2 GT ISZERO PUSH2 0x39AD JUMPI PUSH2 0x39AC PUSH2 0x3743 JUMP JUMPDEST JUMPDEST PUSH2 0x39B9 DUP5 DUP3 DUP6 ADD PUSH2 0x3860 JUMP JUMPDEST SWAP2 POP POP SWAP3 SWAP2 POP POP JUMP JUMPDEST PUSH1 0x0 DUP2 MLOAD SWAP1 POP SWAP2 SWAP1 POP JUMP JUMPDEST PUSH1 0x0 DUP3 DUP3 MSTORE PUSH1 0x20 DUP3 ADD SWAP1 POP SWAP3 SWAP2 POP POP JUMP JUMPDEST PUSH1 0x0 JUMPDEST DUP4 DUP2 LT ISZERO PUSH2 0x39FC JUMPI DUP1 DUP3 ADD MLOAD DUP2 DUP5 ADD MSTORE PUSH1 0x20 DUP2 ADD SWAP1 POP PUSH2 0x39E1 JUMP JUMPDEST PUSH1 0x0 DUP5 DUP5 ADD MSTORE POP POP POP POP JUMP JUMPDEST PUSH1 0x0 PUSH2 0x3A13 DUP3 PUSH2 0x39C2 JUMP JUMPDEST PUSH2 0x3A1D DUP2 DUP6 PUSH2 0x39CD JUMP JUMPDEST SWAP4 POP PUSH2 0x3A2D DUP2 DUP6 PUSH1 0x20 DUP7 ADD PUSH2 0x39DE JUMP JUMPDEST PUSH2 0x3A36 DUP2 PUSH2 0x3752 JUMP JUMPDEST DUP5 ADD SWAP2 POP POP SWAP3 SWAP2 POP POP JUMP JUMPDEST PUSH2 0x3A4A DUP2 PUSH2 0x36F8 JUMP JUMPDEST DUP3 MSTORE POP POP JUMP JUMPDEST PUSH2 0x3A59 DUP2 PUSH2 0x388E JUMP JUMPDEST DUP3 MSTORE POP POP JUMP JUMPDEST PUSH1 0x0 DUP2 ISZERO ISZERO SWAP1 POP SWAP2 SWAP1 POP JUMP JUMPDEST PUSH2 0x3A74 DUP2 PUSH2 0x3A5F JUMP JUMPDEST DUP3 MSTORE POP POP JUMP JUMPDEST PUSH1 0x0 PUSH2 0x180 DUP4 ADD PUSH1 0x0 DUP4 ADD MLOAD DUP5 DUP3 SUB PUSH1 0x0 DUP7 ADD MSTORE PUSH2 0x3A98 DUP3 DUP3 PUSH2 0x3A08 JUMP JUMPDEST SWAP2 POP POP PUSH1 0x20 DUP4 ADD MLOAD PUSH2 0x3AAD PUSH1 0x20 DUP7 ADD DUP3 PUSH2 0x3A41 JUMP JUMPDEST POP PUSH1 0x40 DUP4 ADD MLOAD PUSH2 0x3AC0 PUSH1 0x40 DUP7 ADD DUP3 PUSH2 0x3A50 JUMP JUMPDEST POP PUSH1 0x60 DUP4 ADD MLOAD PUSH2 0x3AD3 PUSH1 0x60 DUP7 ADD DUP3 PUSH2 0x3A50 JUMP JUMPDEST POP PUSH1 0x80 DUP4 ADD MLOAD PUSH2 0x3AE6 PUSH1 0x80 DUP7 ADD DUP3 PUSH2 0x3A6B JUMP JUMPDEST POP PUSH1 0xA0 DUP4 ADD MLOAD PUSH2 0x3AF9 PUSH1 0xA0 DUP7 ADD DUP3 PUSH2 0x3A6B JUMP JUMPDEST POP PUSH1 0xC0 DUP4 ADD MLOAD PUSH2 0x3B0C PUSH1 0xC0 DUP7 ADD DUP3 PUSH2 0x3A6B JUMP JUMPDEST POP PUSH1 0xE0 DUP4 ADD MLOAD PUSH2 0x3B1F PUSH1 0xE0 DUP7 ADD DUP3 PUSH2 0x3A50 JUMP JUMPDEST POP PUSH2 0x100 DUP4 ADD MLOAD PUSH2 0x3B34 PUSH2 0x100 DUP7 ADD DUP3 PUSH2 0x3A6B JUMP JUMPDEST POP PUSH2 0x120 DUP4 ADD MLOAD PUSH2 0x3B49 PUSH2 0x120 DUP7 ADD DUP3 PUSH2 0x3A50 JUMP JUMPDEST POP PUSH2 0x140 DUP4 ADD MLOAD PUSH2 0x3B5E PUSH2 0x140 DUP7 ADD DUP3 PUSH2 0x3A50 JUMP JUMPDEST POP PUSH2 0x160 DUP4 ADD MLOAD PUSH2 0x3B73 PUSH2 0x160 DUP7 ADD DUP3 PUSH2 0x3A50 JUMP JUMPDEST POP DUP1 SWAP2 POP POP SWAP3 SWAP2 POP POP JUMP JUMPDEST PUSH1 0x0 PUSH1 0x20 DUP3 ADD SWAP1 POP DUP2 DUP2 SUB PUSH1 0x0 DUP4 ADD MSTORE PUSH2 0x3B98 DUP2 DUP5 PUSH2 0x3A7A JUMP JUMPDEST SWAP1 POP SWAP3 SWAP2 POP POP JUMP JUMPDEST PUSH1 0x0 DUP1 PUSH1 0x40 DUP4 DUP6 SUB SLT ISZERO PUSH2 0x3BB7 JUMPI PUSH2 0x3BB6 PUSH2 0x373E JUMP JUMPDEST JUMPDEST PUSH1 0x0 DUP4 ADD CALLDATALOAD PUSH8 0xFFFFFFFFFFFFFFFF DUP2 GT ISZERO PUSH2 0x3BD5 JUMPI PUSH2 0x3BD4 PUSH2 0x3743 JUMP JUMPDEST JUMPDEST PUSH2 0x3BE1 DUP6 DUP3 DUP7 ADD PUSH2 0x3860 JUMP JUMPDEST SWAP3 POP POP PUSH1 0x20 PUSH2 0x3BF2 DUP6 DUP3 DUP7 ADD PUSH2 0x3937 JUMP JUMPDEST SWAP2 POP POP SWAP3 POP SWAP3 SWAP1 POP JUMP JUMPDEST PUSH1 0x0 PUSH2 0x140 DUP4 ADD PUSH1 0x0 DUP4 ADD MLOAD PUSH2 0x3C15 PUSH1 0x0 DUP7 ADD DUP3 PUSH2 0x3A50 JUMP JUMPDEST POP PUSH1 0x20 DUP4 ADD MLOAD PUSH2 0x3C28 PUSH1 0x20 DUP7 ADD DUP3 PUSH2 0x3A50 JUMP JUMPDEST POP PUSH1 0x40 DUP4 ADD MLOAD PUSH2 0x3C3B PUSH1 0x40 DUP7 ADD DUP3 PUSH2 0x3A6B JUMP JUMPDEST POP PUSH1 0x60 DUP4 ADD MLOAD PUSH2 0x3C4E PUSH1 0x60 DUP7 ADD DUP3 PUSH2 0x3A6B JUMP JUMPDEST POP PUSH1 0x80 DUP4 ADD MLOAD PUSH2 0x3C61 PUSH1 0x80 DUP7 ADD DUP3 PUSH2 0x3A6B JUMP JUMPDEST POP PUSH1 0xA0 DUP4 ADD MLOAD PUSH2 0x3C74 PUSH1 0xA0 DUP7 ADD DUP3 PUSH2 0x3A6B JUMP JUMPDEST POP PUSH1 0xC0 DUP4 ADD MLOAD PUSH2 0x3C87 PUSH1 0xC0 DUP7 ADD DUP3 PUSH2 0x3A6B JUMP JUMPDEST POP PUSH1 0xE0 DUP4 ADD MLOAD PUSH2 0x3C9A PUSH1 0xE0 DUP7 ADD DUP3 PUSH2 0x3A50 JUMP JUMPDEST POP PUSH2 0x100 DUP4 ADD MLOAD PUSH2 0x3CAF PUSH2 0x100 DUP7 ADD DUP3 PUSH2 0x3A50 JUMP JUMPDEST POP PUSH2 0x120 DUP4 ADD MLOAD DUP5 DUP3 SUB PUSH2 0x120 DUP7 ADD MSTORE PUSH2 0x3CC9 DUP3 DUP3 PUSH2 0x3A08 JUMP JUMPDEST SWAP2 POP POP DUP1 SWAP2 POP POP SWAP3 SWAP2 POP POP JUMP JUMPDEST PUSH1 0x0 PUSH1 0x20 DUP3 ADD SWAP1 POP DUP2 DUP2 SUB PUSH1 0x0 DUP4 ADD MSTORE PUSH2 0x3CF0 DUP2 DUP5 PUSH2 0x3BFC JUMP JUMPDEST SWAP1 POP SWAP3 SWAP2 POP POP JUMP JUMPDEST PUSH1 0x0 DUP1 PUSH1 0x0 PUSH1 0x60 DUP5 DUP7 SUB SLT ISZERO PUSH2 0x3D11 JUMPI PUSH2 0x3D10 PUSH2 0x373E JUMP JUMPDEST JUMPDEST PUSH1 0x0 DUP5 ADD CALLDATALOAD PUSH8 0xFFFFFFFFFFFFFFFF DUP2 GT ISZERO PUSH2 0x3D2F JUMPI PUSH2 0x3D2E PUSH2 0x3743 JUMP JUMPDEST JUMPDEST PUSH2 0x3D3B DUP7 DUP3 DUP8 ADD PUSH2 0x3860 JUMP JUMPDEST SWAP4 POP POP PUSH1 0x20 PUSH2 0x3D4C DUP7 DUP3 DUP8 ADD PUSH2 0x38AF JUMP JUMPDEST SWAP3 POP POP PUSH1 0x40 PUSH2 0x3D5D DUP7 DUP3 DUP8 ADD PUSH2 0x3937 JUMP JUMPDEST SWAP2 POP POP SWAP3 POP SWAP3 POP SWAP3 JUMP JUMPDEST PUSH2 0x3D70 DUP2 PUSH2 0x3A5F JUMP JUMPDEST DUP2 EQ PUSH2 0x3D7B JUMPI PUSH1 0x0 DUP1 REVERT JUMPDEST POP JUMP JUMPDEST PUSH1 0x0 DUP2 CALLDATALOAD SWAP1 POP PUSH2 0x3D8D DUP2 PUSH2 0x3D67 JUMP JUMPDEST SWAP3 SWAP2 POP POP JUMP JUMPDEST PUSH1 0x0 DUP1 PUSH1 0x40 DUP4 DUP6 SUB SLT ISZERO PUSH2 0x3DAA JUMPI PUSH2 0x3DA9 PUSH2 0x373E JUMP JUMPDEST JUMPDEST PUSH1 0x0 DUP4 ADD CALLDATALOAD PUSH8 0xFFFFFFFFFFFFFFFF DUP2 GT ISZERO PUSH2 0x3DC8 JUMPI PUSH2 0x3DC7 PUSH2 0x3743 JUMP JUMPDEST JUMPDEST PUSH2 0x3DD4 DUP6 DUP3 DUP7 ADD PUSH2 0x3860 JUMP JUMPDEST SWAP3 POP POP PUSH1 0x20 PUSH2 0x3DE5 DUP6 DUP3 DUP7 ADD PUSH2 0x3D7E JUMP JUMPDEST SWAP2 POP POP SWAP3 POP SWAP3 SWAP1 POP JUMP JUMPDEST PUSH2 0x3DF8 DUP2 PUSH2 0x388E JUMP JUMPDEST DUP3 MSTORE POP POP JUMP JUMPDEST PUSH1 0x0 PUSH1 0x20 DUP3 ADD SWAP1 POP PUSH2 0x3E13 PUSH1 0x0 DUP4 ADD DUP5 PUSH2 0x3DEF JUMP JUMPDEST SWAP3 SWAP2 POP POP JUMP JUMPDEST PUSH1 0x0 DUP1 PUSH1 0x0 DUP1 PUSH1 0x0 PUSH1 0xA0 DUP7 DUP9 SUB SLT ISZERO PUSH2 0x3E35 JUMPI PUSH2 0x3E34 PUSH2 0x373E JUMP JUMPDEST JUMPDEST PUSH1 0x0 DUP7 ADD CALLDATALOAD PUSH8 0xFFFFFFFFFFFFFFFF DUP2 GT ISZERO PUSH2 0x3E53 JUMPI PUSH2 0x3E52 PUSH2 0x3743 JUMP JUMPDEST JUMPDEST PUSH2 0x3E5F DUP9 DUP3 DUP10 ADD PUSH2 0x3860 JUMP JUMPDEST SWAP6 POP POP PUSH1 0x20 PUSH2 0x3E70 DUP9 DUP3 DUP10 ADD PUSH2 0x38AF JUMP JUMPDEST SWAP5 POP POP PUSH1 0x40 PUSH2 0x3E81 DUP9 DUP3 DUP10 ADD PUSH2 0x38AF JUMP JUMPDEST SWAP4 POP POP PUSH1 0x60 PUSH2 0x3E92 DUP9 DUP3 DUP10 ADD PUSH2 0x38AF JUMP JUMPDEST SWAP3 POP POP PUSH1 0x80 PUSH2 0x3EA3 DUP9 DUP3 DUP10 ADD PUSH2 0x3937 JUMP JUMPDEST SWAP2 POP POP SWAP3 SWAP6 POP SWAP3 SWAP6 SWAP1 SWAP4 POP JUMP JUMPDEST PUSH1 0x0 DUP1 PUSH1 0x0 PUSH1 0x60 DUP5 DUP7 SUB SLT ISZERO PUSH2 0x3EC9 JUMPI PUSH2 0x3EC8 PUSH2 0x373E JUMP JUMPDEST JUMPDEST PUSH1 0x0 DUP5 ADD CALLDATALOAD PUSH8 0xFFFFFFFFFFFFFFFF DUP2 GT ISZERO PUSH2 0x3EE7 JUMPI PUSH2 0x3EE6 PUSH2 0x3743 JUMP JUMPDEST JUMPDEST PUSH2 0x3EF3 DUP7 DUP3 DUP8 ADD PUSH2 0x3860 JUMP JUMPDEST SWAP4 POP POP PUSH1 0x20 PUSH2 0x3F04 DUP7 DUP3 DUP8 ADD PUSH2 0x38AF JUMP JUMPDEST SWAP3 POP POP PUSH1 0x40 PUSH2 0x3F15 DUP7 DUP3 DUP8 ADD PUSH2 0x38AF JUMP JUMPDEST SWAP2 POP POP SWAP3 POP SWAP3 POP SWAP3 JUMP JUMPDEST PUSH1 0x0 DUP3 DUP3 MSTORE PUSH1 0x20 DUP3 ADD SWAP1 POP SWAP3 SWAP2 POP POP JUMP JUMPDEST PUSH32 0x4E6F20746F6B656E732068617665206265656E20736574207965740000000000 PUSH1 0x0 DUP3 ADD MSTORE POP JUMP JUMPDEST PUSH1 0x0 PUSH2 0x3F66 PUSH1 0x1B DUP4 PUSH2 0x3F1F JUMP JUMPDEST SWAP2 POP PUSH2 0x3F71 DUP3 PUSH2 0x3F30 JUMP JUMPDEST PUSH1 0x20 DUP3 ADD SWAP1 POP SWAP2 SWAP1 POP JUMP JUMPDEST PUSH1 0x0 PUSH1 0x20 DUP3 ADD SWAP1 POP DUP2 DUP2 SUB PUSH1 0x0 DUP4 ADD MSTORE PUSH2 0x3F95 DUP2 PUSH2 0x3F59 JUMP JUMPDEST SWAP1 POP SWAP2 SWAP1 POP JUMP JUMPDEST PUSH1 0x0 DUP2 SWAP1 POP SWAP3 SWAP2 POP POP JUMP JUMPDEST PUSH1 0x0 PUSH2 0x3FB2 DUP3 PUSH2 0x39C2 JUMP JUMPDEST PUSH2 0x3FBC DUP2 DUP6 PUSH2 0x3F9C JUMP JUMPDEST SWAP4 POP PUSH2 0x3FCC DUP2 DUP6 PUSH1 0x20 DUP7 ADD PUSH2 0x39DE JUMP JUMPDEST DUP1 DUP5 ADD SWAP2 POP POP SWAP3 SWAP2 POP POP JUMP JUMPDEST PUSH1 0x0 PUSH2 0x3FE4 DUP3 DUP5 PUSH2 0x3FA7 JUMP JUMPDEST SWAP2 POP DUP2 SWAP1 POP SWAP3 SWAP2 POP POP JUMP JUMPDEST PUSH32 0x546865207468656D65496420486173206265656E20696E697469617465642100 PUSH1 0x0 DUP3 ADD MSTORE POP JUMP JUMPDEST PUSH1 0x0 PUSH2 0x4025 PUSH1 0x1F DUP4 PUSH2 0x3F1F JUMP JUMPDEST SWAP2 POP PUSH2 0x4030 DUP3 PUSH2 0x3FEF JUMP JUMPDEST PUSH1 0x20 DUP3 ADD SWAP1 POP SWAP2 SWAP1 POP JUMP JUMPDEST PUSH1 0x0 PUSH1 0x20 DUP3 ADD SWAP1 POP DUP2 DUP2 SUB PUSH1 0x0 DUP4 ADD MSTORE PUSH2 0x4054 DUP2 PUSH2 0x4018 JUMP JUMPDEST SWAP1 POP SWAP2 SWAP1 POP JUMP JUMPDEST PUSH32 0x546865207468656D65496420486173206265656E20696E697469617465642121 PUSH1 0x0 DUP3 ADD MSTORE POP JUMP JUMPDEST PUSH1 0x0 PUSH2 0x4091 PUSH1 0x20 DUP4 PUSH2 0x3F1F JUMP JUMPDEST SWAP2 POP PUSH2 0x409C DUP3 PUSH2 0x405B JUMP JUMPDEST PUSH1 0x20 DUP3 ADD SWAP1 POP SWAP2 SWAP1 POP JUMP JUMPDEST PUSH1 0x0 PUSH1 0x20 DUP3 ADD SWAP1 POP DUP2 DUP2 SUB PUSH1 0x0 DUP4 ADD MSTORE PUSH2 0x40C0 DUP2 PUSH2 0x4084 JUMP JUMPDEST SWAP1 POP SWAP2 SWAP1 POP JUMP JUMPDEST PUSH32 0x5468652070726F706F736974696F6E20646F6573206E6F742073657420612070 PUSH1 0x0 DUP3 ADD MSTORE PUSH32 0x726F626162696C69747921000000000000000000000000000000000000000000 PUSH1 0x20 DUP3 ADD MSTORE POP JUMP JUMPDEST PUSH1 0x0 PUSH2 0x4123 PUSH1 0x2B DUP4 PUSH2 0x3F1F JUMP JUMPDEST SWAP2 POP PUSH2 0x412E DUP3 PUSH2 0x40C7 JUMP JUMPDEST PUSH1 0x40 DUP3 ADD SWAP1 POP SWAP2 SWAP1 POP JUMP JUMPDEST PUSH1 0x0 PUSH1 0x20 DUP3 ADD SWAP1 POP DUP2 DUP2 SUB PUSH1 0x0 DUP4 ADD MSTORE PUSH2 0x4152 DUP2 PUSH2 0x4116 JUMP JUMPDEST SWAP1 POP SWAP2 SWAP1 POP JUMP JUMPDEST PUSH32 0x5468652070726F706F736974696F6E20686173206E6F20656E642074696D6520 PUSH1 0x0 DUP3 ADD MSTORE PUSH32 0x7365742100000000000000000000000000000000000000000000000000000000 PUSH1 0x20 DUP3 ADD MSTORE POP JUMP JUMPDEST PUSH1 0x0 PUSH2 0x41B5 PUSH1 0x24 DUP4 PUSH2 0x3F1F JUMP JUMPDEST SWAP2 POP PUSH2 0x41C0 DUP3 PUSH2 0x4159 JUMP JUMPDEST PUSH1 0x40 DUP3 ADD SWAP1 POP SWAP2 SWAP1 POP JUMP JUMPDEST PUSH1 0x0 PUSH1 0x20 DUP3 ADD SWAP1 POP DUP2 DUP2 SUB PUSH1 0x0 DUP4 ADD MSTORE PUSH2 0x41E4 DUP2 PUSH2 0x41A8 JUMP JUMPDEST SWAP1 POP SWAP2 SWAP1 POP JUMP JUMPDEST PUSH32 0x5075626C697368657220746F6B656E20616D6F756E7420310000000000000000 PUSH1 0x0 DUP3 ADD MSTORE POP JUMP JUMPDEST PUSH1 0x0 PUSH2 0x4221 PUSH1 0x18 DUP4 PUSH2 0x3F1F JUMP JUMPDEST SWAP2 POP PUSH2 0x422C DUP3 PUSH2 0x41EB JUMP JUMPDEST PUSH1 0x20 DUP3 ADD SWAP1 POP SWAP2 SWAP1 POP JUMP JUMPDEST PUSH1 0x0 PUSH1 0x20 DUP3 ADD SWAP1 POP DUP2 DUP2 SUB PUSH1 0x0 DUP4 ADD MSTORE PUSH2 0x4250 DUP2 PUSH2 0x4214 JUMP JUMPDEST SWAP1 POP SWAP2 SWAP1 POP JUMP JUMPDEST PUSH32 0x4E487B7100000000000000000000000000000000000000000000000000000000 PUSH1 0x0 MSTORE PUSH1 0x22 PUSH1 0x4 MSTORE PUSH1 0x24 PUSH1 0x0 REVERT JUMPDEST PUSH1 0x0 PUSH1 0x2 DUP3 DIV SWAP1 POP PUSH1 0x1 DUP3 AND DUP1 PUSH2 0x429E JUMPI PUSH1 0x7F DUP3 AND SWAP2 POP JUMPDEST PUSH1 0x20 DUP3 LT DUP2 SUB PUSH2 0x42B1 JUMPI PUSH2 0x42B0 PUSH2 0x4257 JUMP JUMPDEST JUMPDEST POP SWAP2 SWAP1 POP JUMP JUMPDEST PUSH1 0x0 DUP2 SWAP1 POP DUP2 PUSH1 0x0 MSTORE PUSH1 0x20 PUSH1 0x0 KECCAK256 SWAP1 POP SWAP2 SWAP1 POP JUMP JUMPDEST PUSH1 0x0 PUSH1 0x20 PUSH1 0x1F DUP4 ADD DIV SWAP1 POP SWAP2 SWAP1 POP JUMP JUMPDEST PUSH1 0x0 DUP3 DUP3 SHL SWAP1 POP SWAP3 SWAP2 POP POP JUMP JUMPDEST PUSH1 0x0 PUSH1 0x8 DUP4 MUL PUSH2 0x4319 PUSH32 0xFFFFFFFFFFFFFFFFFFFFFFFFFFFFFFFFFFFFFFFFFFFFFFFFFFFFFFFFFFFFFFFF DUP3 PUSH2 0x42DC JUMP JUMPDEST PUSH2 0x4323 DUP7 DUP4 PUSH2 0x42DC JUMP JUMPDEST SWAP6 POP DUP1 NOT DUP5 AND SWAP4 POP DUP1 DUP7 AND DUP5 OR SWAP3 POP POP POP SWAP4 SWAP3 POP POP POP JUMP JUMPDEST PUSH1 0x0 DUP2 SWAP1 POP SWAP2 SWAP1 POP JUMP JUMPDEST PUSH1 0x0 PUSH2 0x4360 PUSH2 0x435B PUSH2 0x4356 DUP5 PUSH2 0x388E JUMP JUMPDEST PUSH2 0x433B JUMP JUMPDEST PUSH2 0x388E JUMP JUMPDEST SWAP1 POP SWAP2 SWAP1 POP JUMP JUMPDEST PUSH1 0x0 DUP2 SWAP1 POP SWAP2 SWAP1 POP JUMP JUMPDEST PUSH2 0x437A DUP4 PUSH2 0x4345 JUMP JUMPDEST PUSH2 0x438E PUSH2 0x4386 DUP3 PUSH2 0x4367 JUMP JUMPDEST DUP5 DUP5 SLOAD PUSH2 0x42E9 JUMP JUMPDEST DUP3 SSTORE POP POP POP POP JUMP JUMPDEST PUSH1 0x0 SWAP1 JUMP JUMPDEST PUSH2 0x43A3 PUSH2 0x4396 JUMP JUMPDEST PUSH2 0x43AE DUP2 DUP5 DUP5 PUSH2 0x4371 JUMP JUMPDEST POP POP POP JUMP JUMPDEST JUMPDEST DUP2 DUP2 LT ISZERO PUSH2 0x43D2 JUMPI PUSH2 0x43C7 PUSH1 0x0 DUP3 PUSH2 0x439B JUMP JUMPDEST PUSH1 0x1 DUP2 ADD SWAP1 POP PUSH2 0x43B4 JUMP JUMPDEST POP POP JUMP JUMPDEST PUSH1 0x1F DUP3 GT ISZERO PUSH2 0x4417 JUMPI PUSH2 0x43E8 DUP2 PUSH2 0x42B7 JUMP JUMPDEST PUSH2 0x43F1 DUP5 PUSH2 0x42CC JUMP JUMPDEST DUP2 ADD PUSH1 0x20 DUP6 LT ISZERO PUSH2 0x4400 JUMPI DUP2 SWAP1 POP JUMPDEST PUSH2 0x4414 PUSH2 0x440C DUP6 PUSH2 0x42CC JUMP JUMPDEST DUP4 ADD DUP3 PUSH2 0x43B3 JUMP JUMPDEST POP POP JUMPDEST POP POP POP JUMP JUMPDEST PUSH1 0x0 DUP3 DUP3 SHR SWAP1 POP SWAP3 SWAP2 POP POP JUMP JUMPDEST PUSH1 0x0 PUSH2 0x443A PUSH1 0x0 NOT DUP5 PUSH1 0x8 MUL PUSH2 0x441C JUMP JUMPDEST NOT DUP1 DUP4 AND SWAP2 POP POP SWAP3 SWAP2 POP POP JUMP JUMPDEST PUSH1 0x0 PUSH2 0x4453 DUP4 DUP4 PUSH2 0x4429 JUMP JUMPDEST SWAP2 POP DUP3 PUSH1 0x2 MUL DUP3 OR SWAP1 POP SWAP3 SWAP2 POP POP JUMP JUMPDEST PUSH2 0x446C DUP3 PUSH2 0x39C2 JUMP JUMPDEST PUSH8 0xFFFFFFFFFFFFFFFF DUP2 GT ISZERO PUSH2 0x4485 JUMPI PUSH2 0x4484 PUSH2 0x3763 JUMP JUMPDEST JUMPDEST PUSH2 0x448F DUP3 SLOAD PUSH2 0x4286 JUMP JUMPDEST PUSH2 0x449A DUP3 DUP3 DUP6 PUSH2 0x43D6 JUMP JUMPDEST PUSH1 0x0 PUSH1 0x20 SWAP1 POP PUSH1 0x1F DUP4 GT PUSH1 0x1 DUP2 EQ PUSH2 0x44CD JUMPI PUSH1 0x0 DUP5 ISZERO PUSH2 0x44BB JUMPI DUP3 DUP8 ADD MLOAD SWAP1 POP JUMPDEST PUSH2 0x44C5 DUP6 DUP3 PUSH2 0x4447 JUMP JUMPDEST DUP7 SSTORE POP PUSH2 0x452D JUMP JUMPDEST PUSH1 0x1F NOT DUP5 AND PUSH2 0x44DB DUP7 PUSH2 0x42B7 JUMP JUMPDEST PUSH1 0x0 JUMPDEST DUP3 DUP2 LT ISZERO PUSH2 0x4503 JUMPI DUP5 DUP10 ADD MLOAD DUP3 SSTORE PUSH1 0x1 DUP3 ADD SWAP2 POP PUSH1 0x20 DUP6 ADD SWAP5 POP PUSH1 0x20 DUP2 ADD SWAP1 POP PUSH2 0x44DE JUMP JUMPDEST DUP7 DUP4 LT ISZERO PUSH2 0x4520 JUMPI DUP5 DUP10 ADD MLOAD PUSH2 0x451C PUSH1 0x1F DUP10 AND DUP3 PUSH2 0x4429 JUMP JUMPDEST DUP4 SSTORE POP JUMPDEST PUSH1 0x1 PUSH1 0x2 DUP9 MUL ADD DUP9 SSTORE POP POP POP JUMPDEST POP POP POP POP POP POP JUMP JUMPDEST PUSH32 0x43616C6C6572206973206E6F74206F776E657200000000000000000000000000 PUSH1 0x0 DUP3 ADD MSTORE POP JUMP JUMPDEST PUSH1 0x0 PUSH2 0x456B PUSH1 0x13 DUP4 PUSH2 0x3F1F JUMP JUMPDEST SWAP2 POP PUSH2 0x4576 DUP3 PUSH2 0x4535 JUMP JUMPDEST PUSH1 0x20 DUP3 ADD SWAP1 POP SWAP2 SWAP1 POP JUMP JUMPDEST PUSH1 0x0 PUSH1 0x20 DUP3 ADD SWAP1 POP DUP2 DUP2 SUB PUSH1 0x0 DUP4 ADD MSTORE PUSH2 0x459A DUP2 PUSH2 0x455E JUMP JUMPDEST SWAP1 POP SWAP2 SWAP1 POP JUMP JUMPDEST PUSH32 0x54686520696E69746961746F722063616E6E6F74206368616C6C656E67652068 PUSH1 0x0 DUP3 ADD MSTORE PUSH32 0x69732070726F706F736974696F6E000000000000000000000000000000000000 PUSH1 0x20 DUP3 ADD MSTORE POP JUMP JUMPDEST PUSH1 0x0 PUSH2 0x45FD PUSH1 0x2E DUP4 PUSH2 0x3F1F JUMP JUMPDEST SWAP2 POP PUSH2 0x4608 DUP3 PUSH2 0x45A1 JUMP JUMPDEST PUSH1 0x40 DUP3 ADD SWAP1 POP SWAP2 SWAP1 POP JUMP JUMPDEST PUSH1 0x0 PUSH1 0x20 DUP3 ADD SWAP1 POP DUP2 DUP2 SUB PUSH1 0x0 DUP4 ADD MSTORE PUSH2 0x462C DUP2 PUSH2 0x45F0 JUMP JUMPDEST SWAP1 POP SWAP2 SWAP1 POP JUMP JUMPDEST PUSH32 0x54686520746F74616C206368616C6C656E676520616D6F756E742063616E6E6F PUSH1 0x0 DUP3 ADD MSTORE PUSH32 0x7420626520686967686572207468616E20746865206D6178696D756D20617661 PUSH1 0x20 DUP3 ADD MSTORE PUSH32 0x696C61626C652071756F74610000000000000000000000000000000000000000 PUSH1 0x40 DUP3 ADD MSTORE POP JUMP JUMPDEST PUSH1 0x0 PUSH2 0x46B5 PUSH1 0x4C DUP4 PUSH2 0x3F1F JUMP JUMPDEST SWAP2 POP PUSH2 0x46C0 DUP3 PUSH2 0x4633 JUMP JUMPDEST PUSH1 0x60 DUP3 ADD SWAP1 POP SWAP2 SWAP1 POP JUMP JUMPDEST PUSH1 0x0 PUSH1 0x20 DUP3 ADD SWAP1 POP DUP2 DUP2 SUB PUSH1 0x0 DUP4 ADD MSTORE PUSH2 0x46E4 DUP2 PUSH2 0x46A8 JUMP JUMPDEST SWAP1 POP SWAP2 SWAP1 POP JUMP JUMPDEST PUSH32 0x546865206E756D626572206F66206368616C6C656E6765732063616E6E6F7420 PUSH1 0x0 DUP3 ADD MSTORE PUSH32 0x6265207A65726F00000000000000000000000000000000000000000000000000 PUSH1 0x20 DUP3 ADD MSTORE POP JUMP JUMPDEST PUSH1 0x0 PUSH2 0x4747 PUSH1 0x27 DUP4 PUSH2 0x3F1F JUMP JUMPDEST SWAP2 POP PUSH2 0x4752 DUP3 PUSH2 0x46EB JUMP JUMPDEST PUSH1 0x40 DUP3 ADD SWAP1 POP SWAP2 SWAP1 POP JUMP JUMPDEST PUSH1 0x0 PUSH1 0x20 DUP3 ADD SWAP1 POP DUP2 DUP2 SUB PUSH1 0x0 DUP4 ADD MSTORE PUSH2 0x4776 DUP2 PUSH2 0x473A JUMP JUMPDEST SWAP1 POP SWAP2 SWAP1 POP JUMP JUMPDEST PUSH32 0x4E487B7100000000000000000000000000000000000000000000000000000000 PUSH1 0x0 MSTORE PUSH1 0x11 PUSH1 0x4 MSTORE PUSH1 0x24 PUSH1 0x0 REVERT JUMPDEST PUSH1 0x0 PUSH2 0x47B7 DUP3 PUSH2 0x388E JUMP JUMPDEST SWAP2 POP PUSH2 0x47C2 DUP4 PUSH2 0x388E JUMP JUMPDEST SWAP3 POP DUP3 DUP3 ADD SWAP1 POP DUP1 DUP3 GT ISZERO PUSH2 0x47DA JUMPI PUSH2 0x47D9 PUSH2 0x477D JUMP JUMPDEST JUMPDEST SWAP3 SWAP2 POP POP JUMP JUMPDEST PUSH32 0x4E6F207065726D697373696F6E20746F207075626C69736820726573756C7473 PUSH1 0x0 DUP3 ADD MSTORE PUSH32 0x2100000000000000000000000000000000000000000000000000000000000000 PUSH1 0x20 DUP3 ADD MSTORE POP JUMP JUMPDEST PUSH1 0x0 PUSH2 0x483C PUSH1 0x21 DUP4 PUSH2 0x3F1F JUMP JUMPDEST SWAP2 POP PUSH2 0x4847 DUP3 PUSH2 0x47E0 JUMP JUMPDEST PUSH1 0x40 DUP3 ADD SWAP1 POP SWAP2 SWAP1 POP JUMP JUMPDEST PUSH1 0x0 PUSH1 0x20 DUP3 ADD SWAP1 POP DUP2 DUP2 SUB PUSH1 0x0 DUP4 ADD MSTORE PUSH2 0x486B DUP2 PUSH2 0x482F JUMP JUMPDEST SWAP1 POP SWAP2 SWAP1 POP JUMP JUMPDEST PUSH32 0x5468652063757272656E742070726F706F736974696F6E206973206E6F742069 PUSH1 0x0 DUP3 ADD MSTORE PUSH32 0x6E697469616C697A656421000000000000000000000000000000000000000000 PUSH1 0x20 DUP3 ADD MSTORE POP JUMP JUMPDEST PUSH1 0x0 PUSH2 0x48CE PUSH1 0x2B DUP4 PUSH2 0x3F1F JUMP JUMPDEST SWAP2 POP PUSH2 0x48D9 DUP3 PUSH2 0x4872 JUMP JUMPDEST PUSH1 0x40 DUP3 ADD SWAP1 POP SWAP2 SWAP1 POP JUMP JUMPDEST PUSH1 0x0 PUSH1 0x20 DUP3 ADD SWAP1 POP DUP2 DUP2 SUB PUSH1 0x0 DUP4 ADD MSTORE PUSH2 0x48FD DUP2 PUSH2 0x48C1 JUMP JUMPDEST SWAP1 POP SWAP2 SWAP1 POP JUMP JUMPDEST PUSH32 0x5468652063757272656E742070726F706F736974696F6E206973206E6F742069 PUSH1 0x0 DUP3 ADD MSTORE PUSH32 0x6E697469616C697A656421210000000000000000000000000000000000000000 PUSH1 0x20 DUP3 ADD MSTORE POP JUMP JUMPDEST PUSH1 0x0 PUSH2 0x4960 PUSH1 0x2C DUP4 PUSH2 0x3F1F JUMP JUMPDEST SWAP2 POP PUSH2 0x496B DUP3 PUSH2 0x4904 JUMP JUMPDEST PUSH1 0x40 DUP3 ADD SWAP1 POP SWAP2 SWAP1 POP JUMP JUMPDEST PUSH1 0x0 PUSH1 0x20 DUP3 ADD SWAP1 POP DUP2 DUP2 SUB PUSH1 0x0 DUP4 ADD MSTORE PUSH2 0x498F DUP2 PUSH2 0x4953 JUMP JUMPDEST SWAP1 POP SWAP2 SWAP1 POP JUMP JUMPDEST PUSH32 0x5468652063757272656E74206368616C6C656E6765206973206F766572000000 PUSH1 0x0 DUP3 ADD MSTORE POP JUMP JUMPDEST PUSH1 0x0 PUSH2 0x49CC PUSH1 0x1D DUP4 PUSH2 0x3F1F JUMP JUMPDEST SWAP2 POP PUSH2 0x49D7 DUP3 PUSH2 0x4996 JUMP JUMPDEST PUSH1 0x20 DUP3 ADD SWAP1 POP SWAP2 SWAP1 POP JUMP JUMPDEST PUSH1 0x0 PUSH1 0x20 DUP3 ADD SWAP1 POP DUP2 DUP2 SUB PUSH1 0x0 DUP4 ADD MSTORE PUSH2 0x49FB DUP2 PUSH2 0x49BF JUMP JUMPDEST SWAP1 POP SWAP2 SWAP1 POP JUMP JUMPDEST PUSH32 0x5468652063757272656E74206368616C6C656E67652074696D65206973206F76 PUSH1 0x0 DUP3 ADD MSTORE PUSH32 0x6572000000000000000000000000000000000000000000000000000000000000 PUSH1 0x20 DUP3 ADD MSTORE POP JUMP JUMPDEST PUSH1 0x0 PUSH2 0x4A5E PUSH1 0x22 DUP4 PUSH2 0x3F1F JUMP JUMPDEST SWAP2 POP PUSH2 0x4A69 DUP3 PUSH2 0x4A02 JUMP JUMPDEST PUSH1 0x40 DUP3 ADD SWAP1 POP SWAP2 SWAP1 POP JUMP JUMPDEST PUSH1 0x0 PUSH1 0x20 DUP3 ADD SWAP1 POP DUP2 DUP2 SUB PUSH1 0x0 DUP4 ADD MSTORE PUSH2 0x4A8D DUP2 PUSH2 0x4A51 JUMP JUMPDEST SWAP1 POP SWAP2 SWAP1 POP JUMP JUMPDEST PUSH1 0x0 DUP2 MLOAD SWAP1 POP PUSH2 0x4AA3 DUP2 PUSH2 0x3898 JUMP JUMPDEST SWAP3 SWAP2 POP POP JUMP JUMPDEST PUSH1 0x0 PUSH1 0x20 DUP3 DUP5 SUB SLT ISZERO PUSH2 0x4ABF JUMPI PUSH2 0x4ABE PUSH2 0x373E JUMP JUMPDEST JUMPDEST PUSH1 0x0 PUSH2 0x4ACD DUP5 DUP3 DUP6 ADD PUSH2 0x4A94 JUMP JUMPDEST SWAP2 POP POP SWAP3 SWAP2 POP POP JUMP JUMPDEST PUSH32 0x596F752068617665207265636569766564207265776172647300000000000000 PUSH1 0x0 DUP3 ADD MSTORE POP JUMP JUMPDEST PUSH1 0x0 PUSH2 0x4B0C PUSH1 0x19 DUP4 PUSH2 0x3F1F JUMP JUMPDEST SWAP2 POP PUSH2 0x4B17 DUP3 PUSH2 0x4AD6 JUMP JUMPDEST PUSH1 0x20 DUP3 ADD SWAP1 POP SWAP2 SWAP1 POP JUMP JUMPDEST PUSH1 0x0 PUSH1 0x20 DUP3 ADD SWAP1 POP DUP2 DUP2 SUB PUSH1 0x0 DUP4 ADD MSTORE PUSH2 0x4B3B DUP2 PUSH2 0x4AFF JUMP JUMPDEST SWAP1 POP SWAP2 SWAP1 POP JUMP JUMPDEST PUSH32 0x546865206368616C6C656E6765206973206E6F74206F76657200000000000000 PUSH1 0x0 DUP3 ADD MSTORE POP JUMP JUMPDEST PUSH1 0x0 PUSH2 0x4B78 PUSH1 0x19 DUP4 PUSH2 0x3F1F JUMP JUMPDEST SWAP2 POP PUSH2 0x4B83 DUP3 PUSH2 0x4B42 JUMP JUMPDEST PUSH1 0x20 DUP3 ADD SWAP1 POP SWAP2 SWAP1 POP JUMP JUMPDEST PUSH1 0x0 PUSH1 0x20 DUP3 ADD SWAP1 POP DUP2 DUP2 SUB PUSH1 0x0 DUP4 ADD MSTORE PUSH2 0x4BA7 DUP2 PUSH2 0x4B6B JUMP JUMPDEST SWAP1 POP SWAP2 SWAP1 POP JUMP JUMPDEST PUSH32 0x5468652075736572206973206E6F7420696E766F6C76656420696E2074686520 PUSH1 0x0 DUP3 ADD MSTORE PUSH32 0x63757272656E74206368616C6C656E6765000000000000000000000000000000 PUSH1 0x20 DUP3 ADD MSTORE POP JUMP JUMPDEST PUSH1 0x0 PUSH2 0x4C0A PUSH1 0x31 DUP4 PUSH2 0x3F1F JUMP JUMPDEST SWAP2 POP PUSH2 0x4C15 DUP3 PUSH2 0x4BAE JUMP JUMPDEST PUSH1 0x40 DUP3 ADD SWAP1 POP SWAP2 SWAP1 POP JUMP JUMPDEST PUSH1 0x0 PUSH1 0x20 DUP3 ADD SWAP1 POP DUP2 DUP2 SUB PUSH1 0x0 DUP4 ADD MSTORE PUSH2 0x4C39 DUP2 PUSH2 0x4BFD JUMP JUMPDEST SWAP1 POP SWAP2 SWAP1 POP JUMP JUMPDEST PUSH32 0x4368616C6C656E6765206661696C656400000000000000000000000000000000 PUSH1 0x0 DUP3 ADD MSTORE POP JUMP JUMPDEST PUSH1 0x0 PUSH2 0x4C76 PUSH1 0x10 DUP4 PUSH2 0x3F1F JUMP JUMPDEST SWAP2 POP PUSH2 0x4C81 DUP3 PUSH2 0x4C40 JUMP JUMPDEST PUSH1 0x20 DUP3 ADD SWAP1 POP SWAP2 SWAP1 POP JUMP JUMPDEST PUSH1 0x0 PUSH1 0x20 DUP3 ADD SWAP1 POP DUP2 DUP2 SUB PUSH1 0x0 DUP4 ADD MSTORE PUSH2 0x4CA5 DUP2 PUSH2 0x4C69 JUMP JUMPDEST SWAP1 POP SWAP2 SWAP1 POP JUMP JUMPDEST PUSH32 0x5468652063757272656E742075736572206973206E6F742061207075626C6973 PUSH1 0x0 DUP3 ADD MSTORE PUSH32 0x6865720000000000000000000000000000000000000000000000000000000000 PUSH1 0x20 DUP3 ADD MSTORE POP JUMP JUMPDEST PUSH1 0x0 PUSH2 0x4D08 PUSH1 0x23 DUP4 PUSH2 0x3F1F JUMP JUMPDEST SWAP2 POP PUSH2 0x4D13 DUP3 PUSH2 0x4CAC JUMP JUMPDEST PUSH1 0x40 DUP3 ADD SWAP1 POP SWAP2 SWAP1 POP JUMP JUMPDEST PUSH1 0x0 PUSH1 0x20 DUP3 ADD SWAP1 POP DUP2 DUP2 SUB PUSH1 0x0 DUP4 ADD MSTORE PUSH2 0x4D37 DUP2 PUSH2 0x4CFB JUMP JUMPDEST SWAP1 POP SWAP2 SWAP1 POP JUMP JUMPDEST PUSH32 0x546865207468656D65496420486173206265656E20696E697469617465640000 PUSH1 0x0 DUP3 ADD MSTORE POP JUMP JUMPDEST PUSH1 0x0 PUSH2 0x4D74 PUSH1 0x1E DUP4 PUSH2 0x3F1F JUMP JUMPDEST SWAP2 POP PUSH2 0x4D7F DUP3 PUSH2 0x4D3E JUMP JUMPDEST PUSH1 0x20 DUP3 ADD SWAP1 POP SWAP2 SWAP1 POP JUMP JUMPDEST PUSH1 0x0 PUSH1 0x20 DUP3 ADD SWAP1 POP DUP2 DUP2 SUB PUSH1 0x0 DUP4 ADD MSTORE PUSH2 0x4DA3 DUP2 PUSH2 0x4D67 JUMP JUMPDEST SWAP1 POP SWAP2 SWAP1 POP JUMP JUMPDEST PUSH32 0x546865206D696E696D756D2076616C7565206F66206D61676E69666963617469 PUSH1 0x0 DUP3 ADD MSTORE PUSH32 0x6F6E206973203200000000000000000000000000000000000000000000000000 PUSH1 0x20 DUP3 ADD MSTORE POP JUMP JUMPDEST PUSH1 0x0 PUSH2 0x4E06 PUSH1 0x27 DUP4 PUSH2 0x3F1F JUMP JUMPDEST SWAP2 POP PUSH2 0x4E11 DUP3 PUSH2 0x4DAA JUMP JUMPDEST PUSH1 0x40 DUP3 ADD SWAP1 POP SWAP2 SWAP1 POP JUMP JUMPDEST PUSH1 0x0 PUSH1 0x20 DUP3 ADD SWAP1 POP DUP2 DUP2 SUB PUSH1 0x0 DUP4 ADD MSTORE PUSH2 0x4E35 DUP2 PUSH2 0x4DF9 JUMP JUMPDEST SWAP1 POP SWAP2 SWAP1 POP JUMP JUMPDEST PUSH32 0x54686520726573756C74732068617665206265656E207075626C697368656420 PUSH1 0x0 DUP3 ADD MSTORE PUSH32 0x616E64207468652074696D652063616E6E6F74206265206D6F64696669656400 PUSH1 0x20 DUP3 ADD MSTORE POP JUMP JUMPDEST PUSH1 0x0 PUSH2 0x4E98 PUSH1 0x3F DUP4 PUSH2 0x3F1F JUMP JUMPDEST SWAP2 POP PUSH2 0x4EA3 DUP3 PUSH2 0x4E3C JUMP JUMPDEST PUSH1 0x40 DUP3 ADD SWAP1 POP SWAP2 SWAP1 POP JUMP JUMPDEST PUSH1 0x0 PUSH1 0x20 DUP3 ADD SWAP1 POP DUP2 DUP2 SUB PUSH1 0x0 DUP4 ADD MSTORE PUSH2 0x4EC7 DUP2 PUSH2 0x4E8B JUMP JUMPDEST SWAP1 POP SWAP2 SWAP1 POP JUMP JUMPDEST PUSH1 0x0 PUSH1 0x60 DUP3 ADD SWAP1 POP PUSH2 0x4EE3 PUSH1 0x0 DUP4 ADD DUP7 PUSH2 0x370A JUMP JUMPDEST PUSH2 0x4EF0 PUSH1 0x20 DUP4 ADD DUP6 PUSH2 0x370A JUMP JUMPDEST PUSH2 0x4EFD PUSH1 0x40 DUP4 ADD DUP5 PUSH2 0x3DEF JUMP JUMPDEST SWAP5 SWAP4 POP POP POP POP JUMP JUMPDEST PUSH32 0x536166654D6174683A206164646974696F6E206F766572666C6F770000000000 PUSH1 0x0 DUP3 ADD MSTORE POP JUMP JUMPDEST PUSH1 0x0 PUSH2 0x4F3B PUSH1 0x1B DUP4 PUSH2 0x3F1F JUMP JUMPDEST SWAP2 POP PUSH2 0x4F46 DUP3 PUSH2 0x4F05 JUMP JUMPDEST PUSH1 0x20 DUP3 ADD SWAP1 POP SWAP2 SWAP1 POP JUMP JUMPDEST PUSH1 0x0 PUSH1 0x20 DUP3 ADD SWAP1 POP DUP2 DUP2 SUB PUSH1 0x0 DUP4 ADD MSTORE PUSH2 0x4F6A DUP2 PUSH2 0x4F2E JUMP JUMPDEST SWAP1 POP SWAP2 SWAP1 POP JUMP JUMPDEST PUSH1 0x0 PUSH2 0x4F7C DUP3 PUSH2 0x388E JUMP JUMPDEST SWAP2 POP PUSH2 0x4F87 DUP4 PUSH2 0x388E JUMP JUMPDEST SWAP3 POP DUP3 DUP3 MUL PUSH2 0x4F95 DUP2 PUSH2 0x388E JUMP JUMPDEST SWAP2 POP DUP3 DUP3 DIV DUP5 EQ DUP4 ISZERO OR PUSH2 0x4FAC JUMPI PUSH2 0x4FAB PUSH2 0x477D JUMP JUMPDEST JUMPDEST POP SWAP3 SWAP2 POP POP JUMP JUMPDEST PUSH32 0x4E487B7100000000000000000000000000000000000000000000000000000000 PUSH1 0x0 MSTORE PUSH1 0x12 PUSH1 0x4 MSTORE PUSH1 0x24 PUSH1 0x0 REVERT JUMPDEST PUSH1 0x0 PUSH2 0x4FED DUP3 PUSH2 0x388E JUMP JUMPDEST SWAP2 POP PUSH2 0x4FF8 DUP4 PUSH2 0x388E JUMP JUMPDEST SWAP3 POP DUP3 PUSH2 0x5008 JUMPI PUSH2 0x5007 PUSH2 0x4FB3 JUMP JUMPDEST JUMPDEST DUP3 DUP3 DIV SWAP1 POP SWAP3 SWAP2 POP POP JUMP JUMPDEST PUSH32 0x536166654D6174683A206D756C7469706C69636174696F6E206F766572666C6F PUSH1 0x0 DUP3 ADD MSTORE PUSH32 0x7700000000000000000000000000000000000000000000000000000000000000 PUSH1 0x20 DUP3 ADD MSTORE POP JUMP JUMPDEST PUSH1 0x0 PUSH2 0x506F PUSH1 0x21 DUP4 PUSH2 0x3F1F JUMP JUMPDEST SWAP2 POP PUSH2 0x507A DUP3 PUSH2 0x5013 JUMP JUMPDEST PUSH1 0x40 DUP3 ADD SWAP1 POP SWAP2 SWAP1 POP JUMP JUMPDEST PUSH1 0x0 PUSH1 0x20 DUP3 ADD SWAP1 POP DUP2 DUP2 SUB PUSH1 0x0 DUP4 ADD MSTORE PUSH2 0x509E DUP2 PUSH2 0x5062 JUMP JUMPDEST SWAP1 POP SWAP2 SWAP1 POP JUMP JUMPDEST PUSH1 0x0 PUSH2 0x50B0 DUP3 PUSH2 0x39C2 JUMP JUMPDEST PUSH2 0x50BA DUP2 DUP6 PUSH2 0x3F1F JUMP JUMPDEST SWAP4 POP PUSH2 0x50CA DUP2 DUP6 PUSH1 0x20 DUP7 ADD PUSH2 0x39DE JUMP JUMPDEST PUSH2 0x50D3 DUP2 PUSH2 0x3752 JUMP JUMPDEST DUP5 ADD SWAP2 POP POP SWAP3 SWAP2 POP POP JUMP JUMPDEST PUSH1 0x0 PUSH1 0x40 DUP3 ADD SWAP1 POP DUP2 DUP2 SUB PUSH1 0x0 DUP4 ADD MSTORE PUSH2 0x50F8 DUP2 DUP6 PUSH2 0x50A5 JUMP JUMPDEST SWAP1 POP PUSH2 0x5107 PUSH1 0x20 DUP4 ADD DUP5 PUSH2 0x370A JUMP JUMPDEST SWAP4 SWAP3 POP POP POP JUMP JUMPDEST PUSH1 0x0 PUSH1 0x40 DUP3 ADD SWAP1 POP PUSH2 0x5123 PUSH1 0x0 DUP4 ADD DUP6 PUSH2 0x370A JUMP JUMPDEST PUSH2 0x5130 PUSH1 0x20 DUP4 ADD DUP5 PUSH2 0x3DEF JUMP JUMPDEST SWAP4 SWAP3 POP POP POP JUMP JUMPDEST PUSH1 0x0 DUP2 MLOAD SWAP1 POP PUSH2 0x5146 DUP2 PUSH2 0x3D67 JUMP JUMPDEST SWAP3 SWAP2 POP POP JUMP JUMPDEST PUSH1 0x0 PUSH1 0x20 DUP3 DUP5 SUB SLT ISZERO PUSH2 0x5162 JUMPI PUSH2 0x5161 PUSH2 0x373E JUMP JUMPDEST JUMPDEST PUSH1 0x0 PUSH2 0x5170 DUP5 DUP3 DUP6 ADD PUSH2 0x5137 JUMP JUMPDEST SWAP2 POP POP SWAP3 SWAP2 POP POP JUMP JUMPDEST PUSH32 0x5361666545524332303A204552433230206F7065726174696F6E20646964206E PUSH1 0x0 DUP3 ADD MSTORE PUSH32 0x6F74207375636365656400000000000000000000000000000000000000000000 PUSH1 0x20 DUP3 ADD MSTORE POP JUMP JUMPDEST PUSH1 0x0 PUSH2 0x51D5 PUSH1 0x2A DUP4 PUSH2 0x3F1F JUMP JUMPDEST SWAP2 POP PUSH2 0x51E0 DUP3 PUSH2 0x5179 JUMP JUMPDEST PUSH1 0x40 DUP3 ADD SWAP1 POP SWAP2 SWAP1 POP JUMP JUMPDEST PUSH1 0x0 PUSH1 0x20 DUP3 ADD SWAP1 POP DUP2 DUP2 SUB PUSH1 0x0 DUP4 ADD MSTORE PUSH2 0x5204 DUP2 PUSH2 0x51C8 JUMP JUMPDEST SWAP1 POP SWAP2 SWAP1 POP JUMP JUMPDEST PUSH1 0x0 PUSH1 0x20 DUP3 ADD SWAP1 POP DUP2 DUP2 SUB PUSH1 0x0 DUP4 ADD MSTORE PUSH2 0x5225 DUP2 DUP5 PUSH2 0x50A5 JUMP JUMPDEST SWAP1 POP SWAP3 SWAP2 POP POP JUMP JUMPDEST PUSH1 0x0 PUSH2 0x5238 DUP3 PUSH2 0x388E JUMP JUMPDEST SWAP2 POP PUSH2 0x5243 DUP4 PUSH2 0x388E JUMP JUMPDEST SWAP3 POP DUP3 DUP3 SUB SWAP1 POP DUP2 DUP2 GT ISZERO PUSH2 0x525B JUMPI PUSH2 0x525A PUSH2 0x477D JUMP JUMPDEST JUMPDEST SWAP3 SWAP2 POP POP JUMP JUMPDEST PUSH32 0x416464726573733A20696E73756666696369656E742062616C616E636520666F PUSH1 0x0 DUP3 ADD MSTORE PUSH32 0x722063616C6C0000000000000000000000000000000000000000000000000000 PUSH1 0x20 DUP3 ADD MSTORE POP JUMP JUMPDEST PUSH1 0x0 PUSH2 0x52BD PUSH1 0x26 DUP4 PUSH2 0x3F1F JUMP JUMPDEST SWAP2 POP PUSH2 0x52C8 DUP3 PUSH2 0x5261 JUMP JUMPDEST PUSH1 0x40 DUP3 ADD SWAP1 POP SWAP2 SWAP1 POP JUMP JUMPDEST PUSH1 0x0 PUSH1 0x20 DUP3 ADD SWAP1 POP DUP2 DUP2 SUB PUSH1 0x0 DUP4 ADD MSTORE PUSH2 0x52EC DUP2 PUSH2 0x52B0 JUMP JUMPDEST SWAP1 POP SWAP2 SWAP1 POP JUMP JUMPDEST PUSH32 0x416464726573733A2063616C6C20746F206E6F6E2D636F6E7472616374000000 PUSH1 0x0 DUP3 ADD MSTORE POP JUMP JUMPDEST PUSH1 0x0 PUSH2 0x5329 PUSH1 0x1D DUP4 PUSH2 0x3F1F JUMP JUMPDEST SWAP2 POP PUSH2 0x5334 DUP3 PUSH2 0x52F3 JUMP JUMPDEST PUSH1 0x20 DUP3 ADD SWAP1 POP SWAP2 SWAP1 POP JUMP JUMPDEST PUSH1 0x0 PUSH1 0x20 DUP3 ADD SWAP1 POP DUP2 DUP2 SUB PUSH1 0x0 DUP4 ADD MSTORE PUSH2 0x5358 DUP2 PUSH2 0x531C JUMP JUMPDEST SWAP1 POP SWAP2 SWAP1 POP JUMP JUMPDEST PUSH1 0x0 DUP2 MLOAD SWAP1 POP SWAP2 SWAP1 POP JUMP JUMPDEST PUSH1 0x0 DUP2 SWAP1 POP SWAP3 SWAP2 POP POP JUMP JUMPDEST PUSH1 0x0 PUSH2 0x5380 DUP3 PUSH2 0x535F JUMP JUMPDEST PUSH2 0x538A DUP2 DUP6 PUSH2 0x536A JUMP JUMPDEST SWAP4 POP PUSH2 0x539A DUP2 DUP6 PUSH1 0x20 DUP7 ADD PUSH2 0x39DE JUMP JUMPDEST DUP1 DUP5 ADD SWAP2 POP POP SWAP3 SWAP2 POP POP JUMP JUMPDEST PUSH1 0x0 PUSH2 0x53B2 DUP3 DUP5 PUSH2 0x5375 JUMP JUMPDEST SWAP2 POP DUP2 SWAP1 POP SWAP3 SWAP2 POP POP JUMP INVALID MSTORE8 PUSH2 0x6665 GASLIMIT MSTORE NUMBER ORIGIN ADDRESS GASPRICE KECCAK256 PUSH13 0x6F772D6C6576656C2063616C6C KECCAK256 PUSH7 0x61696C65642073 PUSH2 0x6665 PREVRANDAO PUSH6 0x637265617365 COINBASE PUSH13 0x6C6F77616E6365A26469706673 PC 0x22 SLT KECCAK256 CALLVALUE 0xA8 0x2B PUSH21 0xC34371A9CE4531AD5BE8BB44CAB14F2E32152C698A 0x25 ADDMOD MUL BYTE SLOAD 0xCB PUSH21 0x64736F6C6343000813003300000000000000000000 "
		},
		"gasEstimates": {
			"creation": {
				"codeDepositCost": "4309000",
				"executionCost": "32926",
				"totalCost": "4341926"
			},
			"external": {
				"CompleteTheChallenge(string,bool)": "infinite",
				"addRoleAddress(address)": "27068",
				"cancelRoleAddress(address)": "27090",
				"challengeTheme(string,uint256)": "infinite",
				"challengerReceiveRewards(string)": "infinite",
				"changeOwner(address)": "30656",
				"getExchangeInfo(string,address)": "infinite",
				"getOwner()": "2567",
				"getTokenAddress()": "2546",
				"getTotalRewardByTheme(string)": "infinite",
				"getTotalRewardByTheme2(string)": "infinite",
				"initiationTheme(string,uint256)": "infinite",
				"publisherReceiveRewards(string)": "infinite",
				"setChallengerData(string,uint256,address)": "infinite",
				"setMasterData(string,uint256,uint256,uint256,address)": "infinite",
				"setTimeAndOdds(string,uint256,uint256)": "infinite",
				"setToken(address)": "24790",
				"tokenBalance()": "infinite",
				"withdrawal()": "infinite"
			}
		},
		"methodIdentifiers": {
			"CompleteTheChallenge(string,bool)": "47ce1f7e",
			"addRoleAddress(address)": "5ce1ad30",
			"cancelRoleAddress(address)": "adb06414",
			"challengeTheme(string,uint256)": "7a3c666d",
			"challengerReceiveRewards(string)": "b0345a56",
			"changeOwner(address)": "a6f9dae1",
			"getExchangeInfo(string,address)": "20215dc4",
			"getOwner()": "893d20e8",
			"getTokenAddress()": "10fe9ae8",
			"getTotalRewardByTheme(string)": "6441f9d0",
			"getTotalRewardByTheme2(string)": "1d3bc3a6",
			"initiationTheme(string,uint256)": "13953881",
			"publisherReceiveRewards(string)": "b03f15c4",
			"setChallengerData(string,uint256,address)": "28be8e73",
			"setMasterData(string,uint256,uint256,uint256,address)": "b9ee201d",
			"setTimeAndOdds(string,uint256,uint256)": "c5019213",
			"setToken(address)": "144fa6d7",
			"tokenBalance()": "9e1a4d19",
			"withdrawal()": "d4e93292"
		}
	},
	"abi": [
		{
			"inputs": [],
			"stateMutability": "nonpayable",
			"type": "constructor"
		},
		{
			"anonymous": false,
			"inputs": [
				{
					"indexed": true,
					"internalType": "address",
					"name": "oldOwner",
					"type": "address"
				},
				{
					"indexed": true,
					"internalType": "address",
					"name": "newOwner",
					"type": "address"
				}
			],
			"name": "OwnerSet",
			"type": "event"
		},
		{
			"inputs": [
				{
					"internalType": "string",
					"name": "themeId_",
					"type": "string"
				},
				{
					"internalType": "bool",
					"name": "result_",
					"type": "bool"
				}
			],
			"name": "CompleteTheChallenge",
			"outputs": [],
			"stateMutability": "nonpayable",
			"type": "function"
		},
		{
			"inputs": [
				{
					"internalType": "address",
					"name": "roleAddress",
					"type": "address"
				}
			],
			"name": "addRoleAddress",
			"outputs": [],
			"stateMutability": "nonpayable",
			"type": "function"
		},
		{
			"inputs": [
				{
					"internalType": "address",
					"name": "roleAddress",
					"type": "address"
				}
			],
			"name": "cancelRoleAddress",
			"outputs": [],
			"stateMutability": "nonpayable",
			"type": "function"
		},
		{
			"inputs": [
				{
					"internalType": "string",
					"name": "themeId_",
					"type": "string"
				},
				{
					"internalType": "uint256",
					"name": "amount_",
					"type": "uint256"
				}
			],
			"name": "challengeTheme",
			"outputs": [],
			"stateMutability": "nonpayable",
			"type": "function"
		},
		{
			"inputs": [
				{
					"internalType": "string",
					"name": "themeId_",
					"type": "string"
				}
			],
			"name": "challengerReceiveRewards",
			"outputs": [],
			"stateMutability": "nonpayable",
			"type": "function"
		},
		{
			"inputs": [
				{
					"internalType": "address",
					"name": "newOwner",
					"type": "address"
				}
			],
			"name": "changeOwner",
			"outputs": [],
			"stateMutability": "nonpayable",
			"type": "function"
		},
		{
			"inputs": [
				{
					"internalType": "string",
					"name": "themeId_",
					"type": "string"
				},
				{
					"internalType": "address",
					"name": "chanllenger_",
					"type": "address"
				}
			],
			"name": "getExchangeInfo",
			"outputs": [
				{
					"components": [
						{
							"internalType": "uint256",
							"name": "amount",
							"type": "uint256"
						},
						{
							"internalType": "uint256",
							"name": "challengeTime",
							"type": "uint256"
						},
						{
							"internalType": "bool",
							"name": "result",
							"type": "bool"
						},
						{
							"internalType": "bool",
							"name": "challeng",
							"type": "bool"
						},
						{
							"internalType": "bool",
							"name": "challengResult",
							"type": "bool"
						},
						{
							"internalType": "bool",
							"name": "hasReceive",
							"type": "bool"
						},
						{
							"internalType": "bool",
							"name": "theme",
							"type": "bool"
						},
						{
							"internalType": "uint256",
							"name": "reward",
							"type": "uint256"
						},
						{
							"internalType": "uint256",
							"name": "times",
							"type": "uint256"
						},
						{
							"internalType": "string",
							"name": "idstr",
							"type": "string"
						}
					],
					"internalType": "struct challenge.ChallengerInfo",
					"name": "",
					"type": "tuple"
				}
			],
			"stateMutability": "view",
			"type": "function"
		},
		{
			"inputs": [],
			"name": "getOwner",
			"outputs": [
				{
					"internalType": "address",
					"name": "",
					"type": "address"
				}
			],
			"stateMutability": "view",
			"type": "function"
		},
		{
			"inputs": [],
			"name": "getTokenAddress",
			"outputs": [
				{
					"internalType": "address",
					"name": "",
					"type": "address"
				}
			],
			"stateMutability": "view",
			"type": "function"
		},
		{
			"inputs": [
				{
					"internalType": "string",
					"name": "themeId_",
					"type": "string"
				}
			],
			"name": "getTotalRewardByTheme",
			"outputs": [
				{
					"components": [
						{
							"internalType": "string",
							"name": "idstr",
							"type": "string"
						},
						{
							"internalType": "address",
							"name": "originator",
							"type": "address"
						},
						{
							"internalType": "uint256",
							"name": "reward",
							"type": "uint256"
						},
						{
							"internalType": "uint256",
							"name": "isCompleteTime",
							"type": "uint256"
						},
						{
							"internalType": "bool",
							"name": "isComplete",
							"type": "bool"
						},
						{
							"internalType": "bool",
							"name": "challenge",
							"type": "bool"
						},
						{
							"internalType": "bool",
							"name": "result",
							"type": "bool"
						},
						{
							"internalType": "uint256",
							"name": "challengeTotal",
							"type": "uint256"
						},
						{
							"internalType": "bool",
							"name": "hasReceive",
							"type": "bool"
						},
						{
							"internalType": "uint256",
							"name": "profit",
							"type": "uint256"
						},
						{
							"internalType": "uint256",
							"name": "odds",
							"type": "uint256"
						},
						{
							"internalType": "uint256",
							"name": "count",
							"type": "uint256"
						}
					],
					"internalType": "struct challenge.Theme",
					"name": "theme_",
					"type": "tuple"
				}
			],
			"stateMutability": "view",
			"type": "function"
		},
		{
			"inputs": [
				{
					"internalType": "string",
					"name": "themeId_",
					"type": "string"
				}
			],
			"name": "getTotalRewardByTheme2",
			"outputs": [
				{
					"components": [
						{
							"internalType": "string",
							"name": "idstr",
							"type": "string"
						},
						{
							"internalType": "address",
							"name": "originator",
							"type": "address"
						},
						{
							"internalType": "uint256",
							"name": "reward",
							"type": "uint256"
						},
						{
							"internalType": "uint256",
							"name": "isCompleteTime",
							"type": "uint256"
						},
						{
							"internalType": "bool",
							"name": "isComplete",
							"type": "bool"
						},
						{
							"internalType": "bool",
							"name": "challenge",
							"type": "bool"
						},
						{
							"internalType": "bool",
							"name": "result",
							"type": "bool"
						},
						{
							"internalType": "uint256",
							"name": "challengeTotal",
							"type": "uint256"
						},
						{
							"internalType": "bool",
							"name": "hasReceive",
							"type": "bool"
						},
						{
							"internalType": "uint256",
							"name": "profit",
							"type": "uint256"
						},
						{
							"internalType": "uint256",
							"name": "odds",
							"type": "uint256"
						},
						{
							"internalType": "uint256",
							"name": "count",
							"type": "uint256"
						}
					],
					"internalType": "struct challenge.Theme",
					"name": "rheme_",
					"type": "tuple"
				}
			],
			"stateMutability": "view",
			"type": "function"
		},
		{
			"inputs": [
				{
					"internalType": "string",
					"name": "themeId_",
					"type": "string"
				},
				{
					"internalType": "uint256",
					"name": "amount_",
					"type": "uint256"
				}
			],
			"name": "initiationTheme",
			"outputs": [],
			"stateMutability": "nonpayable",
			"type": "function"
		},
		{
			"inputs": [
				{
					"internalType": "string",
					"name": "themeId_",
					"type": "string"
				}
			],
			"name": "publisherReceiveRewards",
			"outputs": [],
			"stateMutability": "nonpayable",
			"type": "function"
		},
		{
			"inputs": [
				{
					"internalType": "string",
					"name": "themeId_",
					"type": "string"
				},
				{
					"internalType": "uint256",
					"name": "amount_",
					"type": "uint256"
				},
				{
					"internalType": "address",
					"name": "challengerAddress",
					"type": "address"
				}
			],
			"name": "setChallengerData",
			"outputs": [],
			"stateMutability": "nonpayable",
			"type": "function"
		},
		{
			"inputs": [
				{
					"internalType": "string",
					"name": "themeId_",
					"type": "string"
				},
				{
					"internalType": "uint256",
					"name": "amount_",
					"type": "uint256"
				},
				{
					"internalType": "uint256",
					"name": "endTime",
					"type": "uint256"
				},
				{
					"internalType": "uint256",
					"name": "odds",
					"type": "uint256"
				},
				{
					"internalType": "address",
					"name": "masterAddress",
					"type": "address"
				}
			],
			"name": "setMasterData",
			"outputs": [],
			"stateMutability": "nonpayable",
			"type": "function"
		},
		{
			"inputs": [
				{
					"internalType": "string",
					"name": "themeId_",
					"type": "string"
				},
				{
					"internalType": "uint256",
					"name": "closeTime",
					"type": "uint256"
				},
				{
					"internalType": "uint256",
					"name": "odds",
					"type": "uint256"
				}
			],
			"name": "setTimeAndOdds",
			"outputs": [],
			"stateMutability": "nonpayable",
			"type": "function"
		},
		{
			"inputs": [
				{
					"internalType": "address",
					"name": "tokenAddress",
					"type": "address"
				}
			],
			"name": "setToken",
			"outputs": [],
			"stateMutability": "nonpayable",
			"type": "function"
		},
		{
			"inputs": [],
			"name": "tokenBalance",
			"outputs": [
				{
					"internalType": "uint256",
					"name": "",
					"type": "uint256"
				}
			],
			"stateMutability": "view",
			"type": "function"
		},
		{
			"inputs": [],
			"name": "withdrawal",
			"outputs": [],
			"stateMutability": "nonpayable",
			"type": "function"
		}
	]
}