{
	"data": {
		"bytecode": {
			"linkReferences": {},
			"object": "608060405262ed4e0060015562015180600255601260035534801561002357600080fd5b5033600560006101000a81548173ffffffffffffffffffffffffffffffffffffffff021916908373ffffffffffffffffffffffffffffffffffffffff1602179055506123ce806100746000396000f3fe608060405234801561001057600080fd5b50600436106100ea5760003560e01c8063911490e91161008c578063d303057811610066578063d303057814610239578063f34e372314610269578063fc0c546a14610285578063ff46e36a146102a3576100ea565b8063911490e9146101cf5780639e1a4d19146101ff578063a6f9dae11461021d576100ea565b806326a4e8d2116100c857806326a4e8d214610147578063313ce567146101635780634b14c0ef146101815780636a3ac37b1461019f576100ea565b806315fa807f146100ef578063188ec3561461010b5780631bf0fbd114610129575b600080fd5b610109600480360381019061010491906114d2565b6102bf565b005b61011361035d565b6040516101209190611518565b60405180910390f35b610131610365565b60405161013e9190611542565b60405180910390f35b610161600480360381019061015c91906114d2565b61038f565b005b61016b61042c565b6040516101789190611518565b60405180910390f35b610189610436565b6040516101969190611518565b60405180910390f35b6101b960048036038101906101b491906114d2565b610440565b6040516101c69190611518565b60405180910390f35b6101e960048036038101906101e491906114d2565b610489565b6040516101f69190611518565b60405180910390f35b6102076104d2565b6040516102149190611518565b60405180910390f35b610237600480360381019061023291906114d2565b6105a4565b005b610253600480360381019061024e91906114d2565b610642565b6040516102609190611518565b60405180910390f35b610283600480360381019061027e91906116a3565b61068b565b005b61028d610c02565b60405161029a919061174b565b60405180910390f35b6102bd60048036038101906102b89190611792565b610c2b565b005b600560009054906101000a900473ffffffffffffffffffffffffffffffffffffffff1673ffffffffffffffffffffffffffffffffffffffff163373ffffffffffffffffffffffffffffffffffffffff161461031957600080fd5b80600660006101000a81548173ffffffffffffffffffffffffffffffffffffffff021916908373ffffffffffffffffffffffffffffffffffffffff16021790555050565b600042905090565b6000600660009054906101000a900473ffffffffffffffffffffffffffffffffffffffff16905090565b600560009054906101000a900473ffffffffffffffffffffffffffffffffffffffff1673ffffffffffffffffffffffffffffffffffffffff163373ffffffffffffffffffffffffffffffffffffffff16146103e957600080fd5b806000806101000a81548173ffffffffffffffffffffffffffffffffffffffff021916908373ffffffffffffffffffffffffffffffffffffffff16021790555050565b6000600354905090565b6000600454905090565b6000600860008373ffffffffffffffffffffffffffffffffffffffff1673ffffffffffffffffffffffffffffffffffffffff168152602001908152602001600020549050919050565b6000600960008373ffffffffffffffffffffffffffffffffffffffff1673ffffffffffffffffffffffffffffffffffffffff168152602001908152602001600020549050919050565b60008073ffffffffffffffffffffffffffffffffffffffff166104f3610c02565b73ffffffffffffffffffffffffffffffffffffffff160361051757600090506105a1565b6000610521610c02565b73ffffffffffffffffffffffffffffffffffffffff166370a08231306040518263ffffffff1660e01b81526004016105599190611542565b602060405180830381865afa158015610576573d6000803e3d6000fd5b505050506040513d601f19601f8201168201806040525081019061059a9190611816565b9050809150505b90565b600560009054906101000a900473ffffffffffffffffffffffffffffffffffffffff1673ffffffffffffffffffffffffffffffffffffffff163373ffffffffffffffffffffffffffffffffffffffff16146105fe57600080fd5b80600560006101000a81548173ffffffffffffffffffffffffffffffffffffffff021916908373ffffffffffffffffffffffffffffffffffffffff16021790555050565b6000600760008373ffffffffffffffffffffffffffffffffffffffff1673ffffffffffffffffffffffffffffffffffffffff168152602001908152602001600020549050919050565b6000600760003373ffffffffffffffffffffffffffffffffffffffff1673ffffffffffffffffffffffffffffffffffffffff168152602001908152602001600020541161070d576040517f08c379a0000000000000000000000000000000000000000000000000000000008152600401610704906118c6565b60405180910390fd5b6000600a8260405161071f9190611957565b908152602001604051809103902060003373ffffffffffffffffffffffffffffffffffffffff1673ffffffffffffffffffffffffffffffffffffffff16815260200190815260200160002060000154116107ae576040517f08c379a00000000000000000000000000000000000000000000000000000000081526004016107a5906119e0565b60405180910390fd5b6000600a826040516107c09190611957565b908152602001604051809103902060003373ffffffffffffffffffffffffffffffffffffffff1673ffffffffffffffffffffffffffffffffffffffff168152602001908152602001600020604051806101600160405290816000820154815260200160018201548152602001600282015481526020016003820160009054906101000a900473ffffffffffffffffffffffffffffffffffffffff1673ffffffffffffffffffffffffffffffffffffffff1673ffffffffffffffffffffffffffffffffffffffff168152602001600482015481526020016005820180546108a590611a2f565b80601f01602080910402602001604051908101604052809291908181526020018280546108d190611a2f565b801561091e5780601f106108f35761010080835404028352916020019161091e565b820191906000526020600020905b81548152906001019060200180831161090157829003601f168201915b5050505050815260200160068201548152602001600782015481526020016008820154815260200160098201548152602001600a820154815250509050600081608001518260200151426109729190611a8f565b61097c9190611af2565b9050600082610140015183600001516109959190611af2565b9050600081836109a59190611b23565b905060008460e00151826109b99190611a8f565b9050600081116109fe576040517f08c379a00000000000000000000000000000000000000000000000000000000081526004016109f590611bd7565b60405180910390fd5b610a49338260008054906101000a900473ffffffffffffffffffffffffffffffffffffffff1673ffffffffffffffffffffffffffffffffffffffff1661115d9092919063ffffffff16565b80600a87604051610a5a9190611957565b908152602001604051809103902060003373ffffffffffffffffffffffffffffffffffffffff1673ffffffffffffffffffffffffffffffffffffffff1681526020019081526020016000206007016000828254610ab79190611bf7565b925050819055506001600a87604051610ad09190611957565b908152602001604051809103902060003373ffffffffffffffffffffffffffffffffffffffff1673ffffffffffffffffffffffffffffffffffffffff1681526020019081526020016000206008016000828254610b2d9190611bf7565b925050819055508060046000828254610b469190611bf7565b9250508190555080600860003373ffffffffffffffffffffffffffffffffffffffff1673ffffffffffffffffffffffffffffffffffffffff1681526020019081526020016000206000828254610b9c9190611bf7565b925050819055506001600960003373ffffffffffffffffffffffffffffffffffffffff1673ffffffffffffffffffffffffffffffffffffffff1681526020019081526020016000206000828254610bf39190611bf7565b92505081905550505050505050565b60008060009054906101000a900473ffffffffffffffffffffffffffffffffffffffff16905090565b600660009054906101000a900473ffffffffffffffffffffffffffffffffffffffff1673ffffffffffffffffffffffffffffffffffffffff163373ffffffffffffffffffffffffffffffffffffffff1614610c8557600080fd5b60008311610cc8576040517f08c379a0000000000000000000000000000000000000000000000000000000008152600401610cbf90611c9d565b60405180910390fd5b600073ffffffffffffffffffffffffffffffffffffffff168273ffffffffffffffffffffffffffffffffffffffff1603610d37576040517f08c379a0000000000000000000000000000000000000000000000000000000008152600401610d2e90611d09565b60405180910390fd5b600060025411610d7c576040517f08c379a0000000000000000000000000000000000000000000000000000000008152600401610d7390611d9b565b60405180910390fd5b600060015411610dc1576040517f08c379a0000000000000000000000000000000000000000000000000000000008152600401610db890611e2d565b60405180910390fd5b82600a82604051610dd29190611957565b908152602001604051809103902060008473ffffffffffffffffffffffffffffffffffffffff1673ffffffffffffffffffffffffffffffffffffffff1681526020019081526020016000206000018190555042600a82604051610e359190611957565b908152602001604051809103902060008473ffffffffffffffffffffffffffffffffffffffff1673ffffffffffffffffffffffffffffffffffffffff1681526020019081526020016000206001018190555060015442610e959190611bf7565b600a82604051610ea59190611957565b908152602001604051809103902060008473ffffffffffffffffffffffffffffffffffffffff1673ffffffffffffffffffffffffffffffffffffffff1681526020019081526020016000206002018190555081600a82604051610f089190611957565b908152602001604051809103902060008473ffffffffffffffffffffffffffffffffffffffff1673ffffffffffffffffffffffffffffffffffffffff16815260200190815260200160002060030160006101000a81548173ffffffffffffffffffffffffffffffffffffffff021916908373ffffffffffffffffffffffffffffffffffffffff160217905550600254600a82604051610fa79190611957565b908152602001604051809103902060008473ffffffffffffffffffffffffffffffffffffffff1673ffffffffffffffffffffffffffffffffffffffff1681526020019081526020016000206004018190555080600a8260405161100a9190611957565b908152602001604051809103902060008473ffffffffffffffffffffffffffffffffffffffff1673ffffffffffffffffffffffffffffffffffffffff16815260200190815260200160002060050190816110649190611fef565b50600154600a826040516110789190611957565b908152602001604051809103902060008473ffffffffffffffffffffffffffffffffffffffff1673ffffffffffffffffffffffffffffffffffffffff168152602001908152602001600020600a018190555082600760008473ffffffffffffffffffffffffffffffffffffffff1673ffffffffffffffffffffffffffffffffffffffff168152602001908152602001600020546111159190611bf7565b600760008473ffffffffffffffffffffffffffffffffffffffff1673ffffffffffffffffffffffffffffffffffffffff16815260200190815260200160002081905550505050565b6111de8363a9059cbb60e01b848460405160240161117c9291906120c1565b604051602081830303815290604052907bffffffffffffffffffffffffffffffffffffffffffffffffffffffff19166020820180517bffffffffffffffffffffffffffffffffffffffffffffffffffffffff83818316178352505050506111e3565b505050565b6000611245826040518060400160405280602081526020017f5361666545524332303a206c6f772d6c6576656c2063616c6c206661696c65648152508573ffffffffffffffffffffffffffffffffffffffff166112aa9092919063ffffffff16565b90506000815111156112a557808060200190518101906112659190612122565b6112a4576040517f08c379a000000000000000000000000000000000000000000000000000000000815260040161129b906121c1565b60405180910390fd5b5b505050565b60606112b984846000856112c2565b90509392505050565b606082471015611307576040517f08c379a00000000000000000000000000000000000000000000000000000000081526004016112fe90612253565b60405180910390fd5b611310856113d6565b61134f576040517f08c379a0000000000000000000000000000000000000000000000000000000008152600401611346906122bf565b60405180910390fd5b6000808673ffffffffffffffffffffffffffffffffffffffff1685876040516113789190612326565b60006040518083038185875af1925050503d80600081146113b5576040519150601f19603f3d011682016040523d82523d6000602084013e6113ba565b606091505b50915091506113ca8282866113f9565b92505050949350505050565b6000808273ffffffffffffffffffffffffffffffffffffffff163b119050919050565b6060831561140957829050611459565b60008351111561141c5782518084602001fd5b816040517f08c379a00000000000000000000000000000000000000000000000000000000081526004016114509190612376565b60405180910390fd5b9392505050565b6000604051905090565b600080fd5b600080fd5b600073ffffffffffffffffffffffffffffffffffffffff82169050919050565b600061149f82611474565b9050919050565b6114af81611494565b81146114ba57600080fd5b50565b6000813590506114cc816114a6565b92915050565b6000602082840312156114e8576114e761146a565b5b60006114f6848285016114bd565b91505092915050565b6000819050919050565b611512816114ff565b82525050565b600060208201905061152d6000830184611509565b92915050565b61153c81611494565b82525050565b60006020820190506115576000830184611533565b92915050565b600080fd5b600080fd5b6000601f19601f8301169050919050565b7f4e487b7100000000000000000000000000000000000000000000000000000000600052604160045260246000fd5b6115b082611567565b810181811067ffffffffffffffff821117156115cf576115ce611578565b5b80604052505050565b60006115e2611460565b90506115ee82826115a7565b919050565b600067ffffffffffffffff82111561160e5761160d611578565b5b61161782611567565b9050602081019050919050565b82818337600083830152505050565b6000611646611641846115f3565b6115d8565b90508281526020810184848401111561166257611661611562565b5b61166d848285611624565b509392505050565b600082601f83011261168a5761168961155d565b5b813561169a848260208601611633565b91505092915050565b6000602082840312156116b9576116b861146a565b5b600082013567ffffffffffffffff8111156116d7576116d661146f565b5b6116e384828501611675565b91505092915050565b6000819050919050565b600061171161170c61170784611474565b6116ec565b611474565b9050919050565b6000611723826116f6565b9050919050565b600061173582611718565b9050919050565b6117458161172a565b82525050565b6000602082019050611760600083018461173c565b92915050565b61176f816114ff565b811461177a57600080fd5b50565b60008135905061178c81611766565b92915050565b6000806000606084860312156117ab576117aa61146a565b5b60006117b98682870161177d565b93505060206117ca868287016114bd565b925050604084013567ffffffffffffffff8111156117eb576117ea61146f565b5b6117f786828701611675565b9150509250925092565b60008151905061181081611766565b92915050565b60006020828403121561182c5761182b61146a565b5b600061183a84828501611801565b91505092915050565b600082825260208201905092915050565b7f5468657265206973206e6f20617661696c61626c65206c696d697420746f206360008201527f6c61696d21000000000000000000000000000000000000000000000000000000602082015250565b60006118b0602583611843565b91506118bb82611854565b604082019050919050565b600060208201905081810360008301526118df816118a3565b9050919050565b600081519050919050565b600081905092915050565b60005b8381101561191a5780820151818401526020810190506118ff565b60008484015250505050565b6000611931826118e6565b61193b81856118f1565b935061194b8185602086016118fc565b80840191505092915050565b60006119638284611926565b915081905092915050565b7f5468657265206973206e6f20617661696c61626c65206c696d697420746f206360008201527f6c61696d21210000000000000000000000000000000000000000000000000000602082015250565b60006119ca602683611843565b91506119d58261196e565b604082019050919050565b600060208201905081810360008301526119f9816119bd565b9050919050565b7f4e487b7100000000000000000000000000000000000000000000000000000000600052602260045260246000fd5b60006002820490506001821680611a4757607f821691505b602082108103611a5a57611a59611a00565b5b50919050565b7f4e487b7100000000000000000000000000000000000000000000000000000000600052601160045260246000fd5b6000611a9a826114ff565b9150611aa5836114ff565b9250828203905081811115611abd57611abc611a60565b5b92915050565b7f4e487b7100000000000000000000000000000000000000000000000000000000600052601260045260246000fd5b6000611afd826114ff565b9150611b08836114ff565b925082611b1857611b17611ac3565b5b828204905092915050565b6000611b2e826114ff565b9150611b39836114ff565b9250828202611b47816114ff565b91508282048414831517611b5e57611b5d611a60565b5b5092915050565b7f54686572652069732063757272656e746c79206e6f20636c61696d206176616960008201527f6c61626c65000000000000000000000000000000000000000000000000000000602082015250565b6000611bc1602583611843565b9150611bcc82611b65565b604082019050919050565b60006020820190508181036000830152611bf081611bb4565b9050919050565b6000611c02826114ff565b9150611c0d836114ff565b9250828201905080821115611c2557611c24611a60565b5b92915050565b7f546865206e756d626572206f66206c6f636b65642077617265686f757365732060008201527f6e6565647320746f2062652067726561746572207468616e2030000000000000602082015250565b6000611c87603a83611843565b9150611c9282611c2b565b604082019050919050565b60006020820190508181036000830152611cb681611c7a565b9050919050565b7f496e636f72726563742075736572206164647265737300000000000000000000600082015250565b6000611cf3601683611843565b9150611cfe82611cbd565b602082019050919050565b60006020820190508181036000830152611d2281611ce6565b9050919050565b7f52656c65617365206379636c65206e6565647320746f2062652067726561746560008201527f72207468616e2030000000000000000000000000000000000000000000000000602082015250565b6000611d85602883611843565b9150611d9082611d29565b604082019050919050565b60006020820190508181036000830152611db481611d78565b9050919050565b7f54686520746f74616c206c6f636b206475726174696f6e206e6565647320746f60008201527f2062652067726561746572207468616e20300000000000000000000000000000602082015250565b6000611e17603283611843565b9150611e2282611dbb565b604082019050919050565b60006020820190508181036000830152611e4681611e0a565b9050919050565b60008190508160005260206000209050919050565b60006020601f8301049050919050565b600082821b905092915050565b600060088302611eaf7fffffffffffffffffffffffffffffffffffffffffffffffffffffffffffffffff82611e72565b611eb98683611e72565b95508019841693508086168417925050509392505050565b6000611eec611ee7611ee2846114ff565b6116ec565b6114ff565b9050919050565b6000819050919050565b611f0683611ed1565b611f1a611f1282611ef3565b848454611e7f565b825550505050565b600090565b611f2f611f22565b611f3a818484611efd565b505050565b5b81811015611f5e57611f53600082611f27565b600181019050611f40565b5050565b601f821115611fa357611f7481611e4d565b611f7d84611e62565b81016020851015611f8c578190505b611fa0611f9885611e62565b830182611f3f565b50505b505050565b600082821c905092915050565b6000611fc660001984600802611fa8565b1980831691505092915050565b6000611fdf8383611fb5565b9150826002028217905092915050565b611ff8826118e6565b67ffffffffffffffff81111561201157612010611578565b5b61201b8254611a2f565b612026828285611f62565b600060209050601f8311600181146120595760008415612047578287015190505b6120518582611fd3565b8655506120b9565b601f19841661206786611e4d565b60005b8281101561208f5784890151825560018201915060208501945060208101905061206a565b868310156120ac57848901516120a8601f891682611fb5565b8355505b6001600288020188555050505b505050505050565b60006040820190506120d66000830185611533565b6120e36020830184611509565b9392505050565b60008115159050919050565b6120ff816120ea565b811461210a57600080fd5b50565b60008151905061211c816120f6565b92915050565b6000602082840312156121385761213761146a565b5b60006121468482850161210d565b91505092915050565b7f5361666545524332303a204552433230206f7065726174696f6e20646964206e60008201527f6f74207375636365656400000000000000000000000000000000000000000000602082015250565b60006121ab602a83611843565b91506121b68261214f565b604082019050919050565b600060208201905081810360008301526121da8161219e565b9050919050565b7f416464726573733a20696e73756666696369656e742062616c616e636520666f60008201527f722063616c6c0000000000000000000000000000000000000000000000000000602082015250565b600061223d602683611843565b9150612248826121e1565b604082019050919050565b6000602082019050818103600083015261226c81612230565b9050919050565b7f416464726573733a2063616c6c20746f206e6f6e2d636f6e7472616374000000600082015250565b60006122a9601d83611843565b91506122b482612273565b602082019050919050565b600060208201905081810360008301526122d88161229c565b9050919050565b600081519050919050565b600081905092915050565b6000612300826122df565b61230a81856122ea565b935061231a8185602086016118fc565b80840191505092915050565b600061233282846122f5565b915081905092915050565b6000612348826118e6565b6123528185611843565b93506123628185602086016118fc565b61236b81611567565b840191505092915050565b60006020820190508181036000830152612390818461233d565b90509291505056fea264697066735822122095c8259a3f1480e5ee3770ba04aeab61e6a336f527556d3bde71c51aaaa8d77b64736f6c63430008130033",
			"opcodes": "PUSH1 0x80 PUSH1 0x40 MSTORE PUSH3 0xED4E00 PUSH1 0x1 SSTORE PUSH3 0x15180 PUSH1 0x2 SSTORE PUSH1 0x12 PUSH1 0x3 SSTORE CALLVALUE DUP1 ISZERO PUSH2 0x23 JUMPI PUSH1 0x0 DUP1 REVERT JUMPDEST POP CALLER PUSH1 0x5 PUSH1 0x0 PUSH2 0x100 EXP DUP2 SLOAD DUP2 PUSH20 0xFFFFFFFFFFFFFFFFFFFFFFFFFFFFFFFFFFFFFFFF MUL NOT AND SWAP1 DUP4 PUSH20 0xFFFFFFFFFFFFFFFFFFFFFFFFFFFFFFFFFFFFFFFF AND MUL OR SWAP1 SSTORE POP PUSH2 0x23CE DUP1 PUSH2 0x74 PUSH1 0x0 CODECOPY PUSH1 0x0 RETURN INVALID PUSH1 0x80 PUSH1 0x40 MSTORE CALLVALUE DUP1 ISZERO PUSH2 0x10 JUMPI PUSH1 0x0 DUP1 REVERT JUMPDEST POP PUSH1 0x4 CALLDATASIZE LT PUSH2 0xEA JUMPI PUSH1 0x0 CALLDATALOAD PUSH1 0xE0 SHR DUP1 PUSH4 0x911490E9 GT PUSH2 0x8C JUMPI DUP1 PUSH4 0xD3030578 GT PUSH2 0x66 JUMPI DUP1 PUSH4 0xD3030578 EQ PUSH2 0x239 JUMPI DUP1 PUSH4 0xF34E3723 EQ PUSH2 0x269 JUMPI DUP1 PUSH4 0xFC0C546A EQ PUSH2 0x285 JUMPI DUP1 PUSH4 0xFF46E36A EQ PUSH2 0x2A3 JUMPI PUSH2 0xEA JUMP JUMPDEST DUP1 PUSH4 0x911490E9 EQ PUSH2 0x1CF JUMPI DUP1 PUSH4 0x9E1A4D19 EQ PUSH2 0x1FF JUMPI DUP1 PUSH4 0xA6F9DAE1 EQ PUSH2 0x21D JUMPI PUSH2 0xEA JUMP JUMPDEST DUP1 PUSH4 0x26A4E8D2 GT PUSH2 0xC8 JUMPI DUP1 PUSH4 0x26A4E8D2 EQ PUSH2 0x147 JUMPI DUP1 PUSH4 0x313CE567 EQ PUSH2 0x163 JUMPI DUP1 PUSH4 0x4B14C0EF EQ PUSH2 0x181 JUMPI DUP1 PUSH4 0x6A3AC37B EQ PUSH2 0x19F JUMPI PUSH2 0xEA JUMP JUMPDEST DUP1 PUSH4 0x15FA807F EQ PUSH2 0xEF JUMPI DUP1 PUSH4 0x188EC356 EQ PUSH2 0x10B JUMPI DUP1 PUSH4 0x1BF0FBD1 EQ PUSH2 0x129 JUMPI JUMPDEST PUSH1 0x0 DUP1 REVERT JUMPDEST PUSH2 0x109 PUSH1 0x4 DUP1 CALLDATASIZE SUB DUP2 ADD SWAP1 PUSH2 0x104 SWAP2 SWAP1 PUSH2 0x14D2 JUMP JUMPDEST PUSH2 0x2BF JUMP JUMPDEST STOP JUMPDEST PUSH2 0x113 PUSH2 0x35D JUMP JUMPDEST PUSH1 0x40 MLOAD PUSH2 0x120 SWAP2 SWAP1 PUSH2 0x1518 JUMP JUMPDEST PUSH1 0x40 MLOAD DUP1 SWAP2 SUB SWAP1 RETURN JUMPDEST PUSH2 0x131 PUSH2 0x365 JUMP JUMPDEST PUSH1 0x40 MLOAD PUSH2 0x13E SWAP2 SWAP1 PUSH2 0x1542 JUMP JUMPDEST PUSH1 0x40 MLOAD DUP1 SWAP2 SUB SWAP1 RETURN JUMPDEST PUSH2 0x161 PUSH1 0x4 DUP1 CALLDATASIZE SUB DUP2 ADD SWAP1 PUSH2 0x15C SWAP2 SWAP1 PUSH2 0x14D2 JUMP JUMPDEST PUSH2 0x38F JUMP JUMPDEST STOP JUMPDEST PUSH2 0x16B PUSH2 0x42C JUMP JUMPDEST PUSH1 0x40 MLOAD PUSH2 0x178 SWAP2 SWAP1 PUSH2 0x1518 JUMP JUMPDEST PUSH1 0x40 MLOAD DUP1 SWAP2 SUB SWAP1 RETURN JUMPDEST PUSH2 0x189 PUSH2 0x436 JUMP JUMPDEST PUSH1 0x40 MLOAD PUSH2 0x196 SWAP2 SWAP1 PUSH2 0x1518 JUMP JUMPDEST PUSH1 0x40 MLOAD DUP1 SWAP2 SUB SWAP1 RETURN JUMPDEST PUSH2 0x1B9 PUSH1 0x4 DUP1 CALLDATASIZE SUB DUP2 ADD SWAP1 PUSH2 0x1B4 SWAP2 SWAP1 PUSH2 0x14D2 JUMP JUMPDEST PUSH2 0x440 JUMP JUMPDEST PUSH1 0x40 MLOAD PUSH2 0x1C6 SWAP2 SWAP1 PUSH2 0x1518 JUMP JUMPDEST PUSH1 0x40 MLOAD DUP1 SWAP2 SUB SWAP1 RETURN JUMPDEST PUSH2 0x1E9 PUSH1 0x4 DUP1 CALLDATASIZE SUB DUP2 ADD SWAP1 PUSH2 0x1E4 SWAP2 SWAP1 PUSH2 0x14D2 JUMP JUMPDEST PUSH2 0x489 JUMP JUMPDEST PUSH1 0x40 MLOAD PUSH2 0x1F6 SWAP2 SWAP1 PUSH2 0x1518 JUMP JUMPDEST PUSH1 0x40 MLOAD DUP1 SWAP2 SUB SWAP1 RETURN JUMPDEST PUSH2 0x207 PUSH2 0x4D2 JUMP JUMPDEST PUSH1 0x40 MLOAD PUSH2 0x214 SWAP2 SWAP1 PUSH2 0x1518 JUMP JUMPDEST PUSH1 0x40 MLOAD DUP1 SWAP2 SUB SWAP1 RETURN JUMPDEST PUSH2 0x237 PUSH1 0x4 DUP1 CALLDATASIZE SUB DUP2 ADD SWAP1 PUSH2 0x232 SWAP2 SWAP1 PUSH2 0x14D2 JUMP JUMPDEST PUSH2 0x5A4 JUMP JUMPDEST STOP JUMPDEST PUSH2 0x253 PUSH1 0x4 DUP1 CALLDATASIZE SUB DUP2 ADD SWAP1 PUSH2 0x24E SWAP2 SWAP1 PUSH2 0x14D2 JUMP JUMPDEST PUSH2 0x642 JUMP JUMPDEST PUSH1 0x40 MLOAD PUSH2 0x260 SWAP2 SWAP1 PUSH2 0x1518 JUMP JUMPDEST PUSH1 0x40 MLOAD DUP1 SWAP2 SUB SWAP1 RETURN JUMPDEST PUSH2 0x283 PUSH1 0x4 DUP1 CALLDATASIZE SUB DUP2 ADD SWAP1 PUSH2 0x27E SWAP2 SWAP1 PUSH2 0x16A3 JUMP JUMPDEST PUSH2 0x68B JUMP JUMPDEST STOP JUMPDEST PUSH2 0x28D PUSH2 0xC02 JUMP JUMPDEST PUSH1 0x40 MLOAD PUSH2 0x29A SWAP2 SWAP1 PUSH2 0x174B JUMP JUMPDEST PUSH1 0x40 MLOAD DUP1 SWAP2 SUB SWAP1 RETURN JUMPDEST PUSH2 0x2BD PUSH1 0x4 DUP1 CALLDATASIZE SUB DUP2 ADD SWAP1 PUSH2 0x2B8 SWAP2 SWAP1 PUSH2 0x1792 JUMP JUMPDEST PUSH2 0xC2B JUMP JUMPDEST STOP JUMPDEST PUSH1 0x5 PUSH1 0x0 SWAP1 SLOAD SWAP1 PUSH2 0x100 EXP SWAP1 DIV PUSH20 0xFFFFFFFFFFFFFFFFFFFFFFFFFFFFFFFFFFFFFFFF AND PUSH20 0xFFFFFFFFFFFFFFFFFFFFFFFFFFFFFFFFFFFFFFFF AND CALLER PUSH20 0xFFFFFFFFFFFFFFFFFFFFFFFFFFFFFFFFFFFFFFFF AND EQ PUSH2 0x319 JUMPI PUSH1 0x0 DUP1 REVERT JUMPDEST DUP1 PUSH1 0x6 PUSH1 0x0 PUSH2 0x100 EXP DUP2 SLOAD DUP2 PUSH20 0xFFFFFFFFFFFFFFFFFFFFFFFFFFFFFFFFFFFFFFFF MUL NOT AND SWAP1 DUP4 PUSH20 0xFFFFFFFFFFFFFFFFFFFFFFFFFFFFFFFFFFFFFFFF AND MUL OR SWAP1 SSTORE POP POP JUMP JUMPDEST PUSH1 0x0 TIMESTAMP SWAP1 POP SWAP1 JUMP JUMPDEST PUSH1 0x0 PUSH1 0x6 PUSH1 0x0 SWAP1 SLOAD SWAP1 PUSH2 0x100 EXP SWAP1 DIV PUSH20 0xFFFFFFFFFFFFFFFFFFFFFFFFFFFFFFFFFFFFFFFF AND SWAP1 POP SWAP1 JUMP JUMPDEST PUSH1 0x5 PUSH1 0x0 SWAP1 SLOAD SWAP1 PUSH2 0x100 EXP SWAP1 DIV PUSH20 0xFFFFFFFFFFFFFFFFFFFFFFFFFFFFFFFFFFFFFFFF AND PUSH20 0xFFFFFFFFFFFFFFFFFFFFFFFFFFFFFFFFFFFFFFFF AND CALLER PUSH20 0xFFFFFFFFFFFFFFFFFFFFFFFFFFFFFFFFFFFFFFFF AND EQ PUSH2 0x3E9 JUMPI PUSH1 0x0 DUP1 REVERT JUMPDEST DUP1 PUSH1 0x0 DUP1 PUSH2 0x100 EXP DUP2 SLOAD DUP2 PUSH20 0xFFFFFFFFFFFFFFFFFFFFFFFFFFFFFFFFFFFFFFFF MUL NOT AND SWAP1 DUP4 PUSH20 0xFFFFFFFFFFFFFFFFFFFFFFFFFFFFFFFFFFFFFFFF AND MUL OR SWAP1 SSTORE POP POP JUMP JUMPDEST PUSH1 0x0 PUSH1 0x3 SLOAD SWAP1 POP SWAP1 JUMP JUMPDEST PUSH1 0x0 PUSH1 0x4 SLOAD SWAP1 POP SWAP1 JUMP JUMPDEST PUSH1 0x0 PUSH1 0x8 PUSH1 0x0 DUP4 PUSH20 0xFFFFFFFFFFFFFFFFFFFFFFFFFFFFFFFFFFFFFFFF AND PUSH20 0xFFFFFFFFFFFFFFFFFFFFFFFFFFFFFFFFFFFFFFFF AND DUP2 MSTORE PUSH1 0x20 ADD SWAP1 DUP2 MSTORE PUSH1 0x20 ADD PUSH1 0x0 KECCAK256 SLOAD SWAP1 POP SWAP2 SWAP1 POP JUMP JUMPDEST PUSH1 0x0 PUSH1 0x9 PUSH1 0x0 DUP4 PUSH20 0xFFFFFFFFFFFFFFFFFFFFFFFFFFFFFFFFFFFFFFFF AND PUSH20 0xFFFFFFFFFFFFFFFFFFFFFFFFFFFFFFFFFFFFFFFF AND DUP2 MSTORE PUSH1 0x20 ADD SWAP1 DUP2 MSTORE PUSH1 0x20 ADD PUSH1 0x0 KECCAK256 SLOAD SWAP1 POP SWAP2 SWAP1 POP JUMP JUMPDEST PUSH1 0x0 DUP1 PUSH20 0xFFFFFFFFFFFFFFFFFFFFFFFFFFFFFFFFFFFFFFFF AND PUSH2 0x4F3 PUSH2 0xC02 JUMP JUMPDEST PUSH20 0xFFFFFFFFFFFFFFFFFFFFFFFFFFFFFFFFFFFFFFFF AND SUB PUSH2 0x517 JUMPI PUSH1 0x0 SWAP1 POP PUSH2 0x5A1 JUMP JUMPDEST PUSH1 0x0 PUSH2 0x521 PUSH2 0xC02 JUMP JUMPDEST PUSH20 0xFFFFFFFFFFFFFFFFFFFFFFFFFFFFFFFFFFFFFFFF AND PUSH4 0x70A08231 ADDRESS PUSH1 0x40 MLOAD DUP3 PUSH4 0xFFFFFFFF AND PUSH1 0xE0 SHL DUP2 MSTORE PUSH1 0x4 ADD PUSH2 0x559 SWAP2 SWAP1 PUSH2 0x1542 JUMP JUMPDEST PUSH1 0x20 PUSH1 0x40 MLOAD DUP1 DUP4 SUB DUP2 DUP7 GAS STATICCALL ISZERO DUP1 ISZERO PUSH2 0x576 JUMPI RETURNDATASIZE PUSH1 0x0 DUP1 RETURNDATACOPY RETURNDATASIZE PUSH1 0x0 REVERT JUMPDEST POP POP POP POP PUSH1 0x40 MLOAD RETURNDATASIZE PUSH1 0x1F NOT PUSH1 0x1F DUP3 ADD AND DUP3 ADD DUP1 PUSH1 0x40 MSTORE POP DUP2 ADD SWAP1 PUSH2 0x59A SWAP2 SWAP1 PUSH2 0x1816 JUMP JUMPDEST SWAP1 POP DUP1 SWAP2 POP POP JUMPDEST SWAP1 JUMP JUMPDEST PUSH1 0x5 PUSH1 0x0 SWAP1 SLOAD SWAP1 PUSH2 0x100 EXP SWAP1 DIV PUSH20 0xFFFFFFFFFFFFFFFFFFFFFFFFFFFFFFFFFFFFFFFF AND PUSH20 0xFFFFFFFFFFFFFFFFFFFFFFFFFFFFFFFFFFFFFFFF AND CALLER PUSH20 0xFFFFFFFFFFFFFFFFFFFFFFFFFFFFFFFFFFFFFFFF AND EQ PUSH2 0x5FE JUMPI PUSH1 0x0 DUP1 REVERT JUMPDEST DUP1 PUSH1 0x5 PUSH1 0x0 PUSH2 0x100 EXP DUP2 SLOAD DUP2 PUSH20 0xFFFFFFFFFFFFFFFFFFFFFFFFFFFFFFFFFFFFFFFF MUL NOT AND SWAP1 DUP4 PUSH20 0xFFFFFFFFFFFFFFFFFFFFFFFFFFFFFFFFFFFFFFFF AND MUL OR SWAP1 SSTORE POP POP JUMP JUMPDEST PUSH1 0x0 PUSH1 0x7 PUSH1 0x0 DUP4 PUSH20 0xFFFFFFFFFFFFFFFFFFFFFFFFFFFFFFFFFFFFFFFF AND PUSH20 0xFFFFFFFFFFFFFFFFFFFFFFFFFFFFFFFFFFFFFFFF AND DUP2 MSTORE PUSH1 0x20 ADD SWAP1 DUP2 MSTORE PUSH1 0x20 ADD PUSH1 0x0 KECCAK256 SLOAD SWAP1 POP SWAP2 SWAP1 POP JUMP JUMPDEST PUSH1 0x0 PUSH1 0x7 PUSH1 0x0 CALLER PUSH20 0xFFFFFFFFFFFFFFFFFFFFFFFFFFFFFFFFFFFFFFFF AND PUSH20 0xFFFFFFFFFFFFFFFFFFFFFFFFFFFFFFFFFFFFFFFF AND DUP2 MSTORE PUSH1 0x20 ADD SWAP1 DUP2 MSTORE PUSH1 0x20 ADD PUSH1 0x0 KECCAK256 SLOAD GT PUSH2 0x70D JUMPI PUSH1 0x40 MLOAD PUSH32 0x8C379A000000000000000000000000000000000000000000000000000000000 DUP2 MSTORE PUSH1 0x4 ADD PUSH2 0x704 SWAP1 PUSH2 0x18C6 JUMP JUMPDEST PUSH1 0x40 MLOAD DUP1 SWAP2 SUB SWAP1 REVERT JUMPDEST PUSH1 0x0 PUSH1 0xA DUP3 PUSH1 0x40 MLOAD PUSH2 0x71F SWAP2 SWAP1 PUSH2 0x1957 JUMP JUMPDEST SWAP1 DUP2 MSTORE PUSH1 0x20 ADD PUSH1 0x40 MLOAD DUP1 SWAP2 SUB SWAP1 KECCAK256 PUSH1 0x0 CALLER PUSH20 0xFFFFFFFFFFFFFFFFFFFFFFFFFFFFFFFFFFFFFFFF AND PUSH20 0xFFFFFFFFFFFFFFFFFFFFFFFFFFFFFFFFFFFFFFFF AND DUP2 MSTORE PUSH1 0x20 ADD SWAP1 DUP2 MSTORE PUSH1 0x20 ADD PUSH1 0x0 KECCAK256 PUSH1 0x0 ADD SLOAD GT PUSH2 0x7AE JUMPI PUSH1 0x40 MLOAD PUSH32 0x8C379A000000000000000000000000000000000000000000000000000000000 DUP2 MSTORE PUSH1 0x4 ADD PUSH2 0x7A5 SWAP1 PUSH2 0x19E0 JUMP JUMPDEST PUSH1 0x40 MLOAD DUP1 SWAP2 SUB SWAP1 REVERT JUMPDEST PUSH1 0x0 PUSH1 0xA DUP3 PUSH1 0x40 MLOAD PUSH2 0x7C0 SWAP2 SWAP1 PUSH2 0x1957 JUMP JUMPDEST SWAP1 DUP2 MSTORE PUSH1 0x20 ADD PUSH1 0x40 MLOAD DUP1 SWAP2 SUB SWAP1 KECCAK256 PUSH1 0x0 CALLER PUSH20 0xFFFFFFFFFFFFFFFFFFFFFFFFFFFFFFFFFFFFFFFF AND PUSH20 0xFFFFFFFFFFFFFFFFFFFFFFFFFFFFFFFFFFFFFFFF AND DUP2 MSTORE PUSH1 0x20 ADD SWAP1 DUP2 MSTORE PUSH1 0x20 ADD PUSH1 0x0 KECCAK256 PUSH1 0x40 MLOAD DUP1 PUSH2 0x160 ADD PUSH1 0x40 MSTORE SWAP1 DUP2 PUSH1 0x0 DUP3 ADD SLOAD DUP2 MSTORE PUSH1 0x20 ADD PUSH1 0x1 DUP3 ADD SLOAD DUP2 MSTORE PUSH1 0x20 ADD PUSH1 0x2 DUP3 ADD SLOAD DUP2 MSTORE PUSH1 0x20 ADD PUSH1 0x3 DUP3 ADD PUSH1 0x0 SWAP1 SLOAD SWAP1 PUSH2 0x100 EXP SWAP1 DIV PUSH20 0xFFFFFFFFFFFFFFFFFFFFFFFFFFFFFFFFFFFFFFFF AND PUSH20 0xFFFFFFFFFFFFFFFFFFFFFFFFFFFFFFFFFFFFFFFF AND PUSH20 0xFFFFFFFFFFFFFFFFFFFFFFFFFFFFFFFFFFFFFFFF AND DUP2 MSTORE PUSH1 0x20 ADD PUSH1 0x4 DUP3 ADD SLOAD DUP2 MSTORE PUSH1 0x20 ADD PUSH1 0x5 DUP3 ADD DUP1 SLOAD PUSH2 0x8A5 SWAP1 PUSH2 0x1A2F JUMP JUMPDEST DUP1 PUSH1 0x1F ADD PUSH1 0x20 DUP1 SWAP2 DIV MUL PUSH1 0x20 ADD PUSH1 0x40 MLOAD SWAP1 DUP2 ADD PUSH1 0x40 MSTORE DUP1 SWAP3 SWAP2 SWAP1 DUP2 DUP2 MSTORE PUSH1 0x20 ADD DUP3 DUP1 SLOAD PUSH2 0x8D1 SWAP1 PUSH2 0x1A2F JUMP JUMPDEST DUP1 ISZERO PUSH2 0x91E JUMPI DUP1 PUSH1 0x1F LT PUSH2 0x8F3 JUMPI PUSH2 0x100 DUP1 DUP4 SLOAD DIV MUL DUP4 MSTORE SWAP2 PUSH1 0x20 ADD SWAP2 PUSH2 0x91E JUMP JUMPDEST DUP3 ADD SWAP2 SWAP1 PUSH1 0x0 MSTORE PUSH1 0x20 PUSH1 0x0 KECCAK256 SWAP1 JUMPDEST DUP2 SLOAD DUP2 MSTORE SWAP1 PUSH1 0x1 ADD SWAP1 PUSH1 0x20 ADD DUP1 DUP4 GT PUSH2 0x901 JUMPI DUP3 SWAP1 SUB PUSH1 0x1F AND DUP3 ADD SWAP2 JUMPDEST POP POP POP POP POP DUP2 MSTORE PUSH1 0x20 ADD PUSH1 0x6 DUP3 ADD SLOAD DUP2 MSTORE PUSH1 0x20 ADD PUSH1 0x7 DUP3 ADD SLOAD DUP2 MSTORE PUSH1 0x20 ADD PUSH1 0x8 DUP3 ADD SLOAD DUP2 MSTORE PUSH1 0x20 ADD PUSH1 0x9 DUP3 ADD SLOAD DUP2 MSTORE PUSH1 0x20 ADD PUSH1 0xA DUP3 ADD SLOAD DUP2 MSTORE POP POP SWAP1 POP PUSH1 0x0 DUP2 PUSH1 0x80 ADD MLOAD DUP3 PUSH1 0x20 ADD MLOAD TIMESTAMP PUSH2 0x972 SWAP2 SWAP1 PUSH2 0x1A8F JUMP JUMPDEST PUSH2 0x97C SWAP2 SWAP1 PUSH2 0x1AF2 JUMP JUMPDEST SWAP1 POP PUSH1 0x0 DUP3 PUSH2 0x140 ADD MLOAD DUP4 PUSH1 0x0 ADD MLOAD PUSH2 0x995 SWAP2 SWAP1 PUSH2 0x1AF2 JUMP JUMPDEST SWAP1 POP PUSH1 0x0 DUP2 DUP4 PUSH2 0x9A5 SWAP2 SWAP1 PUSH2 0x1B23 JUMP JUMPDEST SWAP1 POP PUSH1 0x0 DUP5 PUSH1 0xE0 ADD MLOAD DUP3 PUSH2 0x9B9 SWAP2 SWAP1 PUSH2 0x1A8F JUMP JUMPDEST SWAP1 POP PUSH1 0x0 DUP2 GT PUSH2 0x9FE JUMPI PUSH1 0x40 MLOAD PUSH32 0x8C379A000000000000000000000000000000000000000000000000000000000 DUP2 MSTORE PUSH1 0x4 ADD PUSH2 0x9F5 SWAP1 PUSH2 0x1BD7 JUMP JUMPDEST PUSH1 0x40 MLOAD DUP1 SWAP2 SUB SWAP1 REVERT JUMPDEST PUSH2 0xA49 CALLER DUP3 PUSH1 0x0 DUP1 SLOAD SWAP1 PUSH2 0x100 EXP SWAP1 DIV PUSH20 0xFFFFFFFFFFFFFFFFFFFFFFFFFFFFFFFFFFFFFFFF AND PUSH20 0xFFFFFFFFFFFFFFFFFFFFFFFFFFFFFFFFFFFFFFFF AND PUSH2 0x115D SWAP1 SWAP3 SWAP2 SWAP1 PUSH4 0xFFFFFFFF AND JUMP JUMPDEST DUP1 PUSH1 0xA DUP8 PUSH1 0x40 MLOAD PUSH2 0xA5A SWAP2 SWAP1 PUSH2 0x1957 JUMP JUMPDEST SWAP1 DUP2 MSTORE PUSH1 0x20 ADD PUSH1 0x40 MLOAD DUP1 SWAP2 SUB SWAP1 KECCAK256 PUSH1 0x0 CALLER PUSH20 0xFFFFFFFFFFFFFFFFFFFFFFFFFFFFFFFFFFFFFFFF AND PUSH20 0xFFFFFFFFFFFFFFFFFFFFFFFFFFFFFFFFFFFFFFFF AND DUP2 MSTORE PUSH1 0x20 ADD SWAP1 DUP2 MSTORE PUSH1 0x20 ADD PUSH1 0x0 KECCAK256 PUSH1 0x7 ADD PUSH1 0x0 DUP3 DUP3 SLOAD PUSH2 0xAB7 SWAP2 SWAP1 PUSH2 0x1BF7 JUMP JUMPDEST SWAP3 POP POP DUP2 SWAP1 SSTORE POP PUSH1 0x1 PUSH1 0xA DUP8 PUSH1 0x40 MLOAD PUSH2 0xAD0 SWAP2 SWAP1 PUSH2 0x1957 JUMP JUMPDEST SWAP1 DUP2 MSTORE PUSH1 0x20 ADD PUSH1 0x40 MLOAD DUP1 SWAP2 SUB SWAP1 KECCAK256 PUSH1 0x0 CALLER PUSH20 0xFFFFFFFFFFFFFFFFFFFFFFFFFFFFFFFFFFFFFFFF AND PUSH20 0xFFFFFFFFFFFFFFFFFFFFFFFFFFFFFFFFFFFFFFFF AND DUP2 MSTORE PUSH1 0x20 ADD SWAP1 DUP2 MSTORE PUSH1 0x20 ADD PUSH1 0x0 KECCAK256 PUSH1 0x8 ADD PUSH1 0x0 DUP3 DUP3 SLOAD PUSH2 0xB2D SWAP2 SWAP1 PUSH2 0x1BF7 JUMP JUMPDEST SWAP3 POP POP DUP2 SWAP1 SSTORE POP DUP1 PUSH1 0x4 PUSH1 0x0 DUP3 DUP3 SLOAD PUSH2 0xB46 SWAP2 SWAP1 PUSH2 0x1BF7 JUMP JUMPDEST SWAP3 POP POP DUP2 SWAP1 SSTORE POP DUP1 PUSH1 0x8 PUSH1 0x0 CALLER PUSH20 0xFFFFFFFFFFFFFFFFFFFFFFFFFFFFFFFFFFFFFFFF AND PUSH20 0xFFFFFFFFFFFFFFFFFFFFFFFFFFFFFFFFFFFFFFFF AND DUP2 MSTORE PUSH1 0x20 ADD SWAP1 DUP2 MSTORE PUSH1 0x20 ADD PUSH1 0x0 KECCAK256 PUSH1 0x0 DUP3 DUP3 SLOAD PUSH2 0xB9C SWAP2 SWAP1 PUSH2 0x1BF7 JUMP JUMPDEST SWAP3 POP POP DUP2 SWAP1 SSTORE POP PUSH1 0x1 PUSH1 0x9 PUSH1 0x0 CALLER PUSH20 0xFFFFFFFFFFFFFFFFFFFFFFFFFFFFFFFFFFFFFFFF AND PUSH20 0xFFFFFFFFFFFFFFFFFFFFFFFFFFFFFFFFFFFFFFFF AND DUP2 MSTORE PUSH1 0x20 ADD SWAP1 DUP2 MSTORE PUSH1 0x20 ADD PUSH1 0x0 KECCAK256 PUSH1 0x0 DUP3 DUP3 SLOAD PUSH2 0xBF3 SWAP2 SWAP1 PUSH2 0x1BF7 JUMP JUMPDEST SWAP3 POP POP DUP2 SWAP1 SSTORE POP POP POP POP POP POP POP JUMP JUMPDEST PUSH1 0x0 DUP1 PUSH1 0x0 SWAP1 SLOAD SWAP1 PUSH2 0x100 EXP SWAP1 DIV PUSH20 0xFFFFFFFFFFFFFFFFFFFFFFFFFFFFFFFFFFFFFFFF AND SWAP1 POP SWAP1 JUMP JUMPDEST PUSH1 0x6 PUSH1 0x0 SWAP1 SLOAD SWAP1 PUSH2 0x100 EXP SWAP1 DIV PUSH20 0xFFFFFFFFFFFFFFFFFFFFFFFFFFFFFFFFFFFFFFFF AND PUSH20 0xFFFFFFFFFFFFFFFFFFFFFFFFFFFFFFFFFFFFFFFF AND CALLER PUSH20 0xFFFFFFFFFFFFFFFFFFFFFFFFFFFFFFFFFFFFFFFF AND EQ PUSH2 0xC85 JUMPI PUSH1 0x0 DUP1 REVERT JUMPDEST PUSH1 0x0 DUP4 GT PUSH2 0xCC8 JUMPI PUSH1 0x40 MLOAD PUSH32 0x8C379A000000000000000000000000000000000000000000000000000000000 DUP2 MSTORE PUSH1 0x4 ADD PUSH2 0xCBF SWAP1 PUSH2 0x1C9D JUMP JUMPDEST PUSH1 0x40 MLOAD DUP1 SWAP2 SUB SWAP1 REVERT JUMPDEST PUSH1 0x0 PUSH20 0xFFFFFFFFFFFFFFFFFFFFFFFFFFFFFFFFFFFFFFFF AND DUP3 PUSH20 0xFFFFFFFFFFFFFFFFFFFFFFFFFFFFFFFFFFFFFFFF AND SUB PUSH2 0xD37 JUMPI PUSH1 0x40 MLOAD PUSH32 0x8C379A000000000000000000000000000000000000000000000000000000000 DUP2 MSTORE PUSH1 0x4 ADD PUSH2 0xD2E SWAP1 PUSH2 0x1D09 JUMP JUMPDEST PUSH1 0x40 MLOAD DUP1 SWAP2 SUB SWAP1 REVERT JUMPDEST PUSH1 0x0 PUSH1 0x2 SLOAD GT PUSH2 0xD7C JUMPI PUSH1 0x40 MLOAD PUSH32 0x8C379A000000000000000000000000000000000000000000000000000000000 DUP2 MSTORE PUSH1 0x4 ADD PUSH2 0xD73 SWAP1 PUSH2 0x1D9B JUMP JUMPDEST PUSH1 0x40 MLOAD DUP1 SWAP2 SUB SWAP1 REVERT JUMPDEST PUSH1 0x0 PUSH1 0x1 SLOAD GT PUSH2 0xDC1 JUMPI PUSH1 0x40 MLOAD PUSH32 0x8C379A000000000000000000000000000000000000000000000000000000000 DUP2 MSTORE PUSH1 0x4 ADD PUSH2 0xDB8 SWAP1 PUSH2 0x1E2D JUMP JUMPDEST PUSH1 0x40 MLOAD DUP1 SWAP2 SUB SWAP1 REVERT JUMPDEST DUP3 PUSH1 0xA DUP3 PUSH1 0x40 MLOAD PUSH2 0xDD2 SWAP2 SWAP1 PUSH2 0x1957 JUMP JUMPDEST SWAP1 DUP2 MSTORE PUSH1 0x20 ADD PUSH1 0x40 MLOAD DUP1 SWAP2 SUB SWAP1 KECCAK256 PUSH1 0x0 DUP5 PUSH20 0xFFFFFFFFFFFFFFFFFFFFFFFFFFFFFFFFFFFFFFFF AND PUSH20 0xFFFFFFFFFFFFFFFFFFFFFFFFFFFFFFFFFFFFFFFF AND DUP2 MSTORE PUSH1 0x20 ADD SWAP1 DUP2 MSTORE PUSH1 0x20 ADD PUSH1 0x0 KECCAK256 PUSH1 0x0 ADD DUP2 SWAP1 SSTORE POP TIMESTAMP PUSH1 0xA DUP3 PUSH1 0x40 MLOAD PUSH2 0xE35 SWAP2 SWAP1 PUSH2 0x1957 JUMP JUMPDEST SWAP1 DUP2 MSTORE PUSH1 0x20 ADD PUSH1 0x40 MLOAD DUP1 SWAP2 SUB SWAP1 KECCAK256 PUSH1 0x0 DUP5 PUSH20 0xFFFFFFFFFFFFFFFFFFFFFFFFFFFFFFFFFFFFFFFF AND PUSH20 0xFFFFFFFFFFFFFFFFFFFFFFFFFFFFFFFFFFFFFFFF AND DUP2 MSTORE PUSH1 0x20 ADD SWAP1 DUP2 MSTORE PUSH1 0x20 ADD PUSH1 0x0 KECCAK256 PUSH1 0x1 ADD DUP2 SWAP1 SSTORE POP PUSH1 0x1 SLOAD TIMESTAMP PUSH2 0xE95 SWAP2 SWAP1 PUSH2 0x1BF7 JUMP JUMPDEST PUSH1 0xA DUP3 PUSH1 0x40 MLOAD PUSH2 0xEA5 SWAP2 SWAP1 PUSH2 0x1957 JUMP JUMPDEST SWAP1 DUP2 MSTORE PUSH1 0x20 ADD PUSH1 0x40 MLOAD DUP1 SWAP2 SUB SWAP1 KECCAK256 PUSH1 0x0 DUP5 PUSH20 0xFFFFFFFFFFFFFFFFFFFFFFFFFFFFFFFFFFFFFFFF AND PUSH20 0xFFFFFFFFFFFFFFFFFFFFFFFFFFFFFFFFFFFFFFFF AND DUP2 MSTORE PUSH1 0x20 ADD SWAP1 DUP2 MSTORE PUSH1 0x20 ADD PUSH1 0x0 KECCAK256 PUSH1 0x2 ADD DUP2 SWAP1 SSTORE POP DUP2 PUSH1 0xA DUP3 PUSH1 0x40 MLOAD PUSH2 0xF08 SWAP2 SWAP1 PUSH2 0x1957 JUMP JUMPDEST SWAP1 DUP2 MSTORE PUSH1 0x20 ADD PUSH1 0x40 MLOAD DUP1 SWAP2 SUB SWAP1 KECCAK256 PUSH1 0x0 DUP5 PUSH20 0xFFFFFFFFFFFFFFFFFFFFFFFFFFFFFFFFFFFFFFFF AND PUSH20 0xFFFFFFFFFFFFFFFFFFFFFFFFFFFFFFFFFFFFFFFF AND DUP2 MSTORE PUSH1 0x20 ADD SWAP1 DUP2 MSTORE PUSH1 0x20 ADD PUSH1 0x0 KECCAK256 PUSH1 0x3 ADD PUSH1 0x0 PUSH2 0x100 EXP DUP2 SLOAD DUP2 PUSH20 0xFFFFFFFFFFFFFFFFFFFFFFFFFFFFFFFFFFFFFFFF MUL NOT AND SWAP1 DUP4 PUSH20 0xFFFFFFFFFFFFFFFFFFFFFFFFFFFFFFFFFFFFFFFF AND MUL OR SWAP1 SSTORE POP PUSH1 0x2 SLOAD PUSH1 0xA DUP3 PUSH1 0x40 MLOAD PUSH2 0xFA7 SWAP2 SWAP1 PUSH2 0x1957 JUMP JUMPDEST SWAP1 DUP2 MSTORE PUSH1 0x20 ADD PUSH1 0x40 MLOAD DUP1 SWAP2 SUB SWAP1 KECCAK256 PUSH1 0x0 DUP5 PUSH20 0xFFFFFFFFFFFFFFFFFFFFFFFFFFFFFFFFFFFFFFFF AND PUSH20 0xFFFFFFFFFFFFFFFFFFFFFFFFFFFFFFFFFFFFFFFF AND DUP2 MSTORE PUSH1 0x20 ADD SWAP1 DUP2 MSTORE PUSH1 0x20 ADD PUSH1 0x0 KECCAK256 PUSH1 0x4 ADD DUP2 SWAP1 SSTORE POP DUP1 PUSH1 0xA DUP3 PUSH1 0x40 MLOAD PUSH2 0x100A SWAP2 SWAP1 PUSH2 0x1957 JUMP JUMPDEST SWAP1 DUP2 MSTORE PUSH1 0x20 ADD PUSH1 0x40 MLOAD DUP1 SWAP2 SUB SWAP1 KECCAK256 PUSH1 0x0 DUP5 PUSH20 0xFFFFFFFFFFFFFFFFFFFFFFFFFFFFFFFFFFFFFFFF AND PUSH20 0xFFFFFFFFFFFFFFFFFFFFFFFFFFFFFFFFFFFFFFFF AND DUP2 MSTORE PUSH1 0x20 ADD SWAP1 DUP2 MSTORE PUSH1 0x20 ADD PUSH1 0x0 KECCAK256 PUSH1 0x5 ADD SWAP1 DUP2 PUSH2 0x1064 SWAP2 SWAP1 PUSH2 0x1FEF JUMP JUMPDEST POP PUSH1 0x1 SLOAD PUSH1 0xA DUP3 PUSH1 0x40 MLOAD PUSH2 0x1078 SWAP2 SWAP1 PUSH2 0x1957 JUMP JUMPDEST SWAP1 DUP2 MSTORE PUSH1 0x20 ADD PUSH1 0x40 MLOAD DUP1 SWAP2 SUB SWAP1 KECCAK256 PUSH1 0x0 DUP5 PUSH20 0xFFFFFFFFFFFFFFFFFFFFFFFFFFFFFFFFFFFFFFFF AND PUSH20 0xFFFFFFFFFFFFFFFFFFFFFFFFFFFFFFFFFFFFFFFF AND DUP2 MSTORE PUSH1 0x20 ADD SWAP1 DUP2 MSTORE PUSH1 0x20 ADD PUSH1 0x0 KECCAK256 PUSH1 0xA ADD DUP2 SWAP1 SSTORE POP DUP3 PUSH1 0x7 PUSH1 0x0 DUP5 PUSH20 0xFFFFFFFFFFFFFFFFFFFFFFFFFFFFFFFFFFFFFFFF AND PUSH20 0xFFFFFFFFFFFFFFFFFFFFFFFFFFFFFFFFFFFFFFFF AND DUP2 MSTORE PUSH1 0x20 ADD SWAP1 DUP2 MSTORE PUSH1 0x20 ADD PUSH1 0x0 KECCAK256 SLOAD PUSH2 0x1115 SWAP2 SWAP1 PUSH2 0x1BF7 JUMP JUMPDEST PUSH1 0x7 PUSH1 0x0 DUP5 PUSH20 0xFFFFFFFFFFFFFFFFFFFFFFFFFFFFFFFFFFFFFFFF AND PUSH20 0xFFFFFFFFFFFFFFFFFFFFFFFFFFFFFFFFFFFFFFFF AND DUP2 MSTORE PUSH1 0x20 ADD SWAP1 DUP2 MSTORE PUSH1 0x20 ADD PUSH1 0x0 KECCAK256 DUP2 SWAP1 SSTORE POP POP POP POP JUMP JUMPDEST PUSH2 0x11DE DUP4 PUSH4 0xA9059CBB PUSH1 0xE0 SHL DUP5 DUP5 PUSH1 0x40 MLOAD PUSH1 0x24 ADD PUSH2 0x117C SWAP3 SWAP2 SWAP1 PUSH2 0x20C1 JUMP JUMPDEST PUSH1 0x40 MLOAD PUSH1 0x20 DUP2 DUP4 SUB SUB DUP2 MSTORE SWAP1 PUSH1 0x40 MSTORE SWAP1 PUSH28 0xFFFFFFFFFFFFFFFFFFFFFFFFFFFFFFFFFFFFFFFFFFFFFFFFFFFFFFFF NOT AND PUSH1 0x20 DUP3 ADD DUP1 MLOAD PUSH28 0xFFFFFFFFFFFFFFFFFFFFFFFFFFFFFFFFFFFFFFFFFFFFFFFFFFFFFFFF DUP4 DUP2 DUP4 AND OR DUP4 MSTORE POP POP POP POP PUSH2 0x11E3 JUMP JUMPDEST POP POP POP JUMP JUMPDEST PUSH1 0x0 PUSH2 0x1245 DUP3 PUSH1 0x40 MLOAD DUP1 PUSH1 0x40 ADD PUSH1 0x40 MSTORE DUP1 PUSH1 0x20 DUP2 MSTORE PUSH1 0x20 ADD PUSH32 0x5361666545524332303A206C6F772D6C6576656C2063616C6C206661696C6564 DUP2 MSTORE POP DUP6 PUSH20 0xFFFFFFFFFFFFFFFFFFFFFFFFFFFFFFFFFFFFFFFF AND PUSH2 0x12AA SWAP1 SWAP3 SWAP2 SWAP1 PUSH4 0xFFFFFFFF AND JUMP JUMPDEST SWAP1 POP PUSH1 0x0 DUP2 MLOAD GT ISZERO PUSH2 0x12A5 JUMPI DUP1 DUP1 PUSH1 0x20 ADD SWAP1 MLOAD DUP2 ADD SWAP1 PUSH2 0x1265 SWAP2 SWAP1 PUSH2 0x2122 JUMP JUMPDEST PUSH2 0x12A4 JUMPI PUSH1 0x40 MLOAD PUSH32 0x8C379A000000000000000000000000000000000000000000000000000000000 DUP2 MSTORE PUSH1 0x4 ADD PUSH2 0x129B SWAP1 PUSH2 0x21C1 JUMP JUMPDEST PUSH1 0x40 MLOAD DUP1 SWAP2 SUB SWAP1 REVERT JUMPDEST JUMPDEST POP POP POP JUMP JUMPDEST PUSH1 0x60 PUSH2 0x12B9 DUP5 DUP5 PUSH1 0x0 DUP6 PUSH2 0x12C2 JUMP JUMPDEST SWAP1 POP SWAP4 SWAP3 POP POP POP JUMP JUMPDEST PUSH1 0x60 DUP3 SELFBALANCE LT ISZERO PUSH2 0x1307 JUMPI PUSH1 0x40 MLOAD PUSH32 0x8C379A000000000000000000000000000000000000000000000000000000000 DUP2 MSTORE PUSH1 0x4 ADD PUSH2 0x12FE SWAP1 PUSH2 0x2253 JUMP JUMPDEST PUSH1 0x40 MLOAD DUP1 SWAP2 SUB SWAP1 REVERT JUMPDEST PUSH2 0x1310 DUP6 PUSH2 0x13D6 JUMP JUMPDEST PUSH2 0x134F JUMPI PUSH1 0x40 MLOAD PUSH32 0x8C379A000000000000000000000000000000000000000000000000000000000 DUP2 MSTORE PUSH1 0x4 ADD PUSH2 0x1346 SWAP1 PUSH2 0x22BF JUMP JUMPDEST PUSH1 0x40 MLOAD DUP1 SWAP2 SUB SWAP1 REVERT JUMPDEST PUSH1 0x0 DUP1 DUP7 PUSH20 0xFFFFFFFFFFFFFFFFFFFFFFFFFFFFFFFFFFFFFFFF AND DUP6 DUP8 PUSH1 0x40 MLOAD PUSH2 0x1378 SWAP2 SWAP1 PUSH2 0x2326 JUMP JUMPDEST PUSH1 0x0 PUSH1 0x40 MLOAD DUP1 DUP4 SUB DUP2 DUP6 DUP8 GAS CALL SWAP3 POP POP POP RETURNDATASIZE DUP1 PUSH1 0x0 DUP2 EQ PUSH2 0x13B5 JUMPI PUSH1 0x40 MLOAD SWAP2 POP PUSH1 0x1F NOT PUSH1 0x3F RETURNDATASIZE ADD AND DUP3 ADD PUSH1 0x40 MSTORE RETURNDATASIZE DUP3 MSTORE RETURNDATASIZE PUSH1 0x0 PUSH1 0x20 DUP5 ADD RETURNDATACOPY PUSH2 0x13BA JUMP JUMPDEST PUSH1 0x60 SWAP2 POP JUMPDEST POP SWAP2 POP SWAP2 POP PUSH2 0x13CA DUP3 DUP3 DUP7 PUSH2 0x13F9 JUMP JUMPDEST SWAP3 POP POP POP SWAP5 SWAP4 POP POP POP POP JUMP JUMPDEST PUSH1 0x0 DUP1 DUP3 PUSH20 0xFFFFFFFFFFFFFFFFFFFFFFFFFFFFFFFFFFFFFFFF AND EXTCODESIZE GT SWAP1 POP SWAP2 SWAP1 POP JUMP JUMPDEST PUSH1 0x60 DUP4 ISZERO PUSH2 0x1409 JUMPI DUP3 SWAP1 POP PUSH2 0x1459 JUMP JUMPDEST PUSH1 0x0 DUP4 MLOAD GT ISZERO PUSH2 0x141C JUMPI DUP3 MLOAD DUP1 DUP5 PUSH1 0x20 ADD REVERT JUMPDEST DUP2 PUSH1 0x40 MLOAD PUSH32 0x8C379A000000000000000000000000000000000000000000000000000000000 DUP2 MSTORE PUSH1 0x4 ADD PUSH2 0x1450 SWAP2 SWAP1 PUSH2 0x2376 JUMP JUMPDEST PUSH1 0x40 MLOAD DUP1 SWAP2 SUB SWAP1 REVERT JUMPDEST SWAP4 SWAP3 POP POP POP JUMP JUMPDEST PUSH1 0x0 PUSH1 0x40 MLOAD SWAP1 POP SWAP1 JUMP JUMPDEST PUSH1 0x0 DUP1 REVERT JUMPDEST PUSH1 0x0 DUP1 REVERT JUMPDEST PUSH1 0x0 PUSH20 0xFFFFFFFFFFFFFFFFFFFFFFFFFFFFFFFFFFFFFFFF DUP3 AND SWAP1 POP SWAP2 SWAP1 POP JUMP JUMPDEST PUSH1 0x0 PUSH2 0x149F DUP3 PUSH2 0x1474 JUMP JUMPDEST SWAP1 POP SWAP2 SWAP1 POP JUMP JUMPDEST PUSH2 0x14AF DUP2 PUSH2 0x1494 JUMP JUMPDEST DUP2 EQ PUSH2 0x14BA JUMPI PUSH1 0x0 DUP1 REVERT JUMPDEST POP JUMP JUMPDEST PUSH1 0x0 DUP2 CALLDATALOAD SWAP1 POP PUSH2 0x14CC DUP2 PUSH2 0x14A6 JUMP JUMPDEST SWAP3 SWAP2 POP POP JUMP JUMPDEST PUSH1 0x0 PUSH1 0x20 DUP3 DUP5 SUB SLT ISZERO PUSH2 0x14E8 JUMPI PUSH2 0x14E7 PUSH2 0x146A JUMP JUMPDEST JUMPDEST PUSH1 0x0 PUSH2 0x14F6 DUP5 DUP3 DUP6 ADD PUSH2 0x14BD JUMP JUMPDEST SWAP2 POP POP SWAP3 SWAP2 POP POP JUMP JUMPDEST PUSH1 0x0 DUP2 SWAP1 POP SWAP2 SWAP1 POP JUMP JUMPDEST PUSH2 0x1512 DUP2 PUSH2 0x14FF JUMP JUMPDEST DUP3 MSTORE POP POP JUMP JUMPDEST PUSH1 0x0 PUSH1 0x20 DUP3 ADD SWAP1 POP PUSH2 0x152D PUSH1 0x0 DUP4 ADD DUP5 PUSH2 0x1509 JUMP JUMPDEST SWAP3 SWAP2 POP POP JUMP JUMPDEST PUSH2 0x153C DUP2 PUSH2 0x1494 JUMP JUMPDEST DUP3 MSTORE POP POP JUMP JUMPDEST PUSH1 0x0 PUSH1 0x20 DUP3 ADD SWAP1 POP PUSH2 0x1557 PUSH1 0x0 DUP4 ADD DUP5 PUSH2 0x1533 JUMP JUMPDEST SWAP3 SWAP2 POP POP JUMP JUMPDEST PUSH1 0x0 DUP1 REVERT JUMPDEST PUSH1 0x0 DUP1 REVERT JUMPDEST PUSH1 0x0 PUSH1 0x1F NOT PUSH1 0x1F DUP4 ADD AND SWAP1 POP SWAP2 SWAP1 POP JUMP JUMPDEST PUSH32 0x4E487B7100000000000000000000000000000000000000000000000000000000 PUSH1 0x0 MSTORE PUSH1 0x41 PUSH1 0x4 MSTORE PUSH1 0x24 PUSH1 0x0 REVERT JUMPDEST PUSH2 0x15B0 DUP3 PUSH2 0x1567 JUMP JUMPDEST DUP2 ADD DUP2 DUP2 LT PUSH8 0xFFFFFFFFFFFFFFFF DUP3 GT OR ISZERO PUSH2 0x15CF JUMPI PUSH2 0x15CE PUSH2 0x1578 JUMP JUMPDEST JUMPDEST DUP1 PUSH1 0x40 MSTORE POP POP POP JUMP JUMPDEST PUSH1 0x0 PUSH2 0x15E2 PUSH2 0x1460 JUMP JUMPDEST SWAP1 POP PUSH2 0x15EE DUP3 DUP3 PUSH2 0x15A7 JUMP JUMPDEST SWAP2 SWAP1 POP JUMP JUMPDEST PUSH1 0x0 PUSH8 0xFFFFFFFFFFFFFFFF DUP3 GT ISZERO PUSH2 0x160E JUMPI PUSH2 0x160D PUSH2 0x1578 JUMP JUMPDEST JUMPDEST PUSH2 0x1617 DUP3 PUSH2 0x1567 JUMP JUMPDEST SWAP1 POP PUSH1 0x20 DUP2 ADD SWAP1 POP SWAP2 SWAP1 POP JUMP JUMPDEST DUP3 DUP2 DUP4 CALLDATACOPY PUSH1 0x0 DUP4 DUP4 ADD MSTORE POP POP POP JUMP JUMPDEST PUSH1 0x0 PUSH2 0x1646 PUSH2 0x1641 DUP5 PUSH2 0x15F3 JUMP JUMPDEST PUSH2 0x15D8 JUMP JUMPDEST SWAP1 POP DUP3 DUP2 MSTORE PUSH1 0x20 DUP2 ADD DUP5 DUP5 DUP5 ADD GT ISZERO PUSH2 0x1662 JUMPI PUSH2 0x1661 PUSH2 0x1562 JUMP JUMPDEST JUMPDEST PUSH2 0x166D DUP5 DUP3 DUP6 PUSH2 0x1624 JUMP JUMPDEST POP SWAP4 SWAP3 POP POP POP JUMP JUMPDEST PUSH1 0x0 DUP3 PUSH1 0x1F DUP4 ADD SLT PUSH2 0x168A JUMPI PUSH2 0x1689 PUSH2 0x155D JUMP JUMPDEST JUMPDEST DUP2 CALLDATALOAD PUSH2 0x169A DUP5 DUP3 PUSH1 0x20 DUP7 ADD PUSH2 0x1633 JUMP JUMPDEST SWAP2 POP POP SWAP3 SWAP2 POP POP JUMP JUMPDEST PUSH1 0x0 PUSH1 0x20 DUP3 DUP5 SUB SLT ISZERO PUSH2 0x16B9 JUMPI PUSH2 0x16B8 PUSH2 0x146A JUMP JUMPDEST JUMPDEST PUSH1 0x0 DUP3 ADD CALLDATALOAD PUSH8 0xFFFFFFFFFFFFFFFF DUP2 GT ISZERO PUSH2 0x16D7 JUMPI PUSH2 0x16D6 PUSH2 0x146F JUMP JUMPDEST JUMPDEST PUSH2 0x16E3 DUP5 DUP3 DUP6 ADD PUSH2 0x1675 JUMP JUMPDEST SWAP2 POP POP SWAP3 SWAP2 POP POP JUMP JUMPDEST PUSH1 0x0 DUP2 SWAP1 POP SWAP2 SWAP1 POP JUMP JUMPDEST PUSH1 0x0 PUSH2 0x1711 PUSH2 0x170C PUSH2 0x1707 DUP5 PUSH2 0x1474 JUMP JUMPDEST PUSH2 0x16EC JUMP JUMPDEST PUSH2 0x1474 JUMP JUMPDEST SWAP1 POP SWAP2 SWAP1 POP JUMP JUMPDEST PUSH1 0x0 PUSH2 0x1723 DUP3 PUSH2 0x16F6 JUMP JUMPDEST SWAP1 POP SWAP2 SWAP1 POP JUMP JUMPDEST PUSH1 0x0 PUSH2 0x1735 DUP3 PUSH2 0x1718 JUMP JUMPDEST SWAP1 POP SWAP2 SWAP1 POP JUMP JUMPDEST PUSH2 0x1745 DUP2 PUSH2 0x172A JUMP JUMPDEST DUP3 MSTORE POP POP JUMP JUMPDEST PUSH1 0x0 PUSH1 0x20 DUP3 ADD SWAP1 POP PUSH2 0x1760 PUSH1 0x0 DUP4 ADD DUP5 PUSH2 0x173C JUMP JUMPDEST SWAP3 SWAP2 POP POP JUMP JUMPDEST PUSH2 0x176F DUP2 PUSH2 0x14FF JUMP JUMPDEST DUP2 EQ PUSH2 0x177A JUMPI PUSH1 0x0 DUP1 REVERT JUMPDEST POP JUMP JUMPDEST PUSH1 0x0 DUP2 CALLDATALOAD SWAP1 POP PUSH2 0x178C DUP2 PUSH2 0x1766 JUMP JUMPDEST SWAP3 SWAP2 POP POP JUMP JUMPDEST PUSH1 0x0 DUP1 PUSH1 0x0 PUSH1 0x60 DUP5 DUP7 SUB SLT ISZERO PUSH2 0x17AB JUMPI PUSH2 0x17AA PUSH2 0x146A JUMP JUMPDEST JUMPDEST PUSH1 0x0 PUSH2 0x17B9 DUP7 DUP3 DUP8 ADD PUSH2 0x177D JUMP JUMPDEST SWAP4 POP POP PUSH1 0x20 PUSH2 0x17CA DUP7 DUP3 DUP8 ADD PUSH2 0x14BD JUMP JUMPDEST SWAP3 POP POP PUSH1 0x40 DUP5 ADD CALLDATALOAD PUSH8 0xFFFFFFFFFFFFFFFF DUP2 GT ISZERO PUSH2 0x17EB JUMPI PUSH2 0x17EA PUSH2 0x146F JUMP JUMPDEST JUMPDEST PUSH2 0x17F7 DUP7 DUP3 DUP8 ADD PUSH2 0x1675 JUMP JUMPDEST SWAP2 POP POP SWAP3 POP SWAP3 POP SWAP3 JUMP JUMPDEST PUSH1 0x0 DUP2 MLOAD SWAP1 POP PUSH2 0x1810 DUP2 PUSH2 0x1766 JUMP JUMPDEST SWAP3 SWAP2 POP POP JUMP JUMPDEST PUSH1 0x0 PUSH1 0x20 DUP3 DUP5 SUB SLT ISZERO PUSH2 0x182C JUMPI PUSH2 0x182B PUSH2 0x146A JUMP JUMPDEST JUMPDEST PUSH1 0x0 PUSH2 0x183A DUP5 DUP3 DUP6 ADD PUSH2 0x1801 JUMP JUMPDEST SWAP2 POP POP SWAP3 SWAP2 POP POP JUMP JUMPDEST PUSH1 0x0 DUP3 DUP3 MSTORE PUSH1 0x20 DUP3 ADD SWAP1 POP SWAP3 SWAP2 POP POP JUMP JUMPDEST PUSH32 0x5468657265206973206E6F20617661696C61626C65206C696D697420746F2063 PUSH1 0x0 DUP3 ADD MSTORE PUSH32 0x6C61696D21000000000000000000000000000000000000000000000000000000 PUSH1 0x20 DUP3 ADD MSTORE POP JUMP JUMPDEST PUSH1 0x0 PUSH2 0x18B0 PUSH1 0x25 DUP4 PUSH2 0x1843 JUMP JUMPDEST SWAP2 POP PUSH2 0x18BB DUP3 PUSH2 0x1854 JUMP JUMPDEST PUSH1 0x40 DUP3 ADD SWAP1 POP SWAP2 SWAP1 POP JUMP JUMPDEST PUSH1 0x0 PUSH1 0x20 DUP3 ADD SWAP1 POP DUP2 DUP2 SUB PUSH1 0x0 DUP4 ADD MSTORE PUSH2 0x18DF DUP2 PUSH2 0x18A3 JUMP JUMPDEST SWAP1 POP SWAP2 SWAP1 POP JUMP JUMPDEST PUSH1 0x0 DUP2 MLOAD SWAP1 POP SWAP2 SWAP1 POP JUMP JUMPDEST PUSH1 0x0 DUP2 SWAP1 POP SWAP3 SWAP2 POP POP JUMP JUMPDEST PUSH1 0x0 JUMPDEST DUP4 DUP2 LT ISZERO PUSH2 0x191A JUMPI DUP1 DUP3 ADD MLOAD DUP2 DUP5 ADD MSTORE PUSH1 0x20 DUP2 ADD SWAP1 POP PUSH2 0x18FF JUMP JUMPDEST PUSH1 0x0 DUP5 DUP5 ADD MSTORE POP POP POP POP JUMP JUMPDEST PUSH1 0x0 PUSH2 0x1931 DUP3 PUSH2 0x18E6 JUMP JUMPDEST PUSH2 0x193B DUP2 DUP6 PUSH2 0x18F1 JUMP JUMPDEST SWAP4 POP PUSH2 0x194B DUP2 DUP6 PUSH1 0x20 DUP7 ADD PUSH2 0x18FC JUMP JUMPDEST DUP1 DUP5 ADD SWAP2 POP POP SWAP3 SWAP2 POP POP JUMP JUMPDEST PUSH1 0x0 PUSH2 0x1963 DUP3 DUP5 PUSH2 0x1926 JUMP JUMPDEST SWAP2 POP DUP2 SWAP1 POP SWAP3 SWAP2 POP POP JUMP JUMPDEST PUSH32 0x5468657265206973206E6F20617661696C61626C65206C696D697420746F2063 PUSH1 0x0 DUP3 ADD MSTORE PUSH32 0x6C61696D21210000000000000000000000000000000000000000000000000000 PUSH1 0x20 DUP3 ADD MSTORE POP JUMP JUMPDEST PUSH1 0x0 PUSH2 0x19CA PUSH1 0x26 DUP4 PUSH2 0x1843 JUMP JUMPDEST SWAP2 POP PUSH2 0x19D5 DUP3 PUSH2 0x196E JUMP JUMPDEST PUSH1 0x40 DUP3 ADD SWAP1 POP SWAP2 SWAP1 POP JUMP JUMPDEST PUSH1 0x0 PUSH1 0x20 DUP3 ADD SWAP1 POP DUP2 DUP2 SUB PUSH1 0x0 DUP4 ADD MSTORE PUSH2 0x19F9 DUP2 PUSH2 0x19BD JUMP JUMPDEST SWAP1 POP SWAP2 SWAP1 POP JUMP JUMPDEST PUSH32 0x4E487B7100000000000000000000000000000000000000000000000000000000 PUSH1 0x0 MSTORE PUSH1 0x22 PUSH1 0x4 MSTORE PUSH1 0x24 PUSH1 0x0 REVERT JUMPDEST PUSH1 0x0 PUSH1 0x2 DUP3 DIV SWAP1 POP PUSH1 0x1 DUP3 AND DUP1 PUSH2 0x1A47 JUMPI PUSH1 0x7F DUP3 AND SWAP2 POP JUMPDEST PUSH1 0x20 DUP3 LT DUP2 SUB PUSH2 0x1A5A JUMPI PUSH2 0x1A59 PUSH2 0x1A00 JUMP JUMPDEST JUMPDEST POP SWAP2 SWAP1 POP JUMP JUMPDEST PUSH32 0x4E487B7100000000000000000000000000000000000000000000000000000000 PUSH1 0x0 MSTORE PUSH1 0x11 PUSH1 0x4 MSTORE PUSH1 0x24 PUSH1 0x0 REVERT JUMPDEST PUSH1 0x0 PUSH2 0x1A9A DUP3 PUSH2 0x14FF JUMP JUMPDEST SWAP2 POP PUSH2 0x1AA5 DUP4 PUSH2 0x14FF JUMP JUMPDEST SWAP3 POP DUP3 DUP3 SUB SWAP1 POP DUP2 DUP2 GT ISZERO PUSH2 0x1ABD JUMPI PUSH2 0x1ABC PUSH2 0x1A60 JUMP JUMPDEST JUMPDEST SWAP3 SWAP2 POP POP JUMP JUMPDEST PUSH32 0x4E487B7100000000000000000000000000000000000000000000000000000000 PUSH1 0x0 MSTORE PUSH1 0x12 PUSH1 0x4 MSTORE PUSH1 0x24 PUSH1 0x0 REVERT JUMPDEST PUSH1 0x0 PUSH2 0x1AFD DUP3 PUSH2 0x14FF JUMP JUMPDEST SWAP2 POP PUSH2 0x1B08 DUP4 PUSH2 0x14FF JUMP JUMPDEST SWAP3 POP DUP3 PUSH2 0x1B18 JUMPI PUSH2 0x1B17 PUSH2 0x1AC3 JUMP JUMPDEST JUMPDEST DUP3 DUP3 DIV SWAP1 POP SWAP3 SWAP2 POP POP JUMP JUMPDEST PUSH1 0x0 PUSH2 0x1B2E DUP3 PUSH2 0x14FF JUMP JUMPDEST SWAP2 POP PUSH2 0x1B39 DUP4 PUSH2 0x14FF JUMP JUMPDEST SWAP3 POP DUP3 DUP3 MUL PUSH2 0x1B47 DUP2 PUSH2 0x14FF JUMP JUMPDEST SWAP2 POP DUP3 DUP3 DIV DUP5 EQ DUP4 ISZERO OR PUSH2 0x1B5E JUMPI PUSH2 0x1B5D PUSH2 0x1A60 JUMP JUMPDEST JUMPDEST POP SWAP3 SWAP2 POP POP JUMP JUMPDEST PUSH32 0x54686572652069732063757272656E746C79206E6F20636C61696D2061766169 PUSH1 0x0 DUP3 ADD MSTORE PUSH32 0x6C61626C65000000000000000000000000000000000000000000000000000000 PUSH1 0x20 DUP3 ADD MSTORE POP JUMP JUMPDEST PUSH1 0x0 PUSH2 0x1BC1 PUSH1 0x25 DUP4 PUSH2 0x1843 JUMP JUMPDEST SWAP2 POP PUSH2 0x1BCC DUP3 PUSH2 0x1B65 JUMP JUMPDEST PUSH1 0x40 DUP3 ADD SWAP1 POP SWAP2 SWAP1 POP JUMP JUMPDEST PUSH1 0x0 PUSH1 0x20 DUP3 ADD SWAP1 POP DUP2 DUP2 SUB PUSH1 0x0 DUP4 ADD MSTORE PUSH2 0x1BF0 DUP2 PUSH2 0x1BB4 JUMP JUMPDEST SWAP1 POP SWAP2 SWAP1 POP JUMP JUMPDEST PUSH1 0x0 PUSH2 0x1C02 DUP3 PUSH2 0x14FF JUMP JUMPDEST SWAP2 POP PUSH2 0x1C0D DUP4 PUSH2 0x14FF JUMP JUMPDEST SWAP3 POP DUP3 DUP3 ADD SWAP1 POP DUP1 DUP3 GT ISZERO PUSH2 0x1C25 JUMPI PUSH2 0x1C24 PUSH2 0x1A60 JUMP JUMPDEST JUMPDEST SWAP3 SWAP2 POP POP JUMP JUMPDEST PUSH32 0x546865206E756D626572206F66206C6F636B65642077617265686F7573657320 PUSH1 0x0 DUP3 ADD MSTORE PUSH32 0x6E6565647320746F2062652067726561746572207468616E2030000000000000 PUSH1 0x20 DUP3 ADD MSTORE POP JUMP JUMPDEST PUSH1 0x0 PUSH2 0x1C87 PUSH1 0x3A DUP4 PUSH2 0x1843 JUMP JUMPDEST SWAP2 POP PUSH2 0x1C92 DUP3 PUSH2 0x1C2B JUMP JUMPDEST PUSH1 0x40 DUP3 ADD SWAP1 POP SWAP2 SWAP1 POP JUMP JUMPDEST PUSH1 0x0 PUSH1 0x20 DUP3 ADD SWAP1 POP DUP2 DUP2 SUB PUSH1 0x0 DUP4 ADD MSTORE PUSH2 0x1CB6 DUP2 PUSH2 0x1C7A JUMP JUMPDEST SWAP1 POP SWAP2 SWAP1 POP JUMP JUMPDEST PUSH32 0x496E636F72726563742075736572206164647265737300000000000000000000 PUSH1 0x0 DUP3 ADD MSTORE POP JUMP JUMPDEST PUSH1 0x0 PUSH2 0x1CF3 PUSH1 0x16 DUP4 PUSH2 0x1843 JUMP JUMPDEST SWAP2 POP PUSH2 0x1CFE DUP3 PUSH2 0x1CBD JUMP JUMPDEST PUSH1 0x20 DUP3 ADD SWAP1 POP SWAP2 SWAP1 POP JUMP JUMPDEST PUSH1 0x0 PUSH1 0x20 DUP3 ADD SWAP1 POP DUP2 DUP2 SUB PUSH1 0x0 DUP4 ADD MSTORE PUSH2 0x1D22 DUP2 PUSH2 0x1CE6 JUMP JUMPDEST SWAP1 POP SWAP2 SWAP1 POP JUMP JUMPDEST PUSH32 0x52656C65617365206379636C65206E6565647320746F20626520677265617465 PUSH1 0x0 DUP3 ADD MSTORE PUSH32 0x72207468616E2030000000000000000000000000000000000000000000000000 PUSH1 0x20 DUP3 ADD MSTORE POP JUMP JUMPDEST PUSH1 0x0 PUSH2 0x1D85 PUSH1 0x28 DUP4 PUSH2 0x1843 JUMP JUMPDEST SWAP2 POP PUSH2 0x1D90 DUP3 PUSH2 0x1D29 JUMP JUMPDEST PUSH1 0x40 DUP3 ADD SWAP1 POP SWAP2 SWAP1 POP JUMP JUMPDEST PUSH1 0x0 PUSH1 0x20 DUP3 ADD SWAP1 POP DUP2 DUP2 SUB PUSH1 0x0 DUP4 ADD MSTORE PUSH2 0x1DB4 DUP2 PUSH2 0x1D78 JUMP JUMPDEST SWAP1 POP SWAP2 SWAP1 POP JUMP JUMPDEST PUSH32 0x54686520746F74616C206C6F636B206475726174696F6E206E6565647320746F PUSH1 0x0 DUP3 ADD MSTORE PUSH32 0x2062652067726561746572207468616E20300000000000000000000000000000 PUSH1 0x20 DUP3 ADD MSTORE POP JUMP JUMPDEST PUSH1 0x0 PUSH2 0x1E17 PUSH1 0x32 DUP4 PUSH2 0x1843 JUMP JUMPDEST SWAP2 POP PUSH2 0x1E22 DUP3 PUSH2 0x1DBB JUMP JUMPDEST PUSH1 0x40 DUP3 ADD SWAP1 POP SWAP2 SWAP1 POP JUMP JUMPDEST PUSH1 0x0 PUSH1 0x20 DUP3 ADD SWAP1 POP DUP2 DUP2 SUB PUSH1 0x0 DUP4 ADD MSTORE PUSH2 0x1E46 DUP2 PUSH2 0x1E0A JUMP JUMPDEST SWAP1 POP SWAP2 SWAP1 POP JUMP JUMPDEST PUSH1 0x0 DUP2 SWAP1 POP DUP2 PUSH1 0x0 MSTORE PUSH1 0x20 PUSH1 0x0 KECCAK256 SWAP1 POP SWAP2 SWAP1 POP JUMP JUMPDEST PUSH1 0x0 PUSH1 0x20 PUSH1 0x1F DUP4 ADD DIV SWAP1 POP SWAP2 SWAP1 POP JUMP JUMPDEST PUSH1 0x0 DUP3 DUP3 SHL SWAP1 POP SWAP3 SWAP2 POP POP JUMP JUMPDEST PUSH1 0x0 PUSH1 0x8 DUP4 MUL PUSH2 0x1EAF PUSH32 0xFFFFFFFFFFFFFFFFFFFFFFFFFFFFFFFFFFFFFFFFFFFFFFFFFFFFFFFFFFFFFFFF DUP3 PUSH2 0x1E72 JUMP JUMPDEST PUSH2 0x1EB9 DUP7 DUP4 PUSH2 0x1E72 JUMP JUMPDEST SWAP6 POP DUP1 NOT DUP5 AND SWAP4 POP DUP1 DUP7 AND DUP5 OR SWAP3 POP POP POP SWAP4 SWAP3 POP POP POP JUMP JUMPDEST PUSH1 0x0 PUSH2 0x1EEC PUSH2 0x1EE7 PUSH2 0x1EE2 DUP5 PUSH2 0x14FF JUMP JUMPDEST PUSH2 0x16EC JUMP JUMPDEST PUSH2 0x14FF JUMP JUMPDEST SWAP1 POP SWAP2 SWAP1 POP JUMP JUMPDEST PUSH1 0x0 DUP2 SWAP1 POP SWAP2 SWAP1 POP JUMP JUMPDEST PUSH2 0x1F06 DUP4 PUSH2 0x1ED1 JUMP JUMPDEST PUSH2 0x1F1A PUSH2 0x1F12 DUP3 PUSH2 0x1EF3 JUMP JUMPDEST DUP5 DUP5 SLOAD PUSH2 0x1E7F JUMP JUMPDEST DUP3 SSTORE POP POP POP POP JUMP JUMPDEST PUSH1 0x0 SWAP1 JUMP JUMPDEST PUSH2 0x1F2F PUSH2 0x1F22 JUMP JUMPDEST PUSH2 0x1F3A DUP2 DUP5 DUP5 PUSH2 0x1EFD JUMP JUMPDEST POP POP POP JUMP JUMPDEST JUMPDEST DUP2 DUP2 LT ISZERO PUSH2 0x1F5E JUMPI PUSH2 0x1F53 PUSH1 0x0 DUP3 PUSH2 0x1F27 JUMP JUMPDEST PUSH1 0x1 DUP2 ADD SWAP1 POP PUSH2 0x1F40 JUMP JUMPDEST POP POP JUMP JUMPDEST PUSH1 0x1F DUP3 GT ISZERO PUSH2 0x1FA3 JUMPI PUSH2 0x1F74 DUP2 PUSH2 0x1E4D JUMP JUMPDEST PUSH2 0x1F7D DUP5 PUSH2 0x1E62 JUMP JUMPDEST DUP2 ADD PUSH1 0x20 DUP6 LT ISZERO PUSH2 0x1F8C JUMPI DUP2 SWAP1 POP JUMPDEST PUSH2 0x1FA0 PUSH2 0x1F98 DUP6 PUSH2 0x1E62 JUMP JUMPDEST DUP4 ADD DUP3 PUSH2 0x1F3F JUMP JUMPDEST POP POP JUMPDEST POP POP POP JUMP JUMPDEST PUSH1 0x0 DUP3 DUP3 SHR SWAP1 POP SWAP3 SWAP2 POP POP JUMP JUMPDEST PUSH1 0x0 PUSH2 0x1FC6 PUSH1 0x0 NOT DUP5 PUSH1 0x8 MUL PUSH2 0x1FA8 JUMP JUMPDEST NOT DUP1 DUP4 AND SWAP2 POP POP SWAP3 SWAP2 POP POP JUMP JUMPDEST PUSH1 0x0 PUSH2 0x1FDF DUP4 DUP4 PUSH2 0x1FB5 JUMP JUMPDEST SWAP2 POP DUP3 PUSH1 0x2 MUL DUP3 OR SWAP1 POP SWAP3 SWAP2 POP POP JUMP JUMPDEST PUSH2 0x1FF8 DUP3 PUSH2 0x18E6 JUMP JUMPDEST PUSH8 0xFFFFFFFFFFFFFFFF DUP2 GT ISZERO PUSH2 0x2011 JUMPI PUSH2 0x2010 PUSH2 0x1578 JUMP JUMPDEST JUMPDEST PUSH2 0x201B DUP3 SLOAD PUSH2 0x1A2F JUMP JUMPDEST PUSH2 0x2026 DUP3 DUP3 DUP6 PUSH2 0x1F62 JUMP JUMPDEST PUSH1 0x0 PUSH1 0x20 SWAP1 POP PUSH1 0x1F DUP4 GT PUSH1 0x1 DUP2 EQ PUSH2 0x2059 JUMPI PUSH1 0x0 DUP5 ISZERO PUSH2 0x2047 JUMPI DUP3 DUP8 ADD MLOAD SWAP1 POP JUMPDEST PUSH2 0x2051 DUP6 DUP3 PUSH2 0x1FD3 JUMP JUMPDEST DUP7 SSTORE POP PUSH2 0x20B9 JUMP JUMPDEST PUSH1 0x1F NOT DUP5 AND PUSH2 0x2067 DUP7 PUSH2 0x1E4D JUMP JUMPDEST PUSH1 0x0 JUMPDEST DUP3 DUP2 LT ISZERO PUSH2 0x208F JUMPI DUP5 DUP10 ADD MLOAD DUP3 SSTORE PUSH1 0x1 DUP3 ADD SWAP2 POP PUSH1 0x20 DUP6 ADD SWAP5 POP PUSH1 0x20 DUP2 ADD SWAP1 POP PUSH2 0x206A JUMP JUMPDEST DUP7 DUP4 LT ISZERO PUSH2 0x20AC JUMPI DUP5 DUP10 ADD MLOAD PUSH2 0x20A8 PUSH1 0x1F DUP10 AND DUP3 PUSH2 0x1FB5 JUMP JUMPDEST DUP4 SSTORE POP JUMPDEST PUSH1 0x1 PUSH1 0x2 DUP9 MUL ADD DUP9 SSTORE POP POP POP JUMPDEST POP POP POP POP POP POP JUMP JUMPDEST PUSH1 0x0 PUSH1 0x40 DUP3 ADD SWAP1 POP PUSH2 0x20D6 PUSH1 0x0 DUP4 ADD DUP6 PUSH2 0x1533 JUMP JUMPDEST PUSH2 0x20E3 PUSH1 0x20 DUP4 ADD DUP5 PUSH2 0x1509 JUMP JUMPDEST SWAP4 SWAP3 POP POP POP JUMP JUMPDEST PUSH1 0x0 DUP2 ISZERO ISZERO SWAP1 POP SWAP2 SWAP1 POP JUMP JUMPDEST PUSH2 0x20FF DUP2 PUSH2 0x20EA JUMP JUMPDEST DUP2 EQ PUSH2 0x210A JUMPI PUSH1 0x0 DUP1 REVERT JUMPDEST POP JUMP JUMPDEST PUSH1 0x0 DUP2 MLOAD SWAP1 POP PUSH2 0x211C DUP2 PUSH2 0x20F6 JUMP JUMPDEST SWAP3 SWAP2 POP POP JUMP JUMPDEST PUSH1 0x0 PUSH1 0x20 DUP3 DUP5 SUB SLT ISZERO PUSH2 0x2138 JUMPI PUSH2 0x2137 PUSH2 0x146A JUMP JUMPDEST JUMPDEST PUSH1 0x0 PUSH2 0x2146 DUP5 DUP3 DUP6 ADD PUSH2 0x210D JUMP JUMPDEST SWAP2 POP POP SWAP3 SWAP2 POP POP JUMP JUMPDEST PUSH32 0x5361666545524332303A204552433230206F7065726174696F6E20646964206E PUSH1 0x0 DUP3 ADD MSTORE PUSH32 0x6F74207375636365656400000000000000000000000000000000000000000000 PUSH1 0x20 DUP3 ADD MSTORE POP JUMP JUMPDEST PUSH1 0x0 PUSH2 0x21AB PUSH1 0x2A DUP4 PUSH2 0x1843 JUMP JUMPDEST SWAP2 POP PUSH2 0x21B6 DUP3 PUSH2 0x214F JUMP JUMPDEST PUSH1 0x40 DUP3 ADD SWAP1 POP SWAP2 SWAP1 POP JUMP JUMPDEST PUSH1 0x0 PUSH1 0x20 DUP3 ADD SWAP1 POP DUP2 DUP2 SUB PUSH1 0x0 DUP4 ADD MSTORE PUSH2 0x21DA DUP2 PUSH2 0x219E JUMP JUMPDEST SWAP1 POP SWAP2 SWAP1 POP JUMP JUMPDEST PUSH32 0x416464726573733A20696E73756666696369656E742062616C616E636520666F PUSH1 0x0 DUP3 ADD MSTORE PUSH32 0x722063616C6C0000000000000000000000000000000000000000000000000000 PUSH1 0x20 DUP3 ADD MSTORE POP JUMP JUMPDEST PUSH1 0x0 PUSH2 0x223D PUSH1 0x26 DUP4 PUSH2 0x1843 JUMP JUMPDEST SWAP2 POP PUSH2 0x2248 DUP3 PUSH2 0x21E1 JUMP JUMPDEST PUSH1 0x40 DUP3 ADD SWAP1 POP SWAP2 SWAP1 POP JUMP JUMPDEST PUSH1 0x0 PUSH1 0x20 DUP3 ADD SWAP1 POP DUP2 DUP2 SUB PUSH1 0x0 DUP4 ADD MSTORE PUSH2 0x226C DUP2 PUSH2 0x2230 JUMP JUMPDEST SWAP1 POP SWAP2 SWAP1 POP JUMP JUMPDEST PUSH32 0x416464726573733A2063616C6C20746F206E6F6E2D636F6E7472616374000000 PUSH1 0x0 DUP3 ADD MSTORE POP JUMP JUMPDEST PUSH1 0x0 PUSH2 0x22A9 PUSH1 0x1D DUP4 PUSH2 0x1843 JUMP JUMPDEST SWAP2 POP PUSH2 0x22B4 DUP3 PUSH2 0x2273 JUMP JUMPDEST PUSH1 0x20 DUP3 ADD SWAP1 POP SWAP2 SWAP1 POP JUMP JUMPDEST PUSH1 0x0 PUSH1 0x20 DUP3 ADD SWAP1 POP DUP2 DUP2 SUB PUSH1 0x0 DUP4 ADD MSTORE PUSH2 0x22D8 DUP2 PUSH2 0x229C JUMP JUMPDEST SWAP1 POP SWAP2 SWAP1 POP JUMP JUMPDEST PUSH1 0x0 DUP2 MLOAD SWAP1 POP SWAP2 SWAP1 POP JUMP JUMPDEST PUSH1 0x0 DUP2 SWAP1 POP SWAP3 SWAP2 POP POP JUMP JUMPDEST PUSH1 0x0 PUSH2 0x2300 DUP3 PUSH2 0x22DF JUMP JUMPDEST PUSH2 0x230A DUP2 DUP6 PUSH2 0x22EA JUMP JUMPDEST SWAP4 POP PUSH2 0x231A DUP2 DUP6 PUSH1 0x20 DUP7 ADD PUSH2 0x18FC JUMP JUMPDEST DUP1 DUP5 ADD SWAP2 POP POP SWAP3 SWAP2 POP POP JUMP JUMPDEST PUSH1 0x0 PUSH2 0x2332 DUP3 DUP5 PUSH2 0x22F5 JUMP JUMPDEST SWAP2 POP DUP2 SWAP1 POP SWAP3 SWAP2 POP POP JUMP JUMPDEST PUSH1 0x0 PUSH2 0x2348 DUP3 PUSH2 0x18E6 JUMP JUMPDEST PUSH2 0x2352 DUP2 DUP6 PUSH2 0x1843 JUMP JUMPDEST SWAP4 POP PUSH2 0x2362 DUP2 DUP6 PUSH1 0x20 DUP7 ADD PUSH2 0x18FC JUMP JUMPDEST PUSH2 0x236B DUP2 PUSH2 0x1567 JUMP JUMPDEST DUP5 ADD SWAP2 POP POP SWAP3 SWAP2 POP POP JUMP JUMPDEST PUSH1 0x0 PUSH1 0x20 DUP3 ADD SWAP1 POP DUP2 DUP2 SUB PUSH1 0x0 DUP4 ADD MSTORE PUSH2 0x2390 DUP2 DUP5 PUSH2 0x233D JUMP JUMPDEST SWAP1 POP SWAP3 SWAP2 POP POP JUMP INVALID LOG2 PUSH5 0x6970667358 0x22 SLT KECCAK256 SWAP6 0xC8 0x25 SWAP11 EXTCODEHASH EQ DUP1 0xE5 0xEE CALLDATACOPY PUSH17 0xBA04AEAB61E6A336F527556D3BDE71C51A 0xAA 0xA8 0xD7 PUSH28 0x64736F6C634300081300330000000000000000000000000000000000 "
		},
		"gasEstimates": {
			"creation": {
				"codeDepositCost": "1833200",
				"executionCost": "92517",
				"totalCost": "1925717"
			},
			"external": {
				"changeOwner(address)": "26959",
				"decimals()": "2482",
				"getLockTotal(address)": "2863",
				"getMasterRewardAddress()": "2590",
				"getReceiveTimes(address)": "2864",
				"getReceiveTotal(address)": "2930",
				"getTimestamp()": "382",
				"getTotalReleased()": "2504",
				"lock(uint256,address,string)": "infinite",
				"release(string)": "infinite",
				"setMasterRewardAddress(address)": "26916",
				"setTokenAddress(address)": "26915",
				"token()": "infinite",
				"tokenBalance()": "infinite"
			}
		},
		"methodIdentifiers": {
			"changeOwner(address)": "a6f9dae1",
			"decimals()": "313ce567",
			"getLockTotal(address)": "d3030578",
			"getMasterRewardAddress()": "1bf0fbd1",
			"getReceiveTimes(address)": "911490e9",
			"getReceiveTotal(address)": "6a3ac37b",
			"getTimestamp()": "188ec356",
			"getTotalReleased()": "4b14c0ef",
			"lock(uint256,address,string)": "ff46e36a",
			"release(string)": "f34e3723",
			"setMasterRewardAddress(address)": "15fa807f",
			"setTokenAddress(address)": "26a4e8d2",
			"token()": "fc0c546a",
			"tokenBalance()": "9e1a4d19"
		}
	},
	"abi": [
		{
			"inputs": [],
			"stateMutability": "nonpayable",
			"type": "constructor"
		},
		{
			"inputs": [
				{
					"internalType": "address",
					"name": "newOwner",
					"type": "address"
				}
			],
			"name": "changeOwner",
			"outputs": [],
			"stateMutability": "nonpayable",
			"type": "function"
		},
		{
			"inputs": [],
			"name": "decimals",
			"outputs": [
				{
					"internalType": "uint256",
					"name": "",
					"type": "uint256"
				}
			],
			"stateMutability": "view",
			"type": "function"
		},
		{
			"inputs": [
				{
					"internalType": "address",
					"name": "userAddr",
					"type": "address"
				}
			],
			"name": "getLockTotal",
			"outputs": [
				{
					"internalType": "uint256",
					"name": "",
					"type": "uint256"
				}
			],
			"stateMutability": "view",
			"type": "function"
		},
		{
			"inputs": [],
			"name": "getMasterRewardAddress",
			"outputs": [
				{
					"internalType": "address",
					"name": "",
					"type": "address"
				}
			],
			"stateMutability": "view",
			"type": "function"
		},
		{
			"inputs": [
				{
					"internalType": "address",
					"name": "userAddr",
					"type": "address"
				}
			],
			"name": "getReceiveTimes",
			"outputs": [
				{
					"internalType": "uint256",
					"name": "",
					"type": "uint256"
				}
			],
			"stateMutability": "view",
			"type": "function"
		},
		{
			"inputs": [
				{
					"internalType": "address",
					"name": "userAddr",
					"type": "address"
				}
			],
			"name": "getReceiveTotal",
			"outputs": [
				{
					"internalType": "uint256",
					"name": "",
					"type": "uint256"
				}
			],
			"stateMutability": "view",
			"type": "function"
		},
		{
			"inputs": [],
			"name": "getTimestamp",
			"outputs": [
				{
					"internalType": "uint256",
					"name": "",
					"type": "uint256"
				}
			],
			"stateMutability": "view",
			"type": "function"
		},
		{
			"inputs": [],
			"name": "getTotalReleased",
			"outputs": [
				{
					"internalType": "uint256",
					"name": "",
					"type": "uint256"
				}
			],
			"stateMutability": "view",
			"type": "function"
		},
		{
			"inputs": [
				{
					"internalType": "uint256",
					"name": "amount_",
					"type": "uint256"
				},
				{
					"internalType": "address",
					"name": "userAddress_",
					"type": "address"
				},
				{
					"internalType": "string",
					"name": "themeId_",
					"type": "string"
				}
			],
			"name": "lock",
			"outputs": [],
			"stateMutability": "nonpayable",
			"type": "function"
		},
		{
			"inputs": [
				{
					"internalType": "string",
					"name": "themeId_",
					"type": "string"
				}
			],
			"name": "release",
			"outputs": [],
			"stateMutability": "nonpayable",
			"type": "function"
		},
		{
			"inputs": [
				{
					"internalType": "address",
					"name": "masterRewardAddress_",
					"type": "address"
				}
			],
			"name": "setMasterRewardAddress",
			"outputs": [],
			"stateMutability": "nonpayable",
			"type": "function"
		},
		{
			"inputs": [
				{
					"internalType": "address",
					"name": "tokenAddress",
					"type": "address"
				}
			],
			"name": "setTokenAddress",
			"outputs": [],
			"stateMutability": "nonpayable",
			"type": "function"
		},
		{
			"inputs": [],
			"name": "token",
			"outputs": [
				{
					"internalType": "contract IERC20",
					"name": "",
					"type": "address"
				}
			],
			"stateMutability": "view",
			"type": "function"
		},
		{
			"inputs": [],
			"name": "tokenBalance",
			"outputs": [
				{
					"internalType": "uint256",
					"name": "",
					"type": "uint256"
				}
			],
			"stateMutability": "view",
			"type": "function"
		}
	]
}