{
	"data": {
		"bytecode": {
			"linkReferences": {},
			"object": "6080604052601260035534801561001557600080fd5b5033600560006101000a81548173ffffffffffffffffffffffffffffffffffffffff021916908373ffffffffffffffffffffffffffffffffffffffff160217905550612075806100666000396000f3fe608060405234801561001057600080fd5b50600436106100ea5760003560e01c80635459b8a31161008c578063a6f9dae111610066578063a6f9dae114610213578063c4529e371461022f578063c52c31fa1461024b578063fc0c546a14610267576100ea565b80635459b8a3146101bb5780639e1a4d19146101d7578063a39865e7146101f5576100ea565b8063313ce567116100c8578063313ce5671461014557806342966c681461016357806347a586261461017f5780634b14c0ef1461019d576100ea565b80630af8668f146100ef578063188ec3561461010b57806326a4e8d214610129575b600080fd5b6101096004803603810190610104919061130e565b610285565b005b610113610639565b6040516101209190611395565b60405180910390f35b610143600480360381019061013e919061140e565b610641565b005b61014d6106de565b60405161015a9190611395565b60405180910390f35b61017d6004803603810190610178919061143b565b6106e8565b005b6101876107bb565b6040516101949190611477565b60405180910390f35b6101a56107e5565b6040516101b29190611395565b60405180910390f35b6101d560048036038101906101d09190611543565b6107ef565b005b6101df610a29565b6040516101ec9190611395565b60405180910390f35b6101fd610afb565b60405161020a9190611477565b60405180910390f35b61022d6004803603810190610228919061140e565b610b25565b005b6102496004803603810190610244919061140e565b610bc3565b005b6102656004803603810190610260919061140e565b610c07565b005b61026f610c4b565b60405161027c9190611623565b60405180910390f35b600560009054906101000a900473ffffffffffffffffffffffffffffffffffffffff1673ffffffffffffffffffffffffffffffffffffffff163373ffffffffffffffffffffffffffffffffffffffff16146102df57600080fd5b8051825114610323576040517f08c379a000000000000000000000000000000000000000000000000000000000815260040161031a906116e7565b60405180910390fd5b600073ffffffffffffffffffffffffffffffffffffffff16610343610c4b565b73ffffffffffffffffffffffffffffffffffffffff1603610399576040517f08c379a000000000000000000000000000000000000000000000000000000000815260040161039090611753565b60405180910390fd5b600073ffffffffffffffffffffffffffffffffffffffff166103b96107bb565b73ffffffffffffffffffffffffffffffffffffffff160361040f576040517f08c379a0000000000000000000000000000000000000000000000000000000008152600401610406906117e5565b60405180910390fd5b6000805b82518110156104575782818151811061042f5761042e611805565b5b6020026020010151826104429190611863565b9150808061044f90611897565b915050610413565b5080610461610a29565b10156104a2576040517f08c379a000000000000000000000000000000000000000000000000000000000815260040161049990611951565b60405180910390fd5b60006104ac6107bb565b905060005b84518110156106325760008273ffffffffffffffffffffffffffffffffffffffff16636441f9d08784815181106104eb576104ea611805565b5b60200260200101516040518263ffffffff1660e01b815260040161050f91906119df565b600060405180830381865afa15801561052c573d6000803e3d6000fd5b505050506040513d6000823e3d601f19601f820116820180604052508101906105559190611c1b565b9050600081602001519050600086848151811061057557610574611805565b5b60200260200101519050600073ffffffffffffffffffffffffffffffffffffffff168273ffffffffffffffffffffffffffffffffffffffff161461061c57610607600260009054906101000a900473ffffffffffffffffffffffffffffffffffffffff16826105e2610c4b565b73ffffffffffffffffffffffffffffffffffffffff16610c749092919063ffffffff16565b806004546106159190611863565b6004819055505b505050808061062a90611897565b9150506104b1565b5050505050565b600042905090565b600560009054906101000a900473ffffffffffffffffffffffffffffffffffffffff1673ffffffffffffffffffffffffffffffffffffffff163373ffffffffffffffffffffffffffffffffffffffff161461069b57600080fd5b806000806101000a81548173ffffffffffffffffffffffffffffffffffffffff021916908373ffffffffffffffffffffffffffffffffffffffff16021790555050565b6000600354905090565b600560009054906101000a900473ffffffffffffffffffffffffffffffffffffffff1673ffffffffffffffffffffffffffffffffffffffff163373ffffffffffffffffffffffffffffffffffffffff161461074257600080fd5b60008111610785576040517f08c379a000000000000000000000000000000000000000000000000000000000815260040161077c90611cb0565b60405180910390fd5b6107b8600082610793610c4b565b73ffffffffffffffffffffffffffffffffffffffff16610c749092919063ffffffff16565b50565b6000600160009054906101000a900473ffffffffffffffffffffffffffffffffffffffff16905090565b6000600454905090565b600073ffffffffffffffffffffffffffffffffffffffff1660008054906101000a900473ffffffffffffffffffffffffffffffffffffffff1673ffffffffffffffffffffffffffffffffffffffff160361087e576040517f08c379a000000000000000000000000000000000000000000000000000000000815260040161087590611753565b60405180910390fd5b8181905084849050146108c6576040517f08c379a00000000000000000000000000000000000000000000000000000000081526004016108bd906116e7565b60405180910390fd5b6000805b85859050811015610916576109018484838181106108eb576108ea611805565b5b9050602002013583610cfa90919063ffffffff16565b9150808061090e90611897565b9150506108ca565b5080610920610a29565b1015610961576040517f08c379a000000000000000000000000000000000000000000000000000000000815260040161095890611d42565b60405180910390fd5b60005b85859050811015610a21576109e186868381811061098557610984611805565b5b905060200201602081019061099a919061140e565b8585848181106109ad576109ac611805565b5b905060200201356109bc610c4b565b73ffffffffffffffffffffffffffffffffffffffff16610c749092919063ffffffff16565b8383828181106109f4576109f3611805565b5b90506020020135600454610a089190611863565b6004819055508080610a1990611897565b915050610964565b505050505050565b60008073ffffffffffffffffffffffffffffffffffffffff16610a4a610c4b565b73ffffffffffffffffffffffffffffffffffffffff1603610a6e5760009050610af8565b6000610a78610c4b565b73ffffffffffffffffffffffffffffffffffffffff166370a08231306040518263ffffffff1660e01b8152600401610ab09190611477565b602060405180830381865afa158015610acd573d6000803e3d6000fd5b505050506040513d601f19601f82011682018060405250810190610af19190611d62565b9050809150505b90565b6000600260009054906101000a900473ffffffffffffffffffffffffffffffffffffffff16905090565b600560009054906101000a900473ffffffffffffffffffffffffffffffffffffffff1673ffffffffffffffffffffffffffffffffffffffff163373ffffffffffffffffffffffffffffffffffffffff1614610b7f57600080fd5b80600560006101000a81548173ffffffffffffffffffffffffffffffffffffffff021916908373ffffffffffffffffffffffffffffffffffffffff16021790555050565b80600260006101000a81548173ffffffffffffffffffffffffffffffffffffffff021916908373ffffffffffffffffffffffffffffffffffffffff16021790555050565b80600160006101000a81548173ffffffffffffffffffffffffffffffffffffffff021916908373ffffffffffffffffffffffffffffffffffffffff16021790555050565b60008060009054906101000a900473ffffffffffffffffffffffffffffffffffffffff16905090565b610cf58363a9059cbb60e01b8484604051602401610c93929190611d8f565b604051602081830303815290604052907bffffffffffffffffffffffffffffffffffffffffffffffffffffffff19166020820180517bffffffffffffffffffffffffffffffffffffffffffffffffffffffff8381831617835250505050610d58565b505050565b6000808284610d099190611863565b905083811015610d4e576040517f08c379a0000000000000000000000000000000000000000000000000000000008152600401610d4590611e04565b60405180910390fd5b8091505092915050565b6000610dba826040518060400160405280602081526020017f5361666545524332303a206c6f772d6c6576656c2063616c6c206661696c65648152508573ffffffffffffffffffffffffffffffffffffffff16610e1f9092919063ffffffff16565b9050600081511115610e1a5780806020019051810190610dda9190611e24565b610e19576040517f08c379a0000000000000000000000000000000000000000000000000000000008152600401610e1090611ec3565b60405180910390fd5b5b505050565b6060610e2e8484600085610e37565b90509392505050565b606082471015610e7c576040517f08c379a0000000000000000000000000000000000000000000000000000000008152600401610e7390611f55565b60405180910390fd5b610e8585610f4b565b610ec4576040517f08c379a0000000000000000000000000000000000000000000000000000000008152600401610ebb90611fc1565b60405180910390fd5b6000808673ffffffffffffffffffffffffffffffffffffffff168587604051610eed9190612028565b60006040518083038185875af1925050503d8060008114610f2a576040519150601f19603f3d011682016040523d82523d6000602084013e610f2f565b606091505b5091509150610f3f828286610f6e565b92505050949350505050565b6000808273ffffffffffffffffffffffffffffffffffffffff163b119050919050565b60608315610f7e57829050610fce565b600083511115610f915782518084602001fd5b816040517f08c379a0000000000000000000000000000000000000000000000000000000008152600401610fc591906119df565b60405180910390fd5b9392505050565b6000604051905090565b600080fd5b600080fd5b600080fd5b6000601f19601f8301169050919050565b7f4e487b7100000000000000000000000000000000000000000000000000000000600052604160045260246000fd5b61103782610fee565b810181811067ffffffffffffffff8211171561105657611055610fff565b5b80604052505050565b6000611069610fd5565b9050611075828261102e565b919050565b600067ffffffffffffffff82111561109557611094610fff565b5b602082029050602081019050919050565b600080fd5b600080fd5b600067ffffffffffffffff8211156110cb576110ca610fff565b5b6110d482610fee565b9050602081019050919050565b82818337600083830152505050565b60006111036110fe846110b0565b61105f565b90508281526020810184848401111561111f5761111e6110ab565b5b61112a8482856110e1565b509392505050565b600082601f83011261114757611146610fe9565b5b81356111578482602086016110f0565b91505092915050565b600061117361116e8461107a565b61105f565b90508083825260208201905060208402830185811115611196576111956110a6565b5b835b818110156111dd57803567ffffffffffffffff8111156111bb576111ba610fe9565b5b8086016111c88982611132565b85526020850194505050602081019050611198565b5050509392505050565b600082601f8301126111fc576111fb610fe9565b5b813561120c848260208601611160565b91505092915050565b600067ffffffffffffffff8211156112305761122f610fff565b5b602082029050602081019050919050565b6000819050919050565b61125481611241565b811461125f57600080fd5b50565b6000813590506112718161124b565b92915050565b600061128a61128584611215565b61105f565b905080838252602082019050602084028301858111156112ad576112ac6110a6565b5b835b818110156112d657806112c28882611262565b8452602084019350506020810190506112af565b5050509392505050565b600082601f8301126112f5576112f4610fe9565b5b8135611305848260208601611277565b91505092915050565b6000806040838503121561132557611324610fdf565b5b600083013567ffffffffffffffff81111561134357611342610fe4565b5b61134f858286016111e7565b925050602083013567ffffffffffffffff8111156113705761136f610fe4565b5b61137c858286016112e0565b9150509250929050565b61138f81611241565b82525050565b60006020820190506113aa6000830184611386565b92915050565b600073ffffffffffffffffffffffffffffffffffffffff82169050919050565b60006113db826113b0565b9050919050565b6113eb816113d0565b81146113f657600080fd5b50565b600081359050611408816113e2565b92915050565b60006020828403121561142457611423610fdf565b5b6000611432848285016113f9565b91505092915050565b60006020828403121561145157611450610fdf565b5b600061145f84828501611262565b91505092915050565b611471816113d0565b82525050565b600060208201905061148c6000830184611468565b92915050565b600080fd5b60008083601f8401126114ad576114ac610fe9565b5b8235905067ffffffffffffffff8111156114ca576114c9611492565b5b6020830191508360208202830111156114e6576114e56110a6565b5b9250929050565b60008083601f84011261150357611502610fe9565b5b8235905067ffffffffffffffff8111156115205761151f611492565b5b60208301915083602082028301111561153c5761153b6110a6565b5b9250929050565b6000806000806040858703121561155d5761155c610fdf565b5b600085013567ffffffffffffffff81111561157b5761157a610fe4565b5b61158787828801611497565b9450945050602085013567ffffffffffffffff8111156115aa576115a9610fe4565b5b6115b6878288016114ed565b925092505092959194509250565b6000819050919050565b60006115e96115e46115df846113b0565b6115c4565b6113b0565b9050919050565b60006115fb826115ce565b9050919050565b600061160d826115f0565b9050919050565b61161d81611602565b82525050565b60006020820190506116386000830184611614565b92915050565b600082825260208201905092915050565b7f506c6561736520636865636b2074686520646174612c20746865206e6577732060008201527f494420616e6420646973747269627574696f6e207175616e746974792061726560208201527f20696e636f6e73697374656e7400000000000000000000000000000000000000604082015250565b60006116d1604d8361163e565b91506116dc8261164f565b606082019050919050565b60006020820190508181036000830152611700816116c4565b9050919050565b7f52656c656173653a206e6565642073657420546f6b656e204164647265737300600082015250565b600061173d601f8361163e565b915061174882611707565b602082019050919050565b6000602082019050818103600083015261176c81611730565b9050919050565b7f52656c656173653a206e65656420736574204368616c6c656e6720436f6e747260008201527f6163742041646472657373000000000000000000000000000000000000000000602082015250565b60006117cf602b8361163e565b91506117da82611773565b604082019050919050565b600060208201905081810360008301526117fe816117c2565b9050919050565b7f4e487b7100000000000000000000000000000000000000000000000000000000600052603260045260246000fd5b7f4e487b7100000000000000000000000000000000000000000000000000000000600052601160045260246000fd5b600061186e82611241565b915061187983611241565b925082820190508082111561189157611890611834565b5b92915050565b60006118a282611241565b91507fffffffffffffffffffffffffffffffffffffffffffffffffffffffffffffffff82036118d4576118d3611834565b5b600182019050919050565b7f52656c656173653a20496e73756666696369656e7420746f74616c20616d6f7560008201527f6e7420617661696c61626c6520666f7220646973747269627574696f6e000000602082015250565b600061193b603d8361163e565b9150611946826118df565b604082019050919050565b6000602082019050818103600083015261196a8161192e565b9050919050565b600081519050919050565b60005b8381101561199a57808201518184015260208101905061197f565b60008484015250505050565b60006119b182611971565b6119bb818561163e565b93506119cb81856020860161197c565b6119d481610fee565b840191505092915050565b600060208201905081810360008301526119f981846119a6565b905092915050565b600080fd5b600080fd5b6000611a1e611a19846110b0565b61105f565b905082815260208101848484011115611a3a57611a396110ab565b5b611a4584828561197c565b509392505050565b600082601f830112611a6257611a61610fe9565b5b8151611a72848260208601611a0b565b91505092915050565b600081519050611a8a816113e2565b92915050565b600081519050611a9f8161124b565b92915050565b60008115159050919050565b611aba81611aa5565b8114611ac557600080fd5b50565b600081519050611ad781611ab1565b92915050565b60006101808284031215611af457611af3611a01565b5b611aff61018061105f565b9050600082015167ffffffffffffffff811115611b1f57611b1e611a06565b5b611b2b84828501611a4d565b6000830152506020611b3f84828501611a7b565b6020830152506040611b5384828501611a90565b6040830152506060611b6784828501611a90565b6060830152506080611b7b84828501611ac8565b60808301525060a0611b8f84828501611ac8565b60a08301525060c0611ba384828501611ac8565b60c08301525060e0611bb784828501611a90565b60e083015250610100611bcc84828501611ac8565b61010083015250610120611be284828501611a90565b61012083015250610140611bf884828501611a90565b61014083015250610160611c0e84828501611a90565b6101608301525092915050565b600060208284031215611c3157611c30610fdf565b5b600082015167ffffffffffffffff811115611c4f57611c4e610fe4565b5b611c5b84828501611add565b91505092915050565b7f4e6f207175616e7469747920746f2073656e6400000000000000000000000000600082015250565b6000611c9a60138361163e565b9150611ca582611c64565b602082019050919050565b60006020820190508181036000830152611cc981611c8d565b9050919050565b7f546865206e756d626572206f66206169722064726f707320657863656564732060008201527f746865206461696c792072656c6561736520616d6f756e740000000000000000602082015250565b6000611d2c60388361163e565b9150611d3782611cd0565b604082019050919050565b60006020820190508181036000830152611d5b81611d1f565b9050919050565b600060208284031215611d7857611d77610fdf565b5b6000611d8684828501611a90565b91505092915050565b6000604082019050611da46000830185611468565b611db16020830184611386565b9392505050565b7f536166654d6174683a206164646974696f6e206f766572666c6f770000000000600082015250565b6000611dee601b8361163e565b9150611df982611db8565b602082019050919050565b60006020820190508181036000830152611e1d81611de1565b9050919050565b600060208284031215611e3a57611e39610fdf565b5b6000611e4884828501611ac8565b91505092915050565b7f5361666545524332303a204552433230206f7065726174696f6e20646964206e60008201527f6f74207375636365656400000000000000000000000000000000000000000000602082015250565b6000611ead602a8361163e565b9150611eb882611e51565b604082019050919050565b60006020820190508181036000830152611edc81611ea0565b9050919050565b7f416464726573733a20696e73756666696369656e742062616c616e636520666f60008201527f722063616c6c0000000000000000000000000000000000000000000000000000602082015250565b6000611f3f60268361163e565b9150611f4a82611ee3565b604082019050919050565b60006020820190508181036000830152611f6e81611f32565b9050919050565b7f416464726573733a2063616c6c20746f206e6f6e2d636f6e7472616374000000600082015250565b6000611fab601d8361163e565b9150611fb682611f75565b602082019050919050565b60006020820190508181036000830152611fda81611f9e565b9050919050565b600081519050919050565b600081905092915050565b600061200282611fe1565b61200c8185611fec565b935061201c81856020860161197c565b80840191505092915050565b60006120348284611ff7565b91508190509291505056fea2646970667358221220cde538fb07e503c4d83865a8b2c9ffd1105f4b52871b8e59aa03301c905772a864736f6c63430008130033",
			"opcodes": "PUSH1 0x80 PUSH1 0x40 MSTORE PUSH1 0x12 PUSH1 0x3 SSTORE CALLVALUE DUP1 ISZERO PUSH2 0x15 JUMPI PUSH1 0x0 DUP1 REVERT JUMPDEST POP CALLER PUSH1 0x5 PUSH1 0x0 PUSH2 0x100 EXP DUP2 SLOAD DUP2 PUSH20 0xFFFFFFFFFFFFFFFFFFFFFFFFFFFFFFFFFFFFFFFF MUL NOT AND SWAP1 DUP4 PUSH20 0xFFFFFFFFFFFFFFFFFFFFFFFFFFFFFFFFFFFFFFFF AND MUL OR SWAP1 SSTORE POP PUSH2 0x2075 DUP1 PUSH2 0x66 PUSH1 0x0 CODECOPY PUSH1 0x0 RETURN INVALID PUSH1 0x80 PUSH1 0x40 MSTORE CALLVALUE DUP1 ISZERO PUSH2 0x10 JUMPI PUSH1 0x0 DUP1 REVERT JUMPDEST POP PUSH1 0x4 CALLDATASIZE LT PUSH2 0xEA JUMPI PUSH1 0x0 CALLDATALOAD PUSH1 0xE0 SHR DUP1 PUSH4 0x5459B8A3 GT PUSH2 0x8C JUMPI DUP1 PUSH4 0xA6F9DAE1 GT PUSH2 0x66 JUMPI DUP1 PUSH4 0xA6F9DAE1 EQ PUSH2 0x213 JUMPI DUP1 PUSH4 0xC4529E37 EQ PUSH2 0x22F JUMPI DUP1 PUSH4 0xC52C31FA EQ PUSH2 0x24B JUMPI DUP1 PUSH4 0xFC0C546A EQ PUSH2 0x267 JUMPI PUSH2 0xEA JUMP JUMPDEST DUP1 PUSH4 0x5459B8A3 EQ PUSH2 0x1BB JUMPI DUP1 PUSH4 0x9E1A4D19 EQ PUSH2 0x1D7 JUMPI DUP1 PUSH4 0xA39865E7 EQ PUSH2 0x1F5 JUMPI PUSH2 0xEA JUMP JUMPDEST DUP1 PUSH4 0x313CE567 GT PUSH2 0xC8 JUMPI DUP1 PUSH4 0x313CE567 EQ PUSH2 0x145 JUMPI DUP1 PUSH4 0x42966C68 EQ PUSH2 0x163 JUMPI DUP1 PUSH4 0x47A58626 EQ PUSH2 0x17F JUMPI DUP1 PUSH4 0x4B14C0EF EQ PUSH2 0x19D JUMPI PUSH2 0xEA JUMP JUMPDEST DUP1 PUSH4 0xAF8668F EQ PUSH2 0xEF JUMPI DUP1 PUSH4 0x188EC356 EQ PUSH2 0x10B JUMPI DUP1 PUSH4 0x26A4E8D2 EQ PUSH2 0x129 JUMPI JUMPDEST PUSH1 0x0 DUP1 REVERT JUMPDEST PUSH2 0x109 PUSH1 0x4 DUP1 CALLDATASIZE SUB DUP2 ADD SWAP1 PUSH2 0x104 SWAP2 SWAP1 PUSH2 0x130E JUMP JUMPDEST PUSH2 0x285 JUMP JUMPDEST STOP JUMPDEST PUSH2 0x113 PUSH2 0x639 JUMP JUMPDEST PUSH1 0x40 MLOAD PUSH2 0x120 SWAP2 SWAP1 PUSH2 0x1395 JUMP JUMPDEST PUSH1 0x40 MLOAD DUP1 SWAP2 SUB SWAP1 RETURN JUMPDEST PUSH2 0x143 PUSH1 0x4 DUP1 CALLDATASIZE SUB DUP2 ADD SWAP1 PUSH2 0x13E SWAP2 SWAP1 PUSH2 0x140E JUMP JUMPDEST PUSH2 0x641 JUMP JUMPDEST STOP JUMPDEST PUSH2 0x14D PUSH2 0x6DE JUMP JUMPDEST PUSH1 0x40 MLOAD PUSH2 0x15A SWAP2 SWAP1 PUSH2 0x1395 JUMP JUMPDEST PUSH1 0x40 MLOAD DUP1 SWAP2 SUB SWAP1 RETURN JUMPDEST PUSH2 0x17D PUSH1 0x4 DUP1 CALLDATASIZE SUB DUP2 ADD SWAP1 PUSH2 0x178 SWAP2 SWAP1 PUSH2 0x143B JUMP JUMPDEST PUSH2 0x6E8 JUMP JUMPDEST STOP JUMPDEST PUSH2 0x187 PUSH2 0x7BB JUMP JUMPDEST PUSH1 0x40 MLOAD PUSH2 0x194 SWAP2 SWAP1 PUSH2 0x1477 JUMP JUMPDEST PUSH1 0x40 MLOAD DUP1 SWAP2 SUB SWAP1 RETURN JUMPDEST PUSH2 0x1A5 PUSH2 0x7E5 JUMP JUMPDEST PUSH1 0x40 MLOAD PUSH2 0x1B2 SWAP2 SWAP1 PUSH2 0x1395 JUMP JUMPDEST PUSH1 0x40 MLOAD DUP1 SWAP2 SUB SWAP1 RETURN JUMPDEST PUSH2 0x1D5 PUSH1 0x4 DUP1 CALLDATASIZE SUB DUP2 ADD SWAP1 PUSH2 0x1D0 SWAP2 SWAP1 PUSH2 0x1543 JUMP JUMPDEST PUSH2 0x7EF JUMP JUMPDEST STOP JUMPDEST PUSH2 0x1DF PUSH2 0xA29 JUMP JUMPDEST PUSH1 0x40 MLOAD PUSH2 0x1EC SWAP2 SWAP1 PUSH2 0x1395 JUMP JUMPDEST PUSH1 0x40 MLOAD DUP1 SWAP2 SUB SWAP1 RETURN JUMPDEST PUSH2 0x1FD PUSH2 0xAFB JUMP JUMPDEST PUSH1 0x40 MLOAD PUSH2 0x20A SWAP2 SWAP1 PUSH2 0x1477 JUMP JUMPDEST PUSH1 0x40 MLOAD DUP1 SWAP2 SUB SWAP1 RETURN JUMPDEST PUSH2 0x22D PUSH1 0x4 DUP1 CALLDATASIZE SUB DUP2 ADD SWAP1 PUSH2 0x228 SWAP2 SWAP1 PUSH2 0x140E JUMP JUMPDEST PUSH2 0xB25 JUMP JUMPDEST STOP JUMPDEST PUSH2 0x249 PUSH1 0x4 DUP1 CALLDATASIZE SUB DUP2 ADD SWAP1 PUSH2 0x244 SWAP2 SWAP1 PUSH2 0x140E JUMP JUMPDEST PUSH2 0xBC3 JUMP JUMPDEST STOP JUMPDEST PUSH2 0x265 PUSH1 0x4 DUP1 CALLDATASIZE SUB DUP2 ADD SWAP1 PUSH2 0x260 SWAP2 SWAP1 PUSH2 0x140E JUMP JUMPDEST PUSH2 0xC07 JUMP JUMPDEST STOP JUMPDEST PUSH2 0x26F PUSH2 0xC4B JUMP JUMPDEST PUSH1 0x40 MLOAD PUSH2 0x27C SWAP2 SWAP1 PUSH2 0x1623 JUMP JUMPDEST PUSH1 0x40 MLOAD DUP1 SWAP2 SUB SWAP1 RETURN JUMPDEST PUSH1 0x5 PUSH1 0x0 SWAP1 SLOAD SWAP1 PUSH2 0x100 EXP SWAP1 DIV PUSH20 0xFFFFFFFFFFFFFFFFFFFFFFFFFFFFFFFFFFFFFFFF AND PUSH20 0xFFFFFFFFFFFFFFFFFFFFFFFFFFFFFFFFFFFFFFFF AND CALLER PUSH20 0xFFFFFFFFFFFFFFFFFFFFFFFFFFFFFFFFFFFFFFFF AND EQ PUSH2 0x2DF JUMPI PUSH1 0x0 DUP1 REVERT JUMPDEST DUP1 MLOAD DUP3 MLOAD EQ PUSH2 0x323 JUMPI PUSH1 0x40 MLOAD PUSH32 0x8C379A000000000000000000000000000000000000000000000000000000000 DUP2 MSTORE PUSH1 0x4 ADD PUSH2 0x31A SWAP1 PUSH2 0x16E7 JUMP JUMPDEST PUSH1 0x40 MLOAD DUP1 SWAP2 SUB SWAP1 REVERT JUMPDEST PUSH1 0x0 PUSH20 0xFFFFFFFFFFFFFFFFFFFFFFFFFFFFFFFFFFFFFFFF AND PUSH2 0x343 PUSH2 0xC4B JUMP JUMPDEST PUSH20 0xFFFFFFFFFFFFFFFFFFFFFFFFFFFFFFFFFFFFFFFF AND SUB PUSH2 0x399 JUMPI PUSH1 0x40 MLOAD PUSH32 0x8C379A000000000000000000000000000000000000000000000000000000000 DUP2 MSTORE PUSH1 0x4 ADD PUSH2 0x390 SWAP1 PUSH2 0x1753 JUMP JUMPDEST PUSH1 0x40 MLOAD DUP1 SWAP2 SUB SWAP1 REVERT JUMPDEST PUSH1 0x0 PUSH20 0xFFFFFFFFFFFFFFFFFFFFFFFFFFFFFFFFFFFFFFFF AND PUSH2 0x3B9 PUSH2 0x7BB JUMP JUMPDEST PUSH20 0xFFFFFFFFFFFFFFFFFFFFFFFFFFFFFFFFFFFFFFFF AND SUB PUSH2 0x40F JUMPI PUSH1 0x40 MLOAD PUSH32 0x8C379A000000000000000000000000000000000000000000000000000000000 DUP2 MSTORE PUSH1 0x4 ADD PUSH2 0x406 SWAP1 PUSH2 0x17E5 JUMP JUMPDEST PUSH1 0x40 MLOAD DUP1 SWAP2 SUB SWAP1 REVERT JUMPDEST PUSH1 0x0 DUP1 JUMPDEST DUP3 MLOAD DUP2 LT ISZERO PUSH2 0x457 JUMPI DUP3 DUP2 DUP2 MLOAD DUP2 LT PUSH2 0x42F JUMPI PUSH2 0x42E PUSH2 0x1805 JUMP JUMPDEST JUMPDEST PUSH1 0x20 MUL PUSH1 0x20 ADD ADD MLOAD DUP3 PUSH2 0x442 SWAP2 SWAP1 PUSH2 0x1863 JUMP JUMPDEST SWAP2 POP DUP1 DUP1 PUSH2 0x44F SWAP1 PUSH2 0x1897 JUMP JUMPDEST SWAP2 POP POP PUSH2 0x413 JUMP JUMPDEST POP DUP1 PUSH2 0x461 PUSH2 0xA29 JUMP JUMPDEST LT ISZERO PUSH2 0x4A2 JUMPI PUSH1 0x40 MLOAD PUSH32 0x8C379A000000000000000000000000000000000000000000000000000000000 DUP2 MSTORE PUSH1 0x4 ADD PUSH2 0x499 SWAP1 PUSH2 0x1951 JUMP JUMPDEST PUSH1 0x40 MLOAD DUP1 SWAP2 SUB SWAP1 REVERT JUMPDEST PUSH1 0x0 PUSH2 0x4AC PUSH2 0x7BB JUMP JUMPDEST SWAP1 POP PUSH1 0x0 JUMPDEST DUP5 MLOAD DUP2 LT ISZERO PUSH2 0x632 JUMPI PUSH1 0x0 DUP3 PUSH20 0xFFFFFFFFFFFFFFFFFFFFFFFFFFFFFFFFFFFFFFFF AND PUSH4 0x6441F9D0 DUP8 DUP5 DUP2 MLOAD DUP2 LT PUSH2 0x4EB JUMPI PUSH2 0x4EA PUSH2 0x1805 JUMP JUMPDEST JUMPDEST PUSH1 0x20 MUL PUSH1 0x20 ADD ADD MLOAD PUSH1 0x40 MLOAD DUP3 PUSH4 0xFFFFFFFF AND PUSH1 0xE0 SHL DUP2 MSTORE PUSH1 0x4 ADD PUSH2 0x50F SWAP2 SWAP1 PUSH2 0x19DF JUMP JUMPDEST PUSH1 0x0 PUSH1 0x40 MLOAD DUP1 DUP4 SUB DUP2 DUP7 GAS STATICCALL ISZERO DUP1 ISZERO PUSH2 0x52C JUMPI RETURNDATASIZE PUSH1 0x0 DUP1 RETURNDATACOPY RETURNDATASIZE PUSH1 0x0 REVERT JUMPDEST POP POP POP POP PUSH1 0x40 MLOAD RETURNDATASIZE PUSH1 0x0 DUP3 RETURNDATACOPY RETURNDATASIZE PUSH1 0x1F NOT PUSH1 0x1F DUP3 ADD AND DUP3 ADD DUP1 PUSH1 0x40 MSTORE POP DUP2 ADD SWAP1 PUSH2 0x555 SWAP2 SWAP1 PUSH2 0x1C1B JUMP JUMPDEST SWAP1 POP PUSH1 0x0 DUP2 PUSH1 0x20 ADD MLOAD SWAP1 POP PUSH1 0x0 DUP7 DUP5 DUP2 MLOAD DUP2 LT PUSH2 0x575 JUMPI PUSH2 0x574 PUSH2 0x1805 JUMP JUMPDEST JUMPDEST PUSH1 0x20 MUL PUSH1 0x20 ADD ADD MLOAD SWAP1 POP PUSH1 0x0 PUSH20 0xFFFFFFFFFFFFFFFFFFFFFFFFFFFFFFFFFFFFFFFF AND DUP3 PUSH20 0xFFFFFFFFFFFFFFFFFFFFFFFFFFFFFFFFFFFFFFFF AND EQ PUSH2 0x61C JUMPI PUSH2 0x607 PUSH1 0x2 PUSH1 0x0 SWAP1 SLOAD SWAP1 PUSH2 0x100 EXP SWAP1 DIV PUSH20 0xFFFFFFFFFFFFFFFFFFFFFFFFFFFFFFFFFFFFFFFF AND DUP3 PUSH2 0x5E2 PUSH2 0xC4B JUMP JUMPDEST PUSH20 0xFFFFFFFFFFFFFFFFFFFFFFFFFFFFFFFFFFFFFFFF AND PUSH2 0xC74 SWAP1 SWAP3 SWAP2 SWAP1 PUSH4 0xFFFFFFFF AND JUMP JUMPDEST DUP1 PUSH1 0x4 SLOAD PUSH2 0x615 SWAP2 SWAP1 PUSH2 0x1863 JUMP JUMPDEST PUSH1 0x4 DUP2 SWAP1 SSTORE POP JUMPDEST POP POP POP DUP1 DUP1 PUSH2 0x62A SWAP1 PUSH2 0x1897 JUMP JUMPDEST SWAP2 POP POP PUSH2 0x4B1 JUMP JUMPDEST POP POP POP POP POP JUMP JUMPDEST PUSH1 0x0 TIMESTAMP SWAP1 POP SWAP1 JUMP JUMPDEST PUSH1 0x5 PUSH1 0x0 SWAP1 SLOAD SWAP1 PUSH2 0x100 EXP SWAP1 DIV PUSH20 0xFFFFFFFFFFFFFFFFFFFFFFFFFFFFFFFFFFFFFFFF AND PUSH20 0xFFFFFFFFFFFFFFFFFFFFFFFFFFFFFFFFFFFFFFFF AND CALLER PUSH20 0xFFFFFFFFFFFFFFFFFFFFFFFFFFFFFFFFFFFFFFFF AND EQ PUSH2 0x69B JUMPI PUSH1 0x0 DUP1 REVERT JUMPDEST DUP1 PUSH1 0x0 DUP1 PUSH2 0x100 EXP DUP2 SLOAD DUP2 PUSH20 0xFFFFFFFFFFFFFFFFFFFFFFFFFFFFFFFFFFFFFFFF MUL NOT AND SWAP1 DUP4 PUSH20 0xFFFFFFFFFFFFFFFFFFFFFFFFFFFFFFFFFFFFFFFF AND MUL OR SWAP1 SSTORE POP POP JUMP JUMPDEST PUSH1 0x0 PUSH1 0x3 SLOAD SWAP1 POP SWAP1 JUMP JUMPDEST PUSH1 0x5 PUSH1 0x0 SWAP1 SLOAD SWAP1 PUSH2 0x100 EXP SWAP1 DIV PUSH20 0xFFFFFFFFFFFFFFFFFFFFFFFFFFFFFFFFFFFFFFFF AND PUSH20 0xFFFFFFFFFFFFFFFFFFFFFFFFFFFFFFFFFFFFFFFF AND CALLER PUSH20 0xFFFFFFFFFFFFFFFFFFFFFFFFFFFFFFFFFFFFFFFF AND EQ PUSH2 0x742 JUMPI PUSH1 0x0 DUP1 REVERT JUMPDEST PUSH1 0x0 DUP2 GT PUSH2 0x785 JUMPI PUSH1 0x40 MLOAD PUSH32 0x8C379A000000000000000000000000000000000000000000000000000000000 DUP2 MSTORE PUSH1 0x4 ADD PUSH2 0x77C SWAP1 PUSH2 0x1CB0 JUMP JUMPDEST PUSH1 0x40 MLOAD DUP1 SWAP2 SUB SWAP1 REVERT JUMPDEST PUSH2 0x7B8 PUSH1 0x0 DUP3 PUSH2 0x793 PUSH2 0xC4B JUMP JUMPDEST PUSH20 0xFFFFFFFFFFFFFFFFFFFFFFFFFFFFFFFFFFFFFFFF AND PUSH2 0xC74 SWAP1 SWAP3 SWAP2 SWAP1 PUSH4 0xFFFFFFFF AND JUMP JUMPDEST POP JUMP JUMPDEST PUSH1 0x0 PUSH1 0x1 PUSH1 0x0 SWAP1 SLOAD SWAP1 PUSH2 0x100 EXP SWAP1 DIV PUSH20 0xFFFFFFFFFFFFFFFFFFFFFFFFFFFFFFFFFFFFFFFF AND SWAP1 POP SWAP1 JUMP JUMPDEST PUSH1 0x0 PUSH1 0x4 SLOAD SWAP1 POP SWAP1 JUMP JUMPDEST PUSH1 0x0 PUSH20 0xFFFFFFFFFFFFFFFFFFFFFFFFFFFFFFFFFFFFFFFF AND PUSH1 0x0 DUP1 SLOAD SWAP1 PUSH2 0x100 EXP SWAP1 DIV PUSH20 0xFFFFFFFFFFFFFFFFFFFFFFFFFFFFFFFFFFFFFFFF AND PUSH20 0xFFFFFFFFFFFFFFFFFFFFFFFFFFFFFFFFFFFFFFFF AND SUB PUSH2 0x87E JUMPI PUSH1 0x40 MLOAD PUSH32 0x8C379A000000000000000000000000000000000000000000000000000000000 DUP2 MSTORE PUSH1 0x4 ADD PUSH2 0x875 SWAP1 PUSH2 0x1753 JUMP JUMPDEST PUSH1 0x40 MLOAD DUP1 SWAP2 SUB SWAP1 REVERT JUMPDEST DUP2 DUP2 SWAP1 POP DUP5 DUP5 SWAP1 POP EQ PUSH2 0x8C6 JUMPI PUSH1 0x40 MLOAD PUSH32 0x8C379A000000000000000000000000000000000000000000000000000000000 DUP2 MSTORE PUSH1 0x4 ADD PUSH2 0x8BD SWAP1 PUSH2 0x16E7 JUMP JUMPDEST PUSH1 0x40 MLOAD DUP1 SWAP2 SUB SWAP1 REVERT JUMPDEST PUSH1 0x0 DUP1 JUMPDEST DUP6 DUP6 SWAP1 POP DUP2 LT ISZERO PUSH2 0x916 JUMPI PUSH2 0x901 DUP5 DUP5 DUP4 DUP2 DUP2 LT PUSH2 0x8EB JUMPI PUSH2 0x8EA PUSH2 0x1805 JUMP JUMPDEST JUMPDEST SWAP1 POP PUSH1 0x20 MUL ADD CALLDATALOAD DUP4 PUSH2 0xCFA SWAP1 SWAP2 SWAP1 PUSH4 0xFFFFFFFF AND JUMP JUMPDEST SWAP2 POP DUP1 DUP1 PUSH2 0x90E SWAP1 PUSH2 0x1897 JUMP JUMPDEST SWAP2 POP POP PUSH2 0x8CA JUMP JUMPDEST POP DUP1 PUSH2 0x920 PUSH2 0xA29 JUMP JUMPDEST LT ISZERO PUSH2 0x961 JUMPI PUSH1 0x40 MLOAD PUSH32 0x8C379A000000000000000000000000000000000000000000000000000000000 DUP2 MSTORE PUSH1 0x4 ADD PUSH2 0x958 SWAP1 PUSH2 0x1D42 JUMP JUMPDEST PUSH1 0x40 MLOAD DUP1 SWAP2 SUB SWAP1 REVERT JUMPDEST PUSH1 0x0 JUMPDEST DUP6 DUP6 SWAP1 POP DUP2 LT ISZERO PUSH2 0xA21 JUMPI PUSH2 0x9E1 DUP7 DUP7 DUP4 DUP2 DUP2 LT PUSH2 0x985 JUMPI PUSH2 0x984 PUSH2 0x1805 JUMP JUMPDEST JUMPDEST SWAP1 POP PUSH1 0x20 MUL ADD PUSH1 0x20 DUP2 ADD SWAP1 PUSH2 0x99A SWAP2 SWAP1 PUSH2 0x140E JUMP JUMPDEST DUP6 DUP6 DUP5 DUP2 DUP2 LT PUSH2 0x9AD JUMPI PUSH2 0x9AC PUSH2 0x1805 JUMP JUMPDEST JUMPDEST SWAP1 POP PUSH1 0x20 MUL ADD CALLDATALOAD PUSH2 0x9BC PUSH2 0xC4B JUMP JUMPDEST PUSH20 0xFFFFFFFFFFFFFFFFFFFFFFFFFFFFFFFFFFFFFFFF AND PUSH2 0xC74 SWAP1 SWAP3 SWAP2 SWAP1 PUSH4 0xFFFFFFFF AND JUMP JUMPDEST DUP4 DUP4 DUP3 DUP2 DUP2 LT PUSH2 0x9F4 JUMPI PUSH2 0x9F3 PUSH2 0x1805 JUMP JUMPDEST JUMPDEST SWAP1 POP PUSH1 0x20 MUL ADD CALLDATALOAD PUSH1 0x4 SLOAD PUSH2 0xA08 SWAP2 SWAP1 PUSH2 0x1863 JUMP JUMPDEST PUSH1 0x4 DUP2 SWAP1 SSTORE POP DUP1 DUP1 PUSH2 0xA19 SWAP1 PUSH2 0x1897 JUMP JUMPDEST SWAP2 POP POP PUSH2 0x964 JUMP JUMPDEST POP POP POP POP POP POP JUMP JUMPDEST PUSH1 0x0 DUP1 PUSH20 0xFFFFFFFFFFFFFFFFFFFFFFFFFFFFFFFFFFFFFFFF AND PUSH2 0xA4A PUSH2 0xC4B JUMP JUMPDEST PUSH20 0xFFFFFFFFFFFFFFFFFFFFFFFFFFFFFFFFFFFFFFFF AND SUB PUSH2 0xA6E JUMPI PUSH1 0x0 SWAP1 POP PUSH2 0xAF8 JUMP JUMPDEST PUSH1 0x0 PUSH2 0xA78 PUSH2 0xC4B JUMP JUMPDEST PUSH20 0xFFFFFFFFFFFFFFFFFFFFFFFFFFFFFFFFFFFFFFFF AND PUSH4 0x70A08231 ADDRESS PUSH1 0x40 MLOAD DUP3 PUSH4 0xFFFFFFFF AND PUSH1 0xE0 SHL DUP2 MSTORE PUSH1 0x4 ADD PUSH2 0xAB0 SWAP2 SWAP1 PUSH2 0x1477 JUMP JUMPDEST PUSH1 0x20 PUSH1 0x40 MLOAD DUP1 DUP4 SUB DUP2 DUP7 GAS STATICCALL ISZERO DUP1 ISZERO PUSH2 0xACD JUMPI RETURNDATASIZE PUSH1 0x0 DUP1 RETURNDATACOPY RETURNDATASIZE PUSH1 0x0 REVERT JUMPDEST POP POP POP POP PUSH1 0x40 MLOAD RETURNDATASIZE PUSH1 0x1F NOT PUSH1 0x1F DUP3 ADD AND DUP3 ADD DUP1 PUSH1 0x40 MSTORE POP DUP2 ADD SWAP1 PUSH2 0xAF1 SWAP2 SWAP1 PUSH2 0x1D62 JUMP JUMPDEST SWAP1 POP DUP1 SWAP2 POP POP JUMPDEST SWAP1 JUMP JUMPDEST PUSH1 0x0 PUSH1 0x2 PUSH1 0x0 SWAP1 SLOAD SWAP1 PUSH2 0x100 EXP SWAP1 DIV PUSH20 0xFFFFFFFFFFFFFFFFFFFFFFFFFFFFFFFFFFFFFFFF AND SWAP1 POP SWAP1 JUMP JUMPDEST PUSH1 0x5 PUSH1 0x0 SWAP1 SLOAD SWAP1 PUSH2 0x100 EXP SWAP1 DIV PUSH20 0xFFFFFFFFFFFFFFFFFFFFFFFFFFFFFFFFFFFFFFFF AND PUSH20 0xFFFFFFFFFFFFFFFFFFFFFFFFFFFFFFFFFFFFFFFF AND CALLER PUSH20 0xFFFFFFFFFFFFFFFFFFFFFFFFFFFFFFFFFFFFFFFF AND EQ PUSH2 0xB7F JUMPI PUSH1 0x0 DUP1 REVERT JUMPDEST DUP1 PUSH1 0x5 PUSH1 0x0 PUSH2 0x100 EXP DUP2 SLOAD DUP2 PUSH20 0xFFFFFFFFFFFFFFFFFFFFFFFFFFFFFFFFFFFFFFFF MUL NOT AND SWAP1 DUP4 PUSH20 0xFFFFFFFFFFFFFFFFFFFFFFFFFFFFFFFFFFFFFFFF AND MUL OR SWAP1 SSTORE POP POP JUMP JUMPDEST DUP1 PUSH1 0x2 PUSH1 0x0 PUSH2 0x100 EXP DUP2 SLOAD DUP2 PUSH20 0xFFFFFFFFFFFFFFFFFFFFFFFFFFFFFFFFFFFFFFFF MUL NOT AND SWAP1 DUP4 PUSH20 0xFFFFFFFFFFFFFFFFFFFFFFFFFFFFFFFFFFFFFFFF AND MUL OR SWAP1 SSTORE POP POP JUMP JUMPDEST DUP1 PUSH1 0x1 PUSH1 0x0 PUSH2 0x100 EXP DUP2 SLOAD DUP2 PUSH20 0xFFFFFFFFFFFFFFFFFFFFFFFFFFFFFFFFFFFFFFFF MUL NOT AND SWAP1 DUP4 PUSH20 0xFFFFFFFFFFFFFFFFFFFFFFFFFFFFFFFFFFFFFFFF AND MUL OR SWAP1 SSTORE POP POP JUMP JUMPDEST PUSH1 0x0 DUP1 PUSH1 0x0 SWAP1 SLOAD SWAP1 PUSH2 0x100 EXP SWAP1 DIV PUSH20 0xFFFFFFFFFFFFFFFFFFFFFFFFFFFFFFFFFFFFFFFF AND SWAP1 POP SWAP1 JUMP JUMPDEST PUSH2 0xCF5 DUP4 PUSH4 0xA9059CBB PUSH1 0xE0 SHL DUP5 DUP5 PUSH1 0x40 MLOAD PUSH1 0x24 ADD PUSH2 0xC93 SWAP3 SWAP2 SWAP1 PUSH2 0x1D8F JUMP JUMPDEST PUSH1 0x40 MLOAD PUSH1 0x20 DUP2 DUP4 SUB SUB DUP2 MSTORE SWAP1 PUSH1 0x40 MSTORE SWAP1 PUSH28 0xFFFFFFFFFFFFFFFFFFFFFFFFFFFFFFFFFFFFFFFFFFFFFFFFFFFFFFFF NOT AND PUSH1 0x20 DUP3 ADD DUP1 MLOAD PUSH28 0xFFFFFFFFFFFFFFFFFFFFFFFFFFFFFFFFFFFFFFFFFFFFFFFFFFFFFFFF DUP4 DUP2 DUP4 AND OR DUP4 MSTORE POP POP POP POP PUSH2 0xD58 JUMP JUMPDEST POP POP POP JUMP JUMPDEST PUSH1 0x0 DUP1 DUP3 DUP5 PUSH2 0xD09 SWAP2 SWAP1 PUSH2 0x1863 JUMP JUMPDEST SWAP1 POP DUP4 DUP2 LT ISZERO PUSH2 0xD4E JUMPI PUSH1 0x40 MLOAD PUSH32 0x8C379A000000000000000000000000000000000000000000000000000000000 DUP2 MSTORE PUSH1 0x4 ADD PUSH2 0xD45 SWAP1 PUSH2 0x1E04 JUMP JUMPDEST PUSH1 0x40 MLOAD DUP1 SWAP2 SUB SWAP1 REVERT JUMPDEST DUP1 SWAP2 POP POP SWAP3 SWAP2 POP POP JUMP JUMPDEST PUSH1 0x0 PUSH2 0xDBA DUP3 PUSH1 0x40 MLOAD DUP1 PUSH1 0x40 ADD PUSH1 0x40 MSTORE DUP1 PUSH1 0x20 DUP2 MSTORE PUSH1 0x20 ADD PUSH32 0x5361666545524332303A206C6F772D6C6576656C2063616C6C206661696C6564 DUP2 MSTORE POP DUP6 PUSH20 0xFFFFFFFFFFFFFFFFFFFFFFFFFFFFFFFFFFFFFFFF AND PUSH2 0xE1F SWAP1 SWAP3 SWAP2 SWAP1 PUSH4 0xFFFFFFFF AND JUMP JUMPDEST SWAP1 POP PUSH1 0x0 DUP2 MLOAD GT ISZERO PUSH2 0xE1A JUMPI DUP1 DUP1 PUSH1 0x20 ADD SWAP1 MLOAD DUP2 ADD SWAP1 PUSH2 0xDDA SWAP2 SWAP1 PUSH2 0x1E24 JUMP JUMPDEST PUSH2 0xE19 JUMPI PUSH1 0x40 MLOAD PUSH32 0x8C379A000000000000000000000000000000000000000000000000000000000 DUP2 MSTORE PUSH1 0x4 ADD PUSH2 0xE10 SWAP1 PUSH2 0x1EC3 JUMP JUMPDEST PUSH1 0x40 MLOAD DUP1 SWAP2 SUB SWAP1 REVERT JUMPDEST JUMPDEST POP POP POP JUMP JUMPDEST PUSH1 0x60 PUSH2 0xE2E DUP5 DUP5 PUSH1 0x0 DUP6 PUSH2 0xE37 JUMP JUMPDEST SWAP1 POP SWAP4 SWAP3 POP POP POP JUMP JUMPDEST PUSH1 0x60 DUP3 SELFBALANCE LT ISZERO PUSH2 0xE7C JUMPI PUSH1 0x40 MLOAD PUSH32 0x8C379A000000000000000000000000000000000000000000000000000000000 DUP2 MSTORE PUSH1 0x4 ADD PUSH2 0xE73 SWAP1 PUSH2 0x1F55 JUMP JUMPDEST PUSH1 0x40 MLOAD DUP1 SWAP2 SUB SWAP1 REVERT JUMPDEST PUSH2 0xE85 DUP6 PUSH2 0xF4B JUMP JUMPDEST PUSH2 0xEC4 JUMPI PUSH1 0x40 MLOAD PUSH32 0x8C379A000000000000000000000000000000000000000000000000000000000 DUP2 MSTORE PUSH1 0x4 ADD PUSH2 0xEBB SWAP1 PUSH2 0x1FC1 JUMP JUMPDEST PUSH1 0x40 MLOAD DUP1 SWAP2 SUB SWAP1 REVERT JUMPDEST PUSH1 0x0 DUP1 DUP7 PUSH20 0xFFFFFFFFFFFFFFFFFFFFFFFFFFFFFFFFFFFFFFFF AND DUP6 DUP8 PUSH1 0x40 MLOAD PUSH2 0xEED SWAP2 SWAP1 PUSH2 0x2028 JUMP JUMPDEST PUSH1 0x0 PUSH1 0x40 MLOAD DUP1 DUP4 SUB DUP2 DUP6 DUP8 GAS CALL SWAP3 POP POP POP RETURNDATASIZE DUP1 PUSH1 0x0 DUP2 EQ PUSH2 0xF2A JUMPI PUSH1 0x40 MLOAD SWAP2 POP PUSH1 0x1F NOT PUSH1 0x3F RETURNDATASIZE ADD AND DUP3 ADD PUSH1 0x40 MSTORE RETURNDATASIZE DUP3 MSTORE RETURNDATASIZE PUSH1 0x0 PUSH1 0x20 DUP5 ADD RETURNDATACOPY PUSH2 0xF2F JUMP JUMPDEST PUSH1 0x60 SWAP2 POP JUMPDEST POP SWAP2 POP SWAP2 POP PUSH2 0xF3F DUP3 DUP3 DUP7 PUSH2 0xF6E JUMP JUMPDEST SWAP3 POP POP POP SWAP5 SWAP4 POP POP POP POP JUMP JUMPDEST PUSH1 0x0 DUP1 DUP3 PUSH20 0xFFFFFFFFFFFFFFFFFFFFFFFFFFFFFFFFFFFFFFFF AND EXTCODESIZE GT SWAP1 POP SWAP2 SWAP1 POP JUMP JUMPDEST PUSH1 0x60 DUP4 ISZERO PUSH2 0xF7E JUMPI DUP3 SWAP1 POP PUSH2 0xFCE JUMP JUMPDEST PUSH1 0x0 DUP4 MLOAD GT ISZERO PUSH2 0xF91 JUMPI DUP3 MLOAD DUP1 DUP5 PUSH1 0x20 ADD REVERT JUMPDEST DUP2 PUSH1 0x40 MLOAD PUSH32 0x8C379A000000000000000000000000000000000000000000000000000000000 DUP2 MSTORE PUSH1 0x4 ADD PUSH2 0xFC5 SWAP2 SWAP1 PUSH2 0x19DF JUMP JUMPDEST PUSH1 0x40 MLOAD DUP1 SWAP2 SUB SWAP1 REVERT JUMPDEST SWAP4 SWAP3 POP POP POP JUMP JUMPDEST PUSH1 0x0 PUSH1 0x40 MLOAD SWAP1 POP SWAP1 JUMP JUMPDEST PUSH1 0x0 DUP1 REVERT JUMPDEST PUSH1 0x0 DUP1 REVERT JUMPDEST PUSH1 0x0 DUP1 REVERT JUMPDEST PUSH1 0x0 PUSH1 0x1F NOT PUSH1 0x1F DUP4 ADD AND SWAP1 POP SWAP2 SWAP1 POP JUMP JUMPDEST PUSH32 0x4E487B7100000000000000000000000000000000000000000000000000000000 PUSH1 0x0 MSTORE PUSH1 0x41 PUSH1 0x4 MSTORE PUSH1 0x24 PUSH1 0x0 REVERT JUMPDEST PUSH2 0x1037 DUP3 PUSH2 0xFEE JUMP JUMPDEST DUP2 ADD DUP2 DUP2 LT PUSH8 0xFFFFFFFFFFFFFFFF DUP3 GT OR ISZERO PUSH2 0x1056 JUMPI PUSH2 0x1055 PUSH2 0xFFF JUMP JUMPDEST JUMPDEST DUP1 PUSH1 0x40 MSTORE POP POP POP JUMP JUMPDEST PUSH1 0x0 PUSH2 0x1069 PUSH2 0xFD5 JUMP JUMPDEST SWAP1 POP PUSH2 0x1075 DUP3 DUP3 PUSH2 0x102E JUMP JUMPDEST SWAP2 SWAP1 POP JUMP JUMPDEST PUSH1 0x0 PUSH8 0xFFFFFFFFFFFFFFFF DUP3 GT ISZERO PUSH2 0x1095 JUMPI PUSH2 0x1094 PUSH2 0xFFF JUMP JUMPDEST JUMPDEST PUSH1 0x20 DUP3 MUL SWAP1 POP PUSH1 0x20 DUP2 ADD SWAP1 POP SWAP2 SWAP1 POP JUMP JUMPDEST PUSH1 0x0 DUP1 REVERT JUMPDEST PUSH1 0x0 DUP1 REVERT JUMPDEST PUSH1 0x0 PUSH8 0xFFFFFFFFFFFFFFFF DUP3 GT ISZERO PUSH2 0x10CB JUMPI PUSH2 0x10CA PUSH2 0xFFF JUMP JUMPDEST JUMPDEST PUSH2 0x10D4 DUP3 PUSH2 0xFEE JUMP JUMPDEST SWAP1 POP PUSH1 0x20 DUP2 ADD SWAP1 POP SWAP2 SWAP1 POP JUMP JUMPDEST DUP3 DUP2 DUP4 CALLDATACOPY PUSH1 0x0 DUP4 DUP4 ADD MSTORE POP POP POP JUMP JUMPDEST PUSH1 0x0 PUSH2 0x1103 PUSH2 0x10FE DUP5 PUSH2 0x10B0 JUMP JUMPDEST PUSH2 0x105F JUMP JUMPDEST SWAP1 POP DUP3 DUP2 MSTORE PUSH1 0x20 DUP2 ADD DUP5 DUP5 DUP5 ADD GT ISZERO PUSH2 0x111F JUMPI PUSH2 0x111E PUSH2 0x10AB JUMP JUMPDEST JUMPDEST PUSH2 0x112A DUP5 DUP3 DUP6 PUSH2 0x10E1 JUMP JUMPDEST POP SWAP4 SWAP3 POP POP POP JUMP JUMPDEST PUSH1 0x0 DUP3 PUSH1 0x1F DUP4 ADD SLT PUSH2 0x1147 JUMPI PUSH2 0x1146 PUSH2 0xFE9 JUMP JUMPDEST JUMPDEST DUP2 CALLDATALOAD PUSH2 0x1157 DUP5 DUP3 PUSH1 0x20 DUP7 ADD PUSH2 0x10F0 JUMP JUMPDEST SWAP2 POP POP SWAP3 SWAP2 POP POP JUMP JUMPDEST PUSH1 0x0 PUSH2 0x1173 PUSH2 0x116E DUP5 PUSH2 0x107A JUMP JUMPDEST PUSH2 0x105F JUMP JUMPDEST SWAP1 POP DUP1 DUP4 DUP3 MSTORE PUSH1 0x20 DUP3 ADD SWAP1 POP PUSH1 0x20 DUP5 MUL DUP4 ADD DUP6 DUP2 GT ISZERO PUSH2 0x1196 JUMPI PUSH2 0x1195 PUSH2 0x10A6 JUMP JUMPDEST JUMPDEST DUP4 JUMPDEST DUP2 DUP2 LT ISZERO PUSH2 0x11DD JUMPI DUP1 CALLDATALOAD PUSH8 0xFFFFFFFFFFFFFFFF DUP2 GT ISZERO PUSH2 0x11BB JUMPI PUSH2 0x11BA PUSH2 0xFE9 JUMP JUMPDEST JUMPDEST DUP1 DUP7 ADD PUSH2 0x11C8 DUP10 DUP3 PUSH2 0x1132 JUMP JUMPDEST DUP6 MSTORE PUSH1 0x20 DUP6 ADD SWAP5 POP POP POP PUSH1 0x20 DUP2 ADD SWAP1 POP PUSH2 0x1198 JUMP JUMPDEST POP POP POP SWAP4 SWAP3 POP POP POP JUMP JUMPDEST PUSH1 0x0 DUP3 PUSH1 0x1F DUP4 ADD SLT PUSH2 0x11FC JUMPI PUSH2 0x11FB PUSH2 0xFE9 JUMP JUMPDEST JUMPDEST DUP2 CALLDATALOAD PUSH2 0x120C DUP5 DUP3 PUSH1 0x20 DUP7 ADD PUSH2 0x1160 JUMP JUMPDEST SWAP2 POP POP SWAP3 SWAP2 POP POP JUMP JUMPDEST PUSH1 0x0 PUSH8 0xFFFFFFFFFFFFFFFF DUP3 GT ISZERO PUSH2 0x1230 JUMPI PUSH2 0x122F PUSH2 0xFFF JUMP JUMPDEST JUMPDEST PUSH1 0x20 DUP3 MUL SWAP1 POP PUSH1 0x20 DUP2 ADD SWAP1 POP SWAP2 SWAP1 POP JUMP JUMPDEST PUSH1 0x0 DUP2 SWAP1 POP SWAP2 SWAP1 POP JUMP JUMPDEST PUSH2 0x1254 DUP2 PUSH2 0x1241 JUMP JUMPDEST DUP2 EQ PUSH2 0x125F JUMPI PUSH1 0x0 DUP1 REVERT JUMPDEST POP JUMP JUMPDEST PUSH1 0x0 DUP2 CALLDATALOAD SWAP1 POP PUSH2 0x1271 DUP2 PUSH2 0x124B JUMP JUMPDEST SWAP3 SWAP2 POP POP JUMP JUMPDEST PUSH1 0x0 PUSH2 0x128A PUSH2 0x1285 DUP5 PUSH2 0x1215 JUMP JUMPDEST PUSH2 0x105F JUMP JUMPDEST SWAP1 POP DUP1 DUP4 DUP3 MSTORE PUSH1 0x20 DUP3 ADD SWAP1 POP PUSH1 0x20 DUP5 MUL DUP4 ADD DUP6 DUP2 GT ISZERO PUSH2 0x12AD JUMPI PUSH2 0x12AC PUSH2 0x10A6 JUMP JUMPDEST JUMPDEST DUP4 JUMPDEST DUP2 DUP2 LT ISZERO PUSH2 0x12D6 JUMPI DUP1 PUSH2 0x12C2 DUP9 DUP3 PUSH2 0x1262 JUMP JUMPDEST DUP5 MSTORE PUSH1 0x20 DUP5 ADD SWAP4 POP POP PUSH1 0x20 DUP2 ADD SWAP1 POP PUSH2 0x12AF JUMP JUMPDEST POP POP POP SWAP4 SWAP3 POP POP POP JUMP JUMPDEST PUSH1 0x0 DUP3 PUSH1 0x1F DUP4 ADD SLT PUSH2 0x12F5 JUMPI PUSH2 0x12F4 PUSH2 0xFE9 JUMP JUMPDEST JUMPDEST DUP2 CALLDATALOAD PUSH2 0x1305 DUP5 DUP3 PUSH1 0x20 DUP7 ADD PUSH2 0x1277 JUMP JUMPDEST SWAP2 POP POP SWAP3 SWAP2 POP POP JUMP JUMPDEST PUSH1 0x0 DUP1 PUSH1 0x40 DUP4 DUP6 SUB SLT ISZERO PUSH2 0x1325 JUMPI PUSH2 0x1324 PUSH2 0xFDF JUMP JUMPDEST JUMPDEST PUSH1 0x0 DUP4 ADD CALLDATALOAD PUSH8 0xFFFFFFFFFFFFFFFF DUP2 GT ISZERO PUSH2 0x1343 JUMPI PUSH2 0x1342 PUSH2 0xFE4 JUMP JUMPDEST JUMPDEST PUSH2 0x134F DUP6 DUP3 DUP7 ADD PUSH2 0x11E7 JUMP JUMPDEST SWAP3 POP POP PUSH1 0x20 DUP4 ADD CALLDATALOAD PUSH8 0xFFFFFFFFFFFFFFFF DUP2 GT ISZERO PUSH2 0x1370 JUMPI PUSH2 0x136F PUSH2 0xFE4 JUMP JUMPDEST JUMPDEST PUSH2 0x137C DUP6 DUP3 DUP7 ADD PUSH2 0x12E0 JUMP JUMPDEST SWAP2 POP POP SWAP3 POP SWAP3 SWAP1 POP JUMP JUMPDEST PUSH2 0x138F DUP2 PUSH2 0x1241 JUMP JUMPDEST DUP3 MSTORE POP POP JUMP JUMPDEST PUSH1 0x0 PUSH1 0x20 DUP3 ADD SWAP1 POP PUSH2 0x13AA PUSH1 0x0 DUP4 ADD DUP5 PUSH2 0x1386 JUMP JUMPDEST SWAP3 SWAP2 POP POP JUMP JUMPDEST PUSH1 0x0 PUSH20 0xFFFFFFFFFFFFFFFFFFFFFFFFFFFFFFFFFFFFFFFF DUP3 AND SWAP1 POP SWAP2 SWAP1 POP JUMP JUMPDEST PUSH1 0x0 PUSH2 0x13DB DUP3 PUSH2 0x13B0 JUMP JUMPDEST SWAP1 POP SWAP2 SWAP1 POP JUMP JUMPDEST PUSH2 0x13EB DUP2 PUSH2 0x13D0 JUMP JUMPDEST DUP2 EQ PUSH2 0x13F6 JUMPI PUSH1 0x0 DUP1 REVERT JUMPDEST POP JUMP JUMPDEST PUSH1 0x0 DUP2 CALLDATALOAD SWAP1 POP PUSH2 0x1408 DUP2 PUSH2 0x13E2 JUMP JUMPDEST SWAP3 SWAP2 POP POP JUMP JUMPDEST PUSH1 0x0 PUSH1 0x20 DUP3 DUP5 SUB SLT ISZERO PUSH2 0x1424 JUMPI PUSH2 0x1423 PUSH2 0xFDF JUMP JUMPDEST JUMPDEST PUSH1 0x0 PUSH2 0x1432 DUP5 DUP3 DUP6 ADD PUSH2 0x13F9 JUMP JUMPDEST SWAP2 POP POP SWAP3 SWAP2 POP POP JUMP JUMPDEST PUSH1 0x0 PUSH1 0x20 DUP3 DUP5 SUB SLT ISZERO PUSH2 0x1451 JUMPI PUSH2 0x1450 PUSH2 0xFDF JUMP JUMPDEST JUMPDEST PUSH1 0x0 PUSH2 0x145F DUP5 DUP3 DUP6 ADD PUSH2 0x1262 JUMP JUMPDEST SWAP2 POP POP SWAP3 SWAP2 POP POP JUMP JUMPDEST PUSH2 0x1471 DUP2 PUSH2 0x13D0 JUMP JUMPDEST DUP3 MSTORE POP POP JUMP JUMPDEST PUSH1 0x0 PUSH1 0x20 DUP3 ADD SWAP1 POP PUSH2 0x148C PUSH1 0x0 DUP4 ADD DUP5 PUSH2 0x1468 JUMP JUMPDEST SWAP3 SWAP2 POP POP JUMP JUMPDEST PUSH1 0x0 DUP1 REVERT JUMPDEST PUSH1 0x0 DUP1 DUP4 PUSH1 0x1F DUP5 ADD SLT PUSH2 0x14AD JUMPI PUSH2 0x14AC PUSH2 0xFE9 JUMP JUMPDEST JUMPDEST DUP3 CALLDATALOAD SWAP1 POP PUSH8 0xFFFFFFFFFFFFFFFF DUP2 GT ISZERO PUSH2 0x14CA JUMPI PUSH2 0x14C9 PUSH2 0x1492 JUMP JUMPDEST JUMPDEST PUSH1 0x20 DUP4 ADD SWAP2 POP DUP4 PUSH1 0x20 DUP3 MUL DUP4 ADD GT ISZERO PUSH2 0x14E6 JUMPI PUSH2 0x14E5 PUSH2 0x10A6 JUMP JUMPDEST JUMPDEST SWAP3 POP SWAP3 SWAP1 POP JUMP JUMPDEST PUSH1 0x0 DUP1 DUP4 PUSH1 0x1F DUP5 ADD SLT PUSH2 0x1503 JUMPI PUSH2 0x1502 PUSH2 0xFE9 JUMP JUMPDEST JUMPDEST DUP3 CALLDATALOAD SWAP1 POP PUSH8 0xFFFFFFFFFFFFFFFF DUP2 GT ISZERO PUSH2 0x1520 JUMPI PUSH2 0x151F PUSH2 0x1492 JUMP JUMPDEST JUMPDEST PUSH1 0x20 DUP4 ADD SWAP2 POP DUP4 PUSH1 0x20 DUP3 MUL DUP4 ADD GT ISZERO PUSH2 0x153C JUMPI PUSH2 0x153B PUSH2 0x10A6 JUMP JUMPDEST JUMPDEST SWAP3 POP SWAP3 SWAP1 POP JUMP JUMPDEST PUSH1 0x0 DUP1 PUSH1 0x0 DUP1 PUSH1 0x40 DUP6 DUP8 SUB SLT ISZERO PUSH2 0x155D JUMPI PUSH2 0x155C PUSH2 0xFDF JUMP JUMPDEST JUMPDEST PUSH1 0x0 DUP6 ADD CALLDATALOAD PUSH8 0xFFFFFFFFFFFFFFFF DUP2 GT ISZERO PUSH2 0x157B JUMPI PUSH2 0x157A PUSH2 0xFE4 JUMP JUMPDEST JUMPDEST PUSH2 0x1587 DUP8 DUP3 DUP9 ADD PUSH2 0x1497 JUMP JUMPDEST SWAP5 POP SWAP5 POP POP PUSH1 0x20 DUP6 ADD CALLDATALOAD PUSH8 0xFFFFFFFFFFFFFFFF DUP2 GT ISZERO PUSH2 0x15AA JUMPI PUSH2 0x15A9 PUSH2 0xFE4 JUMP JUMPDEST JUMPDEST PUSH2 0x15B6 DUP8 DUP3 DUP9 ADD PUSH2 0x14ED JUMP JUMPDEST SWAP3 POP SWAP3 POP POP SWAP3 SWAP6 SWAP2 SWAP5 POP SWAP3 POP JUMP JUMPDEST PUSH1 0x0 DUP2 SWAP1 POP SWAP2 SWAP1 POP JUMP JUMPDEST PUSH1 0x0 PUSH2 0x15E9 PUSH2 0x15E4 PUSH2 0x15DF DUP5 PUSH2 0x13B0 JUMP JUMPDEST PUSH2 0x15C4 JUMP JUMPDEST PUSH2 0x13B0 JUMP JUMPDEST SWAP1 POP SWAP2 SWAP1 POP JUMP JUMPDEST PUSH1 0x0 PUSH2 0x15FB DUP3 PUSH2 0x15CE JUMP JUMPDEST SWAP1 POP SWAP2 SWAP1 POP JUMP JUMPDEST PUSH1 0x0 PUSH2 0x160D DUP3 PUSH2 0x15F0 JUMP JUMPDEST SWAP1 POP SWAP2 SWAP1 POP JUMP JUMPDEST PUSH2 0x161D DUP2 PUSH2 0x1602 JUMP JUMPDEST DUP3 MSTORE POP POP JUMP JUMPDEST PUSH1 0x0 PUSH1 0x20 DUP3 ADD SWAP1 POP PUSH2 0x1638 PUSH1 0x0 DUP4 ADD DUP5 PUSH2 0x1614 JUMP JUMPDEST SWAP3 SWAP2 POP POP JUMP JUMPDEST PUSH1 0x0 DUP3 DUP3 MSTORE PUSH1 0x20 DUP3 ADD SWAP1 POP SWAP3 SWAP2 POP POP JUMP JUMPDEST PUSH32 0x506C6561736520636865636B2074686520646174612C20746865206E65777320 PUSH1 0x0 DUP3 ADD MSTORE PUSH32 0x494420616E6420646973747269627574696F6E207175616E7469747920617265 PUSH1 0x20 DUP3 ADD MSTORE PUSH32 0x20696E636F6E73697374656E7400000000000000000000000000000000000000 PUSH1 0x40 DUP3 ADD MSTORE POP JUMP JUMPDEST PUSH1 0x0 PUSH2 0x16D1 PUSH1 0x4D DUP4 PUSH2 0x163E JUMP JUMPDEST SWAP2 POP PUSH2 0x16DC DUP3 PUSH2 0x164F JUMP JUMPDEST PUSH1 0x60 DUP3 ADD SWAP1 POP SWAP2 SWAP1 POP JUMP JUMPDEST PUSH1 0x0 PUSH1 0x20 DUP3 ADD SWAP1 POP DUP2 DUP2 SUB PUSH1 0x0 DUP4 ADD MSTORE PUSH2 0x1700 DUP2 PUSH2 0x16C4 JUMP JUMPDEST SWAP1 POP SWAP2 SWAP1 POP JUMP JUMPDEST PUSH32 0x52656C656173653A206E6565642073657420546F6B656E204164647265737300 PUSH1 0x0 DUP3 ADD MSTORE POP JUMP JUMPDEST PUSH1 0x0 PUSH2 0x173D PUSH1 0x1F DUP4 PUSH2 0x163E JUMP JUMPDEST SWAP2 POP PUSH2 0x1748 DUP3 PUSH2 0x1707 JUMP JUMPDEST PUSH1 0x20 DUP3 ADD SWAP1 POP SWAP2 SWAP1 POP JUMP JUMPDEST PUSH1 0x0 PUSH1 0x20 DUP3 ADD SWAP1 POP DUP2 DUP2 SUB PUSH1 0x0 DUP4 ADD MSTORE PUSH2 0x176C DUP2 PUSH2 0x1730 JUMP JUMPDEST SWAP1 POP SWAP2 SWAP1 POP JUMP JUMPDEST PUSH32 0x52656C656173653A206E65656420736574204368616C6C656E6720436F6E7472 PUSH1 0x0 DUP3 ADD MSTORE PUSH32 0x6163742041646472657373000000000000000000000000000000000000000000 PUSH1 0x20 DUP3 ADD MSTORE POP JUMP JUMPDEST PUSH1 0x0 PUSH2 0x17CF PUSH1 0x2B DUP4 PUSH2 0x163E JUMP JUMPDEST SWAP2 POP PUSH2 0x17DA DUP3 PUSH2 0x1773 JUMP JUMPDEST PUSH1 0x40 DUP3 ADD SWAP1 POP SWAP2 SWAP1 POP JUMP JUMPDEST PUSH1 0x0 PUSH1 0x20 DUP3 ADD SWAP1 POP DUP2 DUP2 SUB PUSH1 0x0 DUP4 ADD MSTORE PUSH2 0x17FE DUP2 PUSH2 0x17C2 JUMP JUMPDEST SWAP1 POP SWAP2 SWAP1 POP JUMP JUMPDEST PUSH32 0x4E487B7100000000000000000000000000000000000000000000000000000000 PUSH1 0x0 MSTORE PUSH1 0x32 PUSH1 0x4 MSTORE PUSH1 0x24 PUSH1 0x0 REVERT JUMPDEST PUSH32 0x4E487B7100000000000000000000000000000000000000000000000000000000 PUSH1 0x0 MSTORE PUSH1 0x11 PUSH1 0x4 MSTORE PUSH1 0x24 PUSH1 0x0 REVERT JUMPDEST PUSH1 0x0 PUSH2 0x186E DUP3 PUSH2 0x1241 JUMP JUMPDEST SWAP2 POP PUSH2 0x1879 DUP4 PUSH2 0x1241 JUMP JUMPDEST SWAP3 POP DUP3 DUP3 ADD SWAP1 POP DUP1 DUP3 GT ISZERO PUSH2 0x1891 JUMPI PUSH2 0x1890 PUSH2 0x1834 JUMP JUMPDEST JUMPDEST SWAP3 SWAP2 POP POP JUMP JUMPDEST PUSH1 0x0 PUSH2 0x18A2 DUP3 PUSH2 0x1241 JUMP JUMPDEST SWAP2 POP PUSH32 0xFFFFFFFFFFFFFFFFFFFFFFFFFFFFFFFFFFFFFFFFFFFFFFFFFFFFFFFFFFFFFFFF DUP3 SUB PUSH2 0x18D4 JUMPI PUSH2 0x18D3 PUSH2 0x1834 JUMP JUMPDEST JUMPDEST PUSH1 0x1 DUP3 ADD SWAP1 POP SWAP2 SWAP1 POP JUMP JUMPDEST PUSH32 0x52656C656173653A20496E73756666696369656E7420746F74616C20616D6F75 PUSH1 0x0 DUP3 ADD MSTORE PUSH32 0x6E7420617661696C61626C6520666F7220646973747269627574696F6E000000 PUSH1 0x20 DUP3 ADD MSTORE POP JUMP JUMPDEST PUSH1 0x0 PUSH2 0x193B PUSH1 0x3D DUP4 PUSH2 0x163E JUMP JUMPDEST SWAP2 POP PUSH2 0x1946 DUP3 PUSH2 0x18DF JUMP JUMPDEST PUSH1 0x40 DUP3 ADD SWAP1 POP SWAP2 SWAP1 POP JUMP JUMPDEST PUSH1 0x0 PUSH1 0x20 DUP3 ADD SWAP1 POP DUP2 DUP2 SUB PUSH1 0x0 DUP4 ADD MSTORE PUSH2 0x196A DUP2 PUSH2 0x192E JUMP JUMPDEST SWAP1 POP SWAP2 SWAP1 POP JUMP JUMPDEST PUSH1 0x0 DUP2 MLOAD SWAP1 POP SWAP2 SWAP1 POP JUMP JUMPDEST PUSH1 0x0 JUMPDEST DUP4 DUP2 LT ISZERO PUSH2 0x199A JUMPI DUP1 DUP3 ADD MLOAD DUP2 DUP5 ADD MSTORE PUSH1 0x20 DUP2 ADD SWAP1 POP PUSH2 0x197F JUMP JUMPDEST PUSH1 0x0 DUP5 DUP5 ADD MSTORE POP POP POP POP JUMP JUMPDEST PUSH1 0x0 PUSH2 0x19B1 DUP3 PUSH2 0x1971 JUMP JUMPDEST PUSH2 0x19BB DUP2 DUP6 PUSH2 0x163E JUMP JUMPDEST SWAP4 POP PUSH2 0x19CB DUP2 DUP6 PUSH1 0x20 DUP7 ADD PUSH2 0x197C JUMP JUMPDEST PUSH2 0x19D4 DUP2 PUSH2 0xFEE JUMP JUMPDEST DUP5 ADD SWAP2 POP POP SWAP3 SWAP2 POP POP JUMP JUMPDEST PUSH1 0x0 PUSH1 0x20 DUP3 ADD SWAP1 POP DUP2 DUP2 SUB PUSH1 0x0 DUP4 ADD MSTORE PUSH2 0x19F9 DUP2 DUP5 PUSH2 0x19A6 JUMP JUMPDEST SWAP1 POP SWAP3 SWAP2 POP POP JUMP JUMPDEST PUSH1 0x0 DUP1 REVERT JUMPDEST PUSH1 0x0 DUP1 REVERT JUMPDEST PUSH1 0x0 PUSH2 0x1A1E PUSH2 0x1A19 DUP5 PUSH2 0x10B0 JUMP JUMPDEST PUSH2 0x105F JUMP JUMPDEST SWAP1 POP DUP3 DUP2 MSTORE PUSH1 0x20 DUP2 ADD DUP5 DUP5 DUP5 ADD GT ISZERO PUSH2 0x1A3A JUMPI PUSH2 0x1A39 PUSH2 0x10AB JUMP JUMPDEST JUMPDEST PUSH2 0x1A45 DUP5 DUP3 DUP6 PUSH2 0x197C JUMP JUMPDEST POP SWAP4 SWAP3 POP POP POP JUMP JUMPDEST PUSH1 0x0 DUP3 PUSH1 0x1F DUP4 ADD SLT PUSH2 0x1A62 JUMPI PUSH2 0x1A61 PUSH2 0xFE9 JUMP JUMPDEST JUMPDEST DUP2 MLOAD PUSH2 0x1A72 DUP5 DUP3 PUSH1 0x20 DUP7 ADD PUSH2 0x1A0B JUMP JUMPDEST SWAP2 POP POP SWAP3 SWAP2 POP POP JUMP JUMPDEST PUSH1 0x0 DUP2 MLOAD SWAP1 POP PUSH2 0x1A8A DUP2 PUSH2 0x13E2 JUMP JUMPDEST SWAP3 SWAP2 POP POP JUMP JUMPDEST PUSH1 0x0 DUP2 MLOAD SWAP1 POP PUSH2 0x1A9F DUP2 PUSH2 0x124B JUMP JUMPDEST SWAP3 SWAP2 POP POP JUMP JUMPDEST PUSH1 0x0 DUP2 ISZERO ISZERO SWAP1 POP SWAP2 SWAP1 POP JUMP JUMPDEST PUSH2 0x1ABA DUP2 PUSH2 0x1AA5 JUMP JUMPDEST DUP2 EQ PUSH2 0x1AC5 JUMPI PUSH1 0x0 DUP1 REVERT JUMPDEST POP JUMP JUMPDEST PUSH1 0x0 DUP2 MLOAD SWAP1 POP PUSH2 0x1AD7 DUP2 PUSH2 0x1AB1 JUMP JUMPDEST SWAP3 SWAP2 POP POP JUMP JUMPDEST PUSH1 0x0 PUSH2 0x180 DUP3 DUP5 SUB SLT ISZERO PUSH2 0x1AF4 JUMPI PUSH2 0x1AF3 PUSH2 0x1A01 JUMP JUMPDEST JUMPDEST PUSH2 0x1AFF PUSH2 0x180 PUSH2 0x105F JUMP JUMPDEST SWAP1 POP PUSH1 0x0 DUP3 ADD MLOAD PUSH8 0xFFFFFFFFFFFFFFFF DUP2 GT ISZERO PUSH2 0x1B1F JUMPI PUSH2 0x1B1E PUSH2 0x1A06 JUMP JUMPDEST JUMPDEST PUSH2 0x1B2B DUP5 DUP3 DUP6 ADD PUSH2 0x1A4D JUMP JUMPDEST PUSH1 0x0 DUP4 ADD MSTORE POP PUSH1 0x20 PUSH2 0x1B3F DUP5 DUP3 DUP6 ADD PUSH2 0x1A7B JUMP JUMPDEST PUSH1 0x20 DUP4 ADD MSTORE POP PUSH1 0x40 PUSH2 0x1B53 DUP5 DUP3 DUP6 ADD PUSH2 0x1A90 JUMP JUMPDEST PUSH1 0x40 DUP4 ADD MSTORE POP PUSH1 0x60 PUSH2 0x1B67 DUP5 DUP3 DUP6 ADD PUSH2 0x1A90 JUMP JUMPDEST PUSH1 0x60 DUP4 ADD MSTORE POP PUSH1 0x80 PUSH2 0x1B7B DUP5 DUP3 DUP6 ADD PUSH2 0x1AC8 JUMP JUMPDEST PUSH1 0x80 DUP4 ADD MSTORE POP PUSH1 0xA0 PUSH2 0x1B8F DUP5 DUP3 DUP6 ADD PUSH2 0x1AC8 JUMP JUMPDEST PUSH1 0xA0 DUP4 ADD MSTORE POP PUSH1 0xC0 PUSH2 0x1BA3 DUP5 DUP3 DUP6 ADD PUSH2 0x1AC8 JUMP JUMPDEST PUSH1 0xC0 DUP4 ADD MSTORE POP PUSH1 0xE0 PUSH2 0x1BB7 DUP5 DUP3 DUP6 ADD PUSH2 0x1A90 JUMP JUMPDEST PUSH1 0xE0 DUP4 ADD MSTORE POP PUSH2 0x100 PUSH2 0x1BCC DUP5 DUP3 DUP6 ADD PUSH2 0x1AC8 JUMP JUMPDEST PUSH2 0x100 DUP4 ADD MSTORE POP PUSH2 0x120 PUSH2 0x1BE2 DUP5 DUP3 DUP6 ADD PUSH2 0x1A90 JUMP JUMPDEST PUSH2 0x120 DUP4 ADD MSTORE POP PUSH2 0x140 PUSH2 0x1BF8 DUP5 DUP3 DUP6 ADD PUSH2 0x1A90 JUMP JUMPDEST PUSH2 0x140 DUP4 ADD MSTORE POP PUSH2 0x160 PUSH2 0x1C0E DUP5 DUP3 DUP6 ADD PUSH2 0x1A90 JUMP JUMPDEST PUSH2 0x160 DUP4 ADD MSTORE POP SWAP3 SWAP2 POP POP JUMP JUMPDEST PUSH1 0x0 PUSH1 0x20 DUP3 DUP5 SUB SLT ISZERO PUSH2 0x1C31 JUMPI PUSH2 0x1C30 PUSH2 0xFDF JUMP JUMPDEST JUMPDEST PUSH1 0x0 DUP3 ADD MLOAD PUSH8 0xFFFFFFFFFFFFFFFF DUP2 GT ISZERO PUSH2 0x1C4F JUMPI PUSH2 0x1C4E PUSH2 0xFE4 JUMP JUMPDEST JUMPDEST PUSH2 0x1C5B DUP5 DUP3 DUP6 ADD PUSH2 0x1ADD JUMP JUMPDEST SWAP2 POP POP SWAP3 SWAP2 POP POP JUMP JUMPDEST PUSH32 0x4E6F207175616E7469747920746F2073656E6400000000000000000000000000 PUSH1 0x0 DUP3 ADD MSTORE POP JUMP JUMPDEST PUSH1 0x0 PUSH2 0x1C9A PUSH1 0x13 DUP4 PUSH2 0x163E JUMP JUMPDEST SWAP2 POP PUSH2 0x1CA5 DUP3 PUSH2 0x1C64 JUMP JUMPDEST PUSH1 0x20 DUP3 ADD SWAP1 POP SWAP2 SWAP1 POP JUMP JUMPDEST PUSH1 0x0 PUSH1 0x20 DUP3 ADD SWAP1 POP DUP2 DUP2 SUB PUSH1 0x0 DUP4 ADD MSTORE PUSH2 0x1CC9 DUP2 PUSH2 0x1C8D JUMP JUMPDEST SWAP1 POP SWAP2 SWAP1 POP JUMP JUMPDEST PUSH32 0x546865206E756D626572206F66206169722064726F7073206578636565647320 PUSH1 0x0 DUP3 ADD MSTORE PUSH32 0x746865206461696C792072656C6561736520616D6F756E740000000000000000 PUSH1 0x20 DUP3 ADD MSTORE POP JUMP JUMPDEST PUSH1 0x0 PUSH2 0x1D2C PUSH1 0x38 DUP4 PUSH2 0x163E JUMP JUMPDEST SWAP2 POP PUSH2 0x1D37 DUP3 PUSH2 0x1CD0 JUMP JUMPDEST PUSH1 0x40 DUP3 ADD SWAP1 POP SWAP2 SWAP1 POP JUMP JUMPDEST PUSH1 0x0 PUSH1 0x20 DUP3 ADD SWAP1 POP DUP2 DUP2 SUB PUSH1 0x0 DUP4 ADD MSTORE PUSH2 0x1D5B DUP2 PUSH2 0x1D1F JUMP JUMPDEST SWAP1 POP SWAP2 SWAP1 POP JUMP JUMPDEST PUSH1 0x0 PUSH1 0x20 DUP3 DUP5 SUB SLT ISZERO PUSH2 0x1D78 JUMPI PUSH2 0x1D77 PUSH2 0xFDF JUMP JUMPDEST JUMPDEST PUSH1 0x0 PUSH2 0x1D86 DUP5 DUP3 DUP6 ADD PUSH2 0x1A90 JUMP JUMPDEST SWAP2 POP POP SWAP3 SWAP2 POP POP JUMP JUMPDEST PUSH1 0x0 PUSH1 0x40 DUP3 ADD SWAP1 POP PUSH2 0x1DA4 PUSH1 0x0 DUP4 ADD DUP6 PUSH2 0x1468 JUMP JUMPDEST PUSH2 0x1DB1 PUSH1 0x20 DUP4 ADD DUP5 PUSH2 0x1386 JUMP JUMPDEST SWAP4 SWAP3 POP POP POP JUMP JUMPDEST PUSH32 0x536166654D6174683A206164646974696F6E206F766572666C6F770000000000 PUSH1 0x0 DUP3 ADD MSTORE POP JUMP JUMPDEST PUSH1 0x0 PUSH2 0x1DEE PUSH1 0x1B DUP4 PUSH2 0x163E JUMP JUMPDEST SWAP2 POP PUSH2 0x1DF9 DUP3 PUSH2 0x1DB8 JUMP JUMPDEST PUSH1 0x20 DUP3 ADD SWAP1 POP SWAP2 SWAP1 POP JUMP JUMPDEST PUSH1 0x0 PUSH1 0x20 DUP3 ADD SWAP1 POP DUP2 DUP2 SUB PUSH1 0x0 DUP4 ADD MSTORE PUSH2 0x1E1D DUP2 PUSH2 0x1DE1 JUMP JUMPDEST SWAP1 POP SWAP2 SWAP1 POP JUMP JUMPDEST PUSH1 0x0 PUSH1 0x20 DUP3 DUP5 SUB SLT ISZERO PUSH2 0x1E3A JUMPI PUSH2 0x1E39 PUSH2 0xFDF JUMP JUMPDEST JUMPDEST PUSH1 0x0 PUSH2 0x1E48 DUP5 DUP3 DUP6 ADD PUSH2 0x1AC8 JUMP JUMPDEST SWAP2 POP POP SWAP3 SWAP2 POP POP JUMP JUMPDEST PUSH32 0x5361666545524332303A204552433230206F7065726174696F6E20646964206E PUSH1 0x0 DUP3 ADD MSTORE PUSH32 0x6F74207375636365656400000000000000000000000000000000000000000000 PUSH1 0x20 DUP3 ADD MSTORE POP JUMP JUMPDEST PUSH1 0x0 PUSH2 0x1EAD PUSH1 0x2A DUP4 PUSH2 0x163E JUMP JUMPDEST SWAP2 POP PUSH2 0x1EB8 DUP3 PUSH2 0x1E51 JUMP JUMPDEST PUSH1 0x40 DUP3 ADD SWAP1 POP SWAP2 SWAP1 POP JUMP JUMPDEST PUSH1 0x0 PUSH1 0x20 DUP3 ADD SWAP1 POP DUP2 DUP2 SUB PUSH1 0x0 DUP4 ADD MSTORE PUSH2 0x1EDC DUP2 PUSH2 0x1EA0 JUMP JUMPDEST SWAP1 POP SWAP2 SWAP1 POP JUMP JUMPDEST PUSH32 0x416464726573733A20696E73756666696369656E742062616C616E636520666F PUSH1 0x0 DUP3 ADD MSTORE PUSH32 0x722063616C6C0000000000000000000000000000000000000000000000000000 PUSH1 0x20 DUP3 ADD MSTORE POP JUMP JUMPDEST PUSH1 0x0 PUSH2 0x1F3F PUSH1 0x26 DUP4 PUSH2 0x163E JUMP JUMPDEST SWAP2 POP PUSH2 0x1F4A DUP3 PUSH2 0x1EE3 JUMP JUMPDEST PUSH1 0x40 DUP3 ADD SWAP1 POP SWAP2 SWAP1 POP JUMP JUMPDEST PUSH1 0x0 PUSH1 0x20 DUP3 ADD SWAP1 POP DUP2 DUP2 SUB PUSH1 0x0 DUP4 ADD MSTORE PUSH2 0x1F6E DUP2 PUSH2 0x1F32 JUMP JUMPDEST SWAP1 POP SWAP2 SWAP1 POP JUMP JUMPDEST PUSH32 0x416464726573733A2063616C6C20746F206E6F6E2D636F6E7472616374000000 PUSH1 0x0 DUP3 ADD MSTORE POP JUMP JUMPDEST PUSH1 0x0 PUSH2 0x1FAB PUSH1 0x1D DUP4 PUSH2 0x163E JUMP JUMPDEST SWAP2 POP PUSH2 0x1FB6 DUP3 PUSH2 0x1F75 JUMP JUMPDEST PUSH1 0x20 DUP3 ADD SWAP1 POP SWAP2 SWAP1 POP JUMP JUMPDEST PUSH1 0x0 PUSH1 0x20 DUP3 ADD SWAP1 POP DUP2 DUP2 SUB PUSH1 0x0 DUP4 ADD MSTORE PUSH2 0x1FDA DUP2 PUSH2 0x1F9E JUMP JUMPDEST SWAP1 POP SWAP2 SWAP1 POP JUMP JUMPDEST PUSH1 0x0 DUP2 MLOAD SWAP1 POP SWAP2 SWAP1 POP JUMP JUMPDEST PUSH1 0x0 DUP2 SWAP1 POP SWAP3 SWAP2 POP POP JUMP JUMPDEST PUSH1 0x0 PUSH2 0x2002 DUP3 PUSH2 0x1FE1 JUMP JUMPDEST PUSH2 0x200C DUP2 DUP6 PUSH2 0x1FEC JUMP JUMPDEST SWAP4 POP PUSH2 0x201C DUP2 DUP6 PUSH1 0x20 DUP7 ADD PUSH2 0x197C JUMP JUMPDEST DUP1 DUP5 ADD SWAP2 POP POP SWAP3 SWAP2 POP POP JUMP JUMPDEST PUSH1 0x0 PUSH2 0x2034 DUP3 DUP5 PUSH2 0x1FF7 JUMP JUMPDEST SWAP2 POP DUP2 SWAP1 POP SWAP3 SWAP2 POP POP JUMP INVALID LOG2 PUSH5 0x6970667358 0x22 SLT KECCAK256 0xCD 0xE5 CODESIZE 0xFB SMOD 0xE5 SUB 0xC4 0xD8 CODESIZE PUSH6 0xA8B2C9FFD110 0x5F 0x4B MSTORE DUP8 SHL DUP15 MSIZE 0xAA SUB ADDRESS SHR SWAP1 JUMPI PUSH19 0xA864736F6C6343000813003300000000000000 "
		},
		"gasEstimates": {
			"creation": {
				"codeDepositCost": "1661800",
				"executionCost": "48115",
				"totalCost": "1709915"
			},
			"external": {
				"burn(uint256)": "infinite",
				"changeOwner(address)": "26914",
				"decimals()": "2460",
				"distributionToSpecify(address[],uint256[])": "infinite",
				"getContractAddrss()": "2589",
				"getLockContractAddress()": "2589",
				"getTimestamp()": "382",
				"getTotalReleased()": "2526",
				"sendMasterTokenLock(string[],uint256[])": "infinite",
				"setChallengContract(address)": "24788",
				"setLockContractAddress(address)": "24766",
				"setTokenAddress(address)": "26960",
				"token()": "infinite",
				"tokenBalance()": "infinite"
			}
		},
		"methodIdentifiers": {
			"burn(uint256)": "42966c68",
			"changeOwner(address)": "a6f9dae1",
			"decimals()": "313ce567",
			"distributionToSpecify(address[],uint256[])": "5459b8a3",
			"getContractAddrss()": "47a58626",
			"getLockContractAddress()": "a39865e7",
			"getTimestamp()": "188ec356",
			"getTotalReleased()": "4b14c0ef",
			"sendMasterTokenLock(string[],uint256[])": "0af8668f",
			"setChallengContract(address)": "c52c31fa",
			"setLockContractAddress(address)": "c4529e37",
			"setTokenAddress(address)": "26a4e8d2",
			"token()": "fc0c546a",
			"tokenBalance()": "9e1a4d19"
		}
	},
	"abi": [
		{
			"inputs": [],
			"stateMutability": "nonpayable",
			"type": "constructor"
		},
		{
			"inputs": [
				{
					"internalType": "uint256",
					"name": "burnAmount",
					"type": "uint256"
				}
			],
			"name": "burn",
			"outputs": [],
			"stateMutability": "nonpayable",
			"type": "function"
		},
		{
			"inputs": [
				{
					"internalType": "address",
					"name": "newOwner",
					"type": "address"
				}
			],
			"name": "changeOwner",
			"outputs": [],
			"stateMutability": "nonpayable",
			"type": "function"
		},
		{
			"inputs": [],
			"name": "decimals",
			"outputs": [
				{
					"internalType": "uint256",
					"name": "",
					"type": "uint256"
				}
			],
			"stateMutability": "view",
			"type": "function"
		},
		{
			"inputs": [
				{
					"internalType": "address[]",
					"name": "recipients",
					"type": "address[]"
				},
				{
					"internalType": "uint256[]",
					"name": "values",
					"type": "uint256[]"
				}
			],
			"name": "distributionToSpecify",
			"outputs": [],
			"stateMutability": "nonpayable",
			"type": "function"
		},
		{
			"inputs": [],
			"name": "getContractAddrss",
			"outputs": [
				{
					"internalType": "address",
					"name": "",
					"type": "address"
				}
			],
			"stateMutability": "view",
			"type": "function"
		},
		{
			"inputs": [],
			"name": "getLockContractAddress",
			"outputs": [
				{
					"internalType": "address",
					"name": "",
					"type": "address"
				}
			],
			"stateMutability": "view",
			"type": "function"
		},
		{
			"inputs": [],
			"name": "getTimestamp",
			"outputs": [
				{
					"internalType": "uint256",
					"name": "",
					"type": "uint256"
				}
			],
			"stateMutability": "view",
			"type": "function"
		},
		{
			"inputs": [],
			"name": "getTotalReleased",
			"outputs": [
				{
					"internalType": "uint256",
					"name": "",
					"type": "uint256"
				}
			],
			"stateMutability": "view",
			"type": "function"
		},
		{
			"inputs": [
				{
					"internalType": "string[]",
					"name": "themeId",
					"type": "string[]"
				},
				{
					"internalType": "uint256[]",
					"name": "values",
					"type": "uint256[]"
				}
			],
			"name": "sendMasterTokenLock",
			"outputs": [],
			"stateMutability": "nonpayable",
			"type": "function"
		},
		{
			"inputs": [
				{
					"internalType": "address",
					"name": "contractAddrss",
					"type": "address"
				}
			],
			"name": "setChallengContract",
			"outputs": [],
			"stateMutability": "nonpayable",
			"type": "function"
		},
		{
			"inputs": [
				{
					"internalType": "address",
					"name": "lockContractAddress",
					"type": "address"
				}
			],
			"name": "setLockContractAddress",
			"outputs": [],
			"stateMutability": "nonpayable",
			"type": "function"
		},
		{
			"inputs": [
				{
					"internalType": "address",
					"name": "tokenAddress",
					"type": "address"
				}
			],
			"name": "setTokenAddress",
			"outputs": [],
			"stateMutability": "nonpayable",
			"type": "function"
		},
		{
			"inputs": [],
			"name": "token",
			"outputs": [
				{
					"internalType": "contract IERC20",
					"name": "",
					"type": "address"
				}
			],
			"stateMutability": "view",
			"type": "function"
		},
		{
			"inputs": [],
			"name": "tokenBalance",
			"outputs": [
				{
					"internalType": "uint256",
					"name": "",
					"type": "uint256"
				}
			],
			"stateMutability": "view",
			"type": "function"
		}
	]
}