{
	"data": {
		"bytecode": {
			"linkReferences": {},
			"object": "6080604052601260035534801561001557600080fd5b5033600560006101000a81548173ffffffffffffffffffffffffffffffffffffffff021916908373ffffffffffffffffffffffffffffffffffffffff160217905550611ee7806100666000396000f3fe608060405234801561001057600080fd5b50600436106100cf5760003560e01c80635459b8a31161008c578063a6f9dae111610066578063a6f9dae1146101dc578063c4529e37146101f8578063c52c31fa14610214578063fc0c546a14610230576100cf565b80635459b8a3146101845780639e1a4d19146101a0578063a39865e7146101be576100cf565b80630af8668f146100d4578063188ec356146100f057806326a4e8d21461010e578063313ce5671461012a57806347a58626146101485780634b14c0ef14610166575b600080fd5b6100ee60048036038101906100e9919061120b565b61024e565b005b6100f8610604565b6040516101059190611292565b60405180910390f35b6101286004803603810190610123919061130b565b61060c565b005b6101326106a9565b60405161013f9190611292565b60405180910390f35b6101506106b3565b60405161015d9190611347565b60405180910390f35b61016e6106dd565b60405161017b9190611292565b60405180910390f35b61019e60048036038101906101999190611413565b6106e7565b005b6101a8610923565b6040516101b59190611292565b60405180910390f35b6101c66109f5565b6040516101d39190611347565b60405180910390f35b6101f660048036038101906101f1919061130b565b610a1f565b005b610212600480360381019061020d919061130b565b610abd565b005b61022e6004803603810190610229919061130b565b610b01565b005b610238610b45565b60405161024591906114f3565b60405180910390f35b600560009054906101000a900473ffffffffffffffffffffffffffffffffffffffff1673ffffffffffffffffffffffffffffffffffffffff163373ffffffffffffffffffffffffffffffffffffffff16146102a857600080fd5b80518251146102ec576040517f08c379a00000000000000000000000000000000000000000000000000000000081526004016102e3906115b7565b60405180910390fd5b600073ffffffffffffffffffffffffffffffffffffffff1661030c610b45565b73ffffffffffffffffffffffffffffffffffffffff1603610362576040517f08c379a000000000000000000000000000000000000000000000000000000000815260040161035990611623565b60405180910390fd5b600073ffffffffffffffffffffffffffffffffffffffff166103826106b3565b73ffffffffffffffffffffffffffffffffffffffff16036103d8576040517f08c379a00000000000000000000000000000000000000000000000000000000081526004016103cf906116b5565b60405180910390fd5b6000805b8251811015610420578281815181106103f8576103f76116d5565b5b60200260200101518261040b9190611733565b9150808061041890611767565b9150506103dc565b508061042a610923565b101561046b576040517f08c379a000000000000000000000000000000000000000000000000000000000815260040161046290611821565b60405180910390fd5b60006104756106b3565b905060005b84518110156105fd5760008273ffffffffffffffffffffffffffffffffffffffff16636441f9d08784815181106104b4576104b36116d5565b5b60200260200101516040518263ffffffff1660e01b81526004016104d891906118af565b600060405180830381865afa1580156104f5573d6000803e3d6000fd5b505050506040513d6000823e3d601f19601f8201168201806040525081019061051e9190611aeb565b9050600081602001519050600086848151811061053e5761053d6116d5565b5b60200260200101519050600073ffffffffffffffffffffffffffffffffffffffff168273ffffffffffffffffffffffffffffffffffffffff16146105e7576105d230600260009054906101000a900473ffffffffffffffffffffffffffffffffffffffff16836105ac610b45565b73ffffffffffffffffffffffffffffffffffffffff16610b6e909392919063ffffffff16565b806004546105e09190611733565b6004819055505b50505080806105f590611767565b91505061047a565b5050505050565b600042905090565b600560009054906101000a900473ffffffffffffffffffffffffffffffffffffffff1673ffffffffffffffffffffffffffffffffffffffff163373ffffffffffffffffffffffffffffffffffffffff161461066657600080fd5b806000806101000a81548173ffffffffffffffffffffffffffffffffffffffff021916908373ffffffffffffffffffffffffffffffffffffffff16021790555050565b6000600354905090565b6000600160009054906101000a900473ffffffffffffffffffffffffffffffffffffffff16905090565b6000600454905090565b600073ffffffffffffffffffffffffffffffffffffffff1660008054906101000a900473ffffffffffffffffffffffffffffffffffffffff1673ffffffffffffffffffffffffffffffffffffffff1603610776576040517f08c379a000000000000000000000000000000000000000000000000000000000815260040161076d90611623565b60405180910390fd5b8181905084849050146107be576040517f08c379a00000000000000000000000000000000000000000000000000000000081526004016107b5906115b7565b60405180910390fd5b6000805b8585905081101561080e576107f98484838181106107e3576107e26116d5565b5b9050602002013583610bf790919063ffffffff16565b9150808061080690611767565b9150506107c2565b5080610818610923565b1015610859576040517f08c379a000000000000000000000000000000000000000000000000000000000815260040161085090611ba6565b60405180910390fd5b60005b8585905081101561091b576108db3087878481811061087e5761087d6116d5565b5b9050602002016020810190610893919061130b565b8686858181106108a6576108a56116d5565b5b905060200201356108b5610b45565b73ffffffffffffffffffffffffffffffffffffffff16610b6e909392919063ffffffff16565b8383828181106108ee576108ed6116d5565b5b905060200201356004546109029190611733565b600481905550808061091390611767565b91505061085c565b505050505050565b60008073ffffffffffffffffffffffffffffffffffffffff16610944610b45565b73ffffffffffffffffffffffffffffffffffffffff160361096857600090506109f2565b6000610972610b45565b73ffffffffffffffffffffffffffffffffffffffff166370a08231306040518263ffffffff1660e01b81526004016109aa9190611347565b602060405180830381865afa1580156109c7573d6000803e3d6000fd5b505050506040513d601f19601f820116820180604052508101906109eb9190611bc6565b9050809150505b90565b6000600260009054906101000a900473ffffffffffffffffffffffffffffffffffffffff16905090565b600560009054906101000a900473ffffffffffffffffffffffffffffffffffffffff1673ffffffffffffffffffffffffffffffffffffffff163373ffffffffffffffffffffffffffffffffffffffff1614610a7957600080fd5b80600560006101000a81548173ffffffffffffffffffffffffffffffffffffffff021916908373ffffffffffffffffffffffffffffffffffffffff16021790555050565b80600260006101000a81548173ffffffffffffffffffffffffffffffffffffffff021916908373ffffffffffffffffffffffffffffffffffffffff16021790555050565b80600160006101000a81548173ffffffffffffffffffffffffffffffffffffffff021916908373ffffffffffffffffffffffffffffffffffffffff16021790555050565b60008060009054906101000a900473ffffffffffffffffffffffffffffffffffffffff16905090565b610bf1846323b872dd60e01b858585604051602401610b8f93929190611bf3565b604051602081830303815290604052907bffffffffffffffffffffffffffffffffffffffffffffffffffffffff19166020820180517bffffffffffffffffffffffffffffffffffffffffffffffffffffffff8381831617835250505050610c55565b50505050565b6000808284610c069190611733565b905083811015610c4b576040517f08c379a0000000000000000000000000000000000000000000000000000000008152600401610c4290611c76565b60405180910390fd5b8091505092915050565b6000610cb7826040518060400160405280602081526020017f5361666545524332303a206c6f772d6c6576656c2063616c6c206661696c65648152508573ffffffffffffffffffffffffffffffffffffffff16610d1c9092919063ffffffff16565b9050600081511115610d175780806020019051810190610cd79190611c96565b610d16576040517f08c379a0000000000000000000000000000000000000000000000000000000008152600401610d0d90611d35565b60405180910390fd5b5b505050565b6060610d2b8484600085610d34565b90509392505050565b606082471015610d79576040517f08c379a0000000000000000000000000000000000000000000000000000000008152600401610d7090611dc7565b60405180910390fd5b610d8285610e48565b610dc1576040517f08c379a0000000000000000000000000000000000000000000000000000000008152600401610db890611e33565b60405180910390fd5b6000808673ffffffffffffffffffffffffffffffffffffffff168587604051610dea9190611e9a565b60006040518083038185875af1925050503d8060008114610e27576040519150601f19603f3d011682016040523d82523d6000602084013e610e2c565b606091505b5091509150610e3c828286610e6b565b92505050949350505050565b6000808273ffffffffffffffffffffffffffffffffffffffff163b119050919050565b60608315610e7b57829050610ecb565b600083511115610e8e5782518084602001fd5b816040517f08c379a0000000000000000000000000000000000000000000000000000000008152600401610ec291906118af565b60405180910390fd5b9392505050565b6000604051905090565b600080fd5b600080fd5b600080fd5b6000601f19601f8301169050919050565b7f4e487b7100000000000000000000000000000000000000000000000000000000600052604160045260246000fd5b610f3482610eeb565b810181811067ffffffffffffffff82111715610f5357610f52610efc565b5b80604052505050565b6000610f66610ed2565b9050610f728282610f2b565b919050565b600067ffffffffffffffff821115610f9257610f91610efc565b5b602082029050602081019050919050565b600080fd5b600080fd5b600067ffffffffffffffff821115610fc857610fc7610efc565b5b610fd182610eeb565b9050602081019050919050565b82818337600083830152505050565b6000611000610ffb84610fad565b610f5c565b90508281526020810184848401111561101c5761101b610fa8565b5b611027848285610fde565b509392505050565b600082601f83011261104457611043610ee6565b5b8135611054848260208601610fed565b91505092915050565b600061107061106b84610f77565b610f5c565b9050808382526020820190506020840283018581111561109357611092610fa3565b5b835b818110156110da57803567ffffffffffffffff8111156110b8576110b7610ee6565b5b8086016110c5898261102f565b85526020850194505050602081019050611095565b5050509392505050565b600082601f8301126110f9576110f8610ee6565b5b813561110984826020860161105d565b91505092915050565b600067ffffffffffffffff82111561112d5761112c610efc565b5b602082029050602081019050919050565b6000819050919050565b6111518161113e565b811461115c57600080fd5b50565b60008135905061116e81611148565b92915050565b600061118761118284611112565b610f5c565b905080838252602082019050602084028301858111156111aa576111a9610fa3565b5b835b818110156111d357806111bf888261115f565b8452602084019350506020810190506111ac565b5050509392505050565b600082601f8301126111f2576111f1610ee6565b5b8135611202848260208601611174565b91505092915050565b6000806040838503121561122257611221610edc565b5b600083013567ffffffffffffffff8111156112405761123f610ee1565b5b61124c858286016110e4565b925050602083013567ffffffffffffffff81111561126d5761126c610ee1565b5b611279858286016111dd565b9150509250929050565b61128c8161113e565b82525050565b60006020820190506112a76000830184611283565b92915050565b600073ffffffffffffffffffffffffffffffffffffffff82169050919050565b60006112d8826112ad565b9050919050565b6112e8816112cd565b81146112f357600080fd5b50565b600081359050611305816112df565b92915050565b60006020828403121561132157611320610edc565b5b600061132f848285016112f6565b91505092915050565b611341816112cd565b82525050565b600060208201905061135c6000830184611338565b92915050565b600080fd5b60008083601f84011261137d5761137c610ee6565b5b8235905067ffffffffffffffff81111561139a57611399611362565b5b6020830191508360208202830111156113b6576113b5610fa3565b5b9250929050565b60008083601f8401126113d3576113d2610ee6565b5b8235905067ffffffffffffffff8111156113f0576113ef611362565b5b60208301915083602082028301111561140c5761140b610fa3565b5b9250929050565b6000806000806040858703121561142d5761142c610edc565b5b600085013567ffffffffffffffff81111561144b5761144a610ee1565b5b61145787828801611367565b9450945050602085013567ffffffffffffffff81111561147a57611479610ee1565b5b611486878288016113bd565b925092505092959194509250565b6000819050919050565b60006114b96114b46114af846112ad565b611494565b6112ad565b9050919050565b60006114cb8261149e565b9050919050565b60006114dd826114c0565b9050919050565b6114ed816114d2565b82525050565b600060208201905061150860008301846114e4565b92915050565b600082825260208201905092915050565b7f506c6561736520636865636b2074686520646174612c20746865206e6577732060008201527f494420616e6420646973747269627574696f6e207175616e746974792061726560208201527f20696e636f6e73697374656e7400000000000000000000000000000000000000604082015250565b60006115a1604d8361150e565b91506115ac8261151f565b606082019050919050565b600060208201905081810360008301526115d081611594565b9050919050565b7f52656c656173653a206e6565642073657420546f6b656e204164647265737300600082015250565b600061160d601f8361150e565b9150611618826115d7565b602082019050919050565b6000602082019050818103600083015261163c81611600565b9050919050565b7f52656c656173653a206e65656420736574204368616c6c656e6720436f6e747260008201527f6163742041646472657373000000000000000000000000000000000000000000602082015250565b600061169f602b8361150e565b91506116aa82611643565b604082019050919050565b600060208201905081810360008301526116ce81611692565b9050919050565b7f4e487b7100000000000000000000000000000000000000000000000000000000600052603260045260246000fd5b7f4e487b7100000000000000000000000000000000000000000000000000000000600052601160045260246000fd5b600061173e8261113e565b91506117498361113e565b925082820190508082111561176157611760611704565b5b92915050565b60006117728261113e565b91507fffffffffffffffffffffffffffffffffffffffffffffffffffffffffffffffff82036117a4576117a3611704565b5b600182019050919050565b7f52656c656173653a20496e73756666696369656e7420746f74616c20616d6f7560008201527f6e7420617661696c61626c6520666f7220646973747269627574696f6e000000602082015250565b600061180b603d8361150e565b9150611816826117af565b604082019050919050565b6000602082019050818103600083015261183a816117fe565b9050919050565b600081519050919050565b60005b8381101561186a57808201518184015260208101905061184f565b60008484015250505050565b600061188182611841565b61188b818561150e565b935061189b81856020860161184c565b6118a481610eeb565b840191505092915050565b600060208201905081810360008301526118c98184611876565b905092915050565b600080fd5b600080fd5b60006118ee6118e984610fad565b610f5c565b90508281526020810184848401111561190a57611909610fa8565b5b61191584828561184c565b509392505050565b600082601f83011261193257611931610ee6565b5b81516119428482602086016118db565b91505092915050565b60008151905061195a816112df565b92915050565b60008151905061196f81611148565b92915050565b60008115159050919050565b61198a81611975565b811461199557600080fd5b50565b6000815190506119a781611981565b92915050565b600061018082840312156119c4576119c36118d1565b5b6119cf610180610f5c565b9050600082015167ffffffffffffffff8111156119ef576119ee6118d6565b5b6119fb8482850161191d565b6000830152506020611a0f8482850161194b565b6020830152506040611a2384828501611960565b6040830152506060611a3784828501611960565b6060830152506080611a4b84828501611998565b60808301525060a0611a5f84828501611998565b60a08301525060c0611a7384828501611998565b60c08301525060e0611a8784828501611960565b60e083015250610100611a9c84828501611998565b61010083015250610120611ab284828501611960565b61012083015250610140611ac884828501611960565b61014083015250610160611ade84828501611960565b6101608301525092915050565b600060208284031215611b0157611b00610edc565b5b600082015167ffffffffffffffff811115611b1f57611b1e610ee1565b5b611b2b848285016119ad565b91505092915050565b7f546865206e756d626572206f66206169722064726f707320657863656564732060008201527f746865206461696c792072656c6561736520616d6f756e740000000000000000602082015250565b6000611b9060388361150e565b9150611b9b82611b34565b604082019050919050565b60006020820190508181036000830152611bbf81611b83565b9050919050565b600060208284031215611bdc57611bdb610edc565b5b6000611bea84828501611960565b91505092915050565b6000606082019050611c086000830186611338565b611c156020830185611338565b611c226040830184611283565b949350505050565b7f536166654d6174683a206164646974696f6e206f766572666c6f770000000000600082015250565b6000611c60601b8361150e565b9150611c6b82611c2a565b602082019050919050565b60006020820190508181036000830152611c8f81611c53565b9050919050565b600060208284031215611cac57611cab610edc565b5b6000611cba84828501611998565b91505092915050565b7f5361666545524332303a204552433230206f7065726174696f6e20646964206e60008201527f6f74207375636365656400000000000000000000000000000000000000000000602082015250565b6000611d1f602a8361150e565b9150611d2a82611cc3565b604082019050919050565b60006020820190508181036000830152611d4e81611d12565b9050919050565b7f416464726573733a20696e73756666696369656e742062616c616e636520666f60008201527f722063616c6c0000000000000000000000000000000000000000000000000000602082015250565b6000611db160268361150e565b9150611dbc82611d55565b604082019050919050565b60006020820190508181036000830152611de081611da4565b9050919050565b7f416464726573733a2063616c6c20746f206e6f6e2d636f6e7472616374000000600082015250565b6000611e1d601d8361150e565b9150611e2882611de7565b602082019050919050565b60006020820190508181036000830152611e4c81611e10565b9050919050565b600081519050919050565b600081905092915050565b6000611e7482611e53565b611e7e8185611e5e565b9350611e8e81856020860161184c565b80840191505092915050565b6000611ea68284611e69565b91508190509291505056fea26469706673582212201624cd2713786db2a5bb5e5428335c93bc469867d40f56f00d4cb287102a43a264736f6c63430008130033",
			"opcodes": "PUSH1 0x80 PUSH1 0x40 MSTORE PUSH1 0x12 PUSH1 0x3 SSTORE CALLVALUE DUP1 ISZERO PUSH2 0x15 JUMPI PUSH1 0x0 DUP1 REVERT JUMPDEST POP CALLER PUSH1 0x5 PUSH1 0x0 PUSH2 0x100 EXP DUP2 SLOAD DUP2 PUSH20 0xFFFFFFFFFFFFFFFFFFFFFFFFFFFFFFFFFFFFFFFF MUL NOT AND SWAP1 DUP4 PUSH20 0xFFFFFFFFFFFFFFFFFFFFFFFFFFFFFFFFFFFFFFFF AND MUL OR SWAP1 SSTORE POP PUSH2 0x1EE7 DUP1 PUSH2 0x66 PUSH1 0x0 CODECOPY PUSH1 0x0 RETURN INVALID PUSH1 0x80 PUSH1 0x40 MSTORE CALLVALUE DUP1 ISZERO PUSH2 0x10 JUMPI PUSH1 0x0 DUP1 REVERT JUMPDEST POP PUSH1 0x4 CALLDATASIZE LT PUSH2 0xCF JUMPI PUSH1 0x0 CALLDATALOAD PUSH1 0xE0 SHR DUP1 PUSH4 0x5459B8A3 GT PUSH2 0x8C JUMPI DUP1 PUSH4 0xA6F9DAE1 GT PUSH2 0x66 JUMPI DUP1 PUSH4 0xA6F9DAE1 EQ PUSH2 0x1DC JUMPI DUP1 PUSH4 0xC4529E37 EQ PUSH2 0x1F8 JUMPI DUP1 PUSH4 0xC52C31FA EQ PUSH2 0x214 JUMPI DUP1 PUSH4 0xFC0C546A EQ PUSH2 0x230 JUMPI PUSH2 0xCF JUMP JUMPDEST DUP1 PUSH4 0x5459B8A3 EQ PUSH2 0x184 JUMPI DUP1 PUSH4 0x9E1A4D19 EQ PUSH2 0x1A0 JUMPI DUP1 PUSH4 0xA39865E7 EQ PUSH2 0x1BE JUMPI PUSH2 0xCF JUMP JUMPDEST DUP1 PUSH4 0xAF8668F EQ PUSH2 0xD4 JUMPI DUP1 PUSH4 0x188EC356 EQ PUSH2 0xF0 JUMPI DUP1 PUSH4 0x26A4E8D2 EQ PUSH2 0x10E JUMPI DUP1 PUSH4 0x313CE567 EQ PUSH2 0x12A JUMPI DUP1 PUSH4 0x47A58626 EQ PUSH2 0x148 JUMPI DUP1 PUSH4 0x4B14C0EF EQ PUSH2 0x166 JUMPI JUMPDEST PUSH1 0x0 DUP1 REVERT JUMPDEST PUSH2 0xEE PUSH1 0x4 DUP1 CALLDATASIZE SUB DUP2 ADD SWAP1 PUSH2 0xE9 SWAP2 SWAP1 PUSH2 0x120B JUMP JUMPDEST PUSH2 0x24E JUMP JUMPDEST STOP JUMPDEST PUSH2 0xF8 PUSH2 0x604 JUMP JUMPDEST PUSH1 0x40 MLOAD PUSH2 0x105 SWAP2 SWAP1 PUSH2 0x1292 JUMP JUMPDEST PUSH1 0x40 MLOAD DUP1 SWAP2 SUB SWAP1 RETURN JUMPDEST PUSH2 0x128 PUSH1 0x4 DUP1 CALLDATASIZE SUB DUP2 ADD SWAP1 PUSH2 0x123 SWAP2 SWAP1 PUSH2 0x130B JUMP JUMPDEST PUSH2 0x60C JUMP JUMPDEST STOP JUMPDEST PUSH2 0x132 PUSH2 0x6A9 JUMP JUMPDEST PUSH1 0x40 MLOAD PUSH2 0x13F SWAP2 SWAP1 PUSH2 0x1292 JUMP JUMPDEST PUSH1 0x40 MLOAD DUP1 SWAP2 SUB SWAP1 RETURN JUMPDEST PUSH2 0x150 PUSH2 0x6B3 JUMP JUMPDEST PUSH1 0x40 MLOAD PUSH2 0x15D SWAP2 SWAP1 PUSH2 0x1347 JUMP JUMPDEST PUSH1 0x40 MLOAD DUP1 SWAP2 SUB SWAP1 RETURN JUMPDEST PUSH2 0x16E PUSH2 0x6DD JUMP JUMPDEST PUSH1 0x40 MLOAD PUSH2 0x17B SWAP2 SWAP1 PUSH2 0x1292 JUMP JUMPDEST PUSH1 0x40 MLOAD DUP1 SWAP2 SUB SWAP1 RETURN JUMPDEST PUSH2 0x19E PUSH1 0x4 DUP1 CALLDATASIZE SUB DUP2 ADD SWAP1 PUSH2 0x199 SWAP2 SWAP1 PUSH2 0x1413 JUMP JUMPDEST PUSH2 0x6E7 JUMP JUMPDEST STOP JUMPDEST PUSH2 0x1A8 PUSH2 0x923 JUMP JUMPDEST PUSH1 0x40 MLOAD PUSH2 0x1B5 SWAP2 SWAP1 PUSH2 0x1292 JUMP JUMPDEST PUSH1 0x40 MLOAD DUP1 SWAP2 SUB SWAP1 RETURN JUMPDEST PUSH2 0x1C6 PUSH2 0x9F5 JUMP JUMPDEST PUSH1 0x40 MLOAD PUSH2 0x1D3 SWAP2 SWAP1 PUSH2 0x1347 JUMP JUMPDEST PUSH1 0x40 MLOAD DUP1 SWAP2 SUB SWAP1 RETURN JUMPDEST PUSH2 0x1F6 PUSH1 0x4 DUP1 CALLDATASIZE SUB DUP2 ADD SWAP1 PUSH2 0x1F1 SWAP2 SWAP1 PUSH2 0x130B JUMP JUMPDEST PUSH2 0xA1F JUMP JUMPDEST STOP JUMPDEST PUSH2 0x212 PUSH1 0x4 DUP1 CALLDATASIZE SUB DUP2 ADD SWAP1 PUSH2 0x20D SWAP2 SWAP1 PUSH2 0x130B JUMP JUMPDEST PUSH2 0xABD JUMP JUMPDEST STOP JUMPDEST PUSH2 0x22E PUSH1 0x4 DUP1 CALLDATASIZE SUB DUP2 ADD SWAP1 PUSH2 0x229 SWAP2 SWAP1 PUSH2 0x130B JUMP JUMPDEST PUSH2 0xB01 JUMP JUMPDEST STOP JUMPDEST PUSH2 0x238 PUSH2 0xB45 JUMP JUMPDEST PUSH1 0x40 MLOAD PUSH2 0x245 SWAP2 SWAP1 PUSH2 0x14F3 JUMP JUMPDEST PUSH1 0x40 MLOAD DUP1 SWAP2 SUB SWAP1 RETURN JUMPDEST PUSH1 0x5 PUSH1 0x0 SWAP1 SLOAD SWAP1 PUSH2 0x100 EXP SWAP1 DIV PUSH20 0xFFFFFFFFFFFFFFFFFFFFFFFFFFFFFFFFFFFFFFFF AND PUSH20 0xFFFFFFFFFFFFFFFFFFFFFFFFFFFFFFFFFFFFFFFF AND CALLER PUSH20 0xFFFFFFFFFFFFFFFFFFFFFFFFFFFFFFFFFFFFFFFF AND EQ PUSH2 0x2A8 JUMPI PUSH1 0x0 DUP1 REVERT JUMPDEST DUP1 MLOAD DUP3 MLOAD EQ PUSH2 0x2EC JUMPI PUSH1 0x40 MLOAD PUSH32 0x8C379A000000000000000000000000000000000000000000000000000000000 DUP2 MSTORE PUSH1 0x4 ADD PUSH2 0x2E3 SWAP1 PUSH2 0x15B7 JUMP JUMPDEST PUSH1 0x40 MLOAD DUP1 SWAP2 SUB SWAP1 REVERT JUMPDEST PUSH1 0x0 PUSH20 0xFFFFFFFFFFFFFFFFFFFFFFFFFFFFFFFFFFFFFFFF AND PUSH2 0x30C PUSH2 0xB45 JUMP JUMPDEST PUSH20 0xFFFFFFFFFFFFFFFFFFFFFFFFFFFFFFFFFFFFFFFF AND SUB PUSH2 0x362 JUMPI PUSH1 0x40 MLOAD PUSH32 0x8C379A000000000000000000000000000000000000000000000000000000000 DUP2 MSTORE PUSH1 0x4 ADD PUSH2 0x359 SWAP1 PUSH2 0x1623 JUMP JUMPDEST PUSH1 0x40 MLOAD DUP1 SWAP2 SUB SWAP1 REVERT JUMPDEST PUSH1 0x0 PUSH20 0xFFFFFFFFFFFFFFFFFFFFFFFFFFFFFFFFFFFFFFFF AND PUSH2 0x382 PUSH2 0x6B3 JUMP JUMPDEST PUSH20 0xFFFFFFFFFFFFFFFFFFFFFFFFFFFFFFFFFFFFFFFF AND SUB PUSH2 0x3D8 JUMPI PUSH1 0x40 MLOAD PUSH32 0x8C379A000000000000000000000000000000000000000000000000000000000 DUP2 MSTORE PUSH1 0x4 ADD PUSH2 0x3CF SWAP1 PUSH2 0x16B5 JUMP JUMPDEST PUSH1 0x40 MLOAD DUP1 SWAP2 SUB SWAP1 REVERT JUMPDEST PUSH1 0x0 DUP1 JUMPDEST DUP3 MLOAD DUP2 LT ISZERO PUSH2 0x420 JUMPI DUP3 DUP2 DUP2 MLOAD DUP2 LT PUSH2 0x3F8 JUMPI PUSH2 0x3F7 PUSH2 0x16D5 JUMP JUMPDEST JUMPDEST PUSH1 0x20 MUL PUSH1 0x20 ADD ADD MLOAD DUP3 PUSH2 0x40B SWAP2 SWAP1 PUSH2 0x1733 JUMP JUMPDEST SWAP2 POP DUP1 DUP1 PUSH2 0x418 SWAP1 PUSH2 0x1767 JUMP JUMPDEST SWAP2 POP POP PUSH2 0x3DC JUMP JUMPDEST POP DUP1 PUSH2 0x42A PUSH2 0x923 JUMP JUMPDEST LT ISZERO PUSH2 0x46B JUMPI PUSH1 0x40 MLOAD PUSH32 0x8C379A000000000000000000000000000000000000000000000000000000000 DUP2 MSTORE PUSH1 0x4 ADD PUSH2 0x462 SWAP1 PUSH2 0x1821 JUMP JUMPDEST PUSH1 0x40 MLOAD DUP1 SWAP2 SUB SWAP1 REVERT JUMPDEST PUSH1 0x0 PUSH2 0x475 PUSH2 0x6B3 JUMP JUMPDEST SWAP1 POP PUSH1 0x0 JUMPDEST DUP5 MLOAD DUP2 LT ISZERO PUSH2 0x5FD JUMPI PUSH1 0x0 DUP3 PUSH20 0xFFFFFFFFFFFFFFFFFFFFFFFFFFFFFFFFFFFFFFFF AND PUSH4 0x6441F9D0 DUP8 DUP5 DUP2 MLOAD DUP2 LT PUSH2 0x4B4 JUMPI PUSH2 0x4B3 PUSH2 0x16D5 JUMP JUMPDEST JUMPDEST PUSH1 0x20 MUL PUSH1 0x20 ADD ADD MLOAD PUSH1 0x40 MLOAD DUP3 PUSH4 0xFFFFFFFF AND PUSH1 0xE0 SHL DUP2 MSTORE PUSH1 0x4 ADD PUSH2 0x4D8 SWAP2 SWAP1 PUSH2 0x18AF JUMP JUMPDEST PUSH1 0x0 PUSH1 0x40 MLOAD DUP1 DUP4 SUB DUP2 DUP7 GAS STATICCALL ISZERO DUP1 ISZERO PUSH2 0x4F5 JUMPI RETURNDATASIZE PUSH1 0x0 DUP1 RETURNDATACOPY RETURNDATASIZE PUSH1 0x0 REVERT JUMPDEST POP POP POP POP PUSH1 0x40 MLOAD RETURNDATASIZE PUSH1 0x0 DUP3 RETURNDATACOPY RETURNDATASIZE PUSH1 0x1F NOT PUSH1 0x1F DUP3 ADD AND DUP3 ADD DUP1 PUSH1 0x40 MSTORE POP DUP2 ADD SWAP1 PUSH2 0x51E SWAP2 SWAP1 PUSH2 0x1AEB JUMP JUMPDEST SWAP1 POP PUSH1 0x0 DUP2 PUSH1 0x20 ADD MLOAD SWAP1 POP PUSH1 0x0 DUP7 DUP5 DUP2 MLOAD DUP2 LT PUSH2 0x53E JUMPI PUSH2 0x53D PUSH2 0x16D5 JUMP JUMPDEST JUMPDEST PUSH1 0x20 MUL PUSH1 0x20 ADD ADD MLOAD SWAP1 POP PUSH1 0x0 PUSH20 0xFFFFFFFFFFFFFFFFFFFFFFFFFFFFFFFFFFFFFFFF AND DUP3 PUSH20 0xFFFFFFFFFFFFFFFFFFFFFFFFFFFFFFFFFFFFFFFF AND EQ PUSH2 0x5E7 JUMPI PUSH2 0x5D2 ADDRESS PUSH1 0x2 PUSH1 0x0 SWAP1 SLOAD SWAP1 PUSH2 0x100 EXP SWAP1 DIV PUSH20 0xFFFFFFFFFFFFFFFFFFFFFFFFFFFFFFFFFFFFFFFF AND DUP4 PUSH2 0x5AC PUSH2 0xB45 JUMP JUMPDEST PUSH20 0xFFFFFFFFFFFFFFFFFFFFFFFFFFFFFFFFFFFFFFFF AND PUSH2 0xB6E SWAP1 SWAP4 SWAP3 SWAP2 SWAP1 PUSH4 0xFFFFFFFF AND JUMP JUMPDEST DUP1 PUSH1 0x4 SLOAD PUSH2 0x5E0 SWAP2 SWAP1 PUSH2 0x1733 JUMP JUMPDEST PUSH1 0x4 DUP2 SWAP1 SSTORE POP JUMPDEST POP POP POP DUP1 DUP1 PUSH2 0x5F5 SWAP1 PUSH2 0x1767 JUMP JUMPDEST SWAP2 POP POP PUSH2 0x47A JUMP JUMPDEST POP POP POP POP POP JUMP JUMPDEST PUSH1 0x0 TIMESTAMP SWAP1 POP SWAP1 JUMP JUMPDEST PUSH1 0x5 PUSH1 0x0 SWAP1 SLOAD SWAP1 PUSH2 0x100 EXP SWAP1 DIV PUSH20 0xFFFFFFFFFFFFFFFFFFFFFFFFFFFFFFFFFFFFFFFF AND PUSH20 0xFFFFFFFFFFFFFFFFFFFFFFFFFFFFFFFFFFFFFFFF AND CALLER PUSH20 0xFFFFFFFFFFFFFFFFFFFFFFFFFFFFFFFFFFFFFFFF AND EQ PUSH2 0x666 JUMPI PUSH1 0x0 DUP1 REVERT JUMPDEST DUP1 PUSH1 0x0 DUP1 PUSH2 0x100 EXP DUP2 SLOAD DUP2 PUSH20 0xFFFFFFFFFFFFFFFFFFFFFFFFFFFFFFFFFFFFFFFF MUL NOT AND SWAP1 DUP4 PUSH20 0xFFFFFFFFFFFFFFFFFFFFFFFFFFFFFFFFFFFFFFFF AND MUL OR SWAP1 SSTORE POP POP JUMP JUMPDEST PUSH1 0x0 PUSH1 0x3 SLOAD SWAP1 POP SWAP1 JUMP JUMPDEST PUSH1 0x0 PUSH1 0x1 PUSH1 0x0 SWAP1 SLOAD SWAP1 PUSH2 0x100 EXP SWAP1 DIV PUSH20 0xFFFFFFFFFFFFFFFFFFFFFFFFFFFFFFFFFFFFFFFF AND SWAP1 POP SWAP1 JUMP JUMPDEST PUSH1 0x0 PUSH1 0x4 SLOAD SWAP1 POP SWAP1 JUMP JUMPDEST PUSH1 0x0 PUSH20 0xFFFFFFFFFFFFFFFFFFFFFFFFFFFFFFFFFFFFFFFF AND PUSH1 0x0 DUP1 SLOAD SWAP1 PUSH2 0x100 EXP SWAP1 DIV PUSH20 0xFFFFFFFFFFFFFFFFFFFFFFFFFFFFFFFFFFFFFFFF AND PUSH20 0xFFFFFFFFFFFFFFFFFFFFFFFFFFFFFFFFFFFFFFFF AND SUB PUSH2 0x776 JUMPI PUSH1 0x40 MLOAD PUSH32 0x8C379A000000000000000000000000000000000000000000000000000000000 DUP2 MSTORE PUSH1 0x4 ADD PUSH2 0x76D SWAP1 PUSH2 0x1623 JUMP JUMPDEST PUSH1 0x40 MLOAD DUP1 SWAP2 SUB SWAP1 REVERT JUMPDEST DUP2 DUP2 SWAP1 POP DUP5 DUP5 SWAP1 POP EQ PUSH2 0x7BE JUMPI PUSH1 0x40 MLOAD PUSH32 0x8C379A000000000000000000000000000000000000000000000000000000000 DUP2 MSTORE PUSH1 0x4 ADD PUSH2 0x7B5 SWAP1 PUSH2 0x15B7 JUMP JUMPDEST PUSH1 0x40 MLOAD DUP1 SWAP2 SUB SWAP1 REVERT JUMPDEST PUSH1 0x0 DUP1 JUMPDEST DUP6 DUP6 SWAP1 POP DUP2 LT ISZERO PUSH2 0x80E JUMPI PUSH2 0x7F9 DUP5 DUP5 DUP4 DUP2 DUP2 LT PUSH2 0x7E3 JUMPI PUSH2 0x7E2 PUSH2 0x16D5 JUMP JUMPDEST JUMPDEST SWAP1 POP PUSH1 0x20 MUL ADD CALLDATALOAD DUP4 PUSH2 0xBF7 SWAP1 SWAP2 SWAP1 PUSH4 0xFFFFFFFF AND JUMP JUMPDEST SWAP2 POP DUP1 DUP1 PUSH2 0x806 SWAP1 PUSH2 0x1767 JUMP JUMPDEST SWAP2 POP POP PUSH2 0x7C2 JUMP JUMPDEST POP DUP1 PUSH2 0x818 PUSH2 0x923 JUMP JUMPDEST LT ISZERO PUSH2 0x859 JUMPI PUSH1 0x40 MLOAD PUSH32 0x8C379A000000000000000000000000000000000000000000000000000000000 DUP2 MSTORE PUSH1 0x4 ADD PUSH2 0x850 SWAP1 PUSH2 0x1BA6 JUMP JUMPDEST PUSH1 0x40 MLOAD DUP1 SWAP2 SUB SWAP1 REVERT JUMPDEST PUSH1 0x0 JUMPDEST DUP6 DUP6 SWAP1 POP DUP2 LT ISZERO PUSH2 0x91B JUMPI PUSH2 0x8DB ADDRESS DUP8 DUP8 DUP5 DUP2 DUP2 LT PUSH2 0x87E JUMPI PUSH2 0x87D PUSH2 0x16D5 JUMP JUMPDEST JUMPDEST SWAP1 POP PUSH1 0x20 MUL ADD PUSH1 0x20 DUP2 ADD SWAP1 PUSH2 0x893 SWAP2 SWAP1 PUSH2 0x130B JUMP JUMPDEST DUP7 DUP7 DUP6 DUP2 DUP2 LT PUSH2 0x8A6 JUMPI PUSH2 0x8A5 PUSH2 0x16D5 JUMP JUMPDEST JUMPDEST SWAP1 POP PUSH1 0x20 MUL ADD CALLDATALOAD PUSH2 0x8B5 PUSH2 0xB45 JUMP JUMPDEST PUSH20 0xFFFFFFFFFFFFFFFFFFFFFFFFFFFFFFFFFFFFFFFF AND PUSH2 0xB6E SWAP1 SWAP4 SWAP3 SWAP2 SWAP1 PUSH4 0xFFFFFFFF AND JUMP JUMPDEST DUP4 DUP4 DUP3 DUP2 DUP2 LT PUSH2 0x8EE JUMPI PUSH2 0x8ED PUSH2 0x16D5 JUMP JUMPDEST JUMPDEST SWAP1 POP PUSH1 0x20 MUL ADD CALLDATALOAD PUSH1 0x4 SLOAD PUSH2 0x902 SWAP2 SWAP1 PUSH2 0x1733 JUMP JUMPDEST PUSH1 0x4 DUP2 SWAP1 SSTORE POP DUP1 DUP1 PUSH2 0x913 SWAP1 PUSH2 0x1767 JUMP JUMPDEST SWAP2 POP POP PUSH2 0x85C JUMP JUMPDEST POP POP POP POP POP POP JUMP JUMPDEST PUSH1 0x0 DUP1 PUSH20 0xFFFFFFFFFFFFFFFFFFFFFFFFFFFFFFFFFFFFFFFF AND PUSH2 0x944 PUSH2 0xB45 JUMP JUMPDEST PUSH20 0xFFFFFFFFFFFFFFFFFFFFFFFFFFFFFFFFFFFFFFFF AND SUB PUSH2 0x968 JUMPI PUSH1 0x0 SWAP1 POP PUSH2 0x9F2 JUMP JUMPDEST PUSH1 0x0 PUSH2 0x972 PUSH2 0xB45 JUMP JUMPDEST PUSH20 0xFFFFFFFFFFFFFFFFFFFFFFFFFFFFFFFFFFFFFFFF AND PUSH4 0x70A08231 ADDRESS PUSH1 0x40 MLOAD DUP3 PUSH4 0xFFFFFFFF AND PUSH1 0xE0 SHL DUP2 MSTORE PUSH1 0x4 ADD PUSH2 0x9AA SWAP2 SWAP1 PUSH2 0x1347 JUMP JUMPDEST PUSH1 0x20 PUSH1 0x40 MLOAD DUP1 DUP4 SUB DUP2 DUP7 GAS STATICCALL ISZERO DUP1 ISZERO PUSH2 0x9C7 JUMPI RETURNDATASIZE PUSH1 0x0 DUP1 RETURNDATACOPY RETURNDATASIZE PUSH1 0x0 REVERT JUMPDEST POP POP POP POP PUSH1 0x40 MLOAD RETURNDATASIZE PUSH1 0x1F NOT PUSH1 0x1F DUP3 ADD AND DUP3 ADD DUP1 PUSH1 0x40 MSTORE POP DUP2 ADD SWAP1 PUSH2 0x9EB SWAP2 SWAP1 PUSH2 0x1BC6 JUMP JUMPDEST SWAP1 POP DUP1 SWAP2 POP POP JUMPDEST SWAP1 JUMP JUMPDEST PUSH1 0x0 PUSH1 0x2 PUSH1 0x0 SWAP1 SLOAD SWAP1 PUSH2 0x100 EXP SWAP1 DIV PUSH20 0xFFFFFFFFFFFFFFFFFFFFFFFFFFFFFFFFFFFFFFFF AND SWAP1 POP SWAP1 JUMP JUMPDEST PUSH1 0x5 PUSH1 0x0 SWAP1 SLOAD SWAP1 PUSH2 0x100 EXP SWAP1 DIV PUSH20 0xFFFFFFFFFFFFFFFFFFFFFFFFFFFFFFFFFFFFFFFF AND PUSH20 0xFFFFFFFFFFFFFFFFFFFFFFFFFFFFFFFFFFFFFFFF AND CALLER PUSH20 0xFFFFFFFFFFFFFFFFFFFFFFFFFFFFFFFFFFFFFFFF AND EQ PUSH2 0xA79 JUMPI PUSH1 0x0 DUP1 REVERT JUMPDEST DUP1 PUSH1 0x5 PUSH1 0x0 PUSH2 0x100 EXP DUP2 SLOAD DUP2 PUSH20 0xFFFFFFFFFFFFFFFFFFFFFFFFFFFFFFFFFFFFFFFF MUL NOT AND SWAP1 DUP4 PUSH20 0xFFFFFFFFFFFFFFFFFFFFFFFFFFFFFFFFFFFFFFFF AND MUL OR SWAP1 SSTORE POP POP JUMP JUMPDEST DUP1 PUSH1 0x2 PUSH1 0x0 PUSH2 0x100 EXP DUP2 SLOAD DUP2 PUSH20 0xFFFFFFFFFFFFFFFFFFFFFFFFFFFFFFFFFFFFFFFF MUL NOT AND SWAP1 DUP4 PUSH20 0xFFFFFFFFFFFFFFFFFFFFFFFFFFFFFFFFFFFFFFFF AND MUL OR SWAP1 SSTORE POP POP JUMP JUMPDEST DUP1 PUSH1 0x1 PUSH1 0x0 PUSH2 0x100 EXP DUP2 SLOAD DUP2 PUSH20 0xFFFFFFFFFFFFFFFFFFFFFFFFFFFFFFFFFFFFFFFF MUL NOT AND SWAP1 DUP4 PUSH20 0xFFFFFFFFFFFFFFFFFFFFFFFFFFFFFFFFFFFFFFFF AND MUL OR SWAP1 SSTORE POP POP JUMP JUMPDEST PUSH1 0x0 DUP1 PUSH1 0x0 SWAP1 SLOAD SWAP1 PUSH2 0x100 EXP SWAP1 DIV PUSH20 0xFFFFFFFFFFFFFFFFFFFFFFFFFFFFFFFFFFFFFFFF AND SWAP1 POP SWAP1 JUMP JUMPDEST PUSH2 0xBF1 DUP5 PUSH4 0x23B872DD PUSH1 0xE0 SHL DUP6 DUP6 DUP6 PUSH1 0x40 MLOAD PUSH1 0x24 ADD PUSH2 0xB8F SWAP4 SWAP3 SWAP2 SWAP1 PUSH2 0x1BF3 JUMP JUMPDEST PUSH1 0x40 MLOAD PUSH1 0x20 DUP2 DUP4 SUB SUB DUP2 MSTORE SWAP1 PUSH1 0x40 MSTORE SWAP1 PUSH28 0xFFFFFFFFFFFFFFFFFFFFFFFFFFFFFFFFFFFFFFFFFFFFFFFFFFFFFFFF NOT AND PUSH1 0x20 DUP3 ADD DUP1 MLOAD PUSH28 0xFFFFFFFFFFFFFFFFFFFFFFFFFFFFFFFFFFFFFFFFFFFFFFFFFFFFFFFF DUP4 DUP2 DUP4 AND OR DUP4 MSTORE POP POP POP POP PUSH2 0xC55 JUMP JUMPDEST POP POP POP POP JUMP JUMPDEST PUSH1 0x0 DUP1 DUP3 DUP5 PUSH2 0xC06 SWAP2 SWAP1 PUSH2 0x1733 JUMP JUMPDEST SWAP1 POP DUP4 DUP2 LT ISZERO PUSH2 0xC4B JUMPI PUSH1 0x40 MLOAD PUSH32 0x8C379A000000000000000000000000000000000000000000000000000000000 DUP2 MSTORE PUSH1 0x4 ADD PUSH2 0xC42 SWAP1 PUSH2 0x1C76 JUMP JUMPDEST PUSH1 0x40 MLOAD DUP1 SWAP2 SUB SWAP1 REVERT JUMPDEST DUP1 SWAP2 POP POP SWAP3 SWAP2 POP POP JUMP JUMPDEST PUSH1 0x0 PUSH2 0xCB7 DUP3 PUSH1 0x40 MLOAD DUP1 PUSH1 0x40 ADD PUSH1 0x40 MSTORE DUP1 PUSH1 0x20 DUP2 MSTORE PUSH1 0x20 ADD PUSH32 0x5361666545524332303A206C6F772D6C6576656C2063616C6C206661696C6564 DUP2 MSTORE POP DUP6 PUSH20 0xFFFFFFFFFFFFFFFFFFFFFFFFFFFFFFFFFFFFFFFF AND PUSH2 0xD1C SWAP1 SWAP3 SWAP2 SWAP1 PUSH4 0xFFFFFFFF AND JUMP JUMPDEST SWAP1 POP PUSH1 0x0 DUP2 MLOAD GT ISZERO PUSH2 0xD17 JUMPI DUP1 DUP1 PUSH1 0x20 ADD SWAP1 MLOAD DUP2 ADD SWAP1 PUSH2 0xCD7 SWAP2 SWAP1 PUSH2 0x1C96 JUMP JUMPDEST PUSH2 0xD16 JUMPI PUSH1 0x40 MLOAD PUSH32 0x8C379A000000000000000000000000000000000000000000000000000000000 DUP2 MSTORE PUSH1 0x4 ADD PUSH2 0xD0D SWAP1 PUSH2 0x1D35 JUMP JUMPDEST PUSH1 0x40 MLOAD DUP1 SWAP2 SUB SWAP1 REVERT JUMPDEST JUMPDEST POP POP POP JUMP JUMPDEST PUSH1 0x60 PUSH2 0xD2B DUP5 DUP5 PUSH1 0x0 DUP6 PUSH2 0xD34 JUMP JUMPDEST SWAP1 POP SWAP4 SWAP3 POP POP POP JUMP JUMPDEST PUSH1 0x60 DUP3 SELFBALANCE LT ISZERO PUSH2 0xD79 JUMPI PUSH1 0x40 MLOAD PUSH32 0x8C379A000000000000000000000000000000000000000000000000000000000 DUP2 MSTORE PUSH1 0x4 ADD PUSH2 0xD70 SWAP1 PUSH2 0x1DC7 JUMP JUMPDEST PUSH1 0x40 MLOAD DUP1 SWAP2 SUB SWAP1 REVERT JUMPDEST PUSH2 0xD82 DUP6 PUSH2 0xE48 JUMP JUMPDEST PUSH2 0xDC1 JUMPI PUSH1 0x40 MLOAD PUSH32 0x8C379A000000000000000000000000000000000000000000000000000000000 DUP2 MSTORE PUSH1 0x4 ADD PUSH2 0xDB8 SWAP1 PUSH2 0x1E33 JUMP JUMPDEST PUSH1 0x40 MLOAD DUP1 SWAP2 SUB SWAP1 REVERT JUMPDEST PUSH1 0x0 DUP1 DUP7 PUSH20 0xFFFFFFFFFFFFFFFFFFFFFFFFFFFFFFFFFFFFFFFF AND DUP6 DUP8 PUSH1 0x40 MLOAD PUSH2 0xDEA SWAP2 SWAP1 PUSH2 0x1E9A JUMP JUMPDEST PUSH1 0x0 PUSH1 0x40 MLOAD DUP1 DUP4 SUB DUP2 DUP6 DUP8 GAS CALL SWAP3 POP POP POP RETURNDATASIZE DUP1 PUSH1 0x0 DUP2 EQ PUSH2 0xE27 JUMPI PUSH1 0x40 MLOAD SWAP2 POP PUSH1 0x1F NOT PUSH1 0x3F RETURNDATASIZE ADD AND DUP3 ADD PUSH1 0x40 MSTORE RETURNDATASIZE DUP3 MSTORE RETURNDATASIZE PUSH1 0x0 PUSH1 0x20 DUP5 ADD RETURNDATACOPY PUSH2 0xE2C JUMP JUMPDEST PUSH1 0x60 SWAP2 POP JUMPDEST POP SWAP2 POP SWAP2 POP PUSH2 0xE3C DUP3 DUP3 DUP7 PUSH2 0xE6B JUMP JUMPDEST SWAP3 POP POP POP SWAP5 SWAP4 POP POP POP POP JUMP JUMPDEST PUSH1 0x0 DUP1 DUP3 PUSH20 0xFFFFFFFFFFFFFFFFFFFFFFFFFFFFFFFFFFFFFFFF AND EXTCODESIZE GT SWAP1 POP SWAP2 SWAP1 POP JUMP JUMPDEST PUSH1 0x60 DUP4 ISZERO PUSH2 0xE7B JUMPI DUP3 SWAP1 POP PUSH2 0xECB JUMP JUMPDEST PUSH1 0x0 DUP4 MLOAD GT ISZERO PUSH2 0xE8E JUMPI DUP3 MLOAD DUP1 DUP5 PUSH1 0x20 ADD REVERT JUMPDEST DUP2 PUSH1 0x40 MLOAD PUSH32 0x8C379A000000000000000000000000000000000000000000000000000000000 DUP2 MSTORE PUSH1 0x4 ADD PUSH2 0xEC2 SWAP2 SWAP1 PUSH2 0x18AF JUMP JUMPDEST PUSH1 0x40 MLOAD DUP1 SWAP2 SUB SWAP1 REVERT JUMPDEST SWAP4 SWAP3 POP POP POP JUMP JUMPDEST PUSH1 0x0 PUSH1 0x40 MLOAD SWAP1 POP SWAP1 JUMP JUMPDEST PUSH1 0x0 DUP1 REVERT JUMPDEST PUSH1 0x0 DUP1 REVERT JUMPDEST PUSH1 0x0 DUP1 REVERT JUMPDEST PUSH1 0x0 PUSH1 0x1F NOT PUSH1 0x1F DUP4 ADD AND SWAP1 POP SWAP2 SWAP1 POP JUMP JUMPDEST PUSH32 0x4E487B7100000000000000000000000000000000000000000000000000000000 PUSH1 0x0 MSTORE PUSH1 0x41 PUSH1 0x4 MSTORE PUSH1 0x24 PUSH1 0x0 REVERT JUMPDEST PUSH2 0xF34 DUP3 PUSH2 0xEEB JUMP JUMPDEST DUP2 ADD DUP2 DUP2 LT PUSH8 0xFFFFFFFFFFFFFFFF DUP3 GT OR ISZERO PUSH2 0xF53 JUMPI PUSH2 0xF52 PUSH2 0xEFC JUMP JUMPDEST JUMPDEST DUP1 PUSH1 0x40 MSTORE POP POP POP JUMP JUMPDEST PUSH1 0x0 PUSH2 0xF66 PUSH2 0xED2 JUMP JUMPDEST SWAP1 POP PUSH2 0xF72 DUP3 DUP3 PUSH2 0xF2B JUMP JUMPDEST SWAP2 SWAP1 POP JUMP JUMPDEST PUSH1 0x0 PUSH8 0xFFFFFFFFFFFFFFFF DUP3 GT ISZERO PUSH2 0xF92 JUMPI PUSH2 0xF91 PUSH2 0xEFC JUMP JUMPDEST JUMPDEST PUSH1 0x20 DUP3 MUL SWAP1 POP PUSH1 0x20 DUP2 ADD SWAP1 POP SWAP2 SWAP1 POP JUMP JUMPDEST PUSH1 0x0 DUP1 REVERT JUMPDEST PUSH1 0x0 DUP1 REVERT JUMPDEST PUSH1 0x0 PUSH8 0xFFFFFFFFFFFFFFFF DUP3 GT ISZERO PUSH2 0xFC8 JUMPI PUSH2 0xFC7 PUSH2 0xEFC JUMP JUMPDEST JUMPDEST PUSH2 0xFD1 DUP3 PUSH2 0xEEB JUMP JUMPDEST SWAP1 POP PUSH1 0x20 DUP2 ADD SWAP1 POP SWAP2 SWAP1 POP JUMP JUMPDEST DUP3 DUP2 DUP4 CALLDATACOPY PUSH1 0x0 DUP4 DUP4 ADD MSTORE POP POP POP JUMP JUMPDEST PUSH1 0x0 PUSH2 0x1000 PUSH2 0xFFB DUP5 PUSH2 0xFAD JUMP JUMPDEST PUSH2 0xF5C JUMP JUMPDEST SWAP1 POP DUP3 DUP2 MSTORE PUSH1 0x20 DUP2 ADD DUP5 DUP5 DUP5 ADD GT ISZERO PUSH2 0x101C JUMPI PUSH2 0x101B PUSH2 0xFA8 JUMP JUMPDEST JUMPDEST PUSH2 0x1027 DUP5 DUP3 DUP6 PUSH2 0xFDE JUMP JUMPDEST POP SWAP4 SWAP3 POP POP POP JUMP JUMPDEST PUSH1 0x0 DUP3 PUSH1 0x1F DUP4 ADD SLT PUSH2 0x1044 JUMPI PUSH2 0x1043 PUSH2 0xEE6 JUMP JUMPDEST JUMPDEST DUP2 CALLDATALOAD PUSH2 0x1054 DUP5 DUP3 PUSH1 0x20 DUP7 ADD PUSH2 0xFED JUMP JUMPDEST SWAP2 POP POP SWAP3 SWAP2 POP POP JUMP JUMPDEST PUSH1 0x0 PUSH2 0x1070 PUSH2 0x106B DUP5 PUSH2 0xF77 JUMP JUMPDEST PUSH2 0xF5C JUMP JUMPDEST SWAP1 POP DUP1 DUP4 DUP3 MSTORE PUSH1 0x20 DUP3 ADD SWAP1 POP PUSH1 0x20 DUP5 MUL DUP4 ADD DUP6 DUP2 GT ISZERO PUSH2 0x1093 JUMPI PUSH2 0x1092 PUSH2 0xFA3 JUMP JUMPDEST JUMPDEST DUP4 JUMPDEST DUP2 DUP2 LT ISZERO PUSH2 0x10DA JUMPI DUP1 CALLDATALOAD PUSH8 0xFFFFFFFFFFFFFFFF DUP2 GT ISZERO PUSH2 0x10B8 JUMPI PUSH2 0x10B7 PUSH2 0xEE6 JUMP JUMPDEST JUMPDEST DUP1 DUP7 ADD PUSH2 0x10C5 DUP10 DUP3 PUSH2 0x102F JUMP JUMPDEST DUP6 MSTORE PUSH1 0x20 DUP6 ADD SWAP5 POP POP POP PUSH1 0x20 DUP2 ADD SWAP1 POP PUSH2 0x1095 JUMP JUMPDEST POP POP POP SWAP4 SWAP3 POP POP POP JUMP JUMPDEST PUSH1 0x0 DUP3 PUSH1 0x1F DUP4 ADD SLT PUSH2 0x10F9 JUMPI PUSH2 0x10F8 PUSH2 0xEE6 JUMP JUMPDEST JUMPDEST DUP2 CALLDATALOAD PUSH2 0x1109 DUP5 DUP3 PUSH1 0x20 DUP7 ADD PUSH2 0x105D JUMP JUMPDEST SWAP2 POP POP SWAP3 SWAP2 POP POP JUMP JUMPDEST PUSH1 0x0 PUSH8 0xFFFFFFFFFFFFFFFF DUP3 GT ISZERO PUSH2 0x112D JUMPI PUSH2 0x112C PUSH2 0xEFC JUMP JUMPDEST JUMPDEST PUSH1 0x20 DUP3 MUL SWAP1 POP PUSH1 0x20 DUP2 ADD SWAP1 POP SWAP2 SWAP1 POP JUMP JUMPDEST PUSH1 0x0 DUP2 SWAP1 POP SWAP2 SWAP1 POP JUMP JUMPDEST PUSH2 0x1151 DUP2 PUSH2 0x113E JUMP JUMPDEST DUP2 EQ PUSH2 0x115C JUMPI PUSH1 0x0 DUP1 REVERT JUMPDEST POP JUMP JUMPDEST PUSH1 0x0 DUP2 CALLDATALOAD SWAP1 POP PUSH2 0x116E DUP2 PUSH2 0x1148 JUMP JUMPDEST SWAP3 SWAP2 POP POP JUMP JUMPDEST PUSH1 0x0 PUSH2 0x1187 PUSH2 0x1182 DUP5 PUSH2 0x1112 JUMP JUMPDEST PUSH2 0xF5C JUMP JUMPDEST SWAP1 POP DUP1 DUP4 DUP3 MSTORE PUSH1 0x20 DUP3 ADD SWAP1 POP PUSH1 0x20 DUP5 MUL DUP4 ADD DUP6 DUP2 GT ISZERO PUSH2 0x11AA JUMPI PUSH2 0x11A9 PUSH2 0xFA3 JUMP JUMPDEST JUMPDEST DUP4 JUMPDEST DUP2 DUP2 LT ISZERO PUSH2 0x11D3 JUMPI DUP1 PUSH2 0x11BF DUP9 DUP3 PUSH2 0x115F JUMP JUMPDEST DUP5 MSTORE PUSH1 0x20 DUP5 ADD SWAP4 POP POP PUSH1 0x20 DUP2 ADD SWAP1 POP PUSH2 0x11AC JUMP JUMPDEST POP POP POP SWAP4 SWAP3 POP POP POP JUMP JUMPDEST PUSH1 0x0 DUP3 PUSH1 0x1F DUP4 ADD SLT PUSH2 0x11F2 JUMPI PUSH2 0x11F1 PUSH2 0xEE6 JUMP JUMPDEST JUMPDEST DUP2 CALLDATALOAD PUSH2 0x1202 DUP5 DUP3 PUSH1 0x20 DUP7 ADD PUSH2 0x1174 JUMP JUMPDEST SWAP2 POP POP SWAP3 SWAP2 POP POP JUMP JUMPDEST PUSH1 0x0 DUP1 PUSH1 0x40 DUP4 DUP6 SUB SLT ISZERO PUSH2 0x1222 JUMPI PUSH2 0x1221 PUSH2 0xEDC JUMP JUMPDEST JUMPDEST PUSH1 0x0 DUP4 ADD CALLDATALOAD PUSH8 0xFFFFFFFFFFFFFFFF DUP2 GT ISZERO PUSH2 0x1240 JUMPI PUSH2 0x123F PUSH2 0xEE1 JUMP JUMPDEST JUMPDEST PUSH2 0x124C DUP6 DUP3 DUP7 ADD PUSH2 0x10E4 JUMP JUMPDEST SWAP3 POP POP PUSH1 0x20 DUP4 ADD CALLDATALOAD PUSH8 0xFFFFFFFFFFFFFFFF DUP2 GT ISZERO PUSH2 0x126D JUMPI PUSH2 0x126C PUSH2 0xEE1 JUMP JUMPDEST JUMPDEST PUSH2 0x1279 DUP6 DUP3 DUP7 ADD PUSH2 0x11DD JUMP JUMPDEST SWAP2 POP POP SWAP3 POP SWAP3 SWAP1 POP JUMP JUMPDEST PUSH2 0x128C DUP2 PUSH2 0x113E JUMP JUMPDEST DUP3 MSTORE POP POP JUMP JUMPDEST PUSH1 0x0 PUSH1 0x20 DUP3 ADD SWAP1 POP PUSH2 0x12A7 PUSH1 0x0 DUP4 ADD DUP5 PUSH2 0x1283 JUMP JUMPDEST SWAP3 SWAP2 POP POP JUMP JUMPDEST PUSH1 0x0 PUSH20 0xFFFFFFFFFFFFFFFFFFFFFFFFFFFFFFFFFFFFFFFF DUP3 AND SWAP1 POP SWAP2 SWAP1 POP JUMP JUMPDEST PUSH1 0x0 PUSH2 0x12D8 DUP3 PUSH2 0x12AD JUMP JUMPDEST SWAP1 POP SWAP2 SWAP1 POP JUMP JUMPDEST PUSH2 0x12E8 DUP2 PUSH2 0x12CD JUMP JUMPDEST DUP2 EQ PUSH2 0x12F3 JUMPI PUSH1 0x0 DUP1 REVERT JUMPDEST POP JUMP JUMPDEST PUSH1 0x0 DUP2 CALLDATALOAD SWAP1 POP PUSH2 0x1305 DUP2 PUSH2 0x12DF JUMP JUMPDEST SWAP3 SWAP2 POP POP JUMP JUMPDEST PUSH1 0x0 PUSH1 0x20 DUP3 DUP5 SUB SLT ISZERO PUSH2 0x1321 JUMPI PUSH2 0x1320 PUSH2 0xEDC JUMP JUMPDEST JUMPDEST PUSH1 0x0 PUSH2 0x132F DUP5 DUP3 DUP6 ADD PUSH2 0x12F6 JUMP JUMPDEST SWAP2 POP POP SWAP3 SWAP2 POP POP JUMP JUMPDEST PUSH2 0x1341 DUP2 PUSH2 0x12CD JUMP JUMPDEST DUP3 MSTORE POP POP JUMP JUMPDEST PUSH1 0x0 PUSH1 0x20 DUP3 ADD SWAP1 POP PUSH2 0x135C PUSH1 0x0 DUP4 ADD DUP5 PUSH2 0x1338 JUMP JUMPDEST SWAP3 SWAP2 POP POP JUMP JUMPDEST PUSH1 0x0 DUP1 REVERT JUMPDEST PUSH1 0x0 DUP1 DUP4 PUSH1 0x1F DUP5 ADD SLT PUSH2 0x137D JUMPI PUSH2 0x137C PUSH2 0xEE6 JUMP JUMPDEST JUMPDEST DUP3 CALLDATALOAD SWAP1 POP PUSH8 0xFFFFFFFFFFFFFFFF DUP2 GT ISZERO PUSH2 0x139A JUMPI PUSH2 0x1399 PUSH2 0x1362 JUMP JUMPDEST JUMPDEST PUSH1 0x20 DUP4 ADD SWAP2 POP DUP4 PUSH1 0x20 DUP3 MUL DUP4 ADD GT ISZERO PUSH2 0x13B6 JUMPI PUSH2 0x13B5 PUSH2 0xFA3 JUMP JUMPDEST JUMPDEST SWAP3 POP SWAP3 SWAP1 POP JUMP JUMPDEST PUSH1 0x0 DUP1 DUP4 PUSH1 0x1F DUP5 ADD SLT PUSH2 0x13D3 JUMPI PUSH2 0x13D2 PUSH2 0xEE6 JUMP JUMPDEST JUMPDEST DUP3 CALLDATALOAD SWAP1 POP PUSH8 0xFFFFFFFFFFFFFFFF DUP2 GT ISZERO PUSH2 0x13F0 JUMPI PUSH2 0x13EF PUSH2 0x1362 JUMP JUMPDEST JUMPDEST PUSH1 0x20 DUP4 ADD SWAP2 POP DUP4 PUSH1 0x20 DUP3 MUL DUP4 ADD GT ISZERO PUSH2 0x140C JUMPI PUSH2 0x140B PUSH2 0xFA3 JUMP JUMPDEST JUMPDEST SWAP3 POP SWAP3 SWAP1 POP JUMP JUMPDEST PUSH1 0x0 DUP1 PUSH1 0x0 DUP1 PUSH1 0x40 DUP6 DUP8 SUB SLT ISZERO PUSH2 0x142D JUMPI PUSH2 0x142C PUSH2 0xEDC JUMP JUMPDEST JUMPDEST PUSH1 0x0 DUP6 ADD CALLDATALOAD PUSH8 0xFFFFFFFFFFFFFFFF DUP2 GT ISZERO PUSH2 0x144B JUMPI PUSH2 0x144A PUSH2 0xEE1 JUMP JUMPDEST JUMPDEST PUSH2 0x1457 DUP8 DUP3 DUP9 ADD PUSH2 0x1367 JUMP JUMPDEST SWAP5 POP SWAP5 POP POP PUSH1 0x20 DUP6 ADD CALLDATALOAD PUSH8 0xFFFFFFFFFFFFFFFF DUP2 GT ISZERO PUSH2 0x147A JUMPI PUSH2 0x1479 PUSH2 0xEE1 JUMP JUMPDEST JUMPDEST PUSH2 0x1486 DUP8 DUP3 DUP9 ADD PUSH2 0x13BD JUMP JUMPDEST SWAP3 POP SWAP3 POP POP SWAP3 SWAP6 SWAP2 SWAP5 POP SWAP3 POP JUMP JUMPDEST PUSH1 0x0 DUP2 SWAP1 POP SWAP2 SWAP1 POP JUMP JUMPDEST PUSH1 0x0 PUSH2 0x14B9 PUSH2 0x14B4 PUSH2 0x14AF DUP5 PUSH2 0x12AD JUMP JUMPDEST PUSH2 0x1494 JUMP JUMPDEST PUSH2 0x12AD JUMP JUMPDEST SWAP1 POP SWAP2 SWAP1 POP JUMP JUMPDEST PUSH1 0x0 PUSH2 0x14CB DUP3 PUSH2 0x149E JUMP JUMPDEST SWAP1 POP SWAP2 SWAP1 POP JUMP JUMPDEST PUSH1 0x0 PUSH2 0x14DD DUP3 PUSH2 0x14C0 JUMP JUMPDEST SWAP1 POP SWAP2 SWAP1 POP JUMP JUMPDEST PUSH2 0x14ED DUP2 PUSH2 0x14D2 JUMP JUMPDEST DUP3 MSTORE POP POP JUMP JUMPDEST PUSH1 0x0 PUSH1 0x20 DUP3 ADD SWAP1 POP PUSH2 0x1508 PUSH1 0x0 DUP4 ADD DUP5 PUSH2 0x14E4 JUMP JUMPDEST SWAP3 SWAP2 POP POP JUMP JUMPDEST PUSH1 0x0 DUP3 DUP3 MSTORE PUSH1 0x20 DUP3 ADD SWAP1 POP SWAP3 SWAP2 POP POP JUMP JUMPDEST PUSH32 0x506C6561736520636865636B2074686520646174612C20746865206E65777320 PUSH1 0x0 DUP3 ADD MSTORE PUSH32 0x494420616E6420646973747269627574696F6E207175616E7469747920617265 PUSH1 0x20 DUP3 ADD MSTORE PUSH32 0x20696E636F6E73697374656E7400000000000000000000000000000000000000 PUSH1 0x40 DUP3 ADD MSTORE POP JUMP JUMPDEST PUSH1 0x0 PUSH2 0x15A1 PUSH1 0x4D DUP4 PUSH2 0x150E JUMP JUMPDEST SWAP2 POP PUSH2 0x15AC DUP3 PUSH2 0x151F JUMP JUMPDEST PUSH1 0x60 DUP3 ADD SWAP1 POP SWAP2 SWAP1 POP JUMP JUMPDEST PUSH1 0x0 PUSH1 0x20 DUP3 ADD SWAP1 POP DUP2 DUP2 SUB PUSH1 0x0 DUP4 ADD MSTORE PUSH2 0x15D0 DUP2 PUSH2 0x1594 JUMP JUMPDEST SWAP1 POP SWAP2 SWAP1 POP JUMP JUMPDEST PUSH32 0x52656C656173653A206E6565642073657420546F6B656E204164647265737300 PUSH1 0x0 DUP3 ADD MSTORE POP JUMP JUMPDEST PUSH1 0x0 PUSH2 0x160D PUSH1 0x1F DUP4 PUSH2 0x150E JUMP JUMPDEST SWAP2 POP PUSH2 0x1618 DUP3 PUSH2 0x15D7 JUMP JUMPDEST PUSH1 0x20 DUP3 ADD SWAP1 POP SWAP2 SWAP1 POP JUMP JUMPDEST PUSH1 0x0 PUSH1 0x20 DUP3 ADD SWAP1 POP DUP2 DUP2 SUB PUSH1 0x0 DUP4 ADD MSTORE PUSH2 0x163C DUP2 PUSH2 0x1600 JUMP JUMPDEST SWAP1 POP SWAP2 SWAP1 POP JUMP JUMPDEST PUSH32 0x52656C656173653A206E65656420736574204368616C6C656E6720436F6E7472 PUSH1 0x0 DUP3 ADD MSTORE PUSH32 0x6163742041646472657373000000000000000000000000000000000000000000 PUSH1 0x20 DUP3 ADD MSTORE POP JUMP JUMPDEST PUSH1 0x0 PUSH2 0x169F PUSH1 0x2B DUP4 PUSH2 0x150E JUMP JUMPDEST SWAP2 POP PUSH2 0x16AA DUP3 PUSH2 0x1643 JUMP JUMPDEST PUSH1 0x40 DUP3 ADD SWAP1 POP SWAP2 SWAP1 POP JUMP JUMPDEST PUSH1 0x0 PUSH1 0x20 DUP3 ADD SWAP1 POP DUP2 DUP2 SUB PUSH1 0x0 DUP4 ADD MSTORE PUSH2 0x16CE DUP2 PUSH2 0x1692 JUMP JUMPDEST SWAP1 POP SWAP2 SWAP1 POP JUMP JUMPDEST PUSH32 0x4E487B7100000000000000000000000000000000000000000000000000000000 PUSH1 0x0 MSTORE PUSH1 0x32 PUSH1 0x4 MSTORE PUSH1 0x24 PUSH1 0x0 REVERT JUMPDEST PUSH32 0x4E487B7100000000000000000000000000000000000000000000000000000000 PUSH1 0x0 MSTORE PUSH1 0x11 PUSH1 0x4 MSTORE PUSH1 0x24 PUSH1 0x0 REVERT JUMPDEST PUSH1 0x0 PUSH2 0x173E DUP3 PUSH2 0x113E JUMP JUMPDEST SWAP2 POP PUSH2 0x1749 DUP4 PUSH2 0x113E JUMP JUMPDEST SWAP3 POP DUP3 DUP3 ADD SWAP1 POP DUP1 DUP3 GT ISZERO PUSH2 0x1761 JUMPI PUSH2 0x1760 PUSH2 0x1704 JUMP JUMPDEST JUMPDEST SWAP3 SWAP2 POP POP JUMP JUMPDEST PUSH1 0x0 PUSH2 0x1772 DUP3 PUSH2 0x113E JUMP JUMPDEST SWAP2 POP PUSH32 0xFFFFFFFFFFFFFFFFFFFFFFFFFFFFFFFFFFFFFFFFFFFFFFFFFFFFFFFFFFFFFFFF DUP3 SUB PUSH2 0x17A4 JUMPI PUSH2 0x17A3 PUSH2 0x1704 JUMP JUMPDEST JUMPDEST PUSH1 0x1 DUP3 ADD SWAP1 POP SWAP2 SWAP1 POP JUMP JUMPDEST PUSH32 0x52656C656173653A20496E73756666696369656E7420746F74616C20616D6F75 PUSH1 0x0 DUP3 ADD MSTORE PUSH32 0x6E7420617661696C61626C6520666F7220646973747269627574696F6E000000 PUSH1 0x20 DUP3 ADD MSTORE POP JUMP JUMPDEST PUSH1 0x0 PUSH2 0x180B PUSH1 0x3D DUP4 PUSH2 0x150E JUMP JUMPDEST SWAP2 POP PUSH2 0x1816 DUP3 PUSH2 0x17AF JUMP JUMPDEST PUSH1 0x40 DUP3 ADD SWAP1 POP SWAP2 SWAP1 POP JUMP JUMPDEST PUSH1 0x0 PUSH1 0x20 DUP3 ADD SWAP1 POP DUP2 DUP2 SUB PUSH1 0x0 DUP4 ADD MSTORE PUSH2 0x183A DUP2 PUSH2 0x17FE JUMP JUMPDEST SWAP1 POP SWAP2 SWAP1 POP JUMP JUMPDEST PUSH1 0x0 DUP2 MLOAD SWAP1 POP SWAP2 SWAP1 POP JUMP JUMPDEST PUSH1 0x0 JUMPDEST DUP4 DUP2 LT ISZERO PUSH2 0x186A JUMPI DUP1 DUP3 ADD MLOAD DUP2 DUP5 ADD MSTORE PUSH1 0x20 DUP2 ADD SWAP1 POP PUSH2 0x184F JUMP JUMPDEST PUSH1 0x0 DUP5 DUP5 ADD MSTORE POP POP POP POP JUMP JUMPDEST PUSH1 0x0 PUSH2 0x1881 DUP3 PUSH2 0x1841 JUMP JUMPDEST PUSH2 0x188B DUP2 DUP6 PUSH2 0x150E JUMP JUMPDEST SWAP4 POP PUSH2 0x189B DUP2 DUP6 PUSH1 0x20 DUP7 ADD PUSH2 0x184C JUMP JUMPDEST PUSH2 0x18A4 DUP2 PUSH2 0xEEB JUMP JUMPDEST DUP5 ADD SWAP2 POP POP SWAP3 SWAP2 POP POP JUMP JUMPDEST PUSH1 0x0 PUSH1 0x20 DUP3 ADD SWAP1 POP DUP2 DUP2 SUB PUSH1 0x0 DUP4 ADD MSTORE PUSH2 0x18C9 DUP2 DUP5 PUSH2 0x1876 JUMP JUMPDEST SWAP1 POP SWAP3 SWAP2 POP POP JUMP JUMPDEST PUSH1 0x0 DUP1 REVERT JUMPDEST PUSH1 0x0 DUP1 REVERT JUMPDEST PUSH1 0x0 PUSH2 0x18EE PUSH2 0x18E9 DUP5 PUSH2 0xFAD JUMP JUMPDEST PUSH2 0xF5C JUMP JUMPDEST SWAP1 POP DUP3 DUP2 MSTORE PUSH1 0x20 DUP2 ADD DUP5 DUP5 DUP5 ADD GT ISZERO PUSH2 0x190A JUMPI PUSH2 0x1909 PUSH2 0xFA8 JUMP JUMPDEST JUMPDEST PUSH2 0x1915 DUP5 DUP3 DUP6 PUSH2 0x184C JUMP JUMPDEST POP SWAP4 SWAP3 POP POP POP JUMP JUMPDEST PUSH1 0x0 DUP3 PUSH1 0x1F DUP4 ADD SLT PUSH2 0x1932 JUMPI PUSH2 0x1931 PUSH2 0xEE6 JUMP JUMPDEST JUMPDEST DUP2 MLOAD PUSH2 0x1942 DUP5 DUP3 PUSH1 0x20 DUP7 ADD PUSH2 0x18DB JUMP JUMPDEST SWAP2 POP POP SWAP3 SWAP2 POP POP JUMP JUMPDEST PUSH1 0x0 DUP2 MLOAD SWAP1 POP PUSH2 0x195A DUP2 PUSH2 0x12DF JUMP JUMPDEST SWAP3 SWAP2 POP POP JUMP JUMPDEST PUSH1 0x0 DUP2 MLOAD SWAP1 POP PUSH2 0x196F DUP2 PUSH2 0x1148 JUMP JUMPDEST SWAP3 SWAP2 POP POP JUMP JUMPDEST PUSH1 0x0 DUP2 ISZERO ISZERO SWAP1 POP SWAP2 SWAP1 POP JUMP JUMPDEST PUSH2 0x198A DUP2 PUSH2 0x1975 JUMP JUMPDEST DUP2 EQ PUSH2 0x1995 JUMPI PUSH1 0x0 DUP1 REVERT JUMPDEST POP JUMP JUMPDEST PUSH1 0x0 DUP2 MLOAD SWAP1 POP PUSH2 0x19A7 DUP2 PUSH2 0x1981 JUMP JUMPDEST SWAP3 SWAP2 POP POP JUMP JUMPDEST PUSH1 0x0 PUSH2 0x180 DUP3 DUP5 SUB SLT ISZERO PUSH2 0x19C4 JUMPI PUSH2 0x19C3 PUSH2 0x18D1 JUMP JUMPDEST JUMPDEST PUSH2 0x19CF PUSH2 0x180 PUSH2 0xF5C JUMP JUMPDEST SWAP1 POP PUSH1 0x0 DUP3 ADD MLOAD PUSH8 0xFFFFFFFFFFFFFFFF DUP2 GT ISZERO PUSH2 0x19EF JUMPI PUSH2 0x19EE PUSH2 0x18D6 JUMP JUMPDEST JUMPDEST PUSH2 0x19FB DUP5 DUP3 DUP6 ADD PUSH2 0x191D JUMP JUMPDEST PUSH1 0x0 DUP4 ADD MSTORE POP PUSH1 0x20 PUSH2 0x1A0F DUP5 DUP3 DUP6 ADD PUSH2 0x194B JUMP JUMPDEST PUSH1 0x20 DUP4 ADD MSTORE POP PUSH1 0x40 PUSH2 0x1A23 DUP5 DUP3 DUP6 ADD PUSH2 0x1960 JUMP JUMPDEST PUSH1 0x40 DUP4 ADD MSTORE POP PUSH1 0x60 PUSH2 0x1A37 DUP5 DUP3 DUP6 ADD PUSH2 0x1960 JUMP JUMPDEST PUSH1 0x60 DUP4 ADD MSTORE POP PUSH1 0x80 PUSH2 0x1A4B DUP5 DUP3 DUP6 ADD PUSH2 0x1998 JUMP JUMPDEST PUSH1 0x80 DUP4 ADD MSTORE POP PUSH1 0xA0 PUSH2 0x1A5F DUP5 DUP3 DUP6 ADD PUSH2 0x1998 JUMP JUMPDEST PUSH1 0xA0 DUP4 ADD MSTORE POP PUSH1 0xC0 PUSH2 0x1A73 DUP5 DUP3 DUP6 ADD PUSH2 0x1998 JUMP JUMPDEST PUSH1 0xC0 DUP4 ADD MSTORE POP PUSH1 0xE0 PUSH2 0x1A87 DUP5 DUP3 DUP6 ADD PUSH2 0x1960 JUMP JUMPDEST PUSH1 0xE0 DUP4 ADD MSTORE POP PUSH2 0x100 PUSH2 0x1A9C DUP5 DUP3 DUP6 ADD PUSH2 0x1998 JUMP JUMPDEST PUSH2 0x100 DUP4 ADD MSTORE POP PUSH2 0x120 PUSH2 0x1AB2 DUP5 DUP3 DUP6 ADD PUSH2 0x1960 JUMP JUMPDEST PUSH2 0x120 DUP4 ADD MSTORE POP PUSH2 0x140 PUSH2 0x1AC8 DUP5 DUP3 DUP6 ADD PUSH2 0x1960 JUMP JUMPDEST PUSH2 0x140 DUP4 ADD MSTORE POP PUSH2 0x160 PUSH2 0x1ADE DUP5 DUP3 DUP6 ADD PUSH2 0x1960 JUMP JUMPDEST PUSH2 0x160 DUP4 ADD MSTORE POP SWAP3 SWAP2 POP POP JUMP JUMPDEST PUSH1 0x0 PUSH1 0x20 DUP3 DUP5 SUB SLT ISZERO PUSH2 0x1B01 JUMPI PUSH2 0x1B00 PUSH2 0xEDC JUMP JUMPDEST JUMPDEST PUSH1 0x0 DUP3 ADD MLOAD PUSH8 0xFFFFFFFFFFFFFFFF DUP2 GT ISZERO PUSH2 0x1B1F JUMPI PUSH2 0x1B1E PUSH2 0xEE1 JUMP JUMPDEST JUMPDEST PUSH2 0x1B2B DUP5 DUP3 DUP6 ADD PUSH2 0x19AD JUMP JUMPDEST SWAP2 POP POP SWAP3 SWAP2 POP POP JUMP JUMPDEST PUSH32 0x546865206E756D626572206F66206169722064726F7073206578636565647320 PUSH1 0x0 DUP3 ADD MSTORE PUSH32 0x746865206461696C792072656C6561736520616D6F756E740000000000000000 PUSH1 0x20 DUP3 ADD MSTORE POP JUMP JUMPDEST PUSH1 0x0 PUSH2 0x1B90 PUSH1 0x38 DUP4 PUSH2 0x150E JUMP JUMPDEST SWAP2 POP PUSH2 0x1B9B DUP3 PUSH2 0x1B34 JUMP JUMPDEST PUSH1 0x40 DUP3 ADD SWAP1 POP SWAP2 SWAP1 POP JUMP JUMPDEST PUSH1 0x0 PUSH1 0x20 DUP3 ADD SWAP1 POP DUP2 DUP2 SUB PUSH1 0x0 DUP4 ADD MSTORE PUSH2 0x1BBF DUP2 PUSH2 0x1B83 JUMP JUMPDEST SWAP1 POP SWAP2 SWAP1 POP JUMP JUMPDEST PUSH1 0x0 PUSH1 0x20 DUP3 DUP5 SUB SLT ISZERO PUSH2 0x1BDC JUMPI PUSH2 0x1BDB PUSH2 0xEDC JUMP JUMPDEST JUMPDEST PUSH1 0x0 PUSH2 0x1BEA DUP5 DUP3 DUP6 ADD PUSH2 0x1960 JUMP JUMPDEST SWAP2 POP POP SWAP3 SWAP2 POP POP JUMP JUMPDEST PUSH1 0x0 PUSH1 0x60 DUP3 ADD SWAP1 POP PUSH2 0x1C08 PUSH1 0x0 DUP4 ADD DUP7 PUSH2 0x1338 JUMP JUMPDEST PUSH2 0x1C15 PUSH1 0x20 DUP4 ADD DUP6 PUSH2 0x1338 JUMP JUMPDEST PUSH2 0x1C22 PUSH1 0x40 DUP4 ADD DUP5 PUSH2 0x1283 JUMP JUMPDEST SWAP5 SWAP4 POP POP POP POP JUMP JUMPDEST PUSH32 0x536166654D6174683A206164646974696F6E206F766572666C6F770000000000 PUSH1 0x0 DUP3 ADD MSTORE POP JUMP JUMPDEST PUSH1 0x0 PUSH2 0x1C60 PUSH1 0x1B DUP4 PUSH2 0x150E JUMP JUMPDEST SWAP2 POP PUSH2 0x1C6B DUP3 PUSH2 0x1C2A JUMP JUMPDEST PUSH1 0x20 DUP3 ADD SWAP1 POP SWAP2 SWAP1 POP JUMP JUMPDEST PUSH1 0x0 PUSH1 0x20 DUP3 ADD SWAP1 POP DUP2 DUP2 SUB PUSH1 0x0 DUP4 ADD MSTORE PUSH2 0x1C8F DUP2 PUSH2 0x1C53 JUMP JUMPDEST SWAP1 POP SWAP2 SWAP1 POP JUMP JUMPDEST PUSH1 0x0 PUSH1 0x20 DUP3 DUP5 SUB SLT ISZERO PUSH2 0x1CAC JUMPI PUSH2 0x1CAB PUSH2 0xEDC JUMP JUMPDEST JUMPDEST PUSH1 0x0 PUSH2 0x1CBA DUP5 DUP3 DUP6 ADD PUSH2 0x1998 JUMP JUMPDEST SWAP2 POP POP SWAP3 SWAP2 POP POP JUMP JUMPDEST PUSH32 0x5361666545524332303A204552433230206F7065726174696F6E20646964206E PUSH1 0x0 DUP3 ADD MSTORE PUSH32 0x6F74207375636365656400000000000000000000000000000000000000000000 PUSH1 0x20 DUP3 ADD MSTORE POP JUMP JUMPDEST PUSH1 0x0 PUSH2 0x1D1F PUSH1 0x2A DUP4 PUSH2 0x150E JUMP JUMPDEST SWAP2 POP PUSH2 0x1D2A DUP3 PUSH2 0x1CC3 JUMP JUMPDEST PUSH1 0x40 DUP3 ADD SWAP1 POP SWAP2 SWAP1 POP JUMP JUMPDEST PUSH1 0x0 PUSH1 0x20 DUP3 ADD SWAP1 POP DUP2 DUP2 SUB PUSH1 0x0 DUP4 ADD MSTORE PUSH2 0x1D4E DUP2 PUSH2 0x1D12 JUMP JUMPDEST SWAP1 POP SWAP2 SWAP1 POP JUMP JUMPDEST PUSH32 0x416464726573733A20696E73756666696369656E742062616C616E636520666F PUSH1 0x0 DUP3 ADD MSTORE PUSH32 0x722063616C6C0000000000000000000000000000000000000000000000000000 PUSH1 0x20 DUP3 ADD MSTORE POP JUMP JUMPDEST PUSH1 0x0 PUSH2 0x1DB1 PUSH1 0x26 DUP4 PUSH2 0x150E JUMP JUMPDEST SWAP2 POP PUSH2 0x1DBC DUP3 PUSH2 0x1D55 JUMP JUMPDEST PUSH1 0x40 DUP3 ADD SWAP1 POP SWAP2 SWAP1 POP JUMP JUMPDEST PUSH1 0x0 PUSH1 0x20 DUP3 ADD SWAP1 POP DUP2 DUP2 SUB PUSH1 0x0 DUP4 ADD MSTORE PUSH2 0x1DE0 DUP2 PUSH2 0x1DA4 JUMP JUMPDEST SWAP1 POP SWAP2 SWAP1 POP JUMP JUMPDEST PUSH32 0x416464726573733A2063616C6C20746F206E6F6E2D636F6E7472616374000000 PUSH1 0x0 DUP3 ADD MSTORE POP JUMP JUMPDEST PUSH1 0x0 PUSH2 0x1E1D PUSH1 0x1D DUP4 PUSH2 0x150E JUMP JUMPDEST SWAP2 POP PUSH2 0x1E28 DUP3 PUSH2 0x1DE7 JUMP JUMPDEST PUSH1 0x20 DUP3 ADD SWAP1 POP SWAP2 SWAP1 POP JUMP JUMPDEST PUSH1 0x0 PUSH1 0x20 DUP3 ADD SWAP1 POP DUP2 DUP2 SUB PUSH1 0x0 DUP4 ADD MSTORE PUSH2 0x1E4C DUP2 PUSH2 0x1E10 JUMP JUMPDEST SWAP1 POP SWAP2 SWAP1 POP JUMP JUMPDEST PUSH1 0x0 DUP2 MLOAD SWAP1 POP SWAP2 SWAP1 POP JUMP JUMPDEST PUSH1 0x0 DUP2 SWAP1 POP SWAP3 SWAP2 POP POP JUMP JUMPDEST PUSH1 0x0 PUSH2 0x1E74 DUP3 PUSH2 0x1E53 JUMP JUMPDEST PUSH2 0x1E7E DUP2 DUP6 PUSH2 0x1E5E JUMP JUMPDEST SWAP4 POP PUSH2 0x1E8E DUP2 DUP6 PUSH1 0x20 DUP7 ADD PUSH2 0x184C JUMP JUMPDEST DUP1 DUP5 ADD SWAP2 POP POP SWAP3 SWAP2 POP POP JUMP JUMPDEST PUSH1 0x0 PUSH2 0x1EA6 DUP3 DUP5 PUSH2 0x1E69 JUMP JUMPDEST SWAP2 POP DUP2 SWAP1 POP SWAP3 SWAP2 POP POP JUMP INVALID LOG2 PUSH5 0x6970667358 0x22 SLT KECCAK256 AND 0x24 0xCD 0x27 SGT PUSH25 0x6DB2A5BB5E5428335C93BC469867D40F56F00D4CB287102A43 LOG2 PUSH5 0x736F6C6343 STOP ADDMOD SGT STOP CALLER "
		},
		"gasEstimates": {
			"creation": {
				"codeDepositCost": "1582200",
				"executionCost": "48031",
				"totalCost": "1630231"
			},
			"external": {
				"changeOwner(address)": "26914",
				"decimals()": "2504",
				"distributionToSpecify(address[],uint256[])": "infinite",
				"getContractAddrss()": "2611",
				"getLockContractAddress()": "2589",
				"getTimestamp()": "359",
				"getTotalReleased()": "2548",
				"sendMasterTokenLock(string[],uint256[])": "infinite",
				"setChallengContract(address)": "24788",
				"setLockContractAddress(address)": "24766",
				"setTokenAddress(address)": "26937",
				"token()": "infinite",
				"tokenBalance()": "infinite"
			}
		},
		"methodIdentifiers": {
			"changeOwner(address)": "a6f9dae1",
			"decimals()": "313ce567",
			"distributionToSpecify(address[],uint256[])": "5459b8a3",
			"getContractAddrss()": "47a58626",
			"getLockContractAddress()": "a39865e7",
			"getTimestamp()": "188ec356",
			"getTotalReleased()": "4b14c0ef",
			"sendMasterTokenLock(string[],uint256[])": "0af8668f",
			"setChallengContract(address)": "c52c31fa",
			"setLockContractAddress(address)": "c4529e37",
			"setTokenAddress(address)": "26a4e8d2",
			"token()": "fc0c546a",
			"tokenBalance()": "9e1a4d19"
		}
	},
	"abi": [
		{
			"inputs": [],
			"stateMutability": "nonpayable",
			"type": "constructor"
		},
		{
			"inputs": [
				{
					"internalType": "address",
					"name": "newOwner",
					"type": "address"
				}
			],
			"name": "changeOwner",
			"outputs": [],
			"stateMutability": "nonpayable",
			"type": "function"
		},
		{
			"inputs": [],
			"name": "decimals",
			"outputs": [
				{
					"internalType": "uint256",
					"name": "",
					"type": "uint256"
				}
			],
			"stateMutability": "view",
			"type": "function"
		},
		{
			"inputs": [
				{
					"internalType": "address[]",
					"name": "recipients",
					"type": "address[]"
				},
				{
					"internalType": "uint256[]",
					"name": "values",
					"type": "uint256[]"
				}
			],
			"name": "distributionToSpecify",
			"outputs": [],
			"stateMutability": "nonpayable",
			"type": "function"
		},
		{
			"inputs": [],
			"name": "getContractAddrss",
			"outputs": [
				{
					"internalType": "address",
					"name": "",
					"type": "address"
				}
			],
			"stateMutability": "view",
			"type": "function"
		},
		{
			"inputs": [],
			"name": "getLockContractAddress",
			"outputs": [
				{
					"internalType": "address",
					"name": "",
					"type": "address"
				}
			],
			"stateMutability": "view",
			"type": "function"
		},
		{
			"inputs": [],
			"name": "getTimestamp",
			"outputs": [
				{
					"internalType": "uint256",
					"name": "",
					"type": "uint256"
				}
			],
			"stateMutability": "view",
			"type": "function"
		},
		{
			"inputs": [],
			"name": "getTotalReleased",
			"outputs": [
				{
					"internalType": "uint256",
					"name": "",
					"type": "uint256"
				}
			],
			"stateMutability": "view",
			"type": "function"
		},
		{
			"inputs": [
				{
					"internalType": "string[]",
					"name": "themeId",
					"type": "string[]"
				},
				{
					"internalType": "uint256[]",
					"name": "values",
					"type": "uint256[]"
				}
			],
			"name": "sendMasterTokenLock",
			"outputs": [],
			"stateMutability": "nonpayable",
			"type": "function"
		},
		{
			"inputs": [
				{
					"internalType": "address",
					"name": "contractAddrss",
					"type": "address"
				}
			],
			"name": "setChallengContract",
			"outputs": [],
			"stateMutability": "nonpayable",
			"type": "function"
		},
		{
			"inputs": [
				{
					"internalType": "address",
					"name": "lockContractAddress",
					"type": "address"
				}
			],
			"name": "setLockContractAddress",
			"outputs": [],
			"stateMutability": "nonpayable",
			"type": "function"
		},
		{
			"inputs": [
				{
					"internalType": "address",
					"name": "tokenAddress",
					"type": "address"
				}
			],
			"name": "setTokenAddress",
			"outputs": [],
			"stateMutability": "nonpayable",
			"type": "function"
		},
		{
			"inputs": [],
			"name": "token",
			"outputs": [
				{
					"internalType": "contract IERC20",
					"name": "",
					"type": "address"
				}
			],
			"stateMutability": "view",
			"type": "function"
		},
		{
			"inputs": [],
			"name": "tokenBalance",
			"outputs": [
				{
					"internalType": "uint256",
					"name": "",
					"type": "uint256"
				}
			],
			"stateMutability": "view",
			"type": "function"
		}
	]
}