{
	"data": {
		"bytecode": {
			"linkReferences": {},
			"object": "6080604052601260045534801561001557600080fd5b5033600660006101000a81548173ffffffffffffffffffffffffffffffffffffffff021916908373ffffffffffffffffffffffffffffffffffffffff1602179055506126e5806100666000396000f3fe608060405234801561001057600080fd5b50600436106100ea5760003560e01c80635459b8a31161008c578063a6f9dae111610066578063a6f9dae114610213578063c4529e371461022f578063c52c31fa1461024b578063fc0c546a14610267576100ea565b80635459b8a3146101bb5780639e1a4d19146101d7578063a39865e7146101f5576100ea565b8063313ce567116100c8578063313ce5671461014557806342966c681461016357806347a586261461017f5780634b14c0ef1461019d576100ea565b80630af8668f146100ef578063188ec3561461010b57806326a4e8d214610129575b600080fd5b61010960048036038101906101049190611817565b610285565b005b610113610801565b604051610120919061189e565b60405180910390f35b610143600480360381019061013e9190611917565b610809565b005b61014d6108e7565b60405161015a919061189e565b60405180910390f35b61017d60048036038101906101789190611944565b6108f1565b005b610187610ac7565b6040516101949190611980565b60405180910390f35b6101a5610af1565b6040516101b2919061189e565b60405180910390f35b6101d560048036038101906101d09190611a4c565b610afb565b005b6101df610d35565b6040516101ec919061189e565b60405180910390f35b6101fd610e07565b60405161020a9190611980565b60405180910390f35b61022d60048036038101906102289190611917565b610e31565b005b61024960048036038101906102449190611917565b610ecf565b005b61026560048036038101906102609190611917565b610f13565b005b61026f610f57565b60405161027c9190611b2c565b60405180910390f35b600660009054906101000a900473ffffffffffffffffffffffffffffffffffffffff1673ffffffffffffffffffffffffffffffffffffffff163373ffffffffffffffffffffffffffffffffffffffff16146102df57600080fd5b8051825114610323576040517f08c379a000000000000000000000000000000000000000000000000000000000815260040161031a90611bf0565b60405180910390fd5b600073ffffffffffffffffffffffffffffffffffffffff16610343610f57565b73ffffffffffffffffffffffffffffffffffffffff1603610399576040517f08c379a000000000000000000000000000000000000000000000000000000000815260040161039090611c5c565b60405180910390fd5b600073ffffffffffffffffffffffffffffffffffffffff166103b9610ac7565b73ffffffffffffffffffffffffffffffffffffffff160361040f576040517f08c379a000000000000000000000000000000000000000000000000000000000815260040161040690611cee565b60405180910390fd5b600073ffffffffffffffffffffffffffffffffffffffff1661042f610e07565b73ffffffffffffffffffffffffffffffffffffffff1603610485576040517f08c379a000000000000000000000000000000000000000000000000000000000815260040161047c90611d80565b60405180910390fd5b6000805b82518110156104cd578281815181106104a5576104a4611da0565b5b6020026020010151826104b89190611dfe565b915080806104c590611e32565b915050610489565b50806104d7610d35565b1015610518576040517f08c379a000000000000000000000000000000000000000000000000000000000815260040161050f90611eec565b60405180910390fd5b6000610522610ac7565b9050600061052e610e07565b905060005b85518110156107f95760008373ffffffffffffffffffffffffffffffffffffffff16636441f9d088848151811061056d5761056c611da0565b5b60200260200101516040518263ffffffff1660e01b81526004016105919190611f7a565b600060405180830381865afa1580156105ae573d6000803e3d6000fd5b505050506040513d6000823e3d601f19601f820116820180604052508101906105d791906121b6565b905060008160200151905060008784815181106105f7576105f6611da0565b5b60200260200101519050600073ffffffffffffffffffffffffffffffffffffffff168273ffffffffffffffffffffffffffffffffffffffff16146107e3576106746040518060400160405280601581526020017f7468652072656365697665416d6f756e7420697320000000000000000000000081525082610f80565b6106b36040518060400160405280601681526020017f74686520726563656976654164647265737320697320000000000000000000008152508361101c565b61070c6040518060400160405280601281526020017f746865207468656d6549645b695d2069732000000000000000000000000000008152508a86815181106106ff576106fe611da0565b5b60200260200101516110b8565b8473ffffffffffffffffffffffffffffffffffffffff1663ff46e36a82848c888151811061073d5761073c611da0565b5b60200260200101516040518463ffffffff1660e01b8152600401610763939291906121ff565b600060405180830381600087803b15801561077d57600080fd5b505af1158015610791573d6000803e3d6000fd5b505050506107ce6107a0610e07565b826107a9610f57565b73ffffffffffffffffffffffffffffffffffffffff166111549092919063ffffffff16565b806005546107dc9190611dfe565b6005819055505b50505080806107f190611e32565b915050610533565b505050505050565b600042905090565b600660009054906101000a900473ffffffffffffffffffffffffffffffffffffffff1673ffffffffffffffffffffffffffffffffffffffff163373ffffffffffffffffffffffffffffffffffffffff161461086357600080fd5b80600360006101000a81548173ffffffffffffffffffffffffffffffffffffffff021916908373ffffffffffffffffffffffffffffffffffffffff160217905550806000806101000a81548173ffffffffffffffffffffffffffffffffffffffff021916908373ffffffffffffffffffffffffffffffffffffffff16021790555050565b6000600454905090565b600660009054906101000a900473ffffffffffffffffffffffffffffffffffffffff1673ffffffffffffffffffffffffffffffffffffffff163373ffffffffffffffffffffffffffffffffffffffff161461094b57600080fd5b600073ffffffffffffffffffffffffffffffffffffffff16600360009054906101000a900473ffffffffffffffffffffffffffffffffffffffff1673ffffffffffffffffffffffffffffffffffffffff16036109dc576040517f08c379a00000000000000000000000000000000000000000000000000000000081526004016109d390611c5c565b60405180910390fd5b60008111610a1f576040517f08c379a0000000000000000000000000000000000000000000000000000000008152600401610a1690612289565b60405180910390fd5b6000600360009054906101000a900473ffffffffffffffffffffffffffffffffffffffff1690508073ffffffffffffffffffffffffffffffffffffffff166342966c68836040518263ffffffff1660e01b8152600401610a7f919061189e565b6020604051808303816000875af1158015610a9e573d6000803e3d6000fd5b505050506040513d601f19601f82011682018060405250810190610ac291906122a9565b505050565b6000600160009054906101000a900473ffffffffffffffffffffffffffffffffffffffff16905090565b6000600554905090565b600073ffffffffffffffffffffffffffffffffffffffff1660008054906101000a900473ffffffffffffffffffffffffffffffffffffffff1673ffffffffffffffffffffffffffffffffffffffff1603610b8a576040517f08c379a0000000000000000000000000000000000000000000000000000000008152600401610b8190611c5c565b60405180910390fd5b818190508484905014610bd2576040517f08c379a0000000000000000000000000000000000000000000000000000000008152600401610bc990611bf0565b60405180910390fd5b6000805b85859050811015610c2257610c0d848483818110610bf757610bf6611da0565b5b90506020020135836111da90919063ffffffff16565b91508080610c1a90611e32565b915050610bd6565b5080610c2c610d35565b1015610c6d576040517f08c379a0000000000000000000000000000000000000000000000000000000008152600401610c6490612348565b60405180910390fd5b60005b85859050811015610d2d57610ced868683818110610c9157610c90611da0565b5b9050602002016020810190610ca69190611917565b858584818110610cb957610cb8611da0565b5b90506020020135610cc8610f57565b73ffffffffffffffffffffffffffffffffffffffff166111549092919063ffffffff16565b838382818110610d0057610cff611da0565b5b90506020020135600554610d149190611dfe565b6005819055508080610d2590611e32565b915050610c70565b505050505050565b60008073ffffffffffffffffffffffffffffffffffffffff16610d56610f57565b73ffffffffffffffffffffffffffffffffffffffff1603610d7a5760009050610e04565b6000610d84610f57565b73ffffffffffffffffffffffffffffffffffffffff166370a08231306040518263ffffffff1660e01b8152600401610dbc9190611980565b602060405180830381865afa158015610dd9573d6000803e3d6000fd5b505050506040513d601f19601f82011682018060405250810190610dfd9190612368565b9050809150505b90565b6000600260009054906101000a900473ffffffffffffffffffffffffffffffffffffffff16905090565b600660009054906101000a900473ffffffffffffffffffffffffffffffffffffffff1673ffffffffffffffffffffffffffffffffffffffff163373ffffffffffffffffffffffffffffffffffffffff1614610e8b57600080fd5b80600660006101000a81548173ffffffffffffffffffffffffffffffffffffffff021916908373ffffffffffffffffffffffffffffffffffffffff16021790555050565b80600260006101000a81548173ffffffffffffffffffffffffffffffffffffffff021916908373ffffffffffffffffffffffffffffffffffffffff16021790555050565b80600160006101000a81548173ffffffffffffffffffffffffffffffffffffffff021916908373ffffffffffffffffffffffffffffffffffffffff16021790555050565b60008060009054906101000a900473ffffffffffffffffffffffffffffffffffffffff16905090565b6110188282604051602401610f96929190612395565b6040516020818303038152906040527fb60e72cc000000000000000000000000000000000000000000000000000000007bffffffffffffffffffffffffffffffffffffffffffffffffffffffff19166020820180517bffffffffffffffffffffffffffffffffffffffffffffffffffffffff8381831617835250505050611238565b5050565b6110b482826040516024016110329291906123c5565b6040516020818303038152906040527f319af333000000000000000000000000000000000000000000000000000000007bffffffffffffffffffffffffffffffffffffffffffffffffffffffff19166020820180517bffffffffffffffffffffffffffffffffffffffffffffffffffffffff8381831617835250505050611238565b5050565b61115082826040516024016110ce9291906123f5565b6040516020818303038152906040527f4b5c4277000000000000000000000000000000000000000000000000000000007bffffffffffffffffffffffffffffffffffffffffffffffffffffffff19166020820180517bffffffffffffffffffffffffffffffffffffffffffffffffffffffff8381831617835250505050611238565b5050565b6111d58363a9059cbb60e01b848460405160240161117392919061242c565b604051602081830303815290604052907bffffffffffffffffffffffffffffffffffffffffffffffffffffffff19166020820180517bffffffffffffffffffffffffffffffffffffffffffffffffffffffff8381831617835250505050611261565b505050565b60008082846111e99190611dfe565b90508381101561122e576040517f08c379a0000000000000000000000000000000000000000000000000000000008152600401611225906124a1565b60405180910390fd5b8091505092915050565b60008151905060006a636f6e736f6c652e6c6f679050602083016000808483855afa5050505050565b60006112c3826040518060400160405280602081526020017f5361666545524332303a206c6f772d6c6576656c2063616c6c206661696c65648152508573ffffffffffffffffffffffffffffffffffffffff166113289092919063ffffffff16565b905060008151111561132357808060200190518101906112e391906122a9565b611322576040517f08c379a000000000000000000000000000000000000000000000000000000000815260040161131990612533565b60405180910390fd5b5b505050565b60606113378484600085611340565b90509392505050565b606082471015611385576040517f08c379a000000000000000000000000000000000000000000000000000000000815260040161137c906125c5565b60405180910390fd5b61138e85611454565b6113cd576040517f08c379a00000000000000000000000000000000000000000000000000000000081526004016113c490612631565b60405180910390fd5b6000808673ffffffffffffffffffffffffffffffffffffffff1685876040516113f69190612698565b60006040518083038185875af1925050503d8060008114611433576040519150601f19603f3d011682016040523d82523d6000602084013e611438565b606091505b5091509150611448828286611477565b92505050949350505050565b6000808273ffffffffffffffffffffffffffffffffffffffff163b119050919050565b60608315611487578290506114d7565b60008351111561149a5782518084602001fd5b816040517f08c379a00000000000000000000000000000000000000000000000000000000081526004016114ce9190611f7a565b60405180910390fd5b9392505050565b6000604051905090565b600080fd5b600080fd5b600080fd5b6000601f19601f8301169050919050565b7f4e487b7100000000000000000000000000000000000000000000000000000000600052604160045260246000fd5b611540826114f7565b810181811067ffffffffffffffff8211171561155f5761155e611508565b5b80604052505050565b60006115726114de565b905061157e8282611537565b919050565b600067ffffffffffffffff82111561159e5761159d611508565b5b602082029050602081019050919050565b600080fd5b600080fd5b600067ffffffffffffffff8211156115d4576115d3611508565b5b6115dd826114f7565b9050602081019050919050565b82818337600083830152505050565b600061160c611607846115b9565b611568565b905082815260208101848484011115611628576116276115b4565b5b6116338482856115ea565b509392505050565b600082601f8301126116505761164f6114f2565b5b81356116608482602086016115f9565b91505092915050565b600061167c61167784611583565b611568565b9050808382526020820190506020840283018581111561169f5761169e6115af565b5b835b818110156116e657803567ffffffffffffffff8111156116c4576116c36114f2565b5b8086016116d1898261163b565b855260208501945050506020810190506116a1565b5050509392505050565b600082601f830112611705576117046114f2565b5b8135611715848260208601611669565b91505092915050565b600067ffffffffffffffff82111561173957611738611508565b5b602082029050602081019050919050565b6000819050919050565b61175d8161174a565b811461176857600080fd5b50565b60008135905061177a81611754565b92915050565b600061179361178e8461171e565b611568565b905080838252602082019050602084028301858111156117b6576117b56115af565b5b835b818110156117df57806117cb888261176b565b8452602084019350506020810190506117b8565b5050509392505050565b600082601f8301126117fe576117fd6114f2565b5b813561180e848260208601611780565b91505092915050565b6000806040838503121561182e5761182d6114e8565b5b600083013567ffffffffffffffff81111561184c5761184b6114ed565b5b611858858286016116f0565b925050602083013567ffffffffffffffff811115611879576118786114ed565b5b611885858286016117e9565b9150509250929050565b6118988161174a565b82525050565b60006020820190506118b3600083018461188f565b92915050565b600073ffffffffffffffffffffffffffffffffffffffff82169050919050565b60006118e4826118b9565b9050919050565b6118f4816118d9565b81146118ff57600080fd5b50565b600081359050611911816118eb565b92915050565b60006020828403121561192d5761192c6114e8565b5b600061193b84828501611902565b91505092915050565b60006020828403121561195a576119596114e8565b5b60006119688482850161176b565b91505092915050565b61197a816118d9565b82525050565b60006020820190506119956000830184611971565b92915050565b600080fd5b60008083601f8401126119b6576119b56114f2565b5b8235905067ffffffffffffffff8111156119d3576119d261199b565b5b6020830191508360208202830111156119ef576119ee6115af565b5b9250929050565b60008083601f840112611a0c57611a0b6114f2565b5b8235905067ffffffffffffffff811115611a2957611a2861199b565b5b602083019150836020820283011115611a4557611a446115af565b5b9250929050565b60008060008060408587031215611a6657611a656114e8565b5b600085013567ffffffffffffffff811115611a8457611a836114ed565b5b611a90878288016119a0565b9450945050602085013567ffffffffffffffff811115611ab357611ab26114ed565b5b611abf878288016119f6565b925092505092959194509250565b6000819050919050565b6000611af2611aed611ae8846118b9565b611acd565b6118b9565b9050919050565b6000611b0482611ad7565b9050919050565b6000611b1682611af9565b9050919050565b611b2681611b0b565b82525050565b6000602082019050611b416000830184611b1d565b92915050565b600082825260208201905092915050565b7f506c6561736520636865636b2074686520646174612c20746865206e6577732060008201527f494420616e6420646973747269627574696f6e207175616e746974792061726560208201527f20696e636f6e73697374656e7400000000000000000000000000000000000000604082015250565b6000611bda604d83611b47565b9150611be582611b58565b606082019050919050565b60006020820190508181036000830152611c0981611bcd565b9050919050565b7f52656c656173653a206e6565642073657420546f6b656e204164647265737300600082015250565b6000611c46601f83611b47565b9150611c5182611c10565b602082019050919050565b60006020820190508181036000830152611c7581611c39565b9050919050565b7f52656c656173653a206e65656420736574204368616c6c656e6720436f6e747260008201527f6163742041646472657373000000000000000000000000000000000000000000602082015250565b6000611cd8602b83611b47565b9150611ce382611c7c565b604082019050919050565b60006020820190508181036000830152611d0781611ccb565b9050919050565b7f52656c656173653a206e65656420736574204c6f636b20436f6e74726163742060008201527f4164647265737300000000000000000000000000000000000000000000000000602082015250565b6000611d6a602783611b47565b9150611d7582611d0e565b604082019050919050565b60006020820190508181036000830152611d9981611d5d565b9050919050565b7f4e487b7100000000000000000000000000000000000000000000000000000000600052603260045260246000fd5b7f4e487b7100000000000000000000000000000000000000000000000000000000600052601160045260246000fd5b6000611e098261174a565b9150611e148361174a565b9250828201905080821115611e2c57611e2b611dcf565b5b92915050565b6000611e3d8261174a565b91507fffffffffffffffffffffffffffffffffffffffffffffffffffffffffffffffff8203611e6f57611e6e611dcf565b5b600182019050919050565b7f52656c656173653a20496e73756666696369656e7420746f74616c20616d6f7560008201527f6e7420617661696c61626c6520666f7220646973747269627574696f6e000000602082015250565b6000611ed6603d83611b47565b9150611ee182611e7a565b604082019050919050565b60006020820190508181036000830152611f0581611ec9565b9050919050565b600081519050919050565b60005b83811015611f35578082015181840152602081019050611f1a565b60008484015250505050565b6000611f4c82611f0c565b611f568185611b47565b9350611f66818560208601611f17565b611f6f816114f7565b840191505092915050565b60006020820190508181036000830152611f948184611f41565b905092915050565b600080fd5b600080fd5b6000611fb9611fb4846115b9565b611568565b905082815260208101848484011115611fd557611fd46115b4565b5b611fe0848285611f17565b509392505050565b600082601f830112611ffd57611ffc6114f2565b5b815161200d848260208601611fa6565b91505092915050565b600081519050612025816118eb565b92915050565b60008151905061203a81611754565b92915050565b60008115159050919050565b61205581612040565b811461206057600080fd5b50565b6000815190506120728161204c565b92915050565b6000610180828403121561208f5761208e611f9c565b5b61209a610180611568565b9050600082015167ffffffffffffffff8111156120ba576120b9611fa1565b5b6120c684828501611fe8565b60008301525060206120da84828501612016565b60208301525060406120ee8482850161202b565b60408301525060606121028482850161202b565b606083015250608061211684828501612063565b60808301525060a061212a84828501612063565b60a08301525060c061213e84828501612063565b60c08301525060e06121528482850161202b565b60e08301525061010061216784828501612063565b6101008301525061012061217d8482850161202b565b610120830152506101406121938482850161202b565b610140830152506101606121a98482850161202b565b6101608301525092915050565b6000602082840312156121cc576121cb6114e8565b5b600082015167ffffffffffffffff8111156121ea576121e96114ed565b5b6121f684828501612078565b91505092915050565b6000606082019050612214600083018661188f565b6122216020830185611971565b81810360408301526122338184611f41565b9050949350505050565b7f4e6f207175616e7469747920746f2073656e6400000000000000000000000000600082015250565b6000612273601383611b47565b915061227e8261223d565b602082019050919050565b600060208201905081810360008301526122a281612266565b9050919050565b6000602082840312156122bf576122be6114e8565b5b60006122cd84828501612063565b91505092915050565b7f546865206e756d626572206f66206169722064726f707320657863656564732060008201527f746865206461696c792072656c6561736520616d6f756e740000000000000000602082015250565b6000612332603883611b47565b915061233d826122d6565b604082019050919050565b6000602082019050818103600083015261236181612325565b9050919050565b60006020828403121561237e5761237d6114e8565b5b600061238c8482850161202b565b91505092915050565b600060408201905081810360008301526123af8185611f41565b90506123be602083018461188f565b9392505050565b600060408201905081810360008301526123df8185611f41565b90506123ee6020830184611971565b9392505050565b6000604082019050818103600083015261240f8185611f41565b905081810360208301526124238184611f41565b90509392505050565b60006040820190506124416000830185611971565b61244e602083018461188f565b9392505050565b7f536166654d6174683a206164646974696f6e206f766572666c6f770000000000600082015250565b600061248b601b83611b47565b915061249682612455565b602082019050919050565b600060208201905081810360008301526124ba8161247e565b9050919050565b7f5361666545524332303a204552433230206f7065726174696f6e20646964206e60008201527f6f74207375636365656400000000000000000000000000000000000000000000602082015250565b600061251d602a83611b47565b9150612528826124c1565b604082019050919050565b6000602082019050818103600083015261254c81612510565b9050919050565b7f416464726573733a20696e73756666696369656e742062616c616e636520666f60008201527f722063616c6c0000000000000000000000000000000000000000000000000000602082015250565b60006125af602683611b47565b91506125ba82612553565b604082019050919050565b600060208201905081810360008301526125de816125a2565b9050919050565b7f416464726573733a2063616c6c20746f206e6f6e2d636f6e7472616374000000600082015250565b600061261b601d83611b47565b9150612626826125e5565b602082019050919050565b6000602082019050818103600083015261264a8161260e565b9050919050565b600081519050919050565b600081905092915050565b600061267282612651565b61267c818561265c565b935061268c818560208601611f17565b80840191505092915050565b60006126a48284612667565b91508190509291505056fea2646970667358221220b9ab8311bceed35deafb2e687cf490d978f6ee984adf11d7bd7a2b3dd1b5647d64736f6c63430008130033",
			"opcodes": "PUSH1 0x80 PUSH1 0x40 MSTORE PUSH1 0x12 PUSH1 0x4 SSTORE CALLVALUE DUP1 ISZERO PUSH2 0x15 JUMPI PUSH1 0x0 DUP1 REVERT JUMPDEST POP CALLER PUSH1 0x6 PUSH1 0x0 PUSH2 0x100 EXP DUP2 SLOAD DUP2 PUSH20 0xFFFFFFFFFFFFFFFFFFFFFFFFFFFFFFFFFFFFFFFF MUL NOT AND SWAP1 DUP4 PUSH20 0xFFFFFFFFFFFFFFFFFFFFFFFFFFFFFFFFFFFFFFFF AND MUL OR SWAP1 SSTORE POP PUSH2 0x26E5 DUP1 PUSH2 0x66 PUSH1 0x0 CODECOPY PUSH1 0x0 RETURN INVALID PUSH1 0x80 PUSH1 0x40 MSTORE CALLVALUE DUP1 ISZERO PUSH2 0x10 JUMPI PUSH1 0x0 DUP1 REVERT JUMPDEST POP PUSH1 0x4 CALLDATASIZE LT PUSH2 0xEA JUMPI PUSH1 0x0 CALLDATALOAD PUSH1 0xE0 SHR DUP1 PUSH4 0x5459B8A3 GT PUSH2 0x8C JUMPI DUP1 PUSH4 0xA6F9DAE1 GT PUSH2 0x66 JUMPI DUP1 PUSH4 0xA6F9DAE1 EQ PUSH2 0x213 JUMPI DUP1 PUSH4 0xC4529E37 EQ PUSH2 0x22F JUMPI DUP1 PUSH4 0xC52C31FA EQ PUSH2 0x24B JUMPI DUP1 PUSH4 0xFC0C546A EQ PUSH2 0x267 JUMPI PUSH2 0xEA JUMP JUMPDEST DUP1 PUSH4 0x5459B8A3 EQ PUSH2 0x1BB JUMPI DUP1 PUSH4 0x9E1A4D19 EQ PUSH2 0x1D7 JUMPI DUP1 PUSH4 0xA39865E7 EQ PUSH2 0x1F5 JUMPI PUSH2 0xEA JUMP JUMPDEST DUP1 PUSH4 0x313CE567 GT PUSH2 0xC8 JUMPI DUP1 PUSH4 0x313CE567 EQ PUSH2 0x145 JUMPI DUP1 PUSH4 0x42966C68 EQ PUSH2 0x163 JUMPI DUP1 PUSH4 0x47A58626 EQ PUSH2 0x17F JUMPI DUP1 PUSH4 0x4B14C0EF EQ PUSH2 0x19D JUMPI PUSH2 0xEA JUMP JUMPDEST DUP1 PUSH4 0xAF8668F EQ PUSH2 0xEF JUMPI DUP1 PUSH4 0x188EC356 EQ PUSH2 0x10B JUMPI DUP1 PUSH4 0x26A4E8D2 EQ PUSH2 0x129 JUMPI JUMPDEST PUSH1 0x0 DUP1 REVERT JUMPDEST PUSH2 0x109 PUSH1 0x4 DUP1 CALLDATASIZE SUB DUP2 ADD SWAP1 PUSH2 0x104 SWAP2 SWAP1 PUSH2 0x1817 JUMP JUMPDEST PUSH2 0x285 JUMP JUMPDEST STOP JUMPDEST PUSH2 0x113 PUSH2 0x801 JUMP JUMPDEST PUSH1 0x40 MLOAD PUSH2 0x120 SWAP2 SWAP1 PUSH2 0x189E JUMP JUMPDEST PUSH1 0x40 MLOAD DUP1 SWAP2 SUB SWAP1 RETURN JUMPDEST PUSH2 0x143 PUSH1 0x4 DUP1 CALLDATASIZE SUB DUP2 ADD SWAP1 PUSH2 0x13E SWAP2 SWAP1 PUSH2 0x1917 JUMP JUMPDEST PUSH2 0x809 JUMP JUMPDEST STOP JUMPDEST PUSH2 0x14D PUSH2 0x8E7 JUMP JUMPDEST PUSH1 0x40 MLOAD PUSH2 0x15A SWAP2 SWAP1 PUSH2 0x189E JUMP JUMPDEST PUSH1 0x40 MLOAD DUP1 SWAP2 SUB SWAP1 RETURN JUMPDEST PUSH2 0x17D PUSH1 0x4 DUP1 CALLDATASIZE SUB DUP2 ADD SWAP1 PUSH2 0x178 SWAP2 SWAP1 PUSH2 0x1944 JUMP JUMPDEST PUSH2 0x8F1 JUMP JUMPDEST STOP JUMPDEST PUSH2 0x187 PUSH2 0xAC7 JUMP JUMPDEST PUSH1 0x40 MLOAD PUSH2 0x194 SWAP2 SWAP1 PUSH2 0x1980 JUMP JUMPDEST PUSH1 0x40 MLOAD DUP1 SWAP2 SUB SWAP1 RETURN JUMPDEST PUSH2 0x1A5 PUSH2 0xAF1 JUMP JUMPDEST PUSH1 0x40 MLOAD PUSH2 0x1B2 SWAP2 SWAP1 PUSH2 0x189E JUMP JUMPDEST PUSH1 0x40 MLOAD DUP1 SWAP2 SUB SWAP1 RETURN JUMPDEST PUSH2 0x1D5 PUSH1 0x4 DUP1 CALLDATASIZE SUB DUP2 ADD SWAP1 PUSH2 0x1D0 SWAP2 SWAP1 PUSH2 0x1A4C JUMP JUMPDEST PUSH2 0xAFB JUMP JUMPDEST STOP JUMPDEST PUSH2 0x1DF PUSH2 0xD35 JUMP JUMPDEST PUSH1 0x40 MLOAD PUSH2 0x1EC SWAP2 SWAP1 PUSH2 0x189E JUMP JUMPDEST PUSH1 0x40 MLOAD DUP1 SWAP2 SUB SWAP1 RETURN JUMPDEST PUSH2 0x1FD PUSH2 0xE07 JUMP JUMPDEST PUSH1 0x40 MLOAD PUSH2 0x20A SWAP2 SWAP1 PUSH2 0x1980 JUMP JUMPDEST PUSH1 0x40 MLOAD DUP1 SWAP2 SUB SWAP1 RETURN JUMPDEST PUSH2 0x22D PUSH1 0x4 DUP1 CALLDATASIZE SUB DUP2 ADD SWAP1 PUSH2 0x228 SWAP2 SWAP1 PUSH2 0x1917 JUMP JUMPDEST PUSH2 0xE31 JUMP JUMPDEST STOP JUMPDEST PUSH2 0x249 PUSH1 0x4 DUP1 CALLDATASIZE SUB DUP2 ADD SWAP1 PUSH2 0x244 SWAP2 SWAP1 PUSH2 0x1917 JUMP JUMPDEST PUSH2 0xECF JUMP JUMPDEST STOP JUMPDEST PUSH2 0x265 PUSH1 0x4 DUP1 CALLDATASIZE SUB DUP2 ADD SWAP1 PUSH2 0x260 SWAP2 SWAP1 PUSH2 0x1917 JUMP JUMPDEST PUSH2 0xF13 JUMP JUMPDEST STOP JUMPDEST PUSH2 0x26F PUSH2 0xF57 JUMP JUMPDEST PUSH1 0x40 MLOAD PUSH2 0x27C SWAP2 SWAP1 PUSH2 0x1B2C JUMP JUMPDEST PUSH1 0x40 MLOAD DUP1 SWAP2 SUB SWAP1 RETURN JUMPDEST PUSH1 0x6 PUSH1 0x0 SWAP1 SLOAD SWAP1 PUSH2 0x100 EXP SWAP1 DIV PUSH20 0xFFFFFFFFFFFFFFFFFFFFFFFFFFFFFFFFFFFFFFFF AND PUSH20 0xFFFFFFFFFFFFFFFFFFFFFFFFFFFFFFFFFFFFFFFF AND CALLER PUSH20 0xFFFFFFFFFFFFFFFFFFFFFFFFFFFFFFFFFFFFFFFF AND EQ PUSH2 0x2DF JUMPI PUSH1 0x0 DUP1 REVERT JUMPDEST DUP1 MLOAD DUP3 MLOAD EQ PUSH2 0x323 JUMPI PUSH1 0x40 MLOAD PUSH32 0x8C379A000000000000000000000000000000000000000000000000000000000 DUP2 MSTORE PUSH1 0x4 ADD PUSH2 0x31A SWAP1 PUSH2 0x1BF0 JUMP JUMPDEST PUSH1 0x40 MLOAD DUP1 SWAP2 SUB SWAP1 REVERT JUMPDEST PUSH1 0x0 PUSH20 0xFFFFFFFFFFFFFFFFFFFFFFFFFFFFFFFFFFFFFFFF AND PUSH2 0x343 PUSH2 0xF57 JUMP JUMPDEST PUSH20 0xFFFFFFFFFFFFFFFFFFFFFFFFFFFFFFFFFFFFFFFF AND SUB PUSH2 0x399 JUMPI PUSH1 0x40 MLOAD PUSH32 0x8C379A000000000000000000000000000000000000000000000000000000000 DUP2 MSTORE PUSH1 0x4 ADD PUSH2 0x390 SWAP1 PUSH2 0x1C5C JUMP JUMPDEST PUSH1 0x40 MLOAD DUP1 SWAP2 SUB SWAP1 REVERT JUMPDEST PUSH1 0x0 PUSH20 0xFFFFFFFFFFFFFFFFFFFFFFFFFFFFFFFFFFFFFFFF AND PUSH2 0x3B9 PUSH2 0xAC7 JUMP JUMPDEST PUSH20 0xFFFFFFFFFFFFFFFFFFFFFFFFFFFFFFFFFFFFFFFF AND SUB PUSH2 0x40F JUMPI PUSH1 0x40 MLOAD PUSH32 0x8C379A000000000000000000000000000000000000000000000000000000000 DUP2 MSTORE PUSH1 0x4 ADD PUSH2 0x406 SWAP1 PUSH2 0x1CEE JUMP JUMPDEST PUSH1 0x40 MLOAD DUP1 SWAP2 SUB SWAP1 REVERT JUMPDEST PUSH1 0x0 PUSH20 0xFFFFFFFFFFFFFFFFFFFFFFFFFFFFFFFFFFFFFFFF AND PUSH2 0x42F PUSH2 0xE07 JUMP JUMPDEST PUSH20 0xFFFFFFFFFFFFFFFFFFFFFFFFFFFFFFFFFFFFFFFF AND SUB PUSH2 0x485 JUMPI PUSH1 0x40 MLOAD PUSH32 0x8C379A000000000000000000000000000000000000000000000000000000000 DUP2 MSTORE PUSH1 0x4 ADD PUSH2 0x47C SWAP1 PUSH2 0x1D80 JUMP JUMPDEST PUSH1 0x40 MLOAD DUP1 SWAP2 SUB SWAP1 REVERT JUMPDEST PUSH1 0x0 DUP1 JUMPDEST DUP3 MLOAD DUP2 LT ISZERO PUSH2 0x4CD JUMPI DUP3 DUP2 DUP2 MLOAD DUP2 LT PUSH2 0x4A5 JUMPI PUSH2 0x4A4 PUSH2 0x1DA0 JUMP JUMPDEST JUMPDEST PUSH1 0x20 MUL PUSH1 0x20 ADD ADD MLOAD DUP3 PUSH2 0x4B8 SWAP2 SWAP1 PUSH2 0x1DFE JUMP JUMPDEST SWAP2 POP DUP1 DUP1 PUSH2 0x4C5 SWAP1 PUSH2 0x1E32 JUMP JUMPDEST SWAP2 POP POP PUSH2 0x489 JUMP JUMPDEST POP DUP1 PUSH2 0x4D7 PUSH2 0xD35 JUMP JUMPDEST LT ISZERO PUSH2 0x518 JUMPI PUSH1 0x40 MLOAD PUSH32 0x8C379A000000000000000000000000000000000000000000000000000000000 DUP2 MSTORE PUSH1 0x4 ADD PUSH2 0x50F SWAP1 PUSH2 0x1EEC JUMP JUMPDEST PUSH1 0x40 MLOAD DUP1 SWAP2 SUB SWAP1 REVERT JUMPDEST PUSH1 0x0 PUSH2 0x522 PUSH2 0xAC7 JUMP JUMPDEST SWAP1 POP PUSH1 0x0 PUSH2 0x52E PUSH2 0xE07 JUMP JUMPDEST SWAP1 POP PUSH1 0x0 JUMPDEST DUP6 MLOAD DUP2 LT ISZERO PUSH2 0x7F9 JUMPI PUSH1 0x0 DUP4 PUSH20 0xFFFFFFFFFFFFFFFFFFFFFFFFFFFFFFFFFFFFFFFF AND PUSH4 0x6441F9D0 DUP9 DUP5 DUP2 MLOAD DUP2 LT PUSH2 0x56D JUMPI PUSH2 0x56C PUSH2 0x1DA0 JUMP JUMPDEST JUMPDEST PUSH1 0x20 MUL PUSH1 0x20 ADD ADD MLOAD PUSH1 0x40 MLOAD DUP3 PUSH4 0xFFFFFFFF AND PUSH1 0xE0 SHL DUP2 MSTORE PUSH1 0x4 ADD PUSH2 0x591 SWAP2 SWAP1 PUSH2 0x1F7A JUMP JUMPDEST PUSH1 0x0 PUSH1 0x40 MLOAD DUP1 DUP4 SUB DUP2 DUP7 GAS STATICCALL ISZERO DUP1 ISZERO PUSH2 0x5AE JUMPI RETURNDATASIZE PUSH1 0x0 DUP1 RETURNDATACOPY RETURNDATASIZE PUSH1 0x0 REVERT JUMPDEST POP POP POP POP PUSH1 0x40 MLOAD RETURNDATASIZE PUSH1 0x0 DUP3 RETURNDATACOPY RETURNDATASIZE PUSH1 0x1F NOT PUSH1 0x1F DUP3 ADD AND DUP3 ADD DUP1 PUSH1 0x40 MSTORE POP DUP2 ADD SWAP1 PUSH2 0x5D7 SWAP2 SWAP1 PUSH2 0x21B6 JUMP JUMPDEST SWAP1 POP PUSH1 0x0 DUP2 PUSH1 0x20 ADD MLOAD SWAP1 POP PUSH1 0x0 DUP8 DUP5 DUP2 MLOAD DUP2 LT PUSH2 0x5F7 JUMPI PUSH2 0x5F6 PUSH2 0x1DA0 JUMP JUMPDEST JUMPDEST PUSH1 0x20 MUL PUSH1 0x20 ADD ADD MLOAD SWAP1 POP PUSH1 0x0 PUSH20 0xFFFFFFFFFFFFFFFFFFFFFFFFFFFFFFFFFFFFFFFF AND DUP3 PUSH20 0xFFFFFFFFFFFFFFFFFFFFFFFFFFFFFFFFFFFFFFFF AND EQ PUSH2 0x7E3 JUMPI PUSH2 0x674 PUSH1 0x40 MLOAD DUP1 PUSH1 0x40 ADD PUSH1 0x40 MSTORE DUP1 PUSH1 0x15 DUP2 MSTORE PUSH1 0x20 ADD PUSH32 0x7468652072656365697665416D6F756E74206973200000000000000000000000 DUP2 MSTORE POP DUP3 PUSH2 0xF80 JUMP JUMPDEST PUSH2 0x6B3 PUSH1 0x40 MLOAD DUP1 PUSH1 0x40 ADD PUSH1 0x40 MSTORE DUP1 PUSH1 0x16 DUP2 MSTORE PUSH1 0x20 ADD PUSH32 0x7468652072656365697665416464726573732069732000000000000000000000 DUP2 MSTORE POP DUP4 PUSH2 0x101C JUMP JUMPDEST PUSH2 0x70C PUSH1 0x40 MLOAD DUP1 PUSH1 0x40 ADD PUSH1 0x40 MSTORE DUP1 PUSH1 0x12 DUP2 MSTORE PUSH1 0x20 ADD PUSH32 0x746865207468656D6549645B695D206973200000000000000000000000000000 DUP2 MSTORE POP DUP11 DUP7 DUP2 MLOAD DUP2 LT PUSH2 0x6FF JUMPI PUSH2 0x6FE PUSH2 0x1DA0 JUMP JUMPDEST JUMPDEST PUSH1 0x20 MUL PUSH1 0x20 ADD ADD MLOAD PUSH2 0x10B8 JUMP JUMPDEST DUP5 PUSH20 0xFFFFFFFFFFFFFFFFFFFFFFFFFFFFFFFFFFFFFFFF AND PUSH4 0xFF46E36A DUP3 DUP5 DUP13 DUP9 DUP2 MLOAD DUP2 LT PUSH2 0x73D JUMPI PUSH2 0x73C PUSH2 0x1DA0 JUMP JUMPDEST JUMPDEST PUSH1 0x20 MUL PUSH1 0x20 ADD ADD MLOAD PUSH1 0x40 MLOAD DUP5 PUSH4 0xFFFFFFFF AND PUSH1 0xE0 SHL DUP2 MSTORE PUSH1 0x4 ADD PUSH2 0x763 SWAP4 SWAP3 SWAP2 SWAP1 PUSH2 0x21FF JUMP JUMPDEST PUSH1 0x0 PUSH1 0x40 MLOAD DUP1 DUP4 SUB DUP2 PUSH1 0x0 DUP8 DUP1 EXTCODESIZE ISZERO DUP1 ISZERO PUSH2 0x77D JUMPI PUSH1 0x0 DUP1 REVERT JUMPDEST POP GAS CALL ISZERO DUP1 ISZERO PUSH2 0x791 JUMPI RETURNDATASIZE PUSH1 0x0 DUP1 RETURNDATACOPY RETURNDATASIZE PUSH1 0x0 REVERT JUMPDEST POP POP POP POP PUSH2 0x7CE PUSH2 0x7A0 PUSH2 0xE07 JUMP JUMPDEST DUP3 PUSH2 0x7A9 PUSH2 0xF57 JUMP JUMPDEST PUSH20 0xFFFFFFFFFFFFFFFFFFFFFFFFFFFFFFFFFFFFFFFF AND PUSH2 0x1154 SWAP1 SWAP3 SWAP2 SWAP1 PUSH4 0xFFFFFFFF AND JUMP JUMPDEST DUP1 PUSH1 0x5 SLOAD PUSH2 0x7DC SWAP2 SWAP1 PUSH2 0x1DFE JUMP JUMPDEST PUSH1 0x5 DUP2 SWAP1 SSTORE POP JUMPDEST POP POP POP DUP1 DUP1 PUSH2 0x7F1 SWAP1 PUSH2 0x1E32 JUMP JUMPDEST SWAP2 POP POP PUSH2 0x533 JUMP JUMPDEST POP POP POP POP POP POP JUMP JUMPDEST PUSH1 0x0 TIMESTAMP SWAP1 POP SWAP1 JUMP JUMPDEST PUSH1 0x6 PUSH1 0x0 SWAP1 SLOAD SWAP1 PUSH2 0x100 EXP SWAP1 DIV PUSH20 0xFFFFFFFFFFFFFFFFFFFFFFFFFFFFFFFFFFFFFFFF AND PUSH20 0xFFFFFFFFFFFFFFFFFFFFFFFFFFFFFFFFFFFFFFFF AND CALLER PUSH20 0xFFFFFFFFFFFFFFFFFFFFFFFFFFFFFFFFFFFFFFFF AND EQ PUSH2 0x863 JUMPI PUSH1 0x0 DUP1 REVERT JUMPDEST DUP1 PUSH1 0x3 PUSH1 0x0 PUSH2 0x100 EXP DUP2 SLOAD DUP2 PUSH20 0xFFFFFFFFFFFFFFFFFFFFFFFFFFFFFFFFFFFFFFFF MUL NOT AND SWAP1 DUP4 PUSH20 0xFFFFFFFFFFFFFFFFFFFFFFFFFFFFFFFFFFFFFFFF AND MUL OR SWAP1 SSTORE POP DUP1 PUSH1 0x0 DUP1 PUSH2 0x100 EXP DUP2 SLOAD DUP2 PUSH20 0xFFFFFFFFFFFFFFFFFFFFFFFFFFFFFFFFFFFFFFFF MUL NOT AND SWAP1 DUP4 PUSH20 0xFFFFFFFFFFFFFFFFFFFFFFFFFFFFFFFFFFFFFFFF AND MUL OR SWAP1 SSTORE POP POP JUMP JUMPDEST PUSH1 0x0 PUSH1 0x4 SLOAD SWAP1 POP SWAP1 JUMP JUMPDEST PUSH1 0x6 PUSH1 0x0 SWAP1 SLOAD SWAP1 PUSH2 0x100 EXP SWAP1 DIV PUSH20 0xFFFFFFFFFFFFFFFFFFFFFFFFFFFFFFFFFFFFFFFF AND PUSH20 0xFFFFFFFFFFFFFFFFFFFFFFFFFFFFFFFFFFFFFFFF AND CALLER PUSH20 0xFFFFFFFFFFFFFFFFFFFFFFFFFFFFFFFFFFFFFFFF AND EQ PUSH2 0x94B JUMPI PUSH1 0x0 DUP1 REVERT JUMPDEST PUSH1 0x0 PUSH20 0xFFFFFFFFFFFFFFFFFFFFFFFFFFFFFFFFFFFFFFFF AND PUSH1 0x3 PUSH1 0x0 SWAP1 SLOAD SWAP1 PUSH2 0x100 EXP SWAP1 DIV PUSH20 0xFFFFFFFFFFFFFFFFFFFFFFFFFFFFFFFFFFFFFFFF AND PUSH20 0xFFFFFFFFFFFFFFFFFFFFFFFFFFFFFFFFFFFFFFFF AND SUB PUSH2 0x9DC JUMPI PUSH1 0x40 MLOAD PUSH32 0x8C379A000000000000000000000000000000000000000000000000000000000 DUP2 MSTORE PUSH1 0x4 ADD PUSH2 0x9D3 SWAP1 PUSH2 0x1C5C JUMP JUMPDEST PUSH1 0x40 MLOAD DUP1 SWAP2 SUB SWAP1 REVERT JUMPDEST PUSH1 0x0 DUP2 GT PUSH2 0xA1F JUMPI PUSH1 0x40 MLOAD PUSH32 0x8C379A000000000000000000000000000000000000000000000000000000000 DUP2 MSTORE PUSH1 0x4 ADD PUSH2 0xA16 SWAP1 PUSH2 0x2289 JUMP JUMPDEST PUSH1 0x40 MLOAD DUP1 SWAP2 SUB SWAP1 REVERT JUMPDEST PUSH1 0x0 PUSH1 0x3 PUSH1 0x0 SWAP1 SLOAD SWAP1 PUSH2 0x100 EXP SWAP1 DIV PUSH20 0xFFFFFFFFFFFFFFFFFFFFFFFFFFFFFFFFFFFFFFFF AND SWAP1 POP DUP1 PUSH20 0xFFFFFFFFFFFFFFFFFFFFFFFFFFFFFFFFFFFFFFFF AND PUSH4 0x42966C68 DUP4 PUSH1 0x40 MLOAD DUP3 PUSH4 0xFFFFFFFF AND PUSH1 0xE0 SHL DUP2 MSTORE PUSH1 0x4 ADD PUSH2 0xA7F SWAP2 SWAP1 PUSH2 0x189E JUMP JUMPDEST PUSH1 0x20 PUSH1 0x40 MLOAD DUP1 DUP4 SUB DUP2 PUSH1 0x0 DUP8 GAS CALL ISZERO DUP1 ISZERO PUSH2 0xA9E JUMPI RETURNDATASIZE PUSH1 0x0 DUP1 RETURNDATACOPY RETURNDATASIZE PUSH1 0x0 REVERT JUMPDEST POP POP POP POP PUSH1 0x40 MLOAD RETURNDATASIZE PUSH1 0x1F NOT PUSH1 0x1F DUP3 ADD AND DUP3 ADD DUP1 PUSH1 0x40 MSTORE POP DUP2 ADD SWAP1 PUSH2 0xAC2 SWAP2 SWAP1 PUSH2 0x22A9 JUMP JUMPDEST POP POP POP JUMP JUMPDEST PUSH1 0x0 PUSH1 0x1 PUSH1 0x0 SWAP1 SLOAD SWAP1 PUSH2 0x100 EXP SWAP1 DIV PUSH20 0xFFFFFFFFFFFFFFFFFFFFFFFFFFFFFFFFFFFFFFFF AND SWAP1 POP SWAP1 JUMP JUMPDEST PUSH1 0x0 PUSH1 0x5 SLOAD SWAP1 POP SWAP1 JUMP JUMPDEST PUSH1 0x0 PUSH20 0xFFFFFFFFFFFFFFFFFFFFFFFFFFFFFFFFFFFFFFFF AND PUSH1 0x0 DUP1 SLOAD SWAP1 PUSH2 0x100 EXP SWAP1 DIV PUSH20 0xFFFFFFFFFFFFFFFFFFFFFFFFFFFFFFFFFFFFFFFF AND PUSH20 0xFFFFFFFFFFFFFFFFFFFFFFFFFFFFFFFFFFFFFFFF AND SUB PUSH2 0xB8A JUMPI PUSH1 0x40 MLOAD PUSH32 0x8C379A000000000000000000000000000000000000000000000000000000000 DUP2 MSTORE PUSH1 0x4 ADD PUSH2 0xB81 SWAP1 PUSH2 0x1C5C JUMP JUMPDEST PUSH1 0x40 MLOAD DUP1 SWAP2 SUB SWAP1 REVERT JUMPDEST DUP2 DUP2 SWAP1 POP DUP5 DUP5 SWAP1 POP EQ PUSH2 0xBD2 JUMPI PUSH1 0x40 MLOAD PUSH32 0x8C379A000000000000000000000000000000000000000000000000000000000 DUP2 MSTORE PUSH1 0x4 ADD PUSH2 0xBC9 SWAP1 PUSH2 0x1BF0 JUMP JUMPDEST PUSH1 0x40 MLOAD DUP1 SWAP2 SUB SWAP1 REVERT JUMPDEST PUSH1 0x0 DUP1 JUMPDEST DUP6 DUP6 SWAP1 POP DUP2 LT ISZERO PUSH2 0xC22 JUMPI PUSH2 0xC0D DUP5 DUP5 DUP4 DUP2 DUP2 LT PUSH2 0xBF7 JUMPI PUSH2 0xBF6 PUSH2 0x1DA0 JUMP JUMPDEST JUMPDEST SWAP1 POP PUSH1 0x20 MUL ADD CALLDATALOAD DUP4 PUSH2 0x11DA SWAP1 SWAP2 SWAP1 PUSH4 0xFFFFFFFF AND JUMP JUMPDEST SWAP2 POP DUP1 DUP1 PUSH2 0xC1A SWAP1 PUSH2 0x1E32 JUMP JUMPDEST SWAP2 POP POP PUSH2 0xBD6 JUMP JUMPDEST POP DUP1 PUSH2 0xC2C PUSH2 0xD35 JUMP JUMPDEST LT ISZERO PUSH2 0xC6D JUMPI PUSH1 0x40 MLOAD PUSH32 0x8C379A000000000000000000000000000000000000000000000000000000000 DUP2 MSTORE PUSH1 0x4 ADD PUSH2 0xC64 SWAP1 PUSH2 0x2348 JUMP JUMPDEST PUSH1 0x40 MLOAD DUP1 SWAP2 SUB SWAP1 REVERT JUMPDEST PUSH1 0x0 JUMPDEST DUP6 DUP6 SWAP1 POP DUP2 LT ISZERO PUSH2 0xD2D JUMPI PUSH2 0xCED DUP7 DUP7 DUP4 DUP2 DUP2 LT PUSH2 0xC91 JUMPI PUSH2 0xC90 PUSH2 0x1DA0 JUMP JUMPDEST JUMPDEST SWAP1 POP PUSH1 0x20 MUL ADD PUSH1 0x20 DUP2 ADD SWAP1 PUSH2 0xCA6 SWAP2 SWAP1 PUSH2 0x1917 JUMP JUMPDEST DUP6 DUP6 DUP5 DUP2 DUP2 LT PUSH2 0xCB9 JUMPI PUSH2 0xCB8 PUSH2 0x1DA0 JUMP JUMPDEST JUMPDEST SWAP1 POP PUSH1 0x20 MUL ADD CALLDATALOAD PUSH2 0xCC8 PUSH2 0xF57 JUMP JUMPDEST PUSH20 0xFFFFFFFFFFFFFFFFFFFFFFFFFFFFFFFFFFFFFFFF AND PUSH2 0x1154 SWAP1 SWAP3 SWAP2 SWAP1 PUSH4 0xFFFFFFFF AND JUMP JUMPDEST DUP4 DUP4 DUP3 DUP2 DUP2 LT PUSH2 0xD00 JUMPI PUSH2 0xCFF PUSH2 0x1DA0 JUMP JUMPDEST JUMPDEST SWAP1 POP PUSH1 0x20 MUL ADD CALLDATALOAD PUSH1 0x5 SLOAD PUSH2 0xD14 SWAP2 SWAP1 PUSH2 0x1DFE JUMP JUMPDEST PUSH1 0x5 DUP2 SWAP1 SSTORE POP DUP1 DUP1 PUSH2 0xD25 SWAP1 PUSH2 0x1E32 JUMP JUMPDEST SWAP2 POP POP PUSH2 0xC70 JUMP JUMPDEST POP POP POP POP POP POP JUMP JUMPDEST PUSH1 0x0 DUP1 PUSH20 0xFFFFFFFFFFFFFFFFFFFFFFFFFFFFFFFFFFFFFFFF AND PUSH2 0xD56 PUSH2 0xF57 JUMP JUMPDEST PUSH20 0xFFFFFFFFFFFFFFFFFFFFFFFFFFFFFFFFFFFFFFFF AND SUB PUSH2 0xD7A JUMPI PUSH1 0x0 SWAP1 POP PUSH2 0xE04 JUMP JUMPDEST PUSH1 0x0 PUSH2 0xD84 PUSH2 0xF57 JUMP JUMPDEST PUSH20 0xFFFFFFFFFFFFFFFFFFFFFFFFFFFFFFFFFFFFFFFF AND PUSH4 0x70A08231 ADDRESS PUSH1 0x40 MLOAD DUP3 PUSH4 0xFFFFFFFF AND PUSH1 0xE0 SHL DUP2 MSTORE PUSH1 0x4 ADD PUSH2 0xDBC SWAP2 SWAP1 PUSH2 0x1980 JUMP JUMPDEST PUSH1 0x20 PUSH1 0x40 MLOAD DUP1 DUP4 SUB DUP2 DUP7 GAS STATICCALL ISZERO DUP1 ISZERO PUSH2 0xDD9 JUMPI RETURNDATASIZE PUSH1 0x0 DUP1 RETURNDATACOPY RETURNDATASIZE PUSH1 0x0 REVERT JUMPDEST POP POP POP POP PUSH1 0x40 MLOAD RETURNDATASIZE PUSH1 0x1F NOT PUSH1 0x1F DUP3 ADD AND DUP3 ADD DUP1 PUSH1 0x40 MSTORE POP DUP2 ADD SWAP1 PUSH2 0xDFD SWAP2 SWAP1 PUSH2 0x2368 JUMP JUMPDEST SWAP1 POP DUP1 SWAP2 POP POP JUMPDEST SWAP1 JUMP JUMPDEST PUSH1 0x0 PUSH1 0x2 PUSH1 0x0 SWAP1 SLOAD SWAP1 PUSH2 0x100 EXP SWAP1 DIV PUSH20 0xFFFFFFFFFFFFFFFFFFFFFFFFFFFFFFFFFFFFFFFF AND SWAP1 POP SWAP1 JUMP JUMPDEST PUSH1 0x6 PUSH1 0x0 SWAP1 SLOAD SWAP1 PUSH2 0x100 EXP SWAP1 DIV PUSH20 0xFFFFFFFFFFFFFFFFFFFFFFFFFFFFFFFFFFFFFFFF AND PUSH20 0xFFFFFFFFFFFFFFFFFFFFFFFFFFFFFFFFFFFFFFFF AND CALLER PUSH20 0xFFFFFFFFFFFFFFFFFFFFFFFFFFFFFFFFFFFFFFFF AND EQ PUSH2 0xE8B JUMPI PUSH1 0x0 DUP1 REVERT JUMPDEST DUP1 PUSH1 0x6 PUSH1 0x0 PUSH2 0x100 EXP DUP2 SLOAD DUP2 PUSH20 0xFFFFFFFFFFFFFFFFFFFFFFFFFFFFFFFFFFFFFFFF MUL NOT AND SWAP1 DUP4 PUSH20 0xFFFFFFFFFFFFFFFFFFFFFFFFFFFFFFFFFFFFFFFF AND MUL OR SWAP1 SSTORE POP POP JUMP JUMPDEST DUP1 PUSH1 0x2 PUSH1 0x0 PUSH2 0x100 EXP DUP2 SLOAD DUP2 PUSH20 0xFFFFFFFFFFFFFFFFFFFFFFFFFFFFFFFFFFFFFFFF MUL NOT AND SWAP1 DUP4 PUSH20 0xFFFFFFFFFFFFFFFFFFFFFFFFFFFFFFFFFFFFFFFF AND MUL OR SWAP1 SSTORE POP POP JUMP JUMPDEST DUP1 PUSH1 0x1 PUSH1 0x0 PUSH2 0x100 EXP DUP2 SLOAD DUP2 PUSH20 0xFFFFFFFFFFFFFFFFFFFFFFFFFFFFFFFFFFFFFFFF MUL NOT AND SWAP1 DUP4 PUSH20 0xFFFFFFFFFFFFFFFFFFFFFFFFFFFFFFFFFFFFFFFF AND MUL OR SWAP1 SSTORE POP POP JUMP JUMPDEST PUSH1 0x0 DUP1 PUSH1 0x0 SWAP1 SLOAD SWAP1 PUSH2 0x100 EXP SWAP1 DIV PUSH20 0xFFFFFFFFFFFFFFFFFFFFFFFFFFFFFFFFFFFFFFFF AND SWAP1 POP SWAP1 JUMP JUMPDEST PUSH2 0x1018 DUP3 DUP3 PUSH1 0x40 MLOAD PUSH1 0x24 ADD PUSH2 0xF96 SWAP3 SWAP2 SWAP1 PUSH2 0x2395 JUMP JUMPDEST PUSH1 0x40 MLOAD PUSH1 0x20 DUP2 DUP4 SUB SUB DUP2 MSTORE SWAP1 PUSH1 0x40 MSTORE PUSH32 0xB60E72CC00000000000000000000000000000000000000000000000000000000 PUSH28 0xFFFFFFFFFFFFFFFFFFFFFFFFFFFFFFFFFFFFFFFFFFFFFFFFFFFFFFFF NOT AND PUSH1 0x20 DUP3 ADD DUP1 MLOAD PUSH28 0xFFFFFFFFFFFFFFFFFFFFFFFFFFFFFFFFFFFFFFFFFFFFFFFFFFFFFFFF DUP4 DUP2 DUP4 AND OR DUP4 MSTORE POP POP POP POP PUSH2 0x1238 JUMP JUMPDEST POP POP JUMP JUMPDEST PUSH2 0x10B4 DUP3 DUP3 PUSH1 0x40 MLOAD PUSH1 0x24 ADD PUSH2 0x1032 SWAP3 SWAP2 SWAP1 PUSH2 0x23C5 JUMP JUMPDEST PUSH1 0x40 MLOAD PUSH1 0x20 DUP2 DUP4 SUB SUB DUP2 MSTORE SWAP1 PUSH1 0x40 MSTORE PUSH32 0x319AF33300000000000000000000000000000000000000000000000000000000 PUSH28 0xFFFFFFFFFFFFFFFFFFFFFFFFFFFFFFFFFFFFFFFFFFFFFFFFFFFFFFFF NOT AND PUSH1 0x20 DUP3 ADD DUP1 MLOAD PUSH28 0xFFFFFFFFFFFFFFFFFFFFFFFFFFFFFFFFFFFFFFFFFFFFFFFFFFFFFFFF DUP4 DUP2 DUP4 AND OR DUP4 MSTORE POP POP POP POP PUSH2 0x1238 JUMP JUMPDEST POP POP JUMP JUMPDEST PUSH2 0x1150 DUP3 DUP3 PUSH1 0x40 MLOAD PUSH1 0x24 ADD PUSH2 0x10CE SWAP3 SWAP2 SWAP1 PUSH2 0x23F5 JUMP JUMPDEST PUSH1 0x40 MLOAD PUSH1 0x20 DUP2 DUP4 SUB SUB DUP2 MSTORE SWAP1 PUSH1 0x40 MSTORE PUSH32 0x4B5C427700000000000000000000000000000000000000000000000000000000 PUSH28 0xFFFFFFFFFFFFFFFFFFFFFFFFFFFFFFFFFFFFFFFFFFFFFFFFFFFFFFFF NOT AND PUSH1 0x20 DUP3 ADD DUP1 MLOAD PUSH28 0xFFFFFFFFFFFFFFFFFFFFFFFFFFFFFFFFFFFFFFFFFFFFFFFFFFFFFFFF DUP4 DUP2 DUP4 AND OR DUP4 MSTORE POP POP POP POP PUSH2 0x1238 JUMP JUMPDEST POP POP JUMP JUMPDEST PUSH2 0x11D5 DUP4 PUSH4 0xA9059CBB PUSH1 0xE0 SHL DUP5 DUP5 PUSH1 0x40 MLOAD PUSH1 0x24 ADD PUSH2 0x1173 SWAP3 SWAP2 SWAP1 PUSH2 0x242C JUMP JUMPDEST PUSH1 0x40 MLOAD PUSH1 0x20 DUP2 DUP4 SUB SUB DUP2 MSTORE SWAP1 PUSH1 0x40 MSTORE SWAP1 PUSH28 0xFFFFFFFFFFFFFFFFFFFFFFFFFFFFFFFFFFFFFFFFFFFFFFFFFFFFFFFF NOT AND PUSH1 0x20 DUP3 ADD DUP1 MLOAD PUSH28 0xFFFFFFFFFFFFFFFFFFFFFFFFFFFFFFFFFFFFFFFFFFFFFFFFFFFFFFFF DUP4 DUP2 DUP4 AND OR DUP4 MSTORE POP POP POP POP PUSH2 0x1261 JUMP JUMPDEST POP POP POP JUMP JUMPDEST PUSH1 0x0 DUP1 DUP3 DUP5 PUSH2 0x11E9 SWAP2 SWAP1 PUSH2 0x1DFE JUMP JUMPDEST SWAP1 POP DUP4 DUP2 LT ISZERO PUSH2 0x122E JUMPI PUSH1 0x40 MLOAD PUSH32 0x8C379A000000000000000000000000000000000000000000000000000000000 DUP2 MSTORE PUSH1 0x4 ADD PUSH2 0x1225 SWAP1 PUSH2 0x24A1 JUMP JUMPDEST PUSH1 0x40 MLOAD DUP1 SWAP2 SUB SWAP1 REVERT JUMPDEST DUP1 SWAP2 POP POP SWAP3 SWAP2 POP POP JUMP JUMPDEST PUSH1 0x0 DUP2 MLOAD SWAP1 POP PUSH1 0x0 PUSH11 0x636F6E736F6C652E6C6F67 SWAP1 POP PUSH1 0x20 DUP4 ADD PUSH1 0x0 DUP1 DUP5 DUP4 DUP6 GAS STATICCALL POP POP POP POP POP JUMP JUMPDEST PUSH1 0x0 PUSH2 0x12C3 DUP3 PUSH1 0x40 MLOAD DUP1 PUSH1 0x40 ADD PUSH1 0x40 MSTORE DUP1 PUSH1 0x20 DUP2 MSTORE PUSH1 0x20 ADD PUSH32 0x5361666545524332303A206C6F772D6C6576656C2063616C6C206661696C6564 DUP2 MSTORE POP DUP6 PUSH20 0xFFFFFFFFFFFFFFFFFFFFFFFFFFFFFFFFFFFFFFFF AND PUSH2 0x1328 SWAP1 SWAP3 SWAP2 SWAP1 PUSH4 0xFFFFFFFF AND JUMP JUMPDEST SWAP1 POP PUSH1 0x0 DUP2 MLOAD GT ISZERO PUSH2 0x1323 JUMPI DUP1 DUP1 PUSH1 0x20 ADD SWAP1 MLOAD DUP2 ADD SWAP1 PUSH2 0x12E3 SWAP2 SWAP1 PUSH2 0x22A9 JUMP JUMPDEST PUSH2 0x1322 JUMPI PUSH1 0x40 MLOAD PUSH32 0x8C379A000000000000000000000000000000000000000000000000000000000 DUP2 MSTORE PUSH1 0x4 ADD PUSH2 0x1319 SWAP1 PUSH2 0x2533 JUMP JUMPDEST PUSH1 0x40 MLOAD DUP1 SWAP2 SUB SWAP1 REVERT JUMPDEST JUMPDEST POP POP POP JUMP JUMPDEST PUSH1 0x60 PUSH2 0x1337 DUP5 DUP5 PUSH1 0x0 DUP6 PUSH2 0x1340 JUMP JUMPDEST SWAP1 POP SWAP4 SWAP3 POP POP POP JUMP JUMPDEST PUSH1 0x60 DUP3 SELFBALANCE LT ISZERO PUSH2 0x1385 JUMPI PUSH1 0x40 MLOAD PUSH32 0x8C379A000000000000000000000000000000000000000000000000000000000 DUP2 MSTORE PUSH1 0x4 ADD PUSH2 0x137C SWAP1 PUSH2 0x25C5 JUMP JUMPDEST PUSH1 0x40 MLOAD DUP1 SWAP2 SUB SWAP1 REVERT JUMPDEST PUSH2 0x138E DUP6 PUSH2 0x1454 JUMP JUMPDEST PUSH2 0x13CD JUMPI PUSH1 0x40 MLOAD PUSH32 0x8C379A000000000000000000000000000000000000000000000000000000000 DUP2 MSTORE PUSH1 0x4 ADD PUSH2 0x13C4 SWAP1 PUSH2 0x2631 JUMP JUMPDEST PUSH1 0x40 MLOAD DUP1 SWAP2 SUB SWAP1 REVERT JUMPDEST PUSH1 0x0 DUP1 DUP7 PUSH20 0xFFFFFFFFFFFFFFFFFFFFFFFFFFFFFFFFFFFFFFFF AND DUP6 DUP8 PUSH1 0x40 MLOAD PUSH2 0x13F6 SWAP2 SWAP1 PUSH2 0x2698 JUMP JUMPDEST PUSH1 0x0 PUSH1 0x40 MLOAD DUP1 DUP4 SUB DUP2 DUP6 DUP8 GAS CALL SWAP3 POP POP POP RETURNDATASIZE DUP1 PUSH1 0x0 DUP2 EQ PUSH2 0x1433 JUMPI PUSH1 0x40 MLOAD SWAP2 POP PUSH1 0x1F NOT PUSH1 0x3F RETURNDATASIZE ADD AND DUP3 ADD PUSH1 0x40 MSTORE RETURNDATASIZE DUP3 MSTORE RETURNDATASIZE PUSH1 0x0 PUSH1 0x20 DUP5 ADD RETURNDATACOPY PUSH2 0x1438 JUMP JUMPDEST PUSH1 0x60 SWAP2 POP JUMPDEST POP SWAP2 POP SWAP2 POP PUSH2 0x1448 DUP3 DUP3 DUP7 PUSH2 0x1477 JUMP JUMPDEST SWAP3 POP POP POP SWAP5 SWAP4 POP POP POP POP JUMP JUMPDEST PUSH1 0x0 DUP1 DUP3 PUSH20 0xFFFFFFFFFFFFFFFFFFFFFFFFFFFFFFFFFFFFFFFF AND EXTCODESIZE GT SWAP1 POP SWAP2 SWAP1 POP JUMP JUMPDEST PUSH1 0x60 DUP4 ISZERO PUSH2 0x1487 JUMPI DUP3 SWAP1 POP PUSH2 0x14D7 JUMP JUMPDEST PUSH1 0x0 DUP4 MLOAD GT ISZERO PUSH2 0x149A JUMPI DUP3 MLOAD DUP1 DUP5 PUSH1 0x20 ADD REVERT JUMPDEST DUP2 PUSH1 0x40 MLOAD PUSH32 0x8C379A000000000000000000000000000000000000000000000000000000000 DUP2 MSTORE PUSH1 0x4 ADD PUSH2 0x14CE SWAP2 SWAP1 PUSH2 0x1F7A JUMP JUMPDEST PUSH1 0x40 MLOAD DUP1 SWAP2 SUB SWAP1 REVERT JUMPDEST SWAP4 SWAP3 POP POP POP JUMP JUMPDEST PUSH1 0x0 PUSH1 0x40 MLOAD SWAP1 POP SWAP1 JUMP JUMPDEST PUSH1 0x0 DUP1 REVERT JUMPDEST PUSH1 0x0 DUP1 REVERT JUMPDEST PUSH1 0x0 DUP1 REVERT JUMPDEST PUSH1 0x0 PUSH1 0x1F NOT PUSH1 0x1F DUP4 ADD AND SWAP1 POP SWAP2 SWAP1 POP JUMP JUMPDEST PUSH32 0x4E487B7100000000000000000000000000000000000000000000000000000000 PUSH1 0x0 MSTORE PUSH1 0x41 PUSH1 0x4 MSTORE PUSH1 0x24 PUSH1 0x0 REVERT JUMPDEST PUSH2 0x1540 DUP3 PUSH2 0x14F7 JUMP JUMPDEST DUP2 ADD DUP2 DUP2 LT PUSH8 0xFFFFFFFFFFFFFFFF DUP3 GT OR ISZERO PUSH2 0x155F JUMPI PUSH2 0x155E PUSH2 0x1508 JUMP JUMPDEST JUMPDEST DUP1 PUSH1 0x40 MSTORE POP POP POP JUMP JUMPDEST PUSH1 0x0 PUSH2 0x1572 PUSH2 0x14DE JUMP JUMPDEST SWAP1 POP PUSH2 0x157E DUP3 DUP3 PUSH2 0x1537 JUMP JUMPDEST SWAP2 SWAP1 POP JUMP JUMPDEST PUSH1 0x0 PUSH8 0xFFFFFFFFFFFFFFFF DUP3 GT ISZERO PUSH2 0x159E JUMPI PUSH2 0x159D PUSH2 0x1508 JUMP JUMPDEST JUMPDEST PUSH1 0x20 DUP3 MUL SWAP1 POP PUSH1 0x20 DUP2 ADD SWAP1 POP SWAP2 SWAP1 POP JUMP JUMPDEST PUSH1 0x0 DUP1 REVERT JUMPDEST PUSH1 0x0 DUP1 REVERT JUMPDEST PUSH1 0x0 PUSH8 0xFFFFFFFFFFFFFFFF DUP3 GT ISZERO PUSH2 0x15D4 JUMPI PUSH2 0x15D3 PUSH2 0x1508 JUMP JUMPDEST JUMPDEST PUSH2 0x15DD DUP3 PUSH2 0x14F7 JUMP JUMPDEST SWAP1 POP PUSH1 0x20 DUP2 ADD SWAP1 POP SWAP2 SWAP1 POP JUMP JUMPDEST DUP3 DUP2 DUP4 CALLDATACOPY PUSH1 0x0 DUP4 DUP4 ADD MSTORE POP POP POP JUMP JUMPDEST PUSH1 0x0 PUSH2 0x160C PUSH2 0x1607 DUP5 PUSH2 0x15B9 JUMP JUMPDEST PUSH2 0x1568 JUMP JUMPDEST SWAP1 POP DUP3 DUP2 MSTORE PUSH1 0x20 DUP2 ADD DUP5 DUP5 DUP5 ADD GT ISZERO PUSH2 0x1628 JUMPI PUSH2 0x1627 PUSH2 0x15B4 JUMP JUMPDEST JUMPDEST PUSH2 0x1633 DUP5 DUP3 DUP6 PUSH2 0x15EA JUMP JUMPDEST POP SWAP4 SWAP3 POP POP POP JUMP JUMPDEST PUSH1 0x0 DUP3 PUSH1 0x1F DUP4 ADD SLT PUSH2 0x1650 JUMPI PUSH2 0x164F PUSH2 0x14F2 JUMP JUMPDEST JUMPDEST DUP2 CALLDATALOAD PUSH2 0x1660 DUP5 DUP3 PUSH1 0x20 DUP7 ADD PUSH2 0x15F9 JUMP JUMPDEST SWAP2 POP POP SWAP3 SWAP2 POP POP JUMP JUMPDEST PUSH1 0x0 PUSH2 0x167C PUSH2 0x1677 DUP5 PUSH2 0x1583 JUMP JUMPDEST PUSH2 0x1568 JUMP JUMPDEST SWAP1 POP DUP1 DUP4 DUP3 MSTORE PUSH1 0x20 DUP3 ADD SWAP1 POP PUSH1 0x20 DUP5 MUL DUP4 ADD DUP6 DUP2 GT ISZERO PUSH2 0x169F JUMPI PUSH2 0x169E PUSH2 0x15AF JUMP JUMPDEST JUMPDEST DUP4 JUMPDEST DUP2 DUP2 LT ISZERO PUSH2 0x16E6 JUMPI DUP1 CALLDATALOAD PUSH8 0xFFFFFFFFFFFFFFFF DUP2 GT ISZERO PUSH2 0x16C4 JUMPI PUSH2 0x16C3 PUSH2 0x14F2 JUMP JUMPDEST JUMPDEST DUP1 DUP7 ADD PUSH2 0x16D1 DUP10 DUP3 PUSH2 0x163B JUMP JUMPDEST DUP6 MSTORE PUSH1 0x20 DUP6 ADD SWAP5 POP POP POP PUSH1 0x20 DUP2 ADD SWAP1 POP PUSH2 0x16A1 JUMP JUMPDEST POP POP POP SWAP4 SWAP3 POP POP POP JUMP JUMPDEST PUSH1 0x0 DUP3 PUSH1 0x1F DUP4 ADD SLT PUSH2 0x1705 JUMPI PUSH2 0x1704 PUSH2 0x14F2 JUMP JUMPDEST JUMPDEST DUP2 CALLDATALOAD PUSH2 0x1715 DUP5 DUP3 PUSH1 0x20 DUP7 ADD PUSH2 0x1669 JUMP JUMPDEST SWAP2 POP POP SWAP3 SWAP2 POP POP JUMP JUMPDEST PUSH1 0x0 PUSH8 0xFFFFFFFFFFFFFFFF DUP3 GT ISZERO PUSH2 0x1739 JUMPI PUSH2 0x1738 PUSH2 0x1508 JUMP JUMPDEST JUMPDEST PUSH1 0x20 DUP3 MUL SWAP1 POP PUSH1 0x20 DUP2 ADD SWAP1 POP SWAP2 SWAP1 POP JUMP JUMPDEST PUSH1 0x0 DUP2 SWAP1 POP SWAP2 SWAP1 POP JUMP JUMPDEST PUSH2 0x175D DUP2 PUSH2 0x174A JUMP JUMPDEST DUP2 EQ PUSH2 0x1768 JUMPI PUSH1 0x0 DUP1 REVERT JUMPDEST POP JUMP JUMPDEST PUSH1 0x0 DUP2 CALLDATALOAD SWAP1 POP PUSH2 0x177A DUP2 PUSH2 0x1754 JUMP JUMPDEST SWAP3 SWAP2 POP POP JUMP JUMPDEST PUSH1 0x0 PUSH2 0x1793 PUSH2 0x178E DUP5 PUSH2 0x171E JUMP JUMPDEST PUSH2 0x1568 JUMP JUMPDEST SWAP1 POP DUP1 DUP4 DUP3 MSTORE PUSH1 0x20 DUP3 ADD SWAP1 POP PUSH1 0x20 DUP5 MUL DUP4 ADD DUP6 DUP2 GT ISZERO PUSH2 0x17B6 JUMPI PUSH2 0x17B5 PUSH2 0x15AF JUMP JUMPDEST JUMPDEST DUP4 JUMPDEST DUP2 DUP2 LT ISZERO PUSH2 0x17DF JUMPI DUP1 PUSH2 0x17CB DUP9 DUP3 PUSH2 0x176B JUMP JUMPDEST DUP5 MSTORE PUSH1 0x20 DUP5 ADD SWAP4 POP POP PUSH1 0x20 DUP2 ADD SWAP1 POP PUSH2 0x17B8 JUMP JUMPDEST POP POP POP SWAP4 SWAP3 POP POP POP JUMP JUMPDEST PUSH1 0x0 DUP3 PUSH1 0x1F DUP4 ADD SLT PUSH2 0x17FE JUMPI PUSH2 0x17FD PUSH2 0x14F2 JUMP JUMPDEST JUMPDEST DUP2 CALLDATALOAD PUSH2 0x180E DUP5 DUP3 PUSH1 0x20 DUP7 ADD PUSH2 0x1780 JUMP JUMPDEST SWAP2 POP POP SWAP3 SWAP2 POP POP JUMP JUMPDEST PUSH1 0x0 DUP1 PUSH1 0x40 DUP4 DUP6 SUB SLT ISZERO PUSH2 0x182E JUMPI PUSH2 0x182D PUSH2 0x14E8 JUMP JUMPDEST JUMPDEST PUSH1 0x0 DUP4 ADD CALLDATALOAD PUSH8 0xFFFFFFFFFFFFFFFF DUP2 GT ISZERO PUSH2 0x184C JUMPI PUSH2 0x184B PUSH2 0x14ED JUMP JUMPDEST JUMPDEST PUSH2 0x1858 DUP6 DUP3 DUP7 ADD PUSH2 0x16F0 JUMP JUMPDEST SWAP3 POP POP PUSH1 0x20 DUP4 ADD CALLDATALOAD PUSH8 0xFFFFFFFFFFFFFFFF DUP2 GT ISZERO PUSH2 0x1879 JUMPI PUSH2 0x1878 PUSH2 0x14ED JUMP JUMPDEST JUMPDEST PUSH2 0x1885 DUP6 DUP3 DUP7 ADD PUSH2 0x17E9 JUMP JUMPDEST SWAP2 POP POP SWAP3 POP SWAP3 SWAP1 POP JUMP JUMPDEST PUSH2 0x1898 DUP2 PUSH2 0x174A JUMP JUMPDEST DUP3 MSTORE POP POP JUMP JUMPDEST PUSH1 0x0 PUSH1 0x20 DUP3 ADD SWAP1 POP PUSH2 0x18B3 PUSH1 0x0 DUP4 ADD DUP5 PUSH2 0x188F JUMP JUMPDEST SWAP3 SWAP2 POP POP JUMP JUMPDEST PUSH1 0x0 PUSH20 0xFFFFFFFFFFFFFFFFFFFFFFFFFFFFFFFFFFFFFFFF DUP3 AND SWAP1 POP SWAP2 SWAP1 POP JUMP JUMPDEST PUSH1 0x0 PUSH2 0x18E4 DUP3 PUSH2 0x18B9 JUMP JUMPDEST SWAP1 POP SWAP2 SWAP1 POP JUMP JUMPDEST PUSH2 0x18F4 DUP2 PUSH2 0x18D9 JUMP JUMPDEST DUP2 EQ PUSH2 0x18FF JUMPI PUSH1 0x0 DUP1 REVERT JUMPDEST POP JUMP JUMPDEST PUSH1 0x0 DUP2 CALLDATALOAD SWAP1 POP PUSH2 0x1911 DUP2 PUSH2 0x18EB JUMP JUMPDEST SWAP3 SWAP2 POP POP JUMP JUMPDEST PUSH1 0x0 PUSH1 0x20 DUP3 DUP5 SUB SLT ISZERO PUSH2 0x192D JUMPI PUSH2 0x192C PUSH2 0x14E8 JUMP JUMPDEST JUMPDEST PUSH1 0x0 PUSH2 0x193B DUP5 DUP3 DUP6 ADD PUSH2 0x1902 JUMP JUMPDEST SWAP2 POP POP SWAP3 SWAP2 POP POP JUMP JUMPDEST PUSH1 0x0 PUSH1 0x20 DUP3 DUP5 SUB SLT ISZERO PUSH2 0x195A JUMPI PUSH2 0x1959 PUSH2 0x14E8 JUMP JUMPDEST JUMPDEST PUSH1 0x0 PUSH2 0x1968 DUP5 DUP3 DUP6 ADD PUSH2 0x176B JUMP JUMPDEST SWAP2 POP POP SWAP3 SWAP2 POP POP JUMP JUMPDEST PUSH2 0x197A DUP2 PUSH2 0x18D9 JUMP JUMPDEST DUP3 MSTORE POP POP JUMP JUMPDEST PUSH1 0x0 PUSH1 0x20 DUP3 ADD SWAP1 POP PUSH2 0x1995 PUSH1 0x0 DUP4 ADD DUP5 PUSH2 0x1971 JUMP JUMPDEST SWAP3 SWAP2 POP POP JUMP JUMPDEST PUSH1 0x0 DUP1 REVERT JUMPDEST PUSH1 0x0 DUP1 DUP4 PUSH1 0x1F DUP5 ADD SLT PUSH2 0x19B6 JUMPI PUSH2 0x19B5 PUSH2 0x14F2 JUMP JUMPDEST JUMPDEST DUP3 CALLDATALOAD SWAP1 POP PUSH8 0xFFFFFFFFFFFFFFFF DUP2 GT ISZERO PUSH2 0x19D3 JUMPI PUSH2 0x19D2 PUSH2 0x199B JUMP JUMPDEST JUMPDEST PUSH1 0x20 DUP4 ADD SWAP2 POP DUP4 PUSH1 0x20 DUP3 MUL DUP4 ADD GT ISZERO PUSH2 0x19EF JUMPI PUSH2 0x19EE PUSH2 0x15AF JUMP JUMPDEST JUMPDEST SWAP3 POP SWAP3 SWAP1 POP JUMP JUMPDEST PUSH1 0x0 DUP1 DUP4 PUSH1 0x1F DUP5 ADD SLT PUSH2 0x1A0C JUMPI PUSH2 0x1A0B PUSH2 0x14F2 JUMP JUMPDEST JUMPDEST DUP3 CALLDATALOAD SWAP1 POP PUSH8 0xFFFFFFFFFFFFFFFF DUP2 GT ISZERO PUSH2 0x1A29 JUMPI PUSH2 0x1A28 PUSH2 0x199B JUMP JUMPDEST JUMPDEST PUSH1 0x20 DUP4 ADD SWAP2 POP DUP4 PUSH1 0x20 DUP3 MUL DUP4 ADD GT ISZERO PUSH2 0x1A45 JUMPI PUSH2 0x1A44 PUSH2 0x15AF JUMP JUMPDEST JUMPDEST SWAP3 POP SWAP3 SWAP1 POP JUMP JUMPDEST PUSH1 0x0 DUP1 PUSH1 0x0 DUP1 PUSH1 0x40 DUP6 DUP8 SUB SLT ISZERO PUSH2 0x1A66 JUMPI PUSH2 0x1A65 PUSH2 0x14E8 JUMP JUMPDEST JUMPDEST PUSH1 0x0 DUP6 ADD CALLDATALOAD PUSH8 0xFFFFFFFFFFFFFFFF DUP2 GT ISZERO PUSH2 0x1A84 JUMPI PUSH2 0x1A83 PUSH2 0x14ED JUMP JUMPDEST JUMPDEST PUSH2 0x1A90 DUP8 DUP3 DUP9 ADD PUSH2 0x19A0 JUMP JUMPDEST SWAP5 POP SWAP5 POP POP PUSH1 0x20 DUP6 ADD CALLDATALOAD PUSH8 0xFFFFFFFFFFFFFFFF DUP2 GT ISZERO PUSH2 0x1AB3 JUMPI PUSH2 0x1AB2 PUSH2 0x14ED JUMP JUMPDEST JUMPDEST PUSH2 0x1ABF DUP8 DUP3 DUP9 ADD PUSH2 0x19F6 JUMP JUMPDEST SWAP3 POP SWAP3 POP POP SWAP3 SWAP6 SWAP2 SWAP5 POP SWAP3 POP JUMP JUMPDEST PUSH1 0x0 DUP2 SWAP1 POP SWAP2 SWAP1 POP JUMP JUMPDEST PUSH1 0x0 PUSH2 0x1AF2 PUSH2 0x1AED PUSH2 0x1AE8 DUP5 PUSH2 0x18B9 JUMP JUMPDEST PUSH2 0x1ACD JUMP JUMPDEST PUSH2 0x18B9 JUMP JUMPDEST SWAP1 POP SWAP2 SWAP1 POP JUMP JUMPDEST PUSH1 0x0 PUSH2 0x1B04 DUP3 PUSH2 0x1AD7 JUMP JUMPDEST SWAP1 POP SWAP2 SWAP1 POP JUMP JUMPDEST PUSH1 0x0 PUSH2 0x1B16 DUP3 PUSH2 0x1AF9 JUMP JUMPDEST SWAP1 POP SWAP2 SWAP1 POP JUMP JUMPDEST PUSH2 0x1B26 DUP2 PUSH2 0x1B0B JUMP JUMPDEST DUP3 MSTORE POP POP JUMP JUMPDEST PUSH1 0x0 PUSH1 0x20 DUP3 ADD SWAP1 POP PUSH2 0x1B41 PUSH1 0x0 DUP4 ADD DUP5 PUSH2 0x1B1D JUMP JUMPDEST SWAP3 SWAP2 POP POP JUMP JUMPDEST PUSH1 0x0 DUP3 DUP3 MSTORE PUSH1 0x20 DUP3 ADD SWAP1 POP SWAP3 SWAP2 POP POP JUMP JUMPDEST PUSH32 0x506C6561736520636865636B2074686520646174612C20746865206E65777320 PUSH1 0x0 DUP3 ADD MSTORE PUSH32 0x494420616E6420646973747269627574696F6E207175616E7469747920617265 PUSH1 0x20 DUP3 ADD MSTORE PUSH32 0x20696E636F6E73697374656E7400000000000000000000000000000000000000 PUSH1 0x40 DUP3 ADD MSTORE POP JUMP JUMPDEST PUSH1 0x0 PUSH2 0x1BDA PUSH1 0x4D DUP4 PUSH2 0x1B47 JUMP JUMPDEST SWAP2 POP PUSH2 0x1BE5 DUP3 PUSH2 0x1B58 JUMP JUMPDEST PUSH1 0x60 DUP3 ADD SWAP1 POP SWAP2 SWAP1 POP JUMP JUMPDEST PUSH1 0x0 PUSH1 0x20 DUP3 ADD SWAP1 POP DUP2 DUP2 SUB PUSH1 0x0 DUP4 ADD MSTORE PUSH2 0x1C09 DUP2 PUSH2 0x1BCD JUMP JUMPDEST SWAP1 POP SWAP2 SWAP1 POP JUMP JUMPDEST PUSH32 0x52656C656173653A206E6565642073657420546F6B656E204164647265737300 PUSH1 0x0 DUP3 ADD MSTORE POP JUMP JUMPDEST PUSH1 0x0 PUSH2 0x1C46 PUSH1 0x1F DUP4 PUSH2 0x1B47 JUMP JUMPDEST SWAP2 POP PUSH2 0x1C51 DUP3 PUSH2 0x1C10 JUMP JUMPDEST PUSH1 0x20 DUP3 ADD SWAP1 POP SWAP2 SWAP1 POP JUMP JUMPDEST PUSH1 0x0 PUSH1 0x20 DUP3 ADD SWAP1 POP DUP2 DUP2 SUB PUSH1 0x0 DUP4 ADD MSTORE PUSH2 0x1C75 DUP2 PUSH2 0x1C39 JUMP JUMPDEST SWAP1 POP SWAP2 SWAP1 POP JUMP JUMPDEST PUSH32 0x52656C656173653A206E65656420736574204368616C6C656E6720436F6E7472 PUSH1 0x0 DUP3 ADD MSTORE PUSH32 0x6163742041646472657373000000000000000000000000000000000000000000 PUSH1 0x20 DUP3 ADD MSTORE POP JUMP JUMPDEST PUSH1 0x0 PUSH2 0x1CD8 PUSH1 0x2B DUP4 PUSH2 0x1B47 JUMP JUMPDEST SWAP2 POP PUSH2 0x1CE3 DUP3 PUSH2 0x1C7C JUMP JUMPDEST PUSH1 0x40 DUP3 ADD SWAP1 POP SWAP2 SWAP1 POP JUMP JUMPDEST PUSH1 0x0 PUSH1 0x20 DUP3 ADD SWAP1 POP DUP2 DUP2 SUB PUSH1 0x0 DUP4 ADD MSTORE PUSH2 0x1D07 DUP2 PUSH2 0x1CCB JUMP JUMPDEST SWAP1 POP SWAP2 SWAP1 POP JUMP JUMPDEST PUSH32 0x52656C656173653A206E65656420736574204C6F636B20436F6E747261637420 PUSH1 0x0 DUP3 ADD MSTORE PUSH32 0x4164647265737300000000000000000000000000000000000000000000000000 PUSH1 0x20 DUP3 ADD MSTORE POP JUMP JUMPDEST PUSH1 0x0 PUSH2 0x1D6A PUSH1 0x27 DUP4 PUSH2 0x1B47 JUMP JUMPDEST SWAP2 POP PUSH2 0x1D75 DUP3 PUSH2 0x1D0E JUMP JUMPDEST PUSH1 0x40 DUP3 ADD SWAP1 POP SWAP2 SWAP1 POP JUMP JUMPDEST PUSH1 0x0 PUSH1 0x20 DUP3 ADD SWAP1 POP DUP2 DUP2 SUB PUSH1 0x0 DUP4 ADD MSTORE PUSH2 0x1D99 DUP2 PUSH2 0x1D5D JUMP JUMPDEST SWAP1 POP SWAP2 SWAP1 POP JUMP JUMPDEST PUSH32 0x4E487B7100000000000000000000000000000000000000000000000000000000 PUSH1 0x0 MSTORE PUSH1 0x32 PUSH1 0x4 MSTORE PUSH1 0x24 PUSH1 0x0 REVERT JUMPDEST PUSH32 0x4E487B7100000000000000000000000000000000000000000000000000000000 PUSH1 0x0 MSTORE PUSH1 0x11 PUSH1 0x4 MSTORE PUSH1 0x24 PUSH1 0x0 REVERT JUMPDEST PUSH1 0x0 PUSH2 0x1E09 DUP3 PUSH2 0x174A JUMP JUMPDEST SWAP2 POP PUSH2 0x1E14 DUP4 PUSH2 0x174A JUMP JUMPDEST SWAP3 POP DUP3 DUP3 ADD SWAP1 POP DUP1 DUP3 GT ISZERO PUSH2 0x1E2C JUMPI PUSH2 0x1E2B PUSH2 0x1DCF JUMP JUMPDEST JUMPDEST SWAP3 SWAP2 POP POP JUMP JUMPDEST PUSH1 0x0 PUSH2 0x1E3D DUP3 PUSH2 0x174A JUMP JUMPDEST SWAP2 POP PUSH32 0xFFFFFFFFFFFFFFFFFFFFFFFFFFFFFFFFFFFFFFFFFFFFFFFFFFFFFFFFFFFFFFFF DUP3 SUB PUSH2 0x1E6F JUMPI PUSH2 0x1E6E PUSH2 0x1DCF JUMP JUMPDEST JUMPDEST PUSH1 0x1 DUP3 ADD SWAP1 POP SWAP2 SWAP1 POP JUMP JUMPDEST PUSH32 0x52656C656173653A20496E73756666696369656E7420746F74616C20616D6F75 PUSH1 0x0 DUP3 ADD MSTORE PUSH32 0x6E7420617661696C61626C6520666F7220646973747269627574696F6E000000 PUSH1 0x20 DUP3 ADD MSTORE POP JUMP JUMPDEST PUSH1 0x0 PUSH2 0x1ED6 PUSH1 0x3D DUP4 PUSH2 0x1B47 JUMP JUMPDEST SWAP2 POP PUSH2 0x1EE1 DUP3 PUSH2 0x1E7A JUMP JUMPDEST PUSH1 0x40 DUP3 ADD SWAP1 POP SWAP2 SWAP1 POP JUMP JUMPDEST PUSH1 0x0 PUSH1 0x20 DUP3 ADD SWAP1 POP DUP2 DUP2 SUB PUSH1 0x0 DUP4 ADD MSTORE PUSH2 0x1F05 DUP2 PUSH2 0x1EC9 JUMP JUMPDEST SWAP1 POP SWAP2 SWAP1 POP JUMP JUMPDEST PUSH1 0x0 DUP2 MLOAD SWAP1 POP SWAP2 SWAP1 POP JUMP JUMPDEST PUSH1 0x0 JUMPDEST DUP4 DUP2 LT ISZERO PUSH2 0x1F35 JUMPI DUP1 DUP3 ADD MLOAD DUP2 DUP5 ADD MSTORE PUSH1 0x20 DUP2 ADD SWAP1 POP PUSH2 0x1F1A JUMP JUMPDEST PUSH1 0x0 DUP5 DUP5 ADD MSTORE POP POP POP POP JUMP JUMPDEST PUSH1 0x0 PUSH2 0x1F4C DUP3 PUSH2 0x1F0C JUMP JUMPDEST PUSH2 0x1F56 DUP2 DUP6 PUSH2 0x1B47 JUMP JUMPDEST SWAP4 POP PUSH2 0x1F66 DUP2 DUP6 PUSH1 0x20 DUP7 ADD PUSH2 0x1F17 JUMP JUMPDEST PUSH2 0x1F6F DUP2 PUSH2 0x14F7 JUMP JUMPDEST DUP5 ADD SWAP2 POP POP SWAP3 SWAP2 POP POP JUMP JUMPDEST PUSH1 0x0 PUSH1 0x20 DUP3 ADD SWAP1 POP DUP2 DUP2 SUB PUSH1 0x0 DUP4 ADD MSTORE PUSH2 0x1F94 DUP2 DUP5 PUSH2 0x1F41 JUMP JUMPDEST SWAP1 POP SWAP3 SWAP2 POP POP JUMP JUMPDEST PUSH1 0x0 DUP1 REVERT JUMPDEST PUSH1 0x0 DUP1 REVERT JUMPDEST PUSH1 0x0 PUSH2 0x1FB9 PUSH2 0x1FB4 DUP5 PUSH2 0x15B9 JUMP JUMPDEST PUSH2 0x1568 JUMP JUMPDEST SWAP1 POP DUP3 DUP2 MSTORE PUSH1 0x20 DUP2 ADD DUP5 DUP5 DUP5 ADD GT ISZERO PUSH2 0x1FD5 JUMPI PUSH2 0x1FD4 PUSH2 0x15B4 JUMP JUMPDEST JUMPDEST PUSH2 0x1FE0 DUP5 DUP3 DUP6 PUSH2 0x1F17 JUMP JUMPDEST POP SWAP4 SWAP3 POP POP POP JUMP JUMPDEST PUSH1 0x0 DUP3 PUSH1 0x1F DUP4 ADD SLT PUSH2 0x1FFD JUMPI PUSH2 0x1FFC PUSH2 0x14F2 JUMP JUMPDEST JUMPDEST DUP2 MLOAD PUSH2 0x200D DUP5 DUP3 PUSH1 0x20 DUP7 ADD PUSH2 0x1FA6 JUMP JUMPDEST SWAP2 POP POP SWAP3 SWAP2 POP POP JUMP JUMPDEST PUSH1 0x0 DUP2 MLOAD SWAP1 POP PUSH2 0x2025 DUP2 PUSH2 0x18EB JUMP JUMPDEST SWAP3 SWAP2 POP POP JUMP JUMPDEST PUSH1 0x0 DUP2 MLOAD SWAP1 POP PUSH2 0x203A DUP2 PUSH2 0x1754 JUMP JUMPDEST SWAP3 SWAP2 POP POP JUMP JUMPDEST PUSH1 0x0 DUP2 ISZERO ISZERO SWAP1 POP SWAP2 SWAP1 POP JUMP JUMPDEST PUSH2 0x2055 DUP2 PUSH2 0x2040 JUMP JUMPDEST DUP2 EQ PUSH2 0x2060 JUMPI PUSH1 0x0 DUP1 REVERT JUMPDEST POP JUMP JUMPDEST PUSH1 0x0 DUP2 MLOAD SWAP1 POP PUSH2 0x2072 DUP2 PUSH2 0x204C JUMP JUMPDEST SWAP3 SWAP2 POP POP JUMP JUMPDEST PUSH1 0x0 PUSH2 0x180 DUP3 DUP5 SUB SLT ISZERO PUSH2 0x208F JUMPI PUSH2 0x208E PUSH2 0x1F9C JUMP JUMPDEST JUMPDEST PUSH2 0x209A PUSH2 0x180 PUSH2 0x1568 JUMP JUMPDEST SWAP1 POP PUSH1 0x0 DUP3 ADD MLOAD PUSH8 0xFFFFFFFFFFFFFFFF DUP2 GT ISZERO PUSH2 0x20BA JUMPI PUSH2 0x20B9 PUSH2 0x1FA1 JUMP JUMPDEST JUMPDEST PUSH2 0x20C6 DUP5 DUP3 DUP6 ADD PUSH2 0x1FE8 JUMP JUMPDEST PUSH1 0x0 DUP4 ADD MSTORE POP PUSH1 0x20 PUSH2 0x20DA DUP5 DUP3 DUP6 ADD PUSH2 0x2016 JUMP JUMPDEST PUSH1 0x20 DUP4 ADD MSTORE POP PUSH1 0x40 PUSH2 0x20EE DUP5 DUP3 DUP6 ADD PUSH2 0x202B JUMP JUMPDEST PUSH1 0x40 DUP4 ADD MSTORE POP PUSH1 0x60 PUSH2 0x2102 DUP5 DUP3 DUP6 ADD PUSH2 0x202B JUMP JUMPDEST PUSH1 0x60 DUP4 ADD MSTORE POP PUSH1 0x80 PUSH2 0x2116 DUP5 DUP3 DUP6 ADD PUSH2 0x2063 JUMP JUMPDEST PUSH1 0x80 DUP4 ADD MSTORE POP PUSH1 0xA0 PUSH2 0x212A DUP5 DUP3 DUP6 ADD PUSH2 0x2063 JUMP JUMPDEST PUSH1 0xA0 DUP4 ADD MSTORE POP PUSH1 0xC0 PUSH2 0x213E DUP5 DUP3 DUP6 ADD PUSH2 0x2063 JUMP JUMPDEST PUSH1 0xC0 DUP4 ADD MSTORE POP PUSH1 0xE0 PUSH2 0x2152 DUP5 DUP3 DUP6 ADD PUSH2 0x202B JUMP JUMPDEST PUSH1 0xE0 DUP4 ADD MSTORE POP PUSH2 0x100 PUSH2 0x2167 DUP5 DUP3 DUP6 ADD PUSH2 0x2063 JUMP JUMPDEST PUSH2 0x100 DUP4 ADD MSTORE POP PUSH2 0x120 PUSH2 0x217D DUP5 DUP3 DUP6 ADD PUSH2 0x202B JUMP JUMPDEST PUSH2 0x120 DUP4 ADD MSTORE POP PUSH2 0x140 PUSH2 0x2193 DUP5 DUP3 DUP6 ADD PUSH2 0x202B JUMP JUMPDEST PUSH2 0x140 DUP4 ADD MSTORE POP PUSH2 0x160 PUSH2 0x21A9 DUP5 DUP3 DUP6 ADD PUSH2 0x202B JUMP JUMPDEST PUSH2 0x160 DUP4 ADD MSTORE POP SWAP3 SWAP2 POP POP JUMP JUMPDEST PUSH1 0x0 PUSH1 0x20 DUP3 DUP5 SUB SLT ISZERO PUSH2 0x21CC JUMPI PUSH2 0x21CB PUSH2 0x14E8 JUMP JUMPDEST JUMPDEST PUSH1 0x0 DUP3 ADD MLOAD PUSH8 0xFFFFFFFFFFFFFFFF DUP2 GT ISZERO PUSH2 0x21EA JUMPI PUSH2 0x21E9 PUSH2 0x14ED JUMP JUMPDEST JUMPDEST PUSH2 0x21F6 DUP5 DUP3 DUP6 ADD PUSH2 0x2078 JUMP JUMPDEST SWAP2 POP POP SWAP3 SWAP2 POP POP JUMP JUMPDEST PUSH1 0x0 PUSH1 0x60 DUP3 ADD SWAP1 POP PUSH2 0x2214 PUSH1 0x0 DUP4 ADD DUP7 PUSH2 0x188F JUMP JUMPDEST PUSH2 0x2221 PUSH1 0x20 DUP4 ADD DUP6 PUSH2 0x1971 JUMP JUMPDEST DUP2 DUP2 SUB PUSH1 0x40 DUP4 ADD MSTORE PUSH2 0x2233 DUP2 DUP5 PUSH2 0x1F41 JUMP JUMPDEST SWAP1 POP SWAP5 SWAP4 POP POP POP POP JUMP JUMPDEST PUSH32 0x4E6F207175616E7469747920746F2073656E6400000000000000000000000000 PUSH1 0x0 DUP3 ADD MSTORE POP JUMP JUMPDEST PUSH1 0x0 PUSH2 0x2273 PUSH1 0x13 DUP4 PUSH2 0x1B47 JUMP JUMPDEST SWAP2 POP PUSH2 0x227E DUP3 PUSH2 0x223D JUMP JUMPDEST PUSH1 0x20 DUP3 ADD SWAP1 POP SWAP2 SWAP1 POP JUMP JUMPDEST PUSH1 0x0 PUSH1 0x20 DUP3 ADD SWAP1 POP DUP2 DUP2 SUB PUSH1 0x0 DUP4 ADD MSTORE PUSH2 0x22A2 DUP2 PUSH2 0x2266 JUMP JUMPDEST SWAP1 POP SWAP2 SWAP1 POP JUMP JUMPDEST PUSH1 0x0 PUSH1 0x20 DUP3 DUP5 SUB SLT ISZERO PUSH2 0x22BF JUMPI PUSH2 0x22BE PUSH2 0x14E8 JUMP JUMPDEST JUMPDEST PUSH1 0x0 PUSH2 0x22CD DUP5 DUP3 DUP6 ADD PUSH2 0x2063 JUMP JUMPDEST SWAP2 POP POP SWAP3 SWAP2 POP POP JUMP JUMPDEST PUSH32 0x546865206E756D626572206F66206169722064726F7073206578636565647320 PUSH1 0x0 DUP3 ADD MSTORE PUSH32 0x746865206461696C792072656C6561736520616D6F756E740000000000000000 PUSH1 0x20 DUP3 ADD MSTORE POP JUMP JUMPDEST PUSH1 0x0 PUSH2 0x2332 PUSH1 0x38 DUP4 PUSH2 0x1B47 JUMP JUMPDEST SWAP2 POP PUSH2 0x233D DUP3 PUSH2 0x22D6 JUMP JUMPDEST PUSH1 0x40 DUP3 ADD SWAP1 POP SWAP2 SWAP1 POP JUMP JUMPDEST PUSH1 0x0 PUSH1 0x20 DUP3 ADD SWAP1 POP DUP2 DUP2 SUB PUSH1 0x0 DUP4 ADD MSTORE PUSH2 0x2361 DUP2 PUSH2 0x2325 JUMP JUMPDEST SWAP1 POP SWAP2 SWAP1 POP JUMP JUMPDEST PUSH1 0x0 PUSH1 0x20 DUP3 DUP5 SUB SLT ISZERO PUSH2 0x237E JUMPI PUSH2 0x237D PUSH2 0x14E8 JUMP JUMPDEST JUMPDEST PUSH1 0x0 PUSH2 0x238C DUP5 DUP3 DUP6 ADD PUSH2 0x202B JUMP JUMPDEST SWAP2 POP POP SWAP3 SWAP2 POP POP JUMP JUMPDEST PUSH1 0x0 PUSH1 0x40 DUP3 ADD SWAP1 POP DUP2 DUP2 SUB PUSH1 0x0 DUP4 ADD MSTORE PUSH2 0x23AF DUP2 DUP6 PUSH2 0x1F41 JUMP JUMPDEST SWAP1 POP PUSH2 0x23BE PUSH1 0x20 DUP4 ADD DUP5 PUSH2 0x188F JUMP JUMPDEST SWAP4 SWAP3 POP POP POP JUMP JUMPDEST PUSH1 0x0 PUSH1 0x40 DUP3 ADD SWAP1 POP DUP2 DUP2 SUB PUSH1 0x0 DUP4 ADD MSTORE PUSH2 0x23DF DUP2 DUP6 PUSH2 0x1F41 JUMP JUMPDEST SWAP1 POP PUSH2 0x23EE PUSH1 0x20 DUP4 ADD DUP5 PUSH2 0x1971 JUMP JUMPDEST SWAP4 SWAP3 POP POP POP JUMP JUMPDEST PUSH1 0x0 PUSH1 0x40 DUP3 ADD SWAP1 POP DUP2 DUP2 SUB PUSH1 0x0 DUP4 ADD MSTORE PUSH2 0x240F DUP2 DUP6 PUSH2 0x1F41 JUMP JUMPDEST SWAP1 POP DUP2 DUP2 SUB PUSH1 0x20 DUP4 ADD MSTORE PUSH2 0x2423 DUP2 DUP5 PUSH2 0x1F41 JUMP JUMPDEST SWAP1 POP SWAP4 SWAP3 POP POP POP JUMP JUMPDEST PUSH1 0x0 PUSH1 0x40 DUP3 ADD SWAP1 POP PUSH2 0x2441 PUSH1 0x0 DUP4 ADD DUP6 PUSH2 0x1971 JUMP JUMPDEST PUSH2 0x244E PUSH1 0x20 DUP4 ADD DUP5 PUSH2 0x188F JUMP JUMPDEST SWAP4 SWAP3 POP POP POP JUMP JUMPDEST PUSH32 0x536166654D6174683A206164646974696F6E206F766572666C6F770000000000 PUSH1 0x0 DUP3 ADD MSTORE POP JUMP JUMPDEST PUSH1 0x0 PUSH2 0x248B PUSH1 0x1B DUP4 PUSH2 0x1B47 JUMP JUMPDEST SWAP2 POP PUSH2 0x2496 DUP3 PUSH2 0x2455 JUMP JUMPDEST PUSH1 0x20 DUP3 ADD SWAP1 POP SWAP2 SWAP1 POP JUMP JUMPDEST PUSH1 0x0 PUSH1 0x20 DUP3 ADD SWAP1 POP DUP2 DUP2 SUB PUSH1 0x0 DUP4 ADD MSTORE PUSH2 0x24BA DUP2 PUSH2 0x247E JUMP JUMPDEST SWAP1 POP SWAP2 SWAP1 POP JUMP JUMPDEST PUSH32 0x5361666545524332303A204552433230206F7065726174696F6E20646964206E PUSH1 0x0 DUP3 ADD MSTORE PUSH32 0x6F74207375636365656400000000000000000000000000000000000000000000 PUSH1 0x20 DUP3 ADD MSTORE POP JUMP JUMPDEST PUSH1 0x0 PUSH2 0x251D PUSH1 0x2A DUP4 PUSH2 0x1B47 JUMP JUMPDEST SWAP2 POP PUSH2 0x2528 DUP3 PUSH2 0x24C1 JUMP JUMPDEST PUSH1 0x40 DUP3 ADD SWAP1 POP SWAP2 SWAP1 POP JUMP JUMPDEST PUSH1 0x0 PUSH1 0x20 DUP3 ADD SWAP1 POP DUP2 DUP2 SUB PUSH1 0x0 DUP4 ADD MSTORE PUSH2 0x254C DUP2 PUSH2 0x2510 JUMP JUMPDEST SWAP1 POP SWAP2 SWAP1 POP JUMP JUMPDEST PUSH32 0x416464726573733A20696E73756666696369656E742062616C616E636520666F PUSH1 0x0 DUP3 ADD MSTORE PUSH32 0x722063616C6C0000000000000000000000000000000000000000000000000000 PUSH1 0x20 DUP3 ADD MSTORE POP JUMP JUMPDEST PUSH1 0x0 PUSH2 0x25AF PUSH1 0x26 DUP4 PUSH2 0x1B47 JUMP JUMPDEST SWAP2 POP PUSH2 0x25BA DUP3 PUSH2 0x2553 JUMP JUMPDEST PUSH1 0x40 DUP3 ADD SWAP1 POP SWAP2 SWAP1 POP JUMP JUMPDEST PUSH1 0x0 PUSH1 0x20 DUP3 ADD SWAP1 POP DUP2 DUP2 SUB PUSH1 0x0 DUP4 ADD MSTORE PUSH2 0x25DE DUP2 PUSH2 0x25A2 JUMP JUMPDEST SWAP1 POP SWAP2 SWAP1 POP JUMP JUMPDEST PUSH32 0x416464726573733A2063616C6C20746F206E6F6E2D636F6E7472616374000000 PUSH1 0x0 DUP3 ADD MSTORE POP JUMP JUMPDEST PUSH1 0x0 PUSH2 0x261B PUSH1 0x1D DUP4 PUSH2 0x1B47 JUMP JUMPDEST SWAP2 POP PUSH2 0x2626 DUP3 PUSH2 0x25E5 JUMP JUMPDEST PUSH1 0x20 DUP3 ADD SWAP1 POP SWAP2 SWAP1 POP JUMP JUMPDEST PUSH1 0x0 PUSH1 0x20 DUP3 ADD SWAP1 POP DUP2 DUP2 SUB PUSH1 0x0 DUP4 ADD MSTORE PUSH2 0x264A DUP2 PUSH2 0x260E JUMP JUMPDEST SWAP1 POP SWAP2 SWAP1 POP JUMP JUMPDEST PUSH1 0x0 DUP2 MLOAD SWAP1 POP SWAP2 SWAP1 POP JUMP JUMPDEST PUSH1 0x0 DUP2 SWAP1 POP SWAP3 SWAP2 POP POP JUMP JUMPDEST PUSH1 0x0 PUSH2 0x2672 DUP3 PUSH2 0x2651 JUMP JUMPDEST PUSH2 0x267C DUP2 DUP6 PUSH2 0x265C JUMP JUMPDEST SWAP4 POP PUSH2 0x268C DUP2 DUP6 PUSH1 0x20 DUP7 ADD PUSH2 0x1F17 JUMP JUMPDEST DUP1 DUP5 ADD SWAP2 POP POP SWAP3 SWAP2 POP POP JUMP JUMPDEST PUSH1 0x0 PUSH2 0x26A4 DUP3 DUP5 PUSH2 0x2667 JUMP JUMPDEST SWAP2 POP DUP2 SWAP1 POP SWAP3 SWAP2 POP POP JUMP INVALID LOG2 PUSH5 0x6970667358 0x22 SLT KECCAK256 0xB9 0xAB DUP4 GT 0xBC 0xEE 0xD3 0x5D 0xEA 0xFB 0x2E PUSH9 0x7CF490D978F6EE984A 0xDF GT 0xD7 0xBD PUSH27 0x2B3DD1B5647D64736F6C6343000813003300000000000000000000 "
		},
		"gasEstimates": {
			"creation": {
				"codeDepositCost": "1991400",
				"executionCost": "48485",
				"totalCost": "2039885"
			},
			"external": {
				"burn(uint256)": "infinite",
				"changeOwner(address)": "26914",
				"decimals()": "2460",
				"distributionToSpecify(address[],uint256[])": "infinite",
				"getContractAddrss()": "2589",
				"getLockContractAddress()": "2589",
				"getTimestamp()": "382",
				"getTotalReleased()": "2526",
				"sendMasterTokenLock(string[],uint256[])": "infinite",
				"setChallengContract(address)": "24788",
				"setLockContractAddress(address)": "24766",
				"setTokenAddress(address)": "51227",
				"token()": "infinite",
				"tokenBalance()": "infinite"
			}
		},
		"methodIdentifiers": {
			"burn(uint256)": "42966c68",
			"changeOwner(address)": "a6f9dae1",
			"decimals()": "313ce567",
			"distributionToSpecify(address[],uint256[])": "5459b8a3",
			"getContractAddrss()": "47a58626",
			"getLockContractAddress()": "a39865e7",
			"getTimestamp()": "188ec356",
			"getTotalReleased()": "4b14c0ef",
			"sendMasterTokenLock(string[],uint256[])": "0af8668f",
			"setChallengContract(address)": "c52c31fa",
			"setLockContractAddress(address)": "c4529e37",
			"setTokenAddress(address)": "26a4e8d2",
			"token()": "fc0c546a",
			"tokenBalance()": "9e1a4d19"
		}
	},
	"abi": [
		{
			"inputs": [],
			"stateMutability": "nonpayable",
			"type": "constructor"
		},
		{
			"inputs": [
				{
					"internalType": "uint256",
					"name": "burnAmount",
					"type": "uint256"
				}
			],
			"name": "burn",
			"outputs": [],
			"stateMutability": "nonpayable",
			"type": "function"
		},
		{
			"inputs": [
				{
					"internalType": "address",
					"name": "newOwner",
					"type": "address"
				}
			],
			"name": "changeOwner",
			"outputs": [],
			"stateMutability": "nonpayable",
			"type": "function"
		},
		{
			"inputs": [],
			"name": "decimals",
			"outputs": [
				{
					"internalType": "uint256",
					"name": "",
					"type": "uint256"
				}
			],
			"stateMutability": "view",
			"type": "function"
		},
		{
			"inputs": [
				{
					"internalType": "address[]",
					"name": "recipients",
					"type": "address[]"
				},
				{
					"internalType": "uint256[]",
					"name": "values",
					"type": "uint256[]"
				}
			],
			"name": "distributionToSpecify",
			"outputs": [],
			"stateMutability": "nonpayable",
			"type": "function"
		},
		{
			"inputs": [],
			"name": "getContractAddrss",
			"outputs": [
				{
					"internalType": "address",
					"name": "",
					"type": "address"
				}
			],
			"stateMutability": "view",
			"type": "function"
		},
		{
			"inputs": [],
			"name": "getLockContractAddress",
			"outputs": [
				{
					"internalType": "address",
					"name": "",
					"type": "address"
				}
			],
			"stateMutability": "view",
			"type": "function"
		},
		{
			"inputs": [],
			"name": "getTimestamp",
			"outputs": [
				{
					"internalType": "uint256",
					"name": "",
					"type": "uint256"
				}
			],
			"stateMutability": "view",
			"type": "function"
		},
		{
			"inputs": [],
			"name": "getTotalReleased",
			"outputs": [
				{
					"internalType": "uint256",
					"name": "",
					"type": "uint256"
				}
			],
			"stateMutability": "view",
			"type": "function"
		},
		{
			"inputs": [
				{
					"internalType": "string[]",
					"name": "themeId",
					"type": "string[]"
				},
				{
					"internalType": "uint256[]",
					"name": "values",
					"type": "uint256[]"
				}
			],
			"name": "sendMasterTokenLock",
			"outputs": [],
			"stateMutability": "nonpayable",
			"type": "function"
		},
		{
			"inputs": [
				{
					"internalType": "address",
					"name": "contractAddrss",
					"type": "address"
				}
			],
			"name": "setChallengContract",
			"outputs": [],
			"stateMutability": "nonpayable",
			"type": "function"
		},
		{
			"inputs": [
				{
					"internalType": "address",
					"name": "lockContractAddress",
					"type": "address"
				}
			],
			"name": "setLockContractAddress",
			"outputs": [],
			"stateMutability": "nonpayable",
			"type": "function"
		},
		{
			"inputs": [
				{
					"internalType": "address",
					"name": "tokenAddress_",
					"type": "address"
				}
			],
			"name": "setTokenAddress",
			"outputs": [],
			"stateMutability": "nonpayable",
			"type": "function"
		},
		{
			"inputs": [],
			"name": "token",
			"outputs": [
				{
					"internalType": "contract IERC20",
					"name": "",
					"type": "address"
				}
			],
			"stateMutability": "view",
			"type": "function"
		},
		{
			"inputs": [],
			"name": "tokenBalance",
			"outputs": [
				{
					"internalType": "uint256",
					"name": "",
					"type": "uint256"
				}
			],
			"stateMutability": "view",
			"type": "function"
		}
	]
}